
sd.elf:     file format elf32-littlearm


Disassembly of section .text:

80100000 <_start>:
80100000:	e59fd028 	ldr	sp, [pc, #40]	; 80100030 <clean+0x14>
80100004:	eb000001 	bl	80100010 <clean_bss>
80100008:	fa00018c 	blx	80100640 <main>

8010000c <halt>:
8010000c:	eafffffe 	b	8010000c <halt>

80100010 <clean_bss>:
80100010:	e59f101c 	ldr	r1, [pc, #28]	; 80100034 <clean+0x18>
80100014:	e59f201c 	ldr	r2, [pc, #28]	; 80100038 <clean+0x1c>
80100018:	e3a03000 	mov	r3, #0

8010001c <clean>:
8010001c:	e1510002 	cmp	r1, r2
80100020:	b5813000 	strlt	r3, [r1]
80100024:	e2811004 	add	r1, r1, #4
80100028:	bafffffb 	blt	8010001c <clean>
8010002c:	e1a0f00e 	mov	pc, lr
80100030:	80200000 	eorhi	r0, r0, r0
80100034:	80102dd0 			; <UNDEFINED> instruction: 0x80102dd0
80100038:	801034e0 	andshi	r3, r0, r0, ror #9

8010003c <IOMUXC_SetPinMux>:
8010003c:	b480      	push	{r7}
8010003e:	b085      	sub	sp, #20
80100040:	af00      	add	r7, sp, #0
80100042:	60f8      	str	r0, [r7, #12]
80100044:	60b9      	str	r1, [r7, #8]
80100046:	607a      	str	r2, [r7, #4]
80100048:	603b      	str	r3, [r7, #0]
8010004a:	68fb      	ldr	r3, [r7, #12]
8010004c:	68ba      	ldr	r2, [r7, #8]
8010004e:	f002 010f 	and.w	r1, r2, #15
80100052:	69fa      	ldr	r2, [r7, #28]
80100054:	0112      	lsls	r2, r2, #4
80100056:	f002 0210 	and.w	r2, r2, #16
8010005a:	430a      	orrs	r2, r1
8010005c:	601a      	str	r2, [r3, #0]
8010005e:	687b      	ldr	r3, [r7, #4]
80100060:	2b00      	cmp	r3, #0
80100062:	d004      	beq.n	8010006e <IOMUXC_SetPinMux+0x32>
80100064:	687b      	ldr	r3, [r7, #4]
80100066:	683a      	ldr	r2, [r7, #0]
80100068:	f002 0207 	and.w	r2, r2, #7
8010006c:	601a      	str	r2, [r3, #0]
8010006e:	bf00      	nop
80100070:	3714      	adds	r7, #20
80100072:	46bd      	mov	sp, r7
80100074:	f85d 7b04 	ldr.w	r7, [sp], #4
80100078:	4770      	bx	lr

8010007a <IOMUXC_SetPinConfig>:
8010007a:	b480      	push	{r7}
8010007c:	b085      	sub	sp, #20
8010007e:	af00      	add	r7, sp, #0
80100080:	60f8      	str	r0, [r7, #12]
80100082:	60b9      	str	r1, [r7, #8]
80100084:	607a      	str	r2, [r7, #4]
80100086:	603b      	str	r3, [r7, #0]
80100088:	69bb      	ldr	r3, [r7, #24]
8010008a:	2b00      	cmp	r3, #0
8010008c:	d002      	beq.n	80100094 <IOMUXC_SetPinConfig+0x1a>
8010008e:	69bb      	ldr	r3, [r7, #24]
80100090:	69fa      	ldr	r2, [r7, #28]
80100092:	601a      	str	r2, [r3, #0]
80100094:	bf00      	nop
80100096:	3714      	adds	r7, #20
80100098:	46bd      	mov	sp, r7
8010009a:	f85d 7b04 	ldr.w	r7, [sp], #4
8010009e:	4770      	bx	lr

801000a0 <init_pins>:
801000a0:	b580      	push	{r7, lr}
801000a2:	b082      	sub	sp, #8
801000a4:	af02      	add	r7, sp, #8
801000a6:	2300      	movs	r3, #0
801000a8:	9301      	str	r3, [sp, #4]
801000aa:	2358      	movs	r3, #88	; 0x58
801000ac:	f2c0 2329 	movt	r3, #553	; 0x229
801000b0:	9300      	str	r3, [sp, #0]
801000b2:	2300      	movs	r3, #0
801000b4:	2200      	movs	r2, #0
801000b6:	2105      	movs	r1, #5
801000b8:	2014      	movs	r0, #20
801000ba:	f2c0 2029 	movt	r0, #553	; 0x229
801000be:	f7ff ffbd 	bl	8010003c <IOMUXC_SetPinMux>
801000c2:	2309      	movs	r3, #9
801000c4:	f2c0 0301 	movt	r3, #1
801000c8:	9301      	str	r3, [sp, #4]
801000ca:	2358      	movs	r3, #88	; 0x58
801000cc:	f2c0 2329 	movt	r3, #553	; 0x229
801000d0:	9300      	str	r3, [sp, #0]
801000d2:	2300      	movs	r3, #0
801000d4:	2200      	movs	r2, #0
801000d6:	2105      	movs	r1, #5
801000d8:	2014      	movs	r0, #20
801000da:	f2c0 2029 	movt	r0, #553	; 0x229
801000de:	f7ff ffcc 	bl	8010007a <IOMUXC_SetPinConfig>
801000e2:	2300      	movs	r3, #0
801000e4:	9301      	str	r3, [sp, #4]
801000e6:	f44f 7345 	mov.w	r3, #788	; 0x314
801000ea:	f2c0 230e 	movt	r3, #526	; 0x20e
801000ee:	9300      	str	r3, [sp, #0]
801000f0:	2303      	movs	r3, #3
801000f2:	f240 6224 	movw	r2, #1572	; 0x624
801000f6:	f2c0 220e 	movt	r2, #526	; 0x20e
801000fa:	2100      	movs	r1, #0
801000fc:	2088      	movs	r0, #136	; 0x88
801000fe:	f2c0 200e 	movt	r0, #526	; 0x20e
80100102:	f7ff ff9b 	bl	8010003c <IOMUXC_SetPinMux>
80100106:	f241 0390 	movw	r3, #4240	; 0x1090
8010010a:	9301      	str	r3, [sp, #4]
8010010c:	f44f 7345 	mov.w	r3, #788	; 0x314
80100110:	f2c0 230e 	movt	r3, #526	; 0x20e
80100114:	9300      	str	r3, [sp, #0]
80100116:	2303      	movs	r3, #3
80100118:	f240 6224 	movw	r2, #1572	; 0x624
8010011c:	f2c0 220e 	movt	r2, #526	; 0x20e
80100120:	2100      	movs	r1, #0
80100122:	2088      	movs	r0, #136	; 0x88
80100124:	f2c0 200e 	movt	r0, #526	; 0x20e
80100128:	f7ff ffa7 	bl	8010007a <IOMUXC_SetPinConfig>
8010012c:	2300      	movs	r3, #0
8010012e:	9301      	str	r3, [sp, #4]
80100130:	f44f 7344 	mov.w	r3, #784	; 0x310
80100134:	f2c0 230e 	movt	r3, #526	; 0x20e
80100138:	9300      	str	r3, [sp, #0]
8010013a:	2300      	movs	r3, #0
8010013c:	2200      	movs	r2, #0
8010013e:	2100      	movs	r1, #0
80100140:	2084      	movs	r0, #132	; 0x84
80100142:	f2c0 200e 	movt	r0, #526	; 0x20e
80100146:	f7ff ff79 	bl	8010003c <IOMUXC_SetPinMux>
8010014a:	f241 0390 	movw	r3, #4240	; 0x1090
8010014e:	9301      	str	r3, [sp, #4]
80100150:	f44f 7344 	mov.w	r3, #784	; 0x310
80100154:	f2c0 230e 	movt	r3, #526	; 0x20e
80100158:	9300      	str	r3, [sp, #0]
8010015a:	2300      	movs	r3, #0
8010015c:	2200      	movs	r2, #0
8010015e:	2100      	movs	r1, #0
80100160:	2084      	movs	r0, #132	; 0x84
80100162:	f2c0 200e 	movt	r0, #526	; 0x20e
80100166:	f7ff ff88 	bl	8010007a <IOMUXC_SetPinConfig>
8010016a:	2300      	movs	r3, #0
8010016c:	9301      	str	r3, [sp, #4]
8010016e:	f44f 7347 	mov.w	r3, #796	; 0x31c
80100172:	f2c0 230e 	movt	r3, #526	; 0x20e
80100176:	9300      	str	r3, [sp, #0]
80100178:	2301      	movs	r3, #1
8010017a:	f44f 62cd 	mov.w	r2, #1640	; 0x668
8010017e:	f2c0 220e 	movt	r2, #526	; 0x20e
80100182:	2102      	movs	r1, #2
80100184:	2090      	movs	r0, #144	; 0x90
80100186:	f2c0 200e 	movt	r0, #526	; 0x20e
8010018a:	f7ff ff57 	bl	8010003c <IOMUXC_SetPinMux>
8010018e:	2309      	movs	r3, #9
80100190:	f2c0 0301 	movt	r3, #1
80100194:	9301      	str	r3, [sp, #4]
80100196:	f44f 7347 	mov.w	r3, #796	; 0x31c
8010019a:	f2c0 230e 	movt	r3, #526	; 0x20e
8010019e:	9300      	str	r3, [sp, #0]
801001a0:	2301      	movs	r3, #1
801001a2:	f44f 62cd 	mov.w	r2, #1640	; 0x668
801001a6:	f2c0 220e 	movt	r2, #526	; 0x20e
801001aa:	2102      	movs	r1, #2
801001ac:	2090      	movs	r0, #144	; 0x90
801001ae:	f2c0 200e 	movt	r0, #526	; 0x20e
801001b2:	f7ff ff62 	bl	8010007a <IOMUXC_SetPinConfig>
801001b6:	2300      	movs	r3, #0
801001b8:	9301      	str	r3, [sp, #4]
801001ba:	f240 434c 	movw	r3, #1100	; 0x44c
801001be:	f2c0 230e 	movt	r3, #526	; 0x20e
801001c2:	9300      	str	r3, [sp, #0]
801001c4:	2300      	movs	r3, #0
801001c6:	2200      	movs	r2, #0
801001c8:	2100      	movs	r1, #0
801001ca:	f44f 70e0 	mov.w	r0, #448	; 0x1c0
801001ce:	f2c0 200e 	movt	r0, #526	; 0x20e
801001d2:	f7ff ff33 	bl	8010003c <IOMUXC_SetPinMux>
801001d6:	f247 0349 	movw	r3, #28745	; 0x7049
801001da:	f2c0 0301 	movt	r3, #1
801001de:	9301      	str	r3, [sp, #4]
801001e0:	f240 434c 	movw	r3, #1100	; 0x44c
801001e4:	f2c0 230e 	movt	r3, #526	; 0x20e
801001e8:	9300      	str	r3, [sp, #0]
801001ea:	2300      	movs	r3, #0
801001ec:	2200      	movs	r2, #0
801001ee:	2100      	movs	r1, #0
801001f0:	f44f 70e0 	mov.w	r0, #448	; 0x1c0
801001f4:	f2c0 200e 	movt	r0, #526	; 0x20e
801001f8:	f7ff ff3f 	bl	8010007a <IOMUXC_SetPinConfig>
801001fc:	2300      	movs	r3, #0
801001fe:	9301      	str	r3, [sp, #4]
80100200:	f44f 6389 	mov.w	r3, #1096	; 0x448
80100204:	f2c0 230e 	movt	r3, #526	; 0x20e
80100208:	9300      	str	r3, [sp, #0]
8010020a:	2300      	movs	r3, #0
8010020c:	2200      	movs	r2, #0
8010020e:	2100      	movs	r1, #0
80100210:	f44f 70de 	mov.w	r0, #444	; 0x1bc
80100214:	f2c0 200e 	movt	r0, #526	; 0x20e
80100218:	f7ff ff10 	bl	8010003c <IOMUXC_SetPinMux>
8010021c:	f247 0389 	movw	r3, #28809	; 0x7089
80100220:	f2c0 0301 	movt	r3, #1
80100224:	9301      	str	r3, [sp, #4]
80100226:	f44f 6389 	mov.w	r3, #1096	; 0x448
8010022a:	f2c0 230e 	movt	r3, #526	; 0x20e
8010022e:	9300      	str	r3, [sp, #0]
80100230:	2300      	movs	r3, #0
80100232:	2200      	movs	r2, #0
80100234:	2100      	movs	r1, #0
80100236:	f44f 70de 	mov.w	r0, #444	; 0x1bc
8010023a:	f2c0 200e 	movt	r0, #526	; 0x20e
8010023e:	f7ff ff1c 	bl	8010007a <IOMUXC_SetPinConfig>
80100242:	2300      	movs	r3, #0
80100244:	9301      	str	r3, [sp, #4]
80100246:	f44f 638a 	mov.w	r3, #1104	; 0x450
8010024a:	f2c0 230e 	movt	r3, #526	; 0x20e
8010024e:	9300      	str	r3, [sp, #0]
80100250:	2300      	movs	r3, #0
80100252:	2200      	movs	r2, #0
80100254:	2100      	movs	r1, #0
80100256:	f44f 70e2 	mov.w	r0, #452	; 0x1c4
8010025a:	f2c0 200e 	movt	r0, #526	; 0x20e
8010025e:	f7ff feed 	bl	8010003c <IOMUXC_SetPinMux>
80100262:	f247 0389 	movw	r3, #28809	; 0x7089
80100266:	f2c0 0301 	movt	r3, #1
8010026a:	9301      	str	r3, [sp, #4]
8010026c:	f44f 638a 	mov.w	r3, #1104	; 0x450
80100270:	f2c0 230e 	movt	r3, #526	; 0x20e
80100274:	9300      	str	r3, [sp, #0]
80100276:	2300      	movs	r3, #0
80100278:	2200      	movs	r2, #0
8010027a:	2100      	movs	r1, #0
8010027c:	f44f 70e2 	mov.w	r0, #452	; 0x1c4
80100280:	f2c0 200e 	movt	r0, #526	; 0x20e
80100284:	f7ff fef9 	bl	8010007a <IOMUXC_SetPinConfig>
80100288:	2300      	movs	r3, #0
8010028a:	9301      	str	r3, [sp, #4]
8010028c:	f240 4354 	movw	r3, #1108	; 0x454
80100290:	f2c0 230e 	movt	r3, #526	; 0x20e
80100294:	9300      	str	r3, [sp, #0]
80100296:	2300      	movs	r3, #0
80100298:	2200      	movs	r2, #0
8010029a:	2100      	movs	r1, #0
8010029c:	f44f 70e4 	mov.w	r0, #456	; 0x1c8
801002a0:	f2c0 200e 	movt	r0, #526	; 0x20e
801002a4:	f7ff feca 	bl	8010003c <IOMUXC_SetPinMux>
801002a8:	f247 0389 	movw	r3, #28809	; 0x7089
801002ac:	f2c0 0301 	movt	r3, #1
801002b0:	9301      	str	r3, [sp, #4]
801002b2:	f240 4354 	movw	r3, #1108	; 0x454
801002b6:	f2c0 230e 	movt	r3, #526	; 0x20e
801002ba:	9300      	str	r3, [sp, #0]
801002bc:	2300      	movs	r3, #0
801002be:	2200      	movs	r2, #0
801002c0:	2100      	movs	r1, #0
801002c2:	f44f 70e4 	mov.w	r0, #456	; 0x1c8
801002c6:	f2c0 200e 	movt	r0, #526	; 0x20e
801002ca:	f7ff fed6 	bl	8010007a <IOMUXC_SetPinConfig>
801002ce:	2300      	movs	r3, #0
801002d0:	9301      	str	r3, [sp, #4]
801002d2:	f44f 638b 	mov.w	r3, #1112	; 0x458
801002d6:	f2c0 230e 	movt	r3, #526	; 0x20e
801002da:	9300      	str	r3, [sp, #0]
801002dc:	2300      	movs	r3, #0
801002de:	2200      	movs	r2, #0
801002e0:	2100      	movs	r1, #0
801002e2:	f44f 70e6 	mov.w	r0, #460	; 0x1cc
801002e6:	f2c0 200e 	movt	r0, #526	; 0x20e
801002ea:	f7ff fea7 	bl	8010003c <IOMUXC_SetPinMux>
801002ee:	f247 0389 	movw	r3, #28809	; 0x7089
801002f2:	f2c0 0301 	movt	r3, #1
801002f6:	9301      	str	r3, [sp, #4]
801002f8:	f44f 638b 	mov.w	r3, #1112	; 0x458
801002fc:	f2c0 230e 	movt	r3, #526	; 0x20e
80100300:	9300      	str	r3, [sp, #0]
80100302:	2300      	movs	r3, #0
80100304:	2200      	movs	r2, #0
80100306:	2100      	movs	r1, #0
80100308:	f44f 70e6 	mov.w	r0, #460	; 0x1cc
8010030c:	f2c0 200e 	movt	r0, #526	; 0x20e
80100310:	f7ff feb3 	bl	8010007a <IOMUXC_SetPinConfig>
80100314:	2300      	movs	r3, #0
80100316:	9301      	str	r3, [sp, #4]
80100318:	f240 435c 	movw	r3, #1116	; 0x45c
8010031c:	f2c0 230e 	movt	r3, #526	; 0x20e
80100320:	9300      	str	r3, [sp, #0]
80100322:	2300      	movs	r3, #0
80100324:	2200      	movs	r2, #0
80100326:	2100      	movs	r1, #0
80100328:	f44f 70e8 	mov.w	r0, #464	; 0x1d0
8010032c:	f2c0 200e 	movt	r0, #526	; 0x20e
80100330:	f7ff fe84 	bl	8010003c <IOMUXC_SetPinMux>
80100334:	f247 0389 	movw	r3, #28809	; 0x7089
80100338:	f2c0 0301 	movt	r3, #1
8010033c:	9301      	str	r3, [sp, #4]
8010033e:	f240 435c 	movw	r3, #1116	; 0x45c
80100342:	f2c0 230e 	movt	r3, #526	; 0x20e
80100346:	9300      	str	r3, [sp, #0]
80100348:	2300      	movs	r3, #0
8010034a:	2200      	movs	r2, #0
8010034c:	2100      	movs	r1, #0
8010034e:	f44f 70e8 	mov.w	r0, #464	; 0x1d0
80100352:	f2c0 200e 	movt	r0, #526	; 0x20e
80100356:	f7ff fe90 	bl	8010007a <IOMUXC_SetPinConfig>
8010035a:	bf00      	nop
8010035c:	46bd      	mov	sp, r7
8010035e:	bd80      	pop	{r7, pc}

80100360 <delay>:
80100360:	b480      	push	{r7}
80100362:	b083      	sub	sp, #12
80100364:	af00      	add	r7, sp, #0
80100366:	6078      	str	r0, [r7, #4]
80100368:	bf00      	nop
8010036a:	687b      	ldr	r3, [r7, #4]
8010036c:	1e5a      	subs	r2, r3, #1
8010036e:	607a      	str	r2, [r7, #4]
80100370:	2b00      	cmp	r3, #0
80100372:	d1fa      	bne.n	8010036a <delay+0xa>
80100374:	bf00      	nop
80100376:	370c      	adds	r7, #12
80100378:	46bd      	mov	sp, r7
8010037a:	f85d 7b04 	ldr.w	r7, [sp], #4
8010037e:	4770      	bx	lr

80100380 <boot_clk_gate_init>:
80100380:	b480      	push	{r7}
80100382:	af00      	add	r7, sp, #0
80100384:	f44f 4380 	mov.w	r3, #16384	; 0x4000
80100388:	f2c0 230c 	movt	r3, #524	; 0x20c
8010038c:	f04f 32ff 	mov.w	r2, #4294967295	; 0xffffffff
80100390:	669a      	str	r2, [r3, #104]	; 0x68
80100392:	f44f 4380 	mov.w	r3, #16384	; 0x4000
80100396:	f2c0 230c 	movt	r3, #524	; 0x20c
8010039a:	f04f 32ff 	mov.w	r2, #4294967295	; 0xffffffff
8010039e:	66da      	str	r2, [r3, #108]	; 0x6c
801003a0:	f44f 4380 	mov.w	r3, #16384	; 0x4000
801003a4:	f2c0 230c 	movt	r3, #524	; 0x20c
801003a8:	f04f 32ff 	mov.w	r2, #4294967295	; 0xffffffff
801003ac:	671a      	str	r2, [r3, #112]	; 0x70
801003ae:	f44f 4380 	mov.w	r3, #16384	; 0x4000
801003b2:	f2c0 230c 	movt	r3, #524	; 0x20c
801003b6:	f04f 32ff 	mov.w	r2, #4294967295	; 0xffffffff
801003ba:	675a      	str	r2, [r3, #116]	; 0x74
801003bc:	f44f 4380 	mov.w	r3, #16384	; 0x4000
801003c0:	f2c0 230c 	movt	r3, #524	; 0x20c
801003c4:	f04f 32ff 	mov.w	r2, #4294967295	; 0xffffffff
801003c8:	679a      	str	r2, [r3, #120]	; 0x78
801003ca:	f44f 4380 	mov.w	r3, #16384	; 0x4000
801003ce:	f2c0 230c 	movt	r3, #524	; 0x20c
801003d2:	f04f 32ff 	mov.w	r2, #4294967295	; 0xffffffff
801003d6:	67da      	str	r2, [r3, #124]	; 0x7c
801003d8:	f44f 4380 	mov.w	r3, #16384	; 0x4000
801003dc:	f2c0 230c 	movt	r3, #524	; 0x20c
801003e0:	f04f 32ff 	mov.w	r2, #4294967295	; 0xffffffff
801003e4:	f8c3 2080 	str.w	r2, [r3, #128]	; 0x80
801003e8:	bf00      	nop
801003ea:	46bd      	mov	sp, r7
801003ec:	f85d 7b04 	ldr.w	r7, [sp], #4
801003f0:	4770      	bx	lr

801003f2 <boot_clk_init>:
801003f2:	b480      	push	{r7}
801003f4:	af00      	add	r7, sp, #0
801003f6:	f44f 4380 	mov.w	r3, #16384	; 0x4000
801003fa:	f2c0 230c 	movt	r3, #524	; 0x20c
801003fe:	68db      	ldr	r3, [r3, #12]
80100400:	f003 0304 	and.w	r3, r3, #4
80100404:	2b00      	cmp	r3, #0
80100406:	d117      	bne.n	80100438 <boot_clk_init+0x46>
80100408:	f44f 4380 	mov.w	r3, #16384	; 0x4000
8010040c:	f2c0 230c 	movt	r3, #524	; 0x20c
80100410:	f44f 4280 	mov.w	r2, #16384	; 0x4000
80100414:	f2c0 220c 	movt	r2, #524	; 0x20c
80100418:	68d2      	ldr	r2, [r2, #12]
8010041a:	f422 7280 	bic.w	r2, r2, #256	; 0x100
8010041e:	60da      	str	r2, [r3, #12]
80100420:	f44f 4380 	mov.w	r3, #16384	; 0x4000
80100424:	f2c0 230c 	movt	r3, #524	; 0x20c
80100428:	f44f 4280 	mov.w	r2, #16384	; 0x4000
8010042c:	f2c0 220c 	movt	r2, #524	; 0x20c
80100430:	68d2      	ldr	r2, [r2, #12]
80100432:	f042 0204 	orr.w	r2, r2, #4
80100436:	60da      	str	r2, [r3, #12]
80100438:	f44f 4300 	mov.w	r3, #32768	; 0x8000
8010043c:	f2c0 230c 	movt	r3, #524	; 0x20c
80100440:	f242 0258 	movw	r2, #8280	; 0x2058
80100444:	601a      	str	r2, [r3, #0]
80100446:	f44f 4380 	mov.w	r3, #16384	; 0x4000
8010044a:	f2c0 230c 	movt	r3, #524	; 0x20c
8010044e:	f44f 4280 	mov.w	r2, #16384	; 0x4000
80100452:	f2c0 220c 	movt	r2, #524	; 0x20c
80100456:	68d2      	ldr	r2, [r2, #12]
80100458:	f022 0204 	bic.w	r2, r2, #4
8010045c:	60da      	str	r2, [r3, #12]
8010045e:	f44f 4380 	mov.w	r3, #16384	; 0x4000
80100462:	f2c0 230c 	movt	r3, #524	; 0x20c
80100466:	2201      	movs	r2, #1
80100468:	611a      	str	r2, [r3, #16]
8010046a:	f44f 4300 	mov.w	r3, #32768	; 0x8000
8010046e:	f2c0 230c 	movt	r3, #524	; 0x20c
80100472:	f44f 4200 	mov.w	r2, #32768	; 0x8000
80100476:	f2c0 220c 	movt	r2, #524	; 0x20c
8010047a:	f8d2 2100 	ldr.w	r2, [r2, #256]	; 0x100
8010047e:	f002 32c0 	and.w	r2, r2, #3233857728	; 0xc0c0c0c0
80100482:	f8c3 2100 	str.w	r2, [r3, #256]	; 0x100
80100486:	f44f 4200 	mov.w	r2, #32768	; 0x8000
8010048a:	f2c0 220c 	movt	r2, #524	; 0x20c
8010048e:	f44f 4300 	mov.w	r3, #32768	; 0x8000
80100492:	f2c0 230c 	movt	r3, #524	; 0x20c
80100496:	f8d3 1100 	ldr.w	r1, [r3, #256]	; 0x100
8010049a:	f241 031b 	movw	r3, #4123	; 0x101b
8010049e:	f2c3 0318 	movt	r3, #12312	; 0x3018
801004a2:	430b      	orrs	r3, r1
801004a4:	f8c2 3100 	str.w	r3, [r2, #256]	; 0x100
801004a8:	f44f 4300 	mov.w	r3, #32768	; 0x8000
801004ac:	f2c0 230c 	movt	r3, #524	; 0x20c
801004b0:	f44f 4200 	mov.w	r2, #32768	; 0x8000
801004b4:	f2c0 220c 	movt	r2, #524	; 0x20c
801004b8:	f8d2 20f0 	ldr.w	r2, [r2, #240]	; 0xf0
801004bc:	f002 32c0 	and.w	r2, r2, #3233857728	; 0xc0c0c0c0
801004c0:	f8c3 20f0 	str.w	r2, [r3, #240]	; 0xf0
801004c4:	f44f 4200 	mov.w	r2, #32768	; 0x8000
801004c8:	f2c0 220c 	movt	r2, #524	; 0x20c
801004cc:	f44f 4300 	mov.w	r3, #32768	; 0x8000
801004d0:	f2c0 230c 	movt	r3, #524	; 0x20c
801004d4:	f8d3 10f0 	ldr.w	r1, [r3, #240]	; 0xf0
801004d8:	f241 030c 	movw	r3, #4108	; 0x100c
801004dc:	f2c1 3311 	movt	r3, #4881	; 0x1311
801004e0:	430b      	orrs	r3, r1
801004e2:	f8c2 30f0 	str.w	r3, [r2, #240]	; 0xf0
801004e6:	f44f 4380 	mov.w	r3, #16384	; 0x4000
801004ea:	f2c0 230c 	movt	r3, #524	; 0x20c
801004ee:	f44f 4280 	mov.w	r2, #16384	; 0x4000
801004f2:	f2c0 220c 	movt	r2, #524	; 0x20c
801004f6:	6992      	ldr	r2, [r2, #24]
801004f8:	f422 02d8 	bic.w	r2, r2, #7077888	; 0x6c0000
801004fc:	619a      	str	r2, [r3, #24]
801004fe:	f44f 4380 	mov.w	r3, #16384	; 0x4000
80100502:	f2c0 230c 	movt	r3, #524	; 0x20c
80100506:	f44f 4280 	mov.w	r2, #16384	; 0x4000
8010050a:	f2c0 220c 	movt	r2, #524	; 0x20c
8010050e:	6992      	ldr	r2, [r2, #24]
80100510:	f442 1210 	orr.w	r2, r2, #2359296	; 0x240000
80100514:	619a      	str	r2, [r3, #24]
80100516:	f44f 4380 	mov.w	r3, #16384	; 0x4000
8010051a:	f2c0 230c 	movt	r3, #524	; 0x20c
8010051e:	f44f 4280 	mov.w	r2, #16384	; 0x4000
80100522:	f2c0 220c 	movt	r2, #524	; 0x20c
80100526:	6952      	ldr	r2, [r2, #20]
80100528:	f022 62c0 	bic.w	r2, r2, #100663296	; 0x6000000
8010052c:	615a      	str	r2, [r3, #20]
8010052e:	f44f 4380 	mov.w	r3, #16384	; 0x4000
80100532:	f2c0 230c 	movt	r3, #524	; 0x20c
80100536:	f44f 4280 	mov.w	r2, #16384	; 0x4000
8010053a:	f2c0 220c 	movt	r2, #524	; 0x20c
8010053e:	6952      	ldr	r2, [r2, #20]
80100540:	615a      	str	r2, [r3, #20]
80100542:	f44f 4280 	mov.w	r2, #16384	; 0x4000
80100546:	f2c0 220c 	movt	r2, #524	; 0x20c
8010054a:	f44f 4380 	mov.w	r3, #16384	; 0x4000
8010054e:	f2c0 230c 	movt	r3, #524	; 0x20c
80100552:	695b      	ldr	r3, [r3, #20]
80100554:	f423 23e0 	bic.w	r3, r3, #458752	; 0x70000
80100558:	f423 7340 	bic.w	r3, r3, #768	; 0x300
8010055c:	6153      	str	r3, [r2, #20]
8010055e:	f44f 4280 	mov.w	r2, #16384	; 0x4000
80100562:	f2c0 220c 	movt	r2, #524	; 0x20c
80100566:	f44f 4380 	mov.w	r3, #16384	; 0x4000
8010056a:	f2c0 230c 	movt	r3, #524	; 0x20c
8010056e:	695b      	ldr	r3, [r3, #20]
80100570:	f443 3380 	orr.w	r3, r3, #65536	; 0x10000
80100574:	f443 7380 	orr.w	r3, r3, #256	; 0x100
80100578:	6153      	str	r3, [r2, #20]
8010057a:	f44f 4280 	mov.w	r2, #16384	; 0x4000
8010057e:	f2c0 220c 	movt	r2, #524	; 0x20c
80100582:	f44f 4380 	mov.w	r3, #16384	; 0x4000
80100586:	f2c0 230c 	movt	r3, #524	; 0x20c
8010058a:	695b      	ldr	r3, [r3, #20]
8010058c:	f023 5360 	bic.w	r3, r3, #939524096	; 0x38000000
80100590:	f023 0387 	bic.w	r3, r3, #135	; 0x87
80100594:	6153      	str	r3, [r2, #20]
80100596:	f44f 4380 	mov.w	r3, #16384	; 0x4000
8010059a:	f2c0 230c 	movt	r3, #524	; 0x20c
8010059e:	f44f 4280 	mov.w	r2, #16384	; 0x4000
801005a2:	f2c0 220c 	movt	r2, #524	; 0x20c
801005a6:	6952      	ldr	r2, [r2, #20]
801005a8:	615a      	str	r2, [r3, #20]
801005aa:	bf00      	nop
801005ac:	f44f 4380 	mov.w	r3, #16384	; 0x4000
801005b0:	f2c0 230c 	movt	r3, #524	; 0x20c
801005b4:	6c9b      	ldr	r3, [r3, #72]	; 0x48
801005b6:	f003 032f 	and.w	r3, r3, #47	; 0x2f
801005ba:	2b00      	cmp	r3, #0
801005bc:	d1f6      	bne.n	801005ac <boot_clk_init+0x1ba>
801005be:	f44f 4380 	mov.w	r3, #16384	; 0x4000
801005c2:	f2c0 230c 	movt	r3, #524	; 0x20c
801005c6:	f44f 4280 	mov.w	r2, #16384	; 0x4000
801005ca:	f2c0 220c 	movt	r2, #524	; 0x20c
801005ce:	68d2      	ldr	r2, [r2, #12]
801005d0:	f022 0201 	bic.w	r2, r2, #1
801005d4:	60da      	str	r2, [r3, #12]
801005d6:	f44f 4380 	mov.w	r3, #16384	; 0x4000
801005da:	f2c0 230c 	movt	r3, #524	; 0x20c
801005de:	f44f 4280 	mov.w	r2, #16384	; 0x4000
801005e2:	f2c0 220c 	movt	r2, #524	; 0x20c
801005e6:	6a52      	ldr	r2, [r2, #36]	; 0x24
801005e8:	f022 0240 	bic.w	r2, r2, #64	; 0x40
801005ec:	625a      	str	r2, [r3, #36]	; 0x24
801005ee:	f44f 4380 	mov.w	r3, #16384	; 0x4000
801005f2:	f2c0 230c 	movt	r3, #524	; 0x20c
801005f6:	f44f 4280 	mov.w	r2, #16384	; 0x4000
801005fa:	f2c0 220c 	movt	r2, #524	; 0x20c
801005fe:	6a52      	ldr	r2, [r2, #36]	; 0x24
80100600:	f022 023f 	bic.w	r2, r2, #63	; 0x3f
80100604:	625a      	str	r2, [r3, #36]	; 0x24
80100606:	f44f 4380 	mov.w	r3, #16384	; 0x4000
8010060a:	f2c0 230c 	movt	r3, #524	; 0x20c
8010060e:	f44f 4280 	mov.w	r2, #16384	; 0x4000
80100612:	f2c0 220c 	movt	r2, #524	; 0x20c
80100616:	69d2      	ldr	r2, [r2, #28]
80100618:	f022 0240 	bic.w	r2, r2, #64	; 0x40
8010061c:	61da      	str	r2, [r3, #28]
8010061e:	f44f 4380 	mov.w	r3, #16384	; 0x4000
80100622:	f2c0 230c 	movt	r3, #524	; 0x20c
80100626:	f44f 4280 	mov.w	r2, #16384	; 0x4000
8010062a:	f2c0 220c 	movt	r2, #524	; 0x20c
8010062e:	69d2      	ldr	r2, [r2, #28]
80100630:	f022 023f 	bic.w	r2, r2, #63	; 0x3f
80100634:	61da      	str	r2, [r3, #28]
80100636:	bf00      	nop
80100638:	46bd      	mov	sp, r7
8010063a:	f85d 7b04 	ldr.w	r7, [sp], #4
8010063e:	4770      	bx	lr

80100640 <main>:
80100640:	b580      	push	{r7, lr}
80100642:	b082      	sub	sp, #8
80100644:	af00      	add	r7, sp, #0
80100646:	f7ff fd2b 	bl	801000a0 <init_pins>
8010064a:	f000 f84b 	bl	801006e4 <led_gpio_init>
8010064e:	2000      	movs	r0, #0
80100650:	f000 f85b 	bl	8010070a <led_ctl>
80100654:	f7ff fe94 	bl	80100380 <boot_clk_gate_init>
80100658:	f7ff fecb 	bl	801003f2 <boot_clk_init>
8010065c:	f000 f9e3 	bl	80100a26 <uart1_init>
80100660:	2061      	movs	r0, #97	; 0x61
80100662:	f000 fa7f 	bl	80100b64 <putchar>
80100666:	2062      	movs	r0, #98	; 0x62
80100668:	f000 fa7c 	bl	80100b64 <putchar>
8010066c:	2063      	movs	r0, #99	; 0x63
8010066e:	f000 fa79 	bl	80100b64 <putchar>
80100672:	f242 60e4 	movw	r0, #9956	; 0x26e4
80100676:	f2c8 0010 	movt	r0, #32784	; 0x8010
8010067a:	f000 faa3 	bl	80100bc4 <puts>
8010067e:	f242 60f4 	movw	r0, #9972	; 0x26f4
80100682:	f2c8 0010 	movt	r0, #32784	; 0x8010
80100686:	f000 fc2a 	bl	80100ede <printf>
8010068a:	f000 fa85 	bl	80100b98 <getchar>
8010068e:	4603      	mov	r3, r0
80100690:	71fb      	strb	r3, [r7, #7]
80100692:	79fb      	ldrb	r3, [r7, #7]
80100694:	2b63      	cmp	r3, #99	; 0x63
80100696:	d110      	bne.n	801006ba <main+0x7a>
80100698:	f242 7024 	movw	r0, #10020	; 0x2724
8010069c:	f2c8 0010 	movt	r0, #32784	; 0x8010
801006a0:	f000 fc1d 	bl	80100ede <printf>
801006a4:	2000      	movs	r0, #0
801006a6:	f2c0 2019 	movt	r0, #537	; 0x219
801006aa:	f001 fbef 	bl	80101e8c <sd_init>
801006ae:	f242 7034 	movw	r0, #10036	; 0x2734
801006b2:	f2c8 0010 	movt	r0, #32784	; 0x8010
801006b6:	f000 fc12 	bl	80100ede <printf>
801006ba:	f000 fa6d 	bl	80100b98 <getchar>
801006be:	4603      	mov	r3, r0
801006c0:	71fb      	strb	r3, [r7, #7]
801006c2:	79fb      	ldrb	r3, [r7, #7]
801006c4:	2b0d      	cmp	r3, #13
801006c6:	d102      	bne.n	801006ce <main+0x8e>
801006c8:	200a      	movs	r0, #10
801006ca:	f000 fa4b 	bl	80100b64 <putchar>
801006ce:	79fb      	ldrb	r3, [r7, #7]
801006d0:	2b0a      	cmp	r3, #10
801006d2:	d102      	bne.n	801006da <main+0x9a>
801006d4:	200d      	movs	r0, #13
801006d6:	f000 fa45 	bl	80100b64 <putchar>
801006da:	79fb      	ldrb	r3, [r7, #7]
801006dc:	4618      	mov	r0, r3
801006de:	f000 fa41 	bl	80100b64 <putchar>
801006e2:	e7ea      	b.n	801006ba <main+0x7a>

801006e4 <led_gpio_init>:
801006e4:	b480      	push	{r7}
801006e6:	af00      	add	r7, sp, #0
801006e8:	f44f 4340 	mov.w	r3, #49152	; 0xc000
801006ec:	f2c0 230a 	movt	r3, #522	; 0x20a
801006f0:	f44f 4240 	mov.w	r2, #49152	; 0xc000
801006f4:	f2c0 220a 	movt	r2, #522	; 0x20a
801006f8:	6852      	ldr	r2, [r2, #4]
801006fa:	f042 0208 	orr.w	r2, r2, #8
801006fe:	605a      	str	r2, [r3, #4]
80100700:	bf00      	nop
80100702:	46bd      	mov	sp, r7
80100704:	f85d 7b04 	ldr.w	r7, [sp], #4
80100708:	4770      	bx	lr

8010070a <led_ctl>:
8010070a:	b480      	push	{r7}
8010070c:	b083      	sub	sp, #12
8010070e:	af00      	add	r7, sp, #0
80100710:	6078      	str	r0, [r7, #4]
80100712:	687b      	ldr	r3, [r7, #4]
80100714:	2b00      	cmp	r3, #0
80100716:	d00c      	beq.n	80100732 <led_ctl+0x28>
80100718:	f44f 4340 	mov.w	r3, #49152	; 0xc000
8010071c:	f2c0 230a 	movt	r3, #522	; 0x20a
80100720:	f44f 4240 	mov.w	r2, #49152	; 0xc000
80100724:	f2c0 220a 	movt	r2, #522	; 0x20a
80100728:	6812      	ldr	r2, [r2, #0]
8010072a:	f022 0208 	bic.w	r2, r2, #8
8010072e:	601a      	str	r2, [r3, #0]
80100730:	e00b      	b.n	8010074a <led_ctl+0x40>
80100732:	f44f 4340 	mov.w	r3, #49152	; 0xc000
80100736:	f2c0 230a 	movt	r3, #522	; 0x20a
8010073a:	f44f 4240 	mov.w	r2, #49152	; 0xc000
8010073e:	f2c0 220a 	movt	r2, #522	; 0x20a
80100742:	6812      	ldr	r2, [r2, #0]
80100744:	f042 0208 	orr.w	r2, r2, #8
80100748:	601a      	str	r2, [r3, #0]
8010074a:	bf00      	nop
8010074c:	370c      	adds	r7, #12
8010074e:	46bd      	mov	sp, r7
80100750:	f85d 7b04 	ldr.w	r7, [sp], #4
80100754:	4770      	bx	lr
	...

80100758 <UART_SetBaudRate>:
80100758:	b590      	push	{r4, r7, lr}
8010075a:	b091      	sub	sp, #68	; 0x44
8010075c:	af00      	add	r7, sp, #0
8010075e:	6078      	str	r0, [r7, #4]
80100760:	6039      	str	r1, [r7, #0]
80100762:	2300      	movs	r3, #0
80100764:	63fb      	str	r3, [r7, #60]	; 0x3c
80100766:	2300      	movs	r3, #0
80100768:	63bb      	str	r3, [r7, #56]	; 0x38
8010076a:	2300      	movs	r3, #0
8010076c:	637b      	str	r3, [r7, #52]	; 0x34
8010076e:	2300      	movs	r3, #0
80100770:	633b      	str	r3, [r7, #48]	; 0x30
80100772:	2301      	movs	r3, #1
80100774:	623b      	str	r3, [r7, #32]
80100776:	f04f 0300 	mov.w	r3, #0
8010077a:	f04f 0400 	mov.w	r4, #0
8010077e:	e9c7 3406 	strd	r3, r4, [r7, #24]
80100782:	f04f 0300 	mov.w	r3, #0
80100786:	f04f 0400 	mov.w	r4, #0
8010078a:	e9c7 340a 	strd	r3, r4, [r7, #40]	; 0x28
8010078e:	2300      	movs	r3, #0
80100790:	627b      	str	r3, [r7, #36]	; 0x24
80100792:	683b      	ldr	r3, [r7, #0]
80100794:	63fb      	str	r3, [r7, #60]	; 0x3c
80100796:	687b      	ldr	r3, [r7, #4]
80100798:	011b      	lsls	r3, r3, #4
8010079a:	63bb      	str	r3, [r7, #56]	; 0x38
8010079c:	2301      	movs	r3, #1
8010079e:	637b      	str	r3, [r7, #52]	; 0x34
801007a0:	e00a      	b.n	801007b8 <UART_SetBaudRate+0x60>
801007a2:	6bbb      	ldr	r3, [r7, #56]	; 0x38
801007a4:	637b      	str	r3, [r7, #52]	; 0x34
801007a6:	6bfb      	ldr	r3, [r7, #60]	; 0x3c
801007a8:	6bb9      	ldr	r1, [r7, #56]	; 0x38
801007aa:	4618      	mov	r0, r3
801007ac:	f001 fee2 	bl	80102574 <__aeabi_uidivmod>
801007b0:	460b      	mov	r3, r1
801007b2:	63bb      	str	r3, [r7, #56]	; 0x38
801007b4:	6b7b      	ldr	r3, [r7, #52]	; 0x34
801007b6:	63fb      	str	r3, [r7, #60]	; 0x3c
801007b8:	6bbb      	ldr	r3, [r7, #56]	; 0x38
801007ba:	2b00      	cmp	r3, #0
801007bc:	d1f1      	bne.n	801007a2 <UART_SetBaudRate+0x4a>
801007be:	6b79      	ldr	r1, [r7, #52]	; 0x34
801007c0:	6838      	ldr	r0, [r7, #0]
801007c2:	f001 fda9 	bl	80102318 <__aeabi_uidiv>
801007c6:	4603      	mov	r3, r0
801007c8:	63fb      	str	r3, [r7, #60]	; 0x3c
801007ca:	687b      	ldr	r3, [r7, #4]
801007cc:	011b      	lsls	r3, r3, #4
801007ce:	6b79      	ldr	r1, [r7, #52]	; 0x34
801007d0:	4618      	mov	r0, r3
801007d2:	f001 fda1 	bl	80102318 <__aeabi_uidiv>
801007d6:	4603      	mov	r3, r0
801007d8:	63bb      	str	r3, [r7, #56]	; 0x38
801007da:	6bfa      	ldr	r2, [r7, #60]	; 0x3c
801007dc:	f64f 73f9 	movw	r3, #65529	; 0xfff9
801007e0:	f2c0 0306 	movt	r3, #6
801007e4:	429a      	cmp	r2, r3
801007e6:	d803      	bhi.n	801007f0 <UART_SetBaudRate+0x98>
801007e8:	6bbb      	ldr	r3, [r7, #56]	; 0x38
801007ea:	f5b3 3f80 	cmp.w	r3, #65536	; 0x10000
801007ee:	d334      	bcc.n	8010085a <UART_SetBaudRate+0x102>
801007f0:	6bfb      	ldr	r3, [r7, #60]	; 0x3c
801007f2:	1e5a      	subs	r2, r3, #1
801007f4:	f646 53b9 	movw	r3, #28089	; 0x6db9
801007f8:	f2c2 4393 	movt	r3, #9363	; 0x2493
801007fc:	fba2 3403 	umull	r3, r4, r2, r3
80100800:	1b12      	subs	r2, r2, r4
80100802:	0852      	lsrs	r2, r2, #1
80100804:	1913      	adds	r3, r2, r4
80100806:	0c9b      	lsrs	r3, r3, #18
80100808:	3301      	adds	r3, #1
8010080a:	617b      	str	r3, [r7, #20]
8010080c:	6bbb      	ldr	r3, [r7, #56]	; 0x38
8010080e:	1e5a      	subs	r2, r3, #1
80100810:	f248 0301 	movw	r3, #32769	; 0x8001
80100814:	f2c8 0300 	movt	r3, #32768	; 0x8000
80100818:	fba2 3403 	umull	r3, r4, r2, r3
8010081c:	0be3      	lsrs	r3, r4, #15
8010081e:	3301      	adds	r3, #1
80100820:	613b      	str	r3, [r7, #16]
80100822:	693a      	ldr	r2, [r7, #16]
80100824:	697b      	ldr	r3, [r7, #20]
80100826:	4293      	cmp	r3, r2
80100828:	bf38      	it	cc
8010082a:	4613      	movcc	r3, r2
8010082c:	60fb      	str	r3, [r7, #12]
8010082e:	68f9      	ldr	r1, [r7, #12]
80100830:	6bf8      	ldr	r0, [r7, #60]	; 0x3c
80100832:	f001 fd71 	bl	80102318 <__aeabi_uidiv>
80100836:	4603      	mov	r3, r0
80100838:	63fb      	str	r3, [r7, #60]	; 0x3c
8010083a:	68f9      	ldr	r1, [r7, #12]
8010083c:	6bb8      	ldr	r0, [r7, #56]	; 0x38
8010083e:	f001 fd6b 	bl	80102318 <__aeabi_uidiv>
80100842:	4603      	mov	r3, r0
80100844:	63bb      	str	r3, [r7, #56]	; 0x38
80100846:	6bfb      	ldr	r3, [r7, #60]	; 0x3c
80100848:	2b00      	cmp	r3, #0
8010084a:	d101      	bne.n	80100850 <UART_SetBaudRate+0xf8>
8010084c:	2301      	movs	r3, #1
8010084e:	63fb      	str	r3, [r7, #60]	; 0x3c
80100850:	6bbb      	ldr	r3, [r7, #56]	; 0x38
80100852:	2b00      	cmp	r3, #0
80100854:	d101      	bne.n	8010085a <UART_SetBaudRate+0x102>
80100856:	2301      	movs	r3, #1
80100858:	63bb      	str	r3, [r7, #56]	; 0x38
8010085a:	6bfb      	ldr	r3, [r7, #60]	; 0x3c
8010085c:	1e5a      	subs	r2, r3, #1
8010085e:	f248 0301 	movw	r3, #32769	; 0x8001
80100862:	f2c8 0300 	movt	r3, #32768	; 0x8000
80100866:	fba2 3403 	umull	r3, r4, r2, r3
8010086a:	0be3      	lsrs	r3, r4, #15
8010086c:	3301      	adds	r3, #1
8010086e:	623b      	str	r3, [r7, #32]
80100870:	6a3b      	ldr	r3, [r7, #32]
80100872:	3b01      	subs	r3, #1
80100874:	2b06      	cmp	r3, #6
80100876:	d826      	bhi.n	801008c6 <UART_SetBaudRate+0x16e>
80100878:	a201      	add	r2, pc, #4	; (adr r2, 80100880 <UART_SetBaudRate+0x128>)
8010087a:	f852 f023 	ldr.w	pc, [r2, r3, lsl #2]
8010087e:	bf00      	nop
80100880:	8010089d 	mulshi	r0, sp, r8
80100884:	801008a3 	andshi	r0, r0, r3, lsr #17
80100888:	801008a9 	andshi	r0, r0, r9, lsr #17
8010088c:	801008af 	andshi	r0, r0, pc, lsr #17
80100890:	801008b5 			; <UNDEFINED> instruction: 0x801008b5
80100894:	801008bb 			; <UNDEFINED> instruction: 0x801008bb
80100898:	801008c1 	andshi	r0, r0, r1, asr #17
8010089c:	2305      	movs	r3, #5
8010089e:	633b      	str	r3, [r7, #48]	; 0x30
801008a0:	e014      	b.n	801008cc <UART_SetBaudRate+0x174>
801008a2:	2304      	movs	r3, #4
801008a4:	633b      	str	r3, [r7, #48]	; 0x30
801008a6:	e011      	b.n	801008cc <UART_SetBaudRate+0x174>
801008a8:	2303      	movs	r3, #3
801008aa:	633b      	str	r3, [r7, #48]	; 0x30
801008ac:	e00e      	b.n	801008cc <UART_SetBaudRate+0x174>
801008ae:	2302      	movs	r3, #2
801008b0:	633b      	str	r3, [r7, #48]	; 0x30
801008b2:	e00b      	b.n	801008cc <UART_SetBaudRate+0x174>
801008b4:	2301      	movs	r3, #1
801008b6:	633b      	str	r3, [r7, #48]	; 0x30
801008b8:	e008      	b.n	801008cc <UART_SetBaudRate+0x174>
801008ba:	2300      	movs	r3, #0
801008bc:	633b      	str	r3, [r7, #48]	; 0x30
801008be:	e005      	b.n	801008cc <UART_SetBaudRate+0x174>
801008c0:	2306      	movs	r3, #6
801008c2:	633b      	str	r3, [r7, #48]	; 0x30
801008c4:	e002      	b.n	801008cc <UART_SetBaudRate+0x174>
801008c6:	2305      	movs	r3, #5
801008c8:	633b      	str	r3, [r7, #48]	; 0x30
801008ca:	bf00      	nop
801008cc:	683b      	ldr	r3, [r7, #0]
801008ce:	f04f 0400 	mov.w	r4, #0
801008d2:	e9c7 340a 	strd	r3, r4, [r7, #40]	; 0x28
801008d6:	6bfb      	ldr	r3, [r7, #60]	; 0x3c
801008d8:	011b      	lsls	r3, r3, #4
801008da:	627b      	str	r3, [r7, #36]	; 0x24
801008dc:	2301      	movs	r3, #1
801008de:	637b      	str	r3, [r7, #52]	; 0x34
801008e0:	e012      	b.n	80100908 <UART_SetBaudRate+0x1b0>
801008e2:	6a7b      	ldr	r3, [r7, #36]	; 0x24
801008e4:	637b      	str	r3, [r7, #52]	; 0x34
801008e6:	6a7b      	ldr	r3, [r7, #36]	; 0x24
801008e8:	f04f 0400 	mov.w	r4, #0
801008ec:	e9d7 010a 	ldrd	r0, r1, [r7, #40]	; 0x28
801008f0:	461a      	mov	r2, r3
801008f2:	4623      	mov	r3, r4
801008f4:	f001 fe4c 	bl	80102590 <__aeabi_uldivmod>
801008f8:	461c      	mov	r4, r3
801008fa:	4613      	mov	r3, r2
801008fc:	627b      	str	r3, [r7, #36]	; 0x24
801008fe:	6b7b      	ldr	r3, [r7, #52]	; 0x34
80100900:	f04f 0400 	mov.w	r4, #0
80100904:	e9c7 340a 	strd	r3, r4, [r7, #40]	; 0x28
80100908:	6a7b      	ldr	r3, [r7, #36]	; 0x24
8010090a:	2b00      	cmp	r3, #0
8010090c:	d1e9      	bne.n	801008e2 <UART_SetBaudRate+0x18a>
8010090e:	6b79      	ldr	r1, [r7, #52]	; 0x34
80100910:	6838      	ldr	r0, [r7, #0]
80100912:	f001 fd01 	bl	80102318 <__aeabi_uidiv>
80100916:	4603      	mov	r3, r0
80100918:	f04f 0400 	mov.w	r4, #0
8010091c:	e9c7 340a 	strd	r3, r4, [r7, #40]	; 0x28
80100920:	6bfb      	ldr	r3, [r7, #60]	; 0x3c
80100922:	011b      	lsls	r3, r3, #4
80100924:	6b79      	ldr	r1, [r7, #52]	; 0x34
80100926:	4618      	mov	r0, r3
80100928:	f001 fcf6 	bl	80102318 <__aeabi_uidiv>
8010092c:	4603      	mov	r3, r0
8010092e:	627b      	str	r3, [r7, #36]	; 0x24
80100930:	6bbb      	ldr	r3, [r7, #56]	; 0x38
80100932:	f04f 0400 	mov.w	r4, #0
80100936:	6aba      	ldr	r2, [r7, #40]	; 0x28
80100938:	fb04 f102 	mul.w	r1, r4, r2
8010093c:	6afa      	ldr	r2, [r7, #44]	; 0x2c
8010093e:	fb03 f202 	mul.w	r2, r3, r2
80100942:	440a      	add	r2, r1
80100944:	6ab9      	ldr	r1, [r7, #40]	; 0x28
80100946:	fba1 0103 	umull	r0, r1, r1, r3
8010094a:	1853      	adds	r3, r2, r1
8010094c:	4619      	mov	r1, r3
8010094e:	6a7b      	ldr	r3, [r7, #36]	; 0x24
80100950:	f04f 0400 	mov.w	r4, #0
80100954:	461a      	mov	r2, r3
80100956:	4623      	mov	r3, r4
80100958:	f001 fe1a 	bl	80102590 <__aeabi_uldivmod>
8010095c:	4603      	mov	r3, r0
8010095e:	460c      	mov	r4, r1
80100960:	e9c7 3406 	strd	r3, r4, [r7, #24]
80100964:	687b      	ldr	r3, [r7, #4]
80100966:	f04f 0400 	mov.w	r4, #0
8010096a:	e9d7 1206 	ldrd	r1, r2, [r7, #24]
8010096e:	42a2      	cmp	r2, r4
80100970:	bf08      	it	eq
80100972:	4299      	cmpeq	r1, r3
80100974:	d308      	bcc.n	80100988 <UART_SetBaudRate+0x230>
80100976:	687b      	ldr	r3, [r7, #4]
80100978:	f04f 0400 	mov.w	r4, #0
8010097c:	e9d7 1206 	ldrd	r1, r2, [r7, #24]
80100980:	1acb      	subs	r3, r1, r3
80100982:	eb62 0404 	sbc.w	r4, r2, r4
80100986:	e008      	b.n	8010099a <UART_SetBaudRate+0x242>
80100988:	687b      	ldr	r3, [r7, #4]
8010098a:	4619      	mov	r1, r3
8010098c:	f04f 0200 	mov.w	r2, #0
80100990:	e9d7 3406 	ldrd	r3, r4, [r7, #24]
80100994:	1acb      	subs	r3, r1, r3
80100996:	eb62 0404 	sbc.w	r4, r2, r4
8010099a:	e9c7 3406 	strd	r3, r4, [r7, #24]
8010099e:	2300      	movs	r3, #0
801009a0:	f2c0 2302 	movt	r3, #514	; 0x202
801009a4:	2200      	movs	r2, #0
801009a6:	f2c0 2202 	movt	r2, #514	; 0x202
801009aa:	f8d2 2090 	ldr.w	r2, [r2, #144]	; 0x90
801009ae:	f422 7260 	bic.w	r2, r2, #896	; 0x380
801009b2:	f8c3 2090 	str.w	r2, [r3, #144]	; 0x90
801009b6:	2300      	movs	r3, #0
801009b8:	f2c0 2302 	movt	r3, #514	; 0x202
801009bc:	2200      	movs	r2, #0
801009be:	f2c0 2202 	movt	r2, #514	; 0x202
801009c2:	f8d2 1090 	ldr.w	r1, [r2, #144]	; 0x90
801009c6:	6b3a      	ldr	r2, [r7, #48]	; 0x30
801009c8:	01d2      	lsls	r2, r2, #7
801009ca:	f402 7260 	and.w	r2, r2, #896	; 0x380
801009ce:	430a      	orrs	r2, r1
801009d0:	f8c3 2090 	str.w	r2, [r3, #144]	; 0x90
801009d4:	2300      	movs	r3, #0
801009d6:	f2c0 2302 	movt	r3, #514	; 0x202
801009da:	6bba      	ldr	r2, [r7, #56]	; 0x38
801009dc:	3a01      	subs	r2, #1
801009de:	b292      	uxth	r2, r2
801009e0:	f8c3 20a4 	str.w	r2, [r3, #164]	; 0xa4
801009e4:	2400      	movs	r4, #0
801009e6:	f2c0 2402 	movt	r4, #514	; 0x202
801009ea:	6a39      	ldr	r1, [r7, #32]
801009ec:	6bf8      	ldr	r0, [r7, #60]	; 0x3c
801009ee:	f001 fc93 	bl	80102318 <__aeabi_uidiv>
801009f2:	4603      	mov	r3, r0
801009f4:	3b01      	subs	r3, #1
801009f6:	b29b      	uxth	r3, r3
801009f8:	f8c4 30a8 	str.w	r3, [r4, #168]	; 0xa8
801009fc:	2400      	movs	r4, #0
801009fe:	f2c0 2402 	movt	r4, #514	; 0x202
80100a02:	6a3b      	ldr	r3, [r7, #32]
80100a04:	f44f 727a 	mov.w	r2, #1000	; 0x3e8
80100a08:	fb02 f303 	mul.w	r3, r2, r3
80100a0c:	4619      	mov	r1, r3
80100a0e:	6838      	ldr	r0, [r7, #0]
80100a10:	f001 fc82 	bl	80102318 <__aeabi_uidiv>
80100a14:	4603      	mov	r3, r0
80100a16:	f023 437f 	bic.w	r3, r3, #4278190080	; 0xff000000
80100a1a:	f8c4 30b0 	str.w	r3, [r4, #176]	; 0xb0
80100a1e:	bf00      	nop
80100a20:	3744      	adds	r7, #68	; 0x44
80100a22:	46bd      	mov	sp, r7
80100a24:	bd90      	pop	{r4, r7, pc}

80100a26 <uart1_init>:
80100a26:	b580      	push	{r7, lr}
80100a28:	af00      	add	r7, sp, #0
80100a2a:	2300      	movs	r3, #0
80100a2c:	f2c0 2302 	movt	r3, #514	; 0x202
80100a30:	2200      	movs	r2, #0
80100a32:	f2c0 2202 	movt	r2, #514	; 0x202
80100a36:	f8d2 2080 	ldr.w	r2, [r2, #128]	; 0x80
80100a3a:	f022 0201 	bic.w	r2, r2, #1
80100a3e:	f8c3 2080 	str.w	r2, [r3, #128]	; 0x80
80100a42:	2300      	movs	r3, #0
80100a44:	f2c0 2302 	movt	r3, #514	; 0x202
80100a48:	2200      	movs	r2, #0
80100a4a:	f2c0 2202 	movt	r2, #514	; 0x202
80100a4e:	f8d2 2084 	ldr.w	r2, [r2, #132]	; 0x84
80100a52:	f022 0201 	bic.w	r2, r2, #1
80100a56:	f8c3 2084 	str.w	r2, [r3, #132]	; 0x84
80100a5a:	bf00      	nop
80100a5c:	2300      	movs	r3, #0
80100a5e:	f2c0 2302 	movt	r3, #514	; 0x202
80100a62:	f8d3 3084 	ldr.w	r3, [r3, #132]	; 0x84
80100a66:	f003 0301 	and.w	r3, r3, #1
80100a6a:	2b00      	cmp	r3, #0
80100a6c:	d0f6      	beq.n	80100a5c <uart1_init+0x36>
80100a6e:	2300      	movs	r3, #0
80100a70:	f2c0 2302 	movt	r3, #514	; 0x202
80100a74:	2200      	movs	r2, #0
80100a76:	f8c3 2080 	str.w	r2, [r3, #128]	; 0x80
80100a7a:	2300      	movs	r3, #0
80100a7c:	f2c0 2302 	movt	r3, #514	; 0x202
80100a80:	2201      	movs	r2, #1
80100a82:	f8c3 2084 	str.w	r2, [r3, #132]	; 0x84
80100a86:	2300      	movs	r3, #0
80100a88:	f2c0 2302 	movt	r3, #514	; 0x202
80100a8c:	f44f 62e0 	mov.w	r2, #1792	; 0x700
80100a90:	f8c3 2088 	str.w	r2, [r3, #136]	; 0x88
80100a94:	2300      	movs	r3, #0
80100a96:	f2c0 2302 	movt	r3, #514	; 0x202
80100a9a:	f44f 4200 	mov.w	r2, #32768	; 0x8000
80100a9e:	f8c3 208c 	str.w	r2, [r3, #140]	; 0x8c
80100aa2:	2300      	movs	r3, #0
80100aa4:	f2c0 2302 	movt	r3, #514	; 0x202
80100aa8:	f640 0201 	movw	r2, #2049	; 0x801
80100aac:	f8c3 2090 	str.w	r2, [r3, #144]	; 0x90
80100ab0:	2300      	movs	r3, #0
80100ab2:	f2c0 2302 	movt	r3, #514	; 0x202
80100ab6:	222b      	movs	r2, #43	; 0x2b
80100ab8:	f8c3 209c 	str.w	r2, [r3, #156]	; 0x9c
80100abc:	2300      	movs	r3, #0
80100abe:	f2c0 2302 	movt	r3, #514	; 0x202
80100ac2:	2200      	movs	r2, #0
80100ac4:	f8c3 20a0 	str.w	r2, [r3, #160]	; 0xa0
80100ac8:	2300      	movs	r3, #0
80100aca:	f2c0 2302 	movt	r3, #514	; 0x202
80100ace:	2200      	movs	r2, #0
80100ad0:	f8c3 20b0 	str.w	r2, [r3, #176]	; 0xb0
80100ad4:	2300      	movs	r3, #0
80100ad6:	f2c0 2302 	movt	r3, #514	; 0x202
80100ada:	2260      	movs	r2, #96	; 0x60
80100adc:	f8c3 20b4 	str.w	r2, [r3, #180]	; 0xb4
80100ae0:	2300      	movs	r3, #0
80100ae2:	f2c0 2302 	movt	r3, #514	; 0x202
80100ae6:	2200      	movs	r2, #0
80100ae8:	f8c3 20b8 	str.w	r2, [r3, #184]	; 0xb8
80100aec:	2200      	movs	r2, #0
80100aee:	f2c0 2202 	movt	r2, #514	; 0x202
80100af2:	2300      	movs	r3, #0
80100af4:	f2c0 2302 	movt	r3, #514	; 0x202
80100af8:	f8d3 3084 	ldr.w	r3, [r3, #132]	; 0x84
80100afc:	f443 4380 	orr.w	r3, r3, #16384	; 0x4000
80100b00:	f043 0366 	orr.w	r3, r3, #102	; 0x66
80100b04:	f8c2 3084 	str.w	r3, [r2, #132]	; 0x84
80100b08:	2300      	movs	r3, #0
80100b0a:	f2c0 2302 	movt	r3, #514	; 0x202
80100b0e:	2200      	movs	r2, #0
80100b10:	f2c0 2202 	movt	r2, #514	; 0x202
80100b14:	f8d2 2088 	ldr.w	r2, [r2, #136]	; 0x88
80100b18:	f042 0204 	orr.w	r2, r2, #4
80100b1c:	f8c3 2088 	str.w	r2, [r3, #136]	; 0x88
80100b20:	2300      	movs	r3, #0
80100b22:	f2c0 2302 	movt	r3, #514	; 0x202
80100b26:	2200      	movs	r2, #0
80100b28:	f2c0 2202 	movt	r2, #514	; 0x202
80100b2c:	f8d2 2080 	ldr.w	r2, [r2, #128]	; 0x80
80100b30:	f422 4280 	bic.w	r2, r2, #16384	; 0x4000
80100b34:	f8c3 2080 	str.w	r2, [r3, #128]	; 0x80
80100b38:	f44f 4134 	mov.w	r1, #46080	; 0xb400
80100b3c:	f2c0 41c4 	movt	r1, #1220	; 0x4c4
80100b40:	f44f 30e1 	mov.w	r0, #115200	; 0x1c200
80100b44:	f7ff fe08 	bl	80100758 <UART_SetBaudRate>
80100b48:	2300      	movs	r3, #0
80100b4a:	f2c0 2302 	movt	r3, #514	; 0x202
80100b4e:	2200      	movs	r2, #0
80100b50:	f2c0 2202 	movt	r2, #514	; 0x202
80100b54:	f8d2 2080 	ldr.w	r2, [r2, #128]	; 0x80
80100b58:	f042 0201 	orr.w	r2, r2, #1
80100b5c:	f8c3 2080 	str.w	r2, [r3, #128]	; 0x80
80100b60:	bf00      	nop
80100b62:	bd80      	pop	{r7, pc}

80100b64 <putchar>:
80100b64:	b480      	push	{r7}
80100b66:	b083      	sub	sp, #12
80100b68:	af00      	add	r7, sp, #0
80100b6a:	6078      	str	r0, [r7, #4]
80100b6c:	bf00      	nop
80100b6e:	2300      	movs	r3, #0
80100b70:	f2c0 2302 	movt	r3, #514	; 0x202
80100b74:	f8d3 3098 	ldr.w	r3, [r3, #152]	; 0x98
80100b78:	f003 0308 	and.w	r3, r3, #8
80100b7c:	2b00      	cmp	r3, #0
80100b7e:	d0f6      	beq.n	80100b6e <putchar+0xa>
80100b80:	2300      	movs	r3, #0
80100b82:	f2c0 2302 	movt	r3, #514	; 0x202
80100b86:	687a      	ldr	r2, [r7, #4]
80100b88:	b2d2      	uxtb	r2, r2
80100b8a:	641a      	str	r2, [r3, #64]	; 0x40
80100b8c:	bf00      	nop
80100b8e:	370c      	adds	r7, #12
80100b90:	46bd      	mov	sp, r7
80100b92:	f85d 7b04 	ldr.w	r7, [sp], #4
80100b96:	4770      	bx	lr

80100b98 <getchar>:
80100b98:	b480      	push	{r7}
80100b9a:	af00      	add	r7, sp, #0
80100b9c:	bf00      	nop
80100b9e:	2300      	movs	r3, #0
80100ba0:	f2c0 2302 	movt	r3, #514	; 0x202
80100ba4:	f8d3 3098 	ldr.w	r3, [r3, #152]	; 0x98
80100ba8:	f003 0301 	and.w	r3, r3, #1
80100bac:	2b00      	cmp	r3, #0
80100bae:	d0f6      	beq.n	80100b9e <getchar+0x6>
80100bb0:	2300      	movs	r3, #0
80100bb2:	f2c0 2302 	movt	r3, #514	; 0x202
80100bb6:	681b      	ldr	r3, [r3, #0]
80100bb8:	b2db      	uxtb	r3, r3
80100bba:	4618      	mov	r0, r3
80100bbc:	46bd      	mov	sp, r7
80100bbe:	f85d 7b04 	ldr.w	r7, [sp], #4
80100bc2:	4770      	bx	lr

80100bc4 <puts>:
80100bc4:	b580      	push	{r7, lr}
80100bc6:	b082      	sub	sp, #8
80100bc8:	af00      	add	r7, sp, #0
80100bca:	6078      	str	r0, [r7, #4]
80100bcc:	e007      	b.n	80100bde <puts+0x1a>
80100bce:	687b      	ldr	r3, [r7, #4]
80100bd0:	781b      	ldrb	r3, [r3, #0]
80100bd2:	4618      	mov	r0, r3
80100bd4:	f7ff ffc6 	bl	80100b64 <putchar>
80100bd8:	687b      	ldr	r3, [r7, #4]
80100bda:	3301      	adds	r3, #1
80100bdc:	607b      	str	r3, [r7, #4]
80100bde:	687b      	ldr	r3, [r7, #4]
80100be0:	781b      	ldrb	r3, [r3, #0]
80100be2:	2b00      	cmp	r3, #0
80100be4:	d1f3      	bne.n	80100bce <puts+0xa>
80100be6:	bf00      	nop
80100be8:	3708      	adds	r7, #8
80100bea:	46bd      	mov	sp, r7
80100bec:	bd80      	pop	{r7, pc}
80100bee:	bf00      	nop

80100bf0 <raise>:
80100bf0:	b480      	push	{r7}
80100bf2:	b083      	sub	sp, #12
80100bf4:	af00      	add	r7, sp, #0
80100bf6:	6078      	str	r0, [r7, #4]
80100bf8:	2300      	movs	r3, #0
80100bfa:	4618      	mov	r0, r3
80100bfc:	370c      	adds	r7, #12
80100bfe:	46bd      	mov	sp, r7
80100c00:	f85d 7b04 	ldr.w	r7, [sp], #4
80100c04:	4770      	bx	lr
	...

80100c08 <outc>:
80100c08:	b580      	push	{r7, lr}
80100c0a:	b082      	sub	sp, #8
80100c0c:	af00      	add	r7, sp, #0
80100c0e:	6078      	str	r0, [r7, #4]
80100c10:	6878      	ldr	r0, [r7, #4]
80100c12:	f7ff ffa7 	bl	80100b64 <putchar>
80100c16:	2300      	movs	r3, #0
80100c18:	4618      	mov	r0, r3
80100c1a:	3708      	adds	r7, #8
80100c1c:	46bd      	mov	sp, r7
80100c1e:	bd80      	pop	{r7, pc}

80100c20 <outs>:
80100c20:	b580      	push	{r7, lr}
80100c22:	b082      	sub	sp, #8
80100c24:	af00      	add	r7, sp, #0
80100c26:	6078      	str	r0, [r7, #4]
80100c28:	e006      	b.n	80100c38 <outs+0x18>
80100c2a:	687b      	ldr	r3, [r7, #4]
80100c2c:	1c5a      	adds	r2, r3, #1
80100c2e:	607a      	str	r2, [r7, #4]
80100c30:	781b      	ldrb	r3, [r3, #0]
80100c32:	4618      	mov	r0, r3
80100c34:	f7ff ff96 	bl	80100b64 <putchar>
80100c38:	687b      	ldr	r3, [r7, #4]
80100c3a:	781b      	ldrb	r3, [r3, #0]
80100c3c:	2b00      	cmp	r3, #0
80100c3e:	d1f4      	bne.n	80100c2a <outs+0xa>
80100c40:	2300      	movs	r3, #0
80100c42:	4618      	mov	r0, r3
80100c44:	3708      	adds	r7, #8
80100c46:	46bd      	mov	sp, r7
80100c48:	bd80      	pop	{r7, pc}

80100c4a <out_num>:
80100c4a:	b590      	push	{r4, r7, lr}
80100c4c:	b099      	sub	sp, #100	; 0x64
80100c4e:	af00      	add	r7, sp, #0
80100c50:	e9c7 0102 	strd	r0, r1, [r7, #8]
80100c54:	607a      	str	r2, [r7, #4]
80100c56:	70fb      	strb	r3, [r7, #3]
80100c58:	2300      	movs	r3, #0
80100c5a:	65fb      	str	r3, [r7, #92]	; 0x5c
80100c5c:	f107 0310 	add.w	r3, r7, #16
80100c60:	3340      	adds	r3, #64	; 0x40
80100c62:	65bb      	str	r3, [r7, #88]	; 0x58
80100c64:	2300      	movs	r3, #0
80100c66:	657b      	str	r3, [r7, #84]	; 0x54
80100c68:	2300      	movs	r3, #0
80100c6a:	653b      	str	r3, [r7, #80]	; 0x50
80100c6c:	6dbb      	ldr	r3, [r7, #88]	; 0x58
80100c6e:	3b01      	subs	r3, #1
80100c70:	65bb      	str	r3, [r7, #88]	; 0x58
80100c72:	6dbb      	ldr	r3, [r7, #88]	; 0x58
80100c74:	2200      	movs	r2, #0
80100c76:	701a      	strb	r2, [r3, #0]
80100c78:	e9d7 3402 	ldrd	r3, r4, [r7, #8]
80100c7c:	2b00      	cmp	r3, #0
80100c7e:	f174 0300 	sbcs.w	r3, r4, #0
80100c82:	da03      	bge.n	80100c8c <out_num+0x42>
80100c84:	68bb      	ldr	r3, [r7, #8]
80100c86:	425b      	negs	r3, r3
80100c88:	65fb      	str	r3, [r7, #92]	; 0x5c
80100c8a:	e001      	b.n	80100c90 <out_num+0x46>
80100c8c:	68bb      	ldr	r3, [r7, #8]
80100c8e:	65fb      	str	r3, [r7, #92]	; 0x5c
80100c90:	6dbb      	ldr	r3, [r7, #88]	; 0x58
80100c92:	3b01      	subs	r3, #1
80100c94:	65bb      	str	r3, [r7, #88]	; 0x58
80100c96:	687a      	ldr	r2, [r7, #4]
80100c98:	6dfb      	ldr	r3, [r7, #92]	; 0x5c
80100c9a:	4611      	mov	r1, r2
80100c9c:	4618      	mov	r0, r3
80100c9e:	f001 fc69 	bl	80102574 <__aeabi_uidivmod>
80100ca2:	460b      	mov	r3, r1
80100ca4:	461a      	mov	r2, r3
80100ca6:	f642 53c0 	movw	r3, #11712	; 0x2dc0
80100caa:	f2c8 0310 	movt	r3, #32784	; 0x8010
80100cae:	5c9a      	ldrb	r2, [r3, r2]
80100cb0:	6dbb      	ldr	r3, [r7, #88]	; 0x58
80100cb2:	701a      	strb	r2, [r3, #0]
80100cb4:	6d7b      	ldr	r3, [r7, #84]	; 0x54
80100cb6:	3301      	adds	r3, #1
80100cb8:	657b      	str	r3, [r7, #84]	; 0x54
80100cba:	687b      	ldr	r3, [r7, #4]
80100cbc:	4619      	mov	r1, r3
80100cbe:	6df8      	ldr	r0, [r7, #92]	; 0x5c
80100cc0:	f001 fb2a 	bl	80102318 <__aeabi_uidiv>
80100cc4:	4603      	mov	r3, r0
80100cc6:	65fb      	str	r3, [r7, #92]	; 0x5c
80100cc8:	6dfb      	ldr	r3, [r7, #92]	; 0x5c
80100cca:	2b00      	cmp	r3, #0
80100ccc:	d1e0      	bne.n	80100c90 <out_num+0x46>
80100cce:	6f3b      	ldr	r3, [r7, #112]	; 0x70
80100cd0:	2b00      	cmp	r3, #0
80100cd2:	d014      	beq.n	80100cfe <out_num+0xb4>
80100cd4:	6d7a      	ldr	r2, [r7, #84]	; 0x54
80100cd6:	6f3b      	ldr	r3, [r7, #112]	; 0x70
80100cd8:	429a      	cmp	r2, r3
80100cda:	da10      	bge.n	80100cfe <out_num+0xb4>
80100cdc:	6f3a      	ldr	r2, [r7, #112]	; 0x70
80100cde:	6d7b      	ldr	r3, [r7, #84]	; 0x54
80100ce0:	1ad3      	subs	r3, r2, r3
80100ce2:	653b      	str	r3, [r7, #80]	; 0x50
80100ce4:	e008      	b.n	80100cf8 <out_num+0xae>
80100ce6:	6dbb      	ldr	r3, [r7, #88]	; 0x58
80100ce8:	3b01      	subs	r3, #1
80100cea:	65bb      	str	r3, [r7, #88]	; 0x58
80100cec:	6dbb      	ldr	r3, [r7, #88]	; 0x58
80100cee:	78fa      	ldrb	r2, [r7, #3]
80100cf0:	701a      	strb	r2, [r3, #0]
80100cf2:	6d3b      	ldr	r3, [r7, #80]	; 0x50
80100cf4:	3b01      	subs	r3, #1
80100cf6:	653b      	str	r3, [r7, #80]	; 0x50
80100cf8:	6d3b      	ldr	r3, [r7, #80]	; 0x50
80100cfa:	2b00      	cmp	r3, #0
80100cfc:	d1f3      	bne.n	80100ce6 <out_num+0x9c>
80100cfe:	e9d7 3402 	ldrd	r3, r4, [r7, #8]
80100d02:	2b00      	cmp	r3, #0
80100d04:	f174 0300 	sbcs.w	r3, r4, #0
80100d08:	da05      	bge.n	80100d16 <out_num+0xcc>
80100d0a:	6dbb      	ldr	r3, [r7, #88]	; 0x58
80100d0c:	3b01      	subs	r3, #1
80100d0e:	65bb      	str	r3, [r7, #88]	; 0x58
80100d10:	6dbb      	ldr	r3, [r7, #88]	; 0x58
80100d12:	222d      	movs	r2, #45	; 0x2d
80100d14:	701a      	strb	r2, [r3, #0]
80100d16:	6db8      	ldr	r0, [r7, #88]	; 0x58
80100d18:	f7ff ff82 	bl	80100c20 <outs>
80100d1c:	4603      	mov	r3, r0
80100d1e:	4618      	mov	r0, r3
80100d20:	3764      	adds	r7, #100	; 0x64
80100d22:	46bd      	mov	sp, r7
80100d24:	bd90      	pop	{r4, r7, pc}

80100d26 <my_vprintf>:
80100d26:	b580      	push	{r7, lr}
80100d28:	b086      	sub	sp, #24
80100d2a:	af02      	add	r7, sp, #8
80100d2c:	6078      	str	r0, [r7, #4]
80100d2e:	6039      	str	r1, [r7, #0]
80100d30:	2320      	movs	r3, #32
80100d32:	72fb      	strb	r3, [r7, #11]
80100d34:	2300      	movs	r3, #0
80100d36:	60fb      	str	r3, [r7, #12]
80100d38:	e0c7      	b.n	80100eca <my_vprintf+0x1a4>
80100d3a:	687b      	ldr	r3, [r7, #4]
80100d3c:	781b      	ldrb	r3, [r3, #0]
80100d3e:	2b25      	cmp	r3, #37	; 0x25
80100d40:	d005      	beq.n	80100d4e <my_vprintf+0x28>
80100d42:	687b      	ldr	r3, [r7, #4]
80100d44:	781b      	ldrb	r3, [r3, #0]
80100d46:	4618      	mov	r0, r3
80100d48:	f7ff ff5e 	bl	80100c08 <outc>
80100d4c:	e0ba      	b.n	80100ec4 <my_vprintf+0x19e>
80100d4e:	687b      	ldr	r3, [r7, #4]
80100d50:	3301      	adds	r3, #1
80100d52:	607b      	str	r3, [r7, #4]
80100d54:	687b      	ldr	r3, [r7, #4]
80100d56:	781b      	ldrb	r3, [r3, #0]
80100d58:	2b30      	cmp	r3, #48	; 0x30
80100d5a:	d104      	bne.n	80100d66 <my_vprintf+0x40>
80100d5c:	2330      	movs	r3, #48	; 0x30
80100d5e:	72fb      	strb	r3, [r7, #11]
80100d60:	687b      	ldr	r3, [r7, #4]
80100d62:	3301      	adds	r3, #1
80100d64:	607b      	str	r3, [r7, #4]
80100d66:	2320      	movs	r3, #32
80100d68:	72fb      	strb	r3, [r7, #11]
80100d6a:	2300      	movs	r3, #0
80100d6c:	60fb      	str	r3, [r7, #12]
80100d6e:	e00e      	b.n	80100d8e <my_vprintf+0x68>
80100d70:	68fa      	ldr	r2, [r7, #12]
80100d72:	4613      	mov	r3, r2
80100d74:	009b      	lsls	r3, r3, #2
80100d76:	4413      	add	r3, r2
80100d78:	005b      	lsls	r3, r3, #1
80100d7a:	60fb      	str	r3, [r7, #12]
80100d7c:	687b      	ldr	r3, [r7, #4]
80100d7e:	781b      	ldrb	r3, [r3, #0]
80100d80:	3b30      	subs	r3, #48	; 0x30
80100d82:	68fa      	ldr	r2, [r7, #12]
80100d84:	4413      	add	r3, r2
80100d86:	60fb      	str	r3, [r7, #12]
80100d88:	687b      	ldr	r3, [r7, #4]
80100d8a:	3301      	adds	r3, #1
80100d8c:	607b      	str	r3, [r7, #4]
80100d8e:	687b      	ldr	r3, [r7, #4]
80100d90:	781b      	ldrb	r3, [r3, #0]
80100d92:	2b2f      	cmp	r3, #47	; 0x2f
80100d94:	d903      	bls.n	80100d9e <my_vprintf+0x78>
80100d96:	687b      	ldr	r3, [r7, #4]
80100d98:	781b      	ldrb	r3, [r3, #0]
80100d9a:	2b39      	cmp	r3, #57	; 0x39
80100d9c:	d9e8      	bls.n	80100d70 <my_vprintf+0x4a>
80100d9e:	687b      	ldr	r3, [r7, #4]
80100da0:	781b      	ldrb	r3, [r3, #0]
80100da2:	3b63      	subs	r3, #99	; 0x63
80100da4:	2b15      	cmp	r3, #21
80100da6:	f200 8087 	bhi.w	80100eb8 <my_vprintf+0x192>
80100daa:	a201      	add	r2, pc, #4	; (adr r2, 80100db0 <my_vprintf+0x8a>)
80100dac:	f852 f023 	ldr.w	pc, [r2, r3, lsl #2]
80100db0:	80100e91 	mulshi	r0, r1, lr
80100db4:	80100e09 	andshi	r0, r0, r9, lsl #28
80100db8:	80100eb9 			; <UNDEFINED> instruction: 0x80100eb9
80100dbc:	80100eb9 			; <UNDEFINED> instruction: 0x80100eb9
80100dc0:	80100eb9 			; <UNDEFINED> instruction: 0x80100eb9
80100dc4:	80100eb9 			; <UNDEFINED> instruction: 0x80100eb9
80100dc8:	80100eb9 			; <UNDEFINED> instruction: 0x80100eb9
80100dcc:	80100eb9 			; <UNDEFINED> instruction: 0x80100eb9
80100dd0:	80100eb9 			; <UNDEFINED> instruction: 0x80100eb9
80100dd4:	80100eb9 			; <UNDEFINED> instruction: 0x80100eb9
80100dd8:	80100eb9 			; <UNDEFINED> instruction: 0x80100eb9
80100ddc:	80100eb9 			; <UNDEFINED> instruction: 0x80100eb9
80100de0:	80100e2b 	andshi	r0, r0, fp, lsr #28
80100de4:	80100eb9 			; <UNDEFINED> instruction: 0x80100eb9
80100de8:	80100eb9 			; <UNDEFINED> instruction: 0x80100eb9
80100dec:	80100eb9 			; <UNDEFINED> instruction: 0x80100eb9
80100df0:	80100ea5 	andshi	r0, r0, r5, lsr #29
80100df4:	80100eb9 			; <UNDEFINED> instruction: 0x80100eb9
80100df8:	80100e4d 	andshi	r0, r0, sp, asr #28
80100dfc:	80100eb9 			; <UNDEFINED> instruction: 0x80100eb9
80100e00:	80100eb9 			; <UNDEFINED> instruction: 0x80100eb9
80100e04:	80100e6f 	andshi	r0, r0, pc, ror #28
80100e08:	683b      	ldr	r3, [r7, #0]
80100e0a:	3304      	adds	r3, #4
80100e0c:	603b      	str	r3, [r7, #0]
80100e0e:	683b      	ldr	r3, [r7, #0]
80100e10:	3b04      	subs	r3, #4
80100e12:	681b      	ldr	r3, [r3, #0]
80100e14:	4618      	mov	r0, r3
80100e16:	ea4f 71e0 	mov.w	r1, r0, asr #31
80100e1a:	7afa      	ldrb	r2, [r7, #11]
80100e1c:	68fb      	ldr	r3, [r7, #12]
80100e1e:	9300      	str	r3, [sp, #0]
80100e20:	4613      	mov	r3, r2
80100e22:	220a      	movs	r2, #10
80100e24:	f7ff ff11 	bl	80100c4a <out_num>
80100e28:	e04c      	b.n	80100ec4 <my_vprintf+0x19e>
80100e2a:	683b      	ldr	r3, [r7, #0]
80100e2c:	3304      	adds	r3, #4
80100e2e:	603b      	str	r3, [r7, #0]
80100e30:	683b      	ldr	r3, [r7, #0]
80100e32:	3b04      	subs	r3, #4
80100e34:	681b      	ldr	r3, [r3, #0]
80100e36:	4618      	mov	r0, r3
80100e38:	f04f 0100 	mov.w	r1, #0
80100e3c:	7afa      	ldrb	r2, [r7, #11]
80100e3e:	68fb      	ldr	r3, [r7, #12]
80100e40:	9300      	str	r3, [sp, #0]
80100e42:	4613      	mov	r3, r2
80100e44:	2208      	movs	r2, #8
80100e46:	f7ff ff00 	bl	80100c4a <out_num>
80100e4a:	e03b      	b.n	80100ec4 <my_vprintf+0x19e>
80100e4c:	683b      	ldr	r3, [r7, #0]
80100e4e:	3304      	adds	r3, #4
80100e50:	603b      	str	r3, [r7, #0]
80100e52:	683b      	ldr	r3, [r7, #0]
80100e54:	3b04      	subs	r3, #4
80100e56:	681b      	ldr	r3, [r3, #0]
80100e58:	4618      	mov	r0, r3
80100e5a:	f04f 0100 	mov.w	r1, #0
80100e5e:	7afa      	ldrb	r2, [r7, #11]
80100e60:	68fb      	ldr	r3, [r7, #12]
80100e62:	9300      	str	r3, [sp, #0]
80100e64:	4613      	mov	r3, r2
80100e66:	220a      	movs	r2, #10
80100e68:	f7ff feef 	bl	80100c4a <out_num>
80100e6c:	e02a      	b.n	80100ec4 <my_vprintf+0x19e>
80100e6e:	683b      	ldr	r3, [r7, #0]
80100e70:	3304      	adds	r3, #4
80100e72:	603b      	str	r3, [r7, #0]
80100e74:	683b      	ldr	r3, [r7, #0]
80100e76:	3b04      	subs	r3, #4
80100e78:	681b      	ldr	r3, [r3, #0]
80100e7a:	4618      	mov	r0, r3
80100e7c:	f04f 0100 	mov.w	r1, #0
80100e80:	7afa      	ldrb	r2, [r7, #11]
80100e82:	68fb      	ldr	r3, [r7, #12]
80100e84:	9300      	str	r3, [sp, #0]
80100e86:	4613      	mov	r3, r2
80100e88:	2210      	movs	r2, #16
80100e8a:	f7ff fede 	bl	80100c4a <out_num>
80100e8e:	e019      	b.n	80100ec4 <my_vprintf+0x19e>
80100e90:	683b      	ldr	r3, [r7, #0]
80100e92:	3304      	adds	r3, #4
80100e94:	603b      	str	r3, [r7, #0]
80100e96:	683b      	ldr	r3, [r7, #0]
80100e98:	3b04      	subs	r3, #4
80100e9a:	681b      	ldr	r3, [r3, #0]
80100e9c:	4618      	mov	r0, r3
80100e9e:	f7ff feb3 	bl	80100c08 <outc>
80100ea2:	e00f      	b.n	80100ec4 <my_vprintf+0x19e>
80100ea4:	683b      	ldr	r3, [r7, #0]
80100ea6:	3304      	adds	r3, #4
80100ea8:	603b      	str	r3, [r7, #0]
80100eaa:	683b      	ldr	r3, [r7, #0]
80100eac:	3b04      	subs	r3, #4
80100eae:	681b      	ldr	r3, [r3, #0]
80100eb0:	4618      	mov	r0, r3
80100eb2:	f7ff feb5 	bl	80100c20 <outs>
80100eb6:	e005      	b.n	80100ec4 <my_vprintf+0x19e>
80100eb8:	687b      	ldr	r3, [r7, #4]
80100eba:	781b      	ldrb	r3, [r3, #0]
80100ebc:	4618      	mov	r0, r3
80100ebe:	f7ff fea3 	bl	80100c08 <outc>
80100ec2:	bf00      	nop
80100ec4:	687b      	ldr	r3, [r7, #4]
80100ec6:	3301      	adds	r3, #1
80100ec8:	607b      	str	r3, [r7, #4]
80100eca:	687b      	ldr	r3, [r7, #4]
80100ecc:	781b      	ldrb	r3, [r3, #0]
80100ece:	2b00      	cmp	r3, #0
80100ed0:	f47f af33 	bne.w	80100d3a <my_vprintf+0x14>
80100ed4:	2300      	movs	r3, #0
80100ed6:	4618      	mov	r0, r3
80100ed8:	3710      	adds	r7, #16
80100eda:	46bd      	mov	sp, r7
80100edc:	bd80      	pop	{r7, pc}

80100ede <printf>:
80100ede:	b40f      	push	{r0, r1, r2, r3}
80100ee0:	b580      	push	{r7, lr}
80100ee2:	b082      	sub	sp, #8
80100ee4:	af00      	add	r7, sp, #0
80100ee6:	f107 0314 	add.w	r3, r7, #20
80100eea:	607b      	str	r3, [r7, #4]
80100eec:	693b      	ldr	r3, [r7, #16]
80100eee:	6879      	ldr	r1, [r7, #4]
80100ef0:	4618      	mov	r0, r3
80100ef2:	f7ff ff18 	bl	80100d26 <my_vprintf>
80100ef6:	2300      	movs	r3, #0
80100ef8:	607b      	str	r3, [r7, #4]
80100efa:	2300      	movs	r3, #0
80100efc:	4618      	mov	r0, r3
80100efe:	3708      	adds	r7, #8
80100f00:	46bd      	mov	sp, r7
80100f02:	e8bd 4080 	ldmia.w	sp!, {r7, lr}
80100f06:	b004      	add	sp, #16
80100f08:	4770      	bx	lr

80100f0a <my_printf_test>:
80100f0a:	b580      	push	{r7, lr}
80100f0c:	af00      	add	r7, sp, #0
80100f0e:	f242 7044 	movw	r0, #10052	; 0x2744
80100f12:	f2c8 0010 	movt	r0, #32784	; 0x8010
80100f16:	f7ff ffe2 	bl	80100ede <printf>
80100f1a:	2261      	movs	r2, #97	; 0x61
80100f1c:	2141      	movs	r1, #65	; 0x41
80100f1e:	f242 7070 	movw	r0, #10096	; 0x2770
80100f22:	f2c8 0010 	movt	r0, #32784	; 0x8010
80100f26:	f7ff ffda 	bl	80100ede <printf>
80100f2a:	f24e 2140 	movw	r1, #57920	; 0xe240
80100f2e:	f2c0 0101 	movt	r1, #1
80100f32:	f242 7090 	movw	r0, #10128	; 0x2790
80100f36:	f2c8 0010 	movt	r0, #32784	; 0x8010
80100f3a:	f7ff ffd0 	bl	80100ede <printf>
80100f3e:	f44f 51ee 	mov.w	r1, #7616	; 0x1dc0
80100f42:	f6cf 71fe 	movt	r1, #65534	; 0xfffe
80100f46:	f242 7090 	movw	r0, #10128	; 0x2790
80100f4a:	f2c8 0010 	movt	r0, #32784	; 0x8010
80100f4e:	f7ff ffc6 	bl	80100ede <printf>
80100f52:	f245 51aa 	movw	r1, #21930	; 0x55aa
80100f56:	f2c5 51aa 	movt	r1, #21930	; 0x55aa
80100f5a:	f242 70ac 	movw	r0, #10156	; 0x27ac
80100f5e:	f2c8 0010 	movt	r0, #32784	; 0x8010
80100f62:	f7ff ffbc 	bl	80100ede <printf>
80100f66:	f242 71c8 	movw	r1, #10184	; 0x27c8
80100f6a:	f2c8 0110 	movt	r1, #32784	; 0x8010
80100f6e:	f242 70d8 	movw	r0, #10200	; 0x27d8
80100f72:	f2c8 0010 	movt	r0, #32784	; 0x8010
80100f76:	f7ff ffb2 	bl	80100ede <printf>
80100f7a:	f243 0139 	movw	r1, #12345	; 0x3039
80100f7e:	f242 70f4 	movw	r0, #10228	; 0x27f4
80100f82:	f2c8 0010 	movt	r0, #32784	; 0x8010
80100f86:	f7ff ffaa 	bl	80100ede <printf>
80100f8a:	f243 0139 	movw	r1, #12345	; 0x3039
80100f8e:	f642 0000 	movw	r0, #10240	; 0x2800
80100f92:	f2c8 0010 	movt	r0, #32784	; 0x8010
80100f96:	f7ff ffa2 	bl	80100ede <printf>
80100f9a:	f242 3145 	movw	r1, #9029	; 0x2345
80100f9e:	f2c0 0101 	movt	r1, #1
80100fa2:	f642 000c 	movw	r0, #10252	; 0x280c
80100fa6:	f2c8 0010 	movt	r0, #32784	; 0x8010
80100faa:	f7ff ff98 	bl	80100ede <printf>
80100fae:	f242 3145 	movw	r1, #9029	; 0x2345
80100fb2:	f2c0 0101 	movt	r1, #1
80100fb6:	f642 001c 	movw	r0, #10268	; 0x281c
80100fba:	f2c8 0010 	movt	r0, #32784	; 0x8010
80100fbe:	f7ff ff8e 	bl	80100ede <printf>
80100fc2:	2101      	movs	r1, #1
80100fc4:	f642 0028 	movw	r0, #10280	; 0x2828
80100fc8:	f2c8 0010 	movt	r0, #32784	; 0x8010
80100fcc:	f7ff ff87 	bl	80100ede <printf>
80100fd0:	2101      	movs	r1, #1
80100fd2:	f642 0038 	movw	r0, #10296	; 0x2838
80100fd6:	f2c8 0010 	movt	r0, #32784	; 0x8010
80100fda:	f7ff ff80 	bl	80100ede <printf>
80100fde:	2101      	movs	r1, #1
80100fe0:	f642 0044 	movw	r0, #10308	; 0x2844
80100fe4:	f2c8 0010 	movt	r0, #32784	; 0x8010
80100fe8:	f7ff ff79 	bl	80100ede <printf>
80100fec:	2101      	movs	r1, #1
80100fee:	f642 0050 	movw	r0, #10320	; 0x2850
80100ff2:	f2c8 0010 	movt	r0, #32784	; 0x8010
80100ff6:	f7ff ff72 	bl	80100ede <printf>
80100ffa:	2300      	movs	r3, #0
80100ffc:	4618      	mov	r0, r3
80100ffe:	bd80      	pop	{r7, pc}

80101000 <memcpy>:
80101000:	b480      	push	{r7}
80101002:	b089      	sub	sp, #36	; 0x24
80101004:	af00      	add	r7, sp, #0
80101006:	60f8      	str	r0, [r7, #12]
80101008:	60b9      	str	r1, [r7, #8]
8010100a:	607a      	str	r2, [r7, #4]
8010100c:	68fb      	ldr	r3, [r7, #12]
8010100e:	61fb      	str	r3, [r7, #28]
80101010:	68bb      	ldr	r3, [r7, #8]
80101012:	61bb      	str	r3, [r7, #24]
80101014:	68ba      	ldr	r2, [r7, #8]
80101016:	68fb      	ldr	r3, [r7, #12]
80101018:	429a      	cmp	r2, r3
8010101a:	d101      	bne.n	80101020 <memcpy+0x20>
8010101c:	68fb      	ldr	r3, [r7, #12]
8010101e:	e028      	b.n	80101072 <memcpy+0x72>
80101020:	68fa      	ldr	r2, [r7, #12]
80101022:	68bb      	ldr	r3, [r7, #8]
80101024:	4313      	orrs	r3, r2
80101026:	f003 0303 	and.w	r3, r3, #3
8010102a:	2b00      	cmp	r3, #0
8010102c:	d10e      	bne.n	8010104c <memcpy+0x4c>
8010102e:	e00a      	b.n	80101046 <memcpy+0x46>
80101030:	69fb      	ldr	r3, [r7, #28]
80101032:	1d1a      	adds	r2, r3, #4
80101034:	61fa      	str	r2, [r7, #28]
80101036:	69ba      	ldr	r2, [r7, #24]
80101038:	1d11      	adds	r1, r2, #4
8010103a:	61b9      	str	r1, [r7, #24]
8010103c:	6812      	ldr	r2, [r2, #0]
8010103e:	601a      	str	r2, [r3, #0]
80101040:	687b      	ldr	r3, [r7, #4]
80101042:	3b04      	subs	r3, #4
80101044:	607b      	str	r3, [r7, #4]
80101046:	687b      	ldr	r3, [r7, #4]
80101048:	2b03      	cmp	r3, #3
8010104a:	d8f1      	bhi.n	80101030 <memcpy+0x30>
8010104c:	69fb      	ldr	r3, [r7, #28]
8010104e:	617b      	str	r3, [r7, #20]
80101050:	69bb      	ldr	r3, [r7, #24]
80101052:	613b      	str	r3, [r7, #16]
80101054:	e007      	b.n	80101066 <memcpy+0x66>
80101056:	697b      	ldr	r3, [r7, #20]
80101058:	1c5a      	adds	r2, r3, #1
8010105a:	617a      	str	r2, [r7, #20]
8010105c:	693a      	ldr	r2, [r7, #16]
8010105e:	1c51      	adds	r1, r2, #1
80101060:	6139      	str	r1, [r7, #16]
80101062:	7812      	ldrb	r2, [r2, #0]
80101064:	701a      	strb	r2, [r3, #0]
80101066:	687b      	ldr	r3, [r7, #4]
80101068:	1e5a      	subs	r2, r3, #1
8010106a:	607a      	str	r2, [r7, #4]
8010106c:	2b00      	cmp	r3, #0
8010106e:	d1f2      	bne.n	80101056 <memcpy+0x56>
80101070:	68fb      	ldr	r3, [r7, #12]
80101072:	4618      	mov	r0, r3
80101074:	3724      	adds	r7, #36	; 0x24
80101076:	46bd      	mov	sp, r7
80101078:	f85d 7b04 	ldr.w	r7, [sp], #4
8010107c:	4770      	bx	lr
	...

80101080 <USDHC_Dump_All>:
80101080:	b580      	push	{r7, lr}
80101082:	b082      	sub	sp, #8
80101084:	af00      	add	r7, sp, #0
80101086:	6078      	str	r0, [r7, #4]
80101088:	687b      	ldr	r3, [r7, #4]
8010108a:	681b      	ldr	r3, [r3, #0]
8010108c:	4619      	mov	r1, r3
8010108e:	f642 005c 	movw	r0, #10332	; 0x285c
80101092:	f2c8 0010 	movt	r0, #32784	; 0x8010
80101096:	f7ff ff22 	bl	80100ede <printf>
8010109a:	687b      	ldr	r3, [r7, #4]
8010109c:	685b      	ldr	r3, [r3, #4]
8010109e:	4619      	mov	r1, r3
801010a0:	f642 0070 	movw	r0, #10352	; 0x2870
801010a4:	f2c8 0010 	movt	r0, #32784	; 0x8010
801010a8:	f7ff ff19 	bl	80100ede <printf>
801010ac:	687b      	ldr	r3, [r7, #4]
801010ae:	689b      	ldr	r3, [r3, #8]
801010b0:	4619      	mov	r1, r3
801010b2:	f642 0084 	movw	r0, #10372	; 0x2884
801010b6:	f2c8 0010 	movt	r0, #32784	; 0x8010
801010ba:	f7ff ff10 	bl	80100ede <printf>
801010be:	687b      	ldr	r3, [r7, #4]
801010c0:	68db      	ldr	r3, [r3, #12]
801010c2:	4619      	mov	r1, r3
801010c4:	f642 0098 	movw	r0, #10392	; 0x2898
801010c8:	f2c8 0010 	movt	r0, #32784	; 0x8010
801010cc:	f7ff ff07 	bl	80100ede <printf>
801010d0:	687b      	ldr	r3, [r7, #4]
801010d2:	691b      	ldr	r3, [r3, #16]
801010d4:	4619      	mov	r1, r3
801010d6:	f642 00b0 	movw	r0, #10416	; 0x28b0
801010da:	f2c8 0010 	movt	r0, #32784	; 0x8010
801010de:	f7ff fefe 	bl	80100ede <printf>
801010e2:	687b      	ldr	r3, [r7, #4]
801010e4:	695b      	ldr	r3, [r3, #20]
801010e6:	4619      	mov	r1, r3
801010e8:	f642 00c4 	movw	r0, #10436	; 0x28c4
801010ec:	f2c8 0010 	movt	r0, #32784	; 0x8010
801010f0:	f7ff fef5 	bl	80100ede <printf>
801010f4:	687b      	ldr	r3, [r7, #4]
801010f6:	699b      	ldr	r3, [r3, #24]
801010f8:	4619      	mov	r1, r3
801010fa:	f642 00d8 	movw	r0, #10456	; 0x28d8
801010fe:	f2c8 0010 	movt	r0, #32784	; 0x8010
80101102:	f7ff feec 	bl	80100ede <printf>
80101106:	687b      	ldr	r3, [r7, #4]
80101108:	69db      	ldr	r3, [r3, #28]
8010110a:	4619      	mov	r1, r3
8010110c:	f642 00ec 	movw	r0, #10476	; 0x28ec
80101110:	f2c8 0010 	movt	r0, #32784	; 0x8010
80101114:	f7ff fee3 	bl	80100ede <printf>
80101118:	687b      	ldr	r3, [r7, #4]
8010111a:	6a1b      	ldr	r3, [r3, #32]
8010111c:	4619      	mov	r1, r3
8010111e:	f642 1000 	movw	r0, #10496	; 0x2900
80101122:	f2c8 0010 	movt	r0, #32784	; 0x8010
80101126:	f7ff feda 	bl	80100ede <printf>
8010112a:	687b      	ldr	r3, [r7, #4]
8010112c:	6a5b      	ldr	r3, [r3, #36]	; 0x24
8010112e:	4619      	mov	r1, r3
80101130:	f642 1020 	movw	r0, #10528	; 0x2920
80101134:	f2c8 0010 	movt	r0, #32784	; 0x8010
80101138:	f7ff fed1 	bl	80100ede <printf>
8010113c:	687b      	ldr	r3, [r7, #4]
8010113e:	6a9b      	ldr	r3, [r3, #40]	; 0x28
80101140:	4619      	mov	r1, r3
80101142:	f642 1038 	movw	r0, #10552	; 0x2938
80101146:	f2c8 0010 	movt	r0, #32784	; 0x8010
8010114a:	f7ff fec8 	bl	80100ede <printf>
8010114e:	687b      	ldr	r3, [r7, #4]
80101150:	6adb      	ldr	r3, [r3, #44]	; 0x2c
80101152:	4619      	mov	r1, r3
80101154:	f642 104c 	movw	r0, #10572	; 0x294c
80101158:	f2c8 0010 	movt	r0, #32784	; 0x8010
8010115c:	f7ff febf 	bl	80100ede <printf>
80101160:	687b      	ldr	r3, [r7, #4]
80101162:	6b1b      	ldr	r3, [r3, #48]	; 0x30
80101164:	4619      	mov	r1, r3
80101166:	f642 1060 	movw	r0, #10592	; 0x2960
8010116a:	f2c8 0010 	movt	r0, #32784	; 0x8010
8010116e:	f7ff feb6 	bl	80100ede <printf>
80101172:	687b      	ldr	r3, [r7, #4]
80101174:	6b5b      	ldr	r3, [r3, #52]	; 0x34
80101176:	4619      	mov	r1, r3
80101178:	f642 1078 	movw	r0, #10616	; 0x2978
8010117c:	f2c8 0010 	movt	r0, #32784	; 0x8010
80101180:	f7ff fead 	bl	80100ede <printf>
80101184:	687b      	ldr	r3, [r7, #4]
80101186:	6b9b      	ldr	r3, [r3, #56]	; 0x38
80101188:	4619      	mov	r1, r3
8010118a:	f642 1090 	movw	r0, #10640	; 0x2990
8010118e:	f2c8 0010 	movt	r0, #32784	; 0x8010
80101192:	f7ff fea4 	bl	80100ede <printf>
80101196:	687b      	ldr	r3, [r7, #4]
80101198:	6bdb      	ldr	r3, [r3, #60]	; 0x3c
8010119a:	4619      	mov	r1, r3
8010119c:	f642 10a8 	movw	r0, #10664	; 0x29a8
801011a0:	f2c8 0010 	movt	r0, #32784	; 0x8010
801011a4:	f7ff fe9b 	bl	80100ede <printf>
801011a8:	687b      	ldr	r3, [r7, #4]
801011aa:	6c1b      	ldr	r3, [r3, #64]	; 0x40
801011ac:	4619      	mov	r1, r3
801011ae:	f642 10c8 	movw	r0, #10696	; 0x29c8
801011b2:	f2c8 0010 	movt	r0, #32784	; 0x8010
801011b6:	f7ff fe92 	bl	80100ede <printf>
801011ba:	687b      	ldr	r3, [r7, #4]
801011bc:	6c5b      	ldr	r3, [r3, #68]	; 0x44
801011be:	4619      	mov	r1, r3
801011c0:	f642 10e0 	movw	r0, #10720	; 0x29e0
801011c4:	f2c8 0010 	movt	r0, #32784	; 0x8010
801011c8:	f7ff fe89 	bl	80100ede <printf>
801011cc:	687b      	ldr	r3, [r7, #4]
801011ce:	6c9b      	ldr	r3, [r3, #72]	; 0x48
801011d0:	4619      	mov	r1, r3
801011d2:	f642 10f4 	movw	r0, #10740	; 0x29f4
801011d6:	f2c8 0010 	movt	r0, #32784	; 0x8010
801011da:	f7ff fe80 	bl	80100ede <printf>
801011de:	687b      	ldr	r3, [r7, #4]
801011e0:	6d1b      	ldr	r3, [r3, #80]	; 0x50
801011e2:	4619      	mov	r1, r3
801011e4:	f642 2008 	movw	r0, #10760	; 0x2a08
801011e8:	f2c8 0010 	movt	r0, #32784	; 0x8010
801011ec:	f7ff fe77 	bl	80100ede <printf>
801011f0:	687b      	ldr	r3, [r7, #4]
801011f2:	6d5b      	ldr	r3, [r3, #84]	; 0x54
801011f4:	4619      	mov	r1, r3
801011f6:	f642 2020 	movw	r0, #10784	; 0x2a20
801011fa:	f2c8 0010 	movt	r0, #32784	; 0x8010
801011fe:	f7ff fe6e 	bl	80100ede <printf>
80101202:	687b      	ldr	r3, [r7, #4]
80101204:	6d9b      	ldr	r3, [r3, #88]	; 0x58
80101206:	4619      	mov	r1, r3
80101208:	f642 203c 	movw	r0, #10812	; 0x2a3c
8010120c:	f2c8 0010 	movt	r0, #32784	; 0x8010
80101210:	f7ff fe65 	bl	80100ede <printf>
80101214:	687b      	ldr	r3, [r7, #4]
80101216:	6e1b      	ldr	r3, [r3, #96]	; 0x60
80101218:	4619      	mov	r1, r3
8010121a:	f642 2054 	movw	r0, #10836	; 0x2a54
8010121e:	f2c8 0010 	movt	r0, #32784	; 0x8010
80101222:	f7ff fe5c 	bl	80100ede <printf>
80101226:	687b      	ldr	r3, [r7, #4]
80101228:	6e5b      	ldr	r3, [r3, #100]	; 0x64
8010122a:	4619      	mov	r1, r3
8010122c:	f642 2068 	movw	r0, #10856	; 0x2a68
80101230:	f2c8 0010 	movt	r0, #32784	; 0x8010
80101234:	f7ff fe53 	bl	80100ede <printf>
80101238:	687b      	ldr	r3, [r7, #4]
8010123a:	6e9b      	ldr	r3, [r3, #104]	; 0x68
8010123c:	4619      	mov	r1, r3
8010123e:	f642 2080 	movw	r0, #10880	; 0x2a80
80101242:	f2c8 0010 	movt	r0, #32784	; 0x8010
80101246:	f7ff fe4a 	bl	80100ede <printf>
8010124a:	687b      	ldr	r3, [r7, #4]
8010124c:	f8d3 30c0 	ldr.w	r3, [r3, #192]	; 0xc0
80101250:	4619      	mov	r1, r3
80101252:	f642 20a0 	movw	r0, #10912	; 0x2aa0
80101256:	f2c8 0010 	movt	r0, #32784	; 0x8010
8010125a:	f7ff fe40 	bl	80100ede <printf>
8010125e:	687b      	ldr	r3, [r7, #4]
80101260:	f8d3 30c4 	ldr.w	r3, [r3, #196]	; 0xc4
80101264:	4619      	mov	r1, r3
80101266:	f642 20b4 	movw	r0, #10932	; 0x2ab4
8010126a:	f2c8 0010 	movt	r0, #32784	; 0x8010
8010126e:	f7ff fe36 	bl	80100ede <printf>
80101272:	687b      	ldr	r3, [r7, #4]
80101274:	f8d3 30c8 	ldr.w	r3, [r3, #200]	; 0xc8
80101278:	4619      	mov	r1, r3
8010127a:	f642 20c8 	movw	r0, #10952	; 0x2ac8
8010127e:	f2c8 0010 	movt	r0, #32784	; 0x8010
80101282:	f7ff fe2c 	bl	80100ede <printf>
80101286:	687b      	ldr	r3, [r7, #4]
80101288:	f8d3 30cc 	ldr.w	r3, [r3, #204]	; 0xcc
8010128c:	4619      	mov	r1, r3
8010128e:	f642 20e0 	movw	r0, #10976	; 0x2ae0
80101292:	f2c8 0010 	movt	r0, #32784	; 0x8010
80101296:	f7ff fe22 	bl	80100ede <printf>
8010129a:	bf00      	nop
8010129c:	3708      	adds	r7, #8
8010129e:	46bd      	mov	sp, r7
801012a0:	bd80      	pop	{r7, pc}

801012a2 <USDHC_Reset>:
801012a2:	b480      	push	{r7}
801012a4:	b085      	sub	sp, #20
801012a6:	af00      	add	r7, sp, #0
801012a8:	60f8      	str	r0, [r7, #12]
801012aa:	60b9      	str	r1, [r7, #8]
801012ac:	607a      	str	r2, [r7, #4]
801012ae:	68fb      	ldr	r3, [r7, #12]
801012b0:	6ada      	ldr	r2, [r3, #44]	; 0x2c
801012b2:	68bb      	ldr	r3, [r7, #8]
801012b4:	f003 63e0 	and.w	r3, r3, #117440512	; 0x7000000
801012b8:	431a      	orrs	r2, r3
801012ba:	68fb      	ldr	r3, [r7, #12]
801012bc:	62da      	str	r2, [r3, #44]	; 0x2c
801012be:	e005      	b.n	801012cc <USDHC_Reset+0x2a>
801012c0:	687b      	ldr	r3, [r7, #4]
801012c2:	2b00      	cmp	r3, #0
801012c4:	d009      	beq.n	801012da <USDHC_Reset+0x38>
801012c6:	687b      	ldr	r3, [r7, #4]
801012c8:	3b01      	subs	r3, #1
801012ca:	607b      	str	r3, [r7, #4]
801012cc:	68fb      	ldr	r3, [r7, #12]
801012ce:	6ada      	ldr	r2, [r3, #44]	; 0x2c
801012d0:	68bb      	ldr	r3, [r7, #8]
801012d2:	4013      	ands	r3, r2
801012d4:	2b00      	cmp	r3, #0
801012d6:	d1f3      	bne.n	801012c0 <USDHC_Reset+0x1e>
801012d8:	e000      	b.n	801012dc <USDHC_Reset+0x3a>
801012da:	bf00      	nop
801012dc:	687b      	ldr	r3, [r7, #4]
801012de:	2b00      	cmp	r3, #0
801012e0:	bf14      	ite	ne
801012e2:	2301      	movne	r3, #1
801012e4:	2300      	moveq	r3, #0
801012e6:	b2db      	uxtb	r3, r3
801012e8:	4618      	mov	r0, r3
801012ea:	3714      	adds	r7, #20
801012ec:	46bd      	mov	sp, r7
801012ee:	f85d 7b04 	ldr.w	r7, [sp], #4
801012f2:	4770      	bx	lr

801012f4 <USDHC_Reset_All>:
801012f4:	b580      	push	{r7, lr}
801012f6:	b082      	sub	sp, #8
801012f8:	af00      	add	r7, sp, #0
801012fa:	6078      	str	r0, [r7, #4]
801012fc:	6039      	str	r1, [r7, #0]
801012fe:	683a      	ldr	r2, [r7, #0]
80101300:	f04f 7180 	mov.w	r1, #16777216	; 0x1000000
80101304:	6878      	ldr	r0, [r7, #4]
80101306:	f7ff ffcc 	bl	801012a2 <USDHC_Reset>
8010130a:	4603      	mov	r3, r0
8010130c:	4618      	mov	r0, r3
8010130e:	3708      	adds	r7, #8
80101310:	46bd      	mov	sp, r7
80101312:	bd80      	pop	{r7, pc}

80101314 <USDHC_CreateDescTable>:
80101314:	b590      	push	{r4, r7, lr}
80101316:	b087      	sub	sp, #28
80101318:	af00      	add	r7, sp, #0
8010131a:	6078      	str	r0, [r7, #4]
8010131c:	6039      	str	r1, [r7, #0]
8010131e:	683b      	ldr	r3, [r7, #0]
80101320:	089a      	lsrs	r2, r3, #2
80101322:	2305      	movs	r3, #5
80101324:	f2c4 0301 	movt	r3, #16385	; 0x4001
80101328:	fba2 3403 	umull	r3, r4, r2, r3
8010132c:	0b23      	lsrs	r3, r4, #12
8010132e:	60fb      	str	r3, [r7, #12]
80101330:	6839      	ldr	r1, [r7, #0]
80101332:	088a      	lsrs	r2, r1, #2
80101334:	2305      	movs	r3, #5
80101336:	f2c4 0301 	movt	r3, #16385	; 0x4001
8010133a:	fba2 3403 	umull	r3, r4, r2, r3
8010133e:	0b22      	lsrs	r2, r4, #12
80101340:	4613      	mov	r3, r2
80101342:	039b      	lsls	r3, r3, #14
80101344:	1a9b      	subs	r3, r3, r2
80101346:	009b      	lsls	r3, r3, #2
80101348:	1aca      	subs	r2, r1, r3
8010134a:	2a00      	cmp	r2, #0
8010134c:	d002      	beq.n	80101354 <USDHC_CreateDescTable+0x40>
8010134e:	68fb      	ldr	r3, [r7, #12]
80101350:	3301      	adds	r3, #1
80101352:	60fb      	str	r3, [r7, #12]
80101354:	2300      	movs	r3, #0
80101356:	617b      	str	r3, [r7, #20]
80101358:	e038      	b.n	801013cc <USDHC_CreateDescTable+0xb8>
8010135a:	683b      	ldr	r3, [r7, #0]
8010135c:	f64f 72fc 	movw	r2, #65532	; 0xfffc
80101360:	4293      	cmp	r3, r2
80101362:	d908      	bls.n	80101376 <USDHC_CreateDescTable+0x62>
80101364:	f64f 73fc 	movw	r3, #65532	; 0xfffc
80101368:	613b      	str	r3, [r7, #16]
8010136a:	683b      	ldr	r3, [r7, #0]
8010136c:	f5a3 437f 	sub.w	r3, r3, #65280	; 0xff00
80101370:	3bfc      	subs	r3, #252	; 0xfc
80101372:	603b      	str	r3, [r7, #0]
80101374:	e001      	b.n	8010137a <USDHC_CreateDescTable+0x66>
80101376:	683b      	ldr	r3, [r7, #0]
80101378:	613b      	str	r3, [r7, #16]
8010137a:	f243 42a0 	movw	r2, #13472	; 0x34a0
8010137e:	f2c8 0210 	movt	r2, #32784	; 0x8010
80101382:	697b      	ldr	r3, [r7, #20]
80101384:	00db      	lsls	r3, r3, #3
80101386:	4413      	add	r3, r2
80101388:	687a      	ldr	r2, [r7, #4]
8010138a:	605a      	str	r2, [r3, #4]
8010138c:	693b      	ldr	r3, [r7, #16]
8010138e:	0419      	lsls	r1, r3, #16
80101390:	f243 43a0 	movw	r3, #13472	; 0x34a0
80101394:	f2c8 0310 	movt	r3, #32784	; 0x8010
80101398:	697a      	ldr	r2, [r7, #20]
8010139a:	f843 1032 	str.w	r1, [r3, r2, lsl #3]
8010139e:	f243 43a0 	movw	r3, #13472	; 0x34a0
801013a2:	f2c8 0310 	movt	r3, #32784	; 0x8010
801013a6:	697a      	ldr	r2, [r7, #20]
801013a8:	f853 3032 	ldr.w	r3, [r3, r2, lsl #3]
801013ac:	f043 0121 	orr.w	r1, r3, #33	; 0x21
801013b0:	f243 43a0 	movw	r3, #13472	; 0x34a0
801013b4:	f2c8 0310 	movt	r3, #32784	; 0x8010
801013b8:	697a      	ldr	r2, [r7, #20]
801013ba:	f843 1032 	str.w	r1, [r3, r2, lsl #3]
801013be:	687a      	ldr	r2, [r7, #4]
801013c0:	693b      	ldr	r3, [r7, #16]
801013c2:	4413      	add	r3, r2
801013c4:	607b      	str	r3, [r7, #4]
801013c6:	697b      	ldr	r3, [r7, #20]
801013c8:	3301      	adds	r3, #1
801013ca:	617b      	str	r3, [r7, #20]
801013cc:	697a      	ldr	r2, [r7, #20]
801013ce:	68fb      	ldr	r3, [r7, #12]
801013d0:	429a      	cmp	r2, r3
801013d2:	d3c2      	bcc.n	8010135a <USDHC_CreateDescTable+0x46>
801013d4:	68fb      	ldr	r3, [r7, #12]
801013d6:	1e5a      	subs	r2, r3, #1
801013d8:	68fb      	ldr	r3, [r7, #12]
801013da:	1e59      	subs	r1, r3, #1
801013dc:	f243 43a0 	movw	r3, #13472	; 0x34a0
801013e0:	f2c8 0310 	movt	r3, #32784	; 0x8010
801013e4:	f853 3031 	ldr.w	r3, [r3, r1, lsl #3]
801013e8:	f043 0102 	orr.w	r1, r3, #2
801013ec:	f243 43a0 	movw	r3, #13472	; 0x34a0
801013f0:	f2c8 0310 	movt	r3, #32784	; 0x8010
801013f4:	f843 1032 	str.w	r1, [r3, r2, lsl #3]
801013f8:	2300      	movs	r3, #0
801013fa:	617b      	str	r3, [r7, #20]
801013fc:	e018      	b.n	80101430 <USDHC_CreateDescTable+0x11c>
801013fe:	f243 42a0 	movw	r2, #13472	; 0x34a0
80101402:	f2c8 0210 	movt	r2, #32784	; 0x8010
80101406:	697b      	ldr	r3, [r7, #20]
80101408:	00db      	lsls	r3, r3, #3
8010140a:	4413      	add	r3, r2
8010140c:	6859      	ldr	r1, [r3, #4]
8010140e:	f243 43a0 	movw	r3, #13472	; 0x34a0
80101412:	f2c8 0310 	movt	r3, #32784	; 0x8010
80101416:	697a      	ldr	r2, [r7, #20]
80101418:	f853 3032 	ldr.w	r3, [r3, r2, lsl #3]
8010141c:	461a      	mov	r2, r3
8010141e:	f642 20f8 	movw	r0, #11000	; 0x2af8
80101422:	f2c8 0010 	movt	r0, #32784	; 0x8010
80101426:	f7ff fd5a 	bl	80100ede <printf>
8010142a:	697b      	ldr	r3, [r7, #20]
8010142c:	3301      	adds	r3, #1
8010142e:	617b      	str	r3, [r7, #20]
80101430:	697a      	ldr	r2, [r7, #20]
80101432:	68fb      	ldr	r3, [r7, #12]
80101434:	429a      	cmp	r2, r3
80101436:	d3e2      	bcc.n	801013fe <USDHC_CreateDescTable+0xea>
80101438:	2300      	movs	r3, #0
8010143a:	4618      	mov	r0, r3
8010143c:	371c      	adds	r7, #28
8010143e:	46bd      	mov	sp, r7
80101440:	bd90      	pop	{r4, r7, pc}

80101442 <USDHC_ClearInterruptStatusFlags>:
80101442:	b480      	push	{r7}
80101444:	b083      	sub	sp, #12
80101446:	af00      	add	r7, sp, #0
80101448:	6078      	str	r0, [r7, #4]
8010144a:	6039      	str	r1, [r7, #0]
8010144c:	687b      	ldr	r3, [r7, #4]
8010144e:	683a      	ldr	r2, [r7, #0]
80101450:	631a      	str	r2, [r3, #48]	; 0x30
80101452:	bf00      	nop
80101454:	370c      	adds	r7, #12
80101456:	46bd      	mov	sp, r7
80101458:	f85d 7b04 	ldr.w	r7, [sp], #4
8010145c:	4770      	bx	lr

8010145e <USDHC_WaitCommandDone>:
8010145e:	b580      	push	{r7, lr}
80101460:	b084      	sub	sp, #16
80101462:	af00      	add	r7, sp, #0
80101464:	6078      	str	r0, [r7, #4]
80101466:	2300      	movs	r3, #0
80101468:	60fb      	str	r3, [r7, #12]
8010146a:	2300      	movs	r3, #0
8010146c:	60bb      	str	r3, [r7, #8]
8010146e:	bf00      	nop
80101470:	687b      	ldr	r3, [r7, #4]
80101472:	6b1a      	ldr	r2, [r3, #48]	; 0x30
80101474:	2301      	movs	r3, #1
80101476:	f2c0 030f 	movt	r3, #15
8010147a:	4013      	ands	r3, r2
8010147c:	2b00      	cmp	r3, #0
8010147e:	d0f7      	beq.n	80101470 <USDHC_WaitCommandDone+0x12>
80101480:	687b      	ldr	r3, [r7, #4]
80101482:	6b1b      	ldr	r3, [r3, #48]	; 0x30
80101484:	60bb      	str	r3, [r7, #8]
80101486:	68bb      	ldr	r3, [r7, #8]
80101488:	f403 2370 	and.w	r3, r3, #983040	; 0xf0000
8010148c:	2b00      	cmp	r3, #0
8010148e:	d00f      	beq.n	801014b0 <USDHC_WaitCommandDone+0x52>
80101490:	687b      	ldr	r3, [r7, #4]
80101492:	68db      	ldr	r3, [r3, #12]
80101494:	68ba      	ldr	r2, [r7, #8]
80101496:	4619      	mov	r1, r3
80101498:	f642 3030 	movw	r0, #11056	; 0x2b30
8010149c:	f2c8 0010 	movt	r0, #32784	; 0x8010
801014a0:	f7ff fd1d 	bl	80100ede <printf>
801014a4:	6878      	ldr	r0, [r7, #4]
801014a6:	f7ff fdeb 	bl	80101080 <USDHC_Dump_All>
801014aa:	f04f 33ff 	mov.w	r3, #4294967295	; 0xffffffff
801014ae:	60fb      	str	r3, [r7, #12]
801014b0:	2101      	movs	r1, #1
801014b2:	f2c0 410f 	movt	r1, #1039	; 0x40f
801014b6:	6878      	ldr	r0, [r7, #4]
801014b8:	f7ff ffc3 	bl	80101442 <USDHC_ClearInterruptStatusFlags>
801014bc:	68fb      	ldr	r3, [r7, #12]
801014be:	4618      	mov	r0, r3
801014c0:	3710      	adds	r7, #16
801014c2:	46bd      	mov	sp, r7
801014c4:	bd80      	pop	{r7, pc}

801014c6 <USDHC_WaitDataDone>:
801014c6:	b580      	push	{r7, lr}
801014c8:	b084      	sub	sp, #16
801014ca:	af00      	add	r7, sp, #0
801014cc:	6078      	str	r0, [r7, #4]
801014ce:	2300      	movs	r3, #0
801014d0:	60fb      	str	r3, [r7, #12]
801014d2:	2300      	movs	r3, #0
801014d4:	60bb      	str	r3, [r7, #8]
801014d6:	bf00      	nop
801014d8:	687b      	ldr	r3, [r7, #4]
801014da:	6b1a      	ldr	r2, [r3, #48]	; 0x30
801014dc:	2302      	movs	r3, #2
801014de:	f2c0 1370 	movt	r3, #368	; 0x170
801014e2:	4013      	ands	r3, r2
801014e4:	2b00      	cmp	r3, #0
801014e6:	d0f7      	beq.n	801014d8 <USDHC_WaitDataDone+0x12>
801014e8:	687b      	ldr	r3, [r7, #4]
801014ea:	6b1b      	ldr	r3, [r3, #48]	; 0x30
801014ec:	60bb      	str	r3, [r7, #8]
801014ee:	68bb      	ldr	r3, [r7, #8]
801014f0:	f003 73b8 	and.w	r3, r3, #24117248	; 0x1700000
801014f4:	2b00      	cmp	r3, #0
801014f6:	d00c      	beq.n	80101512 <USDHC_WaitDataDone+0x4c>
801014f8:	687b      	ldr	r3, [r7, #4]
801014fa:	68db      	ldr	r3, [r3, #12]
801014fc:	68ba      	ldr	r2, [r7, #8]
801014fe:	4619      	mov	r1, r3
80101500:	f642 3060 	movw	r0, #11104	; 0x2b60
80101504:	f2c8 0010 	movt	r0, #32784	; 0x8010
80101508:	f7ff fce9 	bl	80100ede <printf>
8010150c:	f04f 33ff 	mov.w	r3, #4294967295	; 0xffffffff
80101510:	60fb      	str	r3, [r7, #12]
80101512:	2102      	movs	r1, #2
80101514:	f2c0 1170 	movt	r1, #368	; 0x170
80101518:	6878      	ldr	r0, [r7, #4]
8010151a:	f7ff ff92 	bl	80101442 <USDHC_ClearInterruptStatusFlags>
8010151e:	68fb      	ldr	r3, [r7, #12]
80101520:	4618      	mov	r0, r3
80101522:	3710      	adds	r7, #16
80101524:	46bd      	mov	sp, r7
80101526:	bd80      	pop	{r7, pc}

80101528 <USDHC_SendCommand>:
80101528:	b580      	push	{r7, lr}
8010152a:	b084      	sub	sp, #16
8010152c:	af00      	add	r7, sp, #0
8010152e:	60f8      	str	r0, [r7, #12]
80101530:	60b9      	str	r1, [r7, #8]
80101532:	607a      	str	r2, [r7, #4]
80101534:	bf00      	nop
80101536:	68fb      	ldr	r3, [r7, #12]
80101538:	6a5b      	ldr	r3, [r3, #36]	; 0x24
8010153a:	f003 0301 	and.w	r3, r3, #1
8010153e:	2b00      	cmp	r3, #0
80101540:	d1f9      	bne.n	80101536 <USDHC_SendCommand+0xe>
80101542:	68fb      	ldr	r3, [r7, #12]
80101544:	687a      	ldr	r2, [r7, #4]
80101546:	609a      	str	r2, [r3, #8]
80101548:	68bb      	ldr	r3, [r7, #8]
8010154a:	041a      	lsls	r2, r3, #16
8010154c:	68fb      	ldr	r3, [r7, #12]
8010154e:	60da      	str	r2, [r3, #12]
80101550:	68f8      	ldr	r0, [r7, #12]
80101552:	f7ff ff84 	bl	8010145e <USDHC_WaitCommandDone>
80101556:	4603      	mov	r3, r0
80101558:	4618      	mov	r0, r3
8010155a:	3710      	adds	r7, #16
8010155c:	46bd      	mov	sp, r7
8010155e:	bd80      	pop	{r7, pc}

80101560 <USDHC_SendCommand_with_data>:
80101560:	b580      	push	{r7, lr}
80101562:	b086      	sub	sp, #24
80101564:	af00      	add	r7, sp, #0
80101566:	60f8      	str	r0, [r7, #12]
80101568:	60b9      	str	r1, [r7, #8]
8010156a:	607a      	str	r2, [r7, #4]
8010156c:	603b      	str	r3, [r7, #0]
8010156e:	bf00      	nop
80101570:	68fb      	ldr	r3, [r7, #12]
80101572:	6a5b      	ldr	r3, [r3, #36]	; 0x24
80101574:	f003 0301 	and.w	r3, r3, #1
80101578:	2b00      	cmp	r3, #0
8010157a:	d1f9      	bne.n	80101570 <USDHC_SendCommand_with_data+0x10>
8010157c:	bf00      	nop
8010157e:	68fb      	ldr	r3, [r7, #12]
80101580:	6a5b      	ldr	r3, [r3, #36]	; 0x24
80101582:	f003 0302 	and.w	r3, r3, #2
80101586:	2b00      	cmp	r3, #0
80101588:	d1f9      	bne.n	8010157e <USDHC_SendCommand_with_data+0x1e>
8010158a:	6a39      	ldr	r1, [r7, #32]
8010158c:	f243 0000 	movw	r0, #12288	; 0x3000
80101590:	f2c8 0010 	movt	r0, #32784	; 0x8010
80101594:	f7ff febe 	bl	80101314 <USDHC_CreateDescTable>
80101598:	68fb      	ldr	r3, [r7, #12]
8010159a:	2200      	movs	r2, #0
8010159c:	601a      	str	r2, [r3, #0]
8010159e:	f243 43a0 	movw	r3, #13472	; 0x34a0
801015a2:	f2c8 0310 	movt	r3, #32784	; 0x8010
801015a6:	68fa      	ldr	r2, [r7, #12]
801015a8:	6593      	str	r3, [r2, #88]	; 0x58
801015aa:	6a3b      	ldr	r3, [r7, #32]
801015ac:	f3c3 030c 	ubfx	r3, r3, #0, #13
801015b0:	f443 3280 	orr.w	r2, r3, #65536	; 0x10000
801015b4:	68fb      	ldr	r3, [r7, #12]
801015b6:	605a      	str	r2, [r3, #4]
801015b8:	68fb      	ldr	r3, [r7, #12]
801015ba:	f8d3 30c0 	ldr.w	r3, [r3, #192]	; 0xc0
801015be:	f023 0201 	bic.w	r2, r3, #1
801015c2:	68fb      	ldr	r3, [r7, #12]
801015c4:	f8c3 20c0 	str.w	r2, [r3, #192]	; 0xc0
801015c8:	68fb      	ldr	r3, [r7, #12]
801015ca:	6a9b      	ldr	r3, [r3, #40]	; 0x28
801015cc:	f023 5360 	bic.w	r3, r3, #939524096	; 0x38000000
801015d0:	f423 7340 	bic.w	r3, r3, #768	; 0x300
801015d4:	68fa      	ldr	r2, [r7, #12]
801015d6:	6293      	str	r3, [r2, #40]	; 0x28
801015d8:	68fb      	ldr	r3, [r7, #12]
801015da:	6a9b      	ldr	r3, [r3, #40]	; 0x28
801015dc:	f043 6300 	orr.w	r3, r3, #134217728	; 0x8000000
801015e0:	f443 7300 	orr.w	r3, r3, #512	; 0x200
801015e4:	68fa      	ldr	r2, [r7, #12]
801015e6:	6293      	str	r3, [r2, #40]	; 0x28
801015e8:	68fb      	ldr	r3, [r7, #12]
801015ea:	6c9b      	ldr	r3, [r3, #72]	; 0x48
801015ec:	f043 0211 	orr.w	r2, r3, #17
801015f0:	68fb      	ldr	r3, [r7, #12]
801015f2:	649a      	str	r2, [r3, #72]	; 0x48
801015f4:	68fb      	ldr	r3, [r7, #12]
801015f6:	687a      	ldr	r2, [r7, #4]
801015f8:	609a      	str	r2, [r3, #8]
801015fa:	68bb      	ldr	r3, [r7, #8]
801015fc:	041a      	lsls	r2, r3, #16
801015fe:	68fb      	ldr	r3, [r7, #12]
80101600:	60da      	str	r2, [r3, #12]
80101602:	68f8      	ldr	r0, [r7, #12]
80101604:	f7ff ff2b 	bl	8010145e <USDHC_WaitCommandDone>
80101608:	6178      	str	r0, [r7, #20]
8010160a:	697b      	ldr	r3, [r7, #20]
8010160c:	2b00      	cmp	r3, #0
8010160e:	da01      	bge.n	80101614 <USDHC_SendCommand_with_data+0xb4>
80101610:	697b      	ldr	r3, [r7, #20]
80101612:	e014      	b.n	8010163e <USDHC_SendCommand_with_data+0xde>
80101614:	68f8      	ldr	r0, [r7, #12]
80101616:	f7ff ff56 	bl	801014c6 <USDHC_WaitDataDone>
8010161a:	6178      	str	r0, [r7, #20]
8010161c:	697b      	ldr	r3, [r7, #20]
8010161e:	2b00      	cmp	r3, #0
80101620:	da01      	bge.n	80101626 <USDHC_SendCommand_with_data+0xc6>
80101622:	697b      	ldr	r3, [r7, #20]
80101624:	e00b      	b.n	8010163e <USDHC_SendCommand_with_data+0xde>
80101626:	683b      	ldr	r3, [r7, #0]
80101628:	2b00      	cmp	r3, #0
8010162a:	d007      	beq.n	8010163c <USDHC_SendCommand_with_data+0xdc>
8010162c:	6a3a      	ldr	r2, [r7, #32]
8010162e:	f243 0100 	movw	r1, #12288	; 0x3000
80101632:	f2c8 0110 	movt	r1, #32784	; 0x8010
80101636:	6838      	ldr	r0, [r7, #0]
80101638:	f7ff fce2 	bl	80101000 <memcpy>
8010163c:	2300      	movs	r3, #0
8010163e:	4618      	mov	r0, r3
80101640:	3718      	adds	r7, #24
80101642:	46bd      	mov	sp, r7
80101644:	bd80      	pop	{r7, pc}

80101646 <USDHC_Init>:
80101646:	b580      	push	{r7, lr}
80101648:	b086      	sub	sp, #24
8010164a:	af00      	add	r7, sp, #0
8010164c:	6078      	str	r0, [r7, #4]
8010164e:	2164      	movs	r1, #100	; 0x64
80101650:	6878      	ldr	r0, [r7, #4]
80101652:	f7ff fe4f 	bl	801012f4 <USDHC_Reset_All>
80101656:	687b      	ldr	r3, [r7, #4]
80101658:	6a9b      	ldr	r3, [r3, #40]	; 0x28
8010165a:	617b      	str	r3, [r7, #20]
8010165c:	687b      	ldr	r3, [r7, #4]
8010165e:	6c5b      	ldr	r3, [r3, #68]	; 0x44
80101660:	613b      	str	r3, [r7, #16]
80101662:	687b      	ldr	r3, [r7, #4]
80101664:	6adb      	ldr	r3, [r3, #44]	; 0x2c
80101666:	60fb      	str	r3, [r7, #12]
80101668:	697b      	ldr	r3, [r7, #20]
8010166a:	f423 734c 	bic.w	r3, r3, #816	; 0x330
8010166e:	617b      	str	r3, [r7, #20]
80101670:	697b      	ldr	r3, [r7, #20]
80101672:	f043 0320 	orr.w	r3, r3, #32
80101676:	617b      	str	r3, [r7, #20]
80101678:	693b      	ldr	r3, [r7, #16]
8010167a:	f003 23e0 	and.w	r3, r3, #3758153728	; 0xe000e000
8010167e:	613b      	str	r3, [r7, #16]
80101680:	693b      	ldr	r3, [r7, #16]
80101682:	f043 6308 	orr.w	r3, r3, #142606336	; 0x8800000
80101686:	f443 6308 	orr.w	r3, r3, #2176	; 0x880
8010168a:	613b      	str	r3, [r7, #16]
8010168c:	68fb      	ldr	r3, [r7, #12]
8010168e:	f423 2370 	bic.w	r3, r3, #983040	; 0xf0000
80101692:	60fb      	str	r3, [r7, #12]
80101694:	68fb      	ldr	r3, [r7, #12]
80101696:	f443 2370 	orr.w	r3, r3, #983040	; 0xf0000
8010169a:	60fb      	str	r3, [r7, #12]
8010169c:	687b      	ldr	r3, [r7, #4]
8010169e:	68fa      	ldr	r2, [r7, #12]
801016a0:	62da      	str	r2, [r3, #44]	; 0x2c
801016a2:	687b      	ldr	r3, [r7, #4]
801016a4:	693a      	ldr	r2, [r7, #16]
801016a6:	645a      	str	r2, [r3, #68]	; 0x44
801016a8:	687b      	ldr	r3, [r7, #4]
801016aa:	697a      	ldr	r2, [r7, #20]
801016ac:	629a      	str	r2, [r3, #40]	; 0x28
801016ae:	687b      	ldr	r3, [r7, #4]
801016b0:	2200      	movs	r2, #0
801016b2:	635a      	str	r2, [r3, #52]	; 0x34
801016b4:	687b      	ldr	r3, [r7, #4]
801016b6:	2200      	movs	r2, #0
801016b8:	639a      	str	r2, [r3, #56]	; 0x38
801016ba:	687a      	ldr	r2, [r7, #4]
801016bc:	f245 03fb 	movw	r3, #20731	; 0x50fb
801016c0:	f2c1 537f 	movt	r3, #5503	; 0x157f
801016c4:	6353      	str	r3, [r2, #52]	; 0x34
801016c6:	687a      	ldr	r2, [r7, #4]
801016c8:	f245 03fb 	movw	r3, #20731	; 0x50fb
801016cc:	f2c1 537f 	movt	r3, #5503	; 0x157f
801016d0:	6393      	str	r3, [r2, #56]	; 0x38
801016d2:	bf00      	nop
801016d4:	3718      	adds	r7, #24
801016d6:	46bd      	mov	sp, r7
801016d8:	bd80      	pop	{r7, pc}

801016da <CardInsertDetect>:
801016da:	b580      	push	{r7, lr}
801016dc:	b082      	sub	sp, #8
801016de:	af00      	add	r7, sp, #0
801016e0:	6078      	str	r0, [r7, #4]
801016e2:	687b      	ldr	r3, [r7, #4]
801016e4:	6a5b      	ldr	r3, [r3, #36]	; 0x24
801016e6:	f403 2380 	and.w	r3, r3, #262144	; 0x40000
801016ea:	2b00      	cmp	r3, #0
801016ec:	d105      	bne.n	801016fa <CardInsertDetect+0x20>
801016ee:	f642 3090 	movw	r0, #11152	; 0x2b90
801016f2:	f2c8 0010 	movt	r0, #32784	; 0x8010
801016f6:	f7ff fbf2 	bl	80100ede <printf>
801016fa:	bf00      	nop
801016fc:	687b      	ldr	r3, [r7, #4]
801016fe:	6a5b      	ldr	r3, [r3, #36]	; 0x24
80101700:	0c9b      	lsrs	r3, r3, #18
80101702:	f003 0301 	and.w	r3, r3, #1
80101706:	2b00      	cmp	r3, #0
80101708:	d0f8      	beq.n	801016fc <CardInsertDetect+0x22>
8010170a:	f642 30a8 	movw	r0, #11176	; 0x2ba8
8010170e:	f2c8 0010 	movt	r0, #32784	; 0x8010
80101712:	f7ff fbe4 	bl	80100ede <printf>
80101716:	bf00      	nop
80101718:	3708      	adds	r7, #8
8010171a:	46bd      	mov	sp, r7
8010171c:	bd80      	pop	{r7, pc}

8010171e <USDHC_SetDataBusWidth>:
8010171e:	b480      	push	{r7}
80101720:	b083      	sub	sp, #12
80101722:	af00      	add	r7, sp, #0
80101724:	6078      	str	r0, [r7, #4]
80101726:	6039      	str	r1, [r7, #0]
80101728:	687b      	ldr	r3, [r7, #4]
8010172a:	6a9b      	ldr	r3, [r3, #40]	; 0x28
8010172c:	f023 0206 	bic.w	r2, r3, #6
80101730:	683b      	ldr	r3, [r7, #0]
80101732:	005b      	lsls	r3, r3, #1
80101734:	f003 0306 	and.w	r3, r3, #6
80101738:	431a      	orrs	r2, r3
8010173a:	687b      	ldr	r3, [r7, #4]
8010173c:	629a      	str	r2, [r3, #40]	; 0x28
8010173e:	bf00      	nop
80101740:	370c      	adds	r7, #12
80101742:	46bd      	mov	sp, r7
80101744:	f85d 7b04 	ldr.w	r7, [sp], #4
80101748:	4770      	bx	lr

8010174a <USDHC_SetSdClock>:
8010174a:	b580      	push	{r7, lr}
8010174c:	b08c      	sub	sp, #48	; 0x30
8010174e:	af00      	add	r7, sp, #0
80101750:	60f8      	str	r0, [r7, #12]
80101752:	60b9      	str	r1, [r7, #8]
80101754:	607a      	str	r2, [r7, #4]
80101756:	2300      	movs	r3, #0
80101758:	62fb      	str	r3, [r7, #44]	; 0x2c
8010175a:	2300      	movs	r3, #0
8010175c:	62bb      	str	r3, [r7, #40]	; 0x28
8010175e:	2300      	movs	r3, #0
80101760:	627b      	str	r3, [r7, #36]	; 0x24
80101762:	2300      	movs	r3, #0
80101764:	617b      	str	r3, [r7, #20]
80101766:	2300      	movs	r3, #0
80101768:	623b      	str	r3, [r7, #32]
8010176a:	f44f 7380 	mov.w	r3, #256	; 0x100
8010176e:	61fb      	str	r3, [r7, #28]
80101770:	2300      	movs	r3, #0
80101772:	61bb      	str	r3, [r7, #24]
80101774:	68fb      	ldr	r3, [r7, #12]
80101776:	6c9b      	ldr	r3, [r3, #72]	; 0x48
80101778:	f003 0308 	and.w	r3, r3, #8
8010177c:	2b00      	cmp	r3, #0
8010177e:	d004      	beq.n	8010178a <USDHC_SetSdClock+0x40>
80101780:	2301      	movs	r3, #1
80101782:	61bb      	str	r3, [r7, #24]
80101784:	69fb      	ldr	r3, [r7, #28]
80101786:	005b      	lsls	r3, r3, #1
80101788:	61fb      	str	r3, [r7, #28]
8010178a:	6879      	ldr	r1, [r7, #4]
8010178c:	68b8      	ldr	r0, [r7, #8]
8010178e:	f000 fdc3 	bl	80102318 <__aeabi_uidiv>
80101792:	4603      	mov	r3, r0
80101794:	62fb      	str	r3, [r7, #44]	; 0x2c
80101796:	6afb      	ldr	r3, [r7, #44]	; 0x2c
80101798:	2b00      	cmp	r3, #0
8010179a:	d055      	beq.n	80101848 <USDHC_SetSdClock+0xfe>
8010179c:	6af9      	ldr	r1, [r7, #44]	; 0x2c
8010179e:	68b8      	ldr	r0, [r7, #8]
801017a0:	f000 fdba 	bl	80102318 <__aeabi_uidiv>
801017a4:	4603      	mov	r3, r0
801017a6:	461a      	mov	r2, r3
801017a8:	687b      	ldr	r3, [r7, #4]
801017aa:	429a      	cmp	r2, r3
801017ac:	d902      	bls.n	801017b4 <USDHC_SetSdClock+0x6a>
801017ae:	6afb      	ldr	r3, [r7, #44]	; 0x2c
801017b0:	3301      	adds	r3, #1
801017b2:	62fb      	str	r3, [r7, #44]	; 0x2c
801017b4:	6afb      	ldr	r3, [r7, #44]	; 0x2c
801017b6:	2b10      	cmp	r3, #16
801017b8:	d92e      	bls.n	80101818 <USDHC_SetSdClock+0xce>
801017ba:	6afb      	ldr	r3, [r7, #44]	; 0x2c
801017bc:	091b      	lsrs	r3, r3, #4
801017be:	627b      	str	r3, [r7, #36]	; 0x24
801017c0:	e002      	b.n	801017c8 <USDHC_SetSdClock+0x7e>
801017c2:	6a7b      	ldr	r3, [r7, #36]	; 0x24
801017c4:	3301      	adds	r3, #1
801017c6:	627b      	str	r3, [r7, #36]	; 0x24
801017c8:	69fb      	ldr	r3, [r7, #28]
801017ca:	6a79      	ldr	r1, [r7, #36]	; 0x24
801017cc:	4618      	mov	r0, r3
801017ce:	f000 fed1 	bl	80102574 <__aeabi_uidivmod>
801017d2:	460b      	mov	r3, r1
801017d4:	2b00      	cmp	r3, #0
801017d6:	d1f4      	bne.n	801017c2 <USDHC_SetSdClock+0x78>
801017d8:	6a7b      	ldr	r3, [r7, #36]	; 0x24
801017da:	2b01      	cmp	r3, #1
801017dc:	d0f1      	beq.n	801017c2 <USDHC_SetSdClock+0x78>
801017de:	6a79      	ldr	r1, [r7, #36]	; 0x24
801017e0:	6af8      	ldr	r0, [r7, #44]	; 0x2c
801017e2:	f000 fd99 	bl	80102318 <__aeabi_uidiv>
801017e6:	4603      	mov	r3, r0
801017e8:	62bb      	str	r3, [r7, #40]	; 0x28
801017ea:	e002      	b.n	801017f2 <USDHC_SetSdClock+0xa8>
801017ec:	6abb      	ldr	r3, [r7, #40]	; 0x28
801017ee:	3301      	adds	r3, #1
801017f0:	62bb      	str	r3, [r7, #40]	; 0x28
801017f2:	6abb      	ldr	r3, [r7, #40]	; 0x28
801017f4:	6a7a      	ldr	r2, [r7, #36]	; 0x24
801017f6:	fb02 f203 	mul.w	r2, r2, r3
801017fa:	6afb      	ldr	r3, [r7, #44]	; 0x2c
801017fc:	429a      	cmp	r2, r3
801017fe:	d3f5      	bcc.n	801017ec <USDHC_SetSdClock+0xa2>
80101800:	6ab9      	ldr	r1, [r7, #40]	; 0x28
80101802:	68b8      	ldr	r0, [r7, #8]
80101804:	f000 fd88 	bl	80102318 <__aeabi_uidiv>
80101808:	4603      	mov	r3, r0
8010180a:	6a79      	ldr	r1, [r7, #36]	; 0x24
8010180c:	4618      	mov	r0, r3
8010180e:	f000 fd83 	bl	80102318 <__aeabi_uidiv>
80101812:	4603      	mov	r3, r0
80101814:	623b      	str	r3, [r7, #32]
80101816:	e01d      	b.n	80101854 <USDHC_SetSdClock+0x10a>
80101818:	2310      	movs	r3, #16
8010181a:	6af9      	ldr	r1, [r7, #44]	; 0x2c
8010181c:	4618      	mov	r0, r3
8010181e:	f000 fea9 	bl	80102574 <__aeabi_uidivmod>
80101822:	460b      	mov	r3, r1
80101824:	2b00      	cmp	r3, #0
80101826:	d104      	bne.n	80101832 <USDHC_SetSdClock+0xe8>
80101828:	2300      	movs	r3, #0
8010182a:	62bb      	str	r3, [r7, #40]	; 0x28
8010182c:	6afb      	ldr	r3, [r7, #44]	; 0x2c
8010182e:	627b      	str	r3, [r7, #36]	; 0x24
80101830:	e003      	b.n	8010183a <USDHC_SetSdClock+0xf0>
80101832:	6afb      	ldr	r3, [r7, #44]	; 0x2c
80101834:	62bb      	str	r3, [r7, #40]	; 0x28
80101836:	2300      	movs	r3, #0
80101838:	627b      	str	r3, [r7, #36]	; 0x24
8010183a:	6af9      	ldr	r1, [r7, #44]	; 0x2c
8010183c:	68b8      	ldr	r0, [r7, #8]
8010183e:	f000 fd6b 	bl	80102318 <__aeabi_uidiv>
80101842:	4603      	mov	r3, r0
80101844:	623b      	str	r3, [r7, #32]
80101846:	e005      	b.n	80101854 <USDHC_SetSdClock+0x10a>
80101848:	2300      	movs	r3, #0
8010184a:	62bb      	str	r3, [r7, #40]	; 0x28
8010184c:	2300      	movs	r3, #0
8010184e:	627b      	str	r3, [r7, #36]	; 0x24
80101850:	68bb      	ldr	r3, [r7, #8]
80101852:	623b      	str	r3, [r7, #32]
80101854:	6abb      	ldr	r3, [r7, #40]	; 0x28
80101856:	2b00      	cmp	r3, #0
80101858:	d002      	beq.n	80101860 <USDHC_SetSdClock+0x116>
8010185a:	6abb      	ldr	r3, [r7, #40]	; 0x28
8010185c:	3b01      	subs	r3, #1
8010185e:	62bb      	str	r3, [r7, #40]	; 0x28
80101860:	6a7b      	ldr	r3, [r7, #36]	; 0x24
80101862:	2b00      	cmp	r3, #0
80101864:	d009      	beq.n	8010187a <USDHC_SetSdClock+0x130>
80101866:	69bb      	ldr	r3, [r7, #24]
80101868:	2b00      	cmp	r3, #0
8010186a:	d001      	beq.n	80101870 <USDHC_SetSdClock+0x126>
8010186c:	2302      	movs	r3, #2
8010186e:	e000      	b.n	80101872 <USDHC_SetSdClock+0x128>
80101870:	2301      	movs	r3, #1
80101872:	6a7a      	ldr	r2, [r7, #36]	; 0x24
80101874:	fa22 f303 	lsr.w	r3, r2, r3
80101878:	627b      	str	r3, [r7, #36]	; 0x24
8010187a:	68fb      	ldr	r3, [r7, #12]
8010187c:	6adb      	ldr	r3, [r3, #44]	; 0x2c
8010187e:	617b      	str	r3, [r7, #20]
80101880:	697b      	ldr	r3, [r7, #20]
80101882:	f423 437f 	bic.w	r3, r3, #65280	; 0xff00
80101886:	f023 03f0 	bic.w	r3, r3, #240	; 0xf0
8010188a:	617b      	str	r3, [r7, #20]
8010188c:	6abb      	ldr	r3, [r7, #40]	; 0x28
8010188e:	011b      	lsls	r3, r3, #4
80101890:	b2da      	uxtb	r2, r3
80101892:	6a7b      	ldr	r3, [r7, #36]	; 0x24
80101894:	021b      	lsls	r3, r3, #8
80101896:	b29b      	uxth	r3, r3
80101898:	4313      	orrs	r3, r2
8010189a:	697a      	ldr	r2, [r7, #20]
8010189c:	4313      	orrs	r3, r2
8010189e:	617b      	str	r3, [r7, #20]
801018a0:	68fb      	ldr	r3, [r7, #12]
801018a2:	697a      	ldr	r2, [r7, #20]
801018a4:	62da      	str	r2, [r3, #44]	; 0x2c
801018a6:	bf00      	nop
801018a8:	68fb      	ldr	r3, [r7, #12]
801018aa:	6a5b      	ldr	r3, [r3, #36]	; 0x24
801018ac:	f003 0308 	and.w	r3, r3, #8
801018b0:	2b00      	cmp	r3, #0
801018b2:	d0f9      	beq.n	801018a8 <USDHC_SetSdClock+0x15e>
801018b4:	6a3b      	ldr	r3, [r7, #32]
801018b6:	4618      	mov	r0, r3
801018b8:	3730      	adds	r7, #48	; 0x30
801018ba:	46bd      	mov	sp, r7
801018bc:	bd80      	pop	{r7, pc}

801018be <USDHC_SetCardActive>:
801018be:	b480      	push	{r7}
801018c0:	b083      	sub	sp, #12
801018c2:	af00      	add	r7, sp, #0
801018c4:	6078      	str	r0, [r7, #4]
801018c6:	6039      	str	r1, [r7, #0]
801018c8:	687b      	ldr	r3, [r7, #4]
801018ca:	6adb      	ldr	r3, [r3, #44]	; 0x2c
801018cc:	f043 6200 	orr.w	r2, r3, #134217728	; 0x8000000
801018d0:	687b      	ldr	r3, [r7, #4]
801018d2:	62da      	str	r2, [r3, #44]	; 0x2c
801018d4:	e005      	b.n	801018e2 <USDHC_SetCardActive+0x24>
801018d6:	683b      	ldr	r3, [r7, #0]
801018d8:	2b00      	cmp	r3, #0
801018da:	d00a      	beq.n	801018f2 <USDHC_SetCardActive+0x34>
801018dc:	683b      	ldr	r3, [r7, #0]
801018de:	3b01      	subs	r3, #1
801018e0:	603b      	str	r3, [r7, #0]
801018e2:	687b      	ldr	r3, [r7, #4]
801018e4:	6adb      	ldr	r3, [r3, #44]	; 0x2c
801018e6:	f003 6300 	and.w	r3, r3, #134217728	; 0x8000000
801018ea:	f1b3 6f00 	cmp.w	r3, #134217728	; 0x8000000
801018ee:	d0f2      	beq.n	801018d6 <USDHC_SetCardActive+0x18>
801018f0:	e000      	b.n	801018f4 <USDHC_SetCardActive+0x36>
801018f2:	bf00      	nop
801018f4:	683b      	ldr	r3, [r7, #0]
801018f6:	2b00      	cmp	r3, #0
801018f8:	bf14      	ite	ne
801018fa:	2301      	movne	r3, #1
801018fc:	2300      	moveq	r3, #0
801018fe:	b2db      	uxtb	r3, r3
80101900:	4618      	mov	r0, r3
80101902:	370c      	adds	r7, #12
80101904:	46bd      	mov	sp, r7
80101906:	f85d 7b04 	ldr.w	r7, [sp], #4
8010190a:	4770      	bx	lr

8010190c <USDHC_GetResponse>:
8010190c:	b480      	push	{r7}
8010190e:	b083      	sub	sp, #12
80101910:	af00      	add	r7, sp, #0
80101912:	6078      	str	r0, [r7, #4]
80101914:	6039      	str	r1, [r7, #0]
80101916:	683b      	ldr	r3, [r7, #0]
80101918:	330c      	adds	r3, #12
8010191a:	687a      	ldr	r2, [r7, #4]
8010191c:	69d2      	ldr	r2, [r2, #28]
8010191e:	0211      	lsls	r1, r2, #8
80101920:	687a      	ldr	r2, [r7, #4]
80101922:	6992      	ldr	r2, [r2, #24]
80101924:	0e12      	lsrs	r2, r2, #24
80101926:	430a      	orrs	r2, r1
80101928:	601a      	str	r2, [r3, #0]
8010192a:	683b      	ldr	r3, [r7, #0]
8010192c:	3308      	adds	r3, #8
8010192e:	687a      	ldr	r2, [r7, #4]
80101930:	6992      	ldr	r2, [r2, #24]
80101932:	0211      	lsls	r1, r2, #8
80101934:	687a      	ldr	r2, [r7, #4]
80101936:	6952      	ldr	r2, [r2, #20]
80101938:	0e12      	lsrs	r2, r2, #24
8010193a:	430a      	orrs	r2, r1
8010193c:	601a      	str	r2, [r3, #0]
8010193e:	683b      	ldr	r3, [r7, #0]
80101940:	3304      	adds	r3, #4
80101942:	687a      	ldr	r2, [r7, #4]
80101944:	6952      	ldr	r2, [r2, #20]
80101946:	0211      	lsls	r1, r2, #8
80101948:	687a      	ldr	r2, [r7, #4]
8010194a:	6912      	ldr	r2, [r2, #16]
8010194c:	0e12      	lsrs	r2, r2, #24
8010194e:	430a      	orrs	r2, r1
80101950:	601a      	str	r2, [r3, #0]
80101952:	687b      	ldr	r3, [r7, #4]
80101954:	691b      	ldr	r3, [r3, #16]
80101956:	021a      	lsls	r2, r3, #8
80101958:	683b      	ldr	r3, [r7, #0]
8010195a:	601a      	str	r2, [r3, #0]
8010195c:	bf00      	nop
8010195e:	370c      	adds	r7, #12
80101960:	46bd      	mov	sp, r7
80101962:	f85d 7b04 	ldr.w	r7, [sp], #4
80101966:	4770      	bx	lr

80101968 <SD_DecodeCid>:
80101968:	b480      	push	{r7}
8010196a:	b085      	sub	sp, #20
8010196c:	af00      	add	r7, sp, #0
8010196e:	6078      	str	r0, [r7, #4]
80101970:	6039      	str	r1, [r7, #0]
80101972:	687b      	ldr	r3, [r7, #4]
80101974:	3340      	adds	r3, #64	; 0x40
80101976:	60fb      	str	r3, [r7, #12]
80101978:	683b      	ldr	r3, [r7, #0]
8010197a:	330c      	adds	r3, #12
8010197c:	681b      	ldr	r3, [r3, #0]
8010197e:	0e1b      	lsrs	r3, r3, #24
80101980:	b2da      	uxtb	r2, r3
80101982:	68fb      	ldr	r3, [r7, #12]
80101984:	701a      	strb	r2, [r3, #0]
80101986:	683b      	ldr	r3, [r7, #0]
80101988:	330c      	adds	r3, #12
8010198a:	681b      	ldr	r3, [r3, #0]
8010198c:	0a1b      	lsrs	r3, r3, #8
8010198e:	b29a      	uxth	r2, r3
80101990:	68fb      	ldr	r3, [r7, #12]
80101992:	805a      	strh	r2, [r3, #2]
80101994:	683b      	ldr	r3, [r7, #0]
80101996:	330c      	adds	r3, #12
80101998:	681b      	ldr	r3, [r3, #0]
8010199a:	b2da      	uxtb	r2, r3
8010199c:	68fb      	ldr	r3, [r7, #12]
8010199e:	711a      	strb	r2, [r3, #4]
801019a0:	683b      	ldr	r3, [r7, #0]
801019a2:	3308      	adds	r3, #8
801019a4:	681b      	ldr	r3, [r3, #0]
801019a6:	0e1b      	lsrs	r3, r3, #24
801019a8:	b2da      	uxtb	r2, r3
801019aa:	68fb      	ldr	r3, [r7, #12]
801019ac:	715a      	strb	r2, [r3, #5]
801019ae:	683b      	ldr	r3, [r7, #0]
801019b0:	3308      	adds	r3, #8
801019b2:	681b      	ldr	r3, [r3, #0]
801019b4:	0c1b      	lsrs	r3, r3, #16
801019b6:	b2da      	uxtb	r2, r3
801019b8:	68fb      	ldr	r3, [r7, #12]
801019ba:	719a      	strb	r2, [r3, #6]
801019bc:	683b      	ldr	r3, [r7, #0]
801019be:	3308      	adds	r3, #8
801019c0:	681b      	ldr	r3, [r3, #0]
801019c2:	0a1b      	lsrs	r3, r3, #8
801019c4:	b2da      	uxtb	r2, r3
801019c6:	68fb      	ldr	r3, [r7, #12]
801019c8:	71da      	strb	r2, [r3, #7]
801019ca:	683b      	ldr	r3, [r7, #0]
801019cc:	3308      	adds	r3, #8
801019ce:	681b      	ldr	r3, [r3, #0]
801019d0:	b2da      	uxtb	r2, r3
801019d2:	68fb      	ldr	r3, [r7, #12]
801019d4:	721a      	strb	r2, [r3, #8]
801019d6:	683b      	ldr	r3, [r7, #0]
801019d8:	3304      	adds	r3, #4
801019da:	681b      	ldr	r3, [r3, #0]
801019dc:	0e1b      	lsrs	r3, r3, #24
801019de:	b2da      	uxtb	r2, r3
801019e0:	68fb      	ldr	r3, [r7, #12]
801019e2:	725a      	strb	r2, [r3, #9]
801019e4:	683b      	ldr	r3, [r7, #0]
801019e6:	3304      	adds	r3, #4
801019e8:	681b      	ldr	r3, [r3, #0]
801019ea:	021a      	lsls	r2, r3, #8
801019ec:	68fb      	ldr	r3, [r7, #12]
801019ee:	60da      	str	r2, [r3, #12]
801019f0:	68fb      	ldr	r3, [r7, #12]
801019f2:	68da      	ldr	r2, [r3, #12]
801019f4:	683b      	ldr	r3, [r7, #0]
801019f6:	681b      	ldr	r3, [r3, #0]
801019f8:	0e1b      	lsrs	r3, r3, #24
801019fa:	431a      	orrs	r2, r3
801019fc:	68fb      	ldr	r3, [r7, #12]
801019fe:	60da      	str	r2, [r3, #12]
80101a00:	683b      	ldr	r3, [r7, #0]
80101a02:	681b      	ldr	r3, [r3, #0]
80101a04:	0a1b      	lsrs	r3, r3, #8
80101a06:	b29b      	uxth	r3, r3
80101a08:	f3c3 030b 	ubfx	r3, r3, #0, #12
80101a0c:	b29a      	uxth	r2, r3
80101a0e:	68fb      	ldr	r3, [r7, #12]
80101a10:	821a      	strh	r2, [r3, #16]
80101a12:	bf00      	nop
80101a14:	3714      	adds	r7, #20
80101a16:	46bd      	mov	sp, r7
80101a18:	f85d 7b04 	ldr.w	r7, [sp], #4
80101a1c:	4770      	bx	lr

80101a1e <SD_DecodeCsd>:
80101a1e:	b590      	push	{r4, r7, lr}
80101a20:	b085      	sub	sp, #20
80101a22:	af00      	add	r7, sp, #0
80101a24:	6078      	str	r0, [r7, #4]
80101a26:	6039      	str	r1, [r7, #0]
80101a28:	687b      	ldr	r3, [r7, #4]
80101a2a:	3354      	adds	r3, #84	; 0x54
80101a2c:	60fb      	str	r3, [r7, #12]
80101a2e:	683b      	ldr	r3, [r7, #0]
80101a30:	330c      	adds	r3, #12
80101a32:	681b      	ldr	r3, [r3, #0]
80101a34:	0f9b      	lsrs	r3, r3, #30
80101a36:	b2da      	uxtb	r2, r3
80101a38:	68fb      	ldr	r3, [r7, #12]
80101a3a:	701a      	strb	r2, [r3, #0]
80101a3c:	683b      	ldr	r3, [r7, #0]
80101a3e:	330c      	adds	r3, #12
80101a40:	681b      	ldr	r3, [r3, #0]
80101a42:	0c1b      	lsrs	r3, r3, #16
80101a44:	b2da      	uxtb	r2, r3
80101a46:	68fb      	ldr	r3, [r7, #12]
80101a48:	705a      	strb	r2, [r3, #1]
80101a4a:	683b      	ldr	r3, [r7, #0]
80101a4c:	330c      	adds	r3, #12
80101a4e:	681b      	ldr	r3, [r3, #0]
80101a50:	0a1b      	lsrs	r3, r3, #8
80101a52:	b2da      	uxtb	r2, r3
80101a54:	68fb      	ldr	r3, [r7, #12]
80101a56:	709a      	strb	r2, [r3, #2]
80101a58:	683b      	ldr	r3, [r7, #0]
80101a5a:	330c      	adds	r3, #12
80101a5c:	681b      	ldr	r3, [r3, #0]
80101a5e:	b2da      	uxtb	r2, r3
80101a60:	68fb      	ldr	r3, [r7, #12]
80101a62:	70da      	strb	r2, [r3, #3]
80101a64:	683b      	ldr	r3, [r7, #0]
80101a66:	3308      	adds	r3, #8
80101a68:	681b      	ldr	r3, [r3, #0]
80101a6a:	0d1b      	lsrs	r3, r3, #20
80101a6c:	b29a      	uxth	r2, r3
80101a6e:	68fb      	ldr	r3, [r7, #12]
80101a70:	809a      	strh	r2, [r3, #4]
80101a72:	683b      	ldr	r3, [r7, #0]
80101a74:	3308      	adds	r3, #8
80101a76:	681b      	ldr	r3, [r3, #0]
80101a78:	0c1b      	lsrs	r3, r3, #16
80101a7a:	b2db      	uxtb	r3, r3
80101a7c:	f003 030f 	and.w	r3, r3, #15
80101a80:	b2da      	uxtb	r2, r3
80101a82:	68fb      	ldr	r3, [r7, #12]
80101a84:	719a      	strb	r2, [r3, #6]
80101a86:	683b      	ldr	r3, [r7, #0]
80101a88:	3308      	adds	r3, #8
80101a8a:	681b      	ldr	r3, [r3, #0]
80101a8c:	f403 4300 	and.w	r3, r3, #32768	; 0x8000
80101a90:	2b00      	cmp	r3, #0
80101a92:	d006      	beq.n	80101aa2 <SD_DecodeCsd+0x84>
80101a94:	68fb      	ldr	r3, [r7, #12]
80101a96:	891b      	ldrh	r3, [r3, #8]
80101a98:	f043 0301 	orr.w	r3, r3, #1
80101a9c:	b29a      	uxth	r2, r3
80101a9e:	68fb      	ldr	r3, [r7, #12]
80101aa0:	811a      	strh	r2, [r3, #8]
80101aa2:	683b      	ldr	r3, [r7, #0]
80101aa4:	3308      	adds	r3, #8
80101aa6:	681b      	ldr	r3, [r3, #0]
80101aa8:	f403 4380 	and.w	r3, r3, #16384	; 0x4000
80101aac:	2b00      	cmp	r3, #0
80101aae:	d006      	beq.n	80101abe <SD_DecodeCsd+0xa0>
80101ab0:	68fb      	ldr	r3, [r7, #12]
80101ab2:	891b      	ldrh	r3, [r3, #8]
80101ab4:	f043 0301 	orr.w	r3, r3, #1
80101ab8:	b29a      	uxth	r2, r3
80101aba:	68fb      	ldr	r3, [r7, #12]
80101abc:	811a      	strh	r2, [r3, #8]
80101abe:	683b      	ldr	r3, [r7, #0]
80101ac0:	3308      	adds	r3, #8
80101ac2:	681b      	ldr	r3, [r3, #0]
80101ac4:	f403 5300 	and.w	r3, r3, #8192	; 0x2000
80101ac8:	2b00      	cmp	r3, #0
80101aca:	d006      	beq.n	80101ada <SD_DecodeCsd+0xbc>
80101acc:	68fb      	ldr	r3, [r7, #12]
80101ace:	891b      	ldrh	r3, [r3, #8]
80101ad0:	f043 0304 	orr.w	r3, r3, #4
80101ad4:	b29a      	uxth	r2, r3
80101ad6:	68fb      	ldr	r3, [r7, #12]
80101ad8:	811a      	strh	r2, [r3, #8]
80101ada:	683b      	ldr	r3, [r7, #0]
80101adc:	3308      	adds	r3, #8
80101ade:	681b      	ldr	r3, [r3, #0]
80101ae0:	f403 5380 	and.w	r3, r3, #4096	; 0x1000
80101ae4:	2b00      	cmp	r3, #0
80101ae6:	d006      	beq.n	80101af6 <SD_DecodeCsd+0xd8>
80101ae8:	68fb      	ldr	r3, [r7, #12]
80101aea:	891b      	ldrh	r3, [r3, #8]
80101aec:	f043 0308 	orr.w	r3, r3, #8
80101af0:	b29a      	uxth	r2, r3
80101af2:	68fb      	ldr	r3, [r7, #12]
80101af4:	811a      	strh	r2, [r3, #8]
80101af6:	68fb      	ldr	r3, [r7, #12]
80101af8:	781b      	ldrb	r3, [r3, #0]
80101afa:	2b00      	cmp	r3, #0
80101afc:	d003      	beq.n	80101b06 <SD_DecodeCsd+0xe8>
80101afe:	2b01      	cmp	r3, #1
80101b00:	f000 8085 	beq.w	80101c0e <SD_DecodeCsd+0x1f0>
80101b04:	e0ac      	b.n	80101c60 <SD_DecodeCsd+0x242>
80101b06:	683b      	ldr	r3, [r7, #0]
80101b08:	3308      	adds	r3, #8
80101b0a:	681b      	ldr	r3, [r3, #0]
80101b0c:	009a      	lsls	r2, r3, #2
80101b0e:	f640 73fc 	movw	r3, #4092	; 0xffc
80101b12:	4013      	ands	r3, r2
80101b14:	68fa      	ldr	r2, [r7, #12]
80101b16:	60d3      	str	r3, [r2, #12]
80101b18:	68fb      	ldr	r3, [r7, #12]
80101b1a:	68da      	ldr	r2, [r3, #12]
80101b1c:	683b      	ldr	r3, [r7, #0]
80101b1e:	3304      	adds	r3, #4
80101b20:	681b      	ldr	r3, [r3, #0]
80101b22:	0f9b      	lsrs	r3, r3, #30
80101b24:	431a      	orrs	r2, r3
80101b26:	68fb      	ldr	r3, [r7, #12]
80101b28:	60da      	str	r2, [r3, #12]
80101b2a:	683b      	ldr	r3, [r7, #0]
80101b2c:	3304      	adds	r3, #4
80101b2e:	681b      	ldr	r3, [r3, #0]
80101b30:	0edb      	lsrs	r3, r3, #27
80101b32:	b2db      	uxtb	r3, r3
80101b34:	f003 0307 	and.w	r3, r3, #7
80101b38:	b2da      	uxtb	r2, r3
80101b3a:	68fb      	ldr	r3, [r7, #12]
80101b3c:	741a      	strb	r2, [r3, #16]
80101b3e:	683b      	ldr	r3, [r7, #0]
80101b40:	3304      	adds	r3, #4
80101b42:	681b      	ldr	r3, [r3, #0]
80101b44:	0e1b      	lsrs	r3, r3, #24
80101b46:	b2db      	uxtb	r3, r3
80101b48:	f003 0307 	and.w	r3, r3, #7
80101b4c:	b2da      	uxtb	r2, r3
80101b4e:	68fb      	ldr	r3, [r7, #12]
80101b50:	745a      	strb	r2, [r3, #17]
80101b52:	683b      	ldr	r3, [r7, #0]
80101b54:	3304      	adds	r3, #4
80101b56:	681b      	ldr	r3, [r3, #0]
80101b58:	0d1b      	lsrs	r3, r3, #20
80101b5a:	b2db      	uxtb	r3, r3
80101b5c:	f003 030e 	and.w	r3, r3, #14
80101b60:	b2da      	uxtb	r2, r3
80101b62:	68fb      	ldr	r3, [r7, #12]
80101b64:	749a      	strb	r2, [r3, #18]
80101b66:	683b      	ldr	r3, [r7, #0]
80101b68:	3304      	adds	r3, #4
80101b6a:	681b      	ldr	r3, [r3, #0]
80101b6c:	0c9b      	lsrs	r3, r3, #18
80101b6e:	b2db      	uxtb	r3, r3
80101b70:	f003 0307 	and.w	r3, r3, #7
80101b74:	b2da      	uxtb	r2, r3
80101b76:	68fb      	ldr	r3, [r7, #12]
80101b78:	74da      	strb	r2, [r3, #19]
80101b7a:	683b      	ldr	r3, [r7, #0]
80101b7c:	3304      	adds	r3, #4
80101b7e:	681b      	ldr	r3, [r3, #0]
80101b80:	0bdb      	lsrs	r3, r3, #15
80101b82:	b2db      	uxtb	r3, r3
80101b84:	f003 0307 	and.w	r3, r3, #7
80101b88:	b2da      	uxtb	r2, r3
80101b8a:	68fb      	ldr	r3, [r7, #12]
80101b8c:	751a      	strb	r2, [r3, #20]
80101b8e:	68fb      	ldr	r3, [r7, #12]
80101b90:	68db      	ldr	r3, [r3, #12]
80101b92:	1c5a      	adds	r2, r3, #1
80101b94:	68fb      	ldr	r3, [r7, #12]
80101b96:	7d1b      	ldrb	r3, [r3, #20]
80101b98:	3302      	adds	r3, #2
80101b9a:	409a      	lsls	r2, r3
80101b9c:	687b      	ldr	r3, [r7, #4]
80101b9e:	67da      	str	r2, [r3, #124]	; 0x7c
80101ba0:	68fb      	ldr	r3, [r7, #12]
80101ba2:	799b      	ldrb	r3, [r3, #6]
80101ba4:	461a      	mov	r2, r3
80101ba6:	2301      	movs	r3, #1
80101ba8:	fa03 f202 	lsl.w	r2, r3, r2
80101bac:	687b      	ldr	r3, [r7, #4]
80101bae:	f8c3 2080 	str.w	r2, [r3, #128]	; 0x80
80101bb2:	687b      	ldr	r3, [r7, #4]
80101bb4:	f8d3 3080 	ldr.w	r3, [r3, #128]	; 0x80
80101bb8:	f5b3 7f00 	cmp.w	r3, #512	; 0x200
80101bbc:	d01a      	beq.n	80101bf4 <SD_DecodeCsd+0x1d6>
80101bbe:	687b      	ldr	r3, [r7, #4]
80101bc0:	6fdb      	ldr	r3, [r3, #124]	; 0x7c
80101bc2:	687a      	ldr	r2, [r7, #4]
80101bc4:	f8d2 2080 	ldr.w	r2, [r2, #128]	; 0x80
80101bc8:	fb02 f203 	mul.w	r2, r2, r3
80101bcc:	687b      	ldr	r3, [r7, #4]
80101bce:	67da      	str	r2, [r3, #124]	; 0x7c
80101bd0:	687b      	ldr	r3, [r7, #4]
80101bd2:	f44f 7200 	mov.w	r2, #512	; 0x200
80101bd6:	f8c3 2080 	str.w	r2, [r3, #128]	; 0x80
80101bda:	687b      	ldr	r3, [r7, #4]
80101bdc:	6fda      	ldr	r2, [r3, #124]	; 0x7c
80101bde:	687b      	ldr	r3, [r7, #4]
80101be0:	f8d3 3080 	ldr.w	r3, [r3, #128]	; 0x80
80101be4:	4619      	mov	r1, r3
80101be6:	4610      	mov	r0, r2
80101be8:	f000 fb96 	bl	80102318 <__aeabi_uidiv>
80101bec:	4603      	mov	r3, r0
80101bee:	461a      	mov	r2, r3
80101bf0:	687b      	ldr	r3, [r7, #4]
80101bf2:	67da      	str	r2, [r3, #124]	; 0x7c
80101bf4:	687b      	ldr	r3, [r7, #4]
80101bf6:	6fdb      	ldr	r3, [r3, #124]	; 0x7c
80101bf8:	687a      	ldr	r2, [r7, #4]
80101bfa:	f8d2 2080 	ldr.w	r2, [r2, #128]	; 0x80
80101bfe:	fb02 f303 	mul.w	r3, r2, r3
80101c02:	f04f 0400 	mov.w	r4, #0
80101c06:	687a      	ldr	r2, [r7, #4]
80101c08:	e9c2 3422 	strd	r3, r4, [r2, #136]	; 0x88
80101c0c:	e028      	b.n	80101c60 <SD_DecodeCsd+0x242>
80101c0e:	687b      	ldr	r3, [r7, #4]
80101c10:	f44f 7200 	mov.w	r2, #512	; 0x200
80101c14:	f8c3 2080 	str.w	r2, [r3, #128]	; 0x80
80101c18:	683b      	ldr	r3, [r7, #0]
80101c1a:	3308      	adds	r3, #8
80101c1c:	681b      	ldr	r3, [r3, #0]
80101c1e:	041b      	lsls	r3, r3, #16
80101c20:	f403 127c 	and.w	r2, r3, #4128768	; 0x3f0000
80101c24:	68fb      	ldr	r3, [r7, #12]
80101c26:	60da      	str	r2, [r3, #12]
80101c28:	68fb      	ldr	r3, [r7, #12]
80101c2a:	68da      	ldr	r2, [r3, #12]
80101c2c:	683b      	ldr	r3, [r7, #0]
80101c2e:	3304      	adds	r3, #4
80101c30:	681b      	ldr	r3, [r3, #0]
80101c32:	0c1b      	lsrs	r3, r3, #16
80101c34:	431a      	orrs	r2, r3
80101c36:	68fb      	ldr	r3, [r7, #12]
80101c38:	60da      	str	r2, [r3, #12]
80101c3a:	68fb      	ldr	r3, [r7, #12]
80101c3c:	68db      	ldr	r3, [r3, #12]
80101c3e:	3301      	adds	r3, #1
80101c40:	029a      	lsls	r2, r3, #10
80101c42:	687b      	ldr	r3, [r7, #4]
80101c44:	67da      	str	r2, [r3, #124]	; 0x7c
80101c46:	687b      	ldr	r3, [r7, #4]
80101c48:	f8d3 3080 	ldr.w	r3, [r3, #128]	; 0x80
80101c4c:	687a      	ldr	r2, [r7, #4]
80101c4e:	6fd2      	ldr	r2, [r2, #124]	; 0x7c
80101c50:	fb02 f303 	mul.w	r3, r2, r3
80101c54:	f04f 0400 	mov.w	r4, #0
80101c58:	687a      	ldr	r2, [r7, #4]
80101c5a:	e9c2 3422 	strd	r3, r4, [r2, #136]	; 0x88
80101c5e:	bf00      	nop
80101c60:	683b      	ldr	r3, [r7, #0]
80101c62:	3304      	adds	r3, #4
80101c64:	681b      	ldr	r3, [r3, #0]
80101c66:	0b9b      	lsrs	r3, r3, #14
80101c68:	b2db      	uxtb	r3, r3
80101c6a:	f003 0301 	and.w	r3, r3, #1
80101c6e:	b2db      	uxtb	r3, r3
80101c70:	2b00      	cmp	r3, #0
80101c72:	d006      	beq.n	80101c82 <SD_DecodeCsd+0x264>
80101c74:	68fb      	ldr	r3, [r7, #12]
80101c76:	891b      	ldrh	r3, [r3, #8]
80101c78:	f043 0310 	orr.w	r3, r3, #16
80101c7c:	b29a      	uxth	r2, r3
80101c7e:	68fb      	ldr	r3, [r7, #12]
80101c80:	811a      	strh	r2, [r3, #8]
80101c82:	683b      	ldr	r3, [r7, #0]
80101c84:	3304      	adds	r3, #4
80101c86:	681b      	ldr	r3, [r3, #0]
80101c88:	09db      	lsrs	r3, r3, #7
80101c8a:	b2db      	uxtb	r3, r3
80101c8c:	f003 037f 	and.w	r3, r3, #127	; 0x7f
80101c90:	b2da      	uxtb	r2, r3
80101c92:	68fb      	ldr	r3, [r7, #12]
80101c94:	755a      	strb	r2, [r3, #21]
80101c96:	683b      	ldr	r3, [r7, #0]
80101c98:	3304      	adds	r3, #4
80101c9a:	681b      	ldr	r3, [r3, #0]
80101c9c:	b2db      	uxtb	r3, r3
80101c9e:	f003 037f 	and.w	r3, r3, #127	; 0x7f
80101ca2:	b2da      	uxtb	r2, r3
80101ca4:	68fb      	ldr	r3, [r7, #12]
80101ca6:	759a      	strb	r2, [r3, #22]
80101ca8:	683b      	ldr	r3, [r7, #0]
80101caa:	681b      	ldr	r3, [r3, #0]
80101cac:	0e9b      	lsrs	r3, r3, #26
80101cae:	b2db      	uxtb	r3, r3
80101cb0:	f003 0307 	and.w	r3, r3, #7
80101cb4:	b2da      	uxtb	r2, r3
80101cb6:	68fb      	ldr	r3, [r7, #12]
80101cb8:	75da      	strb	r2, [r3, #23]
80101cba:	683b      	ldr	r3, [r7, #0]
80101cbc:	681b      	ldr	r3, [r3, #0]
80101cbe:	0d9b      	lsrs	r3, r3, #22
80101cc0:	b2db      	uxtb	r3, r3
80101cc2:	f003 030f 	and.w	r3, r3, #15
80101cc6:	b2da      	uxtb	r2, r3
80101cc8:	68fb      	ldr	r3, [r7, #12]
80101cca:	761a      	strb	r2, [r3, #24]
80101ccc:	683b      	ldr	r3, [r7, #0]
80101cce:	681b      	ldr	r3, [r3, #0]
80101cd0:	0d5b      	lsrs	r3, r3, #21
80101cd2:	b2db      	uxtb	r3, r3
80101cd4:	f003 0301 	and.w	r3, r3, #1
80101cd8:	b2db      	uxtb	r3, r3
80101cda:	2b00      	cmp	r3, #0
80101cdc:	d006      	beq.n	80101cec <SD_DecodeCsd+0x2ce>
80101cde:	68fb      	ldr	r3, [r7, #12]
80101ce0:	891b      	ldrh	r3, [r3, #8]
80101ce2:	f043 0340 	orr.w	r3, r3, #64	; 0x40
80101ce6:	b29a      	uxth	r2, r3
80101ce8:	68fb      	ldr	r3, [r7, #12]
80101cea:	811a      	strh	r2, [r3, #8]
80101cec:	683b      	ldr	r3, [r7, #0]
80101cee:	681b      	ldr	r3, [r3, #0]
80101cf0:	0bdb      	lsrs	r3, r3, #15
80101cf2:	b2db      	uxtb	r3, r3
80101cf4:	f003 0301 	and.w	r3, r3, #1
80101cf8:	b2db      	uxtb	r3, r3
80101cfa:	2b00      	cmp	r3, #0
80101cfc:	d006      	beq.n	80101d0c <SD_DecodeCsd+0x2ee>
80101cfe:	68fb      	ldr	r3, [r7, #12]
80101d00:	891b      	ldrh	r3, [r3, #8]
80101d02:	f043 0380 	orr.w	r3, r3, #128	; 0x80
80101d06:	b29a      	uxth	r2, r3
80101d08:	68fb      	ldr	r3, [r7, #12]
80101d0a:	811a      	strh	r2, [r3, #8]
80101d0c:	683b      	ldr	r3, [r7, #0]
80101d0e:	681b      	ldr	r3, [r3, #0]
80101d10:	0b9b      	lsrs	r3, r3, #14
80101d12:	b2db      	uxtb	r3, r3
80101d14:	f003 0301 	and.w	r3, r3, #1
80101d18:	b2db      	uxtb	r3, r3
80101d1a:	2b00      	cmp	r3, #0
80101d1c:	d006      	beq.n	80101d2c <SD_DecodeCsd+0x30e>
80101d1e:	68fb      	ldr	r3, [r7, #12]
80101d20:	891b      	ldrh	r3, [r3, #8]
80101d22:	f443 7380 	orr.w	r3, r3, #256	; 0x100
80101d26:	b29a      	uxth	r2, r3
80101d28:	68fb      	ldr	r3, [r7, #12]
80101d2a:	811a      	strh	r2, [r3, #8]
80101d2c:	683b      	ldr	r3, [r7, #0]
80101d2e:	681b      	ldr	r3, [r3, #0]
80101d30:	0b5b      	lsrs	r3, r3, #13
80101d32:	b2db      	uxtb	r3, r3
80101d34:	f003 0301 	and.w	r3, r3, #1
80101d38:	b2db      	uxtb	r3, r3
80101d3a:	2b00      	cmp	r3, #0
80101d3c:	d006      	beq.n	80101d4c <SD_DecodeCsd+0x32e>
80101d3e:	68fb      	ldr	r3, [r7, #12]
80101d40:	891b      	ldrh	r3, [r3, #8]
80101d42:	f443 7300 	orr.w	r3, r3, #512	; 0x200
80101d46:	b29a      	uxth	r2, r3
80101d48:	68fb      	ldr	r3, [r7, #12]
80101d4a:	811a      	strh	r2, [r3, #8]
80101d4c:	683b      	ldr	r3, [r7, #0]
80101d4e:	681b      	ldr	r3, [r3, #0]
80101d50:	0b1b      	lsrs	r3, r3, #12
80101d52:	b2db      	uxtb	r3, r3
80101d54:	f003 0301 	and.w	r3, r3, #1
80101d58:	b2db      	uxtb	r3, r3
80101d5a:	2b00      	cmp	r3, #0
80101d5c:	d006      	beq.n	80101d6c <SD_DecodeCsd+0x34e>
80101d5e:	68fb      	ldr	r3, [r7, #12]
80101d60:	891b      	ldrh	r3, [r3, #8]
80101d62:	f443 6380 	orr.w	r3, r3, #1024	; 0x400
80101d66:	b29a      	uxth	r2, r3
80101d68:	68fb      	ldr	r3, [r7, #12]
80101d6a:	811a      	strh	r2, [r3, #8]
80101d6c:	683b      	ldr	r3, [r7, #0]
80101d6e:	681b      	ldr	r3, [r3, #0]
80101d70:	0a9b      	lsrs	r3, r3, #10
80101d72:	b2db      	uxtb	r3, r3
80101d74:	f003 0303 	and.w	r3, r3, #3
80101d78:	b2da      	uxtb	r2, r3
80101d7a:	68fb      	ldr	r3, [r7, #12]
80101d7c:	765a      	strb	r2, [r3, #25]
80101d7e:	bf00      	nop
80101d80:	3714      	adds	r7, #20
80101d82:	46bd      	mov	sp, r7
80101d84:	bd90      	pop	{r4, r7, pc}

80101d86 <SD_DecodeScr>:
80101d86:	b480      	push	{r7}
80101d88:	b085      	sub	sp, #20
80101d8a:	af00      	add	r7, sp, #0
80101d8c:	6078      	str	r0, [r7, #4]
80101d8e:	6039      	str	r1, [r7, #0]
80101d90:	687b      	ldr	r3, [r7, #4]
80101d92:	3370      	adds	r3, #112	; 0x70
80101d94:	60fb      	str	r3, [r7, #12]
80101d96:	683b      	ldr	r3, [r7, #0]
80101d98:	681b      	ldr	r3, [r3, #0]
80101d9a:	0f1b      	lsrs	r3, r3, #28
80101d9c:	b2da      	uxtb	r2, r3
80101d9e:	68fb      	ldr	r3, [r7, #12]
80101da0:	701a      	strb	r2, [r3, #0]
80101da2:	683b      	ldr	r3, [r7, #0]
80101da4:	681b      	ldr	r3, [r3, #0]
80101da6:	0e1b      	lsrs	r3, r3, #24
80101da8:	b2db      	uxtb	r3, r3
80101daa:	f003 030f 	and.w	r3, r3, #15
80101dae:	b2da      	uxtb	r2, r3
80101db0:	68fb      	ldr	r3, [r7, #12]
80101db2:	705a      	strb	r2, [r3, #1]
80101db4:	683b      	ldr	r3, [r7, #0]
80101db6:	681b      	ldr	r3, [r3, #0]
80101db8:	0ddb      	lsrs	r3, r3, #23
80101dba:	b2db      	uxtb	r3, r3
80101dbc:	f003 0301 	and.w	r3, r3, #1
80101dc0:	b2db      	uxtb	r3, r3
80101dc2:	2b00      	cmp	r3, #0
80101dc4:	d006      	beq.n	80101dd4 <SD_DecodeScr+0x4e>
80101dc6:	68fb      	ldr	r3, [r7, #12]
80101dc8:	885b      	ldrh	r3, [r3, #2]
80101dca:	f043 0301 	orr.w	r3, r3, #1
80101dce:	b29a      	uxth	r2, r3
80101dd0:	68fb      	ldr	r3, [r7, #12]
80101dd2:	805a      	strh	r2, [r3, #2]
80101dd4:	683b      	ldr	r3, [r7, #0]
80101dd6:	681b      	ldr	r3, [r3, #0]
80101dd8:	0d1b      	lsrs	r3, r3, #20
80101dda:	b2db      	uxtb	r3, r3
80101ddc:	f003 0307 	and.w	r3, r3, #7
80101de0:	b2da      	uxtb	r2, r3
80101de2:	68fb      	ldr	r3, [r7, #12]
80101de4:	711a      	strb	r2, [r3, #4]
80101de6:	683b      	ldr	r3, [r7, #0]
80101de8:	681b      	ldr	r3, [r3, #0]
80101dea:	0c1b      	lsrs	r3, r3, #16
80101dec:	b2db      	uxtb	r3, r3
80101dee:	f003 030f 	and.w	r3, r3, #15
80101df2:	b2da      	uxtb	r2, r3
80101df4:	68fb      	ldr	r3, [r7, #12]
80101df6:	715a      	strb	r2, [r3, #5]
80101df8:	683b      	ldr	r3, [r7, #0]
80101dfa:	681b      	ldr	r3, [r3, #0]
80101dfc:	0bdb      	lsrs	r3, r3, #15
80101dfe:	b2db      	uxtb	r3, r3
80101e00:	f003 0301 	and.w	r3, r3, #1
80101e04:	b2db      	uxtb	r3, r3
80101e06:	2b00      	cmp	r3, #0
80101e08:	d006      	beq.n	80101e18 <SD_DecodeScr+0x92>
80101e0a:	68fb      	ldr	r3, [r7, #12]
80101e0c:	885b      	ldrh	r3, [r3, #2]
80101e0e:	f043 0302 	orr.w	r3, r3, #2
80101e12:	b29a      	uxth	r2, r3
80101e14:	68fb      	ldr	r3, [r7, #12]
80101e16:	805a      	strh	r2, [r3, #2]
80101e18:	683b      	ldr	r3, [r7, #0]
80101e1a:	681b      	ldr	r3, [r3, #0]
80101e1c:	0a9b      	lsrs	r3, r3, #10
80101e1e:	b2db      	uxtb	r3, r3
80101e20:	f003 031e 	and.w	r3, r3, #30
80101e24:	b2da      	uxtb	r2, r3
80101e26:	68fb      	ldr	r3, [r7, #12]
80101e28:	719a      	strb	r2, [r3, #6]
80101e2a:	683b      	ldr	r3, [r7, #0]
80101e2c:	681b      	ldr	r3, [r3, #0]
80101e2e:	b2db      	uxtb	r3, r3
80101e30:	f003 0303 	and.w	r3, r3, #3
80101e34:	b2da      	uxtb	r2, r3
80101e36:	68fb      	ldr	r3, [r7, #12]
80101e38:	71da      	strb	r2, [r3, #7]
80101e3a:	683b      	ldr	r3, [r7, #0]
80101e3c:	685a      	ldr	r2, [r3, #4]
80101e3e:	68fb      	ldr	r3, [r7, #12]
80101e40:	609a      	str	r2, [r3, #8]
80101e42:	68fb      	ldr	r3, [r7, #12]
80101e44:	785b      	ldrb	r3, [r3, #1]
80101e46:	2b01      	cmp	r3, #1
80101e48:	d008      	beq.n	80101e5c <SD_DecodeScr+0xd6>
80101e4a:	2b02      	cmp	r3, #2
80101e4c:	d00a      	beq.n	80101e64 <SD_DecodeScr+0xde>
80101e4e:	2b00      	cmp	r3, #0
80101e50:	d000      	beq.n	80101e54 <SD_DecodeScr+0xce>
80101e52:	e015      	b.n	80101e80 <SD_DecodeScr+0xfa>
80101e54:	687b      	ldr	r3, [r7, #4]
80101e56:	2201      	movs	r2, #1
80101e58:	60da      	str	r2, [r3, #12]
80101e5a:	e011      	b.n	80101e80 <SD_DecodeScr+0xfa>
80101e5c:	687b      	ldr	r3, [r7, #4]
80101e5e:	2202      	movs	r2, #2
80101e60:	60da      	str	r2, [r3, #12]
80101e62:	e00d      	b.n	80101e80 <SD_DecodeScr+0xfa>
80101e64:	687b      	ldr	r3, [r7, #4]
80101e66:	2204      	movs	r2, #4
80101e68:	60da      	str	r2, [r3, #12]
80101e6a:	687b      	ldr	r3, [r7, #4]
80101e6c:	f8b3 3072 	ldrh.w	r3, [r3, #114]	; 0x72
80101e70:	f003 0302 	and.w	r3, r3, #2
80101e74:	2b00      	cmp	r3, #0
80101e76:	d002      	beq.n	80101e7e <SD_DecodeScr+0xf8>
80101e78:	687b      	ldr	r3, [r7, #4]
80101e7a:	2208      	movs	r2, #8
80101e7c:	60da      	str	r2, [r3, #12]
80101e7e:	bf00      	nop
80101e80:	bf00      	nop
80101e82:	3714      	adds	r7, #20
80101e84:	46bd      	mov	sp, r7
80101e86:	f85d 7b04 	ldr.w	r7, [sp], #4
80101e8a:	4770      	bx	lr

80101e8c <sd_init>:
80101e8c:	b580      	push	{r7, lr}
80101e8e:	b08e      	sub	sp, #56	; 0x38
80101e90:	af02      	add	r7, sp, #8
80101e92:	6078      	str	r0, [r7, #4]
80101e94:	2300      	movs	r3, #0
80101e96:	627b      	str	r3, [r7, #36]	; 0x24
80101e98:	6878      	ldr	r0, [r7, #4]
80101e9a:	f7ff fbd4 	bl	80101646 <USDHC_Init>
80101e9e:	6878      	ldr	r0, [r7, #4]
80101ea0:	f7ff fc1b 	bl	801016da <CardInsertDetect>
80101ea4:	2100      	movs	r1, #0
80101ea6:	6878      	ldr	r0, [r7, #4]
80101ea8:	f7ff fc39 	bl	8010171e <USDHC_SetDataBusWidth>
80101eac:	f44f 52d4 	mov.w	r2, #6784	; 0x1a80
80101eb0:	f2c0 0206 	movt	r2, #6
80101eb4:	f44f 41f6 	mov.w	r1, #31488	; 0x7b00
80101eb8:	f2c1 719a 	movt	r1, #6042	; 0x179a
80101ebc:	6878      	ldr	r0, [r7, #4]
80101ebe:	f7ff fc44 	bl	8010174a <USDHC_SetSdClock>
80101ec2:	2164      	movs	r1, #100	; 0x64
80101ec4:	6878      	ldr	r0, [r7, #4]
80101ec6:	f7ff fcfa 	bl	801018be <USDHC_SetCardActive>
80101eca:	f642 30c4 	movw	r0, #11204	; 0x2bc4
80101ece:	f2c8 0010 	movt	r0, #32784	; 0x8010
80101ed2:	f7ff f804 	bl	80100ede <printf>
80101ed6:	2200      	movs	r2, #0
80101ed8:	2100      	movs	r1, #0
80101eda:	6878      	ldr	r0, [r7, #4]
80101edc:	f7ff fb24 	bl	80101528 <USDHC_SendCommand>
80101ee0:	62f8      	str	r0, [r7, #44]	; 0x2c
80101ee2:	6afb      	ldr	r3, [r7, #44]	; 0x2c
80101ee4:	2b00      	cmp	r3, #0
80101ee6:	da02      	bge.n	80101eee <sd_init+0x62>
80101ee8:	f04f 33ff 	mov.w	r3, #4294967295	; 0xffffffff
80101eec:	e1f9      	b.n	801022e2 <sd_init+0x456>
80101eee:	f642 30d0 	movw	r0, #11216	; 0x2bd0
80101ef2:	f2c8 0010 	movt	r0, #32784	; 0x8010
80101ef6:	f7fe fff2 	bl	80100ede <printf>
80101efa:	2300      	movs	r3, #0
80101efc:	62bb      	str	r3, [r7, #40]	; 0x28
80101efe:	e00d      	b.n	80101f1c <sd_init+0x90>
80101f00:	f44f 72d5 	mov.w	r2, #426	; 0x1aa
80101f04:	f640 011a 	movw	r1, #2074	; 0x81a
80101f08:	6878      	ldr	r0, [r7, #4]
80101f0a:	f7ff fb0d 	bl	80101528 <USDHC_SendCommand>
80101f0e:	62f8      	str	r0, [r7, #44]	; 0x2c
80101f10:	6afb      	ldr	r3, [r7, #44]	; 0x2c
80101f12:	2b00      	cmp	r3, #0
80101f14:	d006      	beq.n	80101f24 <sd_init+0x98>
80101f16:	6abb      	ldr	r3, [r7, #40]	; 0x28
80101f18:	3301      	adds	r3, #1
80101f1a:	62bb      	str	r3, [r7, #40]	; 0x28
80101f1c:	6abb      	ldr	r3, [r7, #40]	; 0x28
80101f1e:	2b09      	cmp	r3, #9
80101f20:	d9ee      	bls.n	80101f00 <sd_init+0x74>
80101f22:	e000      	b.n	80101f26 <sd_init+0x9a>
80101f24:	bf00      	nop
80101f26:	687b      	ldr	r3, [r7, #4]
80101f28:	691b      	ldr	r3, [r3, #16]
80101f2a:	4619      	mov	r1, r3
80101f2c:	f642 30d8 	movw	r0, #11224	; 0x2bd8
80101f30:	f2c8 0010 	movt	r0, #32784	; 0x8010
80101f34:	f7fe ffd3 	bl	80100ede <printf>
80101f38:	6afb      	ldr	r3, [r7, #44]	; 0x2c
80101f3a:	2b00      	cmp	r3, #0
80101f3c:	d104      	bne.n	80101f48 <sd_init+0xbc>
80101f3e:	6a7b      	ldr	r3, [r7, #36]	; 0x24
80101f40:	f043 4380 	orr.w	r3, r3, #1073741824	; 0x40000000
80101f44:	627b      	str	r3, [r7, #36]	; 0x24
80101f46:	e00b      	b.n	80101f60 <sd_init+0xd4>
80101f48:	2200      	movs	r2, #0
80101f4a:	2100      	movs	r1, #0
80101f4c:	6878      	ldr	r0, [r7, #4]
80101f4e:	f7ff faeb 	bl	80101528 <USDHC_SendCommand>
80101f52:	62f8      	str	r0, [r7, #44]	; 0x2c
80101f54:	6afb      	ldr	r3, [r7, #44]	; 0x2c
80101f56:	2b00      	cmp	r3, #0
80101f58:	d002      	beq.n	80101f60 <sd_init+0xd4>
80101f5a:	f04f 33ff 	mov.w	r3, #4294967295	; 0xffffffff
80101f5e:	e1c0      	b.n	801022e2 <sd_init+0x456>
80101f60:	6a7b      	ldr	r3, [r7, #36]	; 0x24
80101f62:	f443 1340 	orr.w	r3, r3, #3145728	; 0x300000
80101f66:	627b      	str	r3, [r7, #36]	; 0x24
80101f68:	2300      	movs	r3, #0
80101f6a:	62bb      	str	r3, [r7, #40]	; 0x28
80101f6c:	e041      	b.n	80101ff2 <sd_init+0x166>
80101f6e:	2200      	movs	r2, #0
80101f70:	f243 711a 	movw	r1, #14106	; 0x371a
80101f74:	6878      	ldr	r0, [r7, #4]
80101f76:	f7ff fad7 	bl	80101528 <USDHC_SendCommand>
80101f7a:	62f8      	str	r0, [r7, #44]	; 0x2c
80101f7c:	6afb      	ldr	r3, [r7, #44]	; 0x2c
80101f7e:	2b00      	cmp	r3, #0
80101f80:	da02      	bge.n	80101f88 <sd_init+0xfc>
80101f82:	f04f 33ff 	mov.w	r3, #4294967295	; 0xffffffff
80101f86:	e1ac      	b.n	801022e2 <sd_init+0x456>
80101f88:	6a7a      	ldr	r2, [r7, #36]	; 0x24
80101f8a:	f642 1102 	movw	r1, #10498	; 0x2902
80101f8e:	6878      	ldr	r0, [r7, #4]
80101f90:	f7ff faca 	bl	80101528 <USDHC_SendCommand>
80101f94:	62f8      	str	r0, [r7, #44]	; 0x2c
80101f96:	6afb      	ldr	r3, [r7, #44]	; 0x2c
80101f98:	2b00      	cmp	r3, #0
80101f9a:	da02      	bge.n	80101fa2 <sd_init+0x116>
80101f9c:	f04f 33ff 	mov.w	r3, #4294967295	; 0xffffffff
80101fa0:	e19f      	b.n	801022e2 <sd_init+0x456>
80101fa2:	687b      	ldr	r3, [r7, #4]
80101fa4:	691b      	ldr	r3, [r3, #16]
80101fa6:	2b00      	cmp	r3, #0
80101fa8:	d008      	beq.n	80101fbc <sd_init+0x130>
80101faa:	687b      	ldr	r3, [r7, #4]
80101fac:	691b      	ldr	r3, [r3, #16]
80101fae:	4619      	mov	r1, r3
80101fb0:	f642 30f4 	movw	r0, #11252	; 0x2bf4
80101fb4:	f2c8 0010 	movt	r0, #32784	; 0x8010
80101fb8:	f7fe ff91 	bl	80100ede <printf>
80101fbc:	687b      	ldr	r3, [r7, #4]
80101fbe:	691b      	ldr	r3, [r3, #16]
80101fc0:	2b00      	cmp	r3, #0
80101fc2:	da13      	bge.n	80101fec <sd_init+0x160>
80101fc4:	687b      	ldr	r3, [r7, #4]
80101fc6:	691a      	ldr	r2, [r3, #16]
80101fc8:	f243 4300 	movw	r3, #13312	; 0x3400
80101fcc:	f2c8 0310 	movt	r3, #32784	; 0x8010
80101fd0:	63da      	str	r2, [r3, #60]	; 0x3c
80101fd2:	f243 4300 	movw	r3, #13312	; 0x3400
80101fd6:	f2c8 0310 	movt	r3, #32784	; 0x8010
80101fda:	6bdb      	ldr	r3, [r3, #60]	; 0x3c
80101fdc:	4619      	mov	r1, r3
80101fde:	f642 4010 	movw	r0, #11280	; 0x2c10
80101fe2:	f2c8 0010 	movt	r0, #32784	; 0x8010
80101fe6:	f7fe ff7a 	bl	80100ede <printf>
80101fea:	e007      	b.n	80101ffc <sd_init+0x170>
80101fec:	6abb      	ldr	r3, [r7, #40]	; 0x28
80101fee:	3301      	adds	r3, #1
80101ff0:	62bb      	str	r3, [r7, #40]	; 0x28
80101ff2:	6abb      	ldr	r3, [r7, #40]	; 0x28
80101ff4:	f241 3287 	movw	r2, #4999	; 0x1387
80101ff8:	4293      	cmp	r3, r2
80101ffa:	d9b8      	bls.n	80101f6e <sd_init+0xe2>
80101ffc:	6abb      	ldr	r3, [r7, #40]	; 0x28
80101ffe:	f5b3 7f7a 	cmp.w	r3, #1000	; 0x3e8
80102002:	d308      	bcc.n	80102016 <sd_init+0x18a>
80102004:	f642 4020 	movw	r0, #11296	; 0x2c20
80102008:	f2c8 0010 	movt	r0, #32784	; 0x8010
8010200c:	f7fe ff67 	bl	80100ede <printf>
80102010:	f04f 33ff 	mov.w	r3, #4294967295	; 0xffffffff
80102014:	e165      	b.n	801022e2 <sd_init+0x456>
80102016:	f243 4300 	movw	r3, #13312	; 0x3400
8010201a:	f2c8 0310 	movt	r3, #32784	; 0x8010
8010201e:	6bdb      	ldr	r3, [r3, #60]	; 0x3c
80102020:	f003 7380 	and.w	r3, r3, #16777216	; 0x1000000
80102024:	2b00      	cmp	r3, #0
80102026:	d005      	beq.n	80102034 <sd_init+0x1a8>
80102028:	f642 4044 	movw	r0, #11332	; 0x2c44
8010202c:	f2c8 0010 	movt	r0, #32784	; 0x8010
80102030:	f7fe ff55 	bl	80100ede <printf>
80102034:	2200      	movs	r2, #0
80102036:	f240 2109 	movw	r1, #521	; 0x209
8010203a:	6878      	ldr	r0, [r7, #4]
8010203c:	f7ff fa74 	bl	80101528 <USDHC_SendCommand>
80102040:	62f8      	str	r0, [r7, #44]	; 0x2c
80102042:	6afb      	ldr	r3, [r7, #44]	; 0x2c
80102044:	2b00      	cmp	r3, #0
80102046:	da02      	bge.n	8010204e <sd_init+0x1c2>
80102048:	f04f 33ff 	mov.w	r3, #4294967295	; 0xffffffff
8010204c:	e149      	b.n	801022e2 <sd_init+0x456>
8010204e:	f107 0314 	add.w	r3, r7, #20
80102052:	4619      	mov	r1, r3
80102054:	6878      	ldr	r0, [r7, #4]
80102056:	f7ff fc59 	bl	8010190c <USDHC_GetResponse>
8010205a:	f107 0314 	add.w	r3, r7, #20
8010205e:	2210      	movs	r2, #16
80102060:	4619      	mov	r1, r3
80102062:	48a2      	ldr	r0, [pc, #648]	; (801022ec <sd_init+0x460>)
80102064:	f7fe ffcc 	bl	80101000 <memcpy>
80102068:	49a0      	ldr	r1, [pc, #640]	; (801022ec <sd_init+0x460>)
8010206a:	f243 4000 	movw	r0, #13312	; 0x3400
8010206e:	f2c8 0010 	movt	r0, #32784	; 0x8010
80102072:	f7ff fc79 	bl	80101968 <SD_DecodeCid>
80102076:	2200      	movs	r2, #0
80102078:	f240 311a 	movw	r1, #794	; 0x31a
8010207c:	6878      	ldr	r0, [r7, #4]
8010207e:	f7ff fa53 	bl	80101528 <USDHC_SendCommand>
80102082:	62f8      	str	r0, [r7, #44]	; 0x2c
80102084:	6afb      	ldr	r3, [r7, #44]	; 0x2c
80102086:	2b00      	cmp	r3, #0
80102088:	da02      	bge.n	80102090 <sd_init+0x204>
8010208a:	f04f 33ff 	mov.w	r3, #4294967295	; 0xffffffff
8010208e:	e128      	b.n	801022e2 <sd_init+0x456>
80102090:	687b      	ldr	r3, [r7, #4]
80102092:	691b      	ldr	r3, [r3, #16]
80102094:	0c1a      	lsrs	r2, r3, #16
80102096:	f243 4300 	movw	r3, #13312	; 0x3400
8010209a:	f2c8 0310 	movt	r3, #32784	; 0x8010
8010209e:	609a      	str	r2, [r3, #8]
801020a0:	f243 4300 	movw	r3, #13312	; 0x3400
801020a4:	f2c8 0310 	movt	r3, #32784	; 0x8010
801020a8:	689b      	ldr	r3, [r3, #8]
801020aa:	4619      	mov	r1, r3
801020ac:	f642 4054 	movw	r0, #11348	; 0x2c54
801020b0:	f2c8 0010 	movt	r0, #32784	; 0x8010
801020b4:	f7fe ff13 	bl	80100ede <printf>
801020b8:	f243 4300 	movw	r3, #13312	; 0x3400
801020bc:	f2c8 0310 	movt	r3, #32784	; 0x8010
801020c0:	689b      	ldr	r3, [r3, #8]
801020c2:	041b      	lsls	r3, r3, #16
801020c4:	461a      	mov	r2, r3
801020c6:	f640 1109 	movw	r1, #2313	; 0x909
801020ca:	6878      	ldr	r0, [r7, #4]
801020cc:	f7ff fa2c 	bl	80101528 <USDHC_SendCommand>
801020d0:	62f8      	str	r0, [r7, #44]	; 0x2c
801020d2:	6afb      	ldr	r3, [r7, #44]	; 0x2c
801020d4:	2b00      	cmp	r3, #0
801020d6:	da02      	bge.n	801020de <sd_init+0x252>
801020d8:	f04f 33ff 	mov.w	r3, #4294967295	; 0xffffffff
801020dc:	e101      	b.n	801022e2 <sd_init+0x456>
801020de:	f107 0314 	add.w	r3, r7, #20
801020e2:	4619      	mov	r1, r3
801020e4:	6878      	ldr	r0, [r7, #4]
801020e6:	f7ff fc11 	bl	8010190c <USDHC_GetResponse>
801020ea:	f107 0314 	add.w	r3, r7, #20
801020ee:	2210      	movs	r2, #16
801020f0:	4619      	mov	r1, r3
801020f2:	487f      	ldr	r0, [pc, #508]	; (801022f0 <sd_init+0x464>)
801020f4:	f7fe ff84 	bl	80101000 <memcpy>
801020f8:	497d      	ldr	r1, [pc, #500]	; (801022f0 <sd_init+0x464>)
801020fa:	f243 4000 	movw	r0, #13312	; 0x3400
801020fe:	f2c8 0010 	movt	r0, #32784	; 0x8010
80102102:	f7ff fc8c 	bl	80101a1e <SD_DecodeCsd>
80102106:	f243 4300 	movw	r3, #13312	; 0x3400
8010210a:	f2c8 0310 	movt	r3, #32784	; 0x8010
8010210e:	f893 3054 	ldrb.w	r3, [r3, #84]	; 0x54
80102112:	2b00      	cmp	r3, #0
80102114:	d004      	beq.n	80102120 <sd_init+0x294>
80102116:	f642 4370 	movw	r3, #11376	; 0x2c70
8010211a:	f2c8 0310 	movt	r3, #32784	; 0x8010
8010211e:	e003      	b.n	80102128 <sd_init+0x29c>
80102120:	f642 4378 	movw	r3, #11384	; 0x2c78
80102124:	f2c8 0310 	movt	r3, #32784	; 0x8010
80102128:	4619      	mov	r1, r3
8010212a:	f642 4084 	movw	r0, #11396	; 0x2c84
8010212e:	f2c8 0010 	movt	r0, #32784	; 0x8010
80102132:	f7fe fed4 	bl	80100ede <printf>
80102136:	f243 4300 	movw	r3, #13312	; 0x3400
8010213a:	f2c8 0310 	movt	r3, #32784	; 0x8010
8010213e:	6fdb      	ldr	r3, [r3, #124]	; 0x7c
80102140:	4619      	mov	r1, r3
80102142:	f642 4090 	movw	r0, #11408	; 0x2c90
80102146:	f2c8 0010 	movt	r0, #32784	; 0x8010
8010214a:	f7fe fec8 	bl	80100ede <printf>
8010214e:	f243 4300 	movw	r3, #13312	; 0x3400
80102152:	f2c8 0310 	movt	r3, #32784	; 0x8010
80102156:	f8d3 3080 	ldr.w	r3, [r3, #128]	; 0x80
8010215a:	4619      	mov	r1, r3
8010215c:	f642 40a8 	movw	r0, #11432	; 0x2ca8
80102160:	f2c8 0010 	movt	r0, #32784	; 0x8010
80102164:	f7fe febb 	bl	80100ede <printf>
80102168:	f243 4300 	movw	r3, #13312	; 0x3400
8010216c:	f2c8 0310 	movt	r3, #32784	; 0x8010
80102170:	f8b3 3058 	ldrh.w	r3, [r3, #88]	; 0x58
80102174:	4619      	mov	r1, r3
80102176:	f642 40c4 	movw	r0, #11460	; 0x2cc4
8010217a:	f2c8 0010 	movt	r0, #32784	; 0x8010
8010217e:	f7fe feae 	bl	80100ede <printf>
80102182:	f243 4300 	movw	r3, #13312	; 0x3400
80102186:	f2c8 0310 	movt	r3, #32784	; 0x8010
8010218a:	689b      	ldr	r3, [r3, #8]
8010218c:	041b      	lsls	r3, r3, #16
8010218e:	461a      	mov	r2, r3
80102190:	f240 711b 	movw	r1, #1819	; 0x71b
80102194:	6878      	ldr	r0, [r7, #4]
80102196:	f7ff f9c7 	bl	80101528 <USDHC_SendCommand>
8010219a:	62f8      	str	r0, [r7, #44]	; 0x2c
8010219c:	6afb      	ldr	r3, [r7, #44]	; 0x2c
8010219e:	2b00      	cmp	r3, #0
801021a0:	da01      	bge.n	801021a6 <sd_init+0x31a>
801021a2:	6afb      	ldr	r3, [r7, #44]	; 0x2c
801021a4:	e09d      	b.n	801022e2 <sd_init+0x456>
801021a6:	f243 4300 	movw	r3, #13312	; 0x3400
801021aa:	f2c8 0310 	movt	r3, #32784	; 0x8010
801021ae:	689b      	ldr	r3, [r3, #8]
801021b0:	041b      	lsls	r3, r3, #16
801021b2:	461a      	mov	r2, r3
801021b4:	f243 711a 	movw	r1, #14106	; 0x371a
801021b8:	6878      	ldr	r0, [r7, #4]
801021ba:	f7ff f9b5 	bl	80101528 <USDHC_SendCommand>
801021be:	62f8      	str	r0, [r7, #44]	; 0x2c
801021c0:	6afb      	ldr	r3, [r7, #44]	; 0x2c
801021c2:	2b00      	cmp	r3, #0
801021c4:	da01      	bge.n	801021ca <sd_init+0x33e>
801021c6:	6afb      	ldr	r3, [r7, #44]	; 0x2c
801021c8:	e08b      	b.n	801022e2 <sd_init+0x456>
801021ca:	6878      	ldr	r0, [r7, #4]
801021cc:	f7fe ff58 	bl	80101080 <USDHC_Dump_All>
801021d0:	f107 020c 	add.w	r2, r7, #12
801021d4:	2308      	movs	r3, #8
801021d6:	9300      	str	r3, [sp, #0]
801021d8:	4613      	mov	r3, r2
801021da:	2200      	movs	r2, #0
801021dc:	f243 313a 	movw	r1, #13114	; 0x333a
801021e0:	6878      	ldr	r0, [r7, #4]
801021e2:	f7ff f9bd 	bl	80101560 <USDHC_SendCommand_with_data>
801021e6:	62f8      	str	r0, [r7, #44]	; 0x2c
801021e8:	6afb      	ldr	r3, [r7, #44]	; 0x2c
801021ea:	2b00      	cmp	r3, #0
801021ec:	da01      	bge.n	801021f2 <sd_init+0x366>
801021ee:	6afb      	ldr	r3, [r7, #44]	; 0x2c
801021f0:	e077      	b.n	801022e2 <sd_init+0x456>
801021f2:	68fb      	ldr	r3, [r7, #12]
801021f4:	061a      	lsls	r2, r3, #24
801021f6:	68fb      	ldr	r3, [r7, #12]
801021f8:	021b      	lsls	r3, r3, #8
801021fa:	f403 037f 	and.w	r3, r3, #16711680	; 0xff0000
801021fe:	431a      	orrs	r2, r3
80102200:	68fb      	ldr	r3, [r7, #12]
80102202:	0a1b      	lsrs	r3, r3, #8
80102204:	f403 437f 	and.w	r3, r3, #65280	; 0xff00
80102208:	431a      	orrs	r2, r3
8010220a:	68fb      	ldr	r3, [r7, #12]
8010220c:	0e1b      	lsrs	r3, r3, #24
8010220e:	4313      	orrs	r3, r2
80102210:	60fb      	str	r3, [r7, #12]
80102212:	693b      	ldr	r3, [r7, #16]
80102214:	061a      	lsls	r2, r3, #24
80102216:	693b      	ldr	r3, [r7, #16]
80102218:	021b      	lsls	r3, r3, #8
8010221a:	f403 037f 	and.w	r3, r3, #16711680	; 0xff0000
8010221e:	431a      	orrs	r2, r3
80102220:	693b      	ldr	r3, [r7, #16]
80102222:	0a1b      	lsrs	r3, r3, #8
80102224:	f403 437f 	and.w	r3, r3, #65280	; 0xff00
80102228:	431a      	orrs	r2, r3
8010222a:	693b      	ldr	r3, [r7, #16]
8010222c:	0e1b      	lsrs	r3, r3, #24
8010222e:	4313      	orrs	r3, r2
80102230:	613b      	str	r3, [r7, #16]
80102232:	f107 030c 	add.w	r3, r7, #12
80102236:	2208      	movs	r2, #8
80102238:	4619      	mov	r1, r3
8010223a:	482e      	ldr	r0, [pc, #184]	; (801022f4 <sd_init+0x468>)
8010223c:	f7fe fee0 	bl	80101000 <memcpy>
80102240:	492c      	ldr	r1, [pc, #176]	; (801022f4 <sd_init+0x468>)
80102242:	f243 4000 	movw	r0, #13312	; 0x3400
80102246:	f2c8 0010 	movt	r0, #32784	; 0x8010
8010224a:	f7ff fd9c 	bl	80101d86 <SD_DecodeScr>
8010224e:	68fb      	ldr	r3, [r7, #12]
80102250:	693a      	ldr	r2, [r7, #16]
80102252:	4619      	mov	r1, r3
80102254:	f642 40e0 	movw	r0, #11488	; 0x2ce0
80102258:	f2c8 0010 	movt	r0, #32784	; 0x8010
8010225c:	f7fe fe3f 	bl	80100ede <printf>
80102260:	f243 4300 	movw	r3, #13312	; 0x3400
80102264:	f2c8 0310 	movt	r3, #32784	; 0x8010
80102268:	f893 3071 	ldrb.w	r3, [r3, #113]	; 0x71
8010226c:	4619      	mov	r1, r3
8010226e:	f642 5004 	movw	r0, #11524	; 0x2d04
80102272:	f2c8 0010 	movt	r0, #32784	; 0x8010
80102276:	f7fe fe32 	bl	80100ede <printf>
8010227a:	f243 4300 	movw	r3, #13312	; 0x3400
8010227e:	f2c8 0310 	movt	r3, #32784	; 0x8010
80102282:	f893 3075 	ldrb.w	r3, [r3, #117]	; 0x75
80102286:	f003 0304 	and.w	r3, r3, #4
8010228a:	2b00      	cmp	r3, #0
8010228c:	d108      	bne.n	801022a0 <sd_init+0x414>
8010228e:	f642 5020 	movw	r0, #11552	; 0x2d20
80102292:	f2c8 0010 	movt	r0, #32784	; 0x8010
80102296:	f7fe fe22 	bl	80100ede <printf>
8010229a:	f04f 33ff 	mov.w	r3, #4294967295	; 0xffffffff
8010229e:	e020      	b.n	801022e2 <sd_init+0x456>
801022a0:	f243 4300 	movw	r3, #13312	; 0x3400
801022a4:	f2c8 0310 	movt	r3, #32784	; 0x8010
801022a8:	f893 3077 	ldrb.w	r3, [r3, #119]	; 0x77
801022ac:	f003 0301 	and.w	r3, r3, #1
801022b0:	2b00      	cmp	r3, #0
801022b2:	d105      	bne.n	801022c0 <sd_init+0x434>
801022b4:	f642 5044 	movw	r0, #11588	; 0x2d44
801022b8:	f2c8 0010 	movt	r0, #32784	; 0x8010
801022bc:	f7fe fe0f 	bl	80100ede <printf>
801022c0:	f243 4300 	movw	r3, #13312	; 0x3400
801022c4:	f2c8 0310 	movt	r3, #32784	; 0x8010
801022c8:	f893 3077 	ldrb.w	r3, [r3, #119]	; 0x77
801022cc:	f003 0302 	and.w	r3, r3, #2
801022d0:	2b00      	cmp	r3, #0
801022d2:	d105      	bne.n	801022e0 <sd_init+0x454>
801022d4:	f642 507c 	movw	r0, #11644	; 0x2d7c
801022d8:	f2c8 0010 	movt	r0, #32784	; 0x8010
801022dc:	f7fe fdff 	bl	80100ede <printf>
801022e0:	2300      	movs	r3, #0
801022e2:	4618      	mov	r0, r3
801022e4:	3730      	adds	r7, #48	; 0x30
801022e6:	46bd      	mov	sp, r7
801022e8:	bd80      	pop	{r7, pc}
801022ea:	bf00      	nop
801022ec:	80103414 	andshi	r3, r0, r4, lsl r4
801022f0:	80103424 	andshi	r3, r0, r4, lsr #8
801022f4:	80103434 	andshi	r3, r0, r4, lsr r4

801022f8 <sd_read_blocks>:
801022f8:	b480      	push	{r7}
801022fa:	b085      	sub	sp, #20
801022fc:	af00      	add	r7, sp, #0
801022fe:	60f8      	str	r0, [r7, #12]
80102300:	60b9      	str	r1, [r7, #8]
80102302:	607a      	str	r2, [r7, #4]
80102304:	603b      	str	r3, [r7, #0]
80102306:	2300      	movs	r3, #0
80102308:	4618      	mov	r0, r3
8010230a:	3714      	adds	r7, #20
8010230c:	46bd      	mov	sp, r7
8010230e:	f85d 7b04 	ldr.w	r7, [sp], #4
80102312:	4770      	bx	lr
80102314:	0000      	movs	r0, r0
	...

80102318 <__aeabi_uidiv>:
80102318:	1e4a      	subs	r2, r1, #1
8010231a:	bf08      	it	eq
8010231c:	4770      	bxeq	lr
8010231e:	f0c0 8124 	bcc.w	8010256a <__aeabi_uidiv+0x252>
80102322:	4288      	cmp	r0, r1
80102324:	f240 8116 	bls.w	80102554 <__aeabi_uidiv+0x23c>
80102328:	4211      	tst	r1, r2
8010232a:	f000 8117 	beq.w	8010255c <__aeabi_uidiv+0x244>
8010232e:	fab0 f380 	clz	r3, r0
80102332:	fab1 f281 	clz	r2, r1
80102336:	eba2 0303 	sub.w	r3, r2, r3
8010233a:	f1c3 031f 	rsb	r3, r3, #31
8010233e:	a204      	add	r2, pc, #16	; (adr r2, 80102350 <__aeabi_uidiv+0x38>)
80102340:	eb02 1303 	add.w	r3, r2, r3, lsl #4
80102344:	f04f 0200 	mov.w	r2, #0
80102348:	469f      	mov	pc, r3
8010234a:	bf00      	nop
8010234c:	f3af 8000 	nop.w
80102350:	ebb0 7fc1 	cmp.w	r0, r1, lsl #31
80102354:	bf00      	nop
80102356:	eb42 0202 	adc.w	r2, r2, r2
8010235a:	bf28      	it	cs
8010235c:	eba0 70c1 	subcs.w	r0, r0, r1, lsl #31
80102360:	ebb0 7f81 	cmp.w	r0, r1, lsl #30
80102364:	bf00      	nop
80102366:	eb42 0202 	adc.w	r2, r2, r2
8010236a:	bf28      	it	cs
8010236c:	eba0 7081 	subcs.w	r0, r0, r1, lsl #30
80102370:	ebb0 7f41 	cmp.w	r0, r1, lsl #29
80102374:	bf00      	nop
80102376:	eb42 0202 	adc.w	r2, r2, r2
8010237a:	bf28      	it	cs
8010237c:	eba0 7041 	subcs.w	r0, r0, r1, lsl #29
80102380:	ebb0 7f01 	cmp.w	r0, r1, lsl #28
80102384:	bf00      	nop
80102386:	eb42 0202 	adc.w	r2, r2, r2
8010238a:	bf28      	it	cs
8010238c:	eba0 7001 	subcs.w	r0, r0, r1, lsl #28
80102390:	ebb0 6fc1 	cmp.w	r0, r1, lsl #27
80102394:	bf00      	nop
80102396:	eb42 0202 	adc.w	r2, r2, r2
8010239a:	bf28      	it	cs
8010239c:	eba0 60c1 	subcs.w	r0, r0, r1, lsl #27
801023a0:	ebb0 6f81 	cmp.w	r0, r1, lsl #26
801023a4:	bf00      	nop
801023a6:	eb42 0202 	adc.w	r2, r2, r2
801023aa:	bf28      	it	cs
801023ac:	eba0 6081 	subcs.w	r0, r0, r1, lsl #26
801023b0:	ebb0 6f41 	cmp.w	r0, r1, lsl #25
801023b4:	bf00      	nop
801023b6:	eb42 0202 	adc.w	r2, r2, r2
801023ba:	bf28      	it	cs
801023bc:	eba0 6041 	subcs.w	r0, r0, r1, lsl #25
801023c0:	ebb0 6f01 	cmp.w	r0, r1, lsl #24
801023c4:	bf00      	nop
801023c6:	eb42 0202 	adc.w	r2, r2, r2
801023ca:	bf28      	it	cs
801023cc:	eba0 6001 	subcs.w	r0, r0, r1, lsl #24
801023d0:	ebb0 5fc1 	cmp.w	r0, r1, lsl #23
801023d4:	bf00      	nop
801023d6:	eb42 0202 	adc.w	r2, r2, r2
801023da:	bf28      	it	cs
801023dc:	eba0 50c1 	subcs.w	r0, r0, r1, lsl #23
801023e0:	ebb0 5f81 	cmp.w	r0, r1, lsl #22
801023e4:	bf00      	nop
801023e6:	eb42 0202 	adc.w	r2, r2, r2
801023ea:	bf28      	it	cs
801023ec:	eba0 5081 	subcs.w	r0, r0, r1, lsl #22
801023f0:	ebb0 5f41 	cmp.w	r0, r1, lsl #21
801023f4:	bf00      	nop
801023f6:	eb42 0202 	adc.w	r2, r2, r2
801023fa:	bf28      	it	cs
801023fc:	eba0 5041 	subcs.w	r0, r0, r1, lsl #21
80102400:	ebb0 5f01 	cmp.w	r0, r1, lsl #20
80102404:	bf00      	nop
80102406:	eb42 0202 	adc.w	r2, r2, r2
8010240a:	bf28      	it	cs
8010240c:	eba0 5001 	subcs.w	r0, r0, r1, lsl #20
80102410:	ebb0 4fc1 	cmp.w	r0, r1, lsl #19
80102414:	bf00      	nop
80102416:	eb42 0202 	adc.w	r2, r2, r2
8010241a:	bf28      	it	cs
8010241c:	eba0 40c1 	subcs.w	r0, r0, r1, lsl #19
80102420:	ebb0 4f81 	cmp.w	r0, r1, lsl #18
80102424:	bf00      	nop
80102426:	eb42 0202 	adc.w	r2, r2, r2
8010242a:	bf28      	it	cs
8010242c:	eba0 4081 	subcs.w	r0, r0, r1, lsl #18
80102430:	ebb0 4f41 	cmp.w	r0, r1, lsl #17
80102434:	bf00      	nop
80102436:	eb42 0202 	adc.w	r2, r2, r2
8010243a:	bf28      	it	cs
8010243c:	eba0 4041 	subcs.w	r0, r0, r1, lsl #17
80102440:	ebb0 4f01 	cmp.w	r0, r1, lsl #16
80102444:	bf00      	nop
80102446:	eb42 0202 	adc.w	r2, r2, r2
8010244a:	bf28      	it	cs
8010244c:	eba0 4001 	subcs.w	r0, r0, r1, lsl #16
80102450:	ebb0 3fc1 	cmp.w	r0, r1, lsl #15
80102454:	bf00      	nop
80102456:	eb42 0202 	adc.w	r2, r2, r2
8010245a:	bf28      	it	cs
8010245c:	eba0 30c1 	subcs.w	r0, r0, r1, lsl #15
80102460:	ebb0 3f81 	cmp.w	r0, r1, lsl #14
80102464:	bf00      	nop
80102466:	eb42 0202 	adc.w	r2, r2, r2
8010246a:	bf28      	it	cs
8010246c:	eba0 3081 	subcs.w	r0, r0, r1, lsl #14
80102470:	ebb0 3f41 	cmp.w	r0, r1, lsl #13
80102474:	bf00      	nop
80102476:	eb42 0202 	adc.w	r2, r2, r2
8010247a:	bf28      	it	cs
8010247c:	eba0 3041 	subcs.w	r0, r0, r1, lsl #13
80102480:	ebb0 3f01 	cmp.w	r0, r1, lsl #12
80102484:	bf00      	nop
80102486:	eb42 0202 	adc.w	r2, r2, r2
8010248a:	bf28      	it	cs
8010248c:	eba0 3001 	subcs.w	r0, r0, r1, lsl #12
80102490:	ebb0 2fc1 	cmp.w	r0, r1, lsl #11
80102494:	bf00      	nop
80102496:	eb42 0202 	adc.w	r2, r2, r2
8010249a:	bf28      	it	cs
8010249c:	eba0 20c1 	subcs.w	r0, r0, r1, lsl #11
801024a0:	ebb0 2f81 	cmp.w	r0, r1, lsl #10
801024a4:	bf00      	nop
801024a6:	eb42 0202 	adc.w	r2, r2, r2
801024aa:	bf28      	it	cs
801024ac:	eba0 2081 	subcs.w	r0, r0, r1, lsl #10
801024b0:	ebb0 2f41 	cmp.w	r0, r1, lsl #9
801024b4:	bf00      	nop
801024b6:	eb42 0202 	adc.w	r2, r2, r2
801024ba:	bf28      	it	cs
801024bc:	eba0 2041 	subcs.w	r0, r0, r1, lsl #9
801024c0:	ebb0 2f01 	cmp.w	r0, r1, lsl #8
801024c4:	bf00      	nop
801024c6:	eb42 0202 	adc.w	r2, r2, r2
801024ca:	bf28      	it	cs
801024cc:	eba0 2001 	subcs.w	r0, r0, r1, lsl #8
801024d0:	ebb0 1fc1 	cmp.w	r0, r1, lsl #7
801024d4:	bf00      	nop
801024d6:	eb42 0202 	adc.w	r2, r2, r2
801024da:	bf28      	it	cs
801024dc:	eba0 10c1 	subcs.w	r0, r0, r1, lsl #7
801024e0:	ebb0 1f81 	cmp.w	r0, r1, lsl #6
801024e4:	bf00      	nop
801024e6:	eb42 0202 	adc.w	r2, r2, r2
801024ea:	bf28      	it	cs
801024ec:	eba0 1081 	subcs.w	r0, r0, r1, lsl #6
801024f0:	ebb0 1f41 	cmp.w	r0, r1, lsl #5
801024f4:	bf00      	nop
801024f6:	eb42 0202 	adc.w	r2, r2, r2
801024fa:	bf28      	it	cs
801024fc:	eba0 1041 	subcs.w	r0, r0, r1, lsl #5
80102500:	ebb0 1f01 	cmp.w	r0, r1, lsl #4
80102504:	bf00      	nop
80102506:	eb42 0202 	adc.w	r2, r2, r2
8010250a:	bf28      	it	cs
8010250c:	eba0 1001 	subcs.w	r0, r0, r1, lsl #4
80102510:	ebb0 0fc1 	cmp.w	r0, r1, lsl #3
80102514:	bf00      	nop
80102516:	eb42 0202 	adc.w	r2, r2, r2
8010251a:	bf28      	it	cs
8010251c:	eba0 00c1 	subcs.w	r0, r0, r1, lsl #3
80102520:	ebb0 0f81 	cmp.w	r0, r1, lsl #2
80102524:	bf00      	nop
80102526:	eb42 0202 	adc.w	r2, r2, r2
8010252a:	bf28      	it	cs
8010252c:	eba0 0081 	subcs.w	r0, r0, r1, lsl #2
80102530:	ebb0 0f41 	cmp.w	r0, r1, lsl #1
80102534:	bf00      	nop
80102536:	eb42 0202 	adc.w	r2, r2, r2
8010253a:	bf28      	it	cs
8010253c:	eba0 0041 	subcs.w	r0, r0, r1, lsl #1
80102540:	ebb0 0f01 	cmp.w	r0, r1
80102544:	bf00      	nop
80102546:	eb42 0202 	adc.w	r2, r2, r2
8010254a:	bf28      	it	cs
8010254c:	eba0 0001 	subcs.w	r0, r0, r1
80102550:	4610      	mov	r0, r2
80102552:	4770      	bx	lr
80102554:	bf0c      	ite	eq
80102556:	2001      	moveq	r0, #1
80102558:	2000      	movne	r0, #0
8010255a:	4770      	bx	lr
8010255c:	fab1 f281 	clz	r2, r1
80102560:	f1c2 021f 	rsb	r2, r2, #31
80102564:	fa20 f002 	lsr.w	r0, r0, r2
80102568:	4770      	bx	lr
8010256a:	b108      	cbz	r0, 80102570 <__aeabi_uidiv+0x258>
8010256c:	f04f 30ff 	mov.w	r0, #4294967295	; 0xffffffff
80102570:	f000 b826 	b.w	801025c0 <__aeabi_idiv0>

80102574 <__aeabi_uidivmod>:
80102574:	2900      	cmp	r1, #0
80102576:	d0f8      	beq.n	8010256a <__aeabi_uidiv+0x252>
80102578:	e92d 4003 	stmdb	sp!, {r0, r1, lr}
8010257c:	f7ff fecc 	bl	80102318 <__aeabi_uidiv>
80102580:	e8bd 4006 	ldmia.w	sp!, {r1, r2, lr}
80102584:	fb02 f300 	mul.w	r3, r2, r0
80102588:	eba1 0103 	sub.w	r1, r1, r3
8010258c:	4770      	bx	lr
8010258e:	bf00      	nop

80102590 <__aeabi_uldivmod>:
80102590:	b953      	cbnz	r3, 801025a8 <__aeabi_uldivmod+0x18>
80102592:	b94a      	cbnz	r2, 801025a8 <__aeabi_uldivmod+0x18>
80102594:	2900      	cmp	r1, #0
80102596:	bf08      	it	eq
80102598:	2800      	cmpeq	r0, #0
8010259a:	bf1c      	itt	ne
8010259c:	f04f 31ff 	movne.w	r1, #4294967295	; 0xffffffff
801025a0:	f04f 30ff 	movne.w	r0, #4294967295	; 0xffffffff
801025a4:	f000 b80c 	b.w	801025c0 <__aeabi_idiv0>
801025a8:	f1ad 0c08 	sub.w	ip, sp, #8
801025ac:	e96d ce04 	strd	ip, lr, [sp, #-16]!
801025b0:	f000 f80c 	bl	801025cc <__udivmoddi4>
801025b4:	f8dd e004 	ldr.w	lr, [sp, #4]
801025b8:	e9dd 2302 	ldrd	r2, r3, [sp, #8]
801025bc:	b004      	add	sp, #16
801025be:	4770      	bx	lr

801025c0 <__aeabi_idiv0>:
801025c0:	b502      	push	{r1, lr}
801025c2:	f04f 0008 	mov.w	r0, #8
801025c6:	f7fe fb13 	bl	80100bf0 <raise>
801025ca:	bd02      	pop	{r1, pc}

801025cc <__udivmoddi4>:
801025cc:	4299      	cmp	r1, r3
801025ce:	e92d 47f0 	stmdb	sp!, {r4, r5, r6, r7, r8, r9, sl, lr}
801025d2:	bf08      	it	eq
801025d4:	4290      	cmpeq	r0, r2
801025d6:	4604      	mov	r4, r0
801025d8:	460d      	mov	r5, r1
801025da:	bf38      	it	cc
801025dc:	2000      	movcc	r0, #0
801025de:	f8dd a020 	ldr.w	sl, [sp, #32]
801025e2:	bf38      	it	cc
801025e4:	2100      	movcc	r1, #0
801025e6:	d369      	bcc.n	801026bc <__udivmoddi4+0xf0>
801025e8:	fab3 f683 	clz	r6, r3
801025ec:	2b00      	cmp	r3, #0
801025ee:	d070      	beq.n	801026d2 <__udivmoddi4+0x106>
801025f0:	fab5 f185 	clz	r1, r5
801025f4:	2d00      	cmp	r5, #0
801025f6:	d068      	beq.n	801026ca <__udivmoddi4+0xfe>
801025f8:	1a76      	subs	r6, r6, r1
801025fa:	f1a6 0e20 	sub.w	lr, r6, #32
801025fe:	fa03 f906 	lsl.w	r9, r3, r6
80102602:	fa02 f10e 	lsl.w	r1, r2, lr
80102606:	f1c6 0720 	rsb	r7, r6, #32
8010260a:	fa22 f307 	lsr.w	r3, r2, r7
8010260e:	fa02 f806 	lsl.w	r8, r2, r6
80102612:	ea49 0901 	orr.w	r9, r9, r1
80102616:	ea49 0903 	orr.w	r9, r9, r3
8010261a:	454d      	cmp	r5, r9
8010261c:	bf08      	it	eq
8010261e:	4544      	cmpeq	r4, r8
80102620:	bf3c      	itt	cc
80102622:	2000      	movcc	r0, #0
80102624:	2100      	movcc	r1, #0
80102626:	d30c      	bcc.n	80102642 <__udivmoddi4+0x76>
80102628:	2301      	movs	r3, #1
8010262a:	ebb4 0408 	subs.w	r4, r4, r8
8010262e:	fa03 f10e 	lsl.w	r1, r3, lr
80102632:	fa23 f207 	lsr.w	r2, r3, r7
80102636:	fa03 f006 	lsl.w	r0, r3, r6
8010263a:	ea41 0102 	orr.w	r1, r1, r2
8010263e:	eb65 0509 	sbc.w	r5, r5, r9
80102642:	2e00      	cmp	r6, #0
80102644:	d03a      	beq.n	801026bc <__udivmoddi4+0xf0>
80102646:	ea5f 0959 	movs.w	r9, r9, lsr #1
8010264a:	ea4f 0838 	mov.w	r8, r8, rrx
8010264e:	46b4      	mov	ip, r6
80102650:	e00b      	b.n	8010266a <__udivmoddi4+0x9e>
80102652:	ebb4 0408 	subs.w	r4, r4, r8
80102656:	eb65 0509 	sbc.w	r5, r5, r9
8010265a:	1924      	adds	r4, r4, r4
8010265c:	416d      	adcs	r5, r5
8010265e:	3401      	adds	r4, #1
80102660:	f145 0500 	adc.w	r5, r5, #0
80102664:	f1bc 0c01 	subs.w	ip, ip, #1
80102668:	d008      	beq.n	8010267c <__udivmoddi4+0xb0>
8010266a:	454d      	cmp	r5, r9
8010266c:	bf08      	it	eq
8010266e:	4544      	cmpeq	r4, r8
80102670:	d2ef      	bcs.n	80102652 <__udivmoddi4+0x86>
80102672:	1924      	adds	r4, r4, r4
80102674:	416d      	adcs	r5, r5
80102676:	f1bc 0c01 	subs.w	ip, ip, #1
8010267a:	d1f6      	bne.n	8010266a <__udivmoddi4+0x9e>
8010267c:	fa05 f707 	lsl.w	r7, r5, r7
80102680:	fa24 f306 	lsr.w	r3, r4, r6
80102684:	fa25 fe0e 	lsr.w	lr, r5, lr
80102688:	fa25 fc06 	lsr.w	ip, r5, r6
8010268c:	433b      	orrs	r3, r7
8010268e:	1900      	adds	r0, r0, r4
80102690:	ea43 040e 	orr.w	r4, r3, lr
80102694:	f1a6 0e20 	sub.w	lr, r6, #32
80102698:	fa0c f306 	lsl.w	r3, ip, r6
8010269c:	fa04 fe0e 	lsl.w	lr, r4, lr
801026a0:	fa04 f206 	lsl.w	r2, r4, r6
801026a4:	f1c6 0720 	rsb	r7, r6, #32
801026a8:	fa24 f707 	lsr.w	r7, r4, r7
801026ac:	ea43 030e 	orr.w	r3, r3, lr
801026b0:	4169      	adcs	r1, r5
801026b2:	433b      	orrs	r3, r7
801026b4:	1a80      	subs	r0, r0, r2
801026b6:	4665      	mov	r5, ip
801026b8:	eb61 0103 	sbc.w	r1, r1, r3
801026bc:	f1ba 0f00 	cmp.w	sl, #0
801026c0:	d001      	beq.n	801026c6 <__udivmoddi4+0xfa>
801026c2:	e9ca 4500 	strd	r4, r5, [sl]
801026c6:	e8bd 87f0 	ldmia.w	sp!, {r4, r5, r6, r7, r8, r9, sl, pc}
801026ca:	fab4 f184 	clz	r1, r4
801026ce:	3120      	adds	r1, #32
801026d0:	e792      	b.n	801025f8 <__udivmoddi4+0x2c>
801026d2:	fab2 f682 	clz	r6, r2
801026d6:	fab5 f185 	clz	r1, r5
801026da:	3620      	adds	r6, #32
801026dc:	2d00      	cmp	r5, #0
801026de:	d18b      	bne.n	801025f8 <__udivmoddi4+0x2c>
801026e0:	e7f3      	b.n	801026ca <__udivmoddi4+0xfe>
801026e2:	bf00      	nop

Disassembly of section .rodata:

801026e4 <.LC0>:
801026e4:	6c6c6568 	cfstr64vs	mvdx6, [ip], #-416	; 0xfffffe60
801026e8:	6f77206f 	svcvs	0x0077206f
801026ec:	0d646c72 	stcleq	12, cr6, [r4, #-456]!	; 0xfffffe38
801026f0:	0000000a 	andeq	r0, r0, sl

801026f4 <.LC1>:
801026f4:	61656c70 	smcvs	22208	; 0x56c0
801026f8:	69206573 	stmdbvs	r0!, {r0, r1, r4, r5, r6, r8, sl, sp, lr}
801026fc:	7265736e 	rsbvc	r7, r5, #-1207959551	; 0xb8000001
80102700:	64732074 	ldrbtvs	r2, [r3], #-116	; 0xffffff8c
80102704:	72616320 	rsbvc	r6, r1, #32, 6	; 0x80000000
80102708:	69662064 	stmdbvs	r6!, {r2, r5, r6, sp}^
8010270c:	2c747372 	ldclcs	3, cr7, [r4], #-456	; 0xfffffe38
80102710:	65687420 	strbvs	r7, [r8, #-1056]!	; 0xfffffbe0
80102714:	6e65206e 	cdpvs	0, 6, cr2, cr5, cr14, {3}
80102718:	20726574 	rsbscs	r6, r2, r4, ror r5
8010271c:	0d276327 	stceq	3, cr6, [r7, #-156]!	; 0xffffff64
80102720:	0000000a 	andeq	r0, r0, sl

80102724 <.LC2>:
80102724:	72617473 	rsbvc	r7, r1, #1929379840	; 0x73000000
80102728:	65742074 	ldrbvs	r2, [r4, #-116]!	; 0xffffff8c
8010272c:	73207473 			; <UNDEFINED> instruction: 0x73207473
80102730:	000a0d64 	andeq	r0, sl, r4, ror #26

80102734 <.LC3>:
80102734:	74736574 	ldrbtvc	r6, [r3], #-1396	; 0xfffffa8c
80102738:	20647320 	rsbcs	r7, r4, r0, lsr #6
8010273c:	0d646e65 	stcleq	14, cr6, [r4, #-404]!	; 0xfffffe6c
80102740:	0000000a 	andeq	r0, r0, sl

80102744 <.LC0>:
80102744:	73696854 	cmnvc	r9, #84, 16	; 0x540000
80102748:	20736920 	rsbscs	r6, r3, r0, lsr #18
8010274c:	2e777777 	mrccs	7, 3, r7, cr7, cr7, {3}
80102750:	61303031 	teqvs	r0, r1, lsr r0
80102754:	6f2e6b73 	svcvs	0x002e6b73
80102758:	20206772 	eorcs	r6, r0, r2, ror r7
8010275c:	5f796d20 	svcpl	0x00796d20
80102760:	6e697270 	mcrvs	2, 3, r7, cr9, cr0, {3}
80102764:	74206674 	strtvc	r6, [r0], #-1652	; 0xfffff98c
80102768:	0a747365 	beq	81e1f504 <__bss_end+0x1d1c024>
8010276c:	0000000d 	andeq	r0, r0, sp

80102770 <.LC1>:
80102770:	74736574 	ldrbtvc	r6, [r3], #-1396	; 0xfffffa8c
80102774:	61686320 	cmnvs	r8, r0, lsr #6
80102778:	20202072 	eorcs	r2, r0, r2, ror r0
8010277c:	20202020 	eorcs	r2, r0, r0, lsr #32
80102780:	20202020 	eorcs	r2, r0, r0, lsr #32
80102784:	2c63253d 	cfstr64cs	mvdx2, [r3], #-244	; 0xffffff0c
80102788:	0d0a6325 	stceq	3, cr6, [sl, #-148]	; 0xffffff6c
8010278c:	00000000 	andeq	r0, r0, r0

80102790 <.LC2>:
80102790:	74736574 	ldrbtvc	r6, [r3], #-1396	; 0xfffffa8c
80102794:	63656420 	cmnvs	r5, #32, 8	; 0x20000000
80102798:	6c616d69 	stclvs	13, cr6, [r1], #-420	; 0xfffffe5c
8010279c:	6d756e20 	ldclvs	14, cr6, [r5, #-128]!	; 0xffffff80
801027a0:	20726562 	rsbscs	r6, r2, r2, ror #10
801027a4:	0a64253d 	beq	81a0bca0 <__bss_end+0x19087c0>
801027a8:	0000000d 	andeq	r0, r0, sp

801027ac <.LC3>:
801027ac:	74736574 	ldrbtvc	r6, [r3], #-1396	; 0xfffffa8c
801027b0:	78656820 	stmdavc	r5!, {r5, fp, sp, lr}^
801027b4:	20202020 	eorcs	r2, r0, r0, lsr #32
801027b8:	6d756e20 	ldclvs	14, cr6, [r5, #-128]!	; 0xffffff80
801027bc:	20726562 	rsbscs	r6, r2, r2, ror #10
801027c0:	2578303d 	ldrbcs	r3, [r8, #-61]!	; 0xffffffc3
801027c4:	000d0a78 	andeq	r0, sp, r8, ror sl

801027c8 <.LC4>:
801027c8:	2e777777 	mrccs	7, 3, r7, cr7, cr7, {3}
801027cc:	61303031 	teqvs	r0, r1, lsr r0
801027d0:	6f2e6b73 	svcvs	0x002e6b73
801027d4:	00006772 	andeq	r6, r0, r2, ror r7

801027d8 <.LC5>:
801027d8:	74736574 	ldrbtvc	r6, [r3], #-1396	; 0xfffffa8c
801027dc:	72747320 	rsbsvc	r7, r4, #32, 6	; 0x80000000
801027e0:	20676e69 	rsbcs	r6, r7, r9, ror #28
801027e4:	20202020 	eorcs	r2, r0, r0, lsr #32
801027e8:	20202020 	eorcs	r2, r0, r0, lsr #32
801027ec:	0a73253d 	beq	81dcbce8 <__bss_end+0x1cc8808>
801027f0:	0000000d 	andeq	r0, r0, sp

801027f4 <.LC6>:
801027f4:	3d6d756e 	cfstr64cc	mvdx7, [sp, #-440]!	; 0xfffffe48
801027f8:	64383025 	ldrtvs	r3, [r8], #-37	; 0xffffffdb
801027fc:	00000d0a 	andeq	r0, r0, sl, lsl #26

80102800 <.LC7>:
80102800:	3d6d756e 	cfstr64cc	mvdx7, [sp, #-440]!	; 0xfffffe48
80102804:	0a643825 	beq	81a108a0 <__bss_end+0x190d3c0>
80102808:	0000000d 	andeq	r0, r0, sp

8010280c <.LC8>:
8010280c:	3d6d756e 	cfstr64cc	mvdx7, [sp, #-440]!	; 0xfffffe48
80102810:	30257830 	eorcc	r7, r5, r0, lsr r8
80102814:	0d0a7838 	stceq	8, cr7, [sl, #-224]	; 0xffffff20
80102818:	00000000 	andeq	r0, r0, r0

8010281c <.LC9>:
8010281c:	3d6d756e 	cfstr64cc	mvdx7, [sp, #-440]!	; 0xfffffe48
80102820:	38257830 	stmdacc	r5!, {r4, r5, fp, ip, sp, lr}
80102824:	000d0a78 	andeq	r0, sp, r8, ror sl

80102828 <.LC10>:
80102828:	3d6d756e 	cfstr64cc	mvdx7, [sp, #-440]!	; 0xfffffe48
8010282c:	30257830 	eorcc	r7, r5, r0, lsr r8
80102830:	0d0a7832 	stceq	8, cr7, [sl, #-200]	; 0xffffff38
80102834:	00000000 	andeq	r0, r0, r0

80102838 <.LC11>:
80102838:	3d6d756e 	cfstr64cc	mvdx7, [sp, #-440]!	; 0xfffffe48
8010283c:	32257830 	eorcc	r7, r5, #48, 16	; 0x300000
80102840:	000d0a78 	andeq	r0, sp, r8, ror sl

80102844 <.LC12>:
80102844:	3d6d756e 	cfstr64cc	mvdx7, [sp, #-440]!	; 0xfffffe48
80102848:	64353025 	ldrtvs	r3, [r5], #-37	; 0xffffffdb
8010284c:	00000d0a 	andeq	r0, r0, sl, lsl #26

80102850 <.LC13>:
80102850:	3d6d756e 	cfstr64cc	mvdx7, [sp, #-440]!	; 0xfffffe48
80102854:	0a643525 	beq	81a0fcf0 <__bss_end+0x190c810>
80102858:	0000000d 	andeq	r0, r0, sp

8010285c <.LC0>:
8010285c:	415f5344 	cmpmi	pc, r4, asr #6
80102860:	20524444 	subscs	r4, r2, r4, asr #8
80102864:	30207369 	eorcc	r7, r0, r9, ror #6
80102868:	0d782578 	cfldr64eq	mvdx2, [r8, #-480]!	; 0xfffffe20
8010286c:	0000000a 	andeq	r0, r0, sl

80102870 <.LC1>:
80102870:	5f4b4c42 	svcpl	0x004b4c42
80102874:	20545441 	subscs	r5, r4, r1, asr #8
80102878:	30207369 	eorcc	r7, r0, r9, ror #6
8010287c:	0d782578 	cfldr64eq	mvdx2, [r8, #-480]!	; 0xfffffe20
80102880:	0000000a 	andeq	r0, r0, sl

80102884 <.LC2>:
80102884:	5f444d43 	svcpl	0x00444d43
80102888:	20475241 	subcs	r5, r7, r1, asr #4
8010288c:	30207369 	eorcc	r7, r0, r9, ror #6
80102890:	0d782578 	cfldr64eq	mvdx2, [r8, #-480]!	; 0xfffffe20
80102894:	0000000a 	andeq	r0, r0, sl

80102898 <.LC3>:
80102898:	5f444d43 	svcpl	0x00444d43
8010289c:	5f524658 	svcpl	0x00524658
801028a0:	20505954 	subscs	r5, r0, r4, asr r9
801028a4:	30207369 	eorcc	r7, r0, r9, ror #6
801028a8:	0d782578 	cfldr64eq	mvdx2, [r8, #-480]!	; 0xfffffe20
801028ac:	0000000a 	andeq	r0, r0, sl

801028b0 <.LC4>:
801028b0:	5f444d43 	svcpl	0x00444d43
801028b4:	30505352 	subscc	r5, r0, r2, asr r3
801028b8:	20736920 	rsbscs	r6, r3, r0, lsr #18
801028bc:	78257830 	stmdavc	r5!, {r4, r5, fp, ip, sp, lr}
801028c0:	00000a0d 	andeq	r0, r0, sp, lsl #20

801028c4 <.LC5>:
801028c4:	5f444d43 	svcpl	0x00444d43
801028c8:	31505352 	cmpcc	r0, r2, asr r3
801028cc:	20736920 	rsbscs	r6, r3, r0, lsr #18
801028d0:	78257830 	stmdavc	r5!, {r4, r5, fp, ip, sp, lr}
801028d4:	00000a0d 	andeq	r0, r0, sp, lsl #20

801028d8 <.LC6>:
801028d8:	5f444d43 	svcpl	0x00444d43
801028dc:	32505352 	subscc	r5, r0, #1207959553	; 0x48000001
801028e0:	20736920 	rsbscs	r6, r3, r0, lsr #18
801028e4:	78257830 	stmdavc	r5!, {r4, r5, fp, ip, sp, lr}
801028e8:	00000a0d 	andeq	r0, r0, sp, lsl #20

801028ec <.LC7>:
801028ec:	5f444d43 	svcpl	0x00444d43
801028f0:	33505352 	cmpcc	r0, #1207959553	; 0x48000001
801028f4:	20736920 	rsbscs	r6, r3, r0, lsr #18
801028f8:	78257830 	stmdavc	r5!, {r4, r5, fp, ip, sp, lr}
801028fc:	00000a0d 	andeq	r0, r0, sp, lsl #20

80102900 <.LC8>:
80102900:	41544144 	cmpmi	r4, r4, asr #2
80102904:	4655425f 			; <UNDEFINED> instruction: 0x4655425f
80102908:	43415f46 	movtmi	r5, #8006	; 0x1f46
8010290c:	4f505f43 	svcmi	0x00505f43
80102910:	69205452 	stmdbvs	r0!, {r1, r4, r6, sl, ip, lr}
80102914:	78302073 	ldmdavc	r0!, {r0, r1, r4, r5, r6, sp}
80102918:	0a0d7825 	beq	804609b4 <__bss_end+0x35d4d4>
8010291c:	00000000 	andeq	r0, r0, r0

80102920 <.LC9>:
80102920:	53455250 	movtpl	r5, #21072	; 0x5250
80102924:	4154535f 	cmpmi	r4, pc, asr r3
80102928:	69204554 	stmdbvs	r0!, {r2, r4, r6, r8, sl, lr}
8010292c:	78302073 	ldmdavc	r0!, {r0, r1, r4, r5, r6, sp}
80102930:	0a0d7825 	beq	804609cc <__bss_end+0x35d4ec>
80102934:	00000000 	andeq	r0, r0, r0

80102938 <.LC10>:
80102938:	544f5250 	strbpl	r5, [pc], #-592	; 80102940 <.LC10+0x8>
8010293c:	5254435f 	subspl	r4, r4, #2080374785	; 0x7c000001
80102940:	7369204c 	cmnvc	r9, #76	; 0x4c
80102944:	25783020 	ldrbcs	r3, [r8, #-32]!	; 0xffffffe0
80102948:	000a0d78 	andeq	r0, sl, r8, ror sp

8010294c <.LC11>:
8010294c:	5f535953 	svcpl	0x00535953
80102950:	4c525443 	cfldrdmi	mvd5, [r2], {67}	; 0x43
80102954:	20736920 	rsbscs	r6, r3, r0, lsr #18
80102958:	78257830 	stmdavc	r5!, {r4, r5, fp, ip, sp, lr}
8010295c:	00000a0d 	andeq	r0, r0, sp, lsl #20

80102960 <.LC12>:
80102960:	5f544e49 	svcpl	0x00544e49
80102964:	54415453 	strbpl	r5, [r1], #-1107	; 0xfffffbad
80102968:	69205355 	stmdbvs	r0!, {r0, r2, r4, r6, r8, r9, ip, lr}
8010296c:	78302073 	ldmdavc	r0!, {r0, r1, r4, r5, r6, sp}
80102970:	0a0d7825 	beq	80460a0c <__bss_end+0x35d52c>
80102974:	00000000 	andeq	r0, r0, r0

80102978 <.LC13>:
80102978:	5f544e49 	svcpl	0x00544e49
8010297c:	54415453 	strbpl	r5, [r1], #-1107	; 0xfffffbad
80102980:	455f5355 	ldrbmi	r5, [pc, #-853]	; 80102633 <__udivmoddi4+0x67>
80102984:	7369204e 	cmnvc	r9, #78	; 0x4e
80102988:	25783020 	ldrbcs	r3, [r8, #-32]!	; 0xffffffe0
8010298c:	000a0d78 	andeq	r0, sl, r8, ror sp

80102990 <.LC14>:
80102990:	5f544e49 	svcpl	0x00544e49
80102994:	4e474953 			; <UNDEFINED> instruction: 0x4e474953
80102998:	455f4c41 	ldrbmi	r4, [pc, #-3137]	; 80101d5f <SD_DecodeCsd+0x341>
8010299c:	7369204e 	cmnvc	r9, #78	; 0x4e
801029a0:	25783020 	ldrbcs	r3, [r8, #-32]!	; 0xffffffe0
801029a4:	000a0d78 	andeq	r0, sl, r8, ror sp

801029a8 <.LC15>:
801029a8:	4f545541 	svcmi	0x00545541
801029ac:	31444d43 	cmpcc	r4, r3, asr #26
801029b0:	52455f32 	subpl	r5, r5, #50, 30	; 0xc8
801029b4:	54535f52 	ldrbpl	r5, [r3], #-3922	; 0xfffff0ae
801029b8:	53555441 	cmppl	r5, #1090519040	; 0x41000000
801029bc:	20736920 	rsbscs	r6, r3, r0, lsr #18
801029c0:	78257830 	stmdavc	r5!, {r4, r5, fp, ip, sp, lr}
801029c4:	00000a0d 	andeq	r0, r0, sp, lsl #20

801029c8 <.LC16>:
801029c8:	54534f48 	ldrbpl	r4, [r3], #-3912	; 0xfffff0b8
801029cc:	5254435f 	subspl	r4, r4, #2080374785	; 0x7c000001
801029d0:	41435f4c 	cmpmi	r3, ip, asr #30
801029d4:	73692050 	cmnvc	r9, #80	; 0x50
801029d8:	25783020 	ldrbcs	r3, [r8, #-32]!	; 0xffffffe0
801029dc:	000a0d78 	andeq	r0, sl, r8, ror sp

801029e0 <.LC17>:
801029e0:	4b4d5457 	blmi	81457b44 <__bss_end+0x1354664>
801029e4:	4c564c5f 	mrrcmi	12, 5, r4, r6, cr15
801029e8:	20736920 	rsbscs	r6, r3, r0, lsr #18
801029ec:	78257830 	stmdavc	r5!, {r4, r5, fp, ip, sp, lr}
801029f0:	00000a0d 	andeq	r0, r0, sp, lsl #20

801029f4 <.LC18>:
801029f4:	5f58494d 	svcpl	0x0058494d
801029f8:	4c525443 	cfldrdmi	mvd5, [r2], {67}	; 0x43
801029fc:	20736920 	rsbscs	r6, r3, r0, lsr #18
80102a00:	78257830 	stmdavc	r5!, {r4, r5, fp, ip, sp, lr}
80102a04:	00000a0d 	andeq	r0, r0, sp, lsl #20

80102a08 <.LC19>:
80102a08:	43524f46 	cmpmi	r2, #280	; 0x118
80102a0c:	56455f45 	strbpl	r5, [r5], -r5, asr #30
80102a10:	20544e45 	subscs	r4, r4, r5, asr #28
80102a14:	30207369 	eorcc	r7, r0, r9, ror #6
80102a18:	0d782578 	cfldr64eq	mvdx2, [r8, #-480]!	; 0xfffffe20
80102a1c:	0000000a 	andeq	r0, r0, sl

80102a20 <.LC20>:
80102a20:	414d4441 	cmpmi	sp, r1, asr #8
80102a24:	5252455f 	subspl	r4, r2, #398458880	; 0x17c00000
80102a28:	4154535f 	cmpmi	r4, pc, asr r3
80102a2c:	20535554 	subscs	r5, r3, r4, asr r5
80102a30:	30207369 	eorcc	r7, r0, r9, ror #6
80102a34:	0d782578 	cfldr64eq	mvdx2, [r8, #-480]!	; 0xfffffe20
80102a38:	0000000a 	andeq	r0, r0, sl

80102a3c <.LC21>:
80102a3c:	414d4441 	cmpmi	sp, r1, asr #8
80102a40:	5359535f 	cmppl	r9, #2080374785	; 0x7c000001
80102a44:	4444415f 	strbmi	r4, [r4], #-351	; 0xfffffea1
80102a48:	73692052 	cmnvc	r9, #82	; 0x52
80102a4c:	25783020 	ldrbcs	r3, [r8, #-32]!	; 0xffffffe0
80102a50:	000a0d78 	andeq	r0, sl, r8, ror sp

80102a54 <.LC22>:
80102a54:	5f4c4c44 	svcpl	0x004c4c44
80102a58:	4c525443 	cfldrdmi	mvd5, [r2], {67}	; 0x43
80102a5c:	20736920 	rsbscs	r6, r3, r0, lsr #18
80102a60:	78257830 	stmdavc	r5!, {r4, r5, fp, ip, sp, lr}
80102a64:	00000a0d 	andeq	r0, r0, sp, lsl #20

80102a68 <.LC23>:
80102a68:	5f4c4c44 	svcpl	0x004c4c44
80102a6c:	54415453 	strbpl	r5, [r1], #-1107	; 0xfffffbad
80102a70:	69205355 	stmdbvs	r0!, {r0, r2, r4, r6, r8, r9, ip, lr}
80102a74:	78302073 	ldmdavc	r0!, {r0, r1, r4, r5, r6, sp}
80102a78:	0a0d7825 	beq	80460b14 <__bss_end+0x35d634>
80102a7c:	00000000 	andeq	r0, r0, r0

80102a80 <.LC24>:
80102a80:	5f4b4c43 	svcpl	0x004b4c43
80102a84:	454e5554 	strbmi	r5, [lr, #-1364]	; 0xfffffaac
80102a88:	5254435f 	subspl	r4, r4, #2080374785	; 0x7c000001
80102a8c:	54535f4c 	ldrbpl	r5, [r3], #-3916	; 0xfffff0b4
80102a90:	53555441 	cmppl	r5, #1090519040	; 0x41000000
80102a94:	20736920 	rsbscs	r6, r3, r0, lsr #18
80102a98:	78257830 	stmdavc	r5!, {r4, r5, fp, ip, sp, lr}
80102a9c:	00000a0d 	andeq	r0, r0, sp, lsl #20

80102aa0 <.LC25>:
80102aa0:	444e4556 	strbmi	r4, [lr], #-1366	; 0xfffffaaa
80102aa4:	4550535f 	ldrbmi	r5, [r0, #-863]	; 0xfffffca1
80102aa8:	73692043 	cmnvc	r9, #67	; 0x43
80102aac:	25783020 	ldrbcs	r3, [r8, #-32]!	; 0xffffffe0
80102ab0:	000a0d78 	andeq	r0, sl, r8, ror sp

80102ab4 <.LC26>:
80102ab4:	5f434d4d 	svcpl	0x00434d4d
80102ab8:	544f4f42 	strbpl	r4, [pc], #-3906	; 80102ac0 <.LC26+0xc>
80102abc:	20736920 	rsbscs	r6, r3, r0, lsr #18
80102ac0:	78257830 	stmdavc	r5!, {r4, r5, fp, ip, sp, lr}
80102ac4:	00000a0d 	andeq	r0, r0, sp, lsl #20

80102ac8 <.LC27>:
80102ac8:	444e4556 	strbmi	r4, [lr], #-1366	; 0xfffffaaa
80102acc:	4550535f 	ldrbmi	r5, [r0, #-863]	; 0xfffffca1
80102ad0:	69203243 	stmdbvs	r0!, {r0, r1, r6, r9, ip, sp}
80102ad4:	78302073 	ldmdavc	r0!, {r0, r1, r4, r5, r6, sp}
80102ad8:	0a0d7825 	beq	80460b74 <__bss_end+0x35d694>
80102adc:	00000000 	andeq	r0, r0, r0

80102ae0 <.LC28>:
80102ae0:	494e5554 	stmdbmi	lr, {r2, r4, r6, r8, sl, ip, lr}^
80102ae4:	435f474e 	cmpmi	pc, #20447232	; 0x1380000
80102ae8:	204c5254 	subcs	r5, ip, r4, asr r2
80102aec:	30207369 	eorcc	r7, r0, r9, ror #6
80102af0:	0d782578 	cfldr64eq	mvdx2, [r8, #-480]!	; 0xfffffe20
80102af4:	0000000a 	andeq	r0, r0, sl

80102af8 <.LC29>:
80102af8:	64615f67 	strbtvs	r5, [r1], #-3943	; 0xfffff099
80102afc:	5f32616d 	svcpl	0x0032616d
80102b00:	6c626174 	stfvse	f6, [r2], #-464	; 0xfffffe30
80102b04:	695b6562 	ldmdbvs	fp, {r1, r5, r6, r8, sl, sp, lr}^
80102b08:	6461205d 	strbtvs	r2, [r1], #-93	; 0xffffffa3
80102b0c:	73657264 	cmnvc	r5, #100, 4	; 0x40000006
80102b10:	73692073 	cmnvc	r9, #115	; 0x73
80102b14:	25783020 	ldrbcs	r3, [r8, #-32]!	; 0xffffffe0
80102b18:	61202c78 			; <UNDEFINED> instruction: 0x61202c78
80102b1c:	69727474 	ldmdbvs	r2!, {r2, r4, r5, r6, sl, ip, sp, lr}^
80102b20:	65747562 	ldrbvs	r7, [r4, #-1378]!	; 0xfffffa9e
80102b24:	20736920 	rsbscs	r6, r3, r0, lsr #18
80102b28:	78257830 	stmdavc	r5!, {r4, r5, fp, ip, sp, lr}
80102b2c:	00000a0d 	andeq	r0, r0, sp, lsl #20

80102b30 <.LC30>:
80102b30:	20646d63 	rsbcs	r6, r4, r3, ror #26
80102b34:	72727265 	rsbsvc	r7, r2, #1342177286	; 0x50000006
80102b38:	202c726f 	eorcs	r7, ip, pc, ror #4
80102b3c:	20444d43 	subcs	r4, r4, r3, asr #26
80102b40:	30207369 	eorcc	r7, r0, r9, ror #6
80102b44:	2c782578 	cfldr64cs	mvdx2, [r8], #-480	; 0xfffffe20
80102b48:	544e4920 	strbpl	r4, [lr], #-2336	; 0xfffff6e0
80102b4c:	4154535f 	cmpmi	r4, pc, asr r3
80102b50:	20535554 	subscs	r5, r3, r4, asr r5
80102b54:	30207369 	eorcc	r7, r0, r9, ror #6
80102b58:	0d782578 	cfldr64eq	mvdx2, [r8, #-480]!	; 0xfffffe20
80102b5c:	0000000a 	andeq	r0, r0, sl

80102b60 <.LC31>:
80102b60:	61746164 	cmnvs	r4, r4, ror #2
80102b64:	72726520 	rsbsvc	r6, r2, #32, 10	; 0x8000000
80102b68:	2c726f72 	ldclcs	15, cr6, [r2], #-456	; 0xfffffe38
80102b6c:	444d4320 	strbmi	r4, [sp], #-800	; 0xfffffce0
80102b70:	20736920 	rsbscs	r6, r3, r0, lsr #18
80102b74:	78257830 	stmdavc	r5!, {r4, r5, fp, ip, sp, lr}
80102b78:	4e49202c 	cdpmi	0, 4, cr2, cr9, cr12, {1}
80102b7c:	54535f54 	ldrbpl	r5, [r3], #-3924	; 0xfffff0ac
80102b80:	53555441 	cmppl	r5, #1090519040	; 0x41000000
80102b84:	20736920 	rsbscs	r6, r3, r0, lsr #18
80102b88:	78257830 	stmdavc	r5!, {r4, r5, fp, ip, sp, lr}
80102b8c:	00000a0d 	andeq	r0, r0, sp, lsl #20

80102b90 <.LC32>:
80102b90:	61656c70 	smcvs	22208	; 0x56c0
80102b94:	69206573 	stmdbvs	r0!, {r0, r1, r4, r5, r6, r8, sl, sp, lr}
80102b98:	7265736e 	rsbvc	r7, r5, #-1207959551	; 0xb8000001
80102b9c:	64732074 	ldrbtvs	r2, [r3], #-116	; 0xffffff8c
80102ba0:	72616320 	rsbvc	r6, r1, #32, 6	; 0x80000000
80102ba4:	000a0d64 	andeq	r0, sl, r4, ror #26

80102ba8 <.LC33>:
80102ba8:	63206473 			; <UNDEFINED> instruction: 0x63206473
80102bac:	20647261 	rsbcs	r7, r4, r1, ror #4
80102bb0:	20736168 	rsbscs	r6, r3, r8, ror #2
80102bb4:	6e656562 	cdpvs	5, 6, cr6, cr5, cr2, {3}
80102bb8:	736e6920 	cmnvc	lr, #32, 18	; 0x80000
80102bbc:	65747265 	ldrbvs	r7, [r4, #-613]!	; 0xfffffd9b
80102bc0:	000a0d64 	andeq	r0, sl, r4, ror #26

80102bc4 <.LC34>:
80102bc4:	49544341 	ldmdbmi	r4, {r0, r6, r8, r9, lr}^
80102bc8:	0a0d4556 	beq	80454128 <__bss_end+0x350c48>
80102bcc:	00000000 	andeq	r0, r0, r0

80102bd0 <.LC35>:
80102bd0:	30444d43 	subcc	r4, r4, r3, asr #26
80102bd4:	00000a0d 	andeq	r0, r0, sp, lsl #20

80102bd8 <.LC36>:
80102bd8:	20646d63 	rsbcs	r6, r4, r3, ror #26
80102bdc:	65722038 	ldrbvs	r2, [r2, #-56]!	; 0xffffffc8
80102be0:	6e6f7073 	mcrvs	0, 3, r7, cr15, cr3, {3}
80102be4:	69206573 	stmdbvs	r0!, {r0, r1, r4, r5, r6, r8, sl, sp, lr}
80102be8:	78302073 	ldmdavc	r0!, {r0, r1, r4, r5, r6, sp}
80102bec:	0a0d7825 	beq	80460c88 <__bss_end+0x35d7a8>
80102bf0:	00000000 	andeq	r0, r0, r0

80102bf4 <.LC37>:
80102bf4:	65736162 	ldrbvs	r6, [r3, #-354]!	; 0xfffffe9e
80102bf8:	4d433e2d 	stclmi	14, cr3, [r3, #-180]	; 0xffffff4c
80102bfc:	53525f44 	cmppl	r2, #68, 30	; 0x110
80102c00:	69203050 	stmdbvs	r0!, {r4, r6, ip, sp}
80102c04:	78302073 	ldmdavc	r0!, {r0, r1, r4, r5, r6, sp}
80102c08:	0a0d7825 	beq	80460ca4 <__bss_end+0x35d7c4>
80102c0c:	00000000 	andeq	r0, r0, r0

80102c10 <.LC38>:
80102c10:	2072636f 	rsbscs	r6, r2, pc, ror #6
80102c14:	30207369 	eorcc	r7, r0, r9, ror #6
80102c18:	0d782578 	cfldr64eq	mvdx2, [r8, #-480]!	; 0xfffffe20
80102c1c:	0000000a 	andeq	r0, r0, sl

80102c20 <.LC39>:
80102c20:	646e6148 	strbtvs	r6, [lr], #-328	; 0xfffffeb8
80102c24:	6b616853 	blvs	8195cd78 <__bss_end+0x1859898>
80102c28:	65704f65 	ldrbvs	r4, [r0, #-3941]!	; 0xfffff09b
80102c2c:	69746172 	ldmdbvs	r4!, {r1, r4, r5, r6, r8, sp, lr}^
80102c30:	6f436e6f 	svcvs	0x00436e6f
80102c34:	7469646e 	strbtvc	r6, [r9], #-1134	; 0xfffffb92
80102c38:	466e6f69 	strbtmi	r6, [lr], -r9, ror #30
80102c3c:	656c6961 	strbvs	r6, [ip, #-2401]!	; 0xfffff69f
80102c40:	000a0d64 	andeq	r0, sl, r4, ror #26

80102c44 <.LC40>:
80102c44:	70707573 	rsbsvc	r7, r0, r3, ror r5
80102c48:	2074726f 	rsbscs	r7, r4, pc, ror #4
80102c4c:	76382e31 			; <UNDEFINED> instruction: 0x76382e31
80102c50:	00000a0d 	andeq	r0, r0, sp, lsl #20

80102c54 <.LC41>:
80102c54:	616c6572 	smcvs	50770	; 0xc652
80102c58:	65766974 	ldrbvs	r6, [r6, #-2420]!	; 0xfffff68c
80102c5c:	64646120 	strbtvs	r6, [r4], #-288	; 0xfffffee0
80102c60:	73736572 	cmnvc	r3, #478150656	; 0x1c800000
80102c64:	20736920 	rsbscs	r6, r3, r0, lsr #18
80102c68:	78257830 	stmdavc	r5!, {r4, r5, fp, ip, sp, lr}
80102c6c:	00000a0d 	andeq	r0, r0, sp, lsl #20

80102c70 <.LC42>:
80102c70:	43534453 	cmpmi	r3, #1392508928	; 0x53000000
80102c74:	00000000 	andeq	r0, r0, r0

80102c78 <.LC43>:
80102c78:	43484453 	movtmi	r4, #33875	; 0x8453
80102c7c:	5844532f 	stmdapl	r4, {r0, r1, r2, r3, r5, r8, r9, ip, lr}^
80102c80:	00000043 	andeq	r0, r0, r3, asr #32

80102c84 <.LC44>:
80102c84:	64726163 	ldrbtvs	r6, [r2], #-355	; 0xfffffe9d
80102c88:	20736920 	rsbscs	r6, r3, r0, lsr #18
80102c8c:	00007325 	andeq	r7, r0, r5, lsr #6

80102c90 <.LC45>:
80102c90:	64726163 	ldrbtvs	r6, [r2], #-355	; 0xfffffe9d
80102c94:	70616320 	rsbvc	r6, r1, r0, lsr #6
80102c98:	74696361 	strbtvc	r6, [r9], #-865	; 0xfffffc9f
80102c9c:	73692079 	cmnvc	r9, #121	; 0x79
80102ca0:	0d642520 	cfstr64eq	mvdx2, [r4, #-128]!	; 0xffffff80
80102ca4:	0000000a 	andeq	r0, r0, sl

80102ca8 <.LC46>:
80102ca8:	64726163 	ldrbtvs	r6, [r2], #-355	; 0xfffffe9d
80102cac:	63657320 	cmnvs	r5, #32, 6	; 0x80000000
80102cb0:	20726f74 	rsbscs	r6, r2, r4, ror pc
80102cb4:	657a6973 	ldrbvs	r6, [sl, #-2419]!	; 0xfffff68d
80102cb8:	20736920 	rsbscs	r6, r3, r0, lsr #18
80102cbc:	0a0d6425 	beq	8045bd58 <__bss_end+0x358878>
80102cc0:	00000000 	andeq	r0, r0, r0

80102cc4 <.LC47>:
80102cc4:	64726163 	ldrbtvs	r6, [r2], #-355	; 0xfffffe9d
80102cc8:	6d6f6320 	stclvs	3, cr6, [pc, #-128]!	; 80102c50 <.LC40+0xc>
80102ccc:	646e616d 	strbtvs	r6, [lr], #-365	; 0xfffffe93
80102cd0:	616c6320 	cmnvs	ip, r0, lsr #6
80102cd4:	69207373 	stmdbvs	r0!, {r0, r1, r4, r5, r6, r8, r9, ip, sp, lr}
80102cd8:	64252073 	strtvs	r2, [r5], #-115	; 0xffffff8d
80102cdc:	00000a0d 	andeq	r0, r0, sp, lsl #20

80102ce0 <.LC48>:
80102ce0:	5b726373 	blpl	81d9bab4 <__bss_end+0x1c985d4>
80102ce4:	69205d30 	stmdbvs	r0!, {r4, r5, r8, sl, fp, ip, lr}
80102ce8:	78302073 	ldmdavc	r0!, {r0, r1, r4, r5, r6, sp}
80102cec:	202c7825 	eorcs	r7, ip, r5, lsr #16
80102cf0:	5b726373 	blpl	81d9bac4 <__bss_end+0x1c985e4>
80102cf4:	69205d31 	stmdbvs	r0!, {r0, r4, r5, r8, sl, fp, ip, lr}
80102cf8:	78302073 	ldmdavc	r0!, {r0, r1, r4, r5, r6, sp}
80102cfc:	0a0d7825 	beq	80460d98 <__bss_end+0x35d8b8>
80102d00:	00000000 	andeq	r0, r0, r0

80102d04 <.LC49>:
80102d04:	73206473 			; <UNDEFINED> instruction: 0x73206473
80102d08:	69636570 	stmdbvs	r3!, {r4, r5, r6, r8, sl, sp, lr}^
80102d0c:	61636966 	cmnvs	r3, r6, ror #18
80102d10:	6e6f6974 			; <UNDEFINED> instruction: 0x6e6f6974
80102d14:	20736920 	rsbscs	r6, r3, r0, lsr #18
80102d18:	78257830 	stmdavc	r5!, {r4, r5, fp, ip, sp, lr}
80102d1c:	00000a0d 	andeq	r0, r0, sp, lsl #20

80102d20 <.LC50>:
80102d20:	20656854 	rsbcs	r6, r5, r4, asr r8
80102d24:	64726163 	ldrbtvs	r6, [r2], #-355	; 0xfffffe9d
80102d28:	6e616320 	cdpvs	3, 6, cr6, cr1, cr0, {1}
80102d2c:	746f6e20 	strbtvc	r6, [pc], #-3616	; 80102d34 <.LC50+0x14>
80102d30:	70757320 	rsbsvc	r7, r5, r0, lsr #6
80102d34:	74726f70 	ldrbtvc	r6, [r2], #-3952	; 0xfffff090
80102d38:	69623420 	stmdbvs	r2!, {r5, sl, ip, sp}^
80102d3c:	69772074 	ldmdbvs	r7!, {r2, r4, r5, r6, sp}^
80102d40:	00687464 	rsbeq	r7, r8, r4, ror #8

80102d44 <.LC51>:
80102d44:	20656854 	rsbcs	r6, r5, r4, asr r8
80102d48:	64726163 	ldrbtvs	r6, [r2], #-355	; 0xfffffe9d
80102d4c:	6e616320 	cdpvs	3, 6, cr6, cr1, cr0, {1}
80102d50:	746f6e20 	strbtvc	r6, [pc], #-3616	; 80102d58 <.LC51+0x14>
80102d54:	70757320 	rsbsvc	r7, r5, r0, lsr #6
80102d58:	74726f70 	ldrbtvc	r6, [r2], #-3952	; 0xfffff090
80102d5c:	65705320 	ldrbvs	r5, [r0, #-800]!	; 0xfffffce0
80102d60:	43206465 			; <UNDEFINED> instruction: 0x43206465
80102d64:	7373616c 	cmnvc	r3, #108, 2
80102d68:	6e6f4320 	cdpvs	3, 6, cr4, cr15, cr0, {1}
80102d6c:	6c6f7274 	sfmvs	f7, 2, [pc], #-464	; 80102ba4 <.LC32+0x14>
80102d70:	4d432820 	stclmi	8, cr2, [r3, #-128]	; 0xffffff80
80102d74:	29303244 	ldmdbcs	r0!, {r2, r6, r9, ip, sp}
80102d78:	00000a0d 	andeq	r0, r0, sp, lsl #20

80102d7c <.LC52>:
80102d7c:	20656854 	rsbcs	r6, r5, r4, asr r8
80102d80:	64726163 	ldrbtvs	r6, [r2], #-355	; 0xfffffe9d
80102d84:	6e616320 	cdpvs	3, 6, cr6, cr1, cr0, {1}
80102d88:	746f6e20 	strbtvc	r6, [pc], #-3616	; 80102d90 <.LC52+0x14>
80102d8c:	70757320 	rsbsvc	r7, r5, r0, lsr #6
80102d90:	74726f70 	ldrbtvc	r6, [r2], #-3952	; 0xfffff090
80102d94:	70755320 	rsbsvc	r5, r5, r0, lsr #6
80102d98:	74726f70 	ldrbtvc	r6, [r2], #-3952	; 0xfffff090
80102d9c:	74655320 	strbtvc	r5, [r5], #-800	; 0xfffffce0
80102da0:	636f6c42 	cmnvs	pc, #16896	; 0x4200
80102da4:	756f436b 	strbvc	r4, [pc, #-875]!	; 80102a41 <.LC21+0x5>
80102da8:	6d43746e 	cfstrdvs	mvd7, [r3, #-440]	; 0xfffffe48
80102dac:	43282064 			; <UNDEFINED> instruction: 0x43282064
80102db0:	3332444d 	teqcc	r2, #1291845632	; 0x4d000000
80102db4:	000a0d29 	andeq	r0, sl, r9, lsr #26

Disassembly of section .ARM.exidx:

80102db8 <.ARM.exidx>:
80102db8:	7ffff814 	svcvc	0x00fff814
80102dbc:	00000001 	andeq	r0, r0, r1

Disassembly of section .data:

80102dc0 <hex_tab>:
80102dc0:	33323130 	teqcc	r2, #48, 2
80102dc4:	37363534 			; <UNDEFINED> instruction: 0x37363534
80102dc8:	62613938 	rsbvs	r3, r1, #56, 18	; 0xe0000
80102dcc:	66656463 	strbtvs	r6, [r5], -r3, ror #8

Disassembly of section .bss:

80103000 <sd_align_buf>:
	...

80103400 <g_sd_card>:
	...

801034a0 <g_adma2_tablbe>:
	...

