
relocate.elf:     file format elf32-littlearm


Disassembly of section .text:

80100000 <_start>:
80100000:	e59fd004 	ldr	sp, [pc, #4]	; 8010000c <halt+0x4>
80100004:	fb000066 	blx	801001a6 <main>

80100008 <halt>:
80100008:	eafffffe 	b	80100008 <halt>
8010000c:	80200000 	eorhi	r0, r0, r0

80100010 <Uart_Init>:
80100010:	b480      	push	{r7}
80100012:	af00      	add	r7, sp, #0
80100014:	f240 0214 	movw	r2, #20
80100018:	f2c8 0220 	movt	r2, #32800	; 0x8020
8010001c:	2384      	movs	r3, #132	; 0x84
8010001e:	f2c0 230e 	movt	r3, #526	; 0x20e
80100022:	6013      	str	r3, [r2, #0]
80100024:	f240 0218 	movw	r2, #24
80100028:	f2c8 0220 	movt	r2, #32800	; 0x8020
8010002c:	2388      	movs	r3, #136	; 0x88
8010002e:	f2c0 230e 	movt	r3, #526	; 0x20e
80100032:	6013      	str	r3, [r2, #0]
80100034:	f240 0318 	movw	r3, #24
80100038:	f2c8 0320 	movt	r3, #32800	; 0x8020
8010003c:	681b      	ldr	r3, [r3, #0]
8010003e:	2200      	movs	r2, #0
80100040:	601a      	str	r2, [r3, #0]
80100042:	f240 0314 	movw	r3, #20
80100046:	f2c8 0320 	movt	r3, #32800	; 0x8020
8010004a:	681b      	ldr	r3, [r3, #0]
8010004c:	2200      	movs	r2, #0
8010004e:	601a      	str	r2, [r3, #0]
80100050:	2300      	movs	r3, #0
80100052:	f2c0 2302 	movt	r3, #514	; 0x202
80100056:	2200      	movs	r2, #0
80100058:	f2c0 2202 	movt	r2, #514	; 0x202
8010005c:	f8d2 2080 	ldr.w	r2, [r2, #128]	; 0x80
80100060:	f042 0201 	orr.w	r2, r2, #1
80100064:	f8c3 2080 	str.w	r2, [r3, #128]	; 0x80
80100068:	2200      	movs	r2, #0
8010006a:	f2c0 2202 	movt	r2, #514	; 0x202
8010006e:	2300      	movs	r3, #0
80100070:	f2c0 2302 	movt	r3, #514	; 0x202
80100074:	f8d3 3084 	ldr.w	r3, [r3, #132]	; 0x84
80100078:	f443 4380 	orr.w	r3, r3, #16384	; 0x4000
8010007c:	f043 0326 	orr.w	r3, r3, #38	; 0x26
80100080:	f8c2 3084 	str.w	r3, [r2, #132]	; 0x84
80100084:	2300      	movs	r3, #0
80100086:	f2c0 2302 	movt	r3, #514	; 0x202
8010008a:	2200      	movs	r2, #0
8010008c:	f2c0 2202 	movt	r2, #514	; 0x202
80100090:	f8d2 2088 	ldr.w	r2, [r2, #136]	; 0x88
80100094:	f042 0204 	orr.w	r2, r2, #4
80100098:	f8c3 2088 	str.w	r2, [r3, #136]	; 0x88
8010009c:	2300      	movs	r3, #0
8010009e:	f2c0 2302 	movt	r3, #514	; 0x202
801000a2:	f44f 7220 	mov.w	r2, #640	; 0x280
801000a6:	f8c3 2090 	str.w	r2, [r3, #144]	; 0x90
801000aa:	2300      	movs	r3, #0
801000ac:	f2c0 2302 	movt	r3, #514	; 0x202
801000b0:	2247      	movs	r2, #71	; 0x47
801000b2:	f8c3 20a4 	str.w	r2, [r3, #164]	; 0xa4
801000b6:	2300      	movs	r3, #0
801000b8:	f2c0 2302 	movt	r3, #514	; 0x202
801000bc:	f640 4234 	movw	r2, #3124	; 0xc34
801000c0:	f8c3 20a8 	str.w	r2, [r3, #168]	; 0xa8
801000c4:	2300      	movs	r3, #0
801000c6:	f2c0 2302 	movt	r3, #514	; 0x202
801000ca:	2200      	movs	r2, #0
801000cc:	f2c0 2202 	movt	r2, #514	; 0x202
801000d0:	f8d2 2080 	ldr.w	r2, [r2, #128]	; 0x80
801000d4:	f042 0201 	orr.w	r2, r2, #1
801000d8:	f8c3 2080 	str.w	r2, [r3, #128]	; 0x80
801000dc:	bf00      	nop
801000de:	46bd      	mov	sp, r7
801000e0:	f85d 7b04 	ldr.w	r7, [sp], #4
801000e4:	4770      	bx	lr

801000e6 <PutChar>:
801000e6:	b480      	push	{r7}
801000e8:	b083      	sub	sp, #12
801000ea:	af00      	add	r7, sp, #0
801000ec:	6078      	str	r0, [r7, #4]
801000ee:	bf00      	nop
801000f0:	2300      	movs	r3, #0
801000f2:	f2c0 2302 	movt	r3, #514	; 0x202
801000f6:	f8d3 3098 	ldr.w	r3, [r3, #152]	; 0x98
801000fa:	f003 0308 	and.w	r3, r3, #8
801000fe:	2b00      	cmp	r3, #0
80100100:	d0f6      	beq.n	801000f0 <PutChar+0xa>
80100102:	2300      	movs	r3, #0
80100104:	f2c0 2302 	movt	r3, #514	; 0x202
80100108:	687a      	ldr	r2, [r7, #4]
8010010a:	b2d2      	uxtb	r2, r2
8010010c:	641a      	str	r2, [r3, #64]	; 0x40
8010010e:	bf00      	nop
80100110:	370c      	adds	r7, #12
80100112:	46bd      	mov	sp, r7
80100114:	f85d 7b04 	ldr.w	r7, [sp], #4
80100118:	4770      	bx	lr

8010011a <GetChar>:
8010011a:	b480      	push	{r7}
8010011c:	af00      	add	r7, sp, #0
8010011e:	bf00      	nop
80100120:	2300      	movs	r3, #0
80100122:	f2c0 2302 	movt	r3, #514	; 0x202
80100126:	f8d3 3098 	ldr.w	r3, [r3, #152]	; 0x98
8010012a:	f003 0301 	and.w	r3, r3, #1
8010012e:	2b00      	cmp	r3, #0
80100130:	d0f6      	beq.n	80100120 <GetChar+0x6>
80100132:	2300      	movs	r3, #0
80100134:	f2c0 2302 	movt	r3, #514	; 0x202
80100138:	681b      	ldr	r3, [r3, #0]
8010013a:	b2db      	uxtb	r3, r3
8010013c:	4618      	mov	r0, r3
8010013e:	46bd      	mov	sp, r7
80100140:	f85d 7b04 	ldr.w	r7, [sp], #4
80100144:	4770      	bx	lr

80100146 <PutStr>:
80100146:	b580      	push	{r7, lr}
80100148:	b082      	sub	sp, #8
8010014a:	af00      	add	r7, sp, #0
8010014c:	6078      	str	r0, [r7, #4]
8010014e:	e007      	b.n	80100160 <PutStr+0x1a>
80100150:	687b      	ldr	r3, [r7, #4]
80100152:	781b      	ldrb	r3, [r3, #0]
80100154:	4618      	mov	r0, r3
80100156:	f7ff ffc6 	bl	801000e6 <PutChar>
8010015a:	687b      	ldr	r3, [r7, #4]
8010015c:	3301      	adds	r3, #1
8010015e:	607b      	str	r3, [r7, #4]
80100160:	687b      	ldr	r3, [r7, #4]
80100162:	781b      	ldrb	r3, [r3, #0]
80100164:	2b00      	cmp	r3, #0
80100166:	d1f3      	bne.n	80100150 <PutStr+0xa>
80100168:	bf00      	nop
8010016a:	3708      	adds	r7, #8
8010016c:	46bd      	mov	sp, r7
8010016e:	bd80      	pop	{r7, pc}

80100170 <raise>:
80100170:	b480      	push	{r7}
80100172:	b083      	sub	sp, #12
80100174:	af00      	add	r7, sp, #0
80100176:	6078      	str	r0, [r7, #4]
80100178:	2300      	movs	r3, #0
8010017a:	4618      	mov	r0, r3
8010017c:	370c      	adds	r7, #12
8010017e:	46bd      	mov	sp, r7
80100180:	f85d 7b04 	ldr.w	r7, [sp], #4
80100184:	4770      	bx	lr

80100186 <delay>:
80100186:	b480      	push	{r7}
80100188:	b083      	sub	sp, #12
8010018a:	af00      	add	r7, sp, #0
8010018c:	6078      	str	r0, [r7, #4]
8010018e:	bf00      	nop
80100190:	687b      	ldr	r3, [r7, #4]
80100192:	1e5a      	subs	r2, r3, #1
80100194:	607a      	str	r2, [r7, #4]
80100196:	2b00      	cmp	r3, #0
80100198:	d1fa      	bne.n	80100190 <delay+0xa>
8010019a:	bf00      	nop
8010019c:	370c      	adds	r7, #12
8010019e:	46bd      	mov	sp, r7
801001a0:	f85d 7b04 	ldr.w	r7, [sp], #4
801001a4:	4770      	bx	lr

801001a6 <main>:
801001a6:	b480      	push	{r7}
801001a8:	af00      	add	r7, sp, #0
801001aa:	2300      	movs	r3, #0
801001ac:	4618      	mov	r0, r3
801001ae:	46bd      	mov	sp, r7
801001b0:	f85d 7b04 	ldr.w	r7, [sp], #4
801001b4:	4770      	bx	lr
	...

801001b8 <outc>:
801001b8:	b580      	push	{r7, lr}
801001ba:	b082      	sub	sp, #8
801001bc:	af00      	add	r7, sp, #0
801001be:	6078      	str	r0, [r7, #4]
801001c0:	6878      	ldr	r0, [r7, #4]
801001c2:	f7ff ff90 	bl	801000e6 <PutChar>
801001c6:	2300      	movs	r3, #0
801001c8:	4618      	mov	r0, r3
801001ca:	3708      	adds	r7, #8
801001cc:	46bd      	mov	sp, r7
801001ce:	bd80      	pop	{r7, pc}

801001d0 <outs>:
801001d0:	b580      	push	{r7, lr}
801001d2:	b082      	sub	sp, #8
801001d4:	af00      	add	r7, sp, #0
801001d6:	6078      	str	r0, [r7, #4]
801001d8:	e006      	b.n	801001e8 <outs+0x18>
801001da:	687b      	ldr	r3, [r7, #4]
801001dc:	1c5a      	adds	r2, r3, #1
801001de:	607a      	str	r2, [r7, #4]
801001e0:	781b      	ldrb	r3, [r3, #0]
801001e2:	4618      	mov	r0, r3
801001e4:	f7ff ff7f 	bl	801000e6 <PutChar>
801001e8:	687b      	ldr	r3, [r7, #4]
801001ea:	781b      	ldrb	r3, [r3, #0]
801001ec:	2b00      	cmp	r3, #0
801001ee:	d1f4      	bne.n	801001da <outs+0xa>
801001f0:	2300      	movs	r3, #0
801001f2:	4618      	mov	r0, r3
801001f4:	3708      	adds	r7, #8
801001f6:	46bd      	mov	sp, r7
801001f8:	bd80      	pop	{r7, pc}

801001fa <out_num>:
801001fa:	b580      	push	{r7, lr}
801001fc:	b098      	sub	sp, #96	; 0x60
801001fe:	af00      	add	r7, sp, #0
80100200:	60f8      	str	r0, [r7, #12]
80100202:	60b9      	str	r1, [r7, #8]
80100204:	603b      	str	r3, [r7, #0]
80100206:	4613      	mov	r3, r2
80100208:	71fb      	strb	r3, [r7, #7]
8010020a:	2300      	movs	r3, #0
8010020c:	65fb      	str	r3, [r7, #92]	; 0x5c
8010020e:	f107 0310 	add.w	r3, r7, #16
80100212:	3340      	adds	r3, #64	; 0x40
80100214:	65bb      	str	r3, [r7, #88]	; 0x58
80100216:	2300      	movs	r3, #0
80100218:	657b      	str	r3, [r7, #84]	; 0x54
8010021a:	2300      	movs	r3, #0
8010021c:	653b      	str	r3, [r7, #80]	; 0x50
8010021e:	6dbb      	ldr	r3, [r7, #88]	; 0x58
80100220:	3b01      	subs	r3, #1
80100222:	65bb      	str	r3, [r7, #88]	; 0x58
80100224:	6dbb      	ldr	r3, [r7, #88]	; 0x58
80100226:	2200      	movs	r2, #0
80100228:	701a      	strb	r2, [r3, #0]
8010022a:	68fb      	ldr	r3, [r7, #12]
8010022c:	2b00      	cmp	r3, #0
8010022e:	da03      	bge.n	80100238 <out_num+0x3e>
80100230:	68fb      	ldr	r3, [r7, #12]
80100232:	425b      	negs	r3, r3
80100234:	65fb      	str	r3, [r7, #92]	; 0x5c
80100236:	e001      	b.n	8010023c <out_num+0x42>
80100238:	68fb      	ldr	r3, [r7, #12]
8010023a:	65fb      	str	r3, [r7, #92]	; 0x5c
8010023c:	6dbb      	ldr	r3, [r7, #88]	; 0x58
8010023e:	3b01      	subs	r3, #1
80100240:	65bb      	str	r3, [r7, #88]	; 0x58
80100242:	68ba      	ldr	r2, [r7, #8]
80100244:	6dfb      	ldr	r3, [r7, #92]	; 0x5c
80100246:	4611      	mov	r1, r2
80100248:	4618      	mov	r0, r3
8010024a:	f000 facb 	bl	801007e4 <__aeabi_uidivmod>
8010024e:	460b      	mov	r3, r1
80100250:	461a      	mov	r2, r3
80100252:	f240 0304 	movw	r3, #4
80100256:	f2c8 0320 	movt	r3, #32800	; 0x8020
8010025a:	5c9a      	ldrb	r2, [r3, r2]
8010025c:	6dbb      	ldr	r3, [r7, #88]	; 0x58
8010025e:	701a      	strb	r2, [r3, #0]
80100260:	6d7b      	ldr	r3, [r7, #84]	; 0x54
80100262:	3301      	adds	r3, #1
80100264:	657b      	str	r3, [r7, #84]	; 0x54
80100266:	68bb      	ldr	r3, [r7, #8]
80100268:	4619      	mov	r1, r3
8010026a:	6df8      	ldr	r0, [r7, #92]	; 0x5c
8010026c:	f000 f98c 	bl	80100588 <__aeabi_uidiv>
80100270:	4603      	mov	r3, r0
80100272:	65fb      	str	r3, [r7, #92]	; 0x5c
80100274:	6dfb      	ldr	r3, [r7, #92]	; 0x5c
80100276:	2b00      	cmp	r3, #0
80100278:	d1e0      	bne.n	8010023c <out_num+0x42>
8010027a:	683b      	ldr	r3, [r7, #0]
8010027c:	2b00      	cmp	r3, #0
8010027e:	d014      	beq.n	801002aa <out_num+0xb0>
80100280:	6d7a      	ldr	r2, [r7, #84]	; 0x54
80100282:	683b      	ldr	r3, [r7, #0]
80100284:	429a      	cmp	r2, r3
80100286:	da10      	bge.n	801002aa <out_num+0xb0>
80100288:	683a      	ldr	r2, [r7, #0]
8010028a:	6d7b      	ldr	r3, [r7, #84]	; 0x54
8010028c:	1ad3      	subs	r3, r2, r3
8010028e:	653b      	str	r3, [r7, #80]	; 0x50
80100290:	e008      	b.n	801002a4 <out_num+0xaa>
80100292:	6dbb      	ldr	r3, [r7, #88]	; 0x58
80100294:	3b01      	subs	r3, #1
80100296:	65bb      	str	r3, [r7, #88]	; 0x58
80100298:	6dbb      	ldr	r3, [r7, #88]	; 0x58
8010029a:	79fa      	ldrb	r2, [r7, #7]
8010029c:	701a      	strb	r2, [r3, #0]
8010029e:	6d3b      	ldr	r3, [r7, #80]	; 0x50
801002a0:	3b01      	subs	r3, #1
801002a2:	653b      	str	r3, [r7, #80]	; 0x50
801002a4:	6d3b      	ldr	r3, [r7, #80]	; 0x50
801002a6:	2b00      	cmp	r3, #0
801002a8:	d1f3      	bne.n	80100292 <out_num+0x98>
801002aa:	68fb      	ldr	r3, [r7, #12]
801002ac:	2b00      	cmp	r3, #0
801002ae:	da05      	bge.n	801002bc <out_num+0xc2>
801002b0:	6dbb      	ldr	r3, [r7, #88]	; 0x58
801002b2:	3b01      	subs	r3, #1
801002b4:	65bb      	str	r3, [r7, #88]	; 0x58
801002b6:	6dbb      	ldr	r3, [r7, #88]	; 0x58
801002b8:	222d      	movs	r2, #45	; 0x2d
801002ba:	701a      	strb	r2, [r3, #0]
801002bc:	6db8      	ldr	r0, [r7, #88]	; 0x58
801002be:	f7ff ff87 	bl	801001d0 <outs>
801002c2:	4603      	mov	r3, r0
801002c4:	4618      	mov	r0, r3
801002c6:	3760      	adds	r7, #96	; 0x60
801002c8:	46bd      	mov	sp, r7
801002ca:	bd80      	pop	{r7, pc}

801002cc <my_vprintf>:
801002cc:	b580      	push	{r7, lr}
801002ce:	b084      	sub	sp, #16
801002d0:	af00      	add	r7, sp, #0
801002d2:	6078      	str	r0, [r7, #4]
801002d4:	6039      	str	r1, [r7, #0]
801002d6:	2320      	movs	r3, #32
801002d8:	73fb      	strb	r3, [r7, #15]
801002da:	2300      	movs	r3, #0
801002dc:	60bb      	str	r3, [r7, #8]
801002de:	e0b5      	b.n	8010044c <my_vprintf+0x180>
801002e0:	687b      	ldr	r3, [r7, #4]
801002e2:	781b      	ldrb	r3, [r3, #0]
801002e4:	2b25      	cmp	r3, #37	; 0x25
801002e6:	d005      	beq.n	801002f4 <my_vprintf+0x28>
801002e8:	687b      	ldr	r3, [r7, #4]
801002ea:	781b      	ldrb	r3, [r3, #0]
801002ec:	4618      	mov	r0, r3
801002ee:	f7ff ff63 	bl	801001b8 <outc>
801002f2:	e0a8      	b.n	80100446 <my_vprintf+0x17a>
801002f4:	2320      	movs	r3, #32
801002f6:	73fb      	strb	r3, [r7, #15]
801002f8:	2300      	movs	r3, #0
801002fa:	60bb      	str	r3, [r7, #8]
801002fc:	687b      	ldr	r3, [r7, #4]
801002fe:	3301      	adds	r3, #1
80100300:	607b      	str	r3, [r7, #4]
80100302:	687b      	ldr	r3, [r7, #4]
80100304:	781b      	ldrb	r3, [r3, #0]
80100306:	2b30      	cmp	r3, #48	; 0x30
80100308:	d114      	bne.n	80100334 <my_vprintf+0x68>
8010030a:	2330      	movs	r3, #48	; 0x30
8010030c:	73fb      	strb	r3, [r7, #15]
8010030e:	687b      	ldr	r3, [r7, #4]
80100310:	3301      	adds	r3, #1
80100312:	607b      	str	r3, [r7, #4]
80100314:	e00e      	b.n	80100334 <my_vprintf+0x68>
80100316:	68ba      	ldr	r2, [r7, #8]
80100318:	4613      	mov	r3, r2
8010031a:	009b      	lsls	r3, r3, #2
8010031c:	4413      	add	r3, r2
8010031e:	005b      	lsls	r3, r3, #1
80100320:	60bb      	str	r3, [r7, #8]
80100322:	687b      	ldr	r3, [r7, #4]
80100324:	781b      	ldrb	r3, [r3, #0]
80100326:	3b30      	subs	r3, #48	; 0x30
80100328:	68ba      	ldr	r2, [r7, #8]
8010032a:	4413      	add	r3, r2
8010032c:	60bb      	str	r3, [r7, #8]
8010032e:	687b      	ldr	r3, [r7, #4]
80100330:	3301      	adds	r3, #1
80100332:	607b      	str	r3, [r7, #4]
80100334:	687b      	ldr	r3, [r7, #4]
80100336:	781b      	ldrb	r3, [r3, #0]
80100338:	2b2f      	cmp	r3, #47	; 0x2f
8010033a:	d903      	bls.n	80100344 <my_vprintf+0x78>
8010033c:	687b      	ldr	r3, [r7, #4]
8010033e:	781b      	ldrb	r3, [r3, #0]
80100340:	2b39      	cmp	r3, #57	; 0x39
80100342:	d9e8      	bls.n	80100316 <my_vprintf+0x4a>
80100344:	687b      	ldr	r3, [r7, #4]
80100346:	781b      	ldrb	r3, [r3, #0]
80100348:	3b63      	subs	r3, #99	; 0x63
8010034a:	2b15      	cmp	r3, #21
8010034c:	d875      	bhi.n	8010043a <my_vprintf+0x16e>
8010034e:	a201      	add	r2, pc, #4	; (adr r2, 80100354 <my_vprintf+0x88>)
80100350:	f852 f023 	ldr.w	pc, [r2, r3, lsl #2]
80100354:	80100413 	andshi	r0, r0, r3, lsl r4
80100358:	801003ad 	andshi	r0, r0, sp, lsr #7
8010035c:	8010043b 	andshi	r0, r0, fp, lsr r4
80100360:	8010043b 	andshi	r0, r0, fp, lsr r4
80100364:	8010043b 	andshi	r0, r0, fp, lsr r4
80100368:	8010043b 	andshi	r0, r0, fp, lsr r4
8010036c:	8010043b 	andshi	r0, r0, fp, lsr r4
80100370:	8010043b 	andshi	r0, r0, fp, lsr r4
80100374:	8010043b 	andshi	r0, r0, fp, lsr r4
80100378:	8010043b 	andshi	r0, r0, fp, lsr r4
8010037c:	8010043b 	andshi	r0, r0, fp, lsr r4
80100380:	8010043b 	andshi	r0, r0, fp, lsr r4
80100384:	801003c5 	andshi	r0, r0, r5, asr #7
80100388:	8010043b 	andshi	r0, r0, fp, lsr r4
8010038c:	8010043b 	andshi	r0, r0, fp, lsr r4
80100390:	8010043b 	andshi	r0, r0, fp, lsr r4
80100394:	80100427 	andshi	r0, r0, r7, lsr #8
80100398:	8010043b 	andshi	r0, r0, fp, lsr r4
8010039c:	801003df 			; <UNDEFINED> instruction: 0x801003df
801003a0:	8010043b 	andshi	r0, r0, fp, lsr r4
801003a4:	8010043b 	andshi	r0, r0, fp, lsr r4
801003a8:	801003f9 			; <UNDEFINED> instruction: 0x801003f9
801003ac:	683b      	ldr	r3, [r7, #0]
801003ae:	3304      	adds	r3, #4
801003b0:	603b      	str	r3, [r7, #0]
801003b2:	683b      	ldr	r3, [r7, #0]
801003b4:	3b04      	subs	r3, #4
801003b6:	6818      	ldr	r0, [r3, #0]
801003b8:	7bfa      	ldrb	r2, [r7, #15]
801003ba:	68bb      	ldr	r3, [r7, #8]
801003bc:	210a      	movs	r1, #10
801003be:	f7ff ff1c 	bl	801001fa <out_num>
801003c2:	e040      	b.n	80100446 <my_vprintf+0x17a>
801003c4:	683b      	ldr	r3, [r7, #0]
801003c6:	3304      	adds	r3, #4
801003c8:	603b      	str	r3, [r7, #0]
801003ca:	683b      	ldr	r3, [r7, #0]
801003cc:	3b04      	subs	r3, #4
801003ce:	681b      	ldr	r3, [r3, #0]
801003d0:	4618      	mov	r0, r3
801003d2:	7bfa      	ldrb	r2, [r7, #15]
801003d4:	68bb      	ldr	r3, [r7, #8]
801003d6:	2108      	movs	r1, #8
801003d8:	f7ff ff0f 	bl	801001fa <out_num>
801003dc:	e033      	b.n	80100446 <my_vprintf+0x17a>
801003de:	683b      	ldr	r3, [r7, #0]
801003e0:	3304      	adds	r3, #4
801003e2:	603b      	str	r3, [r7, #0]
801003e4:	683b      	ldr	r3, [r7, #0]
801003e6:	3b04      	subs	r3, #4
801003e8:	681b      	ldr	r3, [r3, #0]
801003ea:	4618      	mov	r0, r3
801003ec:	7bfa      	ldrb	r2, [r7, #15]
801003ee:	68bb      	ldr	r3, [r7, #8]
801003f0:	210a      	movs	r1, #10
801003f2:	f7ff ff02 	bl	801001fa <out_num>
801003f6:	e026      	b.n	80100446 <my_vprintf+0x17a>
801003f8:	683b      	ldr	r3, [r7, #0]
801003fa:	3304      	adds	r3, #4
801003fc:	603b      	str	r3, [r7, #0]
801003fe:	683b      	ldr	r3, [r7, #0]
80100400:	3b04      	subs	r3, #4
80100402:	681b      	ldr	r3, [r3, #0]
80100404:	4618      	mov	r0, r3
80100406:	7bfa      	ldrb	r2, [r7, #15]
80100408:	68bb      	ldr	r3, [r7, #8]
8010040a:	2110      	movs	r1, #16
8010040c:	f7ff fef5 	bl	801001fa <out_num>
80100410:	e019      	b.n	80100446 <my_vprintf+0x17a>
80100412:	683b      	ldr	r3, [r7, #0]
80100414:	3304      	adds	r3, #4
80100416:	603b      	str	r3, [r7, #0]
80100418:	683b      	ldr	r3, [r7, #0]
8010041a:	3b04      	subs	r3, #4
8010041c:	681b      	ldr	r3, [r3, #0]
8010041e:	4618      	mov	r0, r3
80100420:	f7ff feca 	bl	801001b8 <outc>
80100424:	e00f      	b.n	80100446 <my_vprintf+0x17a>
80100426:	683b      	ldr	r3, [r7, #0]
80100428:	3304      	adds	r3, #4
8010042a:	603b      	str	r3, [r7, #0]
8010042c:	683b      	ldr	r3, [r7, #0]
8010042e:	3b04      	subs	r3, #4
80100430:	681b      	ldr	r3, [r3, #0]
80100432:	4618      	mov	r0, r3
80100434:	f7ff fecc 	bl	801001d0 <outs>
80100438:	e005      	b.n	80100446 <my_vprintf+0x17a>
8010043a:	687b      	ldr	r3, [r7, #4]
8010043c:	781b      	ldrb	r3, [r3, #0]
8010043e:	4618      	mov	r0, r3
80100440:	f7ff feba 	bl	801001b8 <outc>
80100444:	bf00      	nop
80100446:	687b      	ldr	r3, [r7, #4]
80100448:	3301      	adds	r3, #1
8010044a:	607b      	str	r3, [r7, #4]
8010044c:	687b      	ldr	r3, [r7, #4]
8010044e:	781b      	ldrb	r3, [r3, #0]
80100450:	2b00      	cmp	r3, #0
80100452:	f47f af45 	bne.w	801002e0 <my_vprintf+0x14>
80100456:	2300      	movs	r3, #0
80100458:	4618      	mov	r0, r3
8010045a:	3710      	adds	r7, #16
8010045c:	46bd      	mov	sp, r7
8010045e:	bd80      	pop	{r7, pc}

80100460 <printf>:
80100460:	b40f      	push	{r0, r1, r2, r3}
80100462:	b580      	push	{r7, lr}
80100464:	b082      	sub	sp, #8
80100466:	af00      	add	r7, sp, #0
80100468:	f107 0314 	add.w	r3, r7, #20
8010046c:	607b      	str	r3, [r7, #4]
8010046e:	693b      	ldr	r3, [r7, #16]
80100470:	6879      	ldr	r1, [r7, #4]
80100472:	4618      	mov	r0, r3
80100474:	f7ff ff2a 	bl	801002cc <my_vprintf>
80100478:	2300      	movs	r3, #0
8010047a:	607b      	str	r3, [r7, #4]
8010047c:	2300      	movs	r3, #0
8010047e:	4618      	mov	r0, r3
80100480:	3708      	adds	r7, #8
80100482:	46bd      	mov	sp, r7
80100484:	e8bd 4080 	ldmia.w	sp!, {r7, lr}
80100488:	b004      	add	sp, #16
8010048a:	4770      	bx	lr

8010048c <my_printf_test>:
8010048c:	b580      	push	{r7, lr}
8010048e:	af00      	add	r7, sp, #0
80100490:	f640 0010 	movw	r0, #2064	; 0x810
80100494:	f2c8 0010 	movt	r0, #32784	; 0x8010
80100498:	f7ff ffe2 	bl	80100460 <printf>
8010049c:	2261      	movs	r2, #97	; 0x61
8010049e:	2141      	movs	r1, #65	; 0x41
801004a0:	f640 003c 	movw	r0, #2108	; 0x83c
801004a4:	f2c8 0010 	movt	r0, #32784	; 0x8010
801004a8:	f7ff ffda 	bl	80100460 <printf>
801004ac:	f24e 2140 	movw	r1, #57920	; 0xe240
801004b0:	f2c0 0101 	movt	r1, #1
801004b4:	f640 005c 	movw	r0, #2140	; 0x85c
801004b8:	f2c8 0010 	movt	r0, #32784	; 0x8010
801004bc:	f7ff ffd0 	bl	80100460 <printf>
801004c0:	f44f 51ee 	mov.w	r1, #7616	; 0x1dc0
801004c4:	f6cf 71fe 	movt	r1, #65534	; 0xfffe
801004c8:	f640 005c 	movw	r0, #2140	; 0x85c
801004cc:	f2c8 0010 	movt	r0, #32784	; 0x8010
801004d0:	f7ff ffc6 	bl	80100460 <printf>
801004d4:	f245 51aa 	movw	r1, #21930	; 0x55aa
801004d8:	f2c5 51aa 	movt	r1, #21930	; 0x55aa
801004dc:	f640 0078 	movw	r0, #2168	; 0x878
801004e0:	f2c8 0010 	movt	r0, #32784	; 0x8010
801004e4:	f7ff ffbc 	bl	80100460 <printf>
801004e8:	f640 0194 	movw	r1, #2196	; 0x894
801004ec:	f2c8 0110 	movt	r1, #32784	; 0x8010
801004f0:	f640 00a4 	movw	r0, #2212	; 0x8a4
801004f4:	f2c8 0010 	movt	r0, #32784	; 0x8010
801004f8:	f7ff ffb2 	bl	80100460 <printf>
801004fc:	f243 0139 	movw	r1, #12345	; 0x3039
80100500:	f640 00c0 	movw	r0, #2240	; 0x8c0
80100504:	f2c8 0010 	movt	r0, #32784	; 0x8010
80100508:	f7ff ffaa 	bl	80100460 <printf>
8010050c:	f243 0139 	movw	r1, #12345	; 0x3039
80100510:	f640 00cc 	movw	r0, #2252	; 0x8cc
80100514:	f2c8 0010 	movt	r0, #32784	; 0x8010
80100518:	f7ff ffa2 	bl	80100460 <printf>
8010051c:	f242 3145 	movw	r1, #9029	; 0x2345
80100520:	f2c0 0101 	movt	r1, #1
80100524:	f640 00d8 	movw	r0, #2264	; 0x8d8
80100528:	f2c8 0010 	movt	r0, #32784	; 0x8010
8010052c:	f7ff ff98 	bl	80100460 <printf>
80100530:	f242 3145 	movw	r1, #9029	; 0x2345
80100534:	f2c0 0101 	movt	r1, #1
80100538:	f640 00e8 	movw	r0, #2280	; 0x8e8
8010053c:	f2c8 0010 	movt	r0, #32784	; 0x8010
80100540:	f7ff ff8e 	bl	80100460 <printf>
80100544:	2101      	movs	r1, #1
80100546:	f640 00f4 	movw	r0, #2292	; 0x8f4
8010054a:	f2c8 0010 	movt	r0, #32784	; 0x8010
8010054e:	f7ff ff87 	bl	80100460 <printf>
80100552:	2101      	movs	r1, #1
80100554:	f640 1004 	movw	r0, #2308	; 0x904
80100558:	f2c8 0010 	movt	r0, #32784	; 0x8010
8010055c:	f7ff ff80 	bl	80100460 <printf>
80100560:	2101      	movs	r1, #1
80100562:	f640 1010 	movw	r0, #2320	; 0x910
80100566:	f2c8 0010 	movt	r0, #32784	; 0x8010
8010056a:	f7ff ff79 	bl	80100460 <printf>
8010056e:	2101      	movs	r1, #1
80100570:	f640 101c 	movw	r0, #2332	; 0x91c
80100574:	f2c8 0010 	movt	r0, #32784	; 0x8010
80100578:	f7ff ff72 	bl	80100460 <printf>
8010057c:	2300      	movs	r3, #0
8010057e:	4618      	mov	r0, r3
80100580:	bd80      	pop	{r7, pc}
80100582:	bf00      	nop
80100584:	0000      	movs	r0, r0
	...

80100588 <__aeabi_uidiv>:
80100588:	1e4a      	subs	r2, r1, #1
8010058a:	bf08      	it	eq
8010058c:	4770      	bxeq	lr
8010058e:	f0c0 8124 	bcc.w	801007da <__aeabi_uidiv+0x252>
80100592:	4288      	cmp	r0, r1
80100594:	f240 8116 	bls.w	801007c4 <__aeabi_uidiv+0x23c>
80100598:	4211      	tst	r1, r2
8010059a:	f000 8117 	beq.w	801007cc <__aeabi_uidiv+0x244>
8010059e:	fab0 f380 	clz	r3, r0
801005a2:	fab1 f281 	clz	r2, r1
801005a6:	eba2 0303 	sub.w	r3, r2, r3
801005aa:	f1c3 031f 	rsb	r3, r3, #31
801005ae:	a204      	add	r2, pc, #16	; (adr r2, 801005c0 <__aeabi_uidiv+0x38>)
801005b0:	eb02 1303 	add.w	r3, r2, r3, lsl #4
801005b4:	f04f 0200 	mov.w	r2, #0
801005b8:	469f      	mov	pc, r3
801005ba:	bf00      	nop
801005bc:	f3af 8000 	nop.w
801005c0:	ebb0 7fc1 	cmp.w	r0, r1, lsl #31
801005c4:	bf00      	nop
801005c6:	eb42 0202 	adc.w	r2, r2, r2
801005ca:	bf28      	it	cs
801005cc:	eba0 70c1 	subcs.w	r0, r0, r1, lsl #31
801005d0:	ebb0 7f81 	cmp.w	r0, r1, lsl #30
801005d4:	bf00      	nop
801005d6:	eb42 0202 	adc.w	r2, r2, r2
801005da:	bf28      	it	cs
801005dc:	eba0 7081 	subcs.w	r0, r0, r1, lsl #30
801005e0:	ebb0 7f41 	cmp.w	r0, r1, lsl #29
801005e4:	bf00      	nop
801005e6:	eb42 0202 	adc.w	r2, r2, r2
801005ea:	bf28      	it	cs
801005ec:	eba0 7041 	subcs.w	r0, r0, r1, lsl #29
801005f0:	ebb0 7f01 	cmp.w	r0, r1, lsl #28
801005f4:	bf00      	nop
801005f6:	eb42 0202 	adc.w	r2, r2, r2
801005fa:	bf28      	it	cs
801005fc:	eba0 7001 	subcs.w	r0, r0, r1, lsl #28
80100600:	ebb0 6fc1 	cmp.w	r0, r1, lsl #27
80100604:	bf00      	nop
80100606:	eb42 0202 	adc.w	r2, r2, r2
8010060a:	bf28      	it	cs
8010060c:	eba0 60c1 	subcs.w	r0, r0, r1, lsl #27
80100610:	ebb0 6f81 	cmp.w	r0, r1, lsl #26
80100614:	bf00      	nop
80100616:	eb42 0202 	adc.w	r2, r2, r2
8010061a:	bf28      	it	cs
8010061c:	eba0 6081 	subcs.w	r0, r0, r1, lsl #26
80100620:	ebb0 6f41 	cmp.w	r0, r1, lsl #25
80100624:	bf00      	nop
80100626:	eb42 0202 	adc.w	r2, r2, r2
8010062a:	bf28      	it	cs
8010062c:	eba0 6041 	subcs.w	r0, r0, r1, lsl #25
80100630:	ebb0 6f01 	cmp.w	r0, r1, lsl #24
80100634:	bf00      	nop
80100636:	eb42 0202 	adc.w	r2, r2, r2
8010063a:	bf28      	it	cs
8010063c:	eba0 6001 	subcs.w	r0, r0, r1, lsl #24
80100640:	ebb0 5fc1 	cmp.w	r0, r1, lsl #23
80100644:	bf00      	nop
80100646:	eb42 0202 	adc.w	r2, r2, r2
8010064a:	bf28      	it	cs
8010064c:	eba0 50c1 	subcs.w	r0, r0, r1, lsl #23
80100650:	ebb0 5f81 	cmp.w	r0, r1, lsl #22
80100654:	bf00      	nop
80100656:	eb42 0202 	adc.w	r2, r2, r2
8010065a:	bf28      	it	cs
8010065c:	eba0 5081 	subcs.w	r0, r0, r1, lsl #22
80100660:	ebb0 5f41 	cmp.w	r0, r1, lsl #21
80100664:	bf00      	nop
80100666:	eb42 0202 	adc.w	r2, r2, r2
8010066a:	bf28      	it	cs
8010066c:	eba0 5041 	subcs.w	r0, r0, r1, lsl #21
80100670:	ebb0 5f01 	cmp.w	r0, r1, lsl #20
80100674:	bf00      	nop
80100676:	eb42 0202 	adc.w	r2, r2, r2
8010067a:	bf28      	it	cs
8010067c:	eba0 5001 	subcs.w	r0, r0, r1, lsl #20
80100680:	ebb0 4fc1 	cmp.w	r0, r1, lsl #19
80100684:	bf00      	nop
80100686:	eb42 0202 	adc.w	r2, r2, r2
8010068a:	bf28      	it	cs
8010068c:	eba0 40c1 	subcs.w	r0, r0, r1, lsl #19
80100690:	ebb0 4f81 	cmp.w	r0, r1, lsl #18
80100694:	bf00      	nop
80100696:	eb42 0202 	adc.w	r2, r2, r2
8010069a:	bf28      	it	cs
8010069c:	eba0 4081 	subcs.w	r0, r0, r1, lsl #18
801006a0:	ebb0 4f41 	cmp.w	r0, r1, lsl #17
801006a4:	bf00      	nop
801006a6:	eb42 0202 	adc.w	r2, r2, r2
801006aa:	bf28      	it	cs
801006ac:	eba0 4041 	subcs.w	r0, r0, r1, lsl #17
801006b0:	ebb0 4f01 	cmp.w	r0, r1, lsl #16
801006b4:	bf00      	nop
801006b6:	eb42 0202 	adc.w	r2, r2, r2
801006ba:	bf28      	it	cs
801006bc:	eba0 4001 	subcs.w	r0, r0, r1, lsl #16
801006c0:	ebb0 3fc1 	cmp.w	r0, r1, lsl #15
801006c4:	bf00      	nop
801006c6:	eb42 0202 	adc.w	r2, r2, r2
801006ca:	bf28      	it	cs
801006cc:	eba0 30c1 	subcs.w	r0, r0, r1, lsl #15
801006d0:	ebb0 3f81 	cmp.w	r0, r1, lsl #14
801006d4:	bf00      	nop
801006d6:	eb42 0202 	adc.w	r2, r2, r2
801006da:	bf28      	it	cs
801006dc:	eba0 3081 	subcs.w	r0, r0, r1, lsl #14
801006e0:	ebb0 3f41 	cmp.w	r0, r1, lsl #13
801006e4:	bf00      	nop
801006e6:	eb42 0202 	adc.w	r2, r2, r2
801006ea:	bf28      	it	cs
801006ec:	eba0 3041 	subcs.w	r0, r0, r1, lsl #13
801006f0:	ebb0 3f01 	cmp.w	r0, r1, lsl #12
801006f4:	bf00      	nop
801006f6:	eb42 0202 	adc.w	r2, r2, r2
801006fa:	bf28      	it	cs
801006fc:	eba0 3001 	subcs.w	r0, r0, r1, lsl #12
80100700:	ebb0 2fc1 	cmp.w	r0, r1, lsl #11
80100704:	bf00      	nop
80100706:	eb42 0202 	adc.w	r2, r2, r2
8010070a:	bf28      	it	cs
8010070c:	eba0 20c1 	subcs.w	r0, r0, r1, lsl #11
80100710:	ebb0 2f81 	cmp.w	r0, r1, lsl #10
80100714:	bf00      	nop
80100716:	eb42 0202 	adc.w	r2, r2, r2
8010071a:	bf28      	it	cs
8010071c:	eba0 2081 	subcs.w	r0, r0, r1, lsl #10
80100720:	ebb0 2f41 	cmp.w	r0, r1, lsl #9
80100724:	bf00      	nop
80100726:	eb42 0202 	adc.w	r2, r2, r2
8010072a:	bf28      	it	cs
8010072c:	eba0 2041 	subcs.w	r0, r0, r1, lsl #9
80100730:	ebb0 2f01 	cmp.w	r0, r1, lsl #8
80100734:	bf00      	nop
80100736:	eb42 0202 	adc.w	r2, r2, r2
8010073a:	bf28      	it	cs
8010073c:	eba0 2001 	subcs.w	r0, r0, r1, lsl #8
80100740:	ebb0 1fc1 	cmp.w	r0, r1, lsl #7
80100744:	bf00      	nop
80100746:	eb42 0202 	adc.w	r2, r2, r2
8010074a:	bf28      	it	cs
8010074c:	eba0 10c1 	subcs.w	r0, r0, r1, lsl #7
80100750:	ebb0 1f81 	cmp.w	r0, r1, lsl #6
80100754:	bf00      	nop
80100756:	eb42 0202 	adc.w	r2, r2, r2
8010075a:	bf28      	it	cs
8010075c:	eba0 1081 	subcs.w	r0, r0, r1, lsl #6
80100760:	ebb0 1f41 	cmp.w	r0, r1, lsl #5
80100764:	bf00      	nop
80100766:	eb42 0202 	adc.w	r2, r2, r2
8010076a:	bf28      	it	cs
8010076c:	eba0 1041 	subcs.w	r0, r0, r1, lsl #5
80100770:	ebb0 1f01 	cmp.w	r0, r1, lsl #4
80100774:	bf00      	nop
80100776:	eb42 0202 	adc.w	r2, r2, r2
8010077a:	bf28      	it	cs
8010077c:	eba0 1001 	subcs.w	r0, r0, r1, lsl #4
80100780:	ebb0 0fc1 	cmp.w	r0, r1, lsl #3
80100784:	bf00      	nop
80100786:	eb42 0202 	adc.w	r2, r2, r2
8010078a:	bf28      	it	cs
8010078c:	eba0 00c1 	subcs.w	r0, r0, r1, lsl #3
80100790:	ebb0 0f81 	cmp.w	r0, r1, lsl #2
80100794:	bf00      	nop
80100796:	eb42 0202 	adc.w	r2, r2, r2
8010079a:	bf28      	it	cs
8010079c:	eba0 0081 	subcs.w	r0, r0, r1, lsl #2
801007a0:	ebb0 0f41 	cmp.w	r0, r1, lsl #1
801007a4:	bf00      	nop
801007a6:	eb42 0202 	adc.w	r2, r2, r2
801007aa:	bf28      	it	cs
801007ac:	eba0 0041 	subcs.w	r0, r0, r1, lsl #1
801007b0:	ebb0 0f01 	cmp.w	r0, r1
801007b4:	bf00      	nop
801007b6:	eb42 0202 	adc.w	r2, r2, r2
801007ba:	bf28      	it	cs
801007bc:	eba0 0001 	subcs.w	r0, r0, r1
801007c0:	4610      	mov	r0, r2
801007c2:	4770      	bx	lr
801007c4:	bf0c      	ite	eq
801007c6:	2001      	moveq	r0, #1
801007c8:	2000      	movne	r0, #0
801007ca:	4770      	bx	lr
801007cc:	fab1 f281 	clz	r2, r1
801007d0:	f1c2 021f 	rsb	r2, r2, #31
801007d4:	fa20 f002 	lsr.w	r0, r0, r2
801007d8:	4770      	bx	lr
801007da:	b108      	cbz	r0, 801007e0 <__aeabi_uidiv+0x258>
801007dc:	f04f 30ff 	mov.w	r0, #4294967295	; 0xffffffff
801007e0:	f000 b80e 	b.w	80100800 <__aeabi_idiv0>

801007e4 <__aeabi_uidivmod>:
801007e4:	2900      	cmp	r1, #0
801007e6:	d0f8      	beq.n	801007da <__aeabi_uidiv+0x252>
801007e8:	e92d 4003 	stmdb	sp!, {r0, r1, lr}
801007ec:	f7ff fecc 	bl	80100588 <__aeabi_uidiv>
801007f0:	e8bd 4006 	ldmia.w	sp!, {r1, r2, lr}
801007f4:	fb02 f300 	mul.w	r3, r2, r0
801007f8:	eba1 0103 	sub.w	r1, r1, r3
801007fc:	4770      	bx	lr
801007fe:	bf00      	nop

80100800 <__aeabi_idiv0>:
80100800:	b502      	push	{r1, lr}
80100802:	f04f 0008 	mov.w	r0, #8
80100806:	f7ff fcb3 	bl	80100170 <raise>
8010080a:	bd02      	pop	{r1, pc}

Disassembly of section .rodata:

8010080c <g_charB>:
8010080c:	00000042 	andeq	r0, r0, r2, asr #32

80100810 <.LC0>:
80100810:	73696854 	cmnvc	r9, #84, 16	; 0x540000
80100814:	20736920 	rsbscs	r6, r3, r0, lsr #18
80100818:	2e777777 	mrccs	7, 3, r7, cr7, cr7, {3}
8010081c:	61303031 	teqvs	r0, r1, lsr r0
80100820:	6f2e6b73 	svcvs	0x002e6b73
80100824:	20206772 	eorcs	r6, r0, r2, ror r7
80100828:	5f796d20 	svcpl	0x00796d20
8010082c:	6e697270 	mcrvs	2, 3, r7, cr9, cr0, {3}
80100830:	74206674 	strtvc	r6, [r0], #-1652	; 0xfffff98c
80100834:	0a747365 	beq	81e1d5d0 <__bss_end+0x1c1d5ab>
80100838:	0000000d 	andeq	r0, r0, sp

8010083c <.LC1>:
8010083c:	74736574 	ldrbtvc	r6, [r3], #-1396	; 0xfffffa8c
80100840:	61686320 	cmnvs	r8, r0, lsr #6
80100844:	20202072 	eorcs	r2, r0, r2, ror r0
80100848:	20202020 	eorcs	r2, r0, r0, lsr #32
8010084c:	20202020 	eorcs	r2, r0, r0, lsr #32
80100850:	2c63253d 	cfstr64cs	mvdx2, [r3], #-244	; 0xffffff0c
80100854:	0d0a6325 	stceq	3, cr6, [sl, #-148]	; 0xffffff6c
80100858:	00000000 	andeq	r0, r0, r0

8010085c <.LC2>:
8010085c:	74736574 	ldrbtvc	r6, [r3], #-1396	; 0xfffffa8c
80100860:	63656420 	cmnvs	r5, #32, 8	; 0x20000000
80100864:	6c616d69 	stclvs	13, cr6, [r1], #-420	; 0xfffffe5c
80100868:	6d756e20 	ldclvs	14, cr6, [r5, #-128]!	; 0xffffff80
8010086c:	20726562 	rsbscs	r6, r2, r2, ror #10
80100870:	0a64253d 	beq	81a09d6c <__bss_end+0x1809d47>
80100874:	0000000d 	andeq	r0, r0, sp

80100878 <.LC3>:
80100878:	74736574 	ldrbtvc	r6, [r3], #-1396	; 0xfffffa8c
8010087c:	78656820 	stmdavc	r5!, {r5, fp, sp, lr}^
80100880:	20202020 	eorcs	r2, r0, r0, lsr #32
80100884:	6d756e20 	ldclvs	14, cr6, [r5, #-128]!	; 0xffffff80
80100888:	20726562 	rsbscs	r6, r2, r2, ror #10
8010088c:	2578303d 	ldrbcs	r3, [r8, #-61]!	; 0xffffffc3
80100890:	000d0a78 	andeq	r0, sp, r8, ror sl

80100894 <.LC4>:
80100894:	2e777777 	mrccs	7, 3, r7, cr7, cr7, {3}
80100898:	61303031 	teqvs	r0, r1, lsr r0
8010089c:	6f2e6b73 	svcvs	0x002e6b73
801008a0:	00006772 	andeq	r6, r0, r2, ror r7

801008a4 <.LC5>:
801008a4:	74736574 	ldrbtvc	r6, [r3], #-1396	; 0xfffffa8c
801008a8:	72747320 	rsbsvc	r7, r4, #32, 6	; 0x80000000
801008ac:	20676e69 	rsbcs	r6, r7, r9, ror #28
801008b0:	20202020 	eorcs	r2, r0, r0, lsr #32
801008b4:	20202020 	eorcs	r2, r0, r0, lsr #32
801008b8:	0a73253d 	beq	81dc9db4 <__bss_end+0x1bc9d8f>
801008bc:	0000000d 	andeq	r0, r0, sp

801008c0 <.LC6>:
801008c0:	3d6d756e 	cfstr64cc	mvdx7, [sp, #-440]!	; 0xfffffe48
801008c4:	64383025 	ldrtvs	r3, [r8], #-37	; 0xffffffdb
801008c8:	00000d0a 	andeq	r0, r0, sl, lsl #26

801008cc <.LC7>:
801008cc:	3d6d756e 	cfstr64cc	mvdx7, [sp, #-440]!	; 0xfffffe48
801008d0:	0a643825 	beq	81a0e96c <__bss_end+0x180e947>
801008d4:	0000000d 	andeq	r0, r0, sp

801008d8 <.LC8>:
801008d8:	3d6d756e 	cfstr64cc	mvdx7, [sp, #-440]!	; 0xfffffe48
801008dc:	30257830 	eorcc	r7, r5, r0, lsr r8
801008e0:	0d0a7838 	stceq	8, cr7, [sl, #-224]	; 0xffffff20
801008e4:	00000000 	andeq	r0, r0, r0

801008e8 <.LC9>:
801008e8:	3d6d756e 	cfstr64cc	mvdx7, [sp, #-440]!	; 0xfffffe48
801008ec:	38257830 	stmdacc	r5!, {r4, r5, fp, ip, sp, lr}
801008f0:	000d0a78 	andeq	r0, sp, r8, ror sl

801008f4 <.LC10>:
801008f4:	3d6d756e 	cfstr64cc	mvdx7, [sp, #-440]!	; 0xfffffe48
801008f8:	30257830 	eorcc	r7, r5, r0, lsr r8
801008fc:	0d0a7832 	stceq	8, cr7, [sl, #-200]	; 0xffffff38
80100900:	00000000 	andeq	r0, r0, r0

80100904 <.LC11>:
80100904:	3d6d756e 	cfstr64cc	mvdx7, [sp, #-440]!	; 0xfffffe48
80100908:	32257830 	eorcc	r7, r5, #48, 16	; 0x300000
8010090c:	000d0a78 	andeq	r0, sp, r8, ror sl

80100910 <.LC12>:
80100910:	3d6d756e 	cfstr64cc	mvdx7, [sp, #-440]!	; 0xfffffe48
80100914:	64353025 	ldrtvs	r3, [r5], #-37	; 0xffffffdb
80100918:	00000d0a 	andeq	r0, r0, sl, lsl #26

8010091c <.LC13>:
8010091c:	3d6d756e 	cfstr64cc	mvdx7, [sp, #-440]!	; 0xfffffe48
80100920:	0a643525 	beq	81a0ddbc <__bss_end+0x180dd97>
80100924:	Address 0x0000000080100924 is out of bounds.


Disassembly of section .data:

80200000 <g_charA>:
80200000:	00000041 	andeq	r0, r0, r1, asr #32

80200004 <hex_tab>:
80200004:	33323130 	teqcc	r2, #48, 2
80200008:	37363534 			; <UNDEFINED> instruction: 0x37363534
8020000c:	62613938 	rsbvs	r3, r1, #56, 18	; 0xe0000
80200010:	66656463 	strbtvs	r6, [r5], -r3, ror #8

Disassembly of section .bss:

80200014 <__bss_start>:
80200014:	00000000 	andeq	r0, r0, r0

80200018 <IOMUXC_SW_MUX_CTL_PAD_UART1_RX_DATA>:
80200018:	00000000 	andeq	r0, r0, r0

8020001c <g_intA>:
8020001c:	00000000 	andeq	r0, r0, r0

80200020 <g_intB>:
80200020:	00000000 	andeq	r0, r0, r0

80200024 <g_charC>:
	...

