
simple_test.elf:     file format elf32-littlearm


Disassembly of section .text:

80100000 <_start>:
80100000:	e59fd028 	ldr	sp, [pc, #40]	; 80100030 <clean+0x14>
80100004:	eb000001 	bl	80100010 <clean_bss>
80100008:	fa00006a 	blx	801001b8 <main>

8010000c <halt>:
8010000c:	eafffffe 	b	8010000c <halt>

80100010 <clean_bss>:
80100010:	e59f101c 	ldr	r1, [pc, #28]	; 80100034 <clean+0x18>
80100014:	e59f201c 	ldr	r2, [pc, #28]	; 80100038 <clean+0x1c>
80100018:	e3a03000 	mov	r3, #0

8010001c <clean>:
8010001c:	e5813000 	str	r3, [r1]
80100020:	e2811004 	add	r1, r1, #4
80100024:	e1510002 	cmp	r1, r2
80100028:	1afffffb 	bne	8010001c <clean>
8010002c:	e1a0f00e 	mov	pc, lr
80100030:	80200000 	eorhi	r0, r0, r0
80100034:	8010091c 	andshi	r0, r0, ip, lsl r9
80100038:	80100960 	andshi	r0, r0, r0, ror #18

8010003c <lcd_test>:
8010003c:	b580      	push	{r7, lr}
8010003e:	b088      	sub	sp, #32
80100040:	af00      	add	r7, sp, #0
80100042:	f000 fa23 	bl	8010048c <lcd_enable>
80100046:	463b      	mov	r3, r7
80100048:	1d3a      	adds	r2, r7, #4
8010004a:	f107 0108 	add.w	r1, r7, #8
8010004e:	f107 000c 	add.w	r0, r7, #12
80100052:	f000 f9ee 	bl	80100432 <get_lcd_params>
80100056:	683b      	ldr	r3, [r7, #0]
80100058:	2b10      	cmp	r3, #16
8010005a:	d153      	bne.n	80100104 <lcd_test+0xc8>
8010005c:	68fb      	ldr	r3, [r7, #12]
8010005e:	617b      	str	r3, [r7, #20]
80100060:	2300      	movs	r3, #0
80100062:	61fb      	str	r3, [r7, #28]
80100064:	e012      	b.n	8010008c <lcd_test+0x50>
80100066:	2300      	movs	r3, #0
80100068:	61bb      	str	r3, [r7, #24]
8010006a:	e008      	b.n	8010007e <lcd_test+0x42>
8010006c:	697b      	ldr	r3, [r7, #20]
8010006e:	1c9a      	adds	r2, r3, #2
80100070:	617a      	str	r2, [r7, #20]
80100072:	f44f 42f8 	mov.w	r2, #31744	; 0x7c00
80100076:	801a      	strh	r2, [r3, #0]
80100078:	69bb      	ldr	r3, [r7, #24]
8010007a:	3301      	adds	r3, #1
8010007c:	61bb      	str	r3, [r7, #24]
8010007e:	687b      	ldr	r3, [r7, #4]
80100080:	69ba      	ldr	r2, [r7, #24]
80100082:	429a      	cmp	r2, r3
80100084:	dbf2      	blt.n	8010006c <lcd_test+0x30>
80100086:	69fb      	ldr	r3, [r7, #28]
80100088:	3301      	adds	r3, #1
8010008a:	61fb      	str	r3, [r7, #28]
8010008c:	68bb      	ldr	r3, [r7, #8]
8010008e:	69fa      	ldr	r2, [r7, #28]
80100090:	429a      	cmp	r2, r3
80100092:	dbe8      	blt.n	80100066 <lcd_test+0x2a>
80100094:	68fb      	ldr	r3, [r7, #12]
80100096:	617b      	str	r3, [r7, #20]
80100098:	2300      	movs	r3, #0
8010009a:	61fb      	str	r3, [r7, #28]
8010009c:	e012      	b.n	801000c4 <lcd_test+0x88>
8010009e:	2300      	movs	r3, #0
801000a0:	61bb      	str	r3, [r7, #24]
801000a2:	e008      	b.n	801000b6 <lcd_test+0x7a>
801000a4:	697b      	ldr	r3, [r7, #20]
801000a6:	1c9a      	adds	r2, r3, #2
801000a8:	617a      	str	r2, [r7, #20]
801000aa:	f44f 7278 	mov.w	r2, #992	; 0x3e0
801000ae:	801a      	strh	r2, [r3, #0]
801000b0:	69bb      	ldr	r3, [r7, #24]
801000b2:	3301      	adds	r3, #1
801000b4:	61bb      	str	r3, [r7, #24]
801000b6:	687b      	ldr	r3, [r7, #4]
801000b8:	69ba      	ldr	r2, [r7, #24]
801000ba:	429a      	cmp	r2, r3
801000bc:	dbf2      	blt.n	801000a4 <lcd_test+0x68>
801000be:	69fb      	ldr	r3, [r7, #28]
801000c0:	3301      	adds	r3, #1
801000c2:	61fb      	str	r3, [r7, #28]
801000c4:	68bb      	ldr	r3, [r7, #8]
801000c6:	69fa      	ldr	r2, [r7, #28]
801000c8:	429a      	cmp	r2, r3
801000ca:	dbe8      	blt.n	8010009e <lcd_test+0x62>
801000cc:	68fb      	ldr	r3, [r7, #12]
801000ce:	617b      	str	r3, [r7, #20]
801000d0:	2300      	movs	r3, #0
801000d2:	61fb      	str	r3, [r7, #28]
801000d4:	e011      	b.n	801000fa <lcd_test+0xbe>
801000d6:	2300      	movs	r3, #0
801000d8:	61bb      	str	r3, [r7, #24]
801000da:	e007      	b.n	801000ec <lcd_test+0xb0>
801000dc:	697b      	ldr	r3, [r7, #20]
801000de:	1c9a      	adds	r2, r3, #2
801000e0:	617a      	str	r2, [r7, #20]
801000e2:	221f      	movs	r2, #31
801000e4:	801a      	strh	r2, [r3, #0]
801000e6:	69bb      	ldr	r3, [r7, #24]
801000e8:	3301      	adds	r3, #1
801000ea:	61bb      	str	r3, [r7, #24]
801000ec:	687b      	ldr	r3, [r7, #4]
801000ee:	69ba      	ldr	r2, [r7, #24]
801000f0:	429a      	cmp	r2, r3
801000f2:	dbf3      	blt.n	801000dc <lcd_test+0xa0>
801000f4:	69fb      	ldr	r3, [r7, #28]
801000f6:	3301      	adds	r3, #1
801000f8:	61fb      	str	r3, [r7, #28]
801000fa:	68bb      	ldr	r3, [r7, #8]
801000fc:	69fa      	ldr	r2, [r7, #28]
801000fe:	429a      	cmp	r2, r3
80100100:	dbe9      	blt.n	801000d6 <lcd_test+0x9a>
80100102:	e055      	b.n	801001b0 <lcd_test+0x174>
80100104:	683b      	ldr	r3, [r7, #0]
80100106:	2b20      	cmp	r3, #32
80100108:	d152      	bne.n	801001b0 <lcd_test+0x174>
8010010a:	68fb      	ldr	r3, [r7, #12]
8010010c:	613b      	str	r3, [r7, #16]
8010010e:	2300      	movs	r3, #0
80100110:	61fb      	str	r3, [r7, #28]
80100112:	e012      	b.n	8010013a <lcd_test+0xfe>
80100114:	2300      	movs	r3, #0
80100116:	61bb      	str	r3, [r7, #24]
80100118:	e008      	b.n	8010012c <lcd_test+0xf0>
8010011a:	693b      	ldr	r3, [r7, #16]
8010011c:	1d1a      	adds	r2, r3, #4
8010011e:	613a      	str	r2, [r7, #16]
80100120:	f44f 027f 	mov.w	r2, #16711680	; 0xff0000
80100124:	601a      	str	r2, [r3, #0]
80100126:	69bb      	ldr	r3, [r7, #24]
80100128:	3301      	adds	r3, #1
8010012a:	61bb      	str	r3, [r7, #24]
8010012c:	687b      	ldr	r3, [r7, #4]
8010012e:	69ba      	ldr	r2, [r7, #24]
80100130:	429a      	cmp	r2, r3
80100132:	dbf2      	blt.n	8010011a <lcd_test+0xde>
80100134:	69fb      	ldr	r3, [r7, #28]
80100136:	3301      	adds	r3, #1
80100138:	61fb      	str	r3, [r7, #28]
8010013a:	68bb      	ldr	r3, [r7, #8]
8010013c:	69fa      	ldr	r2, [r7, #28]
8010013e:	429a      	cmp	r2, r3
80100140:	dbe8      	blt.n	80100114 <lcd_test+0xd8>
80100142:	68fb      	ldr	r3, [r7, #12]
80100144:	613b      	str	r3, [r7, #16]
80100146:	2300      	movs	r3, #0
80100148:	61fb      	str	r3, [r7, #28]
8010014a:	e012      	b.n	80100172 <lcd_test+0x136>
8010014c:	2300      	movs	r3, #0
8010014e:	61bb      	str	r3, [r7, #24]
80100150:	e008      	b.n	80100164 <lcd_test+0x128>
80100152:	693b      	ldr	r3, [r7, #16]
80100154:	1d1a      	adds	r2, r3, #4
80100156:	613a      	str	r2, [r7, #16]
80100158:	f44f 427f 	mov.w	r2, #65280	; 0xff00
8010015c:	601a      	str	r2, [r3, #0]
8010015e:	69bb      	ldr	r3, [r7, #24]
80100160:	3301      	adds	r3, #1
80100162:	61bb      	str	r3, [r7, #24]
80100164:	687b      	ldr	r3, [r7, #4]
80100166:	69ba      	ldr	r2, [r7, #24]
80100168:	429a      	cmp	r2, r3
8010016a:	dbf2      	blt.n	80100152 <lcd_test+0x116>
8010016c:	69fb      	ldr	r3, [r7, #28]
8010016e:	3301      	adds	r3, #1
80100170:	61fb      	str	r3, [r7, #28]
80100172:	68bb      	ldr	r3, [r7, #8]
80100174:	69fa      	ldr	r2, [r7, #28]
80100176:	429a      	cmp	r2, r3
80100178:	dbe8      	blt.n	8010014c <lcd_test+0x110>
8010017a:	68fb      	ldr	r3, [r7, #12]
8010017c:	613b      	str	r3, [r7, #16]
8010017e:	2300      	movs	r3, #0
80100180:	61fb      	str	r3, [r7, #28]
80100182:	e011      	b.n	801001a8 <lcd_test+0x16c>
80100184:	2300      	movs	r3, #0
80100186:	61bb      	str	r3, [r7, #24]
80100188:	e007      	b.n	8010019a <lcd_test+0x15e>
8010018a:	693b      	ldr	r3, [r7, #16]
8010018c:	1d1a      	adds	r2, r3, #4
8010018e:	613a      	str	r2, [r7, #16]
80100190:	22ff      	movs	r2, #255	; 0xff
80100192:	601a      	str	r2, [r3, #0]
80100194:	69bb      	ldr	r3, [r7, #24]
80100196:	3301      	adds	r3, #1
80100198:	61bb      	str	r3, [r7, #24]
8010019a:	687b      	ldr	r3, [r7, #4]
8010019c:	69ba      	ldr	r2, [r7, #24]
8010019e:	429a      	cmp	r2, r3
801001a0:	dbf3      	blt.n	8010018a <lcd_test+0x14e>
801001a2:	69fb      	ldr	r3, [r7, #28]
801001a4:	3301      	adds	r3, #1
801001a6:	61fb      	str	r3, [r7, #28]
801001a8:	68bb      	ldr	r3, [r7, #8]
801001aa:	69fa      	ldr	r2, [r7, #28]
801001ac:	429a      	cmp	r2, r3
801001ae:	dbe9      	blt.n	80100184 <lcd_test+0x148>
801001b0:	bf00      	nop
801001b2:	3720      	adds	r7, #32
801001b4:	46bd      	mov	sp, r7
801001b6:	bd80      	pop	{r7, pc}

801001b8 <main>:
801001b8:	b580      	push	{r7, lr}
801001ba:	af00      	add	r7, sp, #0
801001bc:	f000 f972 	bl	801004a4 <lcd_init>
801001c0:	f7ff ff3c 	bl	8010003c <lcd_test>
801001c4:	2300      	movs	r3, #0
801001c6:	4618      	mov	r0, r3
801001c8:	bd80      	pop	{r7, pc}

801001ca <strcmp>:
801001ca:	b490      	push	{r4, r7}
801001cc:	b082      	sub	sp, #8
801001ce:	af00      	add	r7, sp, #0
801001d0:	6078      	str	r0, [r7, #4]
801001d2:	6039      	str	r1, [r7, #0]
801001d4:	687b      	ldr	r3, [r7, #4]
801001d6:	781a      	ldrb	r2, [r3, #0]
801001d8:	683b      	ldr	r3, [r7, #0]
801001da:	1c59      	adds	r1, r3, #1
801001dc:	6039      	str	r1, [r7, #0]
801001de:	781b      	ldrb	r3, [r3, #0]
801001e0:	1ad3      	subs	r3, r2, r3
801001e2:	b2db      	uxtb	r3, r3
801001e4:	b25c      	sxtb	r4, r3
801001e6:	2c00      	cmp	r4, #0
801001e8:	d106      	bne.n	801001f8 <strcmp+0x2e>
801001ea:	687b      	ldr	r3, [r7, #4]
801001ec:	1c5a      	adds	r2, r3, #1
801001ee:	607a      	str	r2, [r7, #4]
801001f0:	781b      	ldrb	r3, [r3, #0]
801001f2:	2b00      	cmp	r3, #0
801001f4:	d000      	beq.n	801001f8 <strcmp+0x2e>
801001f6:	e7ed      	b.n	801001d4 <strcmp+0xa>
801001f8:	4623      	mov	r3, r4
801001fa:	4618      	mov	r0, r3
801001fc:	3708      	adds	r7, #8
801001fe:	46bd      	mov	sp, r7
80100200:	bc90      	pop	{r4, r7}
80100202:	4770      	bx	lr

80100204 <register_lcd_controller>:
80100204:	b480      	push	{r7}
80100206:	b085      	sub	sp, #20
80100208:	af00      	add	r7, sp, #0
8010020a:	6078      	str	r0, [r7, #4]
8010020c:	2300      	movs	r3, #0
8010020e:	60fb      	str	r3, [r7, #12]
80100210:	e015      	b.n	8010023e <register_lcd_controller+0x3a>
80100212:	f640 131c 	movw	r3, #2332	; 0x91c
80100216:	f2c8 0310 	movt	r3, #32784	; 0x8010
8010021a:	68fa      	ldr	r2, [r7, #12]
8010021c:	f853 3022 	ldr.w	r3, [r3, r2, lsl #2]
80100220:	2b00      	cmp	r3, #0
80100222:	d109      	bne.n	80100238 <register_lcd_controller+0x34>
80100224:	f640 131c 	movw	r3, #2332	; 0x91c
80100228:	f2c8 0310 	movt	r3, #32784	; 0x8010
8010022c:	68fa      	ldr	r2, [r7, #12]
8010022e:	6879      	ldr	r1, [r7, #4]
80100230:	f843 1022 	str.w	r1, [r3, r2, lsl #2]
80100234:	68fb      	ldr	r3, [r7, #12]
80100236:	e007      	b.n	80100248 <register_lcd_controller+0x44>
80100238:	68fb      	ldr	r3, [r7, #12]
8010023a:	3301      	adds	r3, #1
8010023c:	60fb      	str	r3, [r7, #12]
8010023e:	68fb      	ldr	r3, [r7, #12]
80100240:	2b09      	cmp	r3, #9
80100242:	dde6      	ble.n	80100212 <register_lcd_controller+0xe>
80100244:	f04f 33ff 	mov.w	r3, #4294967295	; 0xffffffff
80100248:	4618      	mov	r0, r3
8010024a:	3714      	adds	r7, #20
8010024c:	46bd      	mov	sp, r7
8010024e:	f85d 7b04 	ldr.w	r7, [sp], #4
80100252:	4770      	bx	lr

80100254 <select_lcd_controller>:
80100254:	b580      	push	{r7, lr}
80100256:	b084      	sub	sp, #16
80100258:	af00      	add	r7, sp, #0
8010025a:	6078      	str	r0, [r7, #4]
8010025c:	2300      	movs	r3, #0
8010025e:	60fb      	str	r3, [r7, #12]
80100260:	e028      	b.n	801002b4 <select_lcd_controller+0x60>
80100262:	f640 131c 	movw	r3, #2332	; 0x91c
80100266:	f2c8 0310 	movt	r3, #32784	; 0x8010
8010026a:	68fa      	ldr	r2, [r7, #12]
8010026c:	f853 3022 	ldr.w	r3, [r3, r2, lsl #2]
80100270:	2b00      	cmp	r3, #0
80100272:	d01c      	beq.n	801002ae <select_lcd_controller+0x5a>
80100274:	f640 131c 	movw	r3, #2332	; 0x91c
80100278:	f2c8 0310 	movt	r3, #32784	; 0x8010
8010027c:	68fa      	ldr	r2, [r7, #12]
8010027e:	f853 3022 	ldr.w	r3, [r3, r2, lsl #2]
80100282:	681b      	ldr	r3, [r3, #0]
80100284:	6879      	ldr	r1, [r7, #4]
80100286:	4618      	mov	r0, r3
80100288:	f7ff ff9f 	bl	801001ca <strcmp>
8010028c:	4603      	mov	r3, r0
8010028e:	2b00      	cmp	r3, #0
80100290:	d10d      	bne.n	801002ae <select_lcd_controller+0x5a>
80100292:	f640 131c 	movw	r3, #2332	; 0x91c
80100296:	f2c8 0310 	movt	r3, #32784	; 0x8010
8010029a:	68fa      	ldr	r2, [r7, #12]
8010029c:	f853 2022 	ldr.w	r2, [r3, r2, lsl #2]
801002a0:	f640 1344 	movw	r3, #2372	; 0x944
801002a4:	f2c8 0310 	movt	r3, #32784	; 0x8010
801002a8:	601a      	str	r2, [r3, #0]
801002aa:	68fb      	ldr	r3, [r7, #12]
801002ac:	e007      	b.n	801002be <select_lcd_controller+0x6a>
801002ae:	68fb      	ldr	r3, [r7, #12]
801002b0:	3301      	adds	r3, #1
801002b2:	60fb      	str	r3, [r7, #12]
801002b4:	68fb      	ldr	r3, [r7, #12]
801002b6:	2b09      	cmp	r3, #9
801002b8:	ddd3      	ble.n	80100262 <select_lcd_controller+0xe>
801002ba:	f04f 33ff 	mov.w	r3, #4294967295	; 0xffffffff
801002be:	4618      	mov	r0, r3
801002c0:	3710      	adds	r7, #16
801002c2:	46bd      	mov	sp, r7
801002c4:	bd80      	pop	{r7, pc}

801002c6 <lcd_controller_init>:
801002c6:	b580      	push	{r7, lr}
801002c8:	b082      	sub	sp, #8
801002ca:	af00      	add	r7, sp, #0
801002cc:	6078      	str	r0, [r7, #4]
801002ce:	f640 1344 	movw	r3, #2372	; 0x944
801002d2:	f2c8 0310 	movt	r3, #32784	; 0x8010
801002d6:	681b      	ldr	r3, [r3, #0]
801002d8:	2b00      	cmp	r3, #0
801002da:	d009      	beq.n	801002f0 <lcd_controller_init+0x2a>
801002dc:	f640 1344 	movw	r3, #2372	; 0x944
801002e0:	f2c8 0310 	movt	r3, #32784	; 0x8010
801002e4:	681b      	ldr	r3, [r3, #0]
801002e6:	685b      	ldr	r3, [r3, #4]
801002e8:	6878      	ldr	r0, [r7, #4]
801002ea:	4798      	blx	r3
801002ec:	2300      	movs	r3, #0
801002ee:	e001      	b.n	801002f4 <lcd_controller_init+0x2e>
801002f0:	f04f 33ff 	mov.w	r3, #4294967295	; 0xffffffff
801002f4:	4618      	mov	r0, r3
801002f6:	3708      	adds	r7, #8
801002f8:	46bd      	mov	sp, r7
801002fa:	bd80      	pop	{r7, pc}

801002fc <lcd_controller_enable>:
801002fc:	b580      	push	{r7, lr}
801002fe:	af00      	add	r7, sp, #0
80100300:	f640 1344 	movw	r3, #2372	; 0x944
80100304:	f2c8 0310 	movt	r3, #32784	; 0x8010
80100308:	681b      	ldr	r3, [r3, #0]
8010030a:	2b00      	cmp	r3, #0
8010030c:	d006      	beq.n	8010031c <lcd_controller_enable+0x20>
8010030e:	f640 1344 	movw	r3, #2372	; 0x944
80100312:	f2c8 0310 	movt	r3, #32784	; 0x8010
80100316:	681b      	ldr	r3, [r3, #0]
80100318:	689b      	ldr	r3, [r3, #8]
8010031a:	4798      	blx	r3
8010031c:	bf00      	nop
8010031e:	bd80      	pop	{r7, pc}

80100320 <lcd_controller_disable>:
80100320:	b580      	push	{r7, lr}
80100322:	af00      	add	r7, sp, #0
80100324:	f640 1344 	movw	r3, #2372	; 0x944
80100328:	f2c8 0310 	movt	r3, #32784	; 0x8010
8010032c:	681b      	ldr	r3, [r3, #0]
8010032e:	2b00      	cmp	r3, #0
80100330:	d006      	beq.n	80100340 <lcd_controller_disable+0x20>
80100332:	f640 1344 	movw	r3, #2372	; 0x944
80100336:	f2c8 0310 	movt	r3, #32784	; 0x8010
8010033a:	681b      	ldr	r3, [r3, #0]
8010033c:	68db      	ldr	r3, [r3, #12]
8010033e:	4798      	blx	r3
80100340:	bf00      	nop
80100342:	bd80      	pop	{r7, pc}

80100344 <lcd_contoller_add>:
80100344:	b580      	push	{r7, lr}
80100346:	af00      	add	r7, sp, #0
80100348:	f000 fa9f 	bl	8010088a <Imx6ull_lcd_controller_add>
8010034c:	bf00      	nop
8010034e:	bd80      	pop	{r7, pc}

80100350 <delay>:
80100350:	b480      	push	{r7}
80100352:	b083      	sub	sp, #12
80100354:	af00      	add	r7, sp, #0
80100356:	6078      	str	r0, [r7, #4]
80100358:	bf00      	nop
8010035a:	687b      	ldr	r3, [r7, #4]
8010035c:	1e5a      	subs	r2, r3, #1
8010035e:	607a      	str	r2, [r7, #4]
80100360:	2b00      	cmp	r3, #0
80100362:	d1fa      	bne.n	8010035a <delay+0xa>
80100364:	bf00      	nop
80100366:	370c      	adds	r7, #12
80100368:	46bd      	mov	sp, r7
8010036a:	f85d 7b04 	ldr.w	r7, [sp], #4
8010036e:	4770      	bx	lr

80100370 <register_lcd>:
80100370:	b480      	push	{r7}
80100372:	b085      	sub	sp, #20
80100374:	af00      	add	r7, sp, #0
80100376:	6078      	str	r0, [r7, #4]
80100378:	2300      	movs	r3, #0
8010037a:	60fb      	str	r3, [r7, #12]
8010037c:	e015      	b.n	801003aa <register_lcd+0x3a>
8010037e:	f640 1348 	movw	r3, #2376	; 0x948
80100382:	f2c8 0310 	movt	r3, #32784	; 0x8010
80100386:	68fa      	ldr	r2, [r7, #12]
80100388:	f853 3022 	ldr.w	r3, [r3, r2, lsl #2]
8010038c:	2b00      	cmp	r3, #0
8010038e:	d109      	bne.n	801003a4 <register_lcd+0x34>
80100390:	f640 1348 	movw	r3, #2376	; 0x948
80100394:	f2c8 0310 	movt	r3, #32784	; 0x8010
80100398:	68fa      	ldr	r2, [r7, #12]
8010039a:	6879      	ldr	r1, [r7, #4]
8010039c:	f843 1022 	str.w	r1, [r3, r2, lsl #2]
801003a0:	68fb      	ldr	r3, [r7, #12]
801003a2:	e007      	b.n	801003b4 <register_lcd+0x44>
801003a4:	68fb      	ldr	r3, [r7, #12]
801003a6:	3301      	adds	r3, #1
801003a8:	60fb      	str	r3, [r7, #12]
801003aa:	68fb      	ldr	r3, [r7, #12]
801003ac:	2b04      	cmp	r3, #4
801003ae:	dde6      	ble.n	8010037e <register_lcd+0xe>
801003b0:	f04f 33ff 	mov.w	r3, #4294967295	; 0xffffffff
801003b4:	4618      	mov	r0, r3
801003b6:	3714      	adds	r7, #20
801003b8:	46bd      	mov	sp, r7
801003ba:	f85d 7b04 	ldr.w	r7, [sp], #4
801003be:	4770      	bx	lr

801003c0 <select_lcd>:
801003c0:	b580      	push	{r7, lr}
801003c2:	b084      	sub	sp, #16
801003c4:	af00      	add	r7, sp, #0
801003c6:	6078      	str	r0, [r7, #4]
801003c8:	2300      	movs	r3, #0
801003ca:	60fb      	str	r3, [r7, #12]
801003cc:	e028      	b.n	80100420 <select_lcd+0x60>
801003ce:	f640 1348 	movw	r3, #2376	; 0x948
801003d2:	f2c8 0310 	movt	r3, #32784	; 0x8010
801003d6:	68fa      	ldr	r2, [r7, #12]
801003d8:	f853 3022 	ldr.w	r3, [r3, r2, lsl #2]
801003dc:	2b00      	cmp	r3, #0
801003de:	d01c      	beq.n	8010041a <select_lcd+0x5a>
801003e0:	f640 1348 	movw	r3, #2376	; 0x948
801003e4:	f2c8 0310 	movt	r3, #32784	; 0x8010
801003e8:	68fa      	ldr	r2, [r7, #12]
801003ea:	f853 3022 	ldr.w	r3, [r3, r2, lsl #2]
801003ee:	681b      	ldr	r3, [r3, #0]
801003f0:	6879      	ldr	r1, [r7, #4]
801003f2:	4618      	mov	r0, r3
801003f4:	f7ff fee9 	bl	801001ca <strcmp>
801003f8:	4603      	mov	r3, r0
801003fa:	2b00      	cmp	r3, #0
801003fc:	d10d      	bne.n	8010041a <select_lcd+0x5a>
801003fe:	f640 1348 	movw	r3, #2376	; 0x948
80100402:	f2c8 0310 	movt	r3, #32784	; 0x8010
80100406:	68fa      	ldr	r2, [r7, #12]
80100408:	f853 2022 	ldr.w	r2, [r3, r2, lsl #2]
8010040c:	f640 135c 	movw	r3, #2396	; 0x95c
80100410:	f2c8 0310 	movt	r3, #32784	; 0x8010
80100414:	601a      	str	r2, [r3, #0]
80100416:	68fb      	ldr	r3, [r7, #12]
80100418:	e007      	b.n	8010042a <select_lcd+0x6a>
8010041a:	68fb      	ldr	r3, [r7, #12]
8010041c:	3301      	adds	r3, #1
8010041e:	60fb      	str	r3, [r7, #12]
80100420:	68fb      	ldr	r3, [r7, #12]
80100422:	2b04      	cmp	r3, #4
80100424:	ddd3      	ble.n	801003ce <select_lcd+0xe>
80100426:	f04f 33ff 	mov.w	r3, #4294967295	; 0xffffffff
8010042a:	4618      	mov	r0, r3
8010042c:	3710      	adds	r7, #16
8010042e:	46bd      	mov	sp, r7
80100430:	bd80      	pop	{r7, pc}

80100432 <get_lcd_params>:
80100432:	b480      	push	{r7}
80100434:	b085      	sub	sp, #20
80100436:	af00      	add	r7, sp, #0
80100438:	60f8      	str	r0, [r7, #12]
8010043a:	60b9      	str	r1, [r7, #8]
8010043c:	607a      	str	r2, [r7, #4]
8010043e:	603b      	str	r3, [r7, #0]
80100440:	f640 135c 	movw	r3, #2396	; 0x95c
80100444:	f2c8 0310 	movt	r3, #32784	; 0x8010
80100448:	681b      	ldr	r3, [r3, #0]
8010044a:	6bda      	ldr	r2, [r3, #60]	; 0x3c
8010044c:	68fb      	ldr	r3, [r7, #12]
8010044e:	601a      	str	r2, [r3, #0]
80100450:	f640 135c 	movw	r3, #2396	; 0x95c
80100454:	f2c8 0310 	movt	r3, #32784	; 0x8010
80100458:	681b      	ldr	r3, [r3, #0]
8010045a:	6b1a      	ldr	r2, [r3, #48]	; 0x30
8010045c:	68bb      	ldr	r3, [r7, #8]
8010045e:	601a      	str	r2, [r3, #0]
80100460:	f640 135c 	movw	r3, #2396	; 0x95c
80100464:	f2c8 0310 	movt	r3, #32784	; 0x8010
80100468:	681b      	ldr	r3, [r3, #0]
8010046a:	6b5a      	ldr	r2, [r3, #52]	; 0x34
8010046c:	687b      	ldr	r3, [r7, #4]
8010046e:	601a      	str	r2, [r3, #0]
80100470:	f640 135c 	movw	r3, #2396	; 0x95c
80100474:	f2c8 0310 	movt	r3, #32784	; 0x8010
80100478:	681b      	ldr	r3, [r3, #0]
8010047a:	6b9a      	ldr	r2, [r3, #56]	; 0x38
8010047c:	683b      	ldr	r3, [r7, #0]
8010047e:	601a      	str	r2, [r3, #0]
80100480:	bf00      	nop
80100482:	3714      	adds	r7, #20
80100484:	46bd      	mov	sp, r7
80100486:	f85d 7b04 	ldr.w	r7, [sp], #4
8010048a:	4770      	bx	lr

8010048c <lcd_enable>:
8010048c:	b580      	push	{r7, lr}
8010048e:	af00      	add	r7, sp, #0
80100490:	f7ff ff34 	bl	801002fc <lcd_controller_enable>
80100494:	bf00      	nop
80100496:	bd80      	pop	{r7, pc}

80100498 <lcd_disable>:
80100498:	b580      	push	{r7, lr}
8010049a:	af00      	add	r7, sp, #0
8010049c:	f7ff ff40 	bl	80100320 <lcd_controller_disable>
801004a0:	bf00      	nop
801004a2:	bd80      	pop	{r7, pc}

801004a4 <lcd_init>:
801004a4:	b580      	push	{r7, lr}
801004a6:	af00      	add	r7, sp, #0
801004a8:	f000 f818 	bl	801004dc <lcd_7_0_add>
801004ac:	f7ff ff4a 	bl	80100344 <lcd_contoller_add>
801004b0:	f640 00a0 	movw	r0, #2208	; 0x8a0
801004b4:	f2c8 0010 	movt	r0, #32784	; 0x8010
801004b8:	f7ff fecc 	bl	80100254 <select_lcd_controller>
801004bc:	f640 00a8 	movw	r0, #2216	; 0x8a8
801004c0:	f2c8 0010 	movt	r0, #32784	; 0x8010
801004c4:	f7ff ff7c 	bl	801003c0 <select_lcd>
801004c8:	f640 135c 	movw	r3, #2396	; 0x95c
801004cc:	f2c8 0310 	movt	r3, #32784	; 0x8010
801004d0:	681b      	ldr	r3, [r3, #0]
801004d2:	4618      	mov	r0, r3
801004d4:	f7ff fef7 	bl	801002c6 <lcd_controller_init>
801004d8:	bf00      	nop
801004da:	bd80      	pop	{r7, pc}

801004dc <lcd_7_0_add>:
801004dc:	b580      	push	{r7, lr}
801004de:	af00      	add	r7, sp, #0
801004e0:	f640 00c0 	movw	r0, #2240	; 0x8c0
801004e4:	f2c8 0010 	movt	r0, #32784	; 0x8010
801004e8:	f7ff ff42 	bl	80100370 <register_lcd>
801004ec:	bf00      	nop
801004ee:	bd80      	pop	{r7, pc}

801004f0 <Imx6ull_lcd_io_init>:
801004f0:	b480      	push	{r7}
801004f2:	b083      	sub	sp, #12
801004f4:	af00      	add	r7, sp, #0
801004f6:	2300      	movs	r3, #0
801004f8:	603b      	str	r3, [r7, #0]
801004fa:	f44f 7382 	mov.w	r3, #260	; 0x104
801004fe:	f2c0 230e 	movt	r3, #526	; 0x20e
80100502:	607b      	str	r3, [r7, #4]
80100504:	2300      	movs	r3, #0
80100506:	603b      	str	r3, [r7, #0]
80100508:	e008      	b.n	8010051c <Imx6ull_lcd_io_init+0x2c>
8010050a:	687b      	ldr	r3, [r7, #4]
8010050c:	2200      	movs	r2, #0
8010050e:	601a      	str	r2, [r3, #0]
80100510:	687b      	ldr	r3, [r7, #4]
80100512:	3304      	adds	r3, #4
80100514:	607b      	str	r3, [r7, #4]
80100516:	683b      	ldr	r3, [r7, #0]
80100518:	3301      	adds	r3, #1
8010051a:	603b      	str	r3, [r7, #0]
8010051c:	683b      	ldr	r3, [r7, #0]
8010051e:	2b1c      	cmp	r3, #28
80100520:	d9f3      	bls.n	8010050a <Imx6ull_lcd_io_init+0x1a>
80100522:	f44f 7364 	mov.w	r3, #912	; 0x390
80100526:	f2c0 230e 	movt	r3, #526	; 0x20e
8010052a:	607b      	str	r3, [r7, #4]
8010052c:	2300      	movs	r3, #0
8010052e:	603b      	str	r3, [r7, #0]
80100530:	e00e      	b.n	80100550 <Imx6ull_lcd_io_init+0x60>
80100532:	687b      	ldr	r3, [r7, #4]
80100534:	2200      	movs	r2, #0
80100536:	601a      	str	r2, [r3, #0]
80100538:	687b      	ldr	r3, [r7, #4]
8010053a:	681b      	ldr	r3, [r3, #0]
8010053c:	f043 02b9 	orr.w	r2, r3, #185	; 0xb9
80100540:	687b      	ldr	r3, [r7, #4]
80100542:	601a      	str	r2, [r3, #0]
80100544:	687b      	ldr	r3, [r7, #4]
80100546:	3304      	adds	r3, #4
80100548:	607b      	str	r3, [r7, #4]
8010054a:	683b      	ldr	r3, [r7, #0]
8010054c:	3301      	adds	r3, #1
8010054e:	603b      	str	r3, [r7, #0]
80100550:	683b      	ldr	r3, [r7, #0]
80100552:	2b1c      	cmp	r3, #28
80100554:	d9ed      	bls.n	80100532 <Imx6ull_lcd_io_init+0x42>
80100556:	f640 1300 	movw	r3, #2304	; 0x900
8010055a:	f2c8 0310 	movt	r3, #32784	; 0x8010
8010055e:	681b      	ldr	r3, [r3, #0]
80100560:	22b9      	movs	r2, #185	; 0xb9
80100562:	601a      	str	r2, [r3, #0]
80100564:	f640 1304 	movw	r3, #2308	; 0x904
80100568:	f2c8 0310 	movt	r3, #32784	; 0x8010
8010056c:	681a      	ldr	r2, [r3, #0]
8010056e:	f640 1304 	movw	r3, #2308	; 0x904
80100572:	f2c8 0310 	movt	r3, #32784	; 0x8010
80100576:	681b      	ldr	r3, [r3, #0]
80100578:	681b      	ldr	r3, [r3, #0]
8010057a:	f443 7380 	orr.w	r3, r3, #256	; 0x100
8010057e:	6013      	str	r3, [r2, #0]
80100580:	f640 1308 	movw	r3, #2312	; 0x908
80100584:	f2c8 0310 	movt	r3, #32784	; 0x8010
80100588:	681a      	ldr	r2, [r3, #0]
8010058a:	f640 1308 	movw	r3, #2312	; 0x908
8010058e:	f2c8 0310 	movt	r3, #32784	; 0x8010
80100592:	681b      	ldr	r3, [r3, #0]
80100594:	681b      	ldr	r3, [r3, #0]
80100596:	f443 7380 	orr.w	r3, r3, #256	; 0x100
8010059a:	6013      	str	r3, [r2, #0]
8010059c:	bf00      	nop
8010059e:	370c      	adds	r7, #12
801005a0:	46bd      	mov	sp, r7
801005a2:	f85d 7b04 	ldr.w	r7, [sp], #4
801005a6:	4770      	bx	lr

801005a8 <Imx6ull_lcd_controller_init>:
801005a8:	b580      	push	{r7, lr}
801005aa:	b084      	sub	sp, #16
801005ac:	af00      	add	r7, sp, #0
801005ae:	6078      	str	r0, [r7, #4]
801005b0:	f7ff ff9e 	bl	801004f0 <Imx6ull_lcd_io_init>
801005b4:	f44f 4300 	mov.w	r3, #32768	; 0x8000
801005b8:	f2c0 230c 	movt	r3, #524	; 0x20c
801005bc:	2200      	movs	r2, #0
801005be:	f8c3 20b0 	str.w	r2, [r3, #176]	; 0xb0
801005c2:	f44f 4300 	mov.w	r3, #32768	; 0x8000
801005c6:	f2c0 230c 	movt	r3, #524	; 0x20c
801005ca:	2200      	movs	r2, #0
801005cc:	f8c3 20c0 	str.w	r2, [r3, #192]	; 0xc0
801005d0:	f44f 4300 	mov.w	r3, #32768	; 0x8000
801005d4:	f2c0 230c 	movt	r3, #524	; 0x20c
801005d8:	f242 0220 	movw	r2, #8224	; 0x2020
801005dc:	f2c0 0210 	movt	r2, #16
801005e0:	f8c3 20a0 	str.w	r2, [r3, #160]	; 0xa0
801005e4:	f44f 4380 	mov.w	r3, #16384	; 0x4000
801005e8:	f2c0 230c 	movt	r3, #524	; 0x20c
801005ec:	f44f 4280 	mov.w	r2, #16384	; 0x4000
801005f0:	f2c0 220c 	movt	r2, #524	; 0x20c
801005f4:	6b92      	ldr	r2, [r2, #56]	; 0x38
801005f6:	f422 3260 	bic.w	r2, r2, #229376	; 0x38000
801005fa:	639a      	str	r2, [r3, #56]	; 0x38
801005fc:	f44f 4380 	mov.w	r3, #16384	; 0x4000
80100600:	f2c0 230c 	movt	r3, #524	; 0x20c
80100604:	f44f 4280 	mov.w	r2, #16384	; 0x4000
80100608:	f2c0 220c 	movt	r2, #524	; 0x20c
8010060c:	6b92      	ldr	r2, [r2, #56]	; 0x38
8010060e:	f442 3280 	orr.w	r2, r2, #65536	; 0x10000
80100612:	639a      	str	r2, [r3, #56]	; 0x38
80100614:	f44f 4380 	mov.w	r3, #16384	; 0x4000
80100618:	f2c0 230c 	movt	r3, #524	; 0x20c
8010061c:	f44f 4280 	mov.w	r2, #16384	; 0x4000
80100620:	f2c0 220c 	movt	r2, #524	; 0x20c
80100624:	6b92      	ldr	r2, [r2, #56]	; 0x38
80100626:	f422 42e0 	bic.w	r2, r2, #28672	; 0x7000
8010062a:	639a      	str	r2, [r3, #56]	; 0x38
8010062c:	f44f 4380 	mov.w	r3, #16384	; 0x4000
80100630:	f2c0 230c 	movt	r3, #524	; 0x20c
80100634:	f44f 4280 	mov.w	r2, #16384	; 0x4000
80100638:	f2c0 220c 	movt	r2, #524	; 0x20c
8010063c:	6b92      	ldr	r2, [r2, #56]	; 0x38
8010063e:	f442 5200 	orr.w	r2, r2, #8192	; 0x2000
80100642:	639a      	str	r2, [r3, #56]	; 0x38
80100644:	f44f 4380 	mov.w	r3, #16384	; 0x4000
80100648:	f2c0 230c 	movt	r3, #524	; 0x20c
8010064c:	f44f 4280 	mov.w	r2, #16384	; 0x4000
80100650:	f2c0 220c 	movt	r2, #524	; 0x20c
80100654:	6b92      	ldr	r2, [r2, #56]	; 0x38
80100656:	f422 6260 	bic.w	r2, r2, #3584	; 0xe00
8010065a:	639a      	str	r2, [r3, #56]	; 0x38
8010065c:	f44f 4380 	mov.w	r3, #16384	; 0x4000
80100660:	f2c0 230c 	movt	r3, #524	; 0x20c
80100664:	f44f 4280 	mov.w	r2, #16384	; 0x4000
80100668:	f2c0 220c 	movt	r2, #524	; 0x20c
8010066c:	6992      	ldr	r2, [r2, #24]
8010066e:	f022 7260 	bic.w	r2, r2, #58720256	; 0x3800000
80100672:	619a      	str	r2, [r3, #24]
80100674:	f44f 4380 	mov.w	r3, #16384	; 0x4000
80100678:	f2c0 230c 	movt	r3, #524	; 0x20c
8010067c:	f44f 4280 	mov.w	r2, #16384	; 0x4000
80100680:	f2c0 220c 	movt	r2, #524	; 0x20c
80100684:	6992      	ldr	r2, [r2, #24]
80100686:	f042 7200 	orr.w	r2, r2, #33554432	; 0x2000000
8010068a:	619a      	str	r2, [r3, #24]
8010068c:	f44f 4300 	mov.w	r3, #32768	; 0x8000
80100690:	f2c0 231c 	movt	r3, #540	; 0x21c
80100694:	f04f 4200 	mov.w	r2, #2147483648	; 0x80000000
80100698:	601a      	str	r2, [r3, #0]
8010069a:	2064      	movs	r0, #100	; 0x64
8010069c:	f7ff fe58 	bl	80100350 <delay>
801006a0:	f44f 4300 	mov.w	r3, #32768	; 0x8000
801006a4:	f2c0 231c 	movt	r3, #540	; 0x21c
801006a8:	2200      	movs	r2, #0
801006aa:	601a      	str	r2, [r3, #0]
801006ac:	687b      	ldr	r3, [r7, #4]
801006ae:	6b9b      	ldr	r3, [r3, #56]	; 0x38
801006b0:	2b08      	cmp	r3, #8
801006b2:	d007      	beq.n	801006c4 <Imx6ull_lcd_controller_init+0x11c>
801006b4:	687b      	ldr	r3, [r7, #4]
801006b6:	6b9b      	ldr	r3, [r3, #56]	; 0x38
801006b8:	2b10      	cmp	r3, #16
801006ba:	d101      	bne.n	801006c0 <Imx6ull_lcd_controller_init+0x118>
801006bc:	2300      	movs	r3, #0
801006be:	e002      	b.n	801006c6 <Imx6ull_lcd_controller_init+0x11e>
801006c0:	2303      	movs	r3, #3
801006c2:	e000      	b.n	801006c6 <Imx6ull_lcd_controller_init+0x11e>
801006c4:	2301      	movs	r3, #1
801006c6:	60fb      	str	r3, [r7, #12]
801006c8:	f44f 4200 	mov.w	r2, #32768	; 0x8000
801006cc:	f2c0 221c 	movt	r2, #540	; 0x21c
801006d0:	f44f 4300 	mov.w	r3, #32768	; 0x8000
801006d4:	f2c0 231c 	movt	r3, #540	; 0x21c
801006d8:	681b      	ldr	r3, [r3, #0]
801006da:	68f9      	ldr	r1, [r7, #12]
801006dc:	0209      	lsls	r1, r1, #8
801006de:	430b      	orrs	r3, r1
801006e0:	f443 2320 	orr.w	r3, r3, #655360	; 0xa0000
801006e4:	f443 6342 	orr.w	r3, r3, #3104	; 0xc20
801006e8:	6013      	str	r3, [r2, #0]
801006ea:	687b      	ldr	r3, [r7, #4]
801006ec:	6b9b      	ldr	r3, [r3, #56]	; 0x38
801006ee:	2b10      	cmp	r3, #16
801006f0:	d10b      	bne.n	8010070a <Imx6ull_lcd_controller_init+0x162>
801006f2:	f44f 4300 	mov.w	r3, #32768	; 0x8000
801006f6:	f2c0 231c 	movt	r3, #540	; 0x21c
801006fa:	f44f 4200 	mov.w	r2, #32768	; 0x8000
801006fe:	f2c0 221c 	movt	r2, #540	; 0x21c
80100702:	6812      	ldr	r2, [r2, #0]
80100704:	f042 0208 	orr.w	r2, r2, #8
80100708:	601a      	str	r2, [r3, #0]
8010070a:	687b      	ldr	r3, [r7, #4]
8010070c:	6b9b      	ldr	r3, [r3, #56]	; 0x38
8010070e:	2b18      	cmp	r3, #24
80100710:	d003      	beq.n	8010071a <Imx6ull_lcd_controller_init+0x172>
80100712:	687b      	ldr	r3, [r7, #4]
80100714:	6b9b      	ldr	r3, [r3, #56]	; 0x38
80100716:	2b20      	cmp	r3, #32
80100718:	d117      	bne.n	8010074a <Imx6ull_lcd_controller_init+0x1a2>
8010071a:	f44f 4300 	mov.w	r3, #32768	; 0x8000
8010071e:	f2c0 231c 	movt	r3, #540	; 0x21c
80100722:	f44f 4200 	mov.w	r2, #32768	; 0x8000
80100726:	f2c0 221c 	movt	r2, #540	; 0x21c
8010072a:	6912      	ldr	r2, [r2, #16]
8010072c:	f422 2270 	bic.w	r2, r2, #983040	; 0xf0000
80100730:	611a      	str	r2, [r3, #16]
80100732:	f44f 4300 	mov.w	r3, #32768	; 0x8000
80100736:	f2c0 231c 	movt	r3, #540	; 0x21c
8010073a:	f44f 4200 	mov.w	r2, #32768	; 0x8000
8010073e:	f2c0 221c 	movt	r2, #540	; 0x21c
80100742:	6912      	ldr	r2, [r2, #16]
80100744:	f442 22e0 	orr.w	r2, r2, #458752	; 0x70000
80100748:	611a      	str	r2, [r3, #16]
8010074a:	f44f 4300 	mov.w	r3, #32768	; 0x8000
8010074e:	f2c0 231c 	movt	r3, #540	; 0x21c
80100752:	687a      	ldr	r2, [r7, #4]
80100754:	6b52      	ldr	r2, [r2, #52]	; 0x34
80100756:	0411      	lsls	r1, r2, #16
80100758:	687a      	ldr	r2, [r7, #4]
8010075a:	6b12      	ldr	r2, [r2, #48]	; 0x30
8010075c:	430a      	orrs	r2, r1
8010075e:	631a      	str	r2, [r3, #48]	; 0x30
80100760:	f44f 4300 	mov.w	r3, #32768	; 0x8000
80100764:	f2c0 231c 	movt	r3, #540	; 0x21c
80100768:	687a      	ldr	r2, [r7, #4]
8010076a:	6912      	ldr	r2, [r2, #16]
8010076c:	06d2      	lsls	r2, r2, #27
8010076e:	f042 5180 	orr.w	r1, r2, #268435456	; 0x10000000
80100772:	687a      	ldr	r2, [r7, #4]
80100774:	68d2      	ldr	r2, [r2, #12]
80100776:	0692      	lsls	r2, r2, #26
80100778:	4311      	orrs	r1, r2
8010077a:	687a      	ldr	r2, [r7, #4]
8010077c:	6892      	ldr	r2, [r2, #8]
8010077e:	0652      	lsls	r2, r2, #25
80100780:	4311      	orrs	r1, r2
80100782:	687a      	ldr	r2, [r7, #4]
80100784:	6852      	ldr	r2, [r2, #4]
80100786:	0612      	lsls	r2, r2, #24
80100788:	430a      	orrs	r2, r1
8010078a:	f442 1140 	orr.w	r1, r2, #3145728	; 0x300000
8010078e:	687a      	ldr	r2, [r7, #4]
80100790:	6952      	ldr	r2, [r2, #20]
80100792:	430a      	orrs	r2, r1
80100794:	671a      	str	r2, [r3, #112]	; 0x70
80100796:	f44f 4300 	mov.w	r3, #32768	; 0x8000
8010079a:	f2c0 231c 	movt	r3, #540	; 0x21c
8010079e:	687a      	ldr	r2, [r7, #4]
801007a0:	6991      	ldr	r1, [r2, #24]
801007a2:	687a      	ldr	r2, [r7, #4]
801007a4:	6952      	ldr	r2, [r2, #20]
801007a6:	4411      	add	r1, r2
801007a8:	687a      	ldr	r2, [r7, #4]
801007aa:	6b52      	ldr	r2, [r2, #52]	; 0x34
801007ac:	4411      	add	r1, r2
801007ae:	687a      	ldr	r2, [r7, #4]
801007b0:	69d2      	ldr	r2, [r2, #28]
801007b2:	440a      	add	r2, r1
801007b4:	f8c3 2080 	str.w	r2, [r3, #128]	; 0x80
801007b8:	f44f 4300 	mov.w	r3, #32768	; 0x8000
801007bc:	f2c0 231c 	movt	r3, #540	; 0x21c
801007c0:	687a      	ldr	r2, [r7, #4]
801007c2:	6a12      	ldr	r2, [r2, #32]
801007c4:	0491      	lsls	r1, r2, #18
801007c6:	687a      	ldr	r2, [r7, #4]
801007c8:	6a50      	ldr	r0, [r2, #36]	; 0x24
801007ca:	687a      	ldr	r2, [r7, #4]
801007cc:	6a12      	ldr	r2, [r2, #32]
801007ce:	4410      	add	r0, r2
801007d0:	687a      	ldr	r2, [r7, #4]
801007d2:	6b12      	ldr	r2, [r2, #48]	; 0x30
801007d4:	4410      	add	r0, r2
801007d6:	687a      	ldr	r2, [r7, #4]
801007d8:	6a92      	ldr	r2, [r2, #40]	; 0x28
801007da:	4402      	add	r2, r0
801007dc:	430a      	orrs	r2, r1
801007de:	f8c3 2090 	str.w	r2, [r3, #144]	; 0x90
801007e2:	f44f 4300 	mov.w	r3, #32768	; 0x8000
801007e6:	f2c0 231c 	movt	r3, #540	; 0x21c
801007ea:	687a      	ldr	r2, [r7, #4]
801007ec:	6a51      	ldr	r1, [r2, #36]	; 0x24
801007ee:	687a      	ldr	r2, [r7, #4]
801007f0:	6a12      	ldr	r2, [r2, #32]
801007f2:	440a      	add	r2, r1
801007f4:	0411      	lsls	r1, r2, #16
801007f6:	687a      	ldr	r2, [r7, #4]
801007f8:	6990      	ldr	r0, [r2, #24]
801007fa:	687a      	ldr	r2, [r7, #4]
801007fc:	6952      	ldr	r2, [r2, #20]
801007fe:	4402      	add	r2, r0
80100800:	430a      	orrs	r2, r1
80100802:	f8c3 20a0 	str.w	r2, [r3, #160]	; 0xa0
80100806:	f44f 4300 	mov.w	r3, #32768	; 0x8000
8010080a:	f2c0 231c 	movt	r3, #540	; 0x21c
8010080e:	687a      	ldr	r2, [r7, #4]
80100810:	6b12      	ldr	r2, [r2, #48]	; 0x30
80100812:	f442 2280 	orr.w	r2, r2, #262144	; 0x40000
80100816:	f8c3 20b0 	str.w	r2, [r3, #176]	; 0xb0
8010081a:	f44f 4300 	mov.w	r3, #32768	; 0x8000
8010081e:	f2c0 231c 	movt	r3, #540	; 0x21c
80100822:	687a      	ldr	r2, [r7, #4]
80100824:	6bd2      	ldr	r2, [r2, #60]	; 0x3c
80100826:	641a      	str	r2, [r3, #64]	; 0x40
80100828:	f44f 4300 	mov.w	r3, #32768	; 0x8000
8010082c:	f2c0 231c 	movt	r3, #540	; 0x21c
80100830:	687a      	ldr	r2, [r7, #4]
80100832:	6bd2      	ldr	r2, [r2, #60]	; 0x3c
80100834:	651a      	str	r2, [r3, #80]	; 0x50
80100836:	bf00      	nop
80100838:	3710      	adds	r7, #16
8010083a:	46bd      	mov	sp, r7
8010083c:	bd80      	pop	{r7, pc}

8010083e <Imx6ull_lcd_controller_enable>:
8010083e:	b480      	push	{r7}
80100840:	af00      	add	r7, sp, #0
80100842:	f44f 4300 	mov.w	r3, #32768	; 0x8000
80100846:	f2c0 231c 	movt	r3, #540	; 0x21c
8010084a:	f44f 4200 	mov.w	r2, #32768	; 0x8000
8010084e:	f2c0 221c 	movt	r2, #540	; 0x21c
80100852:	6812      	ldr	r2, [r2, #0]
80100854:	f042 0201 	orr.w	r2, r2, #1
80100858:	601a      	str	r2, [r3, #0]
8010085a:	bf00      	nop
8010085c:	46bd      	mov	sp, r7
8010085e:	f85d 7b04 	ldr.w	r7, [sp], #4
80100862:	4770      	bx	lr

80100864 <Imx6ull_lcd_controller_disable>:
80100864:	b480      	push	{r7}
80100866:	af00      	add	r7, sp, #0
80100868:	f44f 4300 	mov.w	r3, #32768	; 0x8000
8010086c:	f2c0 231c 	movt	r3, #540	; 0x21c
80100870:	f44f 4200 	mov.w	r2, #32768	; 0x8000
80100874:	f2c0 221c 	movt	r2, #540	; 0x21c
80100878:	6812      	ldr	r2, [r2, #0]
8010087a:	f022 0201 	bic.w	r2, r2, #1
8010087e:	601a      	str	r2, [r3, #0]
80100880:	bf00      	nop
80100882:	46bd      	mov	sp, r7
80100884:	f85d 7b04 	ldr.w	r7, [sp], #4
80100888:	4770      	bx	lr

8010088a <Imx6ull_lcd_controller_add>:
8010088a:	b580      	push	{r7, lr}
8010088c:	af00      	add	r7, sp, #0
8010088e:	f640 100c 	movw	r0, #2316	; 0x90c
80100892:	f2c8 0010 	movt	r0, #32784	; 0x8010
80100896:	f7ff fcb5 	bl	80100204 <register_lcd_controller>
8010089a:	bf00      	nop
8010089c:	bd80      	pop	{r7, pc}

Disassembly of section .rodata:

801008a0 <.LC0>:
801008a0:	36786d49 	ldrbtcc	r6, [r8], -r9, asr #26
801008a4:	006c6c75 	rsbeq	r6, ip, r5, ror ip

801008a8 <.LC1>:
801008a8:	5f64636c 	svcpl	0x0064636c
801008ac:	00302e37 	eorseq	r2, r0, r7, lsr lr
801008b0:	5f64636c 	svcpl	0x0064636c
801008b4:	00302e37 	eorseq	r2, r0, r7, lsr lr
801008b8:	36786d49 	ldrbtcc	r6, [r8], -r9, asr #26
801008bc:	006c6c75 	rsbeq	r6, ip, r5, ror ip

Disassembly of section .data:

801008c0 <lcd_7_0_params>:
801008c0:	801008b0 			; <UNDEFINED> instruction: 0x801008b0
801008c4:	00000001 	andeq	r0, r0, r1
801008c8:	00000001 	andeq	r0, r0, r1
	...
801008d4:	00000003 	andeq	r0, r0, r3
801008d8:	00000014 	andeq	r0, r0, r4, lsl r0
801008dc:	0000000c 	andeq	r0, r0, ip
801008e0:	00000014 	andeq	r0, r0, r4, lsl r0
801008e4:	0000008c 	andeq	r0, r0, ip, lsl #1
801008e8:	000000a0 	andeq	r0, r0, r0, lsr #1
801008ec:	00000033 	andeq	r0, r0, r3, lsr r0
801008f0:	00000400 	andeq	r0, r0, r0, lsl #8
801008f4:	00000258 	andeq	r0, r0, r8, asr r2
801008f8:	00000010 	andeq	r0, r0, r0, lsl r0
801008fc:	99000000 	stmdbls	r0, {}	; <UNPREDICTABLE>

80100900 <GPIO1_IO08_PAD>:
80100900:	020e0308 	andeq	r0, lr, #8, 6	; 0x20000000

80100904 <GPIO1_GDIR>:
80100904:	0209c000 	andeq	ip, r9, #0

80100908 <GPIO1_DR>:
80100908:	0209c004 	andeq	ip, r9, #4

8010090c <Imx6ull_lcd_controller>:
8010090c:	801008b8 			; <UNDEFINED> instruction: 0x801008b8
80100910:	801005a9 	andshi	r0, r0, r9, lsr #11
80100914:	8010083f 	andshi	r0, r0, pc, lsr r8
80100918:	80100865 	andshi	r0, r0, r5, ror #16

Disassembly of section .bss:

8010091c <__bss_start>:
	...

80100944 <g_p_lcd_controller_selected>:
80100944:	00000000 	andeq	r0, r0, r0

80100948 <p_array_lcd>:
	...

8010095c <g_p_lcd_selected>:
8010095c:	00000000 	andeq	r0, r0, r0

