
sd.elf:     file format elf32-littlearm


Disassembly of section .text:

80100000 <_start>:
80100000:	e59fd028 	ldr	sp, [pc, #40]	; 80100030 <clean+0x14>
80100004:	eb000001 	bl	80100010 <clean_bss>
80100008:	fb00026a 	blx	801009ba <main>

8010000c <halt>:
8010000c:	eafffffe 	b	8010000c <halt>

80100010 <clean_bss>:
80100010:	e59f101c 	ldr	r1, [pc, #28]	; 80100034 <clean+0x18>
80100014:	e59f201c 	ldr	r2, [pc, #28]	; 80100038 <clean+0x1c>
80100018:	e3a03000 	mov	r3, #0

8010001c <clean>:
8010001c:	e1510002 	cmp	r1, r2
80100020:	b5813000 	strlt	r3, [r1]
80100024:	e2811004 	add	r1, r1, #4
80100028:	bafffffb 	blt	8010001c <clean>
8010002c:	e1a0f00e 	mov	pc, lr
80100030:	80200000 	eorhi	r0, r0, r0
80100034:	8010677c 	andshi	r6, r0, ip, ror r7
80100038:	80108038 	andshi	r8, r0, r8, lsr r0

8010003c <IOMUXC_SetPinMux>:
8010003c:	b480      	push	{r7}
8010003e:	b085      	sub	sp, #20
80100040:	af00      	add	r7, sp, #0
80100042:	60f8      	str	r0, [r7, #12]
80100044:	60b9      	str	r1, [r7, #8]
80100046:	607a      	str	r2, [r7, #4]
80100048:	603b      	str	r3, [r7, #0]
8010004a:	68fb      	ldr	r3, [r7, #12]
8010004c:	68ba      	ldr	r2, [r7, #8]
8010004e:	f002 010f 	and.w	r1, r2, #15
80100052:	69fa      	ldr	r2, [r7, #28]
80100054:	0112      	lsls	r2, r2, #4
80100056:	f002 0210 	and.w	r2, r2, #16
8010005a:	430a      	orrs	r2, r1
8010005c:	601a      	str	r2, [r3, #0]
8010005e:	687b      	ldr	r3, [r7, #4]
80100060:	2b00      	cmp	r3, #0
80100062:	d004      	beq.n	8010006e <IOMUXC_SetPinMux+0x32>
80100064:	687b      	ldr	r3, [r7, #4]
80100066:	683a      	ldr	r2, [r7, #0]
80100068:	f002 0207 	and.w	r2, r2, #7
8010006c:	601a      	str	r2, [r3, #0]
8010006e:	bf00      	nop
80100070:	3714      	adds	r7, #20
80100072:	46bd      	mov	sp, r7
80100074:	f85d 7b04 	ldr.w	r7, [sp], #4
80100078:	4770      	bx	lr

8010007a <IOMUXC_SetPinConfig>:
8010007a:	b480      	push	{r7}
8010007c:	b085      	sub	sp, #20
8010007e:	af00      	add	r7, sp, #0
80100080:	60f8      	str	r0, [r7, #12]
80100082:	60b9      	str	r1, [r7, #8]
80100084:	607a      	str	r2, [r7, #4]
80100086:	603b      	str	r3, [r7, #0]
80100088:	69bb      	ldr	r3, [r7, #24]
8010008a:	2b00      	cmp	r3, #0
8010008c:	d002      	beq.n	80100094 <IOMUXC_SetPinConfig+0x1a>
8010008e:	69bb      	ldr	r3, [r7, #24]
80100090:	69fa      	ldr	r2, [r7, #28]
80100092:	601a      	str	r2, [r3, #0]
80100094:	bf00      	nop
80100096:	3714      	adds	r7, #20
80100098:	46bd      	mov	sp, r7
8010009a:	f85d 7b04 	ldr.w	r7, [sp], #4
8010009e:	4770      	bx	lr

801000a0 <init_pins>:
801000a0:	b580      	push	{r7, lr}
801000a2:	b082      	sub	sp, #8
801000a4:	af02      	add	r7, sp, #8
801000a6:	2300      	movs	r3, #0
801000a8:	9301      	str	r3, [sp, #4]
801000aa:	2358      	movs	r3, #88	; 0x58
801000ac:	f2c0 2329 	movt	r3, #553	; 0x229
801000b0:	9300      	str	r3, [sp, #0]
801000b2:	2300      	movs	r3, #0
801000b4:	2200      	movs	r2, #0
801000b6:	2105      	movs	r1, #5
801000b8:	2014      	movs	r0, #20
801000ba:	f2c0 2029 	movt	r0, #553	; 0x229
801000be:	f7ff ffbd 	bl	8010003c <IOMUXC_SetPinMux>
801000c2:	2309      	movs	r3, #9
801000c4:	f2c0 0301 	movt	r3, #1
801000c8:	9301      	str	r3, [sp, #4]
801000ca:	2358      	movs	r3, #88	; 0x58
801000cc:	f2c0 2329 	movt	r3, #553	; 0x229
801000d0:	9300      	str	r3, [sp, #0]
801000d2:	2300      	movs	r3, #0
801000d4:	2200      	movs	r2, #0
801000d6:	2105      	movs	r1, #5
801000d8:	2014      	movs	r0, #20
801000da:	f2c0 2029 	movt	r0, #553	; 0x229
801000de:	f7ff ffcc 	bl	8010007a <IOMUXC_SetPinConfig>
801000e2:	2300      	movs	r3, #0
801000e4:	9301      	str	r3, [sp, #4]
801000e6:	f44f 7345 	mov.w	r3, #788	; 0x314
801000ea:	f2c0 230e 	movt	r3, #526	; 0x20e
801000ee:	9300      	str	r3, [sp, #0]
801000f0:	2303      	movs	r3, #3
801000f2:	f240 6224 	movw	r2, #1572	; 0x624
801000f6:	f2c0 220e 	movt	r2, #526	; 0x20e
801000fa:	2100      	movs	r1, #0
801000fc:	2088      	movs	r0, #136	; 0x88
801000fe:	f2c0 200e 	movt	r0, #526	; 0x20e
80100102:	f7ff ff9b 	bl	8010003c <IOMUXC_SetPinMux>
80100106:	f241 0390 	movw	r3, #4240	; 0x1090
8010010a:	9301      	str	r3, [sp, #4]
8010010c:	f44f 7345 	mov.w	r3, #788	; 0x314
80100110:	f2c0 230e 	movt	r3, #526	; 0x20e
80100114:	9300      	str	r3, [sp, #0]
80100116:	2303      	movs	r3, #3
80100118:	f240 6224 	movw	r2, #1572	; 0x624
8010011c:	f2c0 220e 	movt	r2, #526	; 0x20e
80100120:	2100      	movs	r1, #0
80100122:	2088      	movs	r0, #136	; 0x88
80100124:	f2c0 200e 	movt	r0, #526	; 0x20e
80100128:	f7ff ffa7 	bl	8010007a <IOMUXC_SetPinConfig>
8010012c:	2300      	movs	r3, #0
8010012e:	9301      	str	r3, [sp, #4]
80100130:	f44f 7344 	mov.w	r3, #784	; 0x310
80100134:	f2c0 230e 	movt	r3, #526	; 0x20e
80100138:	9300      	str	r3, [sp, #0]
8010013a:	2300      	movs	r3, #0
8010013c:	2200      	movs	r2, #0
8010013e:	2100      	movs	r1, #0
80100140:	2084      	movs	r0, #132	; 0x84
80100142:	f2c0 200e 	movt	r0, #526	; 0x20e
80100146:	f7ff ff79 	bl	8010003c <IOMUXC_SetPinMux>
8010014a:	f241 0390 	movw	r3, #4240	; 0x1090
8010014e:	9301      	str	r3, [sp, #4]
80100150:	f44f 7344 	mov.w	r3, #784	; 0x310
80100154:	f2c0 230e 	movt	r3, #526	; 0x20e
80100158:	9300      	str	r3, [sp, #0]
8010015a:	2300      	movs	r3, #0
8010015c:	2200      	movs	r2, #0
8010015e:	2100      	movs	r1, #0
80100160:	2084      	movs	r0, #132	; 0x84
80100162:	f2c0 200e 	movt	r0, #526	; 0x20e
80100166:	f7ff ff88 	bl	8010007a <IOMUXC_SetPinConfig>
8010016a:	2300      	movs	r3, #0
8010016c:	9301      	str	r3, [sp, #4]
8010016e:	f44f 7347 	mov.w	r3, #796	; 0x31c
80100172:	f2c0 230e 	movt	r3, #526	; 0x20e
80100176:	9300      	str	r3, [sp, #0]
80100178:	2301      	movs	r3, #1
8010017a:	f44f 62cd 	mov.w	r2, #1640	; 0x668
8010017e:	f2c0 220e 	movt	r2, #526	; 0x20e
80100182:	2102      	movs	r1, #2
80100184:	2090      	movs	r0, #144	; 0x90
80100186:	f2c0 200e 	movt	r0, #526	; 0x20e
8010018a:	f7ff ff57 	bl	8010003c <IOMUXC_SetPinMux>
8010018e:	2309      	movs	r3, #9
80100190:	f2c0 0301 	movt	r3, #1
80100194:	9301      	str	r3, [sp, #4]
80100196:	f44f 7347 	mov.w	r3, #796	; 0x31c
8010019a:	f2c0 230e 	movt	r3, #526	; 0x20e
8010019e:	9300      	str	r3, [sp, #0]
801001a0:	2301      	movs	r3, #1
801001a2:	f44f 62cd 	mov.w	r2, #1640	; 0x668
801001a6:	f2c0 220e 	movt	r2, #526	; 0x20e
801001aa:	2102      	movs	r1, #2
801001ac:	2090      	movs	r0, #144	; 0x90
801001ae:	f2c0 200e 	movt	r0, #526	; 0x20e
801001b2:	f7ff ff62 	bl	8010007a <IOMUXC_SetPinConfig>
801001b6:	2300      	movs	r3, #0
801001b8:	9301      	str	r3, [sp, #4]
801001ba:	f240 434c 	movw	r3, #1100	; 0x44c
801001be:	f2c0 230e 	movt	r3, #526	; 0x20e
801001c2:	9300      	str	r3, [sp, #0]
801001c4:	2300      	movs	r3, #0
801001c6:	2200      	movs	r2, #0
801001c8:	2100      	movs	r1, #0
801001ca:	f44f 70e0 	mov.w	r0, #448	; 0x1c0
801001ce:	f2c0 200e 	movt	r0, #526	; 0x20e
801001d2:	f7ff ff33 	bl	8010003c <IOMUXC_SetPinMux>
801001d6:	f247 0349 	movw	r3, #28745	; 0x7049
801001da:	f2c0 0301 	movt	r3, #1
801001de:	9301      	str	r3, [sp, #4]
801001e0:	f240 434c 	movw	r3, #1100	; 0x44c
801001e4:	f2c0 230e 	movt	r3, #526	; 0x20e
801001e8:	9300      	str	r3, [sp, #0]
801001ea:	2300      	movs	r3, #0
801001ec:	2200      	movs	r2, #0
801001ee:	2100      	movs	r1, #0
801001f0:	f44f 70e0 	mov.w	r0, #448	; 0x1c0
801001f4:	f2c0 200e 	movt	r0, #526	; 0x20e
801001f8:	f7ff ff3f 	bl	8010007a <IOMUXC_SetPinConfig>
801001fc:	2300      	movs	r3, #0
801001fe:	9301      	str	r3, [sp, #4]
80100200:	f44f 6389 	mov.w	r3, #1096	; 0x448
80100204:	f2c0 230e 	movt	r3, #526	; 0x20e
80100208:	9300      	str	r3, [sp, #0]
8010020a:	2300      	movs	r3, #0
8010020c:	2200      	movs	r2, #0
8010020e:	2100      	movs	r1, #0
80100210:	f44f 70de 	mov.w	r0, #444	; 0x1bc
80100214:	f2c0 200e 	movt	r0, #526	; 0x20e
80100218:	f7ff ff10 	bl	8010003c <IOMUXC_SetPinMux>
8010021c:	f247 0389 	movw	r3, #28809	; 0x7089
80100220:	f2c0 0301 	movt	r3, #1
80100224:	9301      	str	r3, [sp, #4]
80100226:	f44f 6389 	mov.w	r3, #1096	; 0x448
8010022a:	f2c0 230e 	movt	r3, #526	; 0x20e
8010022e:	9300      	str	r3, [sp, #0]
80100230:	2300      	movs	r3, #0
80100232:	2200      	movs	r2, #0
80100234:	2100      	movs	r1, #0
80100236:	f44f 70de 	mov.w	r0, #444	; 0x1bc
8010023a:	f2c0 200e 	movt	r0, #526	; 0x20e
8010023e:	f7ff ff1c 	bl	8010007a <IOMUXC_SetPinConfig>
80100242:	2300      	movs	r3, #0
80100244:	9301      	str	r3, [sp, #4]
80100246:	f44f 638a 	mov.w	r3, #1104	; 0x450
8010024a:	f2c0 230e 	movt	r3, #526	; 0x20e
8010024e:	9300      	str	r3, [sp, #0]
80100250:	2300      	movs	r3, #0
80100252:	2200      	movs	r2, #0
80100254:	2100      	movs	r1, #0
80100256:	f44f 70e2 	mov.w	r0, #452	; 0x1c4
8010025a:	f2c0 200e 	movt	r0, #526	; 0x20e
8010025e:	f7ff feed 	bl	8010003c <IOMUXC_SetPinMux>
80100262:	f247 0389 	movw	r3, #28809	; 0x7089
80100266:	f2c0 0301 	movt	r3, #1
8010026a:	9301      	str	r3, [sp, #4]
8010026c:	f44f 638a 	mov.w	r3, #1104	; 0x450
80100270:	f2c0 230e 	movt	r3, #526	; 0x20e
80100274:	9300      	str	r3, [sp, #0]
80100276:	2300      	movs	r3, #0
80100278:	2200      	movs	r2, #0
8010027a:	2100      	movs	r1, #0
8010027c:	f44f 70e2 	mov.w	r0, #452	; 0x1c4
80100280:	f2c0 200e 	movt	r0, #526	; 0x20e
80100284:	f7ff fef9 	bl	8010007a <IOMUXC_SetPinConfig>
80100288:	2300      	movs	r3, #0
8010028a:	9301      	str	r3, [sp, #4]
8010028c:	f240 4354 	movw	r3, #1108	; 0x454
80100290:	f2c0 230e 	movt	r3, #526	; 0x20e
80100294:	9300      	str	r3, [sp, #0]
80100296:	2300      	movs	r3, #0
80100298:	2200      	movs	r2, #0
8010029a:	2100      	movs	r1, #0
8010029c:	f44f 70e4 	mov.w	r0, #456	; 0x1c8
801002a0:	f2c0 200e 	movt	r0, #526	; 0x20e
801002a4:	f7ff feca 	bl	8010003c <IOMUXC_SetPinMux>
801002a8:	f247 0389 	movw	r3, #28809	; 0x7089
801002ac:	f2c0 0301 	movt	r3, #1
801002b0:	9301      	str	r3, [sp, #4]
801002b2:	f240 4354 	movw	r3, #1108	; 0x454
801002b6:	f2c0 230e 	movt	r3, #526	; 0x20e
801002ba:	9300      	str	r3, [sp, #0]
801002bc:	2300      	movs	r3, #0
801002be:	2200      	movs	r2, #0
801002c0:	2100      	movs	r1, #0
801002c2:	f44f 70e4 	mov.w	r0, #456	; 0x1c8
801002c6:	f2c0 200e 	movt	r0, #526	; 0x20e
801002ca:	f7ff fed6 	bl	8010007a <IOMUXC_SetPinConfig>
801002ce:	2300      	movs	r3, #0
801002d0:	9301      	str	r3, [sp, #4]
801002d2:	f44f 638b 	mov.w	r3, #1112	; 0x458
801002d6:	f2c0 230e 	movt	r3, #526	; 0x20e
801002da:	9300      	str	r3, [sp, #0]
801002dc:	2300      	movs	r3, #0
801002de:	2200      	movs	r2, #0
801002e0:	2100      	movs	r1, #0
801002e2:	f44f 70e6 	mov.w	r0, #460	; 0x1cc
801002e6:	f2c0 200e 	movt	r0, #526	; 0x20e
801002ea:	f7ff fea7 	bl	8010003c <IOMUXC_SetPinMux>
801002ee:	f247 0389 	movw	r3, #28809	; 0x7089
801002f2:	f2c0 0301 	movt	r3, #1
801002f6:	9301      	str	r3, [sp, #4]
801002f8:	f44f 638b 	mov.w	r3, #1112	; 0x458
801002fc:	f2c0 230e 	movt	r3, #526	; 0x20e
80100300:	9300      	str	r3, [sp, #0]
80100302:	2300      	movs	r3, #0
80100304:	2200      	movs	r2, #0
80100306:	2100      	movs	r1, #0
80100308:	f44f 70e6 	mov.w	r0, #460	; 0x1cc
8010030c:	f2c0 200e 	movt	r0, #526	; 0x20e
80100310:	f7ff feb3 	bl	8010007a <IOMUXC_SetPinConfig>
80100314:	2300      	movs	r3, #0
80100316:	9301      	str	r3, [sp, #4]
80100318:	f240 435c 	movw	r3, #1116	; 0x45c
8010031c:	f2c0 230e 	movt	r3, #526	; 0x20e
80100320:	9300      	str	r3, [sp, #0]
80100322:	2300      	movs	r3, #0
80100324:	2200      	movs	r2, #0
80100326:	2100      	movs	r1, #0
80100328:	f44f 70e8 	mov.w	r0, #464	; 0x1d0
8010032c:	f2c0 200e 	movt	r0, #526	; 0x20e
80100330:	f7ff fe84 	bl	8010003c <IOMUXC_SetPinMux>
80100334:	f247 0389 	movw	r3, #28809	; 0x7089
80100338:	f2c0 0301 	movt	r3, #1
8010033c:	9301      	str	r3, [sp, #4]
8010033e:	f240 435c 	movw	r3, #1116	; 0x45c
80100342:	f2c0 230e 	movt	r3, #526	; 0x20e
80100346:	9300      	str	r3, [sp, #0]
80100348:	2300      	movs	r3, #0
8010034a:	2200      	movs	r2, #0
8010034c:	2100      	movs	r1, #0
8010034e:	f44f 70e8 	mov.w	r0, #464	; 0x1d0
80100352:	f2c0 200e 	movt	r0, #526	; 0x20e
80100356:	f7ff fe90 	bl	8010007a <IOMUXC_SetPinConfig>
8010035a:	2300      	movs	r3, #0
8010035c:	9301      	str	r3, [sp, #4]
8010035e:	f44f 6381 	mov.w	r3, #1032	; 0x408
80100362:	f2c0 230e 	movt	r3, #526	; 0x20e
80100366:	9300      	str	r3, [sp, #0]
80100368:	2302      	movs	r3, #2
8010036a:	f44f 62cf 	mov.w	r2, #1656	; 0x678
8010036e:	f2c0 220e 	movt	r2, #526	; 0x20e
80100372:	2101      	movs	r1, #1
80100374:	f44f 70be 	mov.w	r0, #380	; 0x17c
80100378:	f2c0 200e 	movt	r0, #526	; 0x20e
8010037c:	f7ff fe5e 	bl	8010003c <IOMUXC_SetPinMux>
80100380:	f247 03b9 	movw	r3, #28857	; 0x70b9
80100384:	f2c0 0301 	movt	r3, #1
80100388:	9301      	str	r3, [sp, #4]
8010038a:	f44f 6381 	mov.w	r3, #1032	; 0x408
8010038e:	f2c0 230e 	movt	r3, #526	; 0x20e
80100392:	9300      	str	r3, [sp, #0]
80100394:	2302      	movs	r3, #2
80100396:	f44f 62cf 	mov.w	r2, #1656	; 0x678
8010039a:	f2c0 220e 	movt	r2, #526	; 0x20e
8010039e:	2101      	movs	r1, #1
801003a0:	f44f 70be 	mov.w	r0, #380	; 0x17c
801003a4:	f2c0 200e 	movt	r0, #526	; 0x20e
801003a8:	f7ff fe67 	bl	8010007a <IOMUXC_SetPinConfig>
801003ac:	2300      	movs	r3, #0
801003ae:	9301      	str	r3, [sp, #4]
801003b0:	f240 4304 	movw	r3, #1028	; 0x404
801003b4:	f2c0 230e 	movt	r3, #526	; 0x20e
801003b8:	9300      	str	r3, [sp, #0]
801003ba:	2302      	movs	r3, #2
801003bc:	f44f 62ce 	mov.w	r2, #1648	; 0x670
801003c0:	f2c0 220e 	movt	r2, #526	; 0x20e
801003c4:	2101      	movs	r1, #1
801003c6:	f44f 70bc 	mov.w	r0, #376	; 0x178
801003ca:	f2c0 200e 	movt	r0, #526	; 0x20e
801003ce:	f7ff fe35 	bl	8010003c <IOMUXC_SetPinMux>
801003d2:	f247 0389 	movw	r3, #28809	; 0x7089
801003d6:	f2c0 0301 	movt	r3, #1
801003da:	9301      	str	r3, [sp, #4]
801003dc:	f240 4304 	movw	r3, #1028	; 0x404
801003e0:	f2c0 230e 	movt	r3, #526	; 0x20e
801003e4:	9300      	str	r3, [sp, #0]
801003e6:	2302      	movs	r3, #2
801003e8:	f44f 62ce 	mov.w	r2, #1648	; 0x670
801003ec:	f2c0 220e 	movt	r2, #526	; 0x20e
801003f0:	2101      	movs	r1, #1
801003f2:	f44f 70bc 	mov.w	r0, #376	; 0x178
801003f6:	f2c0 200e 	movt	r0, #526	; 0x20e
801003fa:	f7ff fe3e 	bl	8010007a <IOMUXC_SetPinConfig>
801003fe:	2300      	movs	r3, #0
80100400:	9301      	str	r3, [sp, #4]
80100402:	f240 432c 	movw	r3, #1068	; 0x42c
80100406:	f2c0 230e 	movt	r3, #526	; 0x20e
8010040a:	9300      	str	r3, [sp, #0]
8010040c:	2300      	movs	r3, #0
8010040e:	2200      	movs	r2, #0
80100410:	2101      	movs	r1, #1
80100412:	f44f 70d0 	mov.w	r0, #416	; 0x1a0
80100416:	f2c0 200e 	movt	r0, #526	; 0x20e
8010041a:	f7ff fe0f 	bl	8010003c <IOMUXC_SetPinMux>
8010041e:	f247 0389 	movw	r3, #28809	; 0x7089
80100422:	f2c0 0301 	movt	r3, #1
80100426:	9301      	str	r3, [sp, #4]
80100428:	f240 432c 	movw	r3, #1068	; 0x42c
8010042c:	f2c0 230e 	movt	r3, #526	; 0x20e
80100430:	9300      	str	r3, [sp, #0]
80100432:	2300      	movs	r3, #0
80100434:	2200      	movs	r2, #0
80100436:	2101      	movs	r1, #1
80100438:	f44f 70d0 	mov.w	r0, #416	; 0x1a0
8010043c:	f2c0 200e 	movt	r0, #526	; 0x20e
80100440:	f7ff fe1b 	bl	8010007a <IOMUXC_SetPinConfig>
80100444:	2300      	movs	r3, #0
80100446:	9301      	str	r3, [sp, #4]
80100448:	f240 430c 	movw	r3, #1036	; 0x40c
8010044c:	f2c0 230e 	movt	r3, #526	; 0x20e
80100450:	9300      	str	r3, [sp, #0]
80100452:	2302      	movs	r3, #2
80100454:	f240 627c 	movw	r2, #1660	; 0x67c
80100458:	f2c0 220e 	movt	r2, #526	; 0x20e
8010045c:	2101      	movs	r1, #1
8010045e:	f44f 70c0 	mov.w	r0, #384	; 0x180
80100462:	f2c0 200e 	movt	r0, #526	; 0x20e
80100466:	f7ff fde9 	bl	8010003c <IOMUXC_SetPinMux>
8010046a:	f247 03b9 	movw	r3, #28857	; 0x70b9
8010046e:	f2c0 0301 	movt	r3, #1
80100472:	9301      	str	r3, [sp, #4]
80100474:	f240 430c 	movw	r3, #1036	; 0x40c
80100478:	f2c0 230e 	movt	r3, #526	; 0x20e
8010047c:	9300      	str	r3, [sp, #0]
8010047e:	2302      	movs	r3, #2
80100480:	f240 627c 	movw	r2, #1660	; 0x67c
80100484:	f2c0 220e 	movt	r2, #526	; 0x20e
80100488:	2101      	movs	r1, #1
8010048a:	f44f 70c0 	mov.w	r0, #384	; 0x180
8010048e:	f2c0 200e 	movt	r0, #526	; 0x20e
80100492:	f7ff fdf2 	bl	8010007a <IOMUXC_SetPinConfig>
80100496:	2300      	movs	r3, #0
80100498:	9301      	str	r3, [sp, #4]
8010049a:	f44f 6382 	mov.w	r3, #1040	; 0x410
8010049e:	f2c0 230e 	movt	r3, #526	; 0x20e
801004a2:	9300      	str	r3, [sp, #0]
801004a4:	2302      	movs	r3, #2
801004a6:	f44f 62d0 	mov.w	r2, #1664	; 0x680
801004aa:	f2c0 220e 	movt	r2, #526	; 0x20e
801004ae:	2101      	movs	r1, #1
801004b0:	f44f 70c2 	mov.w	r0, #388	; 0x184
801004b4:	f2c0 200e 	movt	r0, #526	; 0x20e
801004b8:	f7ff fdc0 	bl	8010003c <IOMUXC_SetPinMux>
801004bc:	f247 03b9 	movw	r3, #28857	; 0x70b9
801004c0:	f2c0 0301 	movt	r3, #1
801004c4:	9301      	str	r3, [sp, #4]
801004c6:	f44f 6382 	mov.w	r3, #1040	; 0x410
801004ca:	f2c0 230e 	movt	r3, #526	; 0x20e
801004ce:	9300      	str	r3, [sp, #0]
801004d0:	2302      	movs	r3, #2
801004d2:	f44f 62d0 	mov.w	r2, #1664	; 0x680
801004d6:	f2c0 220e 	movt	r2, #526	; 0x20e
801004da:	2101      	movs	r1, #1
801004dc:	f44f 70c2 	mov.w	r0, #388	; 0x184
801004e0:	f2c0 200e 	movt	r0, #526	; 0x20e
801004e4:	f7ff fdc9 	bl	8010007a <IOMUXC_SetPinConfig>
801004e8:	2300      	movs	r3, #0
801004ea:	9301      	str	r3, [sp, #4]
801004ec:	f240 4314 	movw	r3, #1044	; 0x414
801004f0:	f2c0 230e 	movt	r3, #526	; 0x20e
801004f4:	9300      	str	r3, [sp, #0]
801004f6:	2301      	movs	r3, #1
801004f8:	f240 6284 	movw	r2, #1668	; 0x684
801004fc:	f2c0 220e 	movt	r2, #526	; 0x20e
80100500:	2101      	movs	r1, #1
80100502:	f44f 70c4 	mov.w	r0, #392	; 0x188
80100506:	f2c0 200e 	movt	r0, #526	; 0x20e
8010050a:	f7ff fd97 	bl	8010003c <IOMUXC_SetPinMux>
8010050e:	f247 03b9 	movw	r3, #28857	; 0x70b9
80100512:	f2c0 0301 	movt	r3, #1
80100516:	9301      	str	r3, [sp, #4]
80100518:	f240 4314 	movw	r3, #1044	; 0x414
8010051c:	f2c0 230e 	movt	r3, #526	; 0x20e
80100520:	9300      	str	r3, [sp, #0]
80100522:	2301      	movs	r3, #1
80100524:	f240 6284 	movw	r2, #1668	; 0x684
80100528:	f2c0 220e 	movt	r2, #526	; 0x20e
8010052c:	2101      	movs	r1, #1
8010052e:	f44f 70c4 	mov.w	r0, #392	; 0x188
80100532:	f2c0 200e 	movt	r0, #526	; 0x20e
80100536:	f7ff fda0 	bl	8010007a <IOMUXC_SetPinConfig>
8010053a:	2300      	movs	r3, #0
8010053c:	9301      	str	r3, [sp, #4]
8010053e:	f44f 6383 	mov.w	r3, #1048	; 0x418
80100542:	f2c0 230e 	movt	r3, #526	; 0x20e
80100546:	9300      	str	r3, [sp, #0]
80100548:	2302      	movs	r3, #2
8010054a:	f44f 62d1 	mov.w	r2, #1672	; 0x688
8010054e:	f2c0 220e 	movt	r2, #526	; 0x20e
80100552:	2101      	movs	r1, #1
80100554:	f44f 70c6 	mov.w	r0, #396	; 0x18c
80100558:	f2c0 200e 	movt	r0, #526	; 0x20e
8010055c:	f7ff fd6e 	bl	8010003c <IOMUXC_SetPinMux>
80100560:	f247 03b9 	movw	r3, #28857	; 0x70b9
80100564:	f2c0 0301 	movt	r3, #1
80100568:	9301      	str	r3, [sp, #4]
8010056a:	f44f 6383 	mov.w	r3, #1048	; 0x418
8010056e:	f2c0 230e 	movt	r3, #526	; 0x20e
80100572:	9300      	str	r3, [sp, #0]
80100574:	2302      	movs	r3, #2
80100576:	f44f 62d1 	mov.w	r2, #1672	; 0x688
8010057a:	f2c0 220e 	movt	r2, #526	; 0x20e
8010057e:	2101      	movs	r1, #1
80100580:	f44f 70c6 	mov.w	r0, #396	; 0x18c
80100584:	f2c0 200e 	movt	r0, #526	; 0x20e
80100588:	f7ff fd77 	bl	8010007a <IOMUXC_SetPinConfig>
8010058c:	2300      	movs	r3, #0
8010058e:	9301      	str	r3, [sp, #4]
80100590:	f240 431c 	movw	r3, #1052	; 0x41c
80100594:	f2c0 230e 	movt	r3, #526	; 0x20e
80100598:	9300      	str	r3, [sp, #0]
8010059a:	2301      	movs	r3, #1
8010059c:	f240 628c 	movw	r2, #1676	; 0x68c
801005a0:	f2c0 220e 	movt	r2, #526	; 0x20e
801005a4:	2101      	movs	r1, #1
801005a6:	f44f 70c8 	mov.w	r0, #400	; 0x190
801005aa:	f2c0 200e 	movt	r0, #526	; 0x20e
801005ae:	f7ff fd45 	bl	8010003c <IOMUXC_SetPinMux>
801005b2:	f247 03b9 	movw	r3, #28857	; 0x70b9
801005b6:	f2c0 0301 	movt	r3, #1
801005ba:	9301      	str	r3, [sp, #4]
801005bc:	f240 431c 	movw	r3, #1052	; 0x41c
801005c0:	f2c0 230e 	movt	r3, #526	; 0x20e
801005c4:	9300      	str	r3, [sp, #0]
801005c6:	2301      	movs	r3, #1
801005c8:	f240 628c 	movw	r2, #1676	; 0x68c
801005cc:	f2c0 220e 	movt	r2, #526	; 0x20e
801005d0:	2101      	movs	r1, #1
801005d2:	f44f 70c8 	mov.w	r0, #400	; 0x190
801005d6:	f2c0 200e 	movt	r0, #526	; 0x20e
801005da:	f7ff fd4e 	bl	8010007a <IOMUXC_SetPinConfig>
801005de:	2300      	movs	r3, #0
801005e0:	9301      	str	r3, [sp, #4]
801005e2:	f44f 6384 	mov.w	r3, #1056	; 0x420
801005e6:	f2c0 230e 	movt	r3, #526	; 0x20e
801005ea:	9300      	str	r3, [sp, #0]
801005ec:	2301      	movs	r3, #1
801005ee:	f44f 62d2 	mov.w	r2, #1680	; 0x690
801005f2:	f2c0 220e 	movt	r2, #526	; 0x20e
801005f6:	2101      	movs	r1, #1
801005f8:	f44f 70ca 	mov.w	r0, #404	; 0x194
801005fc:	f2c0 200e 	movt	r0, #526	; 0x20e
80100600:	f7ff fd1c 	bl	8010003c <IOMUXC_SetPinMux>
80100604:	f247 03b9 	movw	r3, #28857	; 0x70b9
80100608:	f2c0 0301 	movt	r3, #1
8010060c:	9301      	str	r3, [sp, #4]
8010060e:	f44f 6384 	mov.w	r3, #1056	; 0x420
80100612:	f2c0 230e 	movt	r3, #526	; 0x20e
80100616:	9300      	str	r3, [sp, #0]
80100618:	2301      	movs	r3, #1
8010061a:	f44f 62d2 	mov.w	r2, #1680	; 0x690
8010061e:	f2c0 220e 	movt	r2, #526	; 0x20e
80100622:	2101      	movs	r1, #1
80100624:	f44f 70ca 	mov.w	r0, #404	; 0x194
80100628:	f2c0 200e 	movt	r0, #526	; 0x20e
8010062c:	f7ff fd25 	bl	8010007a <IOMUXC_SetPinConfig>
80100630:	2300      	movs	r3, #0
80100632:	9301      	str	r3, [sp, #4]
80100634:	f240 4324 	movw	r3, #1060	; 0x424
80100638:	f2c0 230e 	movt	r3, #526	; 0x20e
8010063c:	9300      	str	r3, [sp, #0]
8010063e:	2301      	movs	r3, #1
80100640:	f240 6294 	movw	r2, #1684	; 0x694
80100644:	f2c0 220e 	movt	r2, #526	; 0x20e
80100648:	2101      	movs	r1, #1
8010064a:	f44f 70cc 	mov.w	r0, #408	; 0x198
8010064e:	f2c0 200e 	movt	r0, #526	; 0x20e
80100652:	f7ff fcf3 	bl	8010003c <IOMUXC_SetPinMux>
80100656:	f24f 03b9 	movw	r3, #61625	; 0xf0b9
8010065a:	f2c0 0301 	movt	r3, #1
8010065e:	9301      	str	r3, [sp, #4]
80100660:	f240 4324 	movw	r3, #1060	; 0x424
80100664:	f2c0 230e 	movt	r3, #526	; 0x20e
80100668:	9300      	str	r3, [sp, #0]
8010066a:	2301      	movs	r3, #1
8010066c:	f240 6294 	movw	r2, #1684	; 0x694
80100670:	f2c0 220e 	movt	r2, #526	; 0x20e
80100674:	2101      	movs	r1, #1
80100676:	f44f 70cc 	mov.w	r0, #408	; 0x198
8010067a:	f2c0 200e 	movt	r0, #526	; 0x20e
8010067e:	f7ff fcfc 	bl	8010007a <IOMUXC_SetPinConfig>
80100682:	2300      	movs	r3, #0
80100684:	9301      	str	r3, [sp, #4]
80100686:	f44f 6385 	mov.w	r3, #1064	; 0x428
8010068a:	f2c0 230e 	movt	r3, #526	; 0x20e
8010068e:	9300      	str	r3, [sp, #0]
80100690:	2301      	movs	r3, #1
80100692:	f44f 62d3 	mov.w	r2, #1688	; 0x698
80100696:	f2c0 220e 	movt	r2, #526	; 0x20e
8010069a:	2101      	movs	r1, #1
8010069c:	f44f 70ce 	mov.w	r0, #412	; 0x19c
801006a0:	f2c0 200e 	movt	r0, #526	; 0x20e
801006a4:	f7ff fcca 	bl	8010003c <IOMUXC_SetPinMux>
801006a8:	f247 03b9 	movw	r3, #28857	; 0x70b9
801006ac:	f2c0 0301 	movt	r3, #1
801006b0:	9301      	str	r3, [sp, #4]
801006b2:	f44f 6385 	mov.w	r3, #1064	; 0x428
801006b6:	f2c0 230e 	movt	r3, #526	; 0x20e
801006ba:	9300      	str	r3, [sp, #0]
801006bc:	2301      	movs	r3, #1
801006be:	f44f 62d3 	mov.w	r2, #1688	; 0x698
801006c2:	f2c0 220e 	movt	r2, #526	; 0x20e
801006c6:	2101      	movs	r1, #1
801006c8:	f44f 70ce 	mov.w	r0, #412	; 0x19c
801006cc:	f2c0 200e 	movt	r0, #526	; 0x20e
801006d0:	f7ff fcd3 	bl	8010007a <IOMUXC_SetPinConfig>
801006d4:	bf00      	nop
801006d6:	46bd      	mov	sp, r7
801006d8:	bd80      	pop	{r7, pc}

801006da <delay>:
801006da:	b480      	push	{r7}
801006dc:	b083      	sub	sp, #12
801006de:	af00      	add	r7, sp, #0
801006e0:	6078      	str	r0, [r7, #4]
801006e2:	bf00      	nop
801006e4:	687b      	ldr	r3, [r7, #4]
801006e6:	1e5a      	subs	r2, r3, #1
801006e8:	607a      	str	r2, [r7, #4]
801006ea:	2b00      	cmp	r3, #0
801006ec:	d1fa      	bne.n	801006e4 <delay+0xa>
801006ee:	bf00      	nop
801006f0:	370c      	adds	r7, #12
801006f2:	46bd      	mov	sp, r7
801006f4:	f85d 7b04 	ldr.w	r7, [sp], #4
801006f8:	4770      	bx	lr

801006fa <boot_clk_gate_init>:
801006fa:	b480      	push	{r7}
801006fc:	af00      	add	r7, sp, #0
801006fe:	f44f 4380 	mov.w	r3, #16384	; 0x4000
80100702:	f2c0 230c 	movt	r3, #524	; 0x20c
80100706:	f04f 32ff 	mov.w	r2, #4294967295	; 0xffffffff
8010070a:	669a      	str	r2, [r3, #104]	; 0x68
8010070c:	f44f 4380 	mov.w	r3, #16384	; 0x4000
80100710:	f2c0 230c 	movt	r3, #524	; 0x20c
80100714:	f04f 32ff 	mov.w	r2, #4294967295	; 0xffffffff
80100718:	66da      	str	r2, [r3, #108]	; 0x6c
8010071a:	f44f 4380 	mov.w	r3, #16384	; 0x4000
8010071e:	f2c0 230c 	movt	r3, #524	; 0x20c
80100722:	f04f 32ff 	mov.w	r2, #4294967295	; 0xffffffff
80100726:	671a      	str	r2, [r3, #112]	; 0x70
80100728:	f44f 4380 	mov.w	r3, #16384	; 0x4000
8010072c:	f2c0 230c 	movt	r3, #524	; 0x20c
80100730:	f04f 32ff 	mov.w	r2, #4294967295	; 0xffffffff
80100734:	675a      	str	r2, [r3, #116]	; 0x74
80100736:	f44f 4380 	mov.w	r3, #16384	; 0x4000
8010073a:	f2c0 230c 	movt	r3, #524	; 0x20c
8010073e:	f04f 32ff 	mov.w	r2, #4294967295	; 0xffffffff
80100742:	679a      	str	r2, [r3, #120]	; 0x78
80100744:	f44f 4380 	mov.w	r3, #16384	; 0x4000
80100748:	f2c0 230c 	movt	r3, #524	; 0x20c
8010074c:	f04f 32ff 	mov.w	r2, #4294967295	; 0xffffffff
80100750:	67da      	str	r2, [r3, #124]	; 0x7c
80100752:	f44f 4380 	mov.w	r3, #16384	; 0x4000
80100756:	f2c0 230c 	movt	r3, #524	; 0x20c
8010075a:	f04f 32ff 	mov.w	r2, #4294967295	; 0xffffffff
8010075e:	f8c3 2080 	str.w	r2, [r3, #128]	; 0x80
80100762:	bf00      	nop
80100764:	46bd      	mov	sp, r7
80100766:	f85d 7b04 	ldr.w	r7, [sp], #4
8010076a:	4770      	bx	lr

8010076c <boot_clk_init>:
8010076c:	b480      	push	{r7}
8010076e:	af00      	add	r7, sp, #0
80100770:	f44f 4380 	mov.w	r3, #16384	; 0x4000
80100774:	f2c0 230c 	movt	r3, #524	; 0x20c
80100778:	68db      	ldr	r3, [r3, #12]
8010077a:	f003 0304 	and.w	r3, r3, #4
8010077e:	2b00      	cmp	r3, #0
80100780:	d117      	bne.n	801007b2 <boot_clk_init+0x46>
80100782:	f44f 4380 	mov.w	r3, #16384	; 0x4000
80100786:	f2c0 230c 	movt	r3, #524	; 0x20c
8010078a:	f44f 4280 	mov.w	r2, #16384	; 0x4000
8010078e:	f2c0 220c 	movt	r2, #524	; 0x20c
80100792:	68d2      	ldr	r2, [r2, #12]
80100794:	f422 7280 	bic.w	r2, r2, #256	; 0x100
80100798:	60da      	str	r2, [r3, #12]
8010079a:	f44f 4380 	mov.w	r3, #16384	; 0x4000
8010079e:	f2c0 230c 	movt	r3, #524	; 0x20c
801007a2:	f44f 4280 	mov.w	r2, #16384	; 0x4000
801007a6:	f2c0 220c 	movt	r2, #524	; 0x20c
801007aa:	68d2      	ldr	r2, [r2, #12]
801007ac:	f042 0204 	orr.w	r2, r2, #4
801007b0:	60da      	str	r2, [r3, #12]
801007b2:	f44f 4300 	mov.w	r3, #32768	; 0x8000
801007b6:	f2c0 230c 	movt	r3, #524	; 0x20c
801007ba:	f242 0258 	movw	r2, #8280	; 0x2058
801007be:	601a      	str	r2, [r3, #0]
801007c0:	f44f 4380 	mov.w	r3, #16384	; 0x4000
801007c4:	f2c0 230c 	movt	r3, #524	; 0x20c
801007c8:	f44f 4280 	mov.w	r2, #16384	; 0x4000
801007cc:	f2c0 220c 	movt	r2, #524	; 0x20c
801007d0:	68d2      	ldr	r2, [r2, #12]
801007d2:	f022 0204 	bic.w	r2, r2, #4
801007d6:	60da      	str	r2, [r3, #12]
801007d8:	f44f 4380 	mov.w	r3, #16384	; 0x4000
801007dc:	f2c0 230c 	movt	r3, #524	; 0x20c
801007e0:	2201      	movs	r2, #1
801007e2:	611a      	str	r2, [r3, #16]
801007e4:	f44f 4300 	mov.w	r3, #32768	; 0x8000
801007e8:	f2c0 230c 	movt	r3, #524	; 0x20c
801007ec:	f44f 4200 	mov.w	r2, #32768	; 0x8000
801007f0:	f2c0 220c 	movt	r2, #524	; 0x20c
801007f4:	f8d2 2100 	ldr.w	r2, [r2, #256]	; 0x100
801007f8:	f002 32c0 	and.w	r2, r2, #3233857728	; 0xc0c0c0c0
801007fc:	f8c3 2100 	str.w	r2, [r3, #256]	; 0x100
80100800:	f44f 4200 	mov.w	r2, #32768	; 0x8000
80100804:	f2c0 220c 	movt	r2, #524	; 0x20c
80100808:	f44f 4300 	mov.w	r3, #32768	; 0x8000
8010080c:	f2c0 230c 	movt	r3, #524	; 0x20c
80100810:	f8d3 1100 	ldr.w	r1, [r3, #256]	; 0x100
80100814:	f241 031b 	movw	r3, #4123	; 0x101b
80100818:	f2c3 0318 	movt	r3, #12312	; 0x3018
8010081c:	430b      	orrs	r3, r1
8010081e:	f8c2 3100 	str.w	r3, [r2, #256]	; 0x100
80100822:	f44f 4300 	mov.w	r3, #32768	; 0x8000
80100826:	f2c0 230c 	movt	r3, #524	; 0x20c
8010082a:	f44f 4200 	mov.w	r2, #32768	; 0x8000
8010082e:	f2c0 220c 	movt	r2, #524	; 0x20c
80100832:	f8d2 20f0 	ldr.w	r2, [r2, #240]	; 0xf0
80100836:	f002 32c0 	and.w	r2, r2, #3233857728	; 0xc0c0c0c0
8010083a:	f8c3 20f0 	str.w	r2, [r3, #240]	; 0xf0
8010083e:	f44f 4200 	mov.w	r2, #32768	; 0x8000
80100842:	f2c0 220c 	movt	r2, #524	; 0x20c
80100846:	f44f 4300 	mov.w	r3, #32768	; 0x8000
8010084a:	f2c0 230c 	movt	r3, #524	; 0x20c
8010084e:	f8d3 10f0 	ldr.w	r1, [r3, #240]	; 0xf0
80100852:	f241 030c 	movw	r3, #4108	; 0x100c
80100856:	f2c1 3311 	movt	r3, #4881	; 0x1311
8010085a:	430b      	orrs	r3, r1
8010085c:	f8c2 30f0 	str.w	r3, [r2, #240]	; 0xf0
80100860:	f44f 4380 	mov.w	r3, #16384	; 0x4000
80100864:	f2c0 230c 	movt	r3, #524	; 0x20c
80100868:	f44f 4280 	mov.w	r2, #16384	; 0x4000
8010086c:	f2c0 220c 	movt	r2, #524	; 0x20c
80100870:	6992      	ldr	r2, [r2, #24]
80100872:	f422 02d8 	bic.w	r2, r2, #7077888	; 0x6c0000
80100876:	619a      	str	r2, [r3, #24]
80100878:	f44f 4380 	mov.w	r3, #16384	; 0x4000
8010087c:	f2c0 230c 	movt	r3, #524	; 0x20c
80100880:	f44f 4280 	mov.w	r2, #16384	; 0x4000
80100884:	f2c0 220c 	movt	r2, #524	; 0x20c
80100888:	6992      	ldr	r2, [r2, #24]
8010088a:	f442 1210 	orr.w	r2, r2, #2359296	; 0x240000
8010088e:	619a      	str	r2, [r3, #24]
80100890:	f44f 4380 	mov.w	r3, #16384	; 0x4000
80100894:	f2c0 230c 	movt	r3, #524	; 0x20c
80100898:	f44f 4280 	mov.w	r2, #16384	; 0x4000
8010089c:	f2c0 220c 	movt	r2, #524	; 0x20c
801008a0:	6952      	ldr	r2, [r2, #20]
801008a2:	f022 62c0 	bic.w	r2, r2, #100663296	; 0x6000000
801008a6:	615a      	str	r2, [r3, #20]
801008a8:	f44f 4380 	mov.w	r3, #16384	; 0x4000
801008ac:	f2c0 230c 	movt	r3, #524	; 0x20c
801008b0:	f44f 4280 	mov.w	r2, #16384	; 0x4000
801008b4:	f2c0 220c 	movt	r2, #524	; 0x20c
801008b8:	6952      	ldr	r2, [r2, #20]
801008ba:	615a      	str	r2, [r3, #20]
801008bc:	f44f 4280 	mov.w	r2, #16384	; 0x4000
801008c0:	f2c0 220c 	movt	r2, #524	; 0x20c
801008c4:	f44f 4380 	mov.w	r3, #16384	; 0x4000
801008c8:	f2c0 230c 	movt	r3, #524	; 0x20c
801008cc:	695b      	ldr	r3, [r3, #20]
801008ce:	f423 23e0 	bic.w	r3, r3, #458752	; 0x70000
801008d2:	f423 7340 	bic.w	r3, r3, #768	; 0x300
801008d6:	6153      	str	r3, [r2, #20]
801008d8:	f44f 4280 	mov.w	r2, #16384	; 0x4000
801008dc:	f2c0 220c 	movt	r2, #524	; 0x20c
801008e0:	f44f 4380 	mov.w	r3, #16384	; 0x4000
801008e4:	f2c0 230c 	movt	r3, #524	; 0x20c
801008e8:	695b      	ldr	r3, [r3, #20]
801008ea:	f443 3380 	orr.w	r3, r3, #65536	; 0x10000
801008ee:	f443 7380 	orr.w	r3, r3, #256	; 0x100
801008f2:	6153      	str	r3, [r2, #20]
801008f4:	f44f 4280 	mov.w	r2, #16384	; 0x4000
801008f8:	f2c0 220c 	movt	r2, #524	; 0x20c
801008fc:	f44f 4380 	mov.w	r3, #16384	; 0x4000
80100900:	f2c0 230c 	movt	r3, #524	; 0x20c
80100904:	695b      	ldr	r3, [r3, #20]
80100906:	f023 5360 	bic.w	r3, r3, #939524096	; 0x38000000
8010090a:	f023 0387 	bic.w	r3, r3, #135	; 0x87
8010090e:	6153      	str	r3, [r2, #20]
80100910:	f44f 4380 	mov.w	r3, #16384	; 0x4000
80100914:	f2c0 230c 	movt	r3, #524	; 0x20c
80100918:	f44f 4280 	mov.w	r2, #16384	; 0x4000
8010091c:	f2c0 220c 	movt	r2, #524	; 0x20c
80100920:	6952      	ldr	r2, [r2, #20]
80100922:	615a      	str	r2, [r3, #20]
80100924:	bf00      	nop
80100926:	f44f 4380 	mov.w	r3, #16384	; 0x4000
8010092a:	f2c0 230c 	movt	r3, #524	; 0x20c
8010092e:	6c9b      	ldr	r3, [r3, #72]	; 0x48
80100930:	f003 032f 	and.w	r3, r3, #47	; 0x2f
80100934:	2b00      	cmp	r3, #0
80100936:	d1f6      	bne.n	80100926 <boot_clk_init+0x1ba>
80100938:	f44f 4380 	mov.w	r3, #16384	; 0x4000
8010093c:	f2c0 230c 	movt	r3, #524	; 0x20c
80100940:	f44f 4280 	mov.w	r2, #16384	; 0x4000
80100944:	f2c0 220c 	movt	r2, #524	; 0x20c
80100948:	68d2      	ldr	r2, [r2, #12]
8010094a:	f022 0201 	bic.w	r2, r2, #1
8010094e:	60da      	str	r2, [r3, #12]
80100950:	f44f 4380 	mov.w	r3, #16384	; 0x4000
80100954:	f2c0 230c 	movt	r3, #524	; 0x20c
80100958:	f44f 4280 	mov.w	r2, #16384	; 0x4000
8010095c:	f2c0 220c 	movt	r2, #524	; 0x20c
80100960:	6a52      	ldr	r2, [r2, #36]	; 0x24
80100962:	f022 0240 	bic.w	r2, r2, #64	; 0x40
80100966:	625a      	str	r2, [r3, #36]	; 0x24
80100968:	f44f 4380 	mov.w	r3, #16384	; 0x4000
8010096c:	f2c0 230c 	movt	r3, #524	; 0x20c
80100970:	f44f 4280 	mov.w	r2, #16384	; 0x4000
80100974:	f2c0 220c 	movt	r2, #524	; 0x20c
80100978:	6a52      	ldr	r2, [r2, #36]	; 0x24
8010097a:	f022 023f 	bic.w	r2, r2, #63	; 0x3f
8010097e:	625a      	str	r2, [r3, #36]	; 0x24
80100980:	f44f 4380 	mov.w	r3, #16384	; 0x4000
80100984:	f2c0 230c 	movt	r3, #524	; 0x20c
80100988:	f44f 4280 	mov.w	r2, #16384	; 0x4000
8010098c:	f2c0 220c 	movt	r2, #524	; 0x20c
80100990:	69d2      	ldr	r2, [r2, #28]
80100992:	f022 0240 	bic.w	r2, r2, #64	; 0x40
80100996:	61da      	str	r2, [r3, #28]
80100998:	f44f 4380 	mov.w	r3, #16384	; 0x4000
8010099c:	f2c0 230c 	movt	r3, #524	; 0x20c
801009a0:	f44f 4280 	mov.w	r2, #16384	; 0x4000
801009a4:	f2c0 220c 	movt	r2, #524	; 0x20c
801009a8:	69d2      	ldr	r2, [r2, #28]
801009aa:	f022 023f 	bic.w	r2, r2, #63	; 0x3f
801009ae:	61da      	str	r2, [r3, #28]
801009b0:	bf00      	nop
801009b2:	46bd      	mov	sp, r7
801009b4:	f85d 7b04 	ldr.w	r7, [sp], #4
801009b8:	4770      	bx	lr

801009ba <main>:
801009ba:	b580      	push	{r7, lr}
801009bc:	b082      	sub	sp, #8
801009be:	af00      	add	r7, sp, #0
801009c0:	f7ff fb6e 	bl	801000a0 <init_pins>
801009c4:	f000 f9a2 	bl	80100d0c <led_gpio_init>
801009c8:	2000      	movs	r0, #0
801009ca:	f000 f9b2 	bl	80100d32 <led_ctl>
801009ce:	f7ff fe94 	bl	801006fa <boot_clk_gate_init>
801009d2:	f7ff fecb 	bl	8010076c <boot_clk_init>
801009d6:	f000 fb3a 	bl	8010104e <uart1_init>
801009da:	f643 50b4 	movw	r0, #15796	; 0x3db4
801009de:	f2c8 0010 	movt	r0, #32784	; 0x8010
801009e2:	f000 fc03 	bl	801011ec <puts>
801009e6:	f643 50c4 	movw	r0, #15812	; 0x3dc4
801009ea:	f2c8 0010 	movt	r0, #32784	; 0x8010
801009ee:	f000 fd8a 	bl	80101506 <printf>
801009f2:	f643 50d0 	movw	r0, #15824	; 0x3dd0
801009f6:	f2c8 0010 	movt	r0, #32784	; 0x8010
801009fa:	f000 fd84 	bl	80101506 <printf>
801009fe:	f643 50e0 	movw	r0, #15840	; 0x3de0
80100a02:	f2c8 0010 	movt	r0, #32784	; 0x8010
80100a06:	f000 fd7e 	bl	80101506 <printf>
80100a0a:	f000 fbd9 	bl	801011c0 <getchar>
80100a0e:	4603      	mov	r3, r0
80100a10:	70fb      	strb	r3, [r7, #3]
80100a12:	78fb      	ldrb	r3, [r7, #3]
80100a14:	2b31      	cmp	r3, #49	; 0x31
80100a16:	f040 80b7 	bne.w	80100b88 <main+0x1ce>
80100a1a:	f643 50fc 	movw	r0, #15868	; 0x3dfc
80100a1e:	f2c8 0010 	movt	r0, #32784	; 0x8010
80100a22:	f000 fd70 	bl	80101506 <printf>
80100a26:	f000 fbcb 	bl	801011c0 <getchar>
80100a2a:	4603      	mov	r3, r0
80100a2c:	70fb      	strb	r3, [r7, #3]
80100a2e:	78fb      	ldrb	r3, [r7, #3]
80100a30:	2b63      	cmp	r3, #99	; 0x63
80100a32:	f040 80a2 	bne.w	80100b7a <main+0x1c0>
80100a36:	f643 6030 	movw	r0, #15920	; 0x3e30
80100a3a:	f2c8 0010 	movt	r0, #32784	; 0x8010
80100a3e:	f000 fd62 	bl	80101506 <printf>
80100a42:	2000      	movs	r0, #0
80100a44:	f2c0 2019 	movt	r0, #537	; 0x219
80100a48:	f001 fde6 	bl	80102618 <sd_init>
80100a4c:	f44f 5280 	mov.w	r2, #4096	; 0x1000
80100a50:	2100      	movs	r1, #0
80100a52:	f646 0000 	movw	r0, #26624	; 0x6800
80100a56:	f2c8 0010 	movt	r0, #32784	; 0x8010
80100a5a:	f000 fe24 	bl	801016a6 <memset>
80100a5e:	2302      	movs	r3, #2
80100a60:	2202      	movs	r2, #2
80100a62:	f646 0100 	movw	r1, #26624	; 0x6800
80100a66:	f2c8 0110 	movt	r1, #32784	; 0x8010
80100a6a:	2000      	movs	r0, #0
80100a6c:	f2c0 2019 	movt	r0, #537	; 0x219
80100a70:	f002 f89b 	bl	80102baa <sd_read_blocks>
80100a74:	f643 6040 	movw	r0, #15936	; 0x3e40
80100a78:	f2c8 0010 	movt	r0, #32784	; 0x8010
80100a7c:	f000 fd43 	bl	80101506 <printf>
80100a80:	2300      	movs	r3, #0
80100a82:	607b      	str	r3, [r7, #4]
80100a84:	e01c      	b.n	80100ac0 <main+0x106>
80100a86:	f646 0300 	movw	r3, #26624	; 0x6800
80100a8a:	f2c8 0310 	movt	r3, #32784	; 0x8010
80100a8e:	687a      	ldr	r2, [r7, #4]
80100a90:	4413      	add	r3, r2
80100a92:	781b      	ldrb	r3, [r3, #0]
80100a94:	4619      	mov	r1, r3
80100a96:	f643 6064 	movw	r0, #15972	; 0x3e64
80100a9a:	f2c8 0010 	movt	r0, #32784	; 0x8010
80100a9e:	f000 fd32 	bl	80101506 <printf>
80100aa2:	687b      	ldr	r3, [r7, #4]
80100aa4:	3301      	adds	r3, #1
80100aa6:	f003 030f 	and.w	r3, r3, #15
80100aaa:	2b00      	cmp	r3, #0
80100aac:	d105      	bne.n	80100aba <main+0x100>
80100aae:	f643 606c 	movw	r0, #15980	; 0x3e6c
80100ab2:	f2c8 0010 	movt	r0, #32784	; 0x8010
80100ab6:	f000 fd26 	bl	80101506 <printf>
80100aba:	687b      	ldr	r3, [r7, #4]
80100abc:	3301      	adds	r3, #1
80100abe:	607b      	str	r3, [r7, #4]
80100ac0:	687b      	ldr	r3, [r7, #4]
80100ac2:	f5b3 6f80 	cmp.w	r3, #1024	; 0x400
80100ac6:	dbde      	blt.n	80100a86 <main+0xcc>
80100ac8:	f643 6070 	movw	r0, #15984	; 0x3e70
80100acc:	f2c8 0010 	movt	r0, #32784	; 0x8010
80100ad0:	f000 fd19 	bl	80101506 <printf>
80100ad4:	498c      	ldr	r1, [pc, #560]	; (80100d08 <main+0x34e>)
80100ad6:	230e      	movs	r3, #14
80100ad8:	2202      	movs	r2, #2
80100ada:	2000      	movs	r0, #0
80100adc:	f2c0 2019 	movt	r0, #537	; 0x219
80100ae0:	f002 f902 	bl	80102ce8 <sd_write_blocks>
80100ae4:	f643 6088 	movw	r0, #16008	; 0x3e88
80100ae8:	f2c8 0010 	movt	r0, #32784	; 0x8010
80100aec:	f000 fd0b 	bl	80101506 <printf>
80100af0:	f44f 5280 	mov.w	r2, #4096	; 0x1000
80100af4:	2100      	movs	r1, #0
80100af6:	f646 0000 	movw	r0, #26624	; 0x6800
80100afa:	f2c8 0010 	movt	r0, #32784	; 0x8010
80100afe:	f000 fdd2 	bl	801016a6 <memset>
80100b02:	2302      	movs	r3, #2
80100b04:	2202      	movs	r2, #2
80100b06:	f646 0100 	movw	r1, #26624	; 0x6800
80100b0a:	f2c8 0110 	movt	r1, #32784	; 0x8010
80100b0e:	2000      	movs	r0, #0
80100b10:	f2c0 2019 	movt	r0, #537	; 0x219
80100b14:	f002 f849 	bl	80102baa <sd_read_blocks>
80100b18:	f643 60d4 	movw	r0, #16084	; 0x3ed4
80100b1c:	f2c8 0010 	movt	r0, #32784	; 0x8010
80100b20:	f000 fcf1 	bl	80101506 <printf>
80100b24:	2300      	movs	r3, #0
80100b26:	607b      	str	r3, [r7, #4]
80100b28:	e01c      	b.n	80100b64 <main+0x1aa>
80100b2a:	f646 0300 	movw	r3, #26624	; 0x6800
80100b2e:	f2c8 0310 	movt	r3, #32784	; 0x8010
80100b32:	687a      	ldr	r2, [r7, #4]
80100b34:	4413      	add	r3, r2
80100b36:	781b      	ldrb	r3, [r3, #0]
80100b38:	4619      	mov	r1, r3
80100b3a:	f643 6064 	movw	r0, #15972	; 0x3e64
80100b3e:	f2c8 0010 	movt	r0, #32784	; 0x8010
80100b42:	f000 fce0 	bl	80101506 <printf>
80100b46:	687b      	ldr	r3, [r7, #4]
80100b48:	3301      	adds	r3, #1
80100b4a:	f003 030f 	and.w	r3, r3, #15
80100b4e:	2b00      	cmp	r3, #0
80100b50:	d105      	bne.n	80100b5e <main+0x1a4>
80100b52:	f643 606c 	movw	r0, #15980	; 0x3e6c
80100b56:	f2c8 0010 	movt	r0, #32784	; 0x8010
80100b5a:	f000 fcd4 	bl	80101506 <printf>
80100b5e:	687b      	ldr	r3, [r7, #4]
80100b60:	3301      	adds	r3, #1
80100b62:	607b      	str	r3, [r7, #4]
80100b64:	687b      	ldr	r3, [r7, #4]
80100b66:	f5b3 6f80 	cmp.w	r3, #1024	; 0x400
80100b6a:	dbde      	blt.n	80100b2a <main+0x170>
80100b6c:	f643 6088 	movw	r0, #16008	; 0x3e88
80100b70:	f2c8 0010 	movt	r0, #32784	; 0x8010
80100b74:	f000 fcc7 	bl	80101506 <printf>
80100b78:	e0b0      	b.n	80100cdc <main+0x322>
80100b7a:	f643 7010 	movw	r0, #16144	; 0x3f10
80100b7e:	f2c8 0010 	movt	r0, #32784	; 0x8010
80100b82:	f000 fcc0 	bl	80101506 <printf>
80100b86:	e0a9      	b.n	80100cdc <main+0x322>
80100b88:	78fb      	ldrb	r3, [r7, #3]
80100b8a:	2b32      	cmp	r3, #50	; 0x32
80100b8c:	f040 80a0 	bne.w	80100cd0 <main+0x316>
80100b90:	f44f 4080 	mov.w	r0, #16384	; 0x4000
80100b94:	f2c0 2019 	movt	r0, #537	; 0x219
80100b98:	f002 fd7d 	bl	80103696 <mmc_init>
80100b9c:	f44f 4080 	mov.w	r0, #16384	; 0x4000
80100ba0:	f2c0 2019 	movt	r0, #537	; 0x219
80100ba4:	f002 fd5b 	bl	8010365e <MMC_SelectBoot1Partition>
80100ba8:	f44f 5280 	mov.w	r2, #4096	; 0x1000
80100bac:	2100      	movs	r1, #0
80100bae:	f646 0000 	movw	r0, #26624	; 0x6800
80100bb2:	f2c8 0010 	movt	r0, #32784	; 0x8010
80100bb6:	f000 fd76 	bl	801016a6 <memset>
80100bba:	2302      	movs	r3, #2
80100bbc:	2202      	movs	r2, #2
80100bbe:	f646 0100 	movw	r1, #26624	; 0x6800
80100bc2:	f2c8 0110 	movt	r1, #32784	; 0x8010
80100bc6:	f44f 4080 	mov.w	r0, #16384	; 0x4000
80100bca:	f2c0 2019 	movt	r0, #537	; 0x219
80100bce:	f001 ffec 	bl	80102baa <sd_read_blocks>
80100bd2:	f643 702c 	movw	r0, #16172	; 0x3f2c
80100bd6:	f2c8 0010 	movt	r0, #32784	; 0x8010
80100bda:	f000 fc94 	bl	80101506 <printf>
80100bde:	2300      	movs	r3, #0
80100be0:	607b      	str	r3, [r7, #4]
80100be2:	e01c      	b.n	80100c1e <main+0x264>
80100be4:	f646 0300 	movw	r3, #26624	; 0x6800
80100be8:	f2c8 0310 	movt	r3, #32784	; 0x8010
80100bec:	687a      	ldr	r2, [r7, #4]
80100bee:	4413      	add	r3, r2
80100bf0:	781b      	ldrb	r3, [r3, #0]
80100bf2:	4619      	mov	r1, r3
80100bf4:	f643 6064 	movw	r0, #15972	; 0x3e64
80100bf8:	f2c8 0010 	movt	r0, #32784	; 0x8010
80100bfc:	f000 fc83 	bl	80101506 <printf>
80100c00:	687b      	ldr	r3, [r7, #4]
80100c02:	3301      	adds	r3, #1
80100c04:	f003 030f 	and.w	r3, r3, #15
80100c08:	2b00      	cmp	r3, #0
80100c0a:	d105      	bne.n	80100c18 <main+0x25e>
80100c0c:	f643 606c 	movw	r0, #15980	; 0x3e6c
80100c10:	f2c8 0010 	movt	r0, #32784	; 0x8010
80100c14:	f000 fc77 	bl	80101506 <printf>
80100c18:	687b      	ldr	r3, [r7, #4]
80100c1a:	3301      	adds	r3, #1
80100c1c:	607b      	str	r3, [r7, #4]
80100c1e:	687b      	ldr	r3, [r7, #4]
80100c20:	f5b3 6f80 	cmp.w	r3, #1024	; 0x400
80100c24:	dbde      	blt.n	80100be4 <main+0x22a>
80100c26:	4938      	ldr	r1, [pc, #224]	; (80100d08 <main+0x34e>)
80100c28:	230e      	movs	r3, #14
80100c2a:	2202      	movs	r2, #2
80100c2c:	f44f 4080 	mov.w	r0, #16384	; 0x4000
80100c30:	f2c0 2019 	movt	r0, #537	; 0x219
80100c34:	f002 f858 	bl	80102ce8 <sd_write_blocks>
80100c38:	f643 7064 	movw	r0, #16228	; 0x3f64
80100c3c:	f2c8 0010 	movt	r0, #32784	; 0x8010
80100c40:	f000 fc61 	bl	80101506 <printf>
80100c44:	f643 70b0 	movw	r0, #16304	; 0x3fb0
80100c48:	f2c8 0010 	movt	r0, #32784	; 0x8010
80100c4c:	f000 fc5b 	bl	80101506 <printf>
80100c50:	f44f 5280 	mov.w	r2, #4096	; 0x1000
80100c54:	2100      	movs	r1, #0
80100c56:	f646 0000 	movw	r0, #26624	; 0x6800
80100c5a:	f2c8 0010 	movt	r0, #32784	; 0x8010
80100c5e:	f000 fd22 	bl	801016a6 <memset>
80100c62:	2302      	movs	r3, #2
80100c64:	2202      	movs	r2, #2
80100c66:	f646 0100 	movw	r1, #26624	; 0x6800
80100c6a:	f2c8 0110 	movt	r1, #32784	; 0x8010
80100c6e:	f44f 4080 	mov.w	r0, #16384	; 0x4000
80100c72:	f2c0 2019 	movt	r0, #537	; 0x219
80100c76:	f001 ff98 	bl	80102baa <sd_read_blocks>
80100c7a:	f44f 4080 	mov.w	r0, #16384	; 0x4000
80100c7e:	f2c0 2019 	movt	r0, #537	; 0x219
80100c82:	f002 fcfa 	bl	8010367a <MMC_ExitBoot1Partition>
80100c86:	2300      	movs	r3, #0
80100c88:	607b      	str	r3, [r7, #4]
80100c8a:	e01c      	b.n	80100cc6 <main+0x30c>
80100c8c:	f646 0300 	movw	r3, #26624	; 0x6800
80100c90:	f2c8 0310 	movt	r3, #32784	; 0x8010
80100c94:	687a      	ldr	r2, [r7, #4]
80100c96:	4413      	add	r3, r2
80100c98:	781b      	ldrb	r3, [r3, #0]
80100c9a:	4619      	mov	r1, r3
80100c9c:	f643 6064 	movw	r0, #15972	; 0x3e64
80100ca0:	f2c8 0010 	movt	r0, #32784	; 0x8010
80100ca4:	f000 fc2f 	bl	80101506 <printf>
80100ca8:	687b      	ldr	r3, [r7, #4]
80100caa:	3301      	adds	r3, #1
80100cac:	f003 030f 	and.w	r3, r3, #15
80100cb0:	2b00      	cmp	r3, #0
80100cb2:	d105      	bne.n	80100cc0 <main+0x306>
80100cb4:	f643 606c 	movw	r0, #15980	; 0x3e6c
80100cb8:	f2c8 0010 	movt	r0, #32784	; 0x8010
80100cbc:	f000 fc23 	bl	80101506 <printf>
80100cc0:	687b      	ldr	r3, [r7, #4]
80100cc2:	3301      	adds	r3, #1
80100cc4:	607b      	str	r3, [r7, #4]
80100cc6:	687b      	ldr	r3, [r7, #4]
80100cc8:	f5b3 6f80 	cmp.w	r3, #1024	; 0x400
80100ccc:	dbde      	blt.n	80100c8c <main+0x2d2>
80100cce:	e005      	b.n	80100cdc <main+0x322>
80100cd0:	f643 7010 	movw	r0, #16144	; 0x3f10
80100cd4:	f2c8 0010 	movt	r0, #32784	; 0x8010
80100cd8:	f000 fc15 	bl	80101506 <printf>
80100cdc:	f000 fa70 	bl	801011c0 <getchar>
80100ce0:	4603      	mov	r3, r0
80100ce2:	70fb      	strb	r3, [r7, #3]
80100ce4:	78fb      	ldrb	r3, [r7, #3]
80100ce6:	2b0d      	cmp	r3, #13
80100ce8:	d102      	bne.n	80100cf0 <main+0x336>
80100cea:	200a      	movs	r0, #10
80100cec:	f000 fa4e 	bl	8010118c <putchar>
80100cf0:	78fb      	ldrb	r3, [r7, #3]
80100cf2:	2b0a      	cmp	r3, #10
80100cf4:	d102      	bne.n	80100cfc <main+0x342>
80100cf6:	200d      	movs	r0, #13
80100cf8:	f000 fa48 	bl	8010118c <putchar>
80100cfc:	78fb      	ldrb	r3, [r7, #3]
80100cfe:	4618      	mov	r0, r3
80100d00:	f000 fa44 	bl	8010118c <putchar>
80100d04:	e7ea      	b.n	80100cdc <main+0x322>
80100d06:	bf00      	nop
80100d08:	80104b6c 	andshi	r4, r0, ip, ror #22

80100d0c <led_gpio_init>:
80100d0c:	b480      	push	{r7}
80100d0e:	af00      	add	r7, sp, #0
80100d10:	f44f 4340 	mov.w	r3, #49152	; 0xc000
80100d14:	f2c0 230a 	movt	r3, #522	; 0x20a
80100d18:	f44f 4240 	mov.w	r2, #49152	; 0xc000
80100d1c:	f2c0 220a 	movt	r2, #522	; 0x20a
80100d20:	6852      	ldr	r2, [r2, #4]
80100d22:	f042 0208 	orr.w	r2, r2, #8
80100d26:	605a      	str	r2, [r3, #4]
80100d28:	bf00      	nop
80100d2a:	46bd      	mov	sp, r7
80100d2c:	f85d 7b04 	ldr.w	r7, [sp], #4
80100d30:	4770      	bx	lr

80100d32 <led_ctl>:
80100d32:	b480      	push	{r7}
80100d34:	b083      	sub	sp, #12
80100d36:	af00      	add	r7, sp, #0
80100d38:	6078      	str	r0, [r7, #4]
80100d3a:	687b      	ldr	r3, [r7, #4]
80100d3c:	2b00      	cmp	r3, #0
80100d3e:	d00c      	beq.n	80100d5a <led_ctl+0x28>
80100d40:	f44f 4340 	mov.w	r3, #49152	; 0xc000
80100d44:	f2c0 230a 	movt	r3, #522	; 0x20a
80100d48:	f44f 4240 	mov.w	r2, #49152	; 0xc000
80100d4c:	f2c0 220a 	movt	r2, #522	; 0x20a
80100d50:	6812      	ldr	r2, [r2, #0]
80100d52:	f022 0208 	bic.w	r2, r2, #8
80100d56:	601a      	str	r2, [r3, #0]
80100d58:	e00b      	b.n	80100d72 <led_ctl+0x40>
80100d5a:	f44f 4340 	mov.w	r3, #49152	; 0xc000
80100d5e:	f2c0 230a 	movt	r3, #522	; 0x20a
80100d62:	f44f 4240 	mov.w	r2, #49152	; 0xc000
80100d66:	f2c0 220a 	movt	r2, #522	; 0x20a
80100d6a:	6812      	ldr	r2, [r2, #0]
80100d6c:	f042 0208 	orr.w	r2, r2, #8
80100d70:	601a      	str	r2, [r3, #0]
80100d72:	bf00      	nop
80100d74:	370c      	adds	r7, #12
80100d76:	46bd      	mov	sp, r7
80100d78:	f85d 7b04 	ldr.w	r7, [sp], #4
80100d7c:	4770      	bx	lr
	...

80100d80 <UART_SetBaudRate>:
80100d80:	b590      	push	{r4, r7, lr}
80100d82:	b091      	sub	sp, #68	; 0x44
80100d84:	af00      	add	r7, sp, #0
80100d86:	6078      	str	r0, [r7, #4]
80100d88:	6039      	str	r1, [r7, #0]
80100d8a:	2300      	movs	r3, #0
80100d8c:	63fb      	str	r3, [r7, #60]	; 0x3c
80100d8e:	2300      	movs	r3, #0
80100d90:	63bb      	str	r3, [r7, #56]	; 0x38
80100d92:	2300      	movs	r3, #0
80100d94:	637b      	str	r3, [r7, #52]	; 0x34
80100d96:	2300      	movs	r3, #0
80100d98:	633b      	str	r3, [r7, #48]	; 0x30
80100d9a:	2301      	movs	r3, #1
80100d9c:	623b      	str	r3, [r7, #32]
80100d9e:	f04f 0300 	mov.w	r3, #0
80100da2:	f04f 0400 	mov.w	r4, #0
80100da6:	e9c7 3406 	strd	r3, r4, [r7, #24]
80100daa:	f04f 0300 	mov.w	r3, #0
80100dae:	f04f 0400 	mov.w	r4, #0
80100db2:	e9c7 340a 	strd	r3, r4, [r7, #40]	; 0x28
80100db6:	2300      	movs	r3, #0
80100db8:	627b      	str	r3, [r7, #36]	; 0x24
80100dba:	683b      	ldr	r3, [r7, #0]
80100dbc:	63fb      	str	r3, [r7, #60]	; 0x3c
80100dbe:	687b      	ldr	r3, [r7, #4]
80100dc0:	011b      	lsls	r3, r3, #4
80100dc2:	63bb      	str	r3, [r7, #56]	; 0x38
80100dc4:	2301      	movs	r3, #1
80100dc6:	637b      	str	r3, [r7, #52]	; 0x34
80100dc8:	e00a      	b.n	80100de0 <UART_SetBaudRate+0x60>
80100dca:	6bbb      	ldr	r3, [r7, #56]	; 0x38
80100dcc:	637b      	str	r3, [r7, #52]	; 0x34
80100dce:	6bfb      	ldr	r3, [r7, #60]	; 0x3c
80100dd0:	6bb9      	ldr	r1, [r7, #56]	; 0x38
80100dd2:	4618      	mov	r0, r3
80100dd4:	f002 ff36 	bl	80103c44 <__aeabi_uidivmod>
80100dd8:	460b      	mov	r3, r1
80100dda:	63bb      	str	r3, [r7, #56]	; 0x38
80100ddc:	6b7b      	ldr	r3, [r7, #52]	; 0x34
80100dde:	63fb      	str	r3, [r7, #60]	; 0x3c
80100de0:	6bbb      	ldr	r3, [r7, #56]	; 0x38
80100de2:	2b00      	cmp	r3, #0
80100de4:	d1f1      	bne.n	80100dca <UART_SetBaudRate+0x4a>
80100de6:	6b79      	ldr	r1, [r7, #52]	; 0x34
80100de8:	6838      	ldr	r0, [r7, #0]
80100dea:	f002 fdfd 	bl	801039e8 <__aeabi_uidiv>
80100dee:	4603      	mov	r3, r0
80100df0:	63fb      	str	r3, [r7, #60]	; 0x3c
80100df2:	687b      	ldr	r3, [r7, #4]
80100df4:	011b      	lsls	r3, r3, #4
80100df6:	6b79      	ldr	r1, [r7, #52]	; 0x34
80100df8:	4618      	mov	r0, r3
80100dfa:	f002 fdf5 	bl	801039e8 <__aeabi_uidiv>
80100dfe:	4603      	mov	r3, r0
80100e00:	63bb      	str	r3, [r7, #56]	; 0x38
80100e02:	6bfa      	ldr	r2, [r7, #60]	; 0x3c
80100e04:	f64f 73f9 	movw	r3, #65529	; 0xfff9
80100e08:	f2c0 0306 	movt	r3, #6
80100e0c:	429a      	cmp	r2, r3
80100e0e:	d803      	bhi.n	80100e18 <UART_SetBaudRate+0x98>
80100e10:	6bbb      	ldr	r3, [r7, #56]	; 0x38
80100e12:	f5b3 3f80 	cmp.w	r3, #65536	; 0x10000
80100e16:	d334      	bcc.n	80100e82 <UART_SetBaudRate+0x102>
80100e18:	6bfb      	ldr	r3, [r7, #60]	; 0x3c
80100e1a:	1e5a      	subs	r2, r3, #1
80100e1c:	f646 53b9 	movw	r3, #28089	; 0x6db9
80100e20:	f2c2 4393 	movt	r3, #9363	; 0x2493
80100e24:	fba2 3403 	umull	r3, r4, r2, r3
80100e28:	1b12      	subs	r2, r2, r4
80100e2a:	0852      	lsrs	r2, r2, #1
80100e2c:	1913      	adds	r3, r2, r4
80100e2e:	0c9b      	lsrs	r3, r3, #18
80100e30:	3301      	adds	r3, #1
80100e32:	617b      	str	r3, [r7, #20]
80100e34:	6bbb      	ldr	r3, [r7, #56]	; 0x38
80100e36:	1e5a      	subs	r2, r3, #1
80100e38:	f248 0301 	movw	r3, #32769	; 0x8001
80100e3c:	f2c8 0300 	movt	r3, #32768	; 0x8000
80100e40:	fba2 3403 	umull	r3, r4, r2, r3
80100e44:	0be3      	lsrs	r3, r4, #15
80100e46:	3301      	adds	r3, #1
80100e48:	613b      	str	r3, [r7, #16]
80100e4a:	693a      	ldr	r2, [r7, #16]
80100e4c:	697b      	ldr	r3, [r7, #20]
80100e4e:	4293      	cmp	r3, r2
80100e50:	bf38      	it	cc
80100e52:	4613      	movcc	r3, r2
80100e54:	60fb      	str	r3, [r7, #12]
80100e56:	68f9      	ldr	r1, [r7, #12]
80100e58:	6bf8      	ldr	r0, [r7, #60]	; 0x3c
80100e5a:	f002 fdc5 	bl	801039e8 <__aeabi_uidiv>
80100e5e:	4603      	mov	r3, r0
80100e60:	63fb      	str	r3, [r7, #60]	; 0x3c
80100e62:	68f9      	ldr	r1, [r7, #12]
80100e64:	6bb8      	ldr	r0, [r7, #56]	; 0x38
80100e66:	f002 fdbf 	bl	801039e8 <__aeabi_uidiv>
80100e6a:	4603      	mov	r3, r0
80100e6c:	63bb      	str	r3, [r7, #56]	; 0x38
80100e6e:	6bfb      	ldr	r3, [r7, #60]	; 0x3c
80100e70:	2b00      	cmp	r3, #0
80100e72:	d101      	bne.n	80100e78 <UART_SetBaudRate+0xf8>
80100e74:	2301      	movs	r3, #1
80100e76:	63fb      	str	r3, [r7, #60]	; 0x3c
80100e78:	6bbb      	ldr	r3, [r7, #56]	; 0x38
80100e7a:	2b00      	cmp	r3, #0
80100e7c:	d101      	bne.n	80100e82 <UART_SetBaudRate+0x102>
80100e7e:	2301      	movs	r3, #1
80100e80:	63bb      	str	r3, [r7, #56]	; 0x38
80100e82:	6bfb      	ldr	r3, [r7, #60]	; 0x3c
80100e84:	1e5a      	subs	r2, r3, #1
80100e86:	f248 0301 	movw	r3, #32769	; 0x8001
80100e8a:	f2c8 0300 	movt	r3, #32768	; 0x8000
80100e8e:	fba2 3403 	umull	r3, r4, r2, r3
80100e92:	0be3      	lsrs	r3, r4, #15
80100e94:	3301      	adds	r3, #1
80100e96:	623b      	str	r3, [r7, #32]
80100e98:	6a3b      	ldr	r3, [r7, #32]
80100e9a:	3b01      	subs	r3, #1
80100e9c:	2b06      	cmp	r3, #6
80100e9e:	d826      	bhi.n	80100eee <UART_SetBaudRate+0x16e>
80100ea0:	a201      	add	r2, pc, #4	; (adr r2, 80100ea8 <UART_SetBaudRate+0x128>)
80100ea2:	f852 f023 	ldr.w	pc, [r2, r3, lsl #2]
80100ea6:	bf00      	nop
80100ea8:	80100ec5 	andshi	r0, r0, r5, asr #29
80100eac:	80100ecb 	andshi	r0, r0, fp, asr #29
80100eb0:	80100ed1 			; <UNDEFINED> instruction: 0x80100ed1
80100eb4:	80100ed7 			; <UNDEFINED> instruction: 0x80100ed7
80100eb8:	80100edd 			; <UNDEFINED> instruction: 0x80100edd
80100ebc:	80100ee3 	andshi	r0, r0, r3, ror #29
80100ec0:	80100ee9 	andshi	r0, r0, r9, ror #29
80100ec4:	2305      	movs	r3, #5
80100ec6:	633b      	str	r3, [r7, #48]	; 0x30
80100ec8:	e014      	b.n	80100ef4 <UART_SetBaudRate+0x174>
80100eca:	2304      	movs	r3, #4
80100ecc:	633b      	str	r3, [r7, #48]	; 0x30
80100ece:	e011      	b.n	80100ef4 <UART_SetBaudRate+0x174>
80100ed0:	2303      	movs	r3, #3
80100ed2:	633b      	str	r3, [r7, #48]	; 0x30
80100ed4:	e00e      	b.n	80100ef4 <UART_SetBaudRate+0x174>
80100ed6:	2302      	movs	r3, #2
80100ed8:	633b      	str	r3, [r7, #48]	; 0x30
80100eda:	e00b      	b.n	80100ef4 <UART_SetBaudRate+0x174>
80100edc:	2301      	movs	r3, #1
80100ede:	633b      	str	r3, [r7, #48]	; 0x30
80100ee0:	e008      	b.n	80100ef4 <UART_SetBaudRate+0x174>
80100ee2:	2300      	movs	r3, #0
80100ee4:	633b      	str	r3, [r7, #48]	; 0x30
80100ee6:	e005      	b.n	80100ef4 <UART_SetBaudRate+0x174>
80100ee8:	2306      	movs	r3, #6
80100eea:	633b      	str	r3, [r7, #48]	; 0x30
80100eec:	e002      	b.n	80100ef4 <UART_SetBaudRate+0x174>
80100eee:	2305      	movs	r3, #5
80100ef0:	633b      	str	r3, [r7, #48]	; 0x30
80100ef2:	bf00      	nop
80100ef4:	683b      	ldr	r3, [r7, #0]
80100ef6:	f04f 0400 	mov.w	r4, #0
80100efa:	e9c7 340a 	strd	r3, r4, [r7, #40]	; 0x28
80100efe:	6bfb      	ldr	r3, [r7, #60]	; 0x3c
80100f00:	011b      	lsls	r3, r3, #4
80100f02:	627b      	str	r3, [r7, #36]	; 0x24
80100f04:	2301      	movs	r3, #1
80100f06:	637b      	str	r3, [r7, #52]	; 0x34
80100f08:	e012      	b.n	80100f30 <UART_SetBaudRate+0x1b0>
80100f0a:	6a7b      	ldr	r3, [r7, #36]	; 0x24
80100f0c:	637b      	str	r3, [r7, #52]	; 0x34
80100f0e:	6a7b      	ldr	r3, [r7, #36]	; 0x24
80100f10:	f04f 0400 	mov.w	r4, #0
80100f14:	e9d7 010a 	ldrd	r0, r1, [r7, #40]	; 0x28
80100f18:	461a      	mov	r2, r3
80100f1a:	4623      	mov	r3, r4
80100f1c:	f002 fea0 	bl	80103c60 <__aeabi_uldivmod>
80100f20:	461c      	mov	r4, r3
80100f22:	4613      	mov	r3, r2
80100f24:	627b      	str	r3, [r7, #36]	; 0x24
80100f26:	6b7b      	ldr	r3, [r7, #52]	; 0x34
80100f28:	f04f 0400 	mov.w	r4, #0
80100f2c:	e9c7 340a 	strd	r3, r4, [r7, #40]	; 0x28
80100f30:	6a7b      	ldr	r3, [r7, #36]	; 0x24
80100f32:	2b00      	cmp	r3, #0
80100f34:	d1e9      	bne.n	80100f0a <UART_SetBaudRate+0x18a>
80100f36:	6b79      	ldr	r1, [r7, #52]	; 0x34
80100f38:	6838      	ldr	r0, [r7, #0]
80100f3a:	f002 fd55 	bl	801039e8 <__aeabi_uidiv>
80100f3e:	4603      	mov	r3, r0
80100f40:	f04f 0400 	mov.w	r4, #0
80100f44:	e9c7 340a 	strd	r3, r4, [r7, #40]	; 0x28
80100f48:	6bfb      	ldr	r3, [r7, #60]	; 0x3c
80100f4a:	011b      	lsls	r3, r3, #4
80100f4c:	6b79      	ldr	r1, [r7, #52]	; 0x34
80100f4e:	4618      	mov	r0, r3
80100f50:	f002 fd4a 	bl	801039e8 <__aeabi_uidiv>
80100f54:	4603      	mov	r3, r0
80100f56:	627b      	str	r3, [r7, #36]	; 0x24
80100f58:	6bbb      	ldr	r3, [r7, #56]	; 0x38
80100f5a:	f04f 0400 	mov.w	r4, #0
80100f5e:	6aba      	ldr	r2, [r7, #40]	; 0x28
80100f60:	fb04 f102 	mul.w	r1, r4, r2
80100f64:	6afa      	ldr	r2, [r7, #44]	; 0x2c
80100f66:	fb03 f202 	mul.w	r2, r3, r2
80100f6a:	440a      	add	r2, r1
80100f6c:	6ab9      	ldr	r1, [r7, #40]	; 0x28
80100f6e:	fba1 0103 	umull	r0, r1, r1, r3
80100f72:	1853      	adds	r3, r2, r1
80100f74:	4619      	mov	r1, r3
80100f76:	6a7b      	ldr	r3, [r7, #36]	; 0x24
80100f78:	f04f 0400 	mov.w	r4, #0
80100f7c:	461a      	mov	r2, r3
80100f7e:	4623      	mov	r3, r4
80100f80:	f002 fe6e 	bl	80103c60 <__aeabi_uldivmod>
80100f84:	4603      	mov	r3, r0
80100f86:	460c      	mov	r4, r1
80100f88:	e9c7 3406 	strd	r3, r4, [r7, #24]
80100f8c:	687b      	ldr	r3, [r7, #4]
80100f8e:	f04f 0400 	mov.w	r4, #0
80100f92:	e9d7 1206 	ldrd	r1, r2, [r7, #24]
80100f96:	42a2      	cmp	r2, r4
80100f98:	bf08      	it	eq
80100f9a:	4299      	cmpeq	r1, r3
80100f9c:	d308      	bcc.n	80100fb0 <UART_SetBaudRate+0x230>
80100f9e:	687b      	ldr	r3, [r7, #4]
80100fa0:	f04f 0400 	mov.w	r4, #0
80100fa4:	e9d7 1206 	ldrd	r1, r2, [r7, #24]
80100fa8:	1acb      	subs	r3, r1, r3
80100faa:	eb62 0404 	sbc.w	r4, r2, r4
80100fae:	e008      	b.n	80100fc2 <UART_SetBaudRate+0x242>
80100fb0:	687b      	ldr	r3, [r7, #4]
80100fb2:	4619      	mov	r1, r3
80100fb4:	f04f 0200 	mov.w	r2, #0
80100fb8:	e9d7 3406 	ldrd	r3, r4, [r7, #24]
80100fbc:	1acb      	subs	r3, r1, r3
80100fbe:	eb62 0404 	sbc.w	r4, r2, r4
80100fc2:	e9c7 3406 	strd	r3, r4, [r7, #24]
80100fc6:	2300      	movs	r3, #0
80100fc8:	f2c0 2302 	movt	r3, #514	; 0x202
80100fcc:	2200      	movs	r2, #0
80100fce:	f2c0 2202 	movt	r2, #514	; 0x202
80100fd2:	f8d2 2090 	ldr.w	r2, [r2, #144]	; 0x90
80100fd6:	f422 7260 	bic.w	r2, r2, #896	; 0x380
80100fda:	f8c3 2090 	str.w	r2, [r3, #144]	; 0x90
80100fde:	2300      	movs	r3, #0
80100fe0:	f2c0 2302 	movt	r3, #514	; 0x202
80100fe4:	2200      	movs	r2, #0
80100fe6:	f2c0 2202 	movt	r2, #514	; 0x202
80100fea:	f8d2 1090 	ldr.w	r1, [r2, #144]	; 0x90
80100fee:	6b3a      	ldr	r2, [r7, #48]	; 0x30
80100ff0:	01d2      	lsls	r2, r2, #7
80100ff2:	f402 7260 	and.w	r2, r2, #896	; 0x380
80100ff6:	430a      	orrs	r2, r1
80100ff8:	f8c3 2090 	str.w	r2, [r3, #144]	; 0x90
80100ffc:	2300      	movs	r3, #0
80100ffe:	f2c0 2302 	movt	r3, #514	; 0x202
80101002:	6bba      	ldr	r2, [r7, #56]	; 0x38
80101004:	3a01      	subs	r2, #1
80101006:	b292      	uxth	r2, r2
80101008:	f8c3 20a4 	str.w	r2, [r3, #164]	; 0xa4
8010100c:	2400      	movs	r4, #0
8010100e:	f2c0 2402 	movt	r4, #514	; 0x202
80101012:	6a39      	ldr	r1, [r7, #32]
80101014:	6bf8      	ldr	r0, [r7, #60]	; 0x3c
80101016:	f002 fce7 	bl	801039e8 <__aeabi_uidiv>
8010101a:	4603      	mov	r3, r0
8010101c:	3b01      	subs	r3, #1
8010101e:	b29b      	uxth	r3, r3
80101020:	f8c4 30a8 	str.w	r3, [r4, #168]	; 0xa8
80101024:	2400      	movs	r4, #0
80101026:	f2c0 2402 	movt	r4, #514	; 0x202
8010102a:	6a3b      	ldr	r3, [r7, #32]
8010102c:	f44f 727a 	mov.w	r2, #1000	; 0x3e8
80101030:	fb02 f303 	mul.w	r3, r2, r3
80101034:	4619      	mov	r1, r3
80101036:	6838      	ldr	r0, [r7, #0]
80101038:	f002 fcd6 	bl	801039e8 <__aeabi_uidiv>
8010103c:	4603      	mov	r3, r0
8010103e:	f023 437f 	bic.w	r3, r3, #4278190080	; 0xff000000
80101042:	f8c4 30b0 	str.w	r3, [r4, #176]	; 0xb0
80101046:	bf00      	nop
80101048:	3744      	adds	r7, #68	; 0x44
8010104a:	46bd      	mov	sp, r7
8010104c:	bd90      	pop	{r4, r7, pc}

8010104e <uart1_init>:
8010104e:	b580      	push	{r7, lr}
80101050:	af00      	add	r7, sp, #0
80101052:	2300      	movs	r3, #0
80101054:	f2c0 2302 	movt	r3, #514	; 0x202
80101058:	2200      	movs	r2, #0
8010105a:	f2c0 2202 	movt	r2, #514	; 0x202
8010105e:	f8d2 2080 	ldr.w	r2, [r2, #128]	; 0x80
80101062:	f022 0201 	bic.w	r2, r2, #1
80101066:	f8c3 2080 	str.w	r2, [r3, #128]	; 0x80
8010106a:	2300      	movs	r3, #0
8010106c:	f2c0 2302 	movt	r3, #514	; 0x202
80101070:	2200      	movs	r2, #0
80101072:	f2c0 2202 	movt	r2, #514	; 0x202
80101076:	f8d2 2084 	ldr.w	r2, [r2, #132]	; 0x84
8010107a:	f022 0201 	bic.w	r2, r2, #1
8010107e:	f8c3 2084 	str.w	r2, [r3, #132]	; 0x84
80101082:	bf00      	nop
80101084:	2300      	movs	r3, #0
80101086:	f2c0 2302 	movt	r3, #514	; 0x202
8010108a:	f8d3 3084 	ldr.w	r3, [r3, #132]	; 0x84
8010108e:	f003 0301 	and.w	r3, r3, #1
80101092:	2b00      	cmp	r3, #0
80101094:	d0f6      	beq.n	80101084 <uart1_init+0x36>
80101096:	2300      	movs	r3, #0
80101098:	f2c0 2302 	movt	r3, #514	; 0x202
8010109c:	2200      	movs	r2, #0
8010109e:	f8c3 2080 	str.w	r2, [r3, #128]	; 0x80
801010a2:	2300      	movs	r3, #0
801010a4:	f2c0 2302 	movt	r3, #514	; 0x202
801010a8:	2201      	movs	r2, #1
801010aa:	f8c3 2084 	str.w	r2, [r3, #132]	; 0x84
801010ae:	2300      	movs	r3, #0
801010b0:	f2c0 2302 	movt	r3, #514	; 0x202
801010b4:	f44f 62e0 	mov.w	r2, #1792	; 0x700
801010b8:	f8c3 2088 	str.w	r2, [r3, #136]	; 0x88
801010bc:	2300      	movs	r3, #0
801010be:	f2c0 2302 	movt	r3, #514	; 0x202
801010c2:	f44f 4200 	mov.w	r2, #32768	; 0x8000
801010c6:	f8c3 208c 	str.w	r2, [r3, #140]	; 0x8c
801010ca:	2300      	movs	r3, #0
801010cc:	f2c0 2302 	movt	r3, #514	; 0x202
801010d0:	f640 0201 	movw	r2, #2049	; 0x801
801010d4:	f8c3 2090 	str.w	r2, [r3, #144]	; 0x90
801010d8:	2300      	movs	r3, #0
801010da:	f2c0 2302 	movt	r3, #514	; 0x202
801010de:	222b      	movs	r2, #43	; 0x2b
801010e0:	f8c3 209c 	str.w	r2, [r3, #156]	; 0x9c
801010e4:	2300      	movs	r3, #0
801010e6:	f2c0 2302 	movt	r3, #514	; 0x202
801010ea:	2200      	movs	r2, #0
801010ec:	f8c3 20a0 	str.w	r2, [r3, #160]	; 0xa0
801010f0:	2300      	movs	r3, #0
801010f2:	f2c0 2302 	movt	r3, #514	; 0x202
801010f6:	2200      	movs	r2, #0
801010f8:	f8c3 20b0 	str.w	r2, [r3, #176]	; 0xb0
801010fc:	2300      	movs	r3, #0
801010fe:	f2c0 2302 	movt	r3, #514	; 0x202
80101102:	2260      	movs	r2, #96	; 0x60
80101104:	f8c3 20b4 	str.w	r2, [r3, #180]	; 0xb4
80101108:	2300      	movs	r3, #0
8010110a:	f2c0 2302 	movt	r3, #514	; 0x202
8010110e:	2200      	movs	r2, #0
80101110:	f8c3 20b8 	str.w	r2, [r3, #184]	; 0xb8
80101114:	2200      	movs	r2, #0
80101116:	f2c0 2202 	movt	r2, #514	; 0x202
8010111a:	2300      	movs	r3, #0
8010111c:	f2c0 2302 	movt	r3, #514	; 0x202
80101120:	f8d3 3084 	ldr.w	r3, [r3, #132]	; 0x84
80101124:	f443 4380 	orr.w	r3, r3, #16384	; 0x4000
80101128:	f043 0366 	orr.w	r3, r3, #102	; 0x66
8010112c:	f8c2 3084 	str.w	r3, [r2, #132]	; 0x84
80101130:	2300      	movs	r3, #0
80101132:	f2c0 2302 	movt	r3, #514	; 0x202
80101136:	2200      	movs	r2, #0
80101138:	f2c0 2202 	movt	r2, #514	; 0x202
8010113c:	f8d2 2088 	ldr.w	r2, [r2, #136]	; 0x88
80101140:	f042 0204 	orr.w	r2, r2, #4
80101144:	f8c3 2088 	str.w	r2, [r3, #136]	; 0x88
80101148:	2300      	movs	r3, #0
8010114a:	f2c0 2302 	movt	r3, #514	; 0x202
8010114e:	2200      	movs	r2, #0
80101150:	f2c0 2202 	movt	r2, #514	; 0x202
80101154:	f8d2 2080 	ldr.w	r2, [r2, #128]	; 0x80
80101158:	f422 4280 	bic.w	r2, r2, #16384	; 0x4000
8010115c:	f8c3 2080 	str.w	r2, [r3, #128]	; 0x80
80101160:	f44f 4134 	mov.w	r1, #46080	; 0xb400
80101164:	f2c0 41c4 	movt	r1, #1220	; 0x4c4
80101168:	f44f 30e1 	mov.w	r0, #115200	; 0x1c200
8010116c:	f7ff fe08 	bl	80100d80 <UART_SetBaudRate>
80101170:	2300      	movs	r3, #0
80101172:	f2c0 2302 	movt	r3, #514	; 0x202
80101176:	2200      	movs	r2, #0
80101178:	f2c0 2202 	movt	r2, #514	; 0x202
8010117c:	f8d2 2080 	ldr.w	r2, [r2, #128]	; 0x80
80101180:	f042 0201 	orr.w	r2, r2, #1
80101184:	f8c3 2080 	str.w	r2, [r3, #128]	; 0x80
80101188:	bf00      	nop
8010118a:	bd80      	pop	{r7, pc}

8010118c <putchar>:
8010118c:	b480      	push	{r7}
8010118e:	b083      	sub	sp, #12
80101190:	af00      	add	r7, sp, #0
80101192:	6078      	str	r0, [r7, #4]
80101194:	bf00      	nop
80101196:	2300      	movs	r3, #0
80101198:	f2c0 2302 	movt	r3, #514	; 0x202
8010119c:	f8d3 3098 	ldr.w	r3, [r3, #152]	; 0x98
801011a0:	f003 0308 	and.w	r3, r3, #8
801011a4:	2b00      	cmp	r3, #0
801011a6:	d0f6      	beq.n	80101196 <putchar+0xa>
801011a8:	2300      	movs	r3, #0
801011aa:	f2c0 2302 	movt	r3, #514	; 0x202
801011ae:	687a      	ldr	r2, [r7, #4]
801011b0:	b2d2      	uxtb	r2, r2
801011b2:	641a      	str	r2, [r3, #64]	; 0x40
801011b4:	bf00      	nop
801011b6:	370c      	adds	r7, #12
801011b8:	46bd      	mov	sp, r7
801011ba:	f85d 7b04 	ldr.w	r7, [sp], #4
801011be:	4770      	bx	lr

801011c0 <getchar>:
801011c0:	b480      	push	{r7}
801011c2:	af00      	add	r7, sp, #0
801011c4:	bf00      	nop
801011c6:	2300      	movs	r3, #0
801011c8:	f2c0 2302 	movt	r3, #514	; 0x202
801011cc:	f8d3 3098 	ldr.w	r3, [r3, #152]	; 0x98
801011d0:	f003 0301 	and.w	r3, r3, #1
801011d4:	2b00      	cmp	r3, #0
801011d6:	d0f6      	beq.n	801011c6 <getchar+0x6>
801011d8:	2300      	movs	r3, #0
801011da:	f2c0 2302 	movt	r3, #514	; 0x202
801011de:	681b      	ldr	r3, [r3, #0]
801011e0:	b2db      	uxtb	r3, r3
801011e2:	4618      	mov	r0, r3
801011e4:	46bd      	mov	sp, r7
801011e6:	f85d 7b04 	ldr.w	r7, [sp], #4
801011ea:	4770      	bx	lr

801011ec <puts>:
801011ec:	b580      	push	{r7, lr}
801011ee:	b082      	sub	sp, #8
801011f0:	af00      	add	r7, sp, #0
801011f2:	6078      	str	r0, [r7, #4]
801011f4:	e007      	b.n	80101206 <puts+0x1a>
801011f6:	687b      	ldr	r3, [r7, #4]
801011f8:	781b      	ldrb	r3, [r3, #0]
801011fa:	4618      	mov	r0, r3
801011fc:	f7ff ffc6 	bl	8010118c <putchar>
80101200:	687b      	ldr	r3, [r7, #4]
80101202:	3301      	adds	r3, #1
80101204:	607b      	str	r3, [r7, #4]
80101206:	687b      	ldr	r3, [r7, #4]
80101208:	781b      	ldrb	r3, [r3, #0]
8010120a:	2b00      	cmp	r3, #0
8010120c:	d1f3      	bne.n	801011f6 <puts+0xa>
8010120e:	bf00      	nop
80101210:	3708      	adds	r7, #8
80101212:	46bd      	mov	sp, r7
80101214:	bd80      	pop	{r7, pc}
80101216:	bf00      	nop

80101218 <raise>:
80101218:	b480      	push	{r7}
8010121a:	b083      	sub	sp, #12
8010121c:	af00      	add	r7, sp, #0
8010121e:	6078      	str	r0, [r7, #4]
80101220:	2300      	movs	r3, #0
80101222:	4618      	mov	r0, r3
80101224:	370c      	adds	r7, #12
80101226:	46bd      	mov	sp, r7
80101228:	f85d 7b04 	ldr.w	r7, [sp], #4
8010122c:	4770      	bx	lr
	...

80101230 <outc>:
80101230:	b580      	push	{r7, lr}
80101232:	b082      	sub	sp, #8
80101234:	af00      	add	r7, sp, #0
80101236:	6078      	str	r0, [r7, #4]
80101238:	6878      	ldr	r0, [r7, #4]
8010123a:	f7ff ffa7 	bl	8010118c <putchar>
8010123e:	2300      	movs	r3, #0
80101240:	4618      	mov	r0, r3
80101242:	3708      	adds	r7, #8
80101244:	46bd      	mov	sp, r7
80101246:	bd80      	pop	{r7, pc}

80101248 <outs>:
80101248:	b580      	push	{r7, lr}
8010124a:	b082      	sub	sp, #8
8010124c:	af00      	add	r7, sp, #0
8010124e:	6078      	str	r0, [r7, #4]
80101250:	e006      	b.n	80101260 <outs+0x18>
80101252:	687b      	ldr	r3, [r7, #4]
80101254:	1c5a      	adds	r2, r3, #1
80101256:	607a      	str	r2, [r7, #4]
80101258:	781b      	ldrb	r3, [r3, #0]
8010125a:	4618      	mov	r0, r3
8010125c:	f7ff ff96 	bl	8010118c <putchar>
80101260:	687b      	ldr	r3, [r7, #4]
80101262:	781b      	ldrb	r3, [r3, #0]
80101264:	2b00      	cmp	r3, #0
80101266:	d1f4      	bne.n	80101252 <outs+0xa>
80101268:	2300      	movs	r3, #0
8010126a:	4618      	mov	r0, r3
8010126c:	3708      	adds	r7, #8
8010126e:	46bd      	mov	sp, r7
80101270:	bd80      	pop	{r7, pc}

80101272 <out_num>:
80101272:	b590      	push	{r4, r7, lr}
80101274:	b099      	sub	sp, #100	; 0x64
80101276:	af00      	add	r7, sp, #0
80101278:	e9c7 0102 	strd	r0, r1, [r7, #8]
8010127c:	607a      	str	r2, [r7, #4]
8010127e:	70fb      	strb	r3, [r7, #3]
80101280:	2300      	movs	r3, #0
80101282:	65fb      	str	r3, [r7, #92]	; 0x5c
80101284:	f107 0310 	add.w	r3, r7, #16
80101288:	3340      	adds	r3, #64	; 0x40
8010128a:	65bb      	str	r3, [r7, #88]	; 0x58
8010128c:	2300      	movs	r3, #0
8010128e:	657b      	str	r3, [r7, #84]	; 0x54
80101290:	2300      	movs	r3, #0
80101292:	653b      	str	r3, [r7, #80]	; 0x50
80101294:	6dbb      	ldr	r3, [r7, #88]	; 0x58
80101296:	3b01      	subs	r3, #1
80101298:	65bb      	str	r3, [r7, #88]	; 0x58
8010129a:	6dbb      	ldr	r3, [r7, #88]	; 0x58
8010129c:	2200      	movs	r2, #0
8010129e:	701a      	strb	r2, [r3, #0]
801012a0:	e9d7 3402 	ldrd	r3, r4, [r7, #8]
801012a4:	2b00      	cmp	r3, #0
801012a6:	f174 0300 	sbcs.w	r3, r4, #0
801012aa:	da03      	bge.n	801012b4 <out_num+0x42>
801012ac:	68bb      	ldr	r3, [r7, #8]
801012ae:	425b      	negs	r3, r3
801012b0:	65fb      	str	r3, [r7, #92]	; 0x5c
801012b2:	e001      	b.n	801012b8 <out_num+0x46>
801012b4:	68bb      	ldr	r3, [r7, #8]
801012b6:	65fb      	str	r3, [r7, #92]	; 0x5c
801012b8:	6dbb      	ldr	r3, [r7, #88]	; 0x58
801012ba:	3b01      	subs	r3, #1
801012bc:	65bb      	str	r3, [r7, #88]	; 0x58
801012be:	687a      	ldr	r2, [r7, #4]
801012c0:	6dfb      	ldr	r3, [r7, #92]	; 0x5c
801012c2:	4611      	mov	r1, r2
801012c4:	4618      	mov	r0, r3
801012c6:	f002 fcbd 	bl	80103c44 <__aeabi_uidivmod>
801012ca:	460b      	mov	r3, r1
801012cc:	461a      	mov	r2, r3
801012ce:	f246 736c 	movw	r3, #26476	; 0x676c
801012d2:	f2c8 0310 	movt	r3, #32784	; 0x8010
801012d6:	5c9a      	ldrb	r2, [r3, r2]
801012d8:	6dbb      	ldr	r3, [r7, #88]	; 0x58
801012da:	701a      	strb	r2, [r3, #0]
801012dc:	6d7b      	ldr	r3, [r7, #84]	; 0x54
801012de:	3301      	adds	r3, #1
801012e0:	657b      	str	r3, [r7, #84]	; 0x54
801012e2:	687b      	ldr	r3, [r7, #4]
801012e4:	4619      	mov	r1, r3
801012e6:	6df8      	ldr	r0, [r7, #92]	; 0x5c
801012e8:	f002 fb7e 	bl	801039e8 <__aeabi_uidiv>
801012ec:	4603      	mov	r3, r0
801012ee:	65fb      	str	r3, [r7, #92]	; 0x5c
801012f0:	6dfb      	ldr	r3, [r7, #92]	; 0x5c
801012f2:	2b00      	cmp	r3, #0
801012f4:	d1e0      	bne.n	801012b8 <out_num+0x46>
801012f6:	6f3b      	ldr	r3, [r7, #112]	; 0x70
801012f8:	2b00      	cmp	r3, #0
801012fa:	d014      	beq.n	80101326 <out_num+0xb4>
801012fc:	6d7a      	ldr	r2, [r7, #84]	; 0x54
801012fe:	6f3b      	ldr	r3, [r7, #112]	; 0x70
80101300:	429a      	cmp	r2, r3
80101302:	da10      	bge.n	80101326 <out_num+0xb4>
80101304:	6f3a      	ldr	r2, [r7, #112]	; 0x70
80101306:	6d7b      	ldr	r3, [r7, #84]	; 0x54
80101308:	1ad3      	subs	r3, r2, r3
8010130a:	653b      	str	r3, [r7, #80]	; 0x50
8010130c:	e008      	b.n	80101320 <out_num+0xae>
8010130e:	6dbb      	ldr	r3, [r7, #88]	; 0x58
80101310:	3b01      	subs	r3, #1
80101312:	65bb      	str	r3, [r7, #88]	; 0x58
80101314:	6dbb      	ldr	r3, [r7, #88]	; 0x58
80101316:	78fa      	ldrb	r2, [r7, #3]
80101318:	701a      	strb	r2, [r3, #0]
8010131a:	6d3b      	ldr	r3, [r7, #80]	; 0x50
8010131c:	3b01      	subs	r3, #1
8010131e:	653b      	str	r3, [r7, #80]	; 0x50
80101320:	6d3b      	ldr	r3, [r7, #80]	; 0x50
80101322:	2b00      	cmp	r3, #0
80101324:	d1f3      	bne.n	8010130e <out_num+0x9c>
80101326:	e9d7 3402 	ldrd	r3, r4, [r7, #8]
8010132a:	2b00      	cmp	r3, #0
8010132c:	f174 0300 	sbcs.w	r3, r4, #0
80101330:	da05      	bge.n	8010133e <out_num+0xcc>
80101332:	6dbb      	ldr	r3, [r7, #88]	; 0x58
80101334:	3b01      	subs	r3, #1
80101336:	65bb      	str	r3, [r7, #88]	; 0x58
80101338:	6dbb      	ldr	r3, [r7, #88]	; 0x58
8010133a:	222d      	movs	r2, #45	; 0x2d
8010133c:	701a      	strb	r2, [r3, #0]
8010133e:	6db8      	ldr	r0, [r7, #88]	; 0x58
80101340:	f7ff ff82 	bl	80101248 <outs>
80101344:	4603      	mov	r3, r0
80101346:	4618      	mov	r0, r3
80101348:	3764      	adds	r7, #100	; 0x64
8010134a:	46bd      	mov	sp, r7
8010134c:	bd90      	pop	{r4, r7, pc}

8010134e <my_vprintf>:
8010134e:	b580      	push	{r7, lr}
80101350:	b086      	sub	sp, #24
80101352:	af02      	add	r7, sp, #8
80101354:	6078      	str	r0, [r7, #4]
80101356:	6039      	str	r1, [r7, #0]
80101358:	2320      	movs	r3, #32
8010135a:	72fb      	strb	r3, [r7, #11]
8010135c:	2300      	movs	r3, #0
8010135e:	60fb      	str	r3, [r7, #12]
80101360:	e0c7      	b.n	801014f2 <my_vprintf+0x1a4>
80101362:	687b      	ldr	r3, [r7, #4]
80101364:	781b      	ldrb	r3, [r3, #0]
80101366:	2b25      	cmp	r3, #37	; 0x25
80101368:	d005      	beq.n	80101376 <my_vprintf+0x28>
8010136a:	687b      	ldr	r3, [r7, #4]
8010136c:	781b      	ldrb	r3, [r3, #0]
8010136e:	4618      	mov	r0, r3
80101370:	f7ff ff5e 	bl	80101230 <outc>
80101374:	e0ba      	b.n	801014ec <my_vprintf+0x19e>
80101376:	687b      	ldr	r3, [r7, #4]
80101378:	3301      	adds	r3, #1
8010137a:	607b      	str	r3, [r7, #4]
8010137c:	687b      	ldr	r3, [r7, #4]
8010137e:	781b      	ldrb	r3, [r3, #0]
80101380:	2b30      	cmp	r3, #48	; 0x30
80101382:	d104      	bne.n	8010138e <my_vprintf+0x40>
80101384:	2330      	movs	r3, #48	; 0x30
80101386:	72fb      	strb	r3, [r7, #11]
80101388:	687b      	ldr	r3, [r7, #4]
8010138a:	3301      	adds	r3, #1
8010138c:	607b      	str	r3, [r7, #4]
8010138e:	2320      	movs	r3, #32
80101390:	72fb      	strb	r3, [r7, #11]
80101392:	2300      	movs	r3, #0
80101394:	60fb      	str	r3, [r7, #12]
80101396:	e00e      	b.n	801013b6 <my_vprintf+0x68>
80101398:	68fa      	ldr	r2, [r7, #12]
8010139a:	4613      	mov	r3, r2
8010139c:	009b      	lsls	r3, r3, #2
8010139e:	4413      	add	r3, r2
801013a0:	005b      	lsls	r3, r3, #1
801013a2:	60fb      	str	r3, [r7, #12]
801013a4:	687b      	ldr	r3, [r7, #4]
801013a6:	781b      	ldrb	r3, [r3, #0]
801013a8:	3b30      	subs	r3, #48	; 0x30
801013aa:	68fa      	ldr	r2, [r7, #12]
801013ac:	4413      	add	r3, r2
801013ae:	60fb      	str	r3, [r7, #12]
801013b0:	687b      	ldr	r3, [r7, #4]
801013b2:	3301      	adds	r3, #1
801013b4:	607b      	str	r3, [r7, #4]
801013b6:	687b      	ldr	r3, [r7, #4]
801013b8:	781b      	ldrb	r3, [r3, #0]
801013ba:	2b2f      	cmp	r3, #47	; 0x2f
801013bc:	d903      	bls.n	801013c6 <my_vprintf+0x78>
801013be:	687b      	ldr	r3, [r7, #4]
801013c0:	781b      	ldrb	r3, [r3, #0]
801013c2:	2b39      	cmp	r3, #57	; 0x39
801013c4:	d9e8      	bls.n	80101398 <my_vprintf+0x4a>
801013c6:	687b      	ldr	r3, [r7, #4]
801013c8:	781b      	ldrb	r3, [r3, #0]
801013ca:	3b63      	subs	r3, #99	; 0x63
801013cc:	2b15      	cmp	r3, #21
801013ce:	f200 8087 	bhi.w	801014e0 <my_vprintf+0x192>
801013d2:	a201      	add	r2, pc, #4	; (adr r2, 801013d8 <my_vprintf+0x8a>)
801013d4:	f852 f023 	ldr.w	pc, [r2, r3, lsl #2]
801013d8:	801014b9 			; <UNDEFINED> instruction: 0x801014b9
801013dc:	80101431 	andshi	r1, r0, r1, lsr r4
801013e0:	801014e1 	andshi	r1, r0, r1, ror #9
801013e4:	801014e1 	andshi	r1, r0, r1, ror #9
801013e8:	801014e1 	andshi	r1, r0, r1, ror #9
801013ec:	801014e1 	andshi	r1, r0, r1, ror #9
801013f0:	801014e1 	andshi	r1, r0, r1, ror #9
801013f4:	801014e1 	andshi	r1, r0, r1, ror #9
801013f8:	801014e1 	andshi	r1, r0, r1, ror #9
801013fc:	801014e1 	andshi	r1, r0, r1, ror #9
80101400:	801014e1 	andshi	r1, r0, r1, ror #9
80101404:	801014e1 	andshi	r1, r0, r1, ror #9
80101408:	80101453 	andshi	r1, r0, r3, asr r4
8010140c:	801014e1 	andshi	r1, r0, r1, ror #9
80101410:	801014e1 	andshi	r1, r0, r1, ror #9
80101414:	801014e1 	andshi	r1, r0, r1, ror #9
80101418:	801014cd 	andshi	r1, r0, sp, asr #9
8010141c:	801014e1 	andshi	r1, r0, r1, ror #9
80101420:	80101475 	andshi	r1, r0, r5, ror r4
80101424:	801014e1 	andshi	r1, r0, r1, ror #9
80101428:	801014e1 	andshi	r1, r0, r1, ror #9
8010142c:	80101497 	mulshi	r0, r7, r4
80101430:	683b      	ldr	r3, [r7, #0]
80101432:	3304      	adds	r3, #4
80101434:	603b      	str	r3, [r7, #0]
80101436:	683b      	ldr	r3, [r7, #0]
80101438:	3b04      	subs	r3, #4
8010143a:	681b      	ldr	r3, [r3, #0]
8010143c:	4618      	mov	r0, r3
8010143e:	ea4f 71e0 	mov.w	r1, r0, asr #31
80101442:	7afa      	ldrb	r2, [r7, #11]
80101444:	68fb      	ldr	r3, [r7, #12]
80101446:	9300      	str	r3, [sp, #0]
80101448:	4613      	mov	r3, r2
8010144a:	220a      	movs	r2, #10
8010144c:	f7ff ff11 	bl	80101272 <out_num>
80101450:	e04c      	b.n	801014ec <my_vprintf+0x19e>
80101452:	683b      	ldr	r3, [r7, #0]
80101454:	3304      	adds	r3, #4
80101456:	603b      	str	r3, [r7, #0]
80101458:	683b      	ldr	r3, [r7, #0]
8010145a:	3b04      	subs	r3, #4
8010145c:	681b      	ldr	r3, [r3, #0]
8010145e:	4618      	mov	r0, r3
80101460:	f04f 0100 	mov.w	r1, #0
80101464:	7afa      	ldrb	r2, [r7, #11]
80101466:	68fb      	ldr	r3, [r7, #12]
80101468:	9300      	str	r3, [sp, #0]
8010146a:	4613      	mov	r3, r2
8010146c:	2208      	movs	r2, #8
8010146e:	f7ff ff00 	bl	80101272 <out_num>
80101472:	e03b      	b.n	801014ec <my_vprintf+0x19e>
80101474:	683b      	ldr	r3, [r7, #0]
80101476:	3304      	adds	r3, #4
80101478:	603b      	str	r3, [r7, #0]
8010147a:	683b      	ldr	r3, [r7, #0]
8010147c:	3b04      	subs	r3, #4
8010147e:	681b      	ldr	r3, [r3, #0]
80101480:	4618      	mov	r0, r3
80101482:	f04f 0100 	mov.w	r1, #0
80101486:	7afa      	ldrb	r2, [r7, #11]
80101488:	68fb      	ldr	r3, [r7, #12]
8010148a:	9300      	str	r3, [sp, #0]
8010148c:	4613      	mov	r3, r2
8010148e:	220a      	movs	r2, #10
80101490:	f7ff feef 	bl	80101272 <out_num>
80101494:	e02a      	b.n	801014ec <my_vprintf+0x19e>
80101496:	683b      	ldr	r3, [r7, #0]
80101498:	3304      	adds	r3, #4
8010149a:	603b      	str	r3, [r7, #0]
8010149c:	683b      	ldr	r3, [r7, #0]
8010149e:	3b04      	subs	r3, #4
801014a0:	681b      	ldr	r3, [r3, #0]
801014a2:	4618      	mov	r0, r3
801014a4:	f04f 0100 	mov.w	r1, #0
801014a8:	7afa      	ldrb	r2, [r7, #11]
801014aa:	68fb      	ldr	r3, [r7, #12]
801014ac:	9300      	str	r3, [sp, #0]
801014ae:	4613      	mov	r3, r2
801014b0:	2210      	movs	r2, #16
801014b2:	f7ff fede 	bl	80101272 <out_num>
801014b6:	e019      	b.n	801014ec <my_vprintf+0x19e>
801014b8:	683b      	ldr	r3, [r7, #0]
801014ba:	3304      	adds	r3, #4
801014bc:	603b      	str	r3, [r7, #0]
801014be:	683b      	ldr	r3, [r7, #0]
801014c0:	3b04      	subs	r3, #4
801014c2:	681b      	ldr	r3, [r3, #0]
801014c4:	4618      	mov	r0, r3
801014c6:	f7ff feb3 	bl	80101230 <outc>
801014ca:	e00f      	b.n	801014ec <my_vprintf+0x19e>
801014cc:	683b      	ldr	r3, [r7, #0]
801014ce:	3304      	adds	r3, #4
801014d0:	603b      	str	r3, [r7, #0]
801014d2:	683b      	ldr	r3, [r7, #0]
801014d4:	3b04      	subs	r3, #4
801014d6:	681b      	ldr	r3, [r3, #0]
801014d8:	4618      	mov	r0, r3
801014da:	f7ff feb5 	bl	80101248 <outs>
801014de:	e005      	b.n	801014ec <my_vprintf+0x19e>
801014e0:	687b      	ldr	r3, [r7, #4]
801014e2:	781b      	ldrb	r3, [r3, #0]
801014e4:	4618      	mov	r0, r3
801014e6:	f7ff fea3 	bl	80101230 <outc>
801014ea:	bf00      	nop
801014ec:	687b      	ldr	r3, [r7, #4]
801014ee:	3301      	adds	r3, #1
801014f0:	607b      	str	r3, [r7, #4]
801014f2:	687b      	ldr	r3, [r7, #4]
801014f4:	781b      	ldrb	r3, [r3, #0]
801014f6:	2b00      	cmp	r3, #0
801014f8:	f47f af33 	bne.w	80101362 <my_vprintf+0x14>
801014fc:	2300      	movs	r3, #0
801014fe:	4618      	mov	r0, r3
80101500:	3710      	adds	r7, #16
80101502:	46bd      	mov	sp, r7
80101504:	bd80      	pop	{r7, pc}

80101506 <printf>:
80101506:	b40f      	push	{r0, r1, r2, r3}
80101508:	b580      	push	{r7, lr}
8010150a:	b082      	sub	sp, #8
8010150c:	af00      	add	r7, sp, #0
8010150e:	f107 0314 	add.w	r3, r7, #20
80101512:	607b      	str	r3, [r7, #4]
80101514:	693b      	ldr	r3, [r7, #16]
80101516:	6879      	ldr	r1, [r7, #4]
80101518:	4618      	mov	r0, r3
8010151a:	f7ff ff18 	bl	8010134e <my_vprintf>
8010151e:	2300      	movs	r3, #0
80101520:	607b      	str	r3, [r7, #4]
80101522:	2300      	movs	r3, #0
80101524:	4618      	mov	r0, r3
80101526:	3708      	adds	r7, #8
80101528:	46bd      	mov	sp, r7
8010152a:	e8bd 4080 	ldmia.w	sp!, {r7, lr}
8010152e:	b004      	add	sp, #16
80101530:	4770      	bx	lr

80101532 <my_printf_test>:
80101532:	b580      	push	{r7, lr}
80101534:	af00      	add	r7, sp, #0
80101536:	f643 70fc 	movw	r0, #16380	; 0x3ffc
8010153a:	f2c8 0010 	movt	r0, #32784	; 0x8010
8010153e:	f7ff ffe2 	bl	80101506 <printf>
80101542:	2261      	movs	r2, #97	; 0x61
80101544:	2141      	movs	r1, #65	; 0x41
80101546:	f244 0028 	movw	r0, #16424	; 0x4028
8010154a:	f2c8 0010 	movt	r0, #32784	; 0x8010
8010154e:	f7ff ffda 	bl	80101506 <printf>
80101552:	f24e 2140 	movw	r1, #57920	; 0xe240
80101556:	f2c0 0101 	movt	r1, #1
8010155a:	f244 0048 	movw	r0, #16456	; 0x4048
8010155e:	f2c8 0010 	movt	r0, #32784	; 0x8010
80101562:	f7ff ffd0 	bl	80101506 <printf>
80101566:	f44f 51ee 	mov.w	r1, #7616	; 0x1dc0
8010156a:	f6cf 71fe 	movt	r1, #65534	; 0xfffe
8010156e:	f244 0048 	movw	r0, #16456	; 0x4048
80101572:	f2c8 0010 	movt	r0, #32784	; 0x8010
80101576:	f7ff ffc6 	bl	80101506 <printf>
8010157a:	f245 51aa 	movw	r1, #21930	; 0x55aa
8010157e:	f2c5 51aa 	movt	r1, #21930	; 0x55aa
80101582:	f244 0064 	movw	r0, #16484	; 0x4064
80101586:	f2c8 0010 	movt	r0, #32784	; 0x8010
8010158a:	f7ff ffbc 	bl	80101506 <printf>
8010158e:	f244 0180 	movw	r1, #16512	; 0x4080
80101592:	f2c8 0110 	movt	r1, #32784	; 0x8010
80101596:	f244 0090 	movw	r0, #16528	; 0x4090
8010159a:	f2c8 0010 	movt	r0, #32784	; 0x8010
8010159e:	f7ff ffb2 	bl	80101506 <printf>
801015a2:	f243 0139 	movw	r1, #12345	; 0x3039
801015a6:	f244 00ac 	movw	r0, #16556	; 0x40ac
801015aa:	f2c8 0010 	movt	r0, #32784	; 0x8010
801015ae:	f7ff ffaa 	bl	80101506 <printf>
801015b2:	f243 0139 	movw	r1, #12345	; 0x3039
801015b6:	f244 00b8 	movw	r0, #16568	; 0x40b8
801015ba:	f2c8 0010 	movt	r0, #32784	; 0x8010
801015be:	f7ff ffa2 	bl	80101506 <printf>
801015c2:	f242 3145 	movw	r1, #9029	; 0x2345
801015c6:	f2c0 0101 	movt	r1, #1
801015ca:	f244 00c4 	movw	r0, #16580	; 0x40c4
801015ce:	f2c8 0010 	movt	r0, #32784	; 0x8010
801015d2:	f7ff ff98 	bl	80101506 <printf>
801015d6:	f242 3145 	movw	r1, #9029	; 0x2345
801015da:	f2c0 0101 	movt	r1, #1
801015de:	f244 00d4 	movw	r0, #16596	; 0x40d4
801015e2:	f2c8 0010 	movt	r0, #32784	; 0x8010
801015e6:	f7ff ff8e 	bl	80101506 <printf>
801015ea:	2101      	movs	r1, #1
801015ec:	f244 00e0 	movw	r0, #16608	; 0x40e0
801015f0:	f2c8 0010 	movt	r0, #32784	; 0x8010
801015f4:	f7ff ff87 	bl	80101506 <printf>
801015f8:	2101      	movs	r1, #1
801015fa:	f244 00f0 	movw	r0, #16624	; 0x40f0
801015fe:	f2c8 0010 	movt	r0, #32784	; 0x8010
80101602:	f7ff ff80 	bl	80101506 <printf>
80101606:	2101      	movs	r1, #1
80101608:	f244 00fc 	movw	r0, #16636	; 0x40fc
8010160c:	f2c8 0010 	movt	r0, #32784	; 0x8010
80101610:	f7ff ff79 	bl	80101506 <printf>
80101614:	2101      	movs	r1, #1
80101616:	f244 1008 	movw	r0, #16648	; 0x4108
8010161a:	f2c8 0010 	movt	r0, #32784	; 0x8010
8010161e:	f7ff ff72 	bl	80101506 <printf>
80101622:	2300      	movs	r3, #0
80101624:	4618      	mov	r0, r3
80101626:	bd80      	pop	{r7, pc}

80101628 <memcpy>:
80101628:	b480      	push	{r7}
8010162a:	b089      	sub	sp, #36	; 0x24
8010162c:	af00      	add	r7, sp, #0
8010162e:	60f8      	str	r0, [r7, #12]
80101630:	60b9      	str	r1, [r7, #8]
80101632:	607a      	str	r2, [r7, #4]
80101634:	68fb      	ldr	r3, [r7, #12]
80101636:	61fb      	str	r3, [r7, #28]
80101638:	68bb      	ldr	r3, [r7, #8]
8010163a:	61bb      	str	r3, [r7, #24]
8010163c:	68ba      	ldr	r2, [r7, #8]
8010163e:	68fb      	ldr	r3, [r7, #12]
80101640:	429a      	cmp	r2, r3
80101642:	d101      	bne.n	80101648 <memcpy+0x20>
80101644:	68fb      	ldr	r3, [r7, #12]
80101646:	e028      	b.n	8010169a <memcpy+0x72>
80101648:	68fa      	ldr	r2, [r7, #12]
8010164a:	68bb      	ldr	r3, [r7, #8]
8010164c:	4313      	orrs	r3, r2
8010164e:	f003 0303 	and.w	r3, r3, #3
80101652:	2b00      	cmp	r3, #0
80101654:	d10e      	bne.n	80101674 <memcpy+0x4c>
80101656:	e00a      	b.n	8010166e <memcpy+0x46>
80101658:	69fb      	ldr	r3, [r7, #28]
8010165a:	1d1a      	adds	r2, r3, #4
8010165c:	61fa      	str	r2, [r7, #28]
8010165e:	69ba      	ldr	r2, [r7, #24]
80101660:	1d11      	adds	r1, r2, #4
80101662:	61b9      	str	r1, [r7, #24]
80101664:	6812      	ldr	r2, [r2, #0]
80101666:	601a      	str	r2, [r3, #0]
80101668:	687b      	ldr	r3, [r7, #4]
8010166a:	3b04      	subs	r3, #4
8010166c:	607b      	str	r3, [r7, #4]
8010166e:	687b      	ldr	r3, [r7, #4]
80101670:	2b03      	cmp	r3, #3
80101672:	d8f1      	bhi.n	80101658 <memcpy+0x30>
80101674:	69fb      	ldr	r3, [r7, #28]
80101676:	617b      	str	r3, [r7, #20]
80101678:	69bb      	ldr	r3, [r7, #24]
8010167a:	613b      	str	r3, [r7, #16]
8010167c:	e007      	b.n	8010168e <memcpy+0x66>
8010167e:	697b      	ldr	r3, [r7, #20]
80101680:	1c5a      	adds	r2, r3, #1
80101682:	617a      	str	r2, [r7, #20]
80101684:	693a      	ldr	r2, [r7, #16]
80101686:	1c51      	adds	r1, r2, #1
80101688:	6139      	str	r1, [r7, #16]
8010168a:	7812      	ldrb	r2, [r2, #0]
8010168c:	701a      	strb	r2, [r3, #0]
8010168e:	687b      	ldr	r3, [r7, #4]
80101690:	1e5a      	subs	r2, r3, #1
80101692:	607a      	str	r2, [r7, #4]
80101694:	2b00      	cmp	r3, #0
80101696:	d1f2      	bne.n	8010167e <memcpy+0x56>
80101698:	68fb      	ldr	r3, [r7, #12]
8010169a:	4618      	mov	r0, r3
8010169c:	3724      	adds	r7, #36	; 0x24
8010169e:	46bd      	mov	sp, r7
801016a0:	f85d 7b04 	ldr.w	r7, [sp], #4
801016a4:	4770      	bx	lr

801016a6 <memset>:
801016a6:	b480      	push	{r7}
801016a8:	b089      	sub	sp, #36	; 0x24
801016aa:	af00      	add	r7, sp, #0
801016ac:	60f8      	str	r0, [r7, #12]
801016ae:	60b9      	str	r1, [r7, #8]
801016b0:	607a      	str	r2, [r7, #4]
801016b2:	68fb      	ldr	r3, [r7, #12]
801016b4:	61fb      	str	r3, [r7, #28]
801016b6:	2300      	movs	r3, #0
801016b8:	61bb      	str	r3, [r7, #24]
801016ba:	68fb      	ldr	r3, [r7, #12]
801016bc:	f003 0303 	and.w	r3, r3, #3
801016c0:	2b00      	cmp	r3, #0
801016c2:	d11c      	bne.n	801016fe <memset+0x58>
801016c4:	2300      	movs	r3, #0
801016c6:	613b      	str	r3, [r7, #16]
801016c8:	e00a      	b.n	801016e0 <memset+0x3a>
801016ca:	69bb      	ldr	r3, [r7, #24]
801016cc:	021b      	lsls	r3, r3, #8
801016ce:	61bb      	str	r3, [r7, #24]
801016d0:	68bb      	ldr	r3, [r7, #8]
801016d2:	b2db      	uxtb	r3, r3
801016d4:	69ba      	ldr	r2, [r7, #24]
801016d6:	4313      	orrs	r3, r2
801016d8:	61bb      	str	r3, [r7, #24]
801016da:	693b      	ldr	r3, [r7, #16]
801016dc:	3301      	adds	r3, #1
801016de:	613b      	str	r3, [r7, #16]
801016e0:	693b      	ldr	r3, [r7, #16]
801016e2:	2b03      	cmp	r3, #3
801016e4:	d9f1      	bls.n	801016ca <memset+0x24>
801016e6:	e007      	b.n	801016f8 <memset+0x52>
801016e8:	69fb      	ldr	r3, [r7, #28]
801016ea:	1d1a      	adds	r2, r3, #4
801016ec:	61fa      	str	r2, [r7, #28]
801016ee:	69ba      	ldr	r2, [r7, #24]
801016f0:	601a      	str	r2, [r3, #0]
801016f2:	687b      	ldr	r3, [r7, #4]
801016f4:	3b04      	subs	r3, #4
801016f6:	607b      	str	r3, [r7, #4]
801016f8:	687b      	ldr	r3, [r7, #4]
801016fa:	2b03      	cmp	r3, #3
801016fc:	d8f4      	bhi.n	801016e8 <memset+0x42>
801016fe:	69fb      	ldr	r3, [r7, #28]
80101700:	617b      	str	r3, [r7, #20]
80101702:	e005      	b.n	80101710 <memset+0x6a>
80101704:	697b      	ldr	r3, [r7, #20]
80101706:	1c5a      	adds	r2, r3, #1
80101708:	617a      	str	r2, [r7, #20]
8010170a:	68ba      	ldr	r2, [r7, #8]
8010170c:	b2d2      	uxtb	r2, r2
8010170e:	701a      	strb	r2, [r3, #0]
80101710:	687b      	ldr	r3, [r7, #4]
80101712:	1e5a      	subs	r2, r3, #1
80101714:	607a      	str	r2, [r7, #4]
80101716:	2b00      	cmp	r3, #0
80101718:	d1f4      	bne.n	80101704 <memset+0x5e>
8010171a:	68fb      	ldr	r3, [r7, #12]
8010171c:	4618      	mov	r0, r3
8010171e:	3724      	adds	r7, #36	; 0x24
80101720:	46bd      	mov	sp, r7
80101722:	f85d 7b04 	ldr.w	r7, [sp], #4
80101726:	4770      	bx	lr

80101728 <USDHC_Dump_All>:
80101728:	b580      	push	{r7, lr}
8010172a:	b082      	sub	sp, #8
8010172c:	af00      	add	r7, sp, #0
8010172e:	6078      	str	r0, [r7, #4]
80101730:	687b      	ldr	r3, [r7, #4]
80101732:	681b      	ldr	r3, [r3, #0]
80101734:	4619      	mov	r1, r3
80101736:	f244 1014 	movw	r0, #16660	; 0x4114
8010173a:	f2c8 0010 	movt	r0, #32784	; 0x8010
8010173e:	f7ff fee2 	bl	80101506 <printf>
80101742:	687b      	ldr	r3, [r7, #4]
80101744:	685b      	ldr	r3, [r3, #4]
80101746:	4619      	mov	r1, r3
80101748:	f244 1028 	movw	r0, #16680	; 0x4128
8010174c:	f2c8 0010 	movt	r0, #32784	; 0x8010
80101750:	f7ff fed9 	bl	80101506 <printf>
80101754:	687b      	ldr	r3, [r7, #4]
80101756:	689b      	ldr	r3, [r3, #8]
80101758:	4619      	mov	r1, r3
8010175a:	f244 103c 	movw	r0, #16700	; 0x413c
8010175e:	f2c8 0010 	movt	r0, #32784	; 0x8010
80101762:	f7ff fed0 	bl	80101506 <printf>
80101766:	687b      	ldr	r3, [r7, #4]
80101768:	68db      	ldr	r3, [r3, #12]
8010176a:	4619      	mov	r1, r3
8010176c:	f244 1050 	movw	r0, #16720	; 0x4150
80101770:	f2c8 0010 	movt	r0, #32784	; 0x8010
80101774:	f7ff fec7 	bl	80101506 <printf>
80101778:	687b      	ldr	r3, [r7, #4]
8010177a:	691b      	ldr	r3, [r3, #16]
8010177c:	4619      	mov	r1, r3
8010177e:	f244 1068 	movw	r0, #16744	; 0x4168
80101782:	f2c8 0010 	movt	r0, #32784	; 0x8010
80101786:	f7ff febe 	bl	80101506 <printf>
8010178a:	687b      	ldr	r3, [r7, #4]
8010178c:	695b      	ldr	r3, [r3, #20]
8010178e:	4619      	mov	r1, r3
80101790:	f244 107c 	movw	r0, #16764	; 0x417c
80101794:	f2c8 0010 	movt	r0, #32784	; 0x8010
80101798:	f7ff feb5 	bl	80101506 <printf>
8010179c:	687b      	ldr	r3, [r7, #4]
8010179e:	699b      	ldr	r3, [r3, #24]
801017a0:	4619      	mov	r1, r3
801017a2:	f244 1090 	movw	r0, #16784	; 0x4190
801017a6:	f2c8 0010 	movt	r0, #32784	; 0x8010
801017aa:	f7ff feac 	bl	80101506 <printf>
801017ae:	687b      	ldr	r3, [r7, #4]
801017b0:	69db      	ldr	r3, [r3, #28]
801017b2:	4619      	mov	r1, r3
801017b4:	f244 10a4 	movw	r0, #16804	; 0x41a4
801017b8:	f2c8 0010 	movt	r0, #32784	; 0x8010
801017bc:	f7ff fea3 	bl	80101506 <printf>
801017c0:	687b      	ldr	r3, [r7, #4]
801017c2:	6a1b      	ldr	r3, [r3, #32]
801017c4:	4619      	mov	r1, r3
801017c6:	f244 10b8 	movw	r0, #16824	; 0x41b8
801017ca:	f2c8 0010 	movt	r0, #32784	; 0x8010
801017ce:	f7ff fe9a 	bl	80101506 <printf>
801017d2:	687b      	ldr	r3, [r7, #4]
801017d4:	6a5b      	ldr	r3, [r3, #36]	; 0x24
801017d6:	4619      	mov	r1, r3
801017d8:	f244 10d8 	movw	r0, #16856	; 0x41d8
801017dc:	f2c8 0010 	movt	r0, #32784	; 0x8010
801017e0:	f7ff fe91 	bl	80101506 <printf>
801017e4:	687b      	ldr	r3, [r7, #4]
801017e6:	6a9b      	ldr	r3, [r3, #40]	; 0x28
801017e8:	4619      	mov	r1, r3
801017ea:	f244 10f0 	movw	r0, #16880	; 0x41f0
801017ee:	f2c8 0010 	movt	r0, #32784	; 0x8010
801017f2:	f7ff fe88 	bl	80101506 <printf>
801017f6:	687b      	ldr	r3, [r7, #4]
801017f8:	6adb      	ldr	r3, [r3, #44]	; 0x2c
801017fa:	4619      	mov	r1, r3
801017fc:	f244 2004 	movw	r0, #16900	; 0x4204
80101800:	f2c8 0010 	movt	r0, #32784	; 0x8010
80101804:	f7ff fe7f 	bl	80101506 <printf>
80101808:	687b      	ldr	r3, [r7, #4]
8010180a:	6b1b      	ldr	r3, [r3, #48]	; 0x30
8010180c:	4619      	mov	r1, r3
8010180e:	f244 2018 	movw	r0, #16920	; 0x4218
80101812:	f2c8 0010 	movt	r0, #32784	; 0x8010
80101816:	f7ff fe76 	bl	80101506 <printf>
8010181a:	687b      	ldr	r3, [r7, #4]
8010181c:	6b5b      	ldr	r3, [r3, #52]	; 0x34
8010181e:	4619      	mov	r1, r3
80101820:	f244 2030 	movw	r0, #16944	; 0x4230
80101824:	f2c8 0010 	movt	r0, #32784	; 0x8010
80101828:	f7ff fe6d 	bl	80101506 <printf>
8010182c:	687b      	ldr	r3, [r7, #4]
8010182e:	6b9b      	ldr	r3, [r3, #56]	; 0x38
80101830:	4619      	mov	r1, r3
80101832:	f244 2048 	movw	r0, #16968	; 0x4248
80101836:	f2c8 0010 	movt	r0, #32784	; 0x8010
8010183a:	f7ff fe64 	bl	80101506 <printf>
8010183e:	687b      	ldr	r3, [r7, #4]
80101840:	6bdb      	ldr	r3, [r3, #60]	; 0x3c
80101842:	4619      	mov	r1, r3
80101844:	f244 2060 	movw	r0, #16992	; 0x4260
80101848:	f2c8 0010 	movt	r0, #32784	; 0x8010
8010184c:	f7ff fe5b 	bl	80101506 <printf>
80101850:	687b      	ldr	r3, [r7, #4]
80101852:	6c1b      	ldr	r3, [r3, #64]	; 0x40
80101854:	4619      	mov	r1, r3
80101856:	f244 2080 	movw	r0, #17024	; 0x4280
8010185a:	f2c8 0010 	movt	r0, #32784	; 0x8010
8010185e:	f7ff fe52 	bl	80101506 <printf>
80101862:	687b      	ldr	r3, [r7, #4]
80101864:	6c5b      	ldr	r3, [r3, #68]	; 0x44
80101866:	4619      	mov	r1, r3
80101868:	f244 2098 	movw	r0, #17048	; 0x4298
8010186c:	f2c8 0010 	movt	r0, #32784	; 0x8010
80101870:	f7ff fe49 	bl	80101506 <printf>
80101874:	687b      	ldr	r3, [r7, #4]
80101876:	6c9b      	ldr	r3, [r3, #72]	; 0x48
80101878:	4619      	mov	r1, r3
8010187a:	f244 20ac 	movw	r0, #17068	; 0x42ac
8010187e:	f2c8 0010 	movt	r0, #32784	; 0x8010
80101882:	f7ff fe40 	bl	80101506 <printf>
80101886:	687b      	ldr	r3, [r7, #4]
80101888:	6d1b      	ldr	r3, [r3, #80]	; 0x50
8010188a:	4619      	mov	r1, r3
8010188c:	f244 20c0 	movw	r0, #17088	; 0x42c0
80101890:	f2c8 0010 	movt	r0, #32784	; 0x8010
80101894:	f7ff fe37 	bl	80101506 <printf>
80101898:	687b      	ldr	r3, [r7, #4]
8010189a:	6d5b      	ldr	r3, [r3, #84]	; 0x54
8010189c:	4619      	mov	r1, r3
8010189e:	f244 20d8 	movw	r0, #17112	; 0x42d8
801018a2:	f2c8 0010 	movt	r0, #32784	; 0x8010
801018a6:	f7ff fe2e 	bl	80101506 <printf>
801018aa:	687b      	ldr	r3, [r7, #4]
801018ac:	6d9b      	ldr	r3, [r3, #88]	; 0x58
801018ae:	4619      	mov	r1, r3
801018b0:	f244 20f4 	movw	r0, #17140	; 0x42f4
801018b4:	f2c8 0010 	movt	r0, #32784	; 0x8010
801018b8:	f7ff fe25 	bl	80101506 <printf>
801018bc:	687b      	ldr	r3, [r7, #4]
801018be:	6e1b      	ldr	r3, [r3, #96]	; 0x60
801018c0:	4619      	mov	r1, r3
801018c2:	f244 300c 	movw	r0, #17164	; 0x430c
801018c6:	f2c8 0010 	movt	r0, #32784	; 0x8010
801018ca:	f7ff fe1c 	bl	80101506 <printf>
801018ce:	687b      	ldr	r3, [r7, #4]
801018d0:	6e5b      	ldr	r3, [r3, #100]	; 0x64
801018d2:	4619      	mov	r1, r3
801018d4:	f244 3020 	movw	r0, #17184	; 0x4320
801018d8:	f2c8 0010 	movt	r0, #32784	; 0x8010
801018dc:	f7ff fe13 	bl	80101506 <printf>
801018e0:	687b      	ldr	r3, [r7, #4]
801018e2:	6e9b      	ldr	r3, [r3, #104]	; 0x68
801018e4:	4619      	mov	r1, r3
801018e6:	f244 3038 	movw	r0, #17208	; 0x4338
801018ea:	f2c8 0010 	movt	r0, #32784	; 0x8010
801018ee:	f7ff fe0a 	bl	80101506 <printf>
801018f2:	687b      	ldr	r3, [r7, #4]
801018f4:	f8d3 30c0 	ldr.w	r3, [r3, #192]	; 0xc0
801018f8:	4619      	mov	r1, r3
801018fa:	f244 3058 	movw	r0, #17240	; 0x4358
801018fe:	f2c8 0010 	movt	r0, #32784	; 0x8010
80101902:	f7ff fe00 	bl	80101506 <printf>
80101906:	687b      	ldr	r3, [r7, #4]
80101908:	f8d3 30c4 	ldr.w	r3, [r3, #196]	; 0xc4
8010190c:	4619      	mov	r1, r3
8010190e:	f244 306c 	movw	r0, #17260	; 0x436c
80101912:	f2c8 0010 	movt	r0, #32784	; 0x8010
80101916:	f7ff fdf6 	bl	80101506 <printf>
8010191a:	687b      	ldr	r3, [r7, #4]
8010191c:	f8d3 30c8 	ldr.w	r3, [r3, #200]	; 0xc8
80101920:	4619      	mov	r1, r3
80101922:	f244 3080 	movw	r0, #17280	; 0x4380
80101926:	f2c8 0010 	movt	r0, #32784	; 0x8010
8010192a:	f7ff fdec 	bl	80101506 <printf>
8010192e:	687b      	ldr	r3, [r7, #4]
80101930:	f8d3 30cc 	ldr.w	r3, [r3, #204]	; 0xcc
80101934:	4619      	mov	r1, r3
80101936:	f244 3098 	movw	r0, #17304	; 0x4398
8010193a:	f2c8 0010 	movt	r0, #32784	; 0x8010
8010193e:	f7ff fde2 	bl	80101506 <printf>
80101942:	bf00      	nop
80101944:	3708      	adds	r7, #8
80101946:	46bd      	mov	sp, r7
80101948:	bd80      	pop	{r7, pc}

8010194a <USDHC_Reset>:
8010194a:	b480      	push	{r7}
8010194c:	b085      	sub	sp, #20
8010194e:	af00      	add	r7, sp, #0
80101950:	60f8      	str	r0, [r7, #12]
80101952:	60b9      	str	r1, [r7, #8]
80101954:	607a      	str	r2, [r7, #4]
80101956:	68fb      	ldr	r3, [r7, #12]
80101958:	6ada      	ldr	r2, [r3, #44]	; 0x2c
8010195a:	68bb      	ldr	r3, [r7, #8]
8010195c:	f003 63e0 	and.w	r3, r3, #117440512	; 0x7000000
80101960:	431a      	orrs	r2, r3
80101962:	68fb      	ldr	r3, [r7, #12]
80101964:	62da      	str	r2, [r3, #44]	; 0x2c
80101966:	e005      	b.n	80101974 <USDHC_Reset+0x2a>
80101968:	687b      	ldr	r3, [r7, #4]
8010196a:	2b00      	cmp	r3, #0
8010196c:	d009      	beq.n	80101982 <USDHC_Reset+0x38>
8010196e:	687b      	ldr	r3, [r7, #4]
80101970:	3b01      	subs	r3, #1
80101972:	607b      	str	r3, [r7, #4]
80101974:	68fb      	ldr	r3, [r7, #12]
80101976:	6ada      	ldr	r2, [r3, #44]	; 0x2c
80101978:	68bb      	ldr	r3, [r7, #8]
8010197a:	4013      	ands	r3, r2
8010197c:	2b00      	cmp	r3, #0
8010197e:	d1f3      	bne.n	80101968 <USDHC_Reset+0x1e>
80101980:	e000      	b.n	80101984 <USDHC_Reset+0x3a>
80101982:	bf00      	nop
80101984:	687b      	ldr	r3, [r7, #4]
80101986:	2b00      	cmp	r3, #0
80101988:	bf14      	ite	ne
8010198a:	2301      	movne	r3, #1
8010198c:	2300      	moveq	r3, #0
8010198e:	b2db      	uxtb	r3, r3
80101990:	4618      	mov	r0, r3
80101992:	3714      	adds	r7, #20
80101994:	46bd      	mov	sp, r7
80101996:	f85d 7b04 	ldr.w	r7, [sp], #4
8010199a:	4770      	bx	lr

8010199c <USDHC_Reset_All>:
8010199c:	b580      	push	{r7, lr}
8010199e:	b082      	sub	sp, #8
801019a0:	af00      	add	r7, sp, #0
801019a2:	6078      	str	r0, [r7, #4]
801019a4:	6039      	str	r1, [r7, #0]
801019a6:	683a      	ldr	r2, [r7, #0]
801019a8:	f04f 7180 	mov.w	r1, #16777216	; 0x1000000
801019ac:	6878      	ldr	r0, [r7, #4]
801019ae:	f7ff ffcc 	bl	8010194a <USDHC_Reset>
801019b2:	4603      	mov	r3, r0
801019b4:	4618      	mov	r0, r3
801019b6:	3708      	adds	r7, #8
801019b8:	46bd      	mov	sp, r7
801019ba:	bd80      	pop	{r7, pc}

801019bc <USDHC_CreateDescTable>:
801019bc:	b490      	push	{r4, r7}
801019be:	b086      	sub	sp, #24
801019c0:	af00      	add	r7, sp, #0
801019c2:	6078      	str	r0, [r7, #4]
801019c4:	6039      	str	r1, [r7, #0]
801019c6:	683b      	ldr	r3, [r7, #0]
801019c8:	089a      	lsrs	r2, r3, #2
801019ca:	2305      	movs	r3, #5
801019cc:	f2c4 0301 	movt	r3, #16385	; 0x4001
801019d0:	fba2 3403 	umull	r3, r4, r2, r3
801019d4:	0b23      	lsrs	r3, r4, #12
801019d6:	60fb      	str	r3, [r7, #12]
801019d8:	6839      	ldr	r1, [r7, #0]
801019da:	088a      	lsrs	r2, r1, #2
801019dc:	2305      	movs	r3, #5
801019de:	f2c4 0301 	movt	r3, #16385	; 0x4001
801019e2:	fba2 3403 	umull	r3, r4, r2, r3
801019e6:	0b22      	lsrs	r2, r4, #12
801019e8:	4613      	mov	r3, r2
801019ea:	039b      	lsls	r3, r3, #14
801019ec:	1a9b      	subs	r3, r3, r2
801019ee:	009b      	lsls	r3, r3, #2
801019f0:	1aca      	subs	r2, r1, r3
801019f2:	2a00      	cmp	r2, #0
801019f4:	d002      	beq.n	801019fc <USDHC_CreateDescTable+0x40>
801019f6:	68fb      	ldr	r3, [r7, #12]
801019f8:	3301      	adds	r3, #1
801019fa:	60fb      	str	r3, [r7, #12]
801019fc:	2300      	movs	r3, #0
801019fe:	617b      	str	r3, [r7, #20]
80101a00:	e038      	b.n	80101a74 <USDHC_CreateDescTable+0xb8>
80101a02:	683b      	ldr	r3, [r7, #0]
80101a04:	f64f 72fc 	movw	r2, #65532	; 0xfffc
80101a08:	4293      	cmp	r3, r2
80101a0a:	d908      	bls.n	80101a1e <USDHC_CreateDescTable+0x62>
80101a0c:	f64f 73fc 	movw	r3, #65532	; 0xfffc
80101a10:	613b      	str	r3, [r7, #16]
80101a12:	683b      	ldr	r3, [r7, #0]
80101a14:	f5a3 437f 	sub.w	r3, r3, #65280	; 0xff00
80101a18:	3bfc      	subs	r3, #252	; 0xfc
80101a1a:	603b      	str	r3, [r7, #0]
80101a1c:	e001      	b.n	80101a22 <USDHC_CreateDescTable+0x66>
80101a1e:	683b      	ldr	r3, [r7, #0]
80101a20:	613b      	str	r3, [r7, #16]
80101a22:	f647 72f8 	movw	r2, #32760	; 0x7ff8
80101a26:	f2c8 0210 	movt	r2, #32784	; 0x8010
80101a2a:	697b      	ldr	r3, [r7, #20]
80101a2c:	00db      	lsls	r3, r3, #3
80101a2e:	4413      	add	r3, r2
80101a30:	687a      	ldr	r2, [r7, #4]
80101a32:	605a      	str	r2, [r3, #4]
80101a34:	693b      	ldr	r3, [r7, #16]
80101a36:	0419      	lsls	r1, r3, #16
80101a38:	f647 73f8 	movw	r3, #32760	; 0x7ff8
80101a3c:	f2c8 0310 	movt	r3, #32784	; 0x8010
80101a40:	697a      	ldr	r2, [r7, #20]
80101a42:	f843 1032 	str.w	r1, [r3, r2, lsl #3]
80101a46:	f647 73f8 	movw	r3, #32760	; 0x7ff8
80101a4a:	f2c8 0310 	movt	r3, #32784	; 0x8010
80101a4e:	697a      	ldr	r2, [r7, #20]
80101a50:	f853 3032 	ldr.w	r3, [r3, r2, lsl #3]
80101a54:	f043 0121 	orr.w	r1, r3, #33	; 0x21
80101a58:	f647 73f8 	movw	r3, #32760	; 0x7ff8
80101a5c:	f2c8 0310 	movt	r3, #32784	; 0x8010
80101a60:	697a      	ldr	r2, [r7, #20]
80101a62:	f843 1032 	str.w	r1, [r3, r2, lsl #3]
80101a66:	687a      	ldr	r2, [r7, #4]
80101a68:	693b      	ldr	r3, [r7, #16]
80101a6a:	4413      	add	r3, r2
80101a6c:	607b      	str	r3, [r7, #4]
80101a6e:	697b      	ldr	r3, [r7, #20]
80101a70:	3301      	adds	r3, #1
80101a72:	617b      	str	r3, [r7, #20]
80101a74:	697a      	ldr	r2, [r7, #20]
80101a76:	68fb      	ldr	r3, [r7, #12]
80101a78:	429a      	cmp	r2, r3
80101a7a:	d3c2      	bcc.n	80101a02 <USDHC_CreateDescTable+0x46>
80101a7c:	68fb      	ldr	r3, [r7, #12]
80101a7e:	1e5a      	subs	r2, r3, #1
80101a80:	68fb      	ldr	r3, [r7, #12]
80101a82:	1e59      	subs	r1, r3, #1
80101a84:	f647 73f8 	movw	r3, #32760	; 0x7ff8
80101a88:	f2c8 0310 	movt	r3, #32784	; 0x8010
80101a8c:	f853 3031 	ldr.w	r3, [r3, r1, lsl #3]
80101a90:	f043 0102 	orr.w	r1, r3, #2
80101a94:	f647 73f8 	movw	r3, #32760	; 0x7ff8
80101a98:	f2c8 0310 	movt	r3, #32784	; 0x8010
80101a9c:	f843 1032 	str.w	r1, [r3, r2, lsl #3]
80101aa0:	2300      	movs	r3, #0
80101aa2:	4618      	mov	r0, r3
80101aa4:	3718      	adds	r7, #24
80101aa6:	46bd      	mov	sp, r7
80101aa8:	bc90      	pop	{r4, r7}
80101aaa:	4770      	bx	lr

80101aac <USDHC_ClearInterruptStatusFlags>:
80101aac:	b480      	push	{r7}
80101aae:	b083      	sub	sp, #12
80101ab0:	af00      	add	r7, sp, #0
80101ab2:	6078      	str	r0, [r7, #4]
80101ab4:	6039      	str	r1, [r7, #0]
80101ab6:	687b      	ldr	r3, [r7, #4]
80101ab8:	683a      	ldr	r2, [r7, #0]
80101aba:	631a      	str	r2, [r3, #48]	; 0x30
80101abc:	bf00      	nop
80101abe:	370c      	adds	r7, #12
80101ac0:	46bd      	mov	sp, r7
80101ac2:	f85d 7b04 	ldr.w	r7, [sp], #4
80101ac6:	4770      	bx	lr

80101ac8 <USDHC_WaitCommandDone>:
80101ac8:	b580      	push	{r7, lr}
80101aca:	b084      	sub	sp, #16
80101acc:	af00      	add	r7, sp, #0
80101ace:	6078      	str	r0, [r7, #4]
80101ad0:	2300      	movs	r3, #0
80101ad2:	60fb      	str	r3, [r7, #12]
80101ad4:	2300      	movs	r3, #0
80101ad6:	60bb      	str	r3, [r7, #8]
80101ad8:	bf00      	nop
80101ada:	687b      	ldr	r3, [r7, #4]
80101adc:	6b1a      	ldr	r2, [r3, #48]	; 0x30
80101ade:	2301      	movs	r3, #1
80101ae0:	f2c0 030f 	movt	r3, #15
80101ae4:	4013      	ands	r3, r2
80101ae6:	2b00      	cmp	r3, #0
80101ae8:	d0f7      	beq.n	80101ada <USDHC_WaitCommandDone+0x12>
80101aea:	687b      	ldr	r3, [r7, #4]
80101aec:	6b1b      	ldr	r3, [r3, #48]	; 0x30
80101aee:	60bb      	str	r3, [r7, #8]
80101af0:	68bb      	ldr	r3, [r7, #8]
80101af2:	f403 2370 	and.w	r3, r3, #983040	; 0xf0000
80101af6:	2b00      	cmp	r3, #0
80101af8:	d00f      	beq.n	80101b1a <USDHC_WaitCommandDone+0x52>
80101afa:	687b      	ldr	r3, [r7, #4]
80101afc:	68db      	ldr	r3, [r3, #12]
80101afe:	68ba      	ldr	r2, [r7, #8]
80101b00:	4619      	mov	r1, r3
80101b02:	f244 30b0 	movw	r0, #17328	; 0x43b0
80101b06:	f2c8 0010 	movt	r0, #32784	; 0x8010
80101b0a:	f7ff fcfc 	bl	80101506 <printf>
80101b0e:	6878      	ldr	r0, [r7, #4]
80101b10:	f7ff fe0a 	bl	80101728 <USDHC_Dump_All>
80101b14:	f04f 33ff 	mov.w	r3, #4294967295	; 0xffffffff
80101b18:	60fb      	str	r3, [r7, #12]
80101b1a:	2101      	movs	r1, #1
80101b1c:	f2c0 410f 	movt	r1, #1039	; 0x40f
80101b20:	6878      	ldr	r0, [r7, #4]
80101b22:	f7ff ffc3 	bl	80101aac <USDHC_ClearInterruptStatusFlags>
80101b26:	68fb      	ldr	r3, [r7, #12]
80101b28:	4618      	mov	r0, r3
80101b2a:	3710      	adds	r7, #16
80101b2c:	46bd      	mov	sp, r7
80101b2e:	bd80      	pop	{r7, pc}

80101b30 <USDHC_WaitDataDone>:
80101b30:	b580      	push	{r7, lr}
80101b32:	b084      	sub	sp, #16
80101b34:	af00      	add	r7, sp, #0
80101b36:	6078      	str	r0, [r7, #4]
80101b38:	2300      	movs	r3, #0
80101b3a:	60fb      	str	r3, [r7, #12]
80101b3c:	2300      	movs	r3, #0
80101b3e:	60bb      	str	r3, [r7, #8]
80101b40:	bf00      	nop
80101b42:	687b      	ldr	r3, [r7, #4]
80101b44:	6b1a      	ldr	r2, [r3, #48]	; 0x30
80101b46:	2302      	movs	r3, #2
80101b48:	f2c1 1370 	movt	r3, #4464	; 0x1170
80101b4c:	4013      	ands	r3, r2
80101b4e:	2b00      	cmp	r3, #0
80101b50:	d0f7      	beq.n	80101b42 <USDHC_WaitDataDone+0x12>
80101b52:	687b      	ldr	r3, [r7, #4]
80101b54:	6b1b      	ldr	r3, [r3, #48]	; 0x30
80101b56:	60bb      	str	r3, [r7, #8]
80101b58:	68ba      	ldr	r2, [r7, #8]
80101b5a:	2300      	movs	r3, #0
80101b5c:	f2c1 1370 	movt	r3, #4464	; 0x1170
80101b60:	4013      	ands	r3, r2
80101b62:	2b00      	cmp	r3, #0
80101b64:	d00f      	beq.n	80101b86 <USDHC_WaitDataDone+0x56>
80101b66:	687b      	ldr	r3, [r7, #4]
80101b68:	68db      	ldr	r3, [r3, #12]
80101b6a:	68ba      	ldr	r2, [r7, #8]
80101b6c:	4619      	mov	r1, r3
80101b6e:	f244 30e0 	movw	r0, #17376	; 0x43e0
80101b72:	f2c8 0010 	movt	r0, #32784	; 0x8010
80101b76:	f7ff fcc6 	bl	80101506 <printf>
80101b7a:	6878      	ldr	r0, [r7, #4]
80101b7c:	f7ff fdd4 	bl	80101728 <USDHC_Dump_All>
80101b80:	f04f 33ff 	mov.w	r3, #4294967295	; 0xffffffff
80101b84:	60fb      	str	r3, [r7, #12]
80101b86:	2102      	movs	r1, #2
80101b88:	f2c1 1170 	movt	r1, #4464	; 0x1170
80101b8c:	6878      	ldr	r0, [r7, #4]
80101b8e:	f7ff ff8d 	bl	80101aac <USDHC_ClearInterruptStatusFlags>
80101b92:	68fb      	ldr	r3, [r7, #12]
80101b94:	4618      	mov	r0, r3
80101b96:	3710      	adds	r7, #16
80101b98:	46bd      	mov	sp, r7
80101b9a:	bd80      	pop	{r7, pc}

80101b9c <USDHC_SendCommand>:
80101b9c:	b580      	push	{r7, lr}
80101b9e:	b084      	sub	sp, #16
80101ba0:	af00      	add	r7, sp, #0
80101ba2:	60f8      	str	r0, [r7, #12]
80101ba4:	60b9      	str	r1, [r7, #8]
80101ba6:	607a      	str	r2, [r7, #4]
80101ba8:	bf00      	nop
80101baa:	68fb      	ldr	r3, [r7, #12]
80101bac:	6a5b      	ldr	r3, [r3, #36]	; 0x24
80101bae:	f003 0301 	and.w	r3, r3, #1
80101bb2:	2b00      	cmp	r3, #0
80101bb4:	d1f9      	bne.n	80101baa <USDHC_SendCommand+0xe>
80101bb6:	68fb      	ldr	r3, [r7, #12]
80101bb8:	687a      	ldr	r2, [r7, #4]
80101bba:	609a      	str	r2, [r3, #8]
80101bbc:	68bb      	ldr	r3, [r7, #8]
80101bbe:	041a      	lsls	r2, r3, #16
80101bc0:	68fb      	ldr	r3, [r7, #12]
80101bc2:	60da      	str	r2, [r3, #12]
80101bc4:	68f8      	ldr	r0, [r7, #12]
80101bc6:	f7ff ff7f 	bl	80101ac8 <USDHC_WaitCommandDone>
80101bca:	4603      	mov	r3, r0
80101bcc:	4618      	mov	r0, r3
80101bce:	3710      	adds	r7, #16
80101bd0:	46bd      	mov	sp, r7
80101bd2:	bd80      	pop	{r7, pc}

80101bd4 <USDHC_SendCommand_with_data>:
80101bd4:	b580      	push	{r7, lr}
80101bd6:	b086      	sub	sp, #24
80101bd8:	af00      	add	r7, sp, #0
80101bda:	60f8      	str	r0, [r7, #12]
80101bdc:	60b9      	str	r1, [r7, #8]
80101bde:	607a      	str	r2, [r7, #4]
80101be0:	603b      	str	r3, [r7, #0]
80101be2:	bf00      	nop
80101be4:	68fb      	ldr	r3, [r7, #12]
80101be6:	6a5b      	ldr	r3, [r3, #36]	; 0x24
80101be8:	f003 0301 	and.w	r3, r3, #1
80101bec:	2b00      	cmp	r3, #0
80101bee:	d1f9      	bne.n	80101be4 <USDHC_SendCommand_with_data+0x10>
80101bf0:	bf00      	nop
80101bf2:	68fb      	ldr	r3, [r7, #12]
80101bf4:	6a5b      	ldr	r3, [r3, #36]	; 0x24
80101bf6:	f003 0302 	and.w	r3, r3, #2
80101bfa:	2b00      	cmp	r3, #0
80101bfc:	d1f9      	bne.n	80101bf2 <USDHC_SendCommand_with_data+0x1e>
80101bfe:	6a39      	ldr	r1, [r7, #32]
80101c00:	f647 0000 	movw	r0, #30720	; 0x7800
80101c04:	f2c8 0010 	movt	r0, #32784	; 0x8010
80101c08:	f7ff fed8 	bl	801019bc <USDHC_CreateDescTable>
80101c0c:	68fb      	ldr	r3, [r7, #12]
80101c0e:	2200      	movs	r2, #0
80101c10:	601a      	str	r2, [r3, #0]
80101c12:	f647 73f8 	movw	r3, #32760	; 0x7ff8
80101c16:	f2c8 0310 	movt	r3, #32784	; 0x8010
80101c1a:	68fa      	ldr	r2, [r7, #12]
80101c1c:	6593      	str	r3, [r2, #88]	; 0x58
80101c1e:	6a3b      	ldr	r3, [r7, #32]
80101c20:	f3c3 030c 	ubfx	r3, r3, #0, #13
80101c24:	f443 3280 	orr.w	r2, r3, #65536	; 0x10000
80101c28:	68fb      	ldr	r3, [r7, #12]
80101c2a:	605a      	str	r2, [r3, #4]
80101c2c:	68fb      	ldr	r3, [r7, #12]
80101c2e:	f8d3 30c0 	ldr.w	r3, [r3, #192]	; 0xc0
80101c32:	f023 0201 	bic.w	r2, r3, #1
80101c36:	68fb      	ldr	r3, [r7, #12]
80101c38:	f8c3 20c0 	str.w	r2, [r3, #192]	; 0xc0
80101c3c:	68fb      	ldr	r3, [r7, #12]
80101c3e:	6a9b      	ldr	r3, [r3, #40]	; 0x28
80101c40:	f023 5360 	bic.w	r3, r3, #939524096	; 0x38000000
80101c44:	f423 7340 	bic.w	r3, r3, #768	; 0x300
80101c48:	68fa      	ldr	r2, [r7, #12]
80101c4a:	6293      	str	r3, [r2, #40]	; 0x28
80101c4c:	68fb      	ldr	r3, [r7, #12]
80101c4e:	6a9b      	ldr	r3, [r3, #40]	; 0x28
80101c50:	f043 6300 	orr.w	r3, r3, #134217728	; 0x8000000
80101c54:	f443 7300 	orr.w	r3, r3, #512	; 0x200
80101c58:	68fa      	ldr	r2, [r7, #12]
80101c5a:	6293      	str	r3, [r2, #40]	; 0x28
80101c5c:	68fb      	ldr	r3, [r7, #12]
80101c5e:	6c9b      	ldr	r3, [r3, #72]	; 0x48
80101c60:	f043 0211 	orr.w	r2, r3, #17
80101c64:	68fb      	ldr	r3, [r7, #12]
80101c66:	649a      	str	r2, [r3, #72]	; 0x48
80101c68:	68fb      	ldr	r3, [r7, #12]
80101c6a:	687a      	ldr	r2, [r7, #4]
80101c6c:	609a      	str	r2, [r3, #8]
80101c6e:	68bb      	ldr	r3, [r7, #8]
80101c70:	041a      	lsls	r2, r3, #16
80101c72:	68fb      	ldr	r3, [r7, #12]
80101c74:	60da      	str	r2, [r3, #12]
80101c76:	68f8      	ldr	r0, [r7, #12]
80101c78:	f7ff ff26 	bl	80101ac8 <USDHC_WaitCommandDone>
80101c7c:	6178      	str	r0, [r7, #20]
80101c7e:	697b      	ldr	r3, [r7, #20]
80101c80:	2b00      	cmp	r3, #0
80101c82:	da01      	bge.n	80101c88 <USDHC_SendCommand_with_data+0xb4>
80101c84:	697b      	ldr	r3, [r7, #20]
80101c86:	e014      	b.n	80101cb2 <USDHC_SendCommand_with_data+0xde>
80101c88:	68f8      	ldr	r0, [r7, #12]
80101c8a:	f7ff ff51 	bl	80101b30 <USDHC_WaitDataDone>
80101c8e:	6178      	str	r0, [r7, #20]
80101c90:	697b      	ldr	r3, [r7, #20]
80101c92:	2b00      	cmp	r3, #0
80101c94:	da01      	bge.n	80101c9a <USDHC_SendCommand_with_data+0xc6>
80101c96:	697b      	ldr	r3, [r7, #20]
80101c98:	e00b      	b.n	80101cb2 <USDHC_SendCommand_with_data+0xde>
80101c9a:	683b      	ldr	r3, [r7, #0]
80101c9c:	2b00      	cmp	r3, #0
80101c9e:	d007      	beq.n	80101cb0 <USDHC_SendCommand_with_data+0xdc>
80101ca0:	6a3a      	ldr	r2, [r7, #32]
80101ca2:	f647 0100 	movw	r1, #30720	; 0x7800
80101ca6:	f2c8 0110 	movt	r1, #32784	; 0x8010
80101caa:	6838      	ldr	r0, [r7, #0]
80101cac:	f7ff fcbc 	bl	80101628 <memcpy>
80101cb0:	2300      	movs	r3, #0
80101cb2:	4618      	mov	r0, r3
80101cb4:	3718      	adds	r7, #24
80101cb6:	46bd      	mov	sp, r7
80101cb8:	bd80      	pop	{r7, pc}

80101cba <USDHC_Init>:
80101cba:	b580      	push	{r7, lr}
80101cbc:	b086      	sub	sp, #24
80101cbe:	af00      	add	r7, sp, #0
80101cc0:	6078      	str	r0, [r7, #4]
80101cc2:	2164      	movs	r1, #100	; 0x64
80101cc4:	6878      	ldr	r0, [r7, #4]
80101cc6:	f7ff fe69 	bl	8010199c <USDHC_Reset_All>
80101cca:	687b      	ldr	r3, [r7, #4]
80101ccc:	6a9b      	ldr	r3, [r3, #40]	; 0x28
80101cce:	617b      	str	r3, [r7, #20]
80101cd0:	687b      	ldr	r3, [r7, #4]
80101cd2:	6c5b      	ldr	r3, [r3, #68]	; 0x44
80101cd4:	613b      	str	r3, [r7, #16]
80101cd6:	687b      	ldr	r3, [r7, #4]
80101cd8:	6adb      	ldr	r3, [r3, #44]	; 0x2c
80101cda:	60fb      	str	r3, [r7, #12]
80101cdc:	697b      	ldr	r3, [r7, #20]
80101cde:	f423 734c 	bic.w	r3, r3, #816	; 0x330
80101ce2:	617b      	str	r3, [r7, #20]
80101ce4:	697b      	ldr	r3, [r7, #20]
80101ce6:	f043 0320 	orr.w	r3, r3, #32
80101cea:	617b      	str	r3, [r7, #20]
80101cec:	693b      	ldr	r3, [r7, #16]
80101cee:	f003 23e0 	and.w	r3, r3, #3758153728	; 0xe000e000
80101cf2:	613b      	str	r3, [r7, #16]
80101cf4:	693b      	ldr	r3, [r7, #16]
80101cf6:	f043 6308 	orr.w	r3, r3, #142606336	; 0x8800000
80101cfa:	f443 6308 	orr.w	r3, r3, #2176	; 0x880
80101cfe:	613b      	str	r3, [r7, #16]
80101d00:	68fb      	ldr	r3, [r7, #12]
80101d02:	f423 2370 	bic.w	r3, r3, #983040	; 0xf0000
80101d06:	60fb      	str	r3, [r7, #12]
80101d08:	68fb      	ldr	r3, [r7, #12]
80101d0a:	f443 2370 	orr.w	r3, r3, #983040	; 0xf0000
80101d0e:	60fb      	str	r3, [r7, #12]
80101d10:	687b      	ldr	r3, [r7, #4]
80101d12:	68fa      	ldr	r2, [r7, #12]
80101d14:	62da      	str	r2, [r3, #44]	; 0x2c
80101d16:	687b      	ldr	r3, [r7, #4]
80101d18:	693a      	ldr	r2, [r7, #16]
80101d1a:	645a      	str	r2, [r3, #68]	; 0x44
80101d1c:	687b      	ldr	r3, [r7, #4]
80101d1e:	697a      	ldr	r2, [r7, #20]
80101d20:	629a      	str	r2, [r3, #40]	; 0x28
80101d22:	687b      	ldr	r3, [r7, #4]
80101d24:	2200      	movs	r2, #0
80101d26:	635a      	str	r2, [r3, #52]	; 0x34
80101d28:	687b      	ldr	r3, [r7, #4]
80101d2a:	2200      	movs	r2, #0
80101d2c:	639a      	str	r2, [r3, #56]	; 0x38
80101d2e:	687a      	ldr	r2, [r7, #4]
80101d30:	f245 03fb 	movw	r3, #20731	; 0x50fb
80101d34:	f2c1 537f 	movt	r3, #5503	; 0x157f
80101d38:	6353      	str	r3, [r2, #52]	; 0x34
80101d3a:	687a      	ldr	r2, [r7, #4]
80101d3c:	f245 03fb 	movw	r3, #20731	; 0x50fb
80101d40:	f2c1 537f 	movt	r3, #5503	; 0x157f
80101d44:	6393      	str	r3, [r2, #56]	; 0x38
80101d46:	bf00      	nop
80101d48:	3718      	adds	r7, #24
80101d4a:	46bd      	mov	sp, r7
80101d4c:	bd80      	pop	{r7, pc}

80101d4e <CardInsertDetect>:
80101d4e:	b580      	push	{r7, lr}
80101d50:	b082      	sub	sp, #8
80101d52:	af00      	add	r7, sp, #0
80101d54:	6078      	str	r0, [r7, #4]
80101d56:	687b      	ldr	r3, [r7, #4]
80101d58:	6a5b      	ldr	r3, [r3, #36]	; 0x24
80101d5a:	f403 3380 	and.w	r3, r3, #65536	; 0x10000
80101d5e:	2b00      	cmp	r3, #0
80101d60:	d105      	bne.n	80101d6e <CardInsertDetect+0x20>
80101d62:	f244 4018 	movw	r0, #17432	; 0x4418
80101d66:	f2c8 0010 	movt	r0, #32784	; 0x8010
80101d6a:	f7ff fbcc 	bl	80101506 <printf>
80101d6e:	bf00      	nop
80101d70:	687b      	ldr	r3, [r7, #4]
80101d72:	6a5b      	ldr	r3, [r3, #36]	; 0x24
80101d74:	0c1b      	lsrs	r3, r3, #16
80101d76:	f003 0301 	and.w	r3, r3, #1
80101d7a:	2b00      	cmp	r3, #0
80101d7c:	d0f8      	beq.n	80101d70 <CardInsertDetect+0x22>
80101d7e:	f244 4030 	movw	r0, #17456	; 0x4430
80101d82:	f2c8 0010 	movt	r0, #32784	; 0x8010
80101d86:	f7ff fbbe 	bl	80101506 <printf>
80101d8a:	bf00      	nop
80101d8c:	3708      	adds	r7, #8
80101d8e:	46bd      	mov	sp, r7
80101d90:	bd80      	pop	{r7, pc}

80101d92 <USDHC_SetDataBusWidth>:
80101d92:	b480      	push	{r7}
80101d94:	b083      	sub	sp, #12
80101d96:	af00      	add	r7, sp, #0
80101d98:	6078      	str	r0, [r7, #4]
80101d9a:	6039      	str	r1, [r7, #0]
80101d9c:	687b      	ldr	r3, [r7, #4]
80101d9e:	6a9b      	ldr	r3, [r3, #40]	; 0x28
80101da0:	f023 0206 	bic.w	r2, r3, #6
80101da4:	683b      	ldr	r3, [r7, #0]
80101da6:	005b      	lsls	r3, r3, #1
80101da8:	f003 0306 	and.w	r3, r3, #6
80101dac:	431a      	orrs	r2, r3
80101dae:	687b      	ldr	r3, [r7, #4]
80101db0:	629a      	str	r2, [r3, #40]	; 0x28
80101db2:	bf00      	nop
80101db4:	370c      	adds	r7, #12
80101db6:	46bd      	mov	sp, r7
80101db8:	f85d 7b04 	ldr.w	r7, [sp], #4
80101dbc:	4770      	bx	lr

80101dbe <USDHC_SetSdClock>:
80101dbe:	b580      	push	{r7, lr}
80101dc0:	b08c      	sub	sp, #48	; 0x30
80101dc2:	af00      	add	r7, sp, #0
80101dc4:	60f8      	str	r0, [r7, #12]
80101dc6:	60b9      	str	r1, [r7, #8]
80101dc8:	607a      	str	r2, [r7, #4]
80101dca:	2300      	movs	r3, #0
80101dcc:	62fb      	str	r3, [r7, #44]	; 0x2c
80101dce:	2300      	movs	r3, #0
80101dd0:	62bb      	str	r3, [r7, #40]	; 0x28
80101dd2:	2300      	movs	r3, #0
80101dd4:	627b      	str	r3, [r7, #36]	; 0x24
80101dd6:	2300      	movs	r3, #0
80101dd8:	617b      	str	r3, [r7, #20]
80101dda:	2300      	movs	r3, #0
80101ddc:	623b      	str	r3, [r7, #32]
80101dde:	f44f 7380 	mov.w	r3, #256	; 0x100
80101de2:	61fb      	str	r3, [r7, #28]
80101de4:	2300      	movs	r3, #0
80101de6:	61bb      	str	r3, [r7, #24]
80101de8:	68fb      	ldr	r3, [r7, #12]
80101dea:	6c9b      	ldr	r3, [r3, #72]	; 0x48
80101dec:	f003 0308 	and.w	r3, r3, #8
80101df0:	2b00      	cmp	r3, #0
80101df2:	d004      	beq.n	80101dfe <USDHC_SetSdClock+0x40>
80101df4:	2301      	movs	r3, #1
80101df6:	61bb      	str	r3, [r7, #24]
80101df8:	69fb      	ldr	r3, [r7, #28]
80101dfa:	005b      	lsls	r3, r3, #1
80101dfc:	61fb      	str	r3, [r7, #28]
80101dfe:	6879      	ldr	r1, [r7, #4]
80101e00:	68b8      	ldr	r0, [r7, #8]
80101e02:	f001 fdf1 	bl	801039e8 <__aeabi_uidiv>
80101e06:	4603      	mov	r3, r0
80101e08:	62fb      	str	r3, [r7, #44]	; 0x2c
80101e0a:	6afb      	ldr	r3, [r7, #44]	; 0x2c
80101e0c:	2b00      	cmp	r3, #0
80101e0e:	d055      	beq.n	80101ebc <USDHC_SetSdClock+0xfe>
80101e10:	6af9      	ldr	r1, [r7, #44]	; 0x2c
80101e12:	68b8      	ldr	r0, [r7, #8]
80101e14:	f001 fde8 	bl	801039e8 <__aeabi_uidiv>
80101e18:	4603      	mov	r3, r0
80101e1a:	461a      	mov	r2, r3
80101e1c:	687b      	ldr	r3, [r7, #4]
80101e1e:	429a      	cmp	r2, r3
80101e20:	d902      	bls.n	80101e28 <USDHC_SetSdClock+0x6a>
80101e22:	6afb      	ldr	r3, [r7, #44]	; 0x2c
80101e24:	3301      	adds	r3, #1
80101e26:	62fb      	str	r3, [r7, #44]	; 0x2c
80101e28:	6afb      	ldr	r3, [r7, #44]	; 0x2c
80101e2a:	2b10      	cmp	r3, #16
80101e2c:	d92e      	bls.n	80101e8c <USDHC_SetSdClock+0xce>
80101e2e:	6afb      	ldr	r3, [r7, #44]	; 0x2c
80101e30:	091b      	lsrs	r3, r3, #4
80101e32:	627b      	str	r3, [r7, #36]	; 0x24
80101e34:	e002      	b.n	80101e3c <USDHC_SetSdClock+0x7e>
80101e36:	6a7b      	ldr	r3, [r7, #36]	; 0x24
80101e38:	3301      	adds	r3, #1
80101e3a:	627b      	str	r3, [r7, #36]	; 0x24
80101e3c:	69fb      	ldr	r3, [r7, #28]
80101e3e:	6a79      	ldr	r1, [r7, #36]	; 0x24
80101e40:	4618      	mov	r0, r3
80101e42:	f001 feff 	bl	80103c44 <__aeabi_uidivmod>
80101e46:	460b      	mov	r3, r1
80101e48:	2b00      	cmp	r3, #0
80101e4a:	d1f4      	bne.n	80101e36 <USDHC_SetSdClock+0x78>
80101e4c:	6a7b      	ldr	r3, [r7, #36]	; 0x24
80101e4e:	2b01      	cmp	r3, #1
80101e50:	d0f1      	beq.n	80101e36 <USDHC_SetSdClock+0x78>
80101e52:	6a79      	ldr	r1, [r7, #36]	; 0x24
80101e54:	6af8      	ldr	r0, [r7, #44]	; 0x2c
80101e56:	f001 fdc7 	bl	801039e8 <__aeabi_uidiv>
80101e5a:	4603      	mov	r3, r0
80101e5c:	62bb      	str	r3, [r7, #40]	; 0x28
80101e5e:	e002      	b.n	80101e66 <USDHC_SetSdClock+0xa8>
80101e60:	6abb      	ldr	r3, [r7, #40]	; 0x28
80101e62:	3301      	adds	r3, #1
80101e64:	62bb      	str	r3, [r7, #40]	; 0x28
80101e66:	6abb      	ldr	r3, [r7, #40]	; 0x28
80101e68:	6a7a      	ldr	r2, [r7, #36]	; 0x24
80101e6a:	fb02 f203 	mul.w	r2, r2, r3
80101e6e:	6afb      	ldr	r3, [r7, #44]	; 0x2c
80101e70:	429a      	cmp	r2, r3
80101e72:	d3f5      	bcc.n	80101e60 <USDHC_SetSdClock+0xa2>
80101e74:	6ab9      	ldr	r1, [r7, #40]	; 0x28
80101e76:	68b8      	ldr	r0, [r7, #8]
80101e78:	f001 fdb6 	bl	801039e8 <__aeabi_uidiv>
80101e7c:	4603      	mov	r3, r0
80101e7e:	6a79      	ldr	r1, [r7, #36]	; 0x24
80101e80:	4618      	mov	r0, r3
80101e82:	f001 fdb1 	bl	801039e8 <__aeabi_uidiv>
80101e86:	4603      	mov	r3, r0
80101e88:	623b      	str	r3, [r7, #32]
80101e8a:	e01d      	b.n	80101ec8 <USDHC_SetSdClock+0x10a>
80101e8c:	2310      	movs	r3, #16
80101e8e:	6af9      	ldr	r1, [r7, #44]	; 0x2c
80101e90:	4618      	mov	r0, r3
80101e92:	f001 fed7 	bl	80103c44 <__aeabi_uidivmod>
80101e96:	460b      	mov	r3, r1
80101e98:	2b00      	cmp	r3, #0
80101e9a:	d104      	bne.n	80101ea6 <USDHC_SetSdClock+0xe8>
80101e9c:	2300      	movs	r3, #0
80101e9e:	62bb      	str	r3, [r7, #40]	; 0x28
80101ea0:	6afb      	ldr	r3, [r7, #44]	; 0x2c
80101ea2:	627b      	str	r3, [r7, #36]	; 0x24
80101ea4:	e003      	b.n	80101eae <USDHC_SetSdClock+0xf0>
80101ea6:	6afb      	ldr	r3, [r7, #44]	; 0x2c
80101ea8:	62bb      	str	r3, [r7, #40]	; 0x28
80101eaa:	2300      	movs	r3, #0
80101eac:	627b      	str	r3, [r7, #36]	; 0x24
80101eae:	6af9      	ldr	r1, [r7, #44]	; 0x2c
80101eb0:	68b8      	ldr	r0, [r7, #8]
80101eb2:	f001 fd99 	bl	801039e8 <__aeabi_uidiv>
80101eb6:	4603      	mov	r3, r0
80101eb8:	623b      	str	r3, [r7, #32]
80101eba:	e005      	b.n	80101ec8 <USDHC_SetSdClock+0x10a>
80101ebc:	2300      	movs	r3, #0
80101ebe:	62bb      	str	r3, [r7, #40]	; 0x28
80101ec0:	2300      	movs	r3, #0
80101ec2:	627b      	str	r3, [r7, #36]	; 0x24
80101ec4:	68bb      	ldr	r3, [r7, #8]
80101ec6:	623b      	str	r3, [r7, #32]
80101ec8:	6abb      	ldr	r3, [r7, #40]	; 0x28
80101eca:	2b00      	cmp	r3, #0
80101ecc:	d002      	beq.n	80101ed4 <USDHC_SetSdClock+0x116>
80101ece:	6abb      	ldr	r3, [r7, #40]	; 0x28
80101ed0:	3b01      	subs	r3, #1
80101ed2:	62bb      	str	r3, [r7, #40]	; 0x28
80101ed4:	6a7b      	ldr	r3, [r7, #36]	; 0x24
80101ed6:	2b00      	cmp	r3, #0
80101ed8:	d009      	beq.n	80101eee <USDHC_SetSdClock+0x130>
80101eda:	69bb      	ldr	r3, [r7, #24]
80101edc:	2b00      	cmp	r3, #0
80101ede:	d001      	beq.n	80101ee4 <USDHC_SetSdClock+0x126>
80101ee0:	2302      	movs	r3, #2
80101ee2:	e000      	b.n	80101ee6 <USDHC_SetSdClock+0x128>
80101ee4:	2301      	movs	r3, #1
80101ee6:	6a7a      	ldr	r2, [r7, #36]	; 0x24
80101ee8:	fa22 f303 	lsr.w	r3, r2, r3
80101eec:	627b      	str	r3, [r7, #36]	; 0x24
80101eee:	68fb      	ldr	r3, [r7, #12]
80101ef0:	6adb      	ldr	r3, [r3, #44]	; 0x2c
80101ef2:	617b      	str	r3, [r7, #20]
80101ef4:	697b      	ldr	r3, [r7, #20]
80101ef6:	f423 437f 	bic.w	r3, r3, #65280	; 0xff00
80101efa:	f023 03f0 	bic.w	r3, r3, #240	; 0xf0
80101efe:	617b      	str	r3, [r7, #20]
80101f00:	6abb      	ldr	r3, [r7, #40]	; 0x28
80101f02:	011b      	lsls	r3, r3, #4
80101f04:	b2da      	uxtb	r2, r3
80101f06:	6a7b      	ldr	r3, [r7, #36]	; 0x24
80101f08:	021b      	lsls	r3, r3, #8
80101f0a:	b29b      	uxth	r3, r3
80101f0c:	4313      	orrs	r3, r2
80101f0e:	697a      	ldr	r2, [r7, #20]
80101f10:	4313      	orrs	r3, r2
80101f12:	617b      	str	r3, [r7, #20]
80101f14:	68fb      	ldr	r3, [r7, #12]
80101f16:	697a      	ldr	r2, [r7, #20]
80101f18:	62da      	str	r2, [r3, #44]	; 0x2c
80101f1a:	bf00      	nop
80101f1c:	68fb      	ldr	r3, [r7, #12]
80101f1e:	6a5b      	ldr	r3, [r3, #36]	; 0x24
80101f20:	f003 0308 	and.w	r3, r3, #8
80101f24:	2b00      	cmp	r3, #0
80101f26:	d0f9      	beq.n	80101f1c <USDHC_SetSdClock+0x15e>
80101f28:	6a3b      	ldr	r3, [r7, #32]
80101f2a:	4618      	mov	r0, r3
80101f2c:	3730      	adds	r7, #48	; 0x30
80101f2e:	46bd      	mov	sp, r7
80101f30:	bd80      	pop	{r7, pc}

80101f32 <USDHC_SetCardActive>:
80101f32:	b480      	push	{r7}
80101f34:	b083      	sub	sp, #12
80101f36:	af00      	add	r7, sp, #0
80101f38:	6078      	str	r0, [r7, #4]
80101f3a:	6039      	str	r1, [r7, #0]
80101f3c:	687b      	ldr	r3, [r7, #4]
80101f3e:	6adb      	ldr	r3, [r3, #44]	; 0x2c
80101f40:	f043 6200 	orr.w	r2, r3, #134217728	; 0x8000000
80101f44:	687b      	ldr	r3, [r7, #4]
80101f46:	62da      	str	r2, [r3, #44]	; 0x2c
80101f48:	e005      	b.n	80101f56 <USDHC_SetCardActive+0x24>
80101f4a:	683b      	ldr	r3, [r7, #0]
80101f4c:	2b00      	cmp	r3, #0
80101f4e:	d00a      	beq.n	80101f66 <USDHC_SetCardActive+0x34>
80101f50:	683b      	ldr	r3, [r7, #0]
80101f52:	3b01      	subs	r3, #1
80101f54:	603b      	str	r3, [r7, #0]
80101f56:	687b      	ldr	r3, [r7, #4]
80101f58:	6adb      	ldr	r3, [r3, #44]	; 0x2c
80101f5a:	f003 6300 	and.w	r3, r3, #134217728	; 0x8000000
80101f5e:	f1b3 6f00 	cmp.w	r3, #134217728	; 0x8000000
80101f62:	d0f2      	beq.n	80101f4a <USDHC_SetCardActive+0x18>
80101f64:	e000      	b.n	80101f68 <USDHC_SetCardActive+0x36>
80101f66:	bf00      	nop
80101f68:	683b      	ldr	r3, [r7, #0]
80101f6a:	2b00      	cmp	r3, #0
80101f6c:	bf14      	ite	ne
80101f6e:	2301      	movne	r3, #1
80101f70:	2300      	moveq	r3, #0
80101f72:	b2db      	uxtb	r3, r3
80101f74:	4618      	mov	r0, r3
80101f76:	370c      	adds	r7, #12
80101f78:	46bd      	mov	sp, r7
80101f7a:	f85d 7b04 	ldr.w	r7, [sp], #4
80101f7e:	4770      	bx	lr

80101f80 <USDHC_GetResponse>:
80101f80:	b480      	push	{r7}
80101f82:	b083      	sub	sp, #12
80101f84:	af00      	add	r7, sp, #0
80101f86:	6078      	str	r0, [r7, #4]
80101f88:	6039      	str	r1, [r7, #0]
80101f8a:	683b      	ldr	r3, [r7, #0]
80101f8c:	330c      	adds	r3, #12
80101f8e:	687a      	ldr	r2, [r7, #4]
80101f90:	69d2      	ldr	r2, [r2, #28]
80101f92:	0211      	lsls	r1, r2, #8
80101f94:	687a      	ldr	r2, [r7, #4]
80101f96:	6992      	ldr	r2, [r2, #24]
80101f98:	0e12      	lsrs	r2, r2, #24
80101f9a:	430a      	orrs	r2, r1
80101f9c:	601a      	str	r2, [r3, #0]
80101f9e:	683b      	ldr	r3, [r7, #0]
80101fa0:	3308      	adds	r3, #8
80101fa2:	687a      	ldr	r2, [r7, #4]
80101fa4:	6992      	ldr	r2, [r2, #24]
80101fa6:	0211      	lsls	r1, r2, #8
80101fa8:	687a      	ldr	r2, [r7, #4]
80101faa:	6952      	ldr	r2, [r2, #20]
80101fac:	0e12      	lsrs	r2, r2, #24
80101fae:	430a      	orrs	r2, r1
80101fb0:	601a      	str	r2, [r3, #0]
80101fb2:	683b      	ldr	r3, [r7, #0]
80101fb4:	3304      	adds	r3, #4
80101fb6:	687a      	ldr	r2, [r7, #4]
80101fb8:	6952      	ldr	r2, [r2, #20]
80101fba:	0211      	lsls	r1, r2, #8
80101fbc:	687a      	ldr	r2, [r7, #4]
80101fbe:	6912      	ldr	r2, [r2, #16]
80101fc0:	0e12      	lsrs	r2, r2, #24
80101fc2:	430a      	orrs	r2, r1
80101fc4:	601a      	str	r2, [r3, #0]
80101fc6:	687b      	ldr	r3, [r7, #4]
80101fc8:	691b      	ldr	r3, [r3, #16]
80101fca:	021a      	lsls	r2, r3, #8
80101fcc:	683b      	ldr	r3, [r7, #0]
80101fce:	601a      	str	r2, [r3, #0]
80101fd0:	bf00      	nop
80101fd2:	370c      	adds	r7, #12
80101fd4:	46bd      	mov	sp, r7
80101fd6:	f85d 7b04 	ldr.w	r7, [sp], #4
80101fda:	4770      	bx	lr

80101fdc <SD_DecodeCid>:
80101fdc:	b480      	push	{r7}
80101fde:	b085      	sub	sp, #20
80101fe0:	af00      	add	r7, sp, #0
80101fe2:	6078      	str	r0, [r7, #4]
80101fe4:	6039      	str	r1, [r7, #0]
80101fe6:	687b      	ldr	r3, [r7, #4]
80101fe8:	3340      	adds	r3, #64	; 0x40
80101fea:	60fb      	str	r3, [r7, #12]
80101fec:	683b      	ldr	r3, [r7, #0]
80101fee:	330c      	adds	r3, #12
80101ff0:	681b      	ldr	r3, [r3, #0]
80101ff2:	0e1b      	lsrs	r3, r3, #24
80101ff4:	b2da      	uxtb	r2, r3
80101ff6:	68fb      	ldr	r3, [r7, #12]
80101ff8:	701a      	strb	r2, [r3, #0]
80101ffa:	683b      	ldr	r3, [r7, #0]
80101ffc:	330c      	adds	r3, #12
80101ffe:	681b      	ldr	r3, [r3, #0]
80102000:	0a1b      	lsrs	r3, r3, #8
80102002:	b29a      	uxth	r2, r3
80102004:	68fb      	ldr	r3, [r7, #12]
80102006:	805a      	strh	r2, [r3, #2]
80102008:	683b      	ldr	r3, [r7, #0]
8010200a:	330c      	adds	r3, #12
8010200c:	681b      	ldr	r3, [r3, #0]
8010200e:	b2da      	uxtb	r2, r3
80102010:	68fb      	ldr	r3, [r7, #12]
80102012:	711a      	strb	r2, [r3, #4]
80102014:	683b      	ldr	r3, [r7, #0]
80102016:	3308      	adds	r3, #8
80102018:	681b      	ldr	r3, [r3, #0]
8010201a:	0e1b      	lsrs	r3, r3, #24
8010201c:	b2da      	uxtb	r2, r3
8010201e:	68fb      	ldr	r3, [r7, #12]
80102020:	715a      	strb	r2, [r3, #5]
80102022:	683b      	ldr	r3, [r7, #0]
80102024:	3308      	adds	r3, #8
80102026:	681b      	ldr	r3, [r3, #0]
80102028:	0c1b      	lsrs	r3, r3, #16
8010202a:	b2da      	uxtb	r2, r3
8010202c:	68fb      	ldr	r3, [r7, #12]
8010202e:	719a      	strb	r2, [r3, #6]
80102030:	683b      	ldr	r3, [r7, #0]
80102032:	3308      	adds	r3, #8
80102034:	681b      	ldr	r3, [r3, #0]
80102036:	0a1b      	lsrs	r3, r3, #8
80102038:	b2da      	uxtb	r2, r3
8010203a:	68fb      	ldr	r3, [r7, #12]
8010203c:	71da      	strb	r2, [r3, #7]
8010203e:	683b      	ldr	r3, [r7, #0]
80102040:	3308      	adds	r3, #8
80102042:	681b      	ldr	r3, [r3, #0]
80102044:	b2da      	uxtb	r2, r3
80102046:	68fb      	ldr	r3, [r7, #12]
80102048:	721a      	strb	r2, [r3, #8]
8010204a:	683b      	ldr	r3, [r7, #0]
8010204c:	3304      	adds	r3, #4
8010204e:	681b      	ldr	r3, [r3, #0]
80102050:	0e1b      	lsrs	r3, r3, #24
80102052:	b2da      	uxtb	r2, r3
80102054:	68fb      	ldr	r3, [r7, #12]
80102056:	725a      	strb	r2, [r3, #9]
80102058:	683b      	ldr	r3, [r7, #0]
8010205a:	3304      	adds	r3, #4
8010205c:	681b      	ldr	r3, [r3, #0]
8010205e:	021a      	lsls	r2, r3, #8
80102060:	68fb      	ldr	r3, [r7, #12]
80102062:	60da      	str	r2, [r3, #12]
80102064:	68fb      	ldr	r3, [r7, #12]
80102066:	68da      	ldr	r2, [r3, #12]
80102068:	683b      	ldr	r3, [r7, #0]
8010206a:	681b      	ldr	r3, [r3, #0]
8010206c:	0e1b      	lsrs	r3, r3, #24
8010206e:	431a      	orrs	r2, r3
80102070:	68fb      	ldr	r3, [r7, #12]
80102072:	60da      	str	r2, [r3, #12]
80102074:	683b      	ldr	r3, [r7, #0]
80102076:	681b      	ldr	r3, [r3, #0]
80102078:	0a1b      	lsrs	r3, r3, #8
8010207a:	b29b      	uxth	r3, r3
8010207c:	f3c3 030b 	ubfx	r3, r3, #0, #12
80102080:	b29a      	uxth	r2, r3
80102082:	68fb      	ldr	r3, [r7, #12]
80102084:	821a      	strh	r2, [r3, #16]
80102086:	bf00      	nop
80102088:	3714      	adds	r7, #20
8010208a:	46bd      	mov	sp, r7
8010208c:	f85d 7b04 	ldr.w	r7, [sp], #4
80102090:	4770      	bx	lr

80102092 <SD_DecodeCsd>:
80102092:	b590      	push	{r4, r7, lr}
80102094:	b085      	sub	sp, #20
80102096:	af00      	add	r7, sp, #0
80102098:	6078      	str	r0, [r7, #4]
8010209a:	6039      	str	r1, [r7, #0]
8010209c:	687b      	ldr	r3, [r7, #4]
8010209e:	3354      	adds	r3, #84	; 0x54
801020a0:	60fb      	str	r3, [r7, #12]
801020a2:	683b      	ldr	r3, [r7, #0]
801020a4:	330c      	adds	r3, #12
801020a6:	681b      	ldr	r3, [r3, #0]
801020a8:	0f9b      	lsrs	r3, r3, #30
801020aa:	b2da      	uxtb	r2, r3
801020ac:	68fb      	ldr	r3, [r7, #12]
801020ae:	701a      	strb	r2, [r3, #0]
801020b0:	683b      	ldr	r3, [r7, #0]
801020b2:	330c      	adds	r3, #12
801020b4:	681b      	ldr	r3, [r3, #0]
801020b6:	0c1b      	lsrs	r3, r3, #16
801020b8:	b2da      	uxtb	r2, r3
801020ba:	68fb      	ldr	r3, [r7, #12]
801020bc:	705a      	strb	r2, [r3, #1]
801020be:	683b      	ldr	r3, [r7, #0]
801020c0:	330c      	adds	r3, #12
801020c2:	681b      	ldr	r3, [r3, #0]
801020c4:	0a1b      	lsrs	r3, r3, #8
801020c6:	b2da      	uxtb	r2, r3
801020c8:	68fb      	ldr	r3, [r7, #12]
801020ca:	709a      	strb	r2, [r3, #2]
801020cc:	683b      	ldr	r3, [r7, #0]
801020ce:	330c      	adds	r3, #12
801020d0:	681b      	ldr	r3, [r3, #0]
801020d2:	b2da      	uxtb	r2, r3
801020d4:	68fb      	ldr	r3, [r7, #12]
801020d6:	70da      	strb	r2, [r3, #3]
801020d8:	683b      	ldr	r3, [r7, #0]
801020da:	3308      	adds	r3, #8
801020dc:	681b      	ldr	r3, [r3, #0]
801020de:	0d1b      	lsrs	r3, r3, #20
801020e0:	b29a      	uxth	r2, r3
801020e2:	68fb      	ldr	r3, [r7, #12]
801020e4:	809a      	strh	r2, [r3, #4]
801020e6:	683b      	ldr	r3, [r7, #0]
801020e8:	3308      	adds	r3, #8
801020ea:	681b      	ldr	r3, [r3, #0]
801020ec:	0c1b      	lsrs	r3, r3, #16
801020ee:	b2db      	uxtb	r3, r3
801020f0:	f003 030f 	and.w	r3, r3, #15
801020f4:	b2da      	uxtb	r2, r3
801020f6:	68fb      	ldr	r3, [r7, #12]
801020f8:	719a      	strb	r2, [r3, #6]
801020fa:	683b      	ldr	r3, [r7, #0]
801020fc:	3308      	adds	r3, #8
801020fe:	681b      	ldr	r3, [r3, #0]
80102100:	f403 4300 	and.w	r3, r3, #32768	; 0x8000
80102104:	2b00      	cmp	r3, #0
80102106:	d006      	beq.n	80102116 <SD_DecodeCsd+0x84>
80102108:	68fb      	ldr	r3, [r7, #12]
8010210a:	891b      	ldrh	r3, [r3, #8]
8010210c:	f043 0301 	orr.w	r3, r3, #1
80102110:	b29a      	uxth	r2, r3
80102112:	68fb      	ldr	r3, [r7, #12]
80102114:	811a      	strh	r2, [r3, #8]
80102116:	683b      	ldr	r3, [r7, #0]
80102118:	3308      	adds	r3, #8
8010211a:	681b      	ldr	r3, [r3, #0]
8010211c:	f403 4380 	and.w	r3, r3, #16384	; 0x4000
80102120:	2b00      	cmp	r3, #0
80102122:	d006      	beq.n	80102132 <SD_DecodeCsd+0xa0>
80102124:	68fb      	ldr	r3, [r7, #12]
80102126:	891b      	ldrh	r3, [r3, #8]
80102128:	f043 0301 	orr.w	r3, r3, #1
8010212c:	b29a      	uxth	r2, r3
8010212e:	68fb      	ldr	r3, [r7, #12]
80102130:	811a      	strh	r2, [r3, #8]
80102132:	683b      	ldr	r3, [r7, #0]
80102134:	3308      	adds	r3, #8
80102136:	681b      	ldr	r3, [r3, #0]
80102138:	f403 5300 	and.w	r3, r3, #8192	; 0x2000
8010213c:	2b00      	cmp	r3, #0
8010213e:	d006      	beq.n	8010214e <SD_DecodeCsd+0xbc>
80102140:	68fb      	ldr	r3, [r7, #12]
80102142:	891b      	ldrh	r3, [r3, #8]
80102144:	f043 0304 	orr.w	r3, r3, #4
80102148:	b29a      	uxth	r2, r3
8010214a:	68fb      	ldr	r3, [r7, #12]
8010214c:	811a      	strh	r2, [r3, #8]
8010214e:	683b      	ldr	r3, [r7, #0]
80102150:	3308      	adds	r3, #8
80102152:	681b      	ldr	r3, [r3, #0]
80102154:	f403 5380 	and.w	r3, r3, #4096	; 0x1000
80102158:	2b00      	cmp	r3, #0
8010215a:	d006      	beq.n	8010216a <SD_DecodeCsd+0xd8>
8010215c:	68fb      	ldr	r3, [r7, #12]
8010215e:	891b      	ldrh	r3, [r3, #8]
80102160:	f043 0308 	orr.w	r3, r3, #8
80102164:	b29a      	uxth	r2, r3
80102166:	68fb      	ldr	r3, [r7, #12]
80102168:	811a      	strh	r2, [r3, #8]
8010216a:	68fb      	ldr	r3, [r7, #12]
8010216c:	781b      	ldrb	r3, [r3, #0]
8010216e:	2b00      	cmp	r3, #0
80102170:	d003      	beq.n	8010217a <SD_DecodeCsd+0xe8>
80102172:	2b01      	cmp	r3, #1
80102174:	f000 8085 	beq.w	80102282 <SD_DecodeCsd+0x1f0>
80102178:	e0ac      	b.n	801022d4 <SD_DecodeCsd+0x242>
8010217a:	683b      	ldr	r3, [r7, #0]
8010217c:	3308      	adds	r3, #8
8010217e:	681b      	ldr	r3, [r3, #0]
80102180:	009a      	lsls	r2, r3, #2
80102182:	f640 73fc 	movw	r3, #4092	; 0xffc
80102186:	4013      	ands	r3, r2
80102188:	68fa      	ldr	r2, [r7, #12]
8010218a:	60d3      	str	r3, [r2, #12]
8010218c:	68fb      	ldr	r3, [r7, #12]
8010218e:	68da      	ldr	r2, [r3, #12]
80102190:	683b      	ldr	r3, [r7, #0]
80102192:	3304      	adds	r3, #4
80102194:	681b      	ldr	r3, [r3, #0]
80102196:	0f9b      	lsrs	r3, r3, #30
80102198:	431a      	orrs	r2, r3
8010219a:	68fb      	ldr	r3, [r7, #12]
8010219c:	60da      	str	r2, [r3, #12]
8010219e:	683b      	ldr	r3, [r7, #0]
801021a0:	3304      	adds	r3, #4
801021a2:	681b      	ldr	r3, [r3, #0]
801021a4:	0edb      	lsrs	r3, r3, #27
801021a6:	b2db      	uxtb	r3, r3
801021a8:	f003 0307 	and.w	r3, r3, #7
801021ac:	b2da      	uxtb	r2, r3
801021ae:	68fb      	ldr	r3, [r7, #12]
801021b0:	741a      	strb	r2, [r3, #16]
801021b2:	683b      	ldr	r3, [r7, #0]
801021b4:	3304      	adds	r3, #4
801021b6:	681b      	ldr	r3, [r3, #0]
801021b8:	0e1b      	lsrs	r3, r3, #24
801021ba:	b2db      	uxtb	r3, r3
801021bc:	f003 0307 	and.w	r3, r3, #7
801021c0:	b2da      	uxtb	r2, r3
801021c2:	68fb      	ldr	r3, [r7, #12]
801021c4:	745a      	strb	r2, [r3, #17]
801021c6:	683b      	ldr	r3, [r7, #0]
801021c8:	3304      	adds	r3, #4
801021ca:	681b      	ldr	r3, [r3, #0]
801021cc:	0d1b      	lsrs	r3, r3, #20
801021ce:	b2db      	uxtb	r3, r3
801021d0:	f003 030e 	and.w	r3, r3, #14
801021d4:	b2da      	uxtb	r2, r3
801021d6:	68fb      	ldr	r3, [r7, #12]
801021d8:	749a      	strb	r2, [r3, #18]
801021da:	683b      	ldr	r3, [r7, #0]
801021dc:	3304      	adds	r3, #4
801021de:	681b      	ldr	r3, [r3, #0]
801021e0:	0c9b      	lsrs	r3, r3, #18
801021e2:	b2db      	uxtb	r3, r3
801021e4:	f003 0307 	and.w	r3, r3, #7
801021e8:	b2da      	uxtb	r2, r3
801021ea:	68fb      	ldr	r3, [r7, #12]
801021ec:	74da      	strb	r2, [r3, #19]
801021ee:	683b      	ldr	r3, [r7, #0]
801021f0:	3304      	adds	r3, #4
801021f2:	681b      	ldr	r3, [r3, #0]
801021f4:	0bdb      	lsrs	r3, r3, #15
801021f6:	b2db      	uxtb	r3, r3
801021f8:	f003 0307 	and.w	r3, r3, #7
801021fc:	b2da      	uxtb	r2, r3
801021fe:	68fb      	ldr	r3, [r7, #12]
80102200:	751a      	strb	r2, [r3, #20]
80102202:	68fb      	ldr	r3, [r7, #12]
80102204:	68db      	ldr	r3, [r3, #12]
80102206:	1c5a      	adds	r2, r3, #1
80102208:	68fb      	ldr	r3, [r7, #12]
8010220a:	7d1b      	ldrb	r3, [r3, #20]
8010220c:	3302      	adds	r3, #2
8010220e:	409a      	lsls	r2, r3
80102210:	687b      	ldr	r3, [r7, #4]
80102212:	67da      	str	r2, [r3, #124]	; 0x7c
80102214:	68fb      	ldr	r3, [r7, #12]
80102216:	799b      	ldrb	r3, [r3, #6]
80102218:	461a      	mov	r2, r3
8010221a:	2301      	movs	r3, #1
8010221c:	fa03 f202 	lsl.w	r2, r3, r2
80102220:	687b      	ldr	r3, [r7, #4]
80102222:	f8c3 2080 	str.w	r2, [r3, #128]	; 0x80
80102226:	687b      	ldr	r3, [r7, #4]
80102228:	f8d3 3080 	ldr.w	r3, [r3, #128]	; 0x80
8010222c:	f5b3 7f00 	cmp.w	r3, #512	; 0x200
80102230:	d01a      	beq.n	80102268 <SD_DecodeCsd+0x1d6>
80102232:	687b      	ldr	r3, [r7, #4]
80102234:	6fdb      	ldr	r3, [r3, #124]	; 0x7c
80102236:	687a      	ldr	r2, [r7, #4]
80102238:	f8d2 2080 	ldr.w	r2, [r2, #128]	; 0x80
8010223c:	fb02 f203 	mul.w	r2, r2, r3
80102240:	687b      	ldr	r3, [r7, #4]
80102242:	67da      	str	r2, [r3, #124]	; 0x7c
80102244:	687b      	ldr	r3, [r7, #4]
80102246:	f44f 7200 	mov.w	r2, #512	; 0x200
8010224a:	f8c3 2080 	str.w	r2, [r3, #128]	; 0x80
8010224e:	687b      	ldr	r3, [r7, #4]
80102250:	6fda      	ldr	r2, [r3, #124]	; 0x7c
80102252:	687b      	ldr	r3, [r7, #4]
80102254:	f8d3 3080 	ldr.w	r3, [r3, #128]	; 0x80
80102258:	4619      	mov	r1, r3
8010225a:	4610      	mov	r0, r2
8010225c:	f001 fbc4 	bl	801039e8 <__aeabi_uidiv>
80102260:	4603      	mov	r3, r0
80102262:	461a      	mov	r2, r3
80102264:	687b      	ldr	r3, [r7, #4]
80102266:	67da      	str	r2, [r3, #124]	; 0x7c
80102268:	687b      	ldr	r3, [r7, #4]
8010226a:	6fdb      	ldr	r3, [r3, #124]	; 0x7c
8010226c:	687a      	ldr	r2, [r7, #4]
8010226e:	f8d2 2080 	ldr.w	r2, [r2, #128]	; 0x80
80102272:	fb02 f303 	mul.w	r3, r2, r3
80102276:	f04f 0400 	mov.w	r4, #0
8010227a:	687a      	ldr	r2, [r7, #4]
8010227c:	e9c2 3422 	strd	r3, r4, [r2, #136]	; 0x88
80102280:	e028      	b.n	801022d4 <SD_DecodeCsd+0x242>
80102282:	687b      	ldr	r3, [r7, #4]
80102284:	f44f 7200 	mov.w	r2, #512	; 0x200
80102288:	f8c3 2080 	str.w	r2, [r3, #128]	; 0x80
8010228c:	683b      	ldr	r3, [r7, #0]
8010228e:	3308      	adds	r3, #8
80102290:	681b      	ldr	r3, [r3, #0]
80102292:	041b      	lsls	r3, r3, #16
80102294:	f403 127c 	and.w	r2, r3, #4128768	; 0x3f0000
80102298:	68fb      	ldr	r3, [r7, #12]
8010229a:	60da      	str	r2, [r3, #12]
8010229c:	68fb      	ldr	r3, [r7, #12]
8010229e:	68da      	ldr	r2, [r3, #12]
801022a0:	683b      	ldr	r3, [r7, #0]
801022a2:	3304      	adds	r3, #4
801022a4:	681b      	ldr	r3, [r3, #0]
801022a6:	0c1b      	lsrs	r3, r3, #16
801022a8:	431a      	orrs	r2, r3
801022aa:	68fb      	ldr	r3, [r7, #12]
801022ac:	60da      	str	r2, [r3, #12]
801022ae:	68fb      	ldr	r3, [r7, #12]
801022b0:	68db      	ldr	r3, [r3, #12]
801022b2:	3301      	adds	r3, #1
801022b4:	029a      	lsls	r2, r3, #10
801022b6:	687b      	ldr	r3, [r7, #4]
801022b8:	67da      	str	r2, [r3, #124]	; 0x7c
801022ba:	687b      	ldr	r3, [r7, #4]
801022bc:	f8d3 3080 	ldr.w	r3, [r3, #128]	; 0x80
801022c0:	687a      	ldr	r2, [r7, #4]
801022c2:	6fd2      	ldr	r2, [r2, #124]	; 0x7c
801022c4:	fb02 f303 	mul.w	r3, r2, r3
801022c8:	f04f 0400 	mov.w	r4, #0
801022cc:	687a      	ldr	r2, [r7, #4]
801022ce:	e9c2 3422 	strd	r3, r4, [r2, #136]	; 0x88
801022d2:	bf00      	nop
801022d4:	683b      	ldr	r3, [r7, #0]
801022d6:	3304      	adds	r3, #4
801022d8:	681b      	ldr	r3, [r3, #0]
801022da:	0b9b      	lsrs	r3, r3, #14
801022dc:	b2db      	uxtb	r3, r3
801022de:	f003 0301 	and.w	r3, r3, #1
801022e2:	b2db      	uxtb	r3, r3
801022e4:	2b00      	cmp	r3, #0
801022e6:	d006      	beq.n	801022f6 <SD_DecodeCsd+0x264>
801022e8:	68fb      	ldr	r3, [r7, #12]
801022ea:	891b      	ldrh	r3, [r3, #8]
801022ec:	f043 0310 	orr.w	r3, r3, #16
801022f0:	b29a      	uxth	r2, r3
801022f2:	68fb      	ldr	r3, [r7, #12]
801022f4:	811a      	strh	r2, [r3, #8]
801022f6:	683b      	ldr	r3, [r7, #0]
801022f8:	3304      	adds	r3, #4
801022fa:	681b      	ldr	r3, [r3, #0]
801022fc:	09db      	lsrs	r3, r3, #7
801022fe:	b2db      	uxtb	r3, r3
80102300:	f003 037f 	and.w	r3, r3, #127	; 0x7f
80102304:	b2da      	uxtb	r2, r3
80102306:	68fb      	ldr	r3, [r7, #12]
80102308:	755a      	strb	r2, [r3, #21]
8010230a:	683b      	ldr	r3, [r7, #0]
8010230c:	3304      	adds	r3, #4
8010230e:	681b      	ldr	r3, [r3, #0]
80102310:	b2db      	uxtb	r3, r3
80102312:	f003 037f 	and.w	r3, r3, #127	; 0x7f
80102316:	b2da      	uxtb	r2, r3
80102318:	68fb      	ldr	r3, [r7, #12]
8010231a:	759a      	strb	r2, [r3, #22]
8010231c:	683b      	ldr	r3, [r7, #0]
8010231e:	681b      	ldr	r3, [r3, #0]
80102320:	0e9b      	lsrs	r3, r3, #26
80102322:	b2db      	uxtb	r3, r3
80102324:	f003 0307 	and.w	r3, r3, #7
80102328:	b2da      	uxtb	r2, r3
8010232a:	68fb      	ldr	r3, [r7, #12]
8010232c:	75da      	strb	r2, [r3, #23]
8010232e:	683b      	ldr	r3, [r7, #0]
80102330:	681b      	ldr	r3, [r3, #0]
80102332:	0d9b      	lsrs	r3, r3, #22
80102334:	b2db      	uxtb	r3, r3
80102336:	f003 030f 	and.w	r3, r3, #15
8010233a:	b2da      	uxtb	r2, r3
8010233c:	68fb      	ldr	r3, [r7, #12]
8010233e:	761a      	strb	r2, [r3, #24]
80102340:	683b      	ldr	r3, [r7, #0]
80102342:	681b      	ldr	r3, [r3, #0]
80102344:	0d5b      	lsrs	r3, r3, #21
80102346:	b2db      	uxtb	r3, r3
80102348:	f003 0301 	and.w	r3, r3, #1
8010234c:	b2db      	uxtb	r3, r3
8010234e:	2b00      	cmp	r3, #0
80102350:	d006      	beq.n	80102360 <SD_DecodeCsd+0x2ce>
80102352:	68fb      	ldr	r3, [r7, #12]
80102354:	891b      	ldrh	r3, [r3, #8]
80102356:	f043 0340 	orr.w	r3, r3, #64	; 0x40
8010235a:	b29a      	uxth	r2, r3
8010235c:	68fb      	ldr	r3, [r7, #12]
8010235e:	811a      	strh	r2, [r3, #8]
80102360:	683b      	ldr	r3, [r7, #0]
80102362:	681b      	ldr	r3, [r3, #0]
80102364:	0bdb      	lsrs	r3, r3, #15
80102366:	b2db      	uxtb	r3, r3
80102368:	f003 0301 	and.w	r3, r3, #1
8010236c:	b2db      	uxtb	r3, r3
8010236e:	2b00      	cmp	r3, #0
80102370:	d006      	beq.n	80102380 <SD_DecodeCsd+0x2ee>
80102372:	68fb      	ldr	r3, [r7, #12]
80102374:	891b      	ldrh	r3, [r3, #8]
80102376:	f043 0380 	orr.w	r3, r3, #128	; 0x80
8010237a:	b29a      	uxth	r2, r3
8010237c:	68fb      	ldr	r3, [r7, #12]
8010237e:	811a      	strh	r2, [r3, #8]
80102380:	683b      	ldr	r3, [r7, #0]
80102382:	681b      	ldr	r3, [r3, #0]
80102384:	0b9b      	lsrs	r3, r3, #14
80102386:	b2db      	uxtb	r3, r3
80102388:	f003 0301 	and.w	r3, r3, #1
8010238c:	b2db      	uxtb	r3, r3
8010238e:	2b00      	cmp	r3, #0
80102390:	d006      	beq.n	801023a0 <SD_DecodeCsd+0x30e>
80102392:	68fb      	ldr	r3, [r7, #12]
80102394:	891b      	ldrh	r3, [r3, #8]
80102396:	f443 7380 	orr.w	r3, r3, #256	; 0x100
8010239a:	b29a      	uxth	r2, r3
8010239c:	68fb      	ldr	r3, [r7, #12]
8010239e:	811a      	strh	r2, [r3, #8]
801023a0:	683b      	ldr	r3, [r7, #0]
801023a2:	681b      	ldr	r3, [r3, #0]
801023a4:	0b5b      	lsrs	r3, r3, #13
801023a6:	b2db      	uxtb	r3, r3
801023a8:	f003 0301 	and.w	r3, r3, #1
801023ac:	b2db      	uxtb	r3, r3
801023ae:	2b00      	cmp	r3, #0
801023b0:	d006      	beq.n	801023c0 <SD_DecodeCsd+0x32e>
801023b2:	68fb      	ldr	r3, [r7, #12]
801023b4:	891b      	ldrh	r3, [r3, #8]
801023b6:	f443 7300 	orr.w	r3, r3, #512	; 0x200
801023ba:	b29a      	uxth	r2, r3
801023bc:	68fb      	ldr	r3, [r7, #12]
801023be:	811a      	strh	r2, [r3, #8]
801023c0:	683b      	ldr	r3, [r7, #0]
801023c2:	681b      	ldr	r3, [r3, #0]
801023c4:	0b1b      	lsrs	r3, r3, #12
801023c6:	b2db      	uxtb	r3, r3
801023c8:	f003 0301 	and.w	r3, r3, #1
801023cc:	b2db      	uxtb	r3, r3
801023ce:	2b00      	cmp	r3, #0
801023d0:	d006      	beq.n	801023e0 <SD_DecodeCsd+0x34e>
801023d2:	68fb      	ldr	r3, [r7, #12]
801023d4:	891b      	ldrh	r3, [r3, #8]
801023d6:	f443 6380 	orr.w	r3, r3, #1024	; 0x400
801023da:	b29a      	uxth	r2, r3
801023dc:	68fb      	ldr	r3, [r7, #12]
801023de:	811a      	strh	r2, [r3, #8]
801023e0:	683b      	ldr	r3, [r7, #0]
801023e2:	681b      	ldr	r3, [r3, #0]
801023e4:	0a9b      	lsrs	r3, r3, #10
801023e6:	b2db      	uxtb	r3, r3
801023e8:	f003 0303 	and.w	r3, r3, #3
801023ec:	b2da      	uxtb	r2, r3
801023ee:	68fb      	ldr	r3, [r7, #12]
801023f0:	765a      	strb	r2, [r3, #25]
801023f2:	bf00      	nop
801023f4:	3714      	adds	r7, #20
801023f6:	46bd      	mov	sp, r7
801023f8:	bd90      	pop	{r4, r7, pc}

801023fa <SD_DecodeScr>:
801023fa:	b480      	push	{r7}
801023fc:	b085      	sub	sp, #20
801023fe:	af00      	add	r7, sp, #0
80102400:	6078      	str	r0, [r7, #4]
80102402:	6039      	str	r1, [r7, #0]
80102404:	687b      	ldr	r3, [r7, #4]
80102406:	3370      	adds	r3, #112	; 0x70
80102408:	60fb      	str	r3, [r7, #12]
8010240a:	683b      	ldr	r3, [r7, #0]
8010240c:	681b      	ldr	r3, [r3, #0]
8010240e:	0f1b      	lsrs	r3, r3, #28
80102410:	b2da      	uxtb	r2, r3
80102412:	68fb      	ldr	r3, [r7, #12]
80102414:	701a      	strb	r2, [r3, #0]
80102416:	683b      	ldr	r3, [r7, #0]
80102418:	681b      	ldr	r3, [r3, #0]
8010241a:	0e1b      	lsrs	r3, r3, #24
8010241c:	b2db      	uxtb	r3, r3
8010241e:	f003 030f 	and.w	r3, r3, #15
80102422:	b2da      	uxtb	r2, r3
80102424:	68fb      	ldr	r3, [r7, #12]
80102426:	705a      	strb	r2, [r3, #1]
80102428:	683b      	ldr	r3, [r7, #0]
8010242a:	681b      	ldr	r3, [r3, #0]
8010242c:	0ddb      	lsrs	r3, r3, #23
8010242e:	b2db      	uxtb	r3, r3
80102430:	f003 0301 	and.w	r3, r3, #1
80102434:	b2db      	uxtb	r3, r3
80102436:	2b00      	cmp	r3, #0
80102438:	d006      	beq.n	80102448 <SD_DecodeScr+0x4e>
8010243a:	68fb      	ldr	r3, [r7, #12]
8010243c:	885b      	ldrh	r3, [r3, #2]
8010243e:	f043 0301 	orr.w	r3, r3, #1
80102442:	b29a      	uxth	r2, r3
80102444:	68fb      	ldr	r3, [r7, #12]
80102446:	805a      	strh	r2, [r3, #2]
80102448:	683b      	ldr	r3, [r7, #0]
8010244a:	681b      	ldr	r3, [r3, #0]
8010244c:	0d1b      	lsrs	r3, r3, #20
8010244e:	b2db      	uxtb	r3, r3
80102450:	f003 0307 	and.w	r3, r3, #7
80102454:	b2da      	uxtb	r2, r3
80102456:	68fb      	ldr	r3, [r7, #12]
80102458:	711a      	strb	r2, [r3, #4]
8010245a:	683b      	ldr	r3, [r7, #0]
8010245c:	681b      	ldr	r3, [r3, #0]
8010245e:	0c1b      	lsrs	r3, r3, #16
80102460:	b2db      	uxtb	r3, r3
80102462:	f003 030f 	and.w	r3, r3, #15
80102466:	b2da      	uxtb	r2, r3
80102468:	68fb      	ldr	r3, [r7, #12]
8010246a:	715a      	strb	r2, [r3, #5]
8010246c:	683b      	ldr	r3, [r7, #0]
8010246e:	681b      	ldr	r3, [r3, #0]
80102470:	0bdb      	lsrs	r3, r3, #15
80102472:	b2db      	uxtb	r3, r3
80102474:	f003 0301 	and.w	r3, r3, #1
80102478:	b2db      	uxtb	r3, r3
8010247a:	2b00      	cmp	r3, #0
8010247c:	d006      	beq.n	8010248c <SD_DecodeScr+0x92>
8010247e:	68fb      	ldr	r3, [r7, #12]
80102480:	885b      	ldrh	r3, [r3, #2]
80102482:	f043 0302 	orr.w	r3, r3, #2
80102486:	b29a      	uxth	r2, r3
80102488:	68fb      	ldr	r3, [r7, #12]
8010248a:	805a      	strh	r2, [r3, #2]
8010248c:	683b      	ldr	r3, [r7, #0]
8010248e:	681b      	ldr	r3, [r3, #0]
80102490:	0a9b      	lsrs	r3, r3, #10
80102492:	b2db      	uxtb	r3, r3
80102494:	f003 031e 	and.w	r3, r3, #30
80102498:	b2da      	uxtb	r2, r3
8010249a:	68fb      	ldr	r3, [r7, #12]
8010249c:	719a      	strb	r2, [r3, #6]
8010249e:	683b      	ldr	r3, [r7, #0]
801024a0:	681b      	ldr	r3, [r3, #0]
801024a2:	b2db      	uxtb	r3, r3
801024a4:	f003 0303 	and.w	r3, r3, #3
801024a8:	b2da      	uxtb	r2, r3
801024aa:	68fb      	ldr	r3, [r7, #12]
801024ac:	71da      	strb	r2, [r3, #7]
801024ae:	683b      	ldr	r3, [r7, #0]
801024b0:	685a      	ldr	r2, [r3, #4]
801024b2:	68fb      	ldr	r3, [r7, #12]
801024b4:	609a      	str	r2, [r3, #8]
801024b6:	68fb      	ldr	r3, [r7, #12]
801024b8:	785b      	ldrb	r3, [r3, #1]
801024ba:	2b01      	cmp	r3, #1
801024bc:	d008      	beq.n	801024d0 <SD_DecodeScr+0xd6>
801024be:	2b02      	cmp	r3, #2
801024c0:	d00a      	beq.n	801024d8 <SD_DecodeScr+0xde>
801024c2:	2b00      	cmp	r3, #0
801024c4:	d000      	beq.n	801024c8 <SD_DecodeScr+0xce>
801024c6:	e015      	b.n	801024f4 <SD_DecodeScr+0xfa>
801024c8:	687b      	ldr	r3, [r7, #4]
801024ca:	2201      	movs	r2, #1
801024cc:	60da      	str	r2, [r3, #12]
801024ce:	e011      	b.n	801024f4 <SD_DecodeScr+0xfa>
801024d0:	687b      	ldr	r3, [r7, #4]
801024d2:	2202      	movs	r2, #2
801024d4:	60da      	str	r2, [r3, #12]
801024d6:	e00d      	b.n	801024f4 <SD_DecodeScr+0xfa>
801024d8:	687b      	ldr	r3, [r7, #4]
801024da:	2204      	movs	r2, #4
801024dc:	60da      	str	r2, [r3, #12]
801024de:	687b      	ldr	r3, [r7, #4]
801024e0:	f8b3 3072 	ldrh.w	r3, [r3, #114]	; 0x72
801024e4:	f003 0302 	and.w	r3, r3, #2
801024e8:	2b00      	cmp	r3, #0
801024ea:	d002      	beq.n	801024f2 <SD_DecodeScr+0xf8>
801024ec:	687b      	ldr	r3, [r7, #4]
801024ee:	2208      	movs	r2, #8
801024f0:	60da      	str	r2, [r3, #12]
801024f2:	bf00      	nop
801024f4:	bf00      	nop
801024f6:	3714      	adds	r7, #20
801024f8:	46bd      	mov	sp, r7
801024fa:	f85d 7b04 	ldr.w	r7, [sp], #4
801024fe:	4770      	bx	lr

80102500 <SD_SelectBusTiming>:
80102500:	b580      	push	{r7, lr}
80102502:	b0c6      	sub	sp, #280	; 0x118
80102504:	af02      	add	r7, sp, #8
80102506:	1d3b      	adds	r3, r7, #4
80102508:	6018      	str	r0, [r3, #0]
8010250a:	f64f 73f1 	movw	r3, #65521	; 0xfff1
8010250e:	f2c8 03ff 	movt	r3, #33023	; 0x80ff
80102512:	f8c7 310c 	str.w	r3, [r7, #268]	; 0x10c
80102516:	f107 0208 	add.w	r2, r7, #8
8010251a:	1d38      	adds	r0, r7, #4
8010251c:	2340      	movs	r3, #64	; 0x40
8010251e:	9300      	str	r3, [sp, #0]
80102520:	4613      	mov	r3, r2
80102522:	2200      	movs	r2, #0
80102524:	f240 613a 	movw	r1, #1594	; 0x63a
80102528:	6800      	ldr	r0, [r0, #0]
8010252a:	f7ff fb53 	bl	80101bd4 <USDHC_SendCommand_with_data>
8010252e:	f8c7 0108 	str.w	r0, [r7, #264]	; 0x108
80102532:	f8d7 3108 	ldr.w	r3, [r7, #264]	; 0x108
80102536:	2b00      	cmp	r3, #0
80102538:	da02      	bge.n	80102540 <SD_SelectBusTiming+0x40>
8010253a:	f04f 33ff 	mov.w	r3, #4294967295	; 0xffffffff
8010253e:	e066      	b.n	8010260e <SD_SelectBusTiming+0x10e>
80102540:	f107 0308 	add.w	r3, r7, #8
80102544:	68db      	ldr	r3, [r3, #12]
80102546:	061a      	lsls	r2, r3, #24
80102548:	f107 0308 	add.w	r3, r7, #8
8010254c:	68db      	ldr	r3, [r3, #12]
8010254e:	021b      	lsls	r3, r3, #8
80102550:	f403 037f 	and.w	r3, r3, #16711680	; 0xff0000
80102554:	431a      	orrs	r2, r3
80102556:	f107 0308 	add.w	r3, r7, #8
8010255a:	68db      	ldr	r3, [r3, #12]
8010255c:	0a1b      	lsrs	r3, r3, #8
8010255e:	f403 437f 	and.w	r3, r3, #65280	; 0xff00
80102562:	431a      	orrs	r2, r3
80102564:	f107 0308 	add.w	r3, r7, #8
80102568:	68db      	ldr	r3, [r3, #12]
8010256a:	0e1b      	lsrs	r3, r3, #24
8010256c:	431a      	orrs	r2, r3
8010256e:	f107 0308 	add.w	r3, r7, #8
80102572:	60da      	str	r2, [r3, #12]
80102574:	f107 0308 	add.w	r3, r7, #8
80102578:	68db      	ldr	r3, [r3, #12]
8010257a:	0c1b      	lsrs	r3, r3, #16
8010257c:	4619      	mov	r1, r3
8010257e:	f244 404c 	movw	r0, #17484	; 0x444c
80102582:	f2c8 0010 	movt	r0, #32784	; 0x8010
80102586:	f7fe ffbe 	bl	80101506 <printf>
8010258a:	f107 0208 	add.w	r2, r7, #8
8010258e:	1d38      	adds	r0, r7, #4
80102590:	2340      	movs	r3, #64	; 0x40
80102592:	9300      	str	r3, [sp, #0]
80102594:	4613      	mov	r3, r2
80102596:	f8d7 210c 	ldr.w	r2, [r7, #268]	; 0x10c
8010259a:	f240 613a 	movw	r1, #1594	; 0x63a
8010259e:	6800      	ldr	r0, [r0, #0]
801025a0:	f7ff fb18 	bl	80101bd4 <USDHC_SendCommand_with_data>
801025a4:	f8c7 0108 	str.w	r0, [r7, #264]	; 0x108
801025a8:	f8d7 3108 	ldr.w	r3, [r7, #264]	; 0x108
801025ac:	2b00      	cmp	r3, #0
801025ae:	da02      	bge.n	801025b6 <SD_SelectBusTiming+0xb6>
801025b0:	f04f 33ff 	mov.w	r3, #4294967295	; 0xffffffff
801025b4:	e02b      	b.n	8010260e <SD_SelectBusTiming+0x10e>
801025b6:	f107 0308 	add.w	r3, r7, #8
801025ba:	691b      	ldr	r3, [r3, #16]
801025bc:	061a      	lsls	r2, r3, #24
801025be:	f107 0308 	add.w	r3, r7, #8
801025c2:	691b      	ldr	r3, [r3, #16]
801025c4:	021b      	lsls	r3, r3, #8
801025c6:	f403 037f 	and.w	r3, r3, #16711680	; 0xff0000
801025ca:	431a      	orrs	r2, r3
801025cc:	f107 0308 	add.w	r3, r7, #8
801025d0:	691b      	ldr	r3, [r3, #16]
801025d2:	0a1b      	lsrs	r3, r3, #8
801025d4:	f403 437f 	and.w	r3, r3, #65280	; 0xff00
801025d8:	431a      	orrs	r2, r3
801025da:	f107 0308 	add.w	r3, r7, #8
801025de:	691b      	ldr	r3, [r3, #16]
801025e0:	0e1b      	lsrs	r3, r3, #24
801025e2:	431a      	orrs	r2, r3
801025e4:	f107 0308 	add.w	r3, r7, #8
801025e8:	611a      	str	r2, [r3, #16]
801025ea:	f107 0308 	add.w	r3, r7, #8
801025ee:	691b      	ldr	r3, [r3, #16]
801025f0:	0e1b      	lsrs	r3, r3, #24
801025f2:	2b01      	cmp	r3, #1
801025f4:	d10a      	bne.n	8010260c <SD_SelectBusTiming+0x10c>
801025f6:	f107 0308 	add.w	r3, r7, #8
801025fa:	68db      	ldr	r3, [r3, #12]
801025fc:	0c1b      	lsrs	r3, r3, #16
801025fe:	4619      	mov	r1, r3
80102600:	f244 4070 	movw	r0, #17520	; 0x4470
80102604:	f2c8 0010 	movt	r0, #32784	; 0x8010
80102608:	f7fe ff7d 	bl	80101506 <printf>
8010260c:	2300      	movs	r3, #0
8010260e:	4618      	mov	r0, r3
80102610:	f507 7788 	add.w	r7, r7, #272	; 0x110
80102614:	46bd      	mov	sp, r7
80102616:	bd80      	pop	{r7, pc}

80102618 <sd_init>:
80102618:	b580      	push	{r7, lr}
8010261a:	b08e      	sub	sp, #56	; 0x38
8010261c:	af02      	add	r7, sp, #8
8010261e:	6078      	str	r0, [r7, #4]
80102620:	2300      	movs	r3, #0
80102622:	627b      	str	r3, [r7, #36]	; 0x24
80102624:	6878      	ldr	r0, [r7, #4]
80102626:	f7ff fb48 	bl	80101cba <USDHC_Init>
8010262a:	6878      	ldr	r0, [r7, #4]
8010262c:	f7ff fb8f 	bl	80101d4e <CardInsertDetect>
80102630:	2100      	movs	r1, #0
80102632:	6878      	ldr	r0, [r7, #4]
80102634:	f7ff fbad 	bl	80101d92 <USDHC_SetDataBusWidth>
80102638:	f44f 52d4 	mov.w	r2, #6784	; 0x1a80
8010263c:	f2c0 0206 	movt	r2, #6
80102640:	f44f 5176 	mov.w	r1, #15744	; 0x3d80
80102644:	f6c0 31cd 	movt	r1, #3021	; 0xbcd
80102648:	6878      	ldr	r0, [r7, #4]
8010264a:	f7ff fbb8 	bl	80101dbe <USDHC_SetSdClock>
8010264e:	4602      	mov	r2, r0
80102650:	f647 7358 	movw	r3, #32600	; 0x7f58
80102654:	f2c8 0310 	movt	r3, #32784	; 0x8010
80102658:	605a      	str	r2, [r3, #4]
8010265a:	2164      	movs	r1, #100	; 0x64
8010265c:	6878      	ldr	r0, [r7, #4]
8010265e:	f7ff fc68 	bl	80101f32 <USDHC_SetCardActive>
80102662:	2200      	movs	r2, #0
80102664:	2100      	movs	r1, #0
80102666:	6878      	ldr	r0, [r7, #4]
80102668:	f7ff fa98 	bl	80101b9c <USDHC_SendCommand>
8010266c:	62f8      	str	r0, [r7, #44]	; 0x2c
8010266e:	6afb      	ldr	r3, [r7, #44]	; 0x2c
80102670:	2b00      	cmp	r3, #0
80102672:	da02      	bge.n	8010267a <sd_init+0x62>
80102674:	f04f 33ff 	mov.w	r3, #4294967295	; 0xffffffff
80102678:	e242      	b.n	80102b00 <sd_init+0x4e8>
8010267a:	2300      	movs	r3, #0
8010267c:	62bb      	str	r3, [r7, #40]	; 0x28
8010267e:	e00d      	b.n	8010269c <sd_init+0x84>
80102680:	f44f 72d5 	mov.w	r2, #426	; 0x1aa
80102684:	f640 011a 	movw	r1, #2074	; 0x81a
80102688:	6878      	ldr	r0, [r7, #4]
8010268a:	f7ff fa87 	bl	80101b9c <USDHC_SendCommand>
8010268e:	62f8      	str	r0, [r7, #44]	; 0x2c
80102690:	6afb      	ldr	r3, [r7, #44]	; 0x2c
80102692:	2b00      	cmp	r3, #0
80102694:	d006      	beq.n	801026a4 <sd_init+0x8c>
80102696:	6abb      	ldr	r3, [r7, #40]	; 0x28
80102698:	3301      	adds	r3, #1
8010269a:	62bb      	str	r3, [r7, #40]	; 0x28
8010269c:	6abb      	ldr	r3, [r7, #40]	; 0x28
8010269e:	2b09      	cmp	r3, #9
801026a0:	d9ee      	bls.n	80102680 <sd_init+0x68>
801026a2:	e000      	b.n	801026a6 <sd_init+0x8e>
801026a4:	bf00      	nop
801026a6:	6afb      	ldr	r3, [r7, #44]	; 0x2c
801026a8:	2b00      	cmp	r3, #0
801026aa:	d104      	bne.n	801026b6 <sd_init+0x9e>
801026ac:	6a7b      	ldr	r3, [r7, #36]	; 0x24
801026ae:	f043 4380 	orr.w	r3, r3, #1073741824	; 0x40000000
801026b2:	627b      	str	r3, [r7, #36]	; 0x24
801026b4:	e00b      	b.n	801026ce <sd_init+0xb6>
801026b6:	2200      	movs	r2, #0
801026b8:	2100      	movs	r1, #0
801026ba:	6878      	ldr	r0, [r7, #4]
801026bc:	f7ff fa6e 	bl	80101b9c <USDHC_SendCommand>
801026c0:	62f8      	str	r0, [r7, #44]	; 0x2c
801026c2:	6afb      	ldr	r3, [r7, #44]	; 0x2c
801026c4:	2b00      	cmp	r3, #0
801026c6:	d002      	beq.n	801026ce <sd_init+0xb6>
801026c8:	f04f 33ff 	mov.w	r3, #4294967295	; 0xffffffff
801026cc:	e218      	b.n	80102b00 <sd_init+0x4e8>
801026ce:	6a7b      	ldr	r3, [r7, #36]	; 0x24
801026d0:	f443 1340 	orr.w	r3, r3, #3145728	; 0x300000
801026d4:	627b      	str	r3, [r7, #36]	; 0x24
801026d6:	2300      	movs	r3, #0
801026d8:	62bb      	str	r3, [r7, #40]	; 0x28
801026da:	e034      	b.n	80102746 <sd_init+0x12e>
801026dc:	2200      	movs	r2, #0
801026de:	f243 711a 	movw	r1, #14106	; 0x371a
801026e2:	6878      	ldr	r0, [r7, #4]
801026e4:	f7ff fa5a 	bl	80101b9c <USDHC_SendCommand>
801026e8:	62f8      	str	r0, [r7, #44]	; 0x2c
801026ea:	6afb      	ldr	r3, [r7, #44]	; 0x2c
801026ec:	2b00      	cmp	r3, #0
801026ee:	da02      	bge.n	801026f6 <sd_init+0xde>
801026f0:	f04f 33ff 	mov.w	r3, #4294967295	; 0xffffffff
801026f4:	e204      	b.n	80102b00 <sd_init+0x4e8>
801026f6:	6a7a      	ldr	r2, [r7, #36]	; 0x24
801026f8:	f642 1102 	movw	r1, #10498	; 0x2902
801026fc:	6878      	ldr	r0, [r7, #4]
801026fe:	f7ff fa4d 	bl	80101b9c <USDHC_SendCommand>
80102702:	62f8      	str	r0, [r7, #44]	; 0x2c
80102704:	6afb      	ldr	r3, [r7, #44]	; 0x2c
80102706:	2b00      	cmp	r3, #0
80102708:	da02      	bge.n	80102710 <sd_init+0xf8>
8010270a:	f04f 33ff 	mov.w	r3, #4294967295	; 0xffffffff
8010270e:	e1f7      	b.n	80102b00 <sd_init+0x4e8>
80102710:	687b      	ldr	r3, [r7, #4]
80102712:	691b      	ldr	r3, [r3, #16]
80102714:	2b00      	cmp	r3, #0
80102716:	da13      	bge.n	80102740 <sd_init+0x128>
80102718:	687b      	ldr	r3, [r7, #4]
8010271a:	691a      	ldr	r2, [r3, #16]
8010271c:	f647 7358 	movw	r3, #32600	; 0x7f58
80102720:	f2c8 0310 	movt	r3, #32784	; 0x8010
80102724:	63da      	str	r2, [r3, #60]	; 0x3c
80102726:	f647 7358 	movw	r3, #32600	; 0x7f58
8010272a:	f2c8 0310 	movt	r3, #32784	; 0x8010
8010272e:	6bdb      	ldr	r3, [r3, #60]	; 0x3c
80102730:	4619      	mov	r1, r3
80102732:	f244 4090 	movw	r0, #17552	; 0x4490
80102736:	f2c8 0010 	movt	r0, #32784	; 0x8010
8010273a:	f7fe fee4 	bl	80101506 <printf>
8010273e:	e007      	b.n	80102750 <sd_init+0x138>
80102740:	6abb      	ldr	r3, [r7, #40]	; 0x28
80102742:	3301      	adds	r3, #1
80102744:	62bb      	str	r3, [r7, #40]	; 0x28
80102746:	6abb      	ldr	r3, [r7, #40]	; 0x28
80102748:	f241 3287 	movw	r2, #4999	; 0x1387
8010274c:	4293      	cmp	r3, r2
8010274e:	d9c5      	bls.n	801026dc <sd_init+0xc4>
80102750:	6abb      	ldr	r3, [r7, #40]	; 0x28
80102752:	f5b3 7f7a 	cmp.w	r3, #1000	; 0x3e8
80102756:	d308      	bcc.n	8010276a <sd_init+0x152>
80102758:	f244 40a0 	movw	r0, #17568	; 0x44a0
8010275c:	f2c8 0010 	movt	r0, #32784	; 0x8010
80102760:	f7fe fed1 	bl	80101506 <printf>
80102764:	f04f 33ff 	mov.w	r3, #4294967295	; 0xffffffff
80102768:	e1ca      	b.n	80102b00 <sd_init+0x4e8>
8010276a:	f647 7358 	movw	r3, #32600	; 0x7f58
8010276e:	f2c8 0310 	movt	r3, #32784	; 0x8010
80102772:	6bdb      	ldr	r3, [r3, #60]	; 0x3c
80102774:	f003 7380 	and.w	r3, r3, #16777216	; 0x1000000
80102778:	2b00      	cmp	r3, #0
8010277a:	d005      	beq.n	80102788 <sd_init+0x170>
8010277c:	f244 40c4 	movw	r0, #17604	; 0x44c4
80102780:	f2c8 0010 	movt	r0, #32784	; 0x8010
80102784:	f7fe febf 	bl	80101506 <printf>
80102788:	2200      	movs	r2, #0
8010278a:	f240 2109 	movw	r1, #521	; 0x209
8010278e:	6878      	ldr	r0, [r7, #4]
80102790:	f7ff fa04 	bl	80101b9c <USDHC_SendCommand>
80102794:	62f8      	str	r0, [r7, #44]	; 0x2c
80102796:	6afb      	ldr	r3, [r7, #44]	; 0x2c
80102798:	2b00      	cmp	r3, #0
8010279a:	da02      	bge.n	801027a2 <sd_init+0x18a>
8010279c:	f04f 33ff 	mov.w	r3, #4294967295	; 0xffffffff
801027a0:	e1ae      	b.n	80102b00 <sd_init+0x4e8>
801027a2:	f107 0314 	add.w	r3, r7, #20
801027a6:	4619      	mov	r1, r3
801027a8:	6878      	ldr	r0, [r7, #4]
801027aa:	f7ff fbe9 	bl	80101f80 <USDHC_GetResponse>
801027ae:	f107 0314 	add.w	r3, r7, #20
801027b2:	2210      	movs	r2, #16
801027b4:	4619      	mov	r1, r3
801027b6:	48c0      	ldr	r0, [pc, #768]	; (80102ab8 <sd_init+0x4a0>)
801027b8:	f7fe ff36 	bl	80101628 <memcpy>
801027bc:	49be      	ldr	r1, [pc, #760]	; (80102ab8 <sd_init+0x4a0>)
801027be:	f647 7058 	movw	r0, #32600	; 0x7f58
801027c2:	f2c8 0010 	movt	r0, #32784	; 0x8010
801027c6:	f7ff fc09 	bl	80101fdc <SD_DecodeCid>
801027ca:	2200      	movs	r2, #0
801027cc:	f240 311a 	movw	r1, #794	; 0x31a
801027d0:	6878      	ldr	r0, [r7, #4]
801027d2:	f7ff f9e3 	bl	80101b9c <USDHC_SendCommand>
801027d6:	62f8      	str	r0, [r7, #44]	; 0x2c
801027d8:	6afb      	ldr	r3, [r7, #44]	; 0x2c
801027da:	2b00      	cmp	r3, #0
801027dc:	da02      	bge.n	801027e4 <sd_init+0x1cc>
801027de:	f04f 33ff 	mov.w	r3, #4294967295	; 0xffffffff
801027e2:	e18d      	b.n	80102b00 <sd_init+0x4e8>
801027e4:	687b      	ldr	r3, [r7, #4]
801027e6:	691b      	ldr	r3, [r3, #16]
801027e8:	0c1a      	lsrs	r2, r3, #16
801027ea:	f647 7358 	movw	r3, #32600	; 0x7f58
801027ee:	f2c8 0310 	movt	r3, #32784	; 0x8010
801027f2:	609a      	str	r2, [r3, #8]
801027f4:	f647 7358 	movw	r3, #32600	; 0x7f58
801027f8:	f2c8 0310 	movt	r3, #32784	; 0x8010
801027fc:	689b      	ldr	r3, [r3, #8]
801027fe:	4619      	mov	r1, r3
80102800:	f244 40d4 	movw	r0, #17620	; 0x44d4
80102804:	f2c8 0010 	movt	r0, #32784	; 0x8010
80102808:	f7fe fe7d 	bl	80101506 <printf>
8010280c:	f647 7358 	movw	r3, #32600	; 0x7f58
80102810:	f2c8 0310 	movt	r3, #32784	; 0x8010
80102814:	689b      	ldr	r3, [r3, #8]
80102816:	041b      	lsls	r3, r3, #16
80102818:	461a      	mov	r2, r3
8010281a:	f640 1109 	movw	r1, #2313	; 0x909
8010281e:	6878      	ldr	r0, [r7, #4]
80102820:	f7ff f9bc 	bl	80101b9c <USDHC_SendCommand>
80102824:	62f8      	str	r0, [r7, #44]	; 0x2c
80102826:	6afb      	ldr	r3, [r7, #44]	; 0x2c
80102828:	2b00      	cmp	r3, #0
8010282a:	da02      	bge.n	80102832 <sd_init+0x21a>
8010282c:	f04f 33ff 	mov.w	r3, #4294967295	; 0xffffffff
80102830:	e166      	b.n	80102b00 <sd_init+0x4e8>
80102832:	f107 0314 	add.w	r3, r7, #20
80102836:	4619      	mov	r1, r3
80102838:	6878      	ldr	r0, [r7, #4]
8010283a:	f7ff fba1 	bl	80101f80 <USDHC_GetResponse>
8010283e:	f107 0314 	add.w	r3, r7, #20
80102842:	2210      	movs	r2, #16
80102844:	4619      	mov	r1, r3
80102846:	489d      	ldr	r0, [pc, #628]	; (80102abc <sd_init+0x4a4>)
80102848:	f7fe feee 	bl	80101628 <memcpy>
8010284c:	499b      	ldr	r1, [pc, #620]	; (80102abc <sd_init+0x4a4>)
8010284e:	f647 7058 	movw	r0, #32600	; 0x7f58
80102852:	f2c8 0010 	movt	r0, #32784	; 0x8010
80102856:	f7ff fc1c 	bl	80102092 <SD_DecodeCsd>
8010285a:	f647 7358 	movw	r3, #32600	; 0x7f58
8010285e:	f2c8 0310 	movt	r3, #32784	; 0x8010
80102862:	f893 3054 	ldrb.w	r3, [r3, #84]	; 0x54
80102866:	2b00      	cmp	r3, #0
80102868:	d004      	beq.n	80102874 <sd_init+0x25c>
8010286a:	f244 43f0 	movw	r3, #17648	; 0x44f0
8010286e:	f2c8 0310 	movt	r3, #32784	; 0x8010
80102872:	e003      	b.n	8010287c <sd_init+0x264>
80102874:	f244 43fc 	movw	r3, #17660	; 0x44fc
80102878:	f2c8 0310 	movt	r3, #32784	; 0x8010
8010287c:	4619      	mov	r1, r3
8010287e:	f244 5004 	movw	r0, #17668	; 0x4504
80102882:	f2c8 0010 	movt	r0, #32784	; 0x8010
80102886:	f7fe fe3e 	bl	80101506 <printf>
8010288a:	f647 7358 	movw	r3, #32600	; 0x7f58
8010288e:	f2c8 0310 	movt	r3, #32784	; 0x8010
80102892:	6fdb      	ldr	r3, [r3, #124]	; 0x7c
80102894:	4619      	mov	r1, r3
80102896:	f244 5010 	movw	r0, #17680	; 0x4510
8010289a:	f2c8 0010 	movt	r0, #32784	; 0x8010
8010289e:	f7fe fe32 	bl	80101506 <printf>
801028a2:	f647 7358 	movw	r3, #32600	; 0x7f58
801028a6:	f2c8 0310 	movt	r3, #32784	; 0x8010
801028aa:	f8d3 3080 	ldr.w	r3, [r3, #128]	; 0x80
801028ae:	4619      	mov	r1, r3
801028b0:	f244 502c 	movw	r0, #17708	; 0x452c
801028b4:	f2c8 0010 	movt	r0, #32784	; 0x8010
801028b8:	f7fe fe25 	bl	80101506 <printf>
801028bc:	f647 7358 	movw	r3, #32600	; 0x7f58
801028c0:	f2c8 0310 	movt	r3, #32784	; 0x8010
801028c4:	f8b3 3058 	ldrh.w	r3, [r3, #88]	; 0x58
801028c8:	4619      	mov	r1, r3
801028ca:	f244 5048 	movw	r0, #17736	; 0x4548
801028ce:	f2c8 0010 	movt	r0, #32784	; 0x8010
801028d2:	f7fe fe18 	bl	80101506 <printf>
801028d6:	f647 7358 	movw	r3, #32600	; 0x7f58
801028da:	f2c8 0310 	movt	r3, #32784	; 0x8010
801028de:	689b      	ldr	r3, [r3, #8]
801028e0:	041b      	lsls	r3, r3, #16
801028e2:	461a      	mov	r2, r3
801028e4:	f240 711b 	movw	r1, #1819	; 0x71b
801028e8:	6878      	ldr	r0, [r7, #4]
801028ea:	f7ff f957 	bl	80101b9c <USDHC_SendCommand>
801028ee:	62f8      	str	r0, [r7, #44]	; 0x2c
801028f0:	6afb      	ldr	r3, [r7, #44]	; 0x2c
801028f2:	2b00      	cmp	r3, #0
801028f4:	da01      	bge.n	801028fa <sd_init+0x2e2>
801028f6:	6afb      	ldr	r3, [r7, #44]	; 0x2c
801028f8:	e102      	b.n	80102b00 <sd_init+0x4e8>
801028fa:	f647 7358 	movw	r3, #32600	; 0x7f58
801028fe:	f2c8 0310 	movt	r3, #32784	; 0x8010
80102902:	689b      	ldr	r3, [r3, #8]
80102904:	041b      	lsls	r3, r3, #16
80102906:	461a      	mov	r2, r3
80102908:	f243 711a 	movw	r1, #14106	; 0x371a
8010290c:	6878      	ldr	r0, [r7, #4]
8010290e:	f7ff f945 	bl	80101b9c <USDHC_SendCommand>
80102912:	62f8      	str	r0, [r7, #44]	; 0x2c
80102914:	6afb      	ldr	r3, [r7, #44]	; 0x2c
80102916:	2b00      	cmp	r3, #0
80102918:	da01      	bge.n	8010291e <sd_init+0x306>
8010291a:	6afb      	ldr	r3, [r7, #44]	; 0x2c
8010291c:	e0f0      	b.n	80102b00 <sd_init+0x4e8>
8010291e:	f107 020c 	add.w	r2, r7, #12
80102922:	2308      	movs	r3, #8
80102924:	9300      	str	r3, [sp, #0]
80102926:	4613      	mov	r3, r2
80102928:	2200      	movs	r2, #0
8010292a:	f243 313a 	movw	r1, #13114	; 0x333a
8010292e:	6878      	ldr	r0, [r7, #4]
80102930:	f7ff f950 	bl	80101bd4 <USDHC_SendCommand_with_data>
80102934:	62f8      	str	r0, [r7, #44]	; 0x2c
80102936:	6afb      	ldr	r3, [r7, #44]	; 0x2c
80102938:	2b00      	cmp	r3, #0
8010293a:	da01      	bge.n	80102940 <sd_init+0x328>
8010293c:	6afb      	ldr	r3, [r7, #44]	; 0x2c
8010293e:	e0df      	b.n	80102b00 <sd_init+0x4e8>
80102940:	68fb      	ldr	r3, [r7, #12]
80102942:	061a      	lsls	r2, r3, #24
80102944:	68fb      	ldr	r3, [r7, #12]
80102946:	021b      	lsls	r3, r3, #8
80102948:	f403 037f 	and.w	r3, r3, #16711680	; 0xff0000
8010294c:	431a      	orrs	r2, r3
8010294e:	68fb      	ldr	r3, [r7, #12]
80102950:	0a1b      	lsrs	r3, r3, #8
80102952:	f403 437f 	and.w	r3, r3, #65280	; 0xff00
80102956:	431a      	orrs	r2, r3
80102958:	68fb      	ldr	r3, [r7, #12]
8010295a:	0e1b      	lsrs	r3, r3, #24
8010295c:	4313      	orrs	r3, r2
8010295e:	60fb      	str	r3, [r7, #12]
80102960:	693b      	ldr	r3, [r7, #16]
80102962:	061a      	lsls	r2, r3, #24
80102964:	693b      	ldr	r3, [r7, #16]
80102966:	021b      	lsls	r3, r3, #8
80102968:	f403 037f 	and.w	r3, r3, #16711680	; 0xff0000
8010296c:	431a      	orrs	r2, r3
8010296e:	693b      	ldr	r3, [r7, #16]
80102970:	0a1b      	lsrs	r3, r3, #8
80102972:	f403 437f 	and.w	r3, r3, #65280	; 0xff00
80102976:	431a      	orrs	r2, r3
80102978:	693b      	ldr	r3, [r7, #16]
8010297a:	0e1b      	lsrs	r3, r3, #24
8010297c:	4313      	orrs	r3, r2
8010297e:	613b      	str	r3, [r7, #16]
80102980:	f107 030c 	add.w	r3, r7, #12
80102984:	2208      	movs	r2, #8
80102986:	4619      	mov	r1, r3
80102988:	484d      	ldr	r0, [pc, #308]	; (80102ac0 <sd_init+0x4a8>)
8010298a:	f7fe fe4d 	bl	80101628 <memcpy>
8010298e:	494c      	ldr	r1, [pc, #304]	; (80102ac0 <sd_init+0x4a8>)
80102990:	f647 7058 	movw	r0, #32600	; 0x7f58
80102994:	f2c8 0010 	movt	r0, #32784	; 0x8010
80102998:	f7ff fd2f 	bl	801023fa <SD_DecodeScr>
8010299c:	68fb      	ldr	r3, [r7, #12]
8010299e:	693a      	ldr	r2, [r7, #16]
801029a0:	4619      	mov	r1, r3
801029a2:	f244 5068 	movw	r0, #17768	; 0x4568
801029a6:	f2c8 0010 	movt	r0, #32784	; 0x8010
801029aa:	f7fe fdac 	bl	80101506 <printf>
801029ae:	f647 7358 	movw	r3, #32600	; 0x7f58
801029b2:	f2c8 0310 	movt	r3, #32784	; 0x8010
801029b6:	f893 3071 	ldrb.w	r3, [r3, #113]	; 0x71
801029ba:	4619      	mov	r1, r3
801029bc:	f244 508c 	movw	r0, #17804	; 0x458c
801029c0:	f2c8 0010 	movt	r0, #32784	; 0x8010
801029c4:	f7fe fd9f 	bl	80101506 <printf>
801029c8:	f647 7358 	movw	r3, #32600	; 0x7f58
801029cc:	f2c8 0310 	movt	r3, #32784	; 0x8010
801029d0:	f893 3075 	ldrb.w	r3, [r3, #117]	; 0x75
801029d4:	f003 0304 	and.w	r3, r3, #4
801029d8:	2b00      	cmp	r3, #0
801029da:	d108      	bne.n	801029ee <sd_init+0x3d6>
801029dc:	f244 50a8 	movw	r0, #17832	; 0x45a8
801029e0:	f2c8 0010 	movt	r0, #32784	; 0x8010
801029e4:	f7fe fd8f 	bl	80101506 <printf>
801029e8:	f04f 33ff 	mov.w	r3, #4294967295	; 0xffffffff
801029ec:	e088      	b.n	80102b00 <sd_init+0x4e8>
801029ee:	f647 7358 	movw	r3, #32600	; 0x7f58
801029f2:	f2c8 0310 	movt	r3, #32784	; 0x8010
801029f6:	f893 3077 	ldrb.w	r3, [r3, #119]	; 0x77
801029fa:	f003 0301 	and.w	r3, r3, #1
801029fe:	2b00      	cmp	r3, #0
80102a00:	d105      	bne.n	80102a0e <sd_init+0x3f6>
80102a02:	f244 50cc 	movw	r0, #17868	; 0x45cc
80102a06:	f2c8 0010 	movt	r0, #32784	; 0x8010
80102a0a:	f7fe fd7c 	bl	80101506 <printf>
80102a0e:	f647 7358 	movw	r3, #32600	; 0x7f58
80102a12:	f2c8 0310 	movt	r3, #32784	; 0x8010
80102a16:	f893 3077 	ldrb.w	r3, [r3, #119]	; 0x77
80102a1a:	f003 0302 	and.w	r3, r3, #2
80102a1e:	2b00      	cmp	r3, #0
80102a20:	d105      	bne.n	80102a2e <sd_init+0x416>
80102a22:	f244 6004 	movw	r0, #17924	; 0x4604
80102a26:	f2c8 0010 	movt	r0, #32784	; 0x8010
80102a2a:	f7fe fd6c 	bl	80101506 <printf>
80102a2e:	f647 0240 	movw	r2, #30784	; 0x7840
80102a32:	f2c0 127d 	movt	r2, #381	; 0x17d
80102a36:	f44f 5176 	mov.w	r1, #15744	; 0x3d80
80102a3a:	f6c0 31cd 	movt	r1, #3021	; 0xbcd
80102a3e:	6878      	ldr	r0, [r7, #4]
80102a40:	f7ff f9bd 	bl	80101dbe <USDHC_SetSdClock>
80102a44:	4602      	mov	r2, r0
80102a46:	f647 7358 	movw	r3, #32600	; 0x7f58
80102a4a:	f2c8 0310 	movt	r3, #32784	; 0x8010
80102a4e:	605a      	str	r2, [r3, #4]
80102a50:	f647 7358 	movw	r3, #32600	; 0x7f58
80102a54:	f2c8 0310 	movt	r3, #32784	; 0x8010
80102a58:	689b      	ldr	r3, [r3, #8]
80102a5a:	041b      	lsls	r3, r3, #16
80102a5c:	461a      	mov	r2, r3
80102a5e:	f243 711a 	movw	r1, #14106	; 0x371a
80102a62:	6878      	ldr	r0, [r7, #4]
80102a64:	f7ff f89a 	bl	80101b9c <USDHC_SendCommand>
80102a68:	62f8      	str	r0, [r7, #44]	; 0x2c
80102a6a:	6afb      	ldr	r3, [r7, #44]	; 0x2c
80102a6c:	2b00      	cmp	r3, #0
80102a6e:	da01      	bge.n	80102a74 <sd_init+0x45c>
80102a70:	6afb      	ldr	r3, [r7, #44]	; 0x2c
80102a72:	e045      	b.n	80102b00 <sd_init+0x4e8>
80102a74:	2202      	movs	r2, #2
80102a76:	f240 611a 	movw	r1, #1562	; 0x61a
80102a7a:	6878      	ldr	r0, [r7, #4]
80102a7c:	f7ff f88e 	bl	80101b9c <USDHC_SendCommand>
80102a80:	62f8      	str	r0, [r7, #44]	; 0x2c
80102a82:	6afb      	ldr	r3, [r7, #44]	; 0x2c
80102a84:	2b00      	cmp	r3, #0
80102a86:	da01      	bge.n	80102a8c <sd_init+0x474>
80102a88:	6afb      	ldr	r3, [r7, #44]	; 0x2c
80102a8a:	e039      	b.n	80102b00 <sd_init+0x4e8>
80102a8c:	687b      	ldr	r3, [r7, #4]
80102a8e:	6a9b      	ldr	r3, [r3, #40]	; 0x28
80102a90:	f023 0306 	bic.w	r3, r3, #6
80102a94:	f043 0202 	orr.w	r2, r3, #2
80102a98:	687b      	ldr	r3, [r7, #4]
80102a9a:	629a      	str	r2, [r3, #40]	; 0x28
80102a9c:	f44f 7200 	mov.w	r2, #512	; 0x200
80102aa0:	f241 011a 	movw	r1, #4122	; 0x101a
80102aa4:	6878      	ldr	r0, [r7, #4]
80102aa6:	f7ff f879 	bl	80101b9c <USDHC_SendCommand>
80102aaa:	62f8      	str	r0, [r7, #44]	; 0x2c
80102aac:	6afb      	ldr	r3, [r7, #44]	; 0x2c
80102aae:	2b00      	cmp	r3, #0
80102ab0:	da08      	bge.n	80102ac4 <sd_init+0x4ac>
80102ab2:	6afb      	ldr	r3, [r7, #44]	; 0x2c
80102ab4:	e024      	b.n	80102b00 <sd_init+0x4e8>
80102ab6:	bf00      	nop
80102ab8:	80107f6c 	andshi	r7, r0, ip, ror #30
80102abc:	80107f7c 	andshi	r7, r0, ip, ror pc
80102ac0:	80107f8c 	andshi	r7, r0, ip, lsl #31
80102ac4:	6878      	ldr	r0, [r7, #4]
80102ac6:	f7ff fd1b 	bl	80102500 <SD_SelectBusTiming>
80102aca:	4603      	mov	r3, r0
80102acc:	2b00      	cmp	r3, #0
80102ace:	d110      	bne.n	80102af2 <sd_init+0x4da>
80102ad0:	f24f 0280 	movw	r2, #61568	; 0xf080
80102ad4:	f2c0 22fa 	movt	r2, #762	; 0x2fa
80102ad8:	f44f 5176 	mov.w	r1, #15744	; 0x3d80
80102adc:	f6c0 31cd 	movt	r1, #3021	; 0xbcd
80102ae0:	6878      	ldr	r0, [r7, #4]
80102ae2:	f7ff f96c 	bl	80101dbe <USDHC_SetSdClock>
80102ae6:	4602      	mov	r2, r0
80102ae8:	f647 7358 	movw	r3, #32600	; 0x7f58
80102aec:	f2c8 0310 	movt	r3, #32784	; 0x8010
80102af0:	605a      	str	r2, [r3, #4]
80102af2:	f244 6040 	movw	r0, #17984	; 0x4640
80102af6:	f2c8 0010 	movt	r0, #32784	; 0x8010
80102afa:	f7fe fd04 	bl	80101506 <printf>
80102afe:	2300      	movs	r3, #0
80102b00:	4618      	mov	r0, r3
80102b02:	3730      	adds	r7, #48	; 0x30
80102b04:	46bd      	mov	sp, r7
80102b06:	bd80      	pop	{r7, pc}

80102b08 <SD_WaitReadWriteComplete>:
80102b08:	b580      	push	{r7, lr}
80102b0a:	b084      	sub	sp, #16
80102b0c:	af00      	add	r7, sp, #0
80102b0e:	6078      	str	r0, [r7, #4]
80102b10:	687a      	ldr	r2, [r7, #4]
80102b12:	2300      	movs	r3, #0
80102b14:	f2c0 2319 	movt	r3, #537	; 0x219
80102b18:	429a      	cmp	r2, r3
80102b1a:	d10d      	bne.n	80102b38 <SD_WaitReadWriteComplete+0x30>
80102b1c:	f647 7358 	movw	r3, #32600	; 0x7f58
80102b20:	f2c8 0310 	movt	r3, #32784	; 0x8010
80102b24:	689b      	ldr	r3, [r3, #8]
80102b26:	041b      	lsls	r3, r3, #16
80102b28:	461a      	mov	r2, r3
80102b2a:	f640 511a 	movw	r1, #3354	; 0xd1a
80102b2e:	6878      	ldr	r0, [r7, #4]
80102b30:	f7ff f834 	bl	80101b9c <USDHC_SendCommand>
80102b34:	60f8      	str	r0, [r7, #12]
80102b36:	e013      	b.n	80102b60 <SD_WaitReadWriteComplete+0x58>
80102b38:	687a      	ldr	r2, [r7, #4]
80102b3a:	f44f 4380 	mov.w	r3, #16384	; 0x4000
80102b3e:	f2c0 2319 	movt	r3, #537	; 0x219
80102b42:	429a      	cmp	r2, r3
80102b44:	d10c      	bne.n	80102b60 <SD_WaitReadWriteComplete+0x58>
80102b46:	f647 4300 	movw	r3, #31744	; 0x7c00
80102b4a:	f2c8 0310 	movt	r3, #32784	; 0x8010
80102b4e:	689b      	ldr	r3, [r3, #8]
80102b50:	041b      	lsls	r3, r3, #16
80102b52:	461a      	mov	r2, r3
80102b54:	f640 511a 	movw	r1, #3354	; 0xd1a
80102b58:	6878      	ldr	r0, [r7, #4]
80102b5a:	f7ff f81f 	bl	80101b9c <USDHC_SendCommand>
80102b5e:	60f8      	str	r0, [r7, #12]
80102b60:	68fb      	ldr	r3, [r7, #12]
80102b62:	2b00      	cmp	r3, #0
80102b64:	db18      	blt.n	80102b98 <SD_WaitReadWriteComplete+0x90>
80102b66:	687b      	ldr	r3, [r7, #4]
80102b68:	691a      	ldr	r2, [r3, #16]
80102b6a:	2388      	movs	r3, #136	; 0x88
80102b6c:	f6cf 73f9 	movt	r3, #65529	; 0xfff9
80102b70:	4013      	ands	r3, r2
80102b72:	2b00      	cmp	r3, #0
80102b74:	d002      	beq.n	80102b7c <SD_WaitReadWriteComplete+0x74>
80102b76:	f04f 33ff 	mov.w	r3, #4294967295	; 0xffffffff
80102b7a:	e012      	b.n	80102ba2 <SD_WaitReadWriteComplete+0x9a>
80102b7c:	687b      	ldr	r3, [r7, #4]
80102b7e:	691b      	ldr	r3, [r3, #16]
80102b80:	f403 7380 	and.w	r3, r3, #256	; 0x100
80102b84:	2b00      	cmp	r3, #0
80102b86:	d0c3      	beq.n	80102b10 <SD_WaitReadWriteComplete+0x8>
80102b88:	687b      	ldr	r3, [r7, #4]
80102b8a:	691b      	ldr	r3, [r3, #16]
80102b8c:	0a5b      	lsrs	r3, r3, #9
80102b8e:	f003 030f 	and.w	r3, r3, #15
80102b92:	2b07      	cmp	r3, #7
80102b94:	d102      	bne.n	80102b9c <SD_WaitReadWriteComplete+0x94>
80102b96:	e7bb      	b.n	80102b10 <SD_WaitReadWriteComplete+0x8>
80102b98:	bf00      	nop
80102b9a:	e000      	b.n	80102b9e <SD_WaitReadWriteComplete+0x96>
80102b9c:	bf00      	nop
80102b9e:	687b      	ldr	r3, [r7, #4]
80102ba0:	691b      	ldr	r3, [r3, #16]
80102ba2:	4618      	mov	r0, r3
80102ba4:	3710      	adds	r7, #16
80102ba6:	46bd      	mov	sp, r7
80102ba8:	bd80      	pop	{r7, pc}

80102baa <sd_read_blocks>:
80102baa:	b580      	push	{r7, lr}
80102bac:	b086      	sub	sp, #24
80102bae:	af00      	add	r7, sp, #0
80102bb0:	60f8      	str	r0, [r7, #12]
80102bb2:	60b9      	str	r1, [r7, #8]
80102bb4:	607a      	str	r2, [r7, #4]
80102bb6:	603b      	str	r3, [r7, #0]
80102bb8:	2300      	movs	r3, #0
80102bba:	617b      	str	r3, [r7, #20]
80102bbc:	bf00      	nop
80102bbe:	68fb      	ldr	r3, [r7, #12]
80102bc0:	6a5b      	ldr	r3, [r3, #36]	; 0x24
80102bc2:	f003 0301 	and.w	r3, r3, #1
80102bc6:	2b00      	cmp	r3, #0
80102bc8:	d1f9      	bne.n	80102bbe <sd_read_blocks+0x14>
80102bca:	bf00      	nop
80102bcc:	68fb      	ldr	r3, [r7, #12]
80102bce:	6a5b      	ldr	r3, [r3, #36]	; 0x24
80102bd0:	f003 0302 	and.w	r3, r3, #2
80102bd4:	2b00      	cmp	r3, #0
80102bd6:	d1f9      	bne.n	80102bcc <sd_read_blocks+0x22>
80102bd8:	683b      	ldr	r3, [r7, #0]
80102bda:	025b      	lsls	r3, r3, #9
80102bdc:	4619      	mov	r1, r3
80102bde:	68b8      	ldr	r0, [r7, #8]
80102be0:	f7fe feec 	bl	801019bc <USDHC_CreateDescTable>
80102be4:	68fb      	ldr	r3, [r7, #12]
80102be6:	2200      	movs	r2, #0
80102be8:	601a      	str	r2, [r3, #0]
80102bea:	f647 73f8 	movw	r3, #32760	; 0x7ff8
80102bee:	f2c8 0310 	movt	r3, #32784	; 0x8010
80102bf2:	68fa      	ldr	r2, [r7, #12]
80102bf4:	6593      	str	r3, [r2, #88]	; 0x58
80102bf6:	683b      	ldr	r3, [r7, #0]
80102bf8:	041b      	lsls	r3, r3, #16
80102bfa:	f443 7200 	orr.w	r2, r3, #512	; 0x200
80102bfe:	68fb      	ldr	r3, [r7, #12]
80102c00:	605a      	str	r2, [r3, #4]
80102c02:	68fb      	ldr	r3, [r7, #12]
80102c04:	f8d3 30c0 	ldr.w	r3, [r3, #192]	; 0xc0
80102c08:	f023 0201 	bic.w	r2, r3, #1
80102c0c:	68fb      	ldr	r3, [r7, #12]
80102c0e:	f8c3 20c0 	str.w	r2, [r3, #192]	; 0xc0
80102c12:	68fb      	ldr	r3, [r7, #12]
80102c14:	6a9b      	ldr	r3, [r3, #40]	; 0x28
80102c16:	f023 5360 	bic.w	r3, r3, #939524096	; 0x38000000
80102c1a:	f423 7340 	bic.w	r3, r3, #768	; 0x300
80102c1e:	68fa      	ldr	r2, [r7, #12]
80102c20:	6293      	str	r3, [r2, #40]	; 0x28
80102c22:	68fb      	ldr	r3, [r7, #12]
80102c24:	6a9b      	ldr	r3, [r3, #40]	; 0x28
80102c26:	f043 6300 	orr.w	r3, r3, #134217728	; 0x8000000
80102c2a:	f443 7300 	orr.w	r3, r3, #512	; 0x200
80102c2e:	68fa      	ldr	r2, [r7, #12]
80102c30:	6293      	str	r3, [r2, #40]	; 0x28
80102c32:	683b      	ldr	r3, [r7, #0]
80102c34:	2b01      	cmp	r3, #1
80102c36:	d114      	bne.n	80102c62 <sd_read_blocks+0xb8>
80102c38:	68fb      	ldr	r3, [r7, #12]
80102c3a:	6c9b      	ldr	r3, [r3, #72]	; 0x48
80102c3c:	f023 0237 	bic.w	r2, r3, #55	; 0x37
80102c40:	68fb      	ldr	r3, [r7, #12]
80102c42:	649a      	str	r2, [r3, #72]	; 0x48
80102c44:	68fb      	ldr	r3, [r7, #12]
80102c46:	6c9b      	ldr	r3, [r3, #72]	; 0x48
80102c48:	f043 0211 	orr.w	r2, r3, #17
80102c4c:	68fb      	ldr	r3, [r7, #12]
80102c4e:	649a      	str	r2, [r3, #72]	; 0x48
80102c50:	68fb      	ldr	r3, [r7, #12]
80102c52:	687a      	ldr	r2, [r7, #4]
80102c54:	609a      	str	r2, [r3, #8]
80102c56:	68fa      	ldr	r2, [r7, #12]
80102c58:	2300      	movs	r3, #0
80102c5a:	f2c1 133a 	movt	r3, #4410	; 0x113a
80102c5e:	60d3      	str	r3, [r2, #12]
80102c60:	e013      	b.n	80102c8a <sd_read_blocks+0xe0>
80102c62:	68fb      	ldr	r3, [r7, #12]
80102c64:	6c9b      	ldr	r3, [r3, #72]	; 0x48
80102c66:	f023 0237 	bic.w	r2, r3, #55	; 0x37
80102c6a:	68fb      	ldr	r3, [r7, #12]
80102c6c:	649a      	str	r2, [r3, #72]	; 0x48
80102c6e:	68fb      	ldr	r3, [r7, #12]
80102c70:	6c9b      	ldr	r3, [r3, #72]	; 0x48
80102c72:	f043 0237 	orr.w	r2, r3, #55	; 0x37
80102c76:	68fb      	ldr	r3, [r7, #12]
80102c78:	649a      	str	r2, [r3, #72]	; 0x48
80102c7a:	68fb      	ldr	r3, [r7, #12]
80102c7c:	687a      	ldr	r2, [r7, #4]
80102c7e:	609a      	str	r2, [r3, #8]
80102c80:	68fa      	ldr	r2, [r7, #12]
80102c82:	2300      	movs	r3, #0
80102c84:	f2c1 233a 	movt	r3, #4666	; 0x123a
80102c88:	60d3      	str	r3, [r2, #12]
80102c8a:	68f8      	ldr	r0, [r7, #12]
80102c8c:	f7fe ff1c 	bl	80101ac8 <USDHC_WaitCommandDone>
80102c90:	6178      	str	r0, [r7, #20]
80102c92:	697b      	ldr	r3, [r7, #20]
80102c94:	2b00      	cmp	r3, #0
80102c96:	da01      	bge.n	80102c9c <sd_read_blocks+0xf2>
80102c98:	697b      	ldr	r3, [r7, #20]
80102c9a:	e021      	b.n	80102ce0 <sd_read_blocks+0x136>
80102c9c:	68f8      	ldr	r0, [r7, #12]
80102c9e:	f7fe ff47 	bl	80101b30 <USDHC_WaitDataDone>
80102ca2:	6178      	str	r0, [r7, #20]
80102ca4:	697b      	ldr	r3, [r7, #20]
80102ca6:	2b00      	cmp	r3, #0
80102ca8:	da01      	bge.n	80102cae <sd_read_blocks+0x104>
80102caa:	697b      	ldr	r3, [r7, #20]
80102cac:	e018      	b.n	80102ce0 <sd_read_blocks+0x136>
80102cae:	68f8      	ldr	r0, [r7, #12]
80102cb0:	f7ff ff2a 	bl	80102b08 <SD_WaitReadWriteComplete>
80102cb4:	6178      	str	r0, [r7, #20]
80102cb6:	697a      	ldr	r2, [r7, #20]
80102cb8:	2300      	movs	r3, #0
80102cba:	f2cc 0320 	movt	r3, #49184	; 0xc020
80102cbe:	4013      	ands	r3, r2
80102cc0:	2b00      	cmp	r3, #0
80102cc2:	d00c      	beq.n	80102cde <sd_read_blocks+0x134>
80102cc4:	f04f 33ff 	mov.w	r3, #4294967295	; 0xffffffff
80102cc8:	617b      	str	r3, [r7, #20]
80102cca:	f244 7144 	movw	r1, #18244	; 0x4744
80102cce:	f2c8 0110 	movt	r1, #32784	; 0x8010
80102cd2:	f244 6054 	movw	r0, #18004	; 0x4654
80102cd6:	f2c8 0010 	movt	r0, #32784	; 0x8010
80102cda:	f7fe fc14 	bl	80101506 <printf>
80102cde:	697b      	ldr	r3, [r7, #20]
80102ce0:	4618      	mov	r0, r3
80102ce2:	3718      	adds	r7, #24
80102ce4:	46bd      	mov	sp, r7
80102ce6:	bd80      	pop	{r7, pc}

80102ce8 <sd_write_blocks>:
80102ce8:	b580      	push	{r7, lr}
80102cea:	b086      	sub	sp, #24
80102cec:	af00      	add	r7, sp, #0
80102cee:	60f8      	str	r0, [r7, #12]
80102cf0:	60b9      	str	r1, [r7, #8]
80102cf2:	607a      	str	r2, [r7, #4]
80102cf4:	603b      	str	r3, [r7, #0]
80102cf6:	2300      	movs	r3, #0
80102cf8:	617b      	str	r3, [r7, #20]
80102cfa:	bf00      	nop
80102cfc:	68fb      	ldr	r3, [r7, #12]
80102cfe:	6a5b      	ldr	r3, [r3, #36]	; 0x24
80102d00:	f003 0301 	and.w	r3, r3, #1
80102d04:	2b00      	cmp	r3, #0
80102d06:	d1f9      	bne.n	80102cfc <sd_write_blocks+0x14>
80102d08:	bf00      	nop
80102d0a:	68fb      	ldr	r3, [r7, #12]
80102d0c:	6a5b      	ldr	r3, [r3, #36]	; 0x24
80102d0e:	f003 0302 	and.w	r3, r3, #2
80102d12:	2b00      	cmp	r3, #0
80102d14:	d1f9      	bne.n	80102d0a <sd_write_blocks+0x22>
80102d16:	683b      	ldr	r3, [r7, #0]
80102d18:	025b      	lsls	r3, r3, #9
80102d1a:	4619      	mov	r1, r3
80102d1c:	68b8      	ldr	r0, [r7, #8]
80102d1e:	f7fe fe4d 	bl	801019bc <USDHC_CreateDescTable>
80102d22:	68fb      	ldr	r3, [r7, #12]
80102d24:	2200      	movs	r2, #0
80102d26:	601a      	str	r2, [r3, #0]
80102d28:	f647 73f8 	movw	r3, #32760	; 0x7ff8
80102d2c:	f2c8 0310 	movt	r3, #32784	; 0x8010
80102d30:	68fa      	ldr	r2, [r7, #12]
80102d32:	6593      	str	r3, [r2, #88]	; 0x58
80102d34:	683b      	ldr	r3, [r7, #0]
80102d36:	041b      	lsls	r3, r3, #16
80102d38:	f443 7200 	orr.w	r2, r3, #512	; 0x200
80102d3c:	68fb      	ldr	r3, [r7, #12]
80102d3e:	605a      	str	r2, [r3, #4]
80102d40:	68fb      	ldr	r3, [r7, #12]
80102d42:	f8d3 30c0 	ldr.w	r3, [r3, #192]	; 0xc0
80102d46:	f023 0201 	bic.w	r2, r3, #1
80102d4a:	68fb      	ldr	r3, [r7, #12]
80102d4c:	f8c3 20c0 	str.w	r2, [r3, #192]	; 0xc0
80102d50:	68fb      	ldr	r3, [r7, #12]
80102d52:	6a9b      	ldr	r3, [r3, #40]	; 0x28
80102d54:	f023 5360 	bic.w	r3, r3, #939524096	; 0x38000000
80102d58:	f423 7340 	bic.w	r3, r3, #768	; 0x300
80102d5c:	68fa      	ldr	r2, [r7, #12]
80102d5e:	6293      	str	r3, [r2, #40]	; 0x28
80102d60:	68fb      	ldr	r3, [r7, #12]
80102d62:	6a9b      	ldr	r3, [r3, #40]	; 0x28
80102d64:	f043 6300 	orr.w	r3, r3, #134217728	; 0x8000000
80102d68:	f443 7300 	orr.w	r3, r3, #512	; 0x200
80102d6c:	68fa      	ldr	r2, [r7, #12]
80102d6e:	6293      	str	r3, [r2, #40]	; 0x28
80102d70:	683b      	ldr	r3, [r7, #0]
80102d72:	2b01      	cmp	r3, #1
80102d74:	d114      	bne.n	80102da0 <sd_write_blocks+0xb8>
80102d76:	68fb      	ldr	r3, [r7, #12]
80102d78:	6c9b      	ldr	r3, [r3, #72]	; 0x48
80102d7a:	f023 0237 	bic.w	r2, r3, #55	; 0x37
80102d7e:	68fb      	ldr	r3, [r7, #12]
80102d80:	649a      	str	r2, [r3, #72]	; 0x48
80102d82:	68fb      	ldr	r3, [r7, #12]
80102d84:	6c9b      	ldr	r3, [r3, #72]	; 0x48
80102d86:	f043 0201 	orr.w	r2, r3, #1
80102d8a:	68fb      	ldr	r3, [r7, #12]
80102d8c:	649a      	str	r2, [r3, #72]	; 0x48
80102d8e:	68fb      	ldr	r3, [r7, #12]
80102d90:	687a      	ldr	r2, [r7, #4]
80102d92:	609a      	str	r2, [r3, #8]
80102d94:	68fa      	ldr	r2, [r7, #12]
80102d96:	2300      	movs	r3, #0
80102d98:	f6c1 033a 	movt	r3, #6202	; 0x183a
80102d9c:	60d3      	str	r3, [r2, #12]
80102d9e:	e013      	b.n	80102dc8 <sd_write_blocks+0xe0>
80102da0:	68fb      	ldr	r3, [r7, #12]
80102da2:	6c9b      	ldr	r3, [r3, #72]	; 0x48
80102da4:	f023 0237 	bic.w	r2, r3, #55	; 0x37
80102da8:	68fb      	ldr	r3, [r7, #12]
80102daa:	649a      	str	r2, [r3, #72]	; 0x48
80102dac:	68fb      	ldr	r3, [r7, #12]
80102dae:	6c9b      	ldr	r3, [r3, #72]	; 0x48
80102db0:	f043 0227 	orr.w	r2, r3, #39	; 0x27
80102db4:	68fb      	ldr	r3, [r7, #12]
80102db6:	649a      	str	r2, [r3, #72]	; 0x48
80102db8:	68fb      	ldr	r3, [r7, #12]
80102dba:	687a      	ldr	r2, [r7, #4]
80102dbc:	609a      	str	r2, [r3, #8]
80102dbe:	68fa      	ldr	r2, [r7, #12]
80102dc0:	2300      	movs	r3, #0
80102dc2:	f6c1 133a 	movt	r3, #6458	; 0x193a
80102dc6:	60d3      	str	r3, [r2, #12]
80102dc8:	68f8      	ldr	r0, [r7, #12]
80102dca:	f7fe fe7d 	bl	80101ac8 <USDHC_WaitCommandDone>
80102dce:	6178      	str	r0, [r7, #20]
80102dd0:	697b      	ldr	r3, [r7, #20]
80102dd2:	2b00      	cmp	r3, #0
80102dd4:	da01      	bge.n	80102dda <sd_write_blocks+0xf2>
80102dd6:	697b      	ldr	r3, [r7, #20]
80102dd8:	e01f      	b.n	80102e1a <sd_write_blocks+0x132>
80102dda:	68f8      	ldr	r0, [r7, #12]
80102ddc:	f7fe fea8 	bl	80101b30 <USDHC_WaitDataDone>
80102de0:	6178      	str	r0, [r7, #20]
80102de2:	697b      	ldr	r3, [r7, #20]
80102de4:	2b00      	cmp	r3, #0
80102de6:	da01      	bge.n	80102dec <sd_write_blocks+0x104>
80102de8:	697b      	ldr	r3, [r7, #20]
80102dea:	e016      	b.n	80102e1a <sd_write_blocks+0x132>
80102dec:	68f8      	ldr	r0, [r7, #12]
80102dee:	f7ff fe8b 	bl	80102b08 <SD_WaitReadWriteComplete>
80102df2:	6178      	str	r0, [r7, #20]
80102df4:	697b      	ldr	r3, [r7, #20]
80102df6:	f003 4364 	and.w	r3, r3, #3825205248	; 0xe4000000
80102dfa:	2b00      	cmp	r3, #0
80102dfc:	d00c      	beq.n	80102e18 <sd_write_blocks+0x130>
80102dfe:	f04f 33ff 	mov.w	r3, #4294967295	; 0xffffffff
80102e02:	617b      	str	r3, [r7, #20]
80102e04:	f244 7154 	movw	r1, #18260	; 0x4754
80102e08:	f2c8 0110 	movt	r1, #32784	; 0x8010
80102e0c:	f244 6064 	movw	r0, #18020	; 0x4664
80102e10:	f2c8 0010 	movt	r0, #32784	; 0x8010
80102e14:	f7fe fb77 	bl	80101506 <printf>
80102e18:	697b      	ldr	r3, [r7, #20]
80102e1a:	4618      	mov	r0, r3
80102e1c:	3718      	adds	r7, #24
80102e1e:	46bd      	mov	sp, r7
80102e20:	bd80      	pop	{r7, pc}

80102e22 <MMC_DecodeCsd>:
80102e22:	b480      	push	{r7}
80102e24:	b085      	sub	sp, #20
80102e26:	af00      	add	r7, sp, #0
80102e28:	6078      	str	r0, [r7, #4]
80102e2a:	6039      	str	r1, [r7, #0]
80102e2c:	687b      	ldr	r3, [r7, #4]
80102e2e:	f503 7313 	add.w	r3, r3, #588	; 0x24c
80102e32:	60fb      	str	r3, [r7, #12]
80102e34:	683b      	ldr	r3, [r7, #0]
80102e36:	330c      	adds	r3, #12
80102e38:	681b      	ldr	r3, [r3, #0]
80102e3a:	0f9b      	lsrs	r3, r3, #30
80102e3c:	b2da      	uxtb	r2, r3
80102e3e:	68fb      	ldr	r3, [r7, #12]
80102e40:	701a      	strb	r2, [r3, #0]
80102e42:	683b      	ldr	r3, [r7, #0]
80102e44:	330c      	adds	r3, #12
80102e46:	681b      	ldr	r3, [r3, #0]
80102e48:	0e9b      	lsrs	r3, r3, #26
80102e4a:	b2db      	uxtb	r3, r3
80102e4c:	f003 030f 	and.w	r3, r3, #15
80102e50:	b2da      	uxtb	r2, r3
80102e52:	68fb      	ldr	r3, [r7, #12]
80102e54:	705a      	strb	r2, [r3, #1]
80102e56:	683b      	ldr	r3, [r7, #0]
80102e58:	330c      	adds	r3, #12
80102e5a:	681b      	ldr	r3, [r3, #0]
80102e5c:	0c1b      	lsrs	r3, r3, #16
80102e5e:	b2da      	uxtb	r2, r3
80102e60:	68fb      	ldr	r3, [r7, #12]
80102e62:	709a      	strb	r2, [r3, #2]
80102e64:	683b      	ldr	r3, [r7, #0]
80102e66:	330c      	adds	r3, #12
80102e68:	681b      	ldr	r3, [r3, #0]
80102e6a:	0a1b      	lsrs	r3, r3, #8
80102e6c:	b2da      	uxtb	r2, r3
80102e6e:	68fb      	ldr	r3, [r7, #12]
80102e70:	70da      	strb	r2, [r3, #3]
80102e72:	683b      	ldr	r3, [r7, #0]
80102e74:	330c      	adds	r3, #12
80102e76:	681b      	ldr	r3, [r3, #0]
80102e78:	b2da      	uxtb	r2, r3
80102e7a:	68fb      	ldr	r3, [r7, #12]
80102e7c:	711a      	strb	r2, [r3, #4]
80102e7e:	683b      	ldr	r3, [r7, #0]
80102e80:	3308      	adds	r3, #8
80102e82:	681b      	ldr	r3, [r3, #0]
80102e84:	0d1b      	lsrs	r3, r3, #20
80102e86:	b29a      	uxth	r2, r3
80102e88:	68fb      	ldr	r3, [r7, #12]
80102e8a:	80da      	strh	r2, [r3, #6]
80102e8c:	683b      	ldr	r3, [r7, #0]
80102e8e:	3308      	adds	r3, #8
80102e90:	681b      	ldr	r3, [r3, #0]
80102e92:	0c1b      	lsrs	r3, r3, #16
80102e94:	b2db      	uxtb	r3, r3
80102e96:	f003 030f 	and.w	r3, r3, #15
80102e9a:	b2da      	uxtb	r2, r3
80102e9c:	68fb      	ldr	r3, [r7, #12]
80102e9e:	721a      	strb	r2, [r3, #8]
80102ea0:	683b      	ldr	r3, [r7, #0]
80102ea2:	3308      	adds	r3, #8
80102ea4:	681b      	ldr	r3, [r3, #0]
80102ea6:	f403 4300 	and.w	r3, r3, #32768	; 0x8000
80102eaa:	2b00      	cmp	r3, #0
80102eac:	d006      	beq.n	80102ebc <MMC_DecodeCsd+0x9a>
80102eae:	68fb      	ldr	r3, [r7, #12]
80102eb0:	895b      	ldrh	r3, [r3, #10]
80102eb2:	f043 0301 	orr.w	r3, r3, #1
80102eb6:	b29a      	uxth	r2, r3
80102eb8:	68fb      	ldr	r3, [r7, #12]
80102eba:	815a      	strh	r2, [r3, #10]
80102ebc:	683b      	ldr	r3, [r7, #0]
80102ebe:	3308      	adds	r3, #8
80102ec0:	681b      	ldr	r3, [r3, #0]
80102ec2:	f403 4380 	and.w	r3, r3, #16384	; 0x4000
80102ec6:	2b00      	cmp	r3, #0
80102ec8:	d006      	beq.n	80102ed8 <MMC_DecodeCsd+0xb6>
80102eca:	68fb      	ldr	r3, [r7, #12]
80102ecc:	895b      	ldrh	r3, [r3, #10]
80102ece:	f043 0302 	orr.w	r3, r3, #2
80102ed2:	b29a      	uxth	r2, r3
80102ed4:	68fb      	ldr	r3, [r7, #12]
80102ed6:	815a      	strh	r2, [r3, #10]
80102ed8:	683b      	ldr	r3, [r7, #0]
80102eda:	3308      	adds	r3, #8
80102edc:	681b      	ldr	r3, [r3, #0]
80102ede:	f403 5300 	and.w	r3, r3, #8192	; 0x2000
80102ee2:	2b00      	cmp	r3, #0
80102ee4:	d006      	beq.n	80102ef4 <MMC_DecodeCsd+0xd2>
80102ee6:	68fb      	ldr	r3, [r7, #12]
80102ee8:	895b      	ldrh	r3, [r3, #10]
80102eea:	f043 0304 	orr.w	r3, r3, #4
80102eee:	b29a      	uxth	r2, r3
80102ef0:	68fb      	ldr	r3, [r7, #12]
80102ef2:	815a      	strh	r2, [r3, #10]
80102ef4:	683b      	ldr	r3, [r7, #0]
80102ef6:	3308      	adds	r3, #8
80102ef8:	681b      	ldr	r3, [r3, #0]
80102efa:	f403 5380 	and.w	r3, r3, #4096	; 0x1000
80102efe:	2b00      	cmp	r3, #0
80102f00:	d006      	beq.n	80102f10 <MMC_DecodeCsd+0xee>
80102f02:	68fb      	ldr	r3, [r7, #12]
80102f04:	895b      	ldrh	r3, [r3, #10]
80102f06:	f043 0308 	orr.w	r3, r3, #8
80102f0a:	b29a      	uxth	r2, r3
80102f0c:	68fb      	ldr	r3, [r7, #12]
80102f0e:	815a      	strh	r2, [r3, #10]
80102f10:	683b      	ldr	r3, [r7, #0]
80102f12:	3308      	adds	r3, #8
80102f14:	681b      	ldr	r3, [r3, #0]
80102f16:	b29b      	uxth	r3, r3
80102f18:	009b      	lsls	r3, r3, #2
80102f1a:	b29a      	uxth	r2, r3
80102f1c:	f640 73fc 	movw	r3, #4092	; 0xffc
80102f20:	4013      	ands	r3, r2
80102f22:	b29a      	uxth	r2, r3
80102f24:	683b      	ldr	r3, [r7, #0]
80102f26:	3304      	adds	r3, #4
80102f28:	681b      	ldr	r3, [r3, #0]
80102f2a:	0f9b      	lsrs	r3, r3, #30
80102f2c:	b29b      	uxth	r3, r3
80102f2e:	4413      	add	r3, r2
80102f30:	b29a      	uxth	r2, r3
80102f32:	68fb      	ldr	r3, [r7, #12]
80102f34:	819a      	strh	r2, [r3, #12]
80102f36:	683b      	ldr	r3, [r7, #0]
80102f38:	3304      	adds	r3, #4
80102f3a:	681b      	ldr	r3, [r3, #0]
80102f3c:	0edb      	lsrs	r3, r3, #27
80102f3e:	b2db      	uxtb	r3, r3
80102f40:	f003 0307 	and.w	r3, r3, #7
80102f44:	b2da      	uxtb	r2, r3
80102f46:	68fb      	ldr	r3, [r7, #12]
80102f48:	739a      	strb	r2, [r3, #14]
80102f4a:	683b      	ldr	r3, [r7, #0]
80102f4c:	3304      	adds	r3, #4
80102f4e:	681b      	ldr	r3, [r3, #0]
80102f50:	0e1b      	lsrs	r3, r3, #24
80102f52:	b2db      	uxtb	r3, r3
80102f54:	f003 0307 	and.w	r3, r3, #7
80102f58:	b2da      	uxtb	r2, r3
80102f5a:	68fb      	ldr	r3, [r7, #12]
80102f5c:	73da      	strb	r2, [r3, #15]
80102f5e:	683b      	ldr	r3, [r7, #0]
80102f60:	3304      	adds	r3, #4
80102f62:	681b      	ldr	r3, [r3, #0]
80102f64:	0d5b      	lsrs	r3, r3, #21
80102f66:	b2db      	uxtb	r3, r3
80102f68:	f003 0307 	and.w	r3, r3, #7
80102f6c:	b2da      	uxtb	r2, r3
80102f6e:	68fb      	ldr	r3, [r7, #12]
80102f70:	741a      	strb	r2, [r3, #16]
80102f72:	683b      	ldr	r3, [r7, #0]
80102f74:	3304      	adds	r3, #4
80102f76:	681b      	ldr	r3, [r3, #0]
80102f78:	0c9b      	lsrs	r3, r3, #18
80102f7a:	b2db      	uxtb	r3, r3
80102f7c:	f003 0307 	and.w	r3, r3, #7
80102f80:	b2da      	uxtb	r2, r3
80102f82:	68fb      	ldr	r3, [r7, #12]
80102f84:	745a      	strb	r2, [r3, #17]
80102f86:	683b      	ldr	r3, [r7, #0]
80102f88:	3304      	adds	r3, #4
80102f8a:	681b      	ldr	r3, [r3, #0]
80102f8c:	0bdb      	lsrs	r3, r3, #15
80102f8e:	b2db      	uxtb	r3, r3
80102f90:	f003 0307 	and.w	r3, r3, #7
80102f94:	b2da      	uxtb	r2, r3
80102f96:	68fb      	ldr	r3, [r7, #12]
80102f98:	749a      	strb	r2, [r3, #18]
80102f9a:	683b      	ldr	r3, [r7, #0]
80102f9c:	3304      	adds	r3, #4
80102f9e:	681b      	ldr	r3, [r3, #0]
80102fa0:	0a9b      	lsrs	r3, r3, #10
80102fa2:	b2db      	uxtb	r3, r3
80102fa4:	f003 031f 	and.w	r3, r3, #31
80102fa8:	b2da      	uxtb	r2, r3
80102faa:	68fb      	ldr	r3, [r7, #12]
80102fac:	74da      	strb	r2, [r3, #19]
80102fae:	683b      	ldr	r3, [r7, #0]
80102fb0:	3304      	adds	r3, #4
80102fb2:	681b      	ldr	r3, [r3, #0]
80102fb4:	095b      	lsrs	r3, r3, #5
80102fb6:	b2db      	uxtb	r3, r3
80102fb8:	f003 031f 	and.w	r3, r3, #31
80102fbc:	b2da      	uxtb	r2, r3
80102fbe:	68fb      	ldr	r3, [r7, #12]
80102fc0:	751a      	strb	r2, [r3, #20]
80102fc2:	683b      	ldr	r3, [r7, #0]
80102fc4:	3304      	adds	r3, #4
80102fc6:	681b      	ldr	r3, [r3, #0]
80102fc8:	b2db      	uxtb	r3, r3
80102fca:	f003 031f 	and.w	r3, r3, #31
80102fce:	b2da      	uxtb	r2, r3
80102fd0:	68fb      	ldr	r3, [r7, #12]
80102fd2:	755a      	strb	r2, [r3, #21]
80102fd4:	683b      	ldr	r3, [r7, #0]
80102fd6:	681b      	ldr	r3, [r3, #0]
80102fd8:	2b00      	cmp	r3, #0
80102fda:	da06      	bge.n	80102fea <MMC_DecodeCsd+0x1c8>
80102fdc:	68fb      	ldr	r3, [r7, #12]
80102fde:	895b      	ldrh	r3, [r3, #10]
80102fe0:	f043 0310 	orr.w	r3, r3, #16
80102fe4:	b29a      	uxth	r2, r3
80102fe6:	68fb      	ldr	r3, [r7, #12]
80102fe8:	815a      	strh	r2, [r3, #10]
80102fea:	683b      	ldr	r3, [r7, #0]
80102fec:	681b      	ldr	r3, [r3, #0]
80102fee:	0f5b      	lsrs	r3, r3, #29
80102ff0:	b2db      	uxtb	r3, r3
80102ff2:	f003 0303 	and.w	r3, r3, #3
80102ff6:	b2da      	uxtb	r2, r3
80102ff8:	68fb      	ldr	r3, [r7, #12]
80102ffa:	759a      	strb	r2, [r3, #22]
80102ffc:	683b      	ldr	r3, [r7, #0]
80102ffe:	681b      	ldr	r3, [r3, #0]
80103000:	0e9b      	lsrs	r3, r3, #26
80103002:	b2db      	uxtb	r3, r3
80103004:	f003 0307 	and.w	r3, r3, #7
80103008:	b2da      	uxtb	r2, r3
8010300a:	68fb      	ldr	r3, [r7, #12]
8010300c:	75da      	strb	r2, [r3, #23]
8010300e:	683b      	ldr	r3, [r7, #0]
80103010:	681b      	ldr	r3, [r3, #0]
80103012:	0d9b      	lsrs	r3, r3, #22
80103014:	b2db      	uxtb	r3, r3
80103016:	f003 030f 	and.w	r3, r3, #15
8010301a:	b2da      	uxtb	r2, r3
8010301c:	68fb      	ldr	r3, [r7, #12]
8010301e:	761a      	strb	r2, [r3, #24]
80103020:	683b      	ldr	r3, [r7, #0]
80103022:	681b      	ldr	r3, [r3, #0]
80103024:	f403 1300 	and.w	r3, r3, #2097152	; 0x200000
80103028:	2b00      	cmp	r3, #0
8010302a:	d006      	beq.n	8010303a <MMC_DecodeCsd+0x218>
8010302c:	68fb      	ldr	r3, [r7, #12]
8010302e:	895b      	ldrh	r3, [r3, #10]
80103030:	f043 0320 	orr.w	r3, r3, #32
80103034:	b29a      	uxth	r2, r3
80103036:	68fb      	ldr	r3, [r7, #12]
80103038:	815a      	strh	r2, [r3, #10]
8010303a:	683b      	ldr	r3, [r7, #0]
8010303c:	681b      	ldr	r3, [r3, #0]
8010303e:	f403 3380 	and.w	r3, r3, #65536	; 0x10000
80103042:	2b00      	cmp	r3, #0
80103044:	d006      	beq.n	80103054 <MMC_DecodeCsd+0x232>
80103046:	68fb      	ldr	r3, [r7, #12]
80103048:	895b      	ldrh	r3, [r3, #10]
8010304a:	f043 0340 	orr.w	r3, r3, #64	; 0x40
8010304e:	b29a      	uxth	r2, r3
80103050:	68fb      	ldr	r3, [r7, #12]
80103052:	815a      	strh	r2, [r3, #10]
80103054:	683b      	ldr	r3, [r7, #0]
80103056:	681b      	ldr	r3, [r3, #0]
80103058:	f403 4300 	and.w	r3, r3, #32768	; 0x8000
8010305c:	2b00      	cmp	r3, #0
8010305e:	d006      	beq.n	8010306e <MMC_DecodeCsd+0x24c>
80103060:	68fb      	ldr	r3, [r7, #12]
80103062:	895b      	ldrh	r3, [r3, #10]
80103064:	f043 0380 	orr.w	r3, r3, #128	; 0x80
80103068:	b29a      	uxth	r2, r3
8010306a:	68fb      	ldr	r3, [r7, #12]
8010306c:	815a      	strh	r2, [r3, #10]
8010306e:	683b      	ldr	r3, [r7, #0]
80103070:	681b      	ldr	r3, [r3, #0]
80103072:	f403 4380 	and.w	r3, r3, #16384	; 0x4000
80103076:	2b00      	cmp	r3, #0
80103078:	d006      	beq.n	80103088 <MMC_DecodeCsd+0x266>
8010307a:	68fb      	ldr	r3, [r7, #12]
8010307c:	895b      	ldrh	r3, [r3, #10]
8010307e:	f443 7380 	orr.w	r3, r3, #256	; 0x100
80103082:	b29a      	uxth	r2, r3
80103084:	68fb      	ldr	r3, [r7, #12]
80103086:	815a      	strh	r2, [r3, #10]
80103088:	683b      	ldr	r3, [r7, #0]
8010308a:	681b      	ldr	r3, [r3, #0]
8010308c:	f403 5300 	and.w	r3, r3, #8192	; 0x2000
80103090:	2b00      	cmp	r3, #0
80103092:	d006      	beq.n	801030a2 <MMC_DecodeCsd+0x280>
80103094:	68fb      	ldr	r3, [r7, #12]
80103096:	895b      	ldrh	r3, [r3, #10]
80103098:	f443 7300 	orr.w	r3, r3, #512	; 0x200
8010309c:	b29a      	uxth	r2, r3
8010309e:	68fb      	ldr	r3, [r7, #12]
801030a0:	815a      	strh	r2, [r3, #10]
801030a2:	683b      	ldr	r3, [r7, #0]
801030a4:	681b      	ldr	r3, [r3, #0]
801030a6:	f403 5380 	and.w	r3, r3, #4096	; 0x1000
801030aa:	2b00      	cmp	r3, #0
801030ac:	d006      	beq.n	801030bc <MMC_DecodeCsd+0x29a>
801030ae:	68fb      	ldr	r3, [r7, #12]
801030b0:	895b      	ldrh	r3, [r3, #10]
801030b2:	f443 6380 	orr.w	r3, r3, #1024	; 0x400
801030b6:	b29a      	uxth	r2, r3
801030b8:	68fb      	ldr	r3, [r7, #12]
801030ba:	815a      	strh	r2, [r3, #10]
801030bc:	683b      	ldr	r3, [r7, #0]
801030be:	681b      	ldr	r3, [r3, #0]
801030c0:	0a9b      	lsrs	r3, r3, #10
801030c2:	b2db      	uxtb	r3, r3
801030c4:	f003 0303 	and.w	r3, r3, #3
801030c8:	b2da      	uxtb	r2, r3
801030ca:	68fb      	ldr	r3, [r7, #12]
801030cc:	765a      	strb	r2, [r3, #25]
801030ce:	683b      	ldr	r3, [r7, #0]
801030d0:	681b      	ldr	r3, [r3, #0]
801030d2:	0a1b      	lsrs	r3, r3, #8
801030d4:	b2db      	uxtb	r3, r3
801030d6:	f003 0303 	and.w	r3, r3, #3
801030da:	b2da      	uxtb	r2, r3
801030dc:	68fb      	ldr	r3, [r7, #12]
801030de:	769a      	strb	r2, [r3, #26]
801030e0:	687b      	ldr	r3, [r7, #4]
801030e2:	f8b3 3258 	ldrh.w	r3, [r3, #600]	; 0x258
801030e6:	f640 72ff 	movw	r2, #4095	; 0xfff
801030ea:	4293      	cmp	r3, r2
801030ec:	d012      	beq.n	80103114 <MMC_DecodeCsd+0x2f2>
801030ee:	687b      	ldr	r3, [r7, #4]
801030f0:	f893 325e 	ldrb.w	r3, [r3, #606]	; 0x25e
801030f4:	3301      	adds	r3, #1
801030f6:	2202      	movs	r2, #2
801030f8:	fa02 f303 	lsl.w	r3, r2, r3
801030fc:	60bb      	str	r3, [r7, #8]
801030fe:	687b      	ldr	r3, [r7, #4]
80103100:	f8b3 3258 	ldrh.w	r3, [r3, #600]	; 0x258
80103104:	3301      	adds	r3, #1
80103106:	68ba      	ldr	r2, [r7, #8]
80103108:	fb02 f303 	mul.w	r3, r2, r3
8010310c:	0a5a      	lsrs	r2, r3, #9
8010310e:	687b      	ldr	r3, [r7, #4]
80103110:	f8c3 2338 	str.w	r2, [r3, #824]	; 0x338
80103114:	687b      	ldr	r3, [r7, #4]
80103116:	f44f 7200 	mov.w	r2, #512	; 0x200
8010311a:	f8c3 2334 	str.w	r2, [r3, #820]	; 0x334
8010311e:	bf00      	nop
80103120:	3714      	adds	r7, #20
80103122:	46bd      	mov	sp, r7
80103124:	f85d 7b04 	ldr.w	r7, [sp], #4
80103128:	4770      	bx	lr

8010312a <MMC_DecodeCid>:
8010312a:	b480      	push	{r7}
8010312c:	b085      	sub	sp, #20
8010312e:	af00      	add	r7, sp, #0
80103130:	6078      	str	r0, [r7, #4]
80103132:	6039      	str	r1, [r7, #0]
80103134:	687b      	ldr	r3, [r7, #4]
80103136:	f503 730e 	add.w	r3, r3, #568	; 0x238
8010313a:	60fb      	str	r3, [r7, #12]
8010313c:	683b      	ldr	r3, [r7, #0]
8010313e:	330c      	adds	r3, #12
80103140:	681b      	ldr	r3, [r3, #0]
80103142:	0e1b      	lsrs	r3, r3, #24
80103144:	b2da      	uxtb	r2, r3
80103146:	68fb      	ldr	r3, [r7, #12]
80103148:	701a      	strb	r2, [r3, #0]
8010314a:	683b      	ldr	r3, [r7, #0]
8010314c:	330c      	adds	r3, #12
8010314e:	681b      	ldr	r3, [r3, #0]
80103150:	0a1b      	lsrs	r3, r3, #8
80103152:	b29a      	uxth	r2, r3
80103154:	68fb      	ldr	r3, [r7, #12]
80103156:	805a      	strh	r2, [r3, #2]
80103158:	683b      	ldr	r3, [r7, #0]
8010315a:	330c      	adds	r3, #12
8010315c:	681b      	ldr	r3, [r3, #0]
8010315e:	b2da      	uxtb	r2, r3
80103160:	68fb      	ldr	r3, [r7, #12]
80103162:	711a      	strb	r2, [r3, #4]
80103164:	683b      	ldr	r3, [r7, #0]
80103166:	3308      	adds	r3, #8
80103168:	681b      	ldr	r3, [r3, #0]
8010316a:	0e1b      	lsrs	r3, r3, #24
8010316c:	b2da      	uxtb	r2, r3
8010316e:	68fb      	ldr	r3, [r7, #12]
80103170:	715a      	strb	r2, [r3, #5]
80103172:	683b      	ldr	r3, [r7, #0]
80103174:	3308      	adds	r3, #8
80103176:	681b      	ldr	r3, [r3, #0]
80103178:	0c1b      	lsrs	r3, r3, #16
8010317a:	b2da      	uxtb	r2, r3
8010317c:	68fb      	ldr	r3, [r7, #12]
8010317e:	719a      	strb	r2, [r3, #6]
80103180:	683b      	ldr	r3, [r7, #0]
80103182:	3308      	adds	r3, #8
80103184:	681b      	ldr	r3, [r3, #0]
80103186:	0a1b      	lsrs	r3, r3, #8
80103188:	b2da      	uxtb	r2, r3
8010318a:	68fb      	ldr	r3, [r7, #12]
8010318c:	71da      	strb	r2, [r3, #7]
8010318e:	683b      	ldr	r3, [r7, #0]
80103190:	3308      	adds	r3, #8
80103192:	681b      	ldr	r3, [r3, #0]
80103194:	b2da      	uxtb	r2, r3
80103196:	68fb      	ldr	r3, [r7, #12]
80103198:	721a      	strb	r2, [r3, #8]
8010319a:	683b      	ldr	r3, [r7, #0]
8010319c:	3304      	adds	r3, #4
8010319e:	681b      	ldr	r3, [r3, #0]
801031a0:	0e1b      	lsrs	r3, r3, #24
801031a2:	b2da      	uxtb	r2, r3
801031a4:	68fb      	ldr	r3, [r7, #12]
801031a6:	729a      	strb	r2, [r3, #10]
801031a8:	683b      	ldr	r3, [r7, #0]
801031aa:	3304      	adds	r3, #4
801031ac:	681b      	ldr	r3, [r3, #0]
801031ae:	021a      	lsls	r2, r3, #8
801031b0:	68fb      	ldr	r3, [r7, #12]
801031b2:	60da      	str	r2, [r3, #12]
801031b4:	68fb      	ldr	r3, [r7, #12]
801031b6:	68da      	ldr	r2, [r3, #12]
801031b8:	683b      	ldr	r3, [r7, #0]
801031ba:	681b      	ldr	r3, [r3, #0]
801031bc:	0e1b      	lsrs	r3, r3, #24
801031be:	431a      	orrs	r2, r3
801031c0:	68fb      	ldr	r3, [r7, #12]
801031c2:	60da      	str	r2, [r3, #12]
801031c4:	683b      	ldr	r3, [r7, #0]
801031c6:	681b      	ldr	r3, [r3, #0]
801031c8:	0a1b      	lsrs	r3, r3, #8
801031ca:	b2da      	uxtb	r2, r3
801031cc:	68fb      	ldr	r3, [r7, #12]
801031ce:	741a      	strb	r2, [r3, #16]
801031d0:	bf00      	nop
801031d2:	3714      	adds	r7, #20
801031d4:	46bd      	mov	sp, r7
801031d6:	f85d 7b04 	ldr.w	r7, [sp], #4
801031da:	4770      	bx	lr

801031dc <MMC_DecodeExtendedCsd>:
801031dc:	b480      	push	{r7}
801031de:	b085      	sub	sp, #20
801031e0:	af00      	add	r7, sp, #0
801031e2:	6078      	str	r0, [r7, #4]
801031e4:	6039      	str	r1, [r7, #0]
801031e6:	683b      	ldr	r3, [r7, #0]
801031e8:	60fb      	str	r3, [r7, #12]
801031ea:	687b      	ldr	r3, [r7, #4]
801031ec:	f503 731a 	add.w	r3, r3, #616	; 0x268
801031f0:	60bb      	str	r3, [r7, #8]
801031f2:	68fb      	ldr	r3, [r7, #12]
801031f4:	f893 20af 	ldrb.w	r2, [r3, #175]	; 0xaf
801031f8:	68bb      	ldr	r3, [r7, #8]
801031fa:	f883 205c 	strb.w	r2, [r3, #92]	; 0x5c
801031fe:	68fb      	ldr	r3, [r7, #12]
80103200:	f893 20b1 	ldrb.w	r2, [r3, #177]	; 0xb1
80103204:	68bb      	ldr	r3, [r7, #8]
80103206:	f883 205d 	strb.w	r2, [r3, #93]	; 0x5d
8010320a:	68fb      	ldr	r3, [r7, #12]
8010320c:	f893 20b3 	ldrb.w	r2, [r3, #179]	; 0xb3
80103210:	68bb      	ldr	r3, [r7, #8]
80103212:	f883 205f 	strb.w	r2, [r3, #95]	; 0x5f
80103216:	68fb      	ldr	r3, [r7, #12]
80103218:	f893 20b5 	ldrb.w	r2, [r3, #181]	; 0xb5
8010321c:	68bb      	ldr	r3, [r7, #8]
8010321e:	f883 2060 	strb.w	r2, [r3, #96]	; 0x60
80103222:	68fb      	ldr	r3, [r7, #12]
80103224:	f893 20b7 	ldrb.w	r2, [r3, #183]	; 0xb7
80103228:	68bb      	ldr	r3, [r7, #8]
8010322a:	f883 2061 	strb.w	r2, [r3, #97]	; 0x61
8010322e:	68fb      	ldr	r3, [r7, #12]
80103230:	f893 20b9 	ldrb.w	r2, [r3, #185]	; 0xb9
80103234:	68bb      	ldr	r3, [r7, #8]
80103236:	f883 2062 	strb.w	r2, [r3, #98]	; 0x62
8010323a:	68fb      	ldr	r3, [r7, #12]
8010323c:	f893 20bb 	ldrb.w	r2, [r3, #187]	; 0xbb
80103240:	68bb      	ldr	r3, [r7, #8]
80103242:	f883 2063 	strb.w	r2, [r3, #99]	; 0x63
