
sd.elf:     file format elf32-littlearm


Disassembly of section .text:

80100000 <_start>:
80100000:	e59fd028 	ldr	sp, [pc, #40]	; 80100030 <clean+0x14>
80100004:	eb000001 	bl	80100010 <clean_bss>
80100008:	fb00026a 	blx	801009ba <main>

8010000c <halt>:
8010000c:	eafffffe 	b	8010000c <halt>

80100010 <clean_bss>:
80100010:	e59f101c 	ldr	r1, [pc, #28]	; 80100034 <clean+0x18>
80100014:	e59f201c 	ldr	r2, [pc, #28]	; 80100038 <clean+0x1c>
80100018:	e3a03000 	mov	r3, #0

8010001c <clean>:
8010001c:	e1510002 	cmp	r1, r2
80100020:	b5813000 	strlt	r3, [r1]
80100024:	e2811004 	add	r1, r1, #4
80100028:	bafffffb 	blt	8010001c <clean>
8010002c:	e1a0f00e 	mov	pc, lr
80100030:	80200000 	eorhi	r0, r0, r0
80100034:	80106828 	andshi	r6, r0, r8, lsr #16
80100038:	80108438 	andshi	r8, r0, r8, lsr r4

8010003c <IOMUXC_SetPinMux>:
8010003c:	b480      	push	{r7}
8010003e:	b085      	sub	sp, #20
80100040:	af00      	add	r7, sp, #0
80100042:	60f8      	str	r0, [r7, #12]
80100044:	60b9      	str	r1, [r7, #8]
80100046:	607a      	str	r2, [r7, #4]
80100048:	603b      	str	r3, [r7, #0]
8010004a:	68fb      	ldr	r3, [r7, #12]
8010004c:	68ba      	ldr	r2, [r7, #8]
8010004e:	f002 010f 	and.w	r1, r2, #15
80100052:	69fa      	ldr	r2, [r7, #28]
80100054:	0112      	lsls	r2, r2, #4
80100056:	f002 0210 	and.w	r2, r2, #16
8010005a:	430a      	orrs	r2, r1
8010005c:	601a      	str	r2, [r3, #0]
8010005e:	687b      	ldr	r3, [r7, #4]
80100060:	2b00      	cmp	r3, #0
80100062:	d004      	beq.n	8010006e <IOMUXC_SetPinMux+0x32>
80100064:	687b      	ldr	r3, [r7, #4]
80100066:	683a      	ldr	r2, [r7, #0]
80100068:	f002 0207 	and.w	r2, r2, #7
8010006c:	601a      	str	r2, [r3, #0]
8010006e:	bf00      	nop
80100070:	3714      	adds	r7, #20
80100072:	46bd      	mov	sp, r7
80100074:	f85d 7b04 	ldr.w	r7, [sp], #4
80100078:	4770      	bx	lr

8010007a <IOMUXC_SetPinConfig>:
8010007a:	b480      	push	{r7}
8010007c:	b085      	sub	sp, #20
8010007e:	af00      	add	r7, sp, #0
80100080:	60f8      	str	r0, [r7, #12]
80100082:	60b9      	str	r1, [r7, #8]
80100084:	607a      	str	r2, [r7, #4]
80100086:	603b      	str	r3, [r7, #0]
80100088:	69bb      	ldr	r3, [r7, #24]
8010008a:	2b00      	cmp	r3, #0
8010008c:	d002      	beq.n	80100094 <IOMUXC_SetPinConfig+0x1a>
8010008e:	69bb      	ldr	r3, [r7, #24]
80100090:	69fa      	ldr	r2, [r7, #28]
80100092:	601a      	str	r2, [r3, #0]
80100094:	bf00      	nop
80100096:	3714      	adds	r7, #20
80100098:	46bd      	mov	sp, r7
8010009a:	f85d 7b04 	ldr.w	r7, [sp], #4
8010009e:	4770      	bx	lr

801000a0 <init_pins>:
801000a0:	b580      	push	{r7, lr}
801000a2:	b082      	sub	sp, #8
801000a4:	af02      	add	r7, sp, #8
801000a6:	2300      	movs	r3, #0
801000a8:	9301      	str	r3, [sp, #4]
801000aa:	2358      	movs	r3, #88	; 0x58
801000ac:	f2c0 2329 	movt	r3, #553	; 0x229
801000b0:	9300      	str	r3, [sp, #0]
801000b2:	2300      	movs	r3, #0
801000b4:	2200      	movs	r2, #0
801000b6:	2105      	movs	r1, #5
801000b8:	2014      	movs	r0, #20
801000ba:	f2c0 2029 	movt	r0, #553	; 0x229
801000be:	f7ff ffbd 	bl	8010003c <IOMUXC_SetPinMux>
801000c2:	2309      	movs	r3, #9
801000c4:	f2c0 0301 	movt	r3, #1
801000c8:	9301      	str	r3, [sp, #4]
801000ca:	2358      	movs	r3, #88	; 0x58
801000cc:	f2c0 2329 	movt	r3, #553	; 0x229
801000d0:	9300      	str	r3, [sp, #0]
801000d2:	2300      	movs	r3, #0
801000d4:	2200      	movs	r2, #0
801000d6:	2105      	movs	r1, #5
801000d8:	2014      	movs	r0, #20
801000da:	f2c0 2029 	movt	r0, #553	; 0x229
801000de:	f7ff ffcc 	bl	8010007a <IOMUXC_SetPinConfig>
801000e2:	2300      	movs	r3, #0
801000e4:	9301      	str	r3, [sp, #4]
801000e6:	f44f 7345 	mov.w	r3, #788	; 0x314
801000ea:	f2c0 230e 	movt	r3, #526	; 0x20e
801000ee:	9300      	str	r3, [sp, #0]
801000f0:	2303      	movs	r3, #3
801000f2:	f240 6224 	movw	r2, #1572	; 0x624
801000f6:	f2c0 220e 	movt	r2, #526	; 0x20e
801000fa:	2100      	movs	r1, #0
801000fc:	2088      	movs	r0, #136	; 0x88
801000fe:	f2c0 200e 	movt	r0, #526	; 0x20e
80100102:	f7ff ff9b 	bl	8010003c <IOMUXC_SetPinMux>
80100106:	f241 0390 	movw	r3, #4240	; 0x1090
8010010a:	9301      	str	r3, [sp, #4]
8010010c:	f44f 7345 	mov.w	r3, #788	; 0x314
80100110:	f2c0 230e 	movt	r3, #526	; 0x20e
80100114:	9300      	str	r3, [sp, #0]
80100116:	2303      	movs	r3, #3
80100118:	f240 6224 	movw	r2, #1572	; 0x624
8010011c:	f2c0 220e 	movt	r2, #526	; 0x20e
80100120:	2100      	movs	r1, #0
80100122:	2088      	movs	r0, #136	; 0x88
80100124:	f2c0 200e 	movt	r0, #526	; 0x20e
80100128:	f7ff ffa7 	bl	8010007a <IOMUXC_SetPinConfig>
8010012c:	2300      	movs	r3, #0
8010012e:	9301      	str	r3, [sp, #4]
80100130:	f44f 7344 	mov.w	r3, #784	; 0x310
80100134:	f2c0 230e 	movt	r3, #526	; 0x20e
80100138:	9300      	str	r3, [sp, #0]
8010013a:	2300      	movs	r3, #0
8010013c:	2200      	movs	r2, #0
8010013e:	2100      	movs	r1, #0
80100140:	2084      	movs	r0, #132	; 0x84
80100142:	f2c0 200e 	movt	r0, #526	; 0x20e
80100146:	f7ff ff79 	bl	8010003c <IOMUXC_SetPinMux>
8010014a:	f241 0390 	movw	r3, #4240	; 0x1090
8010014e:	9301      	str	r3, [sp, #4]
80100150:	f44f 7344 	mov.w	r3, #784	; 0x310
80100154:	f2c0 230e 	movt	r3, #526	; 0x20e
80100158:	9300      	str	r3, [sp, #0]
8010015a:	2300      	movs	r3, #0
8010015c:	2200      	movs	r2, #0
8010015e:	2100      	movs	r1, #0
80100160:	2084      	movs	r0, #132	; 0x84
80100162:	f2c0 200e 	movt	r0, #526	; 0x20e
80100166:	f7ff ff88 	bl	8010007a <IOMUXC_SetPinConfig>
8010016a:	2300      	movs	r3, #0
8010016c:	9301      	str	r3, [sp, #4]
8010016e:	f44f 7347 	mov.w	r3, #796	; 0x31c
80100172:	f2c0 230e 	movt	r3, #526	; 0x20e
80100176:	9300      	str	r3, [sp, #0]
80100178:	2301      	movs	r3, #1
8010017a:	f44f 62cd 	mov.w	r2, #1640	; 0x668
8010017e:	f2c0 220e 	movt	r2, #526	; 0x20e
80100182:	2102      	movs	r1, #2
80100184:	2090      	movs	r0, #144	; 0x90
80100186:	f2c0 200e 	movt	r0, #526	; 0x20e
8010018a:	f7ff ff57 	bl	8010003c <IOMUXC_SetPinMux>
8010018e:	2309      	movs	r3, #9
80100190:	f2c0 0301 	movt	r3, #1
80100194:	9301      	str	r3, [sp, #4]
80100196:	f44f 7347 	mov.w	r3, #796	; 0x31c
8010019a:	f2c0 230e 	movt	r3, #526	; 0x20e
8010019e:	9300      	str	r3, [sp, #0]
801001a0:	2301      	movs	r3, #1
801001a2:	f44f 62cd 	mov.w	r2, #1640	; 0x668
801001a6:	f2c0 220e 	movt	r2, #526	; 0x20e
801001aa:	2102      	movs	r1, #2
801001ac:	2090      	movs	r0, #144	; 0x90
801001ae:	f2c0 200e 	movt	r0, #526	; 0x20e
801001b2:	f7ff ff62 	bl	8010007a <IOMUXC_SetPinConfig>
801001b6:	2300      	movs	r3, #0
801001b8:	9301      	str	r3, [sp, #4]
801001ba:	f240 434c 	movw	r3, #1100	; 0x44c
801001be:	f2c0 230e 	movt	r3, #526	; 0x20e
801001c2:	9300      	str	r3, [sp, #0]
801001c4:	2300      	movs	r3, #0
801001c6:	2200      	movs	r2, #0
801001c8:	2100      	movs	r1, #0
801001ca:	f44f 70e0 	mov.w	r0, #448	; 0x1c0
801001ce:	f2c0 200e 	movt	r0, #526	; 0x20e
801001d2:	f7ff ff33 	bl	8010003c <IOMUXC_SetPinMux>
801001d6:	f247 0349 	movw	r3, #28745	; 0x7049
801001da:	f2c0 0301 	movt	r3, #1
801001de:	9301      	str	r3, [sp, #4]
801001e0:	f240 434c 	movw	r3, #1100	; 0x44c
801001e4:	f2c0 230e 	movt	r3, #526	; 0x20e
801001e8:	9300      	str	r3, [sp, #0]
801001ea:	2300      	movs	r3, #0
801001ec:	2200      	movs	r2, #0
801001ee:	2100      	movs	r1, #0
801001f0:	f44f 70e0 	mov.w	r0, #448	; 0x1c0
801001f4:	f2c0 200e 	movt	r0, #526	; 0x20e
801001f8:	f7ff ff3f 	bl	8010007a <IOMUXC_SetPinConfig>
801001fc:	2300      	movs	r3, #0
801001fe:	9301      	str	r3, [sp, #4]
80100200:	f44f 6389 	mov.w	r3, #1096	; 0x448
80100204:	f2c0 230e 	movt	r3, #526	; 0x20e
80100208:	9300      	str	r3, [sp, #0]
8010020a:	2300      	movs	r3, #0
8010020c:	2200      	movs	r2, #0
8010020e:	2100      	movs	r1, #0
80100210:	f44f 70de 	mov.w	r0, #444	; 0x1bc
80100214:	f2c0 200e 	movt	r0, #526	; 0x20e
80100218:	f7ff ff10 	bl	8010003c <IOMUXC_SetPinMux>
8010021c:	f247 0389 	movw	r3, #28809	; 0x7089
80100220:	f2c0 0301 	movt	r3, #1
80100224:	9301      	str	r3, [sp, #4]
80100226:	f44f 6389 	mov.w	r3, #1096	; 0x448
8010022a:	f2c0 230e 	movt	r3, #526	; 0x20e
8010022e:	9300      	str	r3, [sp, #0]
80100230:	2300      	movs	r3, #0
80100232:	2200      	movs	r2, #0
80100234:	2100      	movs	r1, #0
80100236:	f44f 70de 	mov.w	r0, #444	; 0x1bc
8010023a:	f2c0 200e 	movt	r0, #526	; 0x20e
8010023e:	f7ff ff1c 	bl	8010007a <IOMUXC_SetPinConfig>
80100242:	2300      	movs	r3, #0
80100244:	9301      	str	r3, [sp, #4]
80100246:	f44f 638a 	mov.w	r3, #1104	; 0x450
8010024a:	f2c0 230e 	movt	r3, #526	; 0x20e
8010024e:	9300      	str	r3, [sp, #0]
80100250:	2300      	movs	r3, #0
80100252:	2200      	movs	r2, #0
80100254:	2100      	movs	r1, #0
80100256:	f44f 70e2 	mov.w	r0, #452	; 0x1c4
8010025a:	f2c0 200e 	movt	r0, #526	; 0x20e
8010025e:	f7ff feed 	bl	8010003c <IOMUXC_SetPinMux>
80100262:	f247 0389 	movw	r3, #28809	; 0x7089
80100266:	f2c0 0301 	movt	r3, #1
8010026a:	9301      	str	r3, [sp, #4]
8010026c:	f44f 638a 	mov.w	r3, #1104	; 0x450
80100270:	f2c0 230e 	movt	r3, #526	; 0x20e
80100274:	9300      	str	r3, [sp, #0]
80100276:	2300      	movs	r3, #0
80100278:	2200      	movs	r2, #0
8010027a:	2100      	movs	r1, #0
8010027c:	f44f 70e2 	mov.w	r0, #452	; 0x1c4
80100280:	f2c0 200e 	movt	r0, #526	; 0x20e
80100284:	f7ff fef9 	bl	8010007a <IOMUXC_SetPinConfig>
80100288:	2300      	movs	r3, #0
8010028a:	9301      	str	r3, [sp, #4]
8010028c:	f240 4354 	movw	r3, #1108	; 0x454
80100290:	f2c0 230e 	movt	r3, #526	; 0x20e
80100294:	9300      	str	r3, [sp, #0]
80100296:	2300      	movs	r3, #0
80100298:	2200      	movs	r2, #0
8010029a:	2100      	movs	r1, #0
8010029c:	f44f 70e4 	mov.w	r0, #456	; 0x1c8
801002a0:	f2c0 200e 	movt	r0, #526	; 0x20e
801002a4:	f7ff feca 	bl	8010003c <IOMUXC_SetPinMux>
801002a8:	f247 0389 	movw	r3, #28809	; 0x7089
801002ac:	f2c0 0301 	movt	r3, #1
801002b0:	9301      	str	r3, [sp, #4]
801002b2:	f240 4354 	movw	r3, #1108	; 0x454
801002b6:	f2c0 230e 	movt	r3, #526	; 0x20e
801002ba:	9300      	str	r3, [sp, #0]
801002bc:	2300      	movs	r3, #0
801002be:	2200      	movs	r2, #0
801002c0:	2100      	movs	r1, #0
801002c2:	f44f 70e4 	mov.w	r0, #456	; 0x1c8
801002c6:	f2c0 200e 	movt	r0, #526	; 0x20e
801002ca:	f7ff fed6 	bl	8010007a <IOMUXC_SetPinConfig>
801002ce:	2300      	movs	r3, #0
801002d0:	9301      	str	r3, [sp, #4]
801002d2:	f44f 638b 	mov.w	r3, #1112	; 0x458
801002d6:	f2c0 230e 	movt	r3, #526	; 0x20e
801002da:	9300      	str	r3, [sp, #0]
801002dc:	2300      	movs	r3, #0
801002de:	2200      	movs	r2, #0
801002e0:	2100      	movs	r1, #0
801002e2:	f44f 70e6 	mov.w	r0, #460	; 0x1cc
801002e6:	f2c0 200e 	movt	r0, #526	; 0x20e
801002ea:	f7ff fea7 	bl	8010003c <IOMUXC_SetPinMux>
801002ee:	f247 0389 	movw	r3, #28809	; 0x7089
801002f2:	f2c0 0301 	movt	r3, #1
801002f6:	9301      	str	r3, [sp, #4]
801002f8:	f44f 638b 	mov.w	r3, #1112	; 0x458
801002fc:	f2c0 230e 	movt	r3, #526	; 0x20e
80100300:	9300      	str	r3, [sp, #0]
80100302:	2300      	movs	r3, #0
80100304:	2200      	movs	r2, #0
80100306:	2100      	movs	r1, #0
80100308:	f44f 70e6 	mov.w	r0, #460	; 0x1cc
8010030c:	f2c0 200e 	movt	r0, #526	; 0x20e
80100310:	f7ff feb3 	bl	8010007a <IOMUXC_SetPinConfig>
80100314:	2300      	movs	r3, #0
80100316:	9301      	str	r3, [sp, #4]
80100318:	f240 435c 	movw	r3, #1116	; 0x45c
8010031c:	f2c0 230e 	movt	r3, #526	; 0x20e
80100320:	9300      	str	r3, [sp, #0]
80100322:	2300      	movs	r3, #0
80100324:	2200      	movs	r2, #0
80100326:	2100      	movs	r1, #0
80100328:	f44f 70e8 	mov.w	r0, #464	; 0x1d0
8010032c:	f2c0 200e 	movt	r0, #526	; 0x20e
80100330:	f7ff fe84 	bl	8010003c <IOMUXC_SetPinMux>
80100334:	f247 0389 	movw	r3, #28809	; 0x7089
80100338:	f2c0 0301 	movt	r3, #1
8010033c:	9301      	str	r3, [sp, #4]
8010033e:	f240 435c 	movw	r3, #1116	; 0x45c
80100342:	f2c0 230e 	movt	r3, #526	; 0x20e
80100346:	9300      	str	r3, [sp, #0]
80100348:	2300      	movs	r3, #0
8010034a:	2200      	movs	r2, #0
8010034c:	2100      	movs	r1, #0
8010034e:	f44f 70e8 	mov.w	r0, #464	; 0x1d0
80100352:	f2c0 200e 	movt	r0, #526	; 0x20e
80100356:	f7ff fe90 	bl	8010007a <IOMUXC_SetPinConfig>
8010035a:	2300      	movs	r3, #0
8010035c:	9301      	str	r3, [sp, #4]
8010035e:	f44f 6381 	mov.w	r3, #1032	; 0x408
80100362:	f2c0 230e 	movt	r3, #526	; 0x20e
80100366:	9300      	str	r3, [sp, #0]
80100368:	2302      	movs	r3, #2
8010036a:	f44f 62cf 	mov.w	r2, #1656	; 0x678
8010036e:	f2c0 220e 	movt	r2, #526	; 0x20e
80100372:	2101      	movs	r1, #1
80100374:	f44f 70be 	mov.w	r0, #380	; 0x17c
80100378:	f2c0 200e 	movt	r0, #526	; 0x20e
8010037c:	f7ff fe5e 	bl	8010003c <IOMUXC_SetPinMux>
80100380:	f247 03b9 	movw	r3, #28857	; 0x70b9
80100384:	f2c0 0301 	movt	r3, #1
80100388:	9301      	str	r3, [sp, #4]
8010038a:	f44f 6381 	mov.w	r3, #1032	; 0x408
8010038e:	f2c0 230e 	movt	r3, #526	; 0x20e
80100392:	9300      	str	r3, [sp, #0]
80100394:	2302      	movs	r3, #2
80100396:	f44f 62cf 	mov.w	r2, #1656	; 0x678
8010039a:	f2c0 220e 	movt	r2, #526	; 0x20e
8010039e:	2101      	movs	r1, #1
801003a0:	f44f 70be 	mov.w	r0, #380	; 0x17c
801003a4:	f2c0 200e 	movt	r0, #526	; 0x20e
801003a8:	f7ff fe67 	bl	8010007a <IOMUXC_SetPinConfig>
801003ac:	2300      	movs	r3, #0
801003ae:	9301      	str	r3, [sp, #4]
801003b0:	f240 4304 	movw	r3, #1028	; 0x404
801003b4:	f2c0 230e 	movt	r3, #526	; 0x20e
801003b8:	9300      	str	r3, [sp, #0]
801003ba:	2302      	movs	r3, #2
801003bc:	f44f 62ce 	mov.w	r2, #1648	; 0x670
801003c0:	f2c0 220e 	movt	r2, #526	; 0x20e
801003c4:	2101      	movs	r1, #1
801003c6:	f44f 70bc 	mov.w	r0, #376	; 0x178
801003ca:	f2c0 200e 	movt	r0, #526	; 0x20e
801003ce:	f7ff fe35 	bl	8010003c <IOMUXC_SetPinMux>
801003d2:	f247 0389 	movw	r3, #28809	; 0x7089
801003d6:	f2c0 0301 	movt	r3, #1
801003da:	9301      	str	r3, [sp, #4]
801003dc:	f240 4304 	movw	r3, #1028	; 0x404
801003e0:	f2c0 230e 	movt	r3, #526	; 0x20e
801003e4:	9300      	str	r3, [sp, #0]
801003e6:	2302      	movs	r3, #2
801003e8:	f44f 62ce 	mov.w	r2, #1648	; 0x670
801003ec:	f2c0 220e 	movt	r2, #526	; 0x20e
801003f0:	2101      	movs	r1, #1
801003f2:	f44f 70bc 	mov.w	r0, #376	; 0x178
801003f6:	f2c0 200e 	movt	r0, #526	; 0x20e
801003fa:	f7ff fe3e 	bl	8010007a <IOMUXC_SetPinConfig>
801003fe:	2300      	movs	r3, #0
80100400:	9301      	str	r3, [sp, #4]
80100402:	f240 432c 	movw	r3, #1068	; 0x42c
80100406:	f2c0 230e 	movt	r3, #526	; 0x20e
8010040a:	9300      	str	r3, [sp, #0]
8010040c:	2300      	movs	r3, #0
8010040e:	2200      	movs	r2, #0
80100410:	2101      	movs	r1, #1
80100412:	f44f 70d0 	mov.w	r0, #416	; 0x1a0
80100416:	f2c0 200e 	movt	r0, #526	; 0x20e
8010041a:	f7ff fe0f 	bl	8010003c <IOMUXC_SetPinMux>
8010041e:	f247 0389 	movw	r3, #28809	; 0x7089
80100422:	f2c0 0301 	movt	r3, #1
80100426:	9301      	str	r3, [sp, #4]
80100428:	f240 432c 	movw	r3, #1068	; 0x42c
8010042c:	f2c0 230e 	movt	r3, #526	; 0x20e
80100430:	9300      	str	r3, [sp, #0]
80100432:	2300      	movs	r3, #0
80100434:	2200      	movs	r2, #0
80100436:	2101      	movs	r1, #1
80100438:	f44f 70d0 	mov.w	r0, #416	; 0x1a0
8010043c:	f2c0 200e 	movt	r0, #526	; 0x20e
80100440:	f7ff fe1b 	bl	8010007a <IOMUXC_SetPinConfig>
80100444:	2300      	movs	r3, #0
80100446:	9301      	str	r3, [sp, #4]
80100448:	f240 430c 	movw	r3, #1036	; 0x40c
8010044c:	f2c0 230e 	movt	r3, #526	; 0x20e
80100450:	9300      	str	r3, [sp, #0]
80100452:	2302      	movs	r3, #2
80100454:	f240 627c 	movw	r2, #1660	; 0x67c
80100458:	f2c0 220e 	movt	r2, #526	; 0x20e
8010045c:	2101      	movs	r1, #1
8010045e:	f44f 70c0 	mov.w	r0, #384	; 0x180
80100462:	f2c0 200e 	movt	r0, #526	; 0x20e
80100466:	f7ff fde9 	bl	8010003c <IOMUXC_SetPinMux>
8010046a:	f247 03b9 	movw	r3, #28857	; 0x70b9
8010046e:	f2c0 0301 	movt	r3, #1
80100472:	9301      	str	r3, [sp, #4]
80100474:	f240 430c 	movw	r3, #1036	; 0x40c
80100478:	f2c0 230e 	movt	r3, #526	; 0x20e
8010047c:	9300      	str	r3, [sp, #0]
8010047e:	2302      	movs	r3, #2
80100480:	f240 627c 	movw	r2, #1660	; 0x67c
80100484:	f2c0 220e 	movt	r2, #526	; 0x20e
80100488:	2101      	movs	r1, #1
8010048a:	f44f 70c0 	mov.w	r0, #384	; 0x180
8010048e:	f2c0 200e 	movt	r0, #526	; 0x20e
80100492:	f7ff fdf2 	bl	8010007a <IOMUXC_SetPinConfig>
80100496:	2300      	movs	r3, #0
80100498:	9301      	str	r3, [sp, #4]
8010049a:	f44f 6382 	mov.w	r3, #1040	; 0x410
8010049e:	f2c0 230e 	movt	r3, #526	; 0x20e
801004a2:	9300      	str	r3, [sp, #0]
801004a4:	2302      	movs	r3, #2
801004a6:	f44f 62d0 	mov.w	r2, #1664	; 0x680
801004aa:	f2c0 220e 	movt	r2, #526	; 0x20e
801004ae:	2101      	movs	r1, #1
801004b0:	f44f 70c2 	mov.w	r0, #388	; 0x184
801004b4:	f2c0 200e 	movt	r0, #526	; 0x20e
801004b8:	f7ff fdc0 	bl	8010003c <IOMUXC_SetPinMux>
801004bc:	f247 03b9 	movw	r3, #28857	; 0x70b9
801004c0:	f2c0 0301 	movt	r3, #1
801004c4:	9301      	str	r3, [sp, #4]
801004c6:	f44f 6382 	mov.w	r3, #1040	; 0x410
801004ca:	f2c0 230e 	movt	r3, #526	; 0x20e
801004ce:	9300      	str	r3, [sp, #0]
801004d0:	2302      	movs	r3, #2
801004d2:	f44f 62d0 	mov.w	r2, #1664	; 0x680
801004d6:	f2c0 220e 	movt	r2, #526	; 0x20e
801004da:	2101      	movs	r1, #1
801004dc:	f44f 70c2 	mov.w	r0, #388	; 0x184
801004e0:	f2c0 200e 	movt	r0, #526	; 0x20e
801004e4:	f7ff fdc9 	bl	8010007a <IOMUXC_SetPinConfig>
801004e8:	2300      	movs	r3, #0
801004ea:	9301      	str	r3, [sp, #4]
801004ec:	f240 4314 	movw	r3, #1044	; 0x414
801004f0:	f2c0 230e 	movt	r3, #526	; 0x20e
801004f4:	9300      	str	r3, [sp, #0]
801004f6:	2301      	movs	r3, #1
801004f8:	f240 6284 	movw	r2, #1668	; 0x684
801004fc:	f2c0 220e 	movt	r2, #526	; 0x20e
80100500:	2101      	movs	r1, #1
80100502:	f44f 70c4 	mov.w	r0, #392	; 0x188
80100506:	f2c0 200e 	movt	r0, #526	; 0x20e
8010050a:	f7ff fd97 	bl	8010003c <IOMUXC_SetPinMux>
8010050e:	f247 03b9 	movw	r3, #28857	; 0x70b9
80100512:	f2c0 0301 	movt	r3, #1
80100516:	9301      	str	r3, [sp, #4]
80100518:	f240 4314 	movw	r3, #1044	; 0x414
8010051c:	f2c0 230e 	movt	r3, #526	; 0x20e
80100520:	9300      	str	r3, [sp, #0]
80100522:	2301      	movs	r3, #1
80100524:	f240 6284 	movw	r2, #1668	; 0x684
80100528:	f2c0 220e 	movt	r2, #526	; 0x20e
8010052c:	2101      	movs	r1, #1
8010052e:	f44f 70c4 	mov.w	r0, #392	; 0x188
80100532:	f2c0 200e 	movt	r0, #526	; 0x20e
80100536:	f7ff fda0 	bl	8010007a <IOMUXC_SetPinConfig>
8010053a:	2300      	movs	r3, #0
8010053c:	9301      	str	r3, [sp, #4]
8010053e:	f44f 6383 	mov.w	r3, #1048	; 0x418
80100542:	f2c0 230e 	movt	r3, #526	; 0x20e
80100546:	9300      	str	r3, [sp, #0]
80100548:	2302      	movs	r3, #2
8010054a:	f44f 62d1 	mov.w	r2, #1672	; 0x688
8010054e:	f2c0 220e 	movt	r2, #526	; 0x20e
80100552:	2101      	movs	r1, #1
80100554:	f44f 70c6 	mov.w	r0, #396	; 0x18c
80100558:	f2c0 200e 	movt	r0, #526	; 0x20e
8010055c:	f7ff fd6e 	bl	8010003c <IOMUXC_SetPinMux>
80100560:	f247 03b9 	movw	r3, #28857	; 0x70b9
80100564:	f2c0 0301 	movt	r3, #1
80100568:	9301      	str	r3, [sp, #4]
8010056a:	f44f 6383 	mov.w	r3, #1048	; 0x418
8010056e:	f2c0 230e 	movt	r3, #526	; 0x20e
80100572:	9300      	str	r3, [sp, #0]
80100574:	2302      	movs	r3, #2
80100576:	f44f 62d1 	mov.w	r2, #1672	; 0x688
8010057a:	f2c0 220e 	movt	r2, #526	; 0x20e
8010057e:	2101      	movs	r1, #1
80100580:	f44f 70c6 	mov.w	r0, #396	; 0x18c
80100584:	f2c0 200e 	movt	r0, #526	; 0x20e
80100588:	f7ff fd77 	bl	8010007a <IOMUXC_SetPinConfig>
8010058c:	2300      	movs	r3, #0
8010058e:	9301      	str	r3, [sp, #4]
80100590:	f240 431c 	movw	r3, #1052	; 0x41c
80100594:	f2c0 230e 	movt	r3, #526	; 0x20e
80100598:	9300      	str	r3, [sp, #0]
8010059a:	2301      	movs	r3, #1
8010059c:	f240 628c 	movw	r2, #1676	; 0x68c
801005a0:	f2c0 220e 	movt	r2, #526	; 0x20e
801005a4:	2101      	movs	r1, #1
801005a6:	f44f 70c8 	mov.w	r0, #400	; 0x190
801005aa:	f2c0 200e 	movt	r0, #526	; 0x20e
801005ae:	f7ff fd45 	bl	8010003c <IOMUXC_SetPinMux>
801005b2:	f247 03b9 	movw	r3, #28857	; 0x70b9
801005b6:	f2c0 0301 	movt	r3, #1
801005ba:	9301      	str	r3, [sp, #4]
801005bc:	f240 431c 	movw	r3, #1052	; 0x41c
801005c0:	f2c0 230e 	movt	r3, #526	; 0x20e
801005c4:	9300      	str	r3, [sp, #0]
801005c6:	2301      	movs	r3, #1
801005c8:	f240 628c 	movw	r2, #1676	; 0x68c
801005cc:	f2c0 220e 	movt	r2, #526	; 0x20e
801005d0:	2101      	movs	r1, #1
801005d2:	f44f 70c8 	mov.w	r0, #400	; 0x190
801005d6:	f2c0 200e 	movt	r0, #526	; 0x20e
801005da:	f7ff fd4e 	bl	8010007a <IOMUXC_SetPinConfig>
801005de:	2300      	movs	r3, #0
801005e0:	9301      	str	r3, [sp, #4]
801005e2:	f44f 6384 	mov.w	r3, #1056	; 0x420
801005e6:	f2c0 230e 	movt	r3, #526	; 0x20e
801005ea:	9300      	str	r3, [sp, #0]
801005ec:	2301      	movs	r3, #1
801005ee:	f44f 62d2 	mov.w	r2, #1680	; 0x690
801005f2:	f2c0 220e 	movt	r2, #526	; 0x20e
801005f6:	2101      	movs	r1, #1
801005f8:	f44f 70ca 	mov.w	r0, #404	; 0x194
801005fc:	f2c0 200e 	movt	r0, #526	; 0x20e
80100600:	f7ff fd1c 	bl	8010003c <IOMUXC_SetPinMux>
80100604:	f247 03b9 	movw	r3, #28857	; 0x70b9
80100608:	f2c0 0301 	movt	r3, #1
8010060c:	9301      	str	r3, [sp, #4]
8010060e:	f44f 6384 	mov.w	r3, #1056	; 0x420
80100612:	f2c0 230e 	movt	r3, #526	; 0x20e
80100616:	9300      	str	r3, [sp, #0]
80100618:	2301      	movs	r3, #1
8010061a:	f44f 62d2 	mov.w	r2, #1680	; 0x690
8010061e:	f2c0 220e 	movt	r2, #526	; 0x20e
80100622:	2101      	movs	r1, #1
80100624:	f44f 70ca 	mov.w	r0, #404	; 0x194
80100628:	f2c0 200e 	movt	r0, #526	; 0x20e
8010062c:	f7ff fd25 	bl	8010007a <IOMUXC_SetPinConfig>
80100630:	2300      	movs	r3, #0
80100632:	9301      	str	r3, [sp, #4]
80100634:	f240 4324 	movw	r3, #1060	; 0x424
80100638:	f2c0 230e 	movt	r3, #526	; 0x20e
8010063c:	9300      	str	r3, [sp, #0]
8010063e:	2301      	movs	r3, #1
80100640:	f240 6294 	movw	r2, #1684	; 0x694
80100644:	f2c0 220e 	movt	r2, #526	; 0x20e
80100648:	2101      	movs	r1, #1
8010064a:	f44f 70cc 	mov.w	r0, #408	; 0x198
8010064e:	f2c0 200e 	movt	r0, #526	; 0x20e
80100652:	f7ff fcf3 	bl	8010003c <IOMUXC_SetPinMux>
80100656:	f24f 03b9 	movw	r3, #61625	; 0xf0b9
8010065a:	f2c0 0301 	movt	r3, #1
8010065e:	9301      	str	r3, [sp, #4]
80100660:	f240 4324 	movw	r3, #1060	; 0x424
80100664:	f2c0 230e 	movt	r3, #526	; 0x20e
80100668:	9300      	str	r3, [sp, #0]
8010066a:	2301      	movs	r3, #1
8010066c:	f240 6294 	movw	r2, #1684	; 0x694
80100670:	f2c0 220e 	movt	r2, #526	; 0x20e
80100674:	2101      	movs	r1, #1
80100676:	f44f 70cc 	mov.w	r0, #408	; 0x198
8010067a:	f2c0 200e 	movt	r0, #526	; 0x20e
8010067e:	f7ff fcfc 	bl	8010007a <IOMUXC_SetPinConfig>
80100682:	2300      	movs	r3, #0
80100684:	9301      	str	r3, [sp, #4]
80100686:	f44f 6385 	mov.w	r3, #1064	; 0x428
8010068a:	f2c0 230e 	movt	r3, #526	; 0x20e
8010068e:	9300      	str	r3, [sp, #0]
80100690:	2301      	movs	r3, #1
80100692:	f44f 62d3 	mov.w	r2, #1688	; 0x698
80100696:	f2c0 220e 	movt	r2, #526	; 0x20e
8010069a:	2101      	movs	r1, #1
8010069c:	f44f 70ce 	mov.w	r0, #412	; 0x19c
801006a0:	f2c0 200e 	movt	r0, #526	; 0x20e
801006a4:	f7ff fcca 	bl	8010003c <IOMUXC_SetPinMux>
801006a8:	f247 03b9 	movw	r3, #28857	; 0x70b9
801006ac:	f2c0 0301 	movt	r3, #1
801006b0:	9301      	str	r3, [sp, #4]
801006b2:	f44f 6385 	mov.w	r3, #1064	; 0x428
801006b6:	f2c0 230e 	movt	r3, #526	; 0x20e
801006ba:	9300      	str	r3, [sp, #0]
801006bc:	2301      	movs	r3, #1
801006be:	f44f 62d3 	mov.w	r2, #1688	; 0x698
801006c2:	f2c0 220e 	movt	r2, #526	; 0x20e
801006c6:	2101      	movs	r1, #1
801006c8:	f44f 70ce 	mov.w	r0, #412	; 0x19c
801006cc:	f2c0 200e 	movt	r0, #526	; 0x20e
801006d0:	f7ff fcd3 	bl	8010007a <IOMUXC_SetPinConfig>
801006d4:	bf00      	nop
801006d6:	46bd      	mov	sp, r7
801006d8:	bd80      	pop	{r7, pc}

801006da <delay>:
801006da:	b480      	push	{r7}
801006dc:	b083      	sub	sp, #12
801006de:	af00      	add	r7, sp, #0
801006e0:	6078      	str	r0, [r7, #4]
801006e2:	bf00      	nop
801006e4:	687b      	ldr	r3, [r7, #4]
801006e6:	1e5a      	subs	r2, r3, #1
801006e8:	607a      	str	r2, [r7, #4]
801006ea:	2b00      	cmp	r3, #0
801006ec:	d1fa      	bne.n	801006e4 <delay+0xa>
801006ee:	bf00      	nop
801006f0:	370c      	adds	r7, #12
801006f2:	46bd      	mov	sp, r7
801006f4:	f85d 7b04 	ldr.w	r7, [sp], #4
801006f8:	4770      	bx	lr

801006fa <boot_clk_gate_init>:
801006fa:	b480      	push	{r7}
801006fc:	af00      	add	r7, sp, #0
801006fe:	f44f 4380 	mov.w	r3, #16384	; 0x4000
80100702:	f2c0 230c 	movt	r3, #524	; 0x20c
80100706:	f04f 32ff 	mov.w	r2, #4294967295	; 0xffffffff
8010070a:	669a      	str	r2, [r3, #104]	; 0x68
8010070c:	f44f 4380 	mov.w	r3, #16384	; 0x4000
80100710:	f2c0 230c 	movt	r3, #524	; 0x20c
80100714:	f04f 32ff 	mov.w	r2, #4294967295	; 0xffffffff
80100718:	66da      	str	r2, [r3, #108]	; 0x6c
8010071a:	f44f 4380 	mov.w	r3, #16384	; 0x4000
8010071e:	f2c0 230c 	movt	r3, #524	; 0x20c
80100722:	f04f 32ff 	mov.w	r2, #4294967295	; 0xffffffff
80100726:	671a      	str	r2, [r3, #112]	; 0x70
80100728:	f44f 4380 	mov.w	r3, #16384	; 0x4000
8010072c:	f2c0 230c 	movt	r3, #524	; 0x20c
80100730:	f04f 32ff 	mov.w	r2, #4294967295	; 0xffffffff
80100734:	675a      	str	r2, [r3, #116]	; 0x74
80100736:	f44f 4380 	mov.w	r3, #16384	; 0x4000
8010073a:	f2c0 230c 	movt	r3, #524	; 0x20c
8010073e:	f04f 32ff 	mov.w	r2, #4294967295	; 0xffffffff
80100742:	679a      	str	r2, [r3, #120]	; 0x78
80100744:	f44f 4380 	mov.w	r3, #16384	; 0x4000
80100748:	f2c0 230c 	movt	r3, #524	; 0x20c
8010074c:	f04f 32ff 	mov.w	r2, #4294967295	; 0xffffffff
80100750:	67da      	str	r2, [r3, #124]	; 0x7c
80100752:	f44f 4380 	mov.w	r3, #16384	; 0x4000
80100756:	f2c0 230c 	movt	r3, #524	; 0x20c
8010075a:	f04f 32ff 	mov.w	r2, #4294967295	; 0xffffffff
8010075e:	f8c3 2080 	str.w	r2, [r3, #128]	; 0x80
80100762:	bf00      	nop
80100764:	46bd      	mov	sp, r7
80100766:	f85d 7b04 	ldr.w	r7, [sp], #4
8010076a:	4770      	bx	lr

8010076c <boot_clk_init>:
8010076c:	b480      	push	{r7}
8010076e:	af00      	add	r7, sp, #0
80100770:	f44f 4380 	mov.w	r3, #16384	; 0x4000
80100774:	f2c0 230c 	movt	r3, #524	; 0x20c
80100778:	68db      	ldr	r3, [r3, #12]
8010077a:	f003 0304 	and.w	r3, r3, #4
8010077e:	2b00      	cmp	r3, #0
80100780:	d117      	bne.n	801007b2 <boot_clk_init+0x46>
80100782:	f44f 4380 	mov.w	r3, #16384	; 0x4000
80100786:	f2c0 230c 	movt	r3, #524	; 0x20c
8010078a:	f44f 4280 	mov.w	r2, #16384	; 0x4000
8010078e:	f2c0 220c 	movt	r2, #524	; 0x20c
80100792:	68d2      	ldr	r2, [r2, #12]
80100794:	f422 7280 	bic.w	r2, r2, #256	; 0x100
80100798:	60da      	str	r2, [r3, #12]
8010079a:	f44f 4380 	mov.w	r3, #16384	; 0x4000
8010079e:	f2c0 230c 	movt	r3, #524	; 0x20c
801007a2:	f44f 4280 	mov.w	r2, #16384	; 0x4000
801007a6:	f2c0 220c 	movt	r2, #524	; 0x20c
801007aa:	68d2      	ldr	r2, [r2, #12]
801007ac:	f042 0204 	orr.w	r2, r2, #4
801007b0:	60da      	str	r2, [r3, #12]
801007b2:	f44f 4300 	mov.w	r3, #32768	; 0x8000
801007b6:	f2c0 230c 	movt	r3, #524	; 0x20c
801007ba:	f242 0258 	movw	r2, #8280	; 0x2058
801007be:	601a      	str	r2, [r3, #0]
801007c0:	f44f 4380 	mov.w	r3, #16384	; 0x4000
801007c4:	f2c0 230c 	movt	r3, #524	; 0x20c
801007c8:	f44f 4280 	mov.w	r2, #16384	; 0x4000
801007cc:	f2c0 220c 	movt	r2, #524	; 0x20c
801007d0:	68d2      	ldr	r2, [r2, #12]
801007d2:	f022 0204 	bic.w	r2, r2, #4
801007d6:	60da      	str	r2, [r3, #12]
801007d8:	f44f 4380 	mov.w	r3, #16384	; 0x4000
801007dc:	f2c0 230c 	movt	r3, #524	; 0x20c
801007e0:	2201      	movs	r2, #1
801007e2:	611a      	str	r2, [r3, #16]
801007e4:	f44f 4300 	mov.w	r3, #32768	; 0x8000
801007e8:	f2c0 230c 	movt	r3, #524	; 0x20c
801007ec:	f44f 4200 	mov.w	r2, #32768	; 0x8000
801007f0:	f2c0 220c 	movt	r2, #524	; 0x20c
801007f4:	f8d2 2100 	ldr.w	r2, [r2, #256]	; 0x100
801007f8:	f002 32c0 	and.w	r2, r2, #3233857728	; 0xc0c0c0c0
801007fc:	f8c3 2100 	str.w	r2, [r3, #256]	; 0x100
80100800:	f44f 4200 	mov.w	r2, #32768	; 0x8000
80100804:	f2c0 220c 	movt	r2, #524	; 0x20c
80100808:	f44f 4300 	mov.w	r3, #32768	; 0x8000
8010080c:	f2c0 230c 	movt	r3, #524	; 0x20c
80100810:	f8d3 1100 	ldr.w	r1, [r3, #256]	; 0x100
80100814:	f241 031b 	movw	r3, #4123	; 0x101b
80100818:	f2c3 0318 	movt	r3, #12312	; 0x3018
8010081c:	430b      	orrs	r3, r1
8010081e:	f8c2 3100 	str.w	r3, [r2, #256]	; 0x100
80100822:	f44f 4300 	mov.w	r3, #32768	; 0x8000
80100826:	f2c0 230c 	movt	r3, #524	; 0x20c
8010082a:	f44f 4200 	mov.w	r2, #32768	; 0x8000
8010082e:	f2c0 220c 	movt	r2, #524	; 0x20c
80100832:	f8d2 20f0 	ldr.w	r2, [r2, #240]	; 0xf0
80100836:	f002 32c0 	and.w	r2, r2, #3233857728	; 0xc0c0c0c0
8010083a:	f8c3 20f0 	str.w	r2, [r3, #240]	; 0xf0
8010083e:	f44f 4200 	mov.w	r2, #32768	; 0x8000
80100842:	f2c0 220c 	movt	r2, #524	; 0x20c
80100846:	f44f 4300 	mov.w	r3, #32768	; 0x8000
8010084a:	f2c0 230c 	movt	r3, #524	; 0x20c
8010084e:	f8d3 10f0 	ldr.w	r1, [r3, #240]	; 0xf0
80100852:	f241 030c 	movw	r3, #4108	; 0x100c
80100856:	f2c1 3311 	movt	r3, #4881	; 0x1311
8010085a:	430b      	orrs	r3, r1
8010085c:	f8c2 30f0 	str.w	r3, [r2, #240]	; 0xf0
80100860:	f44f 4380 	mov.w	r3, #16384	; 0x4000
80100864:	f2c0 230c 	movt	r3, #524	; 0x20c
80100868:	f44f 4280 	mov.w	r2, #16384	; 0x4000
8010086c:	f2c0 220c 	movt	r2, #524	; 0x20c
80100870:	6992      	ldr	r2, [r2, #24]
80100872:	f422 02d8 	bic.w	r2, r2, #7077888	; 0x6c0000
80100876:	619a      	str	r2, [r3, #24]
80100878:	f44f 4380 	mov.w	r3, #16384	; 0x4000
8010087c:	f2c0 230c 	movt	r3, #524	; 0x20c
80100880:	f44f 4280 	mov.w	r2, #16384	; 0x4000
80100884:	f2c0 220c 	movt	r2, #524	; 0x20c
80100888:	6992      	ldr	r2, [r2, #24]
8010088a:	f442 1210 	orr.w	r2, r2, #2359296	; 0x240000
8010088e:	619a      	str	r2, [r3, #24]
80100890:	f44f 4380 	mov.w	r3, #16384	; 0x4000
80100894:	f2c0 230c 	movt	r3, #524	; 0x20c
80100898:	f44f 4280 	mov.w	r2, #16384	; 0x4000
8010089c:	f2c0 220c 	movt	r2, #524	; 0x20c
801008a0:	6952      	ldr	r2, [r2, #20]
801008a2:	f022 62c0 	bic.w	r2, r2, #100663296	; 0x6000000
801008a6:	615a      	str	r2, [r3, #20]
801008a8:	f44f 4380 	mov.w	r3, #16384	; 0x4000
801008ac:	f2c0 230c 	movt	r3, #524	; 0x20c
801008b0:	f44f 4280 	mov.w	r2, #16384	; 0x4000
801008b4:	f2c0 220c 	movt	r2, #524	; 0x20c
801008b8:	6952      	ldr	r2, [r2, #20]
801008ba:	615a      	str	r2, [r3, #20]
801008bc:	f44f 4280 	mov.w	r2, #16384	; 0x4000
801008c0:	f2c0 220c 	movt	r2, #524	; 0x20c
801008c4:	f44f 4380 	mov.w	r3, #16384	; 0x4000
801008c8:	f2c0 230c 	movt	r3, #524	; 0x20c
801008cc:	695b      	ldr	r3, [r3, #20]
801008ce:	f423 23e0 	bic.w	r3, r3, #458752	; 0x70000
801008d2:	f423 7340 	bic.w	r3, r3, #768	; 0x300
801008d6:	6153      	str	r3, [r2, #20]
801008d8:	f44f 4280 	mov.w	r2, #16384	; 0x4000
801008dc:	f2c0 220c 	movt	r2, #524	; 0x20c
801008e0:	f44f 4380 	mov.w	r3, #16384	; 0x4000
801008e4:	f2c0 230c 	movt	r3, #524	; 0x20c
801008e8:	695b      	ldr	r3, [r3, #20]
801008ea:	f443 3380 	orr.w	r3, r3, #65536	; 0x10000
801008ee:	f443 7380 	orr.w	r3, r3, #256	; 0x100
801008f2:	6153      	str	r3, [r2, #20]
801008f4:	f44f 4280 	mov.w	r2, #16384	; 0x4000
801008f8:	f2c0 220c 	movt	r2, #524	; 0x20c
801008fc:	f44f 4380 	mov.w	r3, #16384	; 0x4000
80100900:	f2c0 230c 	movt	r3, #524	; 0x20c
80100904:	695b      	ldr	r3, [r3, #20]
80100906:	f023 5360 	bic.w	r3, r3, #939524096	; 0x38000000
8010090a:	f023 0387 	bic.w	r3, r3, #135	; 0x87
8010090e:	6153      	str	r3, [r2, #20]
80100910:	f44f 4380 	mov.w	r3, #16384	; 0x4000
80100914:	f2c0 230c 	movt	r3, #524	; 0x20c
80100918:	f44f 4280 	mov.w	r2, #16384	; 0x4000
8010091c:	f2c0 220c 	movt	r2, #524	; 0x20c
80100920:	6952      	ldr	r2, [r2, #20]
80100922:	615a      	str	r2, [r3, #20]
80100924:	bf00      	nop
80100926:	f44f 4380 	mov.w	r3, #16384	; 0x4000
8010092a:	f2c0 230c 	movt	r3, #524	; 0x20c
8010092e:	6c9b      	ldr	r3, [r3, #72]	; 0x48
80100930:	f003 032f 	and.w	r3, r3, #47	; 0x2f
80100934:	2b00      	cmp	r3, #0
80100936:	d1f6      	bne.n	80100926 <boot_clk_init+0x1ba>
80100938:	f44f 4380 	mov.w	r3, #16384	; 0x4000
8010093c:	f2c0 230c 	movt	r3, #524	; 0x20c
80100940:	f44f 4280 	mov.w	r2, #16384	; 0x4000
80100944:	f2c0 220c 	movt	r2, #524	; 0x20c
80100948:	68d2      	ldr	r2, [r2, #12]
8010094a:	f022 0201 	bic.w	r2, r2, #1
8010094e:	60da      	str	r2, [r3, #12]
80100950:	f44f 4380 	mov.w	r3, #16384	; 0x4000
80100954:	f2c0 230c 	movt	r3, #524	; 0x20c
80100958:	f44f 4280 	mov.w	r2, #16384	; 0x4000
8010095c:	f2c0 220c 	movt	r2, #524	; 0x20c
80100960:	6a52      	ldr	r2, [r2, #36]	; 0x24
80100962:	f022 0240 	bic.w	r2, r2, #64	; 0x40
80100966:	625a      	str	r2, [r3, #36]	; 0x24
80100968:	f44f 4380 	mov.w	r3, #16384	; 0x4000
8010096c:	f2c0 230c 	movt	r3, #524	; 0x20c
80100970:	f44f 4280 	mov.w	r2, #16384	; 0x4000
80100974:	f2c0 220c 	movt	r2, #524	; 0x20c
80100978:	6a52      	ldr	r2, [r2, #36]	; 0x24
8010097a:	f022 023f 	bic.w	r2, r2, #63	; 0x3f
8010097e:	625a      	str	r2, [r3, #36]	; 0x24
80100980:	f44f 4380 	mov.w	r3, #16384	; 0x4000
80100984:	f2c0 230c 	movt	r3, #524	; 0x20c
80100988:	f44f 4280 	mov.w	r2, #16384	; 0x4000
8010098c:	f2c0 220c 	movt	r2, #524	; 0x20c
80100990:	69d2      	ldr	r2, [r2, #28]
80100992:	f022 0240 	bic.w	r2, r2, #64	; 0x40
80100996:	61da      	str	r2, [r3, #28]
80100998:	f44f 4380 	mov.w	r3, #16384	; 0x4000
8010099c:	f2c0 230c 	movt	r3, #524	; 0x20c
801009a0:	f44f 4280 	mov.w	r2, #16384	; 0x4000
801009a4:	f2c0 220c 	movt	r2, #524	; 0x20c
801009a8:	69d2      	ldr	r2, [r2, #28]
801009aa:	f022 023f 	bic.w	r2, r2, #63	; 0x3f
801009ae:	61da      	str	r2, [r3, #28]
801009b0:	bf00      	nop
801009b2:	46bd      	mov	sp, r7
801009b4:	f85d 7b04 	ldr.w	r7, [sp], #4
801009b8:	4770      	bx	lr

801009ba <main>:
801009ba:	b580      	push	{r7, lr}
801009bc:	b082      	sub	sp, #8
801009be:	af00      	add	r7, sp, #0
801009c0:	f7ff fb6e 	bl	801000a0 <init_pins>
801009c4:	f000 f9b6 	bl	80100d34 <led_gpio_init>
801009c8:	2000      	movs	r0, #0
801009ca:	f000 f9c6 	bl	80100d5a <led_ctl>
801009ce:	f7ff fe94 	bl	801006fa <boot_clk_gate_init>
801009d2:	f7ff fecb 	bl	8010076c <boot_clk_init>
801009d6:	f000 fb4e 	bl	80101076 <uart1_init>
801009da:	2061      	movs	r0, #97	; 0x61
801009dc:	f000 fbea 	bl	801011b4 <putchar>
801009e0:	2062      	movs	r0, #98	; 0x62
801009e2:	f000 fbe7 	bl	801011b4 <putchar>
801009e6:	2063      	movs	r0, #99	; 0x63
801009e8:	f000 fbe4 	bl	801011b4 <putchar>
801009ec:	f643 6034 	movw	r0, #15924	; 0x3e34
801009f0:	f2c8 0010 	movt	r0, #32784	; 0x8010
801009f4:	f000 fc0e 	bl	80101214 <puts>
801009f8:	f44f 4380 	mov.w	r3, #16384	; 0x4000
801009fc:	f2c0 230c 	movt	r3, #524	; 0x20c
80100a00:	6a5b      	ldr	r3, [r3, #36]	; 0x24
80100a02:	4619      	mov	r1, r3
80100a04:	f643 6044 	movw	r0, #15940	; 0x3e44
80100a08:	f2c8 0010 	movt	r0, #32784	; 0x8010
80100a0c:	f000 fd8f 	bl	8010152e <printf>
80100a10:	f643 605c 	movw	r0, #15964	; 0x3e5c
80100a14:	f2c8 0010 	movt	r0, #32784	; 0x8010
80100a18:	f000 fd89 	bl	8010152e <printf>
80100a1c:	f643 6068 	movw	r0, #15976	; 0x3e68
80100a20:	f2c8 0010 	movt	r0, #32784	; 0x8010
80100a24:	f000 fd83 	bl	8010152e <printf>
80100a28:	f643 6078 	movw	r0, #15992	; 0x3e78
80100a2c:	f2c8 0010 	movt	r0, #32784	; 0x8010
80100a30:	f000 fd7d 	bl	8010152e <printf>
80100a34:	f000 fbd8 	bl	801011e8 <getchar>
80100a38:	4603      	mov	r3, r0
80100a3a:	70fb      	strb	r3, [r7, #3]
80100a3c:	78fb      	ldrb	r3, [r7, #3]
80100a3e:	2b31      	cmp	r3, #49	; 0x31
80100a40:	f040 80b7 	bne.w	80100bb2 <main+0x1f8>
80100a44:	f643 6094 	movw	r0, #16020	; 0x3e94
80100a48:	f2c8 0010 	movt	r0, #32784	; 0x8010
80100a4c:	f000 fd6f 	bl	8010152e <printf>
80100a50:	f000 fbca 	bl	801011e8 <getchar>
80100a54:	4603      	mov	r3, r0
80100a56:	70fb      	strb	r3, [r7, #3]
80100a58:	78fb      	ldrb	r3, [r7, #3]
80100a5a:	2b63      	cmp	r3, #99	; 0x63
80100a5c:	f040 80a2 	bne.w	80100ba4 <main+0x1ea>
80100a60:	f643 60c8 	movw	r0, #16072	; 0x3ec8
80100a64:	f2c8 0010 	movt	r0, #32784	; 0x8010
80100a68:	f000 fd61 	bl	8010152e <printf>
80100a6c:	2000      	movs	r0, #0
80100a6e:	f2c0 2019 	movt	r0, #537	; 0x219
80100a72:	f001 fe09 	bl	80102688 <sd_init>
80100a76:	f44f 5280 	mov.w	r2, #4096	; 0x1000
80100a7a:	2100      	movs	r1, #0
80100a7c:	f646 4000 	movw	r0, #27648	; 0x6c00
80100a80:	f2c8 0010 	movt	r0, #32784	; 0x8010
80100a84:	f000 fe23 	bl	801016ce <memset>
80100a88:	2302      	movs	r3, #2
80100a8a:	2202      	movs	r2, #2
80100a8c:	f646 4100 	movw	r1, #27648	; 0x6c00
80100a90:	f2c8 0110 	movt	r1, #32784	; 0x8010
80100a94:	2000      	movs	r0, #0
80100a96:	f2c0 2019 	movt	r0, #537	; 0x219
80100a9a:	f002 f8c6 	bl	80102c2a <sd_read_blocks>
80100a9e:	f643 60d8 	movw	r0, #16088	; 0x3ed8
80100aa2:	f2c8 0010 	movt	r0, #32784	; 0x8010
80100aa6:	f000 fd42 	bl	8010152e <printf>
80100aaa:	2300      	movs	r3, #0
80100aac:	607b      	str	r3, [r7, #4]
80100aae:	e01c      	b.n	80100aea <main+0x130>
80100ab0:	f646 4300 	movw	r3, #27648	; 0x6c00
80100ab4:	f2c8 0310 	movt	r3, #32784	; 0x8010
80100ab8:	687a      	ldr	r2, [r7, #4]
80100aba:	4413      	add	r3, r2
80100abc:	781b      	ldrb	r3, [r3, #0]
80100abe:	4619      	mov	r1, r3
80100ac0:	f643 60fc 	movw	r0, #16124	; 0x3efc
80100ac4:	f2c8 0010 	movt	r0, #32784	; 0x8010
80100ac8:	f000 fd31 	bl	8010152e <printf>
80100acc:	687b      	ldr	r3, [r7, #4]
80100ace:	3301      	adds	r3, #1
80100ad0:	f003 030f 	and.w	r3, r3, #15
80100ad4:	2b00      	cmp	r3, #0
80100ad6:	d105      	bne.n	80100ae4 <main+0x12a>
80100ad8:	f643 7004 	movw	r0, #16132	; 0x3f04
80100adc:	f2c8 0010 	movt	r0, #32784	; 0x8010
80100ae0:	f000 fd25 	bl	8010152e <printf>
80100ae4:	687b      	ldr	r3, [r7, #4]
80100ae6:	3301      	adds	r3, #1
80100ae8:	607b      	str	r3, [r7, #4]
80100aea:	687b      	ldr	r3, [r7, #4]
80100aec:	f5b3 6f80 	cmp.w	r3, #1024	; 0x400
80100af0:	dbde      	blt.n	80100ab0 <main+0xf6>
80100af2:	f643 7008 	movw	r0, #16136	; 0x3f08
80100af6:	f2c8 0010 	movt	r0, #32784	; 0x8010
80100afa:	f000 fd18 	bl	8010152e <printf>
80100afe:	498c      	ldr	r1, [pc, #560]	; (80100d30 <main+0x376>)
80100b00:	230e      	movs	r3, #14
80100b02:	2202      	movs	r2, #2
80100b04:	2000      	movs	r0, #0
80100b06:	f2c0 2019 	movt	r0, #537	; 0x219
80100b0a:	f002 f92d 	bl	80102d68 <sd_write_blocks>
80100b0e:	f643 7020 	movw	r0, #16160	; 0x3f20
80100b12:	f2c8 0010 	movt	r0, #32784	; 0x8010
80100b16:	f000 fd0a 	bl	8010152e <printf>
80100b1a:	f44f 5280 	mov.w	r2, #4096	; 0x1000
80100b1e:	2100      	movs	r1, #0
80100b20:	f646 4000 	movw	r0, #27648	; 0x6c00
80100b24:	f2c8 0010 	movt	r0, #32784	; 0x8010
80100b28:	f000 fdd1 	bl	801016ce <memset>
80100b2c:	2302      	movs	r3, #2
80100b2e:	2202      	movs	r2, #2
80100b30:	f646 4100 	movw	r1, #27648	; 0x6c00
80100b34:	f2c8 0110 	movt	r1, #32784	; 0x8010
80100b38:	2000      	movs	r0, #0
80100b3a:	f2c0 2019 	movt	r0, #537	; 0x219
80100b3e:	f002 f874 	bl	80102c2a <sd_read_blocks>
80100b42:	f643 706c 	movw	r0, #16236	; 0x3f6c
80100b46:	f2c8 0010 	movt	r0, #32784	; 0x8010
80100b4a:	f000 fcf0 	bl	8010152e <printf>
80100b4e:	2300      	movs	r3, #0
80100b50:	607b      	str	r3, [r7, #4]
80100b52:	e01c      	b.n	80100b8e <main+0x1d4>
80100b54:	f646 4300 	movw	r3, #27648	; 0x6c00
80100b58:	f2c8 0310 	movt	r3, #32784	; 0x8010
80100b5c:	687a      	ldr	r2, [r7, #4]
80100b5e:	4413      	add	r3, r2
80100b60:	781b      	ldrb	r3, [r3, #0]
80100b62:	4619      	mov	r1, r3
80100b64:	f643 60fc 	movw	r0, #16124	; 0x3efc
80100b68:	f2c8 0010 	movt	r0, #32784	; 0x8010
80100b6c:	f000 fcdf 	bl	8010152e <printf>
80100b70:	687b      	ldr	r3, [r7, #4]
80100b72:	3301      	adds	r3, #1
80100b74:	f003 030f 	and.w	r3, r3, #15
80100b78:	2b00      	cmp	r3, #0
80100b7a:	d105      	bne.n	80100b88 <main+0x1ce>
80100b7c:	f643 7004 	movw	r0, #16132	; 0x3f04
80100b80:	f2c8 0010 	movt	r0, #32784	; 0x8010
80100b84:	f000 fcd3 	bl	8010152e <printf>
80100b88:	687b      	ldr	r3, [r7, #4]
80100b8a:	3301      	adds	r3, #1
80100b8c:	607b      	str	r3, [r7, #4]
80100b8e:	687b      	ldr	r3, [r7, #4]
80100b90:	f5b3 6f80 	cmp.w	r3, #1024	; 0x400
80100b94:	dbde      	blt.n	80100b54 <main+0x19a>
80100b96:	f643 7020 	movw	r0, #16160	; 0x3f20
80100b9a:	f2c8 0010 	movt	r0, #32784	; 0x8010
80100b9e:	f000 fcc6 	bl	8010152e <printf>
80100ba2:	e0b0      	b.n	80100d06 <main+0x34c>
80100ba4:	f643 70a8 	movw	r0, #16296	; 0x3fa8
80100ba8:	f2c8 0010 	movt	r0, #32784	; 0x8010
80100bac:	f000 fcbf 	bl	8010152e <printf>
80100bb0:	e0a9      	b.n	80100d06 <main+0x34c>
80100bb2:	78fb      	ldrb	r3, [r7, #3]
80100bb4:	2b32      	cmp	r3, #50	; 0x32
80100bb6:	f040 80a0 	bne.w	80100cfa <main+0x340>
80100bba:	f44f 4080 	mov.w	r0, #16384	; 0x4000
80100bbe:	f2c0 2019 	movt	r0, #537	; 0x219
80100bc2:	f002 fda8 	bl	80103716 <mmc_init>
80100bc6:	f44f 4080 	mov.w	r0, #16384	; 0x4000
80100bca:	f2c0 2019 	movt	r0, #537	; 0x219
80100bce:	f002 fd86 	bl	801036de <MMC_SelectBoot1Partition>
80100bd2:	f44f 5280 	mov.w	r2, #4096	; 0x1000
80100bd6:	2100      	movs	r1, #0
80100bd8:	f646 4000 	movw	r0, #27648	; 0x6c00
80100bdc:	f2c8 0010 	movt	r0, #32784	; 0x8010
80100be0:	f000 fd75 	bl	801016ce <memset>
80100be4:	2302      	movs	r3, #2
80100be6:	2202      	movs	r2, #2
80100be8:	f646 4100 	movw	r1, #27648	; 0x6c00
80100bec:	f2c8 0110 	movt	r1, #32784	; 0x8010
80100bf0:	f44f 4080 	mov.w	r0, #16384	; 0x4000
80100bf4:	f2c0 2019 	movt	r0, #537	; 0x219
80100bf8:	f002 f817 	bl	80102c2a <sd_read_blocks>
80100bfc:	f643 70c4 	movw	r0, #16324	; 0x3fc4
80100c00:	f2c8 0010 	movt	r0, #32784	; 0x8010
80100c04:	f000 fc93 	bl	8010152e <printf>
80100c08:	2300      	movs	r3, #0
80100c0a:	607b      	str	r3, [r7, #4]
80100c0c:	e01c      	b.n	80100c48 <main+0x28e>
80100c0e:	f646 4300 	movw	r3, #27648	; 0x6c00
80100c12:	f2c8 0310 	movt	r3, #32784	; 0x8010
80100c16:	687a      	ldr	r2, [r7, #4]
80100c18:	4413      	add	r3, r2
80100c1a:	781b      	ldrb	r3, [r3, #0]
80100c1c:	4619      	mov	r1, r3
80100c1e:	f643 60fc 	movw	r0, #16124	; 0x3efc
80100c22:	f2c8 0010 	movt	r0, #32784	; 0x8010
80100c26:	f000 fc82 	bl	8010152e <printf>
80100c2a:	687b      	ldr	r3, [r7, #4]
80100c2c:	3301      	adds	r3, #1
80100c2e:	f003 030f 	and.w	r3, r3, #15
80100c32:	2b00      	cmp	r3, #0
80100c34:	d105      	bne.n	80100c42 <main+0x288>
80100c36:	f643 7004 	movw	r0, #16132	; 0x3f04
80100c3a:	f2c8 0010 	movt	r0, #32784	; 0x8010
80100c3e:	f000 fc76 	bl	8010152e <printf>
80100c42:	687b      	ldr	r3, [r7, #4]
80100c44:	3301      	adds	r3, #1
80100c46:	607b      	str	r3, [r7, #4]
80100c48:	687b      	ldr	r3, [r7, #4]
80100c4a:	f5b3 6f80 	cmp.w	r3, #1024	; 0x400
80100c4e:	dbde      	blt.n	80100c0e <main+0x254>
80100c50:	4937      	ldr	r1, [pc, #220]	; (80100d30 <main+0x376>)
80100c52:	230e      	movs	r3, #14
80100c54:	2202      	movs	r2, #2
80100c56:	f44f 4080 	mov.w	r0, #16384	; 0x4000
80100c5a:	f2c0 2019 	movt	r0, #537	; 0x219
80100c5e:	f002 f883 	bl	80102d68 <sd_write_blocks>
80100c62:	f643 70fc 	movw	r0, #16380	; 0x3ffc
80100c66:	f2c8 0010 	movt	r0, #32784	; 0x8010
80100c6a:	f000 fc60 	bl	8010152e <printf>
80100c6e:	f244 0048 	movw	r0, #16456	; 0x4048
80100c72:	f2c8 0010 	movt	r0, #32784	; 0x8010
80100c76:	f000 fc5a 	bl	8010152e <printf>
80100c7a:	f44f 5280 	mov.w	r2, #4096	; 0x1000
80100c7e:	2100      	movs	r1, #0
80100c80:	f646 4000 	movw	r0, #27648	; 0x6c00
80100c84:	f2c8 0010 	movt	r0, #32784	; 0x8010
80100c88:	f000 fd21 	bl	801016ce <memset>
80100c8c:	2302      	movs	r3, #2
80100c8e:	2202      	movs	r2, #2
80100c90:	f646 4100 	movw	r1, #27648	; 0x6c00
80100c94:	f2c8 0110 	movt	r1, #32784	; 0x8010
80100c98:	f44f 4080 	mov.w	r0, #16384	; 0x4000
80100c9c:	f2c0 2019 	movt	r0, #537	; 0x219
80100ca0:	f001 ffc3 	bl	80102c2a <sd_read_blocks>
80100ca4:	f44f 4080 	mov.w	r0, #16384	; 0x4000
80100ca8:	f2c0 2019 	movt	r0, #537	; 0x219
80100cac:	f002 fd25 	bl	801036fa <MMC_ExitBoot1Partition>
80100cb0:	2300      	movs	r3, #0
80100cb2:	607b      	str	r3, [r7, #4]
80100cb4:	e01c      	b.n	80100cf0 <main+0x336>
80100cb6:	f646 4300 	movw	r3, #27648	; 0x6c00
80100cba:	f2c8 0310 	movt	r3, #32784	; 0x8010
80100cbe:	687a      	ldr	r2, [r7, #4]
80100cc0:	4413      	add	r3, r2
80100cc2:	781b      	ldrb	r3, [r3, #0]
80100cc4:	4619      	mov	r1, r3
80100cc6:	f643 60fc 	movw	r0, #16124	; 0x3efc
80100cca:	f2c8 0010 	movt	r0, #32784	; 0x8010
80100cce:	f000 fc2e 	bl	8010152e <printf>
80100cd2:	687b      	ldr	r3, [r7, #4]
80100cd4:	3301      	adds	r3, #1
80100cd6:	f003 030f 	and.w	r3, r3, #15
80100cda:	2b00      	cmp	r3, #0
80100cdc:	d105      	bne.n	80100cea <main+0x330>
80100cde:	f643 7004 	movw	r0, #16132	; 0x3f04
80100ce2:	f2c8 0010 	movt	r0, #32784	; 0x8010
80100ce6:	f000 fc22 	bl	8010152e <printf>
80100cea:	687b      	ldr	r3, [r7, #4]
80100cec:	3301      	adds	r3, #1
80100cee:	607b      	str	r3, [r7, #4]
80100cf0:	687b      	ldr	r3, [r7, #4]
80100cf2:	f5b3 6f80 	cmp.w	r3, #1024	; 0x400
80100cf6:	dbde      	blt.n	80100cb6 <main+0x2fc>
80100cf8:	e005      	b.n	80100d06 <main+0x34c>
80100cfa:	f643 70a8 	movw	r0, #16296	; 0x3fa8
80100cfe:	f2c8 0010 	movt	r0, #32784	; 0x8010
80100d02:	f000 fc14 	bl	8010152e <printf>
80100d06:	f000 fa6f 	bl	801011e8 <getchar>
80100d0a:	4603      	mov	r3, r0
80100d0c:	70fb      	strb	r3, [r7, #3]
80100d0e:	78fb      	ldrb	r3, [r7, #3]
80100d10:	2b0d      	cmp	r3, #13
80100d12:	d102      	bne.n	80100d1a <main+0x360>
80100d14:	200a      	movs	r0, #10
80100d16:	f000 fa4d 	bl	801011b4 <putchar>
80100d1a:	78fb      	ldrb	r3, [r7, #3]
80100d1c:	2b0a      	cmp	r3, #10
80100d1e:	d102      	bne.n	80100d26 <main+0x36c>
80100d20:	200d      	movs	r0, #13
80100d22:	f000 fa47 	bl	801011b4 <putchar>
80100d26:	78fb      	ldrb	r3, [r7, #3]
80100d28:	4618      	mov	r0, r3
80100d2a:	f000 fa43 	bl	801011b4 <putchar>
80100d2e:	e7ea      	b.n	80100d06 <main+0x34c>
80100d30:	80104c18 	andshi	r4, r0, r8, lsl ip

80100d34 <led_gpio_init>:
80100d34:	b480      	push	{r7}
80100d36:	af00      	add	r7, sp, #0
80100d38:	f44f 4340 	mov.w	r3, #49152	; 0xc000
80100d3c:	f2c0 230a 	movt	r3, #522	; 0x20a
80100d40:	f44f 4240 	mov.w	r2, #49152	; 0xc000
80100d44:	f2c0 220a 	movt	r2, #522	; 0x20a
80100d48:	6852      	ldr	r2, [r2, #4]
80100d4a:	f042 0208 	orr.w	r2, r2, #8
80100d4e:	605a      	str	r2, [r3, #4]
80100d50:	bf00      	nop
80100d52:	46bd      	mov	sp, r7
80100d54:	f85d 7b04 	ldr.w	r7, [sp], #4
80100d58:	4770      	bx	lr

80100d5a <led_ctl>:
80100d5a:	b480      	push	{r7}
80100d5c:	b083      	sub	sp, #12
80100d5e:	af00      	add	r7, sp, #0
80100d60:	6078      	str	r0, [r7, #4]
80100d62:	687b      	ldr	r3, [r7, #4]
80100d64:	2b00      	cmp	r3, #0
80100d66:	d00c      	beq.n	80100d82 <led_ctl+0x28>
80100d68:	f44f 4340 	mov.w	r3, #49152	; 0xc000
80100d6c:	f2c0 230a 	movt	r3, #522	; 0x20a
80100d70:	f44f 4240 	mov.w	r2, #49152	; 0xc000
80100d74:	f2c0 220a 	movt	r2, #522	; 0x20a
80100d78:	6812      	ldr	r2, [r2, #0]
80100d7a:	f022 0208 	bic.w	r2, r2, #8
80100d7e:	601a      	str	r2, [r3, #0]
80100d80:	e00b      	b.n	80100d9a <led_ctl+0x40>
80100d82:	f44f 4340 	mov.w	r3, #49152	; 0xc000
80100d86:	f2c0 230a 	movt	r3, #522	; 0x20a
80100d8a:	f44f 4240 	mov.w	r2, #49152	; 0xc000
80100d8e:	f2c0 220a 	movt	r2, #522	; 0x20a
80100d92:	6812      	ldr	r2, [r2, #0]
80100d94:	f042 0208 	orr.w	r2, r2, #8
80100d98:	601a      	str	r2, [r3, #0]
80100d9a:	bf00      	nop
80100d9c:	370c      	adds	r7, #12
80100d9e:	46bd      	mov	sp, r7
80100da0:	f85d 7b04 	ldr.w	r7, [sp], #4
80100da4:	4770      	bx	lr
	...

80100da8 <UART_SetBaudRate>:
80100da8:	b590      	push	{r4, r7, lr}
80100daa:	b091      	sub	sp, #68	; 0x44
80100dac:	af00      	add	r7, sp, #0
80100dae:	6078      	str	r0, [r7, #4]
80100db0:	6039      	str	r1, [r7, #0]
80100db2:	2300      	movs	r3, #0
80100db4:	63fb      	str	r3, [r7, #60]	; 0x3c
80100db6:	2300      	movs	r3, #0
80100db8:	63bb      	str	r3, [r7, #56]	; 0x38
80100dba:	2300      	movs	r3, #0
80100dbc:	637b      	str	r3, [r7, #52]	; 0x34
80100dbe:	2300      	movs	r3, #0
80100dc0:	633b      	str	r3, [r7, #48]	; 0x30
80100dc2:	2301      	movs	r3, #1
80100dc4:	623b      	str	r3, [r7, #32]
80100dc6:	f04f 0300 	mov.w	r3, #0
80100dca:	f04f 0400 	mov.w	r4, #0
80100dce:	e9c7 3406 	strd	r3, r4, [r7, #24]
80100dd2:	f04f 0300 	mov.w	r3, #0
80100dd6:	f04f 0400 	mov.w	r4, #0
80100dda:	e9c7 340a 	strd	r3, r4, [r7, #40]	; 0x28
80100dde:	2300      	movs	r3, #0
80100de0:	627b      	str	r3, [r7, #36]	; 0x24
80100de2:	683b      	ldr	r3, [r7, #0]
80100de4:	63fb      	str	r3, [r7, #60]	; 0x3c
80100de6:	687b      	ldr	r3, [r7, #4]
80100de8:	011b      	lsls	r3, r3, #4
80100dea:	63bb      	str	r3, [r7, #56]	; 0x38
80100dec:	2301      	movs	r3, #1
80100dee:	637b      	str	r3, [r7, #52]	; 0x34
80100df0:	e00a      	b.n	80100e08 <UART_SetBaudRate+0x60>
80100df2:	6bbb      	ldr	r3, [r7, #56]	; 0x38
80100df4:	637b      	str	r3, [r7, #52]	; 0x34
80100df6:	6bfb      	ldr	r3, [r7, #60]	; 0x3c
80100df8:	6bb9      	ldr	r1, [r7, #56]	; 0x38
80100dfa:	4618      	mov	r0, r3
80100dfc:	f002 ff62 	bl	80103cc4 <__aeabi_uidivmod>
80100e00:	460b      	mov	r3, r1
80100e02:	63bb      	str	r3, [r7, #56]	; 0x38
80100e04:	6b7b      	ldr	r3, [r7, #52]	; 0x34
80100e06:	63fb      	str	r3, [r7, #60]	; 0x3c
80100e08:	6bbb      	ldr	r3, [r7, #56]	; 0x38
80100e0a:	2b00      	cmp	r3, #0
80100e0c:	d1f1      	bne.n	80100df2 <UART_SetBaudRate+0x4a>
80100e0e:	6b79      	ldr	r1, [r7, #52]	; 0x34
80100e10:	6838      	ldr	r0, [r7, #0]
80100e12:	f002 fe29 	bl	80103a68 <__aeabi_uidiv>
80100e16:	4603      	mov	r3, r0
80100e18:	63fb      	str	r3, [r7, #60]	; 0x3c
80100e1a:	687b      	ldr	r3, [r7, #4]
80100e1c:	011b      	lsls	r3, r3, #4
80100e1e:	6b79      	ldr	r1, [r7, #52]	; 0x34
80100e20:	4618      	mov	r0, r3
80100e22:	f002 fe21 	bl	80103a68 <__aeabi_uidiv>
80100e26:	4603      	mov	r3, r0
80100e28:	63bb      	str	r3, [r7, #56]	; 0x38
80100e2a:	6bfa      	ldr	r2, [r7, #60]	; 0x3c
80100e2c:	f64f 73f9 	movw	r3, #65529	; 0xfff9
80100e30:	f2c0 0306 	movt	r3, #6
80100e34:	429a      	cmp	r2, r3
80100e36:	d803      	bhi.n	80100e40 <UART_SetBaudRate+0x98>
80100e38:	6bbb      	ldr	r3, [r7, #56]	; 0x38
80100e3a:	f5b3 3f80 	cmp.w	r3, #65536	; 0x10000
80100e3e:	d334      	bcc.n	80100eaa <UART_SetBaudRate+0x102>
80100e40:	6bfb      	ldr	r3, [r7, #60]	; 0x3c
80100e42:	1e5a      	subs	r2, r3, #1
80100e44:	f646 53b9 	movw	r3, #28089	; 0x6db9
80100e48:	f2c2 4393 	movt	r3, #9363	; 0x2493
80100e4c:	fba2 3403 	umull	r3, r4, r2, r3
80100e50:	1b12      	subs	r2, r2, r4
80100e52:	0852      	lsrs	r2, r2, #1
80100e54:	1913      	adds	r3, r2, r4
80100e56:	0c9b      	lsrs	r3, r3, #18
80100e58:	3301      	adds	r3, #1
80100e5a:	617b      	str	r3, [r7, #20]
80100e5c:	6bbb      	ldr	r3, [r7, #56]	; 0x38
80100e5e:	1e5a      	subs	r2, r3, #1
80100e60:	f248 0301 	movw	r3, #32769	; 0x8001
80100e64:	f2c8 0300 	movt	r3, #32768	; 0x8000
80100e68:	fba2 3403 	umull	r3, r4, r2, r3
80100e6c:	0be3      	lsrs	r3, r4, #15
80100e6e:	3301      	adds	r3, #1
80100e70:	613b      	str	r3, [r7, #16]
80100e72:	693a      	ldr	r2, [r7, #16]
80100e74:	697b      	ldr	r3, [r7, #20]
80100e76:	4293      	cmp	r3, r2
80100e78:	bf38      	it	cc
80100e7a:	4613      	movcc	r3, r2
80100e7c:	60fb      	str	r3, [r7, #12]
80100e7e:	68f9      	ldr	r1, [r7, #12]
80100e80:	6bf8      	ldr	r0, [r7, #60]	; 0x3c
80100e82:	f002 fdf1 	bl	80103a68 <__aeabi_uidiv>
80100e86:	4603      	mov	r3, r0
80100e88:	63fb      	str	r3, [r7, #60]	; 0x3c
80100e8a:	68f9      	ldr	r1, [r7, #12]
80100e8c:	6bb8      	ldr	r0, [r7, #56]	; 0x38
80100e8e:	f002 fdeb 	bl	80103a68 <__aeabi_uidiv>
80100e92:	4603      	mov	r3, r0
80100e94:	63bb      	str	r3, [r7, #56]	; 0x38
80100e96:	6bfb      	ldr	r3, [r7, #60]	; 0x3c
80100e98:	2b00      	cmp	r3, #0
80100e9a:	d101      	bne.n	80100ea0 <UART_SetBaudRate+0xf8>
80100e9c:	2301      	movs	r3, #1
80100e9e:	63fb      	str	r3, [r7, #60]	; 0x3c
80100ea0:	6bbb      	ldr	r3, [r7, #56]	; 0x38
80100ea2:	2b00      	cmp	r3, #0
80100ea4:	d101      	bne.n	80100eaa <UART_SetBaudRate+0x102>
80100ea6:	2301      	movs	r3, #1
80100ea8:	63bb      	str	r3, [r7, #56]	; 0x38
80100eaa:	6bfb      	ldr	r3, [r7, #60]	; 0x3c
80100eac:	1e5a      	subs	r2, r3, #1
80100eae:	f248 0301 	movw	r3, #32769	; 0x8001
80100eb2:	f2c8 0300 	movt	r3, #32768	; 0x8000
80100eb6:	fba2 3403 	umull	r3, r4, r2, r3
80100eba:	0be3      	lsrs	r3, r4, #15
80100ebc:	3301      	adds	r3, #1
80100ebe:	623b      	str	r3, [r7, #32]
80100ec0:	6a3b      	ldr	r3, [r7, #32]
80100ec2:	3b01      	subs	r3, #1
80100ec4:	2b06      	cmp	r3, #6
80100ec6:	d826      	bhi.n	80100f16 <UART_SetBaudRate+0x16e>
80100ec8:	a201      	add	r2, pc, #4	; (adr r2, 80100ed0 <UART_SetBaudRate+0x128>)
80100eca:	f852 f023 	ldr.w	pc, [r2, r3, lsl #2]
80100ece:	bf00      	nop
80100ed0:	80100eed 	andshi	r0, r0, sp, ror #29
80100ed4:	80100ef3 			; <UNDEFINED> instruction: 0x80100ef3
80100ed8:	80100ef9 			; <UNDEFINED> instruction: 0x80100ef9
80100edc:	80100eff 			; <UNDEFINED> instruction: 0x80100eff
80100ee0:	80100f05 	andshi	r0, r0, r5, lsl #30
80100ee4:	80100f0b 	andshi	r0, r0, fp, lsl #30
80100ee8:	80100f11 	andshi	r0, r0, r1, lsl pc
80100eec:	2305      	movs	r3, #5
80100eee:	633b      	str	r3, [r7, #48]	; 0x30
80100ef0:	e014      	b.n	80100f1c <UART_SetBaudRate+0x174>
80100ef2:	2304      	movs	r3, #4
80100ef4:	633b      	str	r3, [r7, #48]	; 0x30
80100ef6:	e011      	b.n	80100f1c <UART_SetBaudRate+0x174>
80100ef8:	2303      	movs	r3, #3
80100efa:	633b      	str	r3, [r7, #48]	; 0x30
80100efc:	e00e      	b.n	80100f1c <UART_SetBaudRate+0x174>
80100efe:	2302      	movs	r3, #2
80100f00:	633b      	str	r3, [r7, #48]	; 0x30
80100f02:	e00b      	b.n	80100f1c <UART_SetBaudRate+0x174>
80100f04:	2301      	movs	r3, #1
80100f06:	633b      	str	r3, [r7, #48]	; 0x30
80100f08:	e008      	b.n	80100f1c <UART_SetBaudRate+0x174>
80100f0a:	2300      	movs	r3, #0
80100f0c:	633b      	str	r3, [r7, #48]	; 0x30
80100f0e:	e005      	b.n	80100f1c <UART_SetBaudRate+0x174>
80100f10:	2306      	movs	r3, #6
80100f12:	633b      	str	r3, [r7, #48]	; 0x30
80100f14:	e002      	b.n	80100f1c <UART_SetBaudRate+0x174>
80100f16:	2305      	movs	r3, #5
80100f18:	633b      	str	r3, [r7, #48]	; 0x30
80100f1a:	bf00      	nop
80100f1c:	683b      	ldr	r3, [r7, #0]
80100f1e:	f04f 0400 	mov.w	r4, #0
80100f22:	e9c7 340a 	strd	r3, r4, [r7, #40]	; 0x28
80100f26:	6bfb      	ldr	r3, [r7, #60]	; 0x3c
80100f28:	011b      	lsls	r3, r3, #4
80100f2a:	627b      	str	r3, [r7, #36]	; 0x24
80100f2c:	2301      	movs	r3, #1
80100f2e:	637b      	str	r3, [r7, #52]	; 0x34
80100f30:	e012      	b.n	80100f58 <UART_SetBaudRate+0x1b0>
80100f32:	6a7b      	ldr	r3, [r7, #36]	; 0x24
80100f34:	637b      	str	r3, [r7, #52]	; 0x34
80100f36:	6a7b      	ldr	r3, [r7, #36]	; 0x24
80100f38:	f04f 0400 	mov.w	r4, #0
80100f3c:	e9d7 010a 	ldrd	r0, r1, [r7, #40]	; 0x28
80100f40:	461a      	mov	r2, r3
80100f42:	4623      	mov	r3, r4
80100f44:	f002 fecc 	bl	80103ce0 <__aeabi_uldivmod>
80100f48:	461c      	mov	r4, r3
80100f4a:	4613      	mov	r3, r2
80100f4c:	627b      	str	r3, [r7, #36]	; 0x24
80100f4e:	6b7b      	ldr	r3, [r7, #52]	; 0x34
80100f50:	f04f 0400 	mov.w	r4, #0
80100f54:	e9c7 340a 	strd	r3, r4, [r7, #40]	; 0x28
80100f58:	6a7b      	ldr	r3, [r7, #36]	; 0x24
80100f5a:	2b00      	cmp	r3, #0
80100f5c:	d1e9      	bne.n	80100f32 <UART_SetBaudRate+0x18a>
80100f5e:	6b79      	ldr	r1, [r7, #52]	; 0x34
80100f60:	6838      	ldr	r0, [r7, #0]
80100f62:	f002 fd81 	bl	80103a68 <__aeabi_uidiv>
80100f66:	4603      	mov	r3, r0
80100f68:	f04f 0400 	mov.w	r4, #0
80100f6c:	e9c7 340a 	strd	r3, r4, [r7, #40]	; 0x28
80100f70:	6bfb      	ldr	r3, [r7, #60]	; 0x3c
80100f72:	011b      	lsls	r3, r3, #4
80100f74:	6b79      	ldr	r1, [r7, #52]	; 0x34
80100f76:	4618      	mov	r0, r3
80100f78:	f002 fd76 	bl	80103a68 <__aeabi_uidiv>
80100f7c:	4603      	mov	r3, r0
80100f7e:	627b      	str	r3, [r7, #36]	; 0x24
80100f80:	6bbb      	ldr	r3, [r7, #56]	; 0x38
80100f82:	f04f 0400 	mov.w	r4, #0
80100f86:	6aba      	ldr	r2, [r7, #40]	; 0x28
80100f88:	fb04 f102 	mul.w	r1, r4, r2
80100f8c:	6afa      	ldr	r2, [r7, #44]	; 0x2c
80100f8e:	fb03 f202 	mul.w	r2, r3, r2
80100f92:	440a      	add	r2, r1
80100f94:	6ab9      	ldr	r1, [r7, #40]	; 0x28
80100f96:	fba1 0103 	umull	r0, r1, r1, r3
80100f9a:	1853      	adds	r3, r2, r1
80100f9c:	4619      	mov	r1, r3
80100f9e:	6a7b      	ldr	r3, [r7, #36]	; 0x24
80100fa0:	f04f 0400 	mov.w	r4, #0
80100fa4:	461a      	mov	r2, r3
80100fa6:	4623      	mov	r3, r4
80100fa8:	f002 fe9a 	bl	80103ce0 <__aeabi_uldivmod>
80100fac:	4603      	mov	r3, r0
80100fae:	460c      	mov	r4, r1
80100fb0:	e9c7 3406 	strd	r3, r4, [r7, #24]
80100fb4:	687b      	ldr	r3, [r7, #4]
80100fb6:	f04f 0400 	mov.w	r4, #0
80100fba:	e9d7 1206 	ldrd	r1, r2, [r7, #24]
80100fbe:	42a2      	cmp	r2, r4
80100fc0:	bf08      	it	eq
80100fc2:	4299      	cmpeq	r1, r3
80100fc4:	d308      	bcc.n	80100fd8 <UART_SetBaudRate+0x230>
80100fc6:	687b      	ldr	r3, [r7, #4]
80100fc8:	f04f 0400 	mov.w	r4, #0
80100fcc:	e9d7 1206 	ldrd	r1, r2, [r7, #24]
80100fd0:	1acb      	subs	r3, r1, r3
80100fd2:	eb62 0404 	sbc.w	r4, r2, r4
80100fd6:	e008      	b.n	80100fea <UART_SetBaudRate+0x242>
80100fd8:	687b      	ldr	r3, [r7, #4]
80100fda:	4619      	mov	r1, r3
80100fdc:	f04f 0200 	mov.w	r2, #0
80100fe0:	e9d7 3406 	ldrd	r3, r4, [r7, #24]
80100fe4:	1acb      	subs	r3, r1, r3
80100fe6:	eb62 0404 	sbc.w	r4, r2, r4
80100fea:	e9c7 3406 	strd	r3, r4, [r7, #24]
80100fee:	2300      	movs	r3, #0
80100ff0:	f2c0 2302 	movt	r3, #514	; 0x202
80100ff4:	2200      	movs	r2, #0
80100ff6:	f2c0 2202 	movt	r2, #514	; 0x202
80100ffa:	f8d2 2090 	ldr.w	r2, [r2, #144]	; 0x90
80100ffe:	f422 7260 	bic.w	r2, r2, #896	; 0x380
80101002:	f8c3 2090 	str.w	r2, [r3, #144]	; 0x90
80101006:	2300      	movs	r3, #0
80101008:	f2c0 2302 	movt	r3, #514	; 0x202
8010100c:	2200      	movs	r2, #0
8010100e:	f2c0 2202 	movt	r2, #514	; 0x202
80101012:	f8d2 1090 	ldr.w	r1, [r2, #144]	; 0x90
80101016:	6b3a      	ldr	r2, [r7, #48]	; 0x30
80101018:	01d2      	lsls	r2, r2, #7
8010101a:	f402 7260 	and.w	r2, r2, #896	; 0x380
8010101e:	430a      	orrs	r2, r1
80101020:	f8c3 2090 	str.w	r2, [r3, #144]	; 0x90
80101024:	2300      	movs	r3, #0
80101026:	f2c0 2302 	movt	r3, #514	; 0x202
8010102a:	6bba      	ldr	r2, [r7, #56]	; 0x38
8010102c:	3a01      	subs	r2, #1
8010102e:	b292      	uxth	r2, r2
80101030:	f8c3 20a4 	str.w	r2, [r3, #164]	; 0xa4
80101034:	2400      	movs	r4, #0
80101036:	f2c0 2402 	movt	r4, #514	; 0x202
8010103a:	6a39      	ldr	r1, [r7, #32]
8010103c:	6bf8      	ldr	r0, [r7, #60]	; 0x3c
8010103e:	f002 fd13 	bl	80103a68 <__aeabi_uidiv>
80101042:	4603      	mov	r3, r0
80101044:	3b01      	subs	r3, #1
80101046:	b29b      	uxth	r3, r3
80101048:	f8c4 30a8 	str.w	r3, [r4, #168]	; 0xa8
8010104c:	2400      	movs	r4, #0
8010104e:	f2c0 2402 	movt	r4, #514	; 0x202
80101052:	6a3b      	ldr	r3, [r7, #32]
80101054:	f44f 727a 	mov.w	r2, #1000	; 0x3e8
80101058:	fb02 f303 	mul.w	r3, r2, r3
8010105c:	4619      	mov	r1, r3
8010105e:	6838      	ldr	r0, [r7, #0]
80101060:	f002 fd02 	bl	80103a68 <__aeabi_uidiv>
80101064:	4603      	mov	r3, r0
80101066:	f023 437f 	bic.w	r3, r3, #4278190080	; 0xff000000
8010106a:	f8c4 30b0 	str.w	r3, [r4, #176]	; 0xb0
8010106e:	bf00      	nop
80101070:	3744      	adds	r7, #68	; 0x44
80101072:	46bd      	mov	sp, r7
80101074:	bd90      	pop	{r4, r7, pc}

80101076 <uart1_init>:
80101076:	b580      	push	{r7, lr}
80101078:	af00      	add	r7, sp, #0
8010107a:	2300      	movs	r3, #0
8010107c:	f2c0 2302 	movt	r3, #514	; 0x202
80101080:	2200      	movs	r2, #0
80101082:	f2c0 2202 	movt	r2, #514	; 0x202
80101086:	f8d2 2080 	ldr.w	r2, [r2, #128]	; 0x80
8010108a:	f022 0201 	bic.w	r2, r2, #1
8010108e:	f8c3 2080 	str.w	r2, [r3, #128]	; 0x80
80101092:	2300      	movs	r3, #0
80101094:	f2c0 2302 	movt	r3, #514	; 0x202
80101098:	2200      	movs	r2, #0
8010109a:	f2c0 2202 	movt	r2, #514	; 0x202
8010109e:	f8d2 2084 	ldr.w	r2, [r2, #132]	; 0x84
801010a2:	f022 0201 	bic.w	r2, r2, #1
801010a6:	f8c3 2084 	str.w	r2, [r3, #132]	; 0x84
801010aa:	bf00      	nop
801010ac:	2300      	movs	r3, #0
801010ae:	f2c0 2302 	movt	r3, #514	; 0x202
801010b2:	f8d3 3084 	ldr.w	r3, [r3, #132]	; 0x84
801010b6:	f003 0301 	and.w	r3, r3, #1
801010ba:	2b00      	cmp	r3, #0
801010bc:	d0f6      	beq.n	801010ac <uart1_init+0x36>
801010be:	2300      	movs	r3, #0
801010c0:	f2c0 2302 	movt	r3, #514	; 0x202
801010c4:	2200      	movs	r2, #0
801010c6:	f8c3 2080 	str.w	r2, [r3, #128]	; 0x80
801010ca:	2300      	movs	r3, #0
801010cc:	f2c0 2302 	movt	r3, #514	; 0x202
801010d0:	2201      	movs	r2, #1
801010d2:	f8c3 2084 	str.w	r2, [r3, #132]	; 0x84
801010d6:	2300      	movs	r3, #0
801010d8:	f2c0 2302 	movt	r3, #514	; 0x202
801010dc:	f44f 62e0 	mov.w	r2, #1792	; 0x700
801010e0:	f8c3 2088 	str.w	r2, [r3, #136]	; 0x88
801010e4:	2300      	movs	r3, #0
801010e6:	f2c0 2302 	movt	r3, #514	; 0x202
801010ea:	f44f 4200 	mov.w	r2, #32768	; 0x8000
801010ee:	f8c3 208c 	str.w	r2, [r3, #140]	; 0x8c
801010f2:	2300      	movs	r3, #0
801010f4:	f2c0 2302 	movt	r3, #514	; 0x202
801010f8:	f640 0201 	movw	r2, #2049	; 0x801
801010fc:	f8c3 2090 	str.w	r2, [r3, #144]	; 0x90
80101100:	2300      	movs	r3, #0
80101102:	f2c0 2302 	movt	r3, #514	; 0x202
80101106:	222b      	movs	r2, #43	; 0x2b
80101108:	f8c3 209c 	str.w	r2, [r3, #156]	; 0x9c
8010110c:	2300      	movs	r3, #0
8010110e:	f2c0 2302 	movt	r3, #514	; 0x202
80101112:	2200      	movs	r2, #0
80101114:	f8c3 20a0 	str.w	r2, [r3, #160]	; 0xa0
80101118:	2300      	movs	r3, #0
8010111a:	f2c0 2302 	movt	r3, #514	; 0x202
8010111e:	2200      	movs	r2, #0
80101120:	f8c3 20b0 	str.w	r2, [r3, #176]	; 0xb0
80101124:	2300      	movs	r3, #0
80101126:	f2c0 2302 	movt	r3, #514	; 0x202
8010112a:	2260      	movs	r2, #96	; 0x60
8010112c:	f8c3 20b4 	str.w	r2, [r3, #180]	; 0xb4
80101130:	2300      	movs	r3, #0
80101132:	f2c0 2302 	movt	r3, #514	; 0x202
80101136:	2200      	movs	r2, #0
80101138:	f8c3 20b8 	str.w	r2, [r3, #184]	; 0xb8
8010113c:	2200      	movs	r2, #0
8010113e:	f2c0 2202 	movt	r2, #514	; 0x202
80101142:	2300      	movs	r3, #0
80101144:	f2c0 2302 	movt	r3, #514	; 0x202
80101148:	f8d3 3084 	ldr.w	r3, [r3, #132]	; 0x84
8010114c:	f443 4380 	orr.w	r3, r3, #16384	; 0x4000
80101150:	f043 0366 	orr.w	r3, r3, #102	; 0x66
80101154:	f8c2 3084 	str.w	r3, [r2, #132]	; 0x84
80101158:	2300      	movs	r3, #0
8010115a:	f2c0 2302 	movt	r3, #514	; 0x202
8010115e:	2200      	movs	r2, #0
80101160:	f2c0 2202 	movt	r2, #514	; 0x202
80101164:	f8d2 2088 	ldr.w	r2, [r2, #136]	; 0x88
80101168:	f042 0204 	orr.w	r2, r2, #4
8010116c:	f8c3 2088 	str.w	r2, [r3, #136]	; 0x88
80101170:	2300      	movs	r3, #0
80101172:	f2c0 2302 	movt	r3, #514	; 0x202
80101176:	2200      	movs	r2, #0
80101178:	f2c0 2202 	movt	r2, #514	; 0x202
8010117c:	f8d2 2080 	ldr.w	r2, [r2, #128]	; 0x80
80101180:	f422 4280 	bic.w	r2, r2, #16384	; 0x4000
80101184:	f8c3 2080 	str.w	r2, [r3, #128]	; 0x80
80101188:	f44f 4134 	mov.w	r1, #46080	; 0xb400
8010118c:	f2c0 41c4 	movt	r1, #1220	; 0x4c4
80101190:	f44f 30e1 	mov.w	r0, #115200	; 0x1c200
80101194:	f7ff fe08 	bl	80100da8 <UART_SetBaudRate>
80101198:	2300      	movs	r3, #0
8010119a:	f2c0 2302 	movt	r3, #514	; 0x202
8010119e:	2200      	movs	r2, #0
801011a0:	f2c0 2202 	movt	r2, #514	; 0x202
801011a4:	f8d2 2080 	ldr.w	r2, [r2, #128]	; 0x80
801011a8:	f042 0201 	orr.w	r2, r2, #1
801011ac:	f8c3 2080 	str.w	r2, [r3, #128]	; 0x80
801011b0:	bf00      	nop
801011b2:	bd80      	pop	{r7, pc}

801011b4 <putchar>:
801011b4:	b480      	push	{r7}
801011b6:	b083      	sub	sp, #12
801011b8:	af00      	add	r7, sp, #0
801011ba:	6078      	str	r0, [r7, #4]
801011bc:	bf00      	nop
801011be:	2300      	movs	r3, #0
801011c0:	f2c0 2302 	movt	r3, #514	; 0x202
801011c4:	f8d3 3098 	ldr.w	r3, [r3, #152]	; 0x98
801011c8:	f003 0308 	and.w	r3, r3, #8
801011cc:	2b00      	cmp	r3, #0
801011ce:	d0f6      	beq.n	801011be <putchar+0xa>
801011d0:	2300      	movs	r3, #0
801011d2:	f2c0 2302 	movt	r3, #514	; 0x202
801011d6:	687a      	ldr	r2, [r7, #4]
801011d8:	b2d2      	uxtb	r2, r2
801011da:	641a      	str	r2, [r3, #64]	; 0x40
801011dc:	bf00      	nop
801011de:	370c      	adds	r7, #12
801011e0:	46bd      	mov	sp, r7
801011e2:	f85d 7b04 	ldr.w	r7, [sp], #4
801011e6:	4770      	bx	lr

801011e8 <getchar>:
801011e8:	b480      	push	{r7}
801011ea:	af00      	add	r7, sp, #0
801011ec:	bf00      	nop
801011ee:	2300      	movs	r3, #0
801011f0:	f2c0 2302 	movt	r3, #514	; 0x202
801011f4:	f8d3 3098 	ldr.w	r3, [r3, #152]	; 0x98
801011f8:	f003 0301 	and.w	r3, r3, #1
801011fc:	2b00      	cmp	r3, #0
801011fe:	d0f6      	beq.n	801011ee <getchar+0x6>
80101200:	2300      	movs	r3, #0
80101202:	f2c0 2302 	movt	r3, #514	; 0x202
80101206:	681b      	ldr	r3, [r3, #0]
80101208:	b2db      	uxtb	r3, r3
8010120a:	4618      	mov	r0, r3
8010120c:	46bd      	mov	sp, r7
8010120e:	f85d 7b04 	ldr.w	r7, [sp], #4
80101212:	4770      	bx	lr

80101214 <puts>:
80101214:	b580      	push	{r7, lr}
80101216:	b082      	sub	sp, #8
80101218:	af00      	add	r7, sp, #0
8010121a:	6078      	str	r0, [r7, #4]
8010121c:	e007      	b.n	8010122e <puts+0x1a>
8010121e:	687b      	ldr	r3, [r7, #4]
80101220:	781b      	ldrb	r3, [r3, #0]
80101222:	4618      	mov	r0, r3
80101224:	f7ff ffc6 	bl	801011b4 <putchar>
80101228:	687b      	ldr	r3, [r7, #4]
8010122a:	3301      	adds	r3, #1
8010122c:	607b      	str	r3, [r7, #4]
8010122e:	687b      	ldr	r3, [r7, #4]
80101230:	781b      	ldrb	r3, [r3, #0]
80101232:	2b00      	cmp	r3, #0
80101234:	d1f3      	bne.n	8010121e <puts+0xa>
80101236:	bf00      	nop
80101238:	3708      	adds	r7, #8
8010123a:	46bd      	mov	sp, r7
8010123c:	bd80      	pop	{r7, pc}
8010123e:	bf00      	nop

80101240 <raise>:
80101240:	b480      	push	{r7}
80101242:	b083      	sub	sp, #12
80101244:	af00      	add	r7, sp, #0
80101246:	6078      	str	r0, [r7, #4]
80101248:	2300      	movs	r3, #0
8010124a:	4618      	mov	r0, r3
8010124c:	370c      	adds	r7, #12
8010124e:	46bd      	mov	sp, r7
80101250:	f85d 7b04 	ldr.w	r7, [sp], #4
80101254:	4770      	bx	lr
	...

80101258 <outc>:
80101258:	b580      	push	{r7, lr}
8010125a:	b082      	sub	sp, #8
8010125c:	af00      	add	r7, sp, #0
8010125e:	6078      	str	r0, [r7, #4]
80101260:	6878      	ldr	r0, [r7, #4]
80101262:	f7ff ffa7 	bl	801011b4 <putchar>
80101266:	2300      	movs	r3, #0
80101268:	4618      	mov	r0, r3
8010126a:	3708      	adds	r7, #8
8010126c:	46bd      	mov	sp, r7
8010126e:	bd80      	pop	{r7, pc}

80101270 <outs>:
80101270:	b580      	push	{r7, lr}
80101272:	b082      	sub	sp, #8
80101274:	af00      	add	r7, sp, #0
80101276:	6078      	str	r0, [r7, #4]
80101278:	e006      	b.n	80101288 <outs+0x18>
8010127a:	687b      	ldr	r3, [r7, #4]
8010127c:	1c5a      	adds	r2, r3, #1
8010127e:	607a      	str	r2, [r7, #4]
80101280:	781b      	ldrb	r3, [r3, #0]
80101282:	4618      	mov	r0, r3
80101284:	f7ff ff96 	bl	801011b4 <putchar>
80101288:	687b      	ldr	r3, [r7, #4]
8010128a:	781b      	ldrb	r3, [r3, #0]
8010128c:	2b00      	cmp	r3, #0
8010128e:	d1f4      	bne.n	8010127a <outs+0xa>
80101290:	2300      	movs	r3, #0
80101292:	4618      	mov	r0, r3
80101294:	3708      	adds	r7, #8
80101296:	46bd      	mov	sp, r7
80101298:	bd80      	pop	{r7, pc}

8010129a <out_num>:
8010129a:	b590      	push	{r4, r7, lr}
8010129c:	b099      	sub	sp, #100	; 0x64
8010129e:	af00      	add	r7, sp, #0
801012a0:	e9c7 0102 	strd	r0, r1, [r7, #8]
801012a4:	607a      	str	r2, [r7, #4]
801012a6:	70fb      	strb	r3, [r7, #3]
801012a8:	2300      	movs	r3, #0
801012aa:	65fb      	str	r3, [r7, #92]	; 0x5c
801012ac:	f107 0310 	add.w	r3, r7, #16
801012b0:	3340      	adds	r3, #64	; 0x40
801012b2:	65bb      	str	r3, [r7, #88]	; 0x58
801012b4:	2300      	movs	r3, #0
801012b6:	657b      	str	r3, [r7, #84]	; 0x54
801012b8:	2300      	movs	r3, #0
801012ba:	653b      	str	r3, [r7, #80]	; 0x50
801012bc:	6dbb      	ldr	r3, [r7, #88]	; 0x58
801012be:	3b01      	subs	r3, #1
801012c0:	65bb      	str	r3, [r7, #88]	; 0x58
801012c2:	6dbb      	ldr	r3, [r7, #88]	; 0x58
801012c4:	2200      	movs	r2, #0
801012c6:	701a      	strb	r2, [r3, #0]
801012c8:	e9d7 3402 	ldrd	r3, r4, [r7, #8]
801012cc:	2b00      	cmp	r3, #0
801012ce:	f174 0300 	sbcs.w	r3, r4, #0
801012d2:	da03      	bge.n	801012dc <out_num+0x42>
801012d4:	68bb      	ldr	r3, [r7, #8]
801012d6:	425b      	negs	r3, r3
801012d8:	65fb      	str	r3, [r7, #92]	; 0x5c
801012da:	e001      	b.n	801012e0 <out_num+0x46>
801012dc:	68bb      	ldr	r3, [r7, #8]
801012de:	65fb      	str	r3, [r7, #92]	; 0x5c
801012e0:	6dbb      	ldr	r3, [r7, #88]	; 0x58
801012e2:	3b01      	subs	r3, #1
801012e4:	65bb      	str	r3, [r7, #88]	; 0x58
801012e6:	687a      	ldr	r2, [r7, #4]
801012e8:	6dfb      	ldr	r3, [r7, #92]	; 0x5c
801012ea:	4611      	mov	r1, r2
801012ec:	4618      	mov	r0, r3
801012ee:	f002 fce9 	bl	80103cc4 <__aeabi_uidivmod>
801012f2:	460b      	mov	r3, r1
801012f4:	461a      	mov	r2, r3
801012f6:	f646 0318 	movw	r3, #26648	; 0x6818
801012fa:	f2c8 0310 	movt	r3, #32784	; 0x8010
801012fe:	5c9a      	ldrb	r2, [r3, r2]
80101300:	6dbb      	ldr	r3, [r7, #88]	; 0x58
80101302:	701a      	strb	r2, [r3, #0]
80101304:	6d7b      	ldr	r3, [r7, #84]	; 0x54
80101306:	3301      	adds	r3, #1
80101308:	657b      	str	r3, [r7, #84]	; 0x54
8010130a:	687b      	ldr	r3, [r7, #4]
8010130c:	4619      	mov	r1, r3
8010130e:	6df8      	ldr	r0, [r7, #92]	; 0x5c
80101310:	f002 fbaa 	bl	80103a68 <__aeabi_uidiv>
80101314:	4603      	mov	r3, r0
80101316:	65fb      	str	r3, [r7, #92]	; 0x5c
80101318:	6dfb      	ldr	r3, [r7, #92]	; 0x5c
8010131a:	2b00      	cmp	r3, #0
8010131c:	d1e0      	bne.n	801012e0 <out_num+0x46>
8010131e:	6f3b      	ldr	r3, [r7, #112]	; 0x70
80101320:	2b00      	cmp	r3, #0
80101322:	d014      	beq.n	8010134e <out_num+0xb4>
80101324:	6d7a      	ldr	r2, [r7, #84]	; 0x54
80101326:	6f3b      	ldr	r3, [r7, #112]	; 0x70
80101328:	429a      	cmp	r2, r3
8010132a:	da10      	bge.n	8010134e <out_num+0xb4>
8010132c:	6f3a      	ldr	r2, [r7, #112]	; 0x70
8010132e:	6d7b      	ldr	r3, [r7, #84]	; 0x54
80101330:	1ad3      	subs	r3, r2, r3
80101332:	653b      	str	r3, [r7, #80]	; 0x50
80101334:	e008      	b.n	80101348 <out_num+0xae>
80101336:	6dbb      	ldr	r3, [r7, #88]	; 0x58
80101338:	3b01      	subs	r3, #1
8010133a:	65bb      	str	r3, [r7, #88]	; 0x58
8010133c:	6dbb      	ldr	r3, [r7, #88]	; 0x58
8010133e:	78fa      	ldrb	r2, [r7, #3]
80101340:	701a      	strb	r2, [r3, #0]
80101342:	6d3b      	ldr	r3, [r7, #80]	; 0x50
80101344:	3b01      	subs	r3, #1
80101346:	653b      	str	r3, [r7, #80]	; 0x50
80101348:	6d3b      	ldr	r3, [r7, #80]	; 0x50
8010134a:	2b00      	cmp	r3, #0
8010134c:	d1f3      	bne.n	80101336 <out_num+0x9c>
8010134e:	e9d7 3402 	ldrd	r3, r4, [r7, #8]
80101352:	2b00      	cmp	r3, #0
80101354:	f174 0300 	sbcs.w	r3, r4, #0
80101358:	da05      	bge.n	80101366 <out_num+0xcc>
8010135a:	6dbb      	ldr	r3, [r7, #88]	; 0x58
8010135c:	3b01      	subs	r3, #1
8010135e:	65bb      	str	r3, [r7, #88]	; 0x58
80101360:	6dbb      	ldr	r3, [r7, #88]	; 0x58
80101362:	222d      	movs	r2, #45	; 0x2d
80101364:	701a      	strb	r2, [r3, #0]
80101366:	6db8      	ldr	r0, [r7, #88]	; 0x58
80101368:	f7ff ff82 	bl	80101270 <outs>
8010136c:	4603      	mov	r3, r0
8010136e:	4618      	mov	r0, r3
80101370:	3764      	adds	r7, #100	; 0x64
80101372:	46bd      	mov	sp, r7
80101374:	bd90      	pop	{r4, r7, pc}

80101376 <my_vprintf>:
80101376:	b580      	push	{r7, lr}
80101378:	b086      	sub	sp, #24
8010137a:	af02      	add	r7, sp, #8
8010137c:	6078      	str	r0, [r7, #4]
8010137e:	6039      	str	r1, [r7, #0]
80101380:	2320      	movs	r3, #32
80101382:	72fb      	strb	r3, [r7, #11]
80101384:	2300      	movs	r3, #0
80101386:	60fb      	str	r3, [r7, #12]
80101388:	e0c7      	b.n	8010151a <my_vprintf+0x1a4>
8010138a:	687b      	ldr	r3, [r7, #4]
8010138c:	781b      	ldrb	r3, [r3, #0]
8010138e:	2b25      	cmp	r3, #37	; 0x25
80101390:	d005      	beq.n	8010139e <my_vprintf+0x28>
80101392:	687b      	ldr	r3, [r7, #4]
80101394:	781b      	ldrb	r3, [r3, #0]
80101396:	4618      	mov	r0, r3
80101398:	f7ff ff5e 	bl	80101258 <outc>
8010139c:	e0ba      	b.n	80101514 <my_vprintf+0x19e>
8010139e:	687b      	ldr	r3, [r7, #4]
801013a0:	3301      	adds	r3, #1
801013a2:	607b      	str	r3, [r7, #4]
801013a4:	687b      	ldr	r3, [r7, #4]
801013a6:	781b      	ldrb	r3, [r3, #0]
801013a8:	2b30      	cmp	r3, #48	; 0x30
801013aa:	d104      	bne.n	801013b6 <my_vprintf+0x40>
801013ac:	2330      	movs	r3, #48	; 0x30
801013ae:	72fb      	strb	r3, [r7, #11]
801013b0:	687b      	ldr	r3, [r7, #4]
801013b2:	3301      	adds	r3, #1
801013b4:	607b      	str	r3, [r7, #4]
801013b6:	2320      	movs	r3, #32
801013b8:	72fb      	strb	r3, [r7, #11]
801013ba:	2300      	movs	r3, #0
801013bc:	60fb      	str	r3, [r7, #12]
801013be:	e00e      	b.n	801013de <my_vprintf+0x68>
801013c0:	68fa      	ldr	r2, [r7, #12]
801013c2:	4613      	mov	r3, r2
801013c4:	009b      	lsls	r3, r3, #2
801013c6:	4413      	add	r3, r2
801013c8:	005b      	lsls	r3, r3, #1
801013ca:	60fb      	str	r3, [r7, #12]
801013cc:	687b      	ldr	r3, [r7, #4]
801013ce:	781b      	ldrb	r3, [r3, #0]
801013d0:	3b30      	subs	r3, #48	; 0x30
801013d2:	68fa      	ldr	r2, [r7, #12]
801013d4:	4413      	add	r3, r2
801013d6:	60fb      	str	r3, [r7, #12]
801013d8:	687b      	ldr	r3, [r7, #4]
801013da:	3301      	adds	r3, #1
801013dc:	607b      	str	r3, [r7, #4]
801013de:	687b      	ldr	r3, [r7, #4]
801013e0:	781b      	ldrb	r3, [r3, #0]
801013e2:	2b2f      	cmp	r3, #47	; 0x2f
801013e4:	d903      	bls.n	801013ee <my_vprintf+0x78>
801013e6:	687b      	ldr	r3, [r7, #4]
801013e8:	781b      	ldrb	r3, [r3, #0]
801013ea:	2b39      	cmp	r3, #57	; 0x39
801013ec:	d9e8      	bls.n	801013c0 <my_vprintf+0x4a>
801013ee:	687b      	ldr	r3, [r7, #4]
801013f0:	781b      	ldrb	r3, [r3, #0]
801013f2:	3b63      	subs	r3, #99	; 0x63
801013f4:	2b15      	cmp	r3, #21
801013f6:	f200 8087 	bhi.w	80101508 <my_vprintf+0x192>
801013fa:	a201      	add	r2, pc, #4	; (adr r2, 80101400 <my_vprintf+0x8a>)
801013fc:	f852 f023 	ldr.w	pc, [r2, r3, lsl #2]
80101400:	801014e1 	andshi	r1, r0, r1, ror #9
80101404:	80101459 	andshi	r1, r0, r9, asr r4
80101408:	80101509 	andshi	r1, r0, r9, lsl #10
8010140c:	80101509 	andshi	r1, r0, r9, lsl #10
80101410:	80101509 	andshi	r1, r0, r9, lsl #10
80101414:	80101509 	andshi	r1, r0, r9, lsl #10
80101418:	80101509 	andshi	r1, r0, r9, lsl #10
8010141c:	80101509 	andshi	r1, r0, r9, lsl #10
80101420:	80101509 	andshi	r1, r0, r9, lsl #10
80101424:	80101509 	andshi	r1, r0, r9, lsl #10
80101428:	80101509 	andshi	r1, r0, r9, lsl #10
8010142c:	80101509 	andshi	r1, r0, r9, lsl #10
80101430:	8010147b 	andshi	r1, r0, fp, ror r4
80101434:	80101509 	andshi	r1, r0, r9, lsl #10
80101438:	80101509 	andshi	r1, r0, r9, lsl #10
8010143c:	80101509 	andshi	r1, r0, r9, lsl #10
80101440:	801014f5 			; <UNDEFINED> instruction: 0x801014f5
80101444:	80101509 	andshi	r1, r0, r9, lsl #10
80101448:	8010149d 	mulshi	r0, sp, r4
8010144c:	80101509 	andshi	r1, r0, r9, lsl #10
80101450:	80101509 	andshi	r1, r0, r9, lsl #10
80101454:	801014bf 			; <UNDEFINED> instruction: 0x801014bf
80101458:	683b      	ldr	r3, [r7, #0]
8010145a:	3304      	adds	r3, #4
8010145c:	603b      	str	r3, [r7, #0]
8010145e:	683b      	ldr	r3, [r7, #0]
80101460:	3b04      	subs	r3, #4
80101462:	681b      	ldr	r3, [r3, #0]
80101464:	4618      	mov	r0, r3
80101466:	ea4f 71e0 	mov.w	r1, r0, asr #31
8010146a:	7afa      	ldrb	r2, [r7, #11]
8010146c:	68fb      	ldr	r3, [r7, #12]
8010146e:	9300      	str	r3, [sp, #0]
80101470:	4613      	mov	r3, r2
80101472:	220a      	movs	r2, #10
80101474:	f7ff ff11 	bl	8010129a <out_num>
80101478:	e04c      	b.n	80101514 <my_vprintf+0x19e>
8010147a:	683b      	ldr	r3, [r7, #0]
8010147c:	3304      	adds	r3, #4
8010147e:	603b      	str	r3, [r7, #0]
80101480:	683b      	ldr	r3, [r7, #0]
80101482:	3b04      	subs	r3, #4
80101484:	681b      	ldr	r3, [r3, #0]
80101486:	4618      	mov	r0, r3
80101488:	f04f 0100 	mov.w	r1, #0
8010148c:	7afa      	ldrb	r2, [r7, #11]
8010148e:	68fb      	ldr	r3, [r7, #12]
80101490:	9300      	str	r3, [sp, #0]
80101492:	4613      	mov	r3, r2
80101494:	2208      	movs	r2, #8
80101496:	f7ff ff00 	bl	8010129a <out_num>
8010149a:	e03b      	b.n	80101514 <my_vprintf+0x19e>
8010149c:	683b      	ldr	r3, [r7, #0]
8010149e:	3304      	adds	r3, #4
801014a0:	603b      	str	r3, [r7, #0]
801014a2:	683b      	ldr	r3, [r7, #0]
801014a4:	3b04      	subs	r3, #4
801014a6:	681b      	ldr	r3, [r3, #0]
801014a8:	4618      	mov	r0, r3
801014aa:	f04f 0100 	mov.w	r1, #0
801014ae:	7afa      	ldrb	r2, [r7, #11]
801014b0:	68fb      	ldr	r3, [r7, #12]
801014b2:	9300      	str	r3, [sp, #0]
801014b4:	4613      	mov	r3, r2
801014b6:	220a      	movs	r2, #10
801014b8:	f7ff feef 	bl	8010129a <out_num>
801014bc:	e02a      	b.n	80101514 <my_vprintf+0x19e>
801014be:	683b      	ldr	r3, [r7, #0]
801014c0:	3304      	adds	r3, #4
801014c2:	603b      	str	r3, [r7, #0]
801014c4:	683b      	ldr	r3, [r7, #0]
801014c6:	3b04      	subs	r3, #4
801014c8:	681b      	ldr	r3, [r3, #0]
801014ca:	4618      	mov	r0, r3
801014cc:	f04f 0100 	mov.w	r1, #0
801014d0:	7afa      	ldrb	r2, [r7, #11]
801014d2:	68fb      	ldr	r3, [r7, #12]
801014d4:	9300      	str	r3, [sp, #0]
801014d6:	4613      	mov	r3, r2
801014d8:	2210      	movs	r2, #16
801014da:	f7ff fede 	bl	8010129a <out_num>
801014de:	e019      	b.n	80101514 <my_vprintf+0x19e>
801014e0:	683b      	ldr	r3, [r7, #0]
801014e2:	3304      	adds	r3, #4
801014e4:	603b      	str	r3, [r7, #0]
801014e6:	683b      	ldr	r3, [r7, #0]
801014e8:	3b04      	subs	r3, #4
801014ea:	681b      	ldr	r3, [r3, #0]
801014ec:	4618      	mov	r0, r3
801014ee:	f7ff feb3 	bl	80101258 <outc>
801014f2:	e00f      	b.n	80101514 <my_vprintf+0x19e>
801014f4:	683b      	ldr	r3, [r7, #0]
801014f6:	3304      	adds	r3, #4
801014f8:	603b      	str	r3, [r7, #0]
801014fa:	683b      	ldr	r3, [r7, #0]
801014fc:	3b04      	subs	r3, #4
801014fe:	681b      	ldr	r3, [r3, #0]
80101500:	4618      	mov	r0, r3
80101502:	f7ff feb5 	bl	80101270 <outs>
80101506:	e005      	b.n	80101514 <my_vprintf+0x19e>
80101508:	687b      	ldr	r3, [r7, #4]
8010150a:	781b      	ldrb	r3, [r3, #0]
8010150c:	4618      	mov	r0, r3
8010150e:	f7ff fea3 	bl	80101258 <outc>
80101512:	bf00      	nop
80101514:	687b      	ldr	r3, [r7, #4]
80101516:	3301      	adds	r3, #1
80101518:	607b      	str	r3, [r7, #4]
8010151a:	687b      	ldr	r3, [r7, #4]
8010151c:	781b      	ldrb	r3, [r3, #0]
8010151e:	2b00      	cmp	r3, #0
80101520:	f47f af33 	bne.w	8010138a <my_vprintf+0x14>
80101524:	2300      	movs	r3, #0
80101526:	4618      	mov	r0, r3
80101528:	3710      	adds	r7, #16
8010152a:	46bd      	mov	sp, r7
8010152c:	bd80      	pop	{r7, pc}

8010152e <printf>:
8010152e:	b40f      	push	{r0, r1, r2, r3}
80101530:	b580      	push	{r7, lr}
80101532:	b082      	sub	sp, #8
80101534:	af00      	add	r7, sp, #0
80101536:	f107 0314 	add.w	r3, r7, #20
8010153a:	607b      	str	r3, [r7, #4]
8010153c:	693b      	ldr	r3, [r7, #16]
8010153e:	6879      	ldr	r1, [r7, #4]
80101540:	4618      	mov	r0, r3
80101542:	f7ff ff18 	bl	80101376 <my_vprintf>
80101546:	2300      	movs	r3, #0
80101548:	607b      	str	r3, [r7, #4]
8010154a:	2300      	movs	r3, #0
8010154c:	4618      	mov	r0, r3
8010154e:	3708      	adds	r7, #8
80101550:	46bd      	mov	sp, r7
80101552:	e8bd 4080 	ldmia.w	sp!, {r7, lr}
80101556:	b004      	add	sp, #16
80101558:	4770      	bx	lr

8010155a <my_printf_test>:
8010155a:	b580      	push	{r7, lr}
8010155c:	af00      	add	r7, sp, #0
8010155e:	f244 0094 	movw	r0, #16532	; 0x4094
80101562:	f2c8 0010 	movt	r0, #32784	; 0x8010
80101566:	f7ff ffe2 	bl	8010152e <printf>
8010156a:	2261      	movs	r2, #97	; 0x61
8010156c:	2141      	movs	r1, #65	; 0x41
8010156e:	f244 00c0 	movw	r0, #16576	; 0x40c0
80101572:	f2c8 0010 	movt	r0, #32784	; 0x8010
80101576:	f7ff ffda 	bl	8010152e <printf>
8010157a:	f24e 2140 	movw	r1, #57920	; 0xe240
8010157e:	f2c0 0101 	movt	r1, #1
80101582:	f244 00e0 	movw	r0, #16608	; 0x40e0
80101586:	f2c8 0010 	movt	r0, #32784	; 0x8010
8010158a:	f7ff ffd0 	bl	8010152e <printf>
8010158e:	f44f 51ee 	mov.w	r1, #7616	; 0x1dc0
80101592:	f6cf 71fe 	movt	r1, #65534	; 0xfffe
80101596:	f244 00e0 	movw	r0, #16608	; 0x40e0
8010159a:	f2c8 0010 	movt	r0, #32784	; 0x8010
8010159e:	f7ff ffc6 	bl	8010152e <printf>
801015a2:	f245 51aa 	movw	r1, #21930	; 0x55aa
801015a6:	f2c5 51aa 	movt	r1, #21930	; 0x55aa
801015aa:	f244 00fc 	movw	r0, #16636	; 0x40fc
801015ae:	f2c8 0010 	movt	r0, #32784	; 0x8010
801015b2:	f7ff ffbc 	bl	8010152e <printf>
801015b6:	f244 1118 	movw	r1, #16664	; 0x4118
801015ba:	f2c8 0110 	movt	r1, #32784	; 0x8010
801015be:	f244 1028 	movw	r0, #16680	; 0x4128
801015c2:	f2c8 0010 	movt	r0, #32784	; 0x8010
801015c6:	f7ff ffb2 	bl	8010152e <printf>
801015ca:	f243 0139 	movw	r1, #12345	; 0x3039
801015ce:	f244 1044 	movw	r0, #16708	; 0x4144
801015d2:	f2c8 0010 	movt	r0, #32784	; 0x8010
801015d6:	f7ff ffaa 	bl	8010152e <printf>
801015da:	f243 0139 	movw	r1, #12345	; 0x3039
801015de:	f244 1050 	movw	r0, #16720	; 0x4150
801015e2:	f2c8 0010 	movt	r0, #32784	; 0x8010
801015e6:	f7ff ffa2 	bl	8010152e <printf>
801015ea:	f242 3145 	movw	r1, #9029	; 0x2345
801015ee:	f2c0 0101 	movt	r1, #1
801015f2:	f244 105c 	movw	r0, #16732	; 0x415c
801015f6:	f2c8 0010 	movt	r0, #32784	; 0x8010
801015fa:	f7ff ff98 	bl	8010152e <printf>
801015fe:	f242 3145 	movw	r1, #9029	; 0x2345
80101602:	f2c0 0101 	movt	r1, #1
80101606:	f244 106c 	movw	r0, #16748	; 0x416c
8010160a:	f2c8 0010 	movt	r0, #32784	; 0x8010
8010160e:	f7ff ff8e 	bl	8010152e <printf>
80101612:	2101      	movs	r1, #1
80101614:	f244 1078 	movw	r0, #16760	; 0x4178
80101618:	f2c8 0010 	movt	r0, #32784	; 0x8010
8010161c:	f7ff ff87 	bl	8010152e <printf>
80101620:	2101      	movs	r1, #1
80101622:	f244 1088 	movw	r0, #16776	; 0x4188
80101626:	f2c8 0010 	movt	r0, #32784	; 0x8010
8010162a:	f7ff ff80 	bl	8010152e <printf>
8010162e:	2101      	movs	r1, #1
80101630:	f244 1094 	movw	r0, #16788	; 0x4194
80101634:	f2c8 0010 	movt	r0, #32784	; 0x8010
80101638:	f7ff ff79 	bl	8010152e <printf>
8010163c:	2101      	movs	r1, #1
8010163e:	f244 10a0 	movw	r0, #16800	; 0x41a0
80101642:	f2c8 0010 	movt	r0, #32784	; 0x8010
80101646:	f7ff ff72 	bl	8010152e <printf>
8010164a:	2300      	movs	r3, #0
8010164c:	4618      	mov	r0, r3
8010164e:	bd80      	pop	{r7, pc}

80101650 <memcpy>:
80101650:	b480      	push	{r7}
80101652:	b089      	sub	sp, #36	; 0x24
80101654:	af00      	add	r7, sp, #0
80101656:	60f8      	str	r0, [r7, #12]
80101658:	60b9      	str	r1, [r7, #8]
8010165a:	607a      	str	r2, [r7, #4]
8010165c:	68fb      	ldr	r3, [r7, #12]
8010165e:	61fb      	str	r3, [r7, #28]
80101660:	68bb      	ldr	r3, [r7, #8]
80101662:	61bb      	str	r3, [r7, #24]
80101664:	68ba      	ldr	r2, [r7, #8]
80101666:	68fb      	ldr	r3, [r7, #12]
80101668:	429a      	cmp	r2, r3
8010166a:	d101      	bne.n	80101670 <memcpy+0x20>
8010166c:	68fb      	ldr	r3, [r7, #12]
8010166e:	e028      	b.n	801016c2 <memcpy+0x72>
80101670:	68fa      	ldr	r2, [r7, #12]
80101672:	68bb      	ldr	r3, [r7, #8]
80101674:	4313      	orrs	r3, r2
80101676:	f003 0303 	and.w	r3, r3, #3
8010167a:	2b00      	cmp	r3, #0
8010167c:	d10e      	bne.n	8010169c <memcpy+0x4c>
8010167e:	e00a      	b.n	80101696 <memcpy+0x46>
80101680:	69fb      	ldr	r3, [r7, #28]
80101682:	1d1a      	adds	r2, r3, #4
80101684:	61fa      	str	r2, [r7, #28]
80101686:	69ba      	ldr	r2, [r7, #24]
80101688:	1d11      	adds	r1, r2, #4
8010168a:	61b9      	str	r1, [r7, #24]
8010168c:	6812      	ldr	r2, [r2, #0]
8010168e:	601a      	str	r2, [r3, #0]
80101690:	687b      	ldr	r3, [r7, #4]
80101692:	3b04      	subs	r3, #4
80101694:	607b      	str	r3, [r7, #4]
80101696:	687b      	ldr	r3, [r7, #4]
80101698:	2b03      	cmp	r3, #3
8010169a:	d8f1      	bhi.n	80101680 <memcpy+0x30>
8010169c:	69fb      	ldr	r3, [r7, #28]
8010169e:	617b      	str	r3, [r7, #20]
801016a0:	69bb      	ldr	r3, [r7, #24]
801016a2:	613b      	str	r3, [r7, #16]
801016a4:	e007      	b.n	801016b6 <memcpy+0x66>
801016a6:	697b      	ldr	r3, [r7, #20]
801016a8:	1c5a      	adds	r2, r3, #1
801016aa:	617a      	str	r2, [r7, #20]
801016ac:	693a      	ldr	r2, [r7, #16]
801016ae:	1c51      	adds	r1, r2, #1
801016b0:	6139      	str	r1, [r7, #16]
801016b2:	7812      	ldrb	r2, [r2, #0]
801016b4:	701a      	strb	r2, [r3, #0]
801016b6:	687b      	ldr	r3, [r7, #4]
801016b8:	1e5a      	subs	r2, r3, #1
801016ba:	607a      	str	r2, [r7, #4]
801016bc:	2b00      	cmp	r3, #0
801016be:	d1f2      	bne.n	801016a6 <memcpy+0x56>
801016c0:	68fb      	ldr	r3, [r7, #12]
801016c2:	4618      	mov	r0, r3
801016c4:	3724      	adds	r7, #36	; 0x24
801016c6:	46bd      	mov	sp, r7
801016c8:	f85d 7b04 	ldr.w	r7, [sp], #4
801016cc:	4770      	bx	lr

801016ce <memset>:
801016ce:	b480      	push	{r7}
801016d0:	b089      	sub	sp, #36	; 0x24
801016d2:	af00      	add	r7, sp, #0
801016d4:	60f8      	str	r0, [r7, #12]
801016d6:	60b9      	str	r1, [r7, #8]
801016d8:	607a      	str	r2, [r7, #4]
801016da:	68fb      	ldr	r3, [r7, #12]
801016dc:	61fb      	str	r3, [r7, #28]
801016de:	2300      	movs	r3, #0
801016e0:	61bb      	str	r3, [r7, #24]
801016e2:	68fb      	ldr	r3, [r7, #12]
801016e4:	f003 0303 	and.w	r3, r3, #3
801016e8:	2b00      	cmp	r3, #0
801016ea:	d11c      	bne.n	80101726 <memset+0x58>
801016ec:	2300      	movs	r3, #0
801016ee:	613b      	str	r3, [r7, #16]
801016f0:	e00a      	b.n	80101708 <memset+0x3a>
801016f2:	69bb      	ldr	r3, [r7, #24]
801016f4:	021b      	lsls	r3, r3, #8
801016f6:	61bb      	str	r3, [r7, #24]
801016f8:	68bb      	ldr	r3, [r7, #8]
801016fa:	b2db      	uxtb	r3, r3
801016fc:	69ba      	ldr	r2, [r7, #24]
801016fe:	4313      	orrs	r3, r2
80101700:	61bb      	str	r3, [r7, #24]
80101702:	693b      	ldr	r3, [r7, #16]
80101704:	3301      	adds	r3, #1
80101706:	613b      	str	r3, [r7, #16]
80101708:	693b      	ldr	r3, [r7, #16]
8010170a:	2b03      	cmp	r3, #3
8010170c:	d9f1      	bls.n	801016f2 <memset+0x24>
8010170e:	e007      	b.n	80101720 <memset+0x52>
80101710:	69fb      	ldr	r3, [r7, #28]
80101712:	1d1a      	adds	r2, r3, #4
80101714:	61fa      	str	r2, [r7, #28]
80101716:	69ba      	ldr	r2, [r7, #24]
80101718:	601a      	str	r2, [r3, #0]
8010171a:	687b      	ldr	r3, [r7, #4]
8010171c:	3b04      	subs	r3, #4
8010171e:	607b      	str	r3, [r7, #4]
80101720:	687b      	ldr	r3, [r7, #4]
80101722:	2b03      	cmp	r3, #3
80101724:	d8f4      	bhi.n	80101710 <memset+0x42>
80101726:	69fb      	ldr	r3, [r7, #28]
80101728:	617b      	str	r3, [r7, #20]
8010172a:	e005      	b.n	80101738 <memset+0x6a>
8010172c:	697b      	ldr	r3, [r7, #20]
8010172e:	1c5a      	adds	r2, r3, #1
80101730:	617a      	str	r2, [r7, #20]
80101732:	68ba      	ldr	r2, [r7, #8]
80101734:	b2d2      	uxtb	r2, r2
80101736:	701a      	strb	r2, [r3, #0]
80101738:	687b      	ldr	r3, [r7, #4]
8010173a:	1e5a      	subs	r2, r3, #1
8010173c:	607a      	str	r2, [r7, #4]
8010173e:	2b00      	cmp	r3, #0
80101740:	d1f4      	bne.n	8010172c <memset+0x5e>
80101742:	68fb      	ldr	r3, [r7, #12]
80101744:	4618      	mov	r0, r3
80101746:	3724      	adds	r7, #36	; 0x24
80101748:	46bd      	mov	sp, r7
8010174a:	f85d 7b04 	ldr.w	r7, [sp], #4
8010174e:	4770      	bx	lr

80101750 <USDHC_Dump_All>:
80101750:	b580      	push	{r7, lr}
80101752:	b082      	sub	sp, #8
80101754:	af00      	add	r7, sp, #0
80101756:	6078      	str	r0, [r7, #4]
80101758:	687b      	ldr	r3, [r7, #4]
8010175a:	681b      	ldr	r3, [r3, #0]
8010175c:	4619      	mov	r1, r3
8010175e:	f244 10ac 	movw	r0, #16812	; 0x41ac
80101762:	f2c8 0010 	movt	r0, #32784	; 0x8010
80101766:	f7ff fee2 	bl	8010152e <printf>
8010176a:	687b      	ldr	r3, [r7, #4]
8010176c:	685b      	ldr	r3, [r3, #4]
8010176e:	4619      	mov	r1, r3
80101770:	f244 10c0 	movw	r0, #16832	; 0x41c0
80101774:	f2c8 0010 	movt	r0, #32784	; 0x8010
80101778:	f7ff fed9 	bl	8010152e <printf>
8010177c:	687b      	ldr	r3, [r7, #4]
8010177e:	689b      	ldr	r3, [r3, #8]
80101780:	4619      	mov	r1, r3
80101782:	f244 10d4 	movw	r0, #16852	; 0x41d4
80101786:	f2c8 0010 	movt	r0, #32784	; 0x8010
8010178a:	f7ff fed0 	bl	8010152e <printf>
8010178e:	687b      	ldr	r3, [r7, #4]
80101790:	68db      	ldr	r3, [r3, #12]
80101792:	4619      	mov	r1, r3
80101794:	f244 10e8 	movw	r0, #16872	; 0x41e8
80101798:	f2c8 0010 	movt	r0, #32784	; 0x8010
8010179c:	f7ff fec7 	bl	8010152e <printf>
801017a0:	687b      	ldr	r3, [r7, #4]
801017a2:	691b      	ldr	r3, [r3, #16]
801017a4:	4619      	mov	r1, r3
801017a6:	f244 2000 	movw	r0, #16896	; 0x4200
801017aa:	f2c8 0010 	movt	r0, #32784	; 0x8010
801017ae:	f7ff febe 	bl	8010152e <printf>
801017b2:	687b      	ldr	r3, [r7, #4]
801017b4:	695b      	ldr	r3, [r3, #20]
801017b6:	4619      	mov	r1, r3
801017b8:	f244 2014 	movw	r0, #16916	; 0x4214
801017bc:	f2c8 0010 	movt	r0, #32784	; 0x8010
801017c0:	f7ff feb5 	bl	8010152e <printf>
801017c4:	687b      	ldr	r3, [r7, #4]
801017c6:	699b      	ldr	r3, [r3, #24]
801017c8:	4619      	mov	r1, r3
801017ca:	f244 2028 	movw	r0, #16936	; 0x4228
801017ce:	f2c8 0010 	movt	r0, #32784	; 0x8010
801017d2:	f7ff feac 	bl	8010152e <printf>
801017d6:	687b      	ldr	r3, [r7, #4]
801017d8:	69db      	ldr	r3, [r3, #28]
801017da:	4619      	mov	r1, r3
801017dc:	f244 203c 	movw	r0, #16956	; 0x423c
801017e0:	f2c8 0010 	movt	r0, #32784	; 0x8010
801017e4:	f7ff fea3 	bl	8010152e <printf>
801017e8:	687b      	ldr	r3, [r7, #4]
801017ea:	6a1b      	ldr	r3, [r3, #32]
801017ec:	4619      	mov	r1, r3
801017ee:	f244 2050 	movw	r0, #16976	; 0x4250
801017f2:	f2c8 0010 	movt	r0, #32784	; 0x8010
801017f6:	f7ff fe9a 	bl	8010152e <printf>
801017fa:	687b      	ldr	r3, [r7, #4]
801017fc:	6a5b      	ldr	r3, [r3, #36]	; 0x24
801017fe:	4619      	mov	r1, r3
80101800:	f244 2070 	movw	r0, #17008	; 0x4270
80101804:	f2c8 0010 	movt	r0, #32784	; 0x8010
80101808:	f7ff fe91 	bl	8010152e <printf>
8010180c:	687b      	ldr	r3, [r7, #4]
8010180e:	6a9b      	ldr	r3, [r3, #40]	; 0x28
80101810:	4619      	mov	r1, r3
80101812:	f244 2088 	movw	r0, #17032	; 0x4288
80101816:	f2c8 0010 	movt	r0, #32784	; 0x8010
8010181a:	f7ff fe88 	bl	8010152e <printf>
8010181e:	687b      	ldr	r3, [r7, #4]
80101820:	6adb      	ldr	r3, [r3, #44]	; 0x2c
80101822:	4619      	mov	r1, r3
80101824:	f244 209c 	movw	r0, #17052	; 0x429c
80101828:	f2c8 0010 	movt	r0, #32784	; 0x8010
8010182c:	f7ff fe7f 	bl	8010152e <printf>
80101830:	687b      	ldr	r3, [r7, #4]
80101832:	6b1b      	ldr	r3, [r3, #48]	; 0x30
80101834:	4619      	mov	r1, r3
80101836:	f244 20b0 	movw	r0, #17072	; 0x42b0
8010183a:	f2c8 0010 	movt	r0, #32784	; 0x8010
8010183e:	f7ff fe76 	bl	8010152e <printf>
80101842:	687b      	ldr	r3, [r7, #4]
80101844:	6b5b      	ldr	r3, [r3, #52]	; 0x34
80101846:	4619      	mov	r1, r3
80101848:	f244 20c8 	movw	r0, #17096	; 0x42c8
8010184c:	f2c8 0010 	movt	r0, #32784	; 0x8010
80101850:	f7ff fe6d 	bl	8010152e <printf>
80101854:	687b      	ldr	r3, [r7, #4]
80101856:	6b9b      	ldr	r3, [r3, #56]	; 0x38
80101858:	4619      	mov	r1, r3
8010185a:	f244 20e0 	movw	r0, #17120	; 0x42e0
8010185e:	f2c8 0010 	movt	r0, #32784	; 0x8010
80101862:	f7ff fe64 	bl	8010152e <printf>
80101866:	687b      	ldr	r3, [r7, #4]
80101868:	6bdb      	ldr	r3, [r3, #60]	; 0x3c
8010186a:	4619      	mov	r1, r3
8010186c:	f244 20f8 	movw	r0, #17144	; 0x42f8
80101870:	f2c8 0010 	movt	r0, #32784	; 0x8010
80101874:	f7ff fe5b 	bl	8010152e <printf>
80101878:	687b      	ldr	r3, [r7, #4]
8010187a:	6c1b      	ldr	r3, [r3, #64]	; 0x40
8010187c:	4619      	mov	r1, r3
8010187e:	f244 3018 	movw	r0, #17176	; 0x4318
80101882:	f2c8 0010 	movt	r0, #32784	; 0x8010
80101886:	f7ff fe52 	bl	8010152e <printf>
8010188a:	687b      	ldr	r3, [r7, #4]
8010188c:	6c5b      	ldr	r3, [r3, #68]	; 0x44
8010188e:	4619      	mov	r1, r3
80101890:	f244 3030 	movw	r0, #17200	; 0x4330
80101894:	f2c8 0010 	movt	r0, #32784	; 0x8010
80101898:	f7ff fe49 	bl	8010152e <printf>
8010189c:	687b      	ldr	r3, [r7, #4]
8010189e:	6c9b      	ldr	r3, [r3, #72]	; 0x48
801018a0:	4619      	mov	r1, r3
801018a2:	f244 3044 	movw	r0, #17220	; 0x4344
801018a6:	f2c8 0010 	movt	r0, #32784	; 0x8010
801018aa:	f7ff fe40 	bl	8010152e <printf>
801018ae:	687b      	ldr	r3, [r7, #4]
801018b0:	6d1b      	ldr	r3, [r3, #80]	; 0x50
801018b2:	4619      	mov	r1, r3
801018b4:	f244 3058 	movw	r0, #17240	; 0x4358
801018b8:	f2c8 0010 	movt	r0, #32784	; 0x8010
801018bc:	f7ff fe37 	bl	8010152e <printf>
801018c0:	687b      	ldr	r3, [r7, #4]
801018c2:	6d5b      	ldr	r3, [r3, #84]	; 0x54
801018c4:	4619      	mov	r1, r3
801018c6:	f244 3070 	movw	r0, #17264	; 0x4370
801018ca:	f2c8 0010 	movt	r0, #32784	; 0x8010
801018ce:	f7ff fe2e 	bl	8010152e <printf>
801018d2:	687b      	ldr	r3, [r7, #4]
801018d4:	6d9b      	ldr	r3, [r3, #88]	; 0x58
801018d6:	4619      	mov	r1, r3
801018d8:	f244 308c 	movw	r0, #17292	; 0x438c
801018dc:	f2c8 0010 	movt	r0, #32784	; 0x8010
801018e0:	f7ff fe25 	bl	8010152e <printf>
801018e4:	687b      	ldr	r3, [r7, #4]
801018e6:	6e1b      	ldr	r3, [r3, #96]	; 0x60
801018e8:	4619      	mov	r1, r3
801018ea:	f244 30a4 	movw	r0, #17316	; 0x43a4
801018ee:	f2c8 0010 	movt	r0, #32784	; 0x8010
801018f2:	f7ff fe1c 	bl	8010152e <printf>
801018f6:	687b      	ldr	r3, [r7, #4]
801018f8:	6e5b      	ldr	r3, [r3, #100]	; 0x64
801018fa:	4619      	mov	r1, r3
801018fc:	f244 30b8 	movw	r0, #17336	; 0x43b8
80101900:	f2c8 0010 	movt	r0, #32784	; 0x8010
80101904:	f7ff fe13 	bl	8010152e <printf>
80101908:	687b      	ldr	r3, [r7, #4]
8010190a:	6e9b      	ldr	r3, [r3, #104]	; 0x68
8010190c:	4619      	mov	r1, r3
8010190e:	f244 30d0 	movw	r0, #17360	; 0x43d0
80101912:	f2c8 0010 	movt	r0, #32784	; 0x8010
80101916:	f7ff fe0a 	bl	8010152e <printf>
8010191a:	687b      	ldr	r3, [r7, #4]
8010191c:	f8d3 30c0 	ldr.w	r3, [r3, #192]	; 0xc0
80101920:	4619      	mov	r1, r3
80101922:	f244 30f0 	movw	r0, #17392	; 0x43f0
80101926:	f2c8 0010 	movt	r0, #32784	; 0x8010
8010192a:	f7ff fe00 	bl	8010152e <printf>
8010192e:	687b      	ldr	r3, [r7, #4]
80101930:	f8d3 30c4 	ldr.w	r3, [r3, #196]	; 0xc4
80101934:	4619      	mov	r1, r3
80101936:	f244 4004 	movw	r0, #17412	; 0x4404
8010193a:	f2c8 0010 	movt	r0, #32784	; 0x8010
8010193e:	f7ff fdf6 	bl	8010152e <printf>
80101942:	687b      	ldr	r3, [r7, #4]
80101944:	f8d3 30c8 	ldr.w	r3, [r3, #200]	; 0xc8
80101948:	4619      	mov	r1, r3
8010194a:	f244 4018 	movw	r0, #17432	; 0x4418
8010194e:	f2c8 0010 	movt	r0, #32784	; 0x8010
80101952:	f7ff fdec 	bl	8010152e <printf>
80101956:	687b      	ldr	r3, [r7, #4]
80101958:	f8d3 30cc 	ldr.w	r3, [r3, #204]	; 0xcc
8010195c:	4619      	mov	r1, r3
8010195e:	f244 4030 	movw	r0, #17456	; 0x4430
80101962:	f2c8 0010 	movt	r0, #32784	; 0x8010
80101966:	f7ff fde2 	bl	8010152e <printf>
8010196a:	bf00      	nop
8010196c:	3708      	adds	r7, #8
8010196e:	46bd      	mov	sp, r7
80101970:	bd80      	pop	{r7, pc}

80101972 <USDHC_Reset>:
80101972:	b480      	push	{r7}
80101974:	b085      	sub	sp, #20
80101976:	af00      	add	r7, sp, #0
80101978:	60f8      	str	r0, [r7, #12]
8010197a:	60b9      	str	r1, [r7, #8]
8010197c:	607a      	str	r2, [r7, #4]
8010197e:	68fb      	ldr	r3, [r7, #12]
80101980:	6ada      	ldr	r2, [r3, #44]	; 0x2c
80101982:	68bb      	ldr	r3, [r7, #8]
80101984:	f003 63e0 	and.w	r3, r3, #117440512	; 0x7000000
80101988:	431a      	orrs	r2, r3
8010198a:	68fb      	ldr	r3, [r7, #12]
8010198c:	62da      	str	r2, [r3, #44]	; 0x2c
8010198e:	e005      	b.n	8010199c <USDHC_Reset+0x2a>
80101990:	687b      	ldr	r3, [r7, #4]
80101992:	2b00      	cmp	r3, #0
80101994:	d009      	beq.n	801019aa <USDHC_Reset+0x38>
80101996:	687b      	ldr	r3, [r7, #4]
80101998:	3b01      	subs	r3, #1
8010199a:	607b      	str	r3, [r7, #4]
8010199c:	68fb      	ldr	r3, [r7, #12]
8010199e:	6ada      	ldr	r2, [r3, #44]	; 0x2c
801019a0:	68bb      	ldr	r3, [r7, #8]
801019a2:	4013      	ands	r3, r2
801019a4:	2b00      	cmp	r3, #0
801019a6:	d1f3      	bne.n	80101990 <USDHC_Reset+0x1e>
801019a8:	e000      	b.n	801019ac <USDHC_Reset+0x3a>
801019aa:	bf00      	nop
801019ac:	687b      	ldr	r3, [r7, #4]
801019ae:	2b00      	cmp	r3, #0
801019b0:	bf14      	ite	ne
801019b2:	2301      	movne	r3, #1
801019b4:	2300      	moveq	r3, #0
801019b6:	b2db      	uxtb	r3, r3
801019b8:	4618      	mov	r0, r3
801019ba:	3714      	adds	r7, #20
801019bc:	46bd      	mov	sp, r7
801019be:	f85d 7b04 	ldr.w	r7, [sp], #4
801019c2:	4770      	bx	lr

801019c4 <USDHC_Reset_All>:
801019c4:	b580      	push	{r7, lr}
801019c6:	b082      	sub	sp, #8
801019c8:	af00      	add	r7, sp, #0
801019ca:	6078      	str	r0, [r7, #4]
801019cc:	6039      	str	r1, [r7, #0]
801019ce:	683a      	ldr	r2, [r7, #0]
801019d0:	f04f 7180 	mov.w	r1, #16777216	; 0x1000000
801019d4:	6878      	ldr	r0, [r7, #4]
801019d6:	f7ff ffcc 	bl	80101972 <USDHC_Reset>
801019da:	4603      	mov	r3, r0
801019dc:	4618      	mov	r0, r3
801019de:	3708      	adds	r7, #8
801019e0:	46bd      	mov	sp, r7
801019e2:	bd80      	pop	{r7, pc}

801019e4 <USDHC_Reset_Cmd_Line>:
801019e4:	b580      	push	{r7, lr}
801019e6:	b082      	sub	sp, #8
801019e8:	af00      	add	r7, sp, #0
801019ea:	6078      	str	r0, [r7, #4]
801019ec:	6039      	str	r1, [r7, #0]
801019ee:	683a      	ldr	r2, [r7, #0]
801019f0:	f04f 7100 	mov.w	r1, #33554432	; 0x2000000
801019f4:	6878      	ldr	r0, [r7, #4]
801019f6:	f7ff ffbc 	bl	80101972 <USDHC_Reset>
801019fa:	4603      	mov	r3, r0
801019fc:	4618      	mov	r0, r3
801019fe:	3708      	adds	r7, #8
80101a00:	46bd      	mov	sp, r7
80101a02:	bd80      	pop	{r7, pc}

80101a04 <USDHC_Reset_Data_Line>:
80101a04:	b580      	push	{r7, lr}
80101a06:	b082      	sub	sp, #8
80101a08:	af00      	add	r7, sp, #0
80101a0a:	6078      	str	r0, [r7, #4]
80101a0c:	6039      	str	r1, [r7, #0]
80101a0e:	683a      	ldr	r2, [r7, #0]
80101a10:	f04f 6180 	mov.w	r1, #67108864	; 0x4000000
80101a14:	6878      	ldr	r0, [r7, #4]
80101a16:	f7ff ffac 	bl	80101972 <USDHC_Reset>
80101a1a:	4603      	mov	r3, r0
80101a1c:	4618      	mov	r0, r3
80101a1e:	3708      	adds	r7, #8
80101a20:	46bd      	mov	sp, r7
80101a22:	bd80      	pop	{r7, pc}

80101a24 <USDHC_CreateDescTable>:
80101a24:	b490      	push	{r4, r7}
80101a26:	b086      	sub	sp, #24
80101a28:	af00      	add	r7, sp, #0
80101a2a:	6078      	str	r0, [r7, #4]
80101a2c:	6039      	str	r1, [r7, #0]
80101a2e:	683b      	ldr	r3, [r7, #0]
80101a30:	089a      	lsrs	r2, r3, #2
80101a32:	2305      	movs	r3, #5
80101a34:	f2c4 0301 	movt	r3, #16385	; 0x4001
80101a38:	fba2 3403 	umull	r3, r4, r2, r3
80101a3c:	0b23      	lsrs	r3, r4, #12
80101a3e:	60fb      	str	r3, [r7, #12]
80101a40:	6839      	ldr	r1, [r7, #0]
80101a42:	088a      	lsrs	r2, r1, #2
80101a44:	2305      	movs	r3, #5
80101a46:	f2c4 0301 	movt	r3, #16385	; 0x4001
80101a4a:	fba2 3403 	umull	r3, r4, r2, r3
80101a4e:	0b22      	lsrs	r2, r4, #12
80101a50:	4613      	mov	r3, r2
80101a52:	039b      	lsls	r3, r3, #14
80101a54:	1a9b      	subs	r3, r3, r2
80101a56:	009b      	lsls	r3, r3, #2
80101a58:	1aca      	subs	r2, r1, r3
80101a5a:	2a00      	cmp	r2, #0
80101a5c:	d002      	beq.n	80101a64 <USDHC_CreateDescTable+0x40>
80101a5e:	68fb      	ldr	r3, [r7, #12]
80101a60:	3301      	adds	r3, #1
80101a62:	60fb      	str	r3, [r7, #12]
80101a64:	2300      	movs	r3, #0
80101a66:	617b      	str	r3, [r7, #20]
80101a68:	e038      	b.n	80101adc <USDHC_CreateDescTable+0xb8>
80101a6a:	683b      	ldr	r3, [r7, #0]
80101a6c:	f64f 72fc 	movw	r2, #65532	; 0xfffc
80101a70:	4293      	cmp	r3, r2
80101a72:	d908      	bls.n	80101a86 <USDHC_CreateDescTable+0x62>
80101a74:	f64f 73fc 	movw	r3, #65532	; 0xfffc
80101a78:	613b      	str	r3, [r7, #16]
80101a7a:	683b      	ldr	r3, [r7, #0]
80101a7c:	f5a3 437f 	sub.w	r3, r3, #65280	; 0xff00
80101a80:	3bfc      	subs	r3, #252	; 0xfc
80101a82:	603b      	str	r3, [r7, #0]
80101a84:	e001      	b.n	80101a8a <USDHC_CreateDescTable+0x66>
80101a86:	683b      	ldr	r3, [r7, #0]
80101a88:	613b      	str	r3, [r7, #16]
80101a8a:	f248 32f8 	movw	r2, #33784	; 0x83f8
80101a8e:	f2c8 0210 	movt	r2, #32784	; 0x8010
80101a92:	697b      	ldr	r3, [r7, #20]
80101a94:	00db      	lsls	r3, r3, #3
80101a96:	4413      	add	r3, r2
80101a98:	687a      	ldr	r2, [r7, #4]
80101a9a:	605a      	str	r2, [r3, #4]
80101a9c:	693b      	ldr	r3, [r7, #16]
80101a9e:	0419      	lsls	r1, r3, #16
80101aa0:	f248 33f8 	movw	r3, #33784	; 0x83f8
80101aa4:	f2c8 0310 	movt	r3, #32784	; 0x8010
80101aa8:	697a      	ldr	r2, [r7, #20]
80101aaa:	f843 1032 	str.w	r1, [r3, r2, lsl #3]
80101aae:	f248 33f8 	movw	r3, #33784	; 0x83f8
80101ab2:	f2c8 0310 	movt	r3, #32784	; 0x8010
80101ab6:	697a      	ldr	r2, [r7, #20]
80101ab8:	f853 3032 	ldr.w	r3, [r3, r2, lsl #3]
80101abc:	f043 0121 	orr.w	r1, r3, #33	; 0x21
80101ac0:	f248 33f8 	movw	r3, #33784	; 0x83f8
80101ac4:	f2c8 0310 	movt	r3, #32784	; 0x8010
80101ac8:	697a      	ldr	r2, [r7, #20]
80101aca:	f843 1032 	str.w	r1, [r3, r2, lsl #3]
80101ace:	687a      	ldr	r2, [r7, #4]
80101ad0:	693b      	ldr	r3, [r7, #16]
80101ad2:	4413      	add	r3, r2
80101ad4:	607b      	str	r3, [r7, #4]
80101ad6:	697b      	ldr	r3, [r7, #20]
80101ad8:	3301      	adds	r3, #1
80101ada:	617b      	str	r3, [r7, #20]
80101adc:	697a      	ldr	r2, [r7, #20]
80101ade:	68fb      	ldr	r3, [r7, #12]
80101ae0:	429a      	cmp	r2, r3
80101ae2:	d3c2      	bcc.n	80101a6a <USDHC_CreateDescTable+0x46>
80101ae4:	68fb      	ldr	r3, [r7, #12]
80101ae6:	1e5a      	subs	r2, r3, #1
80101ae8:	68fb      	ldr	r3, [r7, #12]
80101aea:	1e59      	subs	r1, r3, #1
80101aec:	f248 33f8 	movw	r3, #33784	; 0x83f8
80101af0:	f2c8 0310 	movt	r3, #32784	; 0x8010
80101af4:	f853 3031 	ldr.w	r3, [r3, r1, lsl #3]
80101af8:	f043 0102 	orr.w	r1, r3, #2
80101afc:	f248 33f8 	movw	r3, #33784	; 0x83f8
80101b00:	f2c8 0310 	movt	r3, #32784	; 0x8010
80101b04:	f843 1032 	str.w	r1, [r3, r2, lsl #3]
80101b08:	2300      	movs	r3, #0
80101b0a:	4618      	mov	r0, r3
80101b0c:	3718      	adds	r7, #24
80101b0e:	46bd      	mov	sp, r7
80101b10:	bc90      	pop	{r4, r7}
80101b12:	4770      	bx	lr

80101b14 <USDHC_ClearInterruptStatusFlags>:
80101b14:	b480      	push	{r7}
80101b16:	b083      	sub	sp, #12
80101b18:	af00      	add	r7, sp, #0
80101b1a:	6078      	str	r0, [r7, #4]
80101b1c:	6039      	str	r1, [r7, #0]
80101b1e:	687b      	ldr	r3, [r7, #4]
80101b20:	683a      	ldr	r2, [r7, #0]
80101b22:	631a      	str	r2, [r3, #48]	; 0x30
80101b24:	bf00      	nop
80101b26:	370c      	adds	r7, #12
80101b28:	46bd      	mov	sp, r7
80101b2a:	f85d 7b04 	ldr.w	r7, [sp], #4
80101b2e:	4770      	bx	lr

80101b30 <USDHC_WaitCommandDone>:
80101b30:	b580      	push	{r7, lr}
80101b32:	b084      	sub	sp, #16
80101b34:	af00      	add	r7, sp, #0
80101b36:	6078      	str	r0, [r7, #4]
80101b38:	2300      	movs	r3, #0
80101b3a:	60fb      	str	r3, [r7, #12]
80101b3c:	2300      	movs	r3, #0
80101b3e:	60bb      	str	r3, [r7, #8]
80101b40:	bf00      	nop
80101b42:	687b      	ldr	r3, [r7, #4]
80101b44:	6b1a      	ldr	r2, [r3, #48]	; 0x30
80101b46:	2301      	movs	r3, #1
80101b48:	f2c0 030f 	movt	r3, #15
80101b4c:	4013      	ands	r3, r2
80101b4e:	2b00      	cmp	r3, #0
80101b50:	d0f7      	beq.n	80101b42 <USDHC_WaitCommandDone+0x12>
80101b52:	687b      	ldr	r3, [r7, #4]
80101b54:	6b1b      	ldr	r3, [r3, #48]	; 0x30
80101b56:	60bb      	str	r3, [r7, #8]
80101b58:	68bb      	ldr	r3, [r7, #8]
80101b5a:	f403 2370 	and.w	r3, r3, #983040	; 0xf0000
80101b5e:	2b00      	cmp	r3, #0
80101b60:	d00f      	beq.n	80101b82 <USDHC_WaitCommandDone+0x52>
80101b62:	687b      	ldr	r3, [r7, #4]
80101b64:	68db      	ldr	r3, [r3, #12]
80101b66:	68ba      	ldr	r2, [r7, #8]
80101b68:	4619      	mov	r1, r3
80101b6a:	f244 4048 	movw	r0, #17480	; 0x4448
80101b6e:	f2c8 0010 	movt	r0, #32784	; 0x8010
80101b72:	f7ff fcdc 	bl	8010152e <printf>
80101b76:	6878      	ldr	r0, [r7, #4]
80101b78:	f7ff fdea 	bl	80101750 <USDHC_Dump_All>
80101b7c:	f04f 33ff 	mov.w	r3, #4294967295	; 0xffffffff
80101b80:	60fb      	str	r3, [r7, #12]
80101b82:	2101      	movs	r1, #1
80101b84:	f2c0 410f 	movt	r1, #1039	; 0x40f
80101b88:	6878      	ldr	r0, [r7, #4]
80101b8a:	f7ff ffc3 	bl	80101b14 <USDHC_ClearInterruptStatusFlags>
80101b8e:	68fb      	ldr	r3, [r7, #12]
80101b90:	4618      	mov	r0, r3
80101b92:	3710      	adds	r7, #16
80101b94:	46bd      	mov	sp, r7
80101b96:	bd80      	pop	{r7, pc}

80101b98 <USDHC_WaitDataDone>:
80101b98:	b580      	push	{r7, lr}
80101b9a:	b084      	sub	sp, #16
80101b9c:	af00      	add	r7, sp, #0
80101b9e:	6078      	str	r0, [r7, #4]
80101ba0:	2300      	movs	r3, #0
80101ba2:	60fb      	str	r3, [r7, #12]
80101ba4:	2300      	movs	r3, #0
80101ba6:	60bb      	str	r3, [r7, #8]
80101ba8:	bf00      	nop
80101baa:	687b      	ldr	r3, [r7, #4]
80101bac:	6b1a      	ldr	r2, [r3, #48]	; 0x30
80101bae:	2302      	movs	r3, #2
80101bb0:	f2c0 1370 	movt	r3, #368	; 0x170
80101bb4:	4013      	ands	r3, r2
80101bb6:	2b00      	cmp	r3, #0
80101bb8:	d0f7      	beq.n	80101baa <USDHC_WaitDataDone+0x12>
80101bba:	687b      	ldr	r3, [r7, #4]
80101bbc:	6b1b      	ldr	r3, [r3, #48]	; 0x30
80101bbe:	60bb      	str	r3, [r7, #8]
80101bc0:	68bb      	ldr	r3, [r7, #8]
80101bc2:	f003 73b8 	and.w	r3, r3, #24117248	; 0x1700000
80101bc6:	2b00      	cmp	r3, #0
80101bc8:	d00f      	beq.n	80101bea <USDHC_WaitDataDone+0x52>
80101bca:	687b      	ldr	r3, [r7, #4]
80101bcc:	68db      	ldr	r3, [r3, #12]
80101bce:	68ba      	ldr	r2, [r7, #8]
80101bd0:	4619      	mov	r1, r3
80101bd2:	f244 4078 	movw	r0, #17528	; 0x4478
80101bd6:	f2c8 0010 	movt	r0, #32784	; 0x8010
80101bda:	f7ff fca8 	bl	8010152e <printf>
80101bde:	6878      	ldr	r0, [r7, #4]
80101be0:	f7ff fdb6 	bl	80101750 <USDHC_Dump_All>
80101be4:	f04f 33ff 	mov.w	r3, #4294967295	; 0xffffffff
80101be8:	60fb      	str	r3, [r7, #12]
80101bea:	2102      	movs	r1, #2
80101bec:	f2c0 1170 	movt	r1, #368	; 0x170
80101bf0:	6878      	ldr	r0, [r7, #4]
80101bf2:	f7ff ff8f 	bl	80101b14 <USDHC_ClearInterruptStatusFlags>
80101bf6:	68fb      	ldr	r3, [r7, #12]
80101bf8:	4618      	mov	r0, r3
80101bfa:	3710      	adds	r7, #16
80101bfc:	46bd      	mov	sp, r7
80101bfe:	bd80      	pop	{r7, pc}

80101c00 <USDHC_SendCommand>:
80101c00:	b580      	push	{r7, lr}
80101c02:	b084      	sub	sp, #16
80101c04:	af00      	add	r7, sp, #0
80101c06:	60f8      	str	r0, [r7, #12]
80101c08:	60b9      	str	r1, [r7, #8]
80101c0a:	607a      	str	r2, [r7, #4]
80101c0c:	bf00      	nop
80101c0e:	68fb      	ldr	r3, [r7, #12]
80101c10:	6a5b      	ldr	r3, [r3, #36]	; 0x24
80101c12:	f003 0301 	and.w	r3, r3, #1
80101c16:	2b00      	cmp	r3, #0
80101c18:	d1f9      	bne.n	80101c0e <USDHC_SendCommand+0xe>
80101c1a:	68fb      	ldr	r3, [r7, #12]
80101c1c:	687a      	ldr	r2, [r7, #4]
80101c1e:	609a      	str	r2, [r3, #8]
80101c20:	68bb      	ldr	r3, [r7, #8]
80101c22:	041a      	lsls	r2, r3, #16
80101c24:	68fb      	ldr	r3, [r7, #12]
80101c26:	60da      	str	r2, [r3, #12]
80101c28:	68f8      	ldr	r0, [r7, #12]
80101c2a:	f7ff ff81 	bl	80101b30 <USDHC_WaitCommandDone>
80101c2e:	4603      	mov	r3, r0
80101c30:	4618      	mov	r0, r3
80101c32:	3710      	adds	r7, #16
80101c34:	46bd      	mov	sp, r7
80101c36:	bd80      	pop	{r7, pc}

80101c38 <USDHC_SendCommand_with_data>:
80101c38:	b580      	push	{r7, lr}
80101c3a:	b086      	sub	sp, #24
80101c3c:	af00      	add	r7, sp, #0
80101c3e:	60f8      	str	r0, [r7, #12]
80101c40:	60b9      	str	r1, [r7, #8]
80101c42:	607a      	str	r2, [r7, #4]
80101c44:	603b      	str	r3, [r7, #0]
80101c46:	bf00      	nop
80101c48:	68fb      	ldr	r3, [r7, #12]
80101c4a:	6a5b      	ldr	r3, [r3, #36]	; 0x24
80101c4c:	f003 0301 	and.w	r3, r3, #1
80101c50:	2b00      	cmp	r3, #0
80101c52:	d1f9      	bne.n	80101c48 <USDHC_SendCommand_with_data+0x10>
80101c54:	bf00      	nop
80101c56:	68fb      	ldr	r3, [r7, #12]
80101c58:	6a5b      	ldr	r3, [r3, #36]	; 0x24
80101c5a:	f003 0302 	and.w	r3, r3, #2
80101c5e:	2b00      	cmp	r3, #0
80101c60:	d1f9      	bne.n	80101c56 <USDHC_SendCommand_with_data+0x1e>
80101c62:	6a39      	ldr	r1, [r7, #32]
80101c64:	f647 4000 	movw	r0, #31744	; 0x7c00
80101c68:	f2c8 0010 	movt	r0, #32784	; 0x8010
80101c6c:	f7ff feda 	bl	80101a24 <USDHC_CreateDescTable>
80101c70:	68fb      	ldr	r3, [r7, #12]
80101c72:	2200      	movs	r2, #0
80101c74:	601a      	str	r2, [r3, #0]
80101c76:	f248 33f8 	movw	r3, #33784	; 0x83f8
80101c7a:	f2c8 0310 	movt	r3, #32784	; 0x8010
80101c7e:	68fa      	ldr	r2, [r7, #12]
80101c80:	6593      	str	r3, [r2, #88]	; 0x58
80101c82:	6a3b      	ldr	r3, [r7, #32]
80101c84:	f3c3 030c 	ubfx	r3, r3, #0, #13
80101c88:	f443 3280 	orr.w	r2, r3, #65536	; 0x10000
80101c8c:	68fb      	ldr	r3, [r7, #12]
80101c8e:	605a      	str	r2, [r3, #4]
80101c90:	68fb      	ldr	r3, [r7, #12]
80101c92:	f8d3 30c0 	ldr.w	r3, [r3, #192]	; 0xc0
80101c96:	f023 0201 	bic.w	r2, r3, #1
80101c9a:	68fb      	ldr	r3, [r7, #12]
80101c9c:	f8c3 20c0 	str.w	r2, [r3, #192]	; 0xc0
80101ca0:	68fb      	ldr	r3, [r7, #12]
80101ca2:	6a9b      	ldr	r3, [r3, #40]	; 0x28
80101ca4:	f023 5360 	bic.w	r3, r3, #939524096	; 0x38000000
80101ca8:	f423 7340 	bic.w	r3, r3, #768	; 0x300
80101cac:	68fa      	ldr	r2, [r7, #12]
80101cae:	6293      	str	r3, [r2, #40]	; 0x28
80101cb0:	68fb      	ldr	r3, [r7, #12]
80101cb2:	6a9b      	ldr	r3, [r3, #40]	; 0x28
80101cb4:	f043 6300 	orr.w	r3, r3, #134217728	; 0x8000000
80101cb8:	f443 7300 	orr.w	r3, r3, #512	; 0x200
80101cbc:	68fa      	ldr	r2, [r7, #12]
80101cbe:	6293      	str	r3, [r2, #40]	; 0x28
80101cc0:	68fb      	ldr	r3, [r7, #12]
80101cc2:	6c9b      	ldr	r3, [r3, #72]	; 0x48
80101cc4:	f043 0211 	orr.w	r2, r3, #17
80101cc8:	68fb      	ldr	r3, [r7, #12]
80101cca:	649a      	str	r2, [r3, #72]	; 0x48
80101ccc:	68fb      	ldr	r3, [r7, #12]
80101cce:	687a      	ldr	r2, [r7, #4]
80101cd0:	609a      	str	r2, [r3, #8]
80101cd2:	68bb      	ldr	r3, [r7, #8]
80101cd4:	041a      	lsls	r2, r3, #16
80101cd6:	68fb      	ldr	r3, [r7, #12]
80101cd8:	60da      	str	r2, [r3, #12]
80101cda:	68f8      	ldr	r0, [r7, #12]
80101cdc:	f7ff ff28 	bl	80101b30 <USDHC_WaitCommandDone>
80101ce0:	6178      	str	r0, [r7, #20]
80101ce2:	697b      	ldr	r3, [r7, #20]
80101ce4:	2b00      	cmp	r3, #0
80101ce6:	da01      	bge.n	80101cec <USDHC_SendCommand_with_data+0xb4>
80101ce8:	697b      	ldr	r3, [r7, #20]
80101cea:	e014      	b.n	80101d16 <USDHC_SendCommand_with_data+0xde>
80101cec:	68f8      	ldr	r0, [r7, #12]
80101cee:	f7ff ff53 	bl	80101b98 <USDHC_WaitDataDone>
80101cf2:	6178      	str	r0, [r7, #20]
80101cf4:	697b      	ldr	r3, [r7, #20]
80101cf6:	2b00      	cmp	r3, #0
80101cf8:	da01      	bge.n	80101cfe <USDHC_SendCommand_with_data+0xc6>
80101cfa:	697b      	ldr	r3, [r7, #20]
80101cfc:	e00b      	b.n	80101d16 <USDHC_SendCommand_with_data+0xde>
80101cfe:	683b      	ldr	r3, [r7, #0]
80101d00:	2b00      	cmp	r3, #0
80101d02:	d007      	beq.n	80101d14 <USDHC_SendCommand_with_data+0xdc>
80101d04:	6a3a      	ldr	r2, [r7, #32]
80101d06:	f647 4100 	movw	r1, #31744	; 0x7c00
80101d0a:	f2c8 0110 	movt	r1, #32784	; 0x8010
80101d0e:	6838      	ldr	r0, [r7, #0]
80101d10:	f7ff fc9e 	bl	80101650 <memcpy>
80101d14:	2300      	movs	r3, #0
80101d16:	4618      	mov	r0, r3
80101d18:	3718      	adds	r7, #24
80101d1a:	46bd      	mov	sp, r7
80101d1c:	bd80      	pop	{r7, pc}

80101d1e <USDHC_Init>:
80101d1e:	b580      	push	{r7, lr}
80101d20:	b086      	sub	sp, #24
80101d22:	af00      	add	r7, sp, #0
80101d24:	6078      	str	r0, [r7, #4]
80101d26:	2164      	movs	r1, #100	; 0x64
80101d28:	6878      	ldr	r0, [r7, #4]
80101d2a:	f7ff fe4b 	bl	801019c4 <USDHC_Reset_All>
80101d2e:	687b      	ldr	r3, [r7, #4]
80101d30:	6a9b      	ldr	r3, [r3, #40]	; 0x28
80101d32:	617b      	str	r3, [r7, #20]
80101d34:	687b      	ldr	r3, [r7, #4]
80101d36:	6c5b      	ldr	r3, [r3, #68]	; 0x44
80101d38:	613b      	str	r3, [r7, #16]
80101d3a:	687b      	ldr	r3, [r7, #4]
80101d3c:	6adb      	ldr	r3, [r3, #44]	; 0x2c
80101d3e:	60fb      	str	r3, [r7, #12]
80101d40:	697b      	ldr	r3, [r7, #20]
80101d42:	f423 734c 	bic.w	r3, r3, #816	; 0x330
80101d46:	617b      	str	r3, [r7, #20]
80101d48:	697b      	ldr	r3, [r7, #20]
80101d4a:	f043 0320 	orr.w	r3, r3, #32
80101d4e:	617b      	str	r3, [r7, #20]
80101d50:	693b      	ldr	r3, [r7, #16]
80101d52:	f003 23e0 	and.w	r3, r3, #3758153728	; 0xe000e000
80101d56:	613b      	str	r3, [r7, #16]
80101d58:	693b      	ldr	r3, [r7, #16]
80101d5a:	f043 6308 	orr.w	r3, r3, #142606336	; 0x8800000
80101d5e:	f443 6308 	orr.w	r3, r3, #2176	; 0x880
80101d62:	613b      	str	r3, [r7, #16]
80101d64:	68fb      	ldr	r3, [r7, #12]
80101d66:	f423 2370 	bic.w	r3, r3, #983040	; 0xf0000
80101d6a:	60fb      	str	r3, [r7, #12]
80101d6c:	68fb      	ldr	r3, [r7, #12]
80101d6e:	f443 2370 	orr.w	r3, r3, #983040	; 0xf0000
80101d72:	60fb      	str	r3, [r7, #12]
80101d74:	687b      	ldr	r3, [r7, #4]
80101d76:	68fa      	ldr	r2, [r7, #12]
80101d78:	62da      	str	r2, [r3, #44]	; 0x2c
80101d7a:	687b      	ldr	r3, [r7, #4]
80101d7c:	693a      	ldr	r2, [r7, #16]
80101d7e:	645a      	str	r2, [r3, #68]	; 0x44
80101d80:	687b      	ldr	r3, [r7, #4]
80101d82:	697a      	ldr	r2, [r7, #20]
80101d84:	629a      	str	r2, [r3, #40]	; 0x28
80101d86:	687b      	ldr	r3, [r7, #4]
80101d88:	2200      	movs	r2, #0
80101d8a:	635a      	str	r2, [r3, #52]	; 0x34
80101d8c:	687b      	ldr	r3, [r7, #4]
80101d8e:	2200      	movs	r2, #0
80101d90:	639a      	str	r2, [r3, #56]	; 0x38
80101d92:	687a      	ldr	r2, [r7, #4]
80101d94:	f245 03fb 	movw	r3, #20731	; 0x50fb
80101d98:	f2c1 537f 	movt	r3, #5503	; 0x157f
80101d9c:	6353      	str	r3, [r2, #52]	; 0x34
80101d9e:	687a      	ldr	r2, [r7, #4]
80101da0:	f245 03fb 	movw	r3, #20731	; 0x50fb
80101da4:	f2c1 537f 	movt	r3, #5503	; 0x157f
80101da8:	6393      	str	r3, [r2, #56]	; 0x38
80101daa:	bf00      	nop
80101dac:	3718      	adds	r7, #24
80101dae:	46bd      	mov	sp, r7
80101db0:	bd80      	pop	{r7, pc}

80101db2 <CardInsertDetect>:
80101db2:	b580      	push	{r7, lr}
80101db4:	b082      	sub	sp, #8
80101db6:	af00      	add	r7, sp, #0
80101db8:	6078      	str	r0, [r7, #4]
80101dba:	687b      	ldr	r3, [r7, #4]
80101dbc:	6a5b      	ldr	r3, [r3, #36]	; 0x24
80101dbe:	f403 2380 	and.w	r3, r3, #262144	; 0x40000
80101dc2:	2b00      	cmp	r3, #0
80101dc4:	d105      	bne.n	80101dd2 <CardInsertDetect+0x20>
80101dc6:	f244 40a8 	movw	r0, #17576	; 0x44a8
80101dca:	f2c8 0010 	movt	r0, #32784	; 0x8010
80101dce:	f7ff fbae 	bl	8010152e <printf>
80101dd2:	bf00      	nop
80101dd4:	687b      	ldr	r3, [r7, #4]
80101dd6:	6a5b      	ldr	r3, [r3, #36]	; 0x24
80101dd8:	0c9b      	lsrs	r3, r3, #18
80101dda:	f003 0301 	and.w	r3, r3, #1
80101dde:	2b00      	cmp	r3, #0
80101de0:	d0f8      	beq.n	80101dd4 <CardInsertDetect+0x22>
80101de2:	f244 40c0 	movw	r0, #17600	; 0x44c0
80101de6:	f2c8 0010 	movt	r0, #32784	; 0x8010
80101dea:	f7ff fba0 	bl	8010152e <printf>
80101dee:	bf00      	nop
80101df0:	3708      	adds	r7, #8
80101df2:	46bd      	mov	sp, r7
80101df4:	bd80      	pop	{r7, pc}

80101df6 <USDHC_SetDataBusWidth>:
80101df6:	b480      	push	{r7}
80101df8:	b083      	sub	sp, #12
80101dfa:	af00      	add	r7, sp, #0
80101dfc:	6078      	str	r0, [r7, #4]
80101dfe:	6039      	str	r1, [r7, #0]
80101e00:	687b      	ldr	r3, [r7, #4]
80101e02:	6a9b      	ldr	r3, [r3, #40]	; 0x28
80101e04:	f023 0206 	bic.w	r2, r3, #6
80101e08:	683b      	ldr	r3, [r7, #0]
80101e0a:	005b      	lsls	r3, r3, #1
80101e0c:	f003 0306 	and.w	r3, r3, #6
80101e10:	431a      	orrs	r2, r3
80101e12:	687b      	ldr	r3, [r7, #4]
80101e14:	629a      	str	r2, [r3, #40]	; 0x28
80101e16:	bf00      	nop
80101e18:	370c      	adds	r7, #12
80101e1a:	46bd      	mov	sp, r7
80101e1c:	f85d 7b04 	ldr.w	r7, [sp], #4
80101e20:	4770      	bx	lr

80101e22 <USDHC_SetSdClock>:
80101e22:	b580      	push	{r7, lr}
80101e24:	b08c      	sub	sp, #48	; 0x30
80101e26:	af00      	add	r7, sp, #0
80101e28:	60f8      	str	r0, [r7, #12]
80101e2a:	60b9      	str	r1, [r7, #8]
80101e2c:	607a      	str	r2, [r7, #4]
80101e2e:	2300      	movs	r3, #0
80101e30:	62fb      	str	r3, [r7, #44]	; 0x2c
80101e32:	2300      	movs	r3, #0
80101e34:	62bb      	str	r3, [r7, #40]	; 0x28
80101e36:	2300      	movs	r3, #0
80101e38:	627b      	str	r3, [r7, #36]	; 0x24
80101e3a:	2300      	movs	r3, #0
80101e3c:	617b      	str	r3, [r7, #20]
80101e3e:	2300      	movs	r3, #0
80101e40:	623b      	str	r3, [r7, #32]
80101e42:	f44f 7380 	mov.w	r3, #256	; 0x100
80101e46:	61fb      	str	r3, [r7, #28]
80101e48:	2300      	movs	r3, #0
80101e4a:	61bb      	str	r3, [r7, #24]
80101e4c:	68fb      	ldr	r3, [r7, #12]
80101e4e:	6c9b      	ldr	r3, [r3, #72]	; 0x48
80101e50:	f003 0308 	and.w	r3, r3, #8
80101e54:	2b00      	cmp	r3, #0
80101e56:	d004      	beq.n	80101e62 <USDHC_SetSdClock+0x40>
80101e58:	2301      	movs	r3, #1
80101e5a:	61bb      	str	r3, [r7, #24]
80101e5c:	69fb      	ldr	r3, [r7, #28]
80101e5e:	005b      	lsls	r3, r3, #1
80101e60:	61fb      	str	r3, [r7, #28]
80101e62:	6879      	ldr	r1, [r7, #4]
80101e64:	68b8      	ldr	r0, [r7, #8]
80101e66:	f001 fdff 	bl	80103a68 <__aeabi_uidiv>
80101e6a:	4603      	mov	r3, r0
80101e6c:	62fb      	str	r3, [r7, #44]	; 0x2c
80101e6e:	6afb      	ldr	r3, [r7, #44]	; 0x2c
80101e70:	2b00      	cmp	r3, #0
80101e72:	d055      	beq.n	80101f20 <USDHC_SetSdClock+0xfe>
80101e74:	6af9      	ldr	r1, [r7, #44]	; 0x2c
80101e76:	68b8      	ldr	r0, [r7, #8]
80101e78:	f001 fdf6 	bl	80103a68 <__aeabi_uidiv>
80101e7c:	4603      	mov	r3, r0
80101e7e:	461a      	mov	r2, r3
80101e80:	687b      	ldr	r3, [r7, #4]
80101e82:	429a      	cmp	r2, r3
80101e84:	d902      	bls.n	80101e8c <USDHC_SetSdClock+0x6a>
80101e86:	6afb      	ldr	r3, [r7, #44]	; 0x2c
80101e88:	3301      	adds	r3, #1
80101e8a:	62fb      	str	r3, [r7, #44]	; 0x2c
80101e8c:	6afb      	ldr	r3, [r7, #44]	; 0x2c
80101e8e:	2b10      	cmp	r3, #16
80101e90:	d92e      	bls.n	80101ef0 <USDHC_SetSdClock+0xce>
80101e92:	6afb      	ldr	r3, [r7, #44]	; 0x2c
80101e94:	091b      	lsrs	r3, r3, #4
80101e96:	627b      	str	r3, [r7, #36]	; 0x24
80101e98:	e002      	b.n	80101ea0 <USDHC_SetSdClock+0x7e>
80101e9a:	6a7b      	ldr	r3, [r7, #36]	; 0x24
80101e9c:	3301      	adds	r3, #1
80101e9e:	627b      	str	r3, [r7, #36]	; 0x24
80101ea0:	69fb      	ldr	r3, [r7, #28]
80101ea2:	6a79      	ldr	r1, [r7, #36]	; 0x24
80101ea4:	4618      	mov	r0, r3
80101ea6:	f001 ff0d 	bl	80103cc4 <__aeabi_uidivmod>
80101eaa:	460b      	mov	r3, r1
80101eac:	2b00      	cmp	r3, #0
80101eae:	d1f4      	bne.n	80101e9a <USDHC_SetSdClock+0x78>
80101eb0:	6a7b      	ldr	r3, [r7, #36]	; 0x24
80101eb2:	2b01      	cmp	r3, #1
80101eb4:	d0f1      	beq.n	80101e9a <USDHC_SetSdClock+0x78>
80101eb6:	6a79      	ldr	r1, [r7, #36]	; 0x24
80101eb8:	6af8      	ldr	r0, [r7, #44]	; 0x2c
80101eba:	f001 fdd5 	bl	80103a68 <__aeabi_uidiv>
80101ebe:	4603      	mov	r3, r0
80101ec0:	62bb      	str	r3, [r7, #40]	; 0x28
80101ec2:	e002      	b.n	80101eca <USDHC_SetSdClock+0xa8>
80101ec4:	6abb      	ldr	r3, [r7, #40]	; 0x28
80101ec6:	3301      	adds	r3, #1
80101ec8:	62bb      	str	r3, [r7, #40]	; 0x28
80101eca:	6abb      	ldr	r3, [r7, #40]	; 0x28
80101ecc:	6a7a      	ldr	r2, [r7, #36]	; 0x24
80101ece:	fb02 f203 	mul.w	r2, r2, r3
80101ed2:	6afb      	ldr	r3, [r7, #44]	; 0x2c
80101ed4:	429a      	cmp	r2, r3
80101ed6:	d3f5      	bcc.n	80101ec4 <USDHC_SetSdClock+0xa2>
80101ed8:	6ab9      	ldr	r1, [r7, #40]	; 0x28
80101eda:	68b8      	ldr	r0, [r7, #8]
80101edc:	f001 fdc4 	bl	80103a68 <__aeabi_uidiv>
80101ee0:	4603      	mov	r3, r0
80101ee2:	6a79      	ldr	r1, [r7, #36]	; 0x24
80101ee4:	4618      	mov	r0, r3
80101ee6:	f001 fdbf 	bl	80103a68 <__aeabi_uidiv>
80101eea:	4603      	mov	r3, r0
80101eec:	623b      	str	r3, [r7, #32]
80101eee:	e01d      	b.n	80101f2c <USDHC_SetSdClock+0x10a>
80101ef0:	2310      	movs	r3, #16
80101ef2:	6af9      	ldr	r1, [r7, #44]	; 0x2c
80101ef4:	4618      	mov	r0, r3
80101ef6:	f001 fee5 	bl	80103cc4 <__aeabi_uidivmod>
80101efa:	460b      	mov	r3, r1
80101efc:	2b00      	cmp	r3, #0
80101efe:	d104      	bne.n	80101f0a <USDHC_SetSdClock+0xe8>
80101f00:	2300      	movs	r3, #0
80101f02:	62bb      	str	r3, [r7, #40]	; 0x28
80101f04:	6afb      	ldr	r3, [r7, #44]	; 0x2c
80101f06:	627b      	str	r3, [r7, #36]	; 0x24
80101f08:	e003      	b.n	80101f12 <USDHC_SetSdClock+0xf0>
80101f0a:	6afb      	ldr	r3, [r7, #44]	; 0x2c
80101f0c:	62bb      	str	r3, [r7, #40]	; 0x28
80101f0e:	2300      	movs	r3, #0
80101f10:	627b      	str	r3, [r7, #36]	; 0x24
80101f12:	6af9      	ldr	r1, [r7, #44]	; 0x2c
80101f14:	68b8      	ldr	r0, [r7, #8]
80101f16:	f001 fda7 	bl	80103a68 <__aeabi_uidiv>
80101f1a:	4603      	mov	r3, r0
80101f1c:	623b      	str	r3, [r7, #32]
80101f1e:	e005      	b.n	80101f2c <USDHC_SetSdClock+0x10a>
80101f20:	2300      	movs	r3, #0
80101f22:	62bb      	str	r3, [r7, #40]	; 0x28
80101f24:	2300      	movs	r3, #0
80101f26:	627b      	str	r3, [r7, #36]	; 0x24
80101f28:	68bb      	ldr	r3, [r7, #8]
80101f2a:	623b      	str	r3, [r7, #32]
80101f2c:	6abb      	ldr	r3, [r7, #40]	; 0x28
80101f2e:	2b00      	cmp	r3, #0
80101f30:	d002      	beq.n	80101f38 <USDHC_SetSdClock+0x116>
80101f32:	6abb      	ldr	r3, [r7, #40]	; 0x28
80101f34:	3b01      	subs	r3, #1
80101f36:	62bb      	str	r3, [r7, #40]	; 0x28
80101f38:	6a7b      	ldr	r3, [r7, #36]	; 0x24
80101f3a:	2b00      	cmp	r3, #0
80101f3c:	d009      	beq.n	80101f52 <USDHC_SetSdClock+0x130>
80101f3e:	69bb      	ldr	r3, [r7, #24]
80101f40:	2b00      	cmp	r3, #0
80101f42:	d001      	beq.n	80101f48 <USDHC_SetSdClock+0x126>
80101f44:	2302      	movs	r3, #2
80101f46:	e000      	b.n	80101f4a <USDHC_SetSdClock+0x128>
80101f48:	2301      	movs	r3, #1
80101f4a:	6a7a      	ldr	r2, [r7, #36]	; 0x24
80101f4c:	fa22 f303 	lsr.w	r3, r2, r3
80101f50:	627b      	str	r3, [r7, #36]	; 0x24
80101f52:	68fb      	ldr	r3, [r7, #12]
80101f54:	6adb      	ldr	r3, [r3, #44]	; 0x2c
80101f56:	617b      	str	r3, [r7, #20]
80101f58:	697b      	ldr	r3, [r7, #20]
80101f5a:	f423 437f 	bic.w	r3, r3, #65280	; 0xff00
80101f5e:	f023 03f0 	bic.w	r3, r3, #240	; 0xf0
80101f62:	617b      	str	r3, [r7, #20]
80101f64:	6abb      	ldr	r3, [r7, #40]	; 0x28
80101f66:	011b      	lsls	r3, r3, #4
80101f68:	b2da      	uxtb	r2, r3
80101f6a:	6a7b      	ldr	r3, [r7, #36]	; 0x24
80101f6c:	021b      	lsls	r3, r3, #8
80101f6e:	b29b      	uxth	r3, r3
80101f70:	4313      	orrs	r3, r2
80101f72:	697a      	ldr	r2, [r7, #20]
80101f74:	4313      	orrs	r3, r2
80101f76:	617b      	str	r3, [r7, #20]
80101f78:	68fb      	ldr	r3, [r7, #12]
80101f7a:	697a      	ldr	r2, [r7, #20]
80101f7c:	62da      	str	r2, [r3, #44]	; 0x2c
80101f7e:	bf00      	nop
80101f80:	68fb      	ldr	r3, [r7, #12]
80101f82:	6a5b      	ldr	r3, [r3, #36]	; 0x24
80101f84:	f003 0308 	and.w	r3, r3, #8
80101f88:	2b00      	cmp	r3, #0
80101f8a:	d0f9      	beq.n	80101f80 <USDHC_SetSdClock+0x15e>
80101f8c:	6a3b      	ldr	r3, [r7, #32]
80101f8e:	4618      	mov	r0, r3
80101f90:	3730      	adds	r7, #48	; 0x30
80101f92:	46bd      	mov	sp, r7
80101f94:	bd80      	pop	{r7, pc}

80101f96 <USDHC_SetCardActive>:
80101f96:	b480      	push	{r7}
80101f98:	b083      	sub	sp, #12
80101f9a:	af00      	add	r7, sp, #0
80101f9c:	6078      	str	r0, [r7, #4]
80101f9e:	6039      	str	r1, [r7, #0]
80101fa0:	687b      	ldr	r3, [r7, #4]
80101fa2:	6adb      	ldr	r3, [r3, #44]	; 0x2c
80101fa4:	f043 6200 	orr.w	r2, r3, #134217728	; 0x8000000
80101fa8:	687b      	ldr	r3, [r7, #4]
80101faa:	62da      	str	r2, [r3, #44]	; 0x2c
80101fac:	e005      	b.n	80101fba <USDHC_SetCardActive+0x24>
80101fae:	683b      	ldr	r3, [r7, #0]
80101fb0:	2b00      	cmp	r3, #0
80101fb2:	d00a      	beq.n	80101fca <USDHC_SetCardActive+0x34>
80101fb4:	683b      	ldr	r3, [r7, #0]
80101fb6:	3b01      	subs	r3, #1
80101fb8:	603b      	str	r3, [r7, #0]
80101fba:	687b      	ldr	r3, [r7, #4]
80101fbc:	6adb      	ldr	r3, [r3, #44]	; 0x2c
80101fbe:	f003 6300 	and.w	r3, r3, #134217728	; 0x8000000
80101fc2:	f1b3 6f00 	cmp.w	r3, #134217728	; 0x8000000
80101fc6:	d0f2      	beq.n	80101fae <USDHC_SetCardActive+0x18>
80101fc8:	e000      	b.n	80101fcc <USDHC_SetCardActive+0x36>
80101fca:	bf00      	nop
80101fcc:	683b      	ldr	r3, [r7, #0]
80101fce:	2b00      	cmp	r3, #0
80101fd0:	bf14      	ite	ne
80101fd2:	2301      	movne	r3, #1
80101fd4:	2300      	moveq	r3, #0
80101fd6:	b2db      	uxtb	r3, r3
80101fd8:	4618      	mov	r0, r3
80101fda:	370c      	adds	r7, #12
80101fdc:	46bd      	mov	sp, r7
80101fde:	f85d 7b04 	ldr.w	r7, [sp], #4
80101fe2:	4770      	bx	lr

80101fe4 <USDHC_GetResponse>:
80101fe4:	b480      	push	{r7}
80101fe6:	b083      	sub	sp, #12
80101fe8:	af00      	add	r7, sp, #0
80101fea:	6078      	str	r0, [r7, #4]
80101fec:	6039      	str	r1, [r7, #0]
80101fee:	683b      	ldr	r3, [r7, #0]
80101ff0:	330c      	adds	r3, #12
80101ff2:	687a      	ldr	r2, [r7, #4]
80101ff4:	69d2      	ldr	r2, [r2, #28]
80101ff6:	0211      	lsls	r1, r2, #8
80101ff8:	687a      	ldr	r2, [r7, #4]
80101ffa:	6992      	ldr	r2, [r2, #24]
80101ffc:	0e12      	lsrs	r2, r2, #24
80101ffe:	430a      	orrs	r2, r1
80102000:	601a      	str	r2, [r3, #0]
80102002:	683b      	ldr	r3, [r7, #0]
80102004:	3308      	adds	r3, #8
80102006:	687a      	ldr	r2, [r7, #4]
80102008:	6992      	ldr	r2, [r2, #24]
8010200a:	0211      	lsls	r1, r2, #8
8010200c:	687a      	ldr	r2, [r7, #4]
8010200e:	6952      	ldr	r2, [r2, #20]
80102010:	0e12      	lsrs	r2, r2, #24
80102012:	430a      	orrs	r2, r1
80102014:	601a      	str	r2, [r3, #0]
80102016:	683b      	ldr	r3, [r7, #0]
80102018:	3304      	adds	r3, #4
8010201a:	687a      	ldr	r2, [r7, #4]
8010201c:	6952      	ldr	r2, [r2, #20]
8010201e:	0211      	lsls	r1, r2, #8
80102020:	687a      	ldr	r2, [r7, #4]
80102022:	6912      	ldr	r2, [r2, #16]
80102024:	0e12      	lsrs	r2, r2, #24
80102026:	430a      	orrs	r2, r1
80102028:	601a      	str	r2, [r3, #0]
8010202a:	687b      	ldr	r3, [r7, #4]
8010202c:	691b      	ldr	r3, [r3, #16]
8010202e:	021a      	lsls	r2, r3, #8
80102030:	683b      	ldr	r3, [r7, #0]
80102032:	601a      	str	r2, [r3, #0]
80102034:	bf00      	nop
80102036:	370c      	adds	r7, #12
80102038:	46bd      	mov	sp, r7
8010203a:	f85d 7b04 	ldr.w	r7, [sp], #4
8010203e:	4770      	bx	lr

80102040 <SD_DecodeCid>:
80102040:	b480      	push	{r7}
80102042:	b085      	sub	sp, #20
80102044:	af00      	add	r7, sp, #0
80102046:	6078      	str	r0, [r7, #4]
80102048:	6039      	str	r1, [r7, #0]
8010204a:	687b      	ldr	r3, [r7, #4]
8010204c:	3340      	adds	r3, #64	; 0x40
8010204e:	60fb      	str	r3, [r7, #12]
80102050:	683b      	ldr	r3, [r7, #0]
80102052:	330c      	adds	r3, #12
80102054:	681b      	ldr	r3, [r3, #0]
80102056:	0e1b      	lsrs	r3, r3, #24
80102058:	b2da      	uxtb	r2, r3
8010205a:	68fb      	ldr	r3, [r7, #12]
8010205c:	701a      	strb	r2, [r3, #0]
8010205e:	683b      	ldr	r3, [r7, #0]
80102060:	330c      	adds	r3, #12
80102062:	681b      	ldr	r3, [r3, #0]
80102064:	0a1b      	lsrs	r3, r3, #8
80102066:	b29a      	uxth	r2, r3
80102068:	68fb      	ldr	r3, [r7, #12]
8010206a:	805a      	strh	r2, [r3, #2]
8010206c:	683b      	ldr	r3, [r7, #0]
8010206e:	330c      	adds	r3, #12
80102070:	681b      	ldr	r3, [r3, #0]
80102072:	b2da      	uxtb	r2, r3
80102074:	68fb      	ldr	r3, [r7, #12]
80102076:	711a      	strb	r2, [r3, #4]
80102078:	683b      	ldr	r3, [r7, #0]
8010207a:	3308      	adds	r3, #8
8010207c:	681b      	ldr	r3, [r3, #0]
8010207e:	0e1b      	lsrs	r3, r3, #24
80102080:	b2da      	uxtb	r2, r3
80102082:	68fb      	ldr	r3, [r7, #12]
80102084:	715a      	strb	r2, [r3, #5]
80102086:	683b      	ldr	r3, [r7, #0]
80102088:	3308      	adds	r3, #8
8010208a:	681b      	ldr	r3, [r3, #0]
8010208c:	0c1b      	lsrs	r3, r3, #16
8010208e:	b2da      	uxtb	r2, r3
80102090:	68fb      	ldr	r3, [r7, #12]
80102092:	719a      	strb	r2, [r3, #6]
80102094:	683b      	ldr	r3, [r7, #0]
80102096:	3308      	adds	r3, #8
80102098:	681b      	ldr	r3, [r3, #0]
8010209a:	0a1b      	lsrs	r3, r3, #8
8010209c:	b2da      	uxtb	r2, r3
8010209e:	68fb      	ldr	r3, [r7, #12]
801020a0:	71da      	strb	r2, [r3, #7]
801020a2:	683b      	ldr	r3, [r7, #0]
801020a4:	3308      	adds	r3, #8
801020a6:	681b      	ldr	r3, [r3, #0]
801020a8:	b2da      	uxtb	r2, r3
801020aa:	68fb      	ldr	r3, [r7, #12]
801020ac:	721a      	strb	r2, [r3, #8]
801020ae:	683b      	ldr	r3, [r7, #0]
801020b0:	3304      	adds	r3, #4
801020b2:	681b      	ldr	r3, [r3, #0]
801020b4:	0e1b      	lsrs	r3, r3, #24
801020b6:	b2da      	uxtb	r2, r3
801020b8:	68fb      	ldr	r3, [r7, #12]
801020ba:	725a      	strb	r2, [r3, #9]
801020bc:	683b      	ldr	r3, [r7, #0]
801020be:	3304      	adds	r3, #4
801020c0:	681b      	ldr	r3, [r3, #0]
801020c2:	021a      	lsls	r2, r3, #8
801020c4:	68fb      	ldr	r3, [r7, #12]
801020c6:	60da      	str	r2, [r3, #12]
801020c8:	68fb      	ldr	r3, [r7, #12]
801020ca:	68da      	ldr	r2, [r3, #12]
801020cc:	683b      	ldr	r3, [r7, #0]
801020ce:	681b      	ldr	r3, [r3, #0]
801020d0:	0e1b      	lsrs	r3, r3, #24
801020d2:	431a      	orrs	r2, r3
801020d4:	68fb      	ldr	r3, [r7, #12]
801020d6:	60da      	str	r2, [r3, #12]
801020d8:	683b      	ldr	r3, [r7, #0]
801020da:	681b      	ldr	r3, [r3, #0]
801020dc:	0a1b      	lsrs	r3, r3, #8
801020de:	b29b      	uxth	r3, r3
801020e0:	f3c3 030b 	ubfx	r3, r3, #0, #12
801020e4:	b29a      	uxth	r2, r3
801020e6:	68fb      	ldr	r3, [r7, #12]
801020e8:	821a      	strh	r2, [r3, #16]
801020ea:	bf00      	nop
801020ec:	3714      	adds	r7, #20
801020ee:	46bd      	mov	sp, r7
801020f0:	f85d 7b04 	ldr.w	r7, [sp], #4
801020f4:	4770      	bx	lr

801020f6 <SD_DecodeCsd>:
801020f6:	b590      	push	{r4, r7, lr}
801020f8:	b085      	sub	sp, #20
801020fa:	af00      	add	r7, sp, #0
801020fc:	6078      	str	r0, [r7, #4]
801020fe:	6039      	str	r1, [r7, #0]
80102100:	687b      	ldr	r3, [r7, #4]
80102102:	3354      	adds	r3, #84	; 0x54
80102104:	60fb      	str	r3, [r7, #12]
80102106:	683b      	ldr	r3, [r7, #0]
80102108:	330c      	adds	r3, #12
8010210a:	681b      	ldr	r3, [r3, #0]
8010210c:	0f9b      	lsrs	r3, r3, #30
8010210e:	b2da      	uxtb	r2, r3
80102110:	68fb      	ldr	r3, [r7, #12]
80102112:	701a      	strb	r2, [r3, #0]
80102114:	683b      	ldr	r3, [r7, #0]
80102116:	330c      	adds	r3, #12
80102118:	681b      	ldr	r3, [r3, #0]
8010211a:	0c1b      	lsrs	r3, r3, #16
8010211c:	b2da      	uxtb	r2, r3
8010211e:	68fb      	ldr	r3, [r7, #12]
80102120:	705a      	strb	r2, [r3, #1]
80102122:	683b      	ldr	r3, [r7, #0]
80102124:	330c      	adds	r3, #12
80102126:	681b      	ldr	r3, [r3, #0]
80102128:	0a1b      	lsrs	r3, r3, #8
8010212a:	b2da      	uxtb	r2, r3
8010212c:	68fb      	ldr	r3, [r7, #12]
8010212e:	709a      	strb	r2, [r3, #2]
80102130:	683b      	ldr	r3, [r7, #0]
80102132:	330c      	adds	r3, #12
80102134:	681b      	ldr	r3, [r3, #0]
80102136:	b2da      	uxtb	r2, r3
80102138:	68fb      	ldr	r3, [r7, #12]
8010213a:	70da      	strb	r2, [r3, #3]
8010213c:	683b      	ldr	r3, [r7, #0]
8010213e:	3308      	adds	r3, #8
80102140:	681b      	ldr	r3, [r3, #0]
80102142:	0d1b      	lsrs	r3, r3, #20
80102144:	b29a      	uxth	r2, r3
80102146:	68fb      	ldr	r3, [r7, #12]
80102148:	809a      	strh	r2, [r3, #4]
8010214a:	683b      	ldr	r3, [r7, #0]
8010214c:	3308      	adds	r3, #8
8010214e:	681b      	ldr	r3, [r3, #0]
80102150:	0c1b      	lsrs	r3, r3, #16
80102152:	b2db      	uxtb	r3, r3
80102154:	f003 030f 	and.w	r3, r3, #15
80102158:	b2da      	uxtb	r2, r3
8010215a:	68fb      	ldr	r3, [r7, #12]
8010215c:	719a      	strb	r2, [r3, #6]
8010215e:	683b      	ldr	r3, [r7, #0]
80102160:	3308      	adds	r3, #8
80102162:	681b      	ldr	r3, [r3, #0]
80102164:	f403 4300 	and.w	r3, r3, #32768	; 0x8000
80102168:	2b00      	cmp	r3, #0
8010216a:	d006      	beq.n	8010217a <SD_DecodeCsd+0x84>
8010216c:	68fb      	ldr	r3, [r7, #12]
8010216e:	891b      	ldrh	r3, [r3, #8]
80102170:	f043 0301 	orr.w	r3, r3, #1
80102174:	b29a      	uxth	r2, r3
80102176:	68fb      	ldr	r3, [r7, #12]
80102178:	811a      	strh	r2, [r3, #8]
8010217a:	683b      	ldr	r3, [r7, #0]
8010217c:	3308      	adds	r3, #8
8010217e:	681b      	ldr	r3, [r3, #0]
80102180:	f403 4380 	and.w	r3, r3, #16384	; 0x4000
80102184:	2b00      	cmp	r3, #0
80102186:	d006      	beq.n	80102196 <SD_DecodeCsd+0xa0>
80102188:	68fb      	ldr	r3, [r7, #12]
8010218a:	891b      	ldrh	r3, [r3, #8]
8010218c:	f043 0301 	orr.w	r3, r3, #1
80102190:	b29a      	uxth	r2, r3
80102192:	68fb      	ldr	r3, [r7, #12]
80102194:	811a      	strh	r2, [r3, #8]
80102196:	683b      	ldr	r3, [r7, #0]
80102198:	3308      	adds	r3, #8
8010219a:	681b      	ldr	r3, [r3, #0]
8010219c:	f403 5300 	and.w	r3, r3, #8192	; 0x2000
801021a0:	2b00      	cmp	r3, #0
801021a2:	d006      	beq.n	801021b2 <SD_DecodeCsd+0xbc>
801021a4:	68fb      	ldr	r3, [r7, #12]
801021a6:	891b      	ldrh	r3, [r3, #8]
801021a8:	f043 0304 	orr.w	r3, r3, #4
801021ac:	b29a      	uxth	r2, r3
801021ae:	68fb      	ldr	r3, [r7, #12]
801021b0:	811a      	strh	r2, [r3, #8]
801021b2:	683b      	ldr	r3, [r7, #0]
801021b4:	3308      	adds	r3, #8
801021b6:	681b      	ldr	r3, [r3, #0]
801021b8:	f403 5380 	and.w	r3, r3, #4096	; 0x1000
801021bc:	2b00      	cmp	r3, #0
801021be:	d006      	beq.n	801021ce <SD_DecodeCsd+0xd8>
801021c0:	68fb      	ldr	r3, [r7, #12]
801021c2:	891b      	ldrh	r3, [r3, #8]
801021c4:	f043 0308 	orr.w	r3, r3, #8
801021c8:	b29a      	uxth	r2, r3
801021ca:	68fb      	ldr	r3, [r7, #12]
801021cc:	811a      	strh	r2, [r3, #8]
801021ce:	68fb      	ldr	r3, [r7, #12]
801021d0:	781b      	ldrb	r3, [r3, #0]
801021d2:	2b00      	cmp	r3, #0
801021d4:	d003      	beq.n	801021de <SD_DecodeCsd+0xe8>
801021d6:	2b01      	cmp	r3, #1
801021d8:	f000 8085 	beq.w	801022e6 <SD_DecodeCsd+0x1f0>
801021dc:	e0ac      	b.n	80102338 <SD_DecodeCsd+0x242>
801021de:	683b      	ldr	r3, [r7, #0]
801021e0:	3308      	adds	r3, #8
801021e2:	681b      	ldr	r3, [r3, #0]
801021e4:	009a      	lsls	r2, r3, #2
801021e6:	f640 73fc 	movw	r3, #4092	; 0xffc
801021ea:	4013      	ands	r3, r2
801021ec:	68fa      	ldr	r2, [r7, #12]
801021ee:	60d3      	str	r3, [r2, #12]
801021f0:	68fb      	ldr	r3, [r7, #12]
801021f2:	68da      	ldr	r2, [r3, #12]
801021f4:	683b      	ldr	r3, [r7, #0]
801021f6:	3304      	adds	r3, #4
801021f8:	681b      	ldr	r3, [r3, #0]
801021fa:	0f9b      	lsrs	r3, r3, #30
801021fc:	431a      	orrs	r2, r3
801021fe:	68fb      	ldr	r3, [r7, #12]
80102200:	60da      	str	r2, [r3, #12]
80102202:	683b      	ldr	r3, [r7, #0]
80102204:	3304      	adds	r3, #4
80102206:	681b      	ldr	r3, [r3, #0]
80102208:	0edb      	lsrs	r3, r3, #27
8010220a:	b2db      	uxtb	r3, r3
8010220c:	f003 0307 	and.w	r3, r3, #7
80102210:	b2da      	uxtb	r2, r3
80102212:	68fb      	ldr	r3, [r7, #12]
80102214:	741a      	strb	r2, [r3, #16]
80102216:	683b      	ldr	r3, [r7, #0]
80102218:	3304      	adds	r3, #4
8010221a:	681b      	ldr	r3, [r3, #0]
8010221c:	0e1b      	lsrs	r3, r3, #24
8010221e:	b2db      	uxtb	r3, r3
80102220:	f003 0307 	and.w	r3, r3, #7
80102224:	b2da      	uxtb	r2, r3
80102226:	68fb      	ldr	r3, [r7, #12]
80102228:	745a      	strb	r2, [r3, #17]
8010222a:	683b      	ldr	r3, [r7, #0]
8010222c:	3304      	adds	r3, #4
8010222e:	681b      	ldr	r3, [r3, #0]
80102230:	0d1b      	lsrs	r3, r3, #20
80102232:	b2db      	uxtb	r3, r3
80102234:	f003 030e 	and.w	r3, r3, #14
80102238:	b2da      	uxtb	r2, r3
8010223a:	68fb      	ldr	r3, [r7, #12]
8010223c:	749a      	strb	r2, [r3, #18]
8010223e:	683b      	ldr	r3, [r7, #0]
80102240:	3304      	adds	r3, #4
80102242:	681b      	ldr	r3, [r3, #0]
80102244:	0c9b      	lsrs	r3, r3, #18
80102246:	b2db      	uxtb	r3, r3
80102248:	f003 0307 	and.w	r3, r3, #7
8010224c:	b2da      	uxtb	r2, r3
8010224e:	68fb      	ldr	r3, [r7, #12]
80102250:	74da      	strb	r2, [r3, #19]
80102252:	683b      	ldr	r3, [r7, #0]
80102254:	3304      	adds	r3, #4
80102256:	681b      	ldr	r3, [r3, #0]
80102258:	0bdb      	lsrs	r3, r3, #15
8010225a:	b2db      	uxtb	r3, r3
8010225c:	f003 0307 	and.w	r3, r3, #7
80102260:	b2da      	uxtb	r2, r3
80102262:	68fb      	ldr	r3, [r7, #12]
80102264:	751a      	strb	r2, [r3, #20]
80102266:	68fb      	ldr	r3, [r7, #12]
80102268:	68db      	ldr	r3, [r3, #12]
8010226a:	1c5a      	adds	r2, r3, #1
8010226c:	68fb      	ldr	r3, [r7, #12]
8010226e:	7d1b      	ldrb	r3, [r3, #20]
80102270:	3302      	adds	r3, #2
80102272:	409a      	lsls	r2, r3
80102274:	687b      	ldr	r3, [r7, #4]
80102276:	67da      	str	r2, [r3, #124]	; 0x7c
80102278:	68fb      	ldr	r3, [r7, #12]
8010227a:	799b      	ldrb	r3, [r3, #6]
8010227c:	461a      	mov	r2, r3
8010227e:	2301      	movs	r3, #1
80102280:	fa03 f202 	lsl.w	r2, r3, r2
80102284:	687b      	ldr	r3, [r7, #4]
80102286:	f8c3 2080 	str.w	r2, [r3, #128]	; 0x80
8010228a:	687b      	ldr	r3, [r7, #4]
8010228c:	f8d3 3080 	ldr.w	r3, [r3, #128]	; 0x80
80102290:	f5b3 7f00 	cmp.w	r3, #512	; 0x200
80102294:	d01a      	beq.n	801022cc <SD_DecodeCsd+0x1d6>
80102296:	687b      	ldr	r3, [r7, #4]
80102298:	6fdb      	ldr	r3, [r3, #124]	; 0x7c
8010229a:	687a      	ldr	r2, [r7, #4]
8010229c:	f8d2 2080 	ldr.w	r2, [r2, #128]	; 0x80
801022a0:	fb02 f203 	mul.w	r2, r2, r3
801022a4:	687b      	ldr	r3, [r7, #4]
801022a6:	67da      	str	r2, [r3, #124]	; 0x7c
801022a8:	687b      	ldr	r3, [r7, #4]
801022aa:	f44f 7200 	mov.w	r2, #512	; 0x200
801022ae:	f8c3 2080 	str.w	r2, [r3, #128]	; 0x80
801022b2:	687b      	ldr	r3, [r7, #4]
801022b4:	6fda      	ldr	r2, [r3, #124]	; 0x7c
801022b6:	687b      	ldr	r3, [r7, #4]
801022b8:	f8d3 3080 	ldr.w	r3, [r3, #128]	; 0x80
801022bc:	4619      	mov	r1, r3
801022be:	4610      	mov	r0, r2
801022c0:	f001 fbd2 	bl	80103a68 <__aeabi_uidiv>
801022c4:	4603      	mov	r3, r0
801022c6:	461a      	mov	r2, r3
801022c8:	687b      	ldr	r3, [r7, #4]
801022ca:	67da      	str	r2, [r3, #124]	; 0x7c
801022cc:	687b      	ldr	r3, [r7, #4]
801022ce:	6fdb      	ldr	r3, [r3, #124]	; 0x7c
801022d0:	687a      	ldr	r2, [r7, #4]
801022d2:	f8d2 2080 	ldr.w	r2, [r2, #128]	; 0x80
801022d6:	fb02 f303 	mul.w	r3, r2, r3
801022da:	f04f 0400 	mov.w	r4, #0
801022de:	687a      	ldr	r2, [r7, #4]
801022e0:	e9c2 3422 	strd	r3, r4, [r2, #136]	; 0x88
801022e4:	e028      	b.n	80102338 <SD_DecodeCsd+0x242>
801022e6:	687b      	ldr	r3, [r7, #4]
801022e8:	f44f 7200 	mov.w	r2, #512	; 0x200
801022ec:	f8c3 2080 	str.w	r2, [r3, #128]	; 0x80
801022f0:	683b      	ldr	r3, [r7, #0]
801022f2:	3308      	adds	r3, #8
801022f4:	681b      	ldr	r3, [r3, #0]
801022f6:	041b      	lsls	r3, r3, #16
801022f8:	f403 127c 	and.w	r2, r3, #4128768	; 0x3f0000
801022fc:	68fb      	ldr	r3, [r7, #12]
801022fe:	60da      	str	r2, [r3, #12]
80102300:	68fb      	ldr	r3, [r7, #12]
80102302:	68da      	ldr	r2, [r3, #12]
80102304:	683b      	ldr	r3, [r7, #0]
80102306:	3304      	adds	r3, #4
80102308:	681b      	ldr	r3, [r3, #0]
8010230a:	0c1b      	lsrs	r3, r3, #16
8010230c:	431a      	orrs	r2, r3
8010230e:	68fb      	ldr	r3, [r7, #12]
80102310:	60da      	str	r2, [r3, #12]
80102312:	68fb      	ldr	r3, [r7, #12]
80102314:	68db      	ldr	r3, [r3, #12]
80102316:	3301      	adds	r3, #1
80102318:	029a      	lsls	r2, r3, #10
8010231a:	687b      	ldr	r3, [r7, #4]
8010231c:	67da      	str	r2, [r3, #124]	; 0x7c
8010231e:	687b      	ldr	r3, [r7, #4]
80102320:	f8d3 3080 	ldr.w	r3, [r3, #128]	; 0x80
80102324:	687a      	ldr	r2, [r7, #4]
80102326:	6fd2      	ldr	r2, [r2, #124]	; 0x7c
80102328:	fb02 f303 	mul.w	r3, r2, r3
8010232c:	f04f 0400 	mov.w	r4, #0
80102330:	687a      	ldr	r2, [r7, #4]
80102332:	e9c2 3422 	strd	r3, r4, [r2, #136]	; 0x88
80102336:	bf00      	nop
80102338:	683b      	ldr	r3, [r7, #0]
8010233a:	3304      	adds	r3, #4
8010233c:	681b      	ldr	r3, [r3, #0]
8010233e:	0b9b      	lsrs	r3, r3, #14
80102340:	b2db      	uxtb	r3, r3
80102342:	f003 0301 	and.w	r3, r3, #1
80102346:	b2db      	uxtb	r3, r3
80102348:	2b00      	cmp	r3, #0
8010234a:	d006      	beq.n	8010235a <SD_DecodeCsd+0x264>
8010234c:	68fb      	ldr	r3, [r7, #12]
8010234e:	891b      	ldrh	r3, [r3, #8]
80102350:	f043 0310 	orr.w	r3, r3, #16
80102354:	b29a      	uxth	r2, r3
80102356:	68fb      	ldr	r3, [r7, #12]
80102358:	811a      	strh	r2, [r3, #8]
8010235a:	683b      	ldr	r3, [r7, #0]
8010235c:	3304      	adds	r3, #4
8010235e:	681b      	ldr	r3, [r3, #0]
80102360:	09db      	lsrs	r3, r3, #7
80102362:	b2db      	uxtb	r3, r3
80102364:	f003 037f 	and.w	r3, r3, #127	; 0x7f
80102368:	b2da      	uxtb	r2, r3
8010236a:	68fb      	ldr	r3, [r7, #12]
8010236c:	755a      	strb	r2, [r3, #21]
8010236e:	683b      	ldr	r3, [r7, #0]
80102370:	3304      	adds	r3, #4
80102372:	681b      	ldr	r3, [r3, #0]
80102374:	b2db      	uxtb	r3, r3
80102376:	f003 037f 	and.w	r3, r3, #127	; 0x7f
8010237a:	b2da      	uxtb	r2, r3
8010237c:	68fb      	ldr	r3, [r7, #12]
8010237e:	759a      	strb	r2, [r3, #22]
80102380:	683b      	ldr	r3, [r7, #0]
80102382:	681b      	ldr	r3, [r3, #0]
80102384:	0e9b      	lsrs	r3, r3, #26
80102386:	b2db      	uxtb	r3, r3
80102388:	f003 0307 	and.w	r3, r3, #7
8010238c:	b2da      	uxtb	r2, r3
8010238e:	68fb      	ldr	r3, [r7, #12]
80102390:	75da      	strb	r2, [r3, #23]
80102392:	683b      	ldr	r3, [r7, #0]
80102394:	681b      	ldr	r3, [r3, #0]
80102396:	0d9b      	lsrs	r3, r3, #22
80102398:	b2db      	uxtb	r3, r3
8010239a:	f003 030f 	and.w	r3, r3, #15
8010239e:	b2da      	uxtb	r2, r3
801023a0:	68fb      	ldr	r3, [r7, #12]
801023a2:	761a      	strb	r2, [r3, #24]
801023a4:	683b      	ldr	r3, [r7, #0]
801023a6:	681b      	ldr	r3, [r3, #0]
801023a8:	0d5b      	lsrs	r3, r3, #21
801023aa:	b2db      	uxtb	r3, r3
801023ac:	f003 0301 	and.w	r3, r3, #1
801023b0:	b2db      	uxtb	r3, r3
801023b2:	2b00      	cmp	r3, #0
801023b4:	d006      	beq.n	801023c4 <SD_DecodeCsd+0x2ce>
801023b6:	68fb      	ldr	r3, [r7, #12]
801023b8:	891b      	ldrh	r3, [r3, #8]
801023ba:	f043 0340 	orr.w	r3, r3, #64	; 0x40
801023be:	b29a      	uxth	r2, r3
801023c0:	68fb      	ldr	r3, [r7, #12]
801023c2:	811a      	strh	r2, [r3, #8]
801023c4:	683b      	ldr	r3, [r7, #0]
801023c6:	681b      	ldr	r3, [r3, #0]
801023c8:	0bdb      	lsrs	r3, r3, #15
801023ca:	b2db      	uxtb	r3, r3
801023cc:	f003 0301 	and.w	r3, r3, #1
801023d0:	b2db      	uxtb	r3, r3
801023d2:	2b00      	cmp	r3, #0
801023d4:	d006      	beq.n	801023e4 <SD_DecodeCsd+0x2ee>
801023d6:	68fb      	ldr	r3, [r7, #12]
801023d8:	891b      	ldrh	r3, [r3, #8]
801023da:	f043 0380 	orr.w	r3, r3, #128	; 0x80
801023de:	b29a      	uxth	r2, r3
801023e0:	68fb      	ldr	r3, [r7, #12]
801023e2:	811a      	strh	r2, [r3, #8]
801023e4:	683b      	ldr	r3, [r7, #0]
801023e6:	681b      	ldr	r3, [r3, #0]
801023e8:	0b9b      	lsrs	r3, r3, #14
801023ea:	b2db      	uxtb	r3, r3
801023ec:	f003 0301 	and.w	r3, r3, #1
801023f0:	b2db      	uxtb	r3, r3
801023f2:	2b00      	cmp	r3, #0
801023f4:	d006      	beq.n	80102404 <SD_DecodeCsd+0x30e>
801023f6:	68fb      	ldr	r3, [r7, #12]
801023f8:	891b      	ldrh	r3, [r3, #8]
801023fa:	f443 7380 	orr.w	r3, r3, #256	; 0x100
801023fe:	b29a      	uxth	r2, r3
80102400:	68fb      	ldr	r3, [r7, #12]
80102402:	811a      	strh	r2, [r3, #8]
80102404:	683b      	ldr	r3, [r7, #0]
80102406:	681b      	ldr	r3, [r3, #0]
80102408:	0b5b      	lsrs	r3, r3, #13
8010240a:	b2db      	uxtb	r3, r3
8010240c:	f003 0301 	and.w	r3, r3, #1
80102410:	b2db      	uxtb	r3, r3
80102412:	2b00      	cmp	r3, #0
80102414:	d006      	beq.n	80102424 <SD_DecodeCsd+0x32e>
80102416:	68fb      	ldr	r3, [r7, #12]
80102418:	891b      	ldrh	r3, [r3, #8]
8010241a:	f443 7300 	orr.w	r3, r3, #512	; 0x200
8010241e:	b29a      	uxth	r2, r3
80102420:	68fb      	ldr	r3, [r7, #12]
80102422:	811a      	strh	r2, [r3, #8]
80102424:	683b      	ldr	r3, [r7, #0]
80102426:	681b      	ldr	r3, [r3, #0]
80102428:	0b1b      	lsrs	r3, r3, #12
8010242a:	b2db      	uxtb	r3, r3
8010242c:	f003 0301 	and.w	r3, r3, #1
80102430:	b2db      	uxtb	r3, r3
80102432:	2b00      	cmp	r3, #0
80102434:	d006      	beq.n	80102444 <SD_DecodeCsd+0x34e>
80102436:	68fb      	ldr	r3, [r7, #12]
80102438:	891b      	ldrh	r3, [r3, #8]
8010243a:	f443 6380 	orr.w	r3, r3, #1024	; 0x400
8010243e:	b29a      	uxth	r2, r3
80102440:	68fb      	ldr	r3, [r7, #12]
80102442:	811a      	strh	r2, [r3, #8]
80102444:	683b      	ldr	r3, [r7, #0]
80102446:	681b      	ldr	r3, [r3, #0]
80102448:	0a9b      	lsrs	r3, r3, #10
8010244a:	b2db      	uxtb	r3, r3
8010244c:	f003 0303 	and.w	r3, r3, #3
80102450:	b2da      	uxtb	r2, r3
80102452:	68fb      	ldr	r3, [r7, #12]
80102454:	765a      	strb	r2, [r3, #25]
80102456:	bf00      	nop
80102458:	3714      	adds	r7, #20
8010245a:	46bd      	mov	sp, r7
8010245c:	bd90      	pop	{r4, r7, pc}

8010245e <SD_DecodeScr>:
8010245e:	b480      	push	{r7}
80102460:	b085      	sub	sp, #20
80102462:	af00      	add	r7, sp, #0
80102464:	6078      	str	r0, [r7, #4]
80102466:	6039      	str	r1, [r7, #0]
80102468:	687b      	ldr	r3, [r7, #4]
8010246a:	3370      	adds	r3, #112	; 0x70
8010246c:	60fb      	str	r3, [r7, #12]
8010246e:	683b      	ldr	r3, [r7, #0]
80102470:	681b      	ldr	r3, [r3, #0]
80102472:	0f1b      	lsrs	r3, r3, #28
80102474:	b2da      	uxtb	r2, r3
80102476:	68fb      	ldr	r3, [r7, #12]
80102478:	701a      	strb	r2, [r3, #0]
8010247a:	683b      	ldr	r3, [r7, #0]
8010247c:	681b      	ldr	r3, [r3, #0]
8010247e:	0e1b      	lsrs	r3, r3, #24
80102480:	b2db      	uxtb	r3, r3
80102482:	f003 030f 	and.w	r3, r3, #15
80102486:	b2da      	uxtb	r2, r3
80102488:	68fb      	ldr	r3, [r7, #12]
8010248a:	705a      	strb	r2, [r3, #1]
8010248c:	683b      	ldr	r3, [r7, #0]
8010248e:	681b      	ldr	r3, [r3, #0]
80102490:	0ddb      	lsrs	r3, r3, #23
80102492:	b2db      	uxtb	r3, r3
80102494:	f003 0301 	and.w	r3, r3, #1
80102498:	b2db      	uxtb	r3, r3
8010249a:	2b00      	cmp	r3, #0
8010249c:	d006      	beq.n	801024ac <SD_DecodeScr+0x4e>
8010249e:	68fb      	ldr	r3, [r7, #12]
801024a0:	885b      	ldrh	r3, [r3, #2]
801024a2:	f043 0301 	orr.w	r3, r3, #1
801024a6:	b29a      	uxth	r2, r3
801024a8:	68fb      	ldr	r3, [r7, #12]
801024aa:	805a      	strh	r2, [r3, #2]
801024ac:	683b      	ldr	r3, [r7, #0]
801024ae:	681b      	ldr	r3, [r3, #0]
801024b0:	0d1b      	lsrs	r3, r3, #20
801024b2:	b2db      	uxtb	r3, r3
801024b4:	f003 0307 	and.w	r3, r3, #7
801024b8:	b2da      	uxtb	r2, r3
801024ba:	68fb      	ldr	r3, [r7, #12]
801024bc:	711a      	strb	r2, [r3, #4]
801024be:	683b      	ldr	r3, [r7, #0]
801024c0:	681b      	ldr	r3, [r3, #0]
801024c2:	0c1b      	lsrs	r3, r3, #16
801024c4:	b2db      	uxtb	r3, r3
801024c6:	f003 030f 	and.w	r3, r3, #15
801024ca:	b2da      	uxtb	r2, r3
801024cc:	68fb      	ldr	r3, [r7, #12]
801024ce:	715a      	strb	r2, [r3, #5]
801024d0:	683b      	ldr	r3, [r7, #0]
801024d2:	681b      	ldr	r3, [r3, #0]
801024d4:	0bdb      	lsrs	r3, r3, #15
801024d6:	b2db      	uxtb	r3, r3
801024d8:	f003 0301 	and.w	r3, r3, #1
801024dc:	b2db      	uxtb	r3, r3
801024de:	2b00      	cmp	r3, #0
801024e0:	d006      	beq.n	801024f0 <SD_DecodeScr+0x92>
801024e2:	68fb      	ldr	r3, [r7, #12]
801024e4:	885b      	ldrh	r3, [r3, #2]
801024e6:	f043 0302 	orr.w	r3, r3, #2
801024ea:	b29a      	uxth	r2, r3
801024ec:	68fb      	ldr	r3, [r7, #12]
801024ee:	805a      	strh	r2, [r3, #2]
801024f0:	683b      	ldr	r3, [r7, #0]
801024f2:	681b      	ldr	r3, [r3, #0]
801024f4:	0a9b      	lsrs	r3, r3, #10
801024f6:	b2db      	uxtb	r3, r3
801024f8:	f003 031e 	and.w	r3, r3, #30
801024fc:	b2da      	uxtb	r2, r3
801024fe:	68fb      	ldr	r3, [r7, #12]
80102500:	719a      	strb	r2, [r3, #6]
80102502:	683b      	ldr	r3, [r7, #0]
80102504:	681b      	ldr	r3, [r3, #0]
80102506:	b2db      	uxtb	r3, r3
80102508:	f003 0303 	and.w	r3, r3, #3
8010250c:	b2da      	uxtb	r2, r3
8010250e:	68fb      	ldr	r3, [r7, #12]
80102510:	71da      	strb	r2, [r3, #7]
80102512:	683b      	ldr	r3, [r7, #0]
80102514:	685a      	ldr	r2, [r3, #4]
80102516:	68fb      	ldr	r3, [r7, #12]
80102518:	609a      	str	r2, [r3, #8]
8010251a:	68fb      	ldr	r3, [r7, #12]
8010251c:	785b      	ldrb	r3, [r3, #1]
8010251e:	2b01      	cmp	r3, #1
80102520:	d008      	beq.n	80102534 <SD_DecodeScr+0xd6>
80102522:	2b02      	cmp	r3, #2
80102524:	d00a      	beq.n	8010253c <SD_DecodeScr+0xde>
80102526:	2b00      	cmp	r3, #0
80102528:	d000      	beq.n	8010252c <SD_DecodeScr+0xce>
8010252a:	e015      	b.n	80102558 <SD_DecodeScr+0xfa>
8010252c:	687b      	ldr	r3, [r7, #4]
8010252e:	2201      	movs	r2, #1
80102530:	60da      	str	r2, [r3, #12]
80102532:	e011      	b.n	80102558 <SD_DecodeScr+0xfa>
80102534:	687b      	ldr	r3, [r7, #4]
80102536:	2202      	movs	r2, #2
80102538:	60da      	str	r2, [r3, #12]
8010253a:	e00d      	b.n	80102558 <SD_DecodeScr+0xfa>
8010253c:	687b      	ldr	r3, [r7, #4]
8010253e:	2204      	movs	r2, #4
80102540:	60da      	str	r2, [r3, #12]
80102542:	687b      	ldr	r3, [r7, #4]
80102544:	f8b3 3072 	ldrh.w	r3, [r3, #114]	; 0x72
80102548:	f003 0302 	and.w	r3, r3, #2
8010254c:	2b00      	cmp	r3, #0
8010254e:	d002      	beq.n	80102556 <SD_DecodeScr+0xf8>
80102550:	687b      	ldr	r3, [r7, #4]
80102552:	2208      	movs	r2, #8
80102554:	60da      	str	r2, [r3, #12]
80102556:	bf00      	nop
80102558:	bf00      	nop
8010255a:	3714      	adds	r7, #20
8010255c:	46bd      	mov	sp, r7
8010255e:	f85d 7b04 	ldr.w	r7, [sp], #4
80102562:	4770      	bx	lr

80102564 <SD_SelectBusTiming>:
80102564:	b580      	push	{r7, lr}
80102566:	b0c6      	sub	sp, #280	; 0x118
80102568:	af02      	add	r7, sp, #8
8010256a:	1d3b      	adds	r3, r7, #4
8010256c:	6018      	str	r0, [r3, #0]
8010256e:	f64f 73f1 	movw	r3, #65521	; 0xfff1
80102572:	f2c8 03ff 	movt	r3, #33023	; 0x80ff
80102576:	f8c7 310c 	str.w	r3, [r7, #268]	; 0x10c
8010257a:	f107 0208 	add.w	r2, r7, #8
8010257e:	1d38      	adds	r0, r7, #4
80102580:	2340      	movs	r3, #64	; 0x40
80102582:	9300      	str	r3, [sp, #0]
80102584:	4613      	mov	r3, r2
80102586:	2200      	movs	r2, #0
80102588:	f240 613a 	movw	r1, #1594	; 0x63a
8010258c:	6800      	ldr	r0, [r0, #0]
8010258e:	f7ff fb53 	bl	80101c38 <USDHC_SendCommand_with_data>
80102592:	f8c7 0108 	str.w	r0, [r7, #264]	; 0x108
80102596:	f8d7 3108 	ldr.w	r3, [r7, #264]	; 0x108
8010259a:	2b00      	cmp	r3, #0
8010259c:	da02      	bge.n	801025a4 <SD_SelectBusTiming+0x40>
8010259e:	f04f 33ff 	mov.w	r3, #4294967295	; 0xffffffff
801025a2:	e06c      	b.n	8010267e <SD_SelectBusTiming+0x11a>
801025a4:	f107 0308 	add.w	r3, r7, #8
801025a8:	68db      	ldr	r3, [r3, #12]
801025aa:	061a      	lsls	r2, r3, #24
801025ac:	f107 0308 	add.w	r3, r7, #8
801025b0:	68db      	ldr	r3, [r3, #12]
801025b2:	021b      	lsls	r3, r3, #8
801025b4:	f403 037f 	and.w	r3, r3, #16711680	; 0xff0000
801025b8:	431a      	orrs	r2, r3
801025ba:	f107 0308 	add.w	r3, r7, #8
801025be:	68db      	ldr	r3, [r3, #12]
801025c0:	0a1b      	lsrs	r3, r3, #8
801025c2:	f403 437f 	and.w	r3, r3, #65280	; 0xff00
801025c6:	431a      	orrs	r2, r3
801025c8:	f107 0308 	add.w	r3, r7, #8
801025cc:	68db      	ldr	r3, [r3, #12]
801025ce:	0e1b      	lsrs	r3, r3, #24
801025d0:	431a      	orrs	r2, r3
801025d2:	f107 0308 	add.w	r3, r7, #8
801025d6:	60da      	str	r2, [r3, #12]
801025d8:	f107 0308 	add.w	r3, r7, #8
801025dc:	68db      	ldr	r3, [r3, #12]
801025de:	0c1b      	lsrs	r3, r3, #16
801025e0:	4619      	mov	r1, r3
801025e2:	f244 40dc 	movw	r0, #17628	; 0x44dc
801025e6:	f2c8 0010 	movt	r0, #32784	; 0x8010
801025ea:	f7fe ffa0 	bl	8010152e <printf>
801025ee:	f244 5000 	movw	r0, #17664	; 0x4500
801025f2:	f2c8 0010 	movt	r0, #32784	; 0x8010
801025f6:	f7fe ff9a 	bl	8010152e <printf>
801025fa:	f107 0208 	add.w	r2, r7, #8
801025fe:	1d38      	adds	r0, r7, #4
80102600:	2340      	movs	r3, #64	; 0x40
80102602:	9300      	str	r3, [sp, #0]
80102604:	4613      	mov	r3, r2
80102606:	f8d7 210c 	ldr.w	r2, [r7, #268]	; 0x10c
8010260a:	f240 613a 	movw	r1, #1594	; 0x63a
8010260e:	6800      	ldr	r0, [r0, #0]
80102610:	f7ff fb12 	bl	80101c38 <USDHC_SendCommand_with_data>
80102614:	f8c7 0108 	str.w	r0, [r7, #264]	; 0x108
80102618:	f8d7 3108 	ldr.w	r3, [r7, #264]	; 0x108
8010261c:	2b00      	cmp	r3, #0
8010261e:	da02      	bge.n	80102626 <SD_SelectBusTiming+0xc2>
80102620:	f04f 33ff 	mov.w	r3, #4294967295	; 0xffffffff
80102624:	e02b      	b.n	8010267e <SD_SelectBusTiming+0x11a>
80102626:	f107 0308 	add.w	r3, r7, #8
8010262a:	691b      	ldr	r3, [r3, #16]
8010262c:	061a      	lsls	r2, r3, #24
8010262e:	f107 0308 	add.w	r3, r7, #8
80102632:	691b      	ldr	r3, [r3, #16]
80102634:	021b      	lsls	r3, r3, #8
80102636:	f403 037f 	and.w	r3, r3, #16711680	; 0xff0000
8010263a:	431a      	orrs	r2, r3
8010263c:	f107 0308 	add.w	r3, r7, #8
80102640:	691b      	ldr	r3, [r3, #16]
80102642:	0a1b      	lsrs	r3, r3, #8
80102644:	f403 437f 	and.w	r3, r3, #65280	; 0xff00
80102648:	431a      	orrs	r2, r3
8010264a:	f107 0308 	add.w	r3, r7, #8
8010264e:	691b      	ldr	r3, [r3, #16]
80102650:	0e1b      	lsrs	r3, r3, #24
80102652:	431a      	orrs	r2, r3
80102654:	f107 0308 	add.w	r3, r7, #8
80102658:	611a      	str	r2, [r3, #16]
8010265a:	f107 0308 	add.w	r3, r7, #8
8010265e:	691b      	ldr	r3, [r3, #16]
80102660:	0e1b      	lsrs	r3, r3, #24
80102662:	2b01      	cmp	r3, #1
80102664:	d10a      	bne.n	8010267c <SD_SelectBusTiming+0x118>
80102666:	f107 0308 	add.w	r3, r7, #8
8010266a:	68db      	ldr	r3, [r3, #12]
8010266c:	0c1b      	lsrs	r3, r3, #16
8010266e:	4619      	mov	r1, r3
80102670:	f244 5008 	movw	r0, #17672	; 0x4508
80102674:	f2c8 0010 	movt	r0, #32784	; 0x8010
80102678:	f7fe ff59 	bl	8010152e <printf>
8010267c:	2300      	movs	r3, #0
8010267e:	4618      	mov	r0, r3
80102680:	f507 7788 	add.w	r7, r7, #272	; 0x110
80102684:	46bd      	mov	sp, r7
80102686:	bd80      	pop	{r7, pc}

80102688 <sd_init>:
80102688:	b580      	push	{r7, lr}
8010268a:	b08e      	sub	sp, #56	; 0x38
8010268c:	af02      	add	r7, sp, #8
8010268e:	6078      	str	r0, [r7, #4]
80102690:	2300      	movs	r3, #0
80102692:	627b      	str	r3, [r7, #36]	; 0x24
80102694:	6878      	ldr	r0, [r7, #4]
80102696:	f7ff fb42 	bl	80101d1e <USDHC_Init>
8010269a:	6878      	ldr	r0, [r7, #4]
8010269c:	f7ff fb89 	bl	80101db2 <CardInsertDetect>
801026a0:	2100      	movs	r1, #0
801026a2:	6878      	ldr	r0, [r7, #4]
801026a4:	f7ff fba7 	bl	80101df6 <USDHC_SetDataBusWidth>
801026a8:	f44f 52d4 	mov.w	r2, #6784	; 0x1a80
801026ac:	f2c0 0206 	movt	r2, #6
801026b0:	f44f 5176 	mov.w	r1, #15744	; 0x3d80
801026b4:	f6c0 31cd 	movt	r1, #3021	; 0xbcd
801026b8:	6878      	ldr	r0, [r7, #4]
801026ba:	f7ff fbb2 	bl	80101e22 <USDHC_SetSdClock>
801026be:	4602      	mov	r2, r0
801026c0:	f248 3358 	movw	r3, #33624	; 0x8358
801026c4:	f2c8 0310 	movt	r3, #32784	; 0x8010
801026c8:	605a      	str	r2, [r3, #4]
801026ca:	2164      	movs	r1, #100	; 0x64
801026cc:	6878      	ldr	r0, [r7, #4]
801026ce:	f7ff fc62 	bl	80101f96 <USDHC_SetCardActive>
801026d2:	2200      	movs	r2, #0
801026d4:	2100      	movs	r1, #0
801026d6:	6878      	ldr	r0, [r7, #4]
801026d8:	f7ff fa92 	bl	80101c00 <USDHC_SendCommand>
801026dc:	62f8      	str	r0, [r7, #44]	; 0x2c
801026de:	6afb      	ldr	r3, [r7, #44]	; 0x2c
801026e0:	2b00      	cmp	r3, #0
801026e2:	da02      	bge.n	801026ea <sd_init+0x62>
801026e4:	f04f 33ff 	mov.w	r3, #4294967295	; 0xffffffff
801026e8:	e24a      	b.n	80102b80 <sd_init+0x4f8>
801026ea:	2300      	movs	r3, #0
801026ec:	62bb      	str	r3, [r7, #40]	; 0x28
801026ee:	e00d      	b.n	8010270c <sd_init+0x84>
801026f0:	f44f 72d5 	mov.w	r2, #426	; 0x1aa
801026f4:	f640 011a 	movw	r1, #2074	; 0x81a
801026f8:	6878      	ldr	r0, [r7, #4]
801026fa:	f7ff fa81 	bl	80101c00 <USDHC_SendCommand>
801026fe:	62f8      	str	r0, [r7, #44]	; 0x2c
80102700:	6afb      	ldr	r3, [r7, #44]	; 0x2c
80102702:	2b00      	cmp	r3, #0
80102704:	d006      	beq.n	80102714 <sd_init+0x8c>
80102706:	6abb      	ldr	r3, [r7, #40]	; 0x28
80102708:	3301      	adds	r3, #1
8010270a:	62bb      	str	r3, [r7, #40]	; 0x28
8010270c:	6abb      	ldr	r3, [r7, #40]	; 0x28
8010270e:	2b09      	cmp	r3, #9
80102710:	d9ee      	bls.n	801026f0 <sd_init+0x68>
80102712:	e000      	b.n	80102716 <sd_init+0x8e>
80102714:	bf00      	nop
80102716:	6afb      	ldr	r3, [r7, #44]	; 0x2c
80102718:	2b00      	cmp	r3, #0
8010271a:	d104      	bne.n	80102726 <sd_init+0x9e>
8010271c:	6a7b      	ldr	r3, [r7, #36]	; 0x24
8010271e:	f043 4380 	orr.w	r3, r3, #1073741824	; 0x40000000
80102722:	627b      	str	r3, [r7, #36]	; 0x24
80102724:	e00b      	b.n	8010273e <sd_init+0xb6>
80102726:	2200      	movs	r2, #0
80102728:	2100      	movs	r1, #0
8010272a:	6878      	ldr	r0, [r7, #4]
8010272c:	f7ff fa68 	bl	80101c00 <USDHC_SendCommand>
80102730:	62f8      	str	r0, [r7, #44]	; 0x2c
80102732:	6afb      	ldr	r3, [r7, #44]	; 0x2c
80102734:	2b00      	cmp	r3, #0
80102736:	d002      	beq.n	8010273e <sd_init+0xb6>
80102738:	f04f 33ff 	mov.w	r3, #4294967295	; 0xffffffff
8010273c:	e220      	b.n	80102b80 <sd_init+0x4f8>
8010273e:	6a7b      	ldr	r3, [r7, #36]	; 0x24
80102740:	f443 1340 	orr.w	r3, r3, #3145728	; 0x300000
80102744:	627b      	str	r3, [r7, #36]	; 0x24
80102746:	2300      	movs	r3, #0
80102748:	62bb      	str	r3, [r7, #40]	; 0x28
8010274a:	e034      	b.n	801027b6 <sd_init+0x12e>
8010274c:	2200      	movs	r2, #0
8010274e:	f243 711a 	movw	r1, #14106	; 0x371a
80102752:	6878      	ldr	r0, [r7, #4]
80102754:	f7ff fa54 	bl	80101c00 <USDHC_SendCommand>
80102758:	62f8      	str	r0, [r7, #44]	; 0x2c
8010275a:	6afb      	ldr	r3, [r7, #44]	; 0x2c
8010275c:	2b00      	cmp	r3, #0
8010275e:	da02      	bge.n	80102766 <sd_init+0xde>
80102760:	f04f 33ff 	mov.w	r3, #4294967295	; 0xffffffff
80102764:	e20c      	b.n	80102b80 <sd_init+0x4f8>
80102766:	6a7a      	ldr	r2, [r7, #36]	; 0x24
80102768:	f642 1102 	movw	r1, #10498	; 0x2902
8010276c:	6878      	ldr	r0, [r7, #4]
8010276e:	f7ff fa47 	bl	80101c00 <USDHC_SendCommand>
80102772:	62f8      	str	r0, [r7, #44]	; 0x2c
80102774:	6afb      	ldr	r3, [r7, #44]	; 0x2c
80102776:	2b00      	cmp	r3, #0
80102778:	da02      	bge.n	80102780 <sd_init+0xf8>
8010277a:	f04f 33ff 	mov.w	r3, #4294967295	; 0xffffffff
8010277e:	e1ff      	b.n	80102b80 <sd_init+0x4f8>
80102780:	687b      	ldr	r3, [r7, #4]
80102782:	691b      	ldr	r3, [r3, #16]
80102784:	2b00      	cmp	r3, #0
80102786:	da13      	bge.n	801027b0 <sd_init+0x128>
80102788:	687b      	ldr	r3, [r7, #4]
8010278a:	691a      	ldr	r2, [r3, #16]
8010278c:	f248 3358 	movw	r3, #33624	; 0x8358
80102790:	f2c8 0310 	movt	r3, #32784	; 0x8010
80102794:	63da      	str	r2, [r3, #60]	; 0x3c
80102796:	f248 3358 	movw	r3, #33624	; 0x8358
8010279a:	f2c8 0310 	movt	r3, #32784	; 0x8010
8010279e:	6bdb      	ldr	r3, [r3, #60]	; 0x3c
801027a0:	4619      	mov	r1, r3
801027a2:	f244 5028 	movw	r0, #17704	; 0x4528
801027a6:	f2c8 0010 	movt	r0, #32784	; 0x8010
801027aa:	f7fe fec0 	bl	8010152e <printf>
801027ae:	e007      	b.n	801027c0 <sd_init+0x138>
801027b0:	6abb      	ldr	r3, [r7, #40]	; 0x28
801027b2:	3301      	adds	r3, #1
801027b4:	62bb      	str	r3, [r7, #40]	; 0x28
801027b6:	6abb      	ldr	r3, [r7, #40]	; 0x28
801027b8:	f241 3287 	movw	r2, #4999	; 0x1387
801027bc:	4293      	cmp	r3, r2
801027be:	d9c5      	bls.n	8010274c <sd_init+0xc4>
801027c0:	6abb      	ldr	r3, [r7, #40]	; 0x28
801027c2:	f5b3 7f7a 	cmp.w	r3, #1000	; 0x3e8
801027c6:	d308      	bcc.n	801027da <sd_init+0x152>
801027c8:	f244 5038 	movw	r0, #17720	; 0x4538
801027cc:	f2c8 0010 	movt	r0, #32784	; 0x8010
801027d0:	f7fe fead 	bl	8010152e <printf>
801027d4:	f04f 33ff 	mov.w	r3, #4294967295	; 0xffffffff
801027d8:	e1d2      	b.n	80102b80 <sd_init+0x4f8>
801027da:	f248 3358 	movw	r3, #33624	; 0x8358
801027de:	f2c8 0310 	movt	r3, #32784	; 0x8010
801027e2:	6bdb      	ldr	r3, [r3, #60]	; 0x3c
801027e4:	f003 7380 	and.w	r3, r3, #16777216	; 0x1000000
801027e8:	2b00      	cmp	r3, #0
801027ea:	d005      	beq.n	801027f8 <sd_init+0x170>
801027ec:	f244 505c 	movw	r0, #17756	; 0x455c
801027f0:	f2c8 0010 	movt	r0, #32784	; 0x8010
801027f4:	f7fe fe9b 	bl	8010152e <printf>
801027f8:	2200      	movs	r2, #0
801027fa:	f240 2109 	movw	r1, #521	; 0x209
801027fe:	6878      	ldr	r0, [r7, #4]
80102800:	f7ff f9fe 	bl	80101c00 <USDHC_SendCommand>
80102804:	62f8      	str	r0, [r7, #44]	; 0x2c
80102806:	6afb      	ldr	r3, [r7, #44]	; 0x2c
80102808:	2b00      	cmp	r3, #0
8010280a:	da02      	bge.n	80102812 <sd_init+0x18a>
8010280c:	f04f 33ff 	mov.w	r3, #4294967295	; 0xffffffff
80102810:	e1b6      	b.n	80102b80 <sd_init+0x4f8>
80102812:	f107 0314 	add.w	r3, r7, #20
80102816:	4619      	mov	r1, r3
80102818:	6878      	ldr	r0, [r7, #4]
8010281a:	f7ff fbe3 	bl	80101fe4 <USDHC_GetResponse>
8010281e:	f107 0314 	add.w	r3, r7, #20
80102822:	2210      	movs	r2, #16
80102824:	4619      	mov	r1, r3
80102826:	48c0      	ldr	r0, [pc, #768]	; (80102b28 <sd_init+0x4a0>)
80102828:	f7fe ff12 	bl	80101650 <memcpy>
8010282c:	49be      	ldr	r1, [pc, #760]	; (80102b28 <sd_init+0x4a0>)
8010282e:	f248 3058 	movw	r0, #33624	; 0x8358
80102832:	f2c8 0010 	movt	r0, #32784	; 0x8010
80102836:	f7ff fc03 	bl	80102040 <SD_DecodeCid>
8010283a:	2200      	movs	r2, #0
8010283c:	f240 311a 	movw	r1, #794	; 0x31a
80102840:	6878      	ldr	r0, [r7, #4]
80102842:	f7ff f9dd 	bl	80101c00 <USDHC_SendCommand>
80102846:	62f8      	str	r0, [r7, #44]	; 0x2c
80102848:	6afb      	ldr	r3, [r7, #44]	; 0x2c
8010284a:	2b00      	cmp	r3, #0
8010284c:	da02      	bge.n	80102854 <sd_init+0x1cc>
8010284e:	f04f 33ff 	mov.w	r3, #4294967295	; 0xffffffff
80102852:	e195      	b.n	80102b80 <sd_init+0x4f8>
80102854:	687b      	ldr	r3, [r7, #4]
80102856:	691b      	ldr	r3, [r3, #16]
80102858:	0c1a      	lsrs	r2, r3, #16
8010285a:	f248 3358 	movw	r3, #33624	; 0x8358
8010285e:	f2c8 0310 	movt	r3, #32784	; 0x8010
80102862:	609a      	str	r2, [r3, #8]
80102864:	f248 3358 	movw	r3, #33624	; 0x8358
80102868:	f2c8 0310 	movt	r3, #32784	; 0x8010
8010286c:	689b      	ldr	r3, [r3, #8]
8010286e:	4619      	mov	r1, r3
80102870:	f244 506c 	movw	r0, #17772	; 0x456c
80102874:	f2c8 0010 	movt	r0, #32784	; 0x8010
80102878:	f7fe fe59 	bl	8010152e <printf>
8010287c:	f248 3358 	movw	r3, #33624	; 0x8358
80102880:	f2c8 0310 	movt	r3, #32784	; 0x8010
80102884:	689b      	ldr	r3, [r3, #8]
80102886:	041b      	lsls	r3, r3, #16
80102888:	461a      	mov	r2, r3
8010288a:	f640 1109 	movw	r1, #2313	; 0x909
8010288e:	6878      	ldr	r0, [r7, #4]
80102890:	f7ff f9b6 	bl	80101c00 <USDHC_SendCommand>
80102894:	62f8      	str	r0, [r7, #44]	; 0x2c
80102896:	6afb      	ldr	r3, [r7, #44]	; 0x2c
80102898:	2b00      	cmp	r3, #0
8010289a:	da02      	bge.n	801028a2 <sd_init+0x21a>
8010289c:	f04f 33ff 	mov.w	r3, #4294967295	; 0xffffffff
801028a0:	e16e      	b.n	80102b80 <sd_init+0x4f8>
801028a2:	f107 0314 	add.w	r3, r7, #20
801028a6:	4619      	mov	r1, r3
801028a8:	6878      	ldr	r0, [r7, #4]
801028aa:	f7ff fb9b 	bl	80101fe4 <USDHC_GetResponse>
801028ae:	f107 0314 	add.w	r3, r7, #20
801028b2:	2210      	movs	r2, #16
801028b4:	4619      	mov	r1, r3
801028b6:	489d      	ldr	r0, [pc, #628]	; (80102b2c <sd_init+0x4a4>)
801028b8:	f7fe feca 	bl	80101650 <memcpy>
801028bc:	499b      	ldr	r1, [pc, #620]	; (80102b2c <sd_init+0x4a4>)
801028be:	f248 3058 	movw	r0, #33624	; 0x8358
801028c2:	f2c8 0010 	movt	r0, #32784	; 0x8010
801028c6:	f7ff fc16 	bl	801020f6 <SD_DecodeCsd>
801028ca:	f248 3358 	movw	r3, #33624	; 0x8358
801028ce:	f2c8 0310 	movt	r3, #32784	; 0x8010
801028d2:	f893 3054 	ldrb.w	r3, [r3, #84]	; 0x54
801028d6:	2b00      	cmp	r3, #0
801028d8:	d004      	beq.n	801028e4 <sd_init+0x25c>
801028da:	f244 5388 	movw	r3, #17800	; 0x4588
801028de:	f2c8 0310 	movt	r3, #32784	; 0x8010
801028e2:	e003      	b.n	801028ec <sd_init+0x264>
801028e4:	f244 5394 	movw	r3, #17812	; 0x4594
801028e8:	f2c8 0310 	movt	r3, #32784	; 0x8010
801028ec:	4619      	mov	r1, r3
801028ee:	f244 509c 	movw	r0, #17820	; 0x459c
801028f2:	f2c8 0010 	movt	r0, #32784	; 0x8010
801028f6:	f7fe fe1a 	bl	8010152e <printf>
801028fa:	f248 3358 	movw	r3, #33624	; 0x8358
801028fe:	f2c8 0310 	movt	r3, #32784	; 0x8010
80102902:	6fdb      	ldr	r3, [r3, #124]	; 0x7c
80102904:	4619      	mov	r1, r3
80102906:	f244 50a8 	movw	r0, #17832	; 0x45a8
8010290a:	f2c8 0010 	movt	r0, #32784	; 0x8010
8010290e:	f7fe fe0e 	bl	8010152e <printf>
80102912:	f248 3358 	movw	r3, #33624	; 0x8358
80102916:	f2c8 0310 	movt	r3, #32784	; 0x8010
8010291a:	f8d3 3080 	ldr.w	r3, [r3, #128]	; 0x80
8010291e:	4619      	mov	r1, r3
80102920:	f244 50c4 	movw	r0, #17860	; 0x45c4
80102924:	f2c8 0010 	movt	r0, #32784	; 0x8010
80102928:	f7fe fe01 	bl	8010152e <printf>
8010292c:	f248 3358 	movw	r3, #33624	; 0x8358
80102930:	f2c8 0310 	movt	r3, #32784	; 0x8010
80102934:	f8b3 3058 	ldrh.w	r3, [r3, #88]	; 0x58
80102938:	4619      	mov	r1, r3
8010293a:	f244 50e0 	movw	r0, #17888	; 0x45e0
8010293e:	f2c8 0010 	movt	r0, #32784	; 0x8010
80102942:	f7fe fdf4 	bl	8010152e <printf>
80102946:	f248 3358 	movw	r3, #33624	; 0x8358
8010294a:	f2c8 0310 	movt	r3, #32784	; 0x8010
8010294e:	689b      	ldr	r3, [r3, #8]
80102950:	041b      	lsls	r3, r3, #16
80102952:	461a      	mov	r2, r3
80102954:	f240 711b 	movw	r1, #1819	; 0x71b
80102958:	6878      	ldr	r0, [r7, #4]
8010295a:	f7ff f951 	bl	80101c00 <USDHC_SendCommand>
8010295e:	62f8      	str	r0, [r7, #44]	; 0x2c
80102960:	6afb      	ldr	r3, [r7, #44]	; 0x2c
80102962:	2b00      	cmp	r3, #0
80102964:	da01      	bge.n	8010296a <sd_init+0x2e2>
80102966:	6afb      	ldr	r3, [r7, #44]	; 0x2c
80102968:	e10a      	b.n	80102b80 <sd_init+0x4f8>
8010296a:	f248 3358 	movw	r3, #33624	; 0x8358
8010296e:	f2c8 0310 	movt	r3, #32784	; 0x8010
80102972:	689b      	ldr	r3, [r3, #8]
80102974:	041b      	lsls	r3, r3, #16
80102976:	461a      	mov	r2, r3
80102978:	f243 711a 	movw	r1, #14106	; 0x371a
8010297c:	6878      	ldr	r0, [r7, #4]
8010297e:	f7ff f93f 	bl	80101c00 <USDHC_SendCommand>
80102982:	62f8      	str	r0, [r7, #44]	; 0x2c
80102984:	6afb      	ldr	r3, [r7, #44]	; 0x2c
80102986:	2b00      	cmp	r3, #0
80102988:	da01      	bge.n	8010298e <sd_init+0x306>
8010298a:	6afb      	ldr	r3, [r7, #44]	; 0x2c
8010298c:	e0f8      	b.n	80102b80 <sd_init+0x4f8>
8010298e:	f107 020c 	add.w	r2, r7, #12
80102992:	2308      	movs	r3, #8
80102994:	9300      	str	r3, [sp, #0]
80102996:	4613      	mov	r3, r2
80102998:	2200      	movs	r2, #0
8010299a:	f243 313a 	movw	r1, #13114	; 0x333a
8010299e:	6878      	ldr	r0, [r7, #4]
801029a0:	f7ff f94a 	bl	80101c38 <USDHC_SendCommand_with_data>
801029a4:	62f8      	str	r0, [r7, #44]	; 0x2c
801029a6:	6afb      	ldr	r3, [r7, #44]	; 0x2c
801029a8:	2b00      	cmp	r3, #0
801029aa:	da01      	bge.n	801029b0 <sd_init+0x328>
801029ac:	6afb      	ldr	r3, [r7, #44]	; 0x2c
801029ae:	e0e7      	b.n	80102b80 <sd_init+0x4f8>
801029b0:	68fb      	ldr	r3, [r7, #12]
801029b2:	061a      	lsls	r2, r3, #24
801029b4:	68fb      	ldr	r3, [r7, #12]
801029b6:	021b      	lsls	r3, r3, #8
801029b8:	f403 037f 	and.w	r3, r3, #16711680	; 0xff0000
801029bc:	431a      	orrs	r2, r3
801029be:	68fb      	ldr	r3, [r7, #12]
801029c0:	0a1b      	lsrs	r3, r3, #8
801029c2:	f403 437f 	and.w	r3, r3, #65280	; 0xff00
801029c6:	431a      	orrs	r2, r3
801029c8:	68fb      	ldr	r3, [r7, #12]
801029ca:	0e1b      	lsrs	r3, r3, #24
801029cc:	4313      	orrs	r3, r2
801029ce:	60fb      	str	r3, [r7, #12]
801029d0:	693b      	ldr	r3, [r7, #16]
801029d2:	061a      	lsls	r2, r3, #24
801029d4:	693b      	ldr	r3, [r7, #16]
801029d6:	021b      	lsls	r3, r3, #8
801029d8:	f403 037f 	and.w	r3, r3, #16711680	; 0xff0000
801029dc:	431a      	orrs	r2, r3
801029de:	693b      	ldr	r3, [r7, #16]
801029e0:	0a1b      	lsrs	r3, r3, #8
801029e2:	f403 437f 	and.w	r3, r3, #65280	; 0xff00
801029e6:	431a      	orrs	r2, r3
801029e8:	693b      	ldr	r3, [r7, #16]
801029ea:	0e1b      	lsrs	r3, r3, #24
801029ec:	4313      	orrs	r3, r2
801029ee:	613b      	str	r3, [r7, #16]
801029f0:	f107 030c 	add.w	r3, r7, #12
801029f4:	2208      	movs	r2, #8
801029f6:	4619      	mov	r1, r3
801029f8:	484d      	ldr	r0, [pc, #308]	; (80102b30 <sd_init+0x4a8>)
801029fa:	f7fe fe29 	bl	80101650 <memcpy>
801029fe:	494c      	ldr	r1, [pc, #304]	; (80102b30 <sd_init+0x4a8>)
80102a00:	f248 3058 	movw	r0, #33624	; 0x8358
80102a04:	f2c8 0010 	movt	r0, #32784	; 0x8010
80102a08:	f7ff fd29 	bl	8010245e <SD_DecodeScr>
80102a0c:	68fb      	ldr	r3, [r7, #12]
80102a0e:	693a      	ldr	r2, [r7, #16]
80102a10:	4619      	mov	r1, r3
80102a12:	f244 6000 	movw	r0, #17920	; 0x4600
80102a16:	f2c8 0010 	movt	r0, #32784	; 0x8010
80102a1a:	f7fe fd88 	bl	8010152e <printf>
80102a1e:	f248 3358 	movw	r3, #33624	; 0x8358
80102a22:	f2c8 0310 	movt	r3, #32784	; 0x8010
80102a26:	f893 3071 	ldrb.w	r3, [r3, #113]	; 0x71
80102a2a:	4619      	mov	r1, r3
80102a2c:	f244 6024 	movw	r0, #17956	; 0x4624
80102a30:	f2c8 0010 	movt	r0, #32784	; 0x8010
80102a34:	f7fe fd7b 	bl	8010152e <printf>
80102a38:	f248 3358 	movw	r3, #33624	; 0x8358
80102a3c:	f2c8 0310 	movt	r3, #32784	; 0x8010
80102a40:	f893 3075 	ldrb.w	r3, [r3, #117]	; 0x75
80102a44:	f003 0304 	and.w	r3, r3, #4
80102a48:	2b00      	cmp	r3, #0
80102a4a:	d108      	bne.n	80102a5e <sd_init+0x3d6>
80102a4c:	f244 6040 	movw	r0, #17984	; 0x4640
80102a50:	f2c8 0010 	movt	r0, #32784	; 0x8010
80102a54:	f7fe fd6b 	bl	8010152e <printf>
80102a58:	f04f 33ff 	mov.w	r3, #4294967295	; 0xffffffff
80102a5c:	e090      	b.n	80102b80 <sd_init+0x4f8>
80102a5e:	f248 3358 	movw	r3, #33624	; 0x8358
80102a62:	f2c8 0310 	movt	r3, #32784	; 0x8010
80102a66:	f893 3077 	ldrb.w	r3, [r3, #119]	; 0x77
80102a6a:	f003 0301 	and.w	r3, r3, #1
80102a6e:	2b00      	cmp	r3, #0
80102a70:	d105      	bne.n	80102a7e <sd_init+0x3f6>
80102a72:	f244 6064 	movw	r0, #18020	; 0x4664
80102a76:	f2c8 0010 	movt	r0, #32784	; 0x8010
80102a7a:	f7fe fd58 	bl	8010152e <printf>
80102a7e:	f248 3358 	movw	r3, #33624	; 0x8358
80102a82:	f2c8 0310 	movt	r3, #32784	; 0x8010
80102a86:	f893 3077 	ldrb.w	r3, [r3, #119]	; 0x77
80102a8a:	f003 0302 	and.w	r3, r3, #2
80102a8e:	2b00      	cmp	r3, #0
80102a90:	d105      	bne.n	80102a9e <sd_init+0x416>
80102a92:	f244 609c 	movw	r0, #18076	; 0x469c
80102a96:	f2c8 0010 	movt	r0, #32784	; 0x8010
80102a9a:	f7fe fd48 	bl	8010152e <printf>
80102a9e:	f647 0240 	movw	r2, #30784	; 0x7840
80102aa2:	f2c0 127d 	movt	r2, #381	; 0x17d
80102aa6:	f44f 5176 	mov.w	r1, #15744	; 0x3d80
80102aaa:	f6c0 31cd 	movt	r1, #3021	; 0xbcd
80102aae:	6878      	ldr	r0, [r7, #4]
80102ab0:	f7ff f9b7 	bl	80101e22 <USDHC_SetSdClock>
80102ab4:	4602      	mov	r2, r0
80102ab6:	f248 3358 	movw	r3, #33624	; 0x8358
80102aba:	f2c8 0310 	movt	r3, #32784	; 0x8010
80102abe:	605a      	str	r2, [r3, #4]
80102ac0:	f248 3358 	movw	r3, #33624	; 0x8358
80102ac4:	f2c8 0310 	movt	r3, #32784	; 0x8010
80102ac8:	689b      	ldr	r3, [r3, #8]
80102aca:	041b      	lsls	r3, r3, #16
80102acc:	461a      	mov	r2, r3
80102ace:	f243 711a 	movw	r1, #14106	; 0x371a
80102ad2:	6878      	ldr	r0, [r7, #4]
80102ad4:	f7ff f894 	bl	80101c00 <USDHC_SendCommand>
80102ad8:	62f8      	str	r0, [r7, #44]	; 0x2c
80102ada:	6afb      	ldr	r3, [r7, #44]	; 0x2c
80102adc:	2b00      	cmp	r3, #0
80102ade:	da01      	bge.n	80102ae4 <sd_init+0x45c>
80102ae0:	6afb      	ldr	r3, [r7, #44]	; 0x2c
80102ae2:	e04d      	b.n	80102b80 <sd_init+0x4f8>
80102ae4:	2202      	movs	r2, #2
80102ae6:	f240 611a 	movw	r1, #1562	; 0x61a
80102aea:	6878      	ldr	r0, [r7, #4]
80102aec:	f7ff f888 	bl	80101c00 <USDHC_SendCommand>
80102af0:	62f8      	str	r0, [r7, #44]	; 0x2c
80102af2:	6afb      	ldr	r3, [r7, #44]	; 0x2c
80102af4:	2b00      	cmp	r3, #0
80102af6:	da01      	bge.n	80102afc <sd_init+0x474>
80102af8:	6afb      	ldr	r3, [r7, #44]	; 0x2c
80102afa:	e041      	b.n	80102b80 <sd_init+0x4f8>
80102afc:	687b      	ldr	r3, [r7, #4]
80102afe:	6a9b      	ldr	r3, [r3, #40]	; 0x28
80102b00:	f023 0306 	bic.w	r3, r3, #6
80102b04:	f043 0202 	orr.w	r2, r3, #2
80102b08:	687b      	ldr	r3, [r7, #4]
80102b0a:	629a      	str	r2, [r3, #40]	; 0x28
80102b0c:	f44f 7200 	mov.w	r2, #512	; 0x200
80102b10:	f241 011a 	movw	r1, #4122	; 0x101a
80102b14:	6878      	ldr	r0, [r7, #4]
80102b16:	f7ff f873 	bl	80101c00 <USDHC_SendCommand>
80102b1a:	62f8      	str	r0, [r7, #44]	; 0x2c
80102b1c:	6afb      	ldr	r3, [r7, #44]	; 0x2c
80102b1e:	2b00      	cmp	r3, #0
80102b20:	da08      	bge.n	80102b34 <sd_init+0x4ac>
80102b22:	6afb      	ldr	r3, [r7, #44]	; 0x2c
80102b24:	e02c      	b.n	80102b80 <sd_init+0x4f8>
80102b26:	bf00      	nop
80102b28:	8010836c 	andshi	r8, r0, ip, ror #6
80102b2c:	8010837c 	andshi	r8, r0, ip, ror r3
80102b30:	8010838c 	andshi	r8, r0, ip, lsl #7
80102b34:	6878      	ldr	r0, [r7, #4]
80102b36:	f7ff fd15 	bl	80102564 <SD_SelectBusTiming>
80102b3a:	4603      	mov	r3, r0
80102b3c:	2b00      	cmp	r3, #0
80102b3e:	d110      	bne.n	80102b62 <sd_init+0x4da>
80102b40:	f24f 0280 	movw	r2, #61568	; 0xf080
80102b44:	f2c0 22fa 	movt	r2, #762	; 0x2fa
80102b48:	f44f 5176 	mov.w	r1, #15744	; 0x3d80
80102b4c:	f6c0 31cd 	movt	r1, #3021	; 0xbcd
80102b50:	6878      	ldr	r0, [r7, #4]
80102b52:	f7ff f966 	bl	80101e22 <USDHC_SetSdClock>
80102b56:	4602      	mov	r2, r0
80102b58:	f248 3358 	movw	r3, #33624	; 0x8358
80102b5c:	f2c8 0310 	movt	r3, #32784	; 0x8010
80102b60:	605a      	str	r2, [r3, #4]
80102b62:	f248 3358 	movw	r3, #33624	; 0x8358
80102b66:	f2c8 0310 	movt	r3, #32784	; 0x8010
80102b6a:	6859      	ldr	r1, [r3, #4]
80102b6c:	687b      	ldr	r3, [r7, #4]
80102b6e:	6adb      	ldr	r3, [r3, #44]	; 0x2c
80102b70:	461a      	mov	r2, r3
80102b72:	f244 60d8 	movw	r0, #18136	; 0x46d8
80102b76:	f2c8 0010 	movt	r0, #32784	; 0x8010
80102b7a:	f7fe fcd8 	bl	8010152e <printf>
80102b7e:	2300      	movs	r3, #0
80102b80:	4618      	mov	r0, r3
80102b82:	3730      	adds	r7, #48	; 0x30
80102b84:	46bd      	mov	sp, r7
80102b86:	bd80      	pop	{r7, pc}

80102b88 <SD_WaitReadWriteComplete>:
80102b88:	b580      	push	{r7, lr}
80102b8a:	b084      	sub	sp, #16
80102b8c:	af00      	add	r7, sp, #0
80102b8e:	6078      	str	r0, [r7, #4]
80102b90:	687a      	ldr	r2, [r7, #4]
80102b92:	2300      	movs	r3, #0
80102b94:	f2c0 2319 	movt	r3, #537	; 0x219
80102b98:	429a      	cmp	r2, r3
80102b9a:	d10d      	bne.n	80102bb8 <SD_WaitReadWriteComplete+0x30>
80102b9c:	f248 3358 	movw	r3, #33624	; 0x8358
80102ba0:	f2c8 0310 	movt	r3, #32784	; 0x8010
80102ba4:	689b      	ldr	r3, [r3, #8]
80102ba6:	041b      	lsls	r3, r3, #16
80102ba8:	461a      	mov	r2, r3
80102baa:	f640 511a 	movw	r1, #3354	; 0xd1a
80102bae:	6878      	ldr	r0, [r7, #4]
80102bb0:	f7ff f826 	bl	80101c00 <USDHC_SendCommand>
80102bb4:	60f8      	str	r0, [r7, #12]
80102bb6:	e013      	b.n	80102be0 <SD_WaitReadWriteComplete+0x58>
80102bb8:	687a      	ldr	r2, [r7, #4]
80102bba:	f44f 4380 	mov.w	r3, #16384	; 0x4000
80102bbe:	f2c0 2319 	movt	r3, #537	; 0x219
80102bc2:	429a      	cmp	r2, r3
80102bc4:	d10c      	bne.n	80102be0 <SD_WaitReadWriteComplete+0x58>
80102bc6:	f248 0300 	movw	r3, #32768	; 0x8000
80102bca:	f2c8 0310 	movt	r3, #32784	; 0x8010
80102bce:	689b      	ldr	r3, [r3, #8]
80102bd0:	041b      	lsls	r3, r3, #16
80102bd2:	461a      	mov	r2, r3
80102bd4:	f640 511a 	movw	r1, #3354	; 0xd1a
80102bd8:	6878      	ldr	r0, [r7, #4]
80102bda:	f7ff f811 	bl	80101c00 <USDHC_SendCommand>
80102bde:	60f8      	str	r0, [r7, #12]
80102be0:	68fb      	ldr	r3, [r7, #12]
80102be2:	2b00      	cmp	r3, #0
80102be4:	db18      	blt.n	80102c18 <SD_WaitReadWriteComplete+0x90>
80102be6:	687b      	ldr	r3, [r7, #4]
80102be8:	691a      	ldr	r2, [r3, #16]
80102bea:	2388      	movs	r3, #136	; 0x88
80102bec:	f6cf 73f9 	movt	r3, #65529	; 0xfff9
80102bf0:	4013      	ands	r3, r2
80102bf2:	2b00      	cmp	r3, #0
80102bf4:	d002      	beq.n	80102bfc <SD_WaitReadWriteComplete+0x74>
80102bf6:	f04f 33ff 	mov.w	r3, #4294967295	; 0xffffffff
80102bfa:	e012      	b.n	80102c22 <SD_WaitReadWriteComplete+0x9a>
80102bfc:	687b      	ldr	r3, [r7, #4]
80102bfe:	691b      	ldr	r3, [r3, #16]
80102c00:	f403 7380 	and.w	r3, r3, #256	; 0x100
80102c04:	2b00      	cmp	r3, #0
80102c06:	d0c3      	beq.n	80102b90 <SD_WaitReadWriteComplete+0x8>
80102c08:	687b      	ldr	r3, [r7, #4]
80102c0a:	691b      	ldr	r3, [r3, #16]
80102c0c:	0a5b      	lsrs	r3, r3, #9
80102c0e:	f003 030f 	and.w	r3, r3, #15
80102c12:	2b07      	cmp	r3, #7
80102c14:	d102      	bne.n	80102c1c <SD_WaitReadWriteComplete+0x94>
80102c16:	e7bb      	b.n	80102b90 <SD_WaitReadWriteComplete+0x8>
80102c18:	bf00      	nop
80102c1a:	e000      	b.n	80102c1e <SD_WaitReadWriteComplete+0x96>
80102c1c:	bf00      	nop
80102c1e:	687b      	ldr	r3, [r7, #4]
80102c20:	691b      	ldr	r3, [r3, #16]
80102c22:	4618      	mov	r0, r3
80102c24:	3710      	adds	r7, #16
80102c26:	46bd      	mov	sp, r7
80102c28:	bd80      	pop	{r7, pc}

80102c2a <sd_read_blocks>:
80102c2a:	b580      	push	{r7, lr}
80102c2c:	b086      	sub	sp, #24
80102c2e:	af00      	add	r7, sp, #0
80102c30:	60f8      	str	r0, [r7, #12]
80102c32:	60b9      	str	r1, [r7, #8]
80102c34:	607a      	str	r2, [r7, #4]
80102c36:	603b      	str	r3, [r7, #0]
80102c38:	2300      	movs	r3, #0
80102c3a:	617b      	str	r3, [r7, #20]
80102c3c:	bf00      	nop
80102c3e:	68fb      	ldr	r3, [r7, #12]
80102c40:	6a5b      	ldr	r3, [r3, #36]	; 0x24
80102c42:	f003 0301 	and.w	r3, r3, #1
80102c46:	2b00      	cmp	r3, #0
80102c48:	d1f9      	bne.n	80102c3e <sd_read_blocks+0x14>
80102c4a:	bf00      	nop
80102c4c:	68fb      	ldr	r3, [r7, #12]
80102c4e:	6a5b      	ldr	r3, [r3, #36]	; 0x24
80102c50:	f003 0302 	and.w	r3, r3, #2
80102c54:	2b00      	cmp	r3, #0
80102c56:	d1f9      	bne.n	80102c4c <sd_read_blocks+0x22>
80102c58:	683b      	ldr	r3, [r7, #0]
80102c5a:	025b      	lsls	r3, r3, #9
80102c5c:	4619      	mov	r1, r3
80102c5e:	68b8      	ldr	r0, [r7, #8]
80102c60:	f7fe fee0 	bl	80101a24 <USDHC_CreateDescTable>
80102c64:	68fb      	ldr	r3, [r7, #12]
80102c66:	2200      	movs	r2, #0
80102c68:	601a      	str	r2, [r3, #0]
80102c6a:	f248 33f8 	movw	r3, #33784	; 0x83f8
80102c6e:	f2c8 0310 	movt	r3, #32784	; 0x8010
80102c72:	68fa      	ldr	r2, [r7, #12]
80102c74:	6593      	str	r3, [r2, #88]	; 0x58
80102c76:	683b      	ldr	r3, [r7, #0]
80102c78:	041b      	lsls	r3, r3, #16
80102c7a:	f443 7200 	orr.w	r2, r3, #512	; 0x200
80102c7e:	68fb      	ldr	r3, [r7, #12]
80102c80:	605a      	str	r2, [r3, #4]
80102c82:	68fb      	ldr	r3, [r7, #12]
80102c84:	f8d3 30c0 	ldr.w	r3, [r3, #192]	; 0xc0
80102c88:	f023 0201 	bic.w	r2, r3, #1
80102c8c:	68fb      	ldr	r3, [r7, #12]
80102c8e:	f8c3 20c0 	str.w	r2, [r3, #192]	; 0xc0
80102c92:	68fb      	ldr	r3, [r7, #12]
80102c94:	6a9b      	ldr	r3, [r3, #40]	; 0x28
80102c96:	f023 5360 	bic.w	r3, r3, #939524096	; 0x38000000
80102c9a:	f423 7340 	bic.w	r3, r3, #768	; 0x300
80102c9e:	68fa      	ldr	r2, [r7, #12]
80102ca0:	6293      	str	r3, [r2, #40]	; 0x28
80102ca2:	68fb      	ldr	r3, [r7, #12]
80102ca4:	6a9b      	ldr	r3, [r3, #40]	; 0x28
80102ca6:	f043 6300 	orr.w	r3, r3, #134217728	; 0x8000000
80102caa:	f443 7300 	orr.w	r3, r3, #512	; 0x200
80102cae:	68fa      	ldr	r2, [r7, #12]
80102cb0:	6293      	str	r3, [r2, #40]	; 0x28
80102cb2:	683b      	ldr	r3, [r7, #0]
80102cb4:	2b01      	cmp	r3, #1
80102cb6:	d114      	bne.n	80102ce2 <sd_read_blocks+0xb8>
80102cb8:	68fb      	ldr	r3, [r7, #12]
80102cba:	6c9b      	ldr	r3, [r3, #72]	; 0x48
80102cbc:	f023 0237 	bic.w	r2, r3, #55	; 0x37
80102cc0:	68fb      	ldr	r3, [r7, #12]
80102cc2:	649a      	str	r2, [r3, #72]	; 0x48
80102cc4:	68fb      	ldr	r3, [r7, #12]
80102cc6:	6c9b      	ldr	r3, [r3, #72]	; 0x48
80102cc8:	f043 0211 	orr.w	r2, r3, #17
80102ccc:	68fb      	ldr	r3, [r7, #12]
80102cce:	649a      	str	r2, [r3, #72]	; 0x48
80102cd0:	68fb      	ldr	r3, [r7, #12]
80102cd2:	687a      	ldr	r2, [r7, #4]
80102cd4:	609a      	str	r2, [r3, #8]
80102cd6:	68fa      	ldr	r2, [r7, #12]
80102cd8:	2300      	movs	r3, #0
80102cda:	f2c1 133a 	movt	r3, #4410	; 0x113a
80102cde:	60d3      	str	r3, [r2, #12]
80102ce0:	e013      	b.n	80102d0a <sd_read_blocks+0xe0>
80102ce2:	68fb      	ldr	r3, [r7, #12]
80102ce4:	6c9b      	ldr	r3, [r3, #72]	; 0x48
80102ce6:	f023 0237 	bic.w	r2, r3, #55	; 0x37
80102cea:	68fb      	ldr	r3, [r7, #12]
80102cec:	649a      	str	r2, [r3, #72]	; 0x48
80102cee:	68fb      	ldr	r3, [r7, #12]
80102cf0:	6c9b      	ldr	r3, [r3, #72]	; 0x48
80102cf2:	f043 0237 	orr.w	r2, r3, #55	; 0x37
80102cf6:	68fb      	ldr	r3, [r7, #12]
80102cf8:	649a      	str	r2, [r3, #72]	; 0x48
80102cfa:	68fb      	ldr	r3, [r7, #12]
80102cfc:	687a      	ldr	r2, [r7, #4]
80102cfe:	609a      	str	r2, [r3, #8]
80102d00:	68fa      	ldr	r2, [r7, #12]
80102d02:	2300      	movs	r3, #0
80102d04:	f2c1 233a 	movt	r3, #4666	; 0x123a
80102d08:	60d3      	str	r3, [r2, #12]
80102d0a:	68f8      	ldr	r0, [r7, #12]
80102d0c:	f7fe ff10 	bl	80101b30 <USDHC_WaitCommandDone>
80102d10:	6178      	str	r0, [r7, #20]
80102d12:	697b      	ldr	r3, [r7, #20]
80102d14:	2b00      	cmp	r3, #0
80102d16:	da01      	bge.n	80102d1c <sd_read_blocks+0xf2>
80102d18:	697b      	ldr	r3, [r7, #20]
80102d1a:	e021      	b.n	80102d60 <sd_read_blocks+0x136>
80102d1c:	68f8      	ldr	r0, [r7, #12]
80102d1e:	f7fe ff3b 	bl	80101b98 <USDHC_WaitDataDone>
80102d22:	6178      	str	r0, [r7, #20]
80102d24:	697b      	ldr	r3, [r7, #20]
80102d26:	2b00      	cmp	r3, #0
80102d28:	da01      	bge.n	80102d2e <sd_read_blocks+0x104>
80102d2a:	697b      	ldr	r3, [r7, #20]
80102d2c:	e018      	b.n	80102d60 <sd_read_blocks+0x136>
80102d2e:	68f8      	ldr	r0, [r7, #12]
80102d30:	f7ff ff2a 	bl	80102b88 <SD_WaitReadWriteComplete>
80102d34:	6178      	str	r0, [r7, #20]
80102d36:	697a      	ldr	r2, [r7, #20]
80102d38:	2300      	movs	r3, #0
80102d3a:	f2cc 0320 	movt	r3, #49184	; 0xc020
80102d3e:	4013      	ands	r3, r2
80102d40:	2b00      	cmp	r3, #0
80102d42:	d00c      	beq.n	80102d5e <sd_read_blocks+0x134>
80102d44:	f04f 33ff 	mov.w	r3, #4294967295	; 0xffffffff
80102d48:	617b      	str	r3, [r7, #20]
80102d4a:	f244 71f0 	movw	r1, #18416	; 0x47f0
80102d4e:	f2c8 0110 	movt	r1, #32784	; 0x8010
80102d52:	f244 7000 	movw	r0, #18176	; 0x4700
80102d56:	f2c8 0010 	movt	r0, #32784	; 0x8010
80102d5a:	f7fe fbe8 	bl	8010152e <printf>
80102d5e:	697b      	ldr	r3, [r7, #20]
80102d60:	4618      	mov	r0, r3
80102d62:	3718      	adds	r7, #24
80102d64:	46bd      	mov	sp, r7
80102d66:	bd80      	pop	{r7, pc}

80102d68 <sd_write_blocks>:
80102d68:	b580      	push	{r7, lr}
80102d6a:	b086      	sub	sp, #24
80102d6c:	af00      	add	r7, sp, #0
80102d6e:	60f8      	str	r0, [r7, #12]
80102d70:	60b9      	str	r1, [r7, #8]
80102d72:	607a      	str	r2, [r7, #4]
80102d74:	603b      	str	r3, [r7, #0]
80102d76:	2300      	movs	r3, #0
80102d78:	617b      	str	r3, [r7, #20]
80102d7a:	bf00      	nop
80102d7c:	68fb      	ldr	r3, [r7, #12]
80102d7e:	6a5b      	ldr	r3, [r3, #36]	; 0x24
80102d80:	f003 0301 	and.w	r3, r3, #1
80102d84:	2b00      	cmp	r3, #0
80102d86:	d1f9      	bne.n	80102d7c <sd_write_blocks+0x14>
80102d88:	bf00      	nop
80102d8a:	68fb      	ldr	r3, [r7, #12]
80102d8c:	6a5b      	ldr	r3, [r3, #36]	; 0x24
80102d8e:	f003 0302 	and.w	r3, r3, #2
80102d92:	2b00      	cmp	r3, #0
80102d94:	d1f9      	bne.n	80102d8a <sd_write_blocks+0x22>
80102d96:	683b      	ldr	r3, [r7, #0]
80102d98:	025b      	lsls	r3, r3, #9
80102d9a:	4619      	mov	r1, r3
80102d9c:	68b8      	ldr	r0, [r7, #8]
80102d9e:	f7fe fe41 	bl	80101a24 <USDHC_CreateDescTable>
80102da2:	68fb      	ldr	r3, [r7, #12]
80102da4:	2200      	movs	r2, #0
80102da6:	601a      	str	r2, [r3, #0]
80102da8:	f248 33f8 	movw	r3, #33784	; 0x83f8
80102dac:	f2c8 0310 	movt	r3, #32784	; 0x8010
80102db0:	68fa      	ldr	r2, [r7, #12]
80102db2:	6593      	str	r3, [r2, #88]	; 0x58
80102db4:	683b      	ldr	r3, [r7, #0]
80102db6:	041b      	lsls	r3, r3, #16
80102db8:	f443 7200 	orr.w	r2, r3, #512	; 0x200
80102dbc:	68fb      	ldr	r3, [r7, #12]
80102dbe:	605a      	str	r2, [r3, #4]
80102dc0:	68fb      	ldr	r3, [r7, #12]
80102dc2:	f8d3 30c0 	ldr.w	r3, [r3, #192]	; 0xc0
80102dc6:	f023 0201 	bic.w	r2, r3, #1
80102dca:	68fb      	ldr	r3, [r7, #12]
80102dcc:	f8c3 20c0 	str.w	r2, [r3, #192]	; 0xc0
80102dd0:	68fb      	ldr	r3, [r7, #12]
80102dd2:	6a9b      	ldr	r3, [r3, #40]	; 0x28
80102dd4:	f023 5360 	bic.w	r3, r3, #939524096	; 0x38000000
80102dd8:	f423 7340 	bic.w	r3, r3, #768	; 0x300
80102ddc:	68fa      	ldr	r2, [r7, #12]
80102dde:	6293      	str	r3, [r2, #40]	; 0x28
80102de0:	68fb      	ldr	r3, [r7, #12]
80102de2:	6a9b      	ldr	r3, [r3, #40]	; 0x28
80102de4:	f043 6300 	orr.w	r3, r3, #134217728	; 0x8000000
80102de8:	f443 7300 	orr.w	r3, r3, #512	; 0x200
80102dec:	68fa      	ldr	r2, [r7, #12]
80102dee:	6293      	str	r3, [r2, #40]	; 0x28
80102df0:	683b      	ldr	r3, [r7, #0]
80102df2:	2b01      	cmp	r3, #1
80102df4:	d114      	bne.n	80102e20 <sd_write_blocks+0xb8>
80102df6:	68fb      	ldr	r3, [r7, #12]
80102df8:	6c9b      	ldr	r3, [r3, #72]	; 0x48
80102dfa:	f023 0237 	bic.w	r2, r3, #55	; 0x37
80102dfe:	68fb      	ldr	r3, [r7, #12]
80102e00:	649a      	str	r2, [r3, #72]	; 0x48
80102e02:	68fb      	ldr	r3, [r7, #12]
80102e04:	6c9b      	ldr	r3, [r3, #72]	; 0x48
80102e06:	f043 0201 	orr.w	r2, r3, #1
80102e0a:	68fb      	ldr	r3, [r7, #12]
80102e0c:	649a      	str	r2, [r3, #72]	; 0x48
80102e0e:	68fb      	ldr	r3, [r7, #12]
80102e10:	687a      	ldr	r2, [r7, #4]
80102e12:	609a      	str	r2, [r3, #8]
80102e14:	68fa      	ldr	r2, [r7, #12]
80102e16:	2300      	movs	r3, #0
80102e18:	f6c1 033a 	movt	r3, #6202	; 0x183a
80102e1c:	60d3      	str	r3, [r2, #12]
80102e1e:	e013      	b.n	80102e48 <sd_write_blocks+0xe0>
80102e20:	68fb      	ldr	r3, [r7, #12]
80102e22:	6c9b      	ldr	r3, [r3, #72]	; 0x48
80102e24:	f023 0237 	bic.w	r2, r3, #55	; 0x37
80102e28:	68fb      	ldr	r3, [r7, #12]
80102e2a:	649a      	str	r2, [r3, #72]	; 0x48
80102e2c:	68fb      	ldr	r3, [r7, #12]
80102e2e:	6c9b      	ldr	r3, [r3, #72]	; 0x48
80102e30:	f043 0227 	orr.w	r2, r3, #39	; 0x27
80102e34:	68fb      	ldr	r3, [r7, #12]
80102e36:	649a      	str	r2, [r3, #72]	; 0x48
80102e38:	68fb      	ldr	r3, [r7, #12]
80102e3a:	687a      	ldr	r2, [r7, #4]
80102e3c:	609a      	str	r2, [r3, #8]
80102e3e:	68fa      	ldr	r2, [r7, #12]
80102e40:	2300      	movs	r3, #0
80102e42:	f6c1 133a 	movt	r3, #6458	; 0x193a
80102e46:	60d3      	str	r3, [r2, #12]
80102e48:	68f8      	ldr	r0, [r7, #12]
80102e4a:	f7fe fe71 	bl	80101b30 <USDHC_WaitCommandDone>
80102e4e:	6178      	str	r0, [r7, #20]
80102e50:	697b      	ldr	r3, [r7, #20]
80102e52:	2b00      	cmp	r3, #0
80102e54:	da01      	bge.n	80102e5a <sd_write_blocks+0xf2>
80102e56:	697b      	ldr	r3, [r7, #20]
80102e58:	e01f      	b.n	80102e9a <sd_write_blocks+0x132>
80102e5a:	68f8      	ldr	r0, [r7, #12]
80102e5c:	f7fe fe9c 	bl	80101b98 <USDHC_WaitDataDone>
80102e60:	6178      	str	r0, [r7, #20]
80102e62:	697b      	ldr	r3, [r7, #20]
80102e64:	2b00      	cmp	r3, #0
80102e66:	da01      	bge.n	80102e6c <sd_write_blocks+0x104>
80102e68:	697b      	ldr	r3, [r7, #20]
80102e6a:	e016      	b.n	80102e9a <sd_write_blocks+0x132>
80102e6c:	68f8      	ldr	r0, [r7, #12]
80102e6e:	f7ff fe8b 	bl	80102b88 <SD_WaitReadWriteComplete>
80102e72:	6178      	str	r0, [r7, #20]
80102e74:	697b      	ldr	r3, [r7, #20]
80102e76:	f003 4364 	and.w	r3, r3, #3825205248	; 0xe4000000
80102e7a:	2b00      	cmp	r3, #0
80102e7c:	d00c      	beq.n	80102e98 <sd_write_blocks+0x130>
80102e7e:	f04f 33ff 	mov.w	r3, #4294967295	; 0xffffffff
80102e82:	617b      	str	r3, [r7, #20]
80102e84:	f644 0100 	movw	r1, #18432	; 0x4800
80102e88:	f2c8 0110 	movt	r1, #32784	; 0x8010
80102e8c:	f244 7010 	movw	r0, #18192	; 0x4710
80102e90:	f2c8 0010 	movt	r0, #32784	; 0x8010
80102e94:	f7fe fb4b 	bl	8010152e <printf>
80102e98:	697b      	ldr	r3, [r7, #20]
80102e9a:	4618      	mov	r0, r3
80102e9c:	3718      	adds	r7, #24
80102e9e:	46bd      	mov	sp, r7
80102ea0:	bd80      	pop	{r7, pc}

80102ea2 <MMC_DecodeCsd>:
80102ea2:	b480      	push	{r7}
80102ea4:	b085      	sub	sp, #20
80102ea6:	af00      	add	r7, sp, #0
80102ea8:	6078      	str	r0, [r7, #4]
80102eaa:	6039      	str	r1, [r7, #0]
80102eac:	687b      	ldr	r3, [r7, #4]
80102eae:	f503 7313 	add.w	r3, r3, #588	; 0x24c
80102eb2:	60fb      	str	r3, [r7, #12]
80102eb4:	683b      	ldr	r3, [r7, #0]
80102eb6:	330c      	adds	r3, #12
80102eb8:	681b      	ldr	r3, [r3, #0]
80102eba:	0f9b      	lsrs	r3, r3, #30
80102ebc:	b2da      	uxtb	r2, r3
80102ebe:	68fb      	ldr	r3, [r7, #12]
80102ec0:	701a      	strb	r2, [r3, #0]
80102ec2:	683b      	ldr	r3, [r7, #0]
80102ec4:	330c      	adds	r3, #12
80102ec6:	681b      	ldr	r3, [r3, #0]
80102ec8:	0e9b      	lsrs	r3, r3, #26
80102eca:	b2db      	uxtb	r3, r3
80102ecc:	f003 030f 	and.w	r3, r3, #15
80102ed0:	b2da      	uxtb	r2, r3
80102ed2:	68fb      	ldr	r3, [r7, #12]
80102ed4:	705a      	strb	r2, [r3, #1]
80102ed6:	683b      	ldr	r3, [r7, #0]
80102ed8:	330c      	adds	r3, #12
80102eda:	681b      	ldr	r3, [r3, #0]
80102edc:	0c1b      	lsrs	r3, r3, #16
80102ede:	b2da      	uxtb	r2, r3
80102ee0:	68fb      	ldr	r3, [r7, #12]
80102ee2:	709a      	strb	r2, [r3, #2]
80102ee4:	683b      	ldr	r3, [r7, #0]
80102ee6:	330c      	adds	r3, #12
80102ee8:	681b      	ldr	r3, [r3, #0]
80102eea:	0a1b      	lsrs	r3, r3, #8
80102eec:	b2da      	uxtb	r2, r3
80102eee:	68fb      	ldr	r3, [r7, #12]
80102ef0:	70da      	strb	r2, [r3, #3]
80102ef2:	683b      	ldr	r3, [r7, #0]
80102ef4:	330c      	adds	r3, #12
80102ef6:	681b      	ldr	r3, [r3, #0]
80102ef8:	b2da      	uxtb	r2, r3
80102efa:	68fb      	ldr	r3, [r7, #12]
80102efc:	711a      	strb	r2, [r3, #4]
80102efe:	683b      	ldr	r3, [r7, #0]
80102f00:	3308      	adds	r3, #8
80102f02:	681b      	ldr	r3, [r3, #0]
80102f04:	0d1b      	lsrs	r3, r3, #20
80102f06:	b29a      	uxth	r2, r3
80102f08:	68fb      	ldr	r3, [r7, #12]
80102f0a:	80da      	strh	r2, [r3, #6]
80102f0c:	683b      	ldr	r3, [r7, #0]
80102f0e:	3308      	adds	r3, #8
80102f10:	681b      	ldr	r3, [r3, #0]
80102f12:	0c1b      	lsrs	r3, r3, #16
80102f14:	b2db      	uxtb	r3, r3
80102f16:	f003 030f 	and.w	r3, r3, #15
80102f1a:	b2da      	uxtb	r2, r3
80102f1c:	68fb      	ldr	r3, [r7, #12]
80102f1e:	721a      	strb	r2, [r3, #8]
80102f20:	683b      	ldr	r3, [r7, #0]
80102f22:	3308      	adds	r3, #8
80102f24:	681b      	ldr	r3, [r3, #0]
80102f26:	f403 4300 	and.w	r3, r3, #32768	; 0x8000
80102f2a:	2b00      	cmp	r3, #0
80102f2c:	d006      	beq.n	80102f3c <MMC_DecodeCsd+0x9a>
80102f2e:	68fb      	ldr	r3, [r7, #12]
80102f30:	895b      	ldrh	r3, [r3, #10]
80102f32:	f043 0301 	orr.w	r3, r3, #1
80102f36:	b29a      	uxth	r2, r3
80102f38:	68fb      	ldr	r3, [r7, #12]
80102f3a:	815a      	strh	r2, [r3, #10]
80102f3c:	683b      	ldr	r3, [r7, #0]
80102f3e:	3308      	adds	r3, #8
80102f40:	681b      	ldr	r3, [r3, #0]
80102f42:	f403 4380 	and.w	r3, r3, #16384	; 0x4000
80102f46:	2b00      	cmp	r3, #0
80102f48:	d006      	beq.n	80102f58 <MMC_DecodeCsd+0xb6>
80102f4a:	68fb      	ldr	r3, [r7, #12]
80102f4c:	895b      	ldrh	r3, [r3, #10]
80102f4e:	f043 0302 	orr.w	r3, r3, #2
80102f52:	b29a      	uxth	r2, r3
80102f54:	68fb      	ldr	r3, [r7, #12]
80102f56:	815a      	strh	r2, [r3, #10]
80102f58:	683b      	ldr	r3, [r7, #0]
80102f5a:	3308      	adds	r3, #8
80102f5c:	681b      	ldr	r3, [r3, #0]
80102f5e:	f403 5300 	and.w	r3, r3, #8192	; 0x2000
80102f62:	2b00      	cmp	r3, #0
80102f64:	d006      	beq.n	80102f74 <MMC_DecodeCsd+0xd2>
80102f66:	68fb      	ldr	r3, [r7, #12]
80102f68:	895b      	ldrh	r3, [r3, #10]
80102f6a:	f043 0304 	orr.w	r3, r3, #4
80102f6e:	b29a      	uxth	r2, r3
80102f70:	68fb      	ldr	r3, [r7, #12]
80102f72:	815a      	strh	r2, [r3, #10]
80102f74:	683b      	ldr	r3, [r7, #0]
80102f76:	3308      	adds	r3, #8
80102f78:	681b      	ldr	r3, [r3, #0]
80102f7a:	f403 5380 	and.w	r3, r3, #4096	; 0x1000
80102f7e:	2b00      	cmp	r3, #0
80102f80:	d006      	beq.n	80102f90 <MMC_DecodeCsd+0xee>
80102f82:	68fb      	ldr	r3, [r7, #12]
80102f84:	895b      	ldrh	r3, [r3, #10]
80102f86:	f043 0308 	orr.w	r3, r3, #8
80102f8a:	b29a      	uxth	r2, r3
80102f8c:	68fb      	ldr	r3, [r7, #12]
80102f8e:	815a      	strh	r2, [r3, #10]
80102f90:	683b      	ldr	r3, [r7, #0]
80102f92:	3308      	adds	r3, #8
80102f94:	681b      	ldr	r3, [r3, #0]
80102f96:	b29b      	uxth	r3, r3
80102f98:	009b      	lsls	r3, r3, #2
80102f9a:	b29a      	uxth	r2, r3
80102f9c:	f640 73fc 	movw	r3, #4092	; 0xffc
80102fa0:	4013      	ands	r3, r2
80102fa2:	b29a      	uxth	r2, r3
80102fa4:	683b      	ldr	r3, [r7, #0]
80102fa6:	3304      	adds	r3, #4
80102fa8:	681b      	ldr	r3, [r3, #0]
80102faa:	0f9b      	lsrs	r3, r3, #30
80102fac:	b29b      	uxth	r3, r3
80102fae:	4413      	add	r3, r2
80102fb0:	b29a      	uxth	r2, r3
80102fb2:	68fb      	ldr	r3, [r7, #12]
80102fb4:	819a      	strh	r2, [r3, #12]
80102fb6:	683b      	ldr	r3, [r7, #0]
80102fb8:	3304      	adds	r3, #4
80102fba:	681b      	ldr	r3, [r3, #0]
80102fbc:	0edb      	lsrs	r3, r3, #27
80102fbe:	b2db      	uxtb	r3, r3
80102fc0:	f003 0307 	and.w	r3, r3, #7
80102fc4:	b2da      	uxtb	r2, r3
80102fc6:	68fb      	ldr	r3, [r7, #12]
80102fc8:	739a      	strb	r2, [r3, #14]
80102fca:	683b      	ldr	r3, [r7, #0]
80102fcc:	3304      	adds	r3, #4
80102fce:	681b      	ldr	r3, [r3, #0]
80102fd0:	0e1b      	lsrs	r3, r3, #24
80102fd2:	b2db      	uxtb	r3, r3
80102fd4:	f003 0307 	and.w	r3, r3, #7
80102fd8:	b2da      	uxtb	r2, r3
80102fda:	68fb      	ldr	r3, [r7, #12]
80102fdc:	73da      	strb	r2, [r3, #15]
80102fde:	683b      	ldr	r3, [r7, #0]
80102fe0:	3304      	adds	r3, #4
80102fe2:	681b      	ldr	r3, [r3, #0]
80102fe4:	0d5b      	lsrs	r3, r3, #21
80102fe6:	b2db      	uxtb	r3, r3
80102fe8:	f003 0307 	and.w	r3, r3, #7
80102fec:	b2da      	uxtb	r2, r3
80102fee:	68fb      	ldr	r3, [r7, #12]
80102ff0:	741a      	strb	r2, [r3, #16]
80102ff2:	683b      	ldr	r3, [r7, #0]
80102ff4:	3304      	adds	r3, #4
80102ff6:	681b      	ldr	r3, [r3, #0]
80102ff8:	0c9b      	lsrs	r3, r3, #18
80102ffa:	b2db      	uxtb	r3, r3
80102ffc:	f003 0307 	and.w	r3, r3, #7
80103000:	b2da      	uxtb	r2, r3
80103002:	68fb      	ldr	r3, [r7, #12]
80103004:	745a      	strb	r2, [r3, #17]
80103006:	683b      	ldr	r3, [r7, #0]
80103008:	3304      	adds	r3, #4
8010300a:	681b      	ldr	r3, [r3, #0]
8010300c:	0bdb      	lsrs	r3, r3, #15
8010300e:	b2db      	uxtb	r3, r3
80103010:	f003 0307 	and.w	r3, r3, #7
80103014:	b2da      	uxtb	r2, r3
80103016:	68fb      	ldr	r3, [r7, #12]
80103018:	749a      	strb	r2, [r3, #18]
8010301a:	683b      	ldr	r3, [r7, #0]
8010301c:	3304      	adds	r3, #4
8010301e:	681b      	ldr	r3, [r3, #0]
80103020:	0a9b      	lsrs	r3, r3, #10
80103022:	b2db      	uxtb	r3, r3
80103024:	f003 031f 	and.w	r3, r3, #31
80103028:	b2da      	uxtb	r2, r3
8010302a:	68fb      	ldr	r3, [r7, #12]
8010302c:	74da      	strb	r2, [r3, #19]
8010302e:	683b      	ldr	r3, [r7, #0]
80103030:	3304      	adds	r3, #4
80103032:	681b      	ldr	r3, [r3, #0]
80103034:	095b      	lsrs	r3, r3, #5
80103036:	b2db      	uxtb	r3, r3
80103038:	f003 031f 	and.w	r3, r3, #31
8010303c:	b2da      	uxtb	r2, r3
8010303e:	68fb      	ldr	r3, [r7, #12]
80103040:	751a      	strb	r2, [r3, #20]
80103042:	683b      	ldr	r3, [r7, #0]
80103044:	3304      	adds	r3, #4
80103046:	681b      	ldr	r3, [r3, #0]
80103048:	b2db      	uxtb	r3, r3
8010304a:	f003 031f 	and.w	r3, r3, #31
8010304e:	b2da      	uxtb	r2, r3
80103050:	68fb      	ldr	r3, [r7, #12]
80103052:	755a      	strb	r2, [r3, #21]
80103054:	683b      	ldr	r3, [r7, #0]
80103056:	681b      	ldr	r3, [r3, #0]
80103058:	2b00      	cmp	r3, #0
8010305a:	da06      	bge.n	8010306a <MMC_DecodeCsd+0x1c8>
8010305c:	68fb      	ldr	r3, [r7, #12]
8010305e:	895b      	ldrh	r3, [r3, #10]
80103060:	f043 0310 	orr.w	r3, r3, #16
80103064:	b29a      	uxth	r2, r3
80103066:	68fb      	ldr	r3, [r7, #12]
80103068:	815a      	strh	r2, [r3, #10]
8010306a:	683b      	ldr	r3, [r7, #0]
8010306c:	681b      	ldr	r3, [r3, #0]
8010306e:	0f5b      	lsrs	r3, r3, #29
80103070:	b2db      	uxtb	r3, r3
80103072:	f003 0303 	and.w	r3, r3, #3
80103076:	b2da      	uxtb	r2, r3
80103078:	68fb      	ldr	r3, [r7, #12]
8010307a:	759a      	strb	r2, [r3, #22]
8010307c:	683b      	ldr	r3, [r7, #0]
8010307e:	681b      	ldr	r3, [r3, #0]
80103080:	0e9b      	lsrs	r3, r3, #26
80103082:	b2db      	uxtb	r3, r3
80103084:	f003 0307 	and.w	r3, r3, #7
80103088:	b2da      	uxtb	r2, r3
8010308a:	68fb      	ldr	r3, [r7, #12]
8010308c:	75da      	strb	r2, [r3, #23]
8010308e:	683b      	ldr	r3, [r7, #0]
80103090:	681b      	ldr	r3, [r3, #0]
80103092:	0d9b      	lsrs	r3, r3, #22
80103094:	b2db      	uxtb	r3, r3
80103096:	f003 030f 	and.w	r3, r3, #15
8010309a:	b2da      	uxtb	r2, r3
8010309c:	68fb      	ldr	r3, [r7, #12]
8010309e:	761a      	strb	r2, [r3, #24]
801030a0:	683b      	ldr	r3, [r7, #0]
801030a2:	681b      	ldr	r3, [r3, #0]
801030a4:	f403 1300 	and.w	r3, r3, #2097152	; 0x200000
801030a8:	2b00      	cmp	r3, #0
801030aa:	d006      	beq.n	801030ba <MMC_DecodeCsd+0x218>
801030ac:	68fb      	ldr	r3, [r7, #12]
801030ae:	895b      	ldrh	r3, [r3, #10]
801030b0:	f043 0320 	orr.w	r3, r3, #32
801030b4:	b29a      	uxth	r2, r3
801030b6:	68fb      	ldr	r3, [r7, #12]
801030b8:	815a      	strh	r2, [r3, #10]
801030ba:	683b      	ldr	r3, [r7, #0]
801030bc:	681b      	ldr	r3, [r3, #0]
801030be:	f403 3380 	and.w	r3, r3, #65536	; 0x10000
801030c2:	2b00      	cmp	r3, #0
801030c4:	d006      	beq.n	801030d4 <MMC_DecodeCsd+0x232>
801030c6:	68fb      	ldr	r3, [r7, #12]
801030c8:	895b      	ldrh	r3, [r3, #10]
801030ca:	f043 0340 	orr.w	r3, r3, #64	; 0x40
801030ce:	b29a      	uxth	r2, r3
801030d0:	68fb      	ldr	r3, [r7, #12]
801030d2:	815a      	strh	r2, [r3, #10]
801030d4:	683b      	ldr	r3, [r7, #0]
801030d6:	681b      	ldr	r3, [r3, #0]
801030d8:	f403 4300 	and.w	r3, r3, #32768	; 0x8000
801030dc:	2b00      	cmp	r3, #0
801030de:	d006      	beq.n	801030ee <MMC_DecodeCsd+0x24c>
801030e0:	68fb      	ldr	r3, [r7, #12]
801030e2:	895b      	ldrh	r3, [r3, #10]
801030e4:	f043 0380 	orr.w	r3, r3, #128	; 0x80
801030e8:	b29a      	uxth	r2, r3
801030ea:	68fb      	ldr	r3, [r7, #12]
801030ec:	815a      	strh	r2, [r3, #10]
801030ee:	683b      	ldr	r3, [r7, #0]
801030f0:	681b      	ldr	r3, [r3, #0]
801030f2:	f403 4380 	and.w	r3, r3, #16384	; 0x4000
801030f6:	2b00      	cmp	r3, #0
801030f8:	d006      	beq.n	80103108 <MMC_DecodeCsd+0x266>
801030fa:	68fb      	ldr	r3, [r7, #12]
801030fc:	895b      	ldrh	r3, [r3, #10]
801030fe:	f443 7380 	orr.w	r3, r3, #256	; 0x100
80103102:	b29a      	uxth	r2, r3
80103104:	68fb      	ldr	r3, [r7, #12]
80103106:	815a      	strh	r2, [r3, #10]
80103108:	683b      	ldr	r3, [r7, #0]
8010310a:	681b      	ldr	r3, [r3, #0]
8010310c:	f403 5300 	and.w	r3, r3, #8192	; 0x2000
80103110:	2b00      	cmp	r3, #0
80103112:	d006      	beq.n	80103122 <MMC_DecodeCsd+0x280>
80103114:	68fb      	ldr	r3, [r7, #12]
80103116:	895b      	ldrh	r3, [r3, #10]
80103118:	f443 7300 	orr.w	r3, r3, #512	; 0x200
8010311c:	b29a      	uxth	r2, r3
8010311e:	68fb      	ldr	r3, [r7, #12]
80103120:	815a      	strh	r2, [r3, #10]
80103122:	683b      	ldr	r3, [r7, #0]
80103124:	681b      	ldr	r3, [r3, #0]
80103126:	f403 5380 	and.w	r3, r3, #4096	; 0x1000
8010312a:	2b00      	cmp	r3, #0
8010312c:	d006      	beq.n	8010313c <MMC_DecodeCsd+0x29a>
8010312e:	68fb      	ldr	r3, [r7, #12]
80103130:	895b      	ldrh	r3, [r3, #10]
80103132:	f443 6380 	orr.w	r3, r3, #1024	; 0x400
80103136:	b29a      	uxth	r2, r3
80103138:	68fb      	ldr	r3, [r7, #12]
8010313a:	815a      	strh	r2, [r3, #10]
8010313c:	683b      	ldr	r3, [r7, #0]
8010313e:	681b      	ldr	r3, [r3, #0]
80103140:	0a9b      	lsrs	r3, r3, #10
80103142:	b2db      	uxtb	r3, r3
80103144:	f003 0303 	and.w	r3, r3, #3
80103148:	b2da      	uxtb	r2, r3
8010314a:	68fb      	ldr	r3, [r7, #12]
8010314c:	765a      	strb	r2, [r3, #25]
8010314e:	683b      	ldr	r3, [r7, #0]
80103150:	681b      	ldr	r3, [r3, #0]
80103152:	0a1b      	lsrs	r3, r3, #8
80103154:	b2db      	uxtb	r3, r3
80103156:	f003 0303 	and.w	r3, r3, #3
8010315a:	b2da      	uxtb	r2, r3
8010315c:	68fb      	ldr	r3, [r7, #12]
8010315e:	769a      	strb	r2, [r3, #26]
80103160:	687b      	ldr	r3, [r7, #4]
80103162:	f8b3 3258 	ldrh.w	r3, [r3, #600]	; 0x258
80103166:	f640 72ff 	movw	r2, #4095	; 0xfff
8010316a:	4293      	cmp	r3, r2
8010316c:	d012      	beq.n	80103194 <MMC_DecodeCsd+0x2f2>
8010316e:	687b      	ldr	r3, [r7, #4]
80103170:	f893 325e 	ldrb.w	r3, [r3, #606]	; 0x25e
80103174:	3301      	adds	r3, #1
80103176:	2202      	movs	r2, #2
80103178:	fa02 f303 	lsl.w	r3, r2, r3
8010317c:	60bb      	str	r3, [r7, #8]
8010317e:	687b      	ldr	r3, [r7, #4]
80103180:	f8b3 3258 	ldrh.w	r3, [r3, #600]	; 0x258
80103184:	3301      	adds	r3, #1
80103186:	68ba      	ldr	r2, [r7, #8]
80103188:	fb02 f303 	mul.w	r3, r2, r3
8010318c:	0a5a      	lsrs	r2, r3, #9
8010318e:	687b      	ldr	r3, [r7, #4]
80103190:	f8c3 2338 	str.w	r2, [r3, #824]	; 0x338
80103194:	687b      	ldr	r3, [r7, #4]
80103196:	f44f 7200 	mov.w	r2, #512	; 0x200
8010319a:	f8c3 2334 	str.w	r2, [r3, #820]	; 0x334
8010319e:	bf00      	nop
801031a0:	3714      	adds	r7, #20
801031a2:	46bd      	mov	sp, r7
801031a4:	f85d 7b04 	ldr.w	r7, [sp], #4
801031a8:	4770      	bx	lr

801031aa <MMC_DecodeCid>:
801031aa:	b480      	push	{r7}
801031ac:	b085      	sub	sp, #20
801031ae:	af00      	add	r7, sp, #0
801031b0:	6078      	str	r0, [r7, #4]
801031b2:	6039      	str	r1, [r7, #0]
801031b4:	687b      	ldr	r3, [r7, #4]
801031b6:	f503 730e 	add.w	r3, r3, #568	; 0x238
801031ba:	60fb      	str	r3, [r7, #12]
801031bc:	683b      	ldr	r3, [r7, #0]
801031be:	330c      	adds	r3, #12
801031c0:	681b      	ldr	r3, [r3, #0]
801031c2:	0e1b      	lsrs	r3, r3, #24
801031c4:	b2da      	uxtb	r2, r3
801031c6:	68fb      	ldr	r3, [r7, #12]
801031c8:	701a      	strb	r2, [r3, #0]
801031ca:	683b      	ldr	r3, [r7, #0]
801031cc:	330c      	adds	r3, #12
801031ce:	681b      	ldr	r3, [r3, #0]
801031d0:	0a1b      	lsrs	r3, r3, #8
801031d2:	b29a      	uxth	r2, r3
801031d4:	68fb      	ldr	r3, [r7, #12]
801031d6:	805a      	strh	r2, [r3, #2]
801031d8:	683b      	ldr	r3, [r7, #0]
801031da:	330c      	adds	r3, #12
801031dc:	681b      	ldr	r3, [r3, #0]
801031de:	b2da      	uxtb	r2, r3
801031e0:	68fb      	ldr	r3, [r7, #12]
801031e2:	711a      	strb	r2, [r3, #4]
801031e4:	683b      	ldr	r3, [r7, #0]
801031e6:	3308      	adds	r3, #8
801031e8:	681b      	ldr	r3, [r3, #0]
801031ea:	0e1b      	lsrs	r3, r3, #24
801031ec:	b2da      	uxtb	r2, r3
801031ee:	68fb      	ldr	r3, [r7, #12]
801031f0:	715a      	strb	r2, [r3, #5]
801031f2:	683b      	ldr	r3, [r7, #0]
801031f4:	3308      	adds	r3, #8
801031f6:	681b      	ldr	r3, [r3, #0]
801031f8:	0c1b      	lsrs	r3, r3, #16
801031fa:	b2da      	uxtb	r2, r3
801031fc:	68fb      	ldr	r3, [r7, #12]
801031fe:	719a      	strb	r2, [r3, #6]
80103200:	683b      	ldr	r3, [r7, #0]
80103202:	3308      	adds	r3, #8
80103204:	681b      	ldr	r3, [r3, #0]
80103206:	0a1b      	lsrs	r3, r3, #8
80103208:	b2da      	uxtb	r2, r3
8010320a:	68fb      	ldr	r3, [r7, #12]
8010320c:	71da      	strb	r2, [r3, #7]
8010320e:	683b      	ldr	r3, [r7, #0]
80103210:	3308      	adds	r3, #8
80103212:	681b      	ldr	r3, [r3, #0]
80103214:	b2da      	uxtb	r2, r3
80103216:	68fb      	ldr	r3, [r7, #12]
80103218:	721a      	strb	r2, [r3, #8]
8010321a:	683b      	ldr	r3, [r7, #0]
8010321c:	3304      	adds	r3, #4
8010321e:	681b      	ldr	r3, [r3, #0]
80103220:	0e1b      	lsrs	r3, r3, #24
80103222:	b2da      	uxtb	r2, r3
80103224:	68fb      	ldr	r3, [r7, #12]
80103226:	729a      	strb	r2, [r3, #10]
80103228:	683b      	ldr	r3, [r7, #0]
8010322a:	3304      	adds	r3, #4
8010322c:	681b      	ldr	r3, [r3, #0]
8010322e:	021a      	lsls	r2, r3, #8
80103230:	68fb      	ldr	r3, [r7, #12]
80103232:	60da      	str	r2, [r3, #12]
80103234:	68fb      	ldr	r3, [r7, #12]
80103236:	68da      	ldr	r2, [r3, #12]
80103238:	683b      	ldr	r3, [r7, #0]
8010323a:	681b      	ldr	r3, [r3, #0]
8010323c:	0e1b      	lsrs	r3, r3, #24
8010323e:	431a      	orrs	r2, r3
80103240:	68fb      	ldr	r3, [r7, #12]
80103242:	60da      	str	r2, [r3, #12]
80103244:	683b      	ldr	r3, [r7, #0]
