
timer.elf:     file format elf32-littlearm


Disassembly of section .text:

80100000 <_start>:
80100000:	e59ff100 	ldr	pc, [pc, #256]	; 80100108 <clean+0x14>
80100004:	e59ff100 	ldr	pc, [pc, #256]	; 8010010c <clean+0x18>
80100008:	e59ff100 	ldr	pc, [pc, #256]	; 80100110 <clean+0x1c>
8010000c:	ea000034 	b	801000e4 <halt>
80100010:	ea000033 	b	801000e4 <halt>
80100014:	00000000 	andeq	r0, r0, r0
80100018:	e59ff0f4 	ldr	pc, [pc, #244]	; 80100114 <clean+0x20>
8010001c:	ea000030 	b	801000e4 <halt>

80100020 <Undefined_Handler>:
80100020:	e92d5fff 	push	{r0, r1, r2, r3, r4, r5, r6, r7, r8, r9, sl, fp, ip, lr}
80100024:	e10f0000 	mrs	r0, CPSR
80100028:	e59f10e8 	ldr	r1, [pc, #232]	; 80100118 <clean+0x24>
8010002c:	fa000167 	blx	801005d0 <printException>
80100030:	e8fd9fff 	ldm	sp!, {r0, r1, r2, r3, r4, r5, r6, r7, r8, r9, sl, fp, ip, pc}^

80100034 <und_string>:
80100034:	65646e75 	strbvs	r6, [r4, #-3701]!	; 0xfffff18b
80100038:	656e6966 	strbvs	r6, [lr, #-2406]!	; 0xfffff69a
8010003c:	6e692064 	cdpvs	0, 6, cr2, cr9, cr4, {3}
80100040:	75727473 	ldrbvc	r7, [r2, #-1139]!	; 0xfffffb8d
80100044:	6f697463 	svcvs	0x00697463
80100048:	7865206e 	stmdavc	r5!, {r1, r2, r3, r5, r6, sp}^
8010004c:	74706563 	ldrbtvc	r6, [r0], #-1379	; 0xfffffa9d
80100050:	006e6f69 	rsbeq	r6, lr, r9, ror #30

80100054 <SVC_Handler>:
80100054:	e92d5fff 	push	{r0, r1, r2, r3, r4, r5, r6, r7, r8, r9, sl, fp, ip, lr}
80100058:	e1a0400e 	mov	r4, lr
8010005c:	e10f0000 	mrs	r0, CPSR
80100060:	e59f10b4 	ldr	r1, [pc, #180]	; 8010011c <clean+0x28>
80100064:	fa000159 	blx	801005d0 <printException>
80100068:	e2440004 	sub	r0, r4, #4
8010006c:	fb000162 	blx	801005fe <printSWIVal>
80100070:	e8fd9fff 	ldm	sp!, {r0, r1, r2, r3, r4, r5, r6, r7, r8, r9, sl, fp, ip, pc}^

80100074 <swi_string>:
80100074:	20697773 	rsbcs	r7, r9, r3, ror r7
80100078:	65637865 	strbvs	r7, [r3, #-2149]!	; 0xfffff79b
8010007c:	6f697470 	svcvs	0x00697470
80100080:	0000006e 	andeq	r0, r0, lr, rrx

80100084 <IRQ_Handler>:
80100084:	e24ee004 	sub	lr, lr, #4
80100088:	e92d5fff 	push	{r0, r1, r2, r3, r4, r5, r6, r7, r8, r9, sl, fp, ip, lr}
8010008c:	fa000459 	blx	801011f8 <handle_irq_c>
80100090:	e8fd9fff 	ldm	sp!, {r0, r1, r2, r3, r4, r5, r6, r7, r8, r9, sl, fp, ip, pc}^

80100094 <Reset_Handler>:
80100094:	ee110f10 	mrc	15, 0, r0, cr1, cr0, {0}
80100098:	e3c00a02 	bic	r0, r0, #8192	; 0x2000
8010009c:	e3c00a01 	bic	r0, r0, #4096	; 0x1000
801000a0:	e3c00004 	bic	r0, r0, #4
801000a4:	e3c00004 	bic	r0, r0, #4
801000a8:	e3c00b02 	bic	r0, r0, #2048	; 0x800
801000ac:	e3c00001 	bic	r0, r0, #1
801000b0:	ee010f10 	mcr	15, 0, r0, cr1, cr0, {0}
801000b4:	f102001b 	cps	#27
801000b8:	e59fd060 	ldr	sp, [pc, #96]	; 80100120 <clean+0x2c>
801000bc:	f1020012 	cps	#18
801000c0:	e59fd05c 	ldr	sp, [pc, #92]	; 80100124 <clean+0x30>
801000c4:	f1020013 	cps	#19
801000c8:	e59fd058 	ldr	sp, [pc, #88]	; 80100128 <clean+0x34>
801000cc:	e59f0058 	ldr	r0, [pc, #88]	; 8010012c <clean+0x38>
801000d0:	ee0c0f10 	mcr	15, 0, r0, cr12, cr0, {0}
801000d4:	eb000003 	bl	801000e8 <clean_bss>
801000d8:	fa000172 	blx	801006a8 <system_init>
801000dc:	f1080080 	cpsie	i
801000e0:	fb00017d 	blx	801006de <main>

801000e4 <halt>:
801000e4:	eafffffe 	b	801000e4 <halt>

801000e8 <clean_bss>:
801000e8:	e59f1040 	ldr	r1, [pc, #64]	; 80100130 <clean+0x3c>
801000ec:	e59f2040 	ldr	r2, [pc, #64]	; 80100134 <clean+0x40>
801000f0:	e3a03000 	mov	r3, #0

801000f4 <clean>:
801000f4:	e1510002 	cmp	r1, r2
801000f8:	b5813000 	strlt	r3, [r1]
801000fc:	e2811004 	add	r1, r1, #4
80100100:	bafffffb 	blt	801000f4 <clean>
80100104:	e1a0f00e 	mov	pc, lr
80100108:	80100094 	mulshi	r0, r4, r0
8010010c:	80100020 	andshi	r0, r0, r0, lsr #32
80100110:	80100054 	andshi	r0, r0, r4, asr r0
80100114:	80100084 	andshi	r0, r0, r4, lsl #1
80100118:	80100034 	andshi	r0, r0, r4, lsr r0
8010011c:	80100074 	andshi	r0, r0, r4, ror r0
80100120:	80300000 	eorshi	r0, r0, r0
80100124:	80400000 	subhi	r0, r0, r0
80100128:	80200000 	eorhi	r0, r0, r0
8010012c:	80100000 	andshi	r0, r0, r0
80100130:	80101c98 	mulshi	r0, r8, ip
80100134:	80102198 	mulshi	r0, r8, r1

80100138 <IOMUXC_SetPinMux>:
80100138:	b480      	push	{r7}
8010013a:	b085      	sub	sp, #20
8010013c:	af00      	add	r7, sp, #0
8010013e:	60f8      	str	r0, [r7, #12]
80100140:	60b9      	str	r1, [r7, #8]
80100142:	607a      	str	r2, [r7, #4]
80100144:	603b      	str	r3, [r7, #0]
80100146:	68fb      	ldr	r3, [r7, #12]
80100148:	68ba      	ldr	r2, [r7, #8]
8010014a:	f002 010f 	and.w	r1, r2, #15
8010014e:	69fa      	ldr	r2, [r7, #28]
80100150:	0112      	lsls	r2, r2, #4
80100152:	f002 0210 	and.w	r2, r2, #16
80100156:	430a      	orrs	r2, r1
80100158:	601a      	str	r2, [r3, #0]
8010015a:	687b      	ldr	r3, [r7, #4]
8010015c:	2b00      	cmp	r3, #0
8010015e:	d004      	beq.n	8010016a <IOMUXC_SetPinMux+0x32>
80100160:	687b      	ldr	r3, [r7, #4]
80100162:	683a      	ldr	r2, [r7, #0]
80100164:	f002 0207 	and.w	r2, r2, #7
80100168:	601a      	str	r2, [r3, #0]
8010016a:	bf00      	nop
8010016c:	3714      	adds	r7, #20
8010016e:	46bd      	mov	sp, r7
80100170:	f85d 7b04 	ldr.w	r7, [sp], #4
80100174:	4770      	bx	lr

80100176 <IOMUXC_SetPinConfig>:
80100176:	b480      	push	{r7}
80100178:	b085      	sub	sp, #20
8010017a:	af00      	add	r7, sp, #0
8010017c:	60f8      	str	r0, [r7, #12]
8010017e:	60b9      	str	r1, [r7, #8]
80100180:	607a      	str	r2, [r7, #4]
80100182:	603b      	str	r3, [r7, #0]
80100184:	69bb      	ldr	r3, [r7, #24]
80100186:	2b00      	cmp	r3, #0
80100188:	d002      	beq.n	80100190 <IOMUXC_SetPinConfig+0x1a>
8010018a:	69bb      	ldr	r3, [r7, #24]
8010018c:	69fa      	ldr	r2, [r7, #28]
8010018e:	601a      	str	r2, [r3, #0]
80100190:	bf00      	nop
80100192:	3714      	adds	r7, #20
80100194:	46bd      	mov	sp, r7
80100196:	f85d 7b04 	ldr.w	r7, [sp], #4
8010019a:	4770      	bx	lr

8010019c <init_pins>:
8010019c:	b580      	push	{r7, lr}
8010019e:	b082      	sub	sp, #8
801001a0:	af02      	add	r7, sp, #8
801001a2:	2300      	movs	r3, #0
801001a4:	9301      	str	r3, [sp, #4]
801001a6:	2358      	movs	r3, #88	; 0x58
801001a8:	f2c0 2329 	movt	r3, #553	; 0x229
801001ac:	9300      	str	r3, [sp, #0]
801001ae:	2300      	movs	r3, #0
801001b0:	2200      	movs	r2, #0
801001b2:	2105      	movs	r1, #5
801001b4:	2014      	movs	r0, #20
801001b6:	f2c0 2029 	movt	r0, #553	; 0x229
801001ba:	f7ff ffbd 	bl	80100138 <IOMUXC_SetPinMux>
801001be:	2309      	movs	r3, #9
801001c0:	f2c0 0301 	movt	r3, #1
801001c4:	9301      	str	r3, [sp, #4]
801001c6:	2358      	movs	r3, #88	; 0x58
801001c8:	f2c0 2329 	movt	r3, #553	; 0x229
801001cc:	9300      	str	r3, [sp, #0]
801001ce:	2300      	movs	r3, #0
801001d0:	2200      	movs	r2, #0
801001d2:	2105      	movs	r1, #5
801001d4:	2014      	movs	r0, #20
801001d6:	f2c0 2029 	movt	r0, #553	; 0x229
801001da:	f7ff ffcc 	bl	80100176 <IOMUXC_SetPinConfig>
801001de:	2300      	movs	r3, #0
801001e0:	9301      	str	r3, [sp, #4]
801001e2:	f44f 7345 	mov.w	r3, #788	; 0x314
801001e6:	f2c0 230e 	movt	r3, #526	; 0x20e
801001ea:	9300      	str	r3, [sp, #0]
801001ec:	2303      	movs	r3, #3
801001ee:	f240 6224 	movw	r2, #1572	; 0x624
801001f2:	f2c0 220e 	movt	r2, #526	; 0x20e
801001f6:	2100      	movs	r1, #0
801001f8:	2088      	movs	r0, #136	; 0x88
801001fa:	f2c0 200e 	movt	r0, #526	; 0x20e
801001fe:	f7ff ff9b 	bl	80100138 <IOMUXC_SetPinMux>
80100202:	f241 0390 	movw	r3, #4240	; 0x1090
80100206:	9301      	str	r3, [sp, #4]
80100208:	f44f 7345 	mov.w	r3, #788	; 0x314
8010020c:	f2c0 230e 	movt	r3, #526	; 0x20e
80100210:	9300      	str	r3, [sp, #0]
80100212:	2303      	movs	r3, #3
80100214:	f240 6224 	movw	r2, #1572	; 0x624
80100218:	f2c0 220e 	movt	r2, #526	; 0x20e
8010021c:	2100      	movs	r1, #0
8010021e:	2088      	movs	r0, #136	; 0x88
80100220:	f2c0 200e 	movt	r0, #526	; 0x20e
80100224:	f7ff ffa7 	bl	80100176 <IOMUXC_SetPinConfig>
80100228:	2300      	movs	r3, #0
8010022a:	9301      	str	r3, [sp, #4]
8010022c:	f44f 7344 	mov.w	r3, #784	; 0x310
80100230:	f2c0 230e 	movt	r3, #526	; 0x20e
80100234:	9300      	str	r3, [sp, #0]
80100236:	2300      	movs	r3, #0
80100238:	2200      	movs	r2, #0
8010023a:	2100      	movs	r1, #0
8010023c:	2084      	movs	r0, #132	; 0x84
8010023e:	f2c0 200e 	movt	r0, #526	; 0x20e
80100242:	f7ff ff79 	bl	80100138 <IOMUXC_SetPinMux>
80100246:	f241 0390 	movw	r3, #4240	; 0x1090
8010024a:	9301      	str	r3, [sp, #4]
8010024c:	f44f 7344 	mov.w	r3, #784	; 0x310
80100250:	f2c0 230e 	movt	r3, #526	; 0x20e
80100254:	9300      	str	r3, [sp, #0]
80100256:	2300      	movs	r3, #0
80100258:	2200      	movs	r2, #0
8010025a:	2100      	movs	r1, #0
8010025c:	2084      	movs	r0, #132	; 0x84
8010025e:	f2c0 200e 	movt	r0, #526	; 0x20e
80100262:	f7ff ff88 	bl	80100176 <IOMUXC_SetPinConfig>
80100266:	2300      	movs	r3, #0
80100268:	9301      	str	r3, [sp, #4]
8010026a:	2350      	movs	r3, #80	; 0x50
8010026c:	f2c0 2329 	movt	r3, #553	; 0x229
80100270:	9300      	str	r3, [sp, #0]
80100272:	2300      	movs	r3, #0
80100274:	2200      	movs	r2, #0
80100276:	2105      	movs	r1, #5
80100278:	200c      	movs	r0, #12
8010027a:	f2c0 2029 	movt	r0, #553	; 0x229
8010027e:	f7ff ff5b 	bl	80100138 <IOMUXC_SetPinMux>
80100282:	f241 03b0 	movw	r3, #4272	; 0x10b0
80100286:	f2c0 0301 	movt	r3, #1
8010028a:	9301      	str	r3, [sp, #4]
8010028c:	2350      	movs	r3, #80	; 0x50
8010028e:	f2c0 2329 	movt	r3, #553	; 0x229
80100292:	9300      	str	r3, [sp, #0]
80100294:	2300      	movs	r3, #0
80100296:	2200      	movs	r2, #0
80100298:	2105      	movs	r1, #5
8010029a:	200c      	movs	r0, #12
8010029c:	f2c0 2029 	movt	r0, #553	; 0x229
801002a0:	f7ff ff69 	bl	80100176 <IOMUXC_SetPinConfig>
801002a4:	2300      	movs	r3, #0
801002a6:	9301      	str	r3, [sp, #4]
801002a8:	f240 433c 	movw	r3, #1084	; 0x43c
801002ac:	f2c0 230e 	movt	r3, #526	; 0x20e
801002b0:	9300      	str	r3, [sp, #0]
801002b2:	2300      	movs	r3, #0
801002b4:	2200      	movs	r2, #0
801002b6:	2105      	movs	r1, #5
801002b8:	f44f 70d8 	mov.w	r0, #432	; 0x1b0
801002bc:	f2c0 200e 	movt	r0, #526	; 0x20e
801002c0:	f7ff ff3a 	bl	80100138 <IOMUXC_SetPinMux>
801002c4:	f241 03b0 	movw	r3, #4272	; 0x10b0
801002c8:	f2c0 0301 	movt	r3, #1
801002cc:	9301      	str	r3, [sp, #4]
801002ce:	f240 433c 	movw	r3, #1084	; 0x43c
801002d2:	f2c0 230e 	movt	r3, #526	; 0x20e
801002d6:	9300      	str	r3, [sp, #0]
801002d8:	2300      	movs	r3, #0
801002da:	2200      	movs	r2, #0
801002dc:	2105      	movs	r1, #5
801002de:	f44f 70d8 	mov.w	r0, #432	; 0x1b0
801002e2:	f2c0 200e 	movt	r0, #526	; 0x20e
801002e6:	f7ff ff46 	bl	80100176 <IOMUXC_SetPinConfig>
801002ea:	bf00      	nop
801002ec:	46bd      	mov	sp, r7
801002ee:	bd80      	pop	{r7, pc}

801002f0 <delay>:
801002f0:	b480      	push	{r7}
801002f2:	b083      	sub	sp, #12
801002f4:	af00      	add	r7, sp, #0
801002f6:	6078      	str	r0, [r7, #4]
801002f8:	bf00      	nop
801002fa:	687b      	ldr	r3, [r7, #4]
801002fc:	1e5a      	subs	r2, r3, #1
801002fe:	607a      	str	r2, [r7, #4]
80100300:	2b00      	cmp	r3, #0
80100302:	d1fa      	bne.n	801002fa <delay+0xa>
80100304:	bf00      	nop
80100306:	370c      	adds	r7, #12
80100308:	46bd      	mov	sp, r7
8010030a:	f85d 7b04 	ldr.w	r7, [sp], #4
8010030e:	4770      	bx	lr

80100310 <boot_clk_gate_init>:
80100310:	b480      	push	{r7}
80100312:	af00      	add	r7, sp, #0
80100314:	f44f 4380 	mov.w	r3, #16384	; 0x4000
80100318:	f2c0 230c 	movt	r3, #524	; 0x20c
8010031c:	f04f 32ff 	mov.w	r2, #4294967295	; 0xffffffff
80100320:	669a      	str	r2, [r3, #104]	; 0x68
80100322:	f44f 4380 	mov.w	r3, #16384	; 0x4000
80100326:	f2c0 230c 	movt	r3, #524	; 0x20c
8010032a:	f04f 32ff 	mov.w	r2, #4294967295	; 0xffffffff
8010032e:	66da      	str	r2, [r3, #108]	; 0x6c
80100330:	f44f 4380 	mov.w	r3, #16384	; 0x4000
80100334:	f2c0 230c 	movt	r3, #524	; 0x20c
80100338:	f04f 32ff 	mov.w	r2, #4294967295	; 0xffffffff
8010033c:	671a      	str	r2, [r3, #112]	; 0x70
8010033e:	f44f 4380 	mov.w	r3, #16384	; 0x4000
80100342:	f2c0 230c 	movt	r3, #524	; 0x20c
80100346:	f04f 32ff 	mov.w	r2, #4294967295	; 0xffffffff
8010034a:	675a      	str	r2, [r3, #116]	; 0x74
8010034c:	f44f 4380 	mov.w	r3, #16384	; 0x4000
80100350:	f2c0 230c 	movt	r3, #524	; 0x20c
80100354:	f04f 32ff 	mov.w	r2, #4294967295	; 0xffffffff
80100358:	679a      	str	r2, [r3, #120]	; 0x78
8010035a:	f44f 4380 	mov.w	r3, #16384	; 0x4000
8010035e:	f2c0 230c 	movt	r3, #524	; 0x20c
80100362:	f04f 32ff 	mov.w	r2, #4294967295	; 0xffffffff
80100366:	67da      	str	r2, [r3, #124]	; 0x7c
80100368:	f44f 4380 	mov.w	r3, #16384	; 0x4000
8010036c:	f2c0 230c 	movt	r3, #524	; 0x20c
80100370:	f04f 32ff 	mov.w	r2, #4294967295	; 0xffffffff
80100374:	f8c3 2080 	str.w	r2, [r3, #128]	; 0x80
80100378:	bf00      	nop
8010037a:	46bd      	mov	sp, r7
8010037c:	f85d 7b04 	ldr.w	r7, [sp], #4
80100380:	4770      	bx	lr

80100382 <boot_clk_init>:
80100382:	b480      	push	{r7}
80100384:	af00      	add	r7, sp, #0
80100386:	f44f 4380 	mov.w	r3, #16384	; 0x4000
8010038a:	f2c0 230c 	movt	r3, #524	; 0x20c
8010038e:	68db      	ldr	r3, [r3, #12]
80100390:	f003 0304 	and.w	r3, r3, #4
80100394:	2b00      	cmp	r3, #0
80100396:	d117      	bne.n	801003c8 <boot_clk_init+0x46>
80100398:	f44f 4380 	mov.w	r3, #16384	; 0x4000
8010039c:	f2c0 230c 	movt	r3, #524	; 0x20c
801003a0:	f44f 4280 	mov.w	r2, #16384	; 0x4000
801003a4:	f2c0 220c 	movt	r2, #524	; 0x20c
801003a8:	68d2      	ldr	r2, [r2, #12]
801003aa:	f422 7280 	bic.w	r2, r2, #256	; 0x100
801003ae:	60da      	str	r2, [r3, #12]
801003b0:	f44f 4380 	mov.w	r3, #16384	; 0x4000
801003b4:	f2c0 230c 	movt	r3, #524	; 0x20c
801003b8:	f44f 4280 	mov.w	r2, #16384	; 0x4000
801003bc:	f2c0 220c 	movt	r2, #524	; 0x20c
801003c0:	68d2      	ldr	r2, [r2, #12]
801003c2:	f042 0204 	orr.w	r2, r2, #4
801003c6:	60da      	str	r2, [r3, #12]
801003c8:	f44f 4300 	mov.w	r3, #32768	; 0x8000
801003cc:	f2c0 230c 	movt	r3, #524	; 0x20c
801003d0:	f242 0258 	movw	r2, #8280	; 0x2058
801003d4:	601a      	str	r2, [r3, #0]
801003d6:	f44f 4380 	mov.w	r3, #16384	; 0x4000
801003da:	f2c0 230c 	movt	r3, #524	; 0x20c
801003de:	f44f 4280 	mov.w	r2, #16384	; 0x4000
801003e2:	f2c0 220c 	movt	r2, #524	; 0x20c
801003e6:	68d2      	ldr	r2, [r2, #12]
801003e8:	f022 0204 	bic.w	r2, r2, #4
801003ec:	60da      	str	r2, [r3, #12]
801003ee:	f44f 4380 	mov.w	r3, #16384	; 0x4000
801003f2:	f2c0 230c 	movt	r3, #524	; 0x20c
801003f6:	2201      	movs	r2, #1
801003f8:	611a      	str	r2, [r3, #16]
801003fa:	f44f 4300 	mov.w	r3, #32768	; 0x8000
801003fe:	f2c0 230c 	movt	r3, #524	; 0x20c
80100402:	f44f 4200 	mov.w	r2, #32768	; 0x8000
80100406:	f2c0 220c 	movt	r2, #524	; 0x20c
8010040a:	f8d2 2100 	ldr.w	r2, [r2, #256]	; 0x100
8010040e:	f002 32c0 	and.w	r2, r2, #3233857728	; 0xc0c0c0c0
80100412:	f8c3 2100 	str.w	r2, [r3, #256]	; 0x100
80100416:	f44f 4200 	mov.w	r2, #32768	; 0x8000
8010041a:	f2c0 220c 	movt	r2, #524	; 0x20c
8010041e:	f44f 4300 	mov.w	r3, #32768	; 0x8000
80100422:	f2c0 230c 	movt	r3, #524	; 0x20c
80100426:	f8d3 1100 	ldr.w	r1, [r3, #256]	; 0x100
8010042a:	f241 031b 	movw	r3, #4123	; 0x101b
8010042e:	f2c3 0318 	movt	r3, #12312	; 0x3018
80100432:	430b      	orrs	r3, r1
80100434:	f8c2 3100 	str.w	r3, [r2, #256]	; 0x100
80100438:	f44f 4300 	mov.w	r3, #32768	; 0x8000
8010043c:	f2c0 230c 	movt	r3, #524	; 0x20c
80100440:	f44f 4200 	mov.w	r2, #32768	; 0x8000
80100444:	f2c0 220c 	movt	r2, #524	; 0x20c
80100448:	f8d2 20f0 	ldr.w	r2, [r2, #240]	; 0xf0
8010044c:	f002 32c0 	and.w	r2, r2, #3233857728	; 0xc0c0c0c0
80100450:	f8c3 20f0 	str.w	r2, [r3, #240]	; 0xf0
80100454:	f44f 4200 	mov.w	r2, #32768	; 0x8000
80100458:	f2c0 220c 	movt	r2, #524	; 0x20c
8010045c:	f44f 4300 	mov.w	r3, #32768	; 0x8000
80100460:	f2c0 230c 	movt	r3, #524	; 0x20c
80100464:	f8d3 10f0 	ldr.w	r1, [r3, #240]	; 0xf0
80100468:	f241 030c 	movw	r3, #4108	; 0x100c
8010046c:	f2c1 3311 	movt	r3, #4881	; 0x1311
80100470:	430b      	orrs	r3, r1
80100472:	f8c2 30f0 	str.w	r3, [r2, #240]	; 0xf0
80100476:	f44f 4380 	mov.w	r3, #16384	; 0x4000
8010047a:	f2c0 230c 	movt	r3, #524	; 0x20c
8010047e:	f44f 4280 	mov.w	r2, #16384	; 0x4000
80100482:	f2c0 220c 	movt	r2, #524	; 0x20c
80100486:	6992      	ldr	r2, [r2, #24]
80100488:	f422 02d8 	bic.w	r2, r2, #7077888	; 0x6c0000
8010048c:	619a      	str	r2, [r3, #24]
8010048e:	f44f 4380 	mov.w	r3, #16384	; 0x4000
80100492:	f2c0 230c 	movt	r3, #524	; 0x20c
80100496:	f44f 4280 	mov.w	r2, #16384	; 0x4000
8010049a:	f2c0 220c 	movt	r2, #524	; 0x20c
8010049e:	6992      	ldr	r2, [r2, #24]
801004a0:	f442 1210 	orr.w	r2, r2, #2359296	; 0x240000
801004a4:	619a      	str	r2, [r3, #24]
801004a6:	f44f 4380 	mov.w	r3, #16384	; 0x4000
801004aa:	f2c0 230c 	movt	r3, #524	; 0x20c
801004ae:	f44f 4280 	mov.w	r2, #16384	; 0x4000
801004b2:	f2c0 220c 	movt	r2, #524	; 0x20c
801004b6:	6952      	ldr	r2, [r2, #20]
801004b8:	f022 62c0 	bic.w	r2, r2, #100663296	; 0x6000000
801004bc:	615a      	str	r2, [r3, #20]
801004be:	f44f 4380 	mov.w	r3, #16384	; 0x4000
801004c2:	f2c0 230c 	movt	r3, #524	; 0x20c
801004c6:	f44f 4280 	mov.w	r2, #16384	; 0x4000
801004ca:	f2c0 220c 	movt	r2, #524	; 0x20c
801004ce:	6952      	ldr	r2, [r2, #20]
801004d0:	615a      	str	r2, [r3, #20]
801004d2:	f44f 4280 	mov.w	r2, #16384	; 0x4000
801004d6:	f2c0 220c 	movt	r2, #524	; 0x20c
801004da:	f44f 4380 	mov.w	r3, #16384	; 0x4000
801004de:	f2c0 230c 	movt	r3, #524	; 0x20c
801004e2:	695b      	ldr	r3, [r3, #20]
801004e4:	f423 23e0 	bic.w	r3, r3, #458752	; 0x70000
801004e8:	f423 7340 	bic.w	r3, r3, #768	; 0x300
801004ec:	6153      	str	r3, [r2, #20]
801004ee:	f44f 4280 	mov.w	r2, #16384	; 0x4000
801004f2:	f2c0 220c 	movt	r2, #524	; 0x20c
801004f6:	f44f 4380 	mov.w	r3, #16384	; 0x4000
801004fa:	f2c0 230c 	movt	r3, #524	; 0x20c
801004fe:	695b      	ldr	r3, [r3, #20]
80100500:	f443 3380 	orr.w	r3, r3, #65536	; 0x10000
80100504:	f443 7380 	orr.w	r3, r3, #256	; 0x100
80100508:	6153      	str	r3, [r2, #20]
8010050a:	f44f 4280 	mov.w	r2, #16384	; 0x4000
8010050e:	f2c0 220c 	movt	r2, #524	; 0x20c
80100512:	f44f 4380 	mov.w	r3, #16384	; 0x4000
80100516:	f2c0 230c 	movt	r3, #524	; 0x20c
8010051a:	695b      	ldr	r3, [r3, #20]
8010051c:	f023 5360 	bic.w	r3, r3, #939524096	; 0x38000000
80100520:	f023 0387 	bic.w	r3, r3, #135	; 0x87
80100524:	6153      	str	r3, [r2, #20]
80100526:	f44f 4380 	mov.w	r3, #16384	; 0x4000
8010052a:	f2c0 230c 	movt	r3, #524	; 0x20c
8010052e:	f44f 4280 	mov.w	r2, #16384	; 0x4000
80100532:	f2c0 220c 	movt	r2, #524	; 0x20c
80100536:	6952      	ldr	r2, [r2, #20]
80100538:	615a      	str	r2, [r3, #20]
8010053a:	bf00      	nop
8010053c:	f44f 4380 	mov.w	r3, #16384	; 0x4000
80100540:	f2c0 230c 	movt	r3, #524	; 0x20c
80100544:	6c9b      	ldr	r3, [r3, #72]	; 0x48
80100546:	f003 032f 	and.w	r3, r3, #47	; 0x2f
8010054a:	2b00      	cmp	r3, #0
8010054c:	d1f6      	bne.n	8010053c <boot_clk_init+0x1ba>
8010054e:	f44f 4380 	mov.w	r3, #16384	; 0x4000
80100552:	f2c0 230c 	movt	r3, #524	; 0x20c
80100556:	f44f 4280 	mov.w	r2, #16384	; 0x4000
8010055a:	f2c0 220c 	movt	r2, #524	; 0x20c
8010055e:	68d2      	ldr	r2, [r2, #12]
80100560:	f022 0201 	bic.w	r2, r2, #1
80100564:	60da      	str	r2, [r3, #12]
80100566:	f44f 4380 	mov.w	r3, #16384	; 0x4000
8010056a:	f2c0 230c 	movt	r3, #524	; 0x20c
8010056e:	f44f 4280 	mov.w	r2, #16384	; 0x4000
80100572:	f2c0 220c 	movt	r2, #524	; 0x20c
80100576:	6a52      	ldr	r2, [r2, #36]	; 0x24
80100578:	f022 0240 	bic.w	r2, r2, #64	; 0x40
8010057c:	625a      	str	r2, [r3, #36]	; 0x24
8010057e:	f44f 4380 	mov.w	r3, #16384	; 0x4000
80100582:	f2c0 230c 	movt	r3, #524	; 0x20c
80100586:	f44f 4280 	mov.w	r2, #16384	; 0x4000
8010058a:	f2c0 220c 	movt	r2, #524	; 0x20c
8010058e:	6a52      	ldr	r2, [r2, #36]	; 0x24
80100590:	f022 023f 	bic.w	r2, r2, #63	; 0x3f
80100594:	625a      	str	r2, [r3, #36]	; 0x24
80100596:	f44f 4380 	mov.w	r3, #16384	; 0x4000
8010059a:	f2c0 230c 	movt	r3, #524	; 0x20c
8010059e:	f44f 4280 	mov.w	r2, #16384	; 0x4000
801005a2:	f2c0 220c 	movt	r2, #524	; 0x20c
801005a6:	69d2      	ldr	r2, [r2, #28]
801005a8:	f022 0240 	bic.w	r2, r2, #64	; 0x40
801005ac:	61da      	str	r2, [r3, #28]
801005ae:	f44f 4380 	mov.w	r3, #16384	; 0x4000
801005b2:	f2c0 230c 	movt	r3, #524	; 0x20c
801005b6:	f44f 4280 	mov.w	r2, #16384	; 0x4000
801005ba:	f2c0 220c 	movt	r2, #524	; 0x20c
801005be:	69d2      	ldr	r2, [r2, #28]
801005c0:	f022 023f 	bic.w	r2, r2, #63	; 0x3f
801005c4:	61da      	str	r2, [r3, #28]
801005c6:	bf00      	nop
801005c8:	46bd      	mov	sp, r7
801005ca:	f85d 7b04 	ldr.w	r7, [sp], #4
801005ce:	4770      	bx	lr

801005d0 <printException>:
801005d0:	b580      	push	{r7, lr}
801005d2:	b082      	sub	sp, #8
801005d4:	af00      	add	r7, sp, #0
801005d6:	6078      	str	r0, [r7, #4]
801005d8:	6039      	str	r1, [r7, #0]
801005da:	6879      	ldr	r1, [r7, #4]
801005dc:	f641 2094 	movw	r0, #6804	; 0x1a94
801005e0:	f2c8 0010 	movt	r0, #32784	; 0x8010
801005e4:	f000 fcbb 	bl	80100f5e <printf>
801005e8:	6839      	ldr	r1, [r7, #0]
801005ea:	f641 20b0 	movw	r0, #6832	; 0x1ab0
801005ee:	f2c8 0010 	movt	r0, #32784	; 0x8010
801005f2:	f000 fcb4 	bl	80100f5e <printf>
801005f6:	bf00      	nop
801005f8:	3708      	adds	r7, #8
801005fa:	46bd      	mov	sp, r7
801005fc:	bd80      	pop	{r7, pc}

801005fe <printSWIVal>:
801005fe:	b580      	push	{r7, lr}
80100600:	b082      	sub	sp, #8
80100602:	af00      	add	r7, sp, #0
80100604:	6078      	str	r0, [r7, #4]
80100606:	687b      	ldr	r3, [r7, #4]
80100608:	681b      	ldr	r3, [r3, #0]
8010060a:	f023 437f 	bic.w	r3, r3, #4278190080	; 0xff000000
8010060e:	4619      	mov	r1, r3
80100610:	f641 20b8 	movw	r0, #6840	; 0x1ab8
80100614:	f2c8 0010 	movt	r0, #32784	; 0x8010
80100618:	f000 fca1 	bl	80100f5e <printf>
8010061c:	bf00      	nop
8010061e:	3708      	adds	r7, #8
80100620:	46bd      	mov	sp, r7
80100622:	bd80      	pop	{r7, pc}

80100624 <GPT1_COMP1_handle_irq>:
80100624:	b580      	push	{r7, lr}
80100626:	af00      	add	r7, sp, #0
80100628:	f641 20cc 	movw	r0, #6860	; 0x1acc
8010062c:	f2c8 0010 	movt	r0, #32784	; 0x8010
80100630:	f000 fc95 	bl	80100f5e <printf>
80100634:	f44f 4300 	mov.w	r3, #32768	; 0x8000
80100638:	f2c0 2309 	movt	r3, #521	; 0x209
8010063c:	f44f 4200 	mov.w	r2, #32768	; 0x8000
80100640:	f2c0 2209 	movt	r2, #521	; 0x209
80100644:	6892      	ldr	r2, [r2, #8]
80100646:	f042 0201 	orr.w	r2, r2, #1
8010064a:	609a      	str	r2, [r3, #8]
8010064c:	f641 4384 	movw	r3, #7300	; 0x1c84
80100650:	f2c8 0310 	movt	r3, #32784	; 0x8010
80100654:	681b      	ldr	r3, [r3, #0]
80100656:	2b00      	cmp	r3, #0
80100658:	d012      	beq.n	80100680 <GPT1_COMP1_handle_irq+0x5c>
8010065a:	f44f 4340 	mov.w	r3, #49152	; 0xc000
8010065e:	f2c0 230a 	movt	r3, #522	; 0x20a
80100662:	f44f 4240 	mov.w	r2, #49152	; 0xc000
80100666:	f2c0 220a 	movt	r2, #522	; 0x20a
8010066a:	6812      	ldr	r2, [r2, #0]
8010066c:	f042 0208 	orr.w	r2, r2, #8
80100670:	601a      	str	r2, [r3, #0]
80100672:	f641 4384 	movw	r3, #7300	; 0x1c84
80100676:	f2c8 0310 	movt	r3, #32784	; 0x8010
8010067a:	2200      	movs	r2, #0
8010067c:	601a      	str	r2, [r3, #0]
8010067e:	e011      	b.n	801006a4 <GPT1_COMP1_handle_irq+0x80>
80100680:	f44f 4340 	mov.w	r3, #49152	; 0xc000
80100684:	f2c0 230a 	movt	r3, #522	; 0x20a
80100688:	f44f 4240 	mov.w	r2, #49152	; 0xc000
8010068c:	f2c0 220a 	movt	r2, #522	; 0x20a
80100690:	6812      	ldr	r2, [r2, #0]
80100692:	f022 0208 	bic.w	r2, r2, #8
80100696:	601a      	str	r2, [r3, #0]
80100698:	f641 4384 	movw	r3, #7300	; 0x1c84
8010069c:	f2c8 0310 	movt	r3, #32784	; 0x8010
801006a0:	2201      	movs	r2, #1
801006a2:	601a      	str	r2, [r3, #0]
801006a4:	bf00      	nop
801006a6:	bd80      	pop	{r7, pc}

801006a8 <system_init>:
801006a8:	b580      	push	{r7, lr}
801006aa:	af00      	add	r7, sp, #0
801006ac:	f7ff fd76 	bl	8010019c <init_pins>
801006b0:	f000 f858 	bl	80100764 <led_gpio_init>
801006b4:	2000      	movs	r0, #0
801006b6:	f000 f868 	bl	8010078a <led_ctl>
801006ba:	f7ff fe29 	bl	80100310 <boot_clk_gate_init>
801006be:	f7ff fe60 	bl	80100382 <boot_clk_init>
801006c2:	f000 f9f0 	bl	80100aa6 <uart1_init>
801006c6:	f641 20ec 	movw	r0, #6892	; 0x1aec
801006ca:	f2c8 0010 	movt	r0, #32784	; 0x8010
801006ce:	f000 fab9 	bl	80100c44 <puts>
801006d2:	f000 fd78 	bl	801011c6 <system_init_irq_table>
801006d6:	f000 fce0 	bl	8010109a <gic_init>
801006da:	bf00      	nop
801006dc:	bd80      	pop	{r7, pc}

801006de <main>:
801006de:	b580      	push	{r7, lr}
801006e0:	af00      	add	r7, sp, #0
801006e2:	f44f 4000 	mov.w	r0, #32768	; 0x8000
801006e6:	f2c0 2009 	movt	r0, #521	; 0x209
801006ea:	f000 ff7a 	bl	801015e2 <gpt_poll_init>
801006ee:	f244 2240 	movw	r2, #16960	; 0x4240
801006f2:	f2c0 020f 	movt	r2, #15
801006f6:	2100      	movs	r1, #0
801006f8:	f44f 4000 	mov.w	r0, #32768	; 0x8000
801006fc:	f2c0 2009 	movt	r0, #521	; 0x209
80100700:	f000 ff8d 	bl	8010161e <gpt_poll_restart>
80100704:	f44f 4340 	mov.w	r3, #49152	; 0xc000
80100708:	f2c0 230a 	movt	r3, #522	; 0x20a
8010070c:	f44f 4240 	mov.w	r2, #49152	; 0xc000
80100710:	f2c0 220a 	movt	r2, #522	; 0x20a
80100714:	6812      	ldr	r2, [r2, #0]
80100716:	f022 0208 	bic.w	r2, r2, #8
8010071a:	601a      	str	r2, [r3, #0]
8010071c:	f641 20fc 	movw	r0, #6908	; 0x1afc
80100720:	f2c8 0010 	movt	r0, #32784	; 0x8010
80100724:	f000 fc1b 	bl	80100f5e <printf>
80100728:	f244 2240 	movw	r2, #16960	; 0x4240
8010072c:	f2c0 020f 	movt	r2, #15
80100730:	2100      	movs	r1, #0
80100732:	f44f 4000 	mov.w	r0, #32768	; 0x8000
80100736:	f2c0 2009 	movt	r0, #521	; 0x209
8010073a:	f000 ff70 	bl	8010161e <gpt_poll_restart>
8010073e:	f44f 4340 	mov.w	r3, #49152	; 0xc000
80100742:	f2c0 230a 	movt	r3, #522	; 0x20a
80100746:	f44f 4240 	mov.w	r2, #49152	; 0xc000
8010074a:	f2c0 220a 	movt	r2, #522	; 0x20a
8010074e:	6812      	ldr	r2, [r2, #0]
80100750:	f042 0208 	orr.w	r2, r2, #8
80100754:	601a      	str	r2, [r3, #0]
80100756:	f641 3008 	movw	r0, #6920	; 0x1b08
8010075a:	f2c8 0010 	movt	r0, #32784	; 0x8010
8010075e:	f000 fbfe 	bl	80100f5e <printf>
80100762:	e7c4      	b.n	801006ee <main+0x10>

80100764 <led_gpio_init>:
80100764:	b480      	push	{r7}
80100766:	af00      	add	r7, sp, #0
80100768:	f44f 4340 	mov.w	r3, #49152	; 0xc000
8010076c:	f2c0 230a 	movt	r3, #522	; 0x20a
80100770:	f44f 4240 	mov.w	r2, #49152	; 0xc000
80100774:	f2c0 220a 	movt	r2, #522	; 0x20a
80100778:	6852      	ldr	r2, [r2, #4]
8010077a:	f042 0208 	orr.w	r2, r2, #8
8010077e:	605a      	str	r2, [r3, #4]
80100780:	bf00      	nop
80100782:	46bd      	mov	sp, r7
80100784:	f85d 7b04 	ldr.w	r7, [sp], #4
80100788:	4770      	bx	lr

8010078a <led_ctl>:
8010078a:	b480      	push	{r7}
8010078c:	b083      	sub	sp, #12
8010078e:	af00      	add	r7, sp, #0
80100790:	6078      	str	r0, [r7, #4]
80100792:	687b      	ldr	r3, [r7, #4]
80100794:	2b00      	cmp	r3, #0
80100796:	d00c      	beq.n	801007b2 <led_ctl+0x28>
80100798:	f44f 4340 	mov.w	r3, #49152	; 0xc000
8010079c:	f2c0 230a 	movt	r3, #522	; 0x20a
801007a0:	f44f 4240 	mov.w	r2, #49152	; 0xc000
801007a4:	f2c0 220a 	movt	r2, #522	; 0x20a
801007a8:	6812      	ldr	r2, [r2, #0]
801007aa:	f022 0208 	bic.w	r2, r2, #8
801007ae:	601a      	str	r2, [r3, #0]
801007b0:	e00b      	b.n	801007ca <led_ctl+0x40>
801007b2:	f44f 4340 	mov.w	r3, #49152	; 0xc000
801007b6:	f2c0 230a 	movt	r3, #522	; 0x20a
801007ba:	f44f 4240 	mov.w	r2, #49152	; 0xc000
801007be:	f2c0 220a 	movt	r2, #522	; 0x20a
801007c2:	6812      	ldr	r2, [r2, #0]
801007c4:	f042 0208 	orr.w	r2, r2, #8
801007c8:	601a      	str	r2, [r3, #0]
801007ca:	bf00      	nop
801007cc:	370c      	adds	r7, #12
801007ce:	46bd      	mov	sp, r7
801007d0:	f85d 7b04 	ldr.w	r7, [sp], #4
801007d4:	4770      	bx	lr
	...

801007d8 <UART_SetBaudRate>:
801007d8:	b590      	push	{r4, r7, lr}
801007da:	b091      	sub	sp, #68	; 0x44
801007dc:	af00      	add	r7, sp, #0
801007de:	6078      	str	r0, [r7, #4]
801007e0:	6039      	str	r1, [r7, #0]
801007e2:	2300      	movs	r3, #0
801007e4:	63fb      	str	r3, [r7, #60]	; 0x3c
801007e6:	2300      	movs	r3, #0
801007e8:	63bb      	str	r3, [r7, #56]	; 0x38
801007ea:	2300      	movs	r3, #0
801007ec:	637b      	str	r3, [r7, #52]	; 0x34
801007ee:	2300      	movs	r3, #0
801007f0:	633b      	str	r3, [r7, #48]	; 0x30
801007f2:	2301      	movs	r3, #1
801007f4:	623b      	str	r3, [r7, #32]
801007f6:	f04f 0300 	mov.w	r3, #0
801007fa:	f04f 0400 	mov.w	r4, #0
801007fe:	e9c7 3406 	strd	r3, r4, [r7, #24]
80100802:	f04f 0300 	mov.w	r3, #0
80100806:	f04f 0400 	mov.w	r4, #0
8010080a:	e9c7 340a 	strd	r3, r4, [r7, #40]	; 0x28
8010080e:	2300      	movs	r3, #0
80100810:	627b      	str	r3, [r7, #36]	; 0x24
80100812:	683b      	ldr	r3, [r7, #0]
80100814:	63fb      	str	r3, [r7, #60]	; 0x3c
80100816:	687b      	ldr	r3, [r7, #4]
80100818:	011b      	lsls	r3, r3, #4
8010081a:	63bb      	str	r3, [r7, #56]	; 0x38
8010081c:	2301      	movs	r3, #1
8010081e:	637b      	str	r3, [r7, #52]	; 0x34
80100820:	e00a      	b.n	80100838 <UART_SetBaudRate+0x60>
80100822:	6bbb      	ldr	r3, [r7, #56]	; 0x38
80100824:	637b      	str	r3, [r7, #52]	; 0x34
80100826:	6bfb      	ldr	r3, [r7, #60]	; 0x3c
80100828:	6bb9      	ldr	r1, [r7, #56]	; 0x38
8010082a:	4618      	mov	r0, r3
8010082c:	f001 f87a 	bl	80101924 <__aeabi_uidivmod>
80100830:	460b      	mov	r3, r1
80100832:	63bb      	str	r3, [r7, #56]	; 0x38
80100834:	6b7b      	ldr	r3, [r7, #52]	; 0x34
80100836:	63fb      	str	r3, [r7, #60]	; 0x3c
80100838:	6bbb      	ldr	r3, [r7, #56]	; 0x38
8010083a:	2b00      	cmp	r3, #0
8010083c:	d1f1      	bne.n	80100822 <UART_SetBaudRate+0x4a>
8010083e:	6b79      	ldr	r1, [r7, #52]	; 0x34
80100840:	6838      	ldr	r0, [r7, #0]
80100842:	f000 ff41 	bl	801016c8 <__aeabi_uidiv>
80100846:	4603      	mov	r3, r0
80100848:	63fb      	str	r3, [r7, #60]	; 0x3c
8010084a:	687b      	ldr	r3, [r7, #4]
8010084c:	011b      	lsls	r3, r3, #4
8010084e:	6b79      	ldr	r1, [r7, #52]	; 0x34
80100850:	4618      	mov	r0, r3
80100852:	f000 ff39 	bl	801016c8 <__aeabi_uidiv>
80100856:	4603      	mov	r3, r0
80100858:	63bb      	str	r3, [r7, #56]	; 0x38
8010085a:	6bfa      	ldr	r2, [r7, #60]	; 0x3c
8010085c:	f64f 73f9 	movw	r3, #65529	; 0xfff9
80100860:	f2c0 0306 	movt	r3, #6
80100864:	429a      	cmp	r2, r3
80100866:	d803      	bhi.n	80100870 <UART_SetBaudRate+0x98>
80100868:	6bbb      	ldr	r3, [r7, #56]	; 0x38
8010086a:	f5b3 3f80 	cmp.w	r3, #65536	; 0x10000
8010086e:	d334      	bcc.n	801008da <UART_SetBaudRate+0x102>
80100870:	6bfb      	ldr	r3, [r7, #60]	; 0x3c
80100872:	1e5a      	subs	r2, r3, #1
80100874:	f646 53b9 	movw	r3, #28089	; 0x6db9
80100878:	f2c2 4393 	movt	r3, #9363	; 0x2493
8010087c:	fba2 3403 	umull	r3, r4, r2, r3
80100880:	1b12      	subs	r2, r2, r4
80100882:	0852      	lsrs	r2, r2, #1
80100884:	1913      	adds	r3, r2, r4
80100886:	0c9b      	lsrs	r3, r3, #18
80100888:	3301      	adds	r3, #1
8010088a:	617b      	str	r3, [r7, #20]
8010088c:	6bbb      	ldr	r3, [r7, #56]	; 0x38
8010088e:	1e5a      	subs	r2, r3, #1
80100890:	f248 0301 	movw	r3, #32769	; 0x8001
80100894:	f2c8 0300 	movt	r3, #32768	; 0x8000
80100898:	fba2 3403 	umull	r3, r4, r2, r3
8010089c:	0be3      	lsrs	r3, r4, #15
8010089e:	3301      	adds	r3, #1
801008a0:	613b      	str	r3, [r7, #16]
801008a2:	693a      	ldr	r2, [r7, #16]
801008a4:	697b      	ldr	r3, [r7, #20]
801008a6:	4293      	cmp	r3, r2
801008a8:	bf38      	it	cc
801008aa:	4613      	movcc	r3, r2
801008ac:	60fb      	str	r3, [r7, #12]
801008ae:	68f9      	ldr	r1, [r7, #12]
801008b0:	6bf8      	ldr	r0, [r7, #60]	; 0x3c
801008b2:	f000 ff09 	bl	801016c8 <__aeabi_uidiv>
801008b6:	4603      	mov	r3, r0
801008b8:	63fb      	str	r3, [r7, #60]	; 0x3c
801008ba:	68f9      	ldr	r1, [r7, #12]
801008bc:	6bb8      	ldr	r0, [r7, #56]	; 0x38
801008be:	f000 ff03 	bl	801016c8 <__aeabi_uidiv>
801008c2:	4603      	mov	r3, r0
801008c4:	63bb      	str	r3, [r7, #56]	; 0x38
801008c6:	6bfb      	ldr	r3, [r7, #60]	; 0x3c
801008c8:	2b00      	cmp	r3, #0
801008ca:	d101      	bne.n	801008d0 <UART_SetBaudRate+0xf8>
801008cc:	2301      	movs	r3, #1
801008ce:	63fb      	str	r3, [r7, #60]	; 0x3c
801008d0:	6bbb      	ldr	r3, [r7, #56]	; 0x38
801008d2:	2b00      	cmp	r3, #0
801008d4:	d101      	bne.n	801008da <UART_SetBaudRate+0x102>
801008d6:	2301      	movs	r3, #1
801008d8:	63bb      	str	r3, [r7, #56]	; 0x38
801008da:	6bfb      	ldr	r3, [r7, #60]	; 0x3c
801008dc:	1e5a      	subs	r2, r3, #1
801008de:	f248 0301 	movw	r3, #32769	; 0x8001
801008e2:	f2c8 0300 	movt	r3, #32768	; 0x8000
801008e6:	fba2 3403 	umull	r3, r4, r2, r3
801008ea:	0be3      	lsrs	r3, r4, #15
801008ec:	3301      	adds	r3, #1
801008ee:	623b      	str	r3, [r7, #32]
801008f0:	6a3b      	ldr	r3, [r7, #32]
801008f2:	3b01      	subs	r3, #1
801008f4:	2b06      	cmp	r3, #6
801008f6:	d826      	bhi.n	80100946 <UART_SetBaudRate+0x16e>
801008f8:	a201      	add	r2, pc, #4	; (adr r2, 80100900 <UART_SetBaudRate+0x128>)
801008fa:	f852 f023 	ldr.w	pc, [r2, r3, lsl #2]
801008fe:	bf00      	nop
80100900:	8010091d 	andshi	r0, r0, sp, lsl r9
80100904:	80100923 	andshi	r0, r0, r3, lsr #18
80100908:	80100929 	andshi	r0, r0, r9, lsr #18
8010090c:	8010092f 	andshi	r0, r0, pc, lsr #18
80100910:	80100935 	andshi	r0, r0, r5, lsr r9
80100914:	8010093b 	andshi	r0, r0, fp, lsr r9
80100918:	80100941 	andshi	r0, r0, r1, asr #18
8010091c:	2305      	movs	r3, #5
8010091e:	633b      	str	r3, [r7, #48]	; 0x30
80100920:	e014      	b.n	8010094c <UART_SetBaudRate+0x174>
80100922:	2304      	movs	r3, #4
80100924:	633b      	str	r3, [r7, #48]	; 0x30
80100926:	e011      	b.n	8010094c <UART_SetBaudRate+0x174>
80100928:	2303      	movs	r3, #3
8010092a:	633b      	str	r3, [r7, #48]	; 0x30
8010092c:	e00e      	b.n	8010094c <UART_SetBaudRate+0x174>
8010092e:	2302      	movs	r3, #2
80100930:	633b      	str	r3, [r7, #48]	; 0x30
80100932:	e00b      	b.n	8010094c <UART_SetBaudRate+0x174>
80100934:	2301      	movs	r3, #1
80100936:	633b      	str	r3, [r7, #48]	; 0x30
80100938:	e008      	b.n	8010094c <UART_SetBaudRate+0x174>
8010093a:	2300      	movs	r3, #0
8010093c:	633b      	str	r3, [r7, #48]	; 0x30
8010093e:	e005      	b.n	8010094c <UART_SetBaudRate+0x174>
80100940:	2306      	movs	r3, #6
80100942:	633b      	str	r3, [r7, #48]	; 0x30
80100944:	e002      	b.n	8010094c <UART_SetBaudRate+0x174>
80100946:	2305      	movs	r3, #5
80100948:	633b      	str	r3, [r7, #48]	; 0x30
8010094a:	bf00      	nop
8010094c:	683b      	ldr	r3, [r7, #0]
8010094e:	f04f 0400 	mov.w	r4, #0
80100952:	e9c7 340a 	strd	r3, r4, [r7, #40]	; 0x28
80100956:	6bfb      	ldr	r3, [r7, #60]	; 0x3c
80100958:	011b      	lsls	r3, r3, #4
8010095a:	627b      	str	r3, [r7, #36]	; 0x24
8010095c:	2301      	movs	r3, #1
8010095e:	637b      	str	r3, [r7, #52]	; 0x34
80100960:	e012      	b.n	80100988 <UART_SetBaudRate+0x1b0>
80100962:	6a7b      	ldr	r3, [r7, #36]	; 0x24
80100964:	637b      	str	r3, [r7, #52]	; 0x34
80100966:	6a7b      	ldr	r3, [r7, #36]	; 0x24
80100968:	f04f 0400 	mov.w	r4, #0
8010096c:	e9d7 010a 	ldrd	r0, r1, [r7, #40]	; 0x28
80100970:	461a      	mov	r2, r3
80100972:	4623      	mov	r3, r4
80100974:	f000 ffe4 	bl	80101940 <__aeabi_uldivmod>
80100978:	461c      	mov	r4, r3
8010097a:	4613      	mov	r3, r2
8010097c:	627b      	str	r3, [r7, #36]	; 0x24
8010097e:	6b7b      	ldr	r3, [r7, #52]	; 0x34
80100980:	f04f 0400 	mov.w	r4, #0
80100984:	e9c7 340a 	strd	r3, r4, [r7, #40]	; 0x28
80100988:	6a7b      	ldr	r3, [r7, #36]	; 0x24
8010098a:	2b00      	cmp	r3, #0
8010098c:	d1e9      	bne.n	80100962 <UART_SetBaudRate+0x18a>
8010098e:	6b79      	ldr	r1, [r7, #52]	; 0x34
80100990:	6838      	ldr	r0, [r7, #0]
80100992:	f000 fe99 	bl	801016c8 <__aeabi_uidiv>
80100996:	4603      	mov	r3, r0
80100998:	f04f 0400 	mov.w	r4, #0
8010099c:	e9c7 340a 	strd	r3, r4, [r7, #40]	; 0x28
801009a0:	6bfb      	ldr	r3, [r7, #60]	; 0x3c
801009a2:	011b      	lsls	r3, r3, #4
801009a4:	6b79      	ldr	r1, [r7, #52]	; 0x34
801009a6:	4618      	mov	r0, r3
801009a8:	f000 fe8e 	bl	801016c8 <__aeabi_uidiv>
801009ac:	4603      	mov	r3, r0
801009ae:	627b      	str	r3, [r7, #36]	; 0x24
801009b0:	6bbb      	ldr	r3, [r7, #56]	; 0x38
801009b2:	f04f 0400 	mov.w	r4, #0
801009b6:	6aba      	ldr	r2, [r7, #40]	; 0x28
801009b8:	fb04 f102 	mul.w	r1, r4, r2
801009bc:	6afa      	ldr	r2, [r7, #44]	; 0x2c
801009be:	fb03 f202 	mul.w	r2, r3, r2
801009c2:	440a      	add	r2, r1
801009c4:	6ab9      	ldr	r1, [r7, #40]	; 0x28
801009c6:	fba1 0103 	umull	r0, r1, r1, r3
801009ca:	1853      	adds	r3, r2, r1
801009cc:	4619      	mov	r1, r3
801009ce:	6a7b      	ldr	r3, [r7, #36]	; 0x24
801009d0:	f04f 0400 	mov.w	r4, #0
801009d4:	461a      	mov	r2, r3
801009d6:	4623      	mov	r3, r4
801009d8:	f000 ffb2 	bl	80101940 <__aeabi_uldivmod>
801009dc:	4603      	mov	r3, r0
801009de:	460c      	mov	r4, r1
801009e0:	e9c7 3406 	strd	r3, r4, [r7, #24]
801009e4:	687b      	ldr	r3, [r7, #4]
801009e6:	f04f 0400 	mov.w	r4, #0
801009ea:	e9d7 1206 	ldrd	r1, r2, [r7, #24]
801009ee:	42a2      	cmp	r2, r4
801009f0:	bf08      	it	eq
801009f2:	4299      	cmpeq	r1, r3
801009f4:	d308      	bcc.n	80100a08 <UART_SetBaudRate+0x230>
801009f6:	687b      	ldr	r3, [r7, #4]
801009f8:	f04f 0400 	mov.w	r4, #0
801009fc:	e9d7 1206 	ldrd	r1, r2, [r7, #24]
80100a00:	1acb      	subs	r3, r1, r3
80100a02:	eb62 0404 	sbc.w	r4, r2, r4
80100a06:	e008      	b.n	80100a1a <UART_SetBaudRate+0x242>
80100a08:	687b      	ldr	r3, [r7, #4]
80100a0a:	4619      	mov	r1, r3
80100a0c:	f04f 0200 	mov.w	r2, #0
80100a10:	e9d7 3406 	ldrd	r3, r4, [r7, #24]
80100a14:	1acb      	subs	r3, r1, r3
80100a16:	eb62 0404 	sbc.w	r4, r2, r4
80100a1a:	e9c7 3406 	strd	r3, r4, [r7, #24]
80100a1e:	2300      	movs	r3, #0
80100a20:	f2c0 2302 	movt	r3, #514	; 0x202
80100a24:	2200      	movs	r2, #0
80100a26:	f2c0 2202 	movt	r2, #514	; 0x202
80100a2a:	f8d2 2090 	ldr.w	r2, [r2, #144]	; 0x90
80100a2e:	f422 7260 	bic.w	r2, r2, #896	; 0x380
80100a32:	f8c3 2090 	str.w	r2, [r3, #144]	; 0x90
80100a36:	2300      	movs	r3, #0
80100a38:	f2c0 2302 	movt	r3, #514	; 0x202
80100a3c:	2200      	movs	r2, #0
80100a3e:	f2c0 2202 	movt	r2, #514	; 0x202
80100a42:	f8d2 1090 	ldr.w	r1, [r2, #144]	; 0x90
80100a46:	6b3a      	ldr	r2, [r7, #48]	; 0x30
80100a48:	01d2      	lsls	r2, r2, #7
80100a4a:	f402 7260 	and.w	r2, r2, #896	; 0x380
80100a4e:	430a      	orrs	r2, r1
80100a50:	f8c3 2090 	str.w	r2, [r3, #144]	; 0x90
80100a54:	2300      	movs	r3, #0
80100a56:	f2c0 2302 	movt	r3, #514	; 0x202
80100a5a:	6bba      	ldr	r2, [r7, #56]	; 0x38
80100a5c:	3a01      	subs	r2, #1
80100a5e:	b292      	uxth	r2, r2
80100a60:	f8c3 20a4 	str.w	r2, [r3, #164]	; 0xa4
80100a64:	2400      	movs	r4, #0
80100a66:	f2c0 2402 	movt	r4, #514	; 0x202
80100a6a:	6a39      	ldr	r1, [r7, #32]
80100a6c:	6bf8      	ldr	r0, [r7, #60]	; 0x3c
80100a6e:	f000 fe2b 	bl	801016c8 <__aeabi_uidiv>
80100a72:	4603      	mov	r3, r0
80100a74:	3b01      	subs	r3, #1
80100a76:	b29b      	uxth	r3, r3
80100a78:	f8c4 30a8 	str.w	r3, [r4, #168]	; 0xa8
80100a7c:	2400      	movs	r4, #0
80100a7e:	f2c0 2402 	movt	r4, #514	; 0x202
80100a82:	6a3b      	ldr	r3, [r7, #32]
80100a84:	f44f 727a 	mov.w	r2, #1000	; 0x3e8
80100a88:	fb02 f303 	mul.w	r3, r2, r3
80100a8c:	4619      	mov	r1, r3
80100a8e:	6838      	ldr	r0, [r7, #0]
80100a90:	f000 fe1a 	bl	801016c8 <__aeabi_uidiv>
80100a94:	4603      	mov	r3, r0
80100a96:	f023 437f 	bic.w	r3, r3, #4278190080	; 0xff000000
80100a9a:	f8c4 30b0 	str.w	r3, [r4, #176]	; 0xb0
80100a9e:	bf00      	nop
80100aa0:	3744      	adds	r7, #68	; 0x44
80100aa2:	46bd      	mov	sp, r7
80100aa4:	bd90      	pop	{r4, r7, pc}

80100aa6 <uart1_init>:
80100aa6:	b580      	push	{r7, lr}
80100aa8:	af00      	add	r7, sp, #0
80100aaa:	2300      	movs	r3, #0
80100aac:	f2c0 2302 	movt	r3, #514	; 0x202
80100ab0:	2200      	movs	r2, #0
80100ab2:	f2c0 2202 	movt	r2, #514	; 0x202
80100ab6:	f8d2 2080 	ldr.w	r2, [r2, #128]	; 0x80
80100aba:	f022 0201 	bic.w	r2, r2, #1
80100abe:	f8c3 2080 	str.w	r2, [r3, #128]	; 0x80
80100ac2:	2300      	movs	r3, #0
80100ac4:	f2c0 2302 	movt	r3, #514	; 0x202
80100ac8:	2200      	movs	r2, #0
80100aca:	f2c0 2202 	movt	r2, #514	; 0x202
80100ace:	f8d2 2084 	ldr.w	r2, [r2, #132]	; 0x84
80100ad2:	f022 0201 	bic.w	r2, r2, #1
80100ad6:	f8c3 2084 	str.w	r2, [r3, #132]	; 0x84
80100ada:	bf00      	nop
80100adc:	2300      	movs	r3, #0
80100ade:	f2c0 2302 	movt	r3, #514	; 0x202
80100ae2:	f8d3 3084 	ldr.w	r3, [r3, #132]	; 0x84
80100ae6:	f003 0301 	and.w	r3, r3, #1
80100aea:	2b00      	cmp	r3, #0
80100aec:	d0f6      	beq.n	80100adc <uart1_init+0x36>
80100aee:	2300      	movs	r3, #0
80100af0:	f2c0 2302 	movt	r3, #514	; 0x202
80100af4:	2200      	movs	r2, #0
80100af6:	f8c3 2080 	str.w	r2, [r3, #128]	; 0x80
80100afa:	2300      	movs	r3, #0
80100afc:	f2c0 2302 	movt	r3, #514	; 0x202
80100b00:	2201      	movs	r2, #1
80100b02:	f8c3 2084 	str.w	r2, [r3, #132]	; 0x84
80100b06:	2300      	movs	r3, #0
80100b08:	f2c0 2302 	movt	r3, #514	; 0x202
80100b0c:	f44f 62e0 	mov.w	r2, #1792	; 0x700
80100b10:	f8c3 2088 	str.w	r2, [r3, #136]	; 0x88
80100b14:	2300      	movs	r3, #0
80100b16:	f2c0 2302 	movt	r3, #514	; 0x202
80100b1a:	f44f 4200 	mov.w	r2, #32768	; 0x8000
80100b1e:	f8c3 208c 	str.w	r2, [r3, #140]	; 0x8c
80100b22:	2300      	movs	r3, #0
80100b24:	f2c0 2302 	movt	r3, #514	; 0x202
80100b28:	f640 0201 	movw	r2, #2049	; 0x801
80100b2c:	f8c3 2090 	str.w	r2, [r3, #144]	; 0x90
80100b30:	2300      	movs	r3, #0
80100b32:	f2c0 2302 	movt	r3, #514	; 0x202
80100b36:	222b      	movs	r2, #43	; 0x2b
80100b38:	f8c3 209c 	str.w	r2, [r3, #156]	; 0x9c
80100b3c:	2300      	movs	r3, #0
80100b3e:	f2c0 2302 	movt	r3, #514	; 0x202
80100b42:	2200      	movs	r2, #0
80100b44:	f8c3 20a0 	str.w	r2, [r3, #160]	; 0xa0
80100b48:	2300      	movs	r3, #0
80100b4a:	f2c0 2302 	movt	r3, #514	; 0x202
80100b4e:	2200      	movs	r2, #0
80100b50:	f8c3 20b0 	str.w	r2, [r3, #176]	; 0xb0
80100b54:	2300      	movs	r3, #0
80100b56:	f2c0 2302 	movt	r3, #514	; 0x202
80100b5a:	2260      	movs	r2, #96	; 0x60
80100b5c:	f8c3 20b4 	str.w	r2, [r3, #180]	; 0xb4
80100b60:	2300      	movs	r3, #0
80100b62:	f2c0 2302 	movt	r3, #514	; 0x202
80100b66:	2200      	movs	r2, #0
80100b68:	f8c3 20b8 	str.w	r2, [r3, #184]	; 0xb8
80100b6c:	2200      	movs	r2, #0
80100b6e:	f2c0 2202 	movt	r2, #514	; 0x202
80100b72:	2300      	movs	r3, #0
80100b74:	f2c0 2302 	movt	r3, #514	; 0x202
80100b78:	f8d3 3084 	ldr.w	r3, [r3, #132]	; 0x84
80100b7c:	f443 4380 	orr.w	r3, r3, #16384	; 0x4000
80100b80:	f043 0366 	orr.w	r3, r3, #102	; 0x66
80100b84:	f8c2 3084 	str.w	r3, [r2, #132]	; 0x84
80100b88:	2300      	movs	r3, #0
80100b8a:	f2c0 2302 	movt	r3, #514	; 0x202
80100b8e:	2200      	movs	r2, #0
80100b90:	f2c0 2202 	movt	r2, #514	; 0x202
80100b94:	f8d2 2088 	ldr.w	r2, [r2, #136]	; 0x88
80100b98:	f042 0204 	orr.w	r2, r2, #4
80100b9c:	f8c3 2088 	str.w	r2, [r3, #136]	; 0x88
80100ba0:	2300      	movs	r3, #0
80100ba2:	f2c0 2302 	movt	r3, #514	; 0x202
80100ba6:	2200      	movs	r2, #0
80100ba8:	f2c0 2202 	movt	r2, #514	; 0x202
80100bac:	f8d2 2080 	ldr.w	r2, [r2, #128]	; 0x80
80100bb0:	f422 4280 	bic.w	r2, r2, #16384	; 0x4000
80100bb4:	f8c3 2080 	str.w	r2, [r3, #128]	; 0x80
80100bb8:	f44f 4134 	mov.w	r1, #46080	; 0xb400
80100bbc:	f2c0 41c4 	movt	r1, #1220	; 0x4c4
80100bc0:	f44f 30e1 	mov.w	r0, #115200	; 0x1c200
80100bc4:	f7ff fe08 	bl	801007d8 <UART_SetBaudRate>
80100bc8:	2300      	movs	r3, #0
80100bca:	f2c0 2302 	movt	r3, #514	; 0x202
80100bce:	2200      	movs	r2, #0
80100bd0:	f2c0 2202 	movt	r2, #514	; 0x202
80100bd4:	f8d2 2080 	ldr.w	r2, [r2, #128]	; 0x80
80100bd8:	f042 0201 	orr.w	r2, r2, #1
80100bdc:	f8c3 2080 	str.w	r2, [r3, #128]	; 0x80
80100be0:	bf00      	nop
80100be2:	bd80      	pop	{r7, pc}

80100be4 <putchar>:
80100be4:	b480      	push	{r7}
80100be6:	b083      	sub	sp, #12
80100be8:	af00      	add	r7, sp, #0
80100bea:	6078      	str	r0, [r7, #4]
80100bec:	bf00      	nop
80100bee:	2300      	movs	r3, #0
80100bf0:	f2c0 2302 	movt	r3, #514	; 0x202
80100bf4:	f8d3 3098 	ldr.w	r3, [r3, #152]	; 0x98
80100bf8:	f003 0308 	and.w	r3, r3, #8
80100bfc:	2b00      	cmp	r3, #0
80100bfe:	d0f6      	beq.n	80100bee <putchar+0xa>
80100c00:	2300      	movs	r3, #0
80100c02:	f2c0 2302 	movt	r3, #514	; 0x202
80100c06:	687a      	ldr	r2, [r7, #4]
80100c08:	b2d2      	uxtb	r2, r2
80100c0a:	641a      	str	r2, [r3, #64]	; 0x40
80100c0c:	bf00      	nop
80100c0e:	370c      	adds	r7, #12
80100c10:	46bd      	mov	sp, r7
80100c12:	f85d 7b04 	ldr.w	r7, [sp], #4
80100c16:	4770      	bx	lr

80100c18 <getchar>:
80100c18:	b480      	push	{r7}
80100c1a:	af00      	add	r7, sp, #0
80100c1c:	bf00      	nop
80100c1e:	2300      	movs	r3, #0
80100c20:	f2c0 2302 	movt	r3, #514	; 0x202
80100c24:	f8d3 3098 	ldr.w	r3, [r3, #152]	; 0x98
80100c28:	f003 0301 	and.w	r3, r3, #1
80100c2c:	2b00      	cmp	r3, #0
80100c2e:	d0f6      	beq.n	80100c1e <getchar+0x6>
80100c30:	2300      	movs	r3, #0
80100c32:	f2c0 2302 	movt	r3, #514	; 0x202
80100c36:	681b      	ldr	r3, [r3, #0]
80100c38:	b2db      	uxtb	r3, r3
80100c3a:	4618      	mov	r0, r3
80100c3c:	46bd      	mov	sp, r7
80100c3e:	f85d 7b04 	ldr.w	r7, [sp], #4
80100c42:	4770      	bx	lr

80100c44 <puts>:
80100c44:	b580      	push	{r7, lr}
80100c46:	b082      	sub	sp, #8
80100c48:	af00      	add	r7, sp, #0
80100c4a:	6078      	str	r0, [r7, #4]
80100c4c:	e007      	b.n	80100c5e <puts+0x1a>
80100c4e:	687b      	ldr	r3, [r7, #4]
80100c50:	781b      	ldrb	r3, [r3, #0]
80100c52:	4618      	mov	r0, r3
80100c54:	f7ff ffc6 	bl	80100be4 <putchar>
80100c58:	687b      	ldr	r3, [r7, #4]
80100c5a:	3301      	adds	r3, #1
80100c5c:	607b      	str	r3, [r7, #4]
80100c5e:	687b      	ldr	r3, [r7, #4]
80100c60:	781b      	ldrb	r3, [r3, #0]
80100c62:	2b00      	cmp	r3, #0
80100c64:	d1f3      	bne.n	80100c4e <puts+0xa>
80100c66:	bf00      	nop
80100c68:	3708      	adds	r7, #8
80100c6a:	46bd      	mov	sp, r7
80100c6c:	bd80      	pop	{r7, pc}
80100c6e:	bf00      	nop

80100c70 <raise>:
80100c70:	b480      	push	{r7}
80100c72:	b083      	sub	sp, #12
80100c74:	af00      	add	r7, sp, #0
80100c76:	6078      	str	r0, [r7, #4]
80100c78:	2300      	movs	r3, #0
80100c7a:	4618      	mov	r0, r3
80100c7c:	370c      	adds	r7, #12
80100c7e:	46bd      	mov	sp, r7
80100c80:	f85d 7b04 	ldr.w	r7, [sp], #4
80100c84:	4770      	bx	lr
	...

80100c88 <outc>:
80100c88:	b580      	push	{r7, lr}
80100c8a:	b082      	sub	sp, #8
80100c8c:	af00      	add	r7, sp, #0
80100c8e:	6078      	str	r0, [r7, #4]
80100c90:	6878      	ldr	r0, [r7, #4]
80100c92:	f7ff ffa7 	bl	80100be4 <putchar>
80100c96:	2300      	movs	r3, #0
80100c98:	4618      	mov	r0, r3
80100c9a:	3708      	adds	r7, #8
80100c9c:	46bd      	mov	sp, r7
80100c9e:	bd80      	pop	{r7, pc}

80100ca0 <outs>:
80100ca0:	b580      	push	{r7, lr}
80100ca2:	b082      	sub	sp, #8
80100ca4:	af00      	add	r7, sp, #0
80100ca6:	6078      	str	r0, [r7, #4]
80100ca8:	e006      	b.n	80100cb8 <outs+0x18>
80100caa:	687b      	ldr	r3, [r7, #4]
80100cac:	1c5a      	adds	r2, r3, #1
80100cae:	607a      	str	r2, [r7, #4]
80100cb0:	781b      	ldrb	r3, [r3, #0]
80100cb2:	4618      	mov	r0, r3
80100cb4:	f7ff ff96 	bl	80100be4 <putchar>
80100cb8:	687b      	ldr	r3, [r7, #4]
80100cba:	781b      	ldrb	r3, [r3, #0]
80100cbc:	2b00      	cmp	r3, #0
80100cbe:	d1f4      	bne.n	80100caa <outs+0xa>
80100cc0:	2300      	movs	r3, #0
80100cc2:	4618      	mov	r0, r3
80100cc4:	3708      	adds	r7, #8
80100cc6:	46bd      	mov	sp, r7
80100cc8:	bd80      	pop	{r7, pc}

80100cca <out_num>:
80100cca:	b590      	push	{r4, r7, lr}
80100ccc:	b099      	sub	sp, #100	; 0x64
80100cce:	af00      	add	r7, sp, #0
80100cd0:	e9c7 0102 	strd	r0, r1, [r7, #8]
80100cd4:	607a      	str	r2, [r7, #4]
80100cd6:	70fb      	strb	r3, [r7, #3]
80100cd8:	2300      	movs	r3, #0
80100cda:	65fb      	str	r3, [r7, #92]	; 0x5c
80100cdc:	f107 0310 	add.w	r3, r7, #16
80100ce0:	3340      	adds	r3, #64	; 0x40
80100ce2:	65bb      	str	r3, [r7, #88]	; 0x58
80100ce4:	2300      	movs	r3, #0
80100ce6:	657b      	str	r3, [r7, #84]	; 0x54
80100ce8:	2300      	movs	r3, #0
80100cea:	653b      	str	r3, [r7, #80]	; 0x50
80100cec:	6dbb      	ldr	r3, [r7, #88]	; 0x58
80100cee:	3b01      	subs	r3, #1
80100cf0:	65bb      	str	r3, [r7, #88]	; 0x58
80100cf2:	6dbb      	ldr	r3, [r7, #88]	; 0x58
80100cf4:	2200      	movs	r2, #0
80100cf6:	701a      	strb	r2, [r3, #0]
80100cf8:	e9d7 3402 	ldrd	r3, r4, [r7, #8]
80100cfc:	2b00      	cmp	r3, #0
80100cfe:	f174 0300 	sbcs.w	r3, r4, #0
80100d02:	da03      	bge.n	80100d0c <out_num+0x42>
80100d04:	68bb      	ldr	r3, [r7, #8]
80100d06:	425b      	negs	r3, r3
80100d08:	65fb      	str	r3, [r7, #92]	; 0x5c
80100d0a:	e001      	b.n	80100d10 <out_num+0x46>
80100d0c:	68bb      	ldr	r3, [r7, #8]
80100d0e:	65fb      	str	r3, [r7, #92]	; 0x5c
80100d10:	6dbb      	ldr	r3, [r7, #88]	; 0x58
80100d12:	3b01      	subs	r3, #1
80100d14:	65bb      	str	r3, [r7, #88]	; 0x58
80100d16:	687a      	ldr	r2, [r7, #4]
80100d18:	6dfb      	ldr	r3, [r7, #92]	; 0x5c
80100d1a:	4611      	mov	r1, r2
80100d1c:	4618      	mov	r0, r3
80100d1e:	f000 fe01 	bl	80101924 <__aeabi_uidivmod>
80100d22:	460b      	mov	r3, r1
80100d24:	461a      	mov	r2, r3
80100d26:	f641 4388 	movw	r3, #7304	; 0x1c88
80100d2a:	f2c8 0310 	movt	r3, #32784	; 0x8010
80100d2e:	5c9a      	ldrb	r2, [r3, r2]
80100d30:	6dbb      	ldr	r3, [r7, #88]	; 0x58
80100d32:	701a      	strb	r2, [r3, #0]
80100d34:	6d7b      	ldr	r3, [r7, #84]	; 0x54
80100d36:	3301      	adds	r3, #1
80100d38:	657b      	str	r3, [r7, #84]	; 0x54
80100d3a:	687b      	ldr	r3, [r7, #4]
80100d3c:	4619      	mov	r1, r3
80100d3e:	6df8      	ldr	r0, [r7, #92]	; 0x5c
80100d40:	f000 fcc2 	bl	801016c8 <__aeabi_uidiv>
80100d44:	4603      	mov	r3, r0
80100d46:	65fb      	str	r3, [r7, #92]	; 0x5c
80100d48:	6dfb      	ldr	r3, [r7, #92]	; 0x5c
80100d4a:	2b00      	cmp	r3, #0
80100d4c:	d1e0      	bne.n	80100d10 <out_num+0x46>
80100d4e:	6f3b      	ldr	r3, [r7, #112]	; 0x70
80100d50:	2b00      	cmp	r3, #0
80100d52:	d014      	beq.n	80100d7e <out_num+0xb4>
80100d54:	6d7a      	ldr	r2, [r7, #84]	; 0x54
80100d56:	6f3b      	ldr	r3, [r7, #112]	; 0x70
80100d58:	429a      	cmp	r2, r3
80100d5a:	da10      	bge.n	80100d7e <out_num+0xb4>
80100d5c:	6f3a      	ldr	r2, [r7, #112]	; 0x70
80100d5e:	6d7b      	ldr	r3, [r7, #84]	; 0x54
80100d60:	1ad3      	subs	r3, r2, r3
80100d62:	653b      	str	r3, [r7, #80]	; 0x50
80100d64:	e008      	b.n	80100d78 <out_num+0xae>
80100d66:	6dbb      	ldr	r3, [r7, #88]	; 0x58
80100d68:	3b01      	subs	r3, #1
80100d6a:	65bb      	str	r3, [r7, #88]	; 0x58
80100d6c:	6dbb      	ldr	r3, [r7, #88]	; 0x58
80100d6e:	78fa      	ldrb	r2, [r7, #3]
80100d70:	701a      	strb	r2, [r3, #0]
80100d72:	6d3b      	ldr	r3, [r7, #80]	; 0x50
80100d74:	3b01      	subs	r3, #1
80100d76:	653b      	str	r3, [r7, #80]	; 0x50
80100d78:	6d3b      	ldr	r3, [r7, #80]	; 0x50
80100d7a:	2b00      	cmp	r3, #0
80100d7c:	d1f3      	bne.n	80100d66 <out_num+0x9c>
80100d7e:	e9d7 3402 	ldrd	r3, r4, [r7, #8]
80100d82:	2b00      	cmp	r3, #0
80100d84:	f174 0300 	sbcs.w	r3, r4, #0
80100d88:	da05      	bge.n	80100d96 <out_num+0xcc>
80100d8a:	6dbb      	ldr	r3, [r7, #88]	; 0x58
80100d8c:	3b01      	subs	r3, #1
80100d8e:	65bb      	str	r3, [r7, #88]	; 0x58
80100d90:	6dbb      	ldr	r3, [r7, #88]	; 0x58
80100d92:	222d      	movs	r2, #45	; 0x2d
80100d94:	701a      	strb	r2, [r3, #0]
80100d96:	6db8      	ldr	r0, [r7, #88]	; 0x58
80100d98:	f7ff ff82 	bl	80100ca0 <outs>
80100d9c:	4603      	mov	r3, r0
80100d9e:	4618      	mov	r0, r3
80100da0:	3764      	adds	r7, #100	; 0x64
80100da2:	46bd      	mov	sp, r7
80100da4:	bd90      	pop	{r4, r7, pc}

80100da6 <my_vprintf>:
80100da6:	b580      	push	{r7, lr}
80100da8:	b086      	sub	sp, #24
80100daa:	af02      	add	r7, sp, #8
80100dac:	6078      	str	r0, [r7, #4]
80100dae:	6039      	str	r1, [r7, #0]
80100db0:	2320      	movs	r3, #32
80100db2:	72fb      	strb	r3, [r7, #11]
80100db4:	2300      	movs	r3, #0
80100db6:	60fb      	str	r3, [r7, #12]
80100db8:	e0c7      	b.n	80100f4a <my_vprintf+0x1a4>
80100dba:	687b      	ldr	r3, [r7, #4]
80100dbc:	781b      	ldrb	r3, [r3, #0]
80100dbe:	2b25      	cmp	r3, #37	; 0x25
80100dc0:	d005      	beq.n	80100dce <my_vprintf+0x28>
80100dc2:	687b      	ldr	r3, [r7, #4]
80100dc4:	781b      	ldrb	r3, [r3, #0]
80100dc6:	4618      	mov	r0, r3
80100dc8:	f7ff ff5e 	bl	80100c88 <outc>
80100dcc:	e0ba      	b.n	80100f44 <my_vprintf+0x19e>
80100dce:	687b      	ldr	r3, [r7, #4]
80100dd0:	3301      	adds	r3, #1
80100dd2:	607b      	str	r3, [r7, #4]
80100dd4:	687b      	ldr	r3, [r7, #4]
80100dd6:	781b      	ldrb	r3, [r3, #0]
80100dd8:	2b30      	cmp	r3, #48	; 0x30
80100dda:	d104      	bne.n	80100de6 <my_vprintf+0x40>
80100ddc:	2330      	movs	r3, #48	; 0x30
80100dde:	72fb      	strb	r3, [r7, #11]
80100de0:	687b      	ldr	r3, [r7, #4]
80100de2:	3301      	adds	r3, #1
80100de4:	607b      	str	r3, [r7, #4]
80100de6:	2320      	movs	r3, #32
80100de8:	72fb      	strb	r3, [r7, #11]
80100dea:	2300      	movs	r3, #0
80100dec:	60fb      	str	r3, [r7, #12]
80100dee:	e00e      	b.n	80100e0e <my_vprintf+0x68>
80100df0:	68fa      	ldr	r2, [r7, #12]
80100df2:	4613      	mov	r3, r2
80100df4:	009b      	lsls	r3, r3, #2
80100df6:	4413      	add	r3, r2
80100df8:	005b      	lsls	r3, r3, #1
80100dfa:	60fb      	str	r3, [r7, #12]
80100dfc:	687b      	ldr	r3, [r7, #4]
80100dfe:	781b      	ldrb	r3, [r3, #0]
80100e00:	3b30      	subs	r3, #48	; 0x30
80100e02:	68fa      	ldr	r2, [r7, #12]
80100e04:	4413      	add	r3, r2
80100e06:	60fb      	str	r3, [r7, #12]
80100e08:	687b      	ldr	r3, [r7, #4]
80100e0a:	3301      	adds	r3, #1
80100e0c:	607b      	str	r3, [r7, #4]
80100e0e:	687b      	ldr	r3, [r7, #4]
80100e10:	781b      	ldrb	r3, [r3, #0]
80100e12:	2b2f      	cmp	r3, #47	; 0x2f
80100e14:	d903      	bls.n	80100e1e <my_vprintf+0x78>
80100e16:	687b      	ldr	r3, [r7, #4]
80100e18:	781b      	ldrb	r3, [r3, #0]
80100e1a:	2b39      	cmp	r3, #57	; 0x39
80100e1c:	d9e8      	bls.n	80100df0 <my_vprintf+0x4a>
80100e1e:	687b      	ldr	r3, [r7, #4]
80100e20:	781b      	ldrb	r3, [r3, #0]
80100e22:	3b63      	subs	r3, #99	; 0x63
80100e24:	2b15      	cmp	r3, #21
80100e26:	f200 8087 	bhi.w	80100f38 <my_vprintf+0x192>
80100e2a:	a201      	add	r2, pc, #4	; (adr r2, 80100e30 <my_vprintf+0x8a>)
80100e2c:	f852 f023 	ldr.w	pc, [r2, r3, lsl #2]
80100e30:	80100f11 	andshi	r0, r0, r1, lsl pc
80100e34:	80100e89 	andshi	r0, r0, r9, lsl #29
80100e38:	80100f39 	andshi	r0, r0, r9, lsr pc
80100e3c:	80100f39 	andshi	r0, r0, r9, lsr pc
80100e40:	80100f39 	andshi	r0, r0, r9, lsr pc
80100e44:	80100f39 	andshi	r0, r0, r9, lsr pc
80100e48:	80100f39 	andshi	r0, r0, r9, lsr pc
80100e4c:	80100f39 	andshi	r0, r0, r9, lsr pc
80100e50:	80100f39 	andshi	r0, r0, r9, lsr pc
80100e54:	80100f39 	andshi	r0, r0, r9, lsr pc
80100e58:	80100f39 	andshi	r0, r0, r9, lsr pc
80100e5c:	80100f39 	andshi	r0, r0, r9, lsr pc
80100e60:	80100eab 	andshi	r0, r0, fp, lsr #29
80100e64:	80100f39 	andshi	r0, r0, r9, lsr pc
80100e68:	80100f39 	andshi	r0, r0, r9, lsr pc
80100e6c:	80100f39 	andshi	r0, r0, r9, lsr pc
80100e70:	80100f25 	andshi	r0, r0, r5, lsr #30
80100e74:	80100f39 	andshi	r0, r0, r9, lsr pc
80100e78:	80100ecd 	andshi	r0, r0, sp, asr #29
80100e7c:	80100f39 	andshi	r0, r0, r9, lsr pc
80100e80:	80100f39 	andshi	r0, r0, r9, lsr pc
80100e84:	80100eef 	andshi	r0, r0, pc, ror #29
80100e88:	683b      	ldr	r3, [r7, #0]
80100e8a:	3304      	adds	r3, #4
80100e8c:	603b      	str	r3, [r7, #0]
80100e8e:	683b      	ldr	r3, [r7, #0]
80100e90:	3b04      	subs	r3, #4
80100e92:	681b      	ldr	r3, [r3, #0]
80100e94:	4618      	mov	r0, r3
80100e96:	ea4f 71e0 	mov.w	r1, r0, asr #31
80100e9a:	7afa      	ldrb	r2, [r7, #11]
80100e9c:	68fb      	ldr	r3, [r7, #12]
80100e9e:	9300      	str	r3, [sp, #0]
80100ea0:	4613      	mov	r3, r2
80100ea2:	220a      	movs	r2, #10
80100ea4:	f7ff ff11 	bl	80100cca <out_num>
80100ea8:	e04c      	b.n	80100f44 <my_vprintf+0x19e>
80100eaa:	683b      	ldr	r3, [r7, #0]
80100eac:	3304      	adds	r3, #4
80100eae:	603b      	str	r3, [r7, #0]
80100eb0:	683b      	ldr	r3, [r7, #0]
80100eb2:	3b04      	subs	r3, #4
80100eb4:	681b      	ldr	r3, [r3, #0]
80100eb6:	4618      	mov	r0, r3
80100eb8:	f04f 0100 	mov.w	r1, #0
80100ebc:	7afa      	ldrb	r2, [r7, #11]
80100ebe:	68fb      	ldr	r3, [r7, #12]
80100ec0:	9300      	str	r3, [sp, #0]
80100ec2:	4613      	mov	r3, r2
80100ec4:	2208      	movs	r2, #8
80100ec6:	f7ff ff00 	bl	80100cca <out_num>
80100eca:	e03b      	b.n	80100f44 <my_vprintf+0x19e>
80100ecc:	683b      	ldr	r3, [r7, #0]
80100ece:	3304      	adds	r3, #4
80100ed0:	603b      	str	r3, [r7, #0]
80100ed2:	683b      	ldr	r3, [r7, #0]
80100ed4:	3b04      	subs	r3, #4
80100ed6:	681b      	ldr	r3, [r3, #0]
80100ed8:	4618      	mov	r0, r3
80100eda:	f04f 0100 	mov.w	r1, #0
80100ede:	7afa      	ldrb	r2, [r7, #11]
80100ee0:	68fb      	ldr	r3, [r7, #12]
80100ee2:	9300      	str	r3, [sp, #0]
80100ee4:	4613      	mov	r3, r2
80100ee6:	220a      	movs	r2, #10
80100ee8:	f7ff feef 	bl	80100cca <out_num>
80100eec:	e02a      	b.n	80100f44 <my_vprintf+0x19e>
80100eee:	683b      	ldr	r3, [r7, #0]
80100ef0:	3304      	adds	r3, #4
80100ef2:	603b      	str	r3, [r7, #0]
80100ef4:	683b      	ldr	r3, [r7, #0]
80100ef6:	3b04      	subs	r3, #4
80100ef8:	681b      	ldr	r3, [r3, #0]
80100efa:	4618      	mov	r0, r3
80100efc:	f04f 0100 	mov.w	r1, #0
80100f00:	7afa      	ldrb	r2, [r7, #11]
80100f02:	68fb      	ldr	r3, [r7, #12]
80100f04:	9300      	str	r3, [sp, #0]
80100f06:	4613      	mov	r3, r2
80100f08:	2210      	movs	r2, #16
80100f0a:	f7ff fede 	bl	80100cca <out_num>
80100f0e:	e019      	b.n	80100f44 <my_vprintf+0x19e>
80100f10:	683b      	ldr	r3, [r7, #0]
80100f12:	3304      	adds	r3, #4
80100f14:	603b      	str	r3, [r7, #0]
80100f16:	683b      	ldr	r3, [r7, #0]
80100f18:	3b04      	subs	r3, #4
80100f1a:	681b      	ldr	r3, [r3, #0]
80100f1c:	4618      	mov	r0, r3
80100f1e:	f7ff feb3 	bl	80100c88 <outc>
80100f22:	e00f      	b.n	80100f44 <my_vprintf+0x19e>
80100f24:	683b      	ldr	r3, [r7, #0]
80100f26:	3304      	adds	r3, #4
80100f28:	603b      	str	r3, [r7, #0]
80100f2a:	683b      	ldr	r3, [r7, #0]
80100f2c:	3b04      	subs	r3, #4
80100f2e:	681b      	ldr	r3, [r3, #0]
80100f30:	4618      	mov	r0, r3
80100f32:	f7ff feb5 	bl	80100ca0 <outs>
80100f36:	e005      	b.n	80100f44 <my_vprintf+0x19e>
80100f38:	687b      	ldr	r3, [r7, #4]
80100f3a:	781b      	ldrb	r3, [r3, #0]
80100f3c:	4618      	mov	r0, r3
80100f3e:	f7ff fea3 	bl	80100c88 <outc>
80100f42:	bf00      	nop
80100f44:	687b      	ldr	r3, [r7, #4]
80100f46:	3301      	adds	r3, #1
80100f48:	607b      	str	r3, [r7, #4]
80100f4a:	687b      	ldr	r3, [r7, #4]
80100f4c:	781b      	ldrb	r3, [r3, #0]
80100f4e:	2b00      	cmp	r3, #0
80100f50:	f47f af33 	bne.w	80100dba <my_vprintf+0x14>
80100f54:	2300      	movs	r3, #0
80100f56:	4618      	mov	r0, r3
80100f58:	3710      	adds	r7, #16
80100f5a:	46bd      	mov	sp, r7
80100f5c:	bd80      	pop	{r7, pc}

80100f5e <printf>:
80100f5e:	b40f      	push	{r0, r1, r2, r3}
80100f60:	b580      	push	{r7, lr}
80100f62:	b082      	sub	sp, #8
80100f64:	af00      	add	r7, sp, #0
80100f66:	f107 0314 	add.w	r3, r7, #20
80100f6a:	607b      	str	r3, [r7, #4]
80100f6c:	693b      	ldr	r3, [r7, #16]
80100f6e:	6879      	ldr	r1, [r7, #4]
80100f70:	4618      	mov	r0, r3
80100f72:	f7ff ff18 	bl	80100da6 <my_vprintf>
80100f76:	2300      	movs	r3, #0
80100f78:	607b      	str	r3, [r7, #4]
80100f7a:	2300      	movs	r3, #0
80100f7c:	4618      	mov	r0, r3
80100f7e:	3708      	adds	r7, #8
80100f80:	46bd      	mov	sp, r7
80100f82:	e8bd 4080 	ldmia.w	sp!, {r7, lr}
80100f86:	b004      	add	sp, #16
80100f88:	4770      	bx	lr

80100f8a <my_printf_test>:
80100f8a:	b580      	push	{r7, lr}
80100f8c:	af00      	add	r7, sp, #0
80100f8e:	f641 3018 	movw	r0, #6936	; 0x1b18
80100f92:	f2c8 0010 	movt	r0, #32784	; 0x8010
80100f96:	f7ff ffe2 	bl	80100f5e <printf>
80100f9a:	2261      	movs	r2, #97	; 0x61
80100f9c:	2141      	movs	r1, #65	; 0x41
80100f9e:	f641 3044 	movw	r0, #6980	; 0x1b44
80100fa2:	f2c8 0010 	movt	r0, #32784	; 0x8010
80100fa6:	f7ff ffda 	bl	80100f5e <printf>
80100faa:	f24e 2140 	movw	r1, #57920	; 0xe240
80100fae:	f2c0 0101 	movt	r1, #1
80100fb2:	f641 3064 	movw	r0, #7012	; 0x1b64
80100fb6:	f2c8 0010 	movt	r0, #32784	; 0x8010
80100fba:	f7ff ffd0 	bl	80100f5e <printf>
80100fbe:	f44f 51ee 	mov.w	r1, #7616	; 0x1dc0
80100fc2:	f6cf 71fe 	movt	r1, #65534	; 0xfffe
80100fc6:	f641 3064 	movw	r0, #7012	; 0x1b64
80100fca:	f2c8 0010 	movt	r0, #32784	; 0x8010
80100fce:	f7ff ffc6 	bl	80100f5e <printf>
80100fd2:	f245 51aa 	movw	r1, #21930	; 0x55aa
80100fd6:	f2c5 51aa 	movt	r1, #21930	; 0x55aa
80100fda:	f641 3080 	movw	r0, #7040	; 0x1b80
80100fde:	f2c8 0010 	movt	r0, #32784	; 0x8010
80100fe2:	f7ff ffbc 	bl	80100f5e <printf>
80100fe6:	f641 319c 	movw	r1, #7068	; 0x1b9c
80100fea:	f2c8 0110 	movt	r1, #32784	; 0x8010
80100fee:	f641 30ac 	movw	r0, #7084	; 0x1bac
80100ff2:	f2c8 0010 	movt	r0, #32784	; 0x8010
80100ff6:	f7ff ffb2 	bl	80100f5e <printf>
80100ffa:	f243 0139 	movw	r1, #12345	; 0x3039
80100ffe:	f641 30c8 	movw	r0, #7112	; 0x1bc8
80101002:	f2c8 0010 	movt	r0, #32784	; 0x8010
80101006:	f7ff ffaa 	bl	80100f5e <printf>
8010100a:	f243 0139 	movw	r1, #12345	; 0x3039
8010100e:	f641 30d4 	movw	r0, #7124	; 0x1bd4
80101012:	f2c8 0010 	movt	r0, #32784	; 0x8010
80101016:	f7ff ffa2 	bl	80100f5e <printf>
8010101a:	f242 3145 	movw	r1, #9029	; 0x2345
8010101e:	f2c0 0101 	movt	r1, #1
80101022:	f641 30e0 	movw	r0, #7136	; 0x1be0
80101026:	f2c8 0010 	movt	r0, #32784	; 0x8010
8010102a:	f7ff ff98 	bl	80100f5e <printf>
8010102e:	f242 3145 	movw	r1, #9029	; 0x2345
80101032:	f2c0 0101 	movt	r1, #1
80101036:	f641 30f0 	movw	r0, #7152	; 0x1bf0
8010103a:	f2c8 0010 	movt	r0, #32784	; 0x8010
8010103e:	f7ff ff8e 	bl	80100f5e <printf>
80101042:	2101      	movs	r1, #1
80101044:	f641 30fc 	movw	r0, #7164	; 0x1bfc
80101048:	f2c8 0010 	movt	r0, #32784	; 0x8010
8010104c:	f7ff ff87 	bl	80100f5e <printf>
80101050:	2101      	movs	r1, #1
80101052:	f641 400c 	movw	r0, #7180	; 0x1c0c
80101056:	f2c8 0010 	movt	r0, #32784	; 0x8010
8010105a:	f7ff ff80 	bl	80100f5e <printf>
8010105e:	2101      	movs	r1, #1
80101060:	f641 4018 	movw	r0, #7192	; 0x1c18
80101064:	f2c8 0010 	movt	r0, #32784	; 0x8010
80101068:	f7ff ff79 	bl	80100f5e <printf>
8010106c:	2101      	movs	r1, #1
8010106e:	f641 4024 	movw	r0, #7204	; 0x1c24
80101072:	f2c8 0010 	movt	r0, #32784	; 0x8010
80101076:	f7ff ff72 	bl	80100f5e <printf>
8010107a:	2300      	movs	r3, #0
8010107c:	4618      	mov	r0, r3
8010107e:	bd80      	pop	{r7, pc}

80101080 <get_gic_base>:
80101080:	b480      	push	{r7}
80101082:	b083      	sub	sp, #12
80101084:	af00      	add	r7, sp, #0
80101086:	ee9f 3f10 	mrc	15, 4, r3, cr15, cr0, {0}
8010108a:	607b      	str	r3, [r7, #4]
8010108c:	687b      	ldr	r3, [r7, #4]
8010108e:	4618      	mov	r0, r3
80101090:	370c      	adds	r7, #12
80101092:	46bd      	mov	sp, r7
80101094:	f85d 7b04 	ldr.w	r7, [sp], #4
80101098:	4770      	bx	lr

8010109a <gic_init>:
8010109a:	b580      	push	{r7, lr}
8010109c:	b084      	sub	sp, #16
8010109e:	af00      	add	r7, sp, #0
801010a0:	f7ff ffee 	bl	80101080 <get_gic_base>
801010a4:	60b8      	str	r0, [r7, #8]
801010a6:	68bb      	ldr	r3, [r7, #8]
801010a8:	f503 5380 	add.w	r3, r3, #4096	; 0x1000
801010ac:	3304      	adds	r3, #4
801010ae:	681b      	ldr	r3, [r3, #0]
801010b0:	f003 031f 	and.w	r3, r3, #31
801010b4:	3301      	adds	r3, #1
801010b6:	607b      	str	r3, [r7, #4]
801010b8:	2300      	movs	r3, #0
801010ba:	60fb      	str	r3, [r7, #12]
801010bc:	e00a      	b.n	801010d4 <gic_init+0x3a>
801010be:	68bb      	ldr	r3, [r7, #8]
801010c0:	68fa      	ldr	r2, [r7, #12]
801010c2:	f502 628c 	add.w	r2, r2, #1120	; 0x460
801010c6:	f04f 31ff 	mov.w	r1, #4294967295	; 0xffffffff
801010ca:	f843 1022 	str.w	r1, [r3, r2, lsl #2]
801010ce:	68fb      	ldr	r3, [r7, #12]
801010d0:	3301      	adds	r3, #1
801010d2:	60fb      	str	r3, [r7, #12]
801010d4:	68fa      	ldr	r2, [r7, #12]
801010d6:	687b      	ldr	r3, [r7, #4]
801010d8:	429a      	cmp	r2, r3
801010da:	d3f0      	bcc.n	801010be <gic_init+0x24>
801010dc:	68bb      	ldr	r3, [r7, #8]
801010de:	f503 5300 	add.w	r3, r3, #8192	; 0x2000
801010e2:	3304      	adds	r3, #4
801010e4:	22f8      	movs	r2, #248	; 0xf8
801010e6:	601a      	str	r2, [r3, #0]
801010e8:	68bb      	ldr	r3, [r7, #8]
801010ea:	f503 5300 	add.w	r3, r3, #8192	; 0x2000
801010ee:	3308      	adds	r3, #8
801010f0:	2202      	movs	r2, #2
801010f2:	601a      	str	r2, [r3, #0]
801010f4:	68bb      	ldr	r3, [r7, #8]
801010f6:	f503 5380 	add.w	r3, r3, #4096	; 0x1000
801010fa:	2201      	movs	r2, #1
801010fc:	601a      	str	r2, [r3, #0]
801010fe:	68bb      	ldr	r3, [r7, #8]
80101100:	f503 5300 	add.w	r3, r3, #8192	; 0x2000
80101104:	2201      	movs	r2, #1
80101106:	601a      	str	r2, [r3, #0]
80101108:	bf00      	nop
8010110a:	3710      	adds	r7, #16
8010110c:	46bd      	mov	sp, r7
8010110e:	bd80      	pop	{r7, pc}

80101110 <gic_enable_irq>:
80101110:	b580      	push	{r7, lr}
80101112:	b084      	sub	sp, #16
80101114:	af00      	add	r7, sp, #0
80101116:	6078      	str	r0, [r7, #4]
80101118:	f7ff ffb2 	bl	80101080 <get_gic_base>
8010111c:	60f8      	str	r0, [r7, #12]
8010111e:	687b      	ldr	r3, [r7, #4]
80101120:	115a      	asrs	r2, r3, #5
80101122:	687b      	ldr	r3, [r7, #4]
80101124:	f003 031f 	and.w	r3, r3, #31
80101128:	2101      	movs	r1, #1
8010112a:	4099      	lsls	r1, r3
8010112c:	68fb      	ldr	r3, [r7, #12]
8010112e:	f502 6288 	add.w	r2, r2, #1088	; 0x440
80101132:	f843 1022 	str.w	r1, [r3, r2, lsl #2]
80101136:	bf00      	nop
80101138:	3710      	adds	r7, #16
8010113a:	46bd      	mov	sp, r7
8010113c:	bd80      	pop	{r7, pc}

8010113e <gic_disable_irq>:
8010113e:	b580      	push	{r7, lr}
80101140:	b084      	sub	sp, #16
80101142:	af00      	add	r7, sp, #0
80101144:	6078      	str	r0, [r7, #4]
80101146:	f7ff ff9b 	bl	80101080 <get_gic_base>
8010114a:	60f8      	str	r0, [r7, #12]
8010114c:	687b      	ldr	r3, [r7, #4]
8010114e:	115a      	asrs	r2, r3, #5
80101150:	687b      	ldr	r3, [r7, #4]
80101152:	f003 031f 	and.w	r3, r3, #31
80101156:	2101      	movs	r1, #1
80101158:	4099      	lsls	r1, r3
8010115a:	68fb      	ldr	r3, [r7, #12]
8010115c:	f502 628c 	add.w	r2, r2, #1120	; 0x460
80101160:	f843 1022 	str.w	r1, [r3, r2, lsl #2]
80101164:	bf00      	nop
80101166:	3710      	adds	r7, #16
80101168:	46bd      	mov	sp, r7
8010116a:	bd80      	pop	{r7, pc}

8010116c <default_irq_handler>:
8010116c:	b580      	push	{r7, lr}
8010116e:	b082      	sub	sp, #8
80101170:	af00      	add	r7, sp, #0
80101172:	6078      	str	r0, [r7, #4]
80101174:	6039      	str	r1, [r7, #0]
80101176:	6879      	ldr	r1, [r7, #4]
80101178:	f641 4030 	movw	r0, #7216	; 0x1c30
8010117c:	f2c8 0010 	movt	r0, #32784	; 0x8010
80101180:	f7ff feed 	bl	80100f5e <printf>
80101184:	bf00      	nop
80101186:	3708      	adds	r7, #8
80101188:	46bd      	mov	sp, r7
8010118a:	bd80      	pop	{r7, pc}

8010118c <request_irq>:
8010118c:	b480      	push	{r7}
8010118e:	b085      	sub	sp, #20
80101190:	af00      	add	r7, sp, #0
80101192:	60f8      	str	r0, [r7, #12]
80101194:	60b9      	str	r1, [r7, #8]
80101196:	607a      	str	r2, [r7, #4]
80101198:	f641 4398 	movw	r3, #7320	; 0x1c98
8010119c:	f2c8 0310 	movt	r3, #32784	; 0x8010
801011a0:	68fa      	ldr	r2, [r7, #12]
801011a2:	68b9      	ldr	r1, [r7, #8]
801011a4:	f843 1032 	str.w	r1, [r3, r2, lsl #3]
801011a8:	f641 4298 	movw	r2, #7320	; 0x1c98
801011ac:	f2c8 0210 	movt	r2, #32784	; 0x8010
801011b0:	68fb      	ldr	r3, [r7, #12]
801011b2:	00db      	lsls	r3, r3, #3
801011b4:	4413      	add	r3, r2
801011b6:	687a      	ldr	r2, [r7, #4]
801011b8:	605a      	str	r2, [r3, #4]
801011ba:	bf00      	nop
801011bc:	3714      	adds	r7, #20
801011be:	46bd      	mov	sp, r7
801011c0:	f85d 7b04 	ldr.w	r7, [sp], #4
801011c4:	4770      	bx	lr

801011c6 <system_init_irq_table>:
801011c6:	b580      	push	{r7, lr}
801011c8:	b082      	sub	sp, #8
801011ca:	af00      	add	r7, sp, #0
801011cc:	2300      	movs	r3, #0
801011ce:	607b      	str	r3, [r7, #4]
801011d0:	e00b      	b.n	801011ea <system_init_irq_table+0x24>
801011d2:	687b      	ldr	r3, [r7, #4]
801011d4:	2200      	movs	r2, #0
801011d6:	f241 116d 	movw	r1, #4461	; 0x116d
801011da:	f2c8 0110 	movt	r1, #32784	; 0x8010
801011de:	4618      	mov	r0, r3
801011e0:	f7ff ffd4 	bl	8010118c <request_irq>
801011e4:	687b      	ldr	r3, [r7, #4]
801011e6:	3301      	adds	r3, #1
801011e8:	607b      	str	r3, [r7, #4]
801011ea:	687b      	ldr	r3, [r7, #4]
801011ec:	2b9e      	cmp	r3, #158	; 0x9e
801011ee:	d9f0      	bls.n	801011d2 <system_init_irq_table+0xc>
801011f0:	bf00      	nop
801011f2:	3708      	adds	r7, #8
801011f4:	46bd      	mov	sp, r7
801011f6:	bd80      	pop	{r7, pc}

801011f8 <handle_irq_c>:
801011f8:	b590      	push	{r4, r7, lr}
801011fa:	b083      	sub	sp, #12
801011fc:	af00      	add	r7, sp, #0
801011fe:	f7ff ff3f 	bl	80101080 <get_gic_base>
80101202:	6078      	str	r0, [r7, #4]
80101204:	687b      	ldr	r3, [r7, #4]
80101206:	f503 5300 	add.w	r3, r3, #8192	; 0x2000
8010120a:	330c      	adds	r3, #12
8010120c:	681b      	ldr	r3, [r3, #0]
8010120e:	603b      	str	r3, [r7, #0]
80101210:	6839      	ldr	r1, [r7, #0]
80101212:	f641 4064 	movw	r0, #7268	; 0x1c64
80101216:	f2c8 0010 	movt	r0, #32784	; 0x8010
8010121a:	f7ff fea0 	bl	80100f5e <printf>
8010121e:	f641 4398 	movw	r3, #7320	; 0x1c98
80101222:	f2c8 0310 	movt	r3, #32784	; 0x8010
80101226:	683a      	ldr	r2, [r7, #0]
80101228:	f853 4032 	ldr.w	r4, [r3, r2, lsl #3]
8010122c:	6838      	ldr	r0, [r7, #0]
8010122e:	f641 4298 	movw	r2, #7320	; 0x1c98
80101232:	f2c8 0210 	movt	r2, #32784	; 0x8010
80101236:	683b      	ldr	r3, [r7, #0]
80101238:	00db      	lsls	r3, r3, #3
8010123a:	4413      	add	r3, r2
8010123c:	685b      	ldr	r3, [r3, #4]
8010123e:	4619      	mov	r1, r3
80101240:	47a0      	blx	r4
80101242:	683a      	ldr	r2, [r7, #0]
80101244:	687b      	ldr	r3, [r7, #4]
80101246:	f503 5300 	add.w	r3, r3, #8192	; 0x2000
8010124a:	3310      	adds	r3, #16
8010124c:	601a      	str	r2, [r3, #0]
8010124e:	bf00      	nop
80101250:	370c      	adds	r7, #12
80101252:	46bd      	mov	sp, r7
80101254:	bd90      	pop	{r4, r7, pc}

80101256 <epit_init>:
80101256:	b480      	push	{r7}
80101258:	b083      	sub	sp, #12
8010125a:	af00      	add	r7, sp, #0
8010125c:	6078      	str	r0, [r7, #4]
8010125e:	6039      	str	r1, [r7, #0]
80101260:	687b      	ldr	r3, [r7, #4]
80101262:	2200      	movs	r2, #0
80101264:	601a      	str	r2, [r3, #0]
80101266:	687b      	ldr	r3, [r7, #4]
80101268:	681b      	ldr	r3, [r3, #0]
8010126a:	f443 3280 	orr.w	r2, r3, #65536	; 0x10000
8010126e:	687b      	ldr	r3, [r7, #4]
80101270:	601a      	str	r2, [r3, #0]
80101272:	bf00      	nop
80101274:	687b      	ldr	r3, [r7, #4]
80101276:	681b      	ldr	r3, [r3, #0]
80101278:	f403 3380 	and.w	r3, r3, #65536	; 0x10000
8010127c:	2b00      	cmp	r3, #0
8010127e:	d1f9      	bne.n	80101274 <epit_init+0x1e>
80101280:	687b      	ldr	r3, [r7, #4]
80101282:	681b      	ldr	r3, [r3, #0]
80101284:	f443 1320 	orr.w	r3, r3, #2621440	; 0x280000
80101288:	f043 030a 	orr.w	r3, r3, #10
8010128c:	687a      	ldr	r2, [r7, #4]
8010128e:	6013      	str	r3, [r2, #0]
80101290:	687b      	ldr	r3, [r7, #4]
80101292:	681a      	ldr	r2, [r3, #0]
80101294:	230f      	movs	r3, #15
80101296:	f6cf 43ff 	movt	r3, #64767	; 0xfcff
8010129a:	4013      	ands	r3, r2
8010129c:	687a      	ldr	r2, [r7, #4]
8010129e:	6013      	str	r3, [r2, #0]
801012a0:	687b      	ldr	r3, [r7, #4]
801012a2:	681b      	ldr	r3, [r3, #0]
801012a4:	f043 7280 	orr.w	r2, r3, #16777216	; 0x1000000
801012a8:	687b      	ldr	r3, [r7, #4]
801012aa:	601a      	str	r2, [r3, #0]
801012ac:	687b      	ldr	r3, [r7, #4]
801012ae:	2200      	movs	r2, #0
801012b0:	60da      	str	r2, [r3, #12]
801012b2:	683a      	ldr	r2, [r7, #0]
801012b4:	4613      	mov	r3, r2
801012b6:	015b      	lsls	r3, r3, #5
801012b8:	4413      	add	r3, r2
801012ba:	005b      	lsls	r3, r3, #1
801012bc:	461a      	mov	r2, r3
801012be:	687b      	ldr	r3, [r7, #4]
801012c0:	609a      	str	r2, [r3, #8]
801012c2:	bf00      	nop
801012c4:	370c      	adds	r7, #12
801012c6:	46bd      	mov	sp, r7
801012c8:	f85d 7b04 	ldr.w	r7, [sp], #4
801012cc:	4770      	bx	lr

801012ce <epit_enable_interrupt>:
801012ce:	b480      	push	{r7}
801012d0:	b083      	sub	sp, #12
801012d2:	af00      	add	r7, sp, #0
801012d4:	6078      	str	r0, [r7, #4]
801012d6:	6039      	str	r1, [r7, #0]
801012d8:	683b      	ldr	r3, [r7, #0]
801012da:	2b00      	cmp	r3, #0
801012dc:	d006      	beq.n	801012ec <epit_enable_interrupt+0x1e>
801012de:	687b      	ldr	r3, [r7, #4]
801012e0:	681b      	ldr	r3, [r3, #0]
801012e2:	f043 0204 	orr.w	r2, r3, #4
801012e6:	687b      	ldr	r3, [r7, #4]
801012e8:	601a      	str	r2, [r3, #0]
801012ea:	e005      	b.n	801012f8 <epit_enable_interrupt+0x2a>
801012ec:	687b      	ldr	r3, [r7, #4]
801012ee:	681b      	ldr	r3, [r3, #0]
801012f0:	f023 0204 	bic.w	r2, r3, #4
801012f4:	687b      	ldr	r3, [r7, #4]
801012f6:	601a      	str	r2, [r3, #0]
801012f8:	bf00      	nop
801012fa:	370c      	adds	r7, #12
801012fc:	46bd      	mov	sp, r7
801012fe:	f85d 7b04 	ldr.w	r7, [sp], #4
80101302:	4770      	bx	lr

80101304 <epit_run>:
80101304:	b480      	push	{r7}
80101306:	b083      	sub	sp, #12
80101308:	af00      	add	r7, sp, #0
8010130a:	6078      	str	r0, [r7, #4]
8010130c:	6039      	str	r1, [r7, #0]
8010130e:	683b      	ldr	r3, [r7, #0]
80101310:	2b00      	cmp	r3, #0
80101312:	d006      	beq.n	80101322 <epit_run+0x1e>
80101314:	687b      	ldr	r3, [r7, #4]
80101316:	681b      	ldr	r3, [r3, #0]
80101318:	f043 0201 	orr.w	r2, r3, #1
8010131c:	687b      	ldr	r3, [r7, #4]
8010131e:	601a      	str	r2, [r3, #0]
80101320:	e005      	b.n	8010132e <epit_run+0x2a>
80101322:	687b      	ldr	r3, [r7, #4]
80101324:	681b      	ldr	r3, [r3, #0]
80101326:	f023 0201 	bic.w	r2, r3, #1
8010132a:	687b      	ldr	r3, [r7, #4]
8010132c:	601a      	str	r2, [r3, #0]
8010132e:	bf00      	nop
80101330:	370c      	adds	r7, #12
80101332:	46bd      	mov	sp, r7
80101334:	f85d 7b04 	ldr.w	r7, [sp], #4
80101338:	4770      	bx	lr

8010133a <epit_poll_init>:
8010133a:	b480      	push	{r7}
8010133c:	b083      	sub	sp, #12
8010133e:	af00      	add	r7, sp, #0
80101340:	6078      	str	r0, [r7, #4]
80101342:	687b      	ldr	r3, [r7, #4]
80101344:	2200      	movs	r2, #0
80101346:	601a      	str	r2, [r3, #0]
80101348:	687b      	ldr	r3, [r7, #4]
8010134a:	681b      	ldr	r3, [r3, #0]
8010134c:	f443 3280 	orr.w	r2, r3, #65536	; 0x10000
80101350:	687b      	ldr	r3, [r7, #4]
80101352:	601a      	str	r2, [r3, #0]
80101354:	bf00      	nop
80101356:	687b      	ldr	r3, [r7, #4]
80101358:	681b      	ldr	r3, [r3, #0]
8010135a:	f403 3380 	and.w	r3, r3, #65536	; 0x10000
8010135e:	2b00      	cmp	r3, #0
80101360:	d1f9      	bne.n	80101356 <epit_poll_init+0x1c>
80101362:	687b      	ldr	r3, [r7, #4]
80101364:	681b      	ldr	r3, [r3, #0]
80101366:	f443 1328 	orr.w	r3, r3, #2752512	; 0x2a0000
8010136a:	f043 030a 	orr.w	r3, r3, #10
8010136e:	687a      	ldr	r2, [r7, #4]
80101370:	6013      	str	r3, [r2, #0]
80101372:	687b      	ldr	r3, [r7, #4]
80101374:	681a      	ldr	r2, [r3, #0]
80101376:	230f      	movs	r3, #15
80101378:	f6cf 43ff 	movt	r3, #64767	; 0xfcff
8010137c:	4013      	ands	r3, r2
8010137e:	687a      	ldr	r2, [r7, #4]
80101380:	6013      	str	r3, [r2, #0]
80101382:	687b      	ldr	r3, [r7, #4]
80101384:	681b      	ldr	r3, [r3, #0]
80101386:	f043 7280 	orr.w	r2, r3, #16777216	; 0x1000000
8010138a:	687b      	ldr	r3, [r7, #4]
8010138c:	601a      	str	r2, [r3, #0]
8010138e:	687b      	ldr	r3, [r7, #4]
80101390:	2200      	movs	r2, #0
80101392:	60da      	str	r2, [r3, #12]
80101394:	687b      	ldr	r3, [r7, #4]
80101396:	681b      	ldr	r3, [r3, #0]
80101398:	f043 0204 	orr.w	r2, r3, #4
8010139c:	687b      	ldr	r3, [r7, #4]
8010139e:	601a      	str	r2, [r3, #0]
801013a0:	bf00      	nop
801013a2:	370c      	adds	r7, #12
801013a4:	46bd      	mov	sp, r7
801013a6:	f85d 7b04 	ldr.w	r7, [sp], #4
801013aa:	4770      	bx	lr

801013ac <epit_poll_restart>:
801013ac:	b580      	push	{r7, lr}
801013ae:	b082      	sub	sp, #8
801013b0:	af00      	add	r7, sp, #0
801013b2:	6078      	str	r0, [r7, #4]
801013b4:	6039      	str	r1, [r7, #0]
801013b6:	2100      	movs	r1, #0
801013b8:	6878      	ldr	r0, [r7, #4]
801013ba:	f7ff ffa3 	bl	80101304 <epit_run>
801013be:	683a      	ldr	r2, [r7, #0]
801013c0:	4613      	mov	r3, r2
801013c2:	015b      	lsls	r3, r3, #5
801013c4:	4413      	add	r3, r2
801013c6:	005b      	lsls	r3, r3, #1
801013c8:	461a      	mov	r2, r3
801013ca:	687b      	ldr	r3, [r7, #4]
801013cc:	609a      	str	r2, [r3, #8]
801013ce:	2300      	movs	r3, #0
801013d0:	f2c0 230d 	movt	r3, #525	; 0x20d
801013d4:	2200      	movs	r2, #0
801013d6:	f2c0 220d 	movt	r2, #525	; 0x20d
801013da:	6852      	ldr	r2, [r2, #4]
801013dc:	f042 0201 	orr.w	r2, r2, #1
801013e0:	605a      	str	r2, [r3, #4]
801013e2:	2101      	movs	r1, #1
801013e4:	6878      	ldr	r0, [r7, #4]
801013e6:	f7ff ff8d 	bl	80101304 <epit_run>
801013ea:	bf00      	nop
801013ec:	2300      	movs	r3, #0
801013ee:	f2c0 230d 	movt	r3, #525	; 0x20d
801013f2:	685b      	ldr	r3, [r3, #4]
801013f4:	f003 0301 	and.w	r3, r3, #1
801013f8:	2b00      	cmp	r3, #0
801013fa:	d0f7      	beq.n	801013ec <epit_poll_restart+0x40>
801013fc:	2300      	movs	r3, #0
801013fe:	f2c0 230d 	movt	r3, #525	; 0x20d
80101402:	2200      	movs	r2, #0
80101404:	f2c0 220d 	movt	r2, #525	; 0x20d
80101408:	6852      	ldr	r2, [r2, #4]
8010140a:	f042 0201 	orr.w	r2, r2, #1
8010140e:	605a      	str	r2, [r3, #4]
80101410:	bf00      	nop
80101412:	3708      	adds	r7, #8
80101414:	46bd      	mov	sp, r7
80101416:	bd80      	pop	{r7, pc}

80101418 <gpt_init>:
80101418:	b480      	push	{r7}
8010141a:	b085      	sub	sp, #20
8010141c:	af00      	add	r7, sp, #0
8010141e:	60f8      	str	r0, [r7, #12]
80101420:	60b9      	str	r1, [r7, #8]
80101422:	607a      	str	r2, [r7, #4]
80101424:	68fb      	ldr	r3, [r7, #12]
80101426:	681b      	ldr	r3, [r3, #0]
80101428:	f443 4200 	orr.w	r2, r3, #32768	; 0x8000
8010142c:	68fb      	ldr	r3, [r7, #12]
8010142e:	601a      	str	r2, [r3, #0]
80101430:	bf00      	nop
80101432:	68fb      	ldr	r3, [r7, #12]
80101434:	681b      	ldr	r3, [r3, #0]
80101436:	0bdb      	lsrs	r3, r3, #15
80101438:	f003 0301 	and.w	r3, r3, #1
8010143c:	2b00      	cmp	r3, #0
8010143e:	d1f8      	bne.n	80101432 <gpt_init+0x1a>
80101440:	68fb      	ldr	r3, [r7, #12]
80101442:	226a      	movs	r2, #106	; 0x6a
80101444:	601a      	str	r2, [r3, #0]
80101446:	68fb      	ldr	r3, [r7, #12]
80101448:	2200      	movs	r2, #0
8010144a:	605a      	str	r2, [r3, #4]
8010144c:	687a      	ldr	r2, [r7, #4]
8010144e:	4613      	mov	r3, r2
80101450:	015b      	lsls	r3, r3, #5
80101452:	4413      	add	r3, r2
80101454:	005b      	lsls	r3, r3, #1
80101456:	3b01      	subs	r3, #1
80101458:	4619      	mov	r1, r3
8010145a:	68fb      	ldr	r3, [r7, #12]
8010145c:	68ba      	ldr	r2, [r7, #8]
8010145e:	3204      	adds	r2, #4
80101460:	f843 1022 	str.w	r1, [r3, r2, lsl #2]
80101464:	bf00      	nop
80101466:	3714      	adds	r7, #20
80101468:	46bd      	mov	sp, r7
8010146a:	f85d 7b04 	ldr.w	r7, [sp], #4
8010146e:	4770      	bx	lr

80101470 <gpt_run>:
80101470:	b480      	push	{r7}
80101472:	b083      	sub	sp, #12
80101474:	af00      	add	r7, sp, #0
80101476:	6078      	str	r0, [r7, #4]
80101478:	6039      	str	r1, [r7, #0]
8010147a:	683b      	ldr	r3, [r7, #0]
8010147c:	2b00      	cmp	r3, #0
8010147e:	d006      	beq.n	8010148e <gpt_run+0x1e>
80101480:	687b      	ldr	r3, [r7, #4]
80101482:	681b      	ldr	r3, [r3, #0]
80101484:	f043 0201 	orr.w	r2, r3, #1
80101488:	687b      	ldr	r3, [r7, #4]
8010148a:	601a      	str	r2, [r3, #0]
8010148c:	e005      	b.n	8010149a <gpt_run+0x2a>
8010148e:	687b      	ldr	r3, [r7, #4]
80101490:	681b      	ldr	r3, [r3, #0]
80101492:	f023 0201 	bic.w	r2, r3, #1
80101496:	687b      	ldr	r3, [r7, #4]
80101498:	601a      	str	r2, [r3, #0]
8010149a:	bf00      	nop
8010149c:	370c      	adds	r7, #12
8010149e:	46bd      	mov	sp, r7
801014a0:	f85d 7b04 	ldr.w	r7, [sp], #4
801014a4:	4770      	bx	lr

801014a6 <gpt_enable_interrupt>:
801014a6:	b480      	push	{r7}
801014a8:	b085      	sub	sp, #20
801014aa:	af00      	add	r7, sp, #0
801014ac:	60f8      	str	r0, [r7, #12]
801014ae:	60b9      	str	r1, [r7, #8]
801014b0:	607a      	str	r2, [r7, #4]
801014b2:	687b      	ldr	r3, [r7, #4]
801014b4:	2b00      	cmp	r3, #0
801014b6:	d009      	beq.n	801014cc <gpt_enable_interrupt+0x26>
801014b8:	68fb      	ldr	r3, [r7, #12]
801014ba:	68db      	ldr	r3, [r3, #12]
801014bc:	2101      	movs	r1, #1
801014be:	68ba      	ldr	r2, [r7, #8]
801014c0:	fa01 f202 	lsl.w	r2, r1, r2
801014c4:	431a      	orrs	r2, r3
801014c6:	68fb      	ldr	r3, [r7, #12]
801014c8:	60da      	str	r2, [r3, #12]
801014ca:	e009      	b.n	801014e0 <gpt_enable_interrupt+0x3a>
801014cc:	68fb      	ldr	r3, [r7, #12]
801014ce:	68db      	ldr	r3, [r3, #12]
801014d0:	2101      	movs	r1, #1
801014d2:	68ba      	ldr	r2, [r7, #8]
801014d4:	fa01 f202 	lsl.w	r2, r1, r2
801014d8:	43d2      	mvns	r2, r2
801014da:	401a      	ands	r2, r3
801014dc:	68fb      	ldr	r3, [r7, #12]
801014de:	60da      	str	r2, [r3, #12]
801014e0:	bf00      	nop
801014e2:	3714      	adds	r7, #20
801014e4:	46bd      	mov	sp, r7
801014e6:	f85d 7b04 	ldr.w	r7, [sp], #4
801014ea:	4770      	bx	lr

801014ec <gpt_clear_int_status>:
801014ec:	b480      	push	{r7}
801014ee:	b083      	sub	sp, #12
801014f0:	af00      	add	r7, sp, #0
801014f2:	6078      	str	r0, [r7, #4]
801014f4:	6039      	str	r1, [r7, #0]
801014f6:	687b      	ldr	r3, [r7, #4]
801014f8:	689b      	ldr	r3, [r3, #8]
801014fa:	2101      	movs	r1, #1
801014fc:	683a      	ldr	r2, [r7, #0]
801014fe:	fa01 f202 	lsl.w	r2, r1, r2
80101502:	431a      	orrs	r2, r3
80101504:	687b      	ldr	r3, [r7, #4]
80101506:	609a      	str	r2, [r3, #8]
80101508:	bf00      	nop
8010150a:	370c      	adds	r7, #12
8010150c:	46bd      	mov	sp, r7
8010150e:	f85d 7b04 	ldr.w	r7, [sp], #4
80101512:	4770      	bx	lr

80101514 <gpt2_chan1_delay_us>:
80101514:	b480      	push	{r7}
80101516:	b085      	sub	sp, #20
80101518:	af00      	add	r7, sp, #0
8010151a:	6078      	str	r0, [r7, #4]
8010151c:	687a      	ldr	r2, [r7, #4]
8010151e:	4613      	mov	r3, r2
80101520:	015b      	lsls	r3, r3, #5
80101522:	4413      	add	r3, r2
80101524:	005b      	lsls	r3, r3, #1
80101526:	60fb      	str	r3, [r7, #12]
80101528:	f44f 4300 	mov.w	r3, #32768	; 0x8000
8010152c:	f2c0 230e 	movt	r3, #526	; 0x20e
80101530:	f44f 4200 	mov.w	r2, #32768	; 0x8000
80101534:	f2c0 220e 	movt	r2, #526	; 0x20e
80101538:	6812      	ldr	r2, [r2, #0]
8010153a:	f442 4200 	orr.w	r2, r2, #32768	; 0x8000
8010153e:	601a      	str	r2, [r3, #0]
80101540:	bf00      	nop
80101542:	f44f 4300 	mov.w	r3, #32768	; 0x8000
80101546:	f2c0 230e 	movt	r3, #526	; 0x20e
8010154a:	681b      	ldr	r3, [r3, #0]
8010154c:	0bdb      	lsrs	r3, r3, #15
8010154e:	f003 0301 	and.w	r3, r3, #1
80101552:	2b00      	cmp	r3, #0
80101554:	d1f5      	bne.n	80101542 <gpt2_chan1_delay_us+0x2e>
80101556:	f44f 4300 	mov.w	r3, #32768	; 0x8000
8010155a:	f2c0 230e 	movt	r3, #526	; 0x20e
8010155e:	226a      	movs	r2, #106	; 0x6a
80101560:	601a      	str	r2, [r3, #0]
80101562:	f44f 4300 	mov.w	r3, #32768	; 0x8000
80101566:	f2c0 230e 	movt	r3, #526	; 0x20e
8010156a:	2200      	movs	r2, #0
8010156c:	605a      	str	r2, [r3, #4]
8010156e:	f44f 4300 	mov.w	r3, #32768	; 0x8000
80101572:	f2c0 230e 	movt	r3, #526	; 0x20e
80101576:	68fa      	ldr	r2, [r7, #12]
80101578:	611a      	str	r2, [r3, #16]
8010157a:	f44f 4300 	mov.w	r3, #32768	; 0x8000
8010157e:	f2c0 230e 	movt	r3, #526	; 0x20e
80101582:	2201      	movs	r2, #1
80101584:	60da      	str	r2, [r3, #12]
80101586:	f44f 4300 	mov.w	r3, #32768	; 0x8000
8010158a:	f2c0 230e 	movt	r3, #526	; 0x20e
8010158e:	f44f 4200 	mov.w	r2, #32768	; 0x8000
80101592:	f2c0 220e 	movt	r2, #526	; 0x20e
80101596:	6812      	ldr	r2, [r2, #0]
80101598:	f042 0201 	orr.w	r2, r2, #1
8010159c:	601a      	str	r2, [r3, #0]
8010159e:	bf00      	nop
801015a0:	f44f 4300 	mov.w	r3, #32768	; 0x8000
801015a4:	f2c0 230e 	movt	r3, #526	; 0x20e
801015a8:	689b      	ldr	r3, [r3, #8]
801015aa:	f003 0301 	and.w	r3, r3, #1
801015ae:	2b00      	cmp	r3, #0
801015b0:	d0f6      	beq.n	801015a0 <gpt2_chan1_delay_us+0x8c>
801015b2:	f44f 4300 	mov.w	r3, #32768	; 0x8000
801015b6:	f2c0 230e 	movt	r3, #526	; 0x20e
801015ba:	f44f 4200 	mov.w	r2, #32768	; 0x8000
801015be:	f2c0 220e 	movt	r2, #526	; 0x20e
801015c2:	6812      	ldr	r2, [r2, #0]
801015c4:	f022 0201 	bic.w	r2, r2, #1
801015c8:	601a      	str	r2, [r3, #0]
801015ca:	f44f 4300 	mov.w	r3, #32768	; 0x8000
801015ce:	f2c0 230e 	movt	r3, #526	; 0x20e
801015d2:	2201      	movs	r2, #1
801015d4:	609a      	str	r2, [r3, #8]
801015d6:	bf00      	nop
801015d8:	3714      	adds	r7, #20
801015da:	46bd      	mov	sp, r7
801015dc:	f85d 7b04 	ldr.w	r7, [sp], #4
801015e0:	4770      	bx	lr

801015e2 <gpt_poll_init>:
801015e2:	b480      	push	{r7}
801015e4:	b083      	sub	sp, #12
801015e6:	af00      	add	r7, sp, #0
801015e8:	6078      	str	r0, [r7, #4]
801015ea:	687b      	ldr	r3, [r7, #4]
801015ec:	681b      	ldr	r3, [r3, #0]
801015ee:	f443 4200 	orr.w	r2, r3, #32768	; 0x8000
801015f2:	687b      	ldr	r3, [r7, #4]
801015f4:	601a      	str	r2, [r3, #0]
801015f6:	bf00      	nop
801015f8:	687b      	ldr	r3, [r7, #4]
801015fa:	681b      	ldr	r3, [r3, #0]
801015fc:	0bdb      	lsrs	r3, r3, #15
801015fe:	f003 0301 	and.w	r3, r3, #1
80101602:	2b00      	cmp	r3, #0
80101604:	d1f8      	bne.n	801015f8 <gpt_poll_init+0x16>
80101606:	687b      	ldr	r3, [r7, #4]
80101608:	226a      	movs	r2, #106	; 0x6a
8010160a:	601a      	str	r2, [r3, #0]
8010160c:	687b      	ldr	r3, [r7, #4]
8010160e:	2200      	movs	r2, #0
80101610:	605a      	str	r2, [r3, #4]
80101612:	bf00      	nop
80101614:	370c      	adds	r7, #12
80101616:	46bd      	mov	sp, r7
80101618:	f85d 7b04 	ldr.w	r7, [sp], #4
8010161c:	4770      	bx	lr

8010161e <gpt_poll_restart>:
8010161e:	b480      	push	{r7}
80101620:	b085      	sub	sp, #20
80101622:	af00      	add	r7, sp, #0
80101624:	60f8      	str	r0, [r7, #12]
80101626:	60b9      	str	r1, [r7, #8]
80101628:	607a      	str	r2, [r7, #4]
8010162a:	687a      	ldr	r2, [r7, #4]
8010162c:	4613      	mov	r3, r2
8010162e:	015b      	lsls	r3, r3, #5
80101630:	4413      	add	r3, r2
80101632:	005b      	lsls	r3, r3, #1
80101634:	1e59      	subs	r1, r3, #1
80101636:	68fb      	ldr	r3, [r7, #12]
80101638:	68ba      	ldr	r2, [r7, #8]
8010163a:	3204      	adds	r2, #4
8010163c:	f843 1022 	str.w	r1, [r3, r2, lsl #2]
80101640:	68fb      	ldr	r3, [r7, #12]
80101642:	689b      	ldr	r3, [r3, #8]
80101644:	2101      	movs	r1, #1
80101646:	68ba      	ldr	r2, [r7, #8]
80101648:	fa01 f202 	lsl.w	r2, r1, r2
8010164c:	431a      	orrs	r2, r3
8010164e:	68fb      	ldr	r3, [r7, #12]
80101650:	609a      	str	r2, [r3, #8]
80101652:	68fb      	ldr	r3, [r7, #12]
80101654:	68db      	ldr	r3, [r3, #12]
80101656:	2101      	movs	r1, #1
80101658:	68ba      	ldr	r2, [r7, #8]
8010165a:	fa01 f202 	lsl.w	r2, r1, r2
8010165e:	431a      	orrs	r2, r3
80101660:	68fb      	ldr	r3, [r7, #12]
80101662:	60da      	str	r2, [r3, #12]
80101664:	68fb      	ldr	r3, [r7, #12]
80101666:	681b      	ldr	r3, [r3, #0]
80101668:	f043 0201 	orr.w	r2, r3, #1
8010166c:	68fb      	ldr	r3, [r7, #12]
8010166e:	601a      	str	r2, [r3, #0]
80101670:	bf00      	nop
80101672:	68fb      	ldr	r3, [r7, #12]
80101674:	689a      	ldr	r2, [r3, #8]
80101676:	68bb      	ldr	r3, [r7, #8]
80101678:	fa22 f303 	lsr.w	r3, r2, r3
8010167c:	f003 0301 	and.w	r3, r3, #1
80101680:	2b00      	cmp	r3, #0
80101682:	d0f6      	beq.n	80101672 <gpt_poll_restart+0x54>
80101684:	68fb      	ldr	r3, [r7, #12]
80101686:	681b      	ldr	r3, [r3, #0]
80101688:	f023 0201 	bic.w	r2, r3, #1
8010168c:	68fb      	ldr	r3, [r7, #12]
8010168e:	601a      	str	r2, [r3, #0]
80101690:	68fb      	ldr	r3, [r7, #12]
80101692:	68db      	ldr	r3, [r3, #12]
80101694:	2101      	movs	r1, #1
80101696:	68ba      	ldr	r2, [r7, #8]
80101698:	fa01 f202 	lsl.w	r2, r1, r2
8010169c:	43d2      	mvns	r2, r2
8010169e:	401a      	ands	r2, r3
801016a0:	68fb      	ldr	r3, [r7, #12]
801016a2:	60da      	str	r2, [r3, #12]
801016a4:	68fb      	ldr	r3, [r7, #12]
801016a6:	689b      	ldr	r3, [r3, #8]
801016a8:	2101      	movs	r1, #1
801016aa:	68ba      	ldr	r2, [r7, #8]
801016ac:	fa01 f202 	lsl.w	r2, r1, r2
801016b0:	431a      	orrs	r2, r3
801016b2:	68fb      	ldr	r3, [r7, #12]
801016b4:	609a      	str	r2, [r3, #8]
801016b6:	bf00      	nop
801016b8:	3714      	adds	r7, #20
801016ba:	46bd      	mov	sp, r7
801016bc:	f85d 7b04 	ldr.w	r7, [sp], #4
801016c0:	4770      	bx	lr
801016c2:	0000      	movs	r0, r0
801016c4:	0000      	movs	r0, r0
	...

801016c8 <__aeabi_uidiv>:
801016c8:	1e4a      	subs	r2, r1, #1
801016ca:	bf08      	it	eq
801016cc:	4770      	bxeq	lr
801016ce:	f0c0 8124 	bcc.w	8010191a <__aeabi_uidiv+0x252>
801016d2:	4288      	cmp	r0, r1
801016d4:	f240 8116 	bls.w	80101904 <__aeabi_uidiv+0x23c>
801016d8:	4211      	tst	r1, r2
801016da:	f000 8117 	beq.w	8010190c <__aeabi_uidiv+0x244>
801016de:	fab0 f380 	clz	r3, r0
801016e2:	fab1 f281 	clz	r2, r1
801016e6:	eba2 0303 	sub.w	r3, r2, r3
801016ea:	f1c3 031f 	rsb	r3, r3, #31
801016ee:	a204      	add	r2, pc, #16	; (adr r2, 80101700 <__aeabi_uidiv+0x38>)
801016f0:	eb02 1303 	add.w	r3, r2, r3, lsl #4
801016f4:	f04f 0200 	mov.w	r2, #0
801016f8:	469f      	mov	pc, r3
801016fa:	bf00      	nop
801016fc:	f3af 8000 	nop.w
80101700:	ebb0 7fc1 	cmp.w	r0, r1, lsl #31
80101704:	bf00      	nop
80101706:	eb42 0202 	adc.w	r2, r2, r2
8010170a:	bf28      	it	cs
8010170c:	eba0 70c1 	subcs.w	r0, r0, r1, lsl #31
80101710:	ebb0 7f81 	cmp.w	r0, r1, lsl #30
80101714:	bf00      	nop
80101716:	eb42 0202 	adc.w	r2, r2, r2
8010171a:	bf28      	it	cs
8010171c:	eba0 7081 	subcs.w	r0, r0, r1, lsl #30
80101720:	ebb0 7f41 	cmp.w	r0, r1, lsl #29
80101724:	bf00      	nop
80101726:	eb42 0202 	adc.w	r2, r2, r2
8010172a:	bf28      	it	cs
8010172c:	eba0 7041 	subcs.w	r0, r0, r1, lsl #29
80101730:	ebb0 7f01 	cmp.w	r0, r1, lsl #28
80101734:	bf00      	nop
80101736:	eb42 0202 	adc.w	r2, r2, r2
8010173a:	bf28      	it	cs
8010173c:	eba0 7001 	subcs.w	r0, r0, r1, lsl #28
80101740:	ebb0 6fc1 	cmp.w	r0, r1, lsl #27
80101744:	bf00      	nop
80101746:	eb42 0202 	adc.w	r2, r2, r2
8010174a:	bf28      	it	cs
8010174c:	eba0 60c1 	subcs.w	r0, r0, r1, lsl #27
80101750:	ebb0 6f81 	cmp.w	r0, r1, lsl #26
80101754:	bf00      	nop
80101756:	eb42 0202 	adc.w	r2, r2, r2
8010175a:	bf28      	it	cs
8010175c:	eba0 6081 	subcs.w	r0, r0, r1, lsl #26
80101760:	ebb0 6f41 	cmp.w	r0, r1, lsl #25
80101764:	bf00      	nop
80101766:	eb42 0202 	adc.w	r2, r2, r2
8010176a:	bf28      	it	cs
8010176c:	eba0 6041 	subcs.w	r0, r0, r1, lsl #25
80101770:	ebb0 6f01 	cmp.w	r0, r1, lsl #24
80101774:	bf00      	nop
80101776:	eb42 0202 	adc.w	r2, r2, r2
8010177a:	bf28      	it	cs
8010177c:	eba0 6001 	subcs.w	r0, r0, r1, lsl #24
80101780:	ebb0 5fc1 	cmp.w	r0, r1, lsl #23
80101784:	bf00      	nop
80101786:	eb42 0202 	adc.w	r2, r2, r2
8010178a:	bf28      	it	cs
8010178c:	eba0 50c1 	subcs.w	r0, r0, r1, lsl #23
80101790:	ebb0 5f81 	cmp.w	r0, r1, lsl #22
80101794:	bf00      	nop
80101796:	eb42 0202 	adc.w	r2, r2, r2
8010179a:	bf28      	it	cs
8010179c:	eba0 5081 	subcs.w	r0, r0, r1, lsl #22
801017a0:	ebb0 5f41 	cmp.w	r0, r1, lsl #21
801017a4:	bf00      	nop
801017a6:	eb42 0202 	adc.w	r2, r2, r2
801017aa:	bf28      	it	cs
801017ac:	eba0 5041 	subcs.w	r0, r0, r1, lsl #21
801017b0:	ebb0 5f01 	cmp.w	r0, r1, lsl #20
801017b4:	bf00      	nop
801017b6:	eb42 0202 	adc.w	r2, r2, r2
801017ba:	bf28      	it	cs
801017bc:	eba0 5001 	subcs.w	r0, r0, r1, lsl #20
801017c0:	ebb0 4fc1 	cmp.w	r0, r1, lsl #19
801017c4:	bf00      	nop
801017c6:	eb42 0202 	adc.w	r2, r2, r2
801017ca:	bf28      	it	cs
801017cc:	eba0 40c1 	subcs.w	r0, r0, r1, lsl #19
801017d0:	ebb0 4f81 	cmp.w	r0, r1, lsl #18
801017d4:	bf00      	nop
801017d6:	eb42 0202 	adc.w	r2, r2, r2
801017da:	bf28      	it	cs
801017dc:	eba0 4081 	subcs.w	r0, r0, r1, lsl #18
801017e0:	ebb0 4f41 	cmp.w	r0, r1, lsl #17
801017e4:	bf00      	nop
801017e6:	eb42 0202 	adc.w	r2, r2, r2
801017ea:	bf28      	it	cs
801017ec:	eba0 4041 	subcs.w	r0, r0, r1, lsl #17
801017f0:	ebb0 4f01 	cmp.w	r0, r1, lsl #16
801017f4:	bf00      	nop
801017f6:	eb42 0202 	adc.w	r2, r2, r2
801017fa:	bf28      	it	cs
801017fc:	eba0 4001 	subcs.w	r0, r0, r1, lsl #16
80101800:	ebb0 3fc1 	cmp.w	r0, r1, lsl #15
80101804:	bf00      	nop
80101806:	eb42 0202 	adc.w	r2, r2, r2
8010180a:	bf28      	it	cs
8010180c:	eba0 30c1 	subcs.w	r0, r0, r1, lsl #15
80101810:	ebb0 3f81 	cmp.w	r0, r1, lsl #14
80101814:	bf00      	nop
80101816:	eb42 0202 	adc.w	r2, r2, r2
8010181a:	bf28      	it	cs
8010181c:	eba0 3081 	subcs.w	r0, r0, r1, lsl #14
80101820:	ebb0 3f41 	cmp.w	r0, r1, lsl #13
80101824:	bf00      	nop
80101826:	eb42 0202 	adc.w	r2, r2, r2
8010182a:	bf28      	it	cs
8010182c:	eba0 3041 	subcs.w	r0, r0, r1, lsl #13
80101830:	ebb0 3f01 	cmp.w	r0, r1, lsl #12
80101834:	bf00      	nop
80101836:	eb42 0202 	adc.w	r2, r2, r2
8010183a:	bf28      	it	cs
8010183c:	eba0 3001 	subcs.w	r0, r0, r1, lsl #12
80101840:	ebb0 2fc1 	cmp.w	r0, r1, lsl #11
80101844:	bf00      	nop
80101846:	eb42 0202 	adc.w	r2, r2, r2
8010184a:	bf28      	it	cs
8010184c:	eba0 20c1 	subcs.w	r0, r0, r1, lsl #11
80101850:	ebb0 2f81 	cmp.w	r0, r1, lsl #10
80101854:	bf00      	nop
80101856:	eb42 0202 	adc.w	r2, r2, r2
8010185a:	bf28      	it	cs
8010185c:	eba0 2081 	subcs.w	r0, r0, r1, lsl #10
80101860:	ebb0 2f41 	cmp.w	r0, r1, lsl #9
80101864:	bf00      	nop
80101866:	eb42 0202 	adc.w	r2, r2, r2
8010186a:	bf28      	it	cs
8010186c:	eba0 2041 	subcs.w	r0, r0, r1, lsl #9
80101870:	ebb0 2f01 	cmp.w	r0, r1, lsl #8
80101874:	bf00      	nop
80101876:	eb42 0202 	adc.w	r2, r2, r2
8010187a:	bf28      	it	cs
8010187c:	eba0 2001 	subcs.w	r0, r0, r1, lsl #8
80101880:	ebb0 1fc1 	cmp.w	r0, r1, lsl #7
80101884:	bf00      	nop
80101886:	eb42 0202 	adc.w	r2, r2, r2
8010188a:	bf28      	it	cs
8010188c:	eba0 10c1 	subcs.w	r0, r0, r1, lsl #7
80101890:	ebb0 1f81 	cmp.w	r0, r1, lsl #6
80101894:	bf00      	nop
80101896:	eb42 0202 	adc.w	r2, r2, r2
8010189a:	bf28      	it	cs
8010189c:	eba0 1081 	subcs.w	r0, r0, r1, lsl #6
801018a0:	ebb0 1f41 	cmp.w	r0, r1, lsl #5
801018a4:	bf00      	nop
801018a6:	eb42 0202 	adc.w	r2, r2, r2
801018aa:	bf28      	it	cs
801018ac:	eba0 1041 	subcs.w	r0, r0, r1, lsl #5
801018b0:	ebb0 1f01 	cmp.w	r0, r1, lsl #4
801018b4:	bf00      	nop
801018b6:	eb42 0202 	adc.w	r2, r2, r2
801018ba:	bf28      	it	cs
801018bc:	eba0 1001 	subcs.w	r0, r0, r1, lsl #4
801018c0:	ebb0 0fc1 	cmp.w	r0, r1, lsl #3
801018c4:	bf00      	nop
801018c6:	eb42 0202 	adc.w	r2, r2, r2
801018ca:	bf28      	it	cs
801018cc:	eba0 00c1 	subcs.w	r0, r0, r1, lsl #3
801018d0:	ebb0 0f81 	cmp.w	r0, r1, lsl #2
801018d4:	bf00      	nop
801018d6:	eb42 0202 	adc.w	r2, r2, r2
801018da:	bf28      	it	cs
801018dc:	eba0 0081 	subcs.w	r0, r0, r1, lsl #2
801018e0:	ebb0 0f41 	cmp.w	r0, r1, lsl #1
801018e4:	bf00      	nop
801018e6:	eb42 0202 	adc.w	r2, r2, r2
801018ea:	bf28      	it	cs
801018ec:	eba0 0041 	subcs.w	r0, r0, r1, lsl #1
801018f0:	ebb0 0f01 	cmp.w	r0, r1
801018f4:	bf00      	nop
801018f6:	eb42 0202 	adc.w	r2, r2, r2
801018fa:	bf28      	it	cs
801018fc:	eba0 0001 	subcs.w	r0, r0, r1
80101900:	4610      	mov	r0, r2
80101902:	4770      	bx	lr
80101904:	bf0c      	ite	eq
80101906:	2001      	moveq	r0, #1
80101908:	2000      	movne	r0, #0
8010190a:	4770      	bx	lr
8010190c:	fab1 f281 	clz	r2, r1
80101910:	f1c2 021f 	rsb	r2, r2, #31
80101914:	fa20 f002 	lsr.w	r0, r0, r2
80101918:	4770      	bx	lr
8010191a:	b108      	cbz	r0, 80101920 <__aeabi_uidiv+0x258>
8010191c:	f04f 30ff 	mov.w	r0, #4294967295	; 0xffffffff
80101920:	f000 b826 	b.w	80101970 <__aeabi_idiv0>

80101924 <__aeabi_uidivmod>:
80101924:	2900      	cmp	r1, #0
80101926:	d0f8      	beq.n	8010191a <__aeabi_uidiv+0x252>
80101928:	e92d 4003 	stmdb	sp!, {r0, r1, lr}
8010192c:	f7ff fecc 	bl	801016c8 <__aeabi_uidiv>
80101930:	e8bd 4006 	ldmia.w	sp!, {r1, r2, lr}
80101934:	fb02 f300 	mul.w	r3, r2, r0
80101938:	eba1 0103 	sub.w	r1, r1, r3
8010193c:	4770      	bx	lr
8010193e:	bf00      	nop

80101940 <__aeabi_uldivmod>:
80101940:	b953      	cbnz	r3, 80101958 <__aeabi_uldivmod+0x18>
80101942:	b94a      	cbnz	r2, 80101958 <__aeabi_uldivmod+0x18>
80101944:	2900      	cmp	r1, #0
80101946:	bf08      	it	eq
80101948:	2800      	cmpeq	r0, #0
8010194a:	bf1c      	itt	ne
8010194c:	f04f 31ff 	movne.w	r1, #4294967295	; 0xffffffff
80101950:	f04f 30ff 	movne.w	r0, #4294967295	; 0xffffffff
80101954:	f000 b80c 	b.w	80101970 <__aeabi_idiv0>
80101958:	f1ad 0c08 	sub.w	ip, sp, #8
8010195c:	e96d ce04 	strd	ip, lr, [sp, #-16]!
80101960:	f000 f80c 	bl	8010197c <__udivmoddi4>
80101964:	f8dd e004 	ldr.w	lr, [sp, #4]
80101968:	e9dd 2302 	ldrd	r2, r3, [sp, #8]
8010196c:	b004      	add	sp, #16
8010196e:	4770      	bx	lr

80101970 <__aeabi_idiv0>:
80101970:	b502      	push	{r1, lr}
80101972:	f04f 0008 	mov.w	r0, #8
80101976:	f7ff f97b 	bl	80100c70 <raise>
8010197a:	bd02      	pop	{r1, pc}

8010197c <__udivmoddi4>:
8010197c:	4299      	cmp	r1, r3
8010197e:	e92d 47f0 	stmdb	sp!, {r4, r5, r6, r7, r8, r9, sl, lr}
80101982:	bf08      	it	eq
80101984:	4290      	cmpeq	r0, r2
80101986:	4604      	mov	r4, r0
80101988:	460d      	mov	r5, r1
8010198a:	bf38      	it	cc
8010198c:	2000      	movcc	r0, #0
8010198e:	f8dd a020 	ldr.w	sl, [sp, #32]
80101992:	bf38      	it	cc
80101994:	2100      	movcc	r1, #0
80101996:	d369      	bcc.n	80101a6c <__udivmoddi4+0xf0>
80101998:	fab3 f683 	clz	r6, r3
8010199c:	2b00      	cmp	r3, #0
8010199e:	d070      	beq.n	80101a82 <__udivmoddi4+0x106>
801019a0:	fab5 f185 	clz	r1, r5
801019a4:	2d00      	cmp	r5, #0
801019a6:	d068      	beq.n	80101a7a <__udivmoddi4+0xfe>
801019a8:	1a76      	subs	r6, r6, r1
801019aa:	f1a6 0e20 	sub.w	lr, r6, #32
801019ae:	fa03 f906 	lsl.w	r9, r3, r6
801019b2:	fa02 f10e 	lsl.w	r1, r2, lr
801019b6:	f1c6 0720 	rsb	r7, r6, #32
801019ba:	fa22 f307 	lsr.w	r3, r2, r7
801019be:	fa02 f806 	lsl.w	r8, r2, r6
801019c2:	ea49 0901 	orr.w	r9, r9, r1
801019c6:	ea49 0903 	orr.w	r9, r9, r3
801019ca:	454d      	cmp	r5, r9
801019cc:	bf08      	it	eq
801019ce:	4544      	cmpeq	r4, r8
801019d0:	bf3c      	itt	cc
801019d2:	2000      	movcc	r0, #0
801019d4:	2100      	movcc	r1, #0
801019d6:	d30c      	bcc.n	801019f2 <__udivmoddi4+0x76>
801019d8:	2301      	movs	r3, #1
801019da:	ebb4 0408 	subs.w	r4, r4, r8
801019de:	fa03 f10e 	lsl.w	r1, r3, lr
801019e2:	fa23 f207 	lsr.w	r2, r3, r7
801019e6:	fa03 f006 	lsl.w	r0, r3, r6
801019ea:	ea41 0102 	orr.w	r1, r1, r2
801019ee:	eb65 0509 	sbc.w	r5, r5, r9
801019f2:	2e00      	cmp	r6, #0
801019f4:	d03a      	beq.n	80101a6c <__udivmoddi4+0xf0>
801019f6:	ea5f 0959 	movs.w	r9, r9, lsr #1
801019fa:	ea4f 0838 	mov.w	r8, r8, rrx
801019fe:	46b4      	mov	ip, r6
80101a00:	e00b      	b.n	80101a1a <__udivmoddi4+0x9e>
80101a02:	ebb4 0408 	subs.w	r4, r4, r8
80101a06:	eb65 0509 	sbc.w	r5, r5, r9
80101a0a:	1924      	adds	r4, r4, r4
80101a0c:	416d      	adcs	r5, r5
80101a0e:	3401      	adds	r4, #1
80101a10:	f145 0500 	adc.w	r5, r5, #0
80101a14:	f1bc 0c01 	subs.w	ip, ip, #1
80101a18:	d008      	beq.n	80101a2c <__udivmoddi4+0xb0>
80101a1a:	454d      	cmp	r5, r9
80101a1c:	bf08      	it	eq
80101a1e:	4544      	cmpeq	r4, r8
80101a20:	d2ef      	bcs.n	80101a02 <__udivmoddi4+0x86>
80101a22:	1924      	adds	r4, r4, r4
80101a24:	416d      	adcs	r5, r5
80101a26:	f1bc 0c01 	subs.w	ip, ip, #1
80101a2a:	d1f6      	bne.n	80101a1a <__udivmoddi4+0x9e>
80101a2c:	fa05 f707 	lsl.w	r7, r5, r7
80101a30:	fa24 f306 	lsr.w	r3, r4, r6
80101a34:	fa25 fe0e 	lsr.w	lr, r5, lr
80101a38:	fa25 fc06 	lsr.w	ip, r5, r6
80101a3c:	433b      	orrs	r3, r7
80101a3e:	1900      	adds	r0, r0, r4
80101a40:	ea43 040e 	orr.w	r4, r3, lr
80101a44:	f1a6 0e20 	sub.w	lr, r6, #32
80101a48:	fa0c f306 	lsl.w	r3, ip, r6
80101a4c:	fa04 fe0e 	lsl.w	lr, r4, lr
80101a50:	fa04 f206 	lsl.w	r2, r4, r6
80101a54:	f1c6 0720 	rsb	r7, r6, #32
80101a58:	fa24 f707 	lsr.w	r7, r4, r7
80101a5c:	ea43 030e 	orr.w	r3, r3, lr
80101a60:	4169      	adcs	r1, r5
80101a62:	433b      	orrs	r3, r7
80101a64:	1a80      	subs	r0, r0, r2
80101a66:	4665      	mov	r5, ip
80101a68:	eb61 0103 	sbc.w	r1, r1, r3
80101a6c:	f1ba 0f00 	cmp.w	sl, #0
80101a70:	d001      	beq.n	80101a76 <__udivmoddi4+0xfa>
80101a72:	e9ca 4500 	strd	r4, r5, [sl]
80101a76:	e8bd 87f0 	ldmia.w	sp!, {r4, r5, r6, r7, r8, r9, sl, pc}
80101a7a:	fab4 f184 	clz	r1, r4
80101a7e:	3120      	adds	r1, #32
80101a80:	e792      	b.n	801019a8 <__udivmoddi4+0x2c>
80101a82:	fab2 f682 	clz	r6, r2
80101a86:	fab5 f185 	clz	r1, r5
80101a8a:	3620      	adds	r6, #32
80101a8c:	2d00      	cmp	r5, #0
80101a8e:	d18b      	bne.n	801019a8 <__udivmoddi4+0x2c>
80101a90:	e7f3      	b.n	80101a7a <__udivmoddi4+0xfe>
80101a92:	bf00      	nop

Disassembly of section .rodata:

80101a94 <.LC0>:
80101a94:	65637845 	strbvs	r7, [r3, #-2117]!	; 0xfffff7bb
80101a98:	6f697470 	svcvs	0x00697470
80101a9c:	6320216e 			; <UNDEFINED> instruction: 0x6320216e
80101aa0:	20727370 	rsbscs	r7, r2, r0, ror r3
80101aa4:	30207369 	eorcc	r7, r0, r9, ror #6
80101aa8:	0d782578 	cfldr64eq	mvdx2, [r8, #-480]!	; 0xfffffe20
80101aac:	0000000a 	andeq	r0, r0, sl

80101ab0 <.LC1>:
80101ab0:	0a0d7325 	beq	8045e74c <__bss_end+0x35c5b4>
80101ab4:	00000000 	andeq	r0, r0, r0

80101ab8 <.LC2>:
80101ab8:	20495753 	subcs	r5, r9, r3, asr r7
80101abc:	206c6176 	rsbcs	r6, ip, r6, ror r1
80101ac0:	7830203d 	ldmdavc	r0!, {r0, r2, r3, r4, r5, sp}
80101ac4:	0a0d7825 	beq	8045fb60 <__bss_end+0x35d9c8>
80101ac8:	00000000 	andeq	r0, r0, r0

80101acc <.LC3>:
80101acc:	31545047 	cmpcc	r4, r7, asr #32
80101ad0:	6d6f6320 	stclvs	3, cr6, [pc, #-128]!	; 80101a58 <__udivmoddi4+0xdc>
80101ad4:	69203070 	stmdbvs	r0!, {r4, r5, r6, ip, sp}
80101ad8:	7265746e 	rsbvc	r7, r5, #1845493760	; 0x6e000000
80101adc:	74707572 	ldrbtvc	r7, [r0], #-1394	; 0xfffffa8e
80101ae0:	70616820 	rsbvc	r6, r1, r0, lsr #16
80101ae4:	656e6570 	strbvs	r6, [lr, #-1392]!	; 0xfffffa90
80101ae8:	000a0d64 	andeq	r0, sl, r4, ror #26

80101aec <.LC4>:
80101aec:	6c6c6568 	cfstr64vs	mvdx6, [ip], #-416	; 0xfffffe60
80101af0:	6f77206f 	svcvs	0x0077206f
80101af4:	0d646c72 	stcleq	12, cr6, [r4, #-456]!	; 0xfffffe38
80101af8:	0000000a 	andeq	r0, r0, sl

80101afc <.LC5>:
80101afc:	2064656c 	rsbcs	r6, r4, ip, ror #10
80101b00:	6f207369 	svcvs	0x00207369
80101b04:	000a0d6e 	andeq	r0, sl, lr, ror #26

80101b08 <.LC6>:
80101b08:	2064656c 	rsbcs	r6, r4, ip, ror #10
80101b0c:	6f207369 	svcvs	0x00207369
80101b10:	0a0d6666 	beq	8045b4b0 <__bss_end+0x359318>
80101b14:	00000000 	andeq	r0, r0, r0

80101b18 <.LC0>:
80101b18:	73696854 	cmnvc	r9, #84, 16	; 0x540000
80101b1c:	20736920 	rsbscs	r6, r3, r0, lsr #18
80101b20:	2e777777 	mrccs	7, 3, r7, cr7, cr7, {3}
80101b24:	61303031 	teqvs	r0, r1, lsr r0
80101b28:	6f2e6b73 	svcvs	0x002e6b73
80101b2c:	20206772 	eorcs	r6, r0, r2, ror r7
80101b30:	5f796d20 	svcpl	0x00796d20
80101b34:	6e697270 	mcrvs	2, 3, r7, cr9, cr0, {3}
80101b38:	74206674 	strtvc	r6, [r0], #-1652	; 0xfffff98c
80101b3c:	0a747365 	beq	81e1e8d8 <__bss_end+0x1d1c740>
80101b40:	0000000d 	andeq	r0, r0, sp

80101b44 <.LC1>:
80101b44:	74736574 	ldrbtvc	r6, [r3], #-1396	; 0xfffffa8c
80101b48:	61686320 	cmnvs	r8, r0, lsr #6
80101b4c:	20202072 	eorcs	r2, r0, r2, ror r0
80101b50:	20202020 	eorcs	r2, r0, r0, lsr #32
80101b54:	20202020 	eorcs	r2, r0, r0, lsr #32
80101b58:	2c63253d 	cfstr64cs	mvdx2, [r3], #-244	; 0xffffff0c
80101b5c:	0d0a6325 	stceq	3, cr6, [sl, #-148]	; 0xffffff6c
80101b60:	00000000 	andeq	r0, r0, r0

80101b64 <.LC2>:
80101b64:	74736574 	ldrbtvc	r6, [r3], #-1396	; 0xfffffa8c
80101b68:	63656420 	cmnvs	r5, #32, 8	; 0x20000000
80101b6c:	6c616d69 	stclvs	13, cr6, [r1], #-420	; 0xfffffe5c
80101b70:	6d756e20 	ldclvs	14, cr6, [r5, #-128]!	; 0xffffff80
80101b74:	20726562 	rsbscs	r6, r2, r2, ror #10
80101b78:	0a64253d 	beq	81a0b074 <__bss_end+0x1908edc>
80101b7c:	0000000d 	andeq	r0, r0, sp

80101b80 <.LC3>:
80101b80:	74736574 	ldrbtvc	r6, [r3], #-1396	; 0xfffffa8c
80101b84:	78656820 	stmdavc	r5!, {r5, fp, sp, lr}^
80101b88:	20202020 	eorcs	r2, r0, r0, lsr #32
80101b8c:	6d756e20 	ldclvs	14, cr6, [r5, #-128]!	; 0xffffff80
80101b90:	20726562 	rsbscs	r6, r2, r2, ror #10
80101b94:	2578303d 	ldrbcs	r3, [r8, #-61]!	; 0xffffffc3
80101b98:	000d0a78 	andeq	r0, sp, r8, ror sl

80101b9c <.LC4>:
80101b9c:	2e777777 	mrccs	7, 3, r7, cr7, cr7, {3}
80101ba0:	61303031 	teqvs	r0, r1, lsr r0
80101ba4:	6f2e6b73 	svcvs	0x002e6b73
80101ba8:	00006772 	andeq	r6, r0, r2, ror r7

80101bac <.LC5>:
80101bac:	74736574 	ldrbtvc	r6, [r3], #-1396	; 0xfffffa8c
80101bb0:	72747320 	rsbsvc	r7, r4, #32, 6	; 0x80000000
80101bb4:	20676e69 	rsbcs	r6, r7, r9, ror #28
80101bb8:	20202020 	eorcs	r2, r0, r0, lsr #32
80101bbc:	20202020 	eorcs	r2, r0, r0, lsr #32
80101bc0:	0a73253d 	beq	81dcb0bc <__bss_end+0x1cc8f24>
80101bc4:	0000000d 	andeq	r0, r0, sp

80101bc8 <.LC6>:
80101bc8:	3d6d756e 	cfstr64cc	mvdx7, [sp, #-440]!	; 0xfffffe48
80101bcc:	64383025 	ldrtvs	r3, [r8], #-37	; 0xffffffdb
80101bd0:	00000d0a 	andeq	r0, r0, sl, lsl #26

80101bd4 <.LC7>:
80101bd4:	3d6d756e 	cfstr64cc	mvdx7, [sp, #-440]!	; 0xfffffe48
80101bd8:	0a643825 	beq	81a0fc74 <__bss_end+0x190dadc>
80101bdc:	0000000d 	andeq	r0, r0, sp

80101be0 <.LC8>:
80101be0:	3d6d756e 	cfstr64cc	mvdx7, [sp, #-440]!	; 0xfffffe48
80101be4:	30257830 	eorcc	r7, r5, r0, lsr r8
80101be8:	0d0a7838 	stceq	8, cr7, [sl, #-224]	; 0xffffff20
80101bec:	00000000 	andeq	r0, r0, r0

80101bf0 <.LC9>:
80101bf0:	3d6d756e 	cfstr64cc	mvdx7, [sp, #-440]!	; 0xfffffe48
80101bf4:	38257830 	stmdacc	r5!, {r4, r5, fp, ip, sp, lr}
80101bf8:	000d0a78 	andeq	r0, sp, r8, ror sl

80101bfc <.LC10>:
80101bfc:	3d6d756e 	cfstr64cc	mvdx7, [sp, #-440]!	; 0xfffffe48
80101c00:	30257830 	eorcc	r7, r5, r0, lsr r8
80101c04:	0d0a7832 	stceq	8, cr7, [sl, #-200]	; 0xffffff38
80101c08:	00000000 	andeq	r0, r0, r0

80101c0c <.LC11>:
80101c0c:	3d6d756e 	cfstr64cc	mvdx7, [sp, #-440]!	; 0xfffffe48
80101c10:	32257830 	eorcc	r7, r5, #48, 16	; 0x300000
80101c14:	000d0a78 	andeq	r0, sp, r8, ror sl

80101c18 <.LC12>:
80101c18:	3d6d756e 	cfstr64cc	mvdx7, [sp, #-440]!	; 0xfffffe48
80101c1c:	64353025 	ldrtvs	r3, [r5], #-37	; 0xffffffdb
80101c20:	00000d0a 	andeq	r0, r0, sl, lsl #26

80101c24 <.LC13>:
80101c24:	3d6d756e 	cfstr64cc	mvdx7, [sp, #-440]!	; 0xfffffe48
80101c28:	0a643525 	beq	81a0f0c4 <__bss_end+0x190cf2c>
80101c2c:	0000000d 	andeq	r0, r0, sp

80101c30 <.LC0>:
80101c30:	25717269 	ldrbcs	r7, [r1, #-617]!	; 0xfffffd97
80101c34:	61682064 	cmnvs	r8, r4, rrx
80101c38:	6e206576 	mcrvs	5, 1, r6, cr0, cr6, {3}
80101c3c:	7320746f 			; <UNDEFINED> instruction: 0x7320746f
80101c40:	69207465 	stmdbvs	r0!, {r0, r2, r5, r6, sl, ip, sp, lr}
80101c44:	68207172 	stmdavs	r0!, {r1, r4, r5, r6, r8, ip, sp, lr}
80101c48:	6c646e61 	stclvs	14, cr6, [r4], #-388	; 0xfffffe7c
80101c4c:	202c7265 	eorcs	r7, ip, r5, ror #4
80101c50:	20657375 	rsbcs	r7, r5, r5, ror r3
80101c54:	61666564 	cmnvs	r6, r4, ror #10
80101c58:	20746c75 	rsbscs	r6, r4, r5, ror ip
80101c5c:	61657473 	smcvs	22339	; 0x5743
80101c60:	00000a64 	andeq	r0, r0, r4, ror #20

80101c64 <.LC1>:
80101c64:	20717269 	rsbscs	r7, r1, r9, ror #4
80101c68:	69206425 	stmdbvs	r0!, {r0, r2, r5, sl, sp, lr}
80101c6c:	61682073 	smcvs	33283	; 0x8203
80101c70:	6e657070 	mcrvs	0, 3, r7, cr5, cr0, {3}
80101c74:	0a0d6465 	beq	8045ae10 <__bss_end+0x358c78>
	...

Disassembly of section .ARM.exidx:

80101c7c <.ARM.exidx>:
80101c7c:	7ffffd00 	svcvc	0x00fffd00
80101c80:	00000001 	andeq	r0, r0, r1

Disassembly of section .data:

80101c84 <on.8278>:
80101c84:	00000001 	andeq	r0, r0, r1

80101c88 <hex_tab>:
80101c88:	33323130 	teqcc	r2, #48, 2
80101c8c:	37363534 			; <UNDEFINED> instruction: 0x37363534
80101c90:	62613938 	rsbvs	r3, r1, #56, 18	; 0xe0000
80101c94:	66656463 	strbtvs	r6, [r5], -r3, ror #8

Disassembly of section .bss:

80101c98 <__bss_start>:
	...

