
uart.elf:     file format elf32-littlearm


Disassembly of section .text:

80100000 <_start>:
80100000:	e59fd028 	ldr	sp, [pc, #40]	; 80100030 <clean+0x14>
80100004:	eb000001 	bl	80100010 <clean_bss>
80100008:	fb000060 	blx	80100192 <main>

8010000c <halt>:
8010000c:	eafffffe 	b	8010000c <halt>

80100010 <clean_bss>:
80100010:	e59f101c 	ldr	r1, [pc, #28]	; 80100034 <clean+0x18>
80100014:	e59f201c 	ldr	r2, [pc, #28]	; 80100038 <clean+0x1c>
80100018:	e3a03000 	mov	r3, #0

8010001c <clean>:
8010001c:	e5813000 	str	r3, [r1]
80100020:	e2811004 	add	r1, r1, #4
80100024:	e1510002 	cmp	r1, r2
80100028:	1afffffb 	bne	8010001c <clean>
8010002c:	e1a0f00e 	mov	pc, lr
80100030:	80200000 	eorhi	r0, r0, r0
80100034:	801001b0 			; <UNDEFINED> instruction: 0x801001b0
80100038:	801001bc 			; <UNDEFINED> instruction: 0x801001bc

8010003c <Uart_Init>:
8010003c:	b480      	push	{r7}
8010003e:	af00      	add	r7, sp, #0
80100040:	f240 12b0 	movw	r2, #432	; 0x1b0
80100044:	f2c8 0210 	movt	r2, #32784	; 0x8010
80100048:	2384      	movs	r3, #132	; 0x84
8010004a:	f2c0 230e 	movt	r3, #526	; 0x20e
8010004e:	6013      	str	r3, [r2, #0]
80100050:	f240 12b4 	movw	r2, #436	; 0x1b4
80100054:	f2c8 0210 	movt	r2, #32784	; 0x8010
80100058:	2388      	movs	r3, #136	; 0x88
8010005a:	f2c0 230e 	movt	r3, #526	; 0x20e
8010005e:	6013      	str	r3, [r2, #0]
80100060:	f240 12b8 	movw	r2, #440	; 0x1b8
80100064:	f2c8 0210 	movt	r2, #32784	; 0x8010
80100068:	f240 6324 	movw	r3, #1572	; 0x624
8010006c:	f2c0 230e 	movt	r3, #526	; 0x20e
80100070:	6013      	str	r3, [r2, #0]
80100072:	f240 13b4 	movw	r3, #436	; 0x1b4
80100076:	f2c8 0310 	movt	r3, #32784	; 0x8010
8010007a:	681b      	ldr	r3, [r3, #0]
8010007c:	2200      	movs	r2, #0
8010007e:	601a      	str	r2, [r3, #0]
80100080:	f240 13b8 	movw	r3, #440	; 0x1b8
80100084:	f2c8 0310 	movt	r3, #32784	; 0x8010
80100088:	681b      	ldr	r3, [r3, #0]
8010008a:	2203      	movs	r2, #3
8010008c:	601a      	str	r2, [r3, #0]
8010008e:	f240 13b0 	movw	r3, #432	; 0x1b0
80100092:	f2c8 0310 	movt	r3, #32784	; 0x8010
80100096:	681b      	ldr	r3, [r3, #0]
80100098:	2200      	movs	r2, #0
8010009a:	601a      	str	r2, [r3, #0]
8010009c:	2300      	movs	r3, #0
8010009e:	f2c0 2302 	movt	r3, #514	; 0x202
801000a2:	2200      	movs	r2, #0
801000a4:	f2c0 2202 	movt	r2, #514	; 0x202
801000a8:	f8d2 2080 	ldr.w	r2, [r2, #128]	; 0x80
801000ac:	f042 0201 	orr.w	r2, r2, #1
801000b0:	f8c3 2080 	str.w	r2, [r3, #128]	; 0x80
801000b4:	2200      	movs	r2, #0
801000b6:	f2c0 2202 	movt	r2, #514	; 0x202
801000ba:	2300      	movs	r3, #0
801000bc:	f2c0 2302 	movt	r3, #514	; 0x202
801000c0:	f8d3 3084 	ldr.w	r3, [r3, #132]	; 0x84
801000c4:	f443 4380 	orr.w	r3, r3, #16384	; 0x4000
801000c8:	f043 0326 	orr.w	r3, r3, #38	; 0x26
801000cc:	f8c2 3084 	str.w	r3, [r2, #132]	; 0x84
801000d0:	2300      	movs	r3, #0
801000d2:	f2c0 2302 	movt	r3, #514	; 0x202
801000d6:	2200      	movs	r2, #0
801000d8:	f2c0 2202 	movt	r2, #514	; 0x202
801000dc:	f8d2 2088 	ldr.w	r2, [r2, #136]	; 0x88
801000e0:	f042 0204 	orr.w	r2, r2, #4
801000e4:	f8c3 2088 	str.w	r2, [r3, #136]	; 0x88
801000e8:	2300      	movs	r3, #0
801000ea:	f2c0 2302 	movt	r3, #514	; 0x202
801000ee:	f44f 7220 	mov.w	r2, #640	; 0x280
801000f2:	f8c3 2090 	str.w	r2, [r3, #144]	; 0x90
801000f6:	2300      	movs	r3, #0
801000f8:	f2c0 2302 	movt	r3, #514	; 0x202
801000fc:	2247      	movs	r2, #71	; 0x47
801000fe:	f8c3 20a4 	str.w	r2, [r3, #164]	; 0xa4
80100102:	2300      	movs	r3, #0
80100104:	f2c0 2302 	movt	r3, #514	; 0x202
80100108:	f640 4234 	movw	r2, #3124	; 0xc34
8010010c:	f8c3 20a8 	str.w	r2, [r3, #168]	; 0xa8
80100110:	2300      	movs	r3, #0
80100112:	f2c0 2302 	movt	r3, #514	; 0x202
80100116:	2200      	movs	r2, #0
80100118:	f2c0 2202 	movt	r2, #514	; 0x202
8010011c:	f8d2 2080 	ldr.w	r2, [r2, #128]	; 0x80
80100120:	f042 0201 	orr.w	r2, r2, #1
80100124:	f8c3 2080 	str.w	r2, [r3, #128]	; 0x80
80100128:	bf00      	nop
8010012a:	46bd      	mov	sp, r7
8010012c:	f85d 7b04 	ldr.w	r7, [sp], #4
80100130:	4770      	bx	lr

80100132 <PutChar>:
80100132:	b480      	push	{r7}
80100134:	b083      	sub	sp, #12
80100136:	af00      	add	r7, sp, #0
80100138:	6078      	str	r0, [r7, #4]
8010013a:	bf00      	nop
8010013c:	2300      	movs	r3, #0
8010013e:	f2c0 2302 	movt	r3, #514	; 0x202
80100142:	f8d3 3098 	ldr.w	r3, [r3, #152]	; 0x98
80100146:	f003 0308 	and.w	r3, r3, #8
8010014a:	2b00      	cmp	r3, #0
8010014c:	d0f6      	beq.n	8010013c <PutChar+0xa>
8010014e:	2300      	movs	r3, #0
80100150:	f2c0 2302 	movt	r3, #514	; 0x202
80100154:	687a      	ldr	r2, [r7, #4]
80100156:	b2d2      	uxtb	r2, r2
80100158:	641a      	str	r2, [r3, #64]	; 0x40
8010015a:	bf00      	nop
8010015c:	370c      	adds	r7, #12
8010015e:	46bd      	mov	sp, r7
80100160:	f85d 7b04 	ldr.w	r7, [sp], #4
80100164:	4770      	bx	lr

80100166 <GetChar>:
80100166:	b480      	push	{r7}
80100168:	af00      	add	r7, sp, #0
8010016a:	bf00      	nop
8010016c:	2300      	movs	r3, #0
8010016e:	f2c0 2302 	movt	r3, #514	; 0x202
80100172:	f8d3 3098 	ldr.w	r3, [r3, #152]	; 0x98
80100176:	f003 0301 	and.w	r3, r3, #1
8010017a:	2b00      	cmp	r3, #0
8010017c:	d0f6      	beq.n	8010016c <GetChar+0x6>
8010017e:	2300      	movs	r3, #0
80100180:	f2c0 2302 	movt	r3, #514	; 0x202
80100184:	681b      	ldr	r3, [r3, #0]
80100186:	b2db      	uxtb	r3, r3
80100188:	4618      	mov	r0, r3
8010018a:	46bd      	mov	sp, r7
8010018c:	f85d 7b04 	ldr.w	r7, [sp], #4
80100190:	4770      	bx	lr

80100192 <main>:
80100192:	b580      	push	{r7, lr}
80100194:	b082      	sub	sp, #8
80100196:	af00      	add	r7, sp, #0
80100198:	f7ff ff50 	bl	8010003c <Uart_Init>
8010019c:	f7ff ffe3 	bl	80100166 <GetChar>
801001a0:	4603      	mov	r3, r0
801001a2:	71fb      	strb	r3, [r7, #7]
801001a4:	79fb      	ldrb	r3, [r7, #7]
801001a6:	4618      	mov	r0, r3
801001a8:	f7ff ffc3 	bl	80100132 <PutChar>
801001ac:	e7f6      	b.n	8010019c <main+0xa>

Disassembly of section .bss:

801001b0 <__bss_start>:
801001b0:	00000000 	andeq	r0, r0, r0

801001b4 <IOMUXC_SW_MUX_CTL_PAD_UART1_RX_DATA>:
801001b4:	00000000 	andeq	r0, r0, r0

801001b8 <IOMUXC_UART1_RX_DATA_SELECT_INPUT>:
801001b8:	00000000 	andeq	r0, r0, r0

