
my_printf.elf:     file format elf32-littlearm


Disassembly of section .text:

80100000 <_start>:
80100000:	e59fd028 	ldr	sp, [pc, #40]	; 80100030 <clean+0x14>
80100004:	eb000001 	bl	80100010 <clean_bss>
80100008:	fb000070 	blx	801001d2 <main>

8010000c <halt>:
8010000c:	eafffffe 	b	8010000c <halt>

80100010 <clean_bss>:
80100010:	e59f101c 	ldr	r1, [pc, #28]	; 80100034 <clean+0x18>
80100014:	e59f201c 	ldr	r2, [pc, #28]	; 80100038 <clean+0x1c>
80100018:	e3a03000 	mov	r3, #0

8010001c <clean>:
8010001c:	e5813000 	str	r3, [r1]
80100020:	e2811004 	add	r1, r1, #4
80100024:	e1510002 	cmp	r1, r2
80100028:	1afffffb 	bne	8010001c <clean>
8010002c:	e1a0f00e 	mov	pc, lr
80100030:	80200000 	eorhi	r0, r0, r0
80100034:	8010095c 	andshi	r0, r0, ip, asr r9
80100038:	80100968 	andshi	r0, r0, r8, ror #18

8010003c <Uart_Init>:
8010003c:	b480      	push	{r7}
8010003e:	af00      	add	r7, sp, #0
80100040:	f640 125c 	movw	r2, #2396	; 0x95c
80100044:	f2c8 0210 	movt	r2, #32784	; 0x8010
80100048:	2384      	movs	r3, #132	; 0x84
8010004a:	f2c0 230e 	movt	r3, #526	; 0x20e
8010004e:	6013      	str	r3, [r2, #0]
80100050:	f640 1260 	movw	r2, #2400	; 0x960
80100054:	f2c8 0210 	movt	r2, #32784	; 0x8010
80100058:	2388      	movs	r3, #136	; 0x88
8010005a:	f2c0 230e 	movt	r3, #526	; 0x20e
8010005e:	6013      	str	r3, [r2, #0]
80100060:	f640 1264 	movw	r2, #2404	; 0x964
80100064:	f2c8 0210 	movt	r2, #32784	; 0x8010
80100068:	f240 6324 	movw	r3, #1572	; 0x624
8010006c:	f2c0 230e 	movt	r3, #526	; 0x20e
80100070:	6013      	str	r3, [r2, #0]
80100072:	f640 1360 	movw	r3, #2400	; 0x960
80100076:	f2c8 0310 	movt	r3, #32784	; 0x8010
8010007a:	681b      	ldr	r3, [r3, #0]
8010007c:	2200      	movs	r2, #0
8010007e:	601a      	str	r2, [r3, #0]
80100080:	f640 1364 	movw	r3, #2404	; 0x964
80100084:	f2c8 0310 	movt	r3, #32784	; 0x8010
80100088:	681b      	ldr	r3, [r3, #0]
8010008a:	2203      	movs	r2, #3
8010008c:	601a      	str	r2, [r3, #0]
8010008e:	f640 135c 	movw	r3, #2396	; 0x95c
80100092:	f2c8 0310 	movt	r3, #32784	; 0x8010
80100096:	681b      	ldr	r3, [r3, #0]
80100098:	2200      	movs	r2, #0
8010009a:	601a      	str	r2, [r3, #0]
8010009c:	2300      	movs	r3, #0
8010009e:	f2c0 2302 	movt	r3, #514	; 0x202
801000a2:	2200      	movs	r2, #0
801000a4:	f2c0 2202 	movt	r2, #514	; 0x202
801000a8:	f8d2 2080 	ldr.w	r2, [r2, #128]	; 0x80
801000ac:	f042 0201 	orr.w	r2, r2, #1
801000b0:	f8c3 2080 	str.w	r2, [r3, #128]	; 0x80
801000b4:	2200      	movs	r2, #0
801000b6:	f2c0 2202 	movt	r2, #514	; 0x202
801000ba:	2300      	movs	r3, #0
801000bc:	f2c0 2302 	movt	r3, #514	; 0x202
801000c0:	f8d3 3084 	ldr.w	r3, [r3, #132]	; 0x84
801000c4:	f443 4380 	orr.w	r3, r3, #16384	; 0x4000
801000c8:	f043 0326 	orr.w	r3, r3, #38	; 0x26
801000cc:	f8c2 3084 	str.w	r3, [r2, #132]	; 0x84
801000d0:	2300      	movs	r3, #0
801000d2:	f2c0 2302 	movt	r3, #514	; 0x202
801000d6:	2200      	movs	r2, #0
801000d8:	f2c0 2202 	movt	r2, #514	; 0x202
801000dc:	f8d2 2088 	ldr.w	r2, [r2, #136]	; 0x88
801000e0:	f042 0204 	orr.w	r2, r2, #4
801000e4:	f8c3 2088 	str.w	r2, [r3, #136]	; 0x88
801000e8:	2300      	movs	r3, #0
801000ea:	f2c0 2302 	movt	r3, #514	; 0x202
801000ee:	f44f 7220 	mov.w	r2, #640	; 0x280
801000f2:	f8c3 2090 	str.w	r2, [r3, #144]	; 0x90
801000f6:	2300      	movs	r3, #0
801000f8:	f2c0 2302 	movt	r3, #514	; 0x202
801000fc:	2247      	movs	r2, #71	; 0x47
801000fe:	f8c3 20a4 	str.w	r2, [r3, #164]	; 0xa4
80100102:	2300      	movs	r3, #0
80100104:	f2c0 2302 	movt	r3, #514	; 0x202
80100108:	f640 4234 	movw	r2, #3124	; 0xc34
8010010c:	f8c3 20a8 	str.w	r2, [r3, #168]	; 0xa8
80100110:	2300      	movs	r3, #0
80100112:	f2c0 2302 	movt	r3, #514	; 0x202
80100116:	2200      	movs	r2, #0
80100118:	f2c0 2202 	movt	r2, #514	; 0x202
8010011c:	f8d2 2080 	ldr.w	r2, [r2, #128]	; 0x80
80100120:	f042 0201 	orr.w	r2, r2, #1
80100124:	f8c3 2080 	str.w	r2, [r3, #128]	; 0x80
80100128:	bf00      	nop
8010012a:	46bd      	mov	sp, r7
8010012c:	f85d 7b04 	ldr.w	r7, [sp], #4
80100130:	4770      	bx	lr

80100132 <PutChar>:
80100132:	b480      	push	{r7}
80100134:	b083      	sub	sp, #12
80100136:	af00      	add	r7, sp, #0
80100138:	6078      	str	r0, [r7, #4]
8010013a:	bf00      	nop
8010013c:	2300      	movs	r3, #0
8010013e:	f2c0 2302 	movt	r3, #514	; 0x202
80100142:	f8d3 3098 	ldr.w	r3, [r3, #152]	; 0x98
80100146:	f003 0308 	and.w	r3, r3, #8
8010014a:	2b00      	cmp	r3, #0
8010014c:	d0f6      	beq.n	8010013c <PutChar+0xa>
8010014e:	2300      	movs	r3, #0
80100150:	f2c0 2302 	movt	r3, #514	; 0x202
80100154:	687a      	ldr	r2, [r7, #4]
80100156:	b2d2      	uxtb	r2, r2
80100158:	641a      	str	r2, [r3, #64]	; 0x40
8010015a:	bf00      	nop
8010015c:	370c      	adds	r7, #12
8010015e:	46bd      	mov	sp, r7
80100160:	f85d 7b04 	ldr.w	r7, [sp], #4
80100164:	4770      	bx	lr

80100166 <GetChar>:
80100166:	b480      	push	{r7}
80100168:	af00      	add	r7, sp, #0
8010016a:	bf00      	nop
8010016c:	2300      	movs	r3, #0
8010016e:	f2c0 2302 	movt	r3, #514	; 0x202
80100172:	f8d3 3098 	ldr.w	r3, [r3, #152]	; 0x98
80100176:	f003 0301 	and.w	r3, r3, #1
8010017a:	2b00      	cmp	r3, #0
8010017c:	d0f6      	beq.n	8010016c <GetChar+0x6>
8010017e:	2300      	movs	r3, #0
80100180:	f2c0 2302 	movt	r3, #514	; 0x202
80100184:	681b      	ldr	r3, [r3, #0]
80100186:	b2db      	uxtb	r3, r3
80100188:	4618      	mov	r0, r3
8010018a:	46bd      	mov	sp, r7
8010018c:	f85d 7b04 	ldr.w	r7, [sp], #4
80100190:	4770      	bx	lr

80100192 <PutStr>:
80100192:	b580      	push	{r7, lr}
80100194:	b082      	sub	sp, #8
80100196:	af00      	add	r7, sp, #0
80100198:	6078      	str	r0, [r7, #4]
8010019a:	e007      	b.n	801001ac <PutStr+0x1a>
8010019c:	687b      	ldr	r3, [r7, #4]
8010019e:	781b      	ldrb	r3, [r3, #0]
801001a0:	4618      	mov	r0, r3
801001a2:	f7ff ffc6 	bl	80100132 <PutChar>
801001a6:	687b      	ldr	r3, [r7, #4]
801001a8:	3301      	adds	r3, #1
801001aa:	607b      	str	r3, [r7, #4]
801001ac:	687b      	ldr	r3, [r7, #4]
801001ae:	781b      	ldrb	r3, [r3, #0]
801001b0:	2b00      	cmp	r3, #0
801001b2:	d1f3      	bne.n	8010019c <PutStr+0xa>
801001b4:	bf00      	nop
801001b6:	3708      	adds	r7, #8
801001b8:	46bd      	mov	sp, r7
801001ba:	bd80      	pop	{r7, pc}

801001bc <raise>:
801001bc:	b480      	push	{r7}
801001be:	b083      	sub	sp, #12
801001c0:	af00      	add	r7, sp, #0
801001c2:	6078      	str	r0, [r7, #4]
801001c4:	2300      	movs	r3, #0
801001c6:	4618      	mov	r0, r3
801001c8:	370c      	adds	r7, #12
801001ca:	46bd      	mov	sp, r7
801001cc:	f85d 7b04 	ldr.w	r7, [sp], #4
801001d0:	4770      	bx	lr

801001d2 <main>:
801001d2:	b580      	push	{r7, lr}
801001d4:	af00      	add	r7, sp, #0
801001d6:	f7ff ff31 	bl	8010003c <Uart_Init>
801001da:	f000 f96d 	bl	801004b8 <my_printf_test>
801001de:	2300      	movs	r3, #0
801001e0:	4618      	mov	r0, r3
801001e2:	bd80      	pop	{r7, pc}

801001e4 <outc>:
801001e4:	b580      	push	{r7, lr}
801001e6:	b082      	sub	sp, #8
801001e8:	af00      	add	r7, sp, #0
801001ea:	6078      	str	r0, [r7, #4]
801001ec:	6878      	ldr	r0, [r7, #4]
801001ee:	f7ff ffa0 	bl	80100132 <PutChar>
801001f2:	2300      	movs	r3, #0
801001f4:	4618      	mov	r0, r3
801001f6:	3708      	adds	r7, #8
801001f8:	46bd      	mov	sp, r7
801001fa:	bd80      	pop	{r7, pc}

801001fc <outs>:
801001fc:	b580      	push	{r7, lr}
801001fe:	b082      	sub	sp, #8
80100200:	af00      	add	r7, sp, #0
80100202:	6078      	str	r0, [r7, #4]
80100204:	e006      	b.n	80100214 <outs+0x18>
80100206:	687b      	ldr	r3, [r7, #4]
80100208:	1c5a      	adds	r2, r3, #1
8010020a:	607a      	str	r2, [r7, #4]
8010020c:	781b      	ldrb	r3, [r3, #0]
8010020e:	4618      	mov	r0, r3
80100210:	f7ff ff8f 	bl	80100132 <PutChar>
80100214:	687b      	ldr	r3, [r7, #4]
80100216:	781b      	ldrb	r3, [r3, #0]
80100218:	2b00      	cmp	r3, #0
8010021a:	d1f4      	bne.n	80100206 <outs+0xa>
8010021c:	2300      	movs	r3, #0
8010021e:	4618      	mov	r0, r3
80100220:	3708      	adds	r7, #8
80100222:	46bd      	mov	sp, r7
80100224:	bd80      	pop	{r7, pc}

80100226 <out_num>:
80100226:	b580      	push	{r7, lr}
80100228:	b098      	sub	sp, #96	; 0x60
8010022a:	af00      	add	r7, sp, #0
8010022c:	60f8      	str	r0, [r7, #12]
8010022e:	60b9      	str	r1, [r7, #8]
80100230:	603b      	str	r3, [r7, #0]
80100232:	4613      	mov	r3, r2
80100234:	71fb      	strb	r3, [r7, #7]
80100236:	2300      	movs	r3, #0
80100238:	65fb      	str	r3, [r7, #92]	; 0x5c
8010023a:	f107 0310 	add.w	r3, r7, #16
8010023e:	3340      	adds	r3, #64	; 0x40
80100240:	65bb      	str	r3, [r7, #88]	; 0x58
80100242:	2300      	movs	r3, #0
80100244:	657b      	str	r3, [r7, #84]	; 0x54
80100246:	2300      	movs	r3, #0
80100248:	653b      	str	r3, [r7, #80]	; 0x50
8010024a:	6dbb      	ldr	r3, [r7, #88]	; 0x58
8010024c:	3b01      	subs	r3, #1
8010024e:	65bb      	str	r3, [r7, #88]	; 0x58
80100250:	6dbb      	ldr	r3, [r7, #88]	; 0x58
80100252:	2200      	movs	r2, #0
80100254:	701a      	strb	r2, [r3, #0]
80100256:	68fb      	ldr	r3, [r7, #12]
80100258:	2b00      	cmp	r3, #0
8010025a:	da03      	bge.n	80100264 <out_num+0x3e>
8010025c:	68fb      	ldr	r3, [r7, #12]
8010025e:	425b      	negs	r3, r3
80100260:	65fb      	str	r3, [r7, #92]	; 0x5c
80100262:	e001      	b.n	80100268 <out_num+0x42>
80100264:	68fb      	ldr	r3, [r7, #12]
80100266:	65fb      	str	r3, [r7, #92]	; 0x5c
80100268:	6dbb      	ldr	r3, [r7, #88]	; 0x58
8010026a:	3b01      	subs	r3, #1
8010026c:	65bb      	str	r3, [r7, #88]	; 0x58
8010026e:	68ba      	ldr	r2, [r7, #8]
80100270:	6dfb      	ldr	r3, [r7, #92]	; 0x5c
80100272:	4611      	mov	r1, r2
80100274:	4618      	mov	r0, r3
80100276:	f000 fac9 	bl	8010080c <__aeabi_uidivmod>
8010027a:	460b      	mov	r3, r1
8010027c:	461a      	mov	r2, r3
8010027e:	f640 134c 	movw	r3, #2380	; 0x94c
80100282:	f2c8 0310 	movt	r3, #32784	; 0x8010
80100286:	5c9a      	ldrb	r2, [r3, r2]
80100288:	6dbb      	ldr	r3, [r7, #88]	; 0x58
8010028a:	701a      	strb	r2, [r3, #0]
8010028c:	6d7b      	ldr	r3, [r7, #84]	; 0x54
8010028e:	3301      	adds	r3, #1
80100290:	657b      	str	r3, [r7, #84]	; 0x54
80100292:	68bb      	ldr	r3, [r7, #8]
80100294:	4619      	mov	r1, r3
80100296:	6df8      	ldr	r0, [r7, #92]	; 0x5c
80100298:	f000 f98a 	bl	801005b0 <__aeabi_uidiv>
8010029c:	4603      	mov	r3, r0
8010029e:	65fb      	str	r3, [r7, #92]	; 0x5c
801002a0:	6dfb      	ldr	r3, [r7, #92]	; 0x5c
801002a2:	2b00      	cmp	r3, #0
801002a4:	d1e0      	bne.n	80100268 <out_num+0x42>
801002a6:	683b      	ldr	r3, [r7, #0]
801002a8:	2b00      	cmp	r3, #0
801002aa:	d014      	beq.n	801002d6 <out_num+0xb0>
801002ac:	6d7a      	ldr	r2, [r7, #84]	; 0x54
801002ae:	683b      	ldr	r3, [r7, #0]
801002b0:	429a      	cmp	r2, r3
801002b2:	da10      	bge.n	801002d6 <out_num+0xb0>
801002b4:	683a      	ldr	r2, [r7, #0]
801002b6:	6d7b      	ldr	r3, [r7, #84]	; 0x54
801002b8:	1ad3      	subs	r3, r2, r3
801002ba:	653b      	str	r3, [r7, #80]	; 0x50
801002bc:	e008      	b.n	801002d0 <out_num+0xaa>
801002be:	6dbb      	ldr	r3, [r7, #88]	; 0x58
801002c0:	3b01      	subs	r3, #1
801002c2:	65bb      	str	r3, [r7, #88]	; 0x58
801002c4:	6dbb      	ldr	r3, [r7, #88]	; 0x58
801002c6:	79fa      	ldrb	r2, [r7, #7]
801002c8:	701a      	strb	r2, [r3, #0]
801002ca:	6d3b      	ldr	r3, [r7, #80]	; 0x50
801002cc:	3b01      	subs	r3, #1
801002ce:	653b      	str	r3, [r7, #80]	; 0x50
801002d0:	6d3b      	ldr	r3, [r7, #80]	; 0x50
801002d2:	2b00      	cmp	r3, #0
801002d4:	d1f3      	bne.n	801002be <out_num+0x98>
801002d6:	68fb      	ldr	r3, [r7, #12]
801002d8:	2b00      	cmp	r3, #0
801002da:	da05      	bge.n	801002e8 <out_num+0xc2>
801002dc:	6dbb      	ldr	r3, [r7, #88]	; 0x58
801002de:	3b01      	subs	r3, #1
801002e0:	65bb      	str	r3, [r7, #88]	; 0x58
801002e2:	6dbb      	ldr	r3, [r7, #88]	; 0x58
801002e4:	222d      	movs	r2, #45	; 0x2d
801002e6:	701a      	strb	r2, [r3, #0]
801002e8:	6db8      	ldr	r0, [r7, #88]	; 0x58
801002ea:	f7ff ff87 	bl	801001fc <outs>
801002ee:	4603      	mov	r3, r0
801002f0:	4618      	mov	r0, r3
801002f2:	3760      	adds	r7, #96	; 0x60
801002f4:	46bd      	mov	sp, r7
801002f6:	bd80      	pop	{r7, pc}

801002f8 <my_vprintf>:
801002f8:	b580      	push	{r7, lr}
801002fa:	b084      	sub	sp, #16
801002fc:	af00      	add	r7, sp, #0
801002fe:	6078      	str	r0, [r7, #4]
80100300:	6039      	str	r1, [r7, #0]
80100302:	2320      	movs	r3, #32
80100304:	73fb      	strb	r3, [r7, #15]
80100306:	2300      	movs	r3, #0
80100308:	60bb      	str	r3, [r7, #8]
8010030a:	e0b5      	b.n	80100478 <my_vprintf+0x180>
8010030c:	687b      	ldr	r3, [r7, #4]
8010030e:	781b      	ldrb	r3, [r3, #0]
80100310:	2b25      	cmp	r3, #37	; 0x25
80100312:	d005      	beq.n	80100320 <my_vprintf+0x28>
80100314:	687b      	ldr	r3, [r7, #4]
80100316:	781b      	ldrb	r3, [r3, #0]
80100318:	4618      	mov	r0, r3
8010031a:	f7ff ff63 	bl	801001e4 <outc>
8010031e:	e0a8      	b.n	80100472 <my_vprintf+0x17a>
80100320:	2320      	movs	r3, #32
80100322:	73fb      	strb	r3, [r7, #15]
80100324:	2300      	movs	r3, #0
80100326:	60bb      	str	r3, [r7, #8]
80100328:	687b      	ldr	r3, [r7, #4]
8010032a:	3301      	adds	r3, #1
8010032c:	607b      	str	r3, [r7, #4]
8010032e:	687b      	ldr	r3, [r7, #4]
80100330:	781b      	ldrb	r3, [r3, #0]
80100332:	2b30      	cmp	r3, #48	; 0x30
80100334:	d114      	bne.n	80100360 <my_vprintf+0x68>
80100336:	2330      	movs	r3, #48	; 0x30
80100338:	73fb      	strb	r3, [r7, #15]
8010033a:	687b      	ldr	r3, [r7, #4]
8010033c:	3301      	adds	r3, #1
8010033e:	607b      	str	r3, [r7, #4]
80100340:	e00e      	b.n	80100360 <my_vprintf+0x68>
80100342:	68ba      	ldr	r2, [r7, #8]
80100344:	4613      	mov	r3, r2
80100346:	009b      	lsls	r3, r3, #2
80100348:	4413      	add	r3, r2
8010034a:	005b      	lsls	r3, r3, #1
8010034c:	60bb      	str	r3, [r7, #8]
8010034e:	687b      	ldr	r3, [r7, #4]
80100350:	781b      	ldrb	r3, [r3, #0]
80100352:	3b30      	subs	r3, #48	; 0x30
80100354:	68ba      	ldr	r2, [r7, #8]
80100356:	4413      	add	r3, r2
80100358:	60bb      	str	r3, [r7, #8]
8010035a:	687b      	ldr	r3, [r7, #4]
8010035c:	3301      	adds	r3, #1
8010035e:	607b      	str	r3, [r7, #4]
80100360:	687b      	ldr	r3, [r7, #4]
80100362:	781b      	ldrb	r3, [r3, #0]
80100364:	2b2f      	cmp	r3, #47	; 0x2f
80100366:	d903      	bls.n	80100370 <my_vprintf+0x78>
80100368:	687b      	ldr	r3, [r7, #4]
8010036a:	781b      	ldrb	r3, [r3, #0]
8010036c:	2b39      	cmp	r3, #57	; 0x39
8010036e:	d9e8      	bls.n	80100342 <my_vprintf+0x4a>
80100370:	687b      	ldr	r3, [r7, #4]
80100372:	781b      	ldrb	r3, [r3, #0]
80100374:	3b63      	subs	r3, #99	; 0x63
80100376:	2b15      	cmp	r3, #21
80100378:	d875      	bhi.n	80100466 <my_vprintf+0x16e>
8010037a:	a201      	add	r2, pc, #4	; (adr r2, 80100380 <my_vprintf+0x88>)
8010037c:	f852 f023 	ldr.w	pc, [r2, r3, lsl #2]
80100380:	8010043f 	andshi	r0, r0, pc, lsr r4
80100384:	801003d9 			; <UNDEFINED> instruction: 0x801003d9
80100388:	80100467 	andshi	r0, r0, r7, ror #8
8010038c:	80100467 	andshi	r0, r0, r7, ror #8
80100390:	80100467 	andshi	r0, r0, r7, ror #8
80100394:	80100467 	andshi	r0, r0, r7, ror #8
80100398:	80100467 	andshi	r0, r0, r7, ror #8
8010039c:	80100467 	andshi	r0, r0, r7, ror #8
801003a0:	80100467 	andshi	r0, r0, r7, ror #8
801003a4:	80100467 	andshi	r0, r0, r7, ror #8
801003a8:	80100467 	andshi	r0, r0, r7, ror #8
801003ac:	80100467 	andshi	r0, r0, r7, ror #8
801003b0:	801003f1 			; <UNDEFINED> instruction: 0x801003f1
801003b4:	80100467 	andshi	r0, r0, r7, ror #8
801003b8:	80100467 	andshi	r0, r0, r7, ror #8
801003bc:	80100467 	andshi	r0, r0, r7, ror #8
801003c0:	80100453 	andshi	r0, r0, r3, asr r4
801003c4:	80100467 	andshi	r0, r0, r7, ror #8
801003c8:	8010040b 	andshi	r0, r0, fp, lsl #8
801003cc:	80100467 	andshi	r0, r0, r7, ror #8
801003d0:	80100467 	andshi	r0, r0, r7, ror #8
801003d4:	80100425 	andshi	r0, r0, r5, lsr #8
801003d8:	683b      	ldr	r3, [r7, #0]
801003da:	3304      	adds	r3, #4
801003dc:	603b      	str	r3, [r7, #0]
801003de:	683b      	ldr	r3, [r7, #0]
801003e0:	3b04      	subs	r3, #4
801003e2:	6818      	ldr	r0, [r3, #0]
801003e4:	7bfa      	ldrb	r2, [r7, #15]
801003e6:	68bb      	ldr	r3, [r7, #8]
801003e8:	210a      	movs	r1, #10
801003ea:	f7ff ff1c 	bl	80100226 <out_num>
801003ee:	e040      	b.n	80100472 <my_vprintf+0x17a>
801003f0:	683b      	ldr	r3, [r7, #0]
801003f2:	3304      	adds	r3, #4
801003f4:	603b      	str	r3, [r7, #0]
801003f6:	683b      	ldr	r3, [r7, #0]
801003f8:	3b04      	subs	r3, #4
801003fa:	681b      	ldr	r3, [r3, #0]
801003fc:	4618      	mov	r0, r3
801003fe:	7bfa      	ldrb	r2, [r7, #15]
80100400:	68bb      	ldr	r3, [r7, #8]
80100402:	2108      	movs	r1, #8
80100404:	f7ff ff0f 	bl	80100226 <out_num>
80100408:	e033      	b.n	80100472 <my_vprintf+0x17a>
8010040a:	683b      	ldr	r3, [r7, #0]
8010040c:	3304      	adds	r3, #4
8010040e:	603b      	str	r3, [r7, #0]
80100410:	683b      	ldr	r3, [r7, #0]
80100412:	3b04      	subs	r3, #4
80100414:	681b      	ldr	r3, [r3, #0]
80100416:	4618      	mov	r0, r3
80100418:	7bfa      	ldrb	r2, [r7, #15]
8010041a:	68bb      	ldr	r3, [r7, #8]
8010041c:	210a      	movs	r1, #10
8010041e:	f7ff ff02 	bl	80100226 <out_num>
80100422:	e026      	b.n	80100472 <my_vprintf+0x17a>
80100424:	683b      	ldr	r3, [r7, #0]
80100426:	3304      	adds	r3, #4
80100428:	603b      	str	r3, [r7, #0]
8010042a:	683b      	ldr	r3, [r7, #0]
8010042c:	3b04      	subs	r3, #4
8010042e:	681b      	ldr	r3, [r3, #0]
80100430:	4618      	mov	r0, r3
80100432:	7bfa      	ldrb	r2, [r7, #15]
80100434:	68bb      	ldr	r3, [r7, #8]
80100436:	2110      	movs	r1, #16
80100438:	f7ff fef5 	bl	80100226 <out_num>
8010043c:	e019      	b.n	80100472 <my_vprintf+0x17a>
8010043e:	683b      	ldr	r3, [r7, #0]
80100440:	3304      	adds	r3, #4
80100442:	603b      	str	r3, [r7, #0]
80100444:	683b      	ldr	r3, [r7, #0]
80100446:	3b04      	subs	r3, #4
80100448:	681b      	ldr	r3, [r3, #0]
8010044a:	4618      	mov	r0, r3
8010044c:	f7ff feca 	bl	801001e4 <outc>
80100450:	e00f      	b.n	80100472 <my_vprintf+0x17a>
80100452:	683b      	ldr	r3, [r7, #0]
80100454:	3304      	adds	r3, #4
80100456:	603b      	str	r3, [r7, #0]
80100458:	683b      	ldr	r3, [r7, #0]
8010045a:	3b04      	subs	r3, #4
8010045c:	681b      	ldr	r3, [r3, #0]
8010045e:	4618      	mov	r0, r3
80100460:	f7ff fecc 	bl	801001fc <outs>
80100464:	e005      	b.n	80100472 <my_vprintf+0x17a>
80100466:	687b      	ldr	r3, [r7, #4]
80100468:	781b      	ldrb	r3, [r3, #0]
8010046a:	4618      	mov	r0, r3
8010046c:	f7ff feba 	bl	801001e4 <outc>
80100470:	bf00      	nop
80100472:	687b      	ldr	r3, [r7, #4]
80100474:	3301      	adds	r3, #1
80100476:	607b      	str	r3, [r7, #4]
80100478:	687b      	ldr	r3, [r7, #4]
8010047a:	781b      	ldrb	r3, [r3, #0]
8010047c:	2b00      	cmp	r3, #0
8010047e:	f47f af45 	bne.w	8010030c <my_vprintf+0x14>
80100482:	2300      	movs	r3, #0
80100484:	4618      	mov	r0, r3
80100486:	3710      	adds	r7, #16
80100488:	46bd      	mov	sp, r7
8010048a:	bd80      	pop	{r7, pc}

8010048c <printf>:
8010048c:	b40f      	push	{r0, r1, r2, r3}
8010048e:	b580      	push	{r7, lr}
80100490:	b082      	sub	sp, #8
80100492:	af00      	add	r7, sp, #0
80100494:	f107 0314 	add.w	r3, r7, #20
80100498:	607b      	str	r3, [r7, #4]
8010049a:	693b      	ldr	r3, [r7, #16]
8010049c:	6879      	ldr	r1, [r7, #4]
8010049e:	4618      	mov	r0, r3
801004a0:	f7ff ff2a 	bl	801002f8 <my_vprintf>
801004a4:	2300      	movs	r3, #0
801004a6:	607b      	str	r3, [r7, #4]
801004a8:	2300      	movs	r3, #0
801004aa:	4618      	mov	r0, r3
801004ac:	3708      	adds	r7, #8
801004ae:	46bd      	mov	sp, r7
801004b0:	e8bd 4080 	ldmia.w	sp!, {r7, lr}
801004b4:	b004      	add	sp, #16
801004b6:	4770      	bx	lr

801004b8 <my_printf_test>:
801004b8:	b580      	push	{r7, lr}
801004ba:	af00      	add	r7, sp, #0
801004bc:	f640 0034 	movw	r0, #2100	; 0x834
801004c0:	f2c8 0010 	movt	r0, #32784	; 0x8010
801004c4:	f7ff ffe2 	bl	8010048c <printf>
801004c8:	2261      	movs	r2, #97	; 0x61
801004ca:	2141      	movs	r1, #65	; 0x41
801004cc:	f640 0060 	movw	r0, #2144	; 0x860
801004d0:	f2c8 0010 	movt	r0, #32784	; 0x8010
801004d4:	f7ff ffda 	bl	8010048c <printf>
801004d8:	f24e 2140 	movw	r1, #57920	; 0xe240
801004dc:	f2c0 0101 	movt	r1, #1
801004e0:	f640 0080 	movw	r0, #2176	; 0x880
801004e4:	f2c8 0010 	movt	r0, #32784	; 0x8010
801004e8:	f7ff ffd0 	bl	8010048c <printf>
801004ec:	f44f 51ee 	mov.w	r1, #7616	; 0x1dc0
801004f0:	f6cf 71fe 	movt	r1, #65534	; 0xfffe
801004f4:	f640 0080 	movw	r0, #2176	; 0x880
801004f8:	f2c8 0010 	movt	r0, #32784	; 0x8010
801004fc:	f7ff ffc6 	bl	8010048c <printf>
80100500:	f245 51aa 	movw	r1, #21930	; 0x55aa
80100504:	f2c5 51aa 	movt	r1, #21930	; 0x55aa
80100508:	f640 009c 	movw	r0, #2204	; 0x89c
8010050c:	f2c8 0010 	movt	r0, #32784	; 0x8010
80100510:	f7ff ffbc 	bl	8010048c <printf>
80100514:	f640 01b8 	movw	r1, #2232	; 0x8b8
80100518:	f2c8 0110 	movt	r1, #32784	; 0x8010
8010051c:	f640 00c8 	movw	r0, #2248	; 0x8c8
80100520:	f2c8 0010 	movt	r0, #32784	; 0x8010
80100524:	f7ff ffb2 	bl	8010048c <printf>
80100528:	f243 0139 	movw	r1, #12345	; 0x3039
8010052c:	f640 00e4 	movw	r0, #2276	; 0x8e4
80100530:	f2c8 0010 	movt	r0, #32784	; 0x8010
80100534:	f7ff ffaa 	bl	8010048c <printf>
80100538:	f243 0139 	movw	r1, #12345	; 0x3039
8010053c:	f640 00f0 	movw	r0, #2288	; 0x8f0
80100540:	f2c8 0010 	movt	r0, #32784	; 0x8010
80100544:	f7ff ffa2 	bl	8010048c <printf>
80100548:	f242 3145 	movw	r1, #9029	; 0x2345
8010054c:	f2c0 0101 	movt	r1, #1
80100550:	f640 00fc 	movw	r0, #2300	; 0x8fc
80100554:	f2c8 0010 	movt	r0, #32784	; 0x8010
80100558:	f7ff ff98 	bl	8010048c <printf>
8010055c:	f242 3145 	movw	r1, #9029	; 0x2345
80100560:	f2c0 0101 	movt	r1, #1
80100564:	f640 100c 	movw	r0, #2316	; 0x90c
80100568:	f2c8 0010 	movt	r0, #32784	; 0x8010
8010056c:	f7ff ff8e 	bl	8010048c <printf>
80100570:	2101      	movs	r1, #1
80100572:	f640 1018 	movw	r0, #2328	; 0x918
80100576:	f2c8 0010 	movt	r0, #32784	; 0x8010
8010057a:	f7ff ff87 	bl	8010048c <printf>
8010057e:	2101      	movs	r1, #1
80100580:	f640 1028 	movw	r0, #2344	; 0x928
80100584:	f2c8 0010 	movt	r0, #32784	; 0x8010
80100588:	f7ff ff80 	bl	8010048c <printf>
8010058c:	2101      	movs	r1, #1
8010058e:	f640 1034 	movw	r0, #2356	; 0x934
80100592:	f2c8 0010 	movt	r0, #32784	; 0x8010
80100596:	f7ff ff79 	bl	8010048c <printf>
8010059a:	2101      	movs	r1, #1
8010059c:	f640 1040 	movw	r0, #2368	; 0x940
801005a0:	f2c8 0010 	movt	r0, #32784	; 0x8010
801005a4:	f7ff ff72 	bl	8010048c <printf>
801005a8:	2300      	movs	r3, #0
801005aa:	4618      	mov	r0, r3
801005ac:	bd80      	pop	{r7, pc}
801005ae:	bf00      	nop

801005b0 <__aeabi_uidiv>:
801005b0:	1e4a      	subs	r2, r1, #1
801005b2:	bf08      	it	eq
801005b4:	4770      	bxeq	lr
801005b6:	f0c0 8124 	bcc.w	80100802 <__aeabi_uidiv+0x252>
801005ba:	4288      	cmp	r0, r1
801005bc:	f240 8116 	bls.w	801007ec <__aeabi_uidiv+0x23c>
801005c0:	4211      	tst	r1, r2
801005c2:	f000 8117 	beq.w	801007f4 <__aeabi_uidiv+0x244>
801005c6:	fab0 f380 	clz	r3, r0
801005ca:	fab1 f281 	clz	r2, r1
801005ce:	eba2 0303 	sub.w	r3, r2, r3
801005d2:	f1c3 031f 	rsb	r3, r3, #31
801005d6:	a204      	add	r2, pc, #16	; (adr r2, 801005e8 <__aeabi_uidiv+0x38>)
801005d8:	eb02 1303 	add.w	r3, r2, r3, lsl #4
801005dc:	f04f 0200 	mov.w	r2, #0
801005e0:	469f      	mov	pc, r3
801005e2:	bf00      	nop
801005e4:	f3af 8000 	nop.w
801005e8:	ebb0 7fc1 	cmp.w	r0, r1, lsl #31
801005ec:	bf00      	nop
801005ee:	eb42 0202 	adc.w	r2, r2, r2
801005f2:	bf28      	it	cs
801005f4:	eba0 70c1 	subcs.w	r0, r0, r1, lsl #31
801005f8:	ebb0 7f81 	cmp.w	r0, r1, lsl #30
801005fc:	bf00      	nop
801005fe:	eb42 0202 	adc.w	r2, r2, r2
80100602:	bf28      	it	cs
80100604:	eba0 7081 	subcs.w	r0, r0, r1, lsl #30
80100608:	ebb0 7f41 	cmp.w	r0, r1, lsl #29
8010060c:	bf00      	nop
8010060e:	eb42 0202 	adc.w	r2, r2, r2
80100612:	bf28      	it	cs
80100614:	eba0 7041 	subcs.w	r0, r0, r1, lsl #29
80100618:	ebb0 7f01 	cmp.w	r0, r1, lsl #28
8010061c:	bf00      	nop
8010061e:	eb42 0202 	adc.w	r2, r2, r2
80100622:	bf28      	it	cs
80100624:	eba0 7001 	subcs.w	r0, r0, r1, lsl #28
80100628:	ebb0 6fc1 	cmp.w	r0, r1, lsl #27
8010062c:	bf00      	nop
8010062e:	eb42 0202 	adc.w	r2, r2, r2
80100632:	bf28      	it	cs
80100634:	eba0 60c1 	subcs.w	r0, r0, r1, lsl #27
80100638:	ebb0 6f81 	cmp.w	r0, r1, lsl #26
8010063c:	bf00      	nop
8010063e:	eb42 0202 	adc.w	r2, r2, r2
80100642:	bf28      	it	cs
80100644:	eba0 6081 	subcs.w	r0, r0, r1, lsl #26
80100648:	ebb0 6f41 	cmp.w	r0, r1, lsl #25
8010064c:	bf00      	nop
8010064e:	eb42 0202 	adc.w	r2, r2, r2
80100652:	bf28      	it	cs
80100654:	eba0 6041 	subcs.w	r0, r0, r1, lsl #25
80100658:	ebb0 6f01 	cmp.w	r0, r1, lsl #24
8010065c:	bf00      	nop
8010065e:	eb42 0202 	adc.w	r2, r2, r2
80100662:	bf28      	it	cs
80100664:	eba0 6001 	subcs.w	r0, r0, r1, lsl #24
80100668:	ebb0 5fc1 	cmp.w	r0, r1, lsl #23
8010066c:	bf00      	nop
8010066e:	eb42 0202 	adc.w	r2, r2, r2
80100672:	bf28      	it	cs
80100674:	eba0 50c1 	subcs.w	r0, r0, r1, lsl #23
80100678:	ebb0 5f81 	cmp.w	r0, r1, lsl #22
8010067c:	bf00      	nop
8010067e:	eb42 0202 	adc.w	r2, r2, r2
80100682:	bf28      	it	cs
80100684:	eba0 5081 	subcs.w	r0, r0, r1, lsl #22
80100688:	ebb0 5f41 	cmp.w	r0, r1, lsl #21
8010068c:	bf00      	nop
8010068e:	eb42 0202 	adc.w	r2, r2, r2
80100692:	bf28      	it	cs
80100694:	eba0 5041 	subcs.w	r0, r0, r1, lsl #21
80100698:	ebb0 5f01 	cmp.w	r0, r1, lsl #20
8010069c:	bf00      	nop
8010069e:	eb42 0202 	adc.w	r2, r2, r2
801006a2:	bf28      	it	cs
801006a4:	eba0 5001 	subcs.w	r0, r0, r1, lsl #20
801006a8:	ebb0 4fc1 	cmp.w	r0, r1, lsl #19
801006ac:	bf00      	nop
801006ae:	eb42 0202 	adc.w	r2, r2, r2
801006b2:	bf28      	it	cs
801006b4:	eba0 40c1 	subcs.w	r0, r0, r1, lsl #19
801006b8:	ebb0 4f81 	cmp.w	r0, r1, lsl #18
801006bc:	bf00      	nop
801006be:	eb42 0202 	adc.w	r2, r2, r2
801006c2:	bf28      	it	cs
801006c4:	eba0 4081 	subcs.w	r0, r0, r1, lsl #18
801006c8:	ebb0 4f41 	cmp.w	r0, r1, lsl #17
801006cc:	bf00      	nop
801006ce:	eb42 0202 	adc.w	r2, r2, r2
801006d2:	bf28      	it	cs
801006d4:	eba0 4041 	subcs.w	r0, r0, r1, lsl #17
801006d8:	ebb0 4f01 	cmp.w	r0, r1, lsl #16
801006dc:	bf00      	nop
801006de:	eb42 0202 	adc.w	r2, r2, r2
801006e2:	bf28      	it	cs
801006e4:	eba0 4001 	subcs.w	r0, r0, r1, lsl #16
801006e8:	ebb0 3fc1 	cmp.w	r0, r1, lsl #15
801006ec:	bf00      	nop
801006ee:	eb42 0202 	adc.w	r2, r2, r2
801006f2:	bf28      	it	cs
801006f4:	eba0 30c1 	subcs.w	r0, r0, r1, lsl #15
801006f8:	ebb0 3f81 	cmp.w	r0, r1, lsl #14
801006fc:	bf00      	nop
801006fe:	eb42 0202 	adc.w	r2, r2, r2
80100702:	bf28      	it	cs
80100704:	eba0 3081 	subcs.w	r0, r0, r1, lsl #14
80100708:	ebb0 3f41 	cmp.w	r0, r1, lsl #13
8010070c:	bf00      	nop
8010070e:	eb42 0202 	adc.w	r2, r2, r2
80100712:	bf28      	it	cs
80100714:	eba0 3041 	subcs.w	r0, r0, r1, lsl #13
80100718:	ebb0 3f01 	cmp.w	r0, r1, lsl #12
8010071c:	bf00      	nop
8010071e:	eb42 0202 	adc.w	r2, r2, r2
80100722:	bf28      	it	cs
80100724:	eba0 3001 	subcs.w	r0, r0, r1, lsl #12
80100728:	ebb0 2fc1 	cmp.w	r0, r1, lsl #11
8010072c:	bf00      	nop
8010072e:	eb42 0202 	adc.w	r2, r2, r2
80100732:	bf28      	it	cs
80100734:	eba0 20c1 	subcs.w	r0, r0, r1, lsl #11
80100738:	ebb0 2f81 	cmp.w	r0, r1, lsl #10
8010073c:	bf00      	nop
8010073e:	eb42 0202 	adc.w	r2, r2, r2
80100742:	bf28      	it	cs
80100744:	eba0 2081 	subcs.w	r0, r0, r1, lsl #10
80100748:	ebb0 2f41 	cmp.w	r0, r1, lsl #9
8010074c:	bf00      	nop
8010074e:	eb42 0202 	adc.w	r2, r2, r2
80100752:	bf28      	it	cs
80100754:	eba0 2041 	subcs.w	r0, r0, r1, lsl #9
80100758:	ebb0 2f01 	cmp.w	r0, r1, lsl #8
8010075c:	bf00      	nop
8010075e:	eb42 0202 	adc.w	r2, r2, r2
80100762:	bf28      	it	cs
80100764:	eba0 2001 	subcs.w	r0, r0, r1, lsl #8
80100768:	ebb0 1fc1 	cmp.w	r0, r1, lsl #7
8010076c:	bf00      	nop
8010076e:	eb42 0202 	adc.w	r2, r2, r2
80100772:	bf28      	it	cs
80100774:	eba0 10c1 	subcs.w	r0, r0, r1, lsl #7
80100778:	ebb0 1f81 	cmp.w	r0, r1, lsl #6
8010077c:	bf00      	nop
8010077e:	eb42 0202 	adc.w	r2, r2, r2
80100782:	bf28      	it	cs
80100784:	eba0 1081 	subcs.w	r0, r0, r1, lsl #6
80100788:	ebb0 1f41 	cmp.w	r0, r1, lsl #5
8010078c:	bf00      	nop
8010078e:	eb42 0202 	adc.w	r2, r2, r2
80100792:	bf28      	it	cs
80100794:	eba0 1041 	subcs.w	r0, r0, r1, lsl #5
80100798:	ebb0 1f01 	cmp.w	r0, r1, lsl #4
8010079c:	bf00      	nop
8010079e:	eb42 0202 	adc.w	r2, r2, r2
801007a2:	bf28      	it	cs
801007a4:	eba0 1001 	subcs.w	r0, r0, r1, lsl #4
801007a8:	ebb0 0fc1 	cmp.w	r0, r1, lsl #3
801007ac:	bf00      	nop
801007ae:	eb42 0202 	adc.w	r2, r2, r2
801007b2:	bf28      	it	cs
801007b4:	eba0 00c1 	subcs.w	r0, r0, r1, lsl #3
801007b8:	ebb0 0f81 	cmp.w	r0, r1, lsl #2
801007bc:	bf00      	nop
801007be:	eb42 0202 	adc.w	r2, r2, r2
801007c2:	bf28      	it	cs
801007c4:	eba0 0081 	subcs.w	r0, r0, r1, lsl #2
801007c8:	ebb0 0f41 	cmp.w	r0, r1, lsl #1
801007cc:	bf00      	nop
801007ce:	eb42 0202 	adc.w	r2, r2, r2
801007d2:	bf28      	it	cs
801007d4:	eba0 0041 	subcs.w	r0, r0, r1, lsl #1
801007d8:	ebb0 0f01 	cmp.w	r0, r1
801007dc:	bf00      	nop
801007de:	eb42 0202 	adc.w	r2, r2, r2
801007e2:	bf28      	it	cs
801007e4:	eba0 0001 	subcs.w	r0, r0, r1
801007e8:	4610      	mov	r0, r2
801007ea:	4770      	bx	lr
801007ec:	bf0c      	ite	eq
801007ee:	2001      	moveq	r0, #1
801007f0:	2000      	movne	r0, #0
801007f2:	4770      	bx	lr
801007f4:	fab1 f281 	clz	r2, r1
801007f8:	f1c2 021f 	rsb	r2, r2, #31
801007fc:	fa20 f002 	lsr.w	r0, r0, r2
80100800:	4770      	bx	lr
80100802:	b108      	cbz	r0, 80100808 <__aeabi_uidiv+0x258>
80100804:	f04f 30ff 	mov.w	r0, #4294967295	; 0xffffffff
80100808:	f000 b80e 	b.w	80100828 <__aeabi_idiv0>

8010080c <__aeabi_uidivmod>:
8010080c:	2900      	cmp	r1, #0
8010080e:	d0f8      	beq.n	80100802 <__aeabi_uidiv+0x252>
80100810:	e92d 4003 	stmdb	sp!, {r0, r1, lr}
80100814:	f7ff fecc 	bl	801005b0 <__aeabi_uidiv>
80100818:	e8bd 4006 	ldmia.w	sp!, {r1, r2, lr}
8010081c:	fb02 f300 	mul.w	r3, r2, r0
80100820:	eba1 0103 	sub.w	r1, r1, r3
80100824:	4770      	bx	lr
80100826:	bf00      	nop

80100828 <__aeabi_idiv0>:
80100828:	b502      	push	{r1, lr}
8010082a:	f04f 0008 	mov.w	r0, #8
8010082e:	f7ff fcc5 	bl	801001bc <raise>
80100832:	bd02      	pop	{r1, pc}

Disassembly of section .rodata:

80100834 <.LC0>:
80100834:	73696854 	cmnvc	r9, #84, 16	; 0x540000
80100838:	20736920 	rsbscs	r6, r3, r0, lsr #18
8010083c:	2e777777 	mrccs	7, 3, r7, cr7, cr7, {3}
80100840:	61303031 	teqvs	r0, r1, lsr r0
80100844:	6f2e6b73 	svcvs	0x002e6b73
80100848:	20206772 	eorcs	r6, r0, r2, ror r7
8010084c:	5f796d20 	svcpl	0x00796d20
80100850:	6e697270 	mcrvs	2, 3, r7, cr9, cr0, {3}
80100854:	74206674 	strtvc	r6, [r0], #-1652	; 0xfffff98c
80100858:	0a747365 	beq	81e1d5f4 <__bss_end+0x1d1cc8c>
8010085c:	0000000d 	andeq	r0, r0, sp

80100860 <.LC1>:
80100860:	74736574 	ldrbtvc	r6, [r3], #-1396	; 0xfffffa8c
80100864:	61686320 	cmnvs	r8, r0, lsr #6
80100868:	20202072 	eorcs	r2, r0, r2, ror r0
8010086c:	20202020 	eorcs	r2, r0, r0, lsr #32
80100870:	20202020 	eorcs	r2, r0, r0, lsr #32
80100874:	2c63253d 	cfstr64cs	mvdx2, [r3], #-244	; 0xffffff0c
80100878:	0d0a6325 	stceq	3, cr6, [sl, #-148]	; 0xffffff6c
8010087c:	00000000 	andeq	r0, r0, r0

80100880 <.LC2>:
80100880:	74736574 	ldrbtvc	r6, [r3], #-1396	; 0xfffffa8c
80100884:	63656420 	cmnvs	r5, #32, 8	; 0x20000000
80100888:	6c616d69 	stclvs	13, cr6, [r1], #-420	; 0xfffffe5c
8010088c:	6d756e20 	ldclvs	14, cr6, [r5, #-128]!	; 0xffffff80
80100890:	20726562 	rsbscs	r6, r2, r2, ror #10
80100894:	0a64253d 	beq	81a09d90 <__bss_end+0x1909428>
80100898:	0000000d 	andeq	r0, r0, sp

8010089c <.LC3>:
8010089c:	74736574 	ldrbtvc	r6, [r3], #-1396	; 0xfffffa8c
801008a0:	78656820 	stmdavc	r5!, {r5, fp, sp, lr}^
801008a4:	20202020 	eorcs	r2, r0, r0, lsr #32
801008a8:	6d756e20 	ldclvs	14, cr6, [r5, #-128]!	; 0xffffff80
801008ac:	20726562 	rsbscs	r6, r2, r2, ror #10
801008b0:	2578303d 	ldrbcs	r3, [r8, #-61]!	; 0xffffffc3
801008b4:	000d0a78 	andeq	r0, sp, r8, ror sl

801008b8 <.LC4>:
801008b8:	2e777777 	mrccs	7, 3, r7, cr7, cr7, {3}
801008bc:	61303031 	teqvs	r0, r1, lsr r0
801008c0:	6f2e6b73 	svcvs	0x002e6b73
801008c4:	00006772 	andeq	r6, r0, r2, ror r7

801008c8 <.LC5>:
801008c8:	74736574 	ldrbtvc	r6, [r3], #-1396	; 0xfffffa8c
801008cc:	72747320 	rsbsvc	r7, r4, #32, 6	; 0x80000000
801008d0:	20676e69 	rsbcs	r6, r7, r9, ror #28
801008d4:	20202020 	eorcs	r2, r0, r0, lsr #32
801008d8:	20202020 	eorcs	r2, r0, r0, lsr #32
801008dc:	0a73253d 	beq	81dc9dd8 <__bss_end+0x1cc9470>
801008e0:	0000000d 	andeq	r0, r0, sp

801008e4 <.LC6>:
801008e4:	3d6d756e 	cfstr64cc	mvdx7, [sp, #-440]!	; 0xfffffe48
801008e8:	64383025 	ldrtvs	r3, [r8], #-37	; 0xffffffdb
801008ec:	00000d0a 	andeq	r0, r0, sl, lsl #26

801008f0 <.LC7>:
801008f0:	3d6d756e 	cfstr64cc	mvdx7, [sp, #-440]!	; 0xfffffe48
801008f4:	0a643825 	beq	81a0e990 <__bss_end+0x190e028>
801008f8:	0000000d 	andeq	r0, r0, sp

801008fc <.LC8>:
801008fc:	3d6d756e 	cfstr64cc	mvdx7, [sp, #-440]!	; 0xfffffe48
80100900:	30257830 	eorcc	r7, r5, r0, lsr r8
80100904:	0d0a7838 	stceq	8, cr7, [sl, #-224]	; 0xffffff20
80100908:	00000000 	andeq	r0, r0, r0

8010090c <.LC9>:
8010090c:	3d6d756e 	cfstr64cc	mvdx7, [sp, #-440]!	; 0xfffffe48
80100910:	38257830 	stmdacc	r5!, {r4, r5, fp, ip, sp, lr}
80100914:	000d0a78 	andeq	r0, sp, r8, ror sl

80100918 <.LC10>:
80100918:	3d6d756e 	cfstr64cc	mvdx7, [sp, #-440]!	; 0xfffffe48
8010091c:	30257830 	eorcc	r7, r5, r0, lsr r8
80100920:	0d0a7832 	stceq	8, cr7, [sl, #-200]	; 0xffffff38
80100924:	00000000 	andeq	r0, r0, r0

80100928 <.LC11>:
80100928:	3d6d756e 	cfstr64cc	mvdx7, [sp, #-440]!	; 0xfffffe48
8010092c:	32257830 	eorcc	r7, r5, #48, 16	; 0x300000
80100930:	000d0a78 	andeq	r0, sp, r8, ror sl

80100934 <.LC12>:
80100934:	3d6d756e 	cfstr64cc	mvdx7, [sp, #-440]!	; 0xfffffe48
80100938:	64353025 	ldrtvs	r3, [r5], #-37	; 0xffffffdb
8010093c:	00000d0a 	andeq	r0, r0, sl, lsl #26

80100940 <.LC13>:
80100940:	3d6d756e 	cfstr64cc	mvdx7, [sp, #-440]!	; 0xfffffe48
80100944:	0a643525 	beq	81a0dde0 <__bss_end+0x190d478>
80100948:	Address 0x0000000080100948 is out of bounds.


Disassembly of section .data:

8010094c <hex_tab>:
8010094c:	33323130 	teqcc	r2, #48, 2
80100950:	37363534 			; <UNDEFINED> instruction: 0x37363534
80100954:	62613938 	rsbvs	r3, r1, #56, 18	; 0xe0000
80100958:	66656463 	strbtvs	r6, [r5], -r3, ror #8

Disassembly of section .bss:

8010095c <__bss_start>:
8010095c:	00000000 	andeq	r0, r0, r0

80100960 <IOMUXC_SW_MUX_CTL_PAD_UART1_RX_DATA>:
80100960:	00000000 	andeq	r0, r0, r0

80100964 <IOMUXC_UART1_RX_DATA_SELECT_INPUT>:
80100964:	00000000 	andeq	r0, r0, r0

