
relocate.elf:     file format elf32-littlearm


Disassembly of section .text:

00900000 <_start>:
  900000:	e59fd00c 	ldr	sp, [pc, #12]	; 900014 <halt+0x4>
  900004:	fa00016f 	blx	9005c8 <copy_data>
  900008:	fb000180 	blx	900612 <clean_bss>
  90000c:	e59ff004 	ldr	pc, [pc, #4]	; 900018 <halt+0x8>

00900010 <halt>:
  900010:	eafffffe 	b	900010 <halt>
  900014:	80200000 	eorhi	r0, r0, r0
  900018:	009001b3 			; <UNDEFINED> instruction: 0x009001b3

0090001c <Uart_Init>:
  90001c:	b480      	push	{r7}
  90001e:	af00      	add	r7, sp, #0
  900020:	f640 2208 	movw	r2, #2568	; 0xa08
  900024:	f2c0 0290 	movt	r2, #144	; 0x90
  900028:	2384      	movs	r3, #132	; 0x84
  90002a:	f2c0 230e 	movt	r3, #526	; 0x20e
  90002e:	6013      	str	r3, [r2, #0]
  900030:	f640 220c 	movw	r2, #2572	; 0xa0c
  900034:	f2c0 0290 	movt	r2, #144	; 0x90
  900038:	2388      	movs	r3, #136	; 0x88
  90003a:	f2c0 230e 	movt	r3, #526	; 0x20e
  90003e:	6013      	str	r3, [r2, #0]
  900040:	f640 230c 	movw	r3, #2572	; 0xa0c
  900044:	f2c0 0390 	movt	r3, #144	; 0x90
  900048:	681b      	ldr	r3, [r3, #0]
  90004a:	2200      	movs	r2, #0
  90004c:	601a      	str	r2, [r3, #0]
  90004e:	f640 2308 	movw	r3, #2568	; 0xa08
  900052:	f2c0 0390 	movt	r3, #144	; 0x90
  900056:	681b      	ldr	r3, [r3, #0]
  900058:	2200      	movs	r2, #0
  90005a:	601a      	str	r2, [r3, #0]
  90005c:	2300      	movs	r3, #0
  90005e:	f2c0 2302 	movt	r3, #514	; 0x202
  900062:	2200      	movs	r2, #0
  900064:	f2c0 2202 	movt	r2, #514	; 0x202
  900068:	f8d2 2080 	ldr.w	r2, [r2, #128]	; 0x80
  90006c:	f042 0201 	orr.w	r2, r2, #1
  900070:	f8c3 2080 	str.w	r2, [r3, #128]	; 0x80
  900074:	2200      	movs	r2, #0
  900076:	f2c0 2202 	movt	r2, #514	; 0x202
  90007a:	2300      	movs	r3, #0
  90007c:	f2c0 2302 	movt	r3, #514	; 0x202
  900080:	f8d3 3084 	ldr.w	r3, [r3, #132]	; 0x84
  900084:	f443 4380 	orr.w	r3, r3, #16384	; 0x4000
  900088:	f043 0326 	orr.w	r3, r3, #38	; 0x26
  90008c:	f8c2 3084 	str.w	r3, [r2, #132]	; 0x84
  900090:	2300      	movs	r3, #0
  900092:	f2c0 2302 	movt	r3, #514	; 0x202
  900096:	2200      	movs	r2, #0
  900098:	f2c0 2202 	movt	r2, #514	; 0x202
  90009c:	f8d2 2088 	ldr.w	r2, [r2, #136]	; 0x88
  9000a0:	f042 0204 	orr.w	r2, r2, #4
  9000a4:	f8c3 2088 	str.w	r2, [r3, #136]	; 0x88
  9000a8:	2300      	movs	r3, #0
  9000aa:	f2c0 2302 	movt	r3, #514	; 0x202
  9000ae:	f44f 7220 	mov.w	r2, #640	; 0x280
  9000b2:	f8c3 2090 	str.w	r2, [r3, #144]	; 0x90
  9000b6:	2300      	movs	r3, #0
  9000b8:	f2c0 2302 	movt	r3, #514	; 0x202
  9000bc:	2247      	movs	r2, #71	; 0x47
  9000be:	f8c3 20a4 	str.w	r2, [r3, #164]	; 0xa4
  9000c2:	2300      	movs	r3, #0
  9000c4:	f2c0 2302 	movt	r3, #514	; 0x202
  9000c8:	f640 4234 	movw	r2, #3124	; 0xc34
  9000cc:	f8c3 20a8 	str.w	r2, [r3, #168]	; 0xa8
  9000d0:	2300      	movs	r3, #0
  9000d2:	f2c0 2302 	movt	r3, #514	; 0x202
  9000d6:	2200      	movs	r2, #0
  9000d8:	f2c0 2202 	movt	r2, #514	; 0x202
  9000dc:	f8d2 2080 	ldr.w	r2, [r2, #128]	; 0x80
  9000e0:	f042 0201 	orr.w	r2, r2, #1
  9000e4:	f8c3 2080 	str.w	r2, [r3, #128]	; 0x80
  9000e8:	bf00      	nop
  9000ea:	46bd      	mov	sp, r7
  9000ec:	f85d 7b04 	ldr.w	r7, [sp], #4
  9000f0:	4770      	bx	lr

009000f2 <PutChar>:
  9000f2:	b480      	push	{r7}
  9000f4:	b083      	sub	sp, #12
  9000f6:	af00      	add	r7, sp, #0
  9000f8:	6078      	str	r0, [r7, #4]
  9000fa:	bf00      	nop
  9000fc:	2300      	movs	r3, #0
  9000fe:	f2c0 2302 	movt	r3, #514	; 0x202
  900102:	f8d3 3098 	ldr.w	r3, [r3, #152]	; 0x98
  900106:	f003 0308 	and.w	r3, r3, #8
  90010a:	2b00      	cmp	r3, #0
  90010c:	d0f6      	beq.n	9000fc <PutChar+0xa>
  90010e:	2300      	movs	r3, #0
  900110:	f2c0 2302 	movt	r3, #514	; 0x202
  900114:	687a      	ldr	r2, [r7, #4]
  900116:	b2d2      	uxtb	r2, r2
  900118:	641a      	str	r2, [r3, #64]	; 0x40
  90011a:	bf00      	nop
  90011c:	370c      	adds	r7, #12
  90011e:	46bd      	mov	sp, r7
  900120:	f85d 7b04 	ldr.w	r7, [sp], #4
  900124:	4770      	bx	lr

00900126 <GetChar>:
  900126:	b480      	push	{r7}
  900128:	af00      	add	r7, sp, #0
  90012a:	bf00      	nop
  90012c:	2300      	movs	r3, #0
  90012e:	f2c0 2302 	movt	r3, #514	; 0x202
  900132:	f8d3 3098 	ldr.w	r3, [r3, #152]	; 0x98
  900136:	f003 0301 	and.w	r3, r3, #1
  90013a:	2b00      	cmp	r3, #0
  90013c:	d0f6      	beq.n	90012c <GetChar+0x6>
  90013e:	2300      	movs	r3, #0
  900140:	f2c0 2302 	movt	r3, #514	; 0x202
  900144:	681b      	ldr	r3, [r3, #0]
  900146:	b2db      	uxtb	r3, r3
  900148:	4618      	mov	r0, r3
  90014a:	46bd      	mov	sp, r7
  90014c:	f85d 7b04 	ldr.w	r7, [sp], #4
  900150:	4770      	bx	lr

00900152 <PutStr>:
  900152:	b580      	push	{r7, lr}
  900154:	b082      	sub	sp, #8
  900156:	af00      	add	r7, sp, #0
  900158:	6078      	str	r0, [r7, #4]
  90015a:	e007      	b.n	90016c <PutStr+0x1a>
  90015c:	687b      	ldr	r3, [r7, #4]
  90015e:	781b      	ldrb	r3, [r3, #0]
  900160:	4618      	mov	r0, r3
  900162:	f7ff ffc6 	bl	9000f2 <PutChar>
  900166:	687b      	ldr	r3, [r7, #4]
  900168:	3301      	adds	r3, #1
  90016a:	607b      	str	r3, [r7, #4]
  90016c:	687b      	ldr	r3, [r7, #4]
  90016e:	781b      	ldrb	r3, [r3, #0]
  900170:	2b00      	cmp	r3, #0
  900172:	d1f3      	bne.n	90015c <PutStr+0xa>
  900174:	bf00      	nop
  900176:	3708      	adds	r7, #8
  900178:	46bd      	mov	sp, r7
  90017a:	bd80      	pop	{r7, pc}

0090017c <raise>:
  90017c:	b480      	push	{r7}
  90017e:	b083      	sub	sp, #12
  900180:	af00      	add	r7, sp, #0
  900182:	6078      	str	r0, [r7, #4]
  900184:	2300      	movs	r3, #0
  900186:	4618      	mov	r0, r3
  900188:	370c      	adds	r7, #12
  90018a:	46bd      	mov	sp, r7
  90018c:	f85d 7b04 	ldr.w	r7, [sp], #4
  900190:	4770      	bx	lr

00900192 <delay>:
  900192:	b480      	push	{r7}
  900194:	b083      	sub	sp, #12
  900196:	af00      	add	r7, sp, #0
  900198:	6078      	str	r0, [r7, #4]
  90019a:	bf00      	nop
  90019c:	687b      	ldr	r3, [r7, #4]
  90019e:	1e5a      	subs	r2, r3, #1
  9001a0:	607a      	str	r2, [r7, #4]
  9001a2:	2b00      	cmp	r3, #0
  9001a4:	d1fa      	bne.n	90019c <delay+0xa>
  9001a6:	bf00      	nop
  9001a8:	370c      	adds	r7, #12
  9001aa:	46bd      	mov	sp, r7
  9001ac:	f85d 7b04 	ldr.w	r7, [sp], #4
  9001b0:	4770      	bx	lr

009001b2 <main>:
  9001b2:	b580      	push	{r7, lr}
  9001b4:	af00      	add	r7, sp, #0
  9001b6:	f7ff ff31 	bl	90001c <Uart_Init>
  9001ba:	f640 00d8 	movw	r0, #2264	; 0x8d8
  9001be:	f2c0 0090 	movt	r0, #144	; 0x90
  9001c2:	f000 f96f 	bl	9004a4 <printf>
  9001c6:	f640 13f4 	movw	r3, #2548	; 0x9f4
  9001ca:	f2c0 0390 	movt	r3, #144	; 0x90
  9001ce:	781b      	ldrb	r3, [r3, #0]
  9001d0:	4618      	mov	r0, r3
  9001d2:	f7ff ff8e 	bl	9000f2 <PutChar>
  9001d6:	f640 13f4 	movw	r3, #2548	; 0x9f4
  9001da:	f2c0 0390 	movt	r3, #144	; 0x90
  9001de:	781b      	ldrb	r3, [r3, #0]
  9001e0:	3301      	adds	r3, #1
  9001e2:	b2da      	uxtb	r2, r3
  9001e4:	f640 13f4 	movw	r3, #2548	; 0x9f4
  9001e8:	f2c0 0390 	movt	r3, #144	; 0x90
  9001ec:	701a      	strb	r2, [r3, #0]
  9001ee:	f244 2040 	movw	r0, #16960	; 0x4240
  9001f2:	f2c0 000f 	movt	r0, #15
  9001f6:	f7ff ffcc 	bl	900192 <delay>
  9001fa:	e7e4      	b.n	9001c6 <main+0x14>

009001fc <outc>:
  9001fc:	b580      	push	{r7, lr}
  9001fe:	b082      	sub	sp, #8
  900200:	af00      	add	r7, sp, #0
  900202:	6078      	str	r0, [r7, #4]
  900204:	6878      	ldr	r0, [r7, #4]
  900206:	f7ff ff74 	bl	9000f2 <PutChar>
  90020a:	2300      	movs	r3, #0
  90020c:	4618      	mov	r0, r3
  90020e:	3708      	adds	r7, #8
  900210:	46bd      	mov	sp, r7
  900212:	bd80      	pop	{r7, pc}

00900214 <outs>:
  900214:	b580      	push	{r7, lr}
  900216:	b082      	sub	sp, #8
  900218:	af00      	add	r7, sp, #0
  90021a:	6078      	str	r0, [r7, #4]
  90021c:	e006      	b.n	90022c <outs+0x18>
  90021e:	687b      	ldr	r3, [r7, #4]
  900220:	1c5a      	adds	r2, r3, #1
  900222:	607a      	str	r2, [r7, #4]
  900224:	781b      	ldrb	r3, [r3, #0]
  900226:	4618      	mov	r0, r3
  900228:	f7ff ff63 	bl	9000f2 <PutChar>
  90022c:	687b      	ldr	r3, [r7, #4]
  90022e:	781b      	ldrb	r3, [r3, #0]
  900230:	2b00      	cmp	r3, #0
  900232:	d1f4      	bne.n	90021e <outs+0xa>
  900234:	2300      	movs	r3, #0
  900236:	4618      	mov	r0, r3
  900238:	3708      	adds	r7, #8
  90023a:	46bd      	mov	sp, r7
  90023c:	bd80      	pop	{r7, pc}

0090023e <out_num>:
  90023e:	b580      	push	{r7, lr}
  900240:	b098      	sub	sp, #96	; 0x60
  900242:	af00      	add	r7, sp, #0
  900244:	60f8      	str	r0, [r7, #12]
  900246:	60b9      	str	r1, [r7, #8]
  900248:	603b      	str	r3, [r7, #0]
  90024a:	4613      	mov	r3, r2
  90024c:	71fb      	strb	r3, [r7, #7]
  90024e:	2300      	movs	r3, #0
  900250:	65fb      	str	r3, [r7, #92]	; 0x5c
  900252:	f107 0310 	add.w	r3, r7, #16
  900256:	3340      	adds	r3, #64	; 0x40
  900258:	65bb      	str	r3, [r7, #88]	; 0x58
  90025a:	2300      	movs	r3, #0
  90025c:	657b      	str	r3, [r7, #84]	; 0x54
  90025e:	2300      	movs	r3, #0
  900260:	653b      	str	r3, [r7, #80]	; 0x50
  900262:	6dbb      	ldr	r3, [r7, #88]	; 0x58
  900264:	3b01      	subs	r3, #1
  900266:	65bb      	str	r3, [r7, #88]	; 0x58
  900268:	6dbb      	ldr	r3, [r7, #88]	; 0x58
  90026a:	2200      	movs	r2, #0
  90026c:	701a      	strb	r2, [r3, #0]
  90026e:	68fb      	ldr	r3, [r7, #12]
  900270:	2b00      	cmp	r3, #0
  900272:	da03      	bge.n	90027c <out_num+0x3e>
  900274:	68fb      	ldr	r3, [r7, #12]
  900276:	425b      	negs	r3, r3
  900278:	65fb      	str	r3, [r7, #92]	; 0x5c
  90027a:	e001      	b.n	900280 <out_num+0x42>
  90027c:	68fb      	ldr	r3, [r7, #12]
  90027e:	65fb      	str	r3, [r7, #92]	; 0x5c
  900280:	6dbb      	ldr	r3, [r7, #88]	; 0x58
  900282:	3b01      	subs	r3, #1
  900284:	65bb      	str	r3, [r7, #88]	; 0x58
  900286:	68ba      	ldr	r2, [r7, #8]
  900288:	6dfb      	ldr	r3, [r7, #92]	; 0x5c
  90028a:	4611      	mov	r1, r2
  90028c:	4618      	mov	r0, r3
  90028e:	f000 fb0d 	bl	9008ac <__aeabi_uidivmod>
  900292:	460b      	mov	r3, r1
  900294:	461a      	mov	r2, r3
  900296:	f640 13f8 	movw	r3, #2552	; 0x9f8
  90029a:	f2c0 0390 	movt	r3, #144	; 0x90
  90029e:	5c9a      	ldrb	r2, [r3, r2]
  9002a0:	6dbb      	ldr	r3, [r7, #88]	; 0x58
  9002a2:	701a      	strb	r2, [r3, #0]
  9002a4:	6d7b      	ldr	r3, [r7, #84]	; 0x54
  9002a6:	3301      	adds	r3, #1
  9002a8:	657b      	str	r3, [r7, #84]	; 0x54
  9002aa:	68bb      	ldr	r3, [r7, #8]
  9002ac:	4619      	mov	r1, r3
  9002ae:	6df8      	ldr	r0, [r7, #92]	; 0x5c
  9002b0:	f000 f9ce 	bl	900650 <__aeabi_uidiv>
  9002b4:	4603      	mov	r3, r0
  9002b6:	65fb      	str	r3, [r7, #92]	; 0x5c
  9002b8:	6dfb      	ldr	r3, [r7, #92]	; 0x5c
  9002ba:	2b00      	cmp	r3, #0
  9002bc:	d1e0      	bne.n	900280 <out_num+0x42>
  9002be:	683b      	ldr	r3, [r7, #0]
  9002c0:	2b00      	cmp	r3, #0
  9002c2:	d014      	beq.n	9002ee <out_num+0xb0>
  9002c4:	6d7a      	ldr	r2, [r7, #84]	; 0x54
  9002c6:	683b      	ldr	r3, [r7, #0]
  9002c8:	429a      	cmp	r2, r3
  9002ca:	da10      	bge.n	9002ee <out_num+0xb0>
  9002cc:	683a      	ldr	r2, [r7, #0]
  9002ce:	6d7b      	ldr	r3, [r7, #84]	; 0x54
  9002d0:	1ad3      	subs	r3, r2, r3
  9002d2:	653b      	str	r3, [r7, #80]	; 0x50
  9002d4:	e008      	b.n	9002e8 <out_num+0xaa>
  9002d6:	6dbb      	ldr	r3, [r7, #88]	; 0x58
  9002d8:	3b01      	subs	r3, #1
  9002da:	65bb      	str	r3, [r7, #88]	; 0x58
  9002dc:	6dbb      	ldr	r3, [r7, #88]	; 0x58
  9002de:	79fa      	ldrb	r2, [r7, #7]
  9002e0:	701a      	strb	r2, [r3, #0]
  9002e2:	6d3b      	ldr	r3, [r7, #80]	; 0x50
  9002e4:	3b01      	subs	r3, #1
  9002e6:	653b      	str	r3, [r7, #80]	; 0x50
  9002e8:	6d3b      	ldr	r3, [r7, #80]	; 0x50
  9002ea:	2b00      	cmp	r3, #0
  9002ec:	d1f3      	bne.n	9002d6 <out_num+0x98>
  9002ee:	68fb      	ldr	r3, [r7, #12]
  9002f0:	2b00      	cmp	r3, #0
  9002f2:	da05      	bge.n	900300 <out_num+0xc2>
  9002f4:	6dbb      	ldr	r3, [r7, #88]	; 0x58
  9002f6:	3b01      	subs	r3, #1
  9002f8:	65bb      	str	r3, [r7, #88]	; 0x58
  9002fa:	6dbb      	ldr	r3, [r7, #88]	; 0x58
  9002fc:	222d      	movs	r2, #45	; 0x2d
  9002fe:	701a      	strb	r2, [r3, #0]
  900300:	6db8      	ldr	r0, [r7, #88]	; 0x58
  900302:	f7ff ff87 	bl	900214 <outs>
  900306:	4603      	mov	r3, r0
  900308:	4618      	mov	r0, r3
  90030a:	3760      	adds	r7, #96	; 0x60
  90030c:	46bd      	mov	sp, r7
  90030e:	bd80      	pop	{r7, pc}

00900310 <my_vprintf>:
  900310:	b580      	push	{r7, lr}
  900312:	b084      	sub	sp, #16
  900314:	af00      	add	r7, sp, #0
  900316:	6078      	str	r0, [r7, #4]
  900318:	6039      	str	r1, [r7, #0]
  90031a:	2320      	movs	r3, #32
  90031c:	73fb      	strb	r3, [r7, #15]
  90031e:	2300      	movs	r3, #0
  900320:	60bb      	str	r3, [r7, #8]
  900322:	e0b5      	b.n	900490 <my_vprintf+0x180>
  900324:	687b      	ldr	r3, [r7, #4]
  900326:	781b      	ldrb	r3, [r3, #0]
  900328:	2b25      	cmp	r3, #37	; 0x25
  90032a:	d005      	beq.n	900338 <my_vprintf+0x28>
  90032c:	687b      	ldr	r3, [r7, #4]
  90032e:	781b      	ldrb	r3, [r3, #0]
  900330:	4618      	mov	r0, r3
  900332:	f7ff ff63 	bl	9001fc <outc>
  900336:	e0a8      	b.n	90048a <my_vprintf+0x17a>
  900338:	2320      	movs	r3, #32
  90033a:	73fb      	strb	r3, [r7, #15]
  90033c:	2300      	movs	r3, #0
  90033e:	60bb      	str	r3, [r7, #8]
  900340:	687b      	ldr	r3, [r7, #4]
  900342:	3301      	adds	r3, #1
  900344:	607b      	str	r3, [r7, #4]
  900346:	687b      	ldr	r3, [r7, #4]
  900348:	781b      	ldrb	r3, [r3, #0]
  90034a:	2b30      	cmp	r3, #48	; 0x30
  90034c:	d114      	bne.n	900378 <my_vprintf+0x68>
  90034e:	2330      	movs	r3, #48	; 0x30
  900350:	73fb      	strb	r3, [r7, #15]
  900352:	687b      	ldr	r3, [r7, #4]
  900354:	3301      	adds	r3, #1
  900356:	607b      	str	r3, [r7, #4]
  900358:	e00e      	b.n	900378 <my_vprintf+0x68>
  90035a:	68ba      	ldr	r2, [r7, #8]
  90035c:	4613      	mov	r3, r2
  90035e:	009b      	lsls	r3, r3, #2
  900360:	4413      	add	r3, r2
  900362:	005b      	lsls	r3, r3, #1
  900364:	60bb      	str	r3, [r7, #8]
  900366:	687b      	ldr	r3, [r7, #4]
  900368:	781b      	ldrb	r3, [r3, #0]
  90036a:	3b30      	subs	r3, #48	; 0x30
  90036c:	68ba      	ldr	r2, [r7, #8]
  90036e:	4413      	add	r3, r2
  900370:	60bb      	str	r3, [r7, #8]
  900372:	687b      	ldr	r3, [r7, #4]
  900374:	3301      	adds	r3, #1
  900376:	607b      	str	r3, [r7, #4]
  900378:	687b      	ldr	r3, [r7, #4]
  90037a:	781b      	ldrb	r3, [r3, #0]
  90037c:	2b2f      	cmp	r3, #47	; 0x2f
  90037e:	d903      	bls.n	900388 <my_vprintf+0x78>
  900380:	687b      	ldr	r3, [r7, #4]
  900382:	781b      	ldrb	r3, [r3, #0]
  900384:	2b39      	cmp	r3, #57	; 0x39
  900386:	d9e8      	bls.n	90035a <my_vprintf+0x4a>
  900388:	687b      	ldr	r3, [r7, #4]
  90038a:	781b      	ldrb	r3, [r3, #0]
  90038c:	3b63      	subs	r3, #99	; 0x63
  90038e:	2b15      	cmp	r3, #21
  900390:	d875      	bhi.n	90047e <my_vprintf+0x16e>
  900392:	a201      	add	r2, pc, #4	; (adr r2, 900398 <my_vprintf+0x88>)
  900394:	f852 f023 	ldr.w	pc, [r2, r3, lsl #2]
  900398:	00900457 	addseq	r0, r0, r7, asr r4
  90039c:	009003f1 			; <UNDEFINED> instruction: 0x009003f1
  9003a0:	0090047f 	addseq	r0, r0, pc, ror r4
  9003a4:	0090047f 	addseq	r0, r0, pc, ror r4
  9003a8:	0090047f 	addseq	r0, r0, pc, ror r4
  9003ac:	0090047f 	addseq	r0, r0, pc, ror r4
  9003b0:	0090047f 	addseq	r0, r0, pc, ror r4
  9003b4:	0090047f 	addseq	r0, r0, pc, ror r4
  9003b8:	0090047f 	addseq	r0, r0, pc, ror r4
  9003bc:	0090047f 	addseq	r0, r0, pc, ror r4
  9003c0:	0090047f 	addseq	r0, r0, pc, ror r4
  9003c4:	0090047f 	addseq	r0, r0, pc, ror r4
  9003c8:	00900409 	addseq	r0, r0, r9, lsl #8
  9003cc:	0090047f 	addseq	r0, r0, pc, ror r4
  9003d0:	0090047f 	addseq	r0, r0, pc, ror r4
  9003d4:	0090047f 	addseq	r0, r0, pc, ror r4
  9003d8:	0090046b 	addseq	r0, r0, fp, ror #8
  9003dc:	0090047f 	addseq	r0, r0, pc, ror r4
  9003e0:	00900423 	addseq	r0, r0, r3, lsr #8
  9003e4:	0090047f 	addseq	r0, r0, pc, ror r4
  9003e8:	0090047f 	addseq	r0, r0, pc, ror r4
  9003ec:	0090043d 	addseq	r0, r0, sp, lsr r4
  9003f0:	683b      	ldr	r3, [r7, #0]
  9003f2:	3304      	adds	r3, #4
  9003f4:	603b      	str	r3, [r7, #0]
  9003f6:	683b      	ldr	r3, [r7, #0]
  9003f8:	3b04      	subs	r3, #4
  9003fa:	6818      	ldr	r0, [r3, #0]
  9003fc:	7bfa      	ldrb	r2, [r7, #15]
  9003fe:	68bb      	ldr	r3, [r7, #8]
  900400:	210a      	movs	r1, #10
  900402:	f7ff ff1c 	bl	90023e <out_num>
  900406:	e040      	b.n	90048a <my_vprintf+0x17a>
  900408:	683b      	ldr	r3, [r7, #0]
  90040a:	3304      	adds	r3, #4
  90040c:	603b      	str	r3, [r7, #0]
  90040e:	683b      	ldr	r3, [r7, #0]
  900410:	3b04      	subs	r3, #4
  900412:	681b      	ldr	r3, [r3, #0]
  900414:	4618      	mov	r0, r3
  900416:	7bfa      	ldrb	r2, [r7, #15]
  900418:	68bb      	ldr	r3, [r7, #8]
  90041a:	2108      	movs	r1, #8
  90041c:	f7ff ff0f 	bl	90023e <out_num>
  900420:	e033      	b.n	90048a <my_vprintf+0x17a>
  900422:	683b      	ldr	r3, [r7, #0]
  900424:	3304      	adds	r3, #4
  900426:	603b      	str	r3, [r7, #0]
  900428:	683b      	ldr	r3, [r7, #0]
  90042a:	3b04      	subs	r3, #4
  90042c:	681b      	ldr	r3, [r3, #0]
  90042e:	4618      	mov	r0, r3
  900430:	7bfa      	ldrb	r2, [r7, #15]
  900432:	68bb      	ldr	r3, [r7, #8]
  900434:	210a      	movs	r1, #10
  900436:	f7ff ff02 	bl	90023e <out_num>
  90043a:	e026      	b.n	90048a <my_vprintf+0x17a>
  90043c:	683b      	ldr	r3, [r7, #0]
  90043e:	3304      	adds	r3, #4
  900440:	603b      	str	r3, [r7, #0]
  900442:	683b      	ldr	r3, [r7, #0]
  900444:	3b04      	subs	r3, #4
  900446:	681b      	ldr	r3, [r3, #0]
  900448:	4618      	mov	r0, r3
  90044a:	7bfa      	ldrb	r2, [r7, #15]
  90044c:	68bb      	ldr	r3, [r7, #8]
  90044e:	2110      	movs	r1, #16
  900450:	f7ff fef5 	bl	90023e <out_num>
  900454:	e019      	b.n	90048a <my_vprintf+0x17a>
  900456:	683b      	ldr	r3, [r7, #0]
  900458:	3304      	adds	r3, #4
  90045a:	603b      	str	r3, [r7, #0]
  90045c:	683b      	ldr	r3, [r7, #0]
  90045e:	3b04      	subs	r3, #4
  900460:	681b      	ldr	r3, [r3, #0]
  900462:	4618      	mov	r0, r3
  900464:	f7ff feca 	bl	9001fc <outc>
  900468:	e00f      	b.n	90048a <my_vprintf+0x17a>
  90046a:	683b      	ldr	r3, [r7, #0]
  90046c:	3304      	adds	r3, #4
  90046e:	603b      	str	r3, [r7, #0]
  900470:	683b      	ldr	r3, [r7, #0]
  900472:	3b04      	subs	r3, #4
  900474:	681b      	ldr	r3, [r3, #0]
  900476:	4618      	mov	r0, r3
  900478:	f7ff fecc 	bl	900214 <outs>
  90047c:	e005      	b.n	90048a <my_vprintf+0x17a>
  90047e:	687b      	ldr	r3, [r7, #4]
  900480:	781b      	ldrb	r3, [r3, #0]
  900482:	4618      	mov	r0, r3
  900484:	f7ff feba 	bl	9001fc <outc>
  900488:	bf00      	nop
  90048a:	687b      	ldr	r3, [r7, #4]
  90048c:	3301      	adds	r3, #1
  90048e:	607b      	str	r3, [r7, #4]
  900490:	687b      	ldr	r3, [r7, #4]
  900492:	781b      	ldrb	r3, [r3, #0]
  900494:	2b00      	cmp	r3, #0
  900496:	f47f af45 	bne.w	900324 <my_vprintf+0x14>
  90049a:	2300      	movs	r3, #0
  90049c:	4618      	mov	r0, r3
  90049e:	3710      	adds	r7, #16
  9004a0:	46bd      	mov	sp, r7
  9004a2:	bd80      	pop	{r7, pc}

009004a4 <printf>:
  9004a4:	b40f      	push	{r0, r1, r2, r3}
  9004a6:	b580      	push	{r7, lr}
  9004a8:	b082      	sub	sp, #8
  9004aa:	af00      	add	r7, sp, #0
  9004ac:	f107 0314 	add.w	r3, r7, #20
  9004b0:	607b      	str	r3, [r7, #4]
  9004b2:	693b      	ldr	r3, [r7, #16]
  9004b4:	6879      	ldr	r1, [r7, #4]
  9004b6:	4618      	mov	r0, r3
  9004b8:	f7ff ff2a 	bl	900310 <my_vprintf>
  9004bc:	2300      	movs	r3, #0
  9004be:	607b      	str	r3, [r7, #4]
  9004c0:	2300      	movs	r3, #0
  9004c2:	4618      	mov	r0, r3
  9004c4:	3708      	adds	r7, #8
  9004c6:	46bd      	mov	sp, r7
  9004c8:	e8bd 4080 	ldmia.w	sp!, {r7, lr}
  9004cc:	b004      	add	sp, #16
  9004ce:	4770      	bx	lr

009004d0 <my_printf_test>:
  9004d0:	b580      	push	{r7, lr}
  9004d2:	af00      	add	r7, sp, #0
  9004d4:	f640 00dc 	movw	r0, #2268	; 0x8dc
  9004d8:	f2c0 0090 	movt	r0, #144	; 0x90
  9004dc:	f7ff ffe2 	bl	9004a4 <printf>
  9004e0:	2261      	movs	r2, #97	; 0x61
  9004e2:	2141      	movs	r1, #65	; 0x41
  9004e4:	f640 1008 	movw	r0, #2312	; 0x908
  9004e8:	f2c0 0090 	movt	r0, #144	; 0x90
  9004ec:	f7ff ffda 	bl	9004a4 <printf>
  9004f0:	f24e 2140 	movw	r1, #57920	; 0xe240
  9004f4:	f2c0 0101 	movt	r1, #1
  9004f8:	f640 1028 	movw	r0, #2344	; 0x928
  9004fc:	f2c0 0090 	movt	r0, #144	; 0x90
  900500:	f7ff ffd0 	bl	9004a4 <printf>
  900504:	f44f 51ee 	mov.w	r1, #7616	; 0x1dc0
  900508:	f6cf 71fe 	movt	r1, #65534	; 0xfffe
  90050c:	f640 1028 	movw	r0, #2344	; 0x928
  900510:	f2c0 0090 	movt	r0, #144	; 0x90
  900514:	f7ff ffc6 	bl	9004a4 <printf>
  900518:	f245 51aa 	movw	r1, #21930	; 0x55aa
  90051c:	f2c5 51aa 	movt	r1, #21930	; 0x55aa
  900520:	f640 1044 	movw	r0, #2372	; 0x944
  900524:	f2c0 0090 	movt	r0, #144	; 0x90
  900528:	f7ff ffbc 	bl	9004a4 <printf>
  90052c:	f640 1160 	movw	r1, #2400	; 0x960
  900530:	f2c0 0190 	movt	r1, #144	; 0x90
  900534:	f640 1070 	movw	r0, #2416	; 0x970
  900538:	f2c0 0090 	movt	r0, #144	; 0x90
  90053c:	f7ff ffb2 	bl	9004a4 <printf>
  900540:	f243 0139 	movw	r1, #12345	; 0x3039
  900544:	f640 108c 	movw	r0, #2444	; 0x98c
  900548:	f2c0 0090 	movt	r0, #144	; 0x90
  90054c:	f7ff ffaa 	bl	9004a4 <printf>
  900550:	f243 0139 	movw	r1, #12345	; 0x3039
  900554:	f640 1098 	movw	r0, #2456	; 0x998
  900558:	f2c0 0090 	movt	r0, #144	; 0x90
  90055c:	f7ff ffa2 	bl	9004a4 <printf>
  900560:	f242 3145 	movw	r1, #9029	; 0x2345
  900564:	f2c0 0101 	movt	r1, #1
  900568:	f640 10a4 	movw	r0, #2468	; 0x9a4
  90056c:	f2c0 0090 	movt	r0, #144	; 0x90
  900570:	f7ff ff98 	bl	9004a4 <printf>
  900574:	f242 3145 	movw	r1, #9029	; 0x2345
  900578:	f2c0 0101 	movt	r1, #1
  90057c:	f640 10b4 	movw	r0, #2484	; 0x9b4
  900580:	f2c0 0090 	movt	r0, #144	; 0x90
  900584:	f7ff ff8e 	bl	9004a4 <printf>
  900588:	2101      	movs	r1, #1
  90058a:	f640 10c0 	movw	r0, #2496	; 0x9c0
  90058e:	f2c0 0090 	movt	r0, #144	; 0x90
  900592:	f7ff ff87 	bl	9004a4 <printf>
  900596:	2101      	movs	r1, #1
  900598:	f640 10d0 	movw	r0, #2512	; 0x9d0
  90059c:	f2c0 0090 	movt	r0, #144	; 0x90
  9005a0:	f7ff ff80 	bl	9004a4 <printf>
  9005a4:	2101      	movs	r1, #1
  9005a6:	f640 10dc 	movw	r0, #2524	; 0x9dc
  9005aa:	f2c0 0090 	movt	r0, #144	; 0x90
  9005ae:	f7ff ff79 	bl	9004a4 <printf>
  9005b2:	2101      	movs	r1, #1
  9005b4:	f640 10e8 	movw	r0, #2536	; 0x9e8
  9005b8:	f2c0 0090 	movt	r0, #144	; 0x90
  9005bc:	f7ff ff72 	bl	9004a4 <printf>
  9005c0:	2300      	movs	r3, #0
  9005c2:	4618      	mov	r0, r3
  9005c4:	bd80      	pop	{r7, pc}
  9005c6:	bf00      	nop

009005c8 <copy_data>:
  9005c8:	b480      	push	{r7}
  9005ca:	b085      	sub	sp, #20
  9005cc:	af00      	add	r7, sp, #0
  9005ce:	f240 0300 	movw	r3, #0
  9005d2:	f2c0 0390 	movt	r3, #144	; 0x90
  9005d6:	60fb      	str	r3, [r7, #12]
  9005d8:	f640 2308 	movw	r3, #2568	; 0xa08
  9005dc:	f2c0 0390 	movt	r3, #144	; 0x90
  9005e0:	607b      	str	r3, [r7, #4]
  9005e2:	f240 0300 	movw	r3, #0
  9005e6:	f2c8 0310 	movt	r3, #32784	; 0x8010
  9005ea:	60bb      	str	r3, [r7, #8]
  9005ec:	e007      	b.n	9005fe <copy_data+0x36>
  9005ee:	68fb      	ldr	r3, [r7, #12]
  9005f0:	1d1a      	adds	r2, r3, #4
  9005f2:	60fa      	str	r2, [r7, #12]
  9005f4:	68ba      	ldr	r2, [r7, #8]
  9005f6:	1d11      	adds	r1, r2, #4
  9005f8:	60b9      	str	r1, [r7, #8]
  9005fa:	6812      	ldr	r2, [r2, #0]
  9005fc:	601a      	str	r2, [r3, #0]
  9005fe:	68fa      	ldr	r2, [r7, #12]
  900600:	687b      	ldr	r3, [r7, #4]
  900602:	429a      	cmp	r2, r3
  900604:	d3f3      	bcc.n	9005ee <copy_data+0x26>
  900606:	bf00      	nop
  900608:	3714      	adds	r7, #20
  90060a:	46bd      	mov	sp, r7
  90060c:	f85d 7b04 	ldr.w	r7, [sp], #4
  900610:	4770      	bx	lr

00900612 <clean_bss>:
  900612:	b480      	push	{r7}
  900614:	b083      	sub	sp, #12
  900616:	af00      	add	r7, sp, #0
  900618:	f640 2308 	movw	r3, #2568	; 0xa08
  90061c:	f2c0 0390 	movt	r3, #144	; 0x90
  900620:	607b      	str	r3, [r7, #4]
  900622:	f640 2319 	movw	r3, #2585	; 0xa19
  900626:	f2c0 0390 	movt	r3, #144	; 0x90
  90062a:	603b      	str	r3, [r7, #0]
  90062c:	e004      	b.n	900638 <clean_bss+0x26>
  90062e:	687b      	ldr	r3, [r7, #4]
  900630:	1d1a      	adds	r2, r3, #4
  900632:	607a      	str	r2, [r7, #4]
  900634:	2200      	movs	r2, #0
  900636:	601a      	str	r2, [r3, #0]
  900638:	687a      	ldr	r2, [r7, #4]
  90063a:	683b      	ldr	r3, [r7, #0]
  90063c:	429a      	cmp	r2, r3
  90063e:	d9f6      	bls.n	90062e <clean_bss+0x1c>
  900640:	bf00      	nop
  900642:	370c      	adds	r7, #12
  900644:	46bd      	mov	sp, r7
  900646:	f85d 7b04 	ldr.w	r7, [sp], #4
  90064a:	4770      	bx	lr
  90064c:	0000      	movs	r0, r0
	...

00900650 <__aeabi_uidiv>:
  900650:	1e4a      	subs	r2, r1, #1
  900652:	bf08      	it	eq
  900654:	4770      	bxeq	lr
  900656:	f0c0 8124 	bcc.w	9008a2 <__aeabi_uidiv+0x252>
  90065a:	4288      	cmp	r0, r1
  90065c:	f240 8116 	bls.w	90088c <__aeabi_uidiv+0x23c>
  900660:	4211      	tst	r1, r2
  900662:	f000 8117 	beq.w	900894 <__aeabi_uidiv+0x244>
  900666:	fab0 f380 	clz	r3, r0
  90066a:	fab1 f281 	clz	r2, r1
  90066e:	eba2 0303 	sub.w	r3, r2, r3
  900672:	f1c3 031f 	rsb	r3, r3, #31
  900676:	a204      	add	r2, pc, #16	; (adr r2, 900688 <__aeabi_uidiv+0x38>)
  900678:	eb02 1303 	add.w	r3, r2, r3, lsl #4
  90067c:	f04f 0200 	mov.w	r2, #0
  900680:	469f      	mov	pc, r3
  900682:	bf00      	nop
  900684:	f3af 8000 	nop.w
  900688:	ebb0 7fc1 	cmp.w	r0, r1, lsl #31
  90068c:	bf00      	nop
  90068e:	eb42 0202 	adc.w	r2, r2, r2
  900692:	bf28      	it	cs
  900694:	eba0 70c1 	subcs.w	r0, r0, r1, lsl #31
  900698:	ebb0 7f81 	cmp.w	r0, r1, lsl #30
  90069c:	bf00      	nop
  90069e:	eb42 0202 	adc.w	r2, r2, r2
  9006a2:	bf28      	it	cs
  9006a4:	eba0 7081 	subcs.w	r0, r0, r1, lsl #30
  9006a8:	ebb0 7f41 	cmp.w	r0, r1, lsl #29
  9006ac:	bf00      	nop
  9006ae:	eb42 0202 	adc.w	r2, r2, r2
  9006b2:	bf28      	it	cs
  9006b4:	eba0 7041 	subcs.w	r0, r0, r1, lsl #29
  9006b8:	ebb0 7f01 	cmp.w	r0, r1, lsl #28
  9006bc:	bf00      	nop
  9006be:	eb42 0202 	adc.w	r2, r2, r2
  9006c2:	bf28      	it	cs
  9006c4:	eba0 7001 	subcs.w	r0, r0, r1, lsl #28
  9006c8:	ebb0 6fc1 	cmp.w	r0, r1, lsl #27
  9006cc:	bf00      	nop
  9006ce:	eb42 0202 	adc.w	r2, r2, r2
  9006d2:	bf28      	it	cs
  9006d4:	eba0 60c1 	subcs.w	r0, r0, r1, lsl #27
  9006d8:	ebb0 6f81 	cmp.w	r0, r1, lsl #26
  9006dc:	bf00      	nop
  9006de:	eb42 0202 	adc.w	r2, r2, r2
  9006e2:	bf28      	it	cs
  9006e4:	eba0 6081 	subcs.w	r0, r0, r1, lsl #26
  9006e8:	ebb0 6f41 	cmp.w	r0, r1, lsl #25
  9006ec:	bf00      	nop
  9006ee:	eb42 0202 	adc.w	r2, r2, r2
  9006f2:	bf28      	it	cs
  9006f4:	eba0 6041 	subcs.w	r0, r0, r1, lsl #25
  9006f8:	ebb0 6f01 	cmp.w	r0, r1, lsl #24
  9006fc:	bf00      	nop
  9006fe:	eb42 0202 	adc.w	r2, r2, r2
  900702:	bf28      	it	cs
  900704:	eba0 6001 	subcs.w	r0, r0, r1, lsl #24
  900708:	ebb0 5fc1 	cmp.w	r0, r1, lsl #23
  90070c:	bf00      	nop
  90070e:	eb42 0202 	adc.w	r2, r2, r2
  900712:	bf28      	it	cs
  900714:	eba0 50c1 	subcs.w	r0, r0, r1, lsl #23
  900718:	ebb0 5f81 	cmp.w	r0, r1, lsl #22
  90071c:	bf00      	nop
  90071e:	eb42 0202 	adc.w	r2, r2, r2
  900722:	bf28      	it	cs
  900724:	eba0 5081 	subcs.w	r0, r0, r1, lsl #22
  900728:	ebb0 5f41 	cmp.w	r0, r1, lsl #21
  90072c:	bf00      	nop
  90072e:	eb42 0202 	adc.w	r2, r2, r2
  900732:	bf28      	it	cs
  900734:	eba0 5041 	subcs.w	r0, r0, r1, lsl #21
  900738:	ebb0 5f01 	cmp.w	r0, r1, lsl #20
  90073c:	bf00      	nop
  90073e:	eb42 0202 	adc.w	r2, r2, r2
  900742:	bf28      	it	cs
  900744:	eba0 5001 	subcs.w	r0, r0, r1, lsl #20
  900748:	ebb0 4fc1 	cmp.w	r0, r1, lsl #19
  90074c:	bf00      	nop
  90074e:	eb42 0202 	adc.w	r2, r2, r2
  900752:	bf28      	it	cs
  900754:	eba0 40c1 	subcs.w	r0, r0, r1, lsl #19
  900758:	ebb0 4f81 	cmp.w	r0, r1, lsl #18
  90075c:	bf00      	nop
  90075e:	eb42 0202 	adc.w	r2, r2, r2
  900762:	bf28      	it	cs
  900764:	eba0 4081 	subcs.w	r0, r0, r1, lsl #18
  900768:	ebb0 4f41 	cmp.w	r0, r1, lsl #17
  90076c:	bf00      	nop
  90076e:	eb42 0202 	adc.w	r2, r2, r2
  900772:	bf28      	it	cs
  900774:	eba0 4041 	subcs.w	r0, r0, r1, lsl #17
  900778:	ebb0 4f01 	cmp.w	r0, r1, lsl #16
  90077c:	bf00      	nop
  90077e:	eb42 0202 	adc.w	r2, r2, r2
  900782:	bf28      	it	cs
  900784:	eba0 4001 	subcs.w	r0, r0, r1, lsl #16
  900788:	ebb0 3fc1 	cmp.w	r0, r1, lsl #15
  90078c:	bf00      	nop
  90078e:	eb42 0202 	adc.w	r2, r2, r2
  900792:	bf28      	it	cs
  900794:	eba0 30c1 	subcs.w	r0, r0, r1, lsl #15
  900798:	ebb0 3f81 	cmp.w	r0, r1, lsl #14
  90079c:	bf00      	nop
  90079e:	eb42 0202 	adc.w	r2, r2, r2
  9007a2:	bf28      	it	cs
  9007a4:	eba0 3081 	subcs.w	r0, r0, r1, lsl #14
  9007a8:	ebb0 3f41 	cmp.w	r0, r1, lsl #13
  9007ac:	bf00      	nop
  9007ae:	eb42 0202 	adc.w	r2, r2, r2
  9007b2:	bf28      	it	cs
  9007b4:	eba0 3041 	subcs.w	r0, r0, r1, lsl #13
  9007b8:	ebb0 3f01 	cmp.w	r0, r1, lsl #12
  9007bc:	bf00      	nop
  9007be:	eb42 0202 	adc.w	r2, r2, r2
  9007c2:	bf28      	it	cs
  9007c4:	eba0 3001 	subcs.w	r0, r0, r1, lsl #12
  9007c8:	ebb0 2fc1 	cmp.w	r0, r1, lsl #11
  9007cc:	bf00      	nop
  9007ce:	eb42 0202 	adc.w	r2, r2, r2
  9007d2:	bf28      	it	cs
  9007d4:	eba0 20c1 	subcs.w	r0, r0, r1, lsl #11
  9007d8:	ebb0 2f81 	cmp.w	r0, r1, lsl #10
  9007dc:	bf00      	nop
  9007de:	eb42 0202 	adc.w	r2, r2, r2
  9007e2:	bf28      	it	cs
  9007e4:	eba0 2081 	subcs.w	r0, r0, r1, lsl #10
  9007e8:	ebb0 2f41 	cmp.w	r0, r1, lsl #9
  9007ec:	bf00      	nop
  9007ee:	eb42 0202 	adc.w	r2, r2, r2
  9007f2:	bf28      	it	cs
  9007f4:	eba0 2041 	subcs.w	r0, r0, r1, lsl #9
  9007f8:	ebb0 2f01 	cmp.w	r0, r1, lsl #8
  9007fc:	bf00      	nop
  9007fe:	eb42 0202 	adc.w	r2, r2, r2
  900802:	bf28      	it	cs
  900804:	eba0 2001 	subcs.w	r0, r0, r1, lsl #8
  900808:	ebb0 1fc1 	cmp.w	r0, r1, lsl #7
  90080c:	bf00      	nop
  90080e:	eb42 0202 	adc.w	r2, r2, r2
  900812:	bf28      	it	cs
  900814:	eba0 10c1 	subcs.w	r0, r0, r1, lsl #7
  900818:	ebb0 1f81 	cmp.w	r0, r1, lsl #6
  90081c:	bf00      	nop
  90081e:	eb42 0202 	adc.w	r2, r2, r2
  900822:	bf28      	it	cs
  900824:	eba0 1081 	subcs.w	r0, r0, r1, lsl #6
  900828:	ebb0 1f41 	cmp.w	r0, r1, lsl #5
  90082c:	bf00      	nop
  90082e:	eb42 0202 	adc.w	r2, r2, r2
  900832:	bf28      	it	cs
  900834:	eba0 1041 	subcs.w	r0, r0, r1, lsl #5
  900838:	ebb0 1f01 	cmp.w	r0, r1, lsl #4
  90083c:	bf00      	nop
  90083e:	eb42 0202 	adc.w	r2, r2, r2
  900842:	bf28      	it	cs
  900844:	eba0 1001 	subcs.w	r0, r0, r1, lsl #4
  900848:	ebb0 0fc1 	cmp.w	r0, r1, lsl #3
  90084c:	bf00      	nop
  90084e:	eb42 0202 	adc.w	r2, r2, r2
  900852:	bf28      	it	cs
  900854:	eba0 00c1 	subcs.w	r0, r0, r1, lsl #3
  900858:	ebb0 0f81 	cmp.w	r0, r1, lsl #2
  90085c:	bf00      	nop
  90085e:	eb42 0202 	adc.w	r2, r2, r2
  900862:	bf28      	it	cs
  900864:	eba0 0081 	subcs.w	r0, r0, r1, lsl #2
  900868:	ebb0 0f41 	cmp.w	r0, r1, lsl #1
  90086c:	bf00      	nop
  90086e:	eb42 0202 	adc.w	r2, r2, r2
  900872:	bf28      	it	cs
  900874:	eba0 0041 	subcs.w	r0, r0, r1, lsl #1
  900878:	ebb0 0f01 	cmp.w	r0, r1
  90087c:	bf00      	nop
  90087e:	eb42 0202 	adc.w	r2, r2, r2
  900882:	bf28      	it	cs
  900884:	eba0 0001 	subcs.w	r0, r0, r1
  900888:	4610      	mov	r0, r2
  90088a:	4770      	bx	lr
  90088c:	bf0c      	ite	eq
  90088e:	2001      	moveq	r0, #1
  900890:	2000      	movne	r0, #0
  900892:	4770      	bx	lr
  900894:	fab1 f281 	clz	r2, r1
  900898:	f1c2 021f 	rsb	r2, r2, #31
  90089c:	fa20 f002 	lsr.w	r0, r0, r2
  9008a0:	4770      	bx	lr
  9008a2:	b108      	cbz	r0, 9008a8 <__aeabi_uidiv+0x258>
  9008a4:	f04f 30ff 	mov.w	r0, #4294967295	; 0xffffffff
  9008a8:	f000 b80e 	b.w	9008c8 <__aeabi_idiv0>

009008ac <__aeabi_uidivmod>:
  9008ac:	2900      	cmp	r1, #0
  9008ae:	d0f8      	beq.n	9008a2 <__aeabi_uidiv+0x252>
  9008b0:	e92d 4003 	stmdb	sp!, {r0, r1, lr}
  9008b4:	f7ff fecc 	bl	900650 <__aeabi_uidiv>
  9008b8:	e8bd 4006 	ldmia.w	sp!, {r1, r2, lr}
  9008bc:	fb02 f300 	mul.w	r3, r2, r0
  9008c0:	eba1 0103 	sub.w	r1, r1, r3
  9008c4:	4770      	bx	lr
  9008c6:	bf00      	nop

009008c8 <__aeabi_idiv0>:
  9008c8:	b502      	push	{r1, lr}
  9008ca:	f04f 0008 	mov.w	r0, #8
  9008ce:	f7ff fc55 	bl	90017c <raise>
  9008d2:	bd02      	pop	{r1, pc}

Disassembly of section .rodata:

009008d4 <g_charB>:
  9008d4:	00000042 	andeq	r0, r0, r2, asr #32

009008d8 <.LC0>:
  9008d8:	00000d0a 	andeq	r0, r0, sl, lsl #26

009008dc <.LC0>:
  9008dc:	73696854 	cmnvc	r9, #84, 16	; 0x540000
  9008e0:	20736920 	rsbscs	r6, r3, r0, lsr #18
  9008e4:	2e777777 	mrccs	7, 3, r7, cr7, cr7, {3}
  9008e8:	61303031 	teqvs	r0, r1, lsr r0
  9008ec:	6f2e6b73 	svcvs	0x002e6b73
  9008f0:	20206772 	eorcs	r6, r0, r2, ror r7
  9008f4:	5f796d20 	svcpl	0x00796d20
  9008f8:	6e697270 	mcrvs	2, 3, r7, cr9, cr0, {3}
  9008fc:	74206674 	strtvc	r6, [r0], #-1652	; 0xfffff98c
  900900:	0a747365 	beq	261d69c <__bss_end+0x1d1cc83>
  900904:	0000000d 	andeq	r0, r0, sp

00900908 <.LC1>:
  900908:	74736574 	ldrbtvc	r6, [r3], #-1396	; 0xfffffa8c
  90090c:	61686320 	cmnvs	r8, r0, lsr #6
  900910:	20202072 	eorcs	r2, r0, r2, ror r0
  900914:	20202020 	eorcs	r2, r0, r0, lsr #32
  900918:	20202020 	eorcs	r2, r0, r0, lsr #32
  90091c:	2c63253d 	cfstr64cs	mvdx2, [r3], #-244	; 0xffffff0c
  900920:	0d0a6325 	stceq	3, cr6, [sl, #-148]	; 0xffffff6c
  900924:	00000000 	andeq	r0, r0, r0

00900928 <.LC2>:
  900928:	74736574 	ldrbtvc	r6, [r3], #-1396	; 0xfffffa8c
  90092c:	63656420 	cmnvs	r5, #32, 8	; 0x20000000
  900930:	6c616d69 	stclvs	13, cr6, [r1], #-420	; 0xfffffe5c
  900934:	6d756e20 	ldclvs	14, cr6, [r5, #-128]!	; 0xffffff80
  900938:	20726562 	rsbscs	r6, r2, r2, ror #10
  90093c:	0a64253d 	beq	2209e38 <__bss_end+0x190941f>
  900940:	0000000d 	andeq	r0, r0, sp

00900944 <.LC3>:
  900944:	74736574 	ldrbtvc	r6, [r3], #-1396	; 0xfffffa8c
  900948:	78656820 	stmdavc	r5!, {r5, fp, sp, lr}^
  90094c:	20202020 	eorcs	r2, r0, r0, lsr #32
  900950:	6d756e20 	ldclvs	14, cr6, [r5, #-128]!	; 0xffffff80
  900954:	20726562 	rsbscs	r6, r2, r2, ror #10
  900958:	2578303d 	ldrbcs	r3, [r8, #-61]!	; 0xffffffc3
  90095c:	000d0a78 	andeq	r0, sp, r8, ror sl

00900960 <.LC4>:
  900960:	2e777777 	mrccs	7, 3, r7, cr7, cr7, {3}
  900964:	61303031 	teqvs	r0, r1, lsr r0
  900968:	6f2e6b73 	svcvs	0x002e6b73
  90096c:	00006772 	andeq	r6, r0, r2, ror r7

00900970 <.LC5>:
  900970:	74736574 	ldrbtvc	r6, [r3], #-1396	; 0xfffffa8c
  900974:	72747320 	rsbsvc	r7, r4, #32, 6	; 0x80000000
  900978:	20676e69 	rsbcs	r6, r7, r9, ror #28
  90097c:	20202020 	eorcs	r2, r0, r0, lsr #32
  900980:	20202020 	eorcs	r2, r0, r0, lsr #32
  900984:	0a73253d 	beq	25c9e80 <__bss_end+0x1cc9467>
  900988:	0000000d 	andeq	r0, r0, sp

0090098c <.LC6>:
  90098c:	3d6d756e 	cfstr64cc	mvdx7, [sp, #-440]!	; 0xfffffe48
  900990:	64383025 	ldrtvs	r3, [r8], #-37	; 0xffffffdb
  900994:	00000d0a 	andeq	r0, r0, sl, lsl #26

00900998 <.LC7>:
  900998:	3d6d756e 	cfstr64cc	mvdx7, [sp, #-440]!	; 0xfffffe48
  90099c:	0a643825 	beq	220ea38 <__bss_end+0x190e01f>
  9009a0:	0000000d 	andeq	r0, r0, sp

009009a4 <.LC8>:
  9009a4:	3d6d756e 	cfstr64cc	mvdx7, [sp, #-440]!	; 0xfffffe48
  9009a8:	30257830 	eorcc	r7, r5, r0, lsr r8
  9009ac:	0d0a7838 	stceq	8, cr7, [sl, #-224]	; 0xffffff20
  9009b0:	00000000 	andeq	r0, r0, r0

009009b4 <.LC9>:
  9009b4:	3d6d756e 	cfstr64cc	mvdx7, [sp, #-440]!	; 0xfffffe48
  9009b8:	38257830 	stmdacc	r5!, {r4, r5, fp, ip, sp, lr}
  9009bc:	000d0a78 	andeq	r0, sp, r8, ror sl

009009c0 <.LC10>:
  9009c0:	3d6d756e 	cfstr64cc	mvdx7, [sp, #-440]!	; 0xfffffe48
  9009c4:	30257830 	eorcc	r7, r5, r0, lsr r8
  9009c8:	0d0a7832 	stceq	8, cr7, [sl, #-200]	; 0xffffff38
  9009cc:	00000000 	andeq	r0, r0, r0

009009d0 <.LC11>:
  9009d0:	3d6d756e 	cfstr64cc	mvdx7, [sp, #-440]!	; 0xfffffe48
  9009d4:	32257830 	eorcc	r7, r5, #48, 16	; 0x300000
  9009d8:	000d0a78 	andeq	r0, sp, r8, ror sl

009009dc <.LC12>:
  9009dc:	3d6d756e 	cfstr64cc	mvdx7, [sp, #-440]!	; 0xfffffe48
  9009e0:	64353025 	ldrtvs	r3, [r5], #-37	; 0xffffffdb
  9009e4:	00000d0a 	andeq	r0, r0, sl, lsl #26

009009e8 <.LC13>:
  9009e8:	3d6d756e 	cfstr64cc	mvdx7, [sp, #-440]!	; 0xfffffe48
  9009ec:	0a643525 	beq	220de88 <__bss_end+0x190d46f>
  9009f0:	Address 0x00000000009009f0 is out of bounds.


Disassembly of section .data:

009009f4 <g_charA>:
  9009f4:	00000041 	andeq	r0, r0, r1, asr #32

009009f8 <hex_tab>:
  9009f8:	33323130 	teqcc	r2, #48, 2
  9009fc:	37363534 			; <UNDEFINED> instruction: 0x37363534
  900a00:	62613938 	rsbvs	r3, r1, #56, 18	; 0xe0000
  900a04:	66656463 	strbtvs	r6, [r5], -r3, ror #8

Disassembly of section .bss:

00900a08 <__bss_start>:
  900a08:	00000000 	andeq	r0, r0, r0

00900a0c <IOMUXC_SW_MUX_CTL_PAD_UART1_RX_DATA>:
  900a0c:	00000000 	andeq	r0, r0, r0

00900a10 <g_intA>:
  900a10:	00000000 	andeq	r0, r0, r0

00900a14 <g_intB>:
  900a14:	00000000 	andeq	r0, r0, r0

00900a18 <g_charC>:
	...

