
sd.elf:     file format elf32-littlearm


Disassembly of section .text:

80100000 <_start>:
80100000:	e59fd028 	ldr	sp, [pc, #40]	; 80100030 <clean+0x14>
80100004:	eb000001 	bl	80100010 <clean_bss>
80100008:	fa00018c 	blx	80100640 <main>

8010000c <halt>:
8010000c:	eafffffe 	b	8010000c <halt>

80100010 <clean_bss>:
80100010:	e59f101c 	ldr	r1, [pc, #28]	; 80100034 <clean+0x18>
80100014:	e59f201c 	ldr	r2, [pc, #28]	; 80100038 <clean+0x1c>
80100018:	e3a03000 	mov	r3, #0

8010001c <clean>:
8010001c:	e1510002 	cmp	r1, r2
80100020:	b5813000 	strlt	r3, [r1]
80100024:	e2811004 	add	r1, r1, #4
80100028:	bafffffb 	blt	8010001c <clean>
8010002c:	e1a0f00e 	mov	pc, lr
80100030:	80200000 	eorhi	r0, r0, r0
80100034:	801033d0 			; <UNDEFINED> instruction: 0x801033d0
80100038:	801048e0 	andshi	r4, r0, r0, ror #17

8010003c <IOMUXC_SetPinMux>:
8010003c:	b480      	push	{r7}
8010003e:	b085      	sub	sp, #20
80100040:	af00      	add	r7, sp, #0
80100042:	60f8      	str	r0, [r7, #12]
80100044:	60b9      	str	r1, [r7, #8]
80100046:	607a      	str	r2, [r7, #4]
80100048:	603b      	str	r3, [r7, #0]
8010004a:	68fb      	ldr	r3, [r7, #12]
8010004c:	68ba      	ldr	r2, [r7, #8]
8010004e:	f002 010f 	and.w	r1, r2, #15
80100052:	69fa      	ldr	r2, [r7, #28]
80100054:	0112      	lsls	r2, r2, #4
80100056:	f002 0210 	and.w	r2, r2, #16
8010005a:	430a      	orrs	r2, r1
8010005c:	601a      	str	r2, [r3, #0]
8010005e:	687b      	ldr	r3, [r7, #4]
80100060:	2b00      	cmp	r3, #0
80100062:	d004      	beq.n	8010006e <IOMUXC_SetPinMux+0x32>
80100064:	687b      	ldr	r3, [r7, #4]
80100066:	683a      	ldr	r2, [r7, #0]
80100068:	f002 0207 	and.w	r2, r2, #7
8010006c:	601a      	str	r2, [r3, #0]
8010006e:	bf00      	nop
80100070:	3714      	adds	r7, #20
80100072:	46bd      	mov	sp, r7
80100074:	f85d 7b04 	ldr.w	r7, [sp], #4
80100078:	4770      	bx	lr

8010007a <IOMUXC_SetPinConfig>:
8010007a:	b480      	push	{r7}
8010007c:	b085      	sub	sp, #20
8010007e:	af00      	add	r7, sp, #0
80100080:	60f8      	str	r0, [r7, #12]
80100082:	60b9      	str	r1, [r7, #8]
80100084:	607a      	str	r2, [r7, #4]
80100086:	603b      	str	r3, [r7, #0]
80100088:	69bb      	ldr	r3, [r7, #24]
8010008a:	2b00      	cmp	r3, #0
8010008c:	d002      	beq.n	80100094 <IOMUXC_SetPinConfig+0x1a>
8010008e:	69bb      	ldr	r3, [r7, #24]
80100090:	69fa      	ldr	r2, [r7, #28]
80100092:	601a      	str	r2, [r3, #0]
80100094:	bf00      	nop
80100096:	3714      	adds	r7, #20
80100098:	46bd      	mov	sp, r7
8010009a:	f85d 7b04 	ldr.w	r7, [sp], #4
8010009e:	4770      	bx	lr

801000a0 <init_pins>:
801000a0:	b580      	push	{r7, lr}
801000a2:	b082      	sub	sp, #8
801000a4:	af02      	add	r7, sp, #8
801000a6:	2300      	movs	r3, #0
801000a8:	9301      	str	r3, [sp, #4]
801000aa:	2358      	movs	r3, #88	; 0x58
801000ac:	f2c0 2329 	movt	r3, #553	; 0x229
801000b0:	9300      	str	r3, [sp, #0]
801000b2:	2300      	movs	r3, #0
801000b4:	2200      	movs	r2, #0
801000b6:	2105      	movs	r1, #5
801000b8:	2014      	movs	r0, #20
801000ba:	f2c0 2029 	movt	r0, #553	; 0x229
801000be:	f7ff ffbd 	bl	8010003c <IOMUXC_SetPinMux>
801000c2:	2309      	movs	r3, #9
801000c4:	f2c0 0301 	movt	r3, #1
801000c8:	9301      	str	r3, [sp, #4]
801000ca:	2358      	movs	r3, #88	; 0x58
801000cc:	f2c0 2329 	movt	r3, #553	; 0x229
801000d0:	9300      	str	r3, [sp, #0]
801000d2:	2300      	movs	r3, #0
801000d4:	2200      	movs	r2, #0
801000d6:	2105      	movs	r1, #5
801000d8:	2014      	movs	r0, #20
801000da:	f2c0 2029 	movt	r0, #553	; 0x229
801000de:	f7ff ffcc 	bl	8010007a <IOMUXC_SetPinConfig>
801000e2:	2300      	movs	r3, #0
801000e4:	9301      	str	r3, [sp, #4]
801000e6:	f44f 7345 	mov.w	r3, #788	; 0x314
801000ea:	f2c0 230e 	movt	r3, #526	; 0x20e
801000ee:	9300      	str	r3, [sp, #0]
801000f0:	2303      	movs	r3, #3
801000f2:	f240 6224 	movw	r2, #1572	; 0x624
801000f6:	f2c0 220e 	movt	r2, #526	; 0x20e
801000fa:	2100      	movs	r1, #0
801000fc:	2088      	movs	r0, #136	; 0x88
801000fe:	f2c0 200e 	movt	r0, #526	; 0x20e
80100102:	f7ff ff9b 	bl	8010003c <IOMUXC_SetPinMux>
80100106:	f241 0390 	movw	r3, #4240	; 0x1090
8010010a:	9301      	str	r3, [sp, #4]
8010010c:	f44f 7345 	mov.w	r3, #788	; 0x314
80100110:	f2c0 230e 	movt	r3, #526	; 0x20e
80100114:	9300      	str	r3, [sp, #0]
80100116:	2303      	movs	r3, #3
80100118:	f240 6224 	movw	r2, #1572	; 0x624
8010011c:	f2c0 220e 	movt	r2, #526	; 0x20e
80100120:	2100      	movs	r1, #0
80100122:	2088      	movs	r0, #136	; 0x88
80100124:	f2c0 200e 	movt	r0, #526	; 0x20e
80100128:	f7ff ffa7 	bl	8010007a <IOMUXC_SetPinConfig>
8010012c:	2300      	movs	r3, #0
8010012e:	9301      	str	r3, [sp, #4]
80100130:	f44f 7344 	mov.w	r3, #784	; 0x310
80100134:	f2c0 230e 	movt	r3, #526	; 0x20e
80100138:	9300      	str	r3, [sp, #0]
8010013a:	2300      	movs	r3, #0
8010013c:	2200      	movs	r2, #0
8010013e:	2100      	movs	r1, #0
80100140:	2084      	movs	r0, #132	; 0x84
80100142:	f2c0 200e 	movt	r0, #526	; 0x20e
80100146:	f7ff ff79 	bl	8010003c <IOMUXC_SetPinMux>
8010014a:	f241 0390 	movw	r3, #4240	; 0x1090
8010014e:	9301      	str	r3, [sp, #4]
80100150:	f44f 7344 	mov.w	r3, #784	; 0x310
80100154:	f2c0 230e 	movt	r3, #526	; 0x20e
80100158:	9300      	str	r3, [sp, #0]
8010015a:	2300      	movs	r3, #0
8010015c:	2200      	movs	r2, #0
8010015e:	2100      	movs	r1, #0
80100160:	2084      	movs	r0, #132	; 0x84
80100162:	f2c0 200e 	movt	r0, #526	; 0x20e
80100166:	f7ff ff88 	bl	8010007a <IOMUXC_SetPinConfig>
8010016a:	2300      	movs	r3, #0
8010016c:	9301      	str	r3, [sp, #4]
8010016e:	f44f 7347 	mov.w	r3, #796	; 0x31c
80100172:	f2c0 230e 	movt	r3, #526	; 0x20e
80100176:	9300      	str	r3, [sp, #0]
80100178:	2301      	movs	r3, #1
8010017a:	f44f 62cd 	mov.w	r2, #1640	; 0x668
8010017e:	f2c0 220e 	movt	r2, #526	; 0x20e
80100182:	2102      	movs	r1, #2
80100184:	2090      	movs	r0, #144	; 0x90
80100186:	f2c0 200e 	movt	r0, #526	; 0x20e
8010018a:	f7ff ff57 	bl	8010003c <IOMUXC_SetPinMux>
8010018e:	2309      	movs	r3, #9
80100190:	f2c0 0301 	movt	r3, #1
80100194:	9301      	str	r3, [sp, #4]
80100196:	f44f 7347 	mov.w	r3, #796	; 0x31c
8010019a:	f2c0 230e 	movt	r3, #526	; 0x20e
8010019e:	9300      	str	r3, [sp, #0]
801001a0:	2301      	movs	r3, #1
801001a2:	f44f 62cd 	mov.w	r2, #1640	; 0x668
801001a6:	f2c0 220e 	movt	r2, #526	; 0x20e
801001aa:	2102      	movs	r1, #2
801001ac:	2090      	movs	r0, #144	; 0x90
801001ae:	f2c0 200e 	movt	r0, #526	; 0x20e
801001b2:	f7ff ff62 	bl	8010007a <IOMUXC_SetPinConfig>
801001b6:	2300      	movs	r3, #0
801001b8:	9301      	str	r3, [sp, #4]
801001ba:	f240 434c 	movw	r3, #1100	; 0x44c
801001be:	f2c0 230e 	movt	r3, #526	; 0x20e
801001c2:	9300      	str	r3, [sp, #0]
801001c4:	2300      	movs	r3, #0
801001c6:	2200      	movs	r2, #0
801001c8:	2100      	movs	r1, #0
801001ca:	f44f 70e0 	mov.w	r0, #448	; 0x1c0
801001ce:	f2c0 200e 	movt	r0, #526	; 0x20e
801001d2:	f7ff ff33 	bl	8010003c <IOMUXC_SetPinMux>
801001d6:	f247 0349 	movw	r3, #28745	; 0x7049
801001da:	f2c0 0301 	movt	r3, #1
801001de:	9301      	str	r3, [sp, #4]
801001e0:	f240 434c 	movw	r3, #1100	; 0x44c
801001e4:	f2c0 230e 	movt	r3, #526	; 0x20e
801001e8:	9300      	str	r3, [sp, #0]
801001ea:	2300      	movs	r3, #0
801001ec:	2200      	movs	r2, #0
801001ee:	2100      	movs	r1, #0
801001f0:	f44f 70e0 	mov.w	r0, #448	; 0x1c0
801001f4:	f2c0 200e 	movt	r0, #526	; 0x20e
801001f8:	f7ff ff3f 	bl	8010007a <IOMUXC_SetPinConfig>
801001fc:	2300      	movs	r3, #0
801001fe:	9301      	str	r3, [sp, #4]
80100200:	f44f 6389 	mov.w	r3, #1096	; 0x448
80100204:	f2c0 230e 	movt	r3, #526	; 0x20e
80100208:	9300      	str	r3, [sp, #0]
8010020a:	2300      	movs	r3, #0
8010020c:	2200      	movs	r2, #0
8010020e:	2100      	movs	r1, #0
80100210:	f44f 70de 	mov.w	r0, #444	; 0x1bc
80100214:	f2c0 200e 	movt	r0, #526	; 0x20e
80100218:	f7ff ff10 	bl	8010003c <IOMUXC_SetPinMux>
8010021c:	f247 0389 	movw	r3, #28809	; 0x7089
80100220:	f2c0 0301 	movt	r3, #1
80100224:	9301      	str	r3, [sp, #4]
80100226:	f44f 6389 	mov.w	r3, #1096	; 0x448
8010022a:	f2c0 230e 	movt	r3, #526	; 0x20e
8010022e:	9300      	str	r3, [sp, #0]
80100230:	2300      	movs	r3, #0
80100232:	2200      	movs	r2, #0
80100234:	2100      	movs	r1, #0
80100236:	f44f 70de 	mov.w	r0, #444	; 0x1bc
8010023a:	f2c0 200e 	movt	r0, #526	; 0x20e
8010023e:	f7ff ff1c 	bl	8010007a <IOMUXC_SetPinConfig>
80100242:	2300      	movs	r3, #0
80100244:	9301      	str	r3, [sp, #4]
80100246:	f44f 638a 	mov.w	r3, #1104	; 0x450
8010024a:	f2c0 230e 	movt	r3, #526	; 0x20e
8010024e:	9300      	str	r3, [sp, #0]
80100250:	2300      	movs	r3, #0
80100252:	2200      	movs	r2, #0
80100254:	2100      	movs	r1, #0
80100256:	f44f 70e2 	mov.w	r0, #452	; 0x1c4
8010025a:	f2c0 200e 	movt	r0, #526	; 0x20e
8010025e:	f7ff feed 	bl	8010003c <IOMUXC_SetPinMux>
80100262:	f247 0389 	movw	r3, #28809	; 0x7089
80100266:	f2c0 0301 	movt	r3, #1
8010026a:	9301      	str	r3, [sp, #4]
8010026c:	f44f 638a 	mov.w	r3, #1104	; 0x450
80100270:	f2c0 230e 	movt	r3, #526	; 0x20e
80100274:	9300      	str	r3, [sp, #0]
80100276:	2300      	movs	r3, #0
80100278:	2200      	movs	r2, #0
8010027a:	2100      	movs	r1, #0
8010027c:	f44f 70e2 	mov.w	r0, #452	; 0x1c4
80100280:	f2c0 200e 	movt	r0, #526	; 0x20e
80100284:	f7ff fef9 	bl	8010007a <IOMUXC_SetPinConfig>
80100288:	2300      	movs	r3, #0
8010028a:	9301      	str	r3, [sp, #4]
8010028c:	f240 4354 	movw	r3, #1108	; 0x454
80100290:	f2c0 230e 	movt	r3, #526	; 0x20e
80100294:	9300      	str	r3, [sp, #0]
80100296:	2300      	movs	r3, #0
80100298:	2200      	movs	r2, #0
8010029a:	2100      	movs	r1, #0
8010029c:	f44f 70e4 	mov.w	r0, #456	; 0x1c8
801002a0:	f2c0 200e 	movt	r0, #526	; 0x20e
801002a4:	f7ff feca 	bl	8010003c <IOMUXC_SetPinMux>
801002a8:	f247 0389 	movw	r3, #28809	; 0x7089
801002ac:	f2c0 0301 	movt	r3, #1
801002b0:	9301      	str	r3, [sp, #4]
801002b2:	f240 4354 	movw	r3, #1108	; 0x454
801002b6:	f2c0 230e 	movt	r3, #526	; 0x20e
801002ba:	9300      	str	r3, [sp, #0]
801002bc:	2300      	movs	r3, #0
801002be:	2200      	movs	r2, #0
801002c0:	2100      	movs	r1, #0
801002c2:	f44f 70e4 	mov.w	r0, #456	; 0x1c8
801002c6:	f2c0 200e 	movt	r0, #526	; 0x20e
801002ca:	f7ff fed6 	bl	8010007a <IOMUXC_SetPinConfig>
801002ce:	2300      	movs	r3, #0
801002d0:	9301      	str	r3, [sp, #4]
801002d2:	f44f 638b 	mov.w	r3, #1112	; 0x458
801002d6:	f2c0 230e 	movt	r3, #526	; 0x20e
801002da:	9300      	str	r3, [sp, #0]
801002dc:	2300      	movs	r3, #0
801002de:	2200      	movs	r2, #0
801002e0:	2100      	movs	r1, #0
801002e2:	f44f 70e6 	mov.w	r0, #460	; 0x1cc
801002e6:	f2c0 200e 	movt	r0, #526	; 0x20e
801002ea:	f7ff fea7 	bl	8010003c <IOMUXC_SetPinMux>
801002ee:	f247 0389 	movw	r3, #28809	; 0x7089
801002f2:	f2c0 0301 	movt	r3, #1
801002f6:	9301      	str	r3, [sp, #4]
801002f8:	f44f 638b 	mov.w	r3, #1112	; 0x458
801002fc:	f2c0 230e 	movt	r3, #526	; 0x20e
80100300:	9300      	str	r3, [sp, #0]
80100302:	2300      	movs	r3, #0
80100304:	2200      	movs	r2, #0
80100306:	2100      	movs	r1, #0
80100308:	f44f 70e6 	mov.w	r0, #460	; 0x1cc
8010030c:	f2c0 200e 	movt	r0, #526	; 0x20e
80100310:	f7ff feb3 	bl	8010007a <IOMUXC_SetPinConfig>
80100314:	2300      	movs	r3, #0
80100316:	9301      	str	r3, [sp, #4]
80100318:	f240 435c 	movw	r3, #1116	; 0x45c
8010031c:	f2c0 230e 	movt	r3, #526	; 0x20e
80100320:	9300      	str	r3, [sp, #0]
80100322:	2300      	movs	r3, #0
80100324:	2200      	movs	r2, #0
80100326:	2100      	movs	r1, #0
80100328:	f44f 70e8 	mov.w	r0, #464	; 0x1d0
8010032c:	f2c0 200e 	movt	r0, #526	; 0x20e
80100330:	f7ff fe84 	bl	8010003c <IOMUXC_SetPinMux>
80100334:	f247 0389 	movw	r3, #28809	; 0x7089
80100338:	f2c0 0301 	movt	r3, #1
8010033c:	9301      	str	r3, [sp, #4]
8010033e:	f240 435c 	movw	r3, #1116	; 0x45c
80100342:	f2c0 230e 	movt	r3, #526	; 0x20e
80100346:	9300      	str	r3, [sp, #0]
80100348:	2300      	movs	r3, #0
8010034a:	2200      	movs	r2, #0
8010034c:	2100      	movs	r1, #0
8010034e:	f44f 70e8 	mov.w	r0, #464	; 0x1d0
80100352:	f2c0 200e 	movt	r0, #526	; 0x20e
80100356:	f7ff fe90 	bl	8010007a <IOMUXC_SetPinConfig>
8010035a:	bf00      	nop
8010035c:	46bd      	mov	sp, r7
8010035e:	bd80      	pop	{r7, pc}

80100360 <delay>:
80100360:	b480      	push	{r7}
80100362:	b083      	sub	sp, #12
80100364:	af00      	add	r7, sp, #0
80100366:	6078      	str	r0, [r7, #4]
80100368:	bf00      	nop
8010036a:	687b      	ldr	r3, [r7, #4]
8010036c:	1e5a      	subs	r2, r3, #1
8010036e:	607a      	str	r2, [r7, #4]
80100370:	2b00      	cmp	r3, #0
80100372:	d1fa      	bne.n	8010036a <delay+0xa>
80100374:	bf00      	nop
80100376:	370c      	adds	r7, #12
80100378:	46bd      	mov	sp, r7
8010037a:	f85d 7b04 	ldr.w	r7, [sp], #4
8010037e:	4770      	bx	lr

80100380 <boot_clk_gate_init>:
80100380:	b480      	push	{r7}
80100382:	af00      	add	r7, sp, #0
80100384:	f44f 4380 	mov.w	r3, #16384	; 0x4000
80100388:	f2c0 230c 	movt	r3, #524	; 0x20c
8010038c:	f04f 32ff 	mov.w	r2, #4294967295	; 0xffffffff
80100390:	669a      	str	r2, [r3, #104]	; 0x68
80100392:	f44f 4380 	mov.w	r3, #16384	; 0x4000
80100396:	f2c0 230c 	movt	r3, #524	; 0x20c
8010039a:	f04f 32ff 	mov.w	r2, #4294967295	; 0xffffffff
8010039e:	66da      	str	r2, [r3, #108]	; 0x6c
801003a0:	f44f 4380 	mov.w	r3, #16384	; 0x4000
801003a4:	f2c0 230c 	movt	r3, #524	; 0x20c
801003a8:	f04f 32ff 	mov.w	r2, #4294967295	; 0xffffffff
801003ac:	671a      	str	r2, [r3, #112]	; 0x70
801003ae:	f44f 4380 	mov.w	r3, #16384	; 0x4000
801003b2:	f2c0 230c 	movt	r3, #524	; 0x20c
801003b6:	f04f 32ff 	mov.w	r2, #4294967295	; 0xffffffff
801003ba:	675a      	str	r2, [r3, #116]	; 0x74
801003bc:	f44f 4380 	mov.w	r3, #16384	; 0x4000
801003c0:	f2c0 230c 	movt	r3, #524	; 0x20c
801003c4:	f04f 32ff 	mov.w	r2, #4294967295	; 0xffffffff
801003c8:	679a      	str	r2, [r3, #120]	; 0x78
801003ca:	f44f 4380 	mov.w	r3, #16384	; 0x4000
801003ce:	f2c0 230c 	movt	r3, #524	; 0x20c
801003d2:	f04f 32ff 	mov.w	r2, #4294967295	; 0xffffffff
801003d6:	67da      	str	r2, [r3, #124]	; 0x7c
801003d8:	f44f 4380 	mov.w	r3, #16384	; 0x4000
801003dc:	f2c0 230c 	movt	r3, #524	; 0x20c
801003e0:	f04f 32ff 	mov.w	r2, #4294967295	; 0xffffffff
801003e4:	f8c3 2080 	str.w	r2, [r3, #128]	; 0x80
801003e8:	bf00      	nop
801003ea:	46bd      	mov	sp, r7
801003ec:	f85d 7b04 	ldr.w	r7, [sp], #4
801003f0:	4770      	bx	lr

801003f2 <boot_clk_init>:
801003f2:	b480      	push	{r7}
801003f4:	af00      	add	r7, sp, #0
801003f6:	f44f 4380 	mov.w	r3, #16384	; 0x4000
801003fa:	f2c0 230c 	movt	r3, #524	; 0x20c
801003fe:	68db      	ldr	r3, [r3, #12]
80100400:	f003 0304 	and.w	r3, r3, #4
80100404:	2b00      	cmp	r3, #0
80100406:	d117      	bne.n	80100438 <boot_clk_init+0x46>
80100408:	f44f 4380 	mov.w	r3, #16384	; 0x4000
8010040c:	f2c0 230c 	movt	r3, #524	; 0x20c
80100410:	f44f 4280 	mov.w	r2, #16384	; 0x4000
80100414:	f2c0 220c 	movt	r2, #524	; 0x20c
80100418:	68d2      	ldr	r2, [r2, #12]
8010041a:	f422 7280 	bic.w	r2, r2, #256	; 0x100
8010041e:	60da      	str	r2, [r3, #12]
80100420:	f44f 4380 	mov.w	r3, #16384	; 0x4000
80100424:	f2c0 230c 	movt	r3, #524	; 0x20c
80100428:	f44f 4280 	mov.w	r2, #16384	; 0x4000
8010042c:	f2c0 220c 	movt	r2, #524	; 0x20c
80100430:	68d2      	ldr	r2, [r2, #12]
80100432:	f042 0204 	orr.w	r2, r2, #4
80100436:	60da      	str	r2, [r3, #12]
80100438:	f44f 4300 	mov.w	r3, #32768	; 0x8000
8010043c:	f2c0 230c 	movt	r3, #524	; 0x20c
80100440:	f242 0258 	movw	r2, #8280	; 0x2058
80100444:	601a      	str	r2, [r3, #0]
80100446:	f44f 4380 	mov.w	r3, #16384	; 0x4000
8010044a:	f2c0 230c 	movt	r3, #524	; 0x20c
8010044e:	f44f 4280 	mov.w	r2, #16384	; 0x4000
80100452:	f2c0 220c 	movt	r2, #524	; 0x20c
80100456:	68d2      	ldr	r2, [r2, #12]
80100458:	f022 0204 	bic.w	r2, r2, #4
8010045c:	60da      	str	r2, [r3, #12]
8010045e:	f44f 4380 	mov.w	r3, #16384	; 0x4000
80100462:	f2c0 230c 	movt	r3, #524	; 0x20c
80100466:	2201      	movs	r2, #1
80100468:	611a      	str	r2, [r3, #16]
8010046a:	f44f 4300 	mov.w	r3, #32768	; 0x8000
8010046e:	f2c0 230c 	movt	r3, #524	; 0x20c
80100472:	f44f 4200 	mov.w	r2, #32768	; 0x8000
80100476:	f2c0 220c 	movt	r2, #524	; 0x20c
8010047a:	f8d2 2100 	ldr.w	r2, [r2, #256]	; 0x100
8010047e:	f002 32c0 	and.w	r2, r2, #3233857728	; 0xc0c0c0c0
80100482:	f8c3 2100 	str.w	r2, [r3, #256]	; 0x100
80100486:	f44f 4200 	mov.w	r2, #32768	; 0x8000
8010048a:	f2c0 220c 	movt	r2, #524	; 0x20c
8010048e:	f44f 4300 	mov.w	r3, #32768	; 0x8000
80100492:	f2c0 230c 	movt	r3, #524	; 0x20c
80100496:	f8d3 1100 	ldr.w	r1, [r3, #256]	; 0x100
8010049a:	f241 031b 	movw	r3, #4123	; 0x101b
8010049e:	f2c3 0318 	movt	r3, #12312	; 0x3018
801004a2:	430b      	orrs	r3, r1
801004a4:	f8c2 3100 	str.w	r3, [r2, #256]	; 0x100
801004a8:	f44f 4300 	mov.w	r3, #32768	; 0x8000
801004ac:	f2c0 230c 	movt	r3, #524	; 0x20c
801004b0:	f44f 4200 	mov.w	r2, #32768	; 0x8000
801004b4:	f2c0 220c 	movt	r2, #524	; 0x20c
801004b8:	f8d2 20f0 	ldr.w	r2, [r2, #240]	; 0xf0
801004bc:	f002 32c0 	and.w	r2, r2, #3233857728	; 0xc0c0c0c0
801004c0:	f8c3 20f0 	str.w	r2, [r3, #240]	; 0xf0
801004c4:	f44f 4200 	mov.w	r2, #32768	; 0x8000
801004c8:	f2c0 220c 	movt	r2, #524	; 0x20c
801004cc:	f44f 4300 	mov.w	r3, #32768	; 0x8000
801004d0:	f2c0 230c 	movt	r3, #524	; 0x20c
801004d4:	f8d3 10f0 	ldr.w	r1, [r3, #240]	; 0xf0
801004d8:	f241 030c 	movw	r3, #4108	; 0x100c
801004dc:	f2c1 3311 	movt	r3, #4881	; 0x1311
801004e0:	430b      	orrs	r3, r1
801004e2:	f8c2 30f0 	str.w	r3, [r2, #240]	; 0xf0
801004e6:	f44f 4380 	mov.w	r3, #16384	; 0x4000
801004ea:	f2c0 230c 	movt	r3, #524	; 0x20c
801004ee:	f44f 4280 	mov.w	r2, #16384	; 0x4000
801004f2:	f2c0 220c 	movt	r2, #524	; 0x20c
801004f6:	6992      	ldr	r2, [r2, #24]
801004f8:	f422 02d8 	bic.w	r2, r2, #7077888	; 0x6c0000
801004fc:	619a      	str	r2, [r3, #24]
801004fe:	f44f 4380 	mov.w	r3, #16384	; 0x4000
80100502:	f2c0 230c 	movt	r3, #524	; 0x20c
80100506:	f44f 4280 	mov.w	r2, #16384	; 0x4000
8010050a:	f2c0 220c 	movt	r2, #524	; 0x20c
8010050e:	6992      	ldr	r2, [r2, #24]
80100510:	f442 1210 	orr.w	r2, r2, #2359296	; 0x240000
80100514:	619a      	str	r2, [r3, #24]
80100516:	f44f 4380 	mov.w	r3, #16384	; 0x4000
8010051a:	f2c0 230c 	movt	r3, #524	; 0x20c
8010051e:	f44f 4280 	mov.w	r2, #16384	; 0x4000
80100522:	f2c0 220c 	movt	r2, #524	; 0x20c
80100526:	6952      	ldr	r2, [r2, #20]
80100528:	f022 62c0 	bic.w	r2, r2, #100663296	; 0x6000000
8010052c:	615a      	str	r2, [r3, #20]
8010052e:	f44f 4380 	mov.w	r3, #16384	; 0x4000
80100532:	f2c0 230c 	movt	r3, #524	; 0x20c
80100536:	f44f 4280 	mov.w	r2, #16384	; 0x4000
8010053a:	f2c0 220c 	movt	r2, #524	; 0x20c
8010053e:	6952      	ldr	r2, [r2, #20]
80100540:	615a      	str	r2, [r3, #20]
80100542:	f44f 4280 	mov.w	r2, #16384	; 0x4000
80100546:	f2c0 220c 	movt	r2, #524	; 0x20c
8010054a:	f44f 4380 	mov.w	r3, #16384	; 0x4000
8010054e:	f2c0 230c 	movt	r3, #524	; 0x20c
80100552:	695b      	ldr	r3, [r3, #20]
80100554:	f423 23e0 	bic.w	r3, r3, #458752	; 0x70000
80100558:	f423 7340 	bic.w	r3, r3, #768	; 0x300
8010055c:	6153      	str	r3, [r2, #20]
8010055e:	f44f 4280 	mov.w	r2, #16384	; 0x4000
80100562:	f2c0 220c 	movt	r2, #524	; 0x20c
80100566:	f44f 4380 	mov.w	r3, #16384	; 0x4000
8010056a:	f2c0 230c 	movt	r3, #524	; 0x20c
8010056e:	695b      	ldr	r3, [r3, #20]
80100570:	f443 3380 	orr.w	r3, r3, #65536	; 0x10000
80100574:	f443 7380 	orr.w	r3, r3, #256	; 0x100
80100578:	6153      	str	r3, [r2, #20]
8010057a:	f44f 4280 	mov.w	r2, #16384	; 0x4000
8010057e:	f2c0 220c 	movt	r2, #524	; 0x20c
80100582:	f44f 4380 	mov.w	r3, #16384	; 0x4000
80100586:	f2c0 230c 	movt	r3, #524	; 0x20c
8010058a:	695b      	ldr	r3, [r3, #20]
8010058c:	f023 5360 	bic.w	r3, r3, #939524096	; 0x38000000
80100590:	f023 0387 	bic.w	r3, r3, #135	; 0x87
80100594:	6153      	str	r3, [r2, #20]
80100596:	f44f 4380 	mov.w	r3, #16384	; 0x4000
8010059a:	f2c0 230c 	movt	r3, #524	; 0x20c
8010059e:	f44f 4280 	mov.w	r2, #16384	; 0x4000
801005a2:	f2c0 220c 	movt	r2, #524	; 0x20c
801005a6:	6952      	ldr	r2, [r2, #20]
801005a8:	615a      	str	r2, [r3, #20]
801005aa:	bf00      	nop
801005ac:	f44f 4380 	mov.w	r3, #16384	; 0x4000
801005b0:	f2c0 230c 	movt	r3, #524	; 0x20c
801005b4:	6c9b      	ldr	r3, [r3, #72]	; 0x48
801005b6:	f003 032f 	and.w	r3, r3, #47	; 0x2f
801005ba:	2b00      	cmp	r3, #0
801005bc:	d1f6      	bne.n	801005ac <boot_clk_init+0x1ba>
801005be:	f44f 4380 	mov.w	r3, #16384	; 0x4000
801005c2:	f2c0 230c 	movt	r3, #524	; 0x20c
801005c6:	f44f 4280 	mov.w	r2, #16384	; 0x4000
801005ca:	f2c0 220c 	movt	r2, #524	; 0x20c
801005ce:	68d2      	ldr	r2, [r2, #12]
801005d0:	f022 0201 	bic.w	r2, r2, #1
801005d4:	60da      	str	r2, [r3, #12]
801005d6:	f44f 4380 	mov.w	r3, #16384	; 0x4000
801005da:	f2c0 230c 	movt	r3, #524	; 0x20c
801005de:	f44f 4280 	mov.w	r2, #16384	; 0x4000
801005e2:	f2c0 220c 	movt	r2, #524	; 0x20c
801005e6:	6a52      	ldr	r2, [r2, #36]	; 0x24
801005e8:	f022 0240 	bic.w	r2, r2, #64	; 0x40
801005ec:	625a      	str	r2, [r3, #36]	; 0x24
801005ee:	f44f 4380 	mov.w	r3, #16384	; 0x4000
801005f2:	f2c0 230c 	movt	r3, #524	; 0x20c
801005f6:	f44f 4280 	mov.w	r2, #16384	; 0x4000
801005fa:	f2c0 220c 	movt	r2, #524	; 0x20c
801005fe:	6a52      	ldr	r2, [r2, #36]	; 0x24
80100600:	f022 023f 	bic.w	r2, r2, #63	; 0x3f
80100604:	625a      	str	r2, [r3, #36]	; 0x24
80100606:	f44f 4380 	mov.w	r3, #16384	; 0x4000
8010060a:	f2c0 230c 	movt	r3, #524	; 0x20c
8010060e:	f44f 4280 	mov.w	r2, #16384	; 0x4000
80100612:	f2c0 220c 	movt	r2, #524	; 0x20c
80100616:	69d2      	ldr	r2, [r2, #28]
80100618:	f022 0240 	bic.w	r2, r2, #64	; 0x40
8010061c:	61da      	str	r2, [r3, #28]
8010061e:	f44f 4380 	mov.w	r3, #16384	; 0x4000
80100622:	f2c0 230c 	movt	r3, #524	; 0x20c
80100626:	f44f 4280 	mov.w	r2, #16384	; 0x4000
8010062a:	f2c0 220c 	movt	r2, #524	; 0x20c
8010062e:	69d2      	ldr	r2, [r2, #28]
80100630:	f022 023f 	bic.w	r2, r2, #63	; 0x3f
80100634:	61da      	str	r2, [r3, #28]
80100636:	bf00      	nop
80100638:	46bd      	mov	sp, r7
8010063a:	f85d 7b04 	ldr.w	r7, [sp], #4
8010063e:	4770      	bx	lr

80100640 <main>:
80100640:	b580      	push	{r7, lr}
80100642:	b082      	sub	sp, #8
80100644:	af00      	add	r7, sp, #0
80100646:	f7ff fd2b 	bl	801000a0 <init_pins>
8010064a:	f000 f8d2 	bl	801007f2 <led_gpio_init>
8010064e:	2000      	movs	r0, #0
80100650:	f000 f8e2 	bl	80100818 <led_ctl>
80100654:	f7ff fe94 	bl	80100380 <boot_clk_gate_init>
80100658:	f7ff fecb 	bl	801003f2 <boot_clk_init>
8010065c:	f000 fa69 	bl	80100b32 <uart1_init>
80100660:	2061      	movs	r0, #97	; 0x61
80100662:	f000 fb05 	bl	80100c70 <putchar>
80100666:	2062      	movs	r0, #98	; 0x62
80100668:	f000 fb02 	bl	80100c70 <putchar>
8010066c:	2063      	movs	r0, #99	; 0x63
8010066e:	f000 faff 	bl	80100c70 <putchar>
80100672:	f642 40c4 	movw	r0, #11460	; 0x2cc4
80100676:	f2c8 0010 	movt	r0, #32784	; 0x8010
8010067a:	f000 fb29 	bl	80100cd0 <puts>
8010067e:	f642 40d4 	movw	r0, #11476	; 0x2cd4
80100682:	f2c8 0010 	movt	r0, #32784	; 0x8010
80100686:	f000 fcb0 	bl	80100fea <printf>
8010068a:	f000 fb0b 	bl	80100ca4 <getchar>
8010068e:	4603      	mov	r3, r0
80100690:	70fb      	strb	r3, [r7, #3]
80100692:	78fb      	ldrb	r3, [r7, #3]
80100694:	2b63      	cmp	r3, #99	; 0x63
80100696:	f040 8097 	bne.w	801007c8 <main+0x188>
8010069a:	f642 5004 	movw	r0, #11524	; 0x2d04
8010069e:	f2c8 0010 	movt	r0, #32784	; 0x8010
801006a2:	f000 fca2 	bl	80100fea <printf>
801006a6:	2000      	movs	r0, #0
801006a8:	f2c0 2019 	movt	r0, #537	; 0x219
801006ac:	f001 fd4a 	bl	80102144 <sd_init>
801006b0:	f642 5014 	movw	r0, #11540	; 0x2d14
801006b4:	f2c8 0010 	movt	r0, #32784	; 0x8010
801006b8:	f000 fc97 	bl	80100fea <printf>
801006bc:	f642 5024 	movw	r0, #11556	; 0x2d24
801006c0:	f2c8 0010 	movt	r0, #32784	; 0x8010
801006c4:	f000 fc91 	bl	80100fea <printf>
801006c8:	f642 5024 	movw	r0, #11556	; 0x2d24
801006cc:	f2c8 0010 	movt	r0, #32784	; 0x8010
801006d0:	f000 fc8b 	bl	80100fea <printf>
801006d4:	f44f 5280 	mov.w	r2, #4096	; 0x1000
801006d8:	2155      	movs	r1, #85	; 0x55
801006da:	f243 4000 	movw	r0, #13312	; 0x3400
801006de:	f2c8 0010 	movt	r0, #32784	; 0x8010
801006e2:	f000 fd52 	bl	8010118a <memset>
801006e6:	2301      	movs	r3, #1
801006e8:	2204      	movs	r2, #4
801006ea:	f243 4100 	movw	r1, #13312	; 0x3400
801006ee:	f2c8 0110 	movt	r1, #32784	; 0x8010
801006f2:	2000      	movs	r0, #0
801006f4:	f2c0 2019 	movt	r0, #537	; 0x219
801006f8:	f002 f860 	bl	801027bc <sd_write_blocks>
801006fc:	f44f 5280 	mov.w	r2, #4096	; 0x1000
80100700:	21aa      	movs	r1, #170	; 0xaa
80100702:	f243 4000 	movw	r0, #13312	; 0x3400
80100706:	f2c8 0010 	movt	r0, #32784	; 0x8010
8010070a:	f000 fd3e 	bl	8010118a <memset>
8010070e:	2301      	movs	r3, #1
80100710:	2205      	movs	r2, #5
80100712:	f243 4100 	movw	r1, #13312	; 0x3400
80100716:	f2c8 0110 	movt	r1, #32784	; 0x8010
8010071a:	2000      	movs	r0, #0
8010071c:	f2c0 2019 	movt	r0, #537	; 0x219
80100720:	f002 f84c 	bl	801027bc <sd_write_blocks>
80100724:	f44f 5280 	mov.w	r2, #4096	; 0x1000
80100728:	21bb      	movs	r1, #187	; 0xbb
8010072a:	f243 4000 	movw	r0, #13312	; 0x3400
8010072e:	f2c8 0010 	movt	r0, #32784	; 0x8010
80100732:	f000 fd2a 	bl	8010118a <memset>
80100736:	2303      	movs	r3, #3
80100738:	2206      	movs	r2, #6
8010073a:	f243 4100 	movw	r1, #13312	; 0x3400
8010073e:	f2c8 0110 	movt	r1, #32784	; 0x8010
80100742:	2000      	movs	r0, #0
80100744:	f2c0 2019 	movt	r0, #537	; 0x219
80100748:	f002 f838 	bl	801027bc <sd_write_blocks>
8010074c:	f44f 5280 	mov.w	r2, #4096	; 0x1000
80100750:	2100      	movs	r1, #0
80100752:	f243 4000 	movw	r0, #13312	; 0x3400
80100756:	f2c8 0010 	movt	r0, #32784	; 0x8010
8010075a:	f000 fd16 	bl	8010118a <memset>
8010075e:	2305      	movs	r3, #5
80100760:	2204      	movs	r2, #4
80100762:	f243 4100 	movw	r1, #13312	; 0x3400
80100766:	f2c8 0110 	movt	r1, #32784	; 0x8010
8010076a:	2000      	movs	r0, #0
8010076c:	f2c0 2019 	movt	r0, #537	; 0x219
80100770:	f001 ff85 	bl	8010267e <sd_read_blocks>
80100774:	2300      	movs	r3, #0
80100776:	607b      	str	r3, [r7, #4]
80100778:	e01c      	b.n	801007b4 <main+0x174>
8010077a:	f243 4300 	movw	r3, #13312	; 0x3400
8010077e:	f2c8 0310 	movt	r3, #32784	; 0x8010
80100782:	687a      	ldr	r2, [r7, #4]
80100784:	4413      	add	r3, r2
80100786:	781b      	ldrb	r3, [r3, #0]
80100788:	4619      	mov	r1, r3
8010078a:	f642 5028 	movw	r0, #11560	; 0x2d28
8010078e:	f2c8 0010 	movt	r0, #32784	; 0x8010
80100792:	f000 fc2a 	bl	80100fea <printf>
80100796:	687b      	ldr	r3, [r7, #4]
80100798:	3301      	adds	r3, #1
8010079a:	f003 030f 	and.w	r3, r3, #15
8010079e:	2b00      	cmp	r3, #0
801007a0:	d105      	bne.n	801007ae <main+0x16e>
801007a2:	f642 5024 	movw	r0, #11556	; 0x2d24
801007a6:	f2c8 0010 	movt	r0, #32784	; 0x8010
801007aa:	f000 fc1e 	bl	80100fea <printf>
801007ae:	687b      	ldr	r3, [r7, #4]
801007b0:	3301      	adds	r3, #1
801007b2:	607b      	str	r3, [r7, #4]
801007b4:	687b      	ldr	r3, [r7, #4]
801007b6:	f5b3 6f20 	cmp.w	r3, #2560	; 0xa00
801007ba:	dbde      	blt.n	8010077a <main+0x13a>
801007bc:	f642 5024 	movw	r0, #11556	; 0x2d24
801007c0:	f2c8 0010 	movt	r0, #32784	; 0x8010
801007c4:	f000 fc11 	bl	80100fea <printf>
801007c8:	f000 fa6c 	bl	80100ca4 <getchar>
801007cc:	4603      	mov	r3, r0
801007ce:	70fb      	strb	r3, [r7, #3]
801007d0:	78fb      	ldrb	r3, [r7, #3]
801007d2:	2b0d      	cmp	r3, #13
801007d4:	d102      	bne.n	801007dc <main+0x19c>
801007d6:	200a      	movs	r0, #10
801007d8:	f000 fa4a 	bl	80100c70 <putchar>
801007dc:	78fb      	ldrb	r3, [r7, #3]
801007de:	2b0a      	cmp	r3, #10
801007e0:	d102      	bne.n	801007e8 <main+0x1a8>
801007e2:	200d      	movs	r0, #13
801007e4:	f000 fa44 	bl	80100c70 <putchar>
801007e8:	78fb      	ldrb	r3, [r7, #3]
801007ea:	4618      	mov	r0, r3
801007ec:	f000 fa40 	bl	80100c70 <putchar>
801007f0:	e7ea      	b.n	801007c8 <main+0x188>

801007f2 <led_gpio_init>:
801007f2:	b480      	push	{r7}
801007f4:	af00      	add	r7, sp, #0
801007f6:	f44f 4340 	mov.w	r3, #49152	; 0xc000
801007fa:	f2c0 230a 	movt	r3, #522	; 0x20a
801007fe:	f44f 4240 	mov.w	r2, #49152	; 0xc000
80100802:	f2c0 220a 	movt	r2, #522	; 0x20a
80100806:	6852      	ldr	r2, [r2, #4]
80100808:	f042 0208 	orr.w	r2, r2, #8
8010080c:	605a      	str	r2, [r3, #4]
8010080e:	bf00      	nop
80100810:	46bd      	mov	sp, r7
80100812:	f85d 7b04 	ldr.w	r7, [sp], #4
80100816:	4770      	bx	lr

80100818 <led_ctl>:
80100818:	b480      	push	{r7}
8010081a:	b083      	sub	sp, #12
8010081c:	af00      	add	r7, sp, #0
8010081e:	6078      	str	r0, [r7, #4]
80100820:	687b      	ldr	r3, [r7, #4]
80100822:	2b00      	cmp	r3, #0
80100824:	d00c      	beq.n	80100840 <led_ctl+0x28>
80100826:	f44f 4340 	mov.w	r3, #49152	; 0xc000
8010082a:	f2c0 230a 	movt	r3, #522	; 0x20a
8010082e:	f44f 4240 	mov.w	r2, #49152	; 0xc000
80100832:	f2c0 220a 	movt	r2, #522	; 0x20a
80100836:	6812      	ldr	r2, [r2, #0]
80100838:	f022 0208 	bic.w	r2, r2, #8
8010083c:	601a      	str	r2, [r3, #0]
8010083e:	e00b      	b.n	80100858 <led_ctl+0x40>
80100840:	f44f 4340 	mov.w	r3, #49152	; 0xc000
80100844:	f2c0 230a 	movt	r3, #522	; 0x20a
80100848:	f44f 4240 	mov.w	r2, #49152	; 0xc000
8010084c:	f2c0 220a 	movt	r2, #522	; 0x20a
80100850:	6812      	ldr	r2, [r2, #0]
80100852:	f042 0208 	orr.w	r2, r2, #8
80100856:	601a      	str	r2, [r3, #0]
80100858:	bf00      	nop
8010085a:	370c      	adds	r7, #12
8010085c:	46bd      	mov	sp, r7
8010085e:	f85d 7b04 	ldr.w	r7, [sp], #4
80100862:	4770      	bx	lr

80100864 <UART_SetBaudRate>:
80100864:	b590      	push	{r4, r7, lr}
80100866:	b091      	sub	sp, #68	; 0x44
80100868:	af00      	add	r7, sp, #0
8010086a:	6078      	str	r0, [r7, #4]
8010086c:	6039      	str	r1, [r7, #0]
8010086e:	2300      	movs	r3, #0
80100870:	63fb      	str	r3, [r7, #60]	; 0x3c
80100872:	2300      	movs	r3, #0
80100874:	63bb      	str	r3, [r7, #56]	; 0x38
80100876:	2300      	movs	r3, #0
80100878:	637b      	str	r3, [r7, #52]	; 0x34
8010087a:	2300      	movs	r3, #0
8010087c:	633b      	str	r3, [r7, #48]	; 0x30
8010087e:	2301      	movs	r3, #1
80100880:	623b      	str	r3, [r7, #32]
80100882:	f04f 0300 	mov.w	r3, #0
80100886:	f04f 0400 	mov.w	r4, #0
8010088a:	e9c7 3406 	strd	r3, r4, [r7, #24]
8010088e:	f04f 0300 	mov.w	r3, #0
80100892:	f04f 0400 	mov.w	r4, #0
80100896:	e9c7 340a 	strd	r3, r4, [r7, #40]	; 0x28
8010089a:	2300      	movs	r3, #0
8010089c:	627b      	str	r3, [r7, #36]	; 0x24
8010089e:	683b      	ldr	r3, [r7, #0]
801008a0:	63fb      	str	r3, [r7, #60]	; 0x3c
801008a2:	687b      	ldr	r3, [r7, #4]
801008a4:	011b      	lsls	r3, r3, #4
801008a6:	63bb      	str	r3, [r7, #56]	; 0x38
801008a8:	2301      	movs	r3, #1
801008aa:	637b      	str	r3, [r7, #52]	; 0x34
801008ac:	e00a      	b.n	801008c4 <UART_SetBaudRate+0x60>
801008ae:	6bbb      	ldr	r3, [r7, #56]	; 0x38
801008b0:	637b      	str	r3, [r7, #52]	; 0x34
801008b2:	6bfb      	ldr	r3, [r7, #60]	; 0x3c
801008b4:	6bb9      	ldr	r1, [r7, #56]	; 0x38
801008b6:	4618      	mov	r0, r3
801008b8:	f002 f94c 	bl	80102b54 <__aeabi_uidivmod>
801008bc:	460b      	mov	r3, r1
801008be:	63bb      	str	r3, [r7, #56]	; 0x38
801008c0:	6b7b      	ldr	r3, [r7, #52]	; 0x34
801008c2:	63fb      	str	r3, [r7, #60]	; 0x3c
801008c4:	6bbb      	ldr	r3, [r7, #56]	; 0x38
801008c6:	2b00      	cmp	r3, #0
801008c8:	d1f1      	bne.n	801008ae <UART_SetBaudRate+0x4a>
801008ca:	6b79      	ldr	r1, [r7, #52]	; 0x34
801008cc:	6838      	ldr	r0, [r7, #0]
801008ce:	f002 f813 	bl	801028f8 <__aeabi_uidiv>
801008d2:	4603      	mov	r3, r0
801008d4:	63fb      	str	r3, [r7, #60]	; 0x3c
801008d6:	687b      	ldr	r3, [r7, #4]
801008d8:	011b      	lsls	r3, r3, #4
801008da:	6b79      	ldr	r1, [r7, #52]	; 0x34
801008dc:	4618      	mov	r0, r3
801008de:	f002 f80b 	bl	801028f8 <__aeabi_uidiv>
801008e2:	4603      	mov	r3, r0
801008e4:	63bb      	str	r3, [r7, #56]	; 0x38
801008e6:	6bfa      	ldr	r2, [r7, #60]	; 0x3c
801008e8:	f64f 73f9 	movw	r3, #65529	; 0xfff9
801008ec:	f2c0 0306 	movt	r3, #6
801008f0:	429a      	cmp	r2, r3
801008f2:	d803      	bhi.n	801008fc <UART_SetBaudRate+0x98>
801008f4:	6bbb      	ldr	r3, [r7, #56]	; 0x38
801008f6:	f5b3 3f80 	cmp.w	r3, #65536	; 0x10000
801008fa:	d334      	bcc.n	80100966 <UART_SetBaudRate+0x102>
801008fc:	6bfb      	ldr	r3, [r7, #60]	; 0x3c
801008fe:	1e5a      	subs	r2, r3, #1
80100900:	f646 53b9 	movw	r3, #28089	; 0x6db9
80100904:	f2c2 4393 	movt	r3, #9363	; 0x2493
80100908:	fba2 3403 	umull	r3, r4, r2, r3
8010090c:	1b12      	subs	r2, r2, r4
8010090e:	0852      	lsrs	r2, r2, #1
80100910:	1913      	adds	r3, r2, r4
80100912:	0c9b      	lsrs	r3, r3, #18
80100914:	3301      	adds	r3, #1
80100916:	617b      	str	r3, [r7, #20]
80100918:	6bbb      	ldr	r3, [r7, #56]	; 0x38
8010091a:	1e5a      	subs	r2, r3, #1
8010091c:	f248 0301 	movw	r3, #32769	; 0x8001
80100920:	f2c8 0300 	movt	r3, #32768	; 0x8000
80100924:	fba2 3403 	umull	r3, r4, r2, r3
80100928:	0be3      	lsrs	r3, r4, #15
8010092a:	3301      	adds	r3, #1
8010092c:	613b      	str	r3, [r7, #16]
8010092e:	693a      	ldr	r2, [r7, #16]
80100930:	697b      	ldr	r3, [r7, #20]
80100932:	4293      	cmp	r3, r2
80100934:	bf38      	it	cc
80100936:	4613      	movcc	r3, r2
80100938:	60fb      	str	r3, [r7, #12]
8010093a:	68f9      	ldr	r1, [r7, #12]
8010093c:	6bf8      	ldr	r0, [r7, #60]	; 0x3c
8010093e:	f001 ffdb 	bl	801028f8 <__aeabi_uidiv>
80100942:	4603      	mov	r3, r0
80100944:	63fb      	str	r3, [r7, #60]	; 0x3c
80100946:	68f9      	ldr	r1, [r7, #12]
80100948:	6bb8      	ldr	r0, [r7, #56]	; 0x38
8010094a:	f001 ffd5 	bl	801028f8 <__aeabi_uidiv>
8010094e:	4603      	mov	r3, r0
80100950:	63bb      	str	r3, [r7, #56]	; 0x38
80100952:	6bfb      	ldr	r3, [r7, #60]	; 0x3c
80100954:	2b00      	cmp	r3, #0
80100956:	d101      	bne.n	8010095c <UART_SetBaudRate+0xf8>
80100958:	2301      	movs	r3, #1
8010095a:	63fb      	str	r3, [r7, #60]	; 0x3c
8010095c:	6bbb      	ldr	r3, [r7, #56]	; 0x38
8010095e:	2b00      	cmp	r3, #0
80100960:	d101      	bne.n	80100966 <UART_SetBaudRate+0x102>
80100962:	2301      	movs	r3, #1
80100964:	63bb      	str	r3, [r7, #56]	; 0x38
80100966:	6bfb      	ldr	r3, [r7, #60]	; 0x3c
80100968:	1e5a      	subs	r2, r3, #1
8010096a:	f248 0301 	movw	r3, #32769	; 0x8001
8010096e:	f2c8 0300 	movt	r3, #32768	; 0x8000
80100972:	fba2 3403 	umull	r3, r4, r2, r3
80100976:	0be3      	lsrs	r3, r4, #15
80100978:	3301      	adds	r3, #1
8010097a:	623b      	str	r3, [r7, #32]
8010097c:	6a3b      	ldr	r3, [r7, #32]
8010097e:	3b01      	subs	r3, #1
80100980:	2b06      	cmp	r3, #6
80100982:	d826      	bhi.n	801009d2 <UART_SetBaudRate+0x16e>
80100984:	a201      	add	r2, pc, #4	; (adr r2, 8010098c <UART_SetBaudRate+0x128>)
80100986:	f852 f023 	ldr.w	pc, [r2, r3, lsl #2]
8010098a:	bf00      	nop
8010098c:	801009a9 	andshi	r0, r0, r9, lsr #19
80100990:	801009af 	andshi	r0, r0, pc, lsr #19
80100994:	801009b5 			; <UNDEFINED> instruction: 0x801009b5
80100998:	801009bb 			; <UNDEFINED> instruction: 0x801009bb
8010099c:	801009c1 	andshi	r0, r0, r1, asr #19
801009a0:	801009c7 	andshi	r0, r0, r7, asr #19
801009a4:	801009cd 	andshi	r0, r0, sp, asr #19
801009a8:	2305      	movs	r3, #5
801009aa:	633b      	str	r3, [r7, #48]	; 0x30
801009ac:	e014      	b.n	801009d8 <UART_SetBaudRate+0x174>
801009ae:	2304      	movs	r3, #4
801009b0:	633b      	str	r3, [r7, #48]	; 0x30
801009b2:	e011      	b.n	801009d8 <UART_SetBaudRate+0x174>
801009b4:	2303      	movs	r3, #3
801009b6:	633b      	str	r3, [r7, #48]	; 0x30
801009b8:	e00e      	b.n	801009d8 <UART_SetBaudRate+0x174>
801009ba:	2302      	movs	r3, #2
801009bc:	633b      	str	r3, [r7, #48]	; 0x30
801009be:	e00b      	b.n	801009d8 <UART_SetBaudRate+0x174>
801009c0:	2301      	movs	r3, #1
801009c2:	633b      	str	r3, [r7, #48]	; 0x30
801009c4:	e008      	b.n	801009d8 <UART_SetBaudRate+0x174>
801009c6:	2300      	movs	r3, #0
801009c8:	633b      	str	r3, [r7, #48]	; 0x30
801009ca:	e005      	b.n	801009d8 <UART_SetBaudRate+0x174>
801009cc:	2306      	movs	r3, #6
801009ce:	633b      	str	r3, [r7, #48]	; 0x30
801009d0:	e002      	b.n	801009d8 <UART_SetBaudRate+0x174>
801009d2:	2305      	movs	r3, #5
801009d4:	633b      	str	r3, [r7, #48]	; 0x30
801009d6:	bf00      	nop
801009d8:	683b      	ldr	r3, [r7, #0]
801009da:	f04f 0400 	mov.w	r4, #0
801009de:	e9c7 340a 	strd	r3, r4, [r7, #40]	; 0x28
801009e2:	6bfb      	ldr	r3, [r7, #60]	; 0x3c
801009e4:	011b      	lsls	r3, r3, #4
801009e6:	627b      	str	r3, [r7, #36]	; 0x24
801009e8:	2301      	movs	r3, #1
801009ea:	637b      	str	r3, [r7, #52]	; 0x34
801009ec:	e012      	b.n	80100a14 <UART_SetBaudRate+0x1b0>
801009ee:	6a7b      	ldr	r3, [r7, #36]	; 0x24
801009f0:	637b      	str	r3, [r7, #52]	; 0x34
801009f2:	6a7b      	ldr	r3, [r7, #36]	; 0x24
801009f4:	f04f 0400 	mov.w	r4, #0
801009f8:	e9d7 010a 	ldrd	r0, r1, [r7, #40]	; 0x28
801009fc:	461a      	mov	r2, r3
801009fe:	4623      	mov	r3, r4
80100a00:	f002 f8b6 	bl	80102b70 <__aeabi_uldivmod>
80100a04:	461c      	mov	r4, r3
80100a06:	4613      	mov	r3, r2
80100a08:	627b      	str	r3, [r7, #36]	; 0x24
80100a0a:	6b7b      	ldr	r3, [r7, #52]	; 0x34
80100a0c:	f04f 0400 	mov.w	r4, #0
80100a10:	e9c7 340a 	strd	r3, r4, [r7, #40]	; 0x28
80100a14:	6a7b      	ldr	r3, [r7, #36]	; 0x24
80100a16:	2b00      	cmp	r3, #0
80100a18:	d1e9      	bne.n	801009ee <UART_SetBaudRate+0x18a>
80100a1a:	6b79      	ldr	r1, [r7, #52]	; 0x34
80100a1c:	6838      	ldr	r0, [r7, #0]
80100a1e:	f001 ff6b 	bl	801028f8 <__aeabi_uidiv>
80100a22:	4603      	mov	r3, r0
80100a24:	f04f 0400 	mov.w	r4, #0
80100a28:	e9c7 340a 	strd	r3, r4, [r7, #40]	; 0x28
80100a2c:	6bfb      	ldr	r3, [r7, #60]	; 0x3c
80100a2e:	011b      	lsls	r3, r3, #4
80100a30:	6b79      	ldr	r1, [r7, #52]	; 0x34
80100a32:	4618      	mov	r0, r3
80100a34:	f001 ff60 	bl	801028f8 <__aeabi_uidiv>
80100a38:	4603      	mov	r3, r0
80100a3a:	627b      	str	r3, [r7, #36]	; 0x24
80100a3c:	6bbb      	ldr	r3, [r7, #56]	; 0x38
80100a3e:	f04f 0400 	mov.w	r4, #0
80100a42:	6aba      	ldr	r2, [r7, #40]	; 0x28
80100a44:	fb04 f102 	mul.w	r1, r4, r2
80100a48:	6afa      	ldr	r2, [r7, #44]	; 0x2c
80100a4a:	fb03 f202 	mul.w	r2, r3, r2
80100a4e:	440a      	add	r2, r1
80100a50:	6ab9      	ldr	r1, [r7, #40]	; 0x28
80100a52:	fba1 0103 	umull	r0, r1, r1, r3
80100a56:	1853      	adds	r3, r2, r1
80100a58:	4619      	mov	r1, r3
80100a5a:	6a7b      	ldr	r3, [r7, #36]	; 0x24
80100a5c:	f04f 0400 	mov.w	r4, #0
80100a60:	461a      	mov	r2, r3
80100a62:	4623      	mov	r3, r4
80100a64:	f002 f884 	bl	80102b70 <__aeabi_uldivmod>
80100a68:	4603      	mov	r3, r0
80100a6a:	460c      	mov	r4, r1
80100a6c:	e9c7 3406 	strd	r3, r4, [r7, #24]
80100a70:	687b      	ldr	r3, [r7, #4]
80100a72:	f04f 0400 	mov.w	r4, #0
80100a76:	e9d7 1206 	ldrd	r1, r2, [r7, #24]
80100a7a:	42a2      	cmp	r2, r4
80100a7c:	bf08      	it	eq
80100a7e:	4299      	cmpeq	r1, r3
80100a80:	d308      	bcc.n	80100a94 <UART_SetBaudRate+0x230>
80100a82:	687b      	ldr	r3, [r7, #4]
80100a84:	f04f 0400 	mov.w	r4, #0
80100a88:	e9d7 1206 	ldrd	r1, r2, [r7, #24]
80100a8c:	1acb      	subs	r3, r1, r3
80100a8e:	eb62 0404 	sbc.w	r4, r2, r4
80100a92:	e008      	b.n	80100aa6 <UART_SetBaudRate+0x242>
80100a94:	687b      	ldr	r3, [r7, #4]
80100a96:	4619      	mov	r1, r3
80100a98:	f04f 0200 	mov.w	r2, #0
80100a9c:	e9d7 3406 	ldrd	r3, r4, [r7, #24]
80100aa0:	1acb      	subs	r3, r1, r3
80100aa2:	eb62 0404 	sbc.w	r4, r2, r4
80100aa6:	e9c7 3406 	strd	r3, r4, [r7, #24]
80100aaa:	2300      	movs	r3, #0
80100aac:	f2c0 2302 	movt	r3, #514	; 0x202
80100ab0:	2200      	movs	r2, #0
80100ab2:	f2c0 2202 	movt	r2, #514	; 0x202
80100ab6:	f8d2 2090 	ldr.w	r2, [r2, #144]	; 0x90
80100aba:	f422 7260 	bic.w	r2, r2, #896	; 0x380
80100abe:	f8c3 2090 	str.w	r2, [r3, #144]	; 0x90
80100ac2:	2300      	movs	r3, #0
80100ac4:	f2c0 2302 	movt	r3, #514	; 0x202
80100ac8:	2200      	movs	r2, #0
80100aca:	f2c0 2202 	movt	r2, #514	; 0x202
80100ace:	f8d2 1090 	ldr.w	r1, [r2, #144]	; 0x90
80100ad2:	6b3a      	ldr	r2, [r7, #48]	; 0x30
80100ad4:	01d2      	lsls	r2, r2, #7
80100ad6:	f402 7260 	and.w	r2, r2, #896	; 0x380
80100ada:	430a      	orrs	r2, r1
80100adc:	f8c3 2090 	str.w	r2, [r3, #144]	; 0x90
80100ae0:	2300      	movs	r3, #0
80100ae2:	f2c0 2302 	movt	r3, #514	; 0x202
80100ae6:	6bba      	ldr	r2, [r7, #56]	; 0x38
80100ae8:	3a01      	subs	r2, #1
80100aea:	b292      	uxth	r2, r2
80100aec:	f8c3 20a4 	str.w	r2, [r3, #164]	; 0xa4
80100af0:	2400      	movs	r4, #0
80100af2:	f2c0 2402 	movt	r4, #514	; 0x202
80100af6:	6a39      	ldr	r1, [r7, #32]
80100af8:	6bf8      	ldr	r0, [r7, #60]	; 0x3c
80100afa:	f001 fefd 	bl	801028f8 <__aeabi_uidiv>
80100afe:	4603      	mov	r3, r0
80100b00:	3b01      	subs	r3, #1
80100b02:	b29b      	uxth	r3, r3
80100b04:	f8c4 30a8 	str.w	r3, [r4, #168]	; 0xa8
80100b08:	2400      	movs	r4, #0
80100b0a:	f2c0 2402 	movt	r4, #514	; 0x202
80100b0e:	6a3b      	ldr	r3, [r7, #32]
80100b10:	f44f 727a 	mov.w	r2, #1000	; 0x3e8
80100b14:	fb02 f303 	mul.w	r3, r2, r3
80100b18:	4619      	mov	r1, r3
80100b1a:	6838      	ldr	r0, [r7, #0]
80100b1c:	f001 feec 	bl	801028f8 <__aeabi_uidiv>
80100b20:	4603      	mov	r3, r0
80100b22:	f023 437f 	bic.w	r3, r3, #4278190080	; 0xff000000
80100b26:	f8c4 30b0 	str.w	r3, [r4, #176]	; 0xb0
80100b2a:	bf00      	nop
80100b2c:	3744      	adds	r7, #68	; 0x44
80100b2e:	46bd      	mov	sp, r7
80100b30:	bd90      	pop	{r4, r7, pc}

80100b32 <uart1_init>:
80100b32:	b580      	push	{r7, lr}
80100b34:	af00      	add	r7, sp, #0
80100b36:	2300      	movs	r3, #0
80100b38:	f2c0 2302 	movt	r3, #514	; 0x202
80100b3c:	2200      	movs	r2, #0
80100b3e:	f2c0 2202 	movt	r2, #514	; 0x202
80100b42:	f8d2 2080 	ldr.w	r2, [r2, #128]	; 0x80
80100b46:	f022 0201 	bic.w	r2, r2, #1
80100b4a:	f8c3 2080 	str.w	r2, [r3, #128]	; 0x80
80100b4e:	2300      	movs	r3, #0
80100b50:	f2c0 2302 	movt	r3, #514	; 0x202
80100b54:	2200      	movs	r2, #0
80100b56:	f2c0 2202 	movt	r2, #514	; 0x202
80100b5a:	f8d2 2084 	ldr.w	r2, [r2, #132]	; 0x84
80100b5e:	f022 0201 	bic.w	r2, r2, #1
80100b62:	f8c3 2084 	str.w	r2, [r3, #132]	; 0x84
80100b66:	bf00      	nop
80100b68:	2300      	movs	r3, #0
80100b6a:	f2c0 2302 	movt	r3, #514	; 0x202
80100b6e:	f8d3 3084 	ldr.w	r3, [r3, #132]	; 0x84
80100b72:	f003 0301 	and.w	r3, r3, #1
80100b76:	2b00      	cmp	r3, #0
80100b78:	d0f6      	beq.n	80100b68 <uart1_init+0x36>
80100b7a:	2300      	movs	r3, #0
80100b7c:	f2c0 2302 	movt	r3, #514	; 0x202
80100b80:	2200      	movs	r2, #0
80100b82:	f8c3 2080 	str.w	r2, [r3, #128]	; 0x80
80100b86:	2300      	movs	r3, #0
80100b88:	f2c0 2302 	movt	r3, #514	; 0x202
80100b8c:	2201      	movs	r2, #1
80100b8e:	f8c3 2084 	str.w	r2, [r3, #132]	; 0x84
80100b92:	2300      	movs	r3, #0
80100b94:	f2c0 2302 	movt	r3, #514	; 0x202
80100b98:	f44f 62e0 	mov.w	r2, #1792	; 0x700
80100b9c:	f8c3 2088 	str.w	r2, [r3, #136]	; 0x88
80100ba0:	2300      	movs	r3, #0
80100ba2:	f2c0 2302 	movt	r3, #514	; 0x202
80100ba6:	f44f 4200 	mov.w	r2, #32768	; 0x8000
80100baa:	f8c3 208c 	str.w	r2, [r3, #140]	; 0x8c
80100bae:	2300      	movs	r3, #0
80100bb0:	f2c0 2302 	movt	r3, #514	; 0x202
80100bb4:	f640 0201 	movw	r2, #2049	; 0x801
80100bb8:	f8c3 2090 	str.w	r2, [r3, #144]	; 0x90
80100bbc:	2300      	movs	r3, #0
80100bbe:	f2c0 2302 	movt	r3, #514	; 0x202
80100bc2:	222b      	movs	r2, #43	; 0x2b
80100bc4:	f8c3 209c 	str.w	r2, [r3, #156]	; 0x9c
80100bc8:	2300      	movs	r3, #0
80100bca:	f2c0 2302 	movt	r3, #514	; 0x202
80100bce:	2200      	movs	r2, #0
80100bd0:	f8c3 20a0 	str.w	r2, [r3, #160]	; 0xa0
80100bd4:	2300      	movs	r3, #0
80100bd6:	f2c0 2302 	movt	r3, #514	; 0x202
80100bda:	2200      	movs	r2, #0
80100bdc:	f8c3 20b0 	str.w	r2, [r3, #176]	; 0xb0
80100be0:	2300      	movs	r3, #0
80100be2:	f2c0 2302 	movt	r3, #514	; 0x202
80100be6:	2260      	movs	r2, #96	; 0x60
80100be8:	f8c3 20b4 	str.w	r2, [r3, #180]	; 0xb4
80100bec:	2300      	movs	r3, #0
80100bee:	f2c0 2302 	movt	r3, #514	; 0x202
80100bf2:	2200      	movs	r2, #0
80100bf4:	f8c3 20b8 	str.w	r2, [r3, #184]	; 0xb8
80100bf8:	2200      	movs	r2, #0
80100bfa:	f2c0 2202 	movt	r2, #514	; 0x202
80100bfe:	2300      	movs	r3, #0
80100c00:	f2c0 2302 	movt	r3, #514	; 0x202
80100c04:	f8d3 3084 	ldr.w	r3, [r3, #132]	; 0x84
80100c08:	f443 4380 	orr.w	r3, r3, #16384	; 0x4000
80100c0c:	f043 0366 	orr.w	r3, r3, #102	; 0x66
80100c10:	f8c2 3084 	str.w	r3, [r2, #132]	; 0x84
80100c14:	2300      	movs	r3, #0
80100c16:	f2c0 2302 	movt	r3, #514	; 0x202
80100c1a:	2200      	movs	r2, #0
80100c1c:	f2c0 2202 	movt	r2, #514	; 0x202
80100c20:	f8d2 2088 	ldr.w	r2, [r2, #136]	; 0x88
80100c24:	f042 0204 	orr.w	r2, r2, #4
80100c28:	f8c3 2088 	str.w	r2, [r3, #136]	; 0x88
80100c2c:	2300      	movs	r3, #0
80100c2e:	f2c0 2302 	movt	r3, #514	; 0x202
80100c32:	2200      	movs	r2, #0
80100c34:	f2c0 2202 	movt	r2, #514	; 0x202
80100c38:	f8d2 2080 	ldr.w	r2, [r2, #128]	; 0x80
80100c3c:	f422 4280 	bic.w	r2, r2, #16384	; 0x4000
80100c40:	f8c3 2080 	str.w	r2, [r3, #128]	; 0x80
80100c44:	f44f 4134 	mov.w	r1, #46080	; 0xb400
80100c48:	f2c0 41c4 	movt	r1, #1220	; 0x4c4
80100c4c:	f44f 30e1 	mov.w	r0, #115200	; 0x1c200
80100c50:	f7ff fe08 	bl	80100864 <UART_SetBaudRate>
80100c54:	2300      	movs	r3, #0
80100c56:	f2c0 2302 	movt	r3, #514	; 0x202
80100c5a:	2200      	movs	r2, #0
80100c5c:	f2c0 2202 	movt	r2, #514	; 0x202
80100c60:	f8d2 2080 	ldr.w	r2, [r2, #128]	; 0x80
80100c64:	f042 0201 	orr.w	r2, r2, #1
80100c68:	f8c3 2080 	str.w	r2, [r3, #128]	; 0x80
80100c6c:	bf00      	nop
80100c6e:	bd80      	pop	{r7, pc}

80100c70 <putchar>:
80100c70:	b480      	push	{r7}
80100c72:	b083      	sub	sp, #12
80100c74:	af00      	add	r7, sp, #0
80100c76:	6078      	str	r0, [r7, #4]
80100c78:	bf00      	nop
80100c7a:	2300      	movs	r3, #0
80100c7c:	f2c0 2302 	movt	r3, #514	; 0x202
80100c80:	f8d3 3098 	ldr.w	r3, [r3, #152]	; 0x98
80100c84:	f003 0308 	and.w	r3, r3, #8
80100c88:	2b00      	cmp	r3, #0
80100c8a:	d0f6      	beq.n	80100c7a <putchar+0xa>
80100c8c:	2300      	movs	r3, #0
80100c8e:	f2c0 2302 	movt	r3, #514	; 0x202
80100c92:	687a      	ldr	r2, [r7, #4]
80100c94:	b2d2      	uxtb	r2, r2
80100c96:	641a      	str	r2, [r3, #64]	; 0x40
80100c98:	bf00      	nop
80100c9a:	370c      	adds	r7, #12
80100c9c:	46bd      	mov	sp, r7
80100c9e:	f85d 7b04 	ldr.w	r7, [sp], #4
80100ca2:	4770      	bx	lr

80100ca4 <getchar>:
80100ca4:	b480      	push	{r7}
80100ca6:	af00      	add	r7, sp, #0
80100ca8:	bf00      	nop
80100caa:	2300      	movs	r3, #0
80100cac:	f2c0 2302 	movt	r3, #514	; 0x202
80100cb0:	f8d3 3098 	ldr.w	r3, [r3, #152]	; 0x98
80100cb4:	f003 0301 	and.w	r3, r3, #1
80100cb8:	2b00      	cmp	r3, #0
80100cba:	d0f6      	beq.n	80100caa <getchar+0x6>
80100cbc:	2300      	movs	r3, #0
80100cbe:	f2c0 2302 	movt	r3, #514	; 0x202
80100cc2:	681b      	ldr	r3, [r3, #0]
80100cc4:	b2db      	uxtb	r3, r3
80100cc6:	4618      	mov	r0, r3
80100cc8:	46bd      	mov	sp, r7
80100cca:	f85d 7b04 	ldr.w	r7, [sp], #4
80100cce:	4770      	bx	lr

80100cd0 <puts>:
80100cd0:	b580      	push	{r7, lr}
80100cd2:	b082      	sub	sp, #8
80100cd4:	af00      	add	r7, sp, #0
80100cd6:	6078      	str	r0, [r7, #4]
80100cd8:	e007      	b.n	80100cea <puts+0x1a>
80100cda:	687b      	ldr	r3, [r7, #4]
80100cdc:	781b      	ldrb	r3, [r3, #0]
80100cde:	4618      	mov	r0, r3
80100ce0:	f7ff ffc6 	bl	80100c70 <putchar>
80100ce4:	687b      	ldr	r3, [r7, #4]
80100ce6:	3301      	adds	r3, #1
80100ce8:	607b      	str	r3, [r7, #4]
80100cea:	687b      	ldr	r3, [r7, #4]
80100cec:	781b      	ldrb	r3, [r3, #0]
80100cee:	2b00      	cmp	r3, #0
80100cf0:	d1f3      	bne.n	80100cda <puts+0xa>
80100cf2:	bf00      	nop
80100cf4:	3708      	adds	r7, #8
80100cf6:	46bd      	mov	sp, r7
80100cf8:	bd80      	pop	{r7, pc}
80100cfa:	bf00      	nop

80100cfc <raise>:
80100cfc:	b480      	push	{r7}
80100cfe:	b083      	sub	sp, #12
80100d00:	af00      	add	r7, sp, #0
80100d02:	6078      	str	r0, [r7, #4]
80100d04:	2300      	movs	r3, #0
80100d06:	4618      	mov	r0, r3
80100d08:	370c      	adds	r7, #12
80100d0a:	46bd      	mov	sp, r7
80100d0c:	f85d 7b04 	ldr.w	r7, [sp], #4
80100d10:	4770      	bx	lr
	...

80100d14 <outc>:
80100d14:	b580      	push	{r7, lr}
80100d16:	b082      	sub	sp, #8
80100d18:	af00      	add	r7, sp, #0
80100d1a:	6078      	str	r0, [r7, #4]
80100d1c:	6878      	ldr	r0, [r7, #4]
80100d1e:	f7ff ffa7 	bl	80100c70 <putchar>
80100d22:	2300      	movs	r3, #0
80100d24:	4618      	mov	r0, r3
80100d26:	3708      	adds	r7, #8
80100d28:	46bd      	mov	sp, r7
80100d2a:	bd80      	pop	{r7, pc}

80100d2c <outs>:
80100d2c:	b580      	push	{r7, lr}
80100d2e:	b082      	sub	sp, #8
80100d30:	af00      	add	r7, sp, #0
80100d32:	6078      	str	r0, [r7, #4]
80100d34:	e006      	b.n	80100d44 <outs+0x18>
80100d36:	687b      	ldr	r3, [r7, #4]
80100d38:	1c5a      	adds	r2, r3, #1
80100d3a:	607a      	str	r2, [r7, #4]
80100d3c:	781b      	ldrb	r3, [r3, #0]
80100d3e:	4618      	mov	r0, r3
80100d40:	f7ff ff96 	bl	80100c70 <putchar>
80100d44:	687b      	ldr	r3, [r7, #4]
80100d46:	781b      	ldrb	r3, [r3, #0]
80100d48:	2b00      	cmp	r3, #0
80100d4a:	d1f4      	bne.n	80100d36 <outs+0xa>
80100d4c:	2300      	movs	r3, #0
80100d4e:	4618      	mov	r0, r3
80100d50:	3708      	adds	r7, #8
80100d52:	46bd      	mov	sp, r7
80100d54:	bd80      	pop	{r7, pc}

80100d56 <out_num>:
80100d56:	b590      	push	{r4, r7, lr}
80100d58:	b099      	sub	sp, #100	; 0x64
80100d5a:	af00      	add	r7, sp, #0
80100d5c:	e9c7 0102 	strd	r0, r1, [r7, #8]
80100d60:	607a      	str	r2, [r7, #4]
80100d62:	70fb      	strb	r3, [r7, #3]
80100d64:	2300      	movs	r3, #0
80100d66:	65fb      	str	r3, [r7, #92]	; 0x5c
80100d68:	f107 0310 	add.w	r3, r7, #16
80100d6c:	3340      	adds	r3, #64	; 0x40
80100d6e:	65bb      	str	r3, [r7, #88]	; 0x58
80100d70:	2300      	movs	r3, #0
80100d72:	657b      	str	r3, [r7, #84]	; 0x54
80100d74:	2300      	movs	r3, #0
80100d76:	653b      	str	r3, [r7, #80]	; 0x50
80100d78:	6dbb      	ldr	r3, [r7, #88]	; 0x58
80100d7a:	3b01      	subs	r3, #1
80100d7c:	65bb      	str	r3, [r7, #88]	; 0x58
80100d7e:	6dbb      	ldr	r3, [r7, #88]	; 0x58
80100d80:	2200      	movs	r2, #0
80100d82:	701a      	strb	r2, [r3, #0]
80100d84:	e9d7 3402 	ldrd	r3, r4, [r7, #8]
80100d88:	2b00      	cmp	r3, #0
80100d8a:	f174 0300 	sbcs.w	r3, r4, #0
80100d8e:	da03      	bge.n	80100d98 <out_num+0x42>
80100d90:	68bb      	ldr	r3, [r7, #8]
80100d92:	425b      	negs	r3, r3
80100d94:	65fb      	str	r3, [r7, #92]	; 0x5c
80100d96:	e001      	b.n	80100d9c <out_num+0x46>
80100d98:	68bb      	ldr	r3, [r7, #8]
80100d9a:	65fb      	str	r3, [r7, #92]	; 0x5c
80100d9c:	6dbb      	ldr	r3, [r7, #88]	; 0x58
80100d9e:	3b01      	subs	r3, #1
80100da0:	65bb      	str	r3, [r7, #88]	; 0x58
80100da2:	687a      	ldr	r2, [r7, #4]
80100da4:	6dfb      	ldr	r3, [r7, #92]	; 0x5c
80100da6:	4611      	mov	r1, r2
80100da8:	4618      	mov	r0, r3
80100daa:	f001 fed3 	bl	80102b54 <__aeabi_uidivmod>
80100dae:	460b      	mov	r3, r1
80100db0:	461a      	mov	r2, r3
80100db2:	f243 33c0 	movw	r3, #13248	; 0x33c0
80100db6:	f2c8 0310 	movt	r3, #32784	; 0x8010
80100dba:	5c9a      	ldrb	r2, [r3, r2]
80100dbc:	6dbb      	ldr	r3, [r7, #88]	; 0x58
80100dbe:	701a      	strb	r2, [r3, #0]
80100dc0:	6d7b      	ldr	r3, [r7, #84]	; 0x54
80100dc2:	3301      	adds	r3, #1
80100dc4:	657b      	str	r3, [r7, #84]	; 0x54
80100dc6:	687b      	ldr	r3, [r7, #4]
80100dc8:	4619      	mov	r1, r3
80100dca:	6df8      	ldr	r0, [r7, #92]	; 0x5c
80100dcc:	f001 fd94 	bl	801028f8 <__aeabi_uidiv>
80100dd0:	4603      	mov	r3, r0
80100dd2:	65fb      	str	r3, [r7, #92]	; 0x5c
80100dd4:	6dfb      	ldr	r3, [r7, #92]	; 0x5c
80100dd6:	2b00      	cmp	r3, #0
80100dd8:	d1e0      	bne.n	80100d9c <out_num+0x46>
80100dda:	6f3b      	ldr	r3, [r7, #112]	; 0x70
80100ddc:	2b00      	cmp	r3, #0
80100dde:	d014      	beq.n	80100e0a <out_num+0xb4>
80100de0:	6d7a      	ldr	r2, [r7, #84]	; 0x54
80100de2:	6f3b      	ldr	r3, [r7, #112]	; 0x70
80100de4:	429a      	cmp	r2, r3
80100de6:	da10      	bge.n	80100e0a <out_num+0xb4>
80100de8:	6f3a      	ldr	r2, [r7, #112]	; 0x70
80100dea:	6d7b      	ldr	r3, [r7, #84]	; 0x54
80100dec:	1ad3      	subs	r3, r2, r3
80100dee:	653b      	str	r3, [r7, #80]	; 0x50
80100df0:	e008      	b.n	80100e04 <out_num+0xae>
80100df2:	6dbb      	ldr	r3, [r7, #88]	; 0x58
80100df4:	3b01      	subs	r3, #1
80100df6:	65bb      	str	r3, [r7, #88]	; 0x58
80100df8:	6dbb      	ldr	r3, [r7, #88]	; 0x58
80100dfa:	78fa      	ldrb	r2, [r7, #3]
80100dfc:	701a      	strb	r2, [r3, #0]
80100dfe:	6d3b      	ldr	r3, [r7, #80]	; 0x50
80100e00:	3b01      	subs	r3, #1
80100e02:	653b      	str	r3, [r7, #80]	; 0x50
80100e04:	6d3b      	ldr	r3, [r7, #80]	; 0x50
80100e06:	2b00      	cmp	r3, #0
80100e08:	d1f3      	bne.n	80100df2 <out_num+0x9c>
80100e0a:	e9d7 3402 	ldrd	r3, r4, [r7, #8]
80100e0e:	2b00      	cmp	r3, #0
80100e10:	f174 0300 	sbcs.w	r3, r4, #0
80100e14:	da05      	bge.n	80100e22 <out_num+0xcc>
80100e16:	6dbb      	ldr	r3, [r7, #88]	; 0x58
80100e18:	3b01      	subs	r3, #1
80100e1a:	65bb      	str	r3, [r7, #88]	; 0x58
80100e1c:	6dbb      	ldr	r3, [r7, #88]	; 0x58
80100e1e:	222d      	movs	r2, #45	; 0x2d
80100e20:	701a      	strb	r2, [r3, #0]
80100e22:	6db8      	ldr	r0, [r7, #88]	; 0x58
80100e24:	f7ff ff82 	bl	80100d2c <outs>
80100e28:	4603      	mov	r3, r0
80100e2a:	4618      	mov	r0, r3
80100e2c:	3764      	adds	r7, #100	; 0x64
80100e2e:	46bd      	mov	sp, r7
80100e30:	bd90      	pop	{r4, r7, pc}

80100e32 <my_vprintf>:
80100e32:	b580      	push	{r7, lr}
80100e34:	b086      	sub	sp, #24
80100e36:	af02      	add	r7, sp, #8
80100e38:	6078      	str	r0, [r7, #4]
80100e3a:	6039      	str	r1, [r7, #0]
80100e3c:	2320      	movs	r3, #32
80100e3e:	72fb      	strb	r3, [r7, #11]
80100e40:	2300      	movs	r3, #0
80100e42:	60fb      	str	r3, [r7, #12]
80100e44:	e0c7      	b.n	80100fd6 <my_vprintf+0x1a4>
80100e46:	687b      	ldr	r3, [r7, #4]
80100e48:	781b      	ldrb	r3, [r3, #0]
80100e4a:	2b25      	cmp	r3, #37	; 0x25
80100e4c:	d005      	beq.n	80100e5a <my_vprintf+0x28>
80100e4e:	687b      	ldr	r3, [r7, #4]
80100e50:	781b      	ldrb	r3, [r3, #0]
80100e52:	4618      	mov	r0, r3
80100e54:	f7ff ff5e 	bl	80100d14 <outc>
80100e58:	e0ba      	b.n	80100fd0 <my_vprintf+0x19e>
80100e5a:	687b      	ldr	r3, [r7, #4]
80100e5c:	3301      	adds	r3, #1
80100e5e:	607b      	str	r3, [r7, #4]
80100e60:	687b      	ldr	r3, [r7, #4]
80100e62:	781b      	ldrb	r3, [r3, #0]
80100e64:	2b30      	cmp	r3, #48	; 0x30
80100e66:	d104      	bne.n	80100e72 <my_vprintf+0x40>
80100e68:	2330      	movs	r3, #48	; 0x30
80100e6a:	72fb      	strb	r3, [r7, #11]
80100e6c:	687b      	ldr	r3, [r7, #4]
80100e6e:	3301      	adds	r3, #1
80100e70:	607b      	str	r3, [r7, #4]
80100e72:	2320      	movs	r3, #32
80100e74:	72fb      	strb	r3, [r7, #11]
80100e76:	2300      	movs	r3, #0
80100e78:	60fb      	str	r3, [r7, #12]
80100e7a:	e00e      	b.n	80100e9a <my_vprintf+0x68>
80100e7c:	68fa      	ldr	r2, [r7, #12]
80100e7e:	4613      	mov	r3, r2
80100e80:	009b      	lsls	r3, r3, #2
80100e82:	4413      	add	r3, r2
80100e84:	005b      	lsls	r3, r3, #1
80100e86:	60fb      	str	r3, [r7, #12]
80100e88:	687b      	ldr	r3, [r7, #4]
80100e8a:	781b      	ldrb	r3, [r3, #0]
80100e8c:	3b30      	subs	r3, #48	; 0x30
80100e8e:	68fa      	ldr	r2, [r7, #12]
80100e90:	4413      	add	r3, r2
80100e92:	60fb      	str	r3, [r7, #12]
80100e94:	687b      	ldr	r3, [r7, #4]
80100e96:	3301      	adds	r3, #1
80100e98:	607b      	str	r3, [r7, #4]
80100e9a:	687b      	ldr	r3, [r7, #4]
80100e9c:	781b      	ldrb	r3, [r3, #0]
80100e9e:	2b2f      	cmp	r3, #47	; 0x2f
80100ea0:	d903      	bls.n	80100eaa <my_vprintf+0x78>
80100ea2:	687b      	ldr	r3, [r7, #4]
80100ea4:	781b      	ldrb	r3, [r3, #0]
80100ea6:	2b39      	cmp	r3, #57	; 0x39
80100ea8:	d9e8      	bls.n	80100e7c <my_vprintf+0x4a>
80100eaa:	687b      	ldr	r3, [r7, #4]
80100eac:	781b      	ldrb	r3, [r3, #0]
80100eae:	3b63      	subs	r3, #99	; 0x63
80100eb0:	2b15      	cmp	r3, #21
80100eb2:	f200 8087 	bhi.w	80100fc4 <my_vprintf+0x192>
80100eb6:	a201      	add	r2, pc, #4	; (adr r2, 80100ebc <my_vprintf+0x8a>)
80100eb8:	f852 f023 	ldr.w	pc, [r2, r3, lsl #2]
80100ebc:	80100f9d 	mulshi	r0, sp, pc	; <UNPREDICTABLE>
80100ec0:	80100f15 	andshi	r0, r0, r5, lsl pc
80100ec4:	80100fc5 	andshi	r0, r0, r5, asr #31
80100ec8:	80100fc5 	andshi	r0, r0, r5, asr #31
80100ecc:	80100fc5 	andshi	r0, r0, r5, asr #31
80100ed0:	80100fc5 	andshi	r0, r0, r5, asr #31
80100ed4:	80100fc5 	andshi	r0, r0, r5, asr #31
80100ed8:	80100fc5 	andshi	r0, r0, r5, asr #31
80100edc:	80100fc5 	andshi	r0, r0, r5, asr #31
80100ee0:	80100fc5 	andshi	r0, r0, r5, asr #31
80100ee4:	80100fc5 	andshi	r0, r0, r5, asr #31
80100ee8:	80100fc5 	andshi	r0, r0, r5, asr #31
80100eec:	80100f37 	andshi	r0, r0, r7, lsr pc
80100ef0:	80100fc5 	andshi	r0, r0, r5, asr #31
80100ef4:	80100fc5 	andshi	r0, r0, r5, asr #31
80100ef8:	80100fc5 	andshi	r0, r0, r5, asr #31
80100efc:	80100fb1 			; <UNDEFINED> instruction: 0x80100fb1
80100f00:	80100fc5 	andshi	r0, r0, r5, asr #31
80100f04:	80100f59 	andshi	r0, r0, r9, asr pc
80100f08:	80100fc5 	andshi	r0, r0, r5, asr #31
80100f0c:	80100fc5 	andshi	r0, r0, r5, asr #31
80100f10:	80100f7b 	andshi	r0, r0, fp, ror pc
80100f14:	683b      	ldr	r3, [r7, #0]
80100f16:	3304      	adds	r3, #4
80100f18:	603b      	str	r3, [r7, #0]
80100f1a:	683b      	ldr	r3, [r7, #0]
80100f1c:	3b04      	subs	r3, #4
80100f1e:	681b      	ldr	r3, [r3, #0]
80100f20:	4618      	mov	r0, r3
80100f22:	ea4f 71e0 	mov.w	r1, r0, asr #31
80100f26:	7afa      	ldrb	r2, [r7, #11]
80100f28:	68fb      	ldr	r3, [r7, #12]
80100f2a:	9300      	str	r3, [sp, #0]
80100f2c:	4613      	mov	r3, r2
80100f2e:	220a      	movs	r2, #10
80100f30:	f7ff ff11 	bl	80100d56 <out_num>
80100f34:	e04c      	b.n	80100fd0 <my_vprintf+0x19e>
80100f36:	683b      	ldr	r3, [r7, #0]
80100f38:	3304      	adds	r3, #4
80100f3a:	603b      	str	r3, [r7, #0]
80100f3c:	683b      	ldr	r3, [r7, #0]
80100f3e:	3b04      	subs	r3, #4
80100f40:	681b      	ldr	r3, [r3, #0]
80100f42:	4618      	mov	r0, r3
80100f44:	f04f 0100 	mov.w	r1, #0
80100f48:	7afa      	ldrb	r2, [r7, #11]
80100f4a:	68fb      	ldr	r3, [r7, #12]
80100f4c:	9300      	str	r3, [sp, #0]
80100f4e:	4613      	mov	r3, r2
80100f50:	2208      	movs	r2, #8
80100f52:	f7ff ff00 	bl	80100d56 <out_num>
80100f56:	e03b      	b.n	80100fd0 <my_vprintf+0x19e>
80100f58:	683b      	ldr	r3, [r7, #0]
80100f5a:	3304      	adds	r3, #4
80100f5c:	603b      	str	r3, [r7, #0]
80100f5e:	683b      	ldr	r3, [r7, #0]
80100f60:	3b04      	subs	r3, #4
80100f62:	681b      	ldr	r3, [r3, #0]
80100f64:	4618      	mov	r0, r3
80100f66:	f04f 0100 	mov.w	r1, #0
80100f6a:	7afa      	ldrb	r2, [r7, #11]
80100f6c:	68fb      	ldr	r3, [r7, #12]
80100f6e:	9300      	str	r3, [sp, #0]
80100f70:	4613      	mov	r3, r2
80100f72:	220a      	movs	r2, #10
80100f74:	f7ff feef 	bl	80100d56 <out_num>
80100f78:	e02a      	b.n	80100fd0 <my_vprintf+0x19e>
80100f7a:	683b      	ldr	r3, [r7, #0]
80100f7c:	3304      	adds	r3, #4
80100f7e:	603b      	str	r3, [r7, #0]
80100f80:	683b      	ldr	r3, [r7, #0]
80100f82:	3b04      	subs	r3, #4
80100f84:	681b      	ldr	r3, [r3, #0]
80100f86:	4618      	mov	r0, r3
80100f88:	f04f 0100 	mov.w	r1, #0
80100f8c:	7afa      	ldrb	r2, [r7, #11]
80100f8e:	68fb      	ldr	r3, [r7, #12]
80100f90:	9300      	str	r3, [sp, #0]
80100f92:	4613      	mov	r3, r2
80100f94:	2210      	movs	r2, #16
80100f96:	f7ff fede 	bl	80100d56 <out_num>
80100f9a:	e019      	b.n	80100fd0 <my_vprintf+0x19e>
80100f9c:	683b      	ldr	r3, [r7, #0]
80100f9e:	3304      	adds	r3, #4
80100fa0:	603b      	str	r3, [r7, #0]
80100fa2:	683b      	ldr	r3, [r7, #0]
80100fa4:	3b04      	subs	r3, #4
80100fa6:	681b      	ldr	r3, [r3, #0]
80100fa8:	4618      	mov	r0, r3
80100faa:	f7ff feb3 	bl	80100d14 <outc>
80100fae:	e00f      	b.n	80100fd0 <my_vprintf+0x19e>
80100fb0:	683b      	ldr	r3, [r7, #0]
80100fb2:	3304      	adds	r3, #4
80100fb4:	603b      	str	r3, [r7, #0]
80100fb6:	683b      	ldr	r3, [r7, #0]
80100fb8:	3b04      	subs	r3, #4
80100fba:	681b      	ldr	r3, [r3, #0]
80100fbc:	4618      	mov	r0, r3
80100fbe:	f7ff feb5 	bl	80100d2c <outs>
80100fc2:	e005      	b.n	80100fd0 <my_vprintf+0x19e>
80100fc4:	687b      	ldr	r3, [r7, #4]
80100fc6:	781b      	ldrb	r3, [r3, #0]
80100fc8:	4618      	mov	r0, r3
80100fca:	f7ff fea3 	bl	80100d14 <outc>
80100fce:	bf00      	nop
80100fd0:	687b      	ldr	r3, [r7, #4]
80100fd2:	3301      	adds	r3, #1
80100fd4:	607b      	str	r3, [r7, #4]
80100fd6:	687b      	ldr	r3, [r7, #4]
80100fd8:	781b      	ldrb	r3, [r3, #0]
80100fda:	2b00      	cmp	r3, #0
80100fdc:	f47f af33 	bne.w	80100e46 <my_vprintf+0x14>
80100fe0:	2300      	movs	r3, #0
80100fe2:	4618      	mov	r0, r3
80100fe4:	3710      	adds	r7, #16
80100fe6:	46bd      	mov	sp, r7
80100fe8:	bd80      	pop	{r7, pc}

80100fea <printf>:
80100fea:	b40f      	push	{r0, r1, r2, r3}
80100fec:	b580      	push	{r7, lr}
80100fee:	b082      	sub	sp, #8
80100ff0:	af00      	add	r7, sp, #0
80100ff2:	f107 0314 	add.w	r3, r7, #20
80100ff6:	607b      	str	r3, [r7, #4]
80100ff8:	693b      	ldr	r3, [r7, #16]
80100ffa:	6879      	ldr	r1, [r7, #4]
80100ffc:	4618      	mov	r0, r3
80100ffe:	f7ff ff18 	bl	80100e32 <my_vprintf>
80101002:	2300      	movs	r3, #0
80101004:	607b      	str	r3, [r7, #4]
80101006:	2300      	movs	r3, #0
80101008:	4618      	mov	r0, r3
8010100a:	3708      	adds	r7, #8
8010100c:	46bd      	mov	sp, r7
8010100e:	e8bd 4080 	ldmia.w	sp!, {r7, lr}
80101012:	b004      	add	sp, #16
80101014:	4770      	bx	lr

80101016 <my_printf_test>:
80101016:	b580      	push	{r7, lr}
80101018:	af00      	add	r7, sp, #0
8010101a:	f642 5030 	movw	r0, #11568	; 0x2d30
8010101e:	f2c8 0010 	movt	r0, #32784	; 0x8010
80101022:	f7ff ffe2 	bl	80100fea <printf>
80101026:	2261      	movs	r2, #97	; 0x61
80101028:	2141      	movs	r1, #65	; 0x41
8010102a:	f642 505c 	movw	r0, #11612	; 0x2d5c
8010102e:	f2c8 0010 	movt	r0, #32784	; 0x8010
80101032:	f7ff ffda 	bl	80100fea <printf>
80101036:	f24e 2140 	movw	r1, #57920	; 0xe240
8010103a:	f2c0 0101 	movt	r1, #1
8010103e:	f642 507c 	movw	r0, #11644	; 0x2d7c
80101042:	f2c8 0010 	movt	r0, #32784	; 0x8010
80101046:	f7ff ffd0 	bl	80100fea <printf>
8010104a:	f44f 51ee 	mov.w	r1, #7616	; 0x1dc0
8010104e:	f6cf 71fe 	movt	r1, #65534	; 0xfffe
80101052:	f642 507c 	movw	r0, #11644	; 0x2d7c
80101056:	f2c8 0010 	movt	r0, #32784	; 0x8010
8010105a:	f7ff ffc6 	bl	80100fea <printf>
8010105e:	f245 51aa 	movw	r1, #21930	; 0x55aa
80101062:	f2c5 51aa 	movt	r1, #21930	; 0x55aa
80101066:	f642 5098 	movw	r0, #11672	; 0x2d98
8010106a:	f2c8 0010 	movt	r0, #32784	; 0x8010
8010106e:	f7ff ffbc 	bl	80100fea <printf>
80101072:	f642 51b4 	movw	r1, #11700	; 0x2db4
80101076:	f2c8 0110 	movt	r1, #32784	; 0x8010
8010107a:	f642 50c4 	movw	r0, #11716	; 0x2dc4
8010107e:	f2c8 0010 	movt	r0, #32784	; 0x8010
80101082:	f7ff ffb2 	bl	80100fea <printf>
80101086:	f243 0139 	movw	r1, #12345	; 0x3039
8010108a:	f642 50e0 	movw	r0, #11744	; 0x2de0
8010108e:	f2c8 0010 	movt	r0, #32784	; 0x8010
80101092:	f7ff ffaa 	bl	80100fea <printf>
80101096:	f243 0139 	movw	r1, #12345	; 0x3039
8010109a:	f642 50ec 	movw	r0, #11756	; 0x2dec
8010109e:	f2c8 0010 	movt	r0, #32784	; 0x8010
801010a2:	f7ff ffa2 	bl	80100fea <printf>
801010a6:	f242 3145 	movw	r1, #9029	; 0x2345
801010aa:	f2c0 0101 	movt	r1, #1
801010ae:	f642 50f8 	movw	r0, #11768	; 0x2df8
801010b2:	f2c8 0010 	movt	r0, #32784	; 0x8010
801010b6:	f7ff ff98 	bl	80100fea <printf>
801010ba:	f242 3145 	movw	r1, #9029	; 0x2345
801010be:	f2c0 0101 	movt	r1, #1
801010c2:	f642 6008 	movw	r0, #11784	; 0x2e08
801010c6:	f2c8 0010 	movt	r0, #32784	; 0x8010
801010ca:	f7ff ff8e 	bl	80100fea <printf>
801010ce:	2101      	movs	r1, #1
801010d0:	f642 6014 	movw	r0, #11796	; 0x2e14
801010d4:	f2c8 0010 	movt	r0, #32784	; 0x8010
801010d8:	f7ff ff87 	bl	80100fea <printf>
801010dc:	2101      	movs	r1, #1
801010de:	f642 6024 	movw	r0, #11812	; 0x2e24
801010e2:	f2c8 0010 	movt	r0, #32784	; 0x8010
801010e6:	f7ff ff80 	bl	80100fea <printf>
801010ea:	2101      	movs	r1, #1
801010ec:	f642 6030 	movw	r0, #11824	; 0x2e30
801010f0:	f2c8 0010 	movt	r0, #32784	; 0x8010
801010f4:	f7ff ff79 	bl	80100fea <printf>
801010f8:	2101      	movs	r1, #1
801010fa:	f642 603c 	movw	r0, #11836	; 0x2e3c
801010fe:	f2c8 0010 	movt	r0, #32784	; 0x8010
80101102:	f7ff ff72 	bl	80100fea <printf>
80101106:	2300      	movs	r3, #0
80101108:	4618      	mov	r0, r3
8010110a:	bd80      	pop	{r7, pc}

8010110c <memcpy>:
8010110c:	b480      	push	{r7}
8010110e:	b089      	sub	sp, #36	; 0x24
80101110:	af00      	add	r7, sp, #0
80101112:	60f8      	str	r0, [r7, #12]
80101114:	60b9      	str	r1, [r7, #8]
80101116:	607a      	str	r2, [r7, #4]
80101118:	68fb      	ldr	r3, [r7, #12]
8010111a:	61fb      	str	r3, [r7, #28]
8010111c:	68bb      	ldr	r3, [r7, #8]
8010111e:	61bb      	str	r3, [r7, #24]
80101120:	68ba      	ldr	r2, [r7, #8]
80101122:	68fb      	ldr	r3, [r7, #12]
80101124:	429a      	cmp	r2, r3
80101126:	d101      	bne.n	8010112c <memcpy+0x20>
80101128:	68fb      	ldr	r3, [r7, #12]
8010112a:	e028      	b.n	8010117e <memcpy+0x72>
8010112c:	68fa      	ldr	r2, [r7, #12]
8010112e:	68bb      	ldr	r3, [r7, #8]
80101130:	4313      	orrs	r3, r2
80101132:	f003 0303 	and.w	r3, r3, #3
80101136:	2b00      	cmp	r3, #0
80101138:	d10e      	bne.n	80101158 <memcpy+0x4c>
8010113a:	e00a      	b.n	80101152 <memcpy+0x46>
8010113c:	69fb      	ldr	r3, [r7, #28]
8010113e:	1d1a      	adds	r2, r3, #4
80101140:	61fa      	str	r2, [r7, #28]
80101142:	69ba      	ldr	r2, [r7, #24]
80101144:	1d11      	adds	r1, r2, #4
80101146:	61b9      	str	r1, [r7, #24]
80101148:	6812      	ldr	r2, [r2, #0]
8010114a:	601a      	str	r2, [r3, #0]
8010114c:	687b      	ldr	r3, [r7, #4]
8010114e:	3b04      	subs	r3, #4
80101150:	607b      	str	r3, [r7, #4]
80101152:	687b      	ldr	r3, [r7, #4]
80101154:	2b03      	cmp	r3, #3
80101156:	d8f1      	bhi.n	8010113c <memcpy+0x30>
80101158:	69fb      	ldr	r3, [r7, #28]
8010115a:	617b      	str	r3, [r7, #20]
8010115c:	69bb      	ldr	r3, [r7, #24]
8010115e:	613b      	str	r3, [r7, #16]
80101160:	e007      	b.n	80101172 <memcpy+0x66>
80101162:	697b      	ldr	r3, [r7, #20]
80101164:	1c5a      	adds	r2, r3, #1
80101166:	617a      	str	r2, [r7, #20]
80101168:	693a      	ldr	r2, [r7, #16]
8010116a:	1c51      	adds	r1, r2, #1
8010116c:	6139      	str	r1, [r7, #16]
8010116e:	7812      	ldrb	r2, [r2, #0]
80101170:	701a      	strb	r2, [r3, #0]
80101172:	687b      	ldr	r3, [r7, #4]
80101174:	1e5a      	subs	r2, r3, #1
80101176:	607a      	str	r2, [r7, #4]
80101178:	2b00      	cmp	r3, #0
8010117a:	d1f2      	bne.n	80101162 <memcpy+0x56>
8010117c:	68fb      	ldr	r3, [r7, #12]
8010117e:	4618      	mov	r0, r3
80101180:	3724      	adds	r7, #36	; 0x24
80101182:	46bd      	mov	sp, r7
80101184:	f85d 7b04 	ldr.w	r7, [sp], #4
80101188:	4770      	bx	lr

8010118a <memset>:
8010118a:	b480      	push	{r7}
8010118c:	b089      	sub	sp, #36	; 0x24
8010118e:	af00      	add	r7, sp, #0
80101190:	60f8      	str	r0, [r7, #12]
80101192:	60b9      	str	r1, [r7, #8]
80101194:	607a      	str	r2, [r7, #4]
80101196:	68fb      	ldr	r3, [r7, #12]
80101198:	61fb      	str	r3, [r7, #28]
8010119a:	2300      	movs	r3, #0
8010119c:	61bb      	str	r3, [r7, #24]
8010119e:	68fb      	ldr	r3, [r7, #12]
801011a0:	f003 0303 	and.w	r3, r3, #3
801011a4:	2b00      	cmp	r3, #0
801011a6:	d11c      	bne.n	801011e2 <memset+0x58>
801011a8:	2300      	movs	r3, #0
801011aa:	613b      	str	r3, [r7, #16]
801011ac:	e00a      	b.n	801011c4 <memset+0x3a>
801011ae:	69bb      	ldr	r3, [r7, #24]
801011b0:	021b      	lsls	r3, r3, #8
801011b2:	61bb      	str	r3, [r7, #24]
801011b4:	68bb      	ldr	r3, [r7, #8]
801011b6:	b2db      	uxtb	r3, r3
801011b8:	69ba      	ldr	r2, [r7, #24]
801011ba:	4313      	orrs	r3, r2
801011bc:	61bb      	str	r3, [r7, #24]
801011be:	693b      	ldr	r3, [r7, #16]
801011c0:	3301      	adds	r3, #1
801011c2:	613b      	str	r3, [r7, #16]
801011c4:	693b      	ldr	r3, [r7, #16]
801011c6:	2b03      	cmp	r3, #3
801011c8:	d9f1      	bls.n	801011ae <memset+0x24>
801011ca:	e007      	b.n	801011dc <memset+0x52>
801011cc:	69fb      	ldr	r3, [r7, #28]
801011ce:	1d1a      	adds	r2, r3, #4
801011d0:	61fa      	str	r2, [r7, #28]
801011d2:	69ba      	ldr	r2, [r7, #24]
801011d4:	601a      	str	r2, [r3, #0]
801011d6:	687b      	ldr	r3, [r7, #4]
801011d8:	3b04      	subs	r3, #4
801011da:	607b      	str	r3, [r7, #4]
801011dc:	687b      	ldr	r3, [r7, #4]
801011de:	2b03      	cmp	r3, #3
801011e0:	d8f4      	bhi.n	801011cc <memset+0x42>
801011e2:	69fb      	ldr	r3, [r7, #28]
801011e4:	617b      	str	r3, [r7, #20]
801011e6:	e005      	b.n	801011f4 <memset+0x6a>
801011e8:	697b      	ldr	r3, [r7, #20]
801011ea:	1c5a      	adds	r2, r3, #1
801011ec:	617a      	str	r2, [r7, #20]
801011ee:	68ba      	ldr	r2, [r7, #8]
801011f0:	b2d2      	uxtb	r2, r2
801011f2:	701a      	strb	r2, [r3, #0]
801011f4:	687b      	ldr	r3, [r7, #4]
801011f6:	1e5a      	subs	r2, r3, #1
801011f8:	607a      	str	r2, [r7, #4]
801011fa:	2b00      	cmp	r3, #0
801011fc:	d1f4      	bne.n	801011e8 <memset+0x5e>
801011fe:	68fb      	ldr	r3, [r7, #12]
80101200:	4618      	mov	r0, r3
80101202:	3724      	adds	r7, #36	; 0x24
80101204:	46bd      	mov	sp, r7
80101206:	f85d 7b04 	ldr.w	r7, [sp], #4
8010120a:	4770      	bx	lr

8010120c <USDHC_Dump_All>:
8010120c:	b580      	push	{r7, lr}
8010120e:	b082      	sub	sp, #8
80101210:	af00      	add	r7, sp, #0
80101212:	6078      	str	r0, [r7, #4]
80101214:	687b      	ldr	r3, [r7, #4]
80101216:	681b      	ldr	r3, [r3, #0]
80101218:	4619      	mov	r1, r3
8010121a:	f642 6048 	movw	r0, #11848	; 0x2e48
8010121e:	f2c8 0010 	movt	r0, #32784	; 0x8010
80101222:	f7ff fee2 	bl	80100fea <printf>
80101226:	687b      	ldr	r3, [r7, #4]
80101228:	685b      	ldr	r3, [r3, #4]
8010122a:	4619      	mov	r1, r3
8010122c:	f642 605c 	movw	r0, #11868	; 0x2e5c
80101230:	f2c8 0010 	movt	r0, #32784	; 0x8010
80101234:	f7ff fed9 	bl	80100fea <printf>
80101238:	687b      	ldr	r3, [r7, #4]
8010123a:	689b      	ldr	r3, [r3, #8]
8010123c:	4619      	mov	r1, r3
8010123e:	f642 6070 	movw	r0, #11888	; 0x2e70
80101242:	f2c8 0010 	movt	r0, #32784	; 0x8010
80101246:	f7ff fed0 	bl	80100fea <printf>
8010124a:	687b      	ldr	r3, [r7, #4]
8010124c:	68db      	ldr	r3, [r3, #12]
8010124e:	4619      	mov	r1, r3
80101250:	f642 6084 	movw	r0, #11908	; 0x2e84
80101254:	f2c8 0010 	movt	r0, #32784	; 0x8010
80101258:	f7ff fec7 	bl	80100fea <printf>
8010125c:	687b      	ldr	r3, [r7, #4]
8010125e:	691b      	ldr	r3, [r3, #16]
80101260:	4619      	mov	r1, r3
80101262:	f642 609c 	movw	r0, #11932	; 0x2e9c
80101266:	f2c8 0010 	movt	r0, #32784	; 0x8010
8010126a:	f7ff febe 	bl	80100fea <printf>
8010126e:	687b      	ldr	r3, [r7, #4]
80101270:	695b      	ldr	r3, [r3, #20]
80101272:	4619      	mov	r1, r3
80101274:	f642 60b0 	movw	r0, #11952	; 0x2eb0
80101278:	f2c8 0010 	movt	r0, #32784	; 0x8010
8010127c:	f7ff feb5 	bl	80100fea <printf>
80101280:	687b      	ldr	r3, [r7, #4]
80101282:	699b      	ldr	r3, [r3, #24]
80101284:	4619      	mov	r1, r3
80101286:	f642 60c4 	movw	r0, #11972	; 0x2ec4
8010128a:	f2c8 0010 	movt	r0, #32784	; 0x8010
8010128e:	f7ff feac 	bl	80100fea <printf>
80101292:	687b      	ldr	r3, [r7, #4]
80101294:	69db      	ldr	r3, [r3, #28]
80101296:	4619      	mov	r1, r3
80101298:	f642 60d8 	movw	r0, #11992	; 0x2ed8
8010129c:	f2c8 0010 	movt	r0, #32784	; 0x8010
801012a0:	f7ff fea3 	bl	80100fea <printf>
801012a4:	687b      	ldr	r3, [r7, #4]
801012a6:	6a1b      	ldr	r3, [r3, #32]
801012a8:	4619      	mov	r1, r3
801012aa:	f642 60ec 	movw	r0, #12012	; 0x2eec
801012ae:	f2c8 0010 	movt	r0, #32784	; 0x8010
801012b2:	f7ff fe9a 	bl	80100fea <printf>
801012b6:	687b      	ldr	r3, [r7, #4]
801012b8:	6a5b      	ldr	r3, [r3, #36]	; 0x24
801012ba:	4619      	mov	r1, r3
801012bc:	f642 700c 	movw	r0, #12044	; 0x2f0c
801012c0:	f2c8 0010 	movt	r0, #32784	; 0x8010
801012c4:	f7ff fe91 	bl	80100fea <printf>
801012c8:	687b      	ldr	r3, [r7, #4]
801012ca:	6a9b      	ldr	r3, [r3, #40]	; 0x28
801012cc:	4619      	mov	r1, r3
801012ce:	f642 7024 	movw	r0, #12068	; 0x2f24
801012d2:	f2c8 0010 	movt	r0, #32784	; 0x8010
801012d6:	f7ff fe88 	bl	80100fea <printf>
801012da:	687b      	ldr	r3, [r7, #4]
801012dc:	6adb      	ldr	r3, [r3, #44]	; 0x2c
801012de:	4619      	mov	r1, r3
801012e0:	f642 7038 	movw	r0, #12088	; 0x2f38
801012e4:	f2c8 0010 	movt	r0, #32784	; 0x8010
801012e8:	f7ff fe7f 	bl	80100fea <printf>
801012ec:	687b      	ldr	r3, [r7, #4]
801012ee:	6b1b      	ldr	r3, [r3, #48]	; 0x30
801012f0:	4619      	mov	r1, r3
801012f2:	f642 704c 	movw	r0, #12108	; 0x2f4c
801012f6:	f2c8 0010 	movt	r0, #32784	; 0x8010
801012fa:	f7ff fe76 	bl	80100fea <printf>
801012fe:	687b      	ldr	r3, [r7, #4]
80101300:	6b5b      	ldr	r3, [r3, #52]	; 0x34
80101302:	4619      	mov	r1, r3
80101304:	f642 7064 	movw	r0, #12132	; 0x2f64
80101308:	f2c8 0010 	movt	r0, #32784	; 0x8010
8010130c:	f7ff fe6d 	bl	80100fea <printf>
80101310:	687b      	ldr	r3, [r7, #4]
80101312:	6b9b      	ldr	r3, [r3, #56]	; 0x38
80101314:	4619      	mov	r1, r3
80101316:	f642 707c 	movw	r0, #12156	; 0x2f7c
8010131a:	f2c8 0010 	movt	r0, #32784	; 0x8010
8010131e:	f7ff fe64 	bl	80100fea <printf>
80101322:	687b      	ldr	r3, [r7, #4]
80101324:	6bdb      	ldr	r3, [r3, #60]	; 0x3c
80101326:	4619      	mov	r1, r3
80101328:	f642 7094 	movw	r0, #12180	; 0x2f94
8010132c:	f2c8 0010 	movt	r0, #32784	; 0x8010
80101330:	f7ff fe5b 	bl	80100fea <printf>
80101334:	687b      	ldr	r3, [r7, #4]
80101336:	6c1b      	ldr	r3, [r3, #64]	; 0x40
80101338:	4619      	mov	r1, r3
8010133a:	f642 70b4 	movw	r0, #12212	; 0x2fb4
8010133e:	f2c8 0010 	movt	r0, #32784	; 0x8010
80101342:	f7ff fe52 	bl	80100fea <printf>
80101346:	687b      	ldr	r3, [r7, #4]
80101348:	6c5b      	ldr	r3, [r3, #68]	; 0x44
8010134a:	4619      	mov	r1, r3
8010134c:	f642 70cc 	movw	r0, #12236	; 0x2fcc
80101350:	f2c8 0010 	movt	r0, #32784	; 0x8010
80101354:	f7ff fe49 	bl	80100fea <printf>
80101358:	687b      	ldr	r3, [r7, #4]
8010135a:	6c9b      	ldr	r3, [r3, #72]	; 0x48
8010135c:	4619      	mov	r1, r3
8010135e:	f642 70e0 	movw	r0, #12256	; 0x2fe0
80101362:	f2c8 0010 	movt	r0, #32784	; 0x8010
80101366:	f7ff fe40 	bl	80100fea <printf>
8010136a:	687b      	ldr	r3, [r7, #4]
8010136c:	6d1b      	ldr	r3, [r3, #80]	; 0x50
8010136e:	4619      	mov	r1, r3
80101370:	f642 70f4 	movw	r0, #12276	; 0x2ff4
80101374:	f2c8 0010 	movt	r0, #32784	; 0x8010
80101378:	f7ff fe37 	bl	80100fea <printf>
8010137c:	687b      	ldr	r3, [r7, #4]
8010137e:	6d5b      	ldr	r3, [r3, #84]	; 0x54
80101380:	4619      	mov	r1, r3
80101382:	f243 000c 	movw	r0, #12300	; 0x300c
80101386:	f2c8 0010 	movt	r0, #32784	; 0x8010
8010138a:	f7ff fe2e 	bl	80100fea <printf>
8010138e:	687b      	ldr	r3, [r7, #4]
80101390:	6d9b      	ldr	r3, [r3, #88]	; 0x58
80101392:	4619      	mov	r1, r3
80101394:	f243 0028 	movw	r0, #12328	; 0x3028
80101398:	f2c8 0010 	movt	r0, #32784	; 0x8010
8010139c:	f7ff fe25 	bl	80100fea <printf>
801013a0:	687b      	ldr	r3, [r7, #4]
801013a2:	6e1b      	ldr	r3, [r3, #96]	; 0x60
801013a4:	4619      	mov	r1, r3
801013a6:	f243 0040 	movw	r0, #12352	; 0x3040
801013aa:	f2c8 0010 	movt	r0, #32784	; 0x8010
801013ae:	f7ff fe1c 	bl	80100fea <printf>
801013b2:	687b      	ldr	r3, [r7, #4]
801013b4:	6e5b      	ldr	r3, [r3, #100]	; 0x64
801013b6:	4619      	mov	r1, r3
801013b8:	f243 0054 	movw	r0, #12372	; 0x3054
801013bc:	f2c8 0010 	movt	r0, #32784	; 0x8010
801013c0:	f7ff fe13 	bl	80100fea <printf>
801013c4:	687b      	ldr	r3, [r7, #4]
801013c6:	6e9b      	ldr	r3, [r3, #104]	; 0x68
801013c8:	4619      	mov	r1, r3
801013ca:	f243 006c 	movw	r0, #12396	; 0x306c
801013ce:	f2c8 0010 	movt	r0, #32784	; 0x8010
801013d2:	f7ff fe0a 	bl	80100fea <printf>
801013d6:	687b      	ldr	r3, [r7, #4]
801013d8:	f8d3 30c0 	ldr.w	r3, [r3, #192]	; 0xc0
801013dc:	4619      	mov	r1, r3
801013de:	f243 008c 	movw	r0, #12428	; 0x308c
801013e2:	f2c8 0010 	movt	r0, #32784	; 0x8010
801013e6:	f7ff fe00 	bl	80100fea <printf>
801013ea:	687b      	ldr	r3, [r7, #4]
801013ec:	f8d3 30c4 	ldr.w	r3, [r3, #196]	; 0xc4
801013f0:	4619      	mov	r1, r3
801013f2:	f243 00a0 	movw	r0, #12448	; 0x30a0
801013f6:	f2c8 0010 	movt	r0, #32784	; 0x8010
801013fa:	f7ff fdf6 	bl	80100fea <printf>
801013fe:	687b      	ldr	r3, [r7, #4]
80101400:	f8d3 30c8 	ldr.w	r3, [r3, #200]	; 0xc8
80101404:	4619      	mov	r1, r3
80101406:	f243 00b4 	movw	r0, #12468	; 0x30b4
8010140a:	f2c8 0010 	movt	r0, #32784	; 0x8010
8010140e:	f7ff fdec 	bl	80100fea <printf>
80101412:	687b      	ldr	r3, [r7, #4]
80101414:	f8d3 30cc 	ldr.w	r3, [r3, #204]	; 0xcc
80101418:	4619      	mov	r1, r3
8010141a:	f243 00cc 	movw	r0, #12492	; 0x30cc
8010141e:	f2c8 0010 	movt	r0, #32784	; 0x8010
80101422:	f7ff fde2 	bl	80100fea <printf>
80101426:	bf00      	nop
80101428:	3708      	adds	r7, #8
8010142a:	46bd      	mov	sp, r7
8010142c:	bd80      	pop	{r7, pc}

8010142e <USDHC_Reset>:
8010142e:	b480      	push	{r7}
80101430:	b085      	sub	sp, #20
80101432:	af00      	add	r7, sp, #0
80101434:	60f8      	str	r0, [r7, #12]
80101436:	60b9      	str	r1, [r7, #8]
80101438:	607a      	str	r2, [r7, #4]
8010143a:	68fb      	ldr	r3, [r7, #12]
8010143c:	6ada      	ldr	r2, [r3, #44]	; 0x2c
8010143e:	68bb      	ldr	r3, [r7, #8]
80101440:	f003 63e0 	and.w	r3, r3, #117440512	; 0x7000000
80101444:	431a      	orrs	r2, r3
80101446:	68fb      	ldr	r3, [r7, #12]
80101448:	62da      	str	r2, [r3, #44]	; 0x2c
8010144a:	e005      	b.n	80101458 <USDHC_Reset+0x2a>
8010144c:	687b      	ldr	r3, [r7, #4]
8010144e:	2b00      	cmp	r3, #0
80101450:	d009      	beq.n	80101466 <USDHC_Reset+0x38>
80101452:	687b      	ldr	r3, [r7, #4]
80101454:	3b01      	subs	r3, #1
80101456:	607b      	str	r3, [r7, #4]
80101458:	68fb      	ldr	r3, [r7, #12]
8010145a:	6ada      	ldr	r2, [r3, #44]	; 0x2c
8010145c:	68bb      	ldr	r3, [r7, #8]
8010145e:	4013      	ands	r3, r2
80101460:	2b00      	cmp	r3, #0
80101462:	d1f3      	bne.n	8010144c <USDHC_Reset+0x1e>
80101464:	e000      	b.n	80101468 <USDHC_Reset+0x3a>
80101466:	bf00      	nop
80101468:	687b      	ldr	r3, [r7, #4]
8010146a:	2b00      	cmp	r3, #0
8010146c:	bf14      	ite	ne
8010146e:	2301      	movne	r3, #1
80101470:	2300      	moveq	r3, #0
80101472:	b2db      	uxtb	r3, r3
80101474:	4618      	mov	r0, r3
80101476:	3714      	adds	r7, #20
80101478:	46bd      	mov	sp, r7
8010147a:	f85d 7b04 	ldr.w	r7, [sp], #4
8010147e:	4770      	bx	lr

80101480 <USDHC_Reset_All>:
80101480:	b580      	push	{r7, lr}
80101482:	b082      	sub	sp, #8
80101484:	af00      	add	r7, sp, #0
80101486:	6078      	str	r0, [r7, #4]
80101488:	6039      	str	r1, [r7, #0]
8010148a:	683a      	ldr	r2, [r7, #0]
8010148c:	f04f 7180 	mov.w	r1, #16777216	; 0x1000000
80101490:	6878      	ldr	r0, [r7, #4]
80101492:	f7ff ffcc 	bl	8010142e <USDHC_Reset>
80101496:	4603      	mov	r3, r0
80101498:	4618      	mov	r0, r3
8010149a:	3708      	adds	r7, #8
8010149c:	46bd      	mov	sp, r7
8010149e:	bd80      	pop	{r7, pc}

801014a0 <USDHC_Reset_Cmd_Line>:
801014a0:	b580      	push	{r7, lr}
801014a2:	b082      	sub	sp, #8
801014a4:	af00      	add	r7, sp, #0
801014a6:	6078      	str	r0, [r7, #4]
801014a8:	6039      	str	r1, [r7, #0]
801014aa:	683a      	ldr	r2, [r7, #0]
801014ac:	f04f 7100 	mov.w	r1, #33554432	; 0x2000000
801014b0:	6878      	ldr	r0, [r7, #4]
801014b2:	f7ff ffbc 	bl	8010142e <USDHC_Reset>
801014b6:	4603      	mov	r3, r0
801014b8:	4618      	mov	r0, r3
801014ba:	3708      	adds	r7, #8
801014bc:	46bd      	mov	sp, r7
801014be:	bd80      	pop	{r7, pc}

801014c0 <USDHC_Reset_Data_Line>:
801014c0:	b580      	push	{r7, lr}
801014c2:	b082      	sub	sp, #8
801014c4:	af00      	add	r7, sp, #0
801014c6:	6078      	str	r0, [r7, #4]
801014c8:	6039      	str	r1, [r7, #0]
801014ca:	683a      	ldr	r2, [r7, #0]
801014cc:	f04f 6180 	mov.w	r1, #67108864	; 0x4000000
801014d0:	6878      	ldr	r0, [r7, #4]
801014d2:	f7ff ffac 	bl	8010142e <USDHC_Reset>
801014d6:	4603      	mov	r3, r0
801014d8:	4618      	mov	r0, r3
801014da:	3708      	adds	r7, #8
801014dc:	46bd      	mov	sp, r7
801014de:	bd80      	pop	{r7, pc}

801014e0 <USDHC_CreateDescTable>:
801014e0:	b490      	push	{r4, r7}
801014e2:	b086      	sub	sp, #24
801014e4:	af00      	add	r7, sp, #0
801014e6:	6078      	str	r0, [r7, #4]
801014e8:	6039      	str	r1, [r7, #0]
801014ea:	683b      	ldr	r3, [r7, #0]
801014ec:	089a      	lsrs	r2, r3, #2
801014ee:	2305      	movs	r3, #5
801014f0:	f2c4 0301 	movt	r3, #16385	; 0x4001
801014f4:	fba2 3403 	umull	r3, r4, r2, r3
801014f8:	0b23      	lsrs	r3, r4, #12
801014fa:	60fb      	str	r3, [r7, #12]
801014fc:	6839      	ldr	r1, [r7, #0]
801014fe:	088a      	lsrs	r2, r1, #2
80101500:	2305      	movs	r3, #5
80101502:	f2c4 0301 	movt	r3, #16385	; 0x4001
80101506:	fba2 3403 	umull	r3, r4, r2, r3
8010150a:	0b22      	lsrs	r2, r4, #12
8010150c:	4613      	mov	r3, r2
8010150e:	039b      	lsls	r3, r3, #14
80101510:	1a9b      	subs	r3, r3, r2
80101512:	009b      	lsls	r3, r3, #2
80101514:	1aca      	subs	r2, r1, r3
80101516:	2a00      	cmp	r2, #0
80101518:	d002      	beq.n	80101520 <USDHC_CreateDescTable+0x40>
8010151a:	68fb      	ldr	r3, [r7, #12]
8010151c:	3301      	adds	r3, #1
8010151e:	60fb      	str	r3, [r7, #12]
80101520:	2300      	movs	r3, #0
80101522:	617b      	str	r3, [r7, #20]
80101524:	e038      	b.n	80101598 <USDHC_CreateDescTable+0xb8>
80101526:	683b      	ldr	r3, [r7, #0]
80101528:	f64f 72fc 	movw	r2, #65532	; 0xfffc
8010152c:	4293      	cmp	r3, r2
8010152e:	d908      	bls.n	80101542 <USDHC_CreateDescTable+0x62>
80101530:	f64f 73fc 	movw	r3, #65532	; 0xfffc
80101534:	613b      	str	r3, [r7, #16]
80101536:	683b      	ldr	r3, [r7, #0]
80101538:	f5a3 437f 	sub.w	r3, r3, #65280	; 0xff00
8010153c:	3bfc      	subs	r3, #252	; 0xfc
8010153e:	603b      	str	r3, [r7, #0]
80101540:	e001      	b.n	80101546 <USDHC_CreateDescTable+0x66>
80101542:	683b      	ldr	r3, [r7, #0]
80101544:	613b      	str	r3, [r7, #16]
80101546:	f644 02a0 	movw	r2, #18592	; 0x48a0
8010154a:	f2c8 0210 	movt	r2, #32784	; 0x8010
8010154e:	697b      	ldr	r3, [r7, #20]
80101550:	00db      	lsls	r3, r3, #3
80101552:	4413      	add	r3, r2
80101554:	687a      	ldr	r2, [r7, #4]
80101556:	605a      	str	r2, [r3, #4]
80101558:	693b      	ldr	r3, [r7, #16]
8010155a:	0419      	lsls	r1, r3, #16
8010155c:	f644 03a0 	movw	r3, #18592	; 0x48a0
80101560:	f2c8 0310 	movt	r3, #32784	; 0x8010
80101564:	697a      	ldr	r2, [r7, #20]
80101566:	f843 1032 	str.w	r1, [r3, r2, lsl #3]
8010156a:	f644 03a0 	movw	r3, #18592	; 0x48a0
8010156e:	f2c8 0310 	movt	r3, #32784	; 0x8010
80101572:	697a      	ldr	r2, [r7, #20]
80101574:	f853 3032 	ldr.w	r3, [r3, r2, lsl #3]
80101578:	f043 0121 	orr.w	r1, r3, #33	; 0x21
8010157c:	f644 03a0 	movw	r3, #18592	; 0x48a0
80101580:	f2c8 0310 	movt	r3, #32784	; 0x8010
80101584:	697a      	ldr	r2, [r7, #20]
80101586:	f843 1032 	str.w	r1, [r3, r2, lsl #3]
8010158a:	687a      	ldr	r2, [r7, #4]
8010158c:	693b      	ldr	r3, [r7, #16]
8010158e:	4413      	add	r3, r2
80101590:	607b      	str	r3, [r7, #4]
80101592:	697b      	ldr	r3, [r7, #20]
80101594:	3301      	adds	r3, #1
80101596:	617b      	str	r3, [r7, #20]
80101598:	697a      	ldr	r2, [r7, #20]
8010159a:	68fb      	ldr	r3, [r7, #12]
8010159c:	429a      	cmp	r2, r3
8010159e:	d3c2      	bcc.n	80101526 <USDHC_CreateDescTable+0x46>
801015a0:	68fb      	ldr	r3, [r7, #12]
801015a2:	1e5a      	subs	r2, r3, #1
801015a4:	68fb      	ldr	r3, [r7, #12]
801015a6:	1e59      	subs	r1, r3, #1
801015a8:	f644 03a0 	movw	r3, #18592	; 0x48a0
801015ac:	f2c8 0310 	movt	r3, #32784	; 0x8010
801015b0:	f853 3031 	ldr.w	r3, [r3, r1, lsl #3]
801015b4:	f043 0102 	orr.w	r1, r3, #2
801015b8:	f644 03a0 	movw	r3, #18592	; 0x48a0
801015bc:	f2c8 0310 	movt	r3, #32784	; 0x8010
801015c0:	f843 1032 	str.w	r1, [r3, r2, lsl #3]
801015c4:	2300      	movs	r3, #0
801015c6:	4618      	mov	r0, r3
801015c8:	3718      	adds	r7, #24
801015ca:	46bd      	mov	sp, r7
801015cc:	bc90      	pop	{r4, r7}
801015ce:	4770      	bx	lr

801015d0 <USDHC_ClearInterruptStatusFlags>:
801015d0:	b480      	push	{r7}
801015d2:	b083      	sub	sp, #12
801015d4:	af00      	add	r7, sp, #0
801015d6:	6078      	str	r0, [r7, #4]
801015d8:	6039      	str	r1, [r7, #0]
801015da:	687b      	ldr	r3, [r7, #4]
801015dc:	683a      	ldr	r2, [r7, #0]
801015de:	631a      	str	r2, [r3, #48]	; 0x30
801015e0:	bf00      	nop
801015e2:	370c      	adds	r7, #12
801015e4:	46bd      	mov	sp, r7
801015e6:	f85d 7b04 	ldr.w	r7, [sp], #4
801015ea:	4770      	bx	lr

801015ec <USDHC_WaitCommandDone>:
801015ec:	b580      	push	{r7, lr}
801015ee:	b084      	sub	sp, #16
801015f0:	af00      	add	r7, sp, #0
801015f2:	6078      	str	r0, [r7, #4]
801015f4:	2300      	movs	r3, #0
801015f6:	60fb      	str	r3, [r7, #12]
801015f8:	2300      	movs	r3, #0
801015fa:	60bb      	str	r3, [r7, #8]
801015fc:	bf00      	nop
801015fe:	687b      	ldr	r3, [r7, #4]
80101600:	6b1a      	ldr	r2, [r3, #48]	; 0x30
80101602:	2301      	movs	r3, #1
80101604:	f2c0 030f 	movt	r3, #15
80101608:	4013      	ands	r3, r2
8010160a:	2b00      	cmp	r3, #0
8010160c:	d0f7      	beq.n	801015fe <USDHC_WaitCommandDone+0x12>
8010160e:	687b      	ldr	r3, [r7, #4]
80101610:	6b1b      	ldr	r3, [r3, #48]	; 0x30
80101612:	60bb      	str	r3, [r7, #8]
80101614:	68bb      	ldr	r3, [r7, #8]
80101616:	f403 2370 	and.w	r3, r3, #983040	; 0xf0000
8010161a:	2b00      	cmp	r3, #0
8010161c:	d00f      	beq.n	8010163e <USDHC_WaitCommandDone+0x52>
8010161e:	687b      	ldr	r3, [r7, #4]
80101620:	68db      	ldr	r3, [r3, #12]
80101622:	68ba      	ldr	r2, [r7, #8]
80101624:	4619      	mov	r1, r3
80101626:	f243 00e4 	movw	r0, #12516	; 0x30e4
8010162a:	f2c8 0010 	movt	r0, #32784	; 0x8010
8010162e:	f7ff fcdc 	bl	80100fea <printf>
80101632:	6878      	ldr	r0, [r7, #4]
80101634:	f7ff fdea 	bl	8010120c <USDHC_Dump_All>
80101638:	f04f 33ff 	mov.w	r3, #4294967295	; 0xffffffff
8010163c:	60fb      	str	r3, [r7, #12]
8010163e:	2101      	movs	r1, #1
80101640:	f2c0 410f 	movt	r1, #1039	; 0x40f
80101644:	6878      	ldr	r0, [r7, #4]
80101646:	f7ff ffc3 	bl	801015d0 <USDHC_ClearInterruptStatusFlags>
8010164a:	68fb      	ldr	r3, [r7, #12]
8010164c:	4618      	mov	r0, r3
8010164e:	3710      	adds	r7, #16
80101650:	46bd      	mov	sp, r7
80101652:	bd80      	pop	{r7, pc}

80101654 <USDHC_WaitDataDone>:
80101654:	b580      	push	{r7, lr}
80101656:	b084      	sub	sp, #16
80101658:	af00      	add	r7, sp, #0
8010165a:	6078      	str	r0, [r7, #4]
8010165c:	2300      	movs	r3, #0
8010165e:	60fb      	str	r3, [r7, #12]
80101660:	2300      	movs	r3, #0
80101662:	60bb      	str	r3, [r7, #8]
80101664:	bf00      	nop
80101666:	687b      	ldr	r3, [r7, #4]
80101668:	6b1a      	ldr	r2, [r3, #48]	; 0x30
8010166a:	2302      	movs	r3, #2
8010166c:	f2c0 1370 	movt	r3, #368	; 0x170
80101670:	4013      	ands	r3, r2
80101672:	2b00      	cmp	r3, #0
80101674:	d0f7      	beq.n	80101666 <USDHC_WaitDataDone+0x12>
80101676:	687b      	ldr	r3, [r7, #4]
80101678:	6b1b      	ldr	r3, [r3, #48]	; 0x30
8010167a:	60bb      	str	r3, [r7, #8]
8010167c:	68bb      	ldr	r3, [r7, #8]
8010167e:	f003 73b8 	and.w	r3, r3, #24117248	; 0x1700000
80101682:	2b00      	cmp	r3, #0
80101684:	d00f      	beq.n	801016a6 <USDHC_WaitDataDone+0x52>
80101686:	687b      	ldr	r3, [r7, #4]
80101688:	68db      	ldr	r3, [r3, #12]
8010168a:	68ba      	ldr	r2, [r7, #8]
8010168c:	4619      	mov	r1, r3
8010168e:	f243 1014 	movw	r0, #12564	; 0x3114
80101692:	f2c8 0010 	movt	r0, #32784	; 0x8010
80101696:	f7ff fca8 	bl	80100fea <printf>
8010169a:	6878      	ldr	r0, [r7, #4]
8010169c:	f7ff fdb6 	bl	8010120c <USDHC_Dump_All>
801016a0:	f04f 33ff 	mov.w	r3, #4294967295	; 0xffffffff
801016a4:	60fb      	str	r3, [r7, #12]
801016a6:	2102      	movs	r1, #2
801016a8:	f2c0 1170 	movt	r1, #368	; 0x170
801016ac:	6878      	ldr	r0, [r7, #4]
801016ae:	f7ff ff8f 	bl	801015d0 <USDHC_ClearInterruptStatusFlags>
801016b2:	68fb      	ldr	r3, [r7, #12]
801016b4:	4618      	mov	r0, r3
801016b6:	3710      	adds	r7, #16
801016b8:	46bd      	mov	sp, r7
801016ba:	bd80      	pop	{r7, pc}

801016bc <USDHC_SendCommand>:
801016bc:	b580      	push	{r7, lr}
801016be:	b084      	sub	sp, #16
801016c0:	af00      	add	r7, sp, #0
801016c2:	60f8      	str	r0, [r7, #12]
801016c4:	60b9      	str	r1, [r7, #8]
801016c6:	607a      	str	r2, [r7, #4]
801016c8:	bf00      	nop
801016ca:	68fb      	ldr	r3, [r7, #12]
801016cc:	6a5b      	ldr	r3, [r3, #36]	; 0x24
801016ce:	f003 0301 	and.w	r3, r3, #1
801016d2:	2b00      	cmp	r3, #0
801016d4:	d1f9      	bne.n	801016ca <USDHC_SendCommand+0xe>
801016d6:	68fb      	ldr	r3, [r7, #12]
801016d8:	687a      	ldr	r2, [r7, #4]
801016da:	609a      	str	r2, [r3, #8]
801016dc:	68bb      	ldr	r3, [r7, #8]
801016de:	041a      	lsls	r2, r3, #16
801016e0:	68fb      	ldr	r3, [r7, #12]
801016e2:	60da      	str	r2, [r3, #12]
801016e4:	68f8      	ldr	r0, [r7, #12]
801016e6:	f7ff ff81 	bl	801015ec <USDHC_WaitCommandDone>
801016ea:	4603      	mov	r3, r0
801016ec:	4618      	mov	r0, r3
801016ee:	3710      	adds	r7, #16
801016f0:	46bd      	mov	sp, r7
801016f2:	bd80      	pop	{r7, pc}

801016f4 <USDHC_SendCommand_with_data>:
801016f4:	b580      	push	{r7, lr}
801016f6:	b086      	sub	sp, #24
801016f8:	af00      	add	r7, sp, #0
801016fa:	60f8      	str	r0, [r7, #12]
801016fc:	60b9      	str	r1, [r7, #8]
801016fe:	607a      	str	r2, [r7, #4]
80101700:	603b      	str	r3, [r7, #0]
80101702:	bf00      	nop
80101704:	68fb      	ldr	r3, [r7, #12]
80101706:	6a5b      	ldr	r3, [r3, #36]	; 0x24
80101708:	f003 0301 	and.w	r3, r3, #1
8010170c:	2b00      	cmp	r3, #0
8010170e:	d1f9      	bne.n	80101704 <USDHC_SendCommand_with_data+0x10>
80101710:	bf00      	nop
80101712:	68fb      	ldr	r3, [r7, #12]
80101714:	6a5b      	ldr	r3, [r3, #36]	; 0x24
80101716:	f003 0302 	and.w	r3, r3, #2
8010171a:	2b00      	cmp	r3, #0
8010171c:	d1f9      	bne.n	80101712 <USDHC_SendCommand_with_data+0x1e>
8010171e:	6a39      	ldr	r1, [r7, #32]
80101720:	f244 4000 	movw	r0, #17408	; 0x4400
80101724:	f2c8 0010 	movt	r0, #32784	; 0x8010
80101728:	f7ff feda 	bl	801014e0 <USDHC_CreateDescTable>
8010172c:	68fb      	ldr	r3, [r7, #12]
8010172e:	2200      	movs	r2, #0
80101730:	601a      	str	r2, [r3, #0]
80101732:	f644 03a0 	movw	r3, #18592	; 0x48a0
80101736:	f2c8 0310 	movt	r3, #32784	; 0x8010
8010173a:	68fa      	ldr	r2, [r7, #12]
8010173c:	6593      	str	r3, [r2, #88]	; 0x58
8010173e:	6a3b      	ldr	r3, [r7, #32]
80101740:	f3c3 030c 	ubfx	r3, r3, #0, #13
80101744:	f443 3280 	orr.w	r2, r3, #65536	; 0x10000
80101748:	68fb      	ldr	r3, [r7, #12]
8010174a:	605a      	str	r2, [r3, #4]
8010174c:	68fb      	ldr	r3, [r7, #12]
8010174e:	f8d3 30c0 	ldr.w	r3, [r3, #192]	; 0xc0
80101752:	f023 0201 	bic.w	r2, r3, #1
80101756:	68fb      	ldr	r3, [r7, #12]
80101758:	f8c3 20c0 	str.w	r2, [r3, #192]	; 0xc0
8010175c:	68fb      	ldr	r3, [r7, #12]
8010175e:	6a9b      	ldr	r3, [r3, #40]	; 0x28
80101760:	f023 5360 	bic.w	r3, r3, #939524096	; 0x38000000
80101764:	f423 7340 	bic.w	r3, r3, #768	; 0x300
80101768:	68fa      	ldr	r2, [r7, #12]
8010176a:	6293      	str	r3, [r2, #40]	; 0x28
8010176c:	68fb      	ldr	r3, [r7, #12]
8010176e:	6a9b      	ldr	r3, [r3, #40]	; 0x28
80101770:	f043 6300 	orr.w	r3, r3, #134217728	; 0x8000000
80101774:	f443 7300 	orr.w	r3, r3, #512	; 0x200
80101778:	68fa      	ldr	r2, [r7, #12]
8010177a:	6293      	str	r3, [r2, #40]	; 0x28
8010177c:	68fb      	ldr	r3, [r7, #12]
8010177e:	6c9b      	ldr	r3, [r3, #72]	; 0x48
80101780:	f043 0211 	orr.w	r2, r3, #17
80101784:	68fb      	ldr	r3, [r7, #12]
80101786:	649a      	str	r2, [r3, #72]	; 0x48
80101788:	68fb      	ldr	r3, [r7, #12]
8010178a:	687a      	ldr	r2, [r7, #4]
8010178c:	609a      	str	r2, [r3, #8]
8010178e:	68bb      	ldr	r3, [r7, #8]
80101790:	041a      	lsls	r2, r3, #16
80101792:	68fb      	ldr	r3, [r7, #12]
80101794:	60da      	str	r2, [r3, #12]
80101796:	68f8      	ldr	r0, [r7, #12]
80101798:	f7ff ff28 	bl	801015ec <USDHC_WaitCommandDone>
8010179c:	6178      	str	r0, [r7, #20]
8010179e:	697b      	ldr	r3, [r7, #20]
801017a0:	2b00      	cmp	r3, #0
801017a2:	da01      	bge.n	801017a8 <USDHC_SendCommand_with_data+0xb4>
801017a4:	697b      	ldr	r3, [r7, #20]
801017a6:	e014      	b.n	801017d2 <USDHC_SendCommand_with_data+0xde>
801017a8:	68f8      	ldr	r0, [r7, #12]
801017aa:	f7ff ff53 	bl	80101654 <USDHC_WaitDataDone>
801017ae:	6178      	str	r0, [r7, #20]
801017b0:	697b      	ldr	r3, [r7, #20]
801017b2:	2b00      	cmp	r3, #0
801017b4:	da01      	bge.n	801017ba <USDHC_SendCommand_with_data+0xc6>
801017b6:	697b      	ldr	r3, [r7, #20]
801017b8:	e00b      	b.n	801017d2 <USDHC_SendCommand_with_data+0xde>
801017ba:	683b      	ldr	r3, [r7, #0]
801017bc:	2b00      	cmp	r3, #0
801017be:	d007      	beq.n	801017d0 <USDHC_SendCommand_with_data+0xdc>
801017c0:	6a3a      	ldr	r2, [r7, #32]
801017c2:	f244 4100 	movw	r1, #17408	; 0x4400
801017c6:	f2c8 0110 	movt	r1, #32784	; 0x8010
801017ca:	6838      	ldr	r0, [r7, #0]
801017cc:	f7ff fc9e 	bl	8010110c <memcpy>
801017d0:	2300      	movs	r3, #0
801017d2:	4618      	mov	r0, r3
801017d4:	3718      	adds	r7, #24
801017d6:	46bd      	mov	sp, r7
801017d8:	bd80      	pop	{r7, pc}

801017da <USDHC_Init>:
801017da:	b580      	push	{r7, lr}
801017dc:	b086      	sub	sp, #24
801017de:	af00      	add	r7, sp, #0
801017e0:	6078      	str	r0, [r7, #4]
801017e2:	2164      	movs	r1, #100	; 0x64
801017e4:	6878      	ldr	r0, [r7, #4]
801017e6:	f7ff fe4b 	bl	80101480 <USDHC_Reset_All>
801017ea:	687b      	ldr	r3, [r7, #4]
801017ec:	6a9b      	ldr	r3, [r3, #40]	; 0x28
801017ee:	617b      	str	r3, [r7, #20]
801017f0:	687b      	ldr	r3, [r7, #4]
801017f2:	6c5b      	ldr	r3, [r3, #68]	; 0x44
801017f4:	613b      	str	r3, [r7, #16]
801017f6:	687b      	ldr	r3, [r7, #4]
801017f8:	6adb      	ldr	r3, [r3, #44]	; 0x2c
801017fa:	60fb      	str	r3, [r7, #12]
801017fc:	697b      	ldr	r3, [r7, #20]
801017fe:	f423 734c 	bic.w	r3, r3, #816	; 0x330
80101802:	617b      	str	r3, [r7, #20]
80101804:	697b      	ldr	r3, [r7, #20]
80101806:	f043 0320 	orr.w	r3, r3, #32
8010180a:	617b      	str	r3, [r7, #20]
8010180c:	693b      	ldr	r3, [r7, #16]
8010180e:	f003 23e0 	and.w	r3, r3, #3758153728	; 0xe000e000
80101812:	613b      	str	r3, [r7, #16]
80101814:	693b      	ldr	r3, [r7, #16]
80101816:	f043 6308 	orr.w	r3, r3, #142606336	; 0x8800000
8010181a:	f443 6308 	orr.w	r3, r3, #2176	; 0x880
8010181e:	613b      	str	r3, [r7, #16]
80101820:	68fb      	ldr	r3, [r7, #12]
80101822:	f423 2370 	bic.w	r3, r3, #983040	; 0xf0000
80101826:	60fb      	str	r3, [r7, #12]
80101828:	68fb      	ldr	r3, [r7, #12]
8010182a:	f443 2370 	orr.w	r3, r3, #983040	; 0xf0000
8010182e:	60fb      	str	r3, [r7, #12]
80101830:	687b      	ldr	r3, [r7, #4]
80101832:	68fa      	ldr	r2, [r7, #12]
80101834:	62da      	str	r2, [r3, #44]	; 0x2c
80101836:	687b      	ldr	r3, [r7, #4]
80101838:	693a      	ldr	r2, [r7, #16]
8010183a:	645a      	str	r2, [r3, #68]	; 0x44
8010183c:	687b      	ldr	r3, [r7, #4]
8010183e:	697a      	ldr	r2, [r7, #20]
80101840:	629a      	str	r2, [r3, #40]	; 0x28
80101842:	687b      	ldr	r3, [r7, #4]
80101844:	2200      	movs	r2, #0
80101846:	635a      	str	r2, [r3, #52]	; 0x34
80101848:	687b      	ldr	r3, [r7, #4]
8010184a:	2200      	movs	r2, #0
8010184c:	639a      	str	r2, [r3, #56]	; 0x38
8010184e:	687a      	ldr	r2, [r7, #4]
80101850:	f245 03fb 	movw	r3, #20731	; 0x50fb
80101854:	f2c1 537f 	movt	r3, #5503	; 0x157f
80101858:	6353      	str	r3, [r2, #52]	; 0x34
8010185a:	687a      	ldr	r2, [r7, #4]
8010185c:	f245 03fb 	movw	r3, #20731	; 0x50fb
80101860:	f2c1 537f 	movt	r3, #5503	; 0x157f
80101864:	6393      	str	r3, [r2, #56]	; 0x38
80101866:	bf00      	nop
80101868:	3718      	adds	r7, #24
8010186a:	46bd      	mov	sp, r7
8010186c:	bd80      	pop	{r7, pc}

8010186e <CardInsertDetect>:
8010186e:	b580      	push	{r7, lr}
80101870:	b082      	sub	sp, #8
80101872:	af00      	add	r7, sp, #0
80101874:	6078      	str	r0, [r7, #4]
80101876:	687b      	ldr	r3, [r7, #4]
80101878:	6a5b      	ldr	r3, [r3, #36]	; 0x24
8010187a:	f403 2380 	and.w	r3, r3, #262144	; 0x40000
8010187e:	2b00      	cmp	r3, #0
80101880:	d105      	bne.n	8010188e <CardInsertDetect+0x20>
80101882:	f243 1044 	movw	r0, #12612	; 0x3144
80101886:	f2c8 0010 	movt	r0, #32784	; 0x8010
8010188a:	f7ff fbae 	bl	80100fea <printf>
8010188e:	bf00      	nop
80101890:	687b      	ldr	r3, [r7, #4]
80101892:	6a5b      	ldr	r3, [r3, #36]	; 0x24
80101894:	0c9b      	lsrs	r3, r3, #18
80101896:	f003 0301 	and.w	r3, r3, #1
8010189a:	2b00      	cmp	r3, #0
8010189c:	d0f8      	beq.n	80101890 <CardInsertDetect+0x22>
8010189e:	f243 105c 	movw	r0, #12636	; 0x315c
801018a2:	f2c8 0010 	movt	r0, #32784	; 0x8010
801018a6:	f7ff fba0 	bl	80100fea <printf>
801018aa:	bf00      	nop
801018ac:	3708      	adds	r7, #8
801018ae:	46bd      	mov	sp, r7
801018b0:	bd80      	pop	{r7, pc}

801018b2 <USDHC_SetDataBusWidth>:
801018b2:	b480      	push	{r7}
801018b4:	b083      	sub	sp, #12
801018b6:	af00      	add	r7, sp, #0
801018b8:	6078      	str	r0, [r7, #4]
801018ba:	6039      	str	r1, [r7, #0]
801018bc:	687b      	ldr	r3, [r7, #4]
801018be:	6a9b      	ldr	r3, [r3, #40]	; 0x28
801018c0:	f023 0206 	bic.w	r2, r3, #6
801018c4:	683b      	ldr	r3, [r7, #0]
801018c6:	005b      	lsls	r3, r3, #1
801018c8:	f003 0306 	and.w	r3, r3, #6
801018cc:	431a      	orrs	r2, r3
801018ce:	687b      	ldr	r3, [r7, #4]
801018d0:	629a      	str	r2, [r3, #40]	; 0x28
801018d2:	bf00      	nop
801018d4:	370c      	adds	r7, #12
801018d6:	46bd      	mov	sp, r7
801018d8:	f85d 7b04 	ldr.w	r7, [sp], #4
801018dc:	4770      	bx	lr

801018de <USDHC_SetSdClock>:
801018de:	b580      	push	{r7, lr}
801018e0:	b08c      	sub	sp, #48	; 0x30
801018e2:	af00      	add	r7, sp, #0
801018e4:	60f8      	str	r0, [r7, #12]
801018e6:	60b9      	str	r1, [r7, #8]
801018e8:	607a      	str	r2, [r7, #4]
801018ea:	2300      	movs	r3, #0
801018ec:	62fb      	str	r3, [r7, #44]	; 0x2c
801018ee:	2300      	movs	r3, #0
801018f0:	62bb      	str	r3, [r7, #40]	; 0x28
801018f2:	2300      	movs	r3, #0
801018f4:	627b      	str	r3, [r7, #36]	; 0x24
801018f6:	2300      	movs	r3, #0
801018f8:	617b      	str	r3, [r7, #20]
801018fa:	2300      	movs	r3, #0
801018fc:	623b      	str	r3, [r7, #32]
801018fe:	f44f 7380 	mov.w	r3, #256	; 0x100
80101902:	61fb      	str	r3, [r7, #28]
80101904:	2300      	movs	r3, #0
80101906:	61bb      	str	r3, [r7, #24]
80101908:	68fb      	ldr	r3, [r7, #12]
8010190a:	6c9b      	ldr	r3, [r3, #72]	; 0x48
8010190c:	f003 0308 	and.w	r3, r3, #8
80101910:	2b00      	cmp	r3, #0
80101912:	d004      	beq.n	8010191e <USDHC_SetSdClock+0x40>
80101914:	2301      	movs	r3, #1
80101916:	61bb      	str	r3, [r7, #24]
80101918:	69fb      	ldr	r3, [r7, #28]
8010191a:	005b      	lsls	r3, r3, #1
8010191c:	61fb      	str	r3, [r7, #28]
8010191e:	6879      	ldr	r1, [r7, #4]
80101920:	68b8      	ldr	r0, [r7, #8]
80101922:	f000 ffe9 	bl	801028f8 <__aeabi_uidiv>
80101926:	4603      	mov	r3, r0
80101928:	62fb      	str	r3, [r7, #44]	; 0x2c
8010192a:	6afb      	ldr	r3, [r7, #44]	; 0x2c
8010192c:	2b00      	cmp	r3, #0
8010192e:	d055      	beq.n	801019dc <USDHC_SetSdClock+0xfe>
80101930:	6af9      	ldr	r1, [r7, #44]	; 0x2c
80101932:	68b8      	ldr	r0, [r7, #8]
80101934:	f000 ffe0 	bl	801028f8 <__aeabi_uidiv>
80101938:	4603      	mov	r3, r0
8010193a:	461a      	mov	r2, r3
8010193c:	687b      	ldr	r3, [r7, #4]
8010193e:	429a      	cmp	r2, r3
80101940:	d902      	bls.n	80101948 <USDHC_SetSdClock+0x6a>
80101942:	6afb      	ldr	r3, [r7, #44]	; 0x2c
80101944:	3301      	adds	r3, #1
80101946:	62fb      	str	r3, [r7, #44]	; 0x2c
80101948:	6afb      	ldr	r3, [r7, #44]	; 0x2c
8010194a:	2b10      	cmp	r3, #16
8010194c:	d92e      	bls.n	801019ac <USDHC_SetSdClock+0xce>
8010194e:	6afb      	ldr	r3, [r7, #44]	; 0x2c
80101950:	091b      	lsrs	r3, r3, #4
80101952:	627b      	str	r3, [r7, #36]	; 0x24
80101954:	e002      	b.n	8010195c <USDHC_SetSdClock+0x7e>
80101956:	6a7b      	ldr	r3, [r7, #36]	; 0x24
80101958:	3301      	adds	r3, #1
8010195a:	627b      	str	r3, [r7, #36]	; 0x24
8010195c:	69fb      	ldr	r3, [r7, #28]
8010195e:	6a79      	ldr	r1, [r7, #36]	; 0x24
80101960:	4618      	mov	r0, r3
80101962:	f001 f8f7 	bl	80102b54 <__aeabi_uidivmod>
80101966:	460b      	mov	r3, r1
80101968:	2b00      	cmp	r3, #0
8010196a:	d1f4      	bne.n	80101956 <USDHC_SetSdClock+0x78>
8010196c:	6a7b      	ldr	r3, [r7, #36]	; 0x24
8010196e:	2b01      	cmp	r3, #1
80101970:	d0f1      	beq.n	80101956 <USDHC_SetSdClock+0x78>
80101972:	6a79      	ldr	r1, [r7, #36]	; 0x24
80101974:	6af8      	ldr	r0, [r7, #44]	; 0x2c
80101976:	f000 ffbf 	bl	801028f8 <__aeabi_uidiv>
8010197a:	4603      	mov	r3, r0
8010197c:	62bb      	str	r3, [r7, #40]	; 0x28
8010197e:	e002      	b.n	80101986 <USDHC_SetSdClock+0xa8>
80101980:	6abb      	ldr	r3, [r7, #40]	; 0x28
80101982:	3301      	adds	r3, #1
80101984:	62bb      	str	r3, [r7, #40]	; 0x28
80101986:	6abb      	ldr	r3, [r7, #40]	; 0x28
80101988:	6a7a      	ldr	r2, [r7, #36]	; 0x24
8010198a:	fb02 f203 	mul.w	r2, r2, r3
8010198e:	6afb      	ldr	r3, [r7, #44]	; 0x2c
80101990:	429a      	cmp	r2, r3
80101992:	d3f5      	bcc.n	80101980 <USDHC_SetSdClock+0xa2>
80101994:	6ab9      	ldr	r1, [r7, #40]	; 0x28
80101996:	68b8      	ldr	r0, [r7, #8]
80101998:	f000 ffae 	bl	801028f8 <__aeabi_uidiv>
8010199c:	4603      	mov	r3, r0
8010199e:	6a79      	ldr	r1, [r7, #36]	; 0x24
801019a0:	4618      	mov	r0, r3
801019a2:	f000 ffa9 	bl	801028f8 <__aeabi_uidiv>
801019a6:	4603      	mov	r3, r0
801019a8:	623b      	str	r3, [r7, #32]
801019aa:	e01d      	b.n	801019e8 <USDHC_SetSdClock+0x10a>
801019ac:	2310      	movs	r3, #16
801019ae:	6af9      	ldr	r1, [r7, #44]	; 0x2c
801019b0:	4618      	mov	r0, r3
801019b2:	f001 f8cf 	bl	80102b54 <__aeabi_uidivmod>
801019b6:	460b      	mov	r3, r1
801019b8:	2b00      	cmp	r3, #0
801019ba:	d104      	bne.n	801019c6 <USDHC_SetSdClock+0xe8>
801019bc:	2300      	movs	r3, #0
801019be:	62bb      	str	r3, [r7, #40]	; 0x28
801019c0:	6afb      	ldr	r3, [r7, #44]	; 0x2c
801019c2:	627b      	str	r3, [r7, #36]	; 0x24
801019c4:	e003      	b.n	801019ce <USDHC_SetSdClock+0xf0>
801019c6:	6afb      	ldr	r3, [r7, #44]	; 0x2c
801019c8:	62bb      	str	r3, [r7, #40]	; 0x28
801019ca:	2300      	movs	r3, #0
801019cc:	627b      	str	r3, [r7, #36]	; 0x24
801019ce:	6af9      	ldr	r1, [r7, #44]	; 0x2c
801019d0:	68b8      	ldr	r0, [r7, #8]
801019d2:	f000 ff91 	bl	801028f8 <__aeabi_uidiv>
801019d6:	4603      	mov	r3, r0
801019d8:	623b      	str	r3, [r7, #32]
801019da:	e005      	b.n	801019e8 <USDHC_SetSdClock+0x10a>
801019dc:	2300      	movs	r3, #0
801019de:	62bb      	str	r3, [r7, #40]	; 0x28
801019e0:	2300      	movs	r3, #0
801019e2:	627b      	str	r3, [r7, #36]	; 0x24
801019e4:	68bb      	ldr	r3, [r7, #8]
801019e6:	623b      	str	r3, [r7, #32]
801019e8:	6abb      	ldr	r3, [r7, #40]	; 0x28
801019ea:	2b00      	cmp	r3, #0
801019ec:	d002      	beq.n	801019f4 <USDHC_SetSdClock+0x116>
801019ee:	6abb      	ldr	r3, [r7, #40]	; 0x28
801019f0:	3b01      	subs	r3, #1
801019f2:	62bb      	str	r3, [r7, #40]	; 0x28
801019f4:	6a7b      	ldr	r3, [r7, #36]	; 0x24
801019f6:	2b00      	cmp	r3, #0
801019f8:	d009      	beq.n	80101a0e <USDHC_SetSdClock+0x130>
801019fa:	69bb      	ldr	r3, [r7, #24]
801019fc:	2b00      	cmp	r3, #0
801019fe:	d001      	beq.n	80101a04 <USDHC_SetSdClock+0x126>
80101a00:	2302      	movs	r3, #2
80101a02:	e000      	b.n	80101a06 <USDHC_SetSdClock+0x128>
80101a04:	2301      	movs	r3, #1
80101a06:	6a7a      	ldr	r2, [r7, #36]	; 0x24
80101a08:	fa22 f303 	lsr.w	r3, r2, r3
80101a0c:	627b      	str	r3, [r7, #36]	; 0x24
80101a0e:	68fb      	ldr	r3, [r7, #12]
80101a10:	6adb      	ldr	r3, [r3, #44]	; 0x2c
80101a12:	617b      	str	r3, [r7, #20]
80101a14:	697b      	ldr	r3, [r7, #20]
80101a16:	f423 437f 	bic.w	r3, r3, #65280	; 0xff00
80101a1a:	f023 03f0 	bic.w	r3, r3, #240	; 0xf0
80101a1e:	617b      	str	r3, [r7, #20]
80101a20:	6abb      	ldr	r3, [r7, #40]	; 0x28
80101a22:	011b      	lsls	r3, r3, #4
80101a24:	b2da      	uxtb	r2, r3
80101a26:	6a7b      	ldr	r3, [r7, #36]	; 0x24
80101a28:	021b      	lsls	r3, r3, #8
80101a2a:	b29b      	uxth	r3, r3
80101a2c:	4313      	orrs	r3, r2
80101a2e:	697a      	ldr	r2, [r7, #20]
80101a30:	4313      	orrs	r3, r2
80101a32:	617b      	str	r3, [r7, #20]
80101a34:	68fb      	ldr	r3, [r7, #12]
80101a36:	697a      	ldr	r2, [r7, #20]
80101a38:	62da      	str	r2, [r3, #44]	; 0x2c
80101a3a:	bf00      	nop
80101a3c:	68fb      	ldr	r3, [r7, #12]
80101a3e:	6a5b      	ldr	r3, [r3, #36]	; 0x24
80101a40:	f003 0308 	and.w	r3, r3, #8
80101a44:	2b00      	cmp	r3, #0
80101a46:	d0f9      	beq.n	80101a3c <USDHC_SetSdClock+0x15e>
80101a48:	6a3b      	ldr	r3, [r7, #32]
80101a4a:	4618      	mov	r0, r3
80101a4c:	3730      	adds	r7, #48	; 0x30
80101a4e:	46bd      	mov	sp, r7
80101a50:	bd80      	pop	{r7, pc}

80101a52 <USDHC_SetCardActive>:
80101a52:	b480      	push	{r7}
80101a54:	b083      	sub	sp, #12
80101a56:	af00      	add	r7, sp, #0
80101a58:	6078      	str	r0, [r7, #4]
80101a5a:	6039      	str	r1, [r7, #0]
80101a5c:	687b      	ldr	r3, [r7, #4]
80101a5e:	6adb      	ldr	r3, [r3, #44]	; 0x2c
80101a60:	f043 6200 	orr.w	r2, r3, #134217728	; 0x8000000
80101a64:	687b      	ldr	r3, [r7, #4]
80101a66:	62da      	str	r2, [r3, #44]	; 0x2c
80101a68:	e005      	b.n	80101a76 <USDHC_SetCardActive+0x24>
80101a6a:	683b      	ldr	r3, [r7, #0]
80101a6c:	2b00      	cmp	r3, #0
80101a6e:	d00a      	beq.n	80101a86 <USDHC_SetCardActive+0x34>
80101a70:	683b      	ldr	r3, [r7, #0]
80101a72:	3b01      	subs	r3, #1
80101a74:	603b      	str	r3, [r7, #0]
80101a76:	687b      	ldr	r3, [r7, #4]
80101a78:	6adb      	ldr	r3, [r3, #44]	; 0x2c
80101a7a:	f003 6300 	and.w	r3, r3, #134217728	; 0x8000000
80101a7e:	f1b3 6f00 	cmp.w	r3, #134217728	; 0x8000000
80101a82:	d0f2      	beq.n	80101a6a <USDHC_SetCardActive+0x18>
80101a84:	e000      	b.n	80101a88 <USDHC_SetCardActive+0x36>
80101a86:	bf00      	nop
80101a88:	683b      	ldr	r3, [r7, #0]
80101a8a:	2b00      	cmp	r3, #0
80101a8c:	bf14      	ite	ne
80101a8e:	2301      	movne	r3, #1
80101a90:	2300      	moveq	r3, #0
80101a92:	b2db      	uxtb	r3, r3
80101a94:	4618      	mov	r0, r3
80101a96:	370c      	adds	r7, #12
80101a98:	46bd      	mov	sp, r7
80101a9a:	f85d 7b04 	ldr.w	r7, [sp], #4
80101a9e:	4770      	bx	lr

80101aa0 <USDHC_GetResponse>:
80101aa0:	b480      	push	{r7}
80101aa2:	b083      	sub	sp, #12
80101aa4:	af00      	add	r7, sp, #0
80101aa6:	6078      	str	r0, [r7, #4]
80101aa8:	6039      	str	r1, [r7, #0]
80101aaa:	683b      	ldr	r3, [r7, #0]
80101aac:	330c      	adds	r3, #12
80101aae:	687a      	ldr	r2, [r7, #4]
80101ab0:	69d2      	ldr	r2, [r2, #28]
80101ab2:	0211      	lsls	r1, r2, #8
80101ab4:	687a      	ldr	r2, [r7, #4]
80101ab6:	6992      	ldr	r2, [r2, #24]
80101ab8:	0e12      	lsrs	r2, r2, #24
80101aba:	430a      	orrs	r2, r1
80101abc:	601a      	str	r2, [r3, #0]
80101abe:	683b      	ldr	r3, [r7, #0]
80101ac0:	3308      	adds	r3, #8
80101ac2:	687a      	ldr	r2, [r7, #4]
80101ac4:	6992      	ldr	r2, [r2, #24]
80101ac6:	0211      	lsls	r1, r2, #8
80101ac8:	687a      	ldr	r2, [r7, #4]
80101aca:	6952      	ldr	r2, [r2, #20]
80101acc:	0e12      	lsrs	r2, r2, #24
80101ace:	430a      	orrs	r2, r1
80101ad0:	601a      	str	r2, [r3, #0]
80101ad2:	683b      	ldr	r3, [r7, #0]
80101ad4:	3304      	adds	r3, #4
80101ad6:	687a      	ldr	r2, [r7, #4]
80101ad8:	6952      	ldr	r2, [r2, #20]
80101ada:	0211      	lsls	r1, r2, #8
80101adc:	687a      	ldr	r2, [r7, #4]
80101ade:	6912      	ldr	r2, [r2, #16]
80101ae0:	0e12      	lsrs	r2, r2, #24
80101ae2:	430a      	orrs	r2, r1
80101ae4:	601a      	str	r2, [r3, #0]
80101ae6:	687b      	ldr	r3, [r7, #4]
80101ae8:	691b      	ldr	r3, [r3, #16]
80101aea:	021a      	lsls	r2, r3, #8
80101aec:	683b      	ldr	r3, [r7, #0]
80101aee:	601a      	str	r2, [r3, #0]
80101af0:	bf00      	nop
80101af2:	370c      	adds	r7, #12
80101af4:	46bd      	mov	sp, r7
80101af6:	f85d 7b04 	ldr.w	r7, [sp], #4
80101afa:	4770      	bx	lr

80101afc <SD_DecodeCid>:
80101afc:	b480      	push	{r7}
80101afe:	b085      	sub	sp, #20
80101b00:	af00      	add	r7, sp, #0
80101b02:	6078      	str	r0, [r7, #4]
80101b04:	6039      	str	r1, [r7, #0]
80101b06:	687b      	ldr	r3, [r7, #4]
80101b08:	3340      	adds	r3, #64	; 0x40
80101b0a:	60fb      	str	r3, [r7, #12]
80101b0c:	683b      	ldr	r3, [r7, #0]
80101b0e:	330c      	adds	r3, #12
80101b10:	681b      	ldr	r3, [r3, #0]
80101b12:	0e1b      	lsrs	r3, r3, #24
80101b14:	b2da      	uxtb	r2, r3
80101b16:	68fb      	ldr	r3, [r7, #12]
80101b18:	701a      	strb	r2, [r3, #0]
80101b1a:	683b      	ldr	r3, [r7, #0]
80101b1c:	330c      	adds	r3, #12
80101b1e:	681b      	ldr	r3, [r3, #0]
80101b20:	0a1b      	lsrs	r3, r3, #8
80101b22:	b29a      	uxth	r2, r3
80101b24:	68fb      	ldr	r3, [r7, #12]
80101b26:	805a      	strh	r2, [r3, #2]
80101b28:	683b      	ldr	r3, [r7, #0]
80101b2a:	330c      	adds	r3, #12
80101b2c:	681b      	ldr	r3, [r3, #0]
80101b2e:	b2da      	uxtb	r2, r3
80101b30:	68fb      	ldr	r3, [r7, #12]
80101b32:	711a      	strb	r2, [r3, #4]
80101b34:	683b      	ldr	r3, [r7, #0]
80101b36:	3308      	adds	r3, #8
80101b38:	681b      	ldr	r3, [r3, #0]
80101b3a:	0e1b      	lsrs	r3, r3, #24
80101b3c:	b2da      	uxtb	r2, r3
80101b3e:	68fb      	ldr	r3, [r7, #12]
80101b40:	715a      	strb	r2, [r3, #5]
80101b42:	683b      	ldr	r3, [r7, #0]
80101b44:	3308      	adds	r3, #8
80101b46:	681b      	ldr	r3, [r3, #0]
80101b48:	0c1b      	lsrs	r3, r3, #16
80101b4a:	b2da      	uxtb	r2, r3
80101b4c:	68fb      	ldr	r3, [r7, #12]
80101b4e:	719a      	strb	r2, [r3, #6]
80101b50:	683b      	ldr	r3, [r7, #0]
80101b52:	3308      	adds	r3, #8
80101b54:	681b      	ldr	r3, [r3, #0]
80101b56:	0a1b      	lsrs	r3, r3, #8
80101b58:	b2da      	uxtb	r2, r3
80101b5a:	68fb      	ldr	r3, [r7, #12]
80101b5c:	71da      	strb	r2, [r3, #7]
80101b5e:	683b      	ldr	r3, [r7, #0]
80101b60:	3308      	adds	r3, #8
80101b62:	681b      	ldr	r3, [r3, #0]
80101b64:	b2da      	uxtb	r2, r3
80101b66:	68fb      	ldr	r3, [r7, #12]
80101b68:	721a      	strb	r2, [r3, #8]
80101b6a:	683b      	ldr	r3, [r7, #0]
80101b6c:	3304      	adds	r3, #4
80101b6e:	681b      	ldr	r3, [r3, #0]
80101b70:	0e1b      	lsrs	r3, r3, #24
80101b72:	b2da      	uxtb	r2, r3
80101b74:	68fb      	ldr	r3, [r7, #12]
80101b76:	725a      	strb	r2, [r3, #9]
80101b78:	683b      	ldr	r3, [r7, #0]
80101b7a:	3304      	adds	r3, #4
80101b7c:	681b      	ldr	r3, [r3, #0]
80101b7e:	021a      	lsls	r2, r3, #8
80101b80:	68fb      	ldr	r3, [r7, #12]
80101b82:	60da      	str	r2, [r3, #12]
80101b84:	68fb      	ldr	r3, [r7, #12]
80101b86:	68da      	ldr	r2, [r3, #12]
80101b88:	683b      	ldr	r3, [r7, #0]
80101b8a:	681b      	ldr	r3, [r3, #0]
80101b8c:	0e1b      	lsrs	r3, r3, #24
80101b8e:	431a      	orrs	r2, r3
80101b90:	68fb      	ldr	r3, [r7, #12]
80101b92:	60da      	str	r2, [r3, #12]
80101b94:	683b      	ldr	r3, [r7, #0]
80101b96:	681b      	ldr	r3, [r3, #0]
80101b98:	0a1b      	lsrs	r3, r3, #8
80101b9a:	b29b      	uxth	r3, r3
80101b9c:	f3c3 030b 	ubfx	r3, r3, #0, #12
80101ba0:	b29a      	uxth	r2, r3
80101ba2:	68fb      	ldr	r3, [r7, #12]
80101ba4:	821a      	strh	r2, [r3, #16]
80101ba6:	bf00      	nop
80101ba8:	3714      	adds	r7, #20
80101baa:	46bd      	mov	sp, r7
80101bac:	f85d 7b04 	ldr.w	r7, [sp], #4
80101bb0:	4770      	bx	lr

80101bb2 <SD_DecodeCsd>:
80101bb2:	b590      	push	{r4, r7, lr}
80101bb4:	b085      	sub	sp, #20
80101bb6:	af00      	add	r7, sp, #0
80101bb8:	6078      	str	r0, [r7, #4]
80101bba:	6039      	str	r1, [r7, #0]
80101bbc:	687b      	ldr	r3, [r7, #4]
80101bbe:	3354      	adds	r3, #84	; 0x54
80101bc0:	60fb      	str	r3, [r7, #12]
80101bc2:	683b      	ldr	r3, [r7, #0]
80101bc4:	330c      	adds	r3, #12
80101bc6:	681b      	ldr	r3, [r3, #0]
80101bc8:	0f9b      	lsrs	r3, r3, #30
80101bca:	b2da      	uxtb	r2, r3
80101bcc:	68fb      	ldr	r3, [r7, #12]
80101bce:	701a      	strb	r2, [r3, #0]
80101bd0:	683b      	ldr	r3, [r7, #0]
80101bd2:	330c      	adds	r3, #12
80101bd4:	681b      	ldr	r3, [r3, #0]
80101bd6:	0c1b      	lsrs	r3, r3, #16
80101bd8:	b2da      	uxtb	r2, r3
80101bda:	68fb      	ldr	r3, [r7, #12]
80101bdc:	705a      	strb	r2, [r3, #1]
80101bde:	683b      	ldr	r3, [r7, #0]
80101be0:	330c      	adds	r3, #12
80101be2:	681b      	ldr	r3, [r3, #0]
80101be4:	0a1b      	lsrs	r3, r3, #8
80101be6:	b2da      	uxtb	r2, r3
80101be8:	68fb      	ldr	r3, [r7, #12]
80101bea:	709a      	strb	r2, [r3, #2]
80101bec:	683b      	ldr	r3, [r7, #0]
80101bee:	330c      	adds	r3, #12
80101bf0:	681b      	ldr	r3, [r3, #0]
80101bf2:	b2da      	uxtb	r2, r3
80101bf4:	68fb      	ldr	r3, [r7, #12]
80101bf6:	70da      	strb	r2, [r3, #3]
80101bf8:	683b      	ldr	r3, [r7, #0]
80101bfa:	3308      	adds	r3, #8
80101bfc:	681b      	ldr	r3, [r3, #0]
80101bfe:	0d1b      	lsrs	r3, r3, #20
80101c00:	b29a      	uxth	r2, r3
80101c02:	68fb      	ldr	r3, [r7, #12]
80101c04:	809a      	strh	r2, [r3, #4]
80101c06:	683b      	ldr	r3, [r7, #0]
80101c08:	3308      	adds	r3, #8
80101c0a:	681b      	ldr	r3, [r3, #0]
80101c0c:	0c1b      	lsrs	r3, r3, #16
80101c0e:	b2db      	uxtb	r3, r3
80101c10:	f003 030f 	and.w	r3, r3, #15
80101c14:	b2da      	uxtb	r2, r3
80101c16:	68fb      	ldr	r3, [r7, #12]
80101c18:	719a      	strb	r2, [r3, #6]
80101c1a:	683b      	ldr	r3, [r7, #0]
80101c1c:	3308      	adds	r3, #8
80101c1e:	681b      	ldr	r3, [r3, #0]
80101c20:	f403 4300 	and.w	r3, r3, #32768	; 0x8000
80101c24:	2b00      	cmp	r3, #0
80101c26:	d006      	beq.n	80101c36 <SD_DecodeCsd+0x84>
80101c28:	68fb      	ldr	r3, [r7, #12]
80101c2a:	891b      	ldrh	r3, [r3, #8]
80101c2c:	f043 0301 	orr.w	r3, r3, #1
80101c30:	b29a      	uxth	r2, r3
80101c32:	68fb      	ldr	r3, [r7, #12]
80101c34:	811a      	strh	r2, [r3, #8]
80101c36:	683b      	ldr	r3, [r7, #0]
80101c38:	3308      	adds	r3, #8
80101c3a:	681b      	ldr	r3, [r3, #0]
80101c3c:	f403 4380 	and.w	r3, r3, #16384	; 0x4000
80101c40:	2b00      	cmp	r3, #0
80101c42:	d006      	beq.n	80101c52 <SD_DecodeCsd+0xa0>
80101c44:	68fb      	ldr	r3, [r7, #12]
80101c46:	891b      	ldrh	r3, [r3, #8]
80101c48:	f043 0301 	orr.w	r3, r3, #1
80101c4c:	b29a      	uxth	r2, r3
80101c4e:	68fb      	ldr	r3, [r7, #12]
80101c50:	811a      	strh	r2, [r3, #8]
80101c52:	683b      	ldr	r3, [r7, #0]
80101c54:	3308      	adds	r3, #8
80101c56:	681b      	ldr	r3, [r3, #0]
80101c58:	f403 5300 	and.w	r3, r3, #8192	; 0x2000
80101c5c:	2b00      	cmp	r3, #0
80101c5e:	d006      	beq.n	80101c6e <SD_DecodeCsd+0xbc>
80101c60:	68fb      	ldr	r3, [r7, #12]
80101c62:	891b      	ldrh	r3, [r3, #8]
80101c64:	f043 0304 	orr.w	r3, r3, #4
80101c68:	b29a      	uxth	r2, r3
80101c6a:	68fb      	ldr	r3, [r7, #12]
80101c6c:	811a      	strh	r2, [r3, #8]
80101c6e:	683b      	ldr	r3, [r7, #0]
80101c70:	3308      	adds	r3, #8
80101c72:	681b      	ldr	r3, [r3, #0]
80101c74:	f403 5380 	and.w	r3, r3, #4096	; 0x1000
80101c78:	2b00      	cmp	r3, #0
80101c7a:	d006      	beq.n	80101c8a <SD_DecodeCsd+0xd8>
80101c7c:	68fb      	ldr	r3, [r7, #12]
80101c7e:	891b      	ldrh	r3, [r3, #8]
80101c80:	f043 0308 	orr.w	r3, r3, #8
80101c84:	b29a      	uxth	r2, r3
80101c86:	68fb      	ldr	r3, [r7, #12]
80101c88:	811a      	strh	r2, [r3, #8]
80101c8a:	68fb      	ldr	r3, [r7, #12]
80101c8c:	781b      	ldrb	r3, [r3, #0]
80101c8e:	2b00      	cmp	r3, #0
80101c90:	d003      	beq.n	80101c9a <SD_DecodeCsd+0xe8>
80101c92:	2b01      	cmp	r3, #1
80101c94:	f000 8085 	beq.w	80101da2 <SD_DecodeCsd+0x1f0>
80101c98:	e0ac      	b.n	80101df4 <SD_DecodeCsd+0x242>
80101c9a:	683b      	ldr	r3, [r7, #0]
80101c9c:	3308      	adds	r3, #8
80101c9e:	681b      	ldr	r3, [r3, #0]
80101ca0:	009a      	lsls	r2, r3, #2
80101ca2:	f640 73fc 	movw	r3, #4092	; 0xffc
80101ca6:	4013      	ands	r3, r2
80101ca8:	68fa      	ldr	r2, [r7, #12]
80101caa:	60d3      	str	r3, [r2, #12]
80101cac:	68fb      	ldr	r3, [r7, #12]
80101cae:	68da      	ldr	r2, [r3, #12]
80101cb0:	683b      	ldr	r3, [r7, #0]
80101cb2:	3304      	adds	r3, #4
80101cb4:	681b      	ldr	r3, [r3, #0]
80101cb6:	0f9b      	lsrs	r3, r3, #30
80101cb8:	431a      	orrs	r2, r3
80101cba:	68fb      	ldr	r3, [r7, #12]
80101cbc:	60da      	str	r2, [r3, #12]
80101cbe:	683b      	ldr	r3, [r7, #0]
80101cc0:	3304      	adds	r3, #4
80101cc2:	681b      	ldr	r3, [r3, #0]
80101cc4:	0edb      	lsrs	r3, r3, #27
80101cc6:	b2db      	uxtb	r3, r3
80101cc8:	f003 0307 	and.w	r3, r3, #7
80101ccc:	b2da      	uxtb	r2, r3
80101cce:	68fb      	ldr	r3, [r7, #12]
80101cd0:	741a      	strb	r2, [r3, #16]
80101cd2:	683b      	ldr	r3, [r7, #0]
80101cd4:	3304      	adds	r3, #4
80101cd6:	681b      	ldr	r3, [r3, #0]
80101cd8:	0e1b      	lsrs	r3, r3, #24
80101cda:	b2db      	uxtb	r3, r3
80101cdc:	f003 0307 	and.w	r3, r3, #7
80101ce0:	b2da      	uxtb	r2, r3
80101ce2:	68fb      	ldr	r3, [r7, #12]
80101ce4:	745a      	strb	r2, [r3, #17]
80101ce6:	683b      	ldr	r3, [r7, #0]
80101ce8:	3304      	adds	r3, #4
80101cea:	681b      	ldr	r3, [r3, #0]
80101cec:	0d1b      	lsrs	r3, r3, #20
80101cee:	b2db      	uxtb	r3, r3
80101cf0:	f003 030e 	and.w	r3, r3, #14
80101cf4:	b2da      	uxtb	r2, r3
80101cf6:	68fb      	ldr	r3, [r7, #12]
80101cf8:	749a      	strb	r2, [r3, #18]
80101cfa:	683b      	ldr	r3, [r7, #0]
80101cfc:	3304      	adds	r3, #4
80101cfe:	681b      	ldr	r3, [r3, #0]
80101d00:	0c9b      	lsrs	r3, r3, #18
80101d02:	b2db      	uxtb	r3, r3
80101d04:	f003 0307 	and.w	r3, r3, #7
80101d08:	b2da      	uxtb	r2, r3
80101d0a:	68fb      	ldr	r3, [r7, #12]
80101d0c:	74da      	strb	r2, [r3, #19]
80101d0e:	683b      	ldr	r3, [r7, #0]
80101d10:	3304      	adds	r3, #4
80101d12:	681b      	ldr	r3, [r3, #0]
80101d14:	0bdb      	lsrs	r3, r3, #15
80101d16:	b2db      	uxtb	r3, r3
80101d18:	f003 0307 	and.w	r3, r3, #7
80101d1c:	b2da      	uxtb	r2, r3
80101d1e:	68fb      	ldr	r3, [r7, #12]
80101d20:	751a      	strb	r2, [r3, #20]
80101d22:	68fb      	ldr	r3, [r7, #12]
80101d24:	68db      	ldr	r3, [r3, #12]
80101d26:	1c5a      	adds	r2, r3, #1
80101d28:	68fb      	ldr	r3, [r7, #12]
80101d2a:	7d1b      	ldrb	r3, [r3, #20]
80101d2c:	3302      	adds	r3, #2
80101d2e:	409a      	lsls	r2, r3
80101d30:	687b      	ldr	r3, [r7, #4]
80101d32:	67da      	str	r2, [r3, #124]	; 0x7c
80101d34:	68fb      	ldr	r3, [r7, #12]
80101d36:	799b      	ldrb	r3, [r3, #6]
80101d38:	461a      	mov	r2, r3
80101d3a:	2301      	movs	r3, #1
80101d3c:	fa03 f202 	lsl.w	r2, r3, r2
80101d40:	687b      	ldr	r3, [r7, #4]
80101d42:	f8c3 2080 	str.w	r2, [r3, #128]	; 0x80
80101d46:	687b      	ldr	r3, [r7, #4]
80101d48:	f8d3 3080 	ldr.w	r3, [r3, #128]	; 0x80
80101d4c:	f5b3 7f00 	cmp.w	r3, #512	; 0x200
80101d50:	d01a      	beq.n	80101d88 <SD_DecodeCsd+0x1d6>
80101d52:	687b      	ldr	r3, [r7, #4]
80101d54:	6fdb      	ldr	r3, [r3, #124]	; 0x7c
80101d56:	687a      	ldr	r2, [r7, #4]
80101d58:	f8d2 2080 	ldr.w	r2, [r2, #128]	; 0x80
80101d5c:	fb02 f203 	mul.w	r2, r2, r3
80101d60:	687b      	ldr	r3, [r7, #4]
80101d62:	67da      	str	r2, [r3, #124]	; 0x7c
80101d64:	687b      	ldr	r3, [r7, #4]
80101d66:	f44f 7200 	mov.w	r2, #512	; 0x200
80101d6a:	f8c3 2080 	str.w	r2, [r3, #128]	; 0x80
80101d6e:	687b      	ldr	r3, [r7, #4]
80101d70:	6fda      	ldr	r2, [r3, #124]	; 0x7c
80101d72:	687b      	ldr	r3, [r7, #4]
80101d74:	f8d3 3080 	ldr.w	r3, [r3, #128]	; 0x80
80101d78:	4619      	mov	r1, r3
80101d7a:	4610      	mov	r0, r2
80101d7c:	f000 fdbc 	bl	801028f8 <__aeabi_uidiv>
80101d80:	4603      	mov	r3, r0
80101d82:	461a      	mov	r2, r3
80101d84:	687b      	ldr	r3, [r7, #4]
80101d86:	67da      	str	r2, [r3, #124]	; 0x7c
80101d88:	687b      	ldr	r3, [r7, #4]
80101d8a:	6fdb      	ldr	r3, [r3, #124]	; 0x7c
80101d8c:	687a      	ldr	r2, [r7, #4]
80101d8e:	f8d2 2080 	ldr.w	r2, [r2, #128]	; 0x80
80101d92:	fb02 f303 	mul.w	r3, r2, r3
80101d96:	f04f 0400 	mov.w	r4, #0
80101d9a:	687a      	ldr	r2, [r7, #4]
80101d9c:	e9c2 3422 	strd	r3, r4, [r2, #136]	; 0x88
80101da0:	e028      	b.n	80101df4 <SD_DecodeCsd+0x242>
80101da2:	687b      	ldr	r3, [r7, #4]
80101da4:	f44f 7200 	mov.w	r2, #512	; 0x200
80101da8:	f8c3 2080 	str.w	r2, [r3, #128]	; 0x80
80101dac:	683b      	ldr	r3, [r7, #0]
80101dae:	3308      	adds	r3, #8
80101db0:	681b      	ldr	r3, [r3, #0]
80101db2:	041b      	lsls	r3, r3, #16
80101db4:	f403 127c 	and.w	r2, r3, #4128768	; 0x3f0000
80101db8:	68fb      	ldr	r3, [r7, #12]
80101dba:	60da      	str	r2, [r3, #12]
80101dbc:	68fb      	ldr	r3, [r7, #12]
80101dbe:	68da      	ldr	r2, [r3, #12]
80101dc0:	683b      	ldr	r3, [r7, #0]
80101dc2:	3304      	adds	r3, #4
80101dc4:	681b      	ldr	r3, [r3, #0]
80101dc6:	0c1b      	lsrs	r3, r3, #16
80101dc8:	431a      	orrs	r2, r3
80101dca:	68fb      	ldr	r3, [r7, #12]
80101dcc:	60da      	str	r2, [r3, #12]
80101dce:	68fb      	ldr	r3, [r7, #12]
80101dd0:	68db      	ldr	r3, [r3, #12]
80101dd2:	3301      	adds	r3, #1
80101dd4:	029a      	lsls	r2, r3, #10
80101dd6:	687b      	ldr	r3, [r7, #4]
80101dd8:	67da      	str	r2, [r3, #124]	; 0x7c
80101dda:	687b      	ldr	r3, [r7, #4]
80101ddc:	f8d3 3080 	ldr.w	r3, [r3, #128]	; 0x80
80101de0:	687a      	ldr	r2, [r7, #4]
80101de2:	6fd2      	ldr	r2, [r2, #124]	; 0x7c
80101de4:	fb02 f303 	mul.w	r3, r2, r3
80101de8:	f04f 0400 	mov.w	r4, #0
80101dec:	687a      	ldr	r2, [r7, #4]
80101dee:	e9c2 3422 	strd	r3, r4, [r2, #136]	; 0x88
80101df2:	bf00      	nop
80101df4:	683b      	ldr	r3, [r7, #0]
80101df6:	3304      	adds	r3, #4
80101df8:	681b      	ldr	r3, [r3, #0]
80101dfa:	0b9b      	lsrs	r3, r3, #14
80101dfc:	b2db      	uxtb	r3, r3
80101dfe:	f003 0301 	and.w	r3, r3, #1
80101e02:	b2db      	uxtb	r3, r3
80101e04:	2b00      	cmp	r3, #0
80101e06:	d006      	beq.n	80101e16 <SD_DecodeCsd+0x264>
80101e08:	68fb      	ldr	r3, [r7, #12]
80101e0a:	891b      	ldrh	r3, [r3, #8]
80101e0c:	f043 0310 	orr.w	r3, r3, #16
80101e10:	b29a      	uxth	r2, r3
80101e12:	68fb      	ldr	r3, [r7, #12]
80101e14:	811a      	strh	r2, [r3, #8]
80101e16:	683b      	ldr	r3, [r7, #0]
80101e18:	3304      	adds	r3, #4
80101e1a:	681b      	ldr	r3, [r3, #0]
80101e1c:	09db      	lsrs	r3, r3, #7
80101e1e:	b2db      	uxtb	r3, r3
80101e20:	f003 037f 	and.w	r3, r3, #127	; 0x7f
80101e24:	b2da      	uxtb	r2, r3
80101e26:	68fb      	ldr	r3, [r7, #12]
80101e28:	755a      	strb	r2, [r3, #21]
80101e2a:	683b      	ldr	r3, [r7, #0]
80101e2c:	3304      	adds	r3, #4
80101e2e:	681b      	ldr	r3, [r3, #0]
80101e30:	b2db      	uxtb	r3, r3
80101e32:	f003 037f 	and.w	r3, r3, #127	; 0x7f
80101e36:	b2da      	uxtb	r2, r3
80101e38:	68fb      	ldr	r3, [r7, #12]
80101e3a:	759a      	strb	r2, [r3, #22]
80101e3c:	683b      	ldr	r3, [r7, #0]
80101e3e:	681b      	ldr	r3, [r3, #0]
80101e40:	0e9b      	lsrs	r3, r3, #26
80101e42:	b2db      	uxtb	r3, r3
80101e44:	f003 0307 	and.w	r3, r3, #7
80101e48:	b2da      	uxtb	r2, r3
80101e4a:	68fb      	ldr	r3, [r7, #12]
80101e4c:	75da      	strb	r2, [r3, #23]
80101e4e:	683b      	ldr	r3, [r7, #0]
80101e50:	681b      	ldr	r3, [r3, #0]
80101e52:	0d9b      	lsrs	r3, r3, #22
80101e54:	b2db      	uxtb	r3, r3
80101e56:	f003 030f 	and.w	r3, r3, #15
80101e5a:	b2da      	uxtb	r2, r3
80101e5c:	68fb      	ldr	r3, [r7, #12]
80101e5e:	761a      	strb	r2, [r3, #24]
80101e60:	683b      	ldr	r3, [r7, #0]
80101e62:	681b      	ldr	r3, [r3, #0]
80101e64:	0d5b      	lsrs	r3, r3, #21
80101e66:	b2db      	uxtb	r3, r3
80101e68:	f003 0301 	and.w	r3, r3, #1
80101e6c:	b2db      	uxtb	r3, r3
80101e6e:	2b00      	cmp	r3, #0
80101e70:	d006      	beq.n	80101e80 <SD_DecodeCsd+0x2ce>
80101e72:	68fb      	ldr	r3, [r7, #12]
80101e74:	891b      	ldrh	r3, [r3, #8]
80101e76:	f043 0340 	orr.w	r3, r3, #64	; 0x40
80101e7a:	b29a      	uxth	r2, r3
80101e7c:	68fb      	ldr	r3, [r7, #12]
80101e7e:	811a      	strh	r2, [r3, #8]
80101e80:	683b      	ldr	r3, [r7, #0]
80101e82:	681b      	ldr	r3, [r3, #0]
80101e84:	0bdb      	lsrs	r3, r3, #15
80101e86:	b2db      	uxtb	r3, r3
80101e88:	f003 0301 	and.w	r3, r3, #1
80101e8c:	b2db      	uxtb	r3, r3
80101e8e:	2b00      	cmp	r3, #0
80101e90:	d006      	beq.n	80101ea0 <SD_DecodeCsd+0x2ee>
80101e92:	68fb      	ldr	r3, [r7, #12]
80101e94:	891b      	ldrh	r3, [r3, #8]
80101e96:	f043 0380 	orr.w	r3, r3, #128	; 0x80
80101e9a:	b29a      	uxth	r2, r3
80101e9c:	68fb      	ldr	r3, [r7, #12]
80101e9e:	811a      	strh	r2, [r3, #8]
80101ea0:	683b      	ldr	r3, [r7, #0]
80101ea2:	681b      	ldr	r3, [r3, #0]
80101ea4:	0b9b      	lsrs	r3, r3, #14
80101ea6:	b2db      	uxtb	r3, r3
80101ea8:	f003 0301 	and.w	r3, r3, #1
80101eac:	b2db      	uxtb	r3, r3
80101eae:	2b00      	cmp	r3, #0
80101eb0:	d006      	beq.n	80101ec0 <SD_DecodeCsd+0x30e>
80101eb2:	68fb      	ldr	r3, [r7, #12]
80101eb4:	891b      	ldrh	r3, [r3, #8]
80101eb6:	f443 7380 	orr.w	r3, r3, #256	; 0x100
80101eba:	b29a      	uxth	r2, r3
80101ebc:	68fb      	ldr	r3, [r7, #12]
80101ebe:	811a      	strh	r2, [r3, #8]
80101ec0:	683b      	ldr	r3, [r7, #0]
80101ec2:	681b      	ldr	r3, [r3, #0]
80101ec4:	0b5b      	lsrs	r3, r3, #13
80101ec6:	b2db      	uxtb	r3, r3
80101ec8:	f003 0301 	and.w	r3, r3, #1
80101ecc:	b2db      	uxtb	r3, r3
80101ece:	2b00      	cmp	r3, #0
80101ed0:	d006      	beq.n	80101ee0 <SD_DecodeCsd+0x32e>
80101ed2:	68fb      	ldr	r3, [r7, #12]
80101ed4:	891b      	ldrh	r3, [r3, #8]
80101ed6:	f443 7300 	orr.w	r3, r3, #512	; 0x200
80101eda:	b29a      	uxth	r2, r3
80101edc:	68fb      	ldr	r3, [r7, #12]
80101ede:	811a      	strh	r2, [r3, #8]
80101ee0:	683b      	ldr	r3, [r7, #0]
80101ee2:	681b      	ldr	r3, [r3, #0]
80101ee4:	0b1b      	lsrs	r3, r3, #12
80101ee6:	b2db      	uxtb	r3, r3
80101ee8:	f003 0301 	and.w	r3, r3, #1
80101eec:	b2db      	uxtb	r3, r3
80101eee:	2b00      	cmp	r3, #0
80101ef0:	d006      	beq.n	80101f00 <SD_DecodeCsd+0x34e>
80101ef2:	68fb      	ldr	r3, [r7, #12]
80101ef4:	891b      	ldrh	r3, [r3, #8]
80101ef6:	f443 6380 	orr.w	r3, r3, #1024	; 0x400
80101efa:	b29a      	uxth	r2, r3
80101efc:	68fb      	ldr	r3, [r7, #12]
80101efe:	811a      	strh	r2, [r3, #8]
80101f00:	683b      	ldr	r3, [r7, #0]
80101f02:	681b      	ldr	r3, [r3, #0]
80101f04:	0a9b      	lsrs	r3, r3, #10
80101f06:	b2db      	uxtb	r3, r3
80101f08:	f003 0303 	and.w	r3, r3, #3
80101f0c:	b2da      	uxtb	r2, r3
80101f0e:	68fb      	ldr	r3, [r7, #12]
80101f10:	765a      	strb	r2, [r3, #25]
80101f12:	bf00      	nop
80101f14:	3714      	adds	r7, #20
80101f16:	46bd      	mov	sp, r7
80101f18:	bd90      	pop	{r4, r7, pc}

80101f1a <SD_DecodeScr>:
80101f1a:	b480      	push	{r7}
80101f1c:	b085      	sub	sp, #20
80101f1e:	af00      	add	r7, sp, #0
80101f20:	6078      	str	r0, [r7, #4]
80101f22:	6039      	str	r1, [r7, #0]
80101f24:	687b      	ldr	r3, [r7, #4]
80101f26:	3370      	adds	r3, #112	; 0x70
80101f28:	60fb      	str	r3, [r7, #12]
80101f2a:	683b      	ldr	r3, [r7, #0]
80101f2c:	681b      	ldr	r3, [r3, #0]
80101f2e:	0f1b      	lsrs	r3, r3, #28
80101f30:	b2da      	uxtb	r2, r3
80101f32:	68fb      	ldr	r3, [r7, #12]
80101f34:	701a      	strb	r2, [r3, #0]
80101f36:	683b      	ldr	r3, [r7, #0]
80101f38:	681b      	ldr	r3, [r3, #0]
80101f3a:	0e1b      	lsrs	r3, r3, #24
80101f3c:	b2db      	uxtb	r3, r3
80101f3e:	f003 030f 	and.w	r3, r3, #15
80101f42:	b2da      	uxtb	r2, r3
80101f44:	68fb      	ldr	r3, [r7, #12]
80101f46:	705a      	strb	r2, [r3, #1]
80101f48:	683b      	ldr	r3, [r7, #0]
80101f4a:	681b      	ldr	r3, [r3, #0]
80101f4c:	0ddb      	lsrs	r3, r3, #23
80101f4e:	b2db      	uxtb	r3, r3
80101f50:	f003 0301 	and.w	r3, r3, #1
80101f54:	b2db      	uxtb	r3, r3
80101f56:	2b00      	cmp	r3, #0
80101f58:	d006      	beq.n	80101f68 <SD_DecodeScr+0x4e>
80101f5a:	68fb      	ldr	r3, [r7, #12]
80101f5c:	885b      	ldrh	r3, [r3, #2]
80101f5e:	f043 0301 	orr.w	r3, r3, #1
80101f62:	b29a      	uxth	r2, r3
80101f64:	68fb      	ldr	r3, [r7, #12]
80101f66:	805a      	strh	r2, [r3, #2]
80101f68:	683b      	ldr	r3, [r7, #0]
80101f6a:	681b      	ldr	r3, [r3, #0]
80101f6c:	0d1b      	lsrs	r3, r3, #20
80101f6e:	b2db      	uxtb	r3, r3
80101f70:	f003 0307 	and.w	r3, r3, #7
80101f74:	b2da      	uxtb	r2, r3
80101f76:	68fb      	ldr	r3, [r7, #12]
80101f78:	711a      	strb	r2, [r3, #4]
80101f7a:	683b      	ldr	r3, [r7, #0]
80101f7c:	681b      	ldr	r3, [r3, #0]
80101f7e:	0c1b      	lsrs	r3, r3, #16
80101f80:	b2db      	uxtb	r3, r3
80101f82:	f003 030f 	and.w	r3, r3, #15
80101f86:	b2da      	uxtb	r2, r3
80101f88:	68fb      	ldr	r3, [r7, #12]
80101f8a:	715a      	strb	r2, [r3, #5]
80101f8c:	683b      	ldr	r3, [r7, #0]
80101f8e:	681b      	ldr	r3, [r3, #0]
80101f90:	0bdb      	lsrs	r3, r3, #15
80101f92:	b2db      	uxtb	r3, r3
80101f94:	f003 0301 	and.w	r3, r3, #1
80101f98:	b2db      	uxtb	r3, r3
80101f9a:	2b00      	cmp	r3, #0
80101f9c:	d006      	beq.n	80101fac <SD_DecodeScr+0x92>
80101f9e:	68fb      	ldr	r3, [r7, #12]
80101fa0:	885b      	ldrh	r3, [r3, #2]
80101fa2:	f043 0302 	orr.w	r3, r3, #2
80101fa6:	b29a      	uxth	r2, r3
80101fa8:	68fb      	ldr	r3, [r7, #12]
80101faa:	805a      	strh	r2, [r3, #2]
80101fac:	683b      	ldr	r3, [r7, #0]
80101fae:	681b      	ldr	r3, [r3, #0]
80101fb0:	0a9b      	lsrs	r3, r3, #10
80101fb2:	b2db      	uxtb	r3, r3
80101fb4:	f003 031e 	and.w	r3, r3, #30
80101fb8:	b2da      	uxtb	r2, r3
80101fba:	68fb      	ldr	r3, [r7, #12]
80101fbc:	719a      	strb	r2, [r3, #6]
80101fbe:	683b      	ldr	r3, [r7, #0]
80101fc0:	681b      	ldr	r3, [r3, #0]
80101fc2:	b2db      	uxtb	r3, r3
80101fc4:	f003 0303 	and.w	r3, r3, #3
80101fc8:	b2da      	uxtb	r2, r3
80101fca:	68fb      	ldr	r3, [r7, #12]
80101fcc:	71da      	strb	r2, [r3, #7]
80101fce:	683b      	ldr	r3, [r7, #0]
80101fd0:	685a      	ldr	r2, [r3, #4]
80101fd2:	68fb      	ldr	r3, [r7, #12]
80101fd4:	609a      	str	r2, [r3, #8]
80101fd6:	68fb      	ldr	r3, [r7, #12]
80101fd8:	785b      	ldrb	r3, [r3, #1]
80101fda:	2b01      	cmp	r3, #1
80101fdc:	d008      	beq.n	80101ff0 <SD_DecodeScr+0xd6>
80101fde:	2b02      	cmp	r3, #2
80101fe0:	d00a      	beq.n	80101ff8 <SD_DecodeScr+0xde>
80101fe2:	2b00      	cmp	r3, #0
80101fe4:	d000      	beq.n	80101fe8 <SD_DecodeScr+0xce>
80101fe6:	e015      	b.n	80102014 <SD_DecodeScr+0xfa>
80101fe8:	687b      	ldr	r3, [r7, #4]
80101fea:	2201      	movs	r2, #1
80101fec:	60da      	str	r2, [r3, #12]
80101fee:	e011      	b.n	80102014 <SD_DecodeScr+0xfa>
80101ff0:	687b      	ldr	r3, [r7, #4]
80101ff2:	2202      	movs	r2, #2
80101ff4:	60da      	str	r2, [r3, #12]
80101ff6:	e00d      	b.n	80102014 <SD_DecodeScr+0xfa>
80101ff8:	687b      	ldr	r3, [r7, #4]
80101ffa:	2204      	movs	r2, #4
80101ffc:	60da      	str	r2, [r3, #12]
80101ffe:	687b      	ldr	r3, [r7, #4]
80102000:	f8b3 3072 	ldrh.w	r3, [r3, #114]	; 0x72
80102004:	f003 0302 	and.w	r3, r3, #2
80102008:	2b00      	cmp	r3, #0
8010200a:	d002      	beq.n	80102012 <SD_DecodeScr+0xf8>
8010200c:	687b      	ldr	r3, [r7, #4]
8010200e:	2208      	movs	r2, #8
80102010:	60da      	str	r2, [r3, #12]
80102012:	bf00      	nop
80102014:	bf00      	nop
80102016:	3714      	adds	r7, #20
80102018:	46bd      	mov	sp, r7
8010201a:	f85d 7b04 	ldr.w	r7, [sp], #4
8010201e:	4770      	bx	lr

80102020 <SD_SelectBusTiming>:
80102020:	b580      	push	{r7, lr}
80102022:	b0c6      	sub	sp, #280	; 0x118
80102024:	af02      	add	r7, sp, #8
80102026:	1d3b      	adds	r3, r7, #4
80102028:	6018      	str	r0, [r3, #0]
8010202a:	f64f 73f1 	movw	r3, #65521	; 0xfff1
8010202e:	f2c8 03ff 	movt	r3, #33023	; 0x80ff
80102032:	f8c7 310c 	str.w	r3, [r7, #268]	; 0x10c
80102036:	f107 0208 	add.w	r2, r7, #8
8010203a:	1d38      	adds	r0, r7, #4
8010203c:	2340      	movs	r3, #64	; 0x40
8010203e:	9300      	str	r3, [sp, #0]
80102040:	4613      	mov	r3, r2
80102042:	2200      	movs	r2, #0
80102044:	f240 613a 	movw	r1, #1594	; 0x63a
80102048:	6800      	ldr	r0, [r0, #0]
8010204a:	f7ff fb53 	bl	801016f4 <USDHC_SendCommand_with_data>
8010204e:	f8c7 0108 	str.w	r0, [r7, #264]	; 0x108
80102052:	f8d7 3108 	ldr.w	r3, [r7, #264]	; 0x108
80102056:	2b00      	cmp	r3, #0
80102058:	da02      	bge.n	80102060 <SD_SelectBusTiming+0x40>
8010205a:	f04f 33ff 	mov.w	r3, #4294967295	; 0xffffffff
8010205e:	e06c      	b.n	8010213a <SD_SelectBusTiming+0x11a>
80102060:	f107 0308 	add.w	r3, r7, #8
80102064:	68db      	ldr	r3, [r3, #12]
80102066:	061a      	lsls	r2, r3, #24
80102068:	f107 0308 	add.w	r3, r7, #8
8010206c:	68db      	ldr	r3, [r3, #12]
8010206e:	021b      	lsls	r3, r3, #8
80102070:	f403 037f 	and.w	r3, r3, #16711680	; 0xff0000
80102074:	431a      	orrs	r2, r3
80102076:	f107 0308 	add.w	r3, r7, #8
8010207a:	68db      	ldr	r3, [r3, #12]
8010207c:	0a1b      	lsrs	r3, r3, #8
8010207e:	f403 437f 	and.w	r3, r3, #65280	; 0xff00
80102082:	431a      	orrs	r2, r3
80102084:	f107 0308 	add.w	r3, r7, #8
80102088:	68db      	ldr	r3, [r3, #12]
8010208a:	0e1b      	lsrs	r3, r3, #24
8010208c:	431a      	orrs	r2, r3
8010208e:	f107 0308 	add.w	r3, r7, #8
80102092:	60da      	str	r2, [r3, #12]
80102094:	f107 0308 	add.w	r3, r7, #8
80102098:	68db      	ldr	r3, [r3, #12]
8010209a:	0c1b      	lsrs	r3, r3, #16
8010209c:	4619      	mov	r1, r3
8010209e:	f243 1078 	movw	r0, #12664	; 0x3178
801020a2:	f2c8 0010 	movt	r0, #32784	; 0x8010
801020a6:	f7fe ffa0 	bl	80100fea <printf>
801020aa:	f243 109c 	movw	r0, #12700	; 0x319c
801020ae:	f2c8 0010 	movt	r0, #32784	; 0x8010
801020b2:	f7fe ff9a 	bl	80100fea <printf>
801020b6:	f107 0208 	add.w	r2, r7, #8
801020ba:	1d38      	adds	r0, r7, #4
801020bc:	2340      	movs	r3, #64	; 0x40
801020be:	9300      	str	r3, [sp, #0]
801020c0:	4613      	mov	r3, r2
801020c2:	f8d7 210c 	ldr.w	r2, [r7, #268]	; 0x10c
801020c6:	f240 613a 	movw	r1, #1594	; 0x63a
801020ca:	6800      	ldr	r0, [r0, #0]
801020cc:	f7ff fb12 	bl	801016f4 <USDHC_SendCommand_with_data>
801020d0:	f8c7 0108 	str.w	r0, [r7, #264]	; 0x108
801020d4:	f8d7 3108 	ldr.w	r3, [r7, #264]	; 0x108
801020d8:	2b00      	cmp	r3, #0
801020da:	da02      	bge.n	801020e2 <SD_SelectBusTiming+0xc2>
801020dc:	f04f 33ff 	mov.w	r3, #4294967295	; 0xffffffff
801020e0:	e02b      	b.n	8010213a <SD_SelectBusTiming+0x11a>
801020e2:	f107 0308 	add.w	r3, r7, #8
801020e6:	691b      	ldr	r3, [r3, #16]
801020e8:	061a      	lsls	r2, r3, #24
801020ea:	f107 0308 	add.w	r3, r7, #8
801020ee:	691b      	ldr	r3, [r3, #16]
801020f0:	021b      	lsls	r3, r3, #8
801020f2:	f403 037f 	and.w	r3, r3, #16711680	; 0xff0000
801020f6:	431a      	orrs	r2, r3
801020f8:	f107 0308 	add.w	r3, r7, #8
801020fc:	691b      	ldr	r3, [r3, #16]
801020fe:	0a1b      	lsrs	r3, r3, #8
80102100:	f403 437f 	and.w	r3, r3, #65280	; 0xff00
80102104:	431a      	orrs	r2, r3
80102106:	f107 0308 	add.w	r3, r7, #8
8010210a:	691b      	ldr	r3, [r3, #16]
8010210c:	0e1b      	lsrs	r3, r3, #24
8010210e:	431a      	orrs	r2, r3
80102110:	f107 0308 	add.w	r3, r7, #8
80102114:	611a      	str	r2, [r3, #16]
80102116:	f107 0308 	add.w	r3, r7, #8
8010211a:	691b      	ldr	r3, [r3, #16]
8010211c:	0e1b      	lsrs	r3, r3, #24
8010211e:	2b01      	cmp	r3, #1
80102120:	d10a      	bne.n	80102138 <SD_SelectBusTiming+0x118>
80102122:	f107 0308 	add.w	r3, r7, #8
80102126:	68db      	ldr	r3, [r3, #12]
80102128:	0c1b      	lsrs	r3, r3, #16
8010212a:	4619      	mov	r1, r3
8010212c:	f243 10a4 	movw	r0, #12708	; 0x31a4
80102130:	f2c8 0010 	movt	r0, #32784	; 0x8010
80102134:	f7fe ff59 	bl	80100fea <printf>
80102138:	2300      	movs	r3, #0
8010213a:	4618      	mov	r0, r3
8010213c:	f507 7788 	add.w	r7, r7, #272	; 0x110
80102140:	46bd      	mov	sp, r7
80102142:	bd80      	pop	{r7, pc}

80102144 <sd_init>:
80102144:	b580      	push	{r7, lr}
80102146:	b08e      	sub	sp, #56	; 0x38
80102148:	af02      	add	r7, sp, #8
8010214a:	6078      	str	r0, [r7, #4]
8010214c:	2300      	movs	r3, #0
8010214e:	627b      	str	r3, [r7, #36]	; 0x24
80102150:	6878      	ldr	r0, [r7, #4]
80102152:	f7ff fb42 	bl	801017da <USDHC_Init>
80102156:	6878      	ldr	r0, [r7, #4]
80102158:	f7ff fb89 	bl	8010186e <CardInsertDetect>
8010215c:	2100      	movs	r1, #0
8010215e:	6878      	ldr	r0, [r7, #4]
80102160:	f7ff fba7 	bl	801018b2 <USDHC_SetDataBusWidth>
80102164:	f44f 52d4 	mov.w	r2, #6784	; 0x1a80
80102168:	f2c0 0206 	movt	r2, #6
8010216c:	f44f 41f6 	mov.w	r1, #31488	; 0x7b00
80102170:	f2c1 719a 	movt	r1, #6042	; 0x179a
80102174:	6878      	ldr	r0, [r7, #4]
80102176:	f7ff fbb2 	bl	801018de <USDHC_SetSdClock>
8010217a:	4602      	mov	r2, r0
8010217c:	f644 0300 	movw	r3, #18432	; 0x4800
80102180:	f2c8 0310 	movt	r3, #32784	; 0x8010
80102184:	605a      	str	r2, [r3, #4]
80102186:	2164      	movs	r1, #100	; 0x64
80102188:	6878      	ldr	r0, [r7, #4]
8010218a:	f7ff fc62 	bl	80101a52 <USDHC_SetCardActive>
8010218e:	2200      	movs	r2, #0
80102190:	2100      	movs	r1, #0
80102192:	6878      	ldr	r0, [r7, #4]
80102194:	f7ff fa92 	bl	801016bc <USDHC_SendCommand>
80102198:	62f8      	str	r0, [r7, #44]	; 0x2c
8010219a:	6afb      	ldr	r3, [r7, #44]	; 0x2c
8010219c:	2b00      	cmp	r3, #0
8010219e:	da02      	bge.n	801021a6 <sd_init+0x62>
801021a0:	f04f 33ff 	mov.w	r3, #4294967295	; 0xffffffff
801021a4:	e235      	b.n	80102612 <sd_init+0x4ce>
801021a6:	2300      	movs	r3, #0
801021a8:	62bb      	str	r3, [r7, #40]	; 0x28
801021aa:	e00d      	b.n	801021c8 <sd_init+0x84>
801021ac:	f44f 72d5 	mov.w	r2, #426	; 0x1aa
801021b0:	f640 011a 	movw	r1, #2074	; 0x81a
801021b4:	6878      	ldr	r0, [r7, #4]
801021b6:	f7ff fa81 	bl	801016bc <USDHC_SendCommand>
801021ba:	62f8      	str	r0, [r7, #44]	; 0x2c
801021bc:	6afb      	ldr	r3, [r7, #44]	; 0x2c
801021be:	2b00      	cmp	r3, #0
801021c0:	d006      	beq.n	801021d0 <sd_init+0x8c>
801021c2:	6abb      	ldr	r3, [r7, #40]	; 0x28
801021c4:	3301      	adds	r3, #1
801021c6:	62bb      	str	r3, [r7, #40]	; 0x28
801021c8:	6abb      	ldr	r3, [r7, #40]	; 0x28
801021ca:	2b09      	cmp	r3, #9
801021cc:	d9ee      	bls.n	801021ac <sd_init+0x68>
801021ce:	e000      	b.n	801021d2 <sd_init+0x8e>
801021d0:	bf00      	nop
801021d2:	6afb      	ldr	r3, [r7, #44]	; 0x2c
801021d4:	2b00      	cmp	r3, #0
801021d6:	d104      	bne.n	801021e2 <sd_init+0x9e>
801021d8:	6a7b      	ldr	r3, [r7, #36]	; 0x24
801021da:	f043 4380 	orr.w	r3, r3, #1073741824	; 0x40000000
801021de:	627b      	str	r3, [r7, #36]	; 0x24
801021e0:	e00b      	b.n	801021fa <sd_init+0xb6>
801021e2:	2200      	movs	r2, #0
801021e4:	2100      	movs	r1, #0
801021e6:	6878      	ldr	r0, [r7, #4]
801021e8:	f7ff fa68 	bl	801016bc <USDHC_SendCommand>
801021ec:	62f8      	str	r0, [r7, #44]	; 0x2c
801021ee:	6afb      	ldr	r3, [r7, #44]	; 0x2c
801021f0:	2b00      	cmp	r3, #0
801021f2:	d002      	beq.n	801021fa <sd_init+0xb6>
801021f4:	f04f 33ff 	mov.w	r3, #4294967295	; 0xffffffff
801021f8:	e20b      	b.n	80102612 <sd_init+0x4ce>
801021fa:	6a7b      	ldr	r3, [r7, #36]	; 0x24
801021fc:	f443 1340 	orr.w	r3, r3, #3145728	; 0x300000
80102200:	627b      	str	r3, [r7, #36]	; 0x24
80102202:	2300      	movs	r3, #0
80102204:	62bb      	str	r3, [r7, #40]	; 0x28
80102206:	e034      	b.n	80102272 <sd_init+0x12e>
80102208:	2200      	movs	r2, #0
8010220a:	f243 711a 	movw	r1, #14106	; 0x371a
8010220e:	6878      	ldr	r0, [r7, #4]
80102210:	f7ff fa54 	bl	801016bc <USDHC_SendCommand>
80102214:	62f8      	str	r0, [r7, #44]	; 0x2c
80102216:	6afb      	ldr	r3, [r7, #44]	; 0x2c
80102218:	2b00      	cmp	r3, #0
8010221a:	da02      	bge.n	80102222 <sd_init+0xde>
8010221c:	f04f 33ff 	mov.w	r3, #4294967295	; 0xffffffff
80102220:	e1f7      	b.n	80102612 <sd_init+0x4ce>
80102222:	6a7a      	ldr	r2, [r7, #36]	; 0x24
80102224:	f642 1102 	movw	r1, #10498	; 0x2902
80102228:	6878      	ldr	r0, [r7, #4]
8010222a:	f7ff fa47 	bl	801016bc <USDHC_SendCommand>
8010222e:	62f8      	str	r0, [r7, #44]	; 0x2c
80102230:	6afb      	ldr	r3, [r7, #44]	; 0x2c
80102232:	2b00      	cmp	r3, #0
80102234:	da02      	bge.n	8010223c <sd_init+0xf8>
80102236:	f04f 33ff 	mov.w	r3, #4294967295	; 0xffffffff
8010223a:	e1ea      	b.n	80102612 <sd_init+0x4ce>
8010223c:	687b      	ldr	r3, [r7, #4]
8010223e:	691b      	ldr	r3, [r3, #16]
80102240:	2b00      	cmp	r3, #0
80102242:	da13      	bge.n	8010226c <sd_init+0x128>
80102244:	687b      	ldr	r3, [r7, #4]
80102246:	691a      	ldr	r2, [r3, #16]
80102248:	f644 0300 	movw	r3, #18432	; 0x4800
8010224c:	f2c8 0310 	movt	r3, #32784	; 0x8010
80102250:	63da      	str	r2, [r3, #60]	; 0x3c
80102252:	f644 0300 	movw	r3, #18432	; 0x4800
80102256:	f2c8 0310 	movt	r3, #32784	; 0x8010
8010225a:	6bdb      	ldr	r3, [r3, #60]	; 0x3c
8010225c:	4619      	mov	r1, r3
8010225e:	f243 10c4 	movw	r0, #12740	; 0x31c4
80102262:	f2c8 0010 	movt	r0, #32784	; 0x8010
80102266:	f7fe fec0 	bl	80100fea <printf>
8010226a:	e007      	b.n	8010227c <sd_init+0x138>
8010226c:	6abb      	ldr	r3, [r7, #40]	; 0x28
8010226e:	3301      	adds	r3, #1
80102270:	62bb      	str	r3, [r7, #40]	; 0x28
80102272:	6abb      	ldr	r3, [r7, #40]	; 0x28
80102274:	f241 3287 	movw	r2, #4999	; 0x1387
80102278:	4293      	cmp	r3, r2
8010227a:	d9c5      	bls.n	80102208 <sd_init+0xc4>
8010227c:	6abb      	ldr	r3, [r7, #40]	; 0x28
8010227e:	f5b3 7f7a 	cmp.w	r3, #1000	; 0x3e8
80102282:	d308      	bcc.n	80102296 <sd_init+0x152>
80102284:	f243 10d4 	movw	r0, #12756	; 0x31d4
80102288:	f2c8 0010 	movt	r0, #32784	; 0x8010
8010228c:	f7fe fead 	bl	80100fea <printf>
80102290:	f04f 33ff 	mov.w	r3, #4294967295	; 0xffffffff
80102294:	e1bd      	b.n	80102612 <sd_init+0x4ce>
80102296:	f644 0300 	movw	r3, #18432	; 0x4800
8010229a:	f2c8 0310 	movt	r3, #32784	; 0x8010
8010229e:	6bdb      	ldr	r3, [r3, #60]	; 0x3c
801022a0:	f003 7380 	and.w	r3, r3, #16777216	; 0x1000000
801022a4:	2b00      	cmp	r3, #0
801022a6:	d005      	beq.n	801022b4 <sd_init+0x170>
801022a8:	f243 10f8 	movw	r0, #12792	; 0x31f8
801022ac:	f2c8 0010 	movt	r0, #32784	; 0x8010
801022b0:	f7fe fe9b 	bl	80100fea <printf>
801022b4:	2200      	movs	r2, #0
801022b6:	f240 2109 	movw	r1, #521	; 0x209
801022ba:	6878      	ldr	r0, [r7, #4]
801022bc:	f7ff f9fe 	bl	801016bc <USDHC_SendCommand>
801022c0:	62f8      	str	r0, [r7, #44]	; 0x2c
801022c2:	6afb      	ldr	r3, [r7, #44]	; 0x2c
801022c4:	2b00      	cmp	r3, #0
801022c6:	da02      	bge.n	801022ce <sd_init+0x18a>
801022c8:	f04f 33ff 	mov.w	r3, #4294967295	; 0xffffffff
801022cc:	e1a1      	b.n	80102612 <sd_init+0x4ce>
801022ce:	f107 0314 	add.w	r3, r7, #20
801022d2:	4619      	mov	r1, r3
801022d4:	6878      	ldr	r0, [r7, #4]
801022d6:	f7ff fbe3 	bl	80101aa0 <USDHC_GetResponse>
801022da:	f107 0314 	add.w	r3, r7, #20
801022de:	2210      	movs	r2, #16
801022e0:	4619      	mov	r1, r3
801022e2:	48ce      	ldr	r0, [pc, #824]	; (8010261c <sd_init+0x4d8>)
801022e4:	f7fe ff12 	bl	8010110c <memcpy>
801022e8:	49cc      	ldr	r1, [pc, #816]	; (8010261c <sd_init+0x4d8>)
801022ea:	f644 0000 	movw	r0, #18432	; 0x4800
801022ee:	f2c8 0010 	movt	r0, #32784	; 0x8010
801022f2:	f7ff fc03 	bl	80101afc <SD_DecodeCid>
801022f6:	2200      	movs	r2, #0
801022f8:	f240 311a 	movw	r1, #794	; 0x31a
801022fc:	6878      	ldr	r0, [r7, #4]
801022fe:	f7ff f9dd 	bl	801016bc <USDHC_SendCommand>
80102302:	62f8      	str	r0, [r7, #44]	; 0x2c
80102304:	6afb      	ldr	r3, [r7, #44]	; 0x2c
80102306:	2b00      	cmp	r3, #0
80102308:	da02      	bge.n	80102310 <sd_init+0x1cc>
8010230a:	f04f 33ff 	mov.w	r3, #4294967295	; 0xffffffff
8010230e:	e180      	b.n	80102612 <sd_init+0x4ce>
80102310:	687b      	ldr	r3, [r7, #4]
80102312:	691b      	ldr	r3, [r3, #16]
80102314:	0c1a      	lsrs	r2, r3, #16
80102316:	f644 0300 	movw	r3, #18432	; 0x4800
8010231a:	f2c8 0310 	movt	r3, #32784	; 0x8010
8010231e:	609a      	str	r2, [r3, #8]
80102320:	f644 0300 	movw	r3, #18432	; 0x4800
80102324:	f2c8 0310 	movt	r3, #32784	; 0x8010
80102328:	689b      	ldr	r3, [r3, #8]
8010232a:	4619      	mov	r1, r3
8010232c:	f243 2008 	movw	r0, #12808	; 0x3208
80102330:	f2c8 0010 	movt	r0, #32784	; 0x8010
80102334:	f7fe fe59 	bl	80100fea <printf>
80102338:	f644 0300 	movw	r3, #18432	; 0x4800
8010233c:	f2c8 0310 	movt	r3, #32784	; 0x8010
80102340:	689b      	ldr	r3, [r3, #8]
80102342:	041b      	lsls	r3, r3, #16
80102344:	461a      	mov	r2, r3
80102346:	f640 1109 	movw	r1, #2313	; 0x909
8010234a:	6878      	ldr	r0, [r7, #4]
8010234c:	f7ff f9b6 	bl	801016bc <USDHC_SendCommand>
80102350:	62f8      	str	r0, [r7, #44]	; 0x2c
80102352:	6afb      	ldr	r3, [r7, #44]	; 0x2c
80102354:	2b00      	cmp	r3, #0
80102356:	da02      	bge.n	8010235e <sd_init+0x21a>
80102358:	f04f 33ff 	mov.w	r3, #4294967295	; 0xffffffff
8010235c:	e159      	b.n	80102612 <sd_init+0x4ce>
8010235e:	f107 0314 	add.w	r3, r7, #20
80102362:	4619      	mov	r1, r3
80102364:	6878      	ldr	r0, [r7, #4]
80102366:	f7ff fb9b 	bl	80101aa0 <USDHC_GetResponse>
8010236a:	f107 0314 	add.w	r3, r7, #20
8010236e:	2210      	movs	r2, #16
80102370:	4619      	mov	r1, r3
80102372:	48ab      	ldr	r0, [pc, #684]	; (80102620 <sd_init+0x4dc>)
80102374:	f7fe feca 	bl	8010110c <memcpy>
80102378:	49a9      	ldr	r1, [pc, #676]	; (80102620 <sd_init+0x4dc>)
8010237a:	f644 0000 	movw	r0, #18432	; 0x4800
8010237e:	f2c8 0010 	movt	r0, #32784	; 0x8010
80102382:	f7ff fc16 	bl	80101bb2 <SD_DecodeCsd>
80102386:	f644 0300 	movw	r3, #18432	; 0x4800
8010238a:	f2c8 0310 	movt	r3, #32784	; 0x8010
8010238e:	f893 3054 	ldrb.w	r3, [r3, #84]	; 0x54
80102392:	2b00      	cmp	r3, #0
80102394:	d004      	beq.n	801023a0 <sd_init+0x25c>
80102396:	f243 2324 	movw	r3, #12836	; 0x3224
8010239a:	f2c8 0310 	movt	r3, #32784	; 0x8010
8010239e:	e003      	b.n	801023a8 <sd_init+0x264>
801023a0:	f243 2330 	movw	r3, #12848	; 0x3230
801023a4:	f2c8 0310 	movt	r3, #32784	; 0x8010
801023a8:	4619      	mov	r1, r3
801023aa:	f243 2038 	movw	r0, #12856	; 0x3238
801023ae:	f2c8 0010 	movt	r0, #32784	; 0x8010
801023b2:	f7fe fe1a 	bl	80100fea <printf>
801023b6:	f644 0300 	movw	r3, #18432	; 0x4800
801023ba:	f2c8 0310 	movt	r3, #32784	; 0x8010
801023be:	6fdb      	ldr	r3, [r3, #124]	; 0x7c
801023c0:	4619      	mov	r1, r3
801023c2:	f243 2044 	movw	r0, #12868	; 0x3244
801023c6:	f2c8 0010 	movt	r0, #32784	; 0x8010
801023ca:	f7fe fe0e 	bl	80100fea <printf>
801023ce:	f644 0300 	movw	r3, #18432	; 0x4800
801023d2:	f2c8 0310 	movt	r3, #32784	; 0x8010
801023d6:	f8d3 3080 	ldr.w	r3, [r3, #128]	; 0x80
801023da:	4619      	mov	r1, r3
801023dc:	f243 2060 	movw	r0, #12896	; 0x3260
801023e0:	f2c8 0010 	movt	r0, #32784	; 0x8010
801023e4:	f7fe fe01 	bl	80100fea <printf>
801023e8:	f644 0300 	movw	r3, #18432	; 0x4800
801023ec:	f2c8 0310 	movt	r3, #32784	; 0x8010
801023f0:	f8b3 3058 	ldrh.w	r3, [r3, #88]	; 0x58
801023f4:	4619      	mov	r1, r3
801023f6:	f243 207c 	movw	r0, #12924	; 0x327c
801023fa:	f2c8 0010 	movt	r0, #32784	; 0x8010
801023fe:	f7fe fdf4 	bl	80100fea <printf>
80102402:	f644 0300 	movw	r3, #18432	; 0x4800
80102406:	f2c8 0310 	movt	r3, #32784	; 0x8010
8010240a:	689b      	ldr	r3, [r3, #8]
8010240c:	041b      	lsls	r3, r3, #16
8010240e:	461a      	mov	r2, r3
80102410:	f240 711b 	movw	r1, #1819	; 0x71b
80102414:	6878      	ldr	r0, [r7, #4]
80102416:	f7ff f951 	bl	801016bc <USDHC_SendCommand>
8010241a:	62f8      	str	r0, [r7, #44]	; 0x2c
8010241c:	6afb      	ldr	r3, [r7, #44]	; 0x2c
8010241e:	2b00      	cmp	r3, #0
80102420:	da01      	bge.n	80102426 <sd_init+0x2e2>
80102422:	6afb      	ldr	r3, [r7, #44]	; 0x2c
80102424:	e0f5      	b.n	80102612 <sd_init+0x4ce>
80102426:	f644 0300 	movw	r3, #18432	; 0x4800
8010242a:	f2c8 0310 	movt	r3, #32784	; 0x8010
8010242e:	689b      	ldr	r3, [r3, #8]
80102430:	041b      	lsls	r3, r3, #16
80102432:	461a      	mov	r2, r3
80102434:	f243 711a 	movw	r1, #14106	; 0x371a
80102438:	6878      	ldr	r0, [r7, #4]
8010243a:	f7ff f93f 	bl	801016bc <USDHC_SendCommand>
8010243e:	62f8      	str	r0, [r7, #44]	; 0x2c
80102440:	6afb      	ldr	r3, [r7, #44]	; 0x2c
80102442:	2b00      	cmp	r3, #0
80102444:	da01      	bge.n	8010244a <sd_init+0x306>
80102446:	6afb      	ldr	r3, [r7, #44]	; 0x2c
80102448:	e0e3      	b.n	80102612 <sd_init+0x4ce>
8010244a:	f107 020c 	add.w	r2, r7, #12
8010244e:	2308      	movs	r3, #8
80102450:	9300      	str	r3, [sp, #0]
80102452:	4613      	mov	r3, r2
80102454:	2200      	movs	r2, #0
80102456:	f243 313a 	movw	r1, #13114	; 0x333a
8010245a:	6878      	ldr	r0, [r7, #4]
8010245c:	f7ff f94a 	bl	801016f4 <USDHC_SendCommand_with_data>
80102460:	62f8      	str	r0, [r7, #44]	; 0x2c
80102462:	6afb      	ldr	r3, [r7, #44]	; 0x2c
80102464:	2b00      	cmp	r3, #0
80102466:	da01      	bge.n	8010246c <sd_init+0x328>
80102468:	6afb      	ldr	r3, [r7, #44]	; 0x2c
8010246a:	e0d2      	b.n	80102612 <sd_init+0x4ce>
8010246c:	68fb      	ldr	r3, [r7, #12]
8010246e:	061a      	lsls	r2, r3, #24
80102470:	68fb      	ldr	r3, [r7, #12]
80102472:	021b      	lsls	r3, r3, #8
80102474:	f403 037f 	and.w	r3, r3, #16711680	; 0xff0000
80102478:	431a      	orrs	r2, r3
8010247a:	68fb      	ldr	r3, [r7, #12]
8010247c:	0a1b      	lsrs	r3, r3, #8
8010247e:	f403 437f 	and.w	r3, r3, #65280	; 0xff00
80102482:	431a      	orrs	r2, r3
80102484:	68fb      	ldr	r3, [r7, #12]
80102486:	0e1b      	lsrs	r3, r3, #24
80102488:	4313      	orrs	r3, r2
8010248a:	60fb      	str	r3, [r7, #12]
8010248c:	693b      	ldr	r3, [r7, #16]
8010248e:	061a      	lsls	r2, r3, #24
80102490:	693b      	ldr	r3, [r7, #16]
80102492:	021b      	lsls	r3, r3, #8
80102494:	f403 037f 	and.w	r3, r3, #16711680	; 0xff0000
80102498:	431a      	orrs	r2, r3
8010249a:	693b      	ldr	r3, [r7, #16]
8010249c:	0a1b      	lsrs	r3, r3, #8
8010249e:	f403 437f 	and.w	r3, r3, #65280	; 0xff00
801024a2:	431a      	orrs	r2, r3
801024a4:	693b      	ldr	r3, [r7, #16]
801024a6:	0e1b      	lsrs	r3, r3, #24
801024a8:	4313      	orrs	r3, r2
801024aa:	613b      	str	r3, [r7, #16]
801024ac:	f107 030c 	add.w	r3, r7, #12
801024b0:	2208      	movs	r2, #8
801024b2:	4619      	mov	r1, r3
801024b4:	485b      	ldr	r0, [pc, #364]	; (80102624 <sd_init+0x4e0>)
801024b6:	f7fe fe29 	bl	8010110c <memcpy>
801024ba:	495a      	ldr	r1, [pc, #360]	; (80102624 <sd_init+0x4e0>)
801024bc:	f644 0000 	movw	r0, #18432	; 0x4800
801024c0:	f2c8 0010 	movt	r0, #32784	; 0x8010
801024c4:	f7ff fd29 	bl	80101f1a <SD_DecodeScr>
801024c8:	68fb      	ldr	r3, [r7, #12]
801024ca:	693a      	ldr	r2, [r7, #16]
801024cc:	4619      	mov	r1, r3
801024ce:	f243 209c 	movw	r0, #12956	; 0x329c
801024d2:	f2c8 0010 	movt	r0, #32784	; 0x8010
801024d6:	f7fe fd88 	bl	80100fea <printf>
801024da:	f644 0300 	movw	r3, #18432	; 0x4800
801024de:	f2c8 0310 	movt	r3, #32784	; 0x8010
801024e2:	f893 3071 	ldrb.w	r3, [r3, #113]	; 0x71
801024e6:	4619      	mov	r1, r3
801024e8:	f243 20c0 	movw	r0, #12992	; 0x32c0
801024ec:	f2c8 0010 	movt	r0, #32784	; 0x8010
801024f0:	f7fe fd7b 	bl	80100fea <printf>
801024f4:	f644 0300 	movw	r3, #18432	; 0x4800
801024f8:	f2c8 0310 	movt	r3, #32784	; 0x8010
801024fc:	f893 3075 	ldrb.w	r3, [r3, #117]	; 0x75
80102500:	f003 0304 	and.w	r3, r3, #4
80102504:	2b00      	cmp	r3, #0
80102506:	d108      	bne.n	8010251a <sd_init+0x3d6>
80102508:	f243 20dc 	movw	r0, #13020	; 0x32dc
8010250c:	f2c8 0010 	movt	r0, #32784	; 0x8010
80102510:	f7fe fd6b 	bl	80100fea <printf>
80102514:	f04f 33ff 	mov.w	r3, #4294967295	; 0xffffffff
80102518:	e07b      	b.n	80102612 <sd_init+0x4ce>
8010251a:	f644 0300 	movw	r3, #18432	; 0x4800
8010251e:	f2c8 0310 	movt	r3, #32784	; 0x8010
80102522:	f893 3077 	ldrb.w	r3, [r3, #119]	; 0x77
80102526:	f003 0301 	and.w	r3, r3, #1
8010252a:	2b00      	cmp	r3, #0
8010252c:	d105      	bne.n	8010253a <sd_init+0x3f6>
8010252e:	f243 3000 	movw	r0, #13056	; 0x3300
80102532:	f2c8 0010 	movt	r0, #32784	; 0x8010
80102536:	f7fe fd58 	bl	80100fea <printf>
8010253a:	f644 0300 	movw	r3, #18432	; 0x4800
8010253e:	f2c8 0310 	movt	r3, #32784	; 0x8010
80102542:	f893 3077 	ldrb.w	r3, [r3, #119]	; 0x77
80102546:	f003 0302 	and.w	r3, r3, #2
8010254a:	2b00      	cmp	r3, #0
8010254c:	d105      	bne.n	8010255a <sd_init+0x416>
8010254e:	f243 3038 	movw	r0, #13112	; 0x3338
80102552:	f2c8 0010 	movt	r0, #32784	; 0x8010
80102556:	f7fe fd48 	bl	80100fea <printf>
8010255a:	f647 0240 	movw	r2, #30784	; 0x7840
8010255e:	f2c0 127d 	movt	r2, #381	; 0x17d
80102562:	f44f 41f6 	mov.w	r1, #31488	; 0x7b00
80102566:	f2c1 719a 	movt	r1, #6042	; 0x179a
8010256a:	6878      	ldr	r0, [r7, #4]
8010256c:	f7ff f9b7 	bl	801018de <USDHC_SetSdClock>
80102570:	4602      	mov	r2, r0
80102572:	f644 0300 	movw	r3, #18432	; 0x4800
80102576:	f2c8 0310 	movt	r3, #32784	; 0x8010
8010257a:	605a      	str	r2, [r3, #4]
8010257c:	f644 0300 	movw	r3, #18432	; 0x4800
80102580:	f2c8 0310 	movt	r3, #32784	; 0x8010
80102584:	689b      	ldr	r3, [r3, #8]
80102586:	041b      	lsls	r3, r3, #16
80102588:	461a      	mov	r2, r3
8010258a:	f243 711a 	movw	r1, #14106	; 0x371a
8010258e:	6878      	ldr	r0, [r7, #4]
80102590:	f7ff f894 	bl	801016bc <USDHC_SendCommand>
80102594:	62f8      	str	r0, [r7, #44]	; 0x2c
80102596:	6afb      	ldr	r3, [r7, #44]	; 0x2c
80102598:	2b00      	cmp	r3, #0
8010259a:	da01      	bge.n	801025a0 <sd_init+0x45c>
8010259c:	6afb      	ldr	r3, [r7, #44]	; 0x2c
8010259e:	e038      	b.n	80102612 <sd_init+0x4ce>
801025a0:	2202      	movs	r2, #2
801025a2:	f240 611a 	movw	r1, #1562	; 0x61a
801025a6:	6878      	ldr	r0, [r7, #4]
801025a8:	f7ff f888 	bl	801016bc <USDHC_SendCommand>
801025ac:	62f8      	str	r0, [r7, #44]	; 0x2c
801025ae:	6afb      	ldr	r3, [r7, #44]	; 0x2c
801025b0:	2b00      	cmp	r3, #0
801025b2:	da01      	bge.n	801025b8 <sd_init+0x474>
801025b4:	6afb      	ldr	r3, [r7, #44]	; 0x2c
801025b6:	e02c      	b.n	80102612 <sd_init+0x4ce>
801025b8:	687b      	ldr	r3, [r7, #4]
801025ba:	6a9b      	ldr	r3, [r3, #40]	; 0x28
801025bc:	f023 0306 	bic.w	r3, r3, #6
801025c0:	f043 0202 	orr.w	r2, r3, #2
801025c4:	687b      	ldr	r3, [r7, #4]
801025c6:	629a      	str	r2, [r3, #40]	; 0x28
801025c8:	f44f 7200 	mov.w	r2, #512	; 0x200
801025cc:	f241 011a 	movw	r1, #4122	; 0x101a
801025d0:	6878      	ldr	r0, [r7, #4]
801025d2:	f7ff f873 	bl	801016bc <USDHC_SendCommand>
801025d6:	62f8      	str	r0, [r7, #44]	; 0x2c
801025d8:	6afb      	ldr	r3, [r7, #44]	; 0x2c
801025da:	2b00      	cmp	r3, #0
801025dc:	da01      	bge.n	801025e2 <sd_init+0x49e>
801025de:	6afb      	ldr	r3, [r7, #44]	; 0x2c
801025e0:	e017      	b.n	80102612 <sd_init+0x4ce>
801025e2:	6878      	ldr	r0, [r7, #4]
801025e4:	f7ff fd1c 	bl	80102020 <SD_SelectBusTiming>
801025e8:	4603      	mov	r3, r0
801025ea:	2b00      	cmp	r3, #0
801025ec:	d110      	bne.n	80102610 <sd_init+0x4cc>
801025ee:	f24f 0280 	movw	r2, #61568	; 0xf080
801025f2:	f2c0 22fa 	movt	r2, #762	; 0x2fa
801025f6:	f44f 41f6 	mov.w	r1, #31488	; 0x7b00
801025fa:	f2c1 719a 	movt	r1, #6042	; 0x179a
801025fe:	6878      	ldr	r0, [r7, #4]
80102600:	f7ff f96d 	bl	801018de <USDHC_SetSdClock>
80102604:	4602      	mov	r2, r0
80102606:	f644 0300 	movw	r3, #18432	; 0x4800
8010260a:	f2c8 0310 	movt	r3, #32784	; 0x8010
8010260e:	605a      	str	r2, [r3, #4]
80102610:	2300      	movs	r3, #0
80102612:	4618      	mov	r0, r3
80102614:	3730      	adds	r7, #48	; 0x30
80102616:	46bd      	mov	sp, r7
80102618:	bd80      	pop	{r7, pc}
8010261a:	bf00      	nop
8010261c:	80104814 	andshi	r4, r0, r4, lsl r8
80102620:	80104824 	andshi	r4, r0, r4, lsr #16
80102624:	80104834 	andshi	r4, r0, r4, lsr r8

80102628 <SD_WaitReadWriteComplete>:
80102628:	b580      	push	{r7, lr}
8010262a:	b084      	sub	sp, #16
8010262c:	af00      	add	r7, sp, #0
8010262e:	6078      	str	r0, [r7, #4]
80102630:	f644 0300 	movw	r3, #18432	; 0x4800
80102634:	f2c8 0310 	movt	r3, #32784	; 0x8010
80102638:	689b      	ldr	r3, [r3, #8]
8010263a:	041b      	lsls	r3, r3, #16
8010263c:	461a      	mov	r2, r3
8010263e:	f640 511a 	movw	r1, #3354	; 0xd1a
80102642:	6878      	ldr	r0, [r7, #4]
80102644:	f7ff f83a 	bl	801016bc <USDHC_SendCommand>
80102648:	60f8      	str	r0, [r7, #12]
8010264a:	68fb      	ldr	r3, [r7, #12]
8010264c:	2b00      	cmp	r3, #0
8010264e:	db0d      	blt.n	8010266c <SD_WaitReadWriteComplete+0x44>
80102650:	687b      	ldr	r3, [r7, #4]
80102652:	691b      	ldr	r3, [r3, #16]
80102654:	f403 7380 	and.w	r3, r3, #256	; 0x100
80102658:	2b00      	cmp	r3, #0
8010265a:	d0e9      	beq.n	80102630 <SD_WaitReadWriteComplete+0x8>
8010265c:	687b      	ldr	r3, [r7, #4]
8010265e:	691b      	ldr	r3, [r3, #16]
80102660:	0a5b      	lsrs	r3, r3, #9
80102662:	f003 030f 	and.w	r3, r3, #15
80102666:	2b07      	cmp	r3, #7
80102668:	d102      	bne.n	80102670 <SD_WaitReadWriteComplete+0x48>
8010266a:	e7e1      	b.n	80102630 <SD_WaitReadWriteComplete+0x8>
8010266c:	bf00      	nop
8010266e:	e000      	b.n	80102672 <SD_WaitReadWriteComplete+0x4a>
80102670:	bf00      	nop
80102672:	687b      	ldr	r3, [r7, #4]
80102674:	691b      	ldr	r3, [r3, #16]
80102676:	4618      	mov	r0, r3
80102678:	3710      	adds	r7, #16
8010267a:	46bd      	mov	sp, r7
8010267c:	bd80      	pop	{r7, pc}

8010267e <sd_read_blocks>:
8010267e:	b580      	push	{r7, lr}
80102680:	b086      	sub	sp, #24
80102682:	af00      	add	r7, sp, #0
80102684:	60f8      	str	r0, [r7, #12]
80102686:	60b9      	str	r1, [r7, #8]
80102688:	607a      	str	r2, [r7, #4]
8010268a:	603b      	str	r3, [r7, #0]
8010268c:	2300      	movs	r3, #0
8010268e:	617b      	str	r3, [r7, #20]
80102690:	bf00      	nop
80102692:	68fb      	ldr	r3, [r7, #12]
80102694:	6a5b      	ldr	r3, [r3, #36]	; 0x24
80102696:	f003 0301 	and.w	r3, r3, #1
8010269a:	2b00      	cmp	r3, #0
8010269c:	d1f9      	bne.n	80102692 <sd_read_blocks+0x14>
8010269e:	bf00      	nop
801026a0:	68fb      	ldr	r3, [r7, #12]
801026a2:	6a5b      	ldr	r3, [r3, #36]	; 0x24
801026a4:	f003 0302 	and.w	r3, r3, #2
801026a8:	2b00      	cmp	r3, #0
801026aa:	d1f9      	bne.n	801026a0 <sd_read_blocks+0x22>
801026ac:	683b      	ldr	r3, [r7, #0]
801026ae:	025b      	lsls	r3, r3, #9
801026b0:	4619      	mov	r1, r3
801026b2:	68b8      	ldr	r0, [r7, #8]
801026b4:	f7fe ff14 	bl	801014e0 <USDHC_CreateDescTable>
801026b8:	68fb      	ldr	r3, [r7, #12]
801026ba:	2200      	movs	r2, #0
801026bc:	601a      	str	r2, [r3, #0]
801026be:	f644 03a0 	movw	r3, #18592	; 0x48a0
801026c2:	f2c8 0310 	movt	r3, #32784	; 0x8010
801026c6:	68fa      	ldr	r2, [r7, #12]
801026c8:	6593      	str	r3, [r2, #88]	; 0x58
801026ca:	683b      	ldr	r3, [r7, #0]
801026cc:	041b      	lsls	r3, r3, #16
801026ce:	f443 7200 	orr.w	r2, r3, #512	; 0x200
801026d2:	68fb      	ldr	r3, [r7, #12]
801026d4:	605a      	str	r2, [r3, #4]
801026d6:	68fb      	ldr	r3, [r7, #12]
801026d8:	f8d3 30c0 	ldr.w	r3, [r3, #192]	; 0xc0
801026dc:	f023 0201 	bic.w	r2, r3, #1
801026e0:	68fb      	ldr	r3, [r7, #12]
801026e2:	f8c3 20c0 	str.w	r2, [r3, #192]	; 0xc0
801026e6:	68fb      	ldr	r3, [r7, #12]
801026e8:	6a9b      	ldr	r3, [r3, #40]	; 0x28
801026ea:	f023 5360 	bic.w	r3, r3, #939524096	; 0x38000000
801026ee:	f423 7340 	bic.w	r3, r3, #768	; 0x300
801026f2:	68fa      	ldr	r2, [r7, #12]
801026f4:	6293      	str	r3, [r2, #40]	; 0x28
801026f6:	68fb      	ldr	r3, [r7, #12]
801026f8:	6a9b      	ldr	r3, [r3, #40]	; 0x28
801026fa:	f043 6300 	orr.w	r3, r3, #134217728	; 0x8000000
801026fe:	f443 7300 	orr.w	r3, r3, #512	; 0x200
80102702:	68fa      	ldr	r2, [r7, #12]
80102704:	6293      	str	r3, [r2, #40]	; 0x28
80102706:	683b      	ldr	r3, [r7, #0]
80102708:	2b01      	cmp	r3, #1
8010270a:	d114      	bne.n	80102736 <sd_read_blocks+0xb8>
8010270c:	68fb      	ldr	r3, [r7, #12]
8010270e:	6c9b      	ldr	r3, [r3, #72]	; 0x48
80102710:	f023 0237 	bic.w	r2, r3, #55	; 0x37
80102714:	68fb      	ldr	r3, [r7, #12]
80102716:	649a      	str	r2, [r3, #72]	; 0x48
80102718:	68fb      	ldr	r3, [r7, #12]
8010271a:	6c9b      	ldr	r3, [r3, #72]	; 0x48
8010271c:	f043 0211 	orr.w	r2, r3, #17
80102720:	68fb      	ldr	r3, [r7, #12]
80102722:	649a      	str	r2, [r3, #72]	; 0x48
80102724:	68fb      	ldr	r3, [r7, #12]
80102726:	687a      	ldr	r2, [r7, #4]
80102728:	609a      	str	r2, [r3, #8]
8010272a:	68fa      	ldr	r2, [r7, #12]
8010272c:	2300      	movs	r3, #0
8010272e:	f2c1 133a 	movt	r3, #4410	; 0x113a
80102732:	60d3      	str	r3, [r2, #12]
80102734:	e013      	b.n	8010275e <sd_read_blocks+0xe0>
80102736:	68fb      	ldr	r3, [r7, #12]
80102738:	6c9b      	ldr	r3, [r3, #72]	; 0x48
8010273a:	f023 0237 	bic.w	r2, r3, #55	; 0x37
8010273e:	68fb      	ldr	r3, [r7, #12]
80102740:	649a      	str	r2, [r3, #72]	; 0x48
80102742:	68fb      	ldr	r3, [r7, #12]
80102744:	6c9b      	ldr	r3, [r3, #72]	; 0x48
80102746:	f043 0237 	orr.w	r2, r3, #55	; 0x37
8010274a:	68fb      	ldr	r3, [r7, #12]
8010274c:	649a      	str	r2, [r3, #72]	; 0x48
8010274e:	68fb      	ldr	r3, [r7, #12]
80102750:	687a      	ldr	r2, [r7, #4]
80102752:	609a      	str	r2, [r3, #8]
80102754:	68fa      	ldr	r2, [r7, #12]
80102756:	2300      	movs	r3, #0
80102758:	f2c1 233a 	movt	r3, #4666	; 0x123a
8010275c:	60d3      	str	r3, [r2, #12]
8010275e:	68f8      	ldr	r0, [r7, #12]
80102760:	f7fe ff44 	bl	801015ec <USDHC_WaitCommandDone>
80102764:	6178      	str	r0, [r7, #20]
80102766:	697b      	ldr	r3, [r7, #20]
80102768:	2b00      	cmp	r3, #0
8010276a:	da01      	bge.n	80102770 <sd_read_blocks+0xf2>
8010276c:	697b      	ldr	r3, [r7, #20]
8010276e:	e021      	b.n	801027b4 <sd_read_blocks+0x136>
80102770:	68f8      	ldr	r0, [r7, #12]
80102772:	f7fe ff6f 	bl	80101654 <USDHC_WaitDataDone>
80102776:	6178      	str	r0, [r7, #20]
80102778:	697b      	ldr	r3, [r7, #20]
8010277a:	2b00      	cmp	r3, #0
8010277c:	da01      	bge.n	80102782 <sd_read_blocks+0x104>
8010277e:	697b      	ldr	r3, [r7, #20]
80102780:	e018      	b.n	801027b4 <sd_read_blocks+0x136>
80102782:	68f8      	ldr	r0, [r7, #12]
80102784:	f7ff ff50 	bl	80102628 <SD_WaitReadWriteComplete>
80102788:	6178      	str	r0, [r7, #20]
8010278a:	697a      	ldr	r2, [r7, #20]
8010278c:	2300      	movs	r3, #0
8010278e:	f2cc 0320 	movt	r3, #49184	; 0xc020
80102792:	4013      	ands	r3, r2
80102794:	2b00      	cmp	r3, #0
80102796:	d00c      	beq.n	801027b2 <sd_read_blocks+0x134>
80102798:	f04f 33ff 	mov.w	r3, #4294967295	; 0xffffffff
8010279c:	617b      	str	r3, [r7, #20]
8010279e:	f243 3198 	movw	r1, #13208	; 0x3398
801027a2:	f2c8 0110 	movt	r1, #32784	; 0x8010
801027a6:	f243 3074 	movw	r0, #13172	; 0x3374
801027aa:	f2c8 0010 	movt	r0, #32784	; 0x8010
801027ae:	f7fe fc1c 	bl	80100fea <printf>
801027b2:	697b      	ldr	r3, [r7, #20]
801027b4:	4618      	mov	r0, r3
801027b6:	3718      	adds	r7, #24
801027b8:	46bd      	mov	sp, r7
801027ba:	bd80      	pop	{r7, pc}

801027bc <sd_write_blocks>:
801027bc:	b580      	push	{r7, lr}
801027be:	b086      	sub	sp, #24
801027c0:	af00      	add	r7, sp, #0
801027c2:	60f8      	str	r0, [r7, #12]
801027c4:	60b9      	str	r1, [r7, #8]
801027c6:	607a      	str	r2, [r7, #4]
801027c8:	603b      	str	r3, [r7, #0]
801027ca:	2300      	movs	r3, #0
801027cc:	617b      	str	r3, [r7, #20]
801027ce:	bf00      	nop
801027d0:	68fb      	ldr	r3, [r7, #12]
801027d2:	6a5b      	ldr	r3, [r3, #36]	; 0x24
801027d4:	f003 0301 	and.w	r3, r3, #1
801027d8:	2b00      	cmp	r3, #0
801027da:	d1f9      	bne.n	801027d0 <sd_write_blocks+0x14>
801027dc:	bf00      	nop
801027de:	68fb      	ldr	r3, [r7, #12]
801027e0:	6a5b      	ldr	r3, [r3, #36]	; 0x24
801027e2:	f003 0302 	and.w	r3, r3, #2
801027e6:	2b00      	cmp	r3, #0
801027e8:	d1f9      	bne.n	801027de <sd_write_blocks+0x22>
801027ea:	683b      	ldr	r3, [r7, #0]
801027ec:	025b      	lsls	r3, r3, #9
801027ee:	4619      	mov	r1, r3
801027f0:	68b8      	ldr	r0, [r7, #8]
801027f2:	f7fe fe75 	bl	801014e0 <USDHC_CreateDescTable>
801027f6:	68fb      	ldr	r3, [r7, #12]
801027f8:	2200      	movs	r2, #0
801027fa:	601a      	str	r2, [r3, #0]
801027fc:	f644 03a0 	movw	r3, #18592	; 0x48a0
80102800:	f2c8 0310 	movt	r3, #32784	; 0x8010
80102804:	68fa      	ldr	r2, [r7, #12]
80102806:	6593      	str	r3, [r2, #88]	; 0x58
80102808:	683b      	ldr	r3, [r7, #0]
8010280a:	041b      	lsls	r3, r3, #16
8010280c:	f443 7200 	orr.w	r2, r3, #512	; 0x200
80102810:	68fb      	ldr	r3, [r7, #12]
80102812:	605a      	str	r2, [r3, #4]
80102814:	68fb      	ldr	r3, [r7, #12]
80102816:	f8d3 30c0 	ldr.w	r3, [r3, #192]	; 0xc0
8010281a:	f023 0201 	bic.w	r2, r3, #1
8010281e:	68fb      	ldr	r3, [r7, #12]
80102820:	f8c3 20c0 	str.w	r2, [r3, #192]	; 0xc0
80102824:	68fb      	ldr	r3, [r7, #12]
80102826:	6a9b      	ldr	r3, [r3, #40]	; 0x28
80102828:	f023 5360 	bic.w	r3, r3, #939524096	; 0x38000000
8010282c:	f423 7340 	bic.w	r3, r3, #768	; 0x300
80102830:	68fa      	ldr	r2, [r7, #12]
80102832:	6293      	str	r3, [r2, #40]	; 0x28
80102834:	68fb      	ldr	r3, [r7, #12]
80102836:	6a9b      	ldr	r3, [r3, #40]	; 0x28
80102838:	f043 6300 	orr.w	r3, r3, #134217728	; 0x8000000
8010283c:	f443 7300 	orr.w	r3, r3, #512	; 0x200
80102840:	68fa      	ldr	r2, [r7, #12]
80102842:	6293      	str	r3, [r2, #40]	; 0x28
80102844:	683b      	ldr	r3, [r7, #0]
80102846:	2b01      	cmp	r3, #1
80102848:	d114      	bne.n	80102874 <sd_write_blocks+0xb8>
8010284a:	68fb      	ldr	r3, [r7, #12]
8010284c:	6c9b      	ldr	r3, [r3, #72]	; 0x48
8010284e:	f023 0237 	bic.w	r2, r3, #55	; 0x37
80102852:	68fb      	ldr	r3, [r7, #12]
80102854:	649a      	str	r2, [r3, #72]	; 0x48
80102856:	68fb      	ldr	r3, [r7, #12]
80102858:	6c9b      	ldr	r3, [r3, #72]	; 0x48
8010285a:	f043 0201 	orr.w	r2, r3, #1
8010285e:	68fb      	ldr	r3, [r7, #12]
80102860:	649a      	str	r2, [r3, #72]	; 0x48
80102862:	68fb      	ldr	r3, [r7, #12]
80102864:	687a      	ldr	r2, [r7, #4]
80102866:	609a      	str	r2, [r3, #8]
80102868:	68fa      	ldr	r2, [r7, #12]
8010286a:	2300      	movs	r3, #0
8010286c:	f6c1 033a 	movt	r3, #6202	; 0x183a
80102870:	60d3      	str	r3, [r2, #12]
80102872:	e013      	b.n	8010289c <sd_write_blocks+0xe0>
80102874:	68fb      	ldr	r3, [r7, #12]
80102876:	6c9b      	ldr	r3, [r3, #72]	; 0x48
80102878:	f023 0237 	bic.w	r2, r3, #55	; 0x37
8010287c:	68fb      	ldr	r3, [r7, #12]
8010287e:	649a      	str	r2, [r3, #72]	; 0x48
80102880:	68fb      	ldr	r3, [r7, #12]
80102882:	6c9b      	ldr	r3, [r3, #72]	; 0x48
80102884:	f043 0227 	orr.w	r2, r3, #39	; 0x27
80102888:	68fb      	ldr	r3, [r7, #12]
8010288a:	649a      	str	r2, [r3, #72]	; 0x48
8010288c:	68fb      	ldr	r3, [r7, #12]
8010288e:	687a      	ldr	r2, [r7, #4]
80102890:	609a      	str	r2, [r3, #8]
80102892:	68fa      	ldr	r2, [r7, #12]
80102894:	2300      	movs	r3, #0
80102896:	f6c1 133a 	movt	r3, #6458	; 0x193a
8010289a:	60d3      	str	r3, [r2, #12]
8010289c:	68f8      	ldr	r0, [r7, #12]
8010289e:	f7fe fea5 	bl	801015ec <USDHC_WaitCommandDone>
801028a2:	6178      	str	r0, [r7, #20]
801028a4:	697b      	ldr	r3, [r7, #20]
801028a6:	2b00      	cmp	r3, #0
801028a8:	da01      	bge.n	801028ae <sd_write_blocks+0xf2>
801028aa:	697b      	ldr	r3, [r7, #20]
801028ac:	e01f      	b.n	801028ee <sd_write_blocks+0x132>
801028ae:	68f8      	ldr	r0, [r7, #12]
801028b0:	f7fe fed0 	bl	80101654 <USDHC_WaitDataDone>
801028b4:	6178      	str	r0, [r7, #20]
801028b6:	697b      	ldr	r3, [r7, #20]
801028b8:	2b00      	cmp	r3, #0
801028ba:	da01      	bge.n	801028c0 <sd_write_blocks+0x104>
801028bc:	697b      	ldr	r3, [r7, #20]
801028be:	e016      	b.n	801028ee <sd_write_blocks+0x132>
801028c0:	68f8      	ldr	r0, [r7, #12]
801028c2:	f7ff feb1 	bl	80102628 <SD_WaitReadWriteComplete>
801028c6:	6178      	str	r0, [r7, #20]
801028c8:	697b      	ldr	r3, [r7, #20]
801028ca:	f003 4364 	and.w	r3, r3, #3825205248	; 0xe4000000
801028ce:	2b00      	cmp	r3, #0
801028d0:	d00c      	beq.n	801028ec <sd_write_blocks+0x130>
801028d2:	f04f 33ff 	mov.w	r3, #4294967295	; 0xffffffff
801028d6:	617b      	str	r3, [r7, #20]
801028d8:	f243 31a8 	movw	r1, #13224	; 0x33a8
801028dc:	f2c8 0110 	movt	r1, #32784	; 0x8010
801028e0:	f243 3084 	movw	r0, #13188	; 0x3384
801028e4:	f2c8 0010 	movt	r0, #32784	; 0x8010
801028e8:	f7fe fb7f 	bl	80100fea <printf>
801028ec:	697b      	ldr	r3, [r7, #20]
801028ee:	4618      	mov	r0, r3
801028f0:	3718      	adds	r7, #24
801028f2:	46bd      	mov	sp, r7
801028f4:	bd80      	pop	{r7, pc}
801028f6:	bf00      	nop

801028f8 <__aeabi_uidiv>:
801028f8:	1e4a      	subs	r2, r1, #1
801028fa:	bf08      	it	eq
801028fc:	4770      	bxeq	lr
801028fe:	f0c0 8124 	bcc.w	80102b4a <__aeabi_uidiv+0x252>
80102902:	4288      	cmp	r0, r1
80102904:	f240 8116 	bls.w	80102b34 <__aeabi_uidiv+0x23c>
80102908:	4211      	tst	r1, r2
8010290a:	f000 8117 	beq.w	80102b3c <__aeabi_uidiv+0x244>
8010290e:	fab0 f380 	clz	r3, r0
80102912:	fab1 f281 	clz	r2, r1
80102916:	eba2 0303 	sub.w	r3, r2, r3
8010291a:	f1c3 031f 	rsb	r3, r3, #31
8010291e:	a204      	add	r2, pc, #16	; (adr r2, 80102930 <__aeabi_uidiv+0x38>)
80102920:	eb02 1303 	add.w	r3, r2, r3, lsl #4
80102924:	f04f 0200 	mov.w	r2, #0
80102928:	469f      	mov	pc, r3
8010292a:	bf00      	nop
8010292c:	f3af 8000 	nop.w
80102930:	ebb0 7fc1 	cmp.w	r0, r1, lsl #31
80102934:	bf00      	nop
80102936:	eb42 0202 	adc.w	r2, r2, r2
8010293a:	bf28      	it	cs
8010293c:	eba0 70c1 	subcs.w	r0, r0, r1, lsl #31
80102940:	ebb0 7f81 	cmp.w	r0, r1, lsl #30
80102944:	bf00      	nop
80102946:	eb42 0202 	adc.w	r2, r2, r2
8010294a:	bf28      	it	cs
8010294c:	eba0 7081 	subcs.w	r0, r0, r1, lsl #30
80102950:	ebb0 7f41 	cmp.w	r0, r1, lsl #29
80102954:	bf00      	nop
80102956:	eb42 0202 	adc.w	r2, r2, r2
8010295a:	bf28      	it	cs
8010295c:	eba0 7041 	subcs.w	r0, r0, r1, lsl #29
80102960:	ebb0 7f01 	cmp.w	r0, r1, lsl #28
80102964:	bf00      	nop
80102966:	eb42 0202 	adc.w	r2, r2, r2
8010296a:	bf28      	it	cs
8010296c:	eba0 7001 	subcs.w	r0, r0, r1, lsl #28
80102970:	ebb0 6fc1 	cmp.w	r0, r1, lsl #27
80102974:	bf00      	nop
80102976:	eb42 0202 	adc.w	r2, r2, r2
8010297a:	bf28      	it	cs
8010297c:	eba0 60c1 	subcs.w	r0, r0, r1, lsl #27
80102980:	ebb0 6f81 	cmp.w	r0, r1, lsl #26
80102984:	bf00      	nop
80102986:	eb42 0202 	adc.w	r2, r2, r2
8010298a:	bf28      	it	cs
8010298c:	eba0 6081 	subcs.w	r0, r0, r1, lsl #26
80102990:	ebb0 6f41 	cmp.w	r0, r1, lsl #25
80102994:	bf00      	nop
80102996:	eb42 0202 	adc.w	r2, r2, r2
8010299a:	bf28      	it	cs
8010299c:	eba0 6041 	subcs.w	r0, r0, r1, lsl #25
801029a0:	ebb0 6f01 	cmp.w	r0, r1, lsl #24
801029a4:	bf00      	nop
801029a6:	eb42 0202 	adc.w	r2, r2, r2
801029aa:	bf28      	it	cs
801029ac:	eba0 6001 	subcs.w	r0, r0, r1, lsl #24
801029b0:	ebb0 5fc1 	cmp.w	r0, r1, lsl #23
801029b4:	bf00      	nop
801029b6:	eb42 0202 	adc.w	r2, r2, r2
801029ba:	bf28      	it	cs
801029bc:	eba0 50c1 	subcs.w	r0, r0, r1, lsl #23
801029c0:	ebb0 5f81 	cmp.w	r0, r1, lsl #22
801029c4:	bf00      	nop
801029c6:	eb42 0202 	adc.w	r2, r2, r2
801029ca:	bf28      	it	cs
801029cc:	eba0 5081 	subcs.w	r0, r0, r1, lsl #22
801029d0:	ebb0 5f41 	cmp.w	r0, r1, lsl #21
801029d4:	bf00      	nop
801029d6:	eb42 0202 	adc.w	r2, r2, r2
801029da:	bf28      	it	cs
801029dc:	eba0 5041 	subcs.w	r0, r0, r1, lsl #21
801029e0:	ebb0 5f01 	cmp.w	r0, r1, lsl #20
801029e4:	bf00      	nop
801029e6:	eb42 0202 	adc.w	r2, r2, r2
801029ea:	bf28      	it	cs
801029ec:	eba0 5001 	subcs.w	r0, r0, r1, lsl #20
801029f0:	ebb0 4fc1 	cmp.w	r0, r1, lsl #19
801029f4:	bf00      	nop
801029f6:	eb42 0202 	adc.w	r2, r2, r2
801029fa:	bf28      	it	cs
801029fc:	eba0 40c1 	subcs.w	r0, r0, r1, lsl #19
80102a00:	ebb0 4f81 	cmp.w	r0, r1, lsl #18
80102a04:	bf00      	nop
80102a06:	eb42 0202 	adc.w	r2, r2, r2
80102a0a:	bf28      	it	cs
80102a0c:	eba0 4081 	subcs.w	r0, r0, r1, lsl #18
80102a10:	ebb0 4f41 	cmp.w	r0, r1, lsl #17
80102a14:	bf00      	nop
80102a16:	eb42 0202 	adc.w	r2, r2, r2
80102a1a:	bf28      	it	cs
80102a1c:	eba0 4041 	subcs.w	r0, r0, r1, lsl #17
80102a20:	ebb0 4f01 	cmp.w	r0, r1, lsl #16
80102a24:	bf00      	nop
80102a26:	eb42 0202 	adc.w	r2, r2, r2
80102a2a:	bf28      	it	cs
80102a2c:	eba0 4001 	subcs.w	r0, r0, r1, lsl #16
80102a30:	ebb0 3fc1 	cmp.w	r0, r1, lsl #15
80102a34:	bf00      	nop
80102a36:	eb42 0202 	adc.w	r2, r2, r2
80102a3a:	bf28      	it	cs
80102a3c:	eba0 30c1 	subcs.w	r0, r0, r1, lsl #15
80102a40:	ebb0 3f81 	cmp.w	r0, r1, lsl #14
80102a44:	bf00      	nop
80102a46:	eb42 0202 	adc.w	r2, r2, r2
80102a4a:	bf28      	it	cs
80102a4c:	eba0 3081 	subcs.w	r0, r0, r1, lsl #14
80102a50:	ebb0 3f41 	cmp.w	r0, r1, lsl #13
80102a54:	bf00      	nop
80102a56:	eb42 0202 	adc.w	r2, r2, r2
80102a5a:	bf28      	it	cs
80102a5c:	eba0 3041 	subcs.w	r0, r0, r1, lsl #13
80102a60:	ebb0 3f01 	cmp.w	r0, r1, lsl #12
80102a64:	bf00      	nop
80102a66:	eb42 0202 	adc.w	r2, r2, r2
80102a6a:	bf28      	it	cs
80102a6c:	eba0 3001 	subcs.w	r0, r0, r1, lsl #12
80102a70:	ebb0 2fc1 	cmp.w	r0, r1, lsl #11
80102a74:	bf00      	nop
80102a76:	eb42 0202 	adc.w	r2, r2, r2
80102a7a:	bf28      	it	cs
80102a7c:	eba0 20c1 	subcs.w	r0, r0, r1, lsl #11
80102a80:	ebb0 2f81 	cmp.w	r0, r1, lsl #10
80102a84:	bf00      	nop
80102a86:	eb42 0202 	adc.w	r2, r2, r2
80102a8a:	bf28      	it	cs
80102a8c:	eba0 2081 	subcs.w	r0, r0, r1, lsl #10
80102a90:	ebb0 2f41 	cmp.w	r0, r1, lsl #9
80102a94:	bf00      	nop
80102a96:	eb42 0202 	adc.w	r2, r2, r2
80102a9a:	bf28      	it	cs
80102a9c:	eba0 2041 	subcs.w	r0, r0, r1, lsl #9
80102aa0:	ebb0 2f01 	cmp.w	r0, r1, lsl #8
80102aa4:	bf00      	nop
80102aa6:	eb42 0202 	adc.w	r2, r2, r2
80102aaa:	bf28      	it	cs
80102aac:	eba0 2001 	subcs.w	r0, r0, r1, lsl #8
80102ab0:	ebb0 1fc1 	cmp.w	r0, r1, lsl #7
80102ab4:	bf00      	nop
80102ab6:	eb42 0202 	adc.w	r2, r2, r2
80102aba:	bf28      	it	cs
80102abc:	eba0 10c1 	subcs.w	r0, r0, r1, lsl #7
80102ac0:	ebb0 1f81 	cmp.w	r0, r1, lsl #6
80102ac4:	bf00      	nop
80102ac6:	eb42 0202 	adc.w	r2, r2, r2
80102aca:	bf28      	it	cs
80102acc:	eba0 1081 	subcs.w	r0, r0, r1, lsl #6
80102ad0:	ebb0 1f41 	cmp.w	r0, r1, lsl #5
80102ad4:	bf00      	nop
80102ad6:	eb42 0202 	adc.w	r2, r2, r2
80102ada:	bf28      	it	cs
80102adc:	eba0 1041 	subcs.w	r0, r0, r1, lsl #5
80102ae0:	ebb0 1f01 	cmp.w	r0, r1, lsl #4
80102ae4:	bf00      	nop
80102ae6:	eb42 0202 	adc.w	r2, r2, r2
80102aea:	bf28      	it	cs
80102aec:	eba0 1001 	subcs.w	r0, r0, r1, lsl #4
80102af0:	ebb0 0fc1 	cmp.w	r0, r1, lsl #3
80102af4:	bf00      	nop
80102af6:	eb42 0202 	adc.w	r2, r2, r2
80102afa:	bf28      	it	cs
80102afc:	eba0 00c1 	subcs.w	r0, r0, r1, lsl #3
80102b00:	ebb0 0f81 	cmp.w	r0, r1, lsl #2
80102b04:	bf00      	nop
80102b06:	eb42 0202 	adc.w	r2, r2, r2
80102b0a:	bf28      	it	cs
80102b0c:	eba0 0081 	subcs.w	r0, r0, r1, lsl #2
80102b10:	ebb0 0f41 	cmp.w	r0, r1, lsl #1
80102b14:	bf00      	nop
80102b16:	eb42 0202 	adc.w	r2, r2, r2
80102b1a:	bf28      	it	cs
80102b1c:	eba0 0041 	subcs.w	r0, r0, r1, lsl #1
80102b20:	ebb0 0f01 	cmp.w	r0, r1
80102b24:	bf00      	nop
80102b26:	eb42 0202 	adc.w	r2, r2, r2
80102b2a:	bf28      	it	cs
80102b2c:	eba0 0001 	subcs.w	r0, r0, r1
80102b30:	4610      	mov	r0, r2
80102b32:	4770      	bx	lr
80102b34:	bf0c      	ite	eq
80102b36:	2001      	moveq	r0, #1
80102b38:	2000      	movne	r0, #0
80102b3a:	4770      	bx	lr
80102b3c:	fab1 f281 	clz	r2, r1
80102b40:	f1c2 021f 	rsb	r2, r2, #31
80102b44:	fa20 f002 	lsr.w	r0, r0, r2
80102b48:	4770      	bx	lr
80102b4a:	b108      	cbz	r0, 80102b50 <__aeabi_uidiv+0x258>
80102b4c:	f04f 30ff 	mov.w	r0, #4294967295	; 0xffffffff
80102b50:	f000 b826 	b.w	80102ba0 <__aeabi_idiv0>

80102b54 <__aeabi_uidivmod>:
80102b54:	2900      	cmp	r1, #0
80102b56:	d0f8      	beq.n	80102b4a <__aeabi_uidiv+0x252>
80102b58:	e92d 4003 	stmdb	sp!, {r0, r1, lr}
80102b5c:	f7ff fecc 	bl	801028f8 <__aeabi_uidiv>
80102b60:	e8bd 4006 	ldmia.w	sp!, {r1, r2, lr}
80102b64:	fb02 f300 	mul.w	r3, r2, r0
80102b68:	eba1 0103 	sub.w	r1, r1, r3
80102b6c:	4770      	bx	lr
80102b6e:	bf00      	nop

80102b70 <__aeabi_uldivmod>:
80102b70:	b953      	cbnz	r3, 80102b88 <__aeabi_uldivmod+0x18>
80102b72:	b94a      	cbnz	r2, 80102b88 <__aeabi_uldivmod+0x18>
80102b74:	2900      	cmp	r1, #0
80102b76:	bf08      	it	eq
80102b78:	2800      	cmpeq	r0, #0
80102b7a:	bf1c      	itt	ne
80102b7c:	f04f 31ff 	movne.w	r1, #4294967295	; 0xffffffff
80102b80:	f04f 30ff 	movne.w	r0, #4294967295	; 0xffffffff
80102b84:	f000 b80c 	b.w	80102ba0 <__aeabi_idiv0>
80102b88:	f1ad 0c08 	sub.w	ip, sp, #8
80102b8c:	e96d ce04 	strd	ip, lr, [sp, #-16]!
80102b90:	f000 f80c 	bl	80102bac <__udivmoddi4>
80102b94:	f8dd e004 	ldr.w	lr, [sp, #4]
80102b98:	e9dd 2302 	ldrd	r2, r3, [sp, #8]
80102b9c:	b004      	add	sp, #16
80102b9e:	4770      	bx	lr

80102ba0 <__aeabi_idiv0>:
80102ba0:	b502      	push	{r1, lr}
80102ba2:	f04f 0008 	mov.w	r0, #8
80102ba6:	f7fe f8a9 	bl	80100cfc <raise>
80102baa:	bd02      	pop	{r1, pc}

80102bac <__udivmoddi4>:
80102bac:	4299      	cmp	r1, r3
80102bae:	e92d 47f0 	stmdb	sp!, {r4, r5, r6, r7, r8, r9, sl, lr}
80102bb2:	bf08      	it	eq
80102bb4:	4290      	cmpeq	r0, r2
80102bb6:	4604      	mov	r4, r0
80102bb8:	460d      	mov	r5, r1
80102bba:	bf38      	it	cc
80102bbc:	2000      	movcc	r0, #0
80102bbe:	f8dd a020 	ldr.w	sl, [sp, #32]
80102bc2:	bf38      	it	cc
80102bc4:	2100      	movcc	r1, #0
80102bc6:	d369      	bcc.n	80102c9c <__udivmoddi4+0xf0>
80102bc8:	fab3 f683 	clz	r6, r3
80102bcc:	2b00      	cmp	r3, #0
80102bce:	d070      	beq.n	80102cb2 <__udivmoddi4+0x106>
80102bd0:	fab5 f185 	clz	r1, r5
80102bd4:	2d00      	cmp	r5, #0
80102bd6:	d068      	beq.n	80102caa <__udivmoddi4+0xfe>
80102bd8:	1a76      	subs	r6, r6, r1
80102bda:	f1a6 0e20 	sub.w	lr, r6, #32
80102bde:	fa03 f906 	lsl.w	r9, r3, r6
80102be2:	fa02 f10e 	lsl.w	r1, r2, lr
80102be6:	f1c6 0720 	rsb	r7, r6, #32
80102bea:	fa22 f307 	lsr.w	r3, r2, r7
80102bee:	fa02 f806 	lsl.w	r8, r2, r6
80102bf2:	ea49 0901 	orr.w	r9, r9, r1
80102bf6:	ea49 0903 	orr.w	r9, r9, r3
80102bfa:	454d      	cmp	r5, r9
80102bfc:	bf08      	it	eq
80102bfe:	4544      	cmpeq	r4, r8
80102c00:	bf3c      	itt	cc
80102c02:	2000      	movcc	r0, #0
80102c04:	2100      	movcc	r1, #0
80102c06:	d30c      	bcc.n	80102c22 <__udivmoddi4+0x76>
80102c08:	2301      	movs	r3, #1
80102c0a:	ebb4 0408 	subs.w	r4, r4, r8
80102c0e:	fa03 f10e 	lsl.w	r1, r3, lr
80102c12:	fa23 f207 	lsr.w	r2, r3, r7
80102c16:	fa03 f006 	lsl.w	r0, r3, r6
80102c1a:	ea41 0102 	orr.w	r1, r1, r2
80102c1e:	eb65 0509 	sbc.w	r5, r5, r9
80102c22:	2e00      	cmp	r6, #0
80102c24:	d03a      	beq.n	80102c9c <__udivmoddi4+0xf0>
80102c26:	ea5f 0959 	movs.w	r9, r9, lsr #1
80102c2a:	ea4f 0838 	mov.w	r8, r8, rrx
80102c2e:	46b4      	mov	ip, r6
80102c30:	e00b      	b.n	80102c4a <__udivmoddi4+0x9e>
80102c32:	ebb4 0408 	subs.w	r4, r4, r8
80102c36:	eb65 0509 	sbc.w	r5, r5, r9
80102c3a:	1924      	adds	r4, r4, r4
80102c3c:	416d      	adcs	r5, r5
80102c3e:	3401      	adds	r4, #1
80102c40:	f145 0500 	adc.w	r5, r5, #0
80102c44:	f1bc 0c01 	subs.w	ip, ip, #1
80102c48:	d008      	beq.n	80102c5c <__udivmoddi4+0xb0>
80102c4a:	454d      	cmp	r5, r9
80102c4c:	bf08      	it	eq
80102c4e:	4544      	cmpeq	r4, r8
80102c50:	d2ef      	bcs.n	80102c32 <__udivmoddi4+0x86>
80102c52:	1924      	adds	r4, r4, r4
80102c54:	416d      	adcs	r5, r5
80102c56:	f1bc 0c01 	subs.w	ip, ip, #1
80102c5a:	d1f6      	bne.n	80102c4a <__udivmoddi4+0x9e>
80102c5c:	fa05 f707 	lsl.w	r7, r5, r7
80102c60:	fa24 f306 	lsr.w	r3, r4, r6
80102c64:	fa25 fe0e 	lsr.w	lr, r5, lr
80102c68:	fa25 fc06 	lsr.w	ip, r5, r6
80102c6c:	433b      	orrs	r3, r7
80102c6e:	1900      	adds	r0, r0, r4
80102c70:	ea43 040e 	orr.w	r4, r3, lr
80102c74:	f1a6 0e20 	sub.w	lr, r6, #32
80102c78:	fa0c f306 	lsl.w	r3, ip, r6
80102c7c:	fa04 fe0e 	lsl.w	lr, r4, lr
80102c80:	fa04 f206 	lsl.w	r2, r4, r6
80102c84:	f1c6 0720 	rsb	r7, r6, #32
80102c88:	fa24 f707 	lsr.w	r7, r4, r7
80102c8c:	ea43 030e 	orr.w	r3, r3, lr
80102c90:	4169      	adcs	r1, r5
80102c92:	433b      	orrs	r3, r7
80102c94:	1a80      	subs	r0, r0, r2
80102c96:	4665      	mov	r5, ip
80102c98:	eb61 0103 	sbc.w	r1, r1, r3
80102c9c:	f1ba 0f00 	cmp.w	sl, #0
80102ca0:	d001      	beq.n	80102ca6 <__udivmoddi4+0xfa>
80102ca2:	e9ca 4500 	strd	r4, r5, [sl]
80102ca6:	e8bd 87f0 	ldmia.w	sp!, {r4, r5, r6, r7, r8, r9, sl, pc}
80102caa:	fab4 f184 	clz	r1, r4
80102cae:	3120      	adds	r1, #32
80102cb0:	e792      	b.n	80102bd8 <__udivmoddi4+0x2c>
80102cb2:	fab2 f682 	clz	r6, r2
80102cb6:	fab5 f185 	clz	r1, r5
80102cba:	3620      	adds	r6, #32
80102cbc:	2d00      	cmp	r5, #0
80102cbe:	d18b      	bne.n	80102bd8 <__udivmoddi4+0x2c>
80102cc0:	e7f3      	b.n	80102caa <__udivmoddi4+0xfe>
80102cc2:	bf00      	nop

Disassembly of section .rodata:

80102cc4 <.LC0>:
80102cc4:	6c6c6568 	cfstr64vs	mvdx6, [ip], #-416	; 0xfffffe60
80102cc8:	6f77206f 	svcvs	0x0077206f
80102ccc:	0d646c72 	stcleq	12, cr6, [r4, #-456]!	; 0xfffffe38
80102cd0:	0000000a 	andeq	r0, r0, sl

80102cd4 <.LC1>:
80102cd4:	61656c70 	smcvs	22208	; 0x56c0
80102cd8:	69206573 	stmdbvs	r0!, {r0, r1, r4, r5, r6, r8, sl, sp, lr}
80102cdc:	7265736e 	rsbvc	r7, r5, #-1207959551	; 0xb8000001
80102ce0:	64732074 	ldrbtvs	r2, [r3], #-116	; 0xffffff8c
80102ce4:	72616320 	rsbvc	r6, r1, #32, 6	; 0x80000000
80102ce8:	69662064 	stmdbvs	r6!, {r2, r5, r6, sp}^
80102cec:	2c747372 	ldclcs	3, cr7, [r4], #-456	; 0xfffffe38
80102cf0:	65687420 	strbvs	r7, [r8, #-1056]!	; 0xfffffbe0
80102cf4:	6e65206e 	cdpvs	0, 6, cr2, cr5, cr14, {3}
80102cf8:	20726574 	rsbscs	r6, r2, r4, ror r5
80102cfc:	0d276327 	stceq	3, cr6, [r7, #-156]!	; 0xffffff64
80102d00:	0000000a 	andeq	r0, r0, sl

80102d04 <.LC2>:
80102d04:	72617473 	rsbvc	r7, r1, #1929379840	; 0x73000000
80102d08:	65742074 	ldrbvs	r2, [r4, #-116]!	; 0xffffff8c
80102d0c:	73207473 			; <UNDEFINED> instruction: 0x73207473
80102d10:	000a0d64 	andeq	r0, sl, r4, ror #26

80102d14 <.LC3>:
80102d14:	74736574 	ldrbtvc	r6, [r3], #-1396	; 0xfffffa8c
80102d18:	20647320 	rsbcs	r7, r4, r0, lsr #6
80102d1c:	0d646e65 	stcleq	14, cr6, [r4, #-404]!	; 0xfffffe6c
80102d20:	0000000a 	andeq	r0, r0, sl

80102d24 <.LC4>:
80102d24:	00000a0d 	andeq	r0, r0, sp, lsl #20

80102d28 <.LC5>:
80102d28:	78323025 	ldmdavc	r2!, {r0, r2, r5, ip, sp}
80102d2c:	00000020 	andeq	r0, r0, r0, lsr #32

80102d30 <.LC0>:
80102d30:	73696854 	cmnvc	r9, #84, 16	; 0x540000
80102d34:	20736920 	rsbscs	r6, r3, r0, lsr #18
80102d38:	2e777777 	mrccs	7, 3, r7, cr7, cr7, {3}
80102d3c:	61303031 	teqvs	r0, r1, lsr r0
80102d40:	6f2e6b73 	svcvs	0x002e6b73
80102d44:	20206772 	eorcs	r6, r0, r2, ror r7
80102d48:	5f796d20 	svcpl	0x00796d20
80102d4c:	6e697270 	mcrvs	2, 3, r7, cr9, cr0, {3}
80102d50:	74206674 	strtvc	r6, [r0], #-1652	; 0xfffff98c
80102d54:	0a747365 	beq	81e1faf0 <__bss_end+0x1d1b210>
80102d58:	0000000d 	andeq	r0, r0, sp

80102d5c <.LC1>:
80102d5c:	74736574 	ldrbtvc	r6, [r3], #-1396	; 0xfffffa8c
80102d60:	61686320 	cmnvs	r8, r0, lsr #6
80102d64:	20202072 	eorcs	r2, r0, r2, ror r0
80102d68:	20202020 	eorcs	r2, r0, r0, lsr #32
80102d6c:	20202020 	eorcs	r2, r0, r0, lsr #32
80102d70:	2c63253d 	cfstr64cs	mvdx2, [r3], #-244	; 0xffffff0c
80102d74:	0d0a6325 	stceq	3, cr6, [sl, #-148]	; 0xffffff6c
80102d78:	00000000 	andeq	r0, r0, r0

80102d7c <.LC2>:
80102d7c:	74736574 	ldrbtvc	r6, [r3], #-1396	; 0xfffffa8c
80102d80:	63656420 	cmnvs	r5, #32, 8	; 0x20000000
80102d84:	6c616d69 	stclvs	13, cr6, [r1], #-420	; 0xfffffe5c
80102d88:	6d756e20 	ldclvs	14, cr6, [r5, #-128]!	; 0xffffff80
80102d8c:	20726562 	rsbscs	r6, r2, r2, ror #10
80102d90:	0a64253d 	beq	81a0c28c <__bss_end+0x19079ac>
80102d94:	0000000d 	andeq	r0, r0, sp

80102d98 <.LC3>:
80102d98:	74736574 	ldrbtvc	r6, [r3], #-1396	; 0xfffffa8c
80102d9c:	78656820 	stmdavc	r5!, {r5, fp, sp, lr}^
80102da0:	20202020 	eorcs	r2, r0, r0, lsr #32
80102da4:	6d756e20 	ldclvs	14, cr6, [r5, #-128]!	; 0xffffff80
80102da8:	20726562 	rsbscs	r6, r2, r2, ror #10
80102dac:	2578303d 	ldrbcs	r3, [r8, #-61]!	; 0xffffffc3
80102db0:	000d0a78 	andeq	r0, sp, r8, ror sl

80102db4 <.LC4>:
80102db4:	2e777777 	mrccs	7, 3, r7, cr7, cr7, {3}
80102db8:	61303031 	teqvs	r0, r1, lsr r0
80102dbc:	6f2e6b73 	svcvs	0x002e6b73
80102dc0:	00006772 	andeq	r6, r0, r2, ror r7

80102dc4 <.LC5>:
80102dc4:	74736574 	ldrbtvc	r6, [r3], #-1396	; 0xfffffa8c
80102dc8:	72747320 	rsbsvc	r7, r4, #32, 6	; 0x80000000
80102dcc:	20676e69 	rsbcs	r6, r7, r9, ror #28
80102dd0:	20202020 	eorcs	r2, r0, r0, lsr #32
80102dd4:	20202020 	eorcs	r2, r0, r0, lsr #32
80102dd8:	0a73253d 	beq	81dcc2d4 <__bss_end+0x1cc79f4>
80102ddc:	0000000d 	andeq	r0, r0, sp

80102de0 <.LC6>:
80102de0:	3d6d756e 	cfstr64cc	mvdx7, [sp, #-440]!	; 0xfffffe48
80102de4:	64383025 	ldrtvs	r3, [r8], #-37	; 0xffffffdb
80102de8:	00000d0a 	andeq	r0, r0, sl, lsl #26

80102dec <.LC7>:
80102dec:	3d6d756e 	cfstr64cc	mvdx7, [sp, #-440]!	; 0xfffffe48
80102df0:	0a643825 	beq	81a10e8c <__bss_end+0x190c5ac>
80102df4:	0000000d 	andeq	r0, r0, sp

80102df8 <.LC8>:
80102df8:	3d6d756e 	cfstr64cc	mvdx7, [sp, #-440]!	; 0xfffffe48
80102dfc:	30257830 	eorcc	r7, r5, r0, lsr r8
80102e00:	0d0a7838 	stceq	8, cr7, [sl, #-224]	; 0xffffff20
80102e04:	00000000 	andeq	r0, r0, r0

80102e08 <.LC9>:
80102e08:	3d6d756e 	cfstr64cc	mvdx7, [sp, #-440]!	; 0xfffffe48
80102e0c:	38257830 	stmdacc	r5!, {r4, r5, fp, ip, sp, lr}
80102e10:	000d0a78 	andeq	r0, sp, r8, ror sl

80102e14 <.LC10>:
80102e14:	3d6d756e 	cfstr64cc	mvdx7, [sp, #-440]!	; 0xfffffe48
80102e18:	30257830 	eorcc	r7, r5, r0, lsr r8
80102e1c:	0d0a7832 	stceq	8, cr7, [sl, #-200]	; 0xffffff38
80102e20:	00000000 	andeq	r0, r0, r0

80102e24 <.LC11>:
80102e24:	3d6d756e 	cfstr64cc	mvdx7, [sp, #-440]!	; 0xfffffe48
80102e28:	32257830 	eorcc	r7, r5, #48, 16	; 0x300000
80102e2c:	000d0a78 	andeq	r0, sp, r8, ror sl

80102e30 <.LC12>:
80102e30:	3d6d756e 	cfstr64cc	mvdx7, [sp, #-440]!	; 0xfffffe48
80102e34:	64353025 	ldrtvs	r3, [r5], #-37	; 0xffffffdb
80102e38:	00000d0a 	andeq	r0, r0, sl, lsl #26

80102e3c <.LC13>:
80102e3c:	3d6d756e 	cfstr64cc	mvdx7, [sp, #-440]!	; 0xfffffe48
80102e40:	0a643525 	beq	81a102dc <__bss_end+0x190b9fc>
80102e44:	0000000d 	andeq	r0, r0, sp

80102e48 <.LC0>:
80102e48:	415f5344 	cmpmi	pc, r4, asr #6
80102e4c:	20524444 	subscs	r4, r2, r4, asr #8
80102e50:	30207369 	eorcc	r7, r0, r9, ror #6
80102e54:	0d782578 	cfldr64eq	mvdx2, [r8, #-480]!	; 0xfffffe20
80102e58:	0000000a 	andeq	r0, r0, sl

80102e5c <.LC1>:
80102e5c:	5f4b4c42 	svcpl	0x004b4c42
80102e60:	20545441 	subscs	r5, r4, r1, asr #8
80102e64:	30207369 	eorcc	r7, r0, r9, ror #6
80102e68:	0d782578 	cfldr64eq	mvdx2, [r8, #-480]!	; 0xfffffe20
80102e6c:	0000000a 	andeq	r0, r0, sl

80102e70 <.LC2>:
80102e70:	5f444d43 	svcpl	0x00444d43
80102e74:	20475241 	subcs	r5, r7, r1, asr #4
80102e78:	30207369 	eorcc	r7, r0, r9, ror #6
80102e7c:	0d782578 	cfldr64eq	mvdx2, [r8, #-480]!	; 0xfffffe20
80102e80:	0000000a 	andeq	r0, r0, sl

80102e84 <.LC3>:
80102e84:	5f444d43 	svcpl	0x00444d43
80102e88:	5f524658 	svcpl	0x00524658
80102e8c:	20505954 	subscs	r5, r0, r4, asr r9
80102e90:	30207369 	eorcc	r7, r0, r9, ror #6
80102e94:	0d782578 	cfldr64eq	mvdx2, [r8, #-480]!	; 0xfffffe20
80102e98:	0000000a 	andeq	r0, r0, sl

80102e9c <.LC4>:
80102e9c:	5f444d43 	svcpl	0x00444d43
80102ea0:	30505352 	subscc	r5, r0, r2, asr r3
80102ea4:	20736920 	rsbscs	r6, r3, r0, lsr #18
80102ea8:	78257830 	stmdavc	r5!, {r4, r5, fp, ip, sp, lr}
80102eac:	00000a0d 	andeq	r0, r0, sp, lsl #20

80102eb0 <.LC5>:
80102eb0:	5f444d43 	svcpl	0x00444d43
80102eb4:	31505352 	cmpcc	r0, r2, asr r3
80102eb8:	20736920 	rsbscs	r6, r3, r0, lsr #18
80102ebc:	78257830 	stmdavc	r5!, {r4, r5, fp, ip, sp, lr}
80102ec0:	00000a0d 	andeq	r0, r0, sp, lsl #20

80102ec4 <.LC6>:
80102ec4:	5f444d43 	svcpl	0x00444d43
80102ec8:	32505352 	subscc	r5, r0, #1207959553	; 0x48000001
80102ecc:	20736920 	rsbscs	r6, r3, r0, lsr #18
80102ed0:	78257830 	stmdavc	r5!, {r4, r5, fp, ip, sp, lr}
80102ed4:	00000a0d 	andeq	r0, r0, sp, lsl #20

80102ed8 <.LC7>:
80102ed8:	5f444d43 	svcpl	0x00444d43
80102edc:	33505352 	cmpcc	r0, #1207959553	; 0x48000001
80102ee0:	20736920 	rsbscs	r6, r3, r0, lsr #18
80102ee4:	78257830 	stmdavc	r5!, {r4, r5, fp, ip, sp, lr}
80102ee8:	00000a0d 	andeq	r0, r0, sp, lsl #20

80102eec <.LC8>:
80102eec:	41544144 	cmpmi	r4, r4, asr #2
80102ef0:	4655425f 			; <UNDEFINED> instruction: 0x4655425f
80102ef4:	43415f46 	movtmi	r5, #8006	; 0x1f46
80102ef8:	4f505f43 	svcmi	0x00505f43
80102efc:	69205452 	stmdbvs	r0!, {r1, r4, r6, sl, ip, lr}
80102f00:	78302073 	ldmdavc	r0!, {r0, r1, r4, r5, r6, sp}
80102f04:	0a0d7825 	beq	80460fa0 <__bss_end+0x35c6c0>
80102f08:	00000000 	andeq	r0, r0, r0

80102f0c <.LC9>:
80102f0c:	53455250 	movtpl	r5, #21072	; 0x5250
80102f10:	4154535f 	cmpmi	r4, pc, asr r3
80102f14:	69204554 	stmdbvs	r0!, {r2, r4, r6, r8, sl, lr}
80102f18:	78302073 	ldmdavc	r0!, {r0, r1, r4, r5, r6, sp}
80102f1c:	0a0d7825 	beq	80460fb8 <__bss_end+0x35c6d8>
80102f20:	00000000 	andeq	r0, r0, r0

80102f24 <.LC10>:
80102f24:	544f5250 	strbpl	r5, [pc], #-592	; 80102f2c <.LC10+0x8>
80102f28:	5254435f 	subspl	r4, r4, #2080374785	; 0x7c000001
80102f2c:	7369204c 	cmnvc	r9, #76	; 0x4c
80102f30:	25783020 	ldrbcs	r3, [r8, #-32]!	; 0xffffffe0
80102f34:	000a0d78 	andeq	r0, sl, r8, ror sp

80102f38 <.LC11>:
80102f38:	5f535953 	svcpl	0x00535953
80102f3c:	4c525443 	cfldrdmi	mvd5, [r2], {67}	; 0x43
80102f40:	20736920 	rsbscs	r6, r3, r0, lsr #18
80102f44:	78257830 	stmdavc	r5!, {r4, r5, fp, ip, sp, lr}
80102f48:	00000a0d 	andeq	r0, r0, sp, lsl #20

80102f4c <.LC12>:
80102f4c:	5f544e49 	svcpl	0x00544e49
80102f50:	54415453 	strbpl	r5, [r1], #-1107	; 0xfffffbad
80102f54:	69205355 	stmdbvs	r0!, {r0, r2, r4, r6, r8, r9, ip, lr}
80102f58:	78302073 	ldmdavc	r0!, {r0, r1, r4, r5, r6, sp}
80102f5c:	0a0d7825 	beq	80460ff8 <__bss_end+0x35c718>
80102f60:	00000000 	andeq	r0, r0, r0

80102f64 <.LC13>:
80102f64:	5f544e49 	svcpl	0x00544e49
80102f68:	54415453 	strbpl	r5, [r1], #-1107	; 0xfffffbad
80102f6c:	455f5355 	ldrbmi	r5, [pc, #-853]	; 80102c1f <__udivmoddi4+0x73>
80102f70:	7369204e 	cmnvc	r9, #78	; 0x4e
80102f74:	25783020 	ldrbcs	r3, [r8, #-32]!	; 0xffffffe0
80102f78:	000a0d78 	andeq	r0, sl, r8, ror sp

80102f7c <.LC14>:
80102f7c:	5f544e49 	svcpl	0x00544e49
80102f80:	4e474953 			; <UNDEFINED> instruction: 0x4e474953
80102f84:	455f4c41 	ldrbmi	r4, [pc, #-3137]	; 8010234b <sd_init+0x207>
80102f88:	7369204e 	cmnvc	r9, #78	; 0x4e
80102f8c:	25783020 	ldrbcs	r3, [r8, #-32]!	; 0xffffffe0
80102f90:	000a0d78 	andeq	r0, sl, r8, ror sp

80102f94 <.LC15>:
80102f94:	4f545541 	svcmi	0x00545541
80102f98:	31444d43 	cmpcc	r4, r3, asr #26
80102f9c:	52455f32 	subpl	r5, r5, #50, 30	; 0xc8
80102fa0:	54535f52 	ldrbpl	r5, [r3], #-3922	; 0xfffff0ae
80102fa4:	53555441 	cmppl	r5, #1090519040	; 0x41000000
80102fa8:	20736920 	rsbscs	r6, r3, r0, lsr #18
80102fac:	78257830 	stmdavc	r5!, {r4, r5, fp, ip, sp, lr}
80102fb0:	00000a0d 	andeq	r0, r0, sp, lsl #20

80102fb4 <.LC16>:
80102fb4:	54534f48 	ldrbpl	r4, [r3], #-3912	; 0xfffff0b8
80102fb8:	5254435f 	subspl	r4, r4, #2080374785	; 0x7c000001
80102fbc:	41435f4c 	cmpmi	r3, ip, asr #30
80102fc0:	73692050 	cmnvc	r9, #80	; 0x50
80102fc4:	25783020 	ldrbcs	r3, [r8, #-32]!	; 0xffffffe0
80102fc8:	000a0d78 	andeq	r0, sl, r8, ror sp

80102fcc <.LC17>:
80102fcc:	4b4d5457 	blmi	81458130 <__bss_end+0x1353850>
80102fd0:	4c564c5f 	mrrcmi	12, 5, r4, r6, cr15
80102fd4:	20736920 	rsbscs	r6, r3, r0, lsr #18
80102fd8:	78257830 	stmdavc	r5!, {r4, r5, fp, ip, sp, lr}
80102fdc:	00000a0d 	andeq	r0, r0, sp, lsl #20

80102fe0 <.LC18>:
80102fe0:	5f58494d 	svcpl	0x0058494d
80102fe4:	4c525443 	cfldrdmi	mvd5, [r2], {67}	; 0x43
80102fe8:	20736920 	rsbscs	r6, r3, r0, lsr #18
80102fec:	78257830 	stmdavc	r5!, {r4, r5, fp, ip, sp, lr}
80102ff0:	00000a0d 	andeq	r0, r0, sp, lsl #20

80102ff4 <.LC19>:
80102ff4:	43524f46 	cmpmi	r2, #280	; 0x118
80102ff8:	56455f45 	strbpl	r5, [r5], -r5, asr #30
80102ffc:	20544e45 	subscs	r4, r4, r5, asr #28
80103000:	30207369 	eorcc	r7, r0, r9, ror #6
80103004:	0d782578 	cfldr64eq	mvdx2, [r8, #-480]!	; 0xfffffe20
80103008:	0000000a 	andeq	r0, r0, sl

8010300c <.LC20>:
8010300c:	414d4441 	cmpmi	sp, r1, asr #8
80103010:	5252455f 	subspl	r4, r2, #398458880	; 0x17c00000
80103014:	4154535f 	cmpmi	r4, pc, asr r3
80103018:	20535554 	subscs	r5, r3, r4, asr r5
8010301c:	30207369 	eorcc	r7, r0, r9, ror #6
80103020:	0d782578 	cfldr64eq	mvdx2, [r8, #-480]!	; 0xfffffe20
80103024:	0000000a 	andeq	r0, r0, sl

80103028 <.LC21>:
80103028:	414d4441 	cmpmi	sp, r1, asr #8
8010302c:	5359535f 	cmppl	r9, #2080374785	; 0x7c000001
80103030:	4444415f 	strbmi	r4, [r4], #-351	; 0xfffffea1
80103034:	73692052 	cmnvc	r9, #82	; 0x52
80103038:	25783020 	ldrbcs	r3, [r8, #-32]!	; 0xffffffe0
8010303c:	000a0d78 	andeq	r0, sl, r8, ror sp

80103040 <.LC22>:
80103040:	5f4c4c44 	svcpl	0x004c4c44
80103044:	4c525443 	cfldrdmi	mvd5, [r2], {67}	; 0x43
80103048:	20736920 	rsbscs	r6, r3, r0, lsr #18
8010304c:	78257830 	stmdavc	r5!, {r4, r5, fp, ip, sp, lr}
80103050:	00000a0d 	andeq	r0, r0, sp, lsl #20

80103054 <.LC23>:
80103054:	5f4c4c44 	svcpl	0x004c4c44
80103058:	54415453 	strbpl	r5, [r1], #-1107	; 0xfffffbad
8010305c:	69205355 	stmdbvs	r0!, {r0, r2, r4, r6, r8, r9, ip, lr}
80103060:	78302073 	ldmdavc	r0!, {r0, r1, r4, r5, r6, sp}
80103064:	0a0d7825 	beq	80461100 <__bss_end+0x35c820>
80103068:	00000000 	andeq	r0, r0, r0

8010306c <.LC24>:
8010306c:	5f4b4c43 	svcpl	0x004b4c43
80103070:	454e5554 	strbmi	r5, [lr, #-1364]	; 0xfffffaac
80103074:	5254435f 	subspl	r4, r4, #2080374785	; 0x7c000001
80103078:	54535f4c 	ldrbpl	r5, [r3], #-3916	; 0xfffff0b4
8010307c:	53555441 	cmppl	r5, #1090519040	; 0x41000000
80103080:	20736920 	rsbscs	r6, r3, r0, lsr #18
80103084:	78257830 	stmdavc	r5!, {r4, r5, fp, ip, sp, lr}
80103088:	00000a0d 	andeq	r0, r0, sp, lsl #20

8010308c <.LC25>:
8010308c:	444e4556 	strbmi	r4, [lr], #-1366	; 0xfffffaaa
80103090:	4550535f 	ldrbmi	r5, [r0, #-863]	; 0xfffffca1
80103094:	73692043 	cmnvc	r9, #67	; 0x43
80103098:	25783020 	ldrbcs	r3, [r8, #-32]!	; 0xffffffe0
8010309c:	000a0d78 	andeq	r0, sl, r8, ror sp

801030a0 <.LC26>:
801030a0:	5f434d4d 	svcpl	0x00434d4d
801030a4:	544f4f42 	strbpl	r4, [pc], #-3906	; 801030ac <.LC26+0xc>
801030a8:	20736920 	rsbscs	r6, r3, r0, lsr #18
801030ac:	78257830 	stmdavc	r5!, {r4, r5, fp, ip, sp, lr}
801030b0:	00000a0d 	andeq	r0, r0, sp, lsl #20

801030b4 <.LC27>:
801030b4:	444e4556 	strbmi	r4, [lr], #-1366	; 0xfffffaaa
801030b8:	4550535f 	ldrbmi	r5, [r0, #-863]	; 0xfffffca1
801030bc:	69203243 	stmdbvs	r0!, {r0, r1, r6, r9, ip, sp}
801030c0:	78302073 	ldmdavc	r0!, {r0, r1, r4, r5, r6, sp}
801030c4:	0a0d7825 	beq	80461160 <__bss_end+0x35c880>
801030c8:	00000000 	andeq	r0, r0, r0

801030cc <.LC28>:
801030cc:	494e5554 	stmdbmi	lr, {r2, r4, r6, r8, sl, ip, lr}^
801030d0:	435f474e 	cmpmi	pc, #20447232	; 0x1380000
801030d4:	204c5254 	subcs	r5, ip, r4, asr r2
801030d8:	30207369 	eorcc	r7, r0, r9, ror #6
801030dc:	0d782578 	cfldr64eq	mvdx2, [r8, #-480]!	; 0xfffffe20
801030e0:	0000000a 	andeq	r0, r0, sl

801030e4 <.LC29>:
801030e4:	20646d63 	rsbcs	r6, r4, r3, ror #26
801030e8:	72727265 	rsbsvc	r7, r2, #1342177286	; 0x50000006
801030ec:	202c726f 	eorcs	r7, ip, pc, ror #4
801030f0:	20444d43 	subcs	r4, r4, r3, asr #26
801030f4:	30207369 	eorcc	r7, r0, r9, ror #6
801030f8:	2c782578 	cfldr64cs	mvdx2, [r8], #-480	; 0xfffffe20
801030fc:	544e4920 	strbpl	r4, [lr], #-2336	; 0xfffff6e0
80103100:	4154535f 	cmpmi	r4, pc, asr r3
80103104:	20535554 	subscs	r5, r3, r4, asr r5
80103108:	30207369 	eorcc	r7, r0, r9, ror #6
8010310c:	0d782578 	cfldr64eq	mvdx2, [r8, #-480]!	; 0xfffffe20
80103110:	0000000a 	andeq	r0, r0, sl

80103114 <.LC30>:
80103114:	61746164 	cmnvs	r4, r4, ror #2
80103118:	72726520 	rsbsvc	r6, r2, #32, 10	; 0x8000000
8010311c:	2c726f72 	ldclcs	15, cr6, [r2], #-456	; 0xfffffe38
80103120:	444d4320 	strbmi	r4, [sp], #-800	; 0xfffffce0
80103124:	20736920 	rsbscs	r6, r3, r0, lsr #18
80103128:	78257830 	stmdavc	r5!, {r4, r5, fp, ip, sp, lr}
8010312c:	4e49202c 	cdpmi	0, 4, cr2, cr9, cr12, {1}
80103130:	54535f54 	ldrbpl	r5, [r3], #-3924	; 0xfffff0ac
80103134:	53555441 	cmppl	r5, #1090519040	; 0x41000000
80103138:	20736920 	rsbscs	r6, r3, r0, lsr #18
8010313c:	78257830 	stmdavc	r5!, {r4, r5, fp, ip, sp, lr}
80103140:	00000a0d 	andeq	r0, r0, sp, lsl #20

80103144 <.LC31>:
80103144:	61656c70 	smcvs	22208	; 0x56c0
80103148:	69206573 	stmdbvs	r0!, {r0, r1, r4, r5, r6, r8, sl, sp, lr}
8010314c:	7265736e 	rsbvc	r7, r5, #-1207959551	; 0xb8000001
80103150:	64732074 	ldrbtvs	r2, [r3], #-116	; 0xffffff8c
80103154:	72616320 	rsbvc	r6, r1, #32, 6	; 0x80000000
80103158:	000a0d64 	andeq	r0, sl, r4, ror #26

8010315c <.LC32>:
8010315c:	63206473 			; <UNDEFINED> instruction: 0x63206473
80103160:	20647261 	rsbcs	r7, r4, r1, ror #4
80103164:	20736168 	rsbscs	r6, r3, r8, ror #2
80103168:	6e656562 	cdpvs	5, 6, cr6, cr5, cr2, {3}
8010316c:	736e6920 	cmnvc	lr, #32, 18	; 0x80000
80103170:	65747265 	ldrbvs	r7, [r4, #-613]!	; 0xfffffd9b
80103174:	000a0d64 	andeq	r0, sl, r4, ror #26

80103178 <.LC33>:
80103178:	20656874 	rsbcs	r6, r5, r4, ror r8
8010317c:	64726163 	ldrbtvs	r6, [r2], #-355	; 0xfffffe9d
80103180:	70757320 	rsbsvc	r7, r5, r0, lsr #6
80103184:	74726f70 	ldrbtvc	r6, [r2], #-3952	; 0xfffff090
80103188:	6d206465 	cfstrsvs	mvf6, [r0, #-404]!	; 0xfffffe6c
8010318c:	2065646f 	rsbcs	r6, r5, pc, ror #8
80103190:	30207369 	eorcc	r7, r0, r9, ror #6
80103194:	0d782578 	cfldr64eq	mvdx2, [r8, #-480]!	; 0xfffffe20
80103198:	0000000a 	andeq	r0, r0, sl

8010319c <.LC34>:
8010319c:	3d3d3d3d 	ldccc	13, cr3, [sp, #-244]!	; 0xffffff0c
801031a0:	000a0d3d 	andeq	r0, sl, sp, lsr sp

801031a4 <.LC35>:
801031a4:	20746573 	rsbscs	r6, r4, r3, ror r5
801031a8:	64726163 	ldrbtvs	r6, [r2], #-355	; 0xfffffe9d
801031ac:	67696820 	strbvs	r6, [r9, -r0, lsr #16]!
801031b0:	70732068 	rsbsvc	r2, r3, r8, rrx
801031b4:	20646565 	rsbcs	r6, r4, r5, ror #10
801031b8:	63637573 	cmnvs	r3, #482344960	; 0x1cc00000
801031bc:	0d737365 	ldcleq	3, cr7, [r3, #-404]!	; 0xfffffe6c
801031c0:	0000000a 	andeq	r0, r0, sl

801031c4 <.LC36>:
801031c4:	2072636f 	rsbscs	r6, r2, pc, ror #6
801031c8:	30207369 	eorcc	r7, r0, r9, ror #6
801031cc:	0d782578 	cfldr64eq	mvdx2, [r8, #-480]!	; 0xfffffe20
801031d0:	0000000a 	andeq	r0, r0, sl

801031d4 <.LC37>:
801031d4:	646e6148 	strbtvs	r6, [lr], #-328	; 0xfffffeb8
801031d8:	6b616853 	blvs	8195d32c <__bss_end+0x1858a4c>
801031dc:	65704f65 	ldrbvs	r4, [r0, #-3941]!	; 0xfffff09b
801031e0:	69746172 	ldmdbvs	r4!, {r1, r4, r5, r6, r8, sp, lr}^
801031e4:	6f436e6f 	svcvs	0x00436e6f
801031e8:	7469646e 	strbtvc	r6, [r9], #-1134	; 0xfffffb92
801031ec:	466e6f69 	strbtmi	r6, [lr], -r9, ror #30
801031f0:	656c6961 	strbvs	r6, [ip, #-2401]!	; 0xfffff69f
801031f4:	000a0d64 	andeq	r0, sl, r4, ror #26

801031f8 <.LC38>:
801031f8:	70707573 	rsbsvc	r7, r0, r3, ror r5
801031fc:	2074726f 	rsbscs	r7, r4, pc, ror #4
80103200:	76382e31 			; <UNDEFINED> instruction: 0x76382e31
80103204:	00000a0d 	andeq	r0, r0, sp, lsl #20

80103208 <.LC39>:
80103208:	616c6572 	smcvs	50770	; 0xc652
8010320c:	65766974 	ldrbvs	r6, [r6, #-2420]!	; 0xfffff68c
80103210:	64646120 	strbtvs	r6, [r4], #-288	; 0xfffffee0
80103214:	73736572 	cmnvc	r3, #478150656	; 0x1c800000
80103218:	20736920 	rsbscs	r6, r3, r0, lsr #18
8010321c:	78257830 	stmdavc	r5!, {r4, r5, fp, ip, sp, lr}
80103220:	00000a0d 	andeq	r0, r0, sp, lsl #20

80103224 <.LC40>:
80103224:	43484453 	movtmi	r4, #33875	; 0x8453
80103228:	5844532f 	stmdapl	r4, {r0, r1, r2, r3, r5, r8, r9, ip, lr}^
8010322c:	00000043 	andeq	r0, r0, r3, asr #32

80103230 <.LC41>:
80103230:	43534453 	cmpmi	r3, #1392508928	; 0x53000000
80103234:	00000000 	andeq	r0, r0, r0

80103238 <.LC42>:
80103238:	64726163 	ldrbtvs	r6, [r2], #-355	; 0xfffffe9d
8010323c:	20736920 	rsbscs	r6, r3, r0, lsr #18
80103240:	00007325 	andeq	r7, r0, r5, lsr #6

80103244 <.LC43>:
80103244:	64726163 	ldrbtvs	r6, [r2], #-355	; 0xfffffe9d
80103248:	6f6c6220 	svcvs	0x006c6220
8010324c:	63206b63 			; <UNDEFINED> instruction: 0x63206b63
80103250:	746e756f 	strbtvc	r7, [lr], #-1391	; 0xfffffa91
80103254:	20736920 	rsbscs	r6, r3, r0, lsr #18
80103258:	0a0d6425 	beq	8045c2f4 <__bss_end+0x357a14>
8010325c:	00000000 	andeq	r0, r0, r0

80103260 <.LC44>:
80103260:	64726163 	ldrbtvs	r6, [r2], #-355	; 0xfffffe9d
80103264:	63657320 	cmnvs	r5, #32, 6	; 0x80000000
80103268:	20726f74 	rsbscs	r6, r2, r4, ror pc
8010326c:	657a6973 	ldrbvs	r6, [sl, #-2419]!	; 0xfffff68d
80103270:	20736920 	rsbscs	r6, r3, r0, lsr #18
80103274:	0a0d6425 	beq	8045c310 <__bss_end+0x357a30>
80103278:	00000000 	andeq	r0, r0, r0

8010327c <.LC45>:
8010327c:	64726163 	ldrbtvs	r6, [r2], #-355	; 0xfffffe9d
80103280:	6d6f6320 	stclvs	3, cr6, [pc, #-128]!	; 80103208 <.LC39>
80103284:	646e616d 	strbtvs	r6, [lr], #-365	; 0xfffffe93
80103288:	616c6320 	cmnvs	ip, r0, lsr #6
8010328c:	69207373 	stmdbvs	r0!, {r0, r1, r4, r5, r6, r8, r9, ip, sp, lr}
80103290:	78302073 	ldmdavc	r0!, {r0, r1, r4, r5, r6, sp}
80103294:	0a0d7825 	beq	80461330 <__bss_end+0x35ca50>
80103298:	00000000 	andeq	r0, r0, r0

8010329c <.LC46>:
8010329c:	5b726373 	blpl	81d9c070 <__bss_end+0x1c97790>
801032a0:	69205d30 	stmdbvs	r0!, {r4, r5, r8, sl, fp, ip, lr}
801032a4:	78302073 	ldmdavc	r0!, {r0, r1, r4, r5, r6, sp}
801032a8:	202c7825 	eorcs	r7, ip, r5, lsr #16
801032ac:	5b726373 	blpl	81d9c080 <__bss_end+0x1c977a0>
801032b0:	69205d31 	stmdbvs	r0!, {r0, r4, r5, r8, sl, fp, ip, lr}
801032b4:	78302073 	ldmdavc	r0!, {r0, r1, r4, r5, r6, sp}
801032b8:	0a0d7825 	beq	80461354 <__bss_end+0x35ca74>
801032bc:	00000000 	andeq	r0, r0, r0

801032c0 <.LC47>:
801032c0:	73206473 			; <UNDEFINED> instruction: 0x73206473
801032c4:	69636570 	stmdbvs	r3!, {r4, r5, r6, r8, sl, sp, lr}^
801032c8:	61636966 	cmnvs	r3, r6, ror #18
801032cc:	6e6f6974 			; <UNDEFINED> instruction: 0x6e6f6974
801032d0:	20736920 	rsbscs	r6, r3, r0, lsr #18
801032d4:	78257830 	stmdavc	r5!, {r4, r5, fp, ip, sp, lr}
801032d8:	00000a0d 	andeq	r0, r0, sp, lsl #20

801032dc <.LC48>:
801032dc:	20656854 	rsbcs	r6, r5, r4, asr r8
801032e0:	64726163 	ldrbtvs	r6, [r2], #-355	; 0xfffffe9d
801032e4:	6e616320 	cdpvs	3, 6, cr6, cr1, cr0, {1}
801032e8:	746f6e20 	strbtvc	r6, [pc], #-3616	; 801032f0 <.LC48+0x14>
801032ec:	70757320 	rsbsvc	r7, r5, r0, lsr #6
801032f0:	74726f70 	ldrbtvc	r6, [r2], #-3952	; 0xfffff090
801032f4:	69623420 	stmdbvs	r2!, {r5, sl, ip, sp}^
801032f8:	69772074 	ldmdbvs	r7!, {r2, r4, r5, r6, sp}^
801032fc:	00687464 	rsbeq	r7, r8, r4, ror #8

80103300 <.LC49>:
80103300:	20656854 	rsbcs	r6, r5, r4, asr r8
80103304:	64726163 	ldrbtvs	r6, [r2], #-355	; 0xfffffe9d
80103308:	6e616320 	cdpvs	3, 6, cr6, cr1, cr0, {1}
8010330c:	746f6e20 	strbtvc	r6, [pc], #-3616	; 80103314 <.LC49+0x14>
80103310:	70757320 	rsbsvc	r7, r5, r0, lsr #6
80103314:	74726f70 	ldrbtvc	r6, [r2], #-3952	; 0xfffff090
80103318:	65705320 	ldrbvs	r5, [r0, #-800]!	; 0xfffffce0
8010331c:	43206465 			; <UNDEFINED> instruction: 0x43206465
80103320:	7373616c 	cmnvc	r3, #108, 2
80103324:	6e6f4320 	cdpvs	3, 6, cr4, cr15, cr0, {1}
80103328:	6c6f7274 	sfmvs	f7, 2, [pc], #-464	; 80103160 <.LC32+0x4>
8010332c:	4d432820 	stclmi	8, cr2, [r3, #-128]	; 0xffffff80
80103330:	29303244 	ldmdbcs	r0!, {r2, r6, r9, ip, sp}
80103334:	00000a0d 	andeq	r0, r0, sp, lsl #20

80103338 <.LC50>:
80103338:	20656854 	rsbcs	r6, r5, r4, asr r8
8010333c:	64726163 	ldrbtvs	r6, [r2], #-355	; 0xfffffe9d
80103340:	6e616320 	cdpvs	3, 6, cr6, cr1, cr0, {1}
80103344:	746f6e20 	strbtvc	r6, [pc], #-3616	; 8010334c <.LC50+0x14>
80103348:	70757320 	rsbsvc	r7, r5, r0, lsr #6
8010334c:	74726f70 	ldrbtvc	r6, [r2], #-3952	; 0xfffff090
80103350:	70755320 	rsbsvc	r5, r5, r0, lsr #6
80103354:	74726f70 	ldrbtvc	r6, [r2], #-3952	; 0xfffff090
80103358:	74655320 	strbtvc	r5, [r5], #-800	; 0xfffffce0
8010335c:	636f6c42 	cmnvs	pc, #16896	; 0x4200
80103360:	756f436b 	strbvc	r4, [pc, #-875]!	; 80102ffd <.LC19+0x9>
80103364:	6d43746e 	cfstrdvs	mvd7, [r3, #-440]	; 0xfffffe48
80103368:	43282064 			; <UNDEFINED> instruction: 0x43282064
