
timer.elf:     file format elf32-littlearm


Disassembly of section .text:

80100000 <_start>:
80100000:	e59ff114 	ldr	pc, [pc, #276]	; 8010011c <clean+0x14>
80100004:	e59ff114 	ldr	pc, [pc, #276]	; 80100120 <clean+0x18>
80100008:	e59ff114 	ldr	pc, [pc, #276]	; 80100124 <clean+0x1c>
8010000c:	ea000039 	b	801000f8 <halt>
80100010:	ea000038 	b	801000f8 <halt>
80100014:	00000000 	andeq	r0, r0, r0
80100018:	e59ff108 	ldr	pc, [pc, #264]	; 80100128 <clean+0x20>
8010001c:	ea000035 	b	801000f8 <halt>

80100020 <Undefined_Handler>:
80100020:	e92d5fff 	push	{r0, r1, r2, r3, r4, r5, r6, r7, r8, r9, sl, fp, ip, lr}
80100024:	e10f0000 	mrs	r0, CPSR
80100028:	e59f10fc 	ldr	r1, [pc, #252]	; 8010012c <clean+0x24>
8010002c:	fa00016c 	blx	801005e4 <printException>
80100030:	e8fd9fff 	ldm	sp!, {r0, r1, r2, r3, r4, r5, r6, r7, r8, r9, sl, fp, ip, pc}^

80100034 <und_string>:
80100034:	65646e75 	strbvs	r6, [r4, #-3701]!	; 0xfffff18b
80100038:	656e6966 	strbvs	r6, [lr, #-2406]!	; 0xfffff69a
8010003c:	6e692064 	cdpvs	0, 6, cr2, cr9, cr4, {3}
80100040:	75727473 	ldrbvc	r7, [r2, #-1139]!	; 0xfffffb8d
80100044:	6f697463 	svcvs	0x00697463
80100048:	7865206e 	stmdavc	r5!, {r1, r2, r3, r5, r6, sp}^
8010004c:	74706563 	ldrbtvc	r6, [r0], #-1379	; 0xfffffa9d
80100050:	006e6f69 	rsbeq	r6, lr, r9, ror #30

80100054 <SVC_Handler>:
80100054:	e92d5fff 	push	{r0, r1, r2, r3, r4, r5, r6, r7, r8, r9, sl, fp, ip, lr}
80100058:	e1a0400e 	mov	r4, lr
8010005c:	e10f0000 	mrs	r0, CPSR
80100060:	e59f10c8 	ldr	r1, [pc, #200]	; 80100130 <clean+0x28>
80100064:	fa00015e 	blx	801005e4 <printException>
80100068:	e2440004 	sub	r0, r4, #4
8010006c:	fb000167 	blx	80100612 <printSWIVal>
80100070:	e8fd9fff 	ldm	sp!, {r0, r1, r2, r3, r4, r5, r6, r7, r8, r9, sl, fp, ip, pc}^

80100074 <swi_string>:
80100074:	20697773 	rsbcs	r7, r9, r3, ror r7
80100078:	65637865 	strbvs	r7, [r3, #-2149]!	; 0xfffff79b
8010007c:	6f697470 	svcvs	0x00697470
80100080:	0000006e 	andeq	r0, r0, lr, rrx

80100084 <IRQ_Handler>:
80100084:	e24ee004 	sub	lr, lr, #4
80100088:	e92d5fff 	push	{r0, r1, r2, r3, r4, r5, r6, r7, r8, r9, sl, fp, ip, lr}
8010008c:	fa00042a 	blx	8010113c <handle_irq_c>
80100090:	e8fd9fff 	ldm	sp!, {r0, r1, r2, r3, r4, r5, r6, r7, r8, r9, sl, fp, ip, pc}^

80100094 <Reset_Handler>:
80100094:	ee110f10 	mrc	15, 0, r0, cr1, cr0, {0}
80100098:	e3c00a02 	bic	r0, r0, #8192	; 0x2000
8010009c:	e3c00a01 	bic	r0, r0, #4096	; 0x1000
801000a0:	e3c00004 	bic	r0, r0, #4
801000a4:	e3c00004 	bic	r0, r0, #4
801000a8:	e3c00b02 	bic	r0, r0, #2048	; 0x800
801000ac:	e3c00001 	bic	r0, r0, #1
801000b0:	ee010f10 	mcr	15, 0, r0, cr1, cr0, {0}
801000b4:	f102001b 	cps	#27
801000b8:	e59fd074 	ldr	sp, [pc, #116]	; 80100134 <clean+0x2c>
801000bc:	f1020012 	cps	#18
801000c0:	e59fd070 	ldr	sp, [pc, #112]	; 80100138 <clean+0x30>
801000c4:	f1020013 	cps	#19
801000c8:	e59fd06c 	ldr	sp, [pc, #108]	; 8010013c <clean+0x34>
801000cc:	e59f006c 	ldr	r0, [pc, #108]	; 80100140 <clean+0x38>
801000d0:	ee0c0f10 	mcr	15, 0, r0, cr12, cr0, {0}
801000d4:	eb000008 	bl	801000fc <clean_bss>
801000d8:	fb000171 	blx	801006a6 <system_init>
801000dc:	f1080080 	cpsie	i

801000e0 <und_code>:
801000e0:	deadc0de 	mcrle	0, 5, ip, cr13, cr14, {6}

801000e4 <swi_code>:
801000e4:	ef000123 	svc	0x00000123
801000e8:	ee9f0f10 	mrc	15, 4, r0, cr15, cr0, {0}
801000ec:	e59f103c 	ldr	r1, [pc, #60]	; 80100130 <clean+0x28>
801000f0:	fa00013b 	blx	801005e4 <printException>
801000f4:	fa00017b 	blx	801006e8 <main>

801000f8 <halt>:
801000f8:	eafffffe 	b	801000f8 <halt>

801000fc <clean_bss>:
801000fc:	e59f1040 	ldr	r1, [pc, #64]	; 80100144 <clean+0x3c>
80100100:	e59f2040 	ldr	r2, [pc, #64]	; 80100148 <clean+0x40>
80100104:	e3a03000 	mov	r3, #0

80100108 <clean>:
80100108:	e1510002 	cmp	r1, r2
8010010c:	b5813000 	strlt	r3, [r1]
80100110:	e2811004 	add	r1, r1, #4
80100114:	bafffffb 	blt	80100108 <clean>
80100118:	e1a0f00e 	mov	pc, lr
8010011c:	80100094 	mulshi	r0, r4, r0
80100120:	80100020 	andshi	r0, r0, r0, lsr #32
80100124:	80100054 	andshi	r0, r0, r4, asr r0
80100128:	80100084 	andshi	r0, r0, r4, lsl #1
8010012c:	80100034 	andshi	r0, r0, r4, lsr r0
80100130:	80100074 	andshi	r0, r0, r4, ror r0
80100134:	80300000 	eorshi	r0, r0, r0
80100138:	80400000 	subhi	r0, r0, r0
8010013c:	80200000 	eorhi	r0, r0, r0
80100140:	80100000 	andshi	r0, r0, r0
80100144:	801018fc 			; <UNDEFINED> instruction: 0x801018fc
80100148:	801018fc 			; <UNDEFINED> instruction: 0x801018fc

8010014c <IOMUXC_SetPinMux>:
8010014c:	b480      	push	{r7}
8010014e:	b085      	sub	sp, #20
80100150:	af00      	add	r7, sp, #0
80100152:	60f8      	str	r0, [r7, #12]
80100154:	60b9      	str	r1, [r7, #8]
80100156:	607a      	str	r2, [r7, #4]
80100158:	603b      	str	r3, [r7, #0]
8010015a:	68fb      	ldr	r3, [r7, #12]
8010015c:	68ba      	ldr	r2, [r7, #8]
8010015e:	f002 010f 	and.w	r1, r2, #15
80100162:	69fa      	ldr	r2, [r7, #28]
80100164:	0112      	lsls	r2, r2, #4
80100166:	f002 0210 	and.w	r2, r2, #16
8010016a:	430a      	orrs	r2, r1
8010016c:	601a      	str	r2, [r3, #0]
8010016e:	687b      	ldr	r3, [r7, #4]
80100170:	2b00      	cmp	r3, #0
80100172:	d004      	beq.n	8010017e <IOMUXC_SetPinMux+0x32>
80100174:	687b      	ldr	r3, [r7, #4]
80100176:	683a      	ldr	r2, [r7, #0]
80100178:	f002 0207 	and.w	r2, r2, #7
8010017c:	601a      	str	r2, [r3, #0]
8010017e:	bf00      	nop
80100180:	3714      	adds	r7, #20
80100182:	46bd      	mov	sp, r7
80100184:	f85d 7b04 	ldr.w	r7, [sp], #4
80100188:	4770      	bx	lr

8010018a <IOMUXC_SetPinConfig>:
8010018a:	b480      	push	{r7}
8010018c:	b085      	sub	sp, #20
8010018e:	af00      	add	r7, sp, #0
80100190:	60f8      	str	r0, [r7, #12]
80100192:	60b9      	str	r1, [r7, #8]
80100194:	607a      	str	r2, [r7, #4]
80100196:	603b      	str	r3, [r7, #0]
80100198:	69bb      	ldr	r3, [r7, #24]
8010019a:	2b00      	cmp	r3, #0
8010019c:	d002      	beq.n	801001a4 <IOMUXC_SetPinConfig+0x1a>
8010019e:	69bb      	ldr	r3, [r7, #24]
801001a0:	69fa      	ldr	r2, [r7, #28]
801001a2:	601a      	str	r2, [r3, #0]
801001a4:	bf00      	nop
801001a6:	3714      	adds	r7, #20
801001a8:	46bd      	mov	sp, r7
801001aa:	f85d 7b04 	ldr.w	r7, [sp], #4
801001ae:	4770      	bx	lr

801001b0 <init_pins>:
801001b0:	b580      	push	{r7, lr}
801001b2:	b082      	sub	sp, #8
801001b4:	af02      	add	r7, sp, #8
801001b6:	2300      	movs	r3, #0
801001b8:	9301      	str	r3, [sp, #4]
801001ba:	2358      	movs	r3, #88	; 0x58
801001bc:	f2c0 2329 	movt	r3, #553	; 0x229
801001c0:	9300      	str	r3, [sp, #0]
801001c2:	2300      	movs	r3, #0
801001c4:	2200      	movs	r2, #0
801001c6:	2105      	movs	r1, #5
801001c8:	2014      	movs	r0, #20
801001ca:	f2c0 2029 	movt	r0, #553	; 0x229
801001ce:	f7ff ffbd 	bl	8010014c <IOMUXC_SetPinMux>
801001d2:	2309      	movs	r3, #9
801001d4:	f2c0 0301 	movt	r3, #1
801001d8:	9301      	str	r3, [sp, #4]
801001da:	2358      	movs	r3, #88	; 0x58
801001dc:	f2c0 2329 	movt	r3, #553	; 0x229
801001e0:	9300      	str	r3, [sp, #0]
801001e2:	2300      	movs	r3, #0
801001e4:	2200      	movs	r2, #0
801001e6:	2105      	movs	r1, #5
801001e8:	2014      	movs	r0, #20
801001ea:	f2c0 2029 	movt	r0, #553	; 0x229
801001ee:	f7ff ffcc 	bl	8010018a <IOMUXC_SetPinConfig>
801001f2:	2300      	movs	r3, #0
801001f4:	9301      	str	r3, [sp, #4]
801001f6:	f44f 7345 	mov.w	r3, #788	; 0x314
801001fa:	f2c0 230e 	movt	r3, #526	; 0x20e
801001fe:	9300      	str	r3, [sp, #0]
80100200:	2303      	movs	r3, #3
80100202:	f240 6224 	movw	r2, #1572	; 0x624
80100206:	f2c0 220e 	movt	r2, #526	; 0x20e
8010020a:	2100      	movs	r1, #0
8010020c:	2088      	movs	r0, #136	; 0x88
8010020e:	f2c0 200e 	movt	r0, #526	; 0x20e
80100212:	f7ff ff9b 	bl	8010014c <IOMUXC_SetPinMux>
80100216:	f241 0390 	movw	r3, #4240	; 0x1090
8010021a:	9301      	str	r3, [sp, #4]
8010021c:	f44f 7345 	mov.w	r3, #788	; 0x314
80100220:	f2c0 230e 	movt	r3, #526	; 0x20e
80100224:	9300      	str	r3, [sp, #0]
80100226:	2303      	movs	r3, #3
80100228:	f240 6224 	movw	r2, #1572	; 0x624
8010022c:	f2c0 220e 	movt	r2, #526	; 0x20e
80100230:	2100      	movs	r1, #0
80100232:	2088      	movs	r0, #136	; 0x88
80100234:	f2c0 200e 	movt	r0, #526	; 0x20e
80100238:	f7ff ffa7 	bl	8010018a <IOMUXC_SetPinConfig>
8010023c:	2300      	movs	r3, #0
8010023e:	9301      	str	r3, [sp, #4]
80100240:	f44f 7344 	mov.w	r3, #784	; 0x310
80100244:	f2c0 230e 	movt	r3, #526	; 0x20e
80100248:	9300      	str	r3, [sp, #0]
8010024a:	2300      	movs	r3, #0
8010024c:	2200      	movs	r2, #0
8010024e:	2100      	movs	r1, #0
80100250:	2084      	movs	r0, #132	; 0x84
80100252:	f2c0 200e 	movt	r0, #526	; 0x20e
80100256:	f7ff ff79 	bl	8010014c <IOMUXC_SetPinMux>
8010025a:	f241 0390 	movw	r3, #4240	; 0x1090
8010025e:	9301      	str	r3, [sp, #4]
80100260:	f44f 7344 	mov.w	r3, #784	; 0x310
80100264:	f2c0 230e 	movt	r3, #526	; 0x20e
80100268:	9300      	str	r3, [sp, #0]
8010026a:	2300      	movs	r3, #0
8010026c:	2200      	movs	r2, #0
8010026e:	2100      	movs	r1, #0
80100270:	2084      	movs	r0, #132	; 0x84
80100272:	f2c0 200e 	movt	r0, #526	; 0x20e
80100276:	f7ff ff88 	bl	8010018a <IOMUXC_SetPinConfig>
8010027a:	2300      	movs	r3, #0
8010027c:	9301      	str	r3, [sp, #4]
8010027e:	2350      	movs	r3, #80	; 0x50
80100280:	f2c0 2329 	movt	r3, #553	; 0x229
80100284:	9300      	str	r3, [sp, #0]
80100286:	2300      	movs	r3, #0
80100288:	2200      	movs	r2, #0
8010028a:	2105      	movs	r1, #5
8010028c:	200c      	movs	r0, #12
8010028e:	f2c0 2029 	movt	r0, #553	; 0x229
80100292:	f7ff ff5b 	bl	8010014c <IOMUXC_SetPinMux>
80100296:	f241 03b0 	movw	r3, #4272	; 0x10b0
8010029a:	f2c0 0301 	movt	r3, #1
8010029e:	9301      	str	r3, [sp, #4]
801002a0:	2350      	movs	r3, #80	; 0x50
801002a2:	f2c0 2329 	movt	r3, #553	; 0x229
801002a6:	9300      	str	r3, [sp, #0]
801002a8:	2300      	movs	r3, #0
801002aa:	2200      	movs	r2, #0
801002ac:	2105      	movs	r1, #5
801002ae:	200c      	movs	r0, #12
801002b0:	f2c0 2029 	movt	r0, #553	; 0x229
801002b4:	f7ff ff69 	bl	8010018a <IOMUXC_SetPinConfig>
801002b8:	2300      	movs	r3, #0
801002ba:	9301      	str	r3, [sp, #4]
801002bc:	f240 433c 	movw	r3, #1084	; 0x43c
801002c0:	f2c0 230e 	movt	r3, #526	; 0x20e
801002c4:	9300      	str	r3, [sp, #0]
801002c6:	2300      	movs	r3, #0
801002c8:	2200      	movs	r2, #0
801002ca:	2105      	movs	r1, #5
801002cc:	f44f 70d8 	mov.w	r0, #432	; 0x1b0
801002d0:	f2c0 200e 	movt	r0, #526	; 0x20e
801002d4:	f7ff ff3a 	bl	8010014c <IOMUXC_SetPinMux>
801002d8:	f241 03b0 	movw	r3, #4272	; 0x10b0
801002dc:	f2c0 0301 	movt	r3, #1
801002e0:	9301      	str	r3, [sp, #4]
801002e2:	f240 433c 	movw	r3, #1084	; 0x43c
801002e6:	f2c0 230e 	movt	r3, #526	; 0x20e
801002ea:	9300      	str	r3, [sp, #0]
801002ec:	2300      	movs	r3, #0
801002ee:	2200      	movs	r2, #0
801002f0:	2105      	movs	r1, #5
801002f2:	f44f 70d8 	mov.w	r0, #432	; 0x1b0
801002f6:	f2c0 200e 	movt	r0, #526	; 0x20e
801002fa:	f7ff ff46 	bl	8010018a <IOMUXC_SetPinConfig>
801002fe:	bf00      	nop
80100300:	46bd      	mov	sp, r7
80100302:	bd80      	pop	{r7, pc}

80100304 <delay>:
80100304:	b480      	push	{r7}
80100306:	b083      	sub	sp, #12
80100308:	af00      	add	r7, sp, #0
8010030a:	6078      	str	r0, [r7, #4]
8010030c:	bf00      	nop
8010030e:	687b      	ldr	r3, [r7, #4]
80100310:	1e5a      	subs	r2, r3, #1
80100312:	607a      	str	r2, [r7, #4]
80100314:	2b00      	cmp	r3, #0
80100316:	d1fa      	bne.n	8010030e <delay+0xa>
80100318:	bf00      	nop
8010031a:	370c      	adds	r7, #12
8010031c:	46bd      	mov	sp, r7
8010031e:	f85d 7b04 	ldr.w	r7, [sp], #4
80100322:	4770      	bx	lr

80100324 <boot_clk_gate_init>:
80100324:	b480      	push	{r7}
80100326:	af00      	add	r7, sp, #0
80100328:	f44f 4380 	mov.w	r3, #16384	; 0x4000
8010032c:	f2c0 230c 	movt	r3, #524	; 0x20c
80100330:	f04f 32ff 	mov.w	r2, #4294967295	; 0xffffffff
80100334:	669a      	str	r2, [r3, #104]	; 0x68
80100336:	f44f 4380 	mov.w	r3, #16384	; 0x4000
8010033a:	f2c0 230c 	movt	r3, #524	; 0x20c
8010033e:	f04f 32ff 	mov.w	r2, #4294967295	; 0xffffffff
80100342:	66da      	str	r2, [r3, #108]	; 0x6c
80100344:	f44f 4380 	mov.w	r3, #16384	; 0x4000
80100348:	f2c0 230c 	movt	r3, #524	; 0x20c
8010034c:	f04f 32ff 	mov.w	r2, #4294967295	; 0xffffffff
80100350:	671a      	str	r2, [r3, #112]	; 0x70
80100352:	f44f 4380 	mov.w	r3, #16384	; 0x4000
80100356:	f2c0 230c 	movt	r3, #524	; 0x20c
8010035a:	f04f 32ff 	mov.w	r2, #4294967295	; 0xffffffff
8010035e:	675a      	str	r2, [r3, #116]	; 0x74
80100360:	f44f 4380 	mov.w	r3, #16384	; 0x4000
80100364:	f2c0 230c 	movt	r3, #524	; 0x20c
80100368:	f04f 32ff 	mov.w	r2, #4294967295	; 0xffffffff
8010036c:	679a      	str	r2, [r3, #120]	; 0x78
8010036e:	f44f 4380 	mov.w	r3, #16384	; 0x4000
80100372:	f2c0 230c 	movt	r3, #524	; 0x20c
80100376:	f04f 32ff 	mov.w	r2, #4294967295	; 0xffffffff
8010037a:	67da      	str	r2, [r3, #124]	; 0x7c
8010037c:	f44f 4380 	mov.w	r3, #16384	; 0x4000
80100380:	f2c0 230c 	movt	r3, #524	; 0x20c
80100384:	f04f 32ff 	mov.w	r2, #4294967295	; 0xffffffff
80100388:	f8c3 2080 	str.w	r2, [r3, #128]	; 0x80
8010038c:	bf00      	nop
8010038e:	46bd      	mov	sp, r7
80100390:	f85d 7b04 	ldr.w	r7, [sp], #4
80100394:	4770      	bx	lr

80100396 <boot_clk_init>:
80100396:	b480      	push	{r7}
80100398:	af00      	add	r7, sp, #0
8010039a:	f44f 4380 	mov.w	r3, #16384	; 0x4000
8010039e:	f2c0 230c 	movt	r3, #524	; 0x20c
801003a2:	68db      	ldr	r3, [r3, #12]
801003a4:	f003 0304 	and.w	r3, r3, #4
801003a8:	2b00      	cmp	r3, #0
801003aa:	d117      	bne.n	801003dc <boot_clk_init+0x46>
801003ac:	f44f 4380 	mov.w	r3, #16384	; 0x4000
801003b0:	f2c0 230c 	movt	r3, #524	; 0x20c
801003b4:	f44f 4280 	mov.w	r2, #16384	; 0x4000
801003b8:	f2c0 220c 	movt	r2, #524	; 0x20c
801003bc:	68d2      	ldr	r2, [r2, #12]
801003be:	f422 7280 	bic.w	r2, r2, #256	; 0x100
801003c2:	60da      	str	r2, [r3, #12]
801003c4:	f44f 4380 	mov.w	r3, #16384	; 0x4000
801003c8:	f2c0 230c 	movt	r3, #524	; 0x20c
801003cc:	f44f 4280 	mov.w	r2, #16384	; 0x4000
801003d0:	f2c0 220c 	movt	r2, #524	; 0x20c
801003d4:	68d2      	ldr	r2, [r2, #12]
801003d6:	f042 0204 	orr.w	r2, r2, #4
801003da:	60da      	str	r2, [r3, #12]
801003dc:	f44f 4300 	mov.w	r3, #32768	; 0x8000
801003e0:	f2c0 230c 	movt	r3, #524	; 0x20c
801003e4:	f242 0258 	movw	r2, #8280	; 0x2058
801003e8:	601a      	str	r2, [r3, #0]
801003ea:	f44f 4380 	mov.w	r3, #16384	; 0x4000
801003ee:	f2c0 230c 	movt	r3, #524	; 0x20c
801003f2:	f44f 4280 	mov.w	r2, #16384	; 0x4000
801003f6:	f2c0 220c 	movt	r2, #524	; 0x20c
801003fa:	68d2      	ldr	r2, [r2, #12]
801003fc:	f022 0204 	bic.w	r2, r2, #4
80100400:	60da      	str	r2, [r3, #12]
80100402:	f44f 4380 	mov.w	r3, #16384	; 0x4000
80100406:	f2c0 230c 	movt	r3, #524	; 0x20c
8010040a:	2201      	movs	r2, #1
8010040c:	611a      	str	r2, [r3, #16]
8010040e:	f44f 4300 	mov.w	r3, #32768	; 0x8000
80100412:	f2c0 230c 	movt	r3, #524	; 0x20c
80100416:	f44f 4200 	mov.w	r2, #32768	; 0x8000
8010041a:	f2c0 220c 	movt	r2, #524	; 0x20c
8010041e:	f8d2 2100 	ldr.w	r2, [r2, #256]	; 0x100
80100422:	f002 32c0 	and.w	r2, r2, #3233857728	; 0xc0c0c0c0
80100426:	f8c3 2100 	str.w	r2, [r3, #256]	; 0x100
8010042a:	f44f 4200 	mov.w	r2, #32768	; 0x8000
8010042e:	f2c0 220c 	movt	r2, #524	; 0x20c
80100432:	f44f 4300 	mov.w	r3, #32768	; 0x8000
80100436:	f2c0 230c 	movt	r3, #524	; 0x20c
8010043a:	f8d3 1100 	ldr.w	r1, [r3, #256]	; 0x100
8010043e:	f241 031b 	movw	r3, #4123	; 0x101b
80100442:	f2c3 0318 	movt	r3, #12312	; 0x3018
80100446:	430b      	orrs	r3, r1
80100448:	f8c2 3100 	str.w	r3, [r2, #256]	; 0x100
8010044c:	f44f 4300 	mov.w	r3, #32768	; 0x8000
80100450:	f2c0 230c 	movt	r3, #524	; 0x20c
80100454:	f44f 4200 	mov.w	r2, #32768	; 0x8000
80100458:	f2c0 220c 	movt	r2, #524	; 0x20c
8010045c:	f8d2 20f0 	ldr.w	r2, [r2, #240]	; 0xf0
80100460:	f002 32c0 	and.w	r2, r2, #3233857728	; 0xc0c0c0c0
80100464:	f8c3 20f0 	str.w	r2, [r3, #240]	; 0xf0
80100468:	f44f 4200 	mov.w	r2, #32768	; 0x8000
8010046c:	f2c0 220c 	movt	r2, #524	; 0x20c
80100470:	f44f 4300 	mov.w	r3, #32768	; 0x8000
80100474:	f2c0 230c 	movt	r3, #524	; 0x20c
80100478:	f8d3 10f0 	ldr.w	r1, [r3, #240]	; 0xf0
8010047c:	f241 030c 	movw	r3, #4108	; 0x100c
80100480:	f2c1 3311 	movt	r3, #4881	; 0x1311
80100484:	430b      	orrs	r3, r1
80100486:	f8c2 30f0 	str.w	r3, [r2, #240]	; 0xf0
8010048a:	f44f 4380 	mov.w	r3, #16384	; 0x4000
8010048e:	f2c0 230c 	movt	r3, #524	; 0x20c
80100492:	f44f 4280 	mov.w	r2, #16384	; 0x4000
80100496:	f2c0 220c 	movt	r2, #524	; 0x20c
8010049a:	6992      	ldr	r2, [r2, #24]
8010049c:	f422 02d8 	bic.w	r2, r2, #7077888	; 0x6c0000
801004a0:	619a      	str	r2, [r3, #24]
801004a2:	f44f 4380 	mov.w	r3, #16384	; 0x4000
801004a6:	f2c0 230c 	movt	r3, #524	; 0x20c
801004aa:	f44f 4280 	mov.w	r2, #16384	; 0x4000
801004ae:	f2c0 220c 	movt	r2, #524	; 0x20c
801004b2:	6992      	ldr	r2, [r2, #24]
801004b4:	f442 1210 	orr.w	r2, r2, #2359296	; 0x240000
801004b8:	619a      	str	r2, [r3, #24]
801004ba:	f44f 4380 	mov.w	r3, #16384	; 0x4000
801004be:	f2c0 230c 	movt	r3, #524	; 0x20c
801004c2:	f44f 4280 	mov.w	r2, #16384	; 0x4000
801004c6:	f2c0 220c 	movt	r2, #524	; 0x20c
801004ca:	6952      	ldr	r2, [r2, #20]
801004cc:	f022 62c0 	bic.w	r2, r2, #100663296	; 0x6000000
801004d0:	615a      	str	r2, [r3, #20]
801004d2:	f44f 4380 	mov.w	r3, #16384	; 0x4000
801004d6:	f2c0 230c 	movt	r3, #524	; 0x20c
801004da:	f44f 4280 	mov.w	r2, #16384	; 0x4000
801004de:	f2c0 220c 	movt	r2, #524	; 0x20c
801004e2:	6952      	ldr	r2, [r2, #20]
801004e4:	615a      	str	r2, [r3, #20]
801004e6:	f44f 4280 	mov.w	r2, #16384	; 0x4000
801004ea:	f2c0 220c 	movt	r2, #524	; 0x20c
801004ee:	f44f 4380 	mov.w	r3, #16384	; 0x4000
801004f2:	f2c0 230c 	movt	r3, #524	; 0x20c
801004f6:	695b      	ldr	r3, [r3, #20]
801004f8:	f423 23e0 	bic.w	r3, r3, #458752	; 0x70000
801004fc:	f423 7340 	bic.w	r3, r3, #768	; 0x300
80100500:	6153      	str	r3, [r2, #20]
80100502:	f44f 4280 	mov.w	r2, #16384	; 0x4000
80100506:	f2c0 220c 	movt	r2, #524	; 0x20c
8010050a:	f44f 4380 	mov.w	r3, #16384	; 0x4000
8010050e:	f2c0 230c 	movt	r3, #524	; 0x20c
80100512:	695b      	ldr	r3, [r3, #20]
80100514:	f443 3380 	orr.w	r3, r3, #65536	; 0x10000
80100518:	f443 7380 	orr.w	r3, r3, #256	; 0x100
8010051c:	6153      	str	r3, [r2, #20]
8010051e:	f44f 4280 	mov.w	r2, #16384	; 0x4000
80100522:	f2c0 220c 	movt	r2, #524	; 0x20c
80100526:	f44f 4380 	mov.w	r3, #16384	; 0x4000
8010052a:	f2c0 230c 	movt	r3, #524	; 0x20c
8010052e:	695b      	ldr	r3, [r3, #20]
80100530:	f023 5360 	bic.w	r3, r3, #939524096	; 0x38000000
80100534:	f023 0387 	bic.w	r3, r3, #135	; 0x87
80100538:	6153      	str	r3, [r2, #20]
8010053a:	f44f 4380 	mov.w	r3, #16384	; 0x4000
8010053e:	f2c0 230c 	movt	r3, #524	; 0x20c
80100542:	f44f 4280 	mov.w	r2, #16384	; 0x4000
80100546:	f2c0 220c 	movt	r2, #524	; 0x20c
8010054a:	6952      	ldr	r2, [r2, #20]
8010054c:	615a      	str	r2, [r3, #20]
8010054e:	bf00      	nop
80100550:	f44f 4380 	mov.w	r3, #16384	; 0x4000
80100554:	f2c0 230c 	movt	r3, #524	; 0x20c
80100558:	6c9b      	ldr	r3, [r3, #72]	; 0x48
8010055a:	f003 032f 	and.w	r3, r3, #47	; 0x2f
8010055e:	2b00      	cmp	r3, #0
80100560:	d1f6      	bne.n	80100550 <boot_clk_init+0x1ba>
80100562:	f44f 4380 	mov.w	r3, #16384	; 0x4000
80100566:	f2c0 230c 	movt	r3, #524	; 0x20c
8010056a:	f44f 4280 	mov.w	r2, #16384	; 0x4000
8010056e:	f2c0 220c 	movt	r2, #524	; 0x20c
80100572:	68d2      	ldr	r2, [r2, #12]
80100574:	f022 0201 	bic.w	r2, r2, #1
80100578:	60da      	str	r2, [r3, #12]
8010057a:	f44f 4380 	mov.w	r3, #16384	; 0x4000
8010057e:	f2c0 230c 	movt	r3, #524	; 0x20c
80100582:	f44f 4280 	mov.w	r2, #16384	; 0x4000
80100586:	f2c0 220c 	movt	r2, #524	; 0x20c
8010058a:	6a52      	ldr	r2, [r2, #36]	; 0x24
8010058c:	f022 0240 	bic.w	r2, r2, #64	; 0x40
80100590:	625a      	str	r2, [r3, #36]	; 0x24
80100592:	f44f 4380 	mov.w	r3, #16384	; 0x4000
80100596:	f2c0 230c 	movt	r3, #524	; 0x20c
8010059a:	f44f 4280 	mov.w	r2, #16384	; 0x4000
8010059e:	f2c0 220c 	movt	r2, #524	; 0x20c
801005a2:	6a52      	ldr	r2, [r2, #36]	; 0x24
801005a4:	f022 023f 	bic.w	r2, r2, #63	; 0x3f
801005a8:	625a      	str	r2, [r3, #36]	; 0x24
801005aa:	f44f 4380 	mov.w	r3, #16384	; 0x4000
801005ae:	f2c0 230c 	movt	r3, #524	; 0x20c
801005b2:	f44f 4280 	mov.w	r2, #16384	; 0x4000
801005b6:	f2c0 220c 	movt	r2, #524	; 0x20c
801005ba:	69d2      	ldr	r2, [r2, #28]
801005bc:	f022 0240 	bic.w	r2, r2, #64	; 0x40
801005c0:	61da      	str	r2, [r3, #28]
801005c2:	f44f 4380 	mov.w	r3, #16384	; 0x4000
801005c6:	f2c0 230c 	movt	r3, #524	; 0x20c
801005ca:	f44f 4280 	mov.w	r2, #16384	; 0x4000
801005ce:	f2c0 220c 	movt	r2, #524	; 0x20c
801005d2:	69d2      	ldr	r2, [r2, #28]
801005d4:	f022 023f 	bic.w	r2, r2, #63	; 0x3f
801005d8:	61da      	str	r2, [r3, #28]
801005da:	bf00      	nop
801005dc:	46bd      	mov	sp, r7
801005de:	f85d 7b04 	ldr.w	r7, [sp], #4
801005e2:	4770      	bx	lr

801005e4 <printException>:
801005e4:	b580      	push	{r7, lr}
801005e6:	b082      	sub	sp, #8
801005e8:	af00      	add	r7, sp, #0
801005ea:	6078      	str	r0, [r7, #4]
801005ec:	6039      	str	r1, [r7, #0]
801005ee:	6879      	ldr	r1, [r7, #4]
801005f0:	f241 701c 	movw	r0, #5916	; 0x171c
801005f4:	f2c8 0010 	movt	r0, #32784	; 0x8010
801005f8:	f000 fc99 	bl	80100f2e <printf>
801005fc:	6839      	ldr	r1, [r7, #0]
801005fe:	f241 7038 	movw	r0, #5944	; 0x1738
80100602:	f2c8 0010 	movt	r0, #32784	; 0x8010
80100606:	f000 fc92 	bl	80100f2e <printf>
8010060a:	bf00      	nop
8010060c:	3708      	adds	r7, #8
8010060e:	46bd      	mov	sp, r7
80100610:	bd80      	pop	{r7, pc}

80100612 <printSWIVal>:
80100612:	b580      	push	{r7, lr}
80100614:	b082      	sub	sp, #8
80100616:	af00      	add	r7, sp, #0
80100618:	6078      	str	r0, [r7, #4]
8010061a:	687b      	ldr	r3, [r7, #4]
8010061c:	681b      	ldr	r3, [r3, #0]
8010061e:	f023 437f 	bic.w	r3, r3, #4278190080	; 0xff000000
80100622:	4619      	mov	r1, r3
80100624:	f241 7040 	movw	r0, #5952	; 0x1740
80100628:	f2c8 0010 	movt	r0, #32784	; 0x8010
8010062c:	f000 fc7f 	bl	80100f2e <printf>
80100630:	bf00      	nop
80100632:	3708      	adds	r7, #8
80100634:	46bd      	mov	sp, r7
80100636:	bd80      	pop	{r7, pc}

80100638 <key_irq_init>:
80100638:	b480      	push	{r7}
8010063a:	af00      	add	r7, sp, #0
8010063c:	f44f 4340 	mov.w	r3, #49152	; 0xc000
80100640:	f2c0 230a 	movt	r3, #522	; 0x20a
80100644:	f44f 4240 	mov.w	r2, #49152	; 0xc000
80100648:	f2c0 220a 	movt	r2, #522	; 0x20a
8010064c:	69d2      	ldr	r2, [r2, #28]
8010064e:	f042 0202 	orr.w	r2, r2, #2
80100652:	61da      	str	r2, [r3, #28]
80100654:	f44f 4340 	mov.w	r3, #49152	; 0xc000
80100658:	f2c0 230a 	movt	r3, #522	; 0x20a
8010065c:	f44f 4240 	mov.w	r2, #49152	; 0xc000
80100660:	f2c0 220a 	movt	r2, #522	; 0x20a
80100664:	6952      	ldr	r2, [r2, #20]
80100666:	f042 0202 	orr.w	r2, r2, #2
8010066a:	615a      	str	r2, [r3, #20]
8010066c:	f44f 4300 	mov.w	r3, #32768	; 0x8000
80100670:	f2c0 230a 	movt	r3, #522	; 0x20a
80100674:	f44f 4200 	mov.w	r2, #32768	; 0x8000
80100678:	f2c0 220a 	movt	r2, #522	; 0x20a
8010067c:	69d2      	ldr	r2, [r2, #28]
8010067e:	f442 4280 	orr.w	r2, r2, #16384	; 0x4000
80100682:	61da      	str	r2, [r3, #28]
80100684:	f44f 4300 	mov.w	r3, #32768	; 0x8000
80100688:	f2c0 230a 	movt	r3, #522	; 0x20a
8010068c:	f44f 4200 	mov.w	r2, #32768	; 0x8000
80100690:	f2c0 220a 	movt	r2, #522	; 0x20a
80100694:	6952      	ldr	r2, [r2, #20]
80100696:	f442 4280 	orr.w	r2, r2, #16384	; 0x4000
8010069a:	615a      	str	r2, [r3, #20]
8010069c:	bf00      	nop
8010069e:	46bd      	mov	sp, r7
801006a0:	f85d 7b04 	ldr.w	r7, [sp], #4
801006a4:	4770      	bx	lr

801006a6 <system_init>:
801006a6:	b580      	push	{r7, lr}
801006a8:	af00      	add	r7, sp, #0
801006aa:	f7ff fd81 	bl	801001b0 <init_pins>
801006ae:	f000 f842 	bl	80100736 <led_gpio_init>
801006b2:	2000      	movs	r0, #0
801006b4:	f000 f852 	bl	8010075c <led_ctl>
801006b8:	f7ff fe34 	bl	80100324 <boot_clk_gate_init>
801006bc:	f7ff fe6b 	bl	80100396 <boot_clk_init>
801006c0:	f000 f9d9 	bl	80100a76 <uart1_init>
801006c4:	f241 7054 	movw	r0, #5972	; 0x1754
801006c8:	f2c8 0010 	movt	r0, #32784	; 0x8010
801006cc:	f000 faa2 	bl	80100c14 <puts>
801006d0:	f7ff ffb2 	bl	80100638 <key_irq_init>
801006d4:	f000 fcc9 	bl	8010106a <gic_init>
801006d8:	206a      	movs	r0, #106	; 0x6a
801006da:	f000 fd01 	bl	801010e0 <gic_enable_irq>
801006de:	2068      	movs	r0, #104	; 0x68
801006e0:	f000 fcfe 	bl	801010e0 <gic_enable_irq>
801006e4:	bf00      	nop
801006e6:	bd80      	pop	{r7, pc}

801006e8 <main>:
801006e8:	b580      	push	{r7, lr}
801006ea:	af00      	add	r7, sp, #0
801006ec:	f244 2040 	movw	r0, #16960	; 0x4240
801006f0:	f2c0 000f 	movt	r0, #15
801006f4:	f000 fdc4 	bl	80101280 <gpt2_chan1_delay_us>
801006f8:	f44f 4340 	mov.w	r3, #49152	; 0xc000
801006fc:	f2c0 230a 	movt	r3, #522	; 0x20a
80100700:	f44f 4240 	mov.w	r2, #49152	; 0xc000
80100704:	f2c0 220a 	movt	r2, #522	; 0x20a
80100708:	6812      	ldr	r2, [r2, #0]
8010070a:	f022 0208 	bic.w	r2, r2, #8
8010070e:	601a      	str	r2, [r3, #0]
80100710:	f244 2040 	movw	r0, #16960	; 0x4240
80100714:	f2c0 000f 	movt	r0, #15
80100718:	f000 fdb2 	bl	80101280 <gpt2_chan1_delay_us>
8010071c:	f44f 4340 	mov.w	r3, #49152	; 0xc000
80100720:	f2c0 230a 	movt	r3, #522	; 0x20a
80100724:	f44f 4240 	mov.w	r2, #49152	; 0xc000
80100728:	f2c0 220a 	movt	r2, #522	; 0x20a
8010072c:	6812      	ldr	r2, [r2, #0]
8010072e:	f042 0208 	orr.w	r2, r2, #8
80100732:	601a      	str	r2, [r3, #0]
80100734:	e7da      	b.n	801006ec <main+0x4>

80100736 <led_gpio_init>:
80100736:	b480      	push	{r7}
80100738:	af00      	add	r7, sp, #0
8010073a:	f44f 4340 	mov.w	r3, #49152	; 0xc000
8010073e:	f2c0 230a 	movt	r3, #522	; 0x20a
80100742:	f44f 4240 	mov.w	r2, #49152	; 0xc000
80100746:	f2c0 220a 	movt	r2, #522	; 0x20a
8010074a:	6852      	ldr	r2, [r2, #4]
8010074c:	f042 0208 	orr.w	r2, r2, #8
80100750:	605a      	str	r2, [r3, #4]
80100752:	bf00      	nop
80100754:	46bd      	mov	sp, r7
80100756:	f85d 7b04 	ldr.w	r7, [sp], #4
8010075a:	4770      	bx	lr

8010075c <led_ctl>:
8010075c:	b480      	push	{r7}
8010075e:	b083      	sub	sp, #12
80100760:	af00      	add	r7, sp, #0
80100762:	6078      	str	r0, [r7, #4]
80100764:	687b      	ldr	r3, [r7, #4]
80100766:	2b00      	cmp	r3, #0
80100768:	d00c      	beq.n	80100784 <led_ctl+0x28>
8010076a:	f44f 4340 	mov.w	r3, #49152	; 0xc000
8010076e:	f2c0 230a 	movt	r3, #522	; 0x20a
80100772:	f44f 4240 	mov.w	r2, #49152	; 0xc000
80100776:	f2c0 220a 	movt	r2, #522	; 0x20a
8010077a:	6812      	ldr	r2, [r2, #0]
8010077c:	f022 0208 	bic.w	r2, r2, #8
80100780:	601a      	str	r2, [r3, #0]
80100782:	e00b      	b.n	8010079c <led_ctl+0x40>
80100784:	f44f 4340 	mov.w	r3, #49152	; 0xc000
80100788:	f2c0 230a 	movt	r3, #522	; 0x20a
8010078c:	f44f 4240 	mov.w	r2, #49152	; 0xc000
80100790:	f2c0 220a 	movt	r2, #522	; 0x20a
80100794:	6812      	ldr	r2, [r2, #0]
80100796:	f042 0208 	orr.w	r2, r2, #8
8010079a:	601a      	str	r2, [r3, #0]
8010079c:	bf00      	nop
8010079e:	370c      	adds	r7, #12
801007a0:	46bd      	mov	sp, r7
801007a2:	f85d 7b04 	ldr.w	r7, [sp], #4
801007a6:	4770      	bx	lr

801007a8 <UART_SetBaudRate>:
801007a8:	b590      	push	{r4, r7, lr}
801007aa:	b091      	sub	sp, #68	; 0x44
801007ac:	af00      	add	r7, sp, #0
801007ae:	6078      	str	r0, [r7, #4]
801007b0:	6039      	str	r1, [r7, #0]
801007b2:	2300      	movs	r3, #0
801007b4:	63fb      	str	r3, [r7, #60]	; 0x3c
801007b6:	2300      	movs	r3, #0
801007b8:	63bb      	str	r3, [r7, #56]	; 0x38
801007ba:	2300      	movs	r3, #0
801007bc:	637b      	str	r3, [r7, #52]	; 0x34
801007be:	2300      	movs	r3, #0
801007c0:	633b      	str	r3, [r7, #48]	; 0x30
801007c2:	2301      	movs	r3, #1
801007c4:	623b      	str	r3, [r7, #32]
801007c6:	f04f 0300 	mov.w	r3, #0
801007ca:	f04f 0400 	mov.w	r4, #0
801007ce:	e9c7 3406 	strd	r3, r4, [r7, #24]
801007d2:	f04f 0300 	mov.w	r3, #0
801007d6:	f04f 0400 	mov.w	r4, #0
801007da:	e9c7 340a 	strd	r3, r4, [r7, #40]	; 0x28
801007de:	2300      	movs	r3, #0
801007e0:	627b      	str	r3, [r7, #36]	; 0x24
801007e2:	683b      	ldr	r3, [r7, #0]
801007e4:	63fb      	str	r3, [r7, #60]	; 0x3c
801007e6:	687b      	ldr	r3, [r7, #4]
801007e8:	011b      	lsls	r3, r3, #4
801007ea:	63bb      	str	r3, [r7, #56]	; 0x38
801007ec:	2301      	movs	r3, #1
801007ee:	637b      	str	r3, [r7, #52]	; 0x34
801007f0:	e00a      	b.n	80100808 <UART_SetBaudRate+0x60>
801007f2:	6bbb      	ldr	r3, [r7, #56]	; 0x38
801007f4:	637b      	str	r3, [r7, #52]	; 0x34
801007f6:	6bfb      	ldr	r3, [r7, #60]	; 0x3c
801007f8:	6bb9      	ldr	r1, [r7, #56]	; 0x38
801007fa:	4618      	mov	r0, r3
801007fc:	f000 fed6 	bl	801015ac <__aeabi_uidivmod>
80100800:	460b      	mov	r3, r1
80100802:	63bb      	str	r3, [r7, #56]	; 0x38
80100804:	6b7b      	ldr	r3, [r7, #52]	; 0x34
80100806:	63fb      	str	r3, [r7, #60]	; 0x3c
80100808:	6bbb      	ldr	r3, [r7, #56]	; 0x38
8010080a:	2b00      	cmp	r3, #0
8010080c:	d1f1      	bne.n	801007f2 <UART_SetBaudRate+0x4a>
8010080e:	6b79      	ldr	r1, [r7, #52]	; 0x34
80100810:	6838      	ldr	r0, [r7, #0]
80100812:	f000 fd9d 	bl	80101350 <__aeabi_uidiv>
80100816:	4603      	mov	r3, r0
80100818:	63fb      	str	r3, [r7, #60]	; 0x3c
8010081a:	687b      	ldr	r3, [r7, #4]
8010081c:	011b      	lsls	r3, r3, #4
8010081e:	6b79      	ldr	r1, [r7, #52]	; 0x34
80100820:	4618      	mov	r0, r3
80100822:	f000 fd95 	bl	80101350 <__aeabi_uidiv>
80100826:	4603      	mov	r3, r0
80100828:	63bb      	str	r3, [r7, #56]	; 0x38
8010082a:	6bfa      	ldr	r2, [r7, #60]	; 0x3c
8010082c:	f64f 73f9 	movw	r3, #65529	; 0xfff9
80100830:	f2c0 0306 	movt	r3, #6
80100834:	429a      	cmp	r2, r3
80100836:	d803      	bhi.n	80100840 <UART_SetBaudRate+0x98>
80100838:	6bbb      	ldr	r3, [r7, #56]	; 0x38
8010083a:	f5b3 3f80 	cmp.w	r3, #65536	; 0x10000
8010083e:	d334      	bcc.n	801008aa <UART_SetBaudRate+0x102>
80100840:	6bfb      	ldr	r3, [r7, #60]	; 0x3c
80100842:	1e5a      	subs	r2, r3, #1
80100844:	f646 53b9 	movw	r3, #28089	; 0x6db9
80100848:	f2c2 4393 	movt	r3, #9363	; 0x2493
8010084c:	fba2 3403 	umull	r3, r4, r2, r3
80100850:	1b12      	subs	r2, r2, r4
80100852:	0852      	lsrs	r2, r2, #1
80100854:	1913      	adds	r3, r2, r4
80100856:	0c9b      	lsrs	r3, r3, #18
80100858:	3301      	adds	r3, #1
8010085a:	617b      	str	r3, [r7, #20]
8010085c:	6bbb      	ldr	r3, [r7, #56]	; 0x38
8010085e:	1e5a      	subs	r2, r3, #1
80100860:	f248 0301 	movw	r3, #32769	; 0x8001
80100864:	f2c8 0300 	movt	r3, #32768	; 0x8000
80100868:	fba2 3403 	umull	r3, r4, r2, r3
8010086c:	0be3      	lsrs	r3, r4, #15
8010086e:	3301      	adds	r3, #1
80100870:	613b      	str	r3, [r7, #16]
80100872:	693a      	ldr	r2, [r7, #16]
80100874:	697b      	ldr	r3, [r7, #20]
80100876:	4293      	cmp	r3, r2
80100878:	bf38      	it	cc
8010087a:	4613      	movcc	r3, r2
8010087c:	60fb      	str	r3, [r7, #12]
8010087e:	68f9      	ldr	r1, [r7, #12]
80100880:	6bf8      	ldr	r0, [r7, #60]	; 0x3c
80100882:	f000 fd65 	bl	80101350 <__aeabi_uidiv>
80100886:	4603      	mov	r3, r0
80100888:	63fb      	str	r3, [r7, #60]	; 0x3c
8010088a:	68f9      	ldr	r1, [r7, #12]
8010088c:	6bb8      	ldr	r0, [r7, #56]	; 0x38
8010088e:	f000 fd5f 	bl	80101350 <__aeabi_uidiv>
80100892:	4603      	mov	r3, r0
80100894:	63bb      	str	r3, [r7, #56]	; 0x38
80100896:	6bfb      	ldr	r3, [r7, #60]	; 0x3c
80100898:	2b00      	cmp	r3, #0
8010089a:	d101      	bne.n	801008a0 <UART_SetBaudRate+0xf8>
8010089c:	2301      	movs	r3, #1
8010089e:	63fb      	str	r3, [r7, #60]	; 0x3c
801008a0:	6bbb      	ldr	r3, [r7, #56]	; 0x38
801008a2:	2b00      	cmp	r3, #0
801008a4:	d101      	bne.n	801008aa <UART_SetBaudRate+0x102>
801008a6:	2301      	movs	r3, #1
801008a8:	63bb      	str	r3, [r7, #56]	; 0x38
801008aa:	6bfb      	ldr	r3, [r7, #60]	; 0x3c
801008ac:	1e5a      	subs	r2, r3, #1
801008ae:	f248 0301 	movw	r3, #32769	; 0x8001
801008b2:	f2c8 0300 	movt	r3, #32768	; 0x8000
801008b6:	fba2 3403 	umull	r3, r4, r2, r3
801008ba:	0be3      	lsrs	r3, r4, #15
801008bc:	3301      	adds	r3, #1
801008be:	623b      	str	r3, [r7, #32]
801008c0:	6a3b      	ldr	r3, [r7, #32]
801008c2:	3b01      	subs	r3, #1
801008c4:	2b06      	cmp	r3, #6
801008c6:	d826      	bhi.n	80100916 <UART_SetBaudRate+0x16e>
801008c8:	a201      	add	r2, pc, #4	; (adr r2, 801008d0 <UART_SetBaudRate+0x128>)
801008ca:	f852 f023 	ldr.w	pc, [r2, r3, lsl #2]
801008ce:	bf00      	nop
801008d0:	801008ed 	andshi	r0, r0, sp, ror #17
801008d4:	801008f3 			; <UNDEFINED> instruction: 0x801008f3
801008d8:	801008f9 			; <UNDEFINED> instruction: 0x801008f9
801008dc:	801008ff 			; <UNDEFINED> instruction: 0x801008ff
801008e0:	80100905 	andshi	r0, r0, r5, lsl #18
801008e4:	8010090b 	andshi	r0, r0, fp, lsl #18
801008e8:	80100911 	andshi	r0, r0, r1, lsl r9
801008ec:	2305      	movs	r3, #5
801008ee:	633b      	str	r3, [r7, #48]	; 0x30
801008f0:	e014      	b.n	8010091c <UART_SetBaudRate+0x174>
801008f2:	2304      	movs	r3, #4
801008f4:	633b      	str	r3, [r7, #48]	; 0x30
801008f6:	e011      	b.n	8010091c <UART_SetBaudRate+0x174>
801008f8:	2303      	movs	r3, #3
801008fa:	633b      	str	r3, [r7, #48]	; 0x30
801008fc:	e00e      	b.n	8010091c <UART_SetBaudRate+0x174>
801008fe:	2302      	movs	r3, #2
80100900:	633b      	str	r3, [r7, #48]	; 0x30
80100902:	e00b      	b.n	8010091c <UART_SetBaudRate+0x174>
80100904:	2301      	movs	r3, #1
80100906:	633b      	str	r3, [r7, #48]	; 0x30
80100908:	e008      	b.n	8010091c <UART_SetBaudRate+0x174>
8010090a:	2300      	movs	r3, #0
8010090c:	633b      	str	r3, [r7, #48]	; 0x30
8010090e:	e005      	b.n	8010091c <UART_SetBaudRate+0x174>
80100910:	2306      	movs	r3, #6
80100912:	633b      	str	r3, [r7, #48]	; 0x30
80100914:	e002      	b.n	8010091c <UART_SetBaudRate+0x174>
80100916:	2305      	movs	r3, #5
80100918:	633b      	str	r3, [r7, #48]	; 0x30
8010091a:	bf00      	nop
8010091c:	683b      	ldr	r3, [r7, #0]
8010091e:	f04f 0400 	mov.w	r4, #0
80100922:	e9c7 340a 	strd	r3, r4, [r7, #40]	; 0x28
80100926:	6bfb      	ldr	r3, [r7, #60]	; 0x3c
80100928:	011b      	lsls	r3, r3, #4
8010092a:	627b      	str	r3, [r7, #36]	; 0x24
8010092c:	2301      	movs	r3, #1
8010092e:	637b      	str	r3, [r7, #52]	; 0x34
80100930:	e012      	b.n	80100958 <UART_SetBaudRate+0x1b0>
80100932:	6a7b      	ldr	r3, [r7, #36]	; 0x24
80100934:	637b      	str	r3, [r7, #52]	; 0x34
80100936:	6a7b      	ldr	r3, [r7, #36]	; 0x24
80100938:	f04f 0400 	mov.w	r4, #0
8010093c:	e9d7 010a 	ldrd	r0, r1, [r7, #40]	; 0x28
80100940:	461a      	mov	r2, r3
80100942:	4623      	mov	r3, r4
80100944:	f000 fe40 	bl	801015c8 <__aeabi_uldivmod>
80100948:	461c      	mov	r4, r3
8010094a:	4613      	mov	r3, r2
8010094c:	627b      	str	r3, [r7, #36]	; 0x24
8010094e:	6b7b      	ldr	r3, [r7, #52]	; 0x34
80100950:	f04f 0400 	mov.w	r4, #0
80100954:	e9c7 340a 	strd	r3, r4, [r7, #40]	; 0x28
80100958:	6a7b      	ldr	r3, [r7, #36]	; 0x24
8010095a:	2b00      	cmp	r3, #0
8010095c:	d1e9      	bne.n	80100932 <UART_SetBaudRate+0x18a>
8010095e:	6b79      	ldr	r1, [r7, #52]	; 0x34
80100960:	6838      	ldr	r0, [r7, #0]
80100962:	f000 fcf5 	bl	80101350 <__aeabi_uidiv>
80100966:	4603      	mov	r3, r0
80100968:	f04f 0400 	mov.w	r4, #0
8010096c:	e9c7 340a 	strd	r3, r4, [r7, #40]	; 0x28
80100970:	6bfb      	ldr	r3, [r7, #60]	; 0x3c
80100972:	011b      	lsls	r3, r3, #4
80100974:	6b79      	ldr	r1, [r7, #52]	; 0x34
80100976:	4618      	mov	r0, r3
80100978:	f000 fcea 	bl	80101350 <__aeabi_uidiv>
8010097c:	4603      	mov	r3, r0
8010097e:	627b      	str	r3, [r7, #36]	; 0x24
80100980:	6bbb      	ldr	r3, [r7, #56]	; 0x38
80100982:	f04f 0400 	mov.w	r4, #0
80100986:	6aba      	ldr	r2, [r7, #40]	; 0x28
80100988:	fb04 f102 	mul.w	r1, r4, r2
8010098c:	6afa      	ldr	r2, [r7, #44]	; 0x2c
8010098e:	fb03 f202 	mul.w	r2, r3, r2
80100992:	440a      	add	r2, r1
80100994:	6ab9      	ldr	r1, [r7, #40]	; 0x28
80100996:	fba1 0103 	umull	r0, r1, r1, r3
8010099a:	1853      	adds	r3, r2, r1
8010099c:	4619      	mov	r1, r3
8010099e:	6a7b      	ldr	r3, [r7, #36]	; 0x24
801009a0:	f04f 0400 	mov.w	r4, #0
801009a4:	461a      	mov	r2, r3
801009a6:	4623      	mov	r3, r4
801009a8:	f000 fe0e 	bl	801015c8 <__aeabi_uldivmod>
801009ac:	4603      	mov	r3, r0
801009ae:	460c      	mov	r4, r1
801009b0:	e9c7 3406 	strd	r3, r4, [r7, #24]
801009b4:	687b      	ldr	r3, [r7, #4]
801009b6:	f04f 0400 	mov.w	r4, #0
801009ba:	e9d7 1206 	ldrd	r1, r2, [r7, #24]
801009be:	42a2      	cmp	r2, r4
801009c0:	bf08      	it	eq
801009c2:	4299      	cmpeq	r1, r3
801009c4:	d308      	bcc.n	801009d8 <UART_SetBaudRate+0x230>
801009c6:	687b      	ldr	r3, [r7, #4]
801009c8:	f04f 0400 	mov.w	r4, #0
801009cc:	e9d7 1206 	ldrd	r1, r2, [r7, #24]
801009d0:	1acb      	subs	r3, r1, r3
801009d2:	eb62 0404 	sbc.w	r4, r2, r4
801009d6:	e008      	b.n	801009ea <UART_SetBaudRate+0x242>
801009d8:	687b      	ldr	r3, [r7, #4]
801009da:	4619      	mov	r1, r3
801009dc:	f04f 0200 	mov.w	r2, #0
801009e0:	e9d7 3406 	ldrd	r3, r4, [r7, #24]
801009e4:	1acb      	subs	r3, r1, r3
801009e6:	eb62 0404 	sbc.w	r4, r2, r4
801009ea:	e9c7 3406 	strd	r3, r4, [r7, #24]
801009ee:	2300      	movs	r3, #0
801009f0:	f2c0 2302 	movt	r3, #514	; 0x202
801009f4:	2200      	movs	r2, #0
801009f6:	f2c0 2202 	movt	r2, #514	; 0x202
801009fa:	f8d2 2090 	ldr.w	r2, [r2, #144]	; 0x90
801009fe:	f422 7260 	bic.w	r2, r2, #896	; 0x380
80100a02:	f8c3 2090 	str.w	r2, [r3, #144]	; 0x90
80100a06:	2300      	movs	r3, #0
80100a08:	f2c0 2302 	movt	r3, #514	; 0x202
80100a0c:	2200      	movs	r2, #0
80100a0e:	f2c0 2202 	movt	r2, #514	; 0x202
80100a12:	f8d2 1090 	ldr.w	r1, [r2, #144]	; 0x90
80100a16:	6b3a      	ldr	r2, [r7, #48]	; 0x30
80100a18:	01d2      	lsls	r2, r2, #7
80100a1a:	f402 7260 	and.w	r2, r2, #896	; 0x380
80100a1e:	430a      	orrs	r2, r1
80100a20:	f8c3 2090 	str.w	r2, [r3, #144]	; 0x90
80100a24:	2300      	movs	r3, #0
80100a26:	f2c0 2302 	movt	r3, #514	; 0x202
80100a2a:	6bba      	ldr	r2, [r7, #56]	; 0x38
80100a2c:	3a01      	subs	r2, #1
80100a2e:	b292      	uxth	r2, r2
80100a30:	f8c3 20a4 	str.w	r2, [r3, #164]	; 0xa4
80100a34:	2400      	movs	r4, #0
80100a36:	f2c0 2402 	movt	r4, #514	; 0x202
80100a3a:	6a39      	ldr	r1, [r7, #32]
80100a3c:	6bf8      	ldr	r0, [r7, #60]	; 0x3c
80100a3e:	f000 fc87 	bl	80101350 <__aeabi_uidiv>
80100a42:	4603      	mov	r3, r0
80100a44:	3b01      	subs	r3, #1
80100a46:	b29b      	uxth	r3, r3
80100a48:	f8c4 30a8 	str.w	r3, [r4, #168]	; 0xa8
80100a4c:	2400      	movs	r4, #0
80100a4e:	f2c0 2402 	movt	r4, #514	; 0x202
80100a52:	6a3b      	ldr	r3, [r7, #32]
80100a54:	f44f 727a 	mov.w	r2, #1000	; 0x3e8
80100a58:	fb02 f303 	mul.w	r3, r2, r3
80100a5c:	4619      	mov	r1, r3
80100a5e:	6838      	ldr	r0, [r7, #0]
80100a60:	f000 fc76 	bl	80101350 <__aeabi_uidiv>
80100a64:	4603      	mov	r3, r0
80100a66:	f023 437f 	bic.w	r3, r3, #4278190080	; 0xff000000
80100a6a:	f8c4 30b0 	str.w	r3, [r4, #176]	; 0xb0
80100a6e:	bf00      	nop
80100a70:	3744      	adds	r7, #68	; 0x44
80100a72:	46bd      	mov	sp, r7
80100a74:	bd90      	pop	{r4, r7, pc}

80100a76 <uart1_init>:
80100a76:	b580      	push	{r7, lr}
80100a78:	af00      	add	r7, sp, #0
80100a7a:	2300      	movs	r3, #0
80100a7c:	f2c0 2302 	movt	r3, #514	; 0x202
80100a80:	2200      	movs	r2, #0
80100a82:	f2c0 2202 	movt	r2, #514	; 0x202
80100a86:	f8d2 2080 	ldr.w	r2, [r2, #128]	; 0x80
80100a8a:	f022 0201 	bic.w	r2, r2, #1
80100a8e:	f8c3 2080 	str.w	r2, [r3, #128]	; 0x80
80100a92:	2300      	movs	r3, #0
80100a94:	f2c0 2302 	movt	r3, #514	; 0x202
80100a98:	2200      	movs	r2, #0
80100a9a:	f2c0 2202 	movt	r2, #514	; 0x202
80100a9e:	f8d2 2084 	ldr.w	r2, [r2, #132]	; 0x84
80100aa2:	f022 0201 	bic.w	r2, r2, #1
80100aa6:	f8c3 2084 	str.w	r2, [r3, #132]	; 0x84
80100aaa:	bf00      	nop
80100aac:	2300      	movs	r3, #0
80100aae:	f2c0 2302 	movt	r3, #514	; 0x202
80100ab2:	f8d3 3084 	ldr.w	r3, [r3, #132]	; 0x84
80100ab6:	f003 0301 	and.w	r3, r3, #1
80100aba:	2b00      	cmp	r3, #0
80100abc:	d0f6      	beq.n	80100aac <uart1_init+0x36>
80100abe:	2300      	movs	r3, #0
80100ac0:	f2c0 2302 	movt	r3, #514	; 0x202
80100ac4:	2200      	movs	r2, #0
80100ac6:	f8c3 2080 	str.w	r2, [r3, #128]	; 0x80
80100aca:	2300      	movs	r3, #0
80100acc:	f2c0 2302 	movt	r3, #514	; 0x202
80100ad0:	2201      	movs	r2, #1
80100ad2:	f8c3 2084 	str.w	r2, [r3, #132]	; 0x84
80100ad6:	2300      	movs	r3, #0
80100ad8:	f2c0 2302 	movt	r3, #514	; 0x202
80100adc:	f44f 62e0 	mov.w	r2, #1792	; 0x700
80100ae0:	f8c3 2088 	str.w	r2, [r3, #136]	; 0x88
80100ae4:	2300      	movs	r3, #0
80100ae6:	f2c0 2302 	movt	r3, #514	; 0x202
80100aea:	f44f 4200 	mov.w	r2, #32768	; 0x8000
80100aee:	f8c3 208c 	str.w	r2, [r3, #140]	; 0x8c
80100af2:	2300      	movs	r3, #0
80100af4:	f2c0 2302 	movt	r3, #514	; 0x202
80100af8:	f640 0201 	movw	r2, #2049	; 0x801
80100afc:	f8c3 2090 	str.w	r2, [r3, #144]	; 0x90
80100b00:	2300      	movs	r3, #0
80100b02:	f2c0 2302 	movt	r3, #514	; 0x202
80100b06:	222b      	movs	r2, #43	; 0x2b
80100b08:	f8c3 209c 	str.w	r2, [r3, #156]	; 0x9c
80100b0c:	2300      	movs	r3, #0
80100b0e:	f2c0 2302 	movt	r3, #514	; 0x202
80100b12:	2200      	movs	r2, #0
80100b14:	f8c3 20a0 	str.w	r2, [r3, #160]	; 0xa0
80100b18:	2300      	movs	r3, #0
80100b1a:	f2c0 2302 	movt	r3, #514	; 0x202
80100b1e:	2200      	movs	r2, #0
80100b20:	f8c3 20b0 	str.w	r2, [r3, #176]	; 0xb0
80100b24:	2300      	movs	r3, #0
80100b26:	f2c0 2302 	movt	r3, #514	; 0x202
80100b2a:	2260      	movs	r2, #96	; 0x60
80100b2c:	f8c3 20b4 	str.w	r2, [r3, #180]	; 0xb4
80100b30:	2300      	movs	r3, #0
80100b32:	f2c0 2302 	movt	r3, #514	; 0x202
80100b36:	2200      	movs	r2, #0
80100b38:	f8c3 20b8 	str.w	r2, [r3, #184]	; 0xb8
80100b3c:	2200      	movs	r2, #0
80100b3e:	f2c0 2202 	movt	r2, #514	; 0x202
80100b42:	2300      	movs	r3, #0
80100b44:	f2c0 2302 	movt	r3, #514	; 0x202
80100b48:	f8d3 3084 	ldr.w	r3, [r3, #132]	; 0x84
80100b4c:	f443 4380 	orr.w	r3, r3, #16384	; 0x4000
80100b50:	f043 0366 	orr.w	r3, r3, #102	; 0x66
80100b54:	f8c2 3084 	str.w	r3, [r2, #132]	; 0x84
80100b58:	2300      	movs	r3, #0
80100b5a:	f2c0 2302 	movt	r3, #514	; 0x202
80100b5e:	2200      	movs	r2, #0
80100b60:	f2c0 2202 	movt	r2, #514	; 0x202
80100b64:	f8d2 2088 	ldr.w	r2, [r2, #136]	; 0x88
80100b68:	f042 0204 	orr.w	r2, r2, #4
80100b6c:	f8c3 2088 	str.w	r2, [r3, #136]	; 0x88
80100b70:	2300      	movs	r3, #0
80100b72:	f2c0 2302 	movt	r3, #514	; 0x202
80100b76:	2200      	movs	r2, #0
80100b78:	f2c0 2202 	movt	r2, #514	; 0x202
80100b7c:	f8d2 2080 	ldr.w	r2, [r2, #128]	; 0x80
80100b80:	f422 4280 	bic.w	r2, r2, #16384	; 0x4000
80100b84:	f8c3 2080 	str.w	r2, [r3, #128]	; 0x80
80100b88:	f44f 4134 	mov.w	r1, #46080	; 0xb400
80100b8c:	f2c0 41c4 	movt	r1, #1220	; 0x4c4
80100b90:	f44f 30e1 	mov.w	r0, #115200	; 0x1c200
80100b94:	f7ff fe08 	bl	801007a8 <UART_SetBaudRate>
80100b98:	2300      	movs	r3, #0
80100b9a:	f2c0 2302 	movt	r3, #514	; 0x202
80100b9e:	2200      	movs	r2, #0
80100ba0:	f2c0 2202 	movt	r2, #514	; 0x202
80100ba4:	f8d2 2080 	ldr.w	r2, [r2, #128]	; 0x80
80100ba8:	f042 0201 	orr.w	r2, r2, #1
80100bac:	f8c3 2080 	str.w	r2, [r3, #128]	; 0x80
80100bb0:	bf00      	nop
80100bb2:	bd80      	pop	{r7, pc}

80100bb4 <putchar>:
80100bb4:	b480      	push	{r7}
80100bb6:	b083      	sub	sp, #12
80100bb8:	af00      	add	r7, sp, #0
80100bba:	6078      	str	r0, [r7, #4]
80100bbc:	bf00      	nop
80100bbe:	2300      	movs	r3, #0
80100bc0:	f2c0 2302 	movt	r3, #514	; 0x202
80100bc4:	f8d3 3098 	ldr.w	r3, [r3, #152]	; 0x98
80100bc8:	f003 0308 	and.w	r3, r3, #8
80100bcc:	2b00      	cmp	r3, #0
80100bce:	d0f6      	beq.n	80100bbe <putchar+0xa>
80100bd0:	2300      	movs	r3, #0
80100bd2:	f2c0 2302 	movt	r3, #514	; 0x202
80100bd6:	687a      	ldr	r2, [r7, #4]
80100bd8:	b2d2      	uxtb	r2, r2
80100bda:	641a      	str	r2, [r3, #64]	; 0x40
80100bdc:	bf00      	nop
80100bde:	370c      	adds	r7, #12
80100be0:	46bd      	mov	sp, r7
80100be2:	f85d 7b04 	ldr.w	r7, [sp], #4
80100be6:	4770      	bx	lr

80100be8 <getchar>:
80100be8:	b480      	push	{r7}
80100bea:	af00      	add	r7, sp, #0
80100bec:	bf00      	nop
80100bee:	2300      	movs	r3, #0
80100bf0:	f2c0 2302 	movt	r3, #514	; 0x202
80100bf4:	f8d3 3098 	ldr.w	r3, [r3, #152]	; 0x98
80100bf8:	f003 0301 	and.w	r3, r3, #1
80100bfc:	2b00      	cmp	r3, #0
80100bfe:	d0f6      	beq.n	80100bee <getchar+0x6>
80100c00:	2300      	movs	r3, #0
80100c02:	f2c0 2302 	movt	r3, #514	; 0x202
80100c06:	681b      	ldr	r3, [r3, #0]
80100c08:	b2db      	uxtb	r3, r3
80100c0a:	4618      	mov	r0, r3
80100c0c:	46bd      	mov	sp, r7
80100c0e:	f85d 7b04 	ldr.w	r7, [sp], #4
80100c12:	4770      	bx	lr

80100c14 <puts>:
80100c14:	b580      	push	{r7, lr}
80100c16:	b082      	sub	sp, #8
80100c18:	af00      	add	r7, sp, #0
80100c1a:	6078      	str	r0, [r7, #4]
80100c1c:	e007      	b.n	80100c2e <puts+0x1a>
80100c1e:	687b      	ldr	r3, [r7, #4]
80100c20:	781b      	ldrb	r3, [r3, #0]
80100c22:	4618      	mov	r0, r3
80100c24:	f7ff ffc6 	bl	80100bb4 <putchar>
80100c28:	687b      	ldr	r3, [r7, #4]
80100c2a:	3301      	adds	r3, #1
80100c2c:	607b      	str	r3, [r7, #4]
80100c2e:	687b      	ldr	r3, [r7, #4]
80100c30:	781b      	ldrb	r3, [r3, #0]
80100c32:	2b00      	cmp	r3, #0
80100c34:	d1f3      	bne.n	80100c1e <puts+0xa>
80100c36:	bf00      	nop
80100c38:	3708      	adds	r7, #8
80100c3a:	46bd      	mov	sp, r7
80100c3c:	bd80      	pop	{r7, pc}
80100c3e:	bf00      	nop

80100c40 <raise>:
80100c40:	b480      	push	{r7}
80100c42:	b083      	sub	sp, #12
80100c44:	af00      	add	r7, sp, #0
80100c46:	6078      	str	r0, [r7, #4]
80100c48:	2300      	movs	r3, #0
80100c4a:	4618      	mov	r0, r3
80100c4c:	370c      	adds	r7, #12
80100c4e:	46bd      	mov	sp, r7
80100c50:	f85d 7b04 	ldr.w	r7, [sp], #4
80100c54:	4770      	bx	lr
	...

80100c58 <outc>:
80100c58:	b580      	push	{r7, lr}
80100c5a:	b082      	sub	sp, #8
80100c5c:	af00      	add	r7, sp, #0
80100c5e:	6078      	str	r0, [r7, #4]
80100c60:	6878      	ldr	r0, [r7, #4]
80100c62:	f7ff ffa7 	bl	80100bb4 <putchar>
80100c66:	2300      	movs	r3, #0
80100c68:	4618      	mov	r0, r3
80100c6a:	3708      	adds	r7, #8
80100c6c:	46bd      	mov	sp, r7
80100c6e:	bd80      	pop	{r7, pc}

80100c70 <outs>:
80100c70:	b580      	push	{r7, lr}
80100c72:	b082      	sub	sp, #8
80100c74:	af00      	add	r7, sp, #0
80100c76:	6078      	str	r0, [r7, #4]
80100c78:	e006      	b.n	80100c88 <outs+0x18>
80100c7a:	687b      	ldr	r3, [r7, #4]
80100c7c:	1c5a      	adds	r2, r3, #1
80100c7e:	607a      	str	r2, [r7, #4]
80100c80:	781b      	ldrb	r3, [r3, #0]
80100c82:	4618      	mov	r0, r3
80100c84:	f7ff ff96 	bl	80100bb4 <putchar>
80100c88:	687b      	ldr	r3, [r7, #4]
80100c8a:	781b      	ldrb	r3, [r3, #0]
80100c8c:	2b00      	cmp	r3, #0
80100c8e:	d1f4      	bne.n	80100c7a <outs+0xa>
80100c90:	2300      	movs	r3, #0
80100c92:	4618      	mov	r0, r3
80100c94:	3708      	adds	r7, #8
80100c96:	46bd      	mov	sp, r7
80100c98:	bd80      	pop	{r7, pc}

80100c9a <out_num>:
80100c9a:	b590      	push	{r4, r7, lr}
80100c9c:	b099      	sub	sp, #100	; 0x64
80100c9e:	af00      	add	r7, sp, #0
80100ca0:	e9c7 0102 	strd	r0, r1, [r7, #8]
80100ca4:	607a      	str	r2, [r7, #4]
80100ca6:	70fb      	strb	r3, [r7, #3]
80100ca8:	2300      	movs	r3, #0
80100caa:	65fb      	str	r3, [r7, #92]	; 0x5c
80100cac:	f107 0310 	add.w	r3, r7, #16
80100cb0:	3340      	adds	r3, #64	; 0x40
80100cb2:	65bb      	str	r3, [r7, #88]	; 0x58
80100cb4:	2300      	movs	r3, #0
80100cb6:	657b      	str	r3, [r7, #84]	; 0x54
80100cb8:	2300      	movs	r3, #0
80100cba:	653b      	str	r3, [r7, #80]	; 0x50
80100cbc:	6dbb      	ldr	r3, [r7, #88]	; 0x58
80100cbe:	3b01      	subs	r3, #1
80100cc0:	65bb      	str	r3, [r7, #88]	; 0x58
80100cc2:	6dbb      	ldr	r3, [r7, #88]	; 0x58
80100cc4:	2200      	movs	r2, #0
80100cc6:	701a      	strb	r2, [r3, #0]
80100cc8:	e9d7 3402 	ldrd	r3, r4, [r7, #8]
80100ccc:	2b00      	cmp	r3, #0
80100cce:	f174 0300 	sbcs.w	r3, r4, #0
80100cd2:	da03      	bge.n	80100cdc <out_num+0x42>
80100cd4:	68bb      	ldr	r3, [r7, #8]
80100cd6:	425b      	negs	r3, r3
80100cd8:	65fb      	str	r3, [r7, #92]	; 0x5c
80100cda:	e001      	b.n	80100ce0 <out_num+0x46>
80100cdc:	68bb      	ldr	r3, [r7, #8]
80100cde:	65fb      	str	r3, [r7, #92]	; 0x5c
80100ce0:	6dbb      	ldr	r3, [r7, #88]	; 0x58
80100ce2:	3b01      	subs	r3, #1
80100ce4:	65bb      	str	r3, [r7, #88]	; 0x58
80100ce6:	687a      	ldr	r2, [r7, #4]
80100ce8:	6dfb      	ldr	r3, [r7, #92]	; 0x5c
80100cea:	4611      	mov	r1, r2
80100cec:	4618      	mov	r0, r3
80100cee:	f000 fc5d 	bl	801015ac <__aeabi_uidivmod>
80100cf2:	460b      	mov	r3, r1
80100cf4:	461a      	mov	r2, r3
80100cf6:	f641 03ec 	movw	r3, #6380	; 0x18ec
80100cfa:	f2c8 0310 	movt	r3, #32784	; 0x8010
80100cfe:	5c9a      	ldrb	r2, [r3, r2]
80100d00:	6dbb      	ldr	r3, [r7, #88]	; 0x58
80100d02:	701a      	strb	r2, [r3, #0]
80100d04:	6d7b      	ldr	r3, [r7, #84]	; 0x54
80100d06:	3301      	adds	r3, #1
80100d08:	657b      	str	r3, [r7, #84]	; 0x54
80100d0a:	687b      	ldr	r3, [r7, #4]
80100d0c:	4619      	mov	r1, r3
80100d0e:	6df8      	ldr	r0, [r7, #92]	; 0x5c
80100d10:	f000 fb1e 	bl	80101350 <__aeabi_uidiv>
80100d14:	4603      	mov	r3, r0
80100d16:	65fb      	str	r3, [r7, #92]	; 0x5c
80100d18:	6dfb      	ldr	r3, [r7, #92]	; 0x5c
80100d1a:	2b00      	cmp	r3, #0
80100d1c:	d1e0      	bne.n	80100ce0 <out_num+0x46>
80100d1e:	6f3b      	ldr	r3, [r7, #112]	; 0x70
80100d20:	2b00      	cmp	r3, #0
80100d22:	d014      	beq.n	80100d4e <out_num+0xb4>
80100d24:	6d7a      	ldr	r2, [r7, #84]	; 0x54
80100d26:	6f3b      	ldr	r3, [r7, #112]	; 0x70
80100d28:	429a      	cmp	r2, r3
80100d2a:	da10      	bge.n	80100d4e <out_num+0xb4>
80100d2c:	6f3a      	ldr	r2, [r7, #112]	; 0x70
80100d2e:	6d7b      	ldr	r3, [r7, #84]	; 0x54
80100d30:	1ad3      	subs	r3, r2, r3
80100d32:	653b      	str	r3, [r7, #80]	; 0x50
80100d34:	e008      	b.n	80100d48 <out_num+0xae>
80100d36:	6dbb      	ldr	r3, [r7, #88]	; 0x58
80100d38:	3b01      	subs	r3, #1
80100d3a:	65bb      	str	r3, [r7, #88]	; 0x58
80100d3c:	6dbb      	ldr	r3, [r7, #88]	; 0x58
80100d3e:	78fa      	ldrb	r2, [r7, #3]
80100d40:	701a      	strb	r2, [r3, #0]
80100d42:	6d3b      	ldr	r3, [r7, #80]	; 0x50
80100d44:	3b01      	subs	r3, #1
80100d46:	653b      	str	r3, [r7, #80]	; 0x50
80100d48:	6d3b      	ldr	r3, [r7, #80]	; 0x50
80100d4a:	2b00      	cmp	r3, #0
80100d4c:	d1f3      	bne.n	80100d36 <out_num+0x9c>
80100d4e:	e9d7 3402 	ldrd	r3, r4, [r7, #8]
80100d52:	2b00      	cmp	r3, #0
80100d54:	f174 0300 	sbcs.w	r3, r4, #0
80100d58:	da05      	bge.n	80100d66 <out_num+0xcc>
80100d5a:	6dbb      	ldr	r3, [r7, #88]	; 0x58
80100d5c:	3b01      	subs	r3, #1
80100d5e:	65bb      	str	r3, [r7, #88]	; 0x58
80100d60:	6dbb      	ldr	r3, [r7, #88]	; 0x58
80100d62:	222d      	movs	r2, #45	; 0x2d
80100d64:	701a      	strb	r2, [r3, #0]
80100d66:	6db8      	ldr	r0, [r7, #88]	; 0x58
80100d68:	f7ff ff82 	bl	80100c70 <outs>
80100d6c:	4603      	mov	r3, r0
80100d6e:	4618      	mov	r0, r3
80100d70:	3764      	adds	r7, #100	; 0x64
80100d72:	46bd      	mov	sp, r7
80100d74:	bd90      	pop	{r4, r7, pc}

80100d76 <my_vprintf>:
80100d76:	b580      	push	{r7, lr}
80100d78:	b086      	sub	sp, #24
80100d7a:	af02      	add	r7, sp, #8
80100d7c:	6078      	str	r0, [r7, #4]
80100d7e:	6039      	str	r1, [r7, #0]
80100d80:	2320      	movs	r3, #32
80100d82:	72fb      	strb	r3, [r7, #11]
80100d84:	2300      	movs	r3, #0
80100d86:	60fb      	str	r3, [r7, #12]
80100d88:	e0c7      	b.n	80100f1a <my_vprintf+0x1a4>
80100d8a:	687b      	ldr	r3, [r7, #4]
80100d8c:	781b      	ldrb	r3, [r3, #0]
80100d8e:	2b25      	cmp	r3, #37	; 0x25
80100d90:	d005      	beq.n	80100d9e <my_vprintf+0x28>
80100d92:	687b      	ldr	r3, [r7, #4]
80100d94:	781b      	ldrb	r3, [r3, #0]
80100d96:	4618      	mov	r0, r3
80100d98:	f7ff ff5e 	bl	80100c58 <outc>
80100d9c:	e0ba      	b.n	80100f14 <my_vprintf+0x19e>
80100d9e:	687b      	ldr	r3, [r7, #4]
80100da0:	3301      	adds	r3, #1
80100da2:	607b      	str	r3, [r7, #4]
80100da4:	687b      	ldr	r3, [r7, #4]
80100da6:	781b      	ldrb	r3, [r3, #0]
80100da8:	2b30      	cmp	r3, #48	; 0x30
80100daa:	d104      	bne.n	80100db6 <my_vprintf+0x40>
80100dac:	2330      	movs	r3, #48	; 0x30
80100dae:	72fb      	strb	r3, [r7, #11]
80100db0:	687b      	ldr	r3, [r7, #4]
80100db2:	3301      	adds	r3, #1
80100db4:	607b      	str	r3, [r7, #4]
80100db6:	2320      	movs	r3, #32
80100db8:	72fb      	strb	r3, [r7, #11]
80100dba:	2300      	movs	r3, #0
80100dbc:	60fb      	str	r3, [r7, #12]
80100dbe:	e00e      	b.n	80100dde <my_vprintf+0x68>
80100dc0:	68fa      	ldr	r2, [r7, #12]
80100dc2:	4613      	mov	r3, r2
80100dc4:	009b      	lsls	r3, r3, #2
80100dc6:	4413      	add	r3, r2
80100dc8:	005b      	lsls	r3, r3, #1
80100dca:	60fb      	str	r3, [r7, #12]
80100dcc:	687b      	ldr	r3, [r7, #4]
80100dce:	781b      	ldrb	r3, [r3, #0]
80100dd0:	3b30      	subs	r3, #48	; 0x30
80100dd2:	68fa      	ldr	r2, [r7, #12]
80100dd4:	4413      	add	r3, r2
80100dd6:	60fb      	str	r3, [r7, #12]
80100dd8:	687b      	ldr	r3, [r7, #4]
80100dda:	3301      	adds	r3, #1
80100ddc:	607b      	str	r3, [r7, #4]
80100dde:	687b      	ldr	r3, [r7, #4]
80100de0:	781b      	ldrb	r3, [r3, #0]
80100de2:	2b2f      	cmp	r3, #47	; 0x2f
80100de4:	d903      	bls.n	80100dee <my_vprintf+0x78>
80100de6:	687b      	ldr	r3, [r7, #4]
80100de8:	781b      	ldrb	r3, [r3, #0]
80100dea:	2b39      	cmp	r3, #57	; 0x39
80100dec:	d9e8      	bls.n	80100dc0 <my_vprintf+0x4a>
80100dee:	687b      	ldr	r3, [r7, #4]
80100df0:	781b      	ldrb	r3, [r3, #0]
80100df2:	3b63      	subs	r3, #99	; 0x63
80100df4:	2b15      	cmp	r3, #21
80100df6:	f200 8087 	bhi.w	80100f08 <my_vprintf+0x192>
80100dfa:	a201      	add	r2, pc, #4	; (adr r2, 80100e00 <my_vprintf+0x8a>)
80100dfc:	f852 f023 	ldr.w	pc, [r2, r3, lsl #2]
80100e00:	80100ee1 	andshi	r0, r0, r1, ror #29
80100e04:	80100e59 	andshi	r0, r0, r9, asr lr
80100e08:	80100f09 	andshi	r0, r0, r9, lsl #30
80100e0c:	80100f09 	andshi	r0, r0, r9, lsl #30
80100e10:	80100f09 	andshi	r0, r0, r9, lsl #30
80100e14:	80100f09 	andshi	r0, r0, r9, lsl #30
80100e18:	80100f09 	andshi	r0, r0, r9, lsl #30
80100e1c:	80100f09 	andshi	r0, r0, r9, lsl #30
80100e20:	80100f09 	andshi	r0, r0, r9, lsl #30
80100e24:	80100f09 	andshi	r0, r0, r9, lsl #30
80100e28:	80100f09 	andshi	r0, r0, r9, lsl #30
80100e2c:	80100f09 	andshi	r0, r0, r9, lsl #30
80100e30:	80100e7b 	andshi	r0, r0, fp, ror lr
80100e34:	80100f09 	andshi	r0, r0, r9, lsl #30
80100e38:	80100f09 	andshi	r0, r0, r9, lsl #30
80100e3c:	80100f09 	andshi	r0, r0, r9, lsl #30
80100e40:	80100ef5 			; <UNDEFINED> instruction: 0x80100ef5
80100e44:	80100f09 	andshi	r0, r0, r9, lsl #30
80100e48:	80100e9d 	mulshi	r0, sp, lr
80100e4c:	80100f09 	andshi	r0, r0, r9, lsl #30
80100e50:	80100f09 	andshi	r0, r0, r9, lsl #30
80100e54:	80100ebf 			; <UNDEFINED> instruction: 0x80100ebf
80100e58:	683b      	ldr	r3, [r7, #0]
80100e5a:	3304      	adds	r3, #4
80100e5c:	603b      	str	r3, [r7, #0]
80100e5e:	683b      	ldr	r3, [r7, #0]
80100e60:	3b04      	subs	r3, #4
80100e62:	681b      	ldr	r3, [r3, #0]
80100e64:	4618      	mov	r0, r3
80100e66:	ea4f 71e0 	mov.w	r1, r0, asr #31
80100e6a:	7afa      	ldrb	r2, [r7, #11]
80100e6c:	68fb      	ldr	r3, [r7, #12]
80100e6e:	9300      	str	r3, [sp, #0]
80100e70:	4613      	mov	r3, r2
80100e72:	220a      	movs	r2, #10
80100e74:	f7ff ff11 	bl	80100c9a <out_num>
80100e78:	e04c      	b.n	80100f14 <my_vprintf+0x19e>
80100e7a:	683b      	ldr	r3, [r7, #0]
80100e7c:	3304      	adds	r3, #4
80100e7e:	603b      	str	r3, [r7, #0]
80100e80:	683b      	ldr	r3, [r7, #0]
80100e82:	3b04      	subs	r3, #4
80100e84:	681b      	ldr	r3, [r3, #0]
80100e86:	4618      	mov	r0, r3
80100e88:	f04f 0100 	mov.w	r1, #0
80100e8c:	7afa      	ldrb	r2, [r7, #11]
80100e8e:	68fb      	ldr	r3, [r7, #12]
80100e90:	9300      	str	r3, [sp, #0]
80100e92:	4613      	mov	r3, r2
80100e94:	2208      	movs	r2, #8
80100e96:	f7ff ff00 	bl	80100c9a <out_num>
80100e9a:	e03b      	b.n	80100f14 <my_vprintf+0x19e>
80100e9c:	683b      	ldr	r3, [r7, #0]
80100e9e:	3304      	adds	r3, #4
80100ea0:	603b      	str	r3, [r7, #0]
80100ea2:	683b      	ldr	r3, [r7, #0]
80100ea4:	3b04      	subs	r3, #4
80100ea6:	681b      	ldr	r3, [r3, #0]
80100ea8:	4618      	mov	r0, r3
80100eaa:	f04f 0100 	mov.w	r1, #0
80100eae:	7afa      	ldrb	r2, [r7, #11]
80100eb0:	68fb      	ldr	r3, [r7, #12]
80100eb2:	9300      	str	r3, [sp, #0]
80100eb4:	4613      	mov	r3, r2
80100eb6:	220a      	movs	r2, #10
80100eb8:	f7ff feef 	bl	80100c9a <out_num>
80100ebc:	e02a      	b.n	80100f14 <my_vprintf+0x19e>
80100ebe:	683b      	ldr	r3, [r7, #0]
80100ec0:	3304      	adds	r3, #4
80100ec2:	603b      	str	r3, [r7, #0]
80100ec4:	683b      	ldr	r3, [r7, #0]
80100ec6:	3b04      	subs	r3, #4
80100ec8:	681b      	ldr	r3, [r3, #0]
80100eca:	4618      	mov	r0, r3
80100ecc:	f04f 0100 	mov.w	r1, #0
80100ed0:	7afa      	ldrb	r2, [r7, #11]
80100ed2:	68fb      	ldr	r3, [r7, #12]
80100ed4:	9300      	str	r3, [sp, #0]
80100ed6:	4613      	mov	r3, r2
80100ed8:	2210      	movs	r2, #16
80100eda:	f7ff fede 	bl	80100c9a <out_num>
80100ede:	e019      	b.n	80100f14 <my_vprintf+0x19e>
80100ee0:	683b      	ldr	r3, [r7, #0]
80100ee2:	3304      	adds	r3, #4
80100ee4:	603b      	str	r3, [r7, #0]
80100ee6:	683b      	ldr	r3, [r7, #0]
80100ee8:	3b04      	subs	r3, #4
80100eea:	681b      	ldr	r3, [r3, #0]
80100eec:	4618      	mov	r0, r3
80100eee:	f7ff feb3 	bl	80100c58 <outc>
80100ef2:	e00f      	b.n	80100f14 <my_vprintf+0x19e>
80100ef4:	683b      	ldr	r3, [r7, #0]
80100ef6:	3304      	adds	r3, #4
80100ef8:	603b      	str	r3, [r7, #0]
80100efa:	683b      	ldr	r3, [r7, #0]
80100efc:	3b04      	subs	r3, #4
80100efe:	681b      	ldr	r3, [r3, #0]
80100f00:	4618      	mov	r0, r3
80100f02:	f7ff feb5 	bl	80100c70 <outs>
80100f06:	e005      	b.n	80100f14 <my_vprintf+0x19e>
80100f08:	687b      	ldr	r3, [r7, #4]
80100f0a:	781b      	ldrb	r3, [r3, #0]
80100f0c:	4618      	mov	r0, r3
80100f0e:	f7ff fea3 	bl	80100c58 <outc>
80100f12:	bf00      	nop
80100f14:	687b      	ldr	r3, [r7, #4]
80100f16:	3301      	adds	r3, #1
80100f18:	607b      	str	r3, [r7, #4]
80100f1a:	687b      	ldr	r3, [r7, #4]
80100f1c:	781b      	ldrb	r3, [r3, #0]
80100f1e:	2b00      	cmp	r3, #0
80100f20:	f47f af33 	bne.w	80100d8a <my_vprintf+0x14>
80100f24:	2300      	movs	r3, #0
80100f26:	4618      	mov	r0, r3
80100f28:	3710      	adds	r7, #16
80100f2a:	46bd      	mov	sp, r7
80100f2c:	bd80      	pop	{r7, pc}

80100f2e <printf>:
80100f2e:	b40f      	push	{r0, r1, r2, r3}
80100f30:	b580      	push	{r7, lr}
80100f32:	b082      	sub	sp, #8
80100f34:	af00      	add	r7, sp, #0
80100f36:	f107 0314 	add.w	r3, r7, #20
80100f3a:	607b      	str	r3, [r7, #4]
80100f3c:	693b      	ldr	r3, [r7, #16]
80100f3e:	6879      	ldr	r1, [r7, #4]
80100f40:	4618      	mov	r0, r3
80100f42:	f7ff ff18 	bl	80100d76 <my_vprintf>
80100f46:	2300      	movs	r3, #0
80100f48:	607b      	str	r3, [r7, #4]
80100f4a:	2300      	movs	r3, #0
80100f4c:	4618      	mov	r0, r3
80100f4e:	3708      	adds	r7, #8
80100f50:	46bd      	mov	sp, r7
80100f52:	e8bd 4080 	ldmia.w	sp!, {r7, lr}
80100f56:	b004      	add	sp, #16
80100f58:	4770      	bx	lr

80100f5a <my_printf_test>:
80100f5a:	b580      	push	{r7, lr}
80100f5c:	af00      	add	r7, sp, #0
80100f5e:	f241 7064 	movw	r0, #5988	; 0x1764
80100f62:	f2c8 0010 	movt	r0, #32784	; 0x8010
80100f66:	f7ff ffe2 	bl	80100f2e <printf>
80100f6a:	2261      	movs	r2, #97	; 0x61
80100f6c:	2141      	movs	r1, #65	; 0x41
80100f6e:	f241 7090 	movw	r0, #6032	; 0x1790
80100f72:	f2c8 0010 	movt	r0, #32784	; 0x8010
80100f76:	f7ff ffda 	bl	80100f2e <printf>
80100f7a:	f24e 2140 	movw	r1, #57920	; 0xe240
80100f7e:	f2c0 0101 	movt	r1, #1
80100f82:	f241 70b0 	movw	r0, #6064	; 0x17b0
80100f86:	f2c8 0010 	movt	r0, #32784	; 0x8010
80100f8a:	f7ff ffd0 	bl	80100f2e <printf>
80100f8e:	f44f 51ee 	mov.w	r1, #7616	; 0x1dc0
80100f92:	f6cf 71fe 	movt	r1, #65534	; 0xfffe
80100f96:	f241 70b0 	movw	r0, #6064	; 0x17b0
80100f9a:	f2c8 0010 	movt	r0, #32784	; 0x8010
80100f9e:	f7ff ffc6 	bl	80100f2e <printf>
80100fa2:	f245 51aa 	movw	r1, #21930	; 0x55aa
80100fa6:	f2c5 51aa 	movt	r1, #21930	; 0x55aa
80100faa:	f241 70cc 	movw	r0, #6092	; 0x17cc
80100fae:	f2c8 0010 	movt	r0, #32784	; 0x8010
80100fb2:	f7ff ffbc 	bl	80100f2e <printf>
80100fb6:	f241 71e8 	movw	r1, #6120	; 0x17e8
80100fba:	f2c8 0110 	movt	r1, #32784	; 0x8010
80100fbe:	f241 70f8 	movw	r0, #6136	; 0x17f8
80100fc2:	f2c8 0010 	movt	r0, #32784	; 0x8010
80100fc6:	f7ff ffb2 	bl	80100f2e <printf>
80100fca:	f243 0139 	movw	r1, #12345	; 0x3039
80100fce:	f641 0014 	movw	r0, #6164	; 0x1814
80100fd2:	f2c8 0010 	movt	r0, #32784	; 0x8010
80100fd6:	f7ff ffaa 	bl	80100f2e <printf>
80100fda:	f243 0139 	movw	r1, #12345	; 0x3039
80100fde:	f641 0020 	movw	r0, #6176	; 0x1820
80100fe2:	f2c8 0010 	movt	r0, #32784	; 0x8010
80100fe6:	f7ff ffa2 	bl	80100f2e <printf>
80100fea:	f242 3145 	movw	r1, #9029	; 0x2345
80100fee:	f2c0 0101 	movt	r1, #1
80100ff2:	f641 002c 	movw	r0, #6188	; 0x182c
80100ff6:	f2c8 0010 	movt	r0, #32784	; 0x8010
80100ffa:	f7ff ff98 	bl	80100f2e <printf>
80100ffe:	f242 3145 	movw	r1, #9029	; 0x2345
80101002:	f2c0 0101 	movt	r1, #1
80101006:	f641 003c 	movw	r0, #6204	; 0x183c
8010100a:	f2c8 0010 	movt	r0, #32784	; 0x8010
8010100e:	f7ff ff8e 	bl	80100f2e <printf>
80101012:	2101      	movs	r1, #1
80101014:	f641 0048 	movw	r0, #6216	; 0x1848
80101018:	f2c8 0010 	movt	r0, #32784	; 0x8010
8010101c:	f7ff ff87 	bl	80100f2e <printf>
80101020:	2101      	movs	r1, #1
80101022:	f641 0058 	movw	r0, #6232	; 0x1858
80101026:	f2c8 0010 	movt	r0, #32784	; 0x8010
8010102a:	f7ff ff80 	bl	80100f2e <printf>
8010102e:	2101      	movs	r1, #1
80101030:	f641 0064 	movw	r0, #6244	; 0x1864
80101034:	f2c8 0010 	movt	r0, #32784	; 0x8010
80101038:	f7ff ff79 	bl	80100f2e <printf>
8010103c:	2101      	movs	r1, #1
8010103e:	f641 0070 	movw	r0, #6256	; 0x1870
80101042:	f2c8 0010 	movt	r0, #32784	; 0x8010
80101046:	f7ff ff72 	bl	80100f2e <printf>
8010104a:	2300      	movs	r3, #0
8010104c:	4618      	mov	r0, r3
8010104e:	bd80      	pop	{r7, pc}

80101050 <get_gic_base>:
80101050:	b480      	push	{r7}
80101052:	b083      	sub	sp, #12
80101054:	af00      	add	r7, sp, #0
80101056:	ee9f 3f10 	mrc	15, 4, r3, cr15, cr0, {0}
8010105a:	607b      	str	r3, [r7, #4]
8010105c:	687b      	ldr	r3, [r7, #4]
8010105e:	4618      	mov	r0, r3
80101060:	370c      	adds	r7, #12
80101062:	46bd      	mov	sp, r7
80101064:	f85d 7b04 	ldr.w	r7, [sp], #4
80101068:	4770      	bx	lr

8010106a <gic_init>:
8010106a:	b580      	push	{r7, lr}
8010106c:	b084      	sub	sp, #16
8010106e:	af00      	add	r7, sp, #0
80101070:	f7ff ffee 	bl	80101050 <get_gic_base>
80101074:	60b8      	str	r0, [r7, #8]
80101076:	68bb      	ldr	r3, [r7, #8]
80101078:	f503 5380 	add.w	r3, r3, #4096	; 0x1000
8010107c:	3304      	adds	r3, #4
8010107e:	681b      	ldr	r3, [r3, #0]
80101080:	f003 031f 	and.w	r3, r3, #31
80101084:	3301      	adds	r3, #1
80101086:	607b      	str	r3, [r7, #4]
80101088:	2300      	movs	r3, #0
8010108a:	60fb      	str	r3, [r7, #12]
8010108c:	e00a      	b.n	801010a4 <gic_init+0x3a>
8010108e:	68bb      	ldr	r3, [r7, #8]
80101090:	68fa      	ldr	r2, [r7, #12]
80101092:	f502 628c 	add.w	r2, r2, #1120	; 0x460
80101096:	f04f 31ff 	mov.w	r1, #4294967295	; 0xffffffff
8010109a:	f843 1022 	str.w	r1, [r3, r2, lsl #2]
8010109e:	68fb      	ldr	r3, [r7, #12]
801010a0:	3301      	adds	r3, #1
801010a2:	60fb      	str	r3, [r7, #12]
801010a4:	68fa      	ldr	r2, [r7, #12]
801010a6:	687b      	ldr	r3, [r7, #4]
801010a8:	429a      	cmp	r2, r3
801010aa:	d3f0      	bcc.n	8010108e <gic_init+0x24>
801010ac:	68bb      	ldr	r3, [r7, #8]
801010ae:	f503 5300 	add.w	r3, r3, #8192	; 0x2000
801010b2:	3304      	adds	r3, #4
801010b4:	22f8      	movs	r2, #248	; 0xf8
801010b6:	601a      	str	r2, [r3, #0]
801010b8:	68bb      	ldr	r3, [r7, #8]
801010ba:	f503 5300 	add.w	r3, r3, #8192	; 0x2000
801010be:	3308      	adds	r3, #8
801010c0:	2202      	movs	r2, #2
801010c2:	601a      	str	r2, [r3, #0]
801010c4:	68bb      	ldr	r3, [r7, #8]
801010c6:	f503 5380 	add.w	r3, r3, #4096	; 0x1000
801010ca:	2201      	movs	r2, #1
801010cc:	601a      	str	r2, [r3, #0]
801010ce:	68bb      	ldr	r3, [r7, #8]
801010d0:	f503 5300 	add.w	r3, r3, #8192	; 0x2000
801010d4:	2201      	movs	r2, #1
801010d6:	601a      	str	r2, [r3, #0]
801010d8:	bf00      	nop
801010da:	3710      	adds	r7, #16
801010dc:	46bd      	mov	sp, r7
801010de:	bd80      	pop	{r7, pc}

801010e0 <gic_enable_irq>:
801010e0:	b580      	push	{r7, lr}
801010e2:	b084      	sub	sp, #16
801010e4:	af00      	add	r7, sp, #0
801010e6:	6078      	str	r0, [r7, #4]
801010e8:	f7ff ffb2 	bl	80101050 <get_gic_base>
801010ec:	60f8      	str	r0, [r7, #12]
801010ee:	687b      	ldr	r3, [r7, #4]
801010f0:	115a      	asrs	r2, r3, #5
801010f2:	687b      	ldr	r3, [r7, #4]
801010f4:	f003 031f 	and.w	r3, r3, #31
801010f8:	2101      	movs	r1, #1
801010fa:	4099      	lsls	r1, r3
801010fc:	68fb      	ldr	r3, [r7, #12]
801010fe:	f502 6288 	add.w	r2, r2, #1088	; 0x440
80101102:	f843 1022 	str.w	r1, [r3, r2, lsl #2]
80101106:	bf00      	nop
80101108:	3710      	adds	r7, #16
8010110a:	46bd      	mov	sp, r7
8010110c:	bd80      	pop	{r7, pc}

8010110e <gic_disable_irq>:
8010110e:	b580      	push	{r7, lr}
80101110:	b084      	sub	sp, #16
80101112:	af00      	add	r7, sp, #0
80101114:	6078      	str	r0, [r7, #4]
80101116:	f7ff ff9b 	bl	80101050 <get_gic_base>
8010111a:	60f8      	str	r0, [r7, #12]
8010111c:	687b      	ldr	r3, [r7, #4]
8010111e:	115a      	asrs	r2, r3, #5
80101120:	687b      	ldr	r3, [r7, #4]
80101122:	f003 031f 	and.w	r3, r3, #31
80101126:	2101      	movs	r1, #1
80101128:	4099      	lsls	r1, r3
8010112a:	68fb      	ldr	r3, [r7, #12]
8010112c:	f502 628c 	add.w	r2, r2, #1120	; 0x460
80101130:	f843 1022 	str.w	r1, [r3, r2, lsl #2]
80101134:	bf00      	nop
80101136:	3710      	adds	r7, #16
80101138:	46bd      	mov	sp, r7
8010113a:	bd80      	pop	{r7, pc}

8010113c <handle_irq_c>:
8010113c:	b580      	push	{r7, lr}
8010113e:	b082      	sub	sp, #8
80101140:	af00      	add	r7, sp, #0
80101142:	f7ff ff85 	bl	80101050 <get_gic_base>
80101146:	6078      	str	r0, [r7, #4]
80101148:	687b      	ldr	r3, [r7, #4]
8010114a:	f503 5300 	add.w	r3, r3, #8192	; 0x2000
8010114e:	330c      	adds	r3, #12
80101150:	681b      	ldr	r3, [r3, #0]
80101152:	603b      	str	r3, [r7, #0]
80101154:	6839      	ldr	r1, [r7, #0]
80101156:	f641 007c 	movw	r0, #6268	; 0x187c
8010115a:	f2c8 0010 	movt	r0, #32784	; 0x8010
8010115e:	f7ff fee6 	bl	80100f2e <printf>
80101162:	683b      	ldr	r3, [r7, #0]
80101164:	2b68      	cmp	r3, #104	; 0x68
80101166:	d026      	beq.n	801011b6 <handle_irq_c+0x7a>
80101168:	2b6a      	cmp	r3, #106	; 0x6a
8010116a:	d000      	beq.n	8010116e <handle_irq_c+0x32>
8010116c:	e047      	b.n	801011fe <handle_irq_c+0xc2>
8010116e:	f44f 4340 	mov.w	r3, #49152	; 0xc000
80101172:	f2c0 230a 	movt	r3, #522	; 0x20a
80101176:	681b      	ldr	r3, [r3, #0]
80101178:	085b      	lsrs	r3, r3, #1
8010117a:	f003 0301 	and.w	r3, r3, #1
8010117e:	2b00      	cmp	r3, #0
80101180:	d006      	beq.n	80101190 <handle_irq_c+0x54>
80101182:	f641 0094 	movw	r0, #6292	; 0x1894
80101186:	f2c8 0010 	movt	r0, #32784	; 0x8010
8010118a:	f7ff fed0 	bl	80100f2e <printf>
8010118e:	e005      	b.n	8010119c <handle_irq_c+0x60>
80101190:	f641 00a8 	movw	r0, #6312	; 0x18a8
80101194:	f2c8 0010 	movt	r0, #32784	; 0x8010
80101198:	f7ff fec9 	bl	80100f2e <printf>
8010119c:	f44f 4340 	mov.w	r3, #49152	; 0xc000
801011a0:	f2c0 230a 	movt	r3, #522	; 0x20a
801011a4:	f44f 4240 	mov.w	r2, #49152	; 0xc000
801011a8:	f2c0 220a 	movt	r2, #522	; 0x20a
801011ac:	6992      	ldr	r2, [r2, #24]
801011ae:	f042 0202 	orr.w	r2, r2, #2
801011b2:	619a      	str	r2, [r3, #24]
801011b4:	e023      	b.n	801011fe <handle_irq_c+0xc2>
801011b6:	f44f 4300 	mov.w	r3, #32768	; 0x8000
801011ba:	f2c0 230a 	movt	r3, #522	; 0x20a
801011be:	681b      	ldr	r3, [r3, #0]
801011c0:	0b9b      	lsrs	r3, r3, #14
801011c2:	f003 0301 	and.w	r3, r3, #1
801011c6:	2b00      	cmp	r3, #0
801011c8:	d006      	beq.n	801011d8 <handle_irq_c+0x9c>
801011ca:	f641 00bc 	movw	r0, #6332	; 0x18bc
801011ce:	f2c8 0010 	movt	r0, #32784	; 0x8010
801011d2:	f7ff feac 	bl	80100f2e <printf>
801011d6:	e005      	b.n	801011e4 <handle_irq_c+0xa8>
801011d8:	f641 00d0 	movw	r0, #6352	; 0x18d0
801011dc:	f2c8 0010 	movt	r0, #32784	; 0x8010
801011e0:	f7ff fea5 	bl	80100f2e <printf>
801011e4:	f44f 4300 	mov.w	r3, #32768	; 0x8000
801011e8:	f2c0 230a 	movt	r3, #522	; 0x20a
801011ec:	f44f 4200 	mov.w	r2, #32768	; 0x8000
801011f0:	f2c0 220a 	movt	r2, #522	; 0x20a
801011f4:	6992      	ldr	r2, [r2, #24]
801011f6:	f442 4280 	orr.w	r2, r2, #16384	; 0x4000
801011fa:	619a      	str	r2, [r3, #24]
801011fc:	bf00      	nop
801011fe:	683a      	ldr	r2, [r7, #0]
80101200:	687b      	ldr	r3, [r7, #4]
80101202:	f503 5300 	add.w	r3, r3, #8192	; 0x2000
80101206:	3310      	adds	r3, #16
80101208:	601a      	str	r2, [r3, #0]
8010120a:	bf00      	nop
8010120c:	3708      	adds	r7, #8
8010120e:	46bd      	mov	sp, r7
80101210:	bd80      	pop	{r7, pc}

80101212 <gpt_init>:
80101212:	b480      	push	{r7}
80101214:	b083      	sub	sp, #12
80101216:	af00      	add	r7, sp, #0
80101218:	6078      	str	r0, [r7, #4]
8010121a:	687b      	ldr	r3, [r7, #4]
8010121c:	681b      	ldr	r3, [r3, #0]
8010121e:	f443 4200 	orr.w	r2, r3, #32768	; 0x8000
80101222:	687b      	ldr	r3, [r7, #4]
80101224:	601a      	str	r2, [r3, #0]
80101226:	bf00      	nop
80101228:	687b      	ldr	r3, [r7, #4]
8010122a:	681b      	ldr	r3, [r3, #0]
8010122c:	0bdb      	lsrs	r3, r3, #15
8010122e:	f003 0301 	and.w	r3, r3, #1
80101232:	2b00      	cmp	r3, #0
80101234:	d1f8      	bne.n	80101228 <gpt_init+0x16>
80101236:	687b      	ldr	r3, [r7, #4]
80101238:	226a      	movs	r2, #106	; 0x6a
8010123a:	601a      	str	r2, [r3, #0]
8010123c:	687b      	ldr	r3, [r7, #4]
8010123e:	2200      	movs	r2, #0
80101240:	605a      	str	r2, [r3, #4]
80101242:	687a      	ldr	r2, [r7, #4]
80101244:	f44f 53a4 	mov.w	r3, #5248	; 0x1480
80101248:	f2c0 33ef 	movt	r3, #1007	; 0x3ef
8010124c:	6113      	str	r3, [r2, #16]
8010124e:	687b      	ldr	r3, [r7, #4]
80101250:	2201      	movs	r2, #1
80101252:	60da      	str	r2, [r3, #12]
80101254:	bf00      	nop
80101256:	370c      	adds	r7, #12
80101258:	46bd      	mov	sp, r7
8010125a:	f85d 7b04 	ldr.w	r7, [sp], #4
8010125e:	4770      	bx	lr

80101260 <gpt_run>:
80101260:	b480      	push	{r7}
80101262:	b083      	sub	sp, #12
80101264:	af00      	add	r7, sp, #0
80101266:	6078      	str	r0, [r7, #4]
80101268:	687b      	ldr	r3, [r7, #4]
8010126a:	681b      	ldr	r3, [r3, #0]
8010126c:	f043 0201 	orr.w	r2, r3, #1
80101270:	687b      	ldr	r3, [r7, #4]
80101272:	601a      	str	r2, [r3, #0]
80101274:	bf00      	nop
80101276:	370c      	adds	r7, #12
80101278:	46bd      	mov	sp, r7
8010127a:	f85d 7b04 	ldr.w	r7, [sp], #4
8010127e:	4770      	bx	lr

80101280 <gpt2_chan1_delay_us>:
80101280:	b480      	push	{r7}
80101282:	b085      	sub	sp, #20
80101284:	af00      	add	r7, sp, #0
80101286:	6078      	str	r0, [r7, #4]
80101288:	687a      	ldr	r2, [r7, #4]
8010128a:	4613      	mov	r3, r2
8010128c:	015b      	lsls	r3, r3, #5
8010128e:	4413      	add	r3, r2
80101290:	005b      	lsls	r3, r3, #1
80101292:	60fb      	str	r3, [r7, #12]
80101294:	f44f 4300 	mov.w	r3, #32768	; 0x8000
80101298:	f2c0 230e 	movt	r3, #526	; 0x20e
8010129c:	f44f 4200 	mov.w	r2, #32768	; 0x8000
801012a0:	f2c0 220e 	movt	r2, #526	; 0x20e
801012a4:	6812      	ldr	r2, [r2, #0]
801012a6:	f442 4200 	orr.w	r2, r2, #32768	; 0x8000
801012aa:	601a      	str	r2, [r3, #0]
801012ac:	bf00      	nop
801012ae:	f44f 4300 	mov.w	r3, #32768	; 0x8000
801012b2:	f2c0 230e 	movt	r3, #526	; 0x20e
801012b6:	681b      	ldr	r3, [r3, #0]
801012b8:	0bdb      	lsrs	r3, r3, #15
801012ba:	f003 0301 	and.w	r3, r3, #1
801012be:	2b00      	cmp	r3, #0
801012c0:	d1f5      	bne.n	801012ae <gpt2_chan1_delay_us+0x2e>
801012c2:	f44f 4300 	mov.w	r3, #32768	; 0x8000
801012c6:	f2c0 230e 	movt	r3, #526	; 0x20e
801012ca:	226a      	movs	r2, #106	; 0x6a
801012cc:	601a      	str	r2, [r3, #0]
801012ce:	f44f 4300 	mov.w	r3, #32768	; 0x8000
801012d2:	f2c0 230e 	movt	r3, #526	; 0x20e
801012d6:	2200      	movs	r2, #0
801012d8:	605a      	str	r2, [r3, #4]
801012da:	f44f 4300 	mov.w	r3, #32768	; 0x8000
801012de:	f2c0 230e 	movt	r3, #526	; 0x20e
801012e2:	68fa      	ldr	r2, [r7, #12]
801012e4:	611a      	str	r2, [r3, #16]
801012e6:	f44f 4300 	mov.w	r3, #32768	; 0x8000
801012ea:	f2c0 230e 	movt	r3, #526	; 0x20e
801012ee:	2201      	movs	r2, #1
801012f0:	60da      	str	r2, [r3, #12]
801012f2:	f44f 4300 	mov.w	r3, #32768	; 0x8000
801012f6:	f2c0 230e 	movt	r3, #526	; 0x20e
801012fa:	f44f 4200 	mov.w	r2, #32768	; 0x8000
801012fe:	f2c0 220e 	movt	r2, #526	; 0x20e
80101302:	6812      	ldr	r2, [r2, #0]
80101304:	f042 0201 	orr.w	r2, r2, #1
80101308:	601a      	str	r2, [r3, #0]
8010130a:	bf00      	nop
8010130c:	f44f 4300 	mov.w	r3, #32768	; 0x8000
80101310:	f2c0 230e 	movt	r3, #526	; 0x20e
80101314:	689b      	ldr	r3, [r3, #8]
80101316:	f003 0301 	and.w	r3, r3, #1
8010131a:	2b00      	cmp	r3, #0
8010131c:	d0f6      	beq.n	8010130c <gpt2_chan1_delay_us+0x8c>
8010131e:	f44f 4300 	mov.w	r3, #32768	; 0x8000
80101322:	f2c0 230e 	movt	r3, #526	; 0x20e
80101326:	f44f 4200 	mov.w	r2, #32768	; 0x8000
8010132a:	f2c0 220e 	movt	r2, #526	; 0x20e
8010132e:	6812      	ldr	r2, [r2, #0]
80101330:	f022 0201 	bic.w	r2, r2, #1
80101334:	601a      	str	r2, [r3, #0]
80101336:	f44f 4300 	mov.w	r3, #32768	; 0x8000
8010133a:	f2c0 230e 	movt	r3, #526	; 0x20e
8010133e:	2201      	movs	r2, #1
80101340:	609a      	str	r2, [r3, #8]
80101342:	bf00      	nop
80101344:	3714      	adds	r7, #20
80101346:	46bd      	mov	sp, r7
80101348:	f85d 7b04 	ldr.w	r7, [sp], #4
8010134c:	4770      	bx	lr
	...

80101350 <__aeabi_uidiv>:
80101350:	1e4a      	subs	r2, r1, #1
80101352:	bf08      	it	eq
80101354:	4770      	bxeq	lr
80101356:	f0c0 8124 	bcc.w	801015a2 <__aeabi_uidiv+0x252>
8010135a:	4288      	cmp	r0, r1
8010135c:	f240 8116 	bls.w	8010158c <__aeabi_uidiv+0x23c>
80101360:	4211      	tst	r1, r2
80101362:	f000 8117 	beq.w	80101594 <__aeabi_uidiv+0x244>
80101366:	fab0 f380 	clz	r3, r0
8010136a:	fab1 f281 	clz	r2, r1
8010136e:	eba2 0303 	sub.w	r3, r2, r3
80101372:	f1c3 031f 	rsb	r3, r3, #31
80101376:	a204      	add	r2, pc, #16	; (adr r2, 80101388 <__aeabi_uidiv+0x38>)
80101378:	eb02 1303 	add.w	r3, r2, r3, lsl #4
8010137c:	f04f 0200 	mov.w	r2, #0
80101380:	469f      	mov	pc, r3
80101382:	bf00      	nop
80101384:	f3af 8000 	nop.w
80101388:	ebb0 7fc1 	cmp.w	r0, r1, lsl #31
8010138c:	bf00      	nop
8010138e:	eb42 0202 	adc.w	r2, r2, r2
80101392:	bf28      	it	cs
80101394:	eba0 70c1 	subcs.w	r0, r0, r1, lsl #31
80101398:	ebb0 7f81 	cmp.w	r0, r1, lsl #30
8010139c:	bf00      	nop
8010139e:	eb42 0202 	adc.w	r2, r2, r2
801013a2:	bf28      	it	cs
801013a4:	eba0 7081 	subcs.w	r0, r0, r1, lsl #30
801013a8:	ebb0 7f41 	cmp.w	r0, r1, lsl #29
801013ac:	bf00      	nop
801013ae:	eb42 0202 	adc.w	r2, r2, r2
801013b2:	bf28      	it	cs
801013b4:	eba0 7041 	subcs.w	r0, r0, r1, lsl #29
801013b8:	ebb0 7f01 	cmp.w	r0, r1, lsl #28
801013bc:	bf00      	nop
801013be:	eb42 0202 	adc.w	r2, r2, r2
801013c2:	bf28      	it	cs
801013c4:	eba0 7001 	subcs.w	r0, r0, r1, lsl #28
801013c8:	ebb0 6fc1 	cmp.w	r0, r1, lsl #27
801013cc:	bf00      	nop
801013ce:	eb42 0202 	adc.w	r2, r2, r2
801013d2:	bf28      	it	cs
801013d4:	eba0 60c1 	subcs.w	r0, r0, r1, lsl #27
801013d8:	ebb0 6f81 	cmp.w	r0, r1, lsl #26
801013dc:	bf00      	nop
801013de:	eb42 0202 	adc.w	r2, r2, r2
801013e2:	bf28      	it	cs
801013e4:	eba0 6081 	subcs.w	r0, r0, r1, lsl #26
801013e8:	ebb0 6f41 	cmp.w	r0, r1, lsl #25
801013ec:	bf00      	nop
801013ee:	eb42 0202 	adc.w	r2, r2, r2
801013f2:	bf28      	it	cs
801013f4:	eba0 6041 	subcs.w	r0, r0, r1, lsl #25
801013f8:	ebb0 6f01 	cmp.w	r0, r1, lsl #24
801013fc:	bf00      	nop
801013fe:	eb42 0202 	adc.w	r2, r2, r2
80101402:	bf28      	it	cs
80101404:	eba0 6001 	subcs.w	r0, r0, r1, lsl #24
80101408:	ebb0 5fc1 	cmp.w	r0, r1, lsl #23
8010140c:	bf00      	nop
8010140e:	eb42 0202 	adc.w	r2, r2, r2
80101412:	bf28      	it	cs
80101414:	eba0 50c1 	subcs.w	r0, r0, r1, lsl #23
80101418:	ebb0 5f81 	cmp.w	r0, r1, lsl #22
8010141c:	bf00      	nop
8010141e:	eb42 0202 	adc.w	r2, r2, r2
80101422:	bf28      	it	cs
80101424:	eba0 5081 	subcs.w	r0, r0, r1, lsl #22
80101428:	ebb0 5f41 	cmp.w	r0, r1, lsl #21
8010142c:	bf00      	nop
8010142e:	eb42 0202 	adc.w	r2, r2, r2
80101432:	bf28      	it	cs
80101434:	eba0 5041 	subcs.w	r0, r0, r1, lsl #21
80101438:	ebb0 5f01 	cmp.w	r0, r1, lsl #20
8010143c:	bf00      	nop
8010143e:	eb42 0202 	adc.w	r2, r2, r2
80101442:	bf28      	it	cs
80101444:	eba0 5001 	subcs.w	r0, r0, r1, lsl #20
80101448:	ebb0 4fc1 	cmp.w	r0, r1, lsl #19
8010144c:	bf00      	nop
8010144e:	eb42 0202 	adc.w	r2, r2, r2
80101452:	bf28      	it	cs
80101454:	eba0 40c1 	subcs.w	r0, r0, r1, lsl #19
80101458:	ebb0 4f81 	cmp.w	r0, r1, lsl #18
8010145c:	bf00      	nop
8010145e:	eb42 0202 	adc.w	r2, r2, r2
80101462:	bf28      	it	cs
80101464:	eba0 4081 	subcs.w	r0, r0, r1, lsl #18
80101468:	ebb0 4f41 	cmp.w	r0, r1, lsl #17
8010146c:	bf00      	nop
8010146e:	eb42 0202 	adc.w	r2, r2, r2
80101472:	bf28      	it	cs
80101474:	eba0 4041 	subcs.w	r0, r0, r1, lsl #17
80101478:	ebb0 4f01 	cmp.w	r0, r1, lsl #16
8010147c:	bf00      	nop
8010147e:	eb42 0202 	adc.w	r2, r2, r2
80101482:	bf28      	it	cs
80101484:	eba0 4001 	subcs.w	r0, r0, r1, lsl #16
80101488:	ebb0 3fc1 	cmp.w	r0, r1, lsl #15
8010148c:	bf00      	nop
8010148e:	eb42 0202 	adc.w	r2, r2, r2
80101492:	bf28      	it	cs
80101494:	eba0 30c1 	subcs.w	r0, r0, r1, lsl #15
80101498:	ebb0 3f81 	cmp.w	r0, r1, lsl #14
8010149c:	bf00      	nop
8010149e:	eb42 0202 	adc.w	r2, r2, r2
801014a2:	bf28      	it	cs
801014a4:	eba0 3081 	subcs.w	r0, r0, r1, lsl #14
801014a8:	ebb0 3f41 	cmp.w	r0, r1, lsl #13
801014ac:	bf00      	nop
801014ae:	eb42 0202 	adc.w	r2, r2, r2
801014b2:	bf28      	it	cs
801014b4:	eba0 3041 	subcs.w	r0, r0, r1, lsl #13
801014b8:	ebb0 3f01 	cmp.w	r0, r1, lsl #12
801014bc:	bf00      	nop
801014be:	eb42 0202 	adc.w	r2, r2, r2
801014c2:	bf28      	it	cs
801014c4:	eba0 3001 	subcs.w	r0, r0, r1, lsl #12
801014c8:	ebb0 2fc1 	cmp.w	r0, r1, lsl #11
801014cc:	bf00      	nop
801014ce:	eb42 0202 	adc.w	r2, r2, r2
801014d2:	bf28      	it	cs
801014d4:	eba0 20c1 	subcs.w	r0, r0, r1, lsl #11
801014d8:	ebb0 2f81 	cmp.w	r0, r1, lsl #10
801014dc:	bf00      	nop
801014de:	eb42 0202 	adc.w	r2, r2, r2
801014e2:	bf28      	it	cs
801014e4:	eba0 2081 	subcs.w	r0, r0, r1, lsl #10
801014e8:	ebb0 2f41 	cmp.w	r0, r1, lsl #9
801014ec:	bf00      	nop
801014ee:	eb42 0202 	adc.w	r2, r2, r2
801014f2:	bf28      	it	cs
801014f4:	eba0 2041 	subcs.w	r0, r0, r1, lsl #9
801014f8:	ebb0 2f01 	cmp.w	r0, r1, lsl #8
801014fc:	bf00      	nop
801014fe:	eb42 0202 	adc.w	r2, r2, r2
80101502:	bf28      	it	cs
80101504:	eba0 2001 	subcs.w	r0, r0, r1, lsl #8
80101508:	ebb0 1fc1 	cmp.w	r0, r1, lsl #7
8010150c:	bf00      	nop
8010150e:	eb42 0202 	adc.w	r2, r2, r2
80101512:	bf28      	it	cs
80101514:	eba0 10c1 	subcs.w	r0, r0, r1, lsl #7
80101518:	ebb0 1f81 	cmp.w	r0, r1, lsl #6
8010151c:	bf00      	nop
8010151e:	eb42 0202 	adc.w	r2, r2, r2
80101522:	bf28      	it	cs
80101524:	eba0 1081 	subcs.w	r0, r0, r1, lsl #6
80101528:	ebb0 1f41 	cmp.w	r0, r1, lsl #5
8010152c:	bf00      	nop
8010152e:	eb42 0202 	adc.w	r2, r2, r2
80101532:	bf28      	it	cs
80101534:	eba0 1041 	subcs.w	r0, r0, r1, lsl #5
80101538:	ebb0 1f01 	cmp.w	r0, r1, lsl #4
8010153c:	bf00      	nop
8010153e:	eb42 0202 	adc.w	r2, r2, r2
80101542:	bf28      	it	cs
80101544:	eba0 1001 	subcs.w	r0, r0, r1, lsl #4
80101548:	ebb0 0fc1 	cmp.w	r0, r1, lsl #3
8010154c:	bf00      	nop
8010154e:	eb42 0202 	adc.w	r2, r2, r2
80101552:	bf28      	it	cs
80101554:	eba0 00c1 	subcs.w	r0, r0, r1, lsl #3
80101558:	ebb0 0f81 	cmp.w	r0, r1, lsl #2
8010155c:	bf00      	nop
8010155e:	eb42 0202 	adc.w	r2, r2, r2
80101562:	bf28      	it	cs
80101564:	eba0 0081 	subcs.w	r0, r0, r1, lsl #2
80101568:	ebb0 0f41 	cmp.w	r0, r1, lsl #1
8010156c:	bf00      	nop
8010156e:	eb42 0202 	adc.w	r2, r2, r2
80101572:	bf28      	it	cs
80101574:	eba0 0041 	subcs.w	r0, r0, r1, lsl #1
80101578:	ebb0 0f01 	cmp.w	r0, r1
8010157c:	bf00      	nop
8010157e:	eb42 0202 	adc.w	r2, r2, r2
80101582:	bf28      	it	cs
80101584:	eba0 0001 	subcs.w	r0, r0, r1
80101588:	4610      	mov	r0, r2
8010158a:	4770      	bx	lr
8010158c:	bf0c      	ite	eq
8010158e:	2001      	moveq	r0, #1
80101590:	2000      	movne	r0, #0
80101592:	4770      	bx	lr
80101594:	fab1 f281 	clz	r2, r1
80101598:	f1c2 021f 	rsb	r2, r2, #31
8010159c:	fa20 f002 	lsr.w	r0, r0, r2
801015a0:	4770      	bx	lr
801015a2:	b108      	cbz	r0, 801015a8 <__aeabi_uidiv+0x258>
801015a4:	f04f 30ff 	mov.w	r0, #4294967295	; 0xffffffff
801015a8:	f000 b826 	b.w	801015f8 <__aeabi_idiv0>

801015ac <__aeabi_uidivmod>:
801015ac:	2900      	cmp	r1, #0
801015ae:	d0f8      	beq.n	801015a2 <__aeabi_uidiv+0x252>
801015b0:	e92d 4003 	stmdb	sp!, {r0, r1, lr}
801015b4:	f7ff fecc 	bl	80101350 <__aeabi_uidiv>
801015b8:	e8bd 4006 	ldmia.w	sp!, {r1, r2, lr}
801015bc:	fb02 f300 	mul.w	r3, r2, r0
801015c0:	eba1 0103 	sub.w	r1, r1, r3
801015c4:	4770      	bx	lr
801015c6:	bf00      	nop

801015c8 <__aeabi_uldivmod>:
801015c8:	b953      	cbnz	r3, 801015e0 <__aeabi_uldivmod+0x18>
801015ca:	b94a      	cbnz	r2, 801015e0 <__aeabi_uldivmod+0x18>
801015cc:	2900      	cmp	r1, #0
801015ce:	bf08      	it	eq
801015d0:	2800      	cmpeq	r0, #0
801015d2:	bf1c      	itt	ne
801015d4:	f04f 31ff 	movne.w	r1, #4294967295	; 0xffffffff
801015d8:	f04f 30ff 	movne.w	r0, #4294967295	; 0xffffffff
801015dc:	f000 b80c 	b.w	801015f8 <__aeabi_idiv0>
801015e0:	f1ad 0c08 	sub.w	ip, sp, #8
801015e4:	e96d ce04 	strd	ip, lr, [sp, #-16]!
801015e8:	f000 f80c 	bl	80101604 <__udivmoddi4>
801015ec:	f8dd e004 	ldr.w	lr, [sp, #4]
801015f0:	e9dd 2302 	ldrd	r2, r3, [sp, #8]
801015f4:	b004      	add	sp, #16
801015f6:	4770      	bx	lr

801015f8 <__aeabi_idiv0>:
801015f8:	b502      	push	{r1, lr}
801015fa:	f04f 0008 	mov.w	r0, #8
801015fe:	f7ff fb1f 	bl	80100c40 <raise>
80101602:	bd02      	pop	{r1, pc}

80101604 <__udivmoddi4>:
80101604:	4299      	cmp	r1, r3
80101606:	e92d 47f0 	stmdb	sp!, {r4, r5, r6, r7, r8, r9, sl, lr}
8010160a:	bf08      	it	eq
8010160c:	4290      	cmpeq	r0, r2
8010160e:	4604      	mov	r4, r0
80101610:	460d      	mov	r5, r1
80101612:	bf38      	it	cc
80101614:	2000      	movcc	r0, #0
80101616:	f8dd a020 	ldr.w	sl, [sp, #32]
8010161a:	bf38      	it	cc
8010161c:	2100      	movcc	r1, #0
8010161e:	d369      	bcc.n	801016f4 <__udivmoddi4+0xf0>
80101620:	fab3 f683 	clz	r6, r3
80101624:	2b00      	cmp	r3, #0
80101626:	d070      	beq.n	8010170a <__udivmoddi4+0x106>
80101628:	fab5 f185 	clz	r1, r5
8010162c:	2d00      	cmp	r5, #0
8010162e:	d068      	beq.n	80101702 <__udivmoddi4+0xfe>
80101630:	1a76      	subs	r6, r6, r1
80101632:	f1a6 0e20 	sub.w	lr, r6, #32
80101636:	fa03 f906 	lsl.w	r9, r3, r6
8010163a:	fa02 f10e 	lsl.w	r1, r2, lr
8010163e:	f1c6 0720 	rsb	r7, r6, #32
80101642:	fa22 f307 	lsr.w	r3, r2, r7
80101646:	fa02 f806 	lsl.w	r8, r2, r6
8010164a:	ea49 0901 	orr.w	r9, r9, r1
8010164e:	ea49 0903 	orr.w	r9, r9, r3
80101652:	454d      	cmp	r5, r9
80101654:	bf08      	it	eq
80101656:	4544      	cmpeq	r4, r8
80101658:	bf3c      	itt	cc
8010165a:	2000      	movcc	r0, #0
8010165c:	2100      	movcc	r1, #0
8010165e:	d30c      	bcc.n	8010167a <__udivmoddi4+0x76>
80101660:	2301      	movs	r3, #1
80101662:	ebb4 0408 	subs.w	r4, r4, r8
80101666:	fa03 f10e 	lsl.w	r1, r3, lr
8010166a:	fa23 f207 	lsr.w	r2, r3, r7
8010166e:	fa03 f006 	lsl.w	r0, r3, r6
80101672:	ea41 0102 	orr.w	r1, r1, r2
80101676:	eb65 0509 	sbc.w	r5, r5, r9
8010167a:	2e00      	cmp	r6, #0
8010167c:	d03a      	beq.n	801016f4 <__udivmoddi4+0xf0>
8010167e:	ea5f 0959 	movs.w	r9, r9, lsr #1
80101682:	ea4f 0838 	mov.w	r8, r8, rrx
80101686:	46b4      	mov	ip, r6
80101688:	e00b      	b.n	801016a2 <__udivmoddi4+0x9e>
8010168a:	ebb4 0408 	subs.w	r4, r4, r8
8010168e:	eb65 0509 	sbc.w	r5, r5, r9
80101692:	1924      	adds	r4, r4, r4
80101694:	416d      	adcs	r5, r5
80101696:	3401      	adds	r4, #1
80101698:	f145 0500 	adc.w	r5, r5, #0
8010169c:	f1bc 0c01 	subs.w	ip, ip, #1
801016a0:	d008      	beq.n	801016b4 <__udivmoddi4+0xb0>
801016a2:	454d      	cmp	r5, r9
801016a4:	bf08      	it	eq
801016a6:	4544      	cmpeq	r4, r8
801016a8:	d2ef      	bcs.n	8010168a <__udivmoddi4+0x86>
801016aa:	1924      	adds	r4, r4, r4
801016ac:	416d      	adcs	r5, r5
801016ae:	f1bc 0c01 	subs.w	ip, ip, #1
801016b2:	d1f6      	bne.n	801016a2 <__udivmoddi4+0x9e>
801016b4:	fa05 f707 	lsl.w	r7, r5, r7
801016b8:	fa24 f306 	lsr.w	r3, r4, r6
801016bc:	fa25 fe0e 	lsr.w	lr, r5, lr
801016c0:	fa25 fc06 	lsr.w	ip, r5, r6
801016c4:	433b      	orrs	r3, r7
801016c6:	1900      	adds	r0, r0, r4
801016c8:	ea43 040e 	orr.w	r4, r3, lr
801016cc:	f1a6 0e20 	sub.w	lr, r6, #32
801016d0:	fa0c f306 	lsl.w	r3, ip, r6
801016d4:	fa04 fe0e 	lsl.w	lr, r4, lr
801016d8:	fa04 f206 	lsl.w	r2, r4, r6
801016dc:	f1c6 0720 	rsb	r7, r6, #32
801016e0:	fa24 f707 	lsr.w	r7, r4, r7
801016e4:	ea43 030e 	orr.w	r3, r3, lr
801016e8:	4169      	adcs	r1, r5
801016ea:	433b      	orrs	r3, r7
801016ec:	1a80      	subs	r0, r0, r2
801016ee:	4665      	mov	r5, ip
801016f0:	eb61 0103 	sbc.w	r1, r1, r3
801016f4:	f1ba 0f00 	cmp.w	sl, #0
801016f8:	d001      	beq.n	801016fe <__udivmoddi4+0xfa>
801016fa:	e9ca 4500 	strd	r4, r5, [sl]
801016fe:	e8bd 87f0 	ldmia.w	sp!, {r4, r5, r6, r7, r8, r9, sl, pc}
80101702:	fab4 f184 	clz	r1, r4
80101706:	3120      	adds	r1, #32
80101708:	e792      	b.n	80101630 <__udivmoddi4+0x2c>
8010170a:	fab2 f682 	clz	r6, r2
8010170e:	fab5 f185 	clz	r1, r5
80101712:	3620      	adds	r6, #32
80101714:	2d00      	cmp	r5, #0
80101716:	d18b      	bne.n	80101630 <__udivmoddi4+0x2c>
80101718:	e7f3      	b.n	80101702 <__udivmoddi4+0xfe>
8010171a:	bf00      	nop

Disassembly of section .rodata:

8010171c <.LC0>:
8010171c:	65637845 	strbvs	r7, [r3, #-2117]!	; 0xfffff7bb
80101720:	6f697470 	svcvs	0x00697470
80101724:	6320216e 			; <UNDEFINED> instruction: 0x6320216e
80101728:	20727370 	rsbscs	r7, r2, r0, ror r3
8010172c:	30207369 	eorcc	r7, r0, r9, ror #6
80101730:	0d782578 	cfldr64eq	mvdx2, [r8, #-480]!	; 0xfffffe20
80101734:	0000000a 	andeq	r0, r0, sl

80101738 <.LC1>:
80101738:	0a0d7325 	beq	8045e3d4 <__bss_end+0x35cad8>
8010173c:	00000000 	andeq	r0, r0, r0

80101740 <.LC2>:
80101740:	20495753 	subcs	r5, r9, r3, asr r7
80101744:	206c6176 	rsbcs	r6, ip, r6, ror r1
80101748:	7830203d 	ldmdavc	r0!, {r0, r2, r3, r4, r5, sp}
8010174c:	0a0d7825 	beq	8045f7e8 <__bss_end+0x35deec>
80101750:	00000000 	andeq	r0, r0, r0

80101754 <.LC3>:
80101754:	6c6c6568 	cfstr64vs	mvdx6, [ip], #-416	; 0xfffffe60
80101758:	6f77206f 	svcvs	0x0077206f
8010175c:	0d646c72 	stcleq	12, cr6, [r4, #-456]!	; 0xfffffe38
80101760:	0000000a 	andeq	r0, r0, sl

80101764 <.LC0>:
80101764:	73696854 	cmnvc	r9, #84, 16	; 0x540000
80101768:	20736920 	rsbscs	r6, r3, r0, lsr #18
8010176c:	2e777777 	mrccs	7, 3, r7, cr7, cr7, {3}
80101770:	61303031 	teqvs	r0, r1, lsr r0
80101774:	6f2e6b73 	svcvs	0x002e6b73
80101778:	20206772 	eorcs	r6, r0, r2, ror r7
8010177c:	5f796d20 	svcpl	0x00796d20
80101780:	6e697270 	mcrvs	2, 3, r7, cr9, cr0, {3}
80101784:	74206674 	strtvc	r6, [r0], #-1652	; 0xfffff98c
80101788:	0a747365 	beq	81e1e524 <__bss_end+0x1d1cc28>
8010178c:	0000000d 	andeq	r0, r0, sp

80101790 <.LC1>:
80101790:	74736574 	ldrbtvc	r6, [r3], #-1396	; 0xfffffa8c
80101794:	61686320 	cmnvs	r8, r0, lsr #6
80101798:	20202072 	eorcs	r2, r0, r2, ror r0
8010179c:	20202020 	eorcs	r2, r0, r0, lsr #32
801017a0:	20202020 	eorcs	r2, r0, r0, lsr #32
801017a4:	2c63253d 	cfstr64cs	mvdx2, [r3], #-244	; 0xffffff0c
801017a8:	0d0a6325 	stceq	3, cr6, [sl, #-148]	; 0xffffff6c
801017ac:	00000000 	andeq	r0, r0, r0

801017b0 <.LC2>:
801017b0:	74736574 	ldrbtvc	r6, [r3], #-1396	; 0xfffffa8c
801017b4:	63656420 	cmnvs	r5, #32, 8	; 0x20000000
801017b8:	6c616d69 	stclvs	13, cr6, [r1], #-420	; 0xfffffe5c
801017bc:	6d756e20 	ldclvs	14, cr6, [r5, #-128]!	; 0xffffff80
801017c0:	20726562 	rsbscs	r6, r2, r2, ror #10
801017c4:	0a64253d 	beq	81a0acc0 <__bss_end+0x19093c4>
801017c8:	0000000d 	andeq	r0, r0, sp

801017cc <.LC3>:
801017cc:	74736574 	ldrbtvc	r6, [r3], #-1396	; 0xfffffa8c
801017d0:	78656820 	stmdavc	r5!, {r5, fp, sp, lr}^
801017d4:	20202020 	eorcs	r2, r0, r0, lsr #32
801017d8:	6d756e20 	ldclvs	14, cr6, [r5, #-128]!	; 0xffffff80
801017dc:	20726562 	rsbscs	r6, r2, r2, ror #10
801017e0:	2578303d 	ldrbcs	r3, [r8, #-61]!	; 0xffffffc3
801017e4:	000d0a78 	andeq	r0, sp, r8, ror sl

801017e8 <.LC4>:
801017e8:	2e777777 	mrccs	7, 3, r7, cr7, cr7, {3}
801017ec:	61303031 	teqvs	r0, r1, lsr r0
801017f0:	6f2e6b73 	svcvs	0x002e6b73
801017f4:	00006772 	andeq	r6, r0, r2, ror r7

801017f8 <.LC5>:
801017f8:	74736574 	ldrbtvc	r6, [r3], #-1396	; 0xfffffa8c
801017fc:	72747320 	rsbsvc	r7, r4, #32, 6	; 0x80000000
80101800:	20676e69 	rsbcs	r6, r7, r9, ror #28
80101804:	20202020 	eorcs	r2, r0, r0, lsr #32
80101808:	20202020 	eorcs	r2, r0, r0, lsr #32
8010180c:	0a73253d 	beq	81dcad08 <__bss_end+0x1cc940c>
80101810:	0000000d 	andeq	r0, r0, sp

80101814 <.LC6>:
80101814:	3d6d756e 	cfstr64cc	mvdx7, [sp, #-440]!	; 0xfffffe48
80101818:	64383025 	ldrtvs	r3, [r8], #-37	; 0xffffffdb
8010181c:	00000d0a 	andeq	r0, r0, sl, lsl #26

80101820 <.LC7>:
80101820:	3d6d756e 	cfstr64cc	mvdx7, [sp, #-440]!	; 0xfffffe48
80101824:	0a643825 	beq	81a0f8c0 <__bss_end+0x190dfc4>
80101828:	0000000d 	andeq	r0, r0, sp

8010182c <.LC8>:
8010182c:	3d6d756e 	cfstr64cc	mvdx7, [sp, #-440]!	; 0xfffffe48
80101830:	30257830 	eorcc	r7, r5, r0, lsr r8
80101834:	0d0a7838 	stceq	8, cr7, [sl, #-224]	; 0xffffff20
80101838:	00000000 	andeq	r0, r0, r0

8010183c <.LC9>:
8010183c:	3d6d756e 	cfstr64cc	mvdx7, [sp, #-440]!	; 0xfffffe48
80101840:	38257830 	stmdacc	r5!, {r4, r5, fp, ip, sp, lr}
80101844:	000d0a78 	andeq	r0, sp, r8, ror sl

80101848 <.LC10>:
80101848:	3d6d756e 	cfstr64cc	mvdx7, [sp, #-440]!	; 0xfffffe48
8010184c:	30257830 	eorcc	r7, r5, r0, lsr r8
80101850:	0d0a7832 	stceq	8, cr7, [sl, #-200]	; 0xffffff38
80101854:	00000000 	andeq	r0, r0, r0

80101858 <.LC11>:
80101858:	3d6d756e 	cfstr64cc	mvdx7, [sp, #-440]!	; 0xfffffe48
8010185c:	32257830 	eorcc	r7, r5, #48, 16	; 0x300000
80101860:	000d0a78 	andeq	r0, sp, r8, ror sl

80101864 <.LC12>:
80101864:	3d6d756e 	cfstr64cc	mvdx7, [sp, #-440]!	; 0xfffffe48
80101868:	64353025 	ldrtvs	r3, [r5], #-37	; 0xffffffdb
8010186c:	00000d0a 	andeq	r0, r0, sl, lsl #26

80101870 <.LC13>:
80101870:	3d6d756e 	cfstr64cc	mvdx7, [sp, #-440]!	; 0xfffffe48
80101874:	0a643525 	beq	81a0ed10 <__bss_end+0x190d414>
80101878:	0000000d 	andeq	r0, r0, sp

8010187c <.LC0>:
8010187c:	20717269 	rsbscs	r7, r1, r9, ror #4
80101880:	69206425 	stmdbvs	r0!, {r0, r2, r5, sl, sp, lr}
80101884:	61682073 	smcvs	33283	; 0x8203
80101888:	6e657070 	mcrvs	0, 3, r7, cr5, cr0, {3}
8010188c:	0a0d6465 	beq	8045aa28 <__bss_end+0x35912c>
80101890:	00000000 	andeq	r0, r0, r0

80101894 <.LC1>:
80101894:	2079656b 	rsbscs	r6, r9, fp, ror #10
80101898:	73692031 	cmnvc	r9, #49	; 0x31
8010189c:	6c657220 	sfmvs	f7, 2, [r5], #-128	; 0xffffff80
801018a0:	65736165 	ldrbvs	r6, [r3, #-357]!	; 0xfffffe9b
801018a4:	00000a0d 	andeq	r0, r0, sp, lsl #20

801018a8 <.LC2>:
801018a8:	2079656b 	rsbscs	r6, r9, fp, ror #10
801018ac:	73692031 	cmnvc	r9, #49	; 0x31
801018b0:	65727020 	ldrbvs	r7, [r2, #-32]!	; 0xffffffe0
801018b4:	0a0d7373 	beq	8045e688 <__bss_end+0x35cd8c>
801018b8:	00000000 	andeq	r0, r0, r0

801018bc <.LC3>:
801018bc:	2079656b 	rsbscs	r6, r9, fp, ror #10
801018c0:	73692032 	cmnvc	r9, #50	; 0x32
801018c4:	6c657220 	sfmvs	f7, 2, [r5], #-128	; 0xffffff80
801018c8:	65736165 	ldrbvs	r6, [r3, #-357]!	; 0xfffffe9b
801018cc:	00000a0d 	andeq	r0, r0, sp, lsl #20

801018d0 <.LC4>:
801018d0:	2079656b 	rsbscs	r6, r9, fp, ror #10
801018d4:	73692032 	cmnvc	r9, #50	; 0x32
801018d8:	65727020 	ldrbvs	r7, [r2, #-32]!	; 0xffffffe0
801018dc:	0a0d7373 	beq	8045e6b0 <__bss_end+0x35cdb4>
	...

Disassembly of section .ARM.exidx:

801018e4 <.ARM.exidx>:
801018e4:	7ffffd20 	svcvc	0x00fffd20
801018e8:	00000001 	andeq	r0, r0, r1

Disassembly of section .data:

801018ec <hex_tab>:
801018ec:	33323130 	teqcc	r2, #48, 2
801018f0:	37363534 			; <UNDEFINED> instruction: 0x37363534
801018f4:	62613938 	rsbvs	r3, r1, #56, 18	; 0xe0000
801018f8:	66656463 	strbtvs	r6, [r5], -r3, ror #8

