
timer.elf:     file format elf32-littlearm


Disassembly of section .text:

80100000 <_start>:
80100000:	e59ff100 	ldr	pc, [pc, #256]	; 80100108 <clean+0x14>
80100004:	e59ff100 	ldr	pc, [pc, #256]	; 8010010c <clean+0x18>
80100008:	e59ff100 	ldr	pc, [pc, #256]	; 80100110 <clean+0x1c>
8010000c:	ea000034 	b	801000e4 <halt>
80100010:	ea000033 	b	801000e4 <halt>
80100014:	00000000 	andeq	r0, r0, r0
80100018:	e59ff0f4 	ldr	pc, [pc, #244]	; 80100114 <clean+0x20>
8010001c:	ea000030 	b	801000e4 <halt>

80100020 <Undefined_Handler>:
80100020:	e92d5fff 	push	{r0, r1, r2, r3, r4, r5, r6, r7, r8, r9, sl, fp, ip, lr}
80100024:	e10f0000 	mrs	r0, CPSR
80100028:	e59f10e8 	ldr	r1, [pc, #232]	; 80100118 <clean+0x24>
8010002c:	fa000167 	blx	801005d0 <printException>
80100030:	e8fd9fff 	ldm	sp!, {r0, r1, r2, r3, r4, r5, r6, r7, r8, r9, sl, fp, ip, pc}^

80100034 <und_string>:
80100034:	65646e75 	strbvs	r6, [r4, #-3701]!	; 0xfffff18b
80100038:	656e6966 	strbvs	r6, [lr, #-2406]!	; 0xfffff69a
8010003c:	6e692064 	cdpvs	0, 6, cr2, cr9, cr4, {3}
80100040:	75727473 	ldrbvc	r7, [r2, #-1139]!	; 0xfffffb8d
80100044:	6f697463 	svcvs	0x00697463
80100048:	7865206e 	stmdavc	r5!, {r1, r2, r3, r5, r6, sp}^
8010004c:	74706563 	ldrbtvc	r6, [r0], #-1379	; 0xfffffa9d
80100050:	006e6f69 	rsbeq	r6, lr, r9, ror #30

80100054 <SVC_Handler>:
80100054:	e92d5fff 	push	{r0, r1, r2, r3, r4, r5, r6, r7, r8, r9, sl, fp, ip, lr}
80100058:	e1a0400e 	mov	r4, lr
8010005c:	e10f0000 	mrs	r0, CPSR
80100060:	e59f10b4 	ldr	r1, [pc, #180]	; 8010011c <clean+0x28>
80100064:	fa000159 	blx	801005d0 <printException>
80100068:	e2440004 	sub	r0, r4, #4
8010006c:	fb000162 	blx	801005fe <printSWIVal>
80100070:	e8fd9fff 	ldm	sp!, {r0, r1, r2, r3, r4, r5, r6, r7, r8, r9, sl, fp, ip, pc}^

80100074 <swi_string>:
80100074:	20697773 	rsbcs	r7, r9, r3, ror r7
80100078:	65637865 	strbvs	r7, [r3, #-2149]!	; 0xfffff79b
8010007c:	6f697470 	svcvs	0x00697470
80100080:	0000006e 	andeq	r0, r0, lr, rrx

80100084 <IRQ_Handler>:
80100084:	e24ee004 	sub	lr, lr, #4
80100088:	e92d5fff 	push	{r0, r1, r2, r3, r4, r5, r6, r7, r8, r9, sl, fp, ip, lr}
8010008c:	fa000455 	blx	801011e8 <handle_irq_c>
80100090:	e8fd9fff 	ldm	sp!, {r0, r1, r2, r3, r4, r5, r6, r7, r8, r9, sl, fp, ip, pc}^

80100094 <Reset_Handler>:
80100094:	ee110f10 	mrc	15, 0, r0, cr1, cr0, {0}
80100098:	e3c00a02 	bic	r0, r0, #8192	; 0x2000
8010009c:	e3c00a01 	bic	r0, r0, #4096	; 0x1000
801000a0:	e3c00004 	bic	r0, r0, #4
801000a4:	e3c00004 	bic	r0, r0, #4
801000a8:	e3c00b02 	bic	r0, r0, #2048	; 0x800
801000ac:	e3c00001 	bic	r0, r0, #1
801000b0:	ee010f10 	mcr	15, 0, r0, cr1, cr0, {0}
801000b4:	f102001b 	cps	#27
801000b8:	e59fd060 	ldr	sp, [pc, #96]	; 80100120 <clean+0x2c>
801000bc:	f1020012 	cps	#18
801000c0:	e59fd05c 	ldr	sp, [pc, #92]	; 80100124 <clean+0x30>
801000c4:	f1020013 	cps	#19
801000c8:	e59fd058 	ldr	sp, [pc, #88]	; 80100128 <clean+0x34>
801000cc:	e59f0058 	ldr	r0, [pc, #88]	; 8010012c <clean+0x38>
801000d0:	ee0c0f10 	mcr	15, 0, r0, cr12, cr0, {0}
801000d4:	eb000003 	bl	801000e8 <clean_bss>
801000d8:	fa000171 	blx	801006a4 <system_init>
801000dc:	f1080080 	cpsie	i
801000e0:	fb00017c 	blx	801006da <main>

801000e4 <halt>:
801000e4:	eafffffe 	b	801000e4 <halt>

801000e8 <clean_bss>:
801000e8:	e59f1040 	ldr	r1, [pc, #64]	; 80100130 <clean+0x3c>
801000ec:	e59f2040 	ldr	r2, [pc, #64]	; 80100134 <clean+0x40>
801000f0:	e3a03000 	mov	r3, #0

801000f4 <clean>:
801000f4:	e1510002 	cmp	r1, r2
801000f8:	b5813000 	strlt	r3, [r1]
801000fc:	e2811004 	add	r1, r1, #4
80100100:	bafffffb 	blt	801000f4 <clean>
80100104:	e1a0f00e 	mov	pc, lr
80100108:	80100094 	mulshi	r0, r4, r0
8010010c:	80100020 	andshi	r0, r0, r0, lsr #32
80100110:	80100054 	andshi	r0, r0, r4, asr r0
80100114:	80100084 	andshi	r0, r0, r4, lsl #1
80100118:	80100034 	andshi	r0, r0, r4, lsr r0
8010011c:	80100074 	andshi	r0, r0, r4, ror r0
80100120:	80300000 	eorshi	r0, r0, r0
80100124:	80400000 	subhi	r0, r0, r0
80100128:	80200000 	eorhi	r0, r0, r0
8010012c:	80100000 	andshi	r0, r0, r0
80100130:	801019d4 			; <UNDEFINED> instruction: 0x801019d4
80100134:	80101ed4 			; <UNDEFINED> instruction: 0x80101ed4

80100138 <IOMUXC_SetPinMux>:
80100138:	b480      	push	{r7}
8010013a:	b085      	sub	sp, #20
8010013c:	af00      	add	r7, sp, #0
8010013e:	60f8      	str	r0, [r7, #12]
80100140:	60b9      	str	r1, [r7, #8]
80100142:	607a      	str	r2, [r7, #4]
80100144:	603b      	str	r3, [r7, #0]
80100146:	68fb      	ldr	r3, [r7, #12]
80100148:	68ba      	ldr	r2, [r7, #8]
8010014a:	f002 010f 	and.w	r1, r2, #15
8010014e:	69fa      	ldr	r2, [r7, #28]
80100150:	0112      	lsls	r2, r2, #4
80100152:	f002 0210 	and.w	r2, r2, #16
80100156:	430a      	orrs	r2, r1
80100158:	601a      	str	r2, [r3, #0]
8010015a:	687b      	ldr	r3, [r7, #4]
8010015c:	2b00      	cmp	r3, #0
8010015e:	d004      	beq.n	8010016a <IOMUXC_SetPinMux+0x32>
80100160:	687b      	ldr	r3, [r7, #4]
80100162:	683a      	ldr	r2, [r7, #0]
80100164:	f002 0207 	and.w	r2, r2, #7
80100168:	601a      	str	r2, [r3, #0]
8010016a:	bf00      	nop
8010016c:	3714      	adds	r7, #20
8010016e:	46bd      	mov	sp, r7
80100170:	f85d 7b04 	ldr.w	r7, [sp], #4
80100174:	4770      	bx	lr

80100176 <IOMUXC_SetPinConfig>:
80100176:	b480      	push	{r7}
80100178:	b085      	sub	sp, #20
8010017a:	af00      	add	r7, sp, #0
8010017c:	60f8      	str	r0, [r7, #12]
8010017e:	60b9      	str	r1, [r7, #8]
80100180:	607a      	str	r2, [r7, #4]
80100182:	603b      	str	r3, [r7, #0]
80100184:	69bb      	ldr	r3, [r7, #24]
80100186:	2b00      	cmp	r3, #0
80100188:	d002      	beq.n	80100190 <IOMUXC_SetPinConfig+0x1a>
8010018a:	69bb      	ldr	r3, [r7, #24]
8010018c:	69fa      	ldr	r2, [r7, #28]
8010018e:	601a      	str	r2, [r3, #0]
80100190:	bf00      	nop
80100192:	3714      	adds	r7, #20
80100194:	46bd      	mov	sp, r7
80100196:	f85d 7b04 	ldr.w	r7, [sp], #4
8010019a:	4770      	bx	lr

8010019c <init_pins>:
8010019c:	b580      	push	{r7, lr}
8010019e:	b082      	sub	sp, #8
801001a0:	af02      	add	r7, sp, #8
801001a2:	2300      	movs	r3, #0
801001a4:	9301      	str	r3, [sp, #4]
801001a6:	2358      	movs	r3, #88	; 0x58
801001a8:	f2c0 2329 	movt	r3, #553	; 0x229
801001ac:	9300      	str	r3, [sp, #0]
801001ae:	2300      	movs	r3, #0
801001b0:	2200      	movs	r2, #0
801001b2:	2105      	movs	r1, #5
801001b4:	2014      	movs	r0, #20
801001b6:	f2c0 2029 	movt	r0, #553	; 0x229
801001ba:	f7ff ffbd 	bl	80100138 <IOMUXC_SetPinMux>
801001be:	2309      	movs	r3, #9
801001c0:	f2c0 0301 	movt	r3, #1
801001c4:	9301      	str	r3, [sp, #4]
801001c6:	2358      	movs	r3, #88	; 0x58
801001c8:	f2c0 2329 	movt	r3, #553	; 0x229
801001cc:	9300      	str	r3, [sp, #0]
801001ce:	2300      	movs	r3, #0
801001d0:	2200      	movs	r2, #0
801001d2:	2105      	movs	r1, #5
801001d4:	2014      	movs	r0, #20
801001d6:	f2c0 2029 	movt	r0, #553	; 0x229
801001da:	f7ff ffcc 	bl	80100176 <IOMUXC_SetPinConfig>
801001de:	2300      	movs	r3, #0
801001e0:	9301      	str	r3, [sp, #4]
801001e2:	f44f 7345 	mov.w	r3, #788	; 0x314
801001e6:	f2c0 230e 	movt	r3, #526	; 0x20e
801001ea:	9300      	str	r3, [sp, #0]
801001ec:	2303      	movs	r3, #3
801001ee:	f240 6224 	movw	r2, #1572	; 0x624
801001f2:	f2c0 220e 	movt	r2, #526	; 0x20e
801001f6:	2100      	movs	r1, #0
801001f8:	2088      	movs	r0, #136	; 0x88
801001fa:	f2c0 200e 	movt	r0, #526	; 0x20e
801001fe:	f7ff ff9b 	bl	80100138 <IOMUXC_SetPinMux>
80100202:	f241 0390 	movw	r3, #4240	; 0x1090
80100206:	9301      	str	r3, [sp, #4]
80100208:	f44f 7345 	mov.w	r3, #788	; 0x314
8010020c:	f2c0 230e 	movt	r3, #526	; 0x20e
80100210:	9300      	str	r3, [sp, #0]
80100212:	2303      	movs	r3, #3
80100214:	f240 6224 	movw	r2, #1572	; 0x624
80100218:	f2c0 220e 	movt	r2, #526	; 0x20e
8010021c:	2100      	movs	r1, #0
8010021e:	2088      	movs	r0, #136	; 0x88
80100220:	f2c0 200e 	movt	r0, #526	; 0x20e
80100224:	f7ff ffa7 	bl	80100176 <IOMUXC_SetPinConfig>
80100228:	2300      	movs	r3, #0
8010022a:	9301      	str	r3, [sp, #4]
8010022c:	f44f 7344 	mov.w	r3, #784	; 0x310
80100230:	f2c0 230e 	movt	r3, #526	; 0x20e
80100234:	9300      	str	r3, [sp, #0]
80100236:	2300      	movs	r3, #0
80100238:	2200      	movs	r2, #0
8010023a:	2100      	movs	r1, #0
8010023c:	2084      	movs	r0, #132	; 0x84
8010023e:	f2c0 200e 	movt	r0, #526	; 0x20e
80100242:	f7ff ff79 	bl	80100138 <IOMUXC_SetPinMux>
80100246:	f241 0390 	movw	r3, #4240	; 0x1090
8010024a:	9301      	str	r3, [sp, #4]
8010024c:	f44f 7344 	mov.w	r3, #784	; 0x310
80100250:	f2c0 230e 	movt	r3, #526	; 0x20e
80100254:	9300      	str	r3, [sp, #0]
80100256:	2300      	movs	r3, #0
80100258:	2200      	movs	r2, #0
8010025a:	2100      	movs	r1, #0
8010025c:	2084      	movs	r0, #132	; 0x84
8010025e:	f2c0 200e 	movt	r0, #526	; 0x20e
80100262:	f7ff ff88 	bl	80100176 <IOMUXC_SetPinConfig>
80100266:	2300      	movs	r3, #0
80100268:	9301      	str	r3, [sp, #4]
8010026a:	2350      	movs	r3, #80	; 0x50
8010026c:	f2c0 2329 	movt	r3, #553	; 0x229
80100270:	9300      	str	r3, [sp, #0]
80100272:	2300      	movs	r3, #0
80100274:	2200      	movs	r2, #0
80100276:	2105      	movs	r1, #5
80100278:	200c      	movs	r0, #12
8010027a:	f2c0 2029 	movt	r0, #553	; 0x229
8010027e:	f7ff ff5b 	bl	80100138 <IOMUXC_SetPinMux>
80100282:	f241 03b0 	movw	r3, #4272	; 0x10b0
80100286:	f2c0 0301 	movt	r3, #1
8010028a:	9301      	str	r3, [sp, #4]
8010028c:	2350      	movs	r3, #80	; 0x50
8010028e:	f2c0 2329 	movt	r3, #553	; 0x229
80100292:	9300      	str	r3, [sp, #0]
80100294:	2300      	movs	r3, #0
80100296:	2200      	movs	r2, #0
80100298:	2105      	movs	r1, #5
8010029a:	200c      	movs	r0, #12
8010029c:	f2c0 2029 	movt	r0, #553	; 0x229
801002a0:	f7ff ff69 	bl	80100176 <IOMUXC_SetPinConfig>
801002a4:	2300      	movs	r3, #0
801002a6:	9301      	str	r3, [sp, #4]
801002a8:	f240 433c 	movw	r3, #1084	; 0x43c
801002ac:	f2c0 230e 	movt	r3, #526	; 0x20e
801002b0:	9300      	str	r3, [sp, #0]
801002b2:	2300      	movs	r3, #0
801002b4:	2200      	movs	r2, #0
801002b6:	2105      	movs	r1, #5
801002b8:	f44f 70d8 	mov.w	r0, #432	; 0x1b0
801002bc:	f2c0 200e 	movt	r0, #526	; 0x20e
801002c0:	f7ff ff3a 	bl	80100138 <IOMUXC_SetPinMux>
801002c4:	f241 03b0 	movw	r3, #4272	; 0x10b0
801002c8:	f2c0 0301 	movt	r3, #1
801002cc:	9301      	str	r3, [sp, #4]
801002ce:	f240 433c 	movw	r3, #1084	; 0x43c
801002d2:	f2c0 230e 	movt	r3, #526	; 0x20e
801002d6:	9300      	str	r3, [sp, #0]
801002d8:	2300      	movs	r3, #0
801002da:	2200      	movs	r2, #0
801002dc:	2105      	movs	r1, #5
801002de:	f44f 70d8 	mov.w	r0, #432	; 0x1b0
801002e2:	f2c0 200e 	movt	r0, #526	; 0x20e
801002e6:	f7ff ff46 	bl	80100176 <IOMUXC_SetPinConfig>
801002ea:	bf00      	nop
801002ec:	46bd      	mov	sp, r7
801002ee:	bd80      	pop	{r7, pc}

801002f0 <delay>:
801002f0:	b480      	push	{r7}
801002f2:	b083      	sub	sp, #12
801002f4:	af00      	add	r7, sp, #0
801002f6:	6078      	str	r0, [r7, #4]
801002f8:	bf00      	nop
801002fa:	687b      	ldr	r3, [r7, #4]
801002fc:	1e5a      	subs	r2, r3, #1
801002fe:	607a      	str	r2, [r7, #4]
80100300:	2b00      	cmp	r3, #0
80100302:	d1fa      	bne.n	801002fa <delay+0xa>
80100304:	bf00      	nop
80100306:	370c      	adds	r7, #12
80100308:	46bd      	mov	sp, r7
8010030a:	f85d 7b04 	ldr.w	r7, [sp], #4
8010030e:	4770      	bx	lr

80100310 <boot_clk_gate_init>:
80100310:	b480      	push	{r7}
80100312:	af00      	add	r7, sp, #0
80100314:	f44f 4380 	mov.w	r3, #16384	; 0x4000
80100318:	f2c0 230c 	movt	r3, #524	; 0x20c
8010031c:	f04f 32ff 	mov.w	r2, #4294967295	; 0xffffffff
80100320:	669a      	str	r2, [r3, #104]	; 0x68
80100322:	f44f 4380 	mov.w	r3, #16384	; 0x4000
80100326:	f2c0 230c 	movt	r3, #524	; 0x20c
8010032a:	f04f 32ff 	mov.w	r2, #4294967295	; 0xffffffff
8010032e:	66da      	str	r2, [r3, #108]	; 0x6c
80100330:	f44f 4380 	mov.w	r3, #16384	; 0x4000
80100334:	f2c0 230c 	movt	r3, #524	; 0x20c
80100338:	f04f 32ff 	mov.w	r2, #4294967295	; 0xffffffff
8010033c:	671a      	str	r2, [r3, #112]	; 0x70
8010033e:	f44f 4380 	mov.w	r3, #16384	; 0x4000
80100342:	f2c0 230c 	movt	r3, #524	; 0x20c
80100346:	f04f 32ff 	mov.w	r2, #4294967295	; 0xffffffff
8010034a:	675a      	str	r2, [r3, #116]	; 0x74
8010034c:	f44f 4380 	mov.w	r3, #16384	; 0x4000
80100350:	f2c0 230c 	movt	r3, #524	; 0x20c
80100354:	f04f 32ff 	mov.w	r2, #4294967295	; 0xffffffff
80100358:	679a      	str	r2, [r3, #120]	; 0x78
8010035a:	f44f 4380 	mov.w	r3, #16384	; 0x4000
8010035e:	f2c0 230c 	movt	r3, #524	; 0x20c
80100362:	f04f 32ff 	mov.w	r2, #4294967295	; 0xffffffff
80100366:	67da      	str	r2, [r3, #124]	; 0x7c
80100368:	f44f 4380 	mov.w	r3, #16384	; 0x4000
8010036c:	f2c0 230c 	movt	r3, #524	; 0x20c
80100370:	f04f 32ff 	mov.w	r2, #4294967295	; 0xffffffff
80100374:	f8c3 2080 	str.w	r2, [r3, #128]	; 0x80
80100378:	bf00      	nop
8010037a:	46bd      	mov	sp, r7
8010037c:	f85d 7b04 	ldr.w	r7, [sp], #4
80100380:	4770      	bx	lr

80100382 <boot_clk_init>:
80100382:	b480      	push	{r7}
80100384:	af00      	add	r7, sp, #0
80100386:	f44f 4380 	mov.w	r3, #16384	; 0x4000
8010038a:	f2c0 230c 	movt	r3, #524	; 0x20c
8010038e:	68db      	ldr	r3, [r3, #12]
80100390:	f003 0304 	and.w	r3, r3, #4
80100394:	2b00      	cmp	r3, #0
80100396:	d117      	bne.n	801003c8 <boot_clk_init+0x46>
80100398:	f44f 4380 	mov.w	r3, #16384	; 0x4000
8010039c:	f2c0 230c 	movt	r3, #524	; 0x20c
801003a0:	f44f 4280 	mov.w	r2, #16384	; 0x4000
801003a4:	f2c0 220c 	movt	r2, #524	; 0x20c
801003a8:	68d2      	ldr	r2, [r2, #12]
801003aa:	f422 7280 	bic.w	r2, r2, #256	; 0x100
801003ae:	60da      	str	r2, [r3, #12]
801003b0:	f44f 4380 	mov.w	r3, #16384	; 0x4000
801003b4:	f2c0 230c 	movt	r3, #524	; 0x20c
801003b8:	f44f 4280 	mov.w	r2, #16384	; 0x4000
801003bc:	f2c0 220c 	movt	r2, #524	; 0x20c
801003c0:	68d2      	ldr	r2, [r2, #12]
801003c2:	f042 0204 	orr.w	r2, r2, #4
801003c6:	60da      	str	r2, [r3, #12]
801003c8:	f44f 4300 	mov.w	r3, #32768	; 0x8000
801003cc:	f2c0 230c 	movt	r3, #524	; 0x20c
801003d0:	f242 0258 	movw	r2, #8280	; 0x2058
801003d4:	601a      	str	r2, [r3, #0]
801003d6:	f44f 4380 	mov.w	r3, #16384	; 0x4000
801003da:	f2c0 230c 	movt	r3, #524	; 0x20c
801003de:	f44f 4280 	mov.w	r2, #16384	; 0x4000
801003e2:	f2c0 220c 	movt	r2, #524	; 0x20c
801003e6:	68d2      	ldr	r2, [r2, #12]
801003e8:	f022 0204 	bic.w	r2, r2, #4
801003ec:	60da      	str	r2, [r3, #12]
801003ee:	f44f 4380 	mov.w	r3, #16384	; 0x4000
801003f2:	f2c0 230c 	movt	r3, #524	; 0x20c
801003f6:	2201      	movs	r2, #1
801003f8:	611a      	str	r2, [r3, #16]
801003fa:	f44f 4300 	mov.w	r3, #32768	; 0x8000
801003fe:	f2c0 230c 	movt	r3, #524	; 0x20c
80100402:	f44f 4200 	mov.w	r2, #32768	; 0x8000
80100406:	f2c0 220c 	movt	r2, #524	; 0x20c
8010040a:	f8d2 2100 	ldr.w	r2, [r2, #256]	; 0x100
8010040e:	f002 32c0 	and.w	r2, r2, #3233857728	; 0xc0c0c0c0
80100412:	f8c3 2100 	str.w	r2, [r3, #256]	; 0x100
80100416:	f44f 4200 	mov.w	r2, #32768	; 0x8000
8010041a:	f2c0 220c 	movt	r2, #524	; 0x20c
8010041e:	f44f 4300 	mov.w	r3, #32768	; 0x8000
80100422:	f2c0 230c 	movt	r3, #524	; 0x20c
80100426:	f8d3 1100 	ldr.w	r1, [r3, #256]	; 0x100
8010042a:	f241 031b 	movw	r3, #4123	; 0x101b
8010042e:	f2c3 0318 	movt	r3, #12312	; 0x3018
80100432:	430b      	orrs	r3, r1
80100434:	f8c2 3100 	str.w	r3, [r2, #256]	; 0x100
80100438:	f44f 4300 	mov.w	r3, #32768	; 0x8000
8010043c:	f2c0 230c 	movt	r3, #524	; 0x20c
80100440:	f44f 4200 	mov.w	r2, #32768	; 0x8000
80100444:	f2c0 220c 	movt	r2, #524	; 0x20c
80100448:	f8d2 20f0 	ldr.w	r2, [r2, #240]	; 0xf0
8010044c:	f002 32c0 	and.w	r2, r2, #3233857728	; 0xc0c0c0c0
80100450:	f8c3 20f0 	str.w	r2, [r3, #240]	; 0xf0
80100454:	f44f 4200 	mov.w	r2, #32768	; 0x8000
80100458:	f2c0 220c 	movt	r2, #524	; 0x20c
8010045c:	f44f 4300 	mov.w	r3, #32768	; 0x8000
80100460:	f2c0 230c 	movt	r3, #524	; 0x20c
80100464:	f8d3 10f0 	ldr.w	r1, [r3, #240]	; 0xf0
80100468:	f241 030c 	movw	r3, #4108	; 0x100c
8010046c:	f2c1 3311 	movt	r3, #4881	; 0x1311
80100470:	430b      	orrs	r3, r1
80100472:	f8c2 30f0 	str.w	r3, [r2, #240]	; 0xf0
80100476:	f44f 4380 	mov.w	r3, #16384	; 0x4000
8010047a:	f2c0 230c 	movt	r3, #524	; 0x20c
8010047e:	f44f 4280 	mov.w	r2, #16384	; 0x4000
80100482:	f2c0 220c 	movt	r2, #524	; 0x20c
80100486:	6992      	ldr	r2, [r2, #24]
80100488:	f422 02d8 	bic.w	r2, r2, #7077888	; 0x6c0000
8010048c:	619a      	str	r2, [r3, #24]
8010048e:	f44f 4380 	mov.w	r3, #16384	; 0x4000
80100492:	f2c0 230c 	movt	r3, #524	; 0x20c
80100496:	f44f 4280 	mov.w	r2, #16384	; 0x4000
8010049a:	f2c0 220c 	movt	r2, #524	; 0x20c
8010049e:	6992      	ldr	r2, [r2, #24]
801004a0:	f442 1210 	orr.w	r2, r2, #2359296	; 0x240000
801004a4:	619a      	str	r2, [r3, #24]
801004a6:	f44f 4380 	mov.w	r3, #16384	; 0x4000
801004aa:	f2c0 230c 	movt	r3, #524	; 0x20c
801004ae:	f44f 4280 	mov.w	r2, #16384	; 0x4000
801004b2:	f2c0 220c 	movt	r2, #524	; 0x20c
801004b6:	6952      	ldr	r2, [r2, #20]
801004b8:	f022 62c0 	bic.w	r2, r2, #100663296	; 0x6000000
801004bc:	615a      	str	r2, [r3, #20]
801004be:	f44f 4380 	mov.w	r3, #16384	; 0x4000
801004c2:	f2c0 230c 	movt	r3, #524	; 0x20c
801004c6:	f44f 4280 	mov.w	r2, #16384	; 0x4000
801004ca:	f2c0 220c 	movt	r2, #524	; 0x20c
801004ce:	6952      	ldr	r2, [r2, #20]
801004d0:	615a      	str	r2, [r3, #20]
801004d2:	f44f 4280 	mov.w	r2, #16384	; 0x4000
801004d6:	f2c0 220c 	movt	r2, #524	; 0x20c
801004da:	f44f 4380 	mov.w	r3, #16384	; 0x4000
801004de:	f2c0 230c 	movt	r3, #524	; 0x20c
801004e2:	695b      	ldr	r3, [r3, #20]
801004e4:	f423 23e0 	bic.w	r3, r3, #458752	; 0x70000
801004e8:	f423 7340 	bic.w	r3, r3, #768	; 0x300
801004ec:	6153      	str	r3, [r2, #20]
801004ee:	f44f 4280 	mov.w	r2, #16384	; 0x4000
801004f2:	f2c0 220c 	movt	r2, #524	; 0x20c
801004f6:	f44f 4380 	mov.w	r3, #16384	; 0x4000
801004fa:	f2c0 230c 	movt	r3, #524	; 0x20c
801004fe:	695b      	ldr	r3, [r3, #20]
80100500:	f443 3380 	orr.w	r3, r3, #65536	; 0x10000
80100504:	f443 7380 	orr.w	r3, r3, #256	; 0x100
80100508:	6153      	str	r3, [r2, #20]
8010050a:	f44f 4280 	mov.w	r2, #16384	; 0x4000
8010050e:	f2c0 220c 	movt	r2, #524	; 0x20c
80100512:	f44f 4380 	mov.w	r3, #16384	; 0x4000
80100516:	f2c0 230c 	movt	r3, #524	; 0x20c
8010051a:	695b      	ldr	r3, [r3, #20]
8010051c:	f023 5360 	bic.w	r3, r3, #939524096	; 0x38000000
80100520:	f023 0387 	bic.w	r3, r3, #135	; 0x87
80100524:	6153      	str	r3, [r2, #20]
80100526:	f44f 4380 	mov.w	r3, #16384	; 0x4000
8010052a:	f2c0 230c 	movt	r3, #524	; 0x20c
8010052e:	f44f 4280 	mov.w	r2, #16384	; 0x4000
80100532:	f2c0 220c 	movt	r2, #524	; 0x20c
80100536:	6952      	ldr	r2, [r2, #20]
80100538:	615a      	str	r2, [r3, #20]
8010053a:	bf00      	nop
8010053c:	f44f 4380 	mov.w	r3, #16384	; 0x4000
80100540:	f2c0 230c 	movt	r3, #524	; 0x20c
80100544:	6c9b      	ldr	r3, [r3, #72]	; 0x48
80100546:	f003 032f 	and.w	r3, r3, #47	; 0x2f
8010054a:	2b00      	cmp	r3, #0
8010054c:	d1f6      	bne.n	8010053c <boot_clk_init+0x1ba>
8010054e:	f44f 4380 	mov.w	r3, #16384	; 0x4000
80100552:	f2c0 230c 	movt	r3, #524	; 0x20c
80100556:	f44f 4280 	mov.w	r2, #16384	; 0x4000
8010055a:	f2c0 220c 	movt	r2, #524	; 0x20c
8010055e:	68d2      	ldr	r2, [r2, #12]
80100560:	f022 0201 	bic.w	r2, r2, #1
80100564:	60da      	str	r2, [r3, #12]
80100566:	f44f 4380 	mov.w	r3, #16384	; 0x4000
8010056a:	f2c0 230c 	movt	r3, #524	; 0x20c
8010056e:	f44f 4280 	mov.w	r2, #16384	; 0x4000
80100572:	f2c0 220c 	movt	r2, #524	; 0x20c
80100576:	6a52      	ldr	r2, [r2, #36]	; 0x24
80100578:	f022 0240 	bic.w	r2, r2, #64	; 0x40
8010057c:	625a      	str	r2, [r3, #36]	; 0x24
8010057e:	f44f 4380 	mov.w	r3, #16384	; 0x4000
80100582:	f2c0 230c 	movt	r3, #524	; 0x20c
80100586:	f44f 4280 	mov.w	r2, #16384	; 0x4000
8010058a:	f2c0 220c 	movt	r2, #524	; 0x20c
8010058e:	6a52      	ldr	r2, [r2, #36]	; 0x24
80100590:	f022 023f 	bic.w	r2, r2, #63	; 0x3f
80100594:	625a      	str	r2, [r3, #36]	; 0x24
80100596:	f44f 4380 	mov.w	r3, #16384	; 0x4000
8010059a:	f2c0 230c 	movt	r3, #524	; 0x20c
8010059e:	f44f 4280 	mov.w	r2, #16384	; 0x4000
801005a2:	f2c0 220c 	movt	r2, #524	; 0x20c
801005a6:	69d2      	ldr	r2, [r2, #28]
801005a8:	f022 0240 	bic.w	r2, r2, #64	; 0x40
801005ac:	61da      	str	r2, [r3, #28]
801005ae:	f44f 4380 	mov.w	r3, #16384	; 0x4000
801005b2:	f2c0 230c 	movt	r3, #524	; 0x20c
801005b6:	f44f 4280 	mov.w	r2, #16384	; 0x4000
801005ba:	f2c0 220c 	movt	r2, #524	; 0x20c
801005be:	69d2      	ldr	r2, [r2, #28]
801005c0:	f022 023f 	bic.w	r2, r2, #63	; 0x3f
801005c4:	61da      	str	r2, [r3, #28]
801005c6:	bf00      	nop
801005c8:	46bd      	mov	sp, r7
801005ca:	f85d 7b04 	ldr.w	r7, [sp], #4
801005ce:	4770      	bx	lr

801005d0 <printException>:
801005d0:	b580      	push	{r7, lr}
801005d2:	b082      	sub	sp, #8
801005d4:	af00      	add	r7, sp, #0
801005d6:	6078      	str	r0, [r7, #4]
801005d8:	6039      	str	r1, [r7, #0]
801005da:	6879      	ldr	r1, [r7, #4]
801005dc:	f241 70d4 	movw	r0, #6100	; 0x17d4
801005e0:	f2c8 0010 	movt	r0, #32784	; 0x8010
801005e4:	f000 fcb3 	bl	80100f4e <printf>
801005e8:	6839      	ldr	r1, [r7, #0]
801005ea:	f241 70f0 	movw	r0, #6128	; 0x17f0
801005ee:	f2c8 0010 	movt	r0, #32784	; 0x8010
801005f2:	f000 fcac 	bl	80100f4e <printf>
801005f6:	bf00      	nop
801005f8:	3708      	adds	r7, #8
801005fa:	46bd      	mov	sp, r7
801005fc:	bd80      	pop	{r7, pc}

801005fe <printSWIVal>:
801005fe:	b580      	push	{r7, lr}
80100600:	b082      	sub	sp, #8
80100602:	af00      	add	r7, sp, #0
80100604:	6078      	str	r0, [r7, #4]
80100606:	687b      	ldr	r3, [r7, #4]
80100608:	681b      	ldr	r3, [r3, #0]
8010060a:	f023 437f 	bic.w	r3, r3, #4278190080	; 0xff000000
8010060e:	4619      	mov	r1, r3
80100610:	f241 70f8 	movw	r0, #6136	; 0x17f8
80100614:	f2c8 0010 	movt	r0, #32784	; 0x8010
80100618:	f000 fc99 	bl	80100f4e <printf>
8010061c:	bf00      	nop
8010061e:	3708      	adds	r7, #8
80100620:	46bd      	mov	sp, r7
80100622:	bd80      	pop	{r7, pc}

80100624 <EPIT1_handle_irq>:
80100624:	b580      	push	{r7, lr}
80100626:	af00      	add	r7, sp, #0
80100628:	f641 000c 	movw	r0, #6156	; 0x180c
8010062c:	f2c8 0010 	movt	r0, #32784	; 0x8010
80100630:	f000 fc8d 	bl	80100f4e <printf>
80100634:	2300      	movs	r3, #0
80100636:	f2c0 230d 	movt	r3, #525	; 0x20d
8010063a:	2200      	movs	r2, #0
8010063c:	f2c0 220d 	movt	r2, #525	; 0x20d
80100640:	6852      	ldr	r2, [r2, #4]
80100642:	f042 0201 	orr.w	r2, r2, #1
80100646:	605a      	str	r2, [r3, #4]
80100648:	f641 13c0 	movw	r3, #6592	; 0x19c0
8010064c:	f2c8 0310 	movt	r3, #32784	; 0x8010
80100650:	681b      	ldr	r3, [r3, #0]
80100652:	2b00      	cmp	r3, #0
80100654:	d012      	beq.n	8010067c <EPIT1_handle_irq+0x58>
80100656:	f44f 4340 	mov.w	r3, #49152	; 0xc000
8010065a:	f2c0 230a 	movt	r3, #522	; 0x20a
8010065e:	f44f 4240 	mov.w	r2, #49152	; 0xc000
80100662:	f2c0 220a 	movt	r2, #522	; 0x20a
80100666:	6812      	ldr	r2, [r2, #0]
80100668:	f042 0208 	orr.w	r2, r2, #8
8010066c:	601a      	str	r2, [r3, #0]
8010066e:	f641 13c0 	movw	r3, #6592	; 0x19c0
80100672:	f2c8 0310 	movt	r3, #32784	; 0x8010
80100676:	2200      	movs	r2, #0
80100678:	601a      	str	r2, [r3, #0]
8010067a:	e011      	b.n	801006a0 <EPIT1_handle_irq+0x7c>
8010067c:	f44f 4340 	mov.w	r3, #49152	; 0xc000
80100680:	f2c0 230a 	movt	r3, #522	; 0x20a
80100684:	f44f 4240 	mov.w	r2, #49152	; 0xc000
80100688:	f2c0 220a 	movt	r2, #522	; 0x20a
8010068c:	6812      	ldr	r2, [r2, #0]
8010068e:	f022 0208 	bic.w	r2, r2, #8
80100692:	601a      	str	r2, [r3, #0]
80100694:	f641 13c0 	movw	r3, #6592	; 0x19c0
80100698:	f2c8 0310 	movt	r3, #32784	; 0x8010
8010069c:	2201      	movs	r2, #1
8010069e:	601a      	str	r2, [r3, #0]
801006a0:	bf00      	nop
801006a2:	bd80      	pop	{r7, pc}

801006a4 <system_init>:
801006a4:	b580      	push	{r7, lr}
801006a6:	af00      	add	r7, sp, #0
801006a8:	f7ff fd78 	bl	8010019c <init_pins>
801006ac:	f000 f853 	bl	80100756 <led_gpio_init>
801006b0:	2000      	movs	r0, #0
801006b2:	f000 f863 	bl	8010077c <led_ctl>
801006b6:	f7ff fe2b 	bl	80100310 <boot_clk_gate_init>
801006ba:	f7ff fe62 	bl	80100382 <boot_clk_init>
801006be:	f000 f9ea 	bl	80100a96 <uart1_init>
801006c2:	f641 0028 	movw	r0, #6184	; 0x1828
801006c6:	f2c8 0010 	movt	r0, #32784	; 0x8010
801006ca:	f000 fab3 	bl	80100c34 <puts>
801006ce:	f000 fd72 	bl	801011b6 <system_init_irq_table>
801006d2:	f000 fcda 	bl	8010108a <gic_init>
801006d6:	bf00      	nop
801006d8:	bd80      	pop	{r7, pc}

801006da <main>:
801006da:	b580      	push	{r7, lr}
801006dc:	af00      	add	r7, sp, #0
801006de:	2000      	movs	r0, #0
801006e0:	f2c0 200d 	movt	r0, #525	; 0x20d
801006e4:	f000 fe21 	bl	8010132a <epit_poll_init>
801006e8:	f244 2140 	movw	r1, #16960	; 0x4240
801006ec:	f2c0 010f 	movt	r1, #15
801006f0:	2000      	movs	r0, #0
801006f2:	f2c0 200d 	movt	r0, #525	; 0x20d
801006f6:	f000 fe51 	bl	8010139c <epit_poll_restart>
801006fa:	f44f 4340 	mov.w	r3, #49152	; 0xc000
801006fe:	f2c0 230a 	movt	r3, #522	; 0x20a
80100702:	f44f 4240 	mov.w	r2, #49152	; 0xc000
80100706:	f2c0 220a 	movt	r2, #522	; 0x20a
8010070a:	6812      	ldr	r2, [r2, #0]
8010070c:	f022 0208 	bic.w	r2, r2, #8
80100710:	601a      	str	r2, [r3, #0]
80100712:	f641 0038 	movw	r0, #6200	; 0x1838
80100716:	f2c8 0010 	movt	r0, #32784	; 0x8010
8010071a:	f000 fc18 	bl	80100f4e <printf>
8010071e:	f244 2140 	movw	r1, #16960	; 0x4240
80100722:	f2c0 010f 	movt	r1, #15
80100726:	2000      	movs	r0, #0
80100728:	f2c0 200d 	movt	r0, #525	; 0x20d
8010072c:	f000 fe36 	bl	8010139c <epit_poll_restart>
80100730:	f44f 4340 	mov.w	r3, #49152	; 0xc000
80100734:	f2c0 230a 	movt	r3, #522	; 0x20a
80100738:	f44f 4240 	mov.w	r2, #49152	; 0xc000
8010073c:	f2c0 220a 	movt	r2, #522	; 0x20a
80100740:	6812      	ldr	r2, [r2, #0]
80100742:	f042 0208 	orr.w	r2, r2, #8
80100746:	601a      	str	r2, [r3, #0]
80100748:	f641 0044 	movw	r0, #6212	; 0x1844
8010074c:	f2c8 0010 	movt	r0, #32784	; 0x8010
80100750:	f000 fbfd 	bl	80100f4e <printf>
80100754:	e7c8      	b.n	801006e8 <main+0xe>

80100756 <led_gpio_init>:
80100756:	b480      	push	{r7}
80100758:	af00      	add	r7, sp, #0
8010075a:	f44f 4340 	mov.w	r3, #49152	; 0xc000
8010075e:	f2c0 230a 	movt	r3, #522	; 0x20a
80100762:	f44f 4240 	mov.w	r2, #49152	; 0xc000
80100766:	f2c0 220a 	movt	r2, #522	; 0x20a
8010076a:	6852      	ldr	r2, [r2, #4]
8010076c:	f042 0208 	orr.w	r2, r2, #8
80100770:	605a      	str	r2, [r3, #4]
80100772:	bf00      	nop
80100774:	46bd      	mov	sp, r7
80100776:	f85d 7b04 	ldr.w	r7, [sp], #4
8010077a:	4770      	bx	lr

8010077c <led_ctl>:
8010077c:	b480      	push	{r7}
8010077e:	b083      	sub	sp, #12
80100780:	af00      	add	r7, sp, #0
80100782:	6078      	str	r0, [r7, #4]
80100784:	687b      	ldr	r3, [r7, #4]
80100786:	2b00      	cmp	r3, #0
80100788:	d00c      	beq.n	801007a4 <led_ctl+0x28>
8010078a:	f44f 4340 	mov.w	r3, #49152	; 0xc000
8010078e:	f2c0 230a 	movt	r3, #522	; 0x20a
80100792:	f44f 4240 	mov.w	r2, #49152	; 0xc000
80100796:	f2c0 220a 	movt	r2, #522	; 0x20a
8010079a:	6812      	ldr	r2, [r2, #0]
8010079c:	f022 0208 	bic.w	r2, r2, #8
801007a0:	601a      	str	r2, [r3, #0]
801007a2:	e00b      	b.n	801007bc <led_ctl+0x40>
801007a4:	f44f 4340 	mov.w	r3, #49152	; 0xc000
801007a8:	f2c0 230a 	movt	r3, #522	; 0x20a
801007ac:	f44f 4240 	mov.w	r2, #49152	; 0xc000
801007b0:	f2c0 220a 	movt	r2, #522	; 0x20a
801007b4:	6812      	ldr	r2, [r2, #0]
801007b6:	f042 0208 	orr.w	r2, r2, #8
801007ba:	601a      	str	r2, [r3, #0]
801007bc:	bf00      	nop
801007be:	370c      	adds	r7, #12
801007c0:	46bd      	mov	sp, r7
801007c2:	f85d 7b04 	ldr.w	r7, [sp], #4
801007c6:	4770      	bx	lr

801007c8 <UART_SetBaudRate>:
801007c8:	b590      	push	{r4, r7, lr}
801007ca:	b091      	sub	sp, #68	; 0x44
801007cc:	af00      	add	r7, sp, #0
801007ce:	6078      	str	r0, [r7, #4]
801007d0:	6039      	str	r1, [r7, #0]
801007d2:	2300      	movs	r3, #0
801007d4:	63fb      	str	r3, [r7, #60]	; 0x3c
801007d6:	2300      	movs	r3, #0
801007d8:	63bb      	str	r3, [r7, #56]	; 0x38
801007da:	2300      	movs	r3, #0
801007dc:	637b      	str	r3, [r7, #52]	; 0x34
801007de:	2300      	movs	r3, #0
801007e0:	633b      	str	r3, [r7, #48]	; 0x30
801007e2:	2301      	movs	r3, #1
801007e4:	623b      	str	r3, [r7, #32]
801007e6:	f04f 0300 	mov.w	r3, #0
801007ea:	f04f 0400 	mov.w	r4, #0
801007ee:	e9c7 3406 	strd	r3, r4, [r7, #24]
801007f2:	f04f 0300 	mov.w	r3, #0
801007f6:	f04f 0400 	mov.w	r4, #0
801007fa:	e9c7 340a 	strd	r3, r4, [r7, #40]	; 0x28
801007fe:	2300      	movs	r3, #0
80100800:	627b      	str	r3, [r7, #36]	; 0x24
80100802:	683b      	ldr	r3, [r7, #0]
80100804:	63fb      	str	r3, [r7, #60]	; 0x3c
80100806:	687b      	ldr	r3, [r7, #4]
80100808:	011b      	lsls	r3, r3, #4
8010080a:	63bb      	str	r3, [r7, #56]	; 0x38
8010080c:	2301      	movs	r3, #1
8010080e:	637b      	str	r3, [r7, #52]	; 0x34
80100810:	e00a      	b.n	80100828 <UART_SetBaudRate+0x60>
80100812:	6bbb      	ldr	r3, [r7, #56]	; 0x38
80100814:	637b      	str	r3, [r7, #52]	; 0x34
80100816:	6bfb      	ldr	r3, [r7, #60]	; 0x3c
80100818:	6bb9      	ldr	r1, [r7, #56]	; 0x38
8010081a:	4618      	mov	r0, r3
8010081c:	f000 ff22 	bl	80101664 <__aeabi_uidivmod>
80100820:	460b      	mov	r3, r1
80100822:	63bb      	str	r3, [r7, #56]	; 0x38
80100824:	6b7b      	ldr	r3, [r7, #52]	; 0x34
80100826:	63fb      	str	r3, [r7, #60]	; 0x3c
80100828:	6bbb      	ldr	r3, [r7, #56]	; 0x38
8010082a:	2b00      	cmp	r3, #0
8010082c:	d1f1      	bne.n	80100812 <UART_SetBaudRate+0x4a>
8010082e:	6b79      	ldr	r1, [r7, #52]	; 0x34
80100830:	6838      	ldr	r0, [r7, #0]
80100832:	f000 fde9 	bl	80101408 <__aeabi_uidiv>
80100836:	4603      	mov	r3, r0
80100838:	63fb      	str	r3, [r7, #60]	; 0x3c
8010083a:	687b      	ldr	r3, [r7, #4]
8010083c:	011b      	lsls	r3, r3, #4
8010083e:	6b79      	ldr	r1, [r7, #52]	; 0x34
80100840:	4618      	mov	r0, r3
80100842:	f000 fde1 	bl	80101408 <__aeabi_uidiv>
80100846:	4603      	mov	r3, r0
80100848:	63bb      	str	r3, [r7, #56]	; 0x38
8010084a:	6bfa      	ldr	r2, [r7, #60]	; 0x3c
8010084c:	f64f 73f9 	movw	r3, #65529	; 0xfff9
80100850:	f2c0 0306 	movt	r3, #6
80100854:	429a      	cmp	r2, r3
80100856:	d803      	bhi.n	80100860 <UART_SetBaudRate+0x98>
80100858:	6bbb      	ldr	r3, [r7, #56]	; 0x38
8010085a:	f5b3 3f80 	cmp.w	r3, #65536	; 0x10000
8010085e:	d334      	bcc.n	801008ca <UART_SetBaudRate+0x102>
80100860:	6bfb      	ldr	r3, [r7, #60]	; 0x3c
80100862:	1e5a      	subs	r2, r3, #1
80100864:	f646 53b9 	movw	r3, #28089	; 0x6db9
80100868:	f2c2 4393 	movt	r3, #9363	; 0x2493
8010086c:	fba2 3403 	umull	r3, r4, r2, r3
80100870:	1b12      	subs	r2, r2, r4
80100872:	0852      	lsrs	r2, r2, #1
80100874:	1913      	adds	r3, r2, r4
80100876:	0c9b      	lsrs	r3, r3, #18
80100878:	3301      	adds	r3, #1
8010087a:	617b      	str	r3, [r7, #20]
8010087c:	6bbb      	ldr	r3, [r7, #56]	; 0x38
8010087e:	1e5a      	subs	r2, r3, #1
80100880:	f248 0301 	movw	r3, #32769	; 0x8001
80100884:	f2c8 0300 	movt	r3, #32768	; 0x8000
80100888:	fba2 3403 	umull	r3, r4, r2, r3
8010088c:	0be3      	lsrs	r3, r4, #15
8010088e:	3301      	adds	r3, #1
80100890:	613b      	str	r3, [r7, #16]
80100892:	693a      	ldr	r2, [r7, #16]
80100894:	697b      	ldr	r3, [r7, #20]
80100896:	4293      	cmp	r3, r2
80100898:	bf38      	it	cc
8010089a:	4613      	movcc	r3, r2
8010089c:	60fb      	str	r3, [r7, #12]
8010089e:	68f9      	ldr	r1, [r7, #12]
801008a0:	6bf8      	ldr	r0, [r7, #60]	; 0x3c
801008a2:	f000 fdb1 	bl	80101408 <__aeabi_uidiv>
801008a6:	4603      	mov	r3, r0
801008a8:	63fb      	str	r3, [r7, #60]	; 0x3c
801008aa:	68f9      	ldr	r1, [r7, #12]
801008ac:	6bb8      	ldr	r0, [r7, #56]	; 0x38
801008ae:	f000 fdab 	bl	80101408 <__aeabi_uidiv>
801008b2:	4603      	mov	r3, r0
801008b4:	63bb      	str	r3, [r7, #56]	; 0x38
801008b6:	6bfb      	ldr	r3, [r7, #60]	; 0x3c
801008b8:	2b00      	cmp	r3, #0
801008ba:	d101      	bne.n	801008c0 <UART_SetBaudRate+0xf8>
801008bc:	2301      	movs	r3, #1
801008be:	63fb      	str	r3, [r7, #60]	; 0x3c
801008c0:	6bbb      	ldr	r3, [r7, #56]	; 0x38
801008c2:	2b00      	cmp	r3, #0
801008c4:	d101      	bne.n	801008ca <UART_SetBaudRate+0x102>
801008c6:	2301      	movs	r3, #1
801008c8:	63bb      	str	r3, [r7, #56]	; 0x38
801008ca:	6bfb      	ldr	r3, [r7, #60]	; 0x3c
801008cc:	1e5a      	subs	r2, r3, #1
801008ce:	f248 0301 	movw	r3, #32769	; 0x8001
801008d2:	f2c8 0300 	movt	r3, #32768	; 0x8000
801008d6:	fba2 3403 	umull	r3, r4, r2, r3
801008da:	0be3      	lsrs	r3, r4, #15
801008dc:	3301      	adds	r3, #1
801008de:	623b      	str	r3, [r7, #32]
801008e0:	6a3b      	ldr	r3, [r7, #32]
801008e2:	3b01      	subs	r3, #1
801008e4:	2b06      	cmp	r3, #6
801008e6:	d826      	bhi.n	80100936 <UART_SetBaudRate+0x16e>
801008e8:	a201      	add	r2, pc, #4	; (adr r2, 801008f0 <UART_SetBaudRate+0x128>)
801008ea:	f852 f023 	ldr.w	pc, [r2, r3, lsl #2]
801008ee:	bf00      	nop
801008f0:	8010090d 	andshi	r0, r0, sp, lsl #18
801008f4:	80100913 	andshi	r0, r0, r3, lsl r9
801008f8:	80100919 	andshi	r0, r0, r9, lsl r9
801008fc:	8010091f 	andshi	r0, r0, pc, lsl r9
80100900:	80100925 	andshi	r0, r0, r5, lsr #18
80100904:	8010092b 	andshi	r0, r0, fp, lsr #18
80100908:	80100931 	andshi	r0, r0, r1, lsr r9
8010090c:	2305      	movs	r3, #5
8010090e:	633b      	str	r3, [r7, #48]	; 0x30
80100910:	e014      	b.n	8010093c <UART_SetBaudRate+0x174>
80100912:	2304      	movs	r3, #4
80100914:	633b      	str	r3, [r7, #48]	; 0x30
80100916:	e011      	b.n	8010093c <UART_SetBaudRate+0x174>
80100918:	2303      	movs	r3, #3
8010091a:	633b      	str	r3, [r7, #48]	; 0x30
8010091c:	e00e      	b.n	8010093c <UART_SetBaudRate+0x174>
8010091e:	2302      	movs	r3, #2
80100920:	633b      	str	r3, [r7, #48]	; 0x30
80100922:	e00b      	b.n	8010093c <UART_SetBaudRate+0x174>
80100924:	2301      	movs	r3, #1
80100926:	633b      	str	r3, [r7, #48]	; 0x30
80100928:	e008      	b.n	8010093c <UART_SetBaudRate+0x174>
8010092a:	2300      	movs	r3, #0
8010092c:	633b      	str	r3, [r7, #48]	; 0x30
8010092e:	e005      	b.n	8010093c <UART_SetBaudRate+0x174>
80100930:	2306      	movs	r3, #6
80100932:	633b      	str	r3, [r7, #48]	; 0x30
80100934:	e002      	b.n	8010093c <UART_SetBaudRate+0x174>
80100936:	2305      	movs	r3, #5
80100938:	633b      	str	r3, [r7, #48]	; 0x30
8010093a:	bf00      	nop
8010093c:	683b      	ldr	r3, [r7, #0]
8010093e:	f04f 0400 	mov.w	r4, #0
80100942:	e9c7 340a 	strd	r3, r4, [r7, #40]	; 0x28
80100946:	6bfb      	ldr	r3, [r7, #60]	; 0x3c
80100948:	011b      	lsls	r3, r3, #4
8010094a:	627b      	str	r3, [r7, #36]	; 0x24
8010094c:	2301      	movs	r3, #1
8010094e:	637b      	str	r3, [r7, #52]	; 0x34
80100950:	e012      	b.n	80100978 <UART_SetBaudRate+0x1b0>
80100952:	6a7b      	ldr	r3, [r7, #36]	; 0x24
80100954:	637b      	str	r3, [r7, #52]	; 0x34
80100956:	6a7b      	ldr	r3, [r7, #36]	; 0x24
80100958:	f04f 0400 	mov.w	r4, #0
8010095c:	e9d7 010a 	ldrd	r0, r1, [r7, #40]	; 0x28
80100960:	461a      	mov	r2, r3
80100962:	4623      	mov	r3, r4
80100964:	f000 fe8c 	bl	80101680 <__aeabi_uldivmod>
80100968:	461c      	mov	r4, r3
8010096a:	4613      	mov	r3, r2
8010096c:	627b      	str	r3, [r7, #36]	; 0x24
8010096e:	6b7b      	ldr	r3, [r7, #52]	; 0x34
80100970:	f04f 0400 	mov.w	r4, #0
80100974:	e9c7 340a 	strd	r3, r4, [r7, #40]	; 0x28
80100978:	6a7b      	ldr	r3, [r7, #36]	; 0x24
8010097a:	2b00      	cmp	r3, #0
8010097c:	d1e9      	bne.n	80100952 <UART_SetBaudRate+0x18a>
8010097e:	6b79      	ldr	r1, [r7, #52]	; 0x34
80100980:	6838      	ldr	r0, [r7, #0]
80100982:	f000 fd41 	bl	80101408 <__aeabi_uidiv>
80100986:	4603      	mov	r3, r0
80100988:	f04f 0400 	mov.w	r4, #0
8010098c:	e9c7 340a 	strd	r3, r4, [r7, #40]	; 0x28
80100990:	6bfb      	ldr	r3, [r7, #60]	; 0x3c
80100992:	011b      	lsls	r3, r3, #4
80100994:	6b79      	ldr	r1, [r7, #52]	; 0x34
80100996:	4618      	mov	r0, r3
80100998:	f000 fd36 	bl	80101408 <__aeabi_uidiv>
8010099c:	4603      	mov	r3, r0
8010099e:	627b      	str	r3, [r7, #36]	; 0x24
801009a0:	6bbb      	ldr	r3, [r7, #56]	; 0x38
801009a2:	f04f 0400 	mov.w	r4, #0
801009a6:	6aba      	ldr	r2, [r7, #40]	; 0x28
801009a8:	fb04 f102 	mul.w	r1, r4, r2
801009ac:	6afa      	ldr	r2, [r7, #44]	; 0x2c
801009ae:	fb03 f202 	mul.w	r2, r3, r2
801009b2:	440a      	add	r2, r1
801009b4:	6ab9      	ldr	r1, [r7, #40]	; 0x28
801009b6:	fba1 0103 	umull	r0, r1, r1, r3
801009ba:	1853      	adds	r3, r2, r1
801009bc:	4619      	mov	r1, r3
801009be:	6a7b      	ldr	r3, [r7, #36]	; 0x24
801009c0:	f04f 0400 	mov.w	r4, #0
801009c4:	461a      	mov	r2, r3
801009c6:	4623      	mov	r3, r4
801009c8:	f000 fe5a 	bl	80101680 <__aeabi_uldivmod>
801009cc:	4603      	mov	r3, r0
801009ce:	460c      	mov	r4, r1
801009d0:	e9c7 3406 	strd	r3, r4, [r7, #24]
801009d4:	687b      	ldr	r3, [r7, #4]
801009d6:	f04f 0400 	mov.w	r4, #0
801009da:	e9d7 1206 	ldrd	r1, r2, [r7, #24]
801009de:	42a2      	cmp	r2, r4
801009e0:	bf08      	it	eq
801009e2:	4299      	cmpeq	r1, r3
801009e4:	d308      	bcc.n	801009f8 <UART_SetBaudRate+0x230>
801009e6:	687b      	ldr	r3, [r7, #4]
801009e8:	f04f 0400 	mov.w	r4, #0
801009ec:	e9d7 1206 	ldrd	r1, r2, [r7, #24]
801009f0:	1acb      	subs	r3, r1, r3
801009f2:	eb62 0404 	sbc.w	r4, r2, r4
801009f6:	e008      	b.n	80100a0a <UART_SetBaudRate+0x242>
801009f8:	687b      	ldr	r3, [r7, #4]
801009fa:	4619      	mov	r1, r3
801009fc:	f04f 0200 	mov.w	r2, #0
80100a00:	e9d7 3406 	ldrd	r3, r4, [r7, #24]
80100a04:	1acb      	subs	r3, r1, r3
80100a06:	eb62 0404 	sbc.w	r4, r2, r4
80100a0a:	e9c7 3406 	strd	r3, r4, [r7, #24]
80100a0e:	2300      	movs	r3, #0
80100a10:	f2c0 2302 	movt	r3, #514	; 0x202
80100a14:	2200      	movs	r2, #0
80100a16:	f2c0 2202 	movt	r2, #514	; 0x202
80100a1a:	f8d2 2090 	ldr.w	r2, [r2, #144]	; 0x90
80100a1e:	f422 7260 	bic.w	r2, r2, #896	; 0x380
80100a22:	f8c3 2090 	str.w	r2, [r3, #144]	; 0x90
80100a26:	2300      	movs	r3, #0
80100a28:	f2c0 2302 	movt	r3, #514	; 0x202
80100a2c:	2200      	movs	r2, #0
80100a2e:	f2c0 2202 	movt	r2, #514	; 0x202
80100a32:	f8d2 1090 	ldr.w	r1, [r2, #144]	; 0x90
80100a36:	6b3a      	ldr	r2, [r7, #48]	; 0x30
80100a38:	01d2      	lsls	r2, r2, #7
80100a3a:	f402 7260 	and.w	r2, r2, #896	; 0x380
80100a3e:	430a      	orrs	r2, r1
80100a40:	f8c3 2090 	str.w	r2, [r3, #144]	; 0x90
80100a44:	2300      	movs	r3, #0
80100a46:	f2c0 2302 	movt	r3, #514	; 0x202
80100a4a:	6bba      	ldr	r2, [r7, #56]	; 0x38
80100a4c:	3a01      	subs	r2, #1
80100a4e:	b292      	uxth	r2, r2
80100a50:	f8c3 20a4 	str.w	r2, [r3, #164]	; 0xa4
80100a54:	2400      	movs	r4, #0
80100a56:	f2c0 2402 	movt	r4, #514	; 0x202
80100a5a:	6a39      	ldr	r1, [r7, #32]
80100a5c:	6bf8      	ldr	r0, [r7, #60]	; 0x3c
80100a5e:	f000 fcd3 	bl	80101408 <__aeabi_uidiv>
80100a62:	4603      	mov	r3, r0
80100a64:	3b01      	subs	r3, #1
80100a66:	b29b      	uxth	r3, r3
80100a68:	f8c4 30a8 	str.w	r3, [r4, #168]	; 0xa8
80100a6c:	2400      	movs	r4, #0
80100a6e:	f2c0 2402 	movt	r4, #514	; 0x202
80100a72:	6a3b      	ldr	r3, [r7, #32]
80100a74:	f44f 727a 	mov.w	r2, #1000	; 0x3e8
80100a78:	fb02 f303 	mul.w	r3, r2, r3
80100a7c:	4619      	mov	r1, r3
80100a7e:	6838      	ldr	r0, [r7, #0]
80100a80:	f000 fcc2 	bl	80101408 <__aeabi_uidiv>
80100a84:	4603      	mov	r3, r0
80100a86:	f023 437f 	bic.w	r3, r3, #4278190080	; 0xff000000
80100a8a:	f8c4 30b0 	str.w	r3, [r4, #176]	; 0xb0
80100a8e:	bf00      	nop
80100a90:	3744      	adds	r7, #68	; 0x44
80100a92:	46bd      	mov	sp, r7
80100a94:	bd90      	pop	{r4, r7, pc}

80100a96 <uart1_init>:
80100a96:	b580      	push	{r7, lr}
80100a98:	af00      	add	r7, sp, #0
80100a9a:	2300      	movs	r3, #0
80100a9c:	f2c0 2302 	movt	r3, #514	; 0x202
80100aa0:	2200      	movs	r2, #0
80100aa2:	f2c0 2202 	movt	r2, #514	; 0x202
80100aa6:	f8d2 2080 	ldr.w	r2, [r2, #128]	; 0x80
80100aaa:	f022 0201 	bic.w	r2, r2, #1
80100aae:	f8c3 2080 	str.w	r2, [r3, #128]	; 0x80
80100ab2:	2300      	movs	r3, #0
80100ab4:	f2c0 2302 	movt	r3, #514	; 0x202
80100ab8:	2200      	movs	r2, #0
80100aba:	f2c0 2202 	movt	r2, #514	; 0x202
80100abe:	f8d2 2084 	ldr.w	r2, [r2, #132]	; 0x84
80100ac2:	f022 0201 	bic.w	r2, r2, #1
80100ac6:	f8c3 2084 	str.w	r2, [r3, #132]	; 0x84
80100aca:	bf00      	nop
80100acc:	2300      	movs	r3, #0
80100ace:	f2c0 2302 	movt	r3, #514	; 0x202
80100ad2:	f8d3 3084 	ldr.w	r3, [r3, #132]	; 0x84
80100ad6:	f003 0301 	and.w	r3, r3, #1
80100ada:	2b00      	cmp	r3, #0
80100adc:	d0f6      	beq.n	80100acc <uart1_init+0x36>
80100ade:	2300      	movs	r3, #0
80100ae0:	f2c0 2302 	movt	r3, #514	; 0x202
80100ae4:	2200      	movs	r2, #0
80100ae6:	f8c3 2080 	str.w	r2, [r3, #128]	; 0x80
80100aea:	2300      	movs	r3, #0
80100aec:	f2c0 2302 	movt	r3, #514	; 0x202
80100af0:	2201      	movs	r2, #1
80100af2:	f8c3 2084 	str.w	r2, [r3, #132]	; 0x84
80100af6:	2300      	movs	r3, #0
80100af8:	f2c0 2302 	movt	r3, #514	; 0x202
80100afc:	f44f 62e0 	mov.w	r2, #1792	; 0x700
80100b00:	f8c3 2088 	str.w	r2, [r3, #136]	; 0x88
80100b04:	2300      	movs	r3, #0
80100b06:	f2c0 2302 	movt	r3, #514	; 0x202
80100b0a:	f44f 4200 	mov.w	r2, #32768	; 0x8000
80100b0e:	f8c3 208c 	str.w	r2, [r3, #140]	; 0x8c
80100b12:	2300      	movs	r3, #0
80100b14:	f2c0 2302 	movt	r3, #514	; 0x202
80100b18:	f640 0201 	movw	r2, #2049	; 0x801
80100b1c:	f8c3 2090 	str.w	r2, [r3, #144]	; 0x90
80100b20:	2300      	movs	r3, #0
80100b22:	f2c0 2302 	movt	r3, #514	; 0x202
80100b26:	222b      	movs	r2, #43	; 0x2b
80100b28:	f8c3 209c 	str.w	r2, [r3, #156]	; 0x9c
80100b2c:	2300      	movs	r3, #0
80100b2e:	f2c0 2302 	movt	r3, #514	; 0x202
80100b32:	2200      	movs	r2, #0
80100b34:	f8c3 20a0 	str.w	r2, [r3, #160]	; 0xa0
80100b38:	2300      	movs	r3, #0
80100b3a:	f2c0 2302 	movt	r3, #514	; 0x202
80100b3e:	2200      	movs	r2, #0
80100b40:	f8c3 20b0 	str.w	r2, [r3, #176]	; 0xb0
80100b44:	2300      	movs	r3, #0
80100b46:	f2c0 2302 	movt	r3, #514	; 0x202
80100b4a:	2260      	movs	r2, #96	; 0x60
80100b4c:	f8c3 20b4 	str.w	r2, [r3, #180]	; 0xb4
80100b50:	2300      	movs	r3, #0
80100b52:	f2c0 2302 	movt	r3, #514	; 0x202
80100b56:	2200      	movs	r2, #0
80100b58:	f8c3 20b8 	str.w	r2, [r3, #184]	; 0xb8
80100b5c:	2200      	movs	r2, #0
80100b5e:	f2c0 2202 	movt	r2, #514	; 0x202
80100b62:	2300      	movs	r3, #0
80100b64:	f2c0 2302 	movt	r3, #514	; 0x202
80100b68:	f8d3 3084 	ldr.w	r3, [r3, #132]	; 0x84
80100b6c:	f443 4380 	orr.w	r3, r3, #16384	; 0x4000
80100b70:	f043 0366 	orr.w	r3, r3, #102	; 0x66
80100b74:	f8c2 3084 	str.w	r3, [r2, #132]	; 0x84
80100b78:	2300      	movs	r3, #0
80100b7a:	f2c0 2302 	movt	r3, #514	; 0x202
80100b7e:	2200      	movs	r2, #0
80100b80:	f2c0 2202 	movt	r2, #514	; 0x202
80100b84:	f8d2 2088 	ldr.w	r2, [r2, #136]	; 0x88
80100b88:	f042 0204 	orr.w	r2, r2, #4
80100b8c:	f8c3 2088 	str.w	r2, [r3, #136]	; 0x88
80100b90:	2300      	movs	r3, #0
80100b92:	f2c0 2302 	movt	r3, #514	; 0x202
80100b96:	2200      	movs	r2, #0
80100b98:	f2c0 2202 	movt	r2, #514	; 0x202
80100b9c:	f8d2 2080 	ldr.w	r2, [r2, #128]	; 0x80
80100ba0:	f422 4280 	bic.w	r2, r2, #16384	; 0x4000
80100ba4:	f8c3 2080 	str.w	r2, [r3, #128]	; 0x80
80100ba8:	f44f 4134 	mov.w	r1, #46080	; 0xb400
80100bac:	f2c0 41c4 	movt	r1, #1220	; 0x4c4
80100bb0:	f44f 30e1 	mov.w	r0, #115200	; 0x1c200
80100bb4:	f7ff fe08 	bl	801007c8 <UART_SetBaudRate>
80100bb8:	2300      	movs	r3, #0
80100bba:	f2c0 2302 	movt	r3, #514	; 0x202
80100bbe:	2200      	movs	r2, #0
80100bc0:	f2c0 2202 	movt	r2, #514	; 0x202
80100bc4:	f8d2 2080 	ldr.w	r2, [r2, #128]	; 0x80
80100bc8:	f042 0201 	orr.w	r2, r2, #1
80100bcc:	f8c3 2080 	str.w	r2, [r3, #128]	; 0x80
80100bd0:	bf00      	nop
80100bd2:	bd80      	pop	{r7, pc}

80100bd4 <putchar>:
80100bd4:	b480      	push	{r7}
80100bd6:	b083      	sub	sp, #12
80100bd8:	af00      	add	r7, sp, #0
80100bda:	6078      	str	r0, [r7, #4]
80100bdc:	bf00      	nop
80100bde:	2300      	movs	r3, #0
80100be0:	f2c0 2302 	movt	r3, #514	; 0x202
80100be4:	f8d3 3098 	ldr.w	r3, [r3, #152]	; 0x98
80100be8:	f003 0308 	and.w	r3, r3, #8
80100bec:	2b00      	cmp	r3, #0
80100bee:	d0f6      	beq.n	80100bde <putchar+0xa>
80100bf0:	2300      	movs	r3, #0
80100bf2:	f2c0 2302 	movt	r3, #514	; 0x202
80100bf6:	687a      	ldr	r2, [r7, #4]
80100bf8:	b2d2      	uxtb	r2, r2
80100bfa:	641a      	str	r2, [r3, #64]	; 0x40
80100bfc:	bf00      	nop
80100bfe:	370c      	adds	r7, #12
80100c00:	46bd      	mov	sp, r7
80100c02:	f85d 7b04 	ldr.w	r7, [sp], #4
80100c06:	4770      	bx	lr

80100c08 <getchar>:
80100c08:	b480      	push	{r7}
80100c0a:	af00      	add	r7, sp, #0
80100c0c:	bf00      	nop
80100c0e:	2300      	movs	r3, #0
80100c10:	f2c0 2302 	movt	r3, #514	; 0x202
80100c14:	f8d3 3098 	ldr.w	r3, [r3, #152]	; 0x98
80100c18:	f003 0301 	and.w	r3, r3, #1
80100c1c:	2b00      	cmp	r3, #0
80100c1e:	d0f6      	beq.n	80100c0e <getchar+0x6>
80100c20:	2300      	movs	r3, #0
80100c22:	f2c0 2302 	movt	r3, #514	; 0x202
80100c26:	681b      	ldr	r3, [r3, #0]
80100c28:	b2db      	uxtb	r3, r3
80100c2a:	4618      	mov	r0, r3
80100c2c:	46bd      	mov	sp, r7
80100c2e:	f85d 7b04 	ldr.w	r7, [sp], #4
80100c32:	4770      	bx	lr

80100c34 <puts>:
80100c34:	b580      	push	{r7, lr}
80100c36:	b082      	sub	sp, #8
80100c38:	af00      	add	r7, sp, #0
80100c3a:	6078      	str	r0, [r7, #4]
80100c3c:	e007      	b.n	80100c4e <puts+0x1a>
80100c3e:	687b      	ldr	r3, [r7, #4]
80100c40:	781b      	ldrb	r3, [r3, #0]
80100c42:	4618      	mov	r0, r3
80100c44:	f7ff ffc6 	bl	80100bd4 <putchar>
80100c48:	687b      	ldr	r3, [r7, #4]
80100c4a:	3301      	adds	r3, #1
80100c4c:	607b      	str	r3, [r7, #4]
80100c4e:	687b      	ldr	r3, [r7, #4]
80100c50:	781b      	ldrb	r3, [r3, #0]
80100c52:	2b00      	cmp	r3, #0
80100c54:	d1f3      	bne.n	80100c3e <puts+0xa>
80100c56:	bf00      	nop
80100c58:	3708      	adds	r7, #8
80100c5a:	46bd      	mov	sp, r7
80100c5c:	bd80      	pop	{r7, pc}
80100c5e:	bf00      	nop

80100c60 <raise>:
80100c60:	b480      	push	{r7}
80100c62:	b083      	sub	sp, #12
80100c64:	af00      	add	r7, sp, #0
80100c66:	6078      	str	r0, [r7, #4]
80100c68:	2300      	movs	r3, #0
80100c6a:	4618      	mov	r0, r3
80100c6c:	370c      	adds	r7, #12
80100c6e:	46bd      	mov	sp, r7
80100c70:	f85d 7b04 	ldr.w	r7, [sp], #4
80100c74:	4770      	bx	lr
	...

80100c78 <outc>:
80100c78:	b580      	push	{r7, lr}
80100c7a:	b082      	sub	sp, #8
80100c7c:	af00      	add	r7, sp, #0
80100c7e:	6078      	str	r0, [r7, #4]
80100c80:	6878      	ldr	r0, [r7, #4]
80100c82:	f7ff ffa7 	bl	80100bd4 <putchar>
80100c86:	2300      	movs	r3, #0
80100c88:	4618      	mov	r0, r3
80100c8a:	3708      	adds	r7, #8
80100c8c:	46bd      	mov	sp, r7
80100c8e:	bd80      	pop	{r7, pc}

80100c90 <outs>:
80100c90:	b580      	push	{r7, lr}
80100c92:	b082      	sub	sp, #8
80100c94:	af00      	add	r7, sp, #0
80100c96:	6078      	str	r0, [r7, #4]
80100c98:	e006      	b.n	80100ca8 <outs+0x18>
80100c9a:	687b      	ldr	r3, [r7, #4]
80100c9c:	1c5a      	adds	r2, r3, #1
80100c9e:	607a      	str	r2, [r7, #4]
80100ca0:	781b      	ldrb	r3, [r3, #0]
80100ca2:	4618      	mov	r0, r3
80100ca4:	f7ff ff96 	bl	80100bd4 <putchar>
80100ca8:	687b      	ldr	r3, [r7, #4]
80100caa:	781b      	ldrb	r3, [r3, #0]
80100cac:	2b00      	cmp	r3, #0
80100cae:	d1f4      	bne.n	80100c9a <outs+0xa>
80100cb0:	2300      	movs	r3, #0
80100cb2:	4618      	mov	r0, r3
80100cb4:	3708      	adds	r7, #8
80100cb6:	46bd      	mov	sp, r7
80100cb8:	bd80      	pop	{r7, pc}

80100cba <out_num>:
80100cba:	b590      	push	{r4, r7, lr}
80100cbc:	b099      	sub	sp, #100	; 0x64
80100cbe:	af00      	add	r7, sp, #0
80100cc0:	e9c7 0102 	strd	r0, r1, [r7, #8]
80100cc4:	607a      	str	r2, [r7, #4]
80100cc6:	70fb      	strb	r3, [r7, #3]
80100cc8:	2300      	movs	r3, #0
80100cca:	65fb      	str	r3, [r7, #92]	; 0x5c
80100ccc:	f107 0310 	add.w	r3, r7, #16
80100cd0:	3340      	adds	r3, #64	; 0x40
80100cd2:	65bb      	str	r3, [r7, #88]	; 0x58
80100cd4:	2300      	movs	r3, #0
80100cd6:	657b      	str	r3, [r7, #84]	; 0x54
80100cd8:	2300      	movs	r3, #0
80100cda:	653b      	str	r3, [r7, #80]	; 0x50
80100cdc:	6dbb      	ldr	r3, [r7, #88]	; 0x58
80100cde:	3b01      	subs	r3, #1
80100ce0:	65bb      	str	r3, [r7, #88]	; 0x58
80100ce2:	6dbb      	ldr	r3, [r7, #88]	; 0x58
80100ce4:	2200      	movs	r2, #0
80100ce6:	701a      	strb	r2, [r3, #0]
80100ce8:	e9d7 3402 	ldrd	r3, r4, [r7, #8]
80100cec:	2b00      	cmp	r3, #0
80100cee:	f174 0300 	sbcs.w	r3, r4, #0
80100cf2:	da03      	bge.n	80100cfc <out_num+0x42>
80100cf4:	68bb      	ldr	r3, [r7, #8]
80100cf6:	425b      	negs	r3, r3
80100cf8:	65fb      	str	r3, [r7, #92]	; 0x5c
80100cfa:	e001      	b.n	80100d00 <out_num+0x46>
80100cfc:	68bb      	ldr	r3, [r7, #8]
80100cfe:	65fb      	str	r3, [r7, #92]	; 0x5c
80100d00:	6dbb      	ldr	r3, [r7, #88]	; 0x58
80100d02:	3b01      	subs	r3, #1
80100d04:	65bb      	str	r3, [r7, #88]	; 0x58
80100d06:	687a      	ldr	r2, [r7, #4]
80100d08:	6dfb      	ldr	r3, [r7, #92]	; 0x5c
80100d0a:	4611      	mov	r1, r2
80100d0c:	4618      	mov	r0, r3
80100d0e:	f000 fca9 	bl	80101664 <__aeabi_uidivmod>
80100d12:	460b      	mov	r3, r1
80100d14:	461a      	mov	r2, r3
80100d16:	f641 13c4 	movw	r3, #6596	; 0x19c4
80100d1a:	f2c8 0310 	movt	r3, #32784	; 0x8010
80100d1e:	5c9a      	ldrb	r2, [r3, r2]
80100d20:	6dbb      	ldr	r3, [r7, #88]	; 0x58
80100d22:	701a      	strb	r2, [r3, #0]
80100d24:	6d7b      	ldr	r3, [r7, #84]	; 0x54
80100d26:	3301      	adds	r3, #1
80100d28:	657b      	str	r3, [r7, #84]	; 0x54
80100d2a:	687b      	ldr	r3, [r7, #4]
80100d2c:	4619      	mov	r1, r3
80100d2e:	6df8      	ldr	r0, [r7, #92]	; 0x5c
80100d30:	f000 fb6a 	bl	80101408 <__aeabi_uidiv>
80100d34:	4603      	mov	r3, r0
80100d36:	65fb      	str	r3, [r7, #92]	; 0x5c
80100d38:	6dfb      	ldr	r3, [r7, #92]	; 0x5c
80100d3a:	2b00      	cmp	r3, #0
80100d3c:	d1e0      	bne.n	80100d00 <out_num+0x46>
80100d3e:	6f3b      	ldr	r3, [r7, #112]	; 0x70
80100d40:	2b00      	cmp	r3, #0
80100d42:	d014      	beq.n	80100d6e <out_num+0xb4>
80100d44:	6d7a      	ldr	r2, [r7, #84]	; 0x54
80100d46:	6f3b      	ldr	r3, [r7, #112]	; 0x70
80100d48:	429a      	cmp	r2, r3
80100d4a:	da10      	bge.n	80100d6e <out_num+0xb4>
80100d4c:	6f3a      	ldr	r2, [r7, #112]	; 0x70
80100d4e:	6d7b      	ldr	r3, [r7, #84]	; 0x54
80100d50:	1ad3      	subs	r3, r2, r3
80100d52:	653b      	str	r3, [r7, #80]	; 0x50
80100d54:	e008      	b.n	80100d68 <out_num+0xae>
80100d56:	6dbb      	ldr	r3, [r7, #88]	; 0x58
80100d58:	3b01      	subs	r3, #1
80100d5a:	65bb      	str	r3, [r7, #88]	; 0x58
80100d5c:	6dbb      	ldr	r3, [r7, #88]	; 0x58
80100d5e:	78fa      	ldrb	r2, [r7, #3]
80100d60:	701a      	strb	r2, [r3, #0]
80100d62:	6d3b      	ldr	r3, [r7, #80]	; 0x50
80100d64:	3b01      	subs	r3, #1
80100d66:	653b      	str	r3, [r7, #80]	; 0x50
80100d68:	6d3b      	ldr	r3, [r7, #80]	; 0x50
80100d6a:	2b00      	cmp	r3, #0
80100d6c:	d1f3      	bne.n	80100d56 <out_num+0x9c>
80100d6e:	e9d7 3402 	ldrd	r3, r4, [r7, #8]
80100d72:	2b00      	cmp	r3, #0
80100d74:	f174 0300 	sbcs.w	r3, r4, #0
80100d78:	da05      	bge.n	80100d86 <out_num+0xcc>
80100d7a:	6dbb      	ldr	r3, [r7, #88]	; 0x58
80100d7c:	3b01      	subs	r3, #1
80100d7e:	65bb      	str	r3, [r7, #88]	; 0x58
80100d80:	6dbb      	ldr	r3, [r7, #88]	; 0x58
80100d82:	222d      	movs	r2, #45	; 0x2d
80100d84:	701a      	strb	r2, [r3, #0]
80100d86:	6db8      	ldr	r0, [r7, #88]	; 0x58
80100d88:	f7ff ff82 	bl	80100c90 <outs>
80100d8c:	4603      	mov	r3, r0
80100d8e:	4618      	mov	r0, r3
80100d90:	3764      	adds	r7, #100	; 0x64
80100d92:	46bd      	mov	sp, r7
80100d94:	bd90      	pop	{r4, r7, pc}

80100d96 <my_vprintf>:
80100d96:	b580      	push	{r7, lr}
80100d98:	b086      	sub	sp, #24
80100d9a:	af02      	add	r7, sp, #8
80100d9c:	6078      	str	r0, [r7, #4]
80100d9e:	6039      	str	r1, [r7, #0]
80100da0:	2320      	movs	r3, #32
80100da2:	72fb      	strb	r3, [r7, #11]
80100da4:	2300      	movs	r3, #0
80100da6:	60fb      	str	r3, [r7, #12]
80100da8:	e0c7      	b.n	80100f3a <my_vprintf+0x1a4>
80100daa:	687b      	ldr	r3, [r7, #4]
80100dac:	781b      	ldrb	r3, [r3, #0]
80100dae:	2b25      	cmp	r3, #37	; 0x25
80100db0:	d005      	beq.n	80100dbe <my_vprintf+0x28>
80100db2:	687b      	ldr	r3, [r7, #4]
80100db4:	781b      	ldrb	r3, [r3, #0]
80100db6:	4618      	mov	r0, r3
80100db8:	f7ff ff5e 	bl	80100c78 <outc>
80100dbc:	e0ba      	b.n	80100f34 <my_vprintf+0x19e>
80100dbe:	687b      	ldr	r3, [r7, #4]
80100dc0:	3301      	adds	r3, #1
80100dc2:	607b      	str	r3, [r7, #4]
80100dc4:	687b      	ldr	r3, [r7, #4]
80100dc6:	781b      	ldrb	r3, [r3, #0]
80100dc8:	2b30      	cmp	r3, #48	; 0x30
80100dca:	d104      	bne.n	80100dd6 <my_vprintf+0x40>
80100dcc:	2330      	movs	r3, #48	; 0x30
80100dce:	72fb      	strb	r3, [r7, #11]
80100dd0:	687b      	ldr	r3, [r7, #4]
80100dd2:	3301      	adds	r3, #1
80100dd4:	607b      	str	r3, [r7, #4]
80100dd6:	2320      	movs	r3, #32
80100dd8:	72fb      	strb	r3, [r7, #11]
80100dda:	2300      	movs	r3, #0
80100ddc:	60fb      	str	r3, [r7, #12]
80100dde:	e00e      	b.n	80100dfe <my_vprintf+0x68>
80100de0:	68fa      	ldr	r2, [r7, #12]
80100de2:	4613      	mov	r3, r2
80100de4:	009b      	lsls	r3, r3, #2
80100de6:	4413      	add	r3, r2
80100de8:	005b      	lsls	r3, r3, #1
80100dea:	60fb      	str	r3, [r7, #12]
80100dec:	687b      	ldr	r3, [r7, #4]
80100dee:	781b      	ldrb	r3, [r3, #0]
80100df0:	3b30      	subs	r3, #48	; 0x30
80100df2:	68fa      	ldr	r2, [r7, #12]
80100df4:	4413      	add	r3, r2
80100df6:	60fb      	str	r3, [r7, #12]
80100df8:	687b      	ldr	r3, [r7, #4]
80100dfa:	3301      	adds	r3, #1
80100dfc:	607b      	str	r3, [r7, #4]
80100dfe:	687b      	ldr	r3, [r7, #4]
80100e00:	781b      	ldrb	r3, [r3, #0]
80100e02:	2b2f      	cmp	r3, #47	; 0x2f
80100e04:	d903      	bls.n	80100e0e <my_vprintf+0x78>
80100e06:	687b      	ldr	r3, [r7, #4]
80100e08:	781b      	ldrb	r3, [r3, #0]
80100e0a:	2b39      	cmp	r3, #57	; 0x39
80100e0c:	d9e8      	bls.n	80100de0 <my_vprintf+0x4a>
80100e0e:	687b      	ldr	r3, [r7, #4]
80100e10:	781b      	ldrb	r3, [r3, #0]
80100e12:	3b63      	subs	r3, #99	; 0x63
80100e14:	2b15      	cmp	r3, #21
80100e16:	f200 8087 	bhi.w	80100f28 <my_vprintf+0x192>
80100e1a:	a201      	add	r2, pc, #4	; (adr r2, 80100e20 <my_vprintf+0x8a>)
80100e1c:	f852 f023 	ldr.w	pc, [r2, r3, lsl #2]
80100e20:	80100f01 	andshi	r0, r0, r1, lsl #30
80100e24:	80100e79 	andshi	r0, r0, r9, ror lr
80100e28:	80100f29 	andshi	r0, r0, r9, lsr #30
80100e2c:	80100f29 	andshi	r0, r0, r9, lsr #30
80100e30:	80100f29 	andshi	r0, r0, r9, lsr #30
80100e34:	80100f29 	andshi	r0, r0, r9, lsr #30
80100e38:	80100f29 	andshi	r0, r0, r9, lsr #30
80100e3c:	80100f29 	andshi	r0, r0, r9, lsr #30
80100e40:	80100f29 	andshi	r0, r0, r9, lsr #30
80100e44:	80100f29 	andshi	r0, r0, r9, lsr #30
80100e48:	80100f29 	andshi	r0, r0, r9, lsr #30
80100e4c:	80100f29 	andshi	r0, r0, r9, lsr #30
80100e50:	80100e9b 	mulshi	r0, fp, lr
80100e54:	80100f29 	andshi	r0, r0, r9, lsr #30
80100e58:	80100f29 	andshi	r0, r0, r9, lsr #30
80100e5c:	80100f29 	andshi	r0, r0, r9, lsr #30
80100e60:	80100f15 	andshi	r0, r0, r5, lsl pc
80100e64:	80100f29 	andshi	r0, r0, r9, lsr #30
80100e68:	80100ebd 			; <UNDEFINED> instruction: 0x80100ebd
80100e6c:	80100f29 	andshi	r0, r0, r9, lsr #30
80100e70:	80100f29 	andshi	r0, r0, r9, lsr #30
80100e74:	80100edf 			; <UNDEFINED> instruction: 0x80100edf
80100e78:	683b      	ldr	r3, [r7, #0]
80100e7a:	3304      	adds	r3, #4
80100e7c:	603b      	str	r3, [r7, #0]
80100e7e:	683b      	ldr	r3, [r7, #0]
80100e80:	3b04      	subs	r3, #4
80100e82:	681b      	ldr	r3, [r3, #0]
80100e84:	4618      	mov	r0, r3
80100e86:	ea4f 71e0 	mov.w	r1, r0, asr #31
80100e8a:	7afa      	ldrb	r2, [r7, #11]
80100e8c:	68fb      	ldr	r3, [r7, #12]
80100e8e:	9300      	str	r3, [sp, #0]
80100e90:	4613      	mov	r3, r2
80100e92:	220a      	movs	r2, #10
80100e94:	f7ff ff11 	bl	80100cba <out_num>
80100e98:	e04c      	b.n	80100f34 <my_vprintf+0x19e>
80100e9a:	683b      	ldr	r3, [r7, #0]
80100e9c:	3304      	adds	r3, #4
80100e9e:	603b      	str	r3, [r7, #0]
80100ea0:	683b      	ldr	r3, [r7, #0]
80100ea2:	3b04      	subs	r3, #4
80100ea4:	681b      	ldr	r3, [r3, #0]
80100ea6:	4618      	mov	r0, r3
80100ea8:	f04f 0100 	mov.w	r1, #0
80100eac:	7afa      	ldrb	r2, [r7, #11]
80100eae:	68fb      	ldr	r3, [r7, #12]
80100eb0:	9300      	str	r3, [sp, #0]
80100eb2:	4613      	mov	r3, r2
80100eb4:	2208      	movs	r2, #8
80100eb6:	f7ff ff00 	bl	80100cba <out_num>
80100eba:	e03b      	b.n	80100f34 <my_vprintf+0x19e>
80100ebc:	683b      	ldr	r3, [r7, #0]
80100ebe:	3304      	adds	r3, #4
80100ec0:	603b      	str	r3, [r7, #0]
80100ec2:	683b      	ldr	r3, [r7, #0]
80100ec4:	3b04      	subs	r3, #4
80100ec6:	681b      	ldr	r3, [r3, #0]
80100ec8:	4618      	mov	r0, r3
80100eca:	f04f 0100 	mov.w	r1, #0
80100ece:	7afa      	ldrb	r2, [r7, #11]
80100ed0:	68fb      	ldr	r3, [r7, #12]
80100ed2:	9300      	str	r3, [sp, #0]
80100ed4:	4613      	mov	r3, r2
80100ed6:	220a      	movs	r2, #10
80100ed8:	f7ff feef 	bl	80100cba <out_num>
80100edc:	e02a      	b.n	80100f34 <my_vprintf+0x19e>
80100ede:	683b      	ldr	r3, [r7, #0]
80100ee0:	3304      	adds	r3, #4
80100ee2:	603b      	str	r3, [r7, #0]
80100ee4:	683b      	ldr	r3, [r7, #0]
80100ee6:	3b04      	subs	r3, #4
80100ee8:	681b      	ldr	r3, [r3, #0]
80100eea:	4618      	mov	r0, r3
80100eec:	f04f 0100 	mov.w	r1, #0
80100ef0:	7afa      	ldrb	r2, [r7, #11]
80100ef2:	68fb      	ldr	r3, [r7, #12]
80100ef4:	9300      	str	r3, [sp, #0]
80100ef6:	4613      	mov	r3, r2
80100ef8:	2210      	movs	r2, #16
80100efa:	f7ff fede 	bl	80100cba <out_num>
80100efe:	e019      	b.n	80100f34 <my_vprintf+0x19e>
80100f00:	683b      	ldr	r3, [r7, #0]
80100f02:	3304      	adds	r3, #4
80100f04:	603b      	str	r3, [r7, #0]
80100f06:	683b      	ldr	r3, [r7, #0]
80100f08:	3b04      	subs	r3, #4
80100f0a:	681b      	ldr	r3, [r3, #0]
80100f0c:	4618      	mov	r0, r3
80100f0e:	f7ff feb3 	bl	80100c78 <outc>
80100f12:	e00f      	b.n	80100f34 <my_vprintf+0x19e>
80100f14:	683b      	ldr	r3, [r7, #0]
80100f16:	3304      	adds	r3, #4
80100f18:	603b      	str	r3, [r7, #0]
80100f1a:	683b      	ldr	r3, [r7, #0]
80100f1c:	3b04      	subs	r3, #4
80100f1e:	681b      	ldr	r3, [r3, #0]
80100f20:	4618      	mov	r0, r3
80100f22:	f7ff feb5 	bl	80100c90 <outs>
80100f26:	e005      	b.n	80100f34 <my_vprintf+0x19e>
80100f28:	687b      	ldr	r3, [r7, #4]
80100f2a:	781b      	ldrb	r3, [r3, #0]
80100f2c:	4618      	mov	r0, r3
80100f2e:	f7ff fea3 	bl	80100c78 <outc>
80100f32:	bf00      	nop
80100f34:	687b      	ldr	r3, [r7, #4]
80100f36:	3301      	adds	r3, #1
80100f38:	607b      	str	r3, [r7, #4]
80100f3a:	687b      	ldr	r3, [r7, #4]
80100f3c:	781b      	ldrb	r3, [r3, #0]
80100f3e:	2b00      	cmp	r3, #0
80100f40:	f47f af33 	bne.w	80100daa <my_vprintf+0x14>
80100f44:	2300      	movs	r3, #0
80100f46:	4618      	mov	r0, r3
80100f48:	3710      	adds	r7, #16
80100f4a:	46bd      	mov	sp, r7
80100f4c:	bd80      	pop	{r7, pc}

80100f4e <printf>:
80100f4e:	b40f      	push	{r0, r1, r2, r3}
80100f50:	b580      	push	{r7, lr}
80100f52:	b082      	sub	sp, #8
80100f54:	af00      	add	r7, sp, #0
80100f56:	f107 0314 	add.w	r3, r7, #20
80100f5a:	607b      	str	r3, [r7, #4]
80100f5c:	693b      	ldr	r3, [r7, #16]
80100f5e:	6879      	ldr	r1, [r7, #4]
80100f60:	4618      	mov	r0, r3
80100f62:	f7ff ff18 	bl	80100d96 <my_vprintf>
80100f66:	2300      	movs	r3, #0
80100f68:	607b      	str	r3, [r7, #4]
80100f6a:	2300      	movs	r3, #0
80100f6c:	4618      	mov	r0, r3
80100f6e:	3708      	adds	r7, #8
80100f70:	46bd      	mov	sp, r7
80100f72:	e8bd 4080 	ldmia.w	sp!, {r7, lr}
80100f76:	b004      	add	sp, #16
80100f78:	4770      	bx	lr

80100f7a <my_printf_test>:
80100f7a:	b580      	push	{r7, lr}
80100f7c:	af00      	add	r7, sp, #0
80100f7e:	f641 0054 	movw	r0, #6228	; 0x1854
80100f82:	f2c8 0010 	movt	r0, #32784	; 0x8010
80100f86:	f7ff ffe2 	bl	80100f4e <printf>
80100f8a:	2261      	movs	r2, #97	; 0x61
80100f8c:	2141      	movs	r1, #65	; 0x41
80100f8e:	f641 0080 	movw	r0, #6272	; 0x1880
80100f92:	f2c8 0010 	movt	r0, #32784	; 0x8010
80100f96:	f7ff ffda 	bl	80100f4e <printf>
80100f9a:	f24e 2140 	movw	r1, #57920	; 0xe240
80100f9e:	f2c0 0101 	movt	r1, #1
80100fa2:	f641 00a0 	movw	r0, #6304	; 0x18a0
80100fa6:	f2c8 0010 	movt	r0, #32784	; 0x8010
80100faa:	f7ff ffd0 	bl	80100f4e <printf>
80100fae:	f44f 51ee 	mov.w	r1, #7616	; 0x1dc0
80100fb2:	f6cf 71fe 	movt	r1, #65534	; 0xfffe
80100fb6:	f641 00a0 	movw	r0, #6304	; 0x18a0
80100fba:	f2c8 0010 	movt	r0, #32784	; 0x8010
80100fbe:	f7ff ffc6 	bl	80100f4e <printf>
80100fc2:	f245 51aa 	movw	r1, #21930	; 0x55aa
80100fc6:	f2c5 51aa 	movt	r1, #21930	; 0x55aa
80100fca:	f641 00bc 	movw	r0, #6332	; 0x18bc
80100fce:	f2c8 0010 	movt	r0, #32784	; 0x8010
80100fd2:	f7ff ffbc 	bl	80100f4e <printf>
80100fd6:	f641 01d8 	movw	r1, #6360	; 0x18d8
80100fda:	f2c8 0110 	movt	r1, #32784	; 0x8010
80100fde:	f641 00e8 	movw	r0, #6376	; 0x18e8
80100fe2:	f2c8 0010 	movt	r0, #32784	; 0x8010
80100fe6:	f7ff ffb2 	bl	80100f4e <printf>
80100fea:	f243 0139 	movw	r1, #12345	; 0x3039
80100fee:	f641 1004 	movw	r0, #6404	; 0x1904
80100ff2:	f2c8 0010 	movt	r0, #32784	; 0x8010
80100ff6:	f7ff ffaa 	bl	80100f4e <printf>
80100ffa:	f243 0139 	movw	r1, #12345	; 0x3039
80100ffe:	f641 1010 	movw	r0, #6416	; 0x1910
80101002:	f2c8 0010 	movt	r0, #32784	; 0x8010
80101006:	f7ff ffa2 	bl	80100f4e <printf>
8010100a:	f242 3145 	movw	r1, #9029	; 0x2345
8010100e:	f2c0 0101 	movt	r1, #1
80101012:	f641 101c 	movw	r0, #6428	; 0x191c
80101016:	f2c8 0010 	movt	r0, #32784	; 0x8010
8010101a:	f7ff ff98 	bl	80100f4e <printf>
8010101e:	f242 3145 	movw	r1, #9029	; 0x2345
80101022:	f2c0 0101 	movt	r1, #1
80101026:	f641 102c 	movw	r0, #6444	; 0x192c
8010102a:	f2c8 0010 	movt	r0, #32784	; 0x8010
8010102e:	f7ff ff8e 	bl	80100f4e <printf>
80101032:	2101      	movs	r1, #1
80101034:	f641 1038 	movw	r0, #6456	; 0x1938
80101038:	f2c8 0010 	movt	r0, #32784	; 0x8010
8010103c:	f7ff ff87 	bl	80100f4e <printf>
80101040:	2101      	movs	r1, #1
80101042:	f641 1048 	movw	r0, #6472	; 0x1948
80101046:	f2c8 0010 	movt	r0, #32784	; 0x8010
8010104a:	f7ff ff80 	bl	80100f4e <printf>
8010104e:	2101      	movs	r1, #1
80101050:	f641 1054 	movw	r0, #6484	; 0x1954
80101054:	f2c8 0010 	movt	r0, #32784	; 0x8010
80101058:	f7ff ff79 	bl	80100f4e <printf>
8010105c:	2101      	movs	r1, #1
8010105e:	f641 1060 	movw	r0, #6496	; 0x1960
80101062:	f2c8 0010 	movt	r0, #32784	; 0x8010
80101066:	f7ff ff72 	bl	80100f4e <printf>
8010106a:	2300      	movs	r3, #0
8010106c:	4618      	mov	r0, r3
8010106e:	bd80      	pop	{r7, pc}

80101070 <get_gic_base>:
80101070:	b480      	push	{r7}
80101072:	b083      	sub	sp, #12
80101074:	af00      	add	r7, sp, #0
80101076:	ee9f 3f10 	mrc	15, 4, r3, cr15, cr0, {0}
8010107a:	607b      	str	r3, [r7, #4]
8010107c:	687b      	ldr	r3, [r7, #4]
8010107e:	4618      	mov	r0, r3
80101080:	370c      	adds	r7, #12
80101082:	46bd      	mov	sp, r7
80101084:	f85d 7b04 	ldr.w	r7, [sp], #4
80101088:	4770      	bx	lr

8010108a <gic_init>:
8010108a:	b580      	push	{r7, lr}
8010108c:	b084      	sub	sp, #16
8010108e:	af00      	add	r7, sp, #0
80101090:	f7ff ffee 	bl	80101070 <get_gic_base>
80101094:	60b8      	str	r0, [r7, #8]
80101096:	68bb      	ldr	r3, [r7, #8]
80101098:	f503 5380 	add.w	r3, r3, #4096	; 0x1000
8010109c:	3304      	adds	r3, #4
8010109e:	681b      	ldr	r3, [r3, #0]
801010a0:	f003 031f 	and.w	r3, r3, #31
801010a4:	3301      	adds	r3, #1
801010a6:	607b      	str	r3, [r7, #4]
801010a8:	2300      	movs	r3, #0
801010aa:	60fb      	str	r3, [r7, #12]
801010ac:	e00a      	b.n	801010c4 <gic_init+0x3a>
801010ae:	68bb      	ldr	r3, [r7, #8]
801010b0:	68fa      	ldr	r2, [r7, #12]
801010b2:	f502 628c 	add.w	r2, r2, #1120	; 0x460
801010b6:	f04f 31ff 	mov.w	r1, #4294967295	; 0xffffffff
801010ba:	f843 1022 	str.w	r1, [r3, r2, lsl #2]
801010be:	68fb      	ldr	r3, [r7, #12]
801010c0:	3301      	adds	r3, #1
801010c2:	60fb      	str	r3, [r7, #12]
801010c4:	68fa      	ldr	r2, [r7, #12]
801010c6:	687b      	ldr	r3, [r7, #4]
801010c8:	429a      	cmp	r2, r3
801010ca:	d3f0      	bcc.n	801010ae <gic_init+0x24>
801010cc:	68bb      	ldr	r3, [r7, #8]
801010ce:	f503 5300 	add.w	r3, r3, #8192	; 0x2000
801010d2:	3304      	adds	r3, #4
801010d4:	22f8      	movs	r2, #248	; 0xf8
801010d6:	601a      	str	r2, [r3, #0]
801010d8:	68bb      	ldr	r3, [r7, #8]
801010da:	f503 5300 	add.w	r3, r3, #8192	; 0x2000
801010de:	3308      	adds	r3, #8
801010e0:	2202      	movs	r2, #2
801010e2:	601a      	str	r2, [r3, #0]
801010e4:	68bb      	ldr	r3, [r7, #8]
801010e6:	f503 5380 	add.w	r3, r3, #4096	; 0x1000
801010ea:	2201      	movs	r2, #1
801010ec:	601a      	str	r2, [r3, #0]
801010ee:	68bb      	ldr	r3, [r7, #8]
801010f0:	f503 5300 	add.w	r3, r3, #8192	; 0x2000
801010f4:	2201      	movs	r2, #1
801010f6:	601a      	str	r2, [r3, #0]
801010f8:	bf00      	nop
801010fa:	3710      	adds	r7, #16
801010fc:	46bd      	mov	sp, r7
801010fe:	bd80      	pop	{r7, pc}

80101100 <gic_enable_irq>:
80101100:	b580      	push	{r7, lr}
80101102:	b084      	sub	sp, #16
80101104:	af00      	add	r7, sp, #0
80101106:	6078      	str	r0, [r7, #4]
80101108:	f7ff ffb2 	bl	80101070 <get_gic_base>
8010110c:	60f8      	str	r0, [r7, #12]
8010110e:	687b      	ldr	r3, [r7, #4]
80101110:	115a      	asrs	r2, r3, #5
80101112:	687b      	ldr	r3, [r7, #4]
80101114:	f003 031f 	and.w	r3, r3, #31
80101118:	2101      	movs	r1, #1
8010111a:	4099      	lsls	r1, r3
8010111c:	68fb      	ldr	r3, [r7, #12]
8010111e:	f502 6288 	add.w	r2, r2, #1088	; 0x440
80101122:	f843 1022 	str.w	r1, [r3, r2, lsl #2]
80101126:	bf00      	nop
80101128:	3710      	adds	r7, #16
8010112a:	46bd      	mov	sp, r7
8010112c:	bd80      	pop	{r7, pc}

8010112e <gic_disable_irq>:
8010112e:	b580      	push	{r7, lr}
80101130:	b084      	sub	sp, #16
80101132:	af00      	add	r7, sp, #0
80101134:	6078      	str	r0, [r7, #4]
80101136:	f7ff ff9b 	bl	80101070 <get_gic_base>
8010113a:	60f8      	str	r0, [r7, #12]
8010113c:	687b      	ldr	r3, [r7, #4]
8010113e:	115a      	asrs	r2, r3, #5
80101140:	687b      	ldr	r3, [r7, #4]
80101142:	f003 031f 	and.w	r3, r3, #31
80101146:	2101      	movs	r1, #1
80101148:	4099      	lsls	r1, r3
8010114a:	68fb      	ldr	r3, [r7, #12]
8010114c:	f502 628c 	add.w	r2, r2, #1120	; 0x460
80101150:	f843 1022 	str.w	r1, [r3, r2, lsl #2]
80101154:	bf00      	nop
80101156:	3710      	adds	r7, #16
80101158:	46bd      	mov	sp, r7
8010115a:	bd80      	pop	{r7, pc}

8010115c <default_irq_handler>:
8010115c:	b580      	push	{r7, lr}
8010115e:	b082      	sub	sp, #8
80101160:	af00      	add	r7, sp, #0
80101162:	6078      	str	r0, [r7, #4]
80101164:	6039      	str	r1, [r7, #0]
80101166:	6879      	ldr	r1, [r7, #4]
80101168:	f641 106c 	movw	r0, #6508	; 0x196c
8010116c:	f2c8 0010 	movt	r0, #32784	; 0x8010
80101170:	f7ff feed 	bl	80100f4e <printf>
80101174:	bf00      	nop
80101176:	3708      	adds	r7, #8
80101178:	46bd      	mov	sp, r7
8010117a:	bd80      	pop	{r7, pc}

8010117c <request_irq>:
8010117c:	b480      	push	{r7}
8010117e:	b085      	sub	sp, #20
80101180:	af00      	add	r7, sp, #0
80101182:	60f8      	str	r0, [r7, #12]
80101184:	60b9      	str	r1, [r7, #8]
80101186:	607a      	str	r2, [r7, #4]
80101188:	f641 13d4 	movw	r3, #6612	; 0x19d4
8010118c:	f2c8 0310 	movt	r3, #32784	; 0x8010
80101190:	68fa      	ldr	r2, [r7, #12]
80101192:	68b9      	ldr	r1, [r7, #8]
80101194:	f843 1032 	str.w	r1, [r3, r2, lsl #3]
80101198:	f641 12d4 	movw	r2, #6612	; 0x19d4
8010119c:	f2c8 0210 	movt	r2, #32784	; 0x8010
801011a0:	68fb      	ldr	r3, [r7, #12]
801011a2:	00db      	lsls	r3, r3, #3
801011a4:	4413      	add	r3, r2
801011a6:	687a      	ldr	r2, [r7, #4]
801011a8:	605a      	str	r2, [r3, #4]
801011aa:	bf00      	nop
801011ac:	3714      	adds	r7, #20
801011ae:	46bd      	mov	sp, r7
801011b0:	f85d 7b04 	ldr.w	r7, [sp], #4
801011b4:	4770      	bx	lr

801011b6 <system_init_irq_table>:
801011b6:	b580      	push	{r7, lr}
801011b8:	b082      	sub	sp, #8
801011ba:	af00      	add	r7, sp, #0
801011bc:	2300      	movs	r3, #0
801011be:	607b      	str	r3, [r7, #4]
801011c0:	e00b      	b.n	801011da <system_init_irq_table+0x24>
801011c2:	687b      	ldr	r3, [r7, #4]
801011c4:	2200      	movs	r2, #0
801011c6:	f241 115d 	movw	r1, #4445	; 0x115d
801011ca:	f2c8 0110 	movt	r1, #32784	; 0x8010
801011ce:	4618      	mov	r0, r3
801011d0:	f7ff ffd4 	bl	8010117c <request_irq>
801011d4:	687b      	ldr	r3, [r7, #4]
801011d6:	3301      	adds	r3, #1
801011d8:	607b      	str	r3, [r7, #4]
801011da:	687b      	ldr	r3, [r7, #4]
801011dc:	2b9e      	cmp	r3, #158	; 0x9e
801011de:	d9f0      	bls.n	801011c2 <system_init_irq_table+0xc>
801011e0:	bf00      	nop
801011e2:	3708      	adds	r7, #8
801011e4:	46bd      	mov	sp, r7
801011e6:	bd80      	pop	{r7, pc}

801011e8 <handle_irq_c>:
801011e8:	b590      	push	{r4, r7, lr}
801011ea:	b083      	sub	sp, #12
801011ec:	af00      	add	r7, sp, #0
801011ee:	f7ff ff3f 	bl	80101070 <get_gic_base>
801011f2:	6078      	str	r0, [r7, #4]
801011f4:	687b      	ldr	r3, [r7, #4]
801011f6:	f503 5300 	add.w	r3, r3, #8192	; 0x2000
801011fa:	330c      	adds	r3, #12
801011fc:	681b      	ldr	r3, [r3, #0]
801011fe:	603b      	str	r3, [r7, #0]
80101200:	6839      	ldr	r1, [r7, #0]
80101202:	f641 10a0 	movw	r0, #6560	; 0x19a0
80101206:	f2c8 0010 	movt	r0, #32784	; 0x8010
8010120a:	f7ff fea0 	bl	80100f4e <printf>
8010120e:	f641 13d4 	movw	r3, #6612	; 0x19d4
80101212:	f2c8 0310 	movt	r3, #32784	; 0x8010
80101216:	683a      	ldr	r2, [r7, #0]
80101218:	f853 4032 	ldr.w	r4, [r3, r2, lsl #3]
8010121c:	6838      	ldr	r0, [r7, #0]
8010121e:	f641 12d4 	movw	r2, #6612	; 0x19d4
80101222:	f2c8 0210 	movt	r2, #32784	; 0x8010
80101226:	683b      	ldr	r3, [r7, #0]
80101228:	00db      	lsls	r3, r3, #3
8010122a:	4413      	add	r3, r2
8010122c:	685b      	ldr	r3, [r3, #4]
8010122e:	4619      	mov	r1, r3
80101230:	47a0      	blx	r4
80101232:	683a      	ldr	r2, [r7, #0]
80101234:	687b      	ldr	r3, [r7, #4]
80101236:	f503 5300 	add.w	r3, r3, #8192	; 0x2000
8010123a:	3310      	adds	r3, #16
8010123c:	601a      	str	r2, [r3, #0]
8010123e:	bf00      	nop
80101240:	370c      	adds	r7, #12
80101242:	46bd      	mov	sp, r7
80101244:	bd90      	pop	{r4, r7, pc}

80101246 <epit_init>:
80101246:	b480      	push	{r7}
80101248:	b083      	sub	sp, #12
8010124a:	af00      	add	r7, sp, #0
8010124c:	6078      	str	r0, [r7, #4]
8010124e:	6039      	str	r1, [r7, #0]
80101250:	687b      	ldr	r3, [r7, #4]
80101252:	2200      	movs	r2, #0
80101254:	601a      	str	r2, [r3, #0]
80101256:	687b      	ldr	r3, [r7, #4]
80101258:	681b      	ldr	r3, [r3, #0]
8010125a:	f443 3280 	orr.w	r2, r3, #65536	; 0x10000
8010125e:	687b      	ldr	r3, [r7, #4]
80101260:	601a      	str	r2, [r3, #0]
80101262:	bf00      	nop
80101264:	687b      	ldr	r3, [r7, #4]
80101266:	681b      	ldr	r3, [r3, #0]
80101268:	f403 3380 	and.w	r3, r3, #65536	; 0x10000
8010126c:	2b00      	cmp	r3, #0
8010126e:	d1f9      	bne.n	80101264 <epit_init+0x1e>
80101270:	687b      	ldr	r3, [r7, #4]
80101272:	681b      	ldr	r3, [r3, #0]
80101274:	f443 1320 	orr.w	r3, r3, #2621440	; 0x280000
80101278:	f043 030a 	orr.w	r3, r3, #10
8010127c:	687a      	ldr	r2, [r7, #4]
8010127e:	6013      	str	r3, [r2, #0]
80101280:	687b      	ldr	r3, [r7, #4]
80101282:	681a      	ldr	r2, [r3, #0]
80101284:	230f      	movs	r3, #15
80101286:	f6cf 43ff 	movt	r3, #64767	; 0xfcff
8010128a:	4013      	ands	r3, r2
8010128c:	687a      	ldr	r2, [r7, #4]
8010128e:	6013      	str	r3, [r2, #0]
80101290:	687b      	ldr	r3, [r7, #4]
80101292:	681b      	ldr	r3, [r3, #0]
80101294:	f043 7280 	orr.w	r2, r3, #16777216	; 0x1000000
80101298:	687b      	ldr	r3, [r7, #4]
8010129a:	601a      	str	r2, [r3, #0]
8010129c:	687b      	ldr	r3, [r7, #4]
8010129e:	2200      	movs	r2, #0
801012a0:	60da      	str	r2, [r3, #12]
801012a2:	683a      	ldr	r2, [r7, #0]
801012a4:	4613      	mov	r3, r2
801012a6:	015b      	lsls	r3, r3, #5
801012a8:	4413      	add	r3, r2
801012aa:	005b      	lsls	r3, r3, #1
801012ac:	1e5a      	subs	r2, r3, #1
801012ae:	687b      	ldr	r3, [r7, #4]
801012b0:	609a      	str	r2, [r3, #8]
801012b2:	bf00      	nop
801012b4:	370c      	adds	r7, #12
801012b6:	46bd      	mov	sp, r7
801012b8:	f85d 7b04 	ldr.w	r7, [sp], #4
801012bc:	4770      	bx	lr

801012be <epit_enable_interrupt>:
801012be:	b480      	push	{r7}
801012c0:	b083      	sub	sp, #12
801012c2:	af00      	add	r7, sp, #0
801012c4:	6078      	str	r0, [r7, #4]
801012c6:	6039      	str	r1, [r7, #0]
801012c8:	683b      	ldr	r3, [r7, #0]
801012ca:	2b00      	cmp	r3, #0
801012cc:	d006      	beq.n	801012dc <epit_enable_interrupt+0x1e>
801012ce:	687b      	ldr	r3, [r7, #4]
801012d0:	681b      	ldr	r3, [r3, #0]
801012d2:	f043 0204 	orr.w	r2, r3, #4
801012d6:	687b      	ldr	r3, [r7, #4]
801012d8:	601a      	str	r2, [r3, #0]
801012da:	e005      	b.n	801012e8 <epit_enable_interrupt+0x2a>
801012dc:	687b      	ldr	r3, [r7, #4]
801012de:	681b      	ldr	r3, [r3, #0]
801012e0:	f023 0204 	bic.w	r2, r3, #4
801012e4:	687b      	ldr	r3, [r7, #4]
801012e6:	601a      	str	r2, [r3, #0]
801012e8:	bf00      	nop
801012ea:	370c      	adds	r7, #12
801012ec:	46bd      	mov	sp, r7
801012ee:	f85d 7b04 	ldr.w	r7, [sp], #4
801012f2:	4770      	bx	lr

801012f4 <epit_run>:
801012f4:	b480      	push	{r7}
801012f6:	b083      	sub	sp, #12
801012f8:	af00      	add	r7, sp, #0
801012fa:	6078      	str	r0, [r7, #4]
801012fc:	6039      	str	r1, [r7, #0]
801012fe:	683b      	ldr	r3, [r7, #0]
80101300:	2b00      	cmp	r3, #0
80101302:	d006      	beq.n	80101312 <epit_run+0x1e>
80101304:	687b      	ldr	r3, [r7, #4]
80101306:	681b      	ldr	r3, [r3, #0]
80101308:	f043 0201 	orr.w	r2, r3, #1
8010130c:	687b      	ldr	r3, [r7, #4]
8010130e:	601a      	str	r2, [r3, #0]
80101310:	e005      	b.n	8010131e <epit_run+0x2a>
80101312:	687b      	ldr	r3, [r7, #4]
80101314:	681b      	ldr	r3, [r3, #0]
80101316:	f023 0201 	bic.w	r2, r3, #1
8010131a:	687b      	ldr	r3, [r7, #4]
8010131c:	601a      	str	r2, [r3, #0]
8010131e:	bf00      	nop
80101320:	370c      	adds	r7, #12
80101322:	46bd      	mov	sp, r7
80101324:	f85d 7b04 	ldr.w	r7, [sp], #4
80101328:	4770      	bx	lr

8010132a <epit_poll_init>:
8010132a:	b480      	push	{r7}
8010132c:	b083      	sub	sp, #12
8010132e:	af00      	add	r7, sp, #0
80101330:	6078      	str	r0, [r7, #4]
80101332:	687b      	ldr	r3, [r7, #4]
80101334:	2200      	movs	r2, #0
80101336:	601a      	str	r2, [r3, #0]
80101338:	687b      	ldr	r3, [r7, #4]
8010133a:	681b      	ldr	r3, [r3, #0]
8010133c:	f443 3280 	orr.w	r2, r3, #65536	; 0x10000
80101340:	687b      	ldr	r3, [r7, #4]
80101342:	601a      	str	r2, [r3, #0]
80101344:	bf00      	nop
80101346:	687b      	ldr	r3, [r7, #4]
80101348:	681b      	ldr	r3, [r3, #0]
8010134a:	f403 3380 	and.w	r3, r3, #65536	; 0x10000
8010134e:	2b00      	cmp	r3, #0
80101350:	d1f9      	bne.n	80101346 <epit_poll_init+0x1c>
80101352:	687b      	ldr	r3, [r7, #4]
80101354:	681b      	ldr	r3, [r3, #0]
80101356:	f443 1328 	orr.w	r3, r3, #2752512	; 0x2a0000
8010135a:	f043 030a 	orr.w	r3, r3, #10
8010135e:	687a      	ldr	r2, [r7, #4]
80101360:	6013      	str	r3, [r2, #0]
80101362:	687b      	ldr	r3, [r7, #4]
80101364:	681a      	ldr	r2, [r3, #0]
80101366:	230f      	movs	r3, #15
80101368:	f6cf 43ff 	movt	r3, #64767	; 0xfcff
8010136c:	4013      	ands	r3, r2
8010136e:	687a      	ldr	r2, [r7, #4]
80101370:	6013      	str	r3, [r2, #0]
80101372:	687b      	ldr	r3, [r7, #4]
80101374:	681b      	ldr	r3, [r3, #0]
80101376:	f043 7280 	orr.w	r2, r3, #16777216	; 0x1000000
8010137a:	687b      	ldr	r3, [r7, #4]
8010137c:	601a      	str	r2, [r3, #0]
8010137e:	687b      	ldr	r3, [r7, #4]
80101380:	2200      	movs	r2, #0
80101382:	60da      	str	r2, [r3, #12]
80101384:	687b      	ldr	r3, [r7, #4]
80101386:	681b      	ldr	r3, [r3, #0]
80101388:	f043 0204 	orr.w	r2, r3, #4
8010138c:	687b      	ldr	r3, [r7, #4]
8010138e:	601a      	str	r2, [r3, #0]
80101390:	bf00      	nop
80101392:	370c      	adds	r7, #12
80101394:	46bd      	mov	sp, r7
80101396:	f85d 7b04 	ldr.w	r7, [sp], #4
8010139a:	4770      	bx	lr

8010139c <epit_poll_restart>:
8010139c:	b580      	push	{r7, lr}
8010139e:	b082      	sub	sp, #8
801013a0:	af00      	add	r7, sp, #0
801013a2:	6078      	str	r0, [r7, #4]
801013a4:	6039      	str	r1, [r7, #0]
801013a6:	2100      	movs	r1, #0
801013a8:	6878      	ldr	r0, [r7, #4]
801013aa:	f7ff ffa3 	bl	801012f4 <epit_run>
801013ae:	683a      	ldr	r2, [r7, #0]
801013b0:	4613      	mov	r3, r2
801013b2:	015b      	lsls	r3, r3, #5
801013b4:	4413      	add	r3, r2
801013b6:	005b      	lsls	r3, r3, #1
801013b8:	1e5a      	subs	r2, r3, #1
801013ba:	687b      	ldr	r3, [r7, #4]
801013bc:	609a      	str	r2, [r3, #8]
801013be:	2300      	movs	r3, #0
801013c0:	f2c0 230d 	movt	r3, #525	; 0x20d
801013c4:	2200      	movs	r2, #0
801013c6:	f2c0 220d 	movt	r2, #525	; 0x20d
801013ca:	6852      	ldr	r2, [r2, #4]
801013cc:	f042 0201 	orr.w	r2, r2, #1
801013d0:	605a      	str	r2, [r3, #4]
801013d2:	2101      	movs	r1, #1
801013d4:	6878      	ldr	r0, [r7, #4]
801013d6:	f7ff ff8d 	bl	801012f4 <epit_run>
801013da:	bf00      	nop
801013dc:	2300      	movs	r3, #0
801013de:	f2c0 230d 	movt	r3, #525	; 0x20d
801013e2:	685b      	ldr	r3, [r3, #4]
801013e4:	f003 0301 	and.w	r3, r3, #1
801013e8:	2b00      	cmp	r3, #0
801013ea:	d0f7      	beq.n	801013dc <epit_poll_restart+0x40>
801013ec:	2300      	movs	r3, #0
801013ee:	f2c0 230d 	movt	r3, #525	; 0x20d
801013f2:	2200      	movs	r2, #0
801013f4:	f2c0 220d 	movt	r2, #525	; 0x20d
801013f8:	6852      	ldr	r2, [r2, #4]
801013fa:	f042 0201 	orr.w	r2, r2, #1
801013fe:	605a      	str	r2, [r3, #4]
80101400:	bf00      	nop
80101402:	3708      	adds	r7, #8
80101404:	46bd      	mov	sp, r7
80101406:	bd80      	pop	{r7, pc}

80101408 <__aeabi_uidiv>:
80101408:	1e4a      	subs	r2, r1, #1
8010140a:	bf08      	it	eq
8010140c:	4770      	bxeq	lr
8010140e:	f0c0 8124 	bcc.w	8010165a <__aeabi_uidiv+0x252>
80101412:	4288      	cmp	r0, r1
80101414:	f240 8116 	bls.w	80101644 <__aeabi_uidiv+0x23c>
80101418:	4211      	tst	r1, r2
8010141a:	f000 8117 	beq.w	8010164c <__aeabi_uidiv+0x244>
8010141e:	fab0 f380 	clz	r3, r0
80101422:	fab1 f281 	clz	r2, r1
80101426:	eba2 0303 	sub.w	r3, r2, r3
8010142a:	f1c3 031f 	rsb	r3, r3, #31
8010142e:	a204      	add	r2, pc, #16	; (adr r2, 80101440 <__aeabi_uidiv+0x38>)
80101430:	eb02 1303 	add.w	r3, r2, r3, lsl #4
80101434:	f04f 0200 	mov.w	r2, #0
80101438:	469f      	mov	pc, r3
8010143a:	bf00      	nop
8010143c:	f3af 8000 	nop.w
80101440:	ebb0 7fc1 	cmp.w	r0, r1, lsl #31
80101444:	bf00      	nop
80101446:	eb42 0202 	adc.w	r2, r2, r2
8010144a:	bf28      	it	cs
8010144c:	eba0 70c1 	subcs.w	r0, r0, r1, lsl #31
80101450:	ebb0 7f81 	cmp.w	r0, r1, lsl #30
80101454:	bf00      	nop
80101456:	eb42 0202 	adc.w	r2, r2, r2
8010145a:	bf28      	it	cs
8010145c:	eba0 7081 	subcs.w	r0, r0, r1, lsl #30
80101460:	ebb0 7f41 	cmp.w	r0, r1, lsl #29
80101464:	bf00      	nop
80101466:	eb42 0202 	adc.w	r2, r2, r2
8010146a:	bf28      	it	cs
8010146c:	eba0 7041 	subcs.w	r0, r0, r1, lsl #29
80101470:	ebb0 7f01 	cmp.w	r0, r1, lsl #28
80101474:	bf00      	nop
80101476:	eb42 0202 	adc.w	r2, r2, r2
8010147a:	bf28      	it	cs
8010147c:	eba0 7001 	subcs.w	r0, r0, r1, lsl #28
80101480:	ebb0 6fc1 	cmp.w	r0, r1, lsl #27
80101484:	bf00      	nop
80101486:	eb42 0202 	adc.w	r2, r2, r2
8010148a:	bf28      	it	cs
8010148c:	eba0 60c1 	subcs.w	r0, r0, r1, lsl #27
80101490:	ebb0 6f81 	cmp.w	r0, r1, lsl #26
80101494:	bf00      	nop
80101496:	eb42 0202 	adc.w	r2, r2, r2
8010149a:	bf28      	it	cs
8010149c:	eba0 6081 	subcs.w	r0, r0, r1, lsl #26
801014a0:	ebb0 6f41 	cmp.w	r0, r1, lsl #25
801014a4:	bf00      	nop
801014a6:	eb42 0202 	adc.w	r2, r2, r2
801014aa:	bf28      	it	cs
801014ac:	eba0 6041 	subcs.w	r0, r0, r1, lsl #25
801014b0:	ebb0 6f01 	cmp.w	r0, r1, lsl #24
801014b4:	bf00      	nop
801014b6:	eb42 0202 	adc.w	r2, r2, r2
801014ba:	bf28      	it	cs
801014bc:	eba0 6001 	subcs.w	r0, r0, r1, lsl #24
801014c0:	ebb0 5fc1 	cmp.w	r0, r1, lsl #23
801014c4:	bf00      	nop
801014c6:	eb42 0202 	adc.w	r2, r2, r2
801014ca:	bf28      	it	cs
801014cc:	eba0 50c1 	subcs.w	r0, r0, r1, lsl #23
801014d0:	ebb0 5f81 	cmp.w	r0, r1, lsl #22
801014d4:	bf00      	nop
801014d6:	eb42 0202 	adc.w	r2, r2, r2
801014da:	bf28      	it	cs
801014dc:	eba0 5081 	subcs.w	r0, r0, r1, lsl #22
801014e0:	ebb0 5f41 	cmp.w	r0, r1, lsl #21
801014e4:	bf00      	nop
801014e6:	eb42 0202 	adc.w	r2, r2, r2
801014ea:	bf28      	it	cs
801014ec:	eba0 5041 	subcs.w	r0, r0, r1, lsl #21
801014f0:	ebb0 5f01 	cmp.w	r0, r1, lsl #20
801014f4:	bf00      	nop
801014f6:	eb42 0202 	adc.w	r2, r2, r2
801014fa:	bf28      	it	cs
801014fc:	eba0 5001 	subcs.w	r0, r0, r1, lsl #20
80101500:	ebb0 4fc1 	cmp.w	r0, r1, lsl #19
80101504:	bf00      	nop
80101506:	eb42 0202 	adc.w	r2, r2, r2
8010150a:	bf28      	it	cs
8010150c:	eba0 40c1 	subcs.w	r0, r0, r1, lsl #19
80101510:	ebb0 4f81 	cmp.w	r0, r1, lsl #18
80101514:	bf00      	nop
80101516:	eb42 0202 	adc.w	r2, r2, r2
8010151a:	bf28      	it	cs
8010151c:	eba0 4081 	subcs.w	r0, r0, r1, lsl #18
80101520:	ebb0 4f41 	cmp.w	r0, r1, lsl #17
80101524:	bf00      	nop
80101526:	eb42 0202 	adc.w	r2, r2, r2
8010152a:	bf28      	it	cs
8010152c:	eba0 4041 	subcs.w	r0, r0, r1, lsl #17
80101530:	ebb0 4f01 	cmp.w	r0, r1, lsl #16
80101534:	bf00      	nop
80101536:	eb42 0202 	adc.w	r2, r2, r2
8010153a:	bf28      	it	cs
8010153c:	eba0 4001 	subcs.w	r0, r0, r1, lsl #16
80101540:	ebb0 3fc1 	cmp.w	r0, r1, lsl #15
80101544:	bf00      	nop
80101546:	eb42 0202 	adc.w	r2, r2, r2
8010154a:	bf28      	it	cs
8010154c:	eba0 30c1 	subcs.w	r0, r0, r1, lsl #15
80101550:	ebb0 3f81 	cmp.w	r0, r1, lsl #14
80101554:	bf00      	nop
80101556:	eb42 0202 	adc.w	r2, r2, r2
8010155a:	bf28      	it	cs
8010155c:	eba0 3081 	subcs.w	r0, r0, r1, lsl #14
80101560:	ebb0 3f41 	cmp.w	r0, r1, lsl #13
80101564:	bf00      	nop
80101566:	eb42 0202 	adc.w	r2, r2, r2
8010156a:	bf28      	it	cs
8010156c:	eba0 3041 	subcs.w	r0, r0, r1, lsl #13
80101570:	ebb0 3f01 	cmp.w	r0, r1, lsl #12
80101574:	bf00      	nop
80101576:	eb42 0202 	adc.w	r2, r2, r2
8010157a:	bf28      	it	cs
8010157c:	eba0 3001 	subcs.w	r0, r0, r1, lsl #12
80101580:	ebb0 2fc1 	cmp.w	r0, r1, lsl #11
80101584:	bf00      	nop
80101586:	eb42 0202 	adc.w	r2, r2, r2
8010158a:	bf28      	it	cs
8010158c:	eba0 20c1 	subcs.w	r0, r0, r1, lsl #11
80101590:	ebb0 2f81 	cmp.w	r0, r1, lsl #10
80101594:	bf00      	nop
80101596:	eb42 0202 	adc.w	r2, r2, r2
8010159a:	bf28      	it	cs
8010159c:	eba0 2081 	subcs.w	r0, r0, r1, lsl #10
801015a0:	ebb0 2f41 	cmp.w	r0, r1, lsl #9
801015a4:	bf00      	nop
801015a6:	eb42 0202 	adc.w	r2, r2, r2
801015aa:	bf28      	it	cs
801015ac:	eba0 2041 	subcs.w	r0, r0, r1, lsl #9
801015b0:	ebb0 2f01 	cmp.w	r0, r1, lsl #8
801015b4:	bf00      	nop
801015b6:	eb42 0202 	adc.w	r2, r2, r2
801015ba:	bf28      	it	cs
801015bc:	eba0 2001 	subcs.w	r0, r0, r1, lsl #8
801015c0:	ebb0 1fc1 	cmp.w	r0, r1, lsl #7
801015c4:	bf00      	nop
801015c6:	eb42 0202 	adc.w	r2, r2, r2
801015ca:	bf28      	it	cs
801015cc:	eba0 10c1 	subcs.w	r0, r0, r1, lsl #7
801015d0:	ebb0 1f81 	cmp.w	r0, r1, lsl #6
801015d4:	bf00      	nop
801015d6:	eb42 0202 	adc.w	r2, r2, r2
801015da:	bf28      	it	cs
801015dc:	eba0 1081 	subcs.w	r0, r0, r1, lsl #6
801015e0:	ebb0 1f41 	cmp.w	r0, r1, lsl #5
801015e4:	bf00      	nop
801015e6:	eb42 0202 	adc.w	r2, r2, r2
801015ea:	bf28      	it	cs
801015ec:	eba0 1041 	subcs.w	r0, r0, r1, lsl #5
801015f0:	ebb0 1f01 	cmp.w	r0, r1, lsl #4
801015f4:	bf00      	nop
801015f6:	eb42 0202 	adc.w	r2, r2, r2
801015fa:	bf28      	it	cs
801015fc:	eba0 1001 	subcs.w	r0, r0, r1, lsl #4
80101600:	ebb0 0fc1 	cmp.w	r0, r1, lsl #3
80101604:	bf00      	nop
80101606:	eb42 0202 	adc.w	r2, r2, r2
8010160a:	bf28      	it	cs
8010160c:	eba0 00c1 	subcs.w	r0, r0, r1, lsl #3
80101610:	ebb0 0f81 	cmp.w	r0, r1, lsl #2
80101614:	bf00      	nop
80101616:	eb42 0202 	adc.w	r2, r2, r2
8010161a:	bf28      	it	cs
8010161c:	eba0 0081 	subcs.w	r0, r0, r1, lsl #2
80101620:	ebb0 0f41 	cmp.w	r0, r1, lsl #1
80101624:	bf00      	nop
80101626:	eb42 0202 	adc.w	r2, r2, r2
8010162a:	bf28      	it	cs
8010162c:	eba0 0041 	subcs.w	r0, r0, r1, lsl #1
80101630:	ebb0 0f01 	cmp.w	r0, r1
80101634:	bf00      	nop
80101636:	eb42 0202 	adc.w	r2, r2, r2
8010163a:	bf28      	it	cs
8010163c:	eba0 0001 	subcs.w	r0, r0, r1
80101640:	4610      	mov	r0, r2
80101642:	4770      	bx	lr
80101644:	bf0c      	ite	eq
80101646:	2001      	moveq	r0, #1
80101648:	2000      	movne	r0, #0
8010164a:	4770      	bx	lr
8010164c:	fab1 f281 	clz	r2, r1
80101650:	f1c2 021f 	rsb	r2, r2, #31
80101654:	fa20 f002 	lsr.w	r0, r0, r2
80101658:	4770      	bx	lr
8010165a:	b108      	cbz	r0, 80101660 <__aeabi_uidiv+0x258>
8010165c:	f04f 30ff 	mov.w	r0, #4294967295	; 0xffffffff
80101660:	f000 b826 	b.w	801016b0 <__aeabi_idiv0>

80101664 <__aeabi_uidivmod>:
80101664:	2900      	cmp	r1, #0
80101666:	d0f8      	beq.n	8010165a <__aeabi_uidiv+0x252>
80101668:	e92d 4003 	stmdb	sp!, {r0, r1, lr}
8010166c:	f7ff fecc 	bl	80101408 <__aeabi_uidiv>
80101670:	e8bd 4006 	ldmia.w	sp!, {r1, r2, lr}
80101674:	fb02 f300 	mul.w	r3, r2, r0
80101678:	eba1 0103 	sub.w	r1, r1, r3
8010167c:	4770      	bx	lr
8010167e:	bf00      	nop

80101680 <__aeabi_uldivmod>:
80101680:	b953      	cbnz	r3, 80101698 <__aeabi_uldivmod+0x18>
80101682:	b94a      	cbnz	r2, 80101698 <__aeabi_uldivmod+0x18>
80101684:	2900      	cmp	r1, #0
80101686:	bf08      	it	eq
80101688:	2800      	cmpeq	r0, #0
8010168a:	bf1c      	itt	ne
8010168c:	f04f 31ff 	movne.w	r1, #4294967295	; 0xffffffff
80101690:	f04f 30ff 	movne.w	r0, #4294967295	; 0xffffffff
80101694:	f000 b80c 	b.w	801016b0 <__aeabi_idiv0>
80101698:	f1ad 0c08 	sub.w	ip, sp, #8
8010169c:	e96d ce04 	strd	ip, lr, [sp, #-16]!
801016a0:	f000 f80c 	bl	801016bc <__udivmoddi4>
801016a4:	f8dd e004 	ldr.w	lr, [sp, #4]
801016a8:	e9dd 2302 	ldrd	r2, r3, [sp, #8]
801016ac:	b004      	add	sp, #16
801016ae:	4770      	bx	lr

801016b0 <__aeabi_idiv0>:
801016b0:	b502      	push	{r1, lr}
801016b2:	f04f 0008 	mov.w	r0, #8
801016b6:	f7ff fad3 	bl	80100c60 <raise>
801016ba:	bd02      	pop	{r1, pc}

801016bc <__udivmoddi4>:
801016bc:	4299      	cmp	r1, r3
801016be:	e92d 47f0 	stmdb	sp!, {r4, r5, r6, r7, r8, r9, sl, lr}
801016c2:	bf08      	it	eq
801016c4:	4290      	cmpeq	r0, r2
801016c6:	4604      	mov	r4, r0
801016c8:	460d      	mov	r5, r1
801016ca:	bf38      	it	cc
801016cc:	2000      	movcc	r0, #0
801016ce:	f8dd a020 	ldr.w	sl, [sp, #32]
801016d2:	bf38      	it	cc
801016d4:	2100      	movcc	r1, #0
801016d6:	d369      	bcc.n	801017ac <__udivmoddi4+0xf0>
801016d8:	fab3 f683 	clz	r6, r3
801016dc:	2b00      	cmp	r3, #0
801016de:	d070      	beq.n	801017c2 <__udivmoddi4+0x106>
801016e0:	fab5 f185 	clz	r1, r5
801016e4:	2d00      	cmp	r5, #0
801016e6:	d068      	beq.n	801017ba <__udivmoddi4+0xfe>
801016e8:	1a76      	subs	r6, r6, r1
801016ea:	f1a6 0e20 	sub.w	lr, r6, #32
801016ee:	fa03 f906 	lsl.w	r9, r3, r6
801016f2:	fa02 f10e 	lsl.w	r1, r2, lr
801016f6:	f1c6 0720 	rsb	r7, r6, #32
801016fa:	fa22 f307 	lsr.w	r3, r2, r7
801016fe:	fa02 f806 	lsl.w	r8, r2, r6
80101702:	ea49 0901 	orr.w	r9, r9, r1
80101706:	ea49 0903 	orr.w	r9, r9, r3
8010170a:	454d      	cmp	r5, r9
8010170c:	bf08      	it	eq
8010170e:	4544      	cmpeq	r4, r8
80101710:	bf3c      	itt	cc
80101712:	2000      	movcc	r0, #0
80101714:	2100      	movcc	r1, #0
80101716:	d30c      	bcc.n	80101732 <__udivmoddi4+0x76>
80101718:	2301      	movs	r3, #1
8010171a:	ebb4 0408 	subs.w	r4, r4, r8
8010171e:	fa03 f10e 	lsl.w	r1, r3, lr
80101722:	fa23 f207 	lsr.w	r2, r3, r7
80101726:	fa03 f006 	lsl.w	r0, r3, r6
8010172a:	ea41 0102 	orr.w	r1, r1, r2
8010172e:	eb65 0509 	sbc.w	r5, r5, r9
80101732:	2e00      	cmp	r6, #0
80101734:	d03a      	beq.n	801017ac <__udivmoddi4+0xf0>
80101736:	ea5f 0959 	movs.w	r9, r9, lsr #1
8010173a:	ea4f 0838 	mov.w	r8, r8, rrx
8010173e:	46b4      	mov	ip, r6
80101740:	e00b      	b.n	8010175a <__udivmoddi4+0x9e>
80101742:	ebb4 0408 	subs.w	r4, r4, r8
80101746:	eb65 0509 	sbc.w	r5, r5, r9
8010174a:	1924      	adds	r4, r4, r4
8010174c:	416d      	adcs	r5, r5
8010174e:	3401      	adds	r4, #1
80101750:	f145 0500 	adc.w	r5, r5, #0
80101754:	f1bc 0c01 	subs.w	ip, ip, #1
80101758:	d008      	beq.n	8010176c <__udivmoddi4+0xb0>
8010175a:	454d      	cmp	r5, r9
8010175c:	bf08      	it	eq
8010175e:	4544      	cmpeq	r4, r8
80101760:	d2ef      	bcs.n	80101742 <__udivmoddi4+0x86>
80101762:	1924      	adds	r4, r4, r4
80101764:	416d      	adcs	r5, r5
80101766:	f1bc 0c01 	subs.w	ip, ip, #1
8010176a:	d1f6      	bne.n	8010175a <__udivmoddi4+0x9e>
8010176c:	fa05 f707 	lsl.w	r7, r5, r7
80101770:	fa24 f306 	lsr.w	r3, r4, r6
80101774:	fa25 fe0e 	lsr.w	lr, r5, lr
80101778:	fa25 fc06 	lsr.w	ip, r5, r6
8010177c:	433b      	orrs	r3, r7
8010177e:	1900      	adds	r0, r0, r4
80101780:	ea43 040e 	orr.w	r4, r3, lr
80101784:	f1a6 0e20 	sub.w	lr, r6, #32
80101788:	fa0c f306 	lsl.w	r3, ip, r6
8010178c:	fa04 fe0e 	lsl.w	lr, r4, lr
80101790:	fa04 f206 	lsl.w	r2, r4, r6
80101794:	f1c6 0720 	rsb	r7, r6, #32
80101798:	fa24 f707 	lsr.w	r7, r4, r7
8010179c:	ea43 030e 	orr.w	r3, r3, lr
801017a0:	4169      	adcs	r1, r5
801017a2:	433b      	orrs	r3, r7
801017a4:	1a80      	subs	r0, r0, r2
801017a6:	4665      	mov	r5, ip
801017a8:	eb61 0103 	sbc.w	r1, r1, r3
801017ac:	f1ba 0f00 	cmp.w	sl, #0
801017b0:	d001      	beq.n	801017b6 <__udivmoddi4+0xfa>
801017b2:	e9ca 4500 	strd	r4, r5, [sl]
801017b6:	e8bd 87f0 	ldmia.w	sp!, {r4, r5, r6, r7, r8, r9, sl, pc}
801017ba:	fab4 f184 	clz	r1, r4
801017be:	3120      	adds	r1, #32
801017c0:	e792      	b.n	801016e8 <__udivmoddi4+0x2c>
801017c2:	fab2 f682 	clz	r6, r2
801017c6:	fab5 f185 	clz	r1, r5
801017ca:	3620      	adds	r6, #32
801017cc:	2d00      	cmp	r5, #0
801017ce:	d18b      	bne.n	801016e8 <__udivmoddi4+0x2c>
801017d0:	e7f3      	b.n	801017ba <__udivmoddi4+0xfe>
801017d2:	bf00      	nop

Disassembly of section .rodata:

801017d4 <.LC0>:
801017d4:	65637845 	strbvs	r7, [r3, #-2117]!	; 0xfffff7bb
801017d8:	6f697470 	svcvs	0x00697470
801017dc:	6320216e 			; <UNDEFINED> instruction: 0x6320216e
801017e0:	20727370 	rsbscs	r7, r2, r0, ror r3
801017e4:	30207369 	eorcc	r7, r0, r9, ror #6
801017e8:	0d782578 	cfldr64eq	mvdx2, [r8, #-480]!	; 0xfffffe20
801017ec:	0000000a 	andeq	r0, r0, sl

801017f0 <.LC1>:
801017f0:	0a0d7325 	beq	8045e48c <__bss_end+0x35c5b8>
801017f4:	00000000 	andeq	r0, r0, r0

801017f8 <.LC2>:
801017f8:	20495753 	subcs	r5, r9, r3, asr r7
801017fc:	206c6176 	rsbcs	r6, ip, r6, ror r1
80101800:	7830203d 	ldmdavc	r0!, {r0, r2, r3, r4, r5, sp}
80101804:	0a0d7825 	beq	8045f8a0 <__bss_end+0x35d9cc>
80101808:	00000000 	andeq	r0, r0, r0

8010180c <.LC3>:
8010180c:	54495045 	strbpl	r5, [r9], #-69	; 0xffffffbb
80101810:	6e692031 	mcrvs	0, 3, r2, cr9, cr1, {1}
80101814:	72726574 	rsbsvc	r6, r2, #116, 10	; 0x1d000000
80101818:	20747075 	rsbscs	r7, r4, r5, ror r0
8010181c:	70706168 	rsbsvc	r6, r0, r8, ror #2
80101820:	64656e65 	strbtvs	r6, [r5], #-3685	; 0xfffff19b
80101824:	00000a0d 	andeq	r0, r0, sp, lsl #20

80101828 <.LC4>:
80101828:	6c6c6568 	cfstr64vs	mvdx6, [ip], #-416	; 0xfffffe60
8010182c:	6f77206f 	svcvs	0x0077206f
80101830:	0d646c72 	stcleq	12, cr6, [r4, #-456]!	; 0xfffffe38
80101834:	0000000a 	andeq	r0, r0, sl

80101838 <.LC5>:
80101838:	2064656c 	rsbcs	r6, r4, ip, ror #10
8010183c:	6f207369 	svcvs	0x00207369
80101840:	000a0d6e 	andeq	r0, sl, lr, ror #26

80101844 <.LC6>:
80101844:	2064656c 	rsbcs	r6, r4, ip, ror #10
80101848:	6f207369 	svcvs	0x00207369
8010184c:	0a0d6666 	beq	8045b1ec <__bss_end+0x359318>
80101850:	00000000 	andeq	r0, r0, r0

80101854 <.LC0>:
80101854:	73696854 	cmnvc	r9, #84, 16	; 0x540000
80101858:	20736920 	rsbscs	r6, r3, r0, lsr #18
8010185c:	2e777777 	mrccs	7, 3, r7, cr7, cr7, {3}
80101860:	61303031 	teqvs	r0, r1, lsr r0
80101864:	6f2e6b73 	svcvs	0x002e6b73
80101868:	20206772 	eorcs	r6, r0, r2, ror r7
8010186c:	5f796d20 	svcpl	0x00796d20
80101870:	6e697270 	mcrvs	2, 3, r7, cr9, cr0, {3}
80101874:	74206674 	strtvc	r6, [r0], #-1652	; 0xfffff98c
80101878:	0a747365 	beq	81e1e614 <__bss_end+0x1d1c740>
8010187c:	0000000d 	andeq	r0, r0, sp

80101880 <.LC1>:
80101880:	74736574 	ldrbtvc	r6, [r3], #-1396	; 0xfffffa8c
80101884:	61686320 	cmnvs	r8, r0, lsr #6
80101888:	20202072 	eorcs	r2, r0, r2, ror r0
8010188c:	20202020 	eorcs	r2, r0, r0, lsr #32
80101890:	20202020 	eorcs	r2, r0, r0, lsr #32
80101894:	2c63253d 	cfstr64cs	mvdx2, [r3], #-244	; 0xffffff0c
80101898:	0d0a6325 	stceq	3, cr6, [sl, #-148]	; 0xffffff6c
8010189c:	00000000 	andeq	r0, r0, r0

801018a0 <.LC2>:
801018a0:	74736574 	ldrbtvc	r6, [r3], #-1396	; 0xfffffa8c
801018a4:	63656420 	cmnvs	r5, #32, 8	; 0x20000000
801018a8:	6c616d69 	stclvs	13, cr6, [r1], #-420	; 0xfffffe5c
801018ac:	6d756e20 	ldclvs	14, cr6, [r5, #-128]!	; 0xffffff80
801018b0:	20726562 	rsbscs	r6, r2, r2, ror #10
801018b4:	0a64253d 	beq	81a0adb0 <__bss_end+0x1908edc>
801018b8:	0000000d 	andeq	r0, r0, sp

801018bc <.LC3>:
801018bc:	74736574 	ldrbtvc	r6, [r3], #-1396	; 0xfffffa8c
801018c0:	78656820 	stmdavc	r5!, {r5, fp, sp, lr}^
801018c4:	20202020 	eorcs	r2, r0, r0, lsr #32
801018c8:	6d756e20 	ldclvs	14, cr6, [r5, #-128]!	; 0xffffff80
801018cc:	20726562 	rsbscs	r6, r2, r2, ror #10
801018d0:	2578303d 	ldrbcs	r3, [r8, #-61]!	; 0xffffffc3
801018d4:	000d0a78 	andeq	r0, sp, r8, ror sl

801018d8 <.LC4>:
801018d8:	2e777777 	mrccs	7, 3, r7, cr7, cr7, {3}
801018dc:	61303031 	teqvs	r0, r1, lsr r0
801018e0:	6f2e6b73 	svcvs	0x002e6b73
801018e4:	00006772 	andeq	r6, r0, r2, ror r7

801018e8 <.LC5>:
801018e8:	74736574 	ldrbtvc	r6, [r3], #-1396	; 0xfffffa8c
801018ec:	72747320 	rsbsvc	r7, r4, #32, 6	; 0x80000000
801018f0:	20676e69 	rsbcs	r6, r7, r9, ror #28
801018f4:	20202020 	eorcs	r2, r0, r0, lsr #32
801018f8:	20202020 	eorcs	r2, r0, r0, lsr #32
801018fc:	0a73253d 	beq	81dcadf8 <__bss_end+0x1cc8f24>
80101900:	0000000d 	andeq	r0, r0, sp

80101904 <.LC6>:
80101904:	3d6d756e 	cfstr64cc	mvdx7, [sp, #-440]!	; 0xfffffe48
80101908:	64383025 	ldrtvs	r3, [r8], #-37	; 0xffffffdb
8010190c:	00000d0a 	andeq	r0, r0, sl, lsl #26

80101910 <.LC7>:
80101910:	3d6d756e 	cfstr64cc	mvdx7, [sp, #-440]!	; 0xfffffe48
80101914:	0a643825 	beq	81a0f9b0 <__bss_end+0x190dadc>
80101918:	0000000d 	andeq	r0, r0, sp

8010191c <.LC8>:
8010191c:	3d6d756e 	cfstr64cc	mvdx7, [sp, #-440]!	; 0xfffffe48
80101920:	30257830 	eorcc	r7, r5, r0, lsr r8
80101924:	0d0a7838 	stceq	8, cr7, [sl, #-224]	; 0xffffff20
80101928:	00000000 	andeq	r0, r0, r0

8010192c <.LC9>:
8010192c:	3d6d756e 	cfstr64cc	mvdx7, [sp, #-440]!	; 0xfffffe48
80101930:	38257830 	stmdacc	r5!, {r4, r5, fp, ip, sp, lr}
80101934:	000d0a78 	andeq	r0, sp, r8, ror sl

80101938 <.LC10>:
80101938:	3d6d756e 	cfstr64cc	mvdx7, [sp, #-440]!	; 0xfffffe48
8010193c:	30257830 	eorcc	r7, r5, r0, lsr r8
80101940:	0d0a7832 	stceq	8, cr7, [sl, #-200]	; 0xffffff38
80101944:	00000000 	andeq	r0, r0, r0

80101948 <.LC11>:
80101948:	3d6d756e 	cfstr64cc	mvdx7, [sp, #-440]!	; 0xfffffe48
8010194c:	32257830 	eorcc	r7, r5, #48, 16	; 0x300000
80101950:	000d0a78 	andeq	r0, sp, r8, ror sl

80101954 <.LC12>:
80101954:	3d6d756e 	cfstr64cc	mvdx7, [sp, #-440]!	; 0xfffffe48
80101958:	64353025 	ldrtvs	r3, [r5], #-37	; 0xffffffdb
8010195c:	00000d0a 	andeq	r0, r0, sl, lsl #26

80101960 <.LC13>:
80101960:	3d6d756e 	cfstr64cc	mvdx7, [sp, #-440]!	; 0xfffffe48
80101964:	0a643525 	beq	81a0ee00 <__bss_end+0x190cf2c>
80101968:	0000000d 	andeq	r0, r0, sp

8010196c <.LC0>:
8010196c:	25717269 	ldrbcs	r7, [r1, #-617]!	; 0xfffffd97
80101970:	61682064 	cmnvs	r8, r4, rrx
80101974:	6e206576 	mcrvs	5, 1, r6, cr0, cr6, {3}
80101978:	7320746f 			; <UNDEFINED> instruction: 0x7320746f
8010197c:	69207465 	stmdbvs	r0!, {r0, r2, r5, r6, sl, ip, sp, lr}
80101980:	68207172 	stmdavs	r0!, {r1, r4, r5, r6, r8, ip, sp, lr}
80101984:	6c646e61 	stclvs	14, cr6, [r4], #-388	; 0xfffffe7c
80101988:	202c7265 	eorcs	r7, ip, r5, ror #4
8010198c:	20657375 	rsbcs	r7, r5, r5, ror r3
80101990:	61666564 	cmnvs	r6, r4, ror #10
80101994:	20746c75 	rsbscs	r6, r4, r5, ror ip
80101998:	61657473 	smcvs	22339	; 0x5743
8010199c:	00000a64 	andeq	r0, r0, r4, ror #20

801019a0 <.LC1>:
801019a0:	20717269 	rsbscs	r7, r1, r9, ror #4
801019a4:	69206425 	stmdbvs	r0!, {r0, r2, r5, sl, sp, lr}
801019a8:	61682073 	smcvs	33283	; 0x8203
801019ac:	6e657070 	mcrvs	0, 3, r7, cr5, cr0, {3}
801019b0:	0a0d6465 	beq	8045ab4c <__bss_end+0x358c78>
	...

Disassembly of section .ARM.exidx:

801019b8 <.ARM.exidx>:
801019b8:	7ffffd04 	svcvc	0x00fffd04
801019bc:	00000001 	andeq	r0, r0, r1

Disassembly of section .data:

801019c0 <on.8242>:
801019c0:	00000001 	andeq	r0, r0, r1

801019c4 <hex_tab>:
801019c4:	33323130 	teqcc	r2, #48, 2
801019c8:	37363534 			; <UNDEFINED> instruction: 0x37363534
801019cc:	62613938 	rsbvs	r3, r1, #56, 18	; 0xe0000
801019d0:	66656463 	strbtvs	r6, [r5], -r3, ror #8

Disassembly of section .bss:

801019d4 <__bss_start>:
	...

