
relocate.elf:     file format elf32-littlearm


Disassembly of section .text:

80100000 <_start>:
80100000:	e59fd054 	ldr	sp, [pc, #84]	; 8010005c <clean+0x14>
80100004:	eb000002 	bl	80100014 <copy_data>
80100008:	eb00000b 	bl	8010003c <clean_bss>
8010000c:	fb00007d 	blx	8010020a <main>

80100010 <halt>:
80100010:	eafffffe 	b	80100010 <halt>

80100014 <copy_data>:
80100014:	e59f1044 	ldr	r1, [pc, #68]	; 80100060 <clean+0x18>
80100018:	e59f2044 	ldr	r2, [pc, #68]	; 80100064 <clean+0x1c>
8010001c:	e59f3044 	ldr	r3, [pc, #68]	; 80100068 <clean+0x20>

80100020 <cpy>:
80100020:	e5914000 	ldr	r4, [r1]
80100024:	e5824000 	str	r4, [r2]
80100028:	e2811004 	add	r1, r1, #4
8010002c:	e2822004 	add	r2, r2, #4
80100030:	e1520003 	cmp	r2, r3
80100034:	1afffff9 	bne	80100020 <cpy>
80100038:	e1a0f00e 	mov	pc, lr

8010003c <clean_bss>:
8010003c:	e59f1028 	ldr	r1, [pc, #40]	; 8010006c <clean+0x24>
80100040:	e59f2028 	ldr	r2, [pc, #40]	; 80100070 <clean+0x28>
80100044:	e3a03000 	mov	r3, #0

80100048 <clean>:
80100048:	e5c13000 	strb	r3, [r1]
8010004c:	e2811001 	add	r1, r1, #1
80100050:	e1510002 	cmp	r1, r2
80100054:	1afffffb 	bne	80100048 <clean>
80100058:	e1a0f00e 	mov	pc, lr
8010005c:	80200000 	eorhi	r0, r0, r0
80100060:	801009c4 	andshi	r0, r0, r4, asr #19
80100064:	00900000 	addseq	r0, r0, r0
80100068:	00900014 	addseq	r0, r0, r4, lsl r0
8010006c:	00900014 	addseq	r0, r0, r4, lsl r0
80100070:	00900025 	addseq	r0, r0, r5, lsr #32

80100074 <Uart_Init>:
80100074:	b480      	push	{r7}
80100076:	af00      	add	r7, sp, #0
80100078:	f240 0214 	movw	r2, #20
8010007c:	f2c0 0290 	movt	r2, #144	; 0x90
80100080:	2384      	movs	r3, #132	; 0x84
80100082:	f2c0 230e 	movt	r3, #526	; 0x20e
80100086:	6013      	str	r3, [r2, #0]
80100088:	f240 0218 	movw	r2, #24
8010008c:	f2c0 0290 	movt	r2, #144	; 0x90
80100090:	2388      	movs	r3, #136	; 0x88
80100092:	f2c0 230e 	movt	r3, #526	; 0x20e
80100096:	6013      	str	r3, [r2, #0]
80100098:	f240 0318 	movw	r3, #24
8010009c:	f2c0 0390 	movt	r3, #144	; 0x90
801000a0:	681b      	ldr	r3, [r3, #0]
801000a2:	2200      	movs	r2, #0
801000a4:	601a      	str	r2, [r3, #0]
801000a6:	f240 0314 	movw	r3, #20
801000aa:	f2c0 0390 	movt	r3, #144	; 0x90
801000ae:	681b      	ldr	r3, [r3, #0]
801000b0:	2200      	movs	r2, #0
801000b2:	601a      	str	r2, [r3, #0]
801000b4:	2300      	movs	r3, #0
801000b6:	f2c0 2302 	movt	r3, #514	; 0x202
801000ba:	2200      	movs	r2, #0
801000bc:	f2c0 2202 	movt	r2, #514	; 0x202
801000c0:	f8d2 2080 	ldr.w	r2, [r2, #128]	; 0x80
801000c4:	f042 0201 	orr.w	r2, r2, #1
801000c8:	f8c3 2080 	str.w	r2, [r3, #128]	; 0x80
801000cc:	2200      	movs	r2, #0
801000ce:	f2c0 2202 	movt	r2, #514	; 0x202
801000d2:	2300      	movs	r3, #0
801000d4:	f2c0 2302 	movt	r3, #514	; 0x202
801000d8:	f8d3 3084 	ldr.w	r3, [r3, #132]	; 0x84
801000dc:	f443 4380 	orr.w	r3, r3, #16384	; 0x4000
801000e0:	f043 0326 	orr.w	r3, r3, #38	; 0x26
801000e4:	f8c2 3084 	str.w	r3, [r2, #132]	; 0x84
801000e8:	2300      	movs	r3, #0
801000ea:	f2c0 2302 	movt	r3, #514	; 0x202
801000ee:	2200      	movs	r2, #0
801000f0:	f2c0 2202 	movt	r2, #514	; 0x202
801000f4:	f8d2 2088 	ldr.w	r2, [r2, #136]	; 0x88
801000f8:	f042 0204 	orr.w	r2, r2, #4
801000fc:	f8c3 2088 	str.w	r2, [r3, #136]	; 0x88
80100100:	2300      	movs	r3, #0
80100102:	f2c0 2302 	movt	r3, #514	; 0x202
80100106:	f44f 7220 	mov.w	r2, #640	; 0x280
8010010a:	f8c3 2090 	str.w	r2, [r3, #144]	; 0x90
8010010e:	2300      	movs	r3, #0
80100110:	f2c0 2302 	movt	r3, #514	; 0x202
80100114:	2247      	movs	r2, #71	; 0x47
80100116:	f8c3 20a4 	str.w	r2, [r3, #164]	; 0xa4
8010011a:	2300      	movs	r3, #0
8010011c:	f2c0 2302 	movt	r3, #514	; 0x202
80100120:	f640 4234 	movw	r2, #3124	; 0xc34
80100124:	f8c3 20a8 	str.w	r2, [r3, #168]	; 0xa8
80100128:	2300      	movs	r3, #0
8010012a:	f2c0 2302 	movt	r3, #514	; 0x202
8010012e:	2200      	movs	r2, #0
80100130:	f2c0 2202 	movt	r2, #514	; 0x202
80100134:	f8d2 2080 	ldr.w	r2, [r2, #128]	; 0x80
80100138:	f042 0201 	orr.w	r2, r2, #1
8010013c:	f8c3 2080 	str.w	r2, [r3, #128]	; 0x80
80100140:	bf00      	nop
80100142:	46bd      	mov	sp, r7
80100144:	f85d 7b04 	ldr.w	r7, [sp], #4
80100148:	4770      	bx	lr

8010014a <PutChar>:
8010014a:	b480      	push	{r7}
8010014c:	b083      	sub	sp, #12
8010014e:	af00      	add	r7, sp, #0
80100150:	6078      	str	r0, [r7, #4]
80100152:	bf00      	nop
80100154:	2300      	movs	r3, #0
80100156:	f2c0 2302 	movt	r3, #514	; 0x202
8010015a:	f8d3 3098 	ldr.w	r3, [r3, #152]	; 0x98
8010015e:	f003 0308 	and.w	r3, r3, #8
80100162:	2b00      	cmp	r3, #0
80100164:	d0f6      	beq.n	80100154 <PutChar+0xa>
80100166:	2300      	movs	r3, #0
80100168:	f2c0 2302 	movt	r3, #514	; 0x202
8010016c:	687a      	ldr	r2, [r7, #4]
8010016e:	b2d2      	uxtb	r2, r2
80100170:	641a      	str	r2, [r3, #64]	; 0x40
80100172:	bf00      	nop
80100174:	370c      	adds	r7, #12
80100176:	46bd      	mov	sp, r7
80100178:	f85d 7b04 	ldr.w	r7, [sp], #4
8010017c:	4770      	bx	lr

8010017e <GetChar>:
8010017e:	b480      	push	{r7}
80100180:	af00      	add	r7, sp, #0
80100182:	bf00      	nop
80100184:	2300      	movs	r3, #0
80100186:	f2c0 2302 	movt	r3, #514	; 0x202
8010018a:	f8d3 3098 	ldr.w	r3, [r3, #152]	; 0x98
8010018e:	f003 0301 	and.w	r3, r3, #1
80100192:	2b00      	cmp	r3, #0
80100194:	d0f6      	beq.n	80100184 <GetChar+0x6>
80100196:	2300      	movs	r3, #0
80100198:	f2c0 2302 	movt	r3, #514	; 0x202
8010019c:	681b      	ldr	r3, [r3, #0]
8010019e:	b2db      	uxtb	r3, r3
801001a0:	4618      	mov	r0, r3
801001a2:	46bd      	mov	sp, r7
801001a4:	f85d 7b04 	ldr.w	r7, [sp], #4
801001a8:	4770      	bx	lr

801001aa <PutStr>:
801001aa:	b580      	push	{r7, lr}
801001ac:	b082      	sub	sp, #8
801001ae:	af00      	add	r7, sp, #0
801001b0:	6078      	str	r0, [r7, #4]
801001b2:	e007      	b.n	801001c4 <PutStr+0x1a>
801001b4:	687b      	ldr	r3, [r7, #4]
801001b6:	781b      	ldrb	r3, [r3, #0]
801001b8:	4618      	mov	r0, r3
801001ba:	f7ff ffc6 	bl	8010014a <PutChar>
801001be:	687b      	ldr	r3, [r7, #4]
801001c0:	3301      	adds	r3, #1
801001c2:	607b      	str	r3, [r7, #4]
801001c4:	687b      	ldr	r3, [r7, #4]
801001c6:	781b      	ldrb	r3, [r3, #0]
801001c8:	2b00      	cmp	r3, #0
801001ca:	d1f3      	bne.n	801001b4 <PutStr+0xa>
801001cc:	bf00      	nop
801001ce:	3708      	adds	r7, #8
801001d0:	46bd      	mov	sp, r7
801001d2:	bd80      	pop	{r7, pc}

801001d4 <raise>:
801001d4:	b480      	push	{r7}
801001d6:	b083      	sub	sp, #12
801001d8:	af00      	add	r7, sp, #0
801001da:	6078      	str	r0, [r7, #4]
801001dc:	2300      	movs	r3, #0
801001de:	4618      	mov	r0, r3
801001e0:	370c      	adds	r7, #12
801001e2:	46bd      	mov	sp, r7
801001e4:	f85d 7b04 	ldr.w	r7, [sp], #4
801001e8:	4770      	bx	lr

801001ea <delay>:
801001ea:	b480      	push	{r7}
801001ec:	b083      	sub	sp, #12
801001ee:	af00      	add	r7, sp, #0
801001f0:	6078      	str	r0, [r7, #4]
801001f2:	bf00      	nop
801001f4:	687b      	ldr	r3, [r7, #4]
801001f6:	1e5a      	subs	r2, r3, #1
801001f8:	607a      	str	r2, [r7, #4]
801001fa:	2b00      	cmp	r3, #0
801001fc:	d1fa      	bne.n	801001f4 <delay+0xa>
801001fe:	bf00      	nop
80100200:	370c      	adds	r7, #12
80100202:	46bd      	mov	sp, r7
80100204:	f85d 7b04 	ldr.w	r7, [sp], #4
80100208:	4770      	bx	lr

8010020a <main>:
8010020a:	b580      	push	{r7, lr}
8010020c:	af00      	add	r7, sp, #0
8010020e:	f7ff ff31 	bl	80100074 <Uart_Init>
80100212:	f640 00a8 	movw	r0, #2216	; 0x8a8
80100216:	f2c8 0010 	movt	r0, #32784	; 0x8010
8010021a:	f000 f96f 	bl	801004fc <printf>
8010021e:	f240 0300 	movw	r3, #0
80100222:	f2c0 0390 	movt	r3, #144	; 0x90
80100226:	781b      	ldrb	r3, [r3, #0]
80100228:	4618      	mov	r0, r3
8010022a:	f7ff ff8e 	bl	8010014a <PutChar>
8010022e:	f240 0300 	movw	r3, #0
80100232:	f2c0 0390 	movt	r3, #144	; 0x90
80100236:	781b      	ldrb	r3, [r3, #0]
80100238:	3301      	adds	r3, #1
8010023a:	b2da      	uxtb	r2, r3
8010023c:	f240 0300 	movw	r3, #0
80100240:	f2c0 0390 	movt	r3, #144	; 0x90
80100244:	701a      	strb	r2, [r3, #0]
80100246:	f244 2040 	movw	r0, #16960	; 0x4240
8010024a:	f2c0 000f 	movt	r0, #15
8010024e:	f7ff ffcc 	bl	801001ea <delay>
80100252:	e7e4      	b.n	8010021e <main+0x14>

80100254 <outc>:
80100254:	b580      	push	{r7, lr}
80100256:	b082      	sub	sp, #8
80100258:	af00      	add	r7, sp, #0
8010025a:	6078      	str	r0, [r7, #4]
8010025c:	6878      	ldr	r0, [r7, #4]
8010025e:	f7ff ff74 	bl	8010014a <PutChar>
80100262:	2300      	movs	r3, #0
80100264:	4618      	mov	r0, r3
80100266:	3708      	adds	r7, #8
80100268:	46bd      	mov	sp, r7
8010026a:	bd80      	pop	{r7, pc}

8010026c <outs>:
8010026c:	b580      	push	{r7, lr}
8010026e:	b082      	sub	sp, #8
80100270:	af00      	add	r7, sp, #0
80100272:	6078      	str	r0, [r7, #4]
80100274:	e006      	b.n	80100284 <outs+0x18>
80100276:	687b      	ldr	r3, [r7, #4]
80100278:	1c5a      	adds	r2, r3, #1
8010027a:	607a      	str	r2, [r7, #4]
8010027c:	781b      	ldrb	r3, [r3, #0]
8010027e:	4618      	mov	r0, r3
80100280:	f7ff ff63 	bl	8010014a <PutChar>
80100284:	687b      	ldr	r3, [r7, #4]
80100286:	781b      	ldrb	r3, [r3, #0]
80100288:	2b00      	cmp	r3, #0
8010028a:	d1f4      	bne.n	80100276 <outs+0xa>
8010028c:	2300      	movs	r3, #0
8010028e:	4618      	mov	r0, r3
80100290:	3708      	adds	r7, #8
80100292:	46bd      	mov	sp, r7
80100294:	bd80      	pop	{r7, pc}

80100296 <out_num>:
80100296:	b580      	push	{r7, lr}
80100298:	b098      	sub	sp, #96	; 0x60
8010029a:	af00      	add	r7, sp, #0
8010029c:	60f8      	str	r0, [r7, #12]
8010029e:	60b9      	str	r1, [r7, #8]
801002a0:	603b      	str	r3, [r7, #0]
801002a2:	4613      	mov	r3, r2
801002a4:	71fb      	strb	r3, [r7, #7]
801002a6:	2300      	movs	r3, #0
801002a8:	65fb      	str	r3, [r7, #92]	; 0x5c
801002aa:	f107 0310 	add.w	r3, r7, #16
801002ae:	3340      	adds	r3, #64	; 0x40
801002b0:	65bb      	str	r3, [r7, #88]	; 0x58
801002b2:	2300      	movs	r3, #0
801002b4:	657b      	str	r3, [r7, #84]	; 0x54
801002b6:	2300      	movs	r3, #0
801002b8:	653b      	str	r3, [r7, #80]	; 0x50
801002ba:	6dbb      	ldr	r3, [r7, #88]	; 0x58
801002bc:	3b01      	subs	r3, #1
801002be:	65bb      	str	r3, [r7, #88]	; 0x58
801002c0:	6dbb      	ldr	r3, [r7, #88]	; 0x58
801002c2:	2200      	movs	r2, #0
801002c4:	701a      	strb	r2, [r3, #0]
801002c6:	68fb      	ldr	r3, [r7, #12]
801002c8:	2b00      	cmp	r3, #0
801002ca:	da03      	bge.n	801002d4 <out_num+0x3e>
801002cc:	68fb      	ldr	r3, [r7, #12]
801002ce:	425b      	negs	r3, r3
801002d0:	65fb      	str	r3, [r7, #92]	; 0x5c
801002d2:	e001      	b.n	801002d8 <out_num+0x42>
801002d4:	68fb      	ldr	r3, [r7, #12]
801002d6:	65fb      	str	r3, [r7, #92]	; 0x5c
801002d8:	6dbb      	ldr	r3, [r7, #88]	; 0x58
801002da:	3b01      	subs	r3, #1
801002dc:	65bb      	str	r3, [r7, #88]	; 0x58
801002de:	68ba      	ldr	r2, [r7, #8]
801002e0:	6dfb      	ldr	r3, [r7, #92]	; 0x5c
801002e2:	4611      	mov	r1, r2
801002e4:	4618      	mov	r0, r3
801002e6:	f000 fac9 	bl	8010087c <__aeabi_uidivmod>
801002ea:	460b      	mov	r3, r1
801002ec:	461a      	mov	r2, r3
801002ee:	f240 0304 	movw	r3, #4
801002f2:	f2c0 0390 	movt	r3, #144	; 0x90
801002f6:	5c9a      	ldrb	r2, [r3, r2]
801002f8:	6dbb      	ldr	r3, [r7, #88]	; 0x58
801002fa:	701a      	strb	r2, [r3, #0]
801002fc:	6d7b      	ldr	r3, [r7, #84]	; 0x54
801002fe:	3301      	adds	r3, #1
80100300:	657b      	str	r3, [r7, #84]	; 0x54
80100302:	68bb      	ldr	r3, [r7, #8]
80100304:	4619      	mov	r1, r3
80100306:	6df8      	ldr	r0, [r7, #92]	; 0x5c
80100308:	f000 f98a 	bl	80100620 <__aeabi_uidiv>
8010030c:	4603      	mov	r3, r0
8010030e:	65fb      	str	r3, [r7, #92]	; 0x5c
80100310:	6dfb      	ldr	r3, [r7, #92]	; 0x5c
80100312:	2b00      	cmp	r3, #0
80100314:	d1e0      	bne.n	801002d8 <out_num+0x42>
80100316:	683b      	ldr	r3, [r7, #0]
80100318:	2b00      	cmp	r3, #0
8010031a:	d014      	beq.n	80100346 <out_num+0xb0>
8010031c:	6d7a      	ldr	r2, [r7, #84]	; 0x54
8010031e:	683b      	ldr	r3, [r7, #0]
80100320:	429a      	cmp	r2, r3
80100322:	da10      	bge.n	80100346 <out_num+0xb0>
80100324:	683a      	ldr	r2, [r7, #0]
80100326:	6d7b      	ldr	r3, [r7, #84]	; 0x54
80100328:	1ad3      	subs	r3, r2, r3
8010032a:	653b      	str	r3, [r7, #80]	; 0x50
8010032c:	e008      	b.n	80100340 <out_num+0xaa>
8010032e:	6dbb      	ldr	r3, [r7, #88]	; 0x58
80100330:	3b01      	subs	r3, #1
80100332:	65bb      	str	r3, [r7, #88]	; 0x58
80100334:	6dbb      	ldr	r3, [r7, #88]	; 0x58
80100336:	79fa      	ldrb	r2, [r7, #7]
80100338:	701a      	strb	r2, [r3, #0]
8010033a:	6d3b      	ldr	r3, [r7, #80]	; 0x50
8010033c:	3b01      	subs	r3, #1
8010033e:	653b      	str	r3, [r7, #80]	; 0x50
80100340:	6d3b      	ldr	r3, [r7, #80]	; 0x50
80100342:	2b00      	cmp	r3, #0
80100344:	d1f3      	bne.n	8010032e <out_num+0x98>
80100346:	68fb      	ldr	r3, [r7, #12]
80100348:	2b00      	cmp	r3, #0
8010034a:	da05      	bge.n	80100358 <out_num+0xc2>
8010034c:	6dbb      	ldr	r3, [r7, #88]	; 0x58
8010034e:	3b01      	subs	r3, #1
80100350:	65bb      	str	r3, [r7, #88]	; 0x58
80100352:	6dbb      	ldr	r3, [r7, #88]	; 0x58
80100354:	222d      	movs	r2, #45	; 0x2d
80100356:	701a      	strb	r2, [r3, #0]
80100358:	6db8      	ldr	r0, [r7, #88]	; 0x58
8010035a:	f7ff ff87 	bl	8010026c <outs>
8010035e:	4603      	mov	r3, r0
80100360:	4618      	mov	r0, r3
80100362:	3760      	adds	r7, #96	; 0x60
80100364:	46bd      	mov	sp, r7
80100366:	bd80      	pop	{r7, pc}

80100368 <my_vprintf>:
80100368:	b580      	push	{r7, lr}
8010036a:	b084      	sub	sp, #16
8010036c:	af00      	add	r7, sp, #0
8010036e:	6078      	str	r0, [r7, #4]
80100370:	6039      	str	r1, [r7, #0]
80100372:	2320      	movs	r3, #32
80100374:	73fb      	strb	r3, [r7, #15]
80100376:	2300      	movs	r3, #0
80100378:	60bb      	str	r3, [r7, #8]
8010037a:	e0b5      	b.n	801004e8 <my_vprintf+0x180>
8010037c:	687b      	ldr	r3, [r7, #4]
8010037e:	781b      	ldrb	r3, [r3, #0]
80100380:	2b25      	cmp	r3, #37	; 0x25
80100382:	d005      	beq.n	80100390 <my_vprintf+0x28>
80100384:	687b      	ldr	r3, [r7, #4]
80100386:	781b      	ldrb	r3, [r3, #0]
80100388:	4618      	mov	r0, r3
8010038a:	f7ff ff63 	bl	80100254 <outc>
8010038e:	e0a8      	b.n	801004e2 <my_vprintf+0x17a>
80100390:	2320      	movs	r3, #32
80100392:	73fb      	strb	r3, [r7, #15]
80100394:	2300      	movs	r3, #0
80100396:	60bb      	str	r3, [r7, #8]
80100398:	687b      	ldr	r3, [r7, #4]
8010039a:	3301      	adds	r3, #1
8010039c:	607b      	str	r3, [r7, #4]
8010039e:	687b      	ldr	r3, [r7, #4]
801003a0:	781b      	ldrb	r3, [r3, #0]
801003a2:	2b30      	cmp	r3, #48	; 0x30
801003a4:	d114      	bne.n	801003d0 <my_vprintf+0x68>
801003a6:	2330      	movs	r3, #48	; 0x30
801003a8:	73fb      	strb	r3, [r7, #15]
801003aa:	687b      	ldr	r3, [r7, #4]
801003ac:	3301      	adds	r3, #1
801003ae:	607b      	str	r3, [r7, #4]
801003b0:	e00e      	b.n	801003d0 <my_vprintf+0x68>
801003b2:	68ba      	ldr	r2, [r7, #8]
801003b4:	4613      	mov	r3, r2
801003b6:	009b      	lsls	r3, r3, #2
801003b8:	4413      	add	r3, r2
801003ba:	005b      	lsls	r3, r3, #1
801003bc:	60bb      	str	r3, [r7, #8]
801003be:	687b      	ldr	r3, [r7, #4]
801003c0:	781b      	ldrb	r3, [r3, #0]
801003c2:	3b30      	subs	r3, #48	; 0x30
801003c4:	68ba      	ldr	r2, [r7, #8]
801003c6:	4413      	add	r3, r2
801003c8:	60bb      	str	r3, [r7, #8]
801003ca:	687b      	ldr	r3, [r7, #4]
801003cc:	3301      	adds	r3, #1
801003ce:	607b      	str	r3, [r7, #4]
801003d0:	687b      	ldr	r3, [r7, #4]
801003d2:	781b      	ldrb	r3, [r3, #0]
801003d4:	2b2f      	cmp	r3, #47	; 0x2f
801003d6:	d903      	bls.n	801003e0 <my_vprintf+0x78>
801003d8:	687b      	ldr	r3, [r7, #4]
801003da:	781b      	ldrb	r3, [r3, #0]
801003dc:	2b39      	cmp	r3, #57	; 0x39
801003de:	d9e8      	bls.n	801003b2 <my_vprintf+0x4a>
801003e0:	687b      	ldr	r3, [r7, #4]
801003e2:	781b      	ldrb	r3, [r3, #0]
801003e4:	3b63      	subs	r3, #99	; 0x63
801003e6:	2b15      	cmp	r3, #21
801003e8:	d875      	bhi.n	801004d6 <my_vprintf+0x16e>
801003ea:	a201      	add	r2, pc, #4	; (adr r2, 801003f0 <my_vprintf+0x88>)
801003ec:	f852 f023 	ldr.w	pc, [r2, r3, lsl #2]
801003f0:	801004af 	andshi	r0, r0, pc, lsr #9
801003f4:	80100449 	andshi	r0, r0, r9, asr #8
801003f8:	801004d7 			; <UNDEFINED> instruction: 0x801004d7
801003fc:	801004d7 			; <UNDEFINED> instruction: 0x801004d7
80100400:	801004d7 			; <UNDEFINED> instruction: 0x801004d7
80100404:	801004d7 			; <UNDEFINED> instruction: 0x801004d7
80100408:	801004d7 			; <UNDEFINED> instruction: 0x801004d7
8010040c:	801004d7 			; <UNDEFINED> instruction: 0x801004d7
80100410:	801004d7 			; <UNDEFINED> instruction: 0x801004d7
80100414:	801004d7 			; <UNDEFINED> instruction: 0x801004d7
80100418:	801004d7 			; <UNDEFINED> instruction: 0x801004d7
8010041c:	801004d7 			; <UNDEFINED> instruction: 0x801004d7
80100420:	80100461 	andshi	r0, r0, r1, ror #8
80100424:	801004d7 			; <UNDEFINED> instruction: 0x801004d7
80100428:	801004d7 			; <UNDEFINED> instruction: 0x801004d7
8010042c:	801004d7 			; <UNDEFINED> instruction: 0x801004d7
80100430:	801004c3 	andshi	r0, r0, r3, asr #9
80100434:	801004d7 			; <UNDEFINED> instruction: 0x801004d7
80100438:	8010047b 	andshi	r0, r0, fp, ror r4
8010043c:	801004d7 			; <UNDEFINED> instruction: 0x801004d7
80100440:	801004d7 			; <UNDEFINED> instruction: 0x801004d7
80100444:	80100495 	mulshi	r0, r5, r4
80100448:	683b      	ldr	r3, [r7, #0]
8010044a:	3304      	adds	r3, #4
8010044c:	603b      	str	r3, [r7, #0]
8010044e:	683b      	ldr	r3, [r7, #0]
80100450:	3b04      	subs	r3, #4
80100452:	6818      	ldr	r0, [r3, #0]
80100454:	7bfa      	ldrb	r2, [r7, #15]
80100456:	68bb      	ldr	r3, [r7, #8]
80100458:	210a      	movs	r1, #10
8010045a:	f7ff ff1c 	bl	80100296 <out_num>
8010045e:	e040      	b.n	801004e2 <my_vprintf+0x17a>
80100460:	683b      	ldr	r3, [r7, #0]
80100462:	3304      	adds	r3, #4
80100464:	603b      	str	r3, [r7, #0]
80100466:	683b      	ldr	r3, [r7, #0]
80100468:	3b04      	subs	r3, #4
8010046a:	681b      	ldr	r3, [r3, #0]
8010046c:	4618      	mov	r0, r3
8010046e:	7bfa      	ldrb	r2, [r7, #15]
80100470:	68bb      	ldr	r3, [r7, #8]
80100472:	2108      	movs	r1, #8
80100474:	f7ff ff0f 	bl	80100296 <out_num>
80100478:	e033      	b.n	801004e2 <my_vprintf+0x17a>
8010047a:	683b      	ldr	r3, [r7, #0]
8010047c:	3304      	adds	r3, #4
8010047e:	603b      	str	r3, [r7, #0]
80100480:	683b      	ldr	r3, [r7, #0]
80100482:	3b04      	subs	r3, #4
80100484:	681b      	ldr	r3, [r3, #0]
80100486:	4618      	mov	r0, r3
80100488:	7bfa      	ldrb	r2, [r7, #15]
8010048a:	68bb      	ldr	r3, [r7, #8]
8010048c:	210a      	movs	r1, #10
8010048e:	f7ff ff02 	bl	80100296 <out_num>
80100492:	e026      	b.n	801004e2 <my_vprintf+0x17a>
80100494:	683b      	ldr	r3, [r7, #0]
80100496:	3304      	adds	r3, #4
80100498:	603b      	str	r3, [r7, #0]
8010049a:	683b      	ldr	r3, [r7, #0]
8010049c:	3b04      	subs	r3, #4
8010049e:	681b      	ldr	r3, [r3, #0]
801004a0:	4618      	mov	r0, r3
801004a2:	7bfa      	ldrb	r2, [r7, #15]
801004a4:	68bb      	ldr	r3, [r7, #8]
801004a6:	2110      	movs	r1, #16
801004a8:	f7ff fef5 	bl	80100296 <out_num>
801004ac:	e019      	b.n	801004e2 <my_vprintf+0x17a>
801004ae:	683b      	ldr	r3, [r7, #0]
801004b0:	3304      	adds	r3, #4
801004b2:	603b      	str	r3, [r7, #0]
801004b4:	683b      	ldr	r3, [r7, #0]
801004b6:	3b04      	subs	r3, #4
801004b8:	681b      	ldr	r3, [r3, #0]
801004ba:	4618      	mov	r0, r3
801004bc:	f7ff feca 	bl	80100254 <outc>
801004c0:	e00f      	b.n	801004e2 <my_vprintf+0x17a>
801004c2:	683b      	ldr	r3, [r7, #0]
801004c4:	3304      	adds	r3, #4
801004c6:	603b      	str	r3, [r7, #0]
801004c8:	683b      	ldr	r3, [r7, #0]
801004ca:	3b04      	subs	r3, #4
801004cc:	681b      	ldr	r3, [r3, #0]
801004ce:	4618      	mov	r0, r3
801004d0:	f7ff fecc 	bl	8010026c <outs>
801004d4:	e005      	b.n	801004e2 <my_vprintf+0x17a>
801004d6:	687b      	ldr	r3, [r7, #4]
801004d8:	781b      	ldrb	r3, [r3, #0]
801004da:	4618      	mov	r0, r3
801004dc:	f7ff feba 	bl	80100254 <outc>
801004e0:	bf00      	nop
801004e2:	687b      	ldr	r3, [r7, #4]
801004e4:	3301      	adds	r3, #1
801004e6:	607b      	str	r3, [r7, #4]
801004e8:	687b      	ldr	r3, [r7, #4]
801004ea:	781b      	ldrb	r3, [r3, #0]
801004ec:	2b00      	cmp	r3, #0
801004ee:	f47f af45 	bne.w	8010037c <my_vprintf+0x14>
801004f2:	2300      	movs	r3, #0
801004f4:	4618      	mov	r0, r3
801004f6:	3710      	adds	r7, #16
801004f8:	46bd      	mov	sp, r7
801004fa:	bd80      	pop	{r7, pc}

801004fc <printf>:
801004fc:	b40f      	push	{r0, r1, r2, r3}
801004fe:	b580      	push	{r7, lr}
80100500:	b082      	sub	sp, #8
80100502:	af00      	add	r7, sp, #0
80100504:	f107 0314 	add.w	r3, r7, #20
80100508:	607b      	str	r3, [r7, #4]
8010050a:	693b      	ldr	r3, [r7, #16]
8010050c:	6879      	ldr	r1, [r7, #4]
8010050e:	4618      	mov	r0, r3
80100510:	f7ff ff2a 	bl	80100368 <my_vprintf>
80100514:	2300      	movs	r3, #0
80100516:	607b      	str	r3, [r7, #4]
80100518:	2300      	movs	r3, #0
8010051a:	4618      	mov	r0, r3
8010051c:	3708      	adds	r7, #8
8010051e:	46bd      	mov	sp, r7
80100520:	e8bd 4080 	ldmia.w	sp!, {r7, lr}
80100524:	b004      	add	sp, #16
80100526:	4770      	bx	lr

80100528 <my_printf_test>:
80100528:	b580      	push	{r7, lr}
8010052a:	af00      	add	r7, sp, #0
8010052c:	f640 00ac 	movw	r0, #2220	; 0x8ac
80100530:	f2c8 0010 	movt	r0, #32784	; 0x8010
80100534:	f7ff ffe2 	bl	801004fc <printf>
80100538:	2261      	movs	r2, #97	; 0x61
8010053a:	2141      	movs	r1, #65	; 0x41
8010053c:	f640 00d8 	movw	r0, #2264	; 0x8d8
80100540:	f2c8 0010 	movt	r0, #32784	; 0x8010
80100544:	f7ff ffda 	bl	801004fc <printf>
80100548:	f24e 2140 	movw	r1, #57920	; 0xe240
8010054c:	f2c0 0101 	movt	r1, #1
80100550:	f640 00f8 	movw	r0, #2296	; 0x8f8
80100554:	f2c8 0010 	movt	r0, #32784	; 0x8010
80100558:	f7ff ffd0 	bl	801004fc <printf>
8010055c:	f44f 51ee 	mov.w	r1, #7616	; 0x1dc0
80100560:	f6cf 71fe 	movt	r1, #65534	; 0xfffe
80100564:	f640 00f8 	movw	r0, #2296	; 0x8f8
80100568:	f2c8 0010 	movt	r0, #32784	; 0x8010
8010056c:	f7ff ffc6 	bl	801004fc <printf>
80100570:	f245 51aa 	movw	r1, #21930	; 0x55aa
80100574:	f2c5 51aa 	movt	r1, #21930	; 0x55aa
80100578:	f640 1014 	movw	r0, #2324	; 0x914
8010057c:	f2c8 0010 	movt	r0, #32784	; 0x8010
80100580:	f7ff ffbc 	bl	801004fc <printf>
80100584:	f640 1130 	movw	r1, #2352	; 0x930
80100588:	f2c8 0110 	movt	r1, #32784	; 0x8010
8010058c:	f640 1040 	movw	r0, #2368	; 0x940
80100590:	f2c8 0010 	movt	r0, #32784	; 0x8010
80100594:	f7ff ffb2 	bl	801004fc <printf>
80100598:	f243 0139 	movw	r1, #12345	; 0x3039
8010059c:	f640 105c 	movw	r0, #2396	; 0x95c
801005a0:	f2c8 0010 	movt	r0, #32784	; 0x8010
801005a4:	f7ff ffaa 	bl	801004fc <printf>
801005a8:	f243 0139 	movw	r1, #12345	; 0x3039
801005ac:	f640 1068 	movw	r0, #2408	; 0x968
801005b0:	f2c8 0010 	movt	r0, #32784	; 0x8010
801005b4:	f7ff ffa2 	bl	801004fc <printf>
801005b8:	f242 3145 	movw	r1, #9029	; 0x2345
801005bc:	f2c0 0101 	movt	r1, #1
801005c0:	f640 1074 	movw	r0, #2420	; 0x974
801005c4:	f2c8 0010 	movt	r0, #32784	; 0x8010
801005c8:	f7ff ff98 	bl	801004fc <printf>
801005cc:	f242 3145 	movw	r1, #9029	; 0x2345
801005d0:	f2c0 0101 	movt	r1, #1
801005d4:	f640 1084 	movw	r0, #2436	; 0x984
801005d8:	f2c8 0010 	movt	r0, #32784	; 0x8010
801005dc:	f7ff ff8e 	bl	801004fc <printf>
801005e0:	2101      	movs	r1, #1
801005e2:	f640 1090 	movw	r0, #2448	; 0x990
801005e6:	f2c8 0010 	movt	r0, #32784	; 0x8010
801005ea:	f7ff ff87 	bl	801004fc <printf>
801005ee:	2101      	movs	r1, #1
801005f0:	f640 10a0 	movw	r0, #2464	; 0x9a0
801005f4:	f2c8 0010 	movt	r0, #32784	; 0x8010
801005f8:	f7ff ff80 	bl	801004fc <printf>
801005fc:	2101      	movs	r1, #1
801005fe:	f640 10ac 	movw	r0, #2476	; 0x9ac
80100602:	f2c8 0010 	movt	r0, #32784	; 0x8010
80100606:	f7ff ff79 	bl	801004fc <printf>
8010060a:	2101      	movs	r1, #1
8010060c:	f640 10b8 	movw	r0, #2488	; 0x9b8
80100610:	f2c8 0010 	movt	r0, #32784	; 0x8010
80100614:	f7ff ff72 	bl	801004fc <printf>
80100618:	2300      	movs	r3, #0
8010061a:	4618      	mov	r0, r3
8010061c:	bd80      	pop	{r7, pc}
8010061e:	bf00      	nop

80100620 <__aeabi_uidiv>:
80100620:	1e4a      	subs	r2, r1, #1
80100622:	bf08      	it	eq
80100624:	4770      	bxeq	lr
80100626:	f0c0 8124 	bcc.w	80100872 <__aeabi_uidiv+0x252>
8010062a:	4288      	cmp	r0, r1
8010062c:	f240 8116 	bls.w	8010085c <__aeabi_uidiv+0x23c>
80100630:	4211      	tst	r1, r2
80100632:	f000 8117 	beq.w	80100864 <__aeabi_uidiv+0x244>
80100636:	fab0 f380 	clz	r3, r0
8010063a:	fab1 f281 	clz	r2, r1
8010063e:	eba2 0303 	sub.w	r3, r2, r3
80100642:	f1c3 031f 	rsb	r3, r3, #31
80100646:	a204      	add	r2, pc, #16	; (adr r2, 80100658 <__aeabi_uidiv+0x38>)
80100648:	eb02 1303 	add.w	r3, r2, r3, lsl #4
8010064c:	f04f 0200 	mov.w	r2, #0
80100650:	469f      	mov	pc, r3
80100652:	bf00      	nop
80100654:	f3af 8000 	nop.w
80100658:	ebb0 7fc1 	cmp.w	r0, r1, lsl #31
8010065c:	bf00      	nop
8010065e:	eb42 0202 	adc.w	r2, r2, r2
80100662:	bf28      	it	cs
80100664:	eba0 70c1 	subcs.w	r0, r0, r1, lsl #31
80100668:	ebb0 7f81 	cmp.w	r0, r1, lsl #30
8010066c:	bf00      	nop
8010066e:	eb42 0202 	adc.w	r2, r2, r2
80100672:	bf28      	it	cs
80100674:	eba0 7081 	subcs.w	r0, r0, r1, lsl #30
80100678:	ebb0 7f41 	cmp.w	r0, r1, lsl #29
8010067c:	bf00      	nop
8010067e:	eb42 0202 	adc.w	r2, r2, r2
80100682:	bf28      	it	cs
80100684:	eba0 7041 	subcs.w	r0, r0, r1, lsl #29
80100688:	ebb0 7f01 	cmp.w	r0, r1, lsl #28
8010068c:	bf00      	nop
8010068e:	eb42 0202 	adc.w	r2, r2, r2
80100692:	bf28      	it	cs
80100694:	eba0 7001 	subcs.w	r0, r0, r1, lsl #28
80100698:	ebb0 6fc1 	cmp.w	r0, r1, lsl #27
8010069c:	bf00      	nop
8010069e:	eb42 0202 	adc.w	r2, r2, r2
801006a2:	bf28      	it	cs
801006a4:	eba0 60c1 	subcs.w	r0, r0, r1, lsl #27
801006a8:	ebb0 6f81 	cmp.w	r0, r1, lsl #26
801006ac:	bf00      	nop
801006ae:	eb42 0202 	adc.w	r2, r2, r2
801006b2:	bf28      	it	cs
801006b4:	eba0 6081 	subcs.w	r0, r0, r1, lsl #26
801006b8:	ebb0 6f41 	cmp.w	r0, r1, lsl #25
801006bc:	bf00      	nop
801006be:	eb42 0202 	adc.w	r2, r2, r2
801006c2:	bf28      	it	cs
801006c4:	eba0 6041 	subcs.w	r0, r0, r1, lsl #25
801006c8:	ebb0 6f01 	cmp.w	r0, r1, lsl #24
801006cc:	bf00      	nop
801006ce:	eb42 0202 	adc.w	r2, r2, r2
801006d2:	bf28      	it	cs
801006d4:	eba0 6001 	subcs.w	r0, r0, r1, lsl #24
801006d8:	ebb0 5fc1 	cmp.w	r0, r1, lsl #23
801006dc:	bf00      	nop
801006de:	eb42 0202 	adc.w	r2, r2, r2
801006e2:	bf28      	it	cs
801006e4:	eba0 50c1 	subcs.w	r0, r0, r1, lsl #23
801006e8:	ebb0 5f81 	cmp.w	r0, r1, lsl #22
801006ec:	bf00      	nop
801006ee:	eb42 0202 	adc.w	r2, r2, r2
801006f2:	bf28      	it	cs
801006f4:	eba0 5081 	subcs.w	r0, r0, r1, lsl #22
801006f8:	ebb0 5f41 	cmp.w	r0, r1, lsl #21
801006fc:	bf00      	nop
801006fe:	eb42 0202 	adc.w	r2, r2, r2
80100702:	bf28      	it	cs
80100704:	eba0 5041 	subcs.w	r0, r0, r1, lsl #21
80100708:	ebb0 5f01 	cmp.w	r0, r1, lsl #20
8010070c:	bf00      	nop
8010070e:	eb42 0202 	adc.w	r2, r2, r2
80100712:	bf28      	it	cs
80100714:	eba0 5001 	subcs.w	r0, r0, r1, lsl #20
80100718:	ebb0 4fc1 	cmp.w	r0, r1, lsl #19
8010071c:	bf00      	nop
8010071e:	eb42 0202 	adc.w	r2, r2, r2
80100722:	bf28      	it	cs
80100724:	eba0 40c1 	subcs.w	r0, r0, r1, lsl #19
80100728:	ebb0 4f81 	cmp.w	r0, r1, lsl #18
8010072c:	bf00      	nop
8010072e:	eb42 0202 	adc.w	r2, r2, r2
80100732:	bf28      	it	cs
80100734:	eba0 4081 	subcs.w	r0, r0, r1, lsl #18
80100738:	ebb0 4f41 	cmp.w	r0, r1, lsl #17
8010073c:	bf00      	nop
8010073e:	eb42 0202 	adc.w	r2, r2, r2
80100742:	bf28      	it	cs
80100744:	eba0 4041 	subcs.w	r0, r0, r1, lsl #17
80100748:	ebb0 4f01 	cmp.w	r0, r1, lsl #16
8010074c:	bf00      	nop
8010074e:	eb42 0202 	adc.w	r2, r2, r2
80100752:	bf28      	it	cs
80100754:	eba0 4001 	subcs.w	r0, r0, r1, lsl #16
80100758:	ebb0 3fc1 	cmp.w	r0, r1, lsl #15
8010075c:	bf00      	nop
8010075e:	eb42 0202 	adc.w	r2, r2, r2
80100762:	bf28      	it	cs
80100764:	eba0 30c1 	subcs.w	r0, r0, r1, lsl #15
80100768:	ebb0 3f81 	cmp.w	r0, r1, lsl #14
8010076c:	bf00      	nop
8010076e:	eb42 0202 	adc.w	r2, r2, r2
80100772:	bf28      	it	cs
80100774:	eba0 3081 	subcs.w	r0, r0, r1, lsl #14
80100778:	ebb0 3f41 	cmp.w	r0, r1, lsl #13
8010077c:	bf00      	nop
8010077e:	eb42 0202 	adc.w	r2, r2, r2
80100782:	bf28      	it	cs
80100784:	eba0 3041 	subcs.w	r0, r0, r1, lsl #13
80100788:	ebb0 3f01 	cmp.w	r0, r1, lsl #12
8010078c:	bf00      	nop
8010078e:	eb42 0202 	adc.w	r2, r2, r2
80100792:	bf28      	it	cs
80100794:	eba0 3001 	subcs.w	r0, r0, r1, lsl #12
80100798:	ebb0 2fc1 	cmp.w	r0, r1, lsl #11
8010079c:	bf00      	nop
8010079e:	eb42 0202 	adc.w	r2, r2, r2
801007a2:	bf28      	it	cs
801007a4:	eba0 20c1 	subcs.w	r0, r0, r1, lsl #11
801007a8:	ebb0 2f81 	cmp.w	r0, r1, lsl #10
801007ac:	bf00      	nop
801007ae:	eb42 0202 	adc.w	r2, r2, r2
801007b2:	bf28      	it	cs
801007b4:	eba0 2081 	subcs.w	r0, r0, r1, lsl #10
801007b8:	ebb0 2f41 	cmp.w	r0, r1, lsl #9
801007bc:	bf00      	nop
801007be:	eb42 0202 	adc.w	r2, r2, r2
801007c2:	bf28      	it	cs
801007c4:	eba0 2041 	subcs.w	r0, r0, r1, lsl #9
801007c8:	ebb0 2f01 	cmp.w	r0, r1, lsl #8
801007cc:	bf00      	nop
801007ce:	eb42 0202 	adc.w	r2, r2, r2
801007d2:	bf28      	it	cs
801007d4:	eba0 2001 	subcs.w	r0, r0, r1, lsl #8
801007d8:	ebb0 1fc1 	cmp.w	r0, r1, lsl #7
801007dc:	bf00      	nop
801007de:	eb42 0202 	adc.w	r2, r2, r2
801007e2:	bf28      	it	cs
801007e4:	eba0 10c1 	subcs.w	r0, r0, r1, lsl #7
801007e8:	ebb0 1f81 	cmp.w	r0, r1, lsl #6
801007ec:	bf00      	nop
801007ee:	eb42 0202 	adc.w	r2, r2, r2
801007f2:	bf28      	it	cs
801007f4:	eba0 1081 	subcs.w	r0, r0, r1, lsl #6
801007f8:	ebb0 1f41 	cmp.w	r0, r1, lsl #5
801007fc:	bf00      	nop
801007fe:	eb42 0202 	adc.w	r2, r2, r2
80100802:	bf28      	it	cs
80100804:	eba0 1041 	subcs.w	r0, r0, r1, lsl #5
80100808:	ebb0 1f01 	cmp.w	r0, r1, lsl #4
8010080c:	bf00      	nop
8010080e:	eb42 0202 	adc.w	r2, r2, r2
80100812:	bf28      	it	cs
80100814:	eba0 1001 	subcs.w	r0, r0, r1, lsl #4
80100818:	ebb0 0fc1 	cmp.w	r0, r1, lsl #3
8010081c:	bf00      	nop
8010081e:	eb42 0202 	adc.w	r2, r2, r2
80100822:	bf28      	it	cs
80100824:	eba0 00c1 	subcs.w	r0, r0, r1, lsl #3
80100828:	ebb0 0f81 	cmp.w	r0, r1, lsl #2
8010082c:	bf00      	nop
8010082e:	eb42 0202 	adc.w	r2, r2, r2
80100832:	bf28      	it	cs
80100834:	eba0 0081 	subcs.w	r0, r0, r1, lsl #2
80100838:	ebb0 0f41 	cmp.w	r0, r1, lsl #1
8010083c:	bf00      	nop
8010083e:	eb42 0202 	adc.w	r2, r2, r2
80100842:	bf28      	it	cs
80100844:	eba0 0041 	subcs.w	r0, r0, r1, lsl #1
80100848:	ebb0 0f01 	cmp.w	r0, r1
8010084c:	bf00      	nop
8010084e:	eb42 0202 	adc.w	r2, r2, r2
80100852:	bf28      	it	cs
80100854:	eba0 0001 	subcs.w	r0, r0, r1
80100858:	4610      	mov	r0, r2
8010085a:	4770      	bx	lr
8010085c:	bf0c      	ite	eq
8010085e:	2001      	moveq	r0, #1
80100860:	2000      	movne	r0, #0
80100862:	4770      	bx	lr
80100864:	fab1 f281 	clz	r2, r1
80100868:	f1c2 021f 	rsb	r2, r2, #31
8010086c:	fa20 f002 	lsr.w	r0, r0, r2
80100870:	4770      	bx	lr
80100872:	b108      	cbz	r0, 80100878 <__aeabi_uidiv+0x258>
80100874:	f04f 30ff 	mov.w	r0, #4294967295	; 0xffffffff
80100878:	f000 b80e 	b.w	80100898 <__aeabi_idiv0>

8010087c <__aeabi_uidivmod>:
8010087c:	2900      	cmp	r1, #0
8010087e:	d0f8      	beq.n	80100872 <__aeabi_uidiv+0x252>
80100880:	e92d 4003 	stmdb	sp!, {r0, r1, lr}
80100884:	f7ff fecc 	bl	80100620 <__aeabi_uidiv>
80100888:	e8bd 4006 	ldmia.w	sp!, {r1, r2, lr}
8010088c:	fb02 f300 	mul.w	r3, r2, r0
80100890:	eba1 0103 	sub.w	r1, r1, r3
80100894:	4770      	bx	lr
80100896:	bf00      	nop

80100898 <__aeabi_idiv0>:
80100898:	b502      	push	{r1, lr}
8010089a:	f04f 0008 	mov.w	r0, #8
8010089e:	f7ff fc99 	bl	801001d4 <raise>
801008a2:	bd02      	pop	{r1, pc}

Disassembly of section .rodata:

801008a4 <g_charB>:
801008a4:	00000042 	andeq	r0, r0, r2, asr #32

801008a8 <.LC0>:
801008a8:	00000d0a 	andeq	r0, r0, sl, lsl #26

801008ac <.LC0>:
801008ac:	73696854 	cmnvc	r9, #84, 16	; 0x540000
801008b0:	20736920 	rsbscs	r6, r3, r0, lsr #18
801008b4:	2e777777 	mrccs	7, 3, r7, cr7, cr7, {3}
801008b8:	61303031 	teqvs	r0, r1, lsr r0
801008bc:	6f2e6b73 	svcvs	0x002e6b73
801008c0:	20206772 	eorcs	r6, r0, r2, ror r7
801008c4:	5f796d20 	svcpl	0x00796d20
801008c8:	6e697270 	mcrvs	2, 3, r7, cr9, cr0, {3}
801008cc:	74206674 	strtvc	r6, [r0], #-1652	; 0xfffff98c
801008d0:	0a747365 	beq	81e1d66c <data_load_addr+0x1d1cca8>
801008d4:	0000000d 	andeq	r0, r0, sp

801008d8 <.LC1>:
801008d8:	74736574 	ldrbtvc	r6, [r3], #-1396	; 0xfffffa8c
801008dc:	61686320 	cmnvs	r8, r0, lsr #6
801008e0:	20202072 	eorcs	r2, r0, r2, ror r0
801008e4:	20202020 	eorcs	r2, r0, r0, lsr #32
801008e8:	20202020 	eorcs	r2, r0, r0, lsr #32
801008ec:	2c63253d 	cfstr64cs	mvdx2, [r3], #-244	; 0xffffff0c
801008f0:	0d0a6325 	stceq	3, cr6, [sl, #-148]	; 0xffffff6c
801008f4:	00000000 	andeq	r0, r0, r0

801008f8 <.LC2>:
801008f8:	74736574 	ldrbtvc	r6, [r3], #-1396	; 0xfffffa8c
801008fc:	63656420 	cmnvs	r5, #32, 8	; 0x20000000
80100900:	6c616d69 	stclvs	13, cr6, [r1], #-420	; 0xfffffe5c
80100904:	6d756e20 	ldclvs	14, cr6, [r5, #-128]!	; 0xffffff80
80100908:	20726562 	rsbscs	r6, r2, r2, ror #10
8010090c:	0a64253d 	beq	81a09e08 <data_load_addr+0x1909444>
80100910:	0000000d 	andeq	r0, r0, sp

80100914 <.LC3>:
80100914:	74736574 	ldrbtvc	r6, [r3], #-1396	; 0xfffffa8c
80100918:	78656820 	stmdavc	r5!, {r5, fp, sp, lr}^
8010091c:	20202020 	eorcs	r2, r0, r0, lsr #32
80100920:	6d756e20 	ldclvs	14, cr6, [r5, #-128]!	; 0xffffff80
80100924:	20726562 	rsbscs	r6, r2, r2, ror #10
80100928:	2578303d 	ldrbcs	r3, [r8, #-61]!	; 0xffffffc3
8010092c:	000d0a78 	andeq	r0, sp, r8, ror sl

80100930 <.LC4>:
80100930:	2e777777 	mrccs	7, 3, r7, cr7, cr7, {3}
80100934:	61303031 	teqvs	r0, r1, lsr r0
80100938:	6f2e6b73 	svcvs	0x002e6b73
8010093c:	00006772 	andeq	r6, r0, r2, ror r7

80100940 <.LC5>:
80100940:	74736574 	ldrbtvc	r6, [r3], #-1396	; 0xfffffa8c
80100944:	72747320 	rsbsvc	r7, r4, #32, 6	; 0x80000000
80100948:	20676e69 	rsbcs	r6, r7, r9, ror #28
8010094c:	20202020 	eorcs	r2, r0, r0, lsr #32
80100950:	20202020 	eorcs	r2, r0, r0, lsr #32
80100954:	0a73253d 	beq	81dc9e50 <data_load_addr+0x1cc948c>
80100958:	0000000d 	andeq	r0, r0, sp

8010095c <.LC6>:
8010095c:	3d6d756e 	cfstr64cc	mvdx7, [sp, #-440]!	; 0xfffffe48
80100960:	64383025 	ldrtvs	r3, [r8], #-37	; 0xffffffdb
80100964:	00000d0a 	andeq	r0, r0, sl, lsl #26

80100968 <.LC7>:
80100968:	3d6d756e 	cfstr64cc	mvdx7, [sp, #-440]!	; 0xfffffe48
8010096c:	0a643825 	beq	81a0ea08 <data_load_addr+0x190e044>
80100970:	0000000d 	andeq	r0, r0, sp

80100974 <.LC8>:
80100974:	3d6d756e 	cfstr64cc	mvdx7, [sp, #-440]!	; 0xfffffe48
80100978:	30257830 	eorcc	r7, r5, r0, lsr r8
8010097c:	0d0a7838 	stceq	8, cr7, [sl, #-224]	; 0xffffff20
80100980:	00000000 	andeq	r0, r0, r0

80100984 <.LC9>:
80100984:	3d6d756e 	cfstr64cc	mvdx7, [sp, #-440]!	; 0xfffffe48
80100988:	38257830 	stmdacc	r5!, {r4, r5, fp, ip, sp, lr}
8010098c:	000d0a78 	andeq	r0, sp, r8, ror sl

80100990 <.LC10>:
80100990:	3d6d756e 	cfstr64cc	mvdx7, [sp, #-440]!	; 0xfffffe48
80100994:	30257830 	eorcc	r7, r5, r0, lsr r8
80100998:	0d0a7832 	stceq	8, cr7, [sl, #-200]	; 0xffffff38
8010099c:	00000000 	andeq	r0, r0, r0

801009a0 <.LC11>:
801009a0:	3d6d756e 	cfstr64cc	mvdx7, [sp, #-440]!	; 0xfffffe48
801009a4:	32257830 	eorcc	r7, r5, #48, 16	; 0x300000
801009a8:	000d0a78 	andeq	r0, sp, r8, ror sl

801009ac <.LC12>:
801009ac:	3d6d756e 	cfstr64cc	mvdx7, [sp, #-440]!	; 0xfffffe48
801009b0:	64353025 	ldrtvs	r3, [r5], #-37	; 0xffffffdb
801009b4:	00000d0a 	andeq	r0, r0, sl, lsl #26

801009b8 <.LC13>:
801009b8:	3d6d756e 	cfstr64cc	mvdx7, [sp, #-440]!	; 0xfffffe48
801009bc:	0a643525 	beq	81a0de58 <data_load_addr+0x190d494>
801009c0:	Address 0x00000000801009c0 is out of bounds.


Disassembly of section .data:

00900000 <data_start>:
  900000:	00000041 	andeq	r0, r0, r1, asr #32

00900004 <hex_tab>:
  900004:	33323130 	teqcc	r2, #48, 2
  900008:	37363534 			; <UNDEFINED> instruction: 0x37363534
  90000c:	62613938 	rsbvs	r3, r1, #56, 18	; 0xe0000
  900010:	66656463 	strbtvs	r6, [r5], -r3, ror #8

Disassembly of section .bss:

00900014 <__bss_start>:
  900014:	00000000 	andeq	r0, r0, r0

00900018 <IOMUXC_SW_MUX_CTL_PAD_UART1_RX_DATA>:
  900018:	00000000 	andeq	r0, r0, r0

0090001c <g_intA>:
  90001c:	00000000 	andeq	r0, r0, r0

00900020 <g_intB>:
  900020:	00000000 	andeq	r0, r0, r0

00900024 <g_charC>:
	...

