
relocate.elf:     file format elf32-littlearm


Disassembly of section .text:

80100000 <_start>:
80100000:	e59fd00c 	ldr	sp, [pc, #12]	; 80100014 <halt+0x4>
80100004:	fa00016e 	blx	801005c4 <copy_data>
80100008:	fb00017f 	blx	8010060e <clean_bss>
8010000c:	fb000066 	blx	801001ae <main>

80100010 <halt>:
80100010:	eafffffe 	b	80100010 <halt>
80100014:	80200000 	eorhi	r0, r0, r0

80100018 <Uart_Init>:
80100018:	b480      	push	{r7}
8010001a:	af00      	add	r7, sp, #0
8010001c:	f240 0214 	movw	r2, #20
80100020:	f2c0 0290 	movt	r2, #144	; 0x90
80100024:	2384      	movs	r3, #132	; 0x84
80100026:	f2c0 230e 	movt	r3, #526	; 0x20e
8010002a:	6013      	str	r3, [r2, #0]
8010002c:	f240 0218 	movw	r2, #24
80100030:	f2c0 0290 	movt	r2, #144	; 0x90
80100034:	2388      	movs	r3, #136	; 0x88
80100036:	f2c0 230e 	movt	r3, #526	; 0x20e
8010003a:	6013      	str	r3, [r2, #0]
8010003c:	f240 0318 	movw	r3, #24
80100040:	f2c0 0390 	movt	r3, #144	; 0x90
80100044:	681b      	ldr	r3, [r3, #0]
80100046:	2200      	movs	r2, #0
80100048:	601a      	str	r2, [r3, #0]
8010004a:	f240 0314 	movw	r3, #20
8010004e:	f2c0 0390 	movt	r3, #144	; 0x90
80100052:	681b      	ldr	r3, [r3, #0]
80100054:	2200      	movs	r2, #0
80100056:	601a      	str	r2, [r3, #0]
80100058:	2300      	movs	r3, #0
8010005a:	f2c0 2302 	movt	r3, #514	; 0x202
8010005e:	2200      	movs	r2, #0
80100060:	f2c0 2202 	movt	r2, #514	; 0x202
80100064:	f8d2 2080 	ldr.w	r2, [r2, #128]	; 0x80
80100068:	f042 0201 	orr.w	r2, r2, #1
8010006c:	f8c3 2080 	str.w	r2, [r3, #128]	; 0x80
80100070:	2200      	movs	r2, #0
80100072:	f2c0 2202 	movt	r2, #514	; 0x202
80100076:	2300      	movs	r3, #0
80100078:	f2c0 2302 	movt	r3, #514	; 0x202
8010007c:	f8d3 3084 	ldr.w	r3, [r3, #132]	; 0x84
80100080:	f443 4380 	orr.w	r3, r3, #16384	; 0x4000
80100084:	f043 0326 	orr.w	r3, r3, #38	; 0x26
80100088:	f8c2 3084 	str.w	r3, [r2, #132]	; 0x84
8010008c:	2300      	movs	r3, #0
8010008e:	f2c0 2302 	movt	r3, #514	; 0x202
80100092:	2200      	movs	r2, #0
80100094:	f2c0 2202 	movt	r2, #514	; 0x202
80100098:	f8d2 2088 	ldr.w	r2, [r2, #136]	; 0x88
8010009c:	f042 0204 	orr.w	r2, r2, #4
801000a0:	f8c3 2088 	str.w	r2, [r3, #136]	; 0x88
801000a4:	2300      	movs	r3, #0
801000a6:	f2c0 2302 	movt	r3, #514	; 0x202
801000aa:	f44f 7220 	mov.w	r2, #640	; 0x280
801000ae:	f8c3 2090 	str.w	r2, [r3, #144]	; 0x90
801000b2:	2300      	movs	r3, #0
801000b4:	f2c0 2302 	movt	r3, #514	; 0x202
801000b8:	2247      	movs	r2, #71	; 0x47
801000ba:	f8c3 20a4 	str.w	r2, [r3, #164]	; 0xa4
801000be:	2300      	movs	r3, #0
801000c0:	f2c0 2302 	movt	r3, #514	; 0x202
801000c4:	f640 4234 	movw	r2, #3124	; 0xc34
801000c8:	f8c3 20a8 	str.w	r2, [r3, #168]	; 0xa8
801000cc:	2300      	movs	r3, #0
801000ce:	f2c0 2302 	movt	r3, #514	; 0x202
801000d2:	2200      	movs	r2, #0
801000d4:	f2c0 2202 	movt	r2, #514	; 0x202
801000d8:	f8d2 2080 	ldr.w	r2, [r2, #128]	; 0x80
801000dc:	f042 0201 	orr.w	r2, r2, #1
801000e0:	f8c3 2080 	str.w	r2, [r3, #128]	; 0x80
801000e4:	bf00      	nop
801000e6:	46bd      	mov	sp, r7
801000e8:	f85d 7b04 	ldr.w	r7, [sp], #4
801000ec:	4770      	bx	lr

801000ee <PutChar>:
801000ee:	b480      	push	{r7}
801000f0:	b083      	sub	sp, #12
801000f2:	af00      	add	r7, sp, #0
801000f4:	6078      	str	r0, [r7, #4]
801000f6:	bf00      	nop
801000f8:	2300      	movs	r3, #0
801000fa:	f2c0 2302 	movt	r3, #514	; 0x202
801000fe:	f8d3 3098 	ldr.w	r3, [r3, #152]	; 0x98
80100102:	f003 0308 	and.w	r3, r3, #8
80100106:	2b00      	cmp	r3, #0
80100108:	d0f6      	beq.n	801000f8 <PutChar+0xa>
8010010a:	2300      	movs	r3, #0
8010010c:	f2c0 2302 	movt	r3, #514	; 0x202
80100110:	687a      	ldr	r2, [r7, #4]
80100112:	b2d2      	uxtb	r2, r2
80100114:	641a      	str	r2, [r3, #64]	; 0x40
80100116:	bf00      	nop
80100118:	370c      	adds	r7, #12
8010011a:	46bd      	mov	sp, r7
8010011c:	f85d 7b04 	ldr.w	r7, [sp], #4
80100120:	4770      	bx	lr

80100122 <GetChar>:
80100122:	b480      	push	{r7}
80100124:	af00      	add	r7, sp, #0
80100126:	bf00      	nop
80100128:	2300      	movs	r3, #0
8010012a:	f2c0 2302 	movt	r3, #514	; 0x202
8010012e:	f8d3 3098 	ldr.w	r3, [r3, #152]	; 0x98
80100132:	f003 0301 	and.w	r3, r3, #1
80100136:	2b00      	cmp	r3, #0
80100138:	d0f6      	beq.n	80100128 <GetChar+0x6>
8010013a:	2300      	movs	r3, #0
8010013c:	f2c0 2302 	movt	r3, #514	; 0x202
80100140:	681b      	ldr	r3, [r3, #0]
80100142:	b2db      	uxtb	r3, r3
80100144:	4618      	mov	r0, r3
80100146:	46bd      	mov	sp, r7
80100148:	f85d 7b04 	ldr.w	r7, [sp], #4
8010014c:	4770      	bx	lr

8010014e <PutStr>:
8010014e:	b580      	push	{r7, lr}
80100150:	b082      	sub	sp, #8
80100152:	af00      	add	r7, sp, #0
80100154:	6078      	str	r0, [r7, #4]
80100156:	e007      	b.n	80100168 <PutStr+0x1a>
80100158:	687b      	ldr	r3, [r7, #4]
8010015a:	781b      	ldrb	r3, [r3, #0]
8010015c:	4618      	mov	r0, r3
8010015e:	f7ff ffc6 	bl	801000ee <PutChar>
80100162:	687b      	ldr	r3, [r7, #4]
80100164:	3301      	adds	r3, #1
80100166:	607b      	str	r3, [r7, #4]
80100168:	687b      	ldr	r3, [r7, #4]
8010016a:	781b      	ldrb	r3, [r3, #0]
8010016c:	2b00      	cmp	r3, #0
8010016e:	d1f3      	bne.n	80100158 <PutStr+0xa>
80100170:	bf00      	nop
80100172:	3708      	adds	r7, #8
80100174:	46bd      	mov	sp, r7
80100176:	bd80      	pop	{r7, pc}

80100178 <raise>:
80100178:	b480      	push	{r7}
8010017a:	b083      	sub	sp, #12
8010017c:	af00      	add	r7, sp, #0
8010017e:	6078      	str	r0, [r7, #4]
80100180:	2300      	movs	r3, #0
80100182:	4618      	mov	r0, r3
80100184:	370c      	adds	r7, #12
80100186:	46bd      	mov	sp, r7
80100188:	f85d 7b04 	ldr.w	r7, [sp], #4
8010018c:	4770      	bx	lr

8010018e <delay>:
8010018e:	b480      	push	{r7}
80100190:	b083      	sub	sp, #12
80100192:	af00      	add	r7, sp, #0
80100194:	6078      	str	r0, [r7, #4]
80100196:	bf00      	nop
80100198:	687b      	ldr	r3, [r7, #4]
8010019a:	1e5a      	subs	r2, r3, #1
8010019c:	607a      	str	r2, [r7, #4]
8010019e:	2b00      	cmp	r3, #0
801001a0:	d1fa      	bne.n	80100198 <delay+0xa>
801001a2:	bf00      	nop
801001a4:	370c      	adds	r7, #12
801001a6:	46bd      	mov	sp, r7
801001a8:	f85d 7b04 	ldr.w	r7, [sp], #4
801001ac:	4770      	bx	lr

801001ae <main>:
801001ae:	b580      	push	{r7, lr}
801001b0:	af00      	add	r7, sp, #0
801001b2:	f7ff ff31 	bl	80100018 <Uart_Init>
801001b6:	f640 00d0 	movw	r0, #2256	; 0x8d0
801001ba:	f2c8 0010 	movt	r0, #32784	; 0x8010
801001be:	f000 f96f 	bl	801004a0 <printf>
801001c2:	f240 0300 	movw	r3, #0
801001c6:	f2c0 0390 	movt	r3, #144	; 0x90
801001ca:	781b      	ldrb	r3, [r3, #0]
801001cc:	4618      	mov	r0, r3
801001ce:	f7ff ff8e 	bl	801000ee <PutChar>
801001d2:	f240 0300 	movw	r3, #0
801001d6:	f2c0 0390 	movt	r3, #144	; 0x90
801001da:	781b      	ldrb	r3, [r3, #0]
801001dc:	3301      	adds	r3, #1
801001de:	b2da      	uxtb	r2, r3
801001e0:	f240 0300 	movw	r3, #0
801001e4:	f2c0 0390 	movt	r3, #144	; 0x90
801001e8:	701a      	strb	r2, [r3, #0]
801001ea:	f244 2040 	movw	r0, #16960	; 0x4240
801001ee:	f2c0 000f 	movt	r0, #15
801001f2:	f7ff ffcc 	bl	8010018e <delay>
801001f6:	e7e4      	b.n	801001c2 <main+0x14>

801001f8 <outc>:
801001f8:	b580      	push	{r7, lr}
801001fa:	b082      	sub	sp, #8
801001fc:	af00      	add	r7, sp, #0
801001fe:	6078      	str	r0, [r7, #4]
80100200:	6878      	ldr	r0, [r7, #4]
80100202:	f7ff ff74 	bl	801000ee <PutChar>
80100206:	2300      	movs	r3, #0
80100208:	4618      	mov	r0, r3
8010020a:	3708      	adds	r7, #8
8010020c:	46bd      	mov	sp, r7
8010020e:	bd80      	pop	{r7, pc}

80100210 <outs>:
80100210:	b580      	push	{r7, lr}
80100212:	b082      	sub	sp, #8
80100214:	af00      	add	r7, sp, #0
80100216:	6078      	str	r0, [r7, #4]
80100218:	e006      	b.n	80100228 <outs+0x18>
8010021a:	687b      	ldr	r3, [r7, #4]
8010021c:	1c5a      	adds	r2, r3, #1
8010021e:	607a      	str	r2, [r7, #4]
80100220:	781b      	ldrb	r3, [r3, #0]
80100222:	4618      	mov	r0, r3
80100224:	f7ff ff63 	bl	801000ee <PutChar>
80100228:	687b      	ldr	r3, [r7, #4]
8010022a:	781b      	ldrb	r3, [r3, #0]
8010022c:	2b00      	cmp	r3, #0
8010022e:	d1f4      	bne.n	8010021a <outs+0xa>
80100230:	2300      	movs	r3, #0
80100232:	4618      	mov	r0, r3
80100234:	3708      	adds	r7, #8
80100236:	46bd      	mov	sp, r7
80100238:	bd80      	pop	{r7, pc}

8010023a <out_num>:
8010023a:	b580      	push	{r7, lr}
8010023c:	b098      	sub	sp, #96	; 0x60
8010023e:	af00      	add	r7, sp, #0
80100240:	60f8      	str	r0, [r7, #12]
80100242:	60b9      	str	r1, [r7, #8]
80100244:	603b      	str	r3, [r7, #0]
80100246:	4613      	mov	r3, r2
80100248:	71fb      	strb	r3, [r7, #7]
8010024a:	2300      	movs	r3, #0
8010024c:	65fb      	str	r3, [r7, #92]	; 0x5c
8010024e:	f107 0310 	add.w	r3, r7, #16
80100252:	3340      	adds	r3, #64	; 0x40
80100254:	65bb      	str	r3, [r7, #88]	; 0x58
80100256:	2300      	movs	r3, #0
80100258:	657b      	str	r3, [r7, #84]	; 0x54
8010025a:	2300      	movs	r3, #0
8010025c:	653b      	str	r3, [r7, #80]	; 0x50
8010025e:	6dbb      	ldr	r3, [r7, #88]	; 0x58
80100260:	3b01      	subs	r3, #1
80100262:	65bb      	str	r3, [r7, #88]	; 0x58
80100264:	6dbb      	ldr	r3, [r7, #88]	; 0x58
80100266:	2200      	movs	r2, #0
80100268:	701a      	strb	r2, [r3, #0]
8010026a:	68fb      	ldr	r3, [r7, #12]
8010026c:	2b00      	cmp	r3, #0
8010026e:	da03      	bge.n	80100278 <out_num+0x3e>
80100270:	68fb      	ldr	r3, [r7, #12]
80100272:	425b      	negs	r3, r3
80100274:	65fb      	str	r3, [r7, #92]	; 0x5c
80100276:	e001      	b.n	8010027c <out_num+0x42>
80100278:	68fb      	ldr	r3, [r7, #12]
8010027a:	65fb      	str	r3, [r7, #92]	; 0x5c
8010027c:	6dbb      	ldr	r3, [r7, #88]	; 0x58
8010027e:	3b01      	subs	r3, #1
80100280:	65bb      	str	r3, [r7, #88]	; 0x58
80100282:	68ba      	ldr	r2, [r7, #8]
80100284:	6dfb      	ldr	r3, [r7, #92]	; 0x5c
80100286:	4611      	mov	r1, r2
80100288:	4618      	mov	r0, r3
8010028a:	f000 fb0b 	bl	801008a4 <__aeabi_uidivmod>
8010028e:	460b      	mov	r3, r1
80100290:	461a      	mov	r2, r3
80100292:	f240 0304 	movw	r3, #4
80100296:	f2c0 0390 	movt	r3, #144	; 0x90
8010029a:	5c9a      	ldrb	r2, [r3, r2]
8010029c:	6dbb      	ldr	r3, [r7, #88]	; 0x58
8010029e:	701a      	strb	r2, [r3, #0]
801002a0:	6d7b      	ldr	r3, [r7, #84]	; 0x54
801002a2:	3301      	adds	r3, #1
801002a4:	657b      	str	r3, [r7, #84]	; 0x54
801002a6:	68bb      	ldr	r3, [r7, #8]
801002a8:	4619      	mov	r1, r3
801002aa:	6df8      	ldr	r0, [r7, #92]	; 0x5c
801002ac:	f000 f9cc 	bl	80100648 <__aeabi_uidiv>
801002b0:	4603      	mov	r3, r0
801002b2:	65fb      	str	r3, [r7, #92]	; 0x5c
801002b4:	6dfb      	ldr	r3, [r7, #92]	; 0x5c
801002b6:	2b00      	cmp	r3, #0
801002b8:	d1e0      	bne.n	8010027c <out_num+0x42>
801002ba:	683b      	ldr	r3, [r7, #0]
801002bc:	2b00      	cmp	r3, #0
801002be:	d014      	beq.n	801002ea <out_num+0xb0>
801002c0:	6d7a      	ldr	r2, [r7, #84]	; 0x54
801002c2:	683b      	ldr	r3, [r7, #0]
801002c4:	429a      	cmp	r2, r3
801002c6:	da10      	bge.n	801002ea <out_num+0xb0>
801002c8:	683a      	ldr	r2, [r7, #0]
801002ca:	6d7b      	ldr	r3, [r7, #84]	; 0x54
801002cc:	1ad3      	subs	r3, r2, r3
801002ce:	653b      	str	r3, [r7, #80]	; 0x50
801002d0:	e008      	b.n	801002e4 <out_num+0xaa>
801002d2:	6dbb      	ldr	r3, [r7, #88]	; 0x58
801002d4:	3b01      	subs	r3, #1
801002d6:	65bb      	str	r3, [r7, #88]	; 0x58
801002d8:	6dbb      	ldr	r3, [r7, #88]	; 0x58
801002da:	79fa      	ldrb	r2, [r7, #7]
801002dc:	701a      	strb	r2, [r3, #0]
801002de:	6d3b      	ldr	r3, [r7, #80]	; 0x50
801002e0:	3b01      	subs	r3, #1
801002e2:	653b      	str	r3, [r7, #80]	; 0x50
801002e4:	6d3b      	ldr	r3, [r7, #80]	; 0x50
801002e6:	2b00      	cmp	r3, #0
801002e8:	d1f3      	bne.n	801002d2 <out_num+0x98>
801002ea:	68fb      	ldr	r3, [r7, #12]
801002ec:	2b00      	cmp	r3, #0
801002ee:	da05      	bge.n	801002fc <out_num+0xc2>
801002f0:	6dbb      	ldr	r3, [r7, #88]	; 0x58
801002f2:	3b01      	subs	r3, #1
801002f4:	65bb      	str	r3, [r7, #88]	; 0x58
801002f6:	6dbb      	ldr	r3, [r7, #88]	; 0x58
801002f8:	222d      	movs	r2, #45	; 0x2d
801002fa:	701a      	strb	r2, [r3, #0]
801002fc:	6db8      	ldr	r0, [r7, #88]	; 0x58
801002fe:	f7ff ff87 	bl	80100210 <outs>
80100302:	4603      	mov	r3, r0
80100304:	4618      	mov	r0, r3
80100306:	3760      	adds	r7, #96	; 0x60
80100308:	46bd      	mov	sp, r7
8010030a:	bd80      	pop	{r7, pc}

8010030c <my_vprintf>:
8010030c:	b580      	push	{r7, lr}
8010030e:	b084      	sub	sp, #16
80100310:	af00      	add	r7, sp, #0
80100312:	6078      	str	r0, [r7, #4]
80100314:	6039      	str	r1, [r7, #0]
80100316:	2320      	movs	r3, #32
80100318:	73fb      	strb	r3, [r7, #15]
8010031a:	2300      	movs	r3, #0
8010031c:	60bb      	str	r3, [r7, #8]
8010031e:	e0b5      	b.n	8010048c <my_vprintf+0x180>
80100320:	687b      	ldr	r3, [r7, #4]
80100322:	781b      	ldrb	r3, [r3, #0]
80100324:	2b25      	cmp	r3, #37	; 0x25
80100326:	d005      	beq.n	80100334 <my_vprintf+0x28>
80100328:	687b      	ldr	r3, [r7, #4]
8010032a:	781b      	ldrb	r3, [r3, #0]
8010032c:	4618      	mov	r0, r3
8010032e:	f7ff ff63 	bl	801001f8 <outc>
80100332:	e0a8      	b.n	80100486 <my_vprintf+0x17a>
80100334:	2320      	movs	r3, #32
80100336:	73fb      	strb	r3, [r7, #15]
80100338:	2300      	movs	r3, #0
8010033a:	60bb      	str	r3, [r7, #8]
8010033c:	687b      	ldr	r3, [r7, #4]
8010033e:	3301      	adds	r3, #1
80100340:	607b      	str	r3, [r7, #4]
80100342:	687b      	ldr	r3, [r7, #4]
80100344:	781b      	ldrb	r3, [r3, #0]
80100346:	2b30      	cmp	r3, #48	; 0x30
80100348:	d114      	bne.n	80100374 <my_vprintf+0x68>
8010034a:	2330      	movs	r3, #48	; 0x30
8010034c:	73fb      	strb	r3, [r7, #15]
8010034e:	687b      	ldr	r3, [r7, #4]
80100350:	3301      	adds	r3, #1
80100352:	607b      	str	r3, [r7, #4]
80100354:	e00e      	b.n	80100374 <my_vprintf+0x68>
80100356:	68ba      	ldr	r2, [r7, #8]
80100358:	4613      	mov	r3, r2
8010035a:	009b      	lsls	r3, r3, #2
8010035c:	4413      	add	r3, r2
8010035e:	005b      	lsls	r3, r3, #1
80100360:	60bb      	str	r3, [r7, #8]
80100362:	687b      	ldr	r3, [r7, #4]
80100364:	781b      	ldrb	r3, [r3, #0]
80100366:	3b30      	subs	r3, #48	; 0x30
80100368:	68ba      	ldr	r2, [r7, #8]
8010036a:	4413      	add	r3, r2
8010036c:	60bb      	str	r3, [r7, #8]
8010036e:	687b      	ldr	r3, [r7, #4]
80100370:	3301      	adds	r3, #1
80100372:	607b      	str	r3, [r7, #4]
80100374:	687b      	ldr	r3, [r7, #4]
80100376:	781b      	ldrb	r3, [r3, #0]
80100378:	2b2f      	cmp	r3, #47	; 0x2f
8010037a:	d903      	bls.n	80100384 <my_vprintf+0x78>
8010037c:	687b      	ldr	r3, [r7, #4]
8010037e:	781b      	ldrb	r3, [r3, #0]
80100380:	2b39      	cmp	r3, #57	; 0x39
80100382:	d9e8      	bls.n	80100356 <my_vprintf+0x4a>
80100384:	687b      	ldr	r3, [r7, #4]
80100386:	781b      	ldrb	r3, [r3, #0]
80100388:	3b63      	subs	r3, #99	; 0x63
8010038a:	2b15      	cmp	r3, #21
8010038c:	d875      	bhi.n	8010047a <my_vprintf+0x16e>
8010038e:	a201      	add	r2, pc, #4	; (adr r2, 80100394 <my_vprintf+0x88>)
80100390:	f852 f023 	ldr.w	pc, [r2, r3, lsl #2]
80100394:	80100453 	andshi	r0, r0, r3, asr r4
80100398:	801003ed 	andshi	r0, r0, sp, ror #7
8010039c:	8010047b 	andshi	r0, r0, fp, ror r4
801003a0:	8010047b 	andshi	r0, r0, fp, ror r4
801003a4:	8010047b 	andshi	r0, r0, fp, ror r4
801003a8:	8010047b 	andshi	r0, r0, fp, ror r4
801003ac:	8010047b 	andshi	r0, r0, fp, ror r4
801003b0:	8010047b 	andshi	r0, r0, fp, ror r4
801003b4:	8010047b 	andshi	r0, r0, fp, ror r4
801003b8:	8010047b 	andshi	r0, r0, fp, ror r4
801003bc:	8010047b 	andshi	r0, r0, fp, ror r4
801003c0:	8010047b 	andshi	r0, r0, fp, ror r4
801003c4:	80100405 	andshi	r0, r0, r5, lsl #8
801003c8:	8010047b 	andshi	r0, r0, fp, ror r4
801003cc:	8010047b 	andshi	r0, r0, fp, ror r4
801003d0:	8010047b 	andshi	r0, r0, fp, ror r4
801003d4:	80100467 	andshi	r0, r0, r7, ror #8
801003d8:	8010047b 	andshi	r0, r0, fp, ror r4
801003dc:	8010041f 	andshi	r0, r0, pc, lsl r4
801003e0:	8010047b 	andshi	r0, r0, fp, ror r4
801003e4:	8010047b 	andshi	r0, r0, fp, ror r4
801003e8:	80100439 	andshi	r0, r0, r9, lsr r4
801003ec:	683b      	ldr	r3, [r7, #0]
801003ee:	3304      	adds	r3, #4
801003f0:	603b      	str	r3, [r7, #0]
801003f2:	683b      	ldr	r3, [r7, #0]
801003f4:	3b04      	subs	r3, #4
801003f6:	6818      	ldr	r0, [r3, #0]
801003f8:	7bfa      	ldrb	r2, [r7, #15]
801003fa:	68bb      	ldr	r3, [r7, #8]
801003fc:	210a      	movs	r1, #10
801003fe:	f7ff ff1c 	bl	8010023a <out_num>
80100402:	e040      	b.n	80100486 <my_vprintf+0x17a>
80100404:	683b      	ldr	r3, [r7, #0]
80100406:	3304      	adds	r3, #4
80100408:	603b      	str	r3, [r7, #0]
8010040a:	683b      	ldr	r3, [r7, #0]
8010040c:	3b04      	subs	r3, #4
8010040e:	681b      	ldr	r3, [r3, #0]
80100410:	4618      	mov	r0, r3
80100412:	7bfa      	ldrb	r2, [r7, #15]
80100414:	68bb      	ldr	r3, [r7, #8]
80100416:	2108      	movs	r1, #8
80100418:	f7ff ff0f 	bl	8010023a <out_num>
8010041c:	e033      	b.n	80100486 <my_vprintf+0x17a>
8010041e:	683b      	ldr	r3, [r7, #0]
80100420:	3304      	adds	r3, #4
80100422:	603b      	str	r3, [r7, #0]
80100424:	683b      	ldr	r3, [r7, #0]
80100426:	3b04      	subs	r3, #4
80100428:	681b      	ldr	r3, [r3, #0]
8010042a:	4618      	mov	r0, r3
8010042c:	7bfa      	ldrb	r2, [r7, #15]
8010042e:	68bb      	ldr	r3, [r7, #8]
80100430:	210a      	movs	r1, #10
80100432:	f7ff ff02 	bl	8010023a <out_num>
80100436:	e026      	b.n	80100486 <my_vprintf+0x17a>
80100438:	683b      	ldr	r3, [r7, #0]
8010043a:	3304      	adds	r3, #4
8010043c:	603b      	str	r3, [r7, #0]
8010043e:	683b      	ldr	r3, [r7, #0]
80100440:	3b04      	subs	r3, #4
80100442:	681b      	ldr	r3, [r3, #0]
80100444:	4618      	mov	r0, r3
80100446:	7bfa      	ldrb	r2, [r7, #15]
80100448:	68bb      	ldr	r3, [r7, #8]
8010044a:	2110      	movs	r1, #16
8010044c:	f7ff fef5 	bl	8010023a <out_num>
80100450:	e019      	b.n	80100486 <my_vprintf+0x17a>
80100452:	683b      	ldr	r3, [r7, #0]
80100454:	3304      	adds	r3, #4
80100456:	603b      	str	r3, [r7, #0]
80100458:	683b      	ldr	r3, [r7, #0]
8010045a:	3b04      	subs	r3, #4
8010045c:	681b      	ldr	r3, [r3, #0]
8010045e:	4618      	mov	r0, r3
80100460:	f7ff feca 	bl	801001f8 <outc>
80100464:	e00f      	b.n	80100486 <my_vprintf+0x17a>
80100466:	683b      	ldr	r3, [r7, #0]
80100468:	3304      	adds	r3, #4
8010046a:	603b      	str	r3, [r7, #0]
8010046c:	683b      	ldr	r3, [r7, #0]
8010046e:	3b04      	subs	r3, #4
80100470:	681b      	ldr	r3, [r3, #0]
80100472:	4618      	mov	r0, r3
80100474:	f7ff fecc 	bl	80100210 <outs>
80100478:	e005      	b.n	80100486 <my_vprintf+0x17a>
8010047a:	687b      	ldr	r3, [r7, #4]
8010047c:	781b      	ldrb	r3, [r3, #0]
8010047e:	4618      	mov	r0, r3
80100480:	f7ff feba 	bl	801001f8 <outc>
80100484:	bf00      	nop
80100486:	687b      	ldr	r3, [r7, #4]
80100488:	3301      	adds	r3, #1
8010048a:	607b      	str	r3, [r7, #4]
8010048c:	687b      	ldr	r3, [r7, #4]
8010048e:	781b      	ldrb	r3, [r3, #0]
80100490:	2b00      	cmp	r3, #0
80100492:	f47f af45 	bne.w	80100320 <my_vprintf+0x14>
80100496:	2300      	movs	r3, #0
80100498:	4618      	mov	r0, r3
8010049a:	3710      	adds	r7, #16
8010049c:	46bd      	mov	sp, r7
8010049e:	bd80      	pop	{r7, pc}

801004a0 <printf>:
801004a0:	b40f      	push	{r0, r1, r2, r3}
801004a2:	b580      	push	{r7, lr}
801004a4:	b082      	sub	sp, #8
801004a6:	af00      	add	r7, sp, #0
801004a8:	f107 0314 	add.w	r3, r7, #20
801004ac:	607b      	str	r3, [r7, #4]
801004ae:	693b      	ldr	r3, [r7, #16]
801004b0:	6879      	ldr	r1, [r7, #4]
801004b2:	4618      	mov	r0, r3
801004b4:	f7ff ff2a 	bl	8010030c <my_vprintf>
801004b8:	2300      	movs	r3, #0
801004ba:	607b      	str	r3, [r7, #4]
801004bc:	2300      	movs	r3, #0
801004be:	4618      	mov	r0, r3
801004c0:	3708      	adds	r7, #8
801004c2:	46bd      	mov	sp, r7
801004c4:	e8bd 4080 	ldmia.w	sp!, {r7, lr}
801004c8:	b004      	add	sp, #16
801004ca:	4770      	bx	lr

801004cc <my_printf_test>:
801004cc:	b580      	push	{r7, lr}
801004ce:	af00      	add	r7, sp, #0
801004d0:	f640 00d4 	movw	r0, #2260	; 0x8d4
801004d4:	f2c8 0010 	movt	r0, #32784	; 0x8010
801004d8:	f7ff ffe2 	bl	801004a0 <printf>
801004dc:	2261      	movs	r2, #97	; 0x61
801004de:	2141      	movs	r1, #65	; 0x41
801004e0:	f640 1000 	movw	r0, #2304	; 0x900
801004e4:	f2c8 0010 	movt	r0, #32784	; 0x8010
801004e8:	f7ff ffda 	bl	801004a0 <printf>
801004ec:	f24e 2140 	movw	r1, #57920	; 0xe240
801004f0:	f2c0 0101 	movt	r1, #1
801004f4:	f640 1020 	movw	r0, #2336	; 0x920
801004f8:	f2c8 0010 	movt	r0, #32784	; 0x8010
801004fc:	f7ff ffd0 	bl	801004a0 <printf>
80100500:	f44f 51ee 	mov.w	r1, #7616	; 0x1dc0
80100504:	f6cf 71fe 	movt	r1, #65534	; 0xfffe
80100508:	f640 1020 	movw	r0, #2336	; 0x920
8010050c:	f2c8 0010 	movt	r0, #32784	; 0x8010
80100510:	f7ff ffc6 	bl	801004a0 <printf>
80100514:	f245 51aa 	movw	r1, #21930	; 0x55aa
80100518:	f2c5 51aa 	movt	r1, #21930	; 0x55aa
8010051c:	f640 103c 	movw	r0, #2364	; 0x93c
80100520:	f2c8 0010 	movt	r0, #32784	; 0x8010
80100524:	f7ff ffbc 	bl	801004a0 <printf>
80100528:	f640 1158 	movw	r1, #2392	; 0x958
8010052c:	f2c8 0110 	movt	r1, #32784	; 0x8010
80100530:	f640 1068 	movw	r0, #2408	; 0x968
80100534:	f2c8 0010 	movt	r0, #32784	; 0x8010
80100538:	f7ff ffb2 	bl	801004a0 <printf>
8010053c:	f243 0139 	movw	r1, #12345	; 0x3039
80100540:	f640 1084 	movw	r0, #2436	; 0x984
80100544:	f2c8 0010 	movt	r0, #32784	; 0x8010
80100548:	f7ff ffaa 	bl	801004a0 <printf>
8010054c:	f243 0139 	movw	r1, #12345	; 0x3039
80100550:	f640 1090 	movw	r0, #2448	; 0x990
80100554:	f2c8 0010 	movt	r0, #32784	; 0x8010
80100558:	f7ff ffa2 	bl	801004a0 <printf>
8010055c:	f242 3145 	movw	r1, #9029	; 0x2345
80100560:	f2c0 0101 	movt	r1, #1
80100564:	f640 109c 	movw	r0, #2460	; 0x99c
80100568:	f2c8 0010 	movt	r0, #32784	; 0x8010
8010056c:	f7ff ff98 	bl	801004a0 <printf>
80100570:	f242 3145 	movw	r1, #9029	; 0x2345
80100574:	f2c0 0101 	movt	r1, #1
80100578:	f640 10ac 	movw	r0, #2476	; 0x9ac
8010057c:	f2c8 0010 	movt	r0, #32784	; 0x8010
80100580:	f7ff ff8e 	bl	801004a0 <printf>
80100584:	2101      	movs	r1, #1
80100586:	f640 10b8 	movw	r0, #2488	; 0x9b8
8010058a:	f2c8 0010 	movt	r0, #32784	; 0x8010
8010058e:	f7ff ff87 	bl	801004a0 <printf>
80100592:	2101      	movs	r1, #1
80100594:	f640 10c8 	movw	r0, #2504	; 0x9c8
80100598:	f2c8 0010 	movt	r0, #32784	; 0x8010
8010059c:	f7ff ff80 	bl	801004a0 <printf>
801005a0:	2101      	movs	r1, #1
801005a2:	f640 10d4 	movw	r0, #2516	; 0x9d4
801005a6:	f2c8 0010 	movt	r0, #32784	; 0x8010
801005aa:	f7ff ff79 	bl	801004a0 <printf>
801005ae:	2101      	movs	r1, #1
801005b0:	f640 10e0 	movw	r0, #2528	; 0x9e0
801005b4:	f2c8 0010 	movt	r0, #32784	; 0x8010
801005b8:	f7ff ff72 	bl	801004a0 <printf>
801005bc:	2300      	movs	r3, #0
801005be:	4618      	mov	r0, r3
801005c0:	bd80      	pop	{r7, pc}
801005c2:	bf00      	nop

801005c4 <copy_data>:
801005c4:	b480      	push	{r7}
801005c6:	b085      	sub	sp, #20
801005c8:	af00      	add	r7, sp, #0
801005ca:	f240 0300 	movw	r3, #0
801005ce:	f2c0 0390 	movt	r3, #144	; 0x90
801005d2:	60fb      	str	r3, [r7, #12]
801005d4:	f240 0314 	movw	r3, #20
801005d8:	f2c0 0390 	movt	r3, #144	; 0x90
801005dc:	607b      	str	r3, [r7, #4]
801005de:	f640 13ec 	movw	r3, #2540	; 0x9ec
801005e2:	f2c8 0310 	movt	r3, #32784	; 0x8010
801005e6:	60bb      	str	r3, [r7, #8]
801005e8:	e007      	b.n	801005fa <copy_data+0x36>
801005ea:	68fb      	ldr	r3, [r7, #12]
801005ec:	1d1a      	adds	r2, r3, #4
801005ee:	60fa      	str	r2, [r7, #12]
801005f0:	68ba      	ldr	r2, [r7, #8]
801005f2:	1d11      	adds	r1, r2, #4
801005f4:	60b9      	str	r1, [r7, #8]
801005f6:	6812      	ldr	r2, [r2, #0]
801005f8:	601a      	str	r2, [r3, #0]
801005fa:	68fa      	ldr	r2, [r7, #12]
801005fc:	687b      	ldr	r3, [r7, #4]
801005fe:	429a      	cmp	r2, r3
80100600:	d3f3      	bcc.n	801005ea <copy_data+0x26>
80100602:	bf00      	nop
80100604:	3714      	adds	r7, #20
80100606:	46bd      	mov	sp, r7
80100608:	f85d 7b04 	ldr.w	r7, [sp], #4
8010060c:	4770      	bx	lr

8010060e <clean_bss>:
8010060e:	b480      	push	{r7}
80100610:	b083      	sub	sp, #12
80100612:	af00      	add	r7, sp, #0
80100614:	f240 0314 	movw	r3, #20
80100618:	f2c0 0390 	movt	r3, #144	; 0x90
8010061c:	607b      	str	r3, [r7, #4]
8010061e:	f240 0325 	movw	r3, #37	; 0x25
80100622:	f2c0 0390 	movt	r3, #144	; 0x90
80100626:	603b      	str	r3, [r7, #0]
80100628:	e004      	b.n	80100634 <clean_bss+0x26>
8010062a:	687b      	ldr	r3, [r7, #4]
8010062c:	1d1a      	adds	r2, r3, #4
8010062e:	607a      	str	r2, [r7, #4]
80100630:	2200      	movs	r2, #0
80100632:	601a      	str	r2, [r3, #0]
80100634:	687a      	ldr	r2, [r7, #4]
80100636:	683b      	ldr	r3, [r7, #0]
80100638:	429a      	cmp	r2, r3
8010063a:	d9f6      	bls.n	8010062a <clean_bss+0x1c>
8010063c:	bf00      	nop
8010063e:	370c      	adds	r7, #12
80100640:	46bd      	mov	sp, r7
80100642:	f85d 7b04 	ldr.w	r7, [sp], #4
80100646:	4770      	bx	lr

80100648 <__aeabi_uidiv>:
80100648:	1e4a      	subs	r2, r1, #1
8010064a:	bf08      	it	eq
8010064c:	4770      	bxeq	lr
8010064e:	f0c0 8124 	bcc.w	8010089a <__aeabi_uidiv+0x252>
80100652:	4288      	cmp	r0, r1
80100654:	f240 8116 	bls.w	80100884 <__aeabi_uidiv+0x23c>
80100658:	4211      	tst	r1, r2
8010065a:	f000 8117 	beq.w	8010088c <__aeabi_uidiv+0x244>
8010065e:	fab0 f380 	clz	r3, r0
80100662:	fab1 f281 	clz	r2, r1
80100666:	eba2 0303 	sub.w	r3, r2, r3
8010066a:	f1c3 031f 	rsb	r3, r3, #31
8010066e:	a204      	add	r2, pc, #16	; (adr r2, 80100680 <__aeabi_uidiv+0x38>)
80100670:	eb02 1303 	add.w	r3, r2, r3, lsl #4
80100674:	f04f 0200 	mov.w	r2, #0
80100678:	469f      	mov	pc, r3
8010067a:	bf00      	nop
8010067c:	f3af 8000 	nop.w
80100680:	ebb0 7fc1 	cmp.w	r0, r1, lsl #31
80100684:	bf00      	nop
80100686:	eb42 0202 	adc.w	r2, r2, r2
8010068a:	bf28      	it	cs
8010068c:	eba0 70c1 	subcs.w	r0, r0, r1, lsl #31
80100690:	ebb0 7f81 	cmp.w	r0, r1, lsl #30
80100694:	bf00      	nop
80100696:	eb42 0202 	adc.w	r2, r2, r2
8010069a:	bf28      	it	cs
8010069c:	eba0 7081 	subcs.w	r0, r0, r1, lsl #30
801006a0:	ebb0 7f41 	cmp.w	r0, r1, lsl #29
801006a4:	bf00      	nop
801006a6:	eb42 0202 	adc.w	r2, r2, r2
801006aa:	bf28      	it	cs
801006ac:	eba0 7041 	subcs.w	r0, r0, r1, lsl #29
801006b0:	ebb0 7f01 	cmp.w	r0, r1, lsl #28
801006b4:	bf00      	nop
801006b6:	eb42 0202 	adc.w	r2, r2, r2
801006ba:	bf28      	it	cs
801006bc:	eba0 7001 	subcs.w	r0, r0, r1, lsl #28
801006c0:	ebb0 6fc1 	cmp.w	r0, r1, lsl #27
801006c4:	bf00      	nop
801006c6:	eb42 0202 	adc.w	r2, r2, r2
801006ca:	bf28      	it	cs
801006cc:	eba0 60c1 	subcs.w	r0, r0, r1, lsl #27
801006d0:	ebb0 6f81 	cmp.w	r0, r1, lsl #26
801006d4:	bf00      	nop
801006d6:	eb42 0202 	adc.w	r2, r2, r2
801006da:	bf28      	it	cs
801006dc:	eba0 6081 	subcs.w	r0, r0, r1, lsl #26
801006e0:	ebb0 6f41 	cmp.w	r0, r1, lsl #25
801006e4:	bf00      	nop
801006e6:	eb42 0202 	adc.w	r2, r2, r2
801006ea:	bf28      	it	cs
801006ec:	eba0 6041 	subcs.w	r0, r0, r1, lsl #25
801006f0:	ebb0 6f01 	cmp.w	r0, r1, lsl #24
801006f4:	bf00      	nop
801006f6:	eb42 0202 	adc.w	r2, r2, r2
801006fa:	bf28      	it	cs
801006fc:	eba0 6001 	subcs.w	r0, r0, r1, lsl #24
80100700:	ebb0 5fc1 	cmp.w	r0, r1, lsl #23
80100704:	bf00      	nop
80100706:	eb42 0202 	adc.w	r2, r2, r2
8010070a:	bf28      	it	cs
8010070c:	eba0 50c1 	subcs.w	r0, r0, r1, lsl #23
80100710:	ebb0 5f81 	cmp.w	r0, r1, lsl #22
80100714:	bf00      	nop
80100716:	eb42 0202 	adc.w	r2, r2, r2
8010071a:	bf28      	it	cs
8010071c:	eba0 5081 	subcs.w	r0, r0, r1, lsl #22
80100720:	ebb0 5f41 	cmp.w	r0, r1, lsl #21
80100724:	bf00      	nop
80100726:	eb42 0202 	adc.w	r2, r2, r2
8010072a:	bf28      	it	cs
8010072c:	eba0 5041 	subcs.w	r0, r0, r1, lsl #21
80100730:	ebb0 5f01 	cmp.w	r0, r1, lsl #20
80100734:	bf00      	nop
80100736:	eb42 0202 	adc.w	r2, r2, r2
8010073a:	bf28      	it	cs
8010073c:	eba0 5001 	subcs.w	r0, r0, r1, lsl #20
80100740:	ebb0 4fc1 	cmp.w	r0, r1, lsl #19
80100744:	bf00      	nop
80100746:	eb42 0202 	adc.w	r2, r2, r2
8010074a:	bf28      	it	cs
8010074c:	eba0 40c1 	subcs.w	r0, r0, r1, lsl #19
80100750:	ebb0 4f81 	cmp.w	r0, r1, lsl #18
80100754:	bf00      	nop
80100756:	eb42 0202 	adc.w	r2, r2, r2
8010075a:	bf28      	it	cs
8010075c:	eba0 4081 	subcs.w	r0, r0, r1, lsl #18
80100760:	ebb0 4f41 	cmp.w	r0, r1, lsl #17
80100764:	bf00      	nop
80100766:	eb42 0202 	adc.w	r2, r2, r2
8010076a:	bf28      	it	cs
8010076c:	eba0 4041 	subcs.w	r0, r0, r1, lsl #17
80100770:	ebb0 4f01 	cmp.w	r0, r1, lsl #16
80100774:	bf00      	nop
80100776:	eb42 0202 	adc.w	r2, r2, r2
8010077a:	bf28      	it	cs
8010077c:	eba0 4001 	subcs.w	r0, r0, r1, lsl #16
80100780:	ebb0 3fc1 	cmp.w	r0, r1, lsl #15
80100784:	bf00      	nop
80100786:	eb42 0202 	adc.w	r2, r2, r2
8010078a:	bf28      	it	cs
8010078c:	eba0 30c1 	subcs.w	r0, r0, r1, lsl #15
80100790:	ebb0 3f81 	cmp.w	r0, r1, lsl #14
80100794:	bf00      	nop
80100796:	eb42 0202 	adc.w	r2, r2, r2
8010079a:	bf28      	it	cs
8010079c:	eba0 3081 	subcs.w	r0, r0, r1, lsl #14
801007a0:	ebb0 3f41 	cmp.w	r0, r1, lsl #13
801007a4:	bf00      	nop
801007a6:	eb42 0202 	adc.w	r2, r2, r2
801007aa:	bf28      	it	cs
801007ac:	eba0 3041 	subcs.w	r0, r0, r1, lsl #13
801007b0:	ebb0 3f01 	cmp.w	r0, r1, lsl #12
801007b4:	bf00      	nop
801007b6:	eb42 0202 	adc.w	r2, r2, r2
801007ba:	bf28      	it	cs
801007bc:	eba0 3001 	subcs.w	r0, r0, r1, lsl #12
801007c0:	ebb0 2fc1 	cmp.w	r0, r1, lsl #11
801007c4:	bf00      	nop
801007c6:	eb42 0202 	adc.w	r2, r2, r2
801007ca:	bf28      	it	cs
801007cc:	eba0 20c1 	subcs.w	r0, r0, r1, lsl #11
801007d0:	ebb0 2f81 	cmp.w	r0, r1, lsl #10
801007d4:	bf00      	nop
801007d6:	eb42 0202 	adc.w	r2, r2, r2
801007da:	bf28      	it	cs
801007dc:	eba0 2081 	subcs.w	r0, r0, r1, lsl #10
801007e0:	ebb0 2f41 	cmp.w	r0, r1, lsl #9
801007e4:	bf00      	nop
801007e6:	eb42 0202 	adc.w	r2, r2, r2
801007ea:	bf28      	it	cs
801007ec:	eba0 2041 	subcs.w	r0, r0, r1, lsl #9
801007f0:	ebb0 2f01 	cmp.w	r0, r1, lsl #8
801007f4:	bf00      	nop
801007f6:	eb42 0202 	adc.w	r2, r2, r2
801007fa:	bf28      	it	cs
801007fc:	eba0 2001 	subcs.w	r0, r0, r1, lsl #8
80100800:	ebb0 1fc1 	cmp.w	r0, r1, lsl #7
80100804:	bf00      	nop
80100806:	eb42 0202 	adc.w	r2, r2, r2
8010080a:	bf28      	it	cs
8010080c:	eba0 10c1 	subcs.w	r0, r0, r1, lsl #7
80100810:	ebb0 1f81 	cmp.w	r0, r1, lsl #6
80100814:	bf00      	nop
80100816:	eb42 0202 	adc.w	r2, r2, r2
8010081a:	bf28      	it	cs
8010081c:	eba0 1081 	subcs.w	r0, r0, r1, lsl #6
80100820:	ebb0 1f41 	cmp.w	r0, r1, lsl #5
80100824:	bf00      	nop
80100826:	eb42 0202 	adc.w	r2, r2, r2
8010082a:	bf28      	it	cs
8010082c:	eba0 1041 	subcs.w	r0, r0, r1, lsl #5
80100830:	ebb0 1f01 	cmp.w	r0, r1, lsl #4
80100834:	bf00      	nop
80100836:	eb42 0202 	adc.w	r2, r2, r2
8010083a:	bf28      	it	cs
8010083c:	eba0 1001 	subcs.w	r0, r0, r1, lsl #4
80100840:	ebb0 0fc1 	cmp.w	r0, r1, lsl #3
80100844:	bf00      	nop
80100846:	eb42 0202 	adc.w	r2, r2, r2
8010084a:	bf28      	it	cs
8010084c:	eba0 00c1 	subcs.w	r0, r0, r1, lsl #3
80100850:	ebb0 0f81 	cmp.w	r0, r1, lsl #2
80100854:	bf00      	nop
80100856:	eb42 0202 	adc.w	r2, r2, r2
8010085a:	bf28      	it	cs
8010085c:	eba0 0081 	subcs.w	r0, r0, r1, lsl #2
80100860:	ebb0 0f41 	cmp.w	r0, r1, lsl #1
80100864:	bf00      	nop
80100866:	eb42 0202 	adc.w	r2, r2, r2
8010086a:	bf28      	it	cs
8010086c:	eba0 0041 	subcs.w	r0, r0, r1, lsl #1
80100870:	ebb0 0f01 	cmp.w	r0, r1
80100874:	bf00      	nop
80100876:	eb42 0202 	adc.w	r2, r2, r2
8010087a:	bf28      	it	cs
8010087c:	eba0 0001 	subcs.w	r0, r0, r1
80100880:	4610      	mov	r0, r2
80100882:	4770      	bx	lr
80100884:	bf0c      	ite	eq
80100886:	2001      	moveq	r0, #1
80100888:	2000      	movne	r0, #0
8010088a:	4770      	bx	lr
8010088c:	fab1 f281 	clz	r2, r1
80100890:	f1c2 021f 	rsb	r2, r2, #31
80100894:	fa20 f002 	lsr.w	r0, r0, r2
80100898:	4770      	bx	lr
8010089a:	b108      	cbz	r0, 801008a0 <__aeabi_uidiv+0x258>
8010089c:	f04f 30ff 	mov.w	r0, #4294967295	; 0xffffffff
801008a0:	f000 b80e 	b.w	801008c0 <__aeabi_idiv0>

801008a4 <__aeabi_uidivmod>:
801008a4:	2900      	cmp	r1, #0
801008a6:	d0f8      	beq.n	8010089a <__aeabi_uidiv+0x252>
801008a8:	e92d 4003 	stmdb	sp!, {r0, r1, lr}
801008ac:	f7ff fecc 	bl	80100648 <__aeabi_uidiv>
801008b0:	e8bd 4006 	ldmia.w	sp!, {r1, r2, lr}
801008b4:	fb02 f300 	mul.w	r3, r2, r0
801008b8:	eba1 0103 	sub.w	r1, r1, r3
801008bc:	4770      	bx	lr
801008be:	bf00      	nop

801008c0 <__aeabi_idiv0>:
801008c0:	b502      	push	{r1, lr}
801008c2:	f04f 0008 	mov.w	r0, #8
801008c6:	f7ff fc57 	bl	80100178 <raise>
801008ca:	bd02      	pop	{r1, pc}

Disassembly of section .rodata:

801008cc <g_charB>:
801008cc:	00000042 	andeq	r0, r0, r2, asr #32

801008d0 <.LC0>:
801008d0:	00000d0a 	andeq	r0, r0, sl, lsl #26

801008d4 <.LC0>:
801008d4:	73696854 	cmnvc	r9, #84, 16	; 0x540000
801008d8:	20736920 	rsbscs	r6, r3, r0, lsr #18
801008dc:	2e777777 	mrccs	7, 3, r7, cr7, cr7, {3}
801008e0:	61303031 	teqvs	r0, r1, lsr r0
801008e4:	6f2e6b73 	svcvs	0x002e6b73
801008e8:	20206772 	eorcs	r6, r0, r2, ror r7
801008ec:	5f796d20 	svcpl	0x00796d20
801008f0:	6e697270 	mcrvs	2, 3, r7, cr9, cr0, {3}
801008f4:	74206674 	strtvc	r6, [r0], #-1652	; 0xfffff98c
801008f8:	0a747365 	beq	81e1d694 <data_load_addr+0x1d1cca8>
801008fc:	0000000d 	andeq	r0, r0, sp

80100900 <.LC1>:
80100900:	74736574 	ldrbtvc	r6, [r3], #-1396	; 0xfffffa8c
80100904:	61686320 	cmnvs	r8, r0, lsr #6
80100908:	20202072 	eorcs	r2, r0, r2, ror r0
8010090c:	20202020 	eorcs	r2, r0, r0, lsr #32
80100910:	20202020 	eorcs	r2, r0, r0, lsr #32
80100914:	2c63253d 	cfstr64cs	mvdx2, [r3], #-244	; 0xffffff0c
80100918:	0d0a6325 	stceq	3, cr6, [sl, #-148]	; 0xffffff6c
8010091c:	00000000 	andeq	r0, r0, r0

80100920 <.LC2>:
80100920:	74736574 	ldrbtvc	r6, [r3], #-1396	; 0xfffffa8c
80100924:	63656420 	cmnvs	r5, #32, 8	; 0x20000000
80100928:	6c616d69 	stclvs	13, cr6, [r1], #-420	; 0xfffffe5c
8010092c:	6d756e20 	ldclvs	14, cr6, [r5, #-128]!	; 0xffffff80
80100930:	20726562 	rsbscs	r6, r2, r2, ror #10
80100934:	0a64253d 	beq	81a09e30 <data_load_addr+0x1909444>
80100938:	0000000d 	andeq	r0, r0, sp

8010093c <.LC3>:
8010093c:	74736574 	ldrbtvc	r6, [r3], #-1396	; 0xfffffa8c
80100940:	78656820 	stmdavc	r5!, {r5, fp, sp, lr}^
80100944:	20202020 	eorcs	r2, r0, r0, lsr #32
80100948:	6d756e20 	ldclvs	14, cr6, [r5, #-128]!	; 0xffffff80
8010094c:	20726562 	rsbscs	r6, r2, r2, ror #10
80100950:	2578303d 	ldrbcs	r3, [r8, #-61]!	; 0xffffffc3
80100954:	000d0a78 	andeq	r0, sp, r8, ror sl

80100958 <.LC4>:
80100958:	2e777777 	mrccs	7, 3, r7, cr7, cr7, {3}
8010095c:	61303031 	teqvs	r0, r1, lsr r0
80100960:	6f2e6b73 	svcvs	0x002e6b73
80100964:	00006772 	andeq	r6, r0, r2, ror r7

80100968 <.LC5>:
80100968:	74736574 	ldrbtvc	r6, [r3], #-1396	; 0xfffffa8c
8010096c:	72747320 	rsbsvc	r7, r4, #32, 6	; 0x80000000
80100970:	20676e69 	rsbcs	r6, r7, r9, ror #28
80100974:	20202020 	eorcs	r2, r0, r0, lsr #32
80100978:	20202020 	eorcs	r2, r0, r0, lsr #32
8010097c:	0a73253d 	beq	81dc9e78 <data_load_addr+0x1cc948c>
80100980:	0000000d 	andeq	r0, r0, sp

80100984 <.LC6>:
80100984:	3d6d756e 	cfstr64cc	mvdx7, [sp, #-440]!	; 0xfffffe48
80100988:	64383025 	ldrtvs	r3, [r8], #-37	; 0xffffffdb
8010098c:	00000d0a 	andeq	r0, r0, sl, lsl #26

80100990 <.LC7>:
80100990:	3d6d756e 	cfstr64cc	mvdx7, [sp, #-440]!	; 0xfffffe48
80100994:	0a643825 	beq	81a0ea30 <data_load_addr+0x190e044>
80100998:	0000000d 	andeq	r0, r0, sp

8010099c <.LC8>:
8010099c:	3d6d756e 	cfstr64cc	mvdx7, [sp, #-440]!	; 0xfffffe48
801009a0:	30257830 	eorcc	r7, r5, r0, lsr r8
801009a4:	0d0a7838 	stceq	8, cr7, [sl, #-224]	; 0xffffff20
801009a8:	00000000 	andeq	r0, r0, r0

801009ac <.LC9>:
801009ac:	3d6d756e 	cfstr64cc	mvdx7, [sp, #-440]!	; 0xfffffe48
801009b0:	38257830 	stmdacc	r5!, {r4, r5, fp, ip, sp, lr}
801009b4:	000d0a78 	andeq	r0, sp, r8, ror sl

801009b8 <.LC10>:
801009b8:	3d6d756e 	cfstr64cc	mvdx7, [sp, #-440]!	; 0xfffffe48
801009bc:	30257830 	eorcc	r7, r5, r0, lsr r8
801009c0:	0d0a7832 	stceq	8, cr7, [sl, #-200]	; 0xffffff38
801009c4:	00000000 	andeq	r0, r0, r0

801009c8 <.LC11>:
801009c8:	3d6d756e 	cfstr64cc	mvdx7, [sp, #-440]!	; 0xfffffe48
801009cc:	32257830 	eorcc	r7, r5, #48, 16	; 0x300000
801009d0:	000d0a78 	andeq	r0, sp, r8, ror sl

801009d4 <.LC12>:
801009d4:	3d6d756e 	cfstr64cc	mvdx7, [sp, #-440]!	; 0xfffffe48
801009d8:	64353025 	ldrtvs	r3, [r5], #-37	; 0xffffffdb
801009dc:	00000d0a 	andeq	r0, r0, sl, lsl #26

801009e0 <.LC13>:
801009e0:	3d6d756e 	cfstr64cc	mvdx7, [sp, #-440]!	; 0xfffffe48
801009e4:	0a643525 	beq	81a0de80 <data_load_addr+0x190d494>
801009e8:	Address 0x00000000801009e8 is out of bounds.


Disassembly of section .data:

00900000 <data_start>:
  900000:	00000041 	andeq	r0, r0, r1, asr #32

00900004 <hex_tab>:
  900004:	33323130 	teqcc	r2, #48, 2
  900008:	37363534 			; <UNDEFINED> instruction: 0x37363534
  90000c:	62613938 	rsbvs	r3, r1, #56, 18	; 0xe0000
  900010:	66656463 	strbtvs	r6, [r5], -r3, ror #8

Disassembly of section .bss:

00900014 <__bss_start>:
  900014:	00000000 	andeq	r0, r0, r0

00900018 <IOMUXC_SW_MUX_CTL_PAD_UART1_RX_DATA>:
  900018:	00000000 	andeq	r0, r0, r0

0090001c <g_intA>:
  90001c:	00000000 	andeq	r0, r0, r0

00900020 <g_intB>:
  900020:	00000000 	andeq	r0, r0, r0

00900024 <g_charC>:
	...

