
font_test.elf:     file format elf32-littlearm


Disassembly of section .text:

80100000 <_start>:
80100000:	e59fd028 	ldr	sp, [pc, #40]	; 80100030 <clean+0x14>
80100004:	eb000001 	bl	80100010 <clean_bss>
80100008:	fb0000b8 	blx	801002f2 <main>

8010000c <halt>:
8010000c:	eafffffe 	b	8010000c <halt>

80100010 <clean_bss>:
80100010:	e59f101c 	ldr	r1, [pc, #28]	; 80100034 <clean+0x18>
80100014:	e59f201c 	ldr	r2, [pc, #28]	; 80100038 <clean+0x1c>
80100018:	e3a03000 	mov	r3, #0

8010001c <clean>:
8010001c:	e5813000 	str	r3, [r1]
80100020:	e2811004 	add	r1, r1, #4
80100024:	e1510002 	cmp	r1, r2
80100028:	1afffffb 	bne	8010001c <clean>
8010002c:	e1a0f00e 	mov	pc, lr
80100030:	80200000 	eorhi	r0, r0, r0
80100034:	801020b0 	ldrhhi	r2, [r0], -r0
80100038:	80102114 	andshi	r2, r0, r4, lsl r1

8010003c <lcd_test>:
8010003c:	b580      	push	{r7, lr}
8010003e:	b08a      	sub	sp, #40	; 0x28
80100040:	af02      	add	r7, sp, #8
80100042:	f000 fddb 	bl	80100bfc <lcd_enable>
80100046:	463b      	mov	r3, r7
80100048:	1d3a      	adds	r2, r7, #4
8010004a:	f107 0108 	add.w	r1, r7, #8
8010004e:	f107 000c 	add.w	r0, r7, #12
80100052:	f000 fda6 	bl	80100ba2 <get_lcd_params>
80100056:	683b      	ldr	r3, [r7, #0]
80100058:	2b10      	cmp	r3, #16
8010005a:	d153      	bne.n	80100104 <lcd_test+0xc8>
8010005c:	68fb      	ldr	r3, [r7, #12]
8010005e:	617b      	str	r3, [r7, #20]
80100060:	2300      	movs	r3, #0
80100062:	61fb      	str	r3, [r7, #28]
80100064:	e012      	b.n	8010008c <lcd_test+0x50>
80100066:	2300      	movs	r3, #0
80100068:	61bb      	str	r3, [r7, #24]
8010006a:	e008      	b.n	8010007e <lcd_test+0x42>
8010006c:	697b      	ldr	r3, [r7, #20]
8010006e:	1c9a      	adds	r2, r3, #2
80100070:	617a      	str	r2, [r7, #20]
80100072:	f44f 42f8 	mov.w	r2, #31744	; 0x7c00
80100076:	801a      	strh	r2, [r3, #0]
80100078:	69bb      	ldr	r3, [r7, #24]
8010007a:	3301      	adds	r3, #1
8010007c:	61bb      	str	r3, [r7, #24]
8010007e:	687b      	ldr	r3, [r7, #4]
80100080:	69ba      	ldr	r2, [r7, #24]
80100082:	429a      	cmp	r2, r3
80100084:	dbf2      	blt.n	8010006c <lcd_test+0x30>
80100086:	69fb      	ldr	r3, [r7, #28]
80100088:	3301      	adds	r3, #1
8010008a:	61fb      	str	r3, [r7, #28]
8010008c:	68bb      	ldr	r3, [r7, #8]
8010008e:	69fa      	ldr	r2, [r7, #28]
80100090:	429a      	cmp	r2, r3
80100092:	dbe8      	blt.n	80100066 <lcd_test+0x2a>
80100094:	68fb      	ldr	r3, [r7, #12]
80100096:	617b      	str	r3, [r7, #20]
80100098:	2300      	movs	r3, #0
8010009a:	61fb      	str	r3, [r7, #28]
8010009c:	e012      	b.n	801000c4 <lcd_test+0x88>
8010009e:	2300      	movs	r3, #0
801000a0:	61bb      	str	r3, [r7, #24]
801000a2:	e008      	b.n	801000b6 <lcd_test+0x7a>
801000a4:	697b      	ldr	r3, [r7, #20]
801000a6:	1c9a      	adds	r2, r3, #2
801000a8:	617a      	str	r2, [r7, #20]
801000aa:	f44f 7278 	mov.w	r2, #992	; 0x3e0
801000ae:	801a      	strh	r2, [r3, #0]
801000b0:	69bb      	ldr	r3, [r7, #24]
801000b2:	3301      	adds	r3, #1
801000b4:	61bb      	str	r3, [r7, #24]
801000b6:	687b      	ldr	r3, [r7, #4]
801000b8:	69ba      	ldr	r2, [r7, #24]
801000ba:	429a      	cmp	r2, r3
801000bc:	dbf2      	blt.n	801000a4 <lcd_test+0x68>
801000be:	69fb      	ldr	r3, [r7, #28]
801000c0:	3301      	adds	r3, #1
801000c2:	61fb      	str	r3, [r7, #28]
801000c4:	68bb      	ldr	r3, [r7, #8]
801000c6:	69fa      	ldr	r2, [r7, #28]
801000c8:	429a      	cmp	r2, r3
801000ca:	dbe8      	blt.n	8010009e <lcd_test+0x62>
801000cc:	68fb      	ldr	r3, [r7, #12]
801000ce:	617b      	str	r3, [r7, #20]
801000d0:	2300      	movs	r3, #0
801000d2:	61fb      	str	r3, [r7, #28]
801000d4:	e011      	b.n	801000fa <lcd_test+0xbe>
801000d6:	2300      	movs	r3, #0
801000d8:	61bb      	str	r3, [r7, #24]
801000da:	e007      	b.n	801000ec <lcd_test+0xb0>
801000dc:	697b      	ldr	r3, [r7, #20]
801000de:	1c9a      	adds	r2, r3, #2
801000e0:	617a      	str	r2, [r7, #20]
801000e2:	221f      	movs	r2, #31
801000e4:	801a      	strh	r2, [r3, #0]
801000e6:	69bb      	ldr	r3, [r7, #24]
801000e8:	3301      	adds	r3, #1
801000ea:	61bb      	str	r3, [r7, #24]
801000ec:	687b      	ldr	r3, [r7, #4]
801000ee:	69ba      	ldr	r2, [r7, #24]
801000f0:	429a      	cmp	r2, r3
801000f2:	dbf3      	blt.n	801000dc <lcd_test+0xa0>
801000f4:	69fb      	ldr	r3, [r7, #28]
801000f6:	3301      	adds	r3, #1
801000f8:	61fb      	str	r3, [r7, #28]
801000fa:	68bb      	ldr	r3, [r7, #8]
801000fc:	69fa      	ldr	r2, [r7, #28]
801000fe:	429a      	cmp	r2, r3
80100100:	dbe9      	blt.n	801000d6 <lcd_test+0x9a>
80100102:	e055      	b.n	801001b0 <lcd_test+0x174>
80100104:	683b      	ldr	r3, [r7, #0]
80100106:	2b20      	cmp	r3, #32
80100108:	d152      	bne.n	801001b0 <lcd_test+0x174>
8010010a:	68fb      	ldr	r3, [r7, #12]
8010010c:	613b      	str	r3, [r7, #16]
8010010e:	2300      	movs	r3, #0
80100110:	61fb      	str	r3, [r7, #28]
80100112:	e012      	b.n	8010013a <lcd_test+0xfe>
80100114:	2300      	movs	r3, #0
80100116:	61bb      	str	r3, [r7, #24]
80100118:	e008      	b.n	8010012c <lcd_test+0xf0>
8010011a:	693b      	ldr	r3, [r7, #16]
8010011c:	1d1a      	adds	r2, r3, #4
8010011e:	613a      	str	r2, [r7, #16]
80100120:	f44f 027f 	mov.w	r2, #16711680	; 0xff0000
80100124:	601a      	str	r2, [r3, #0]
80100126:	69bb      	ldr	r3, [r7, #24]
80100128:	3301      	adds	r3, #1
8010012a:	61bb      	str	r3, [r7, #24]
8010012c:	687b      	ldr	r3, [r7, #4]
8010012e:	69ba      	ldr	r2, [r7, #24]
80100130:	429a      	cmp	r2, r3
80100132:	dbf2      	blt.n	8010011a <lcd_test+0xde>
80100134:	69fb      	ldr	r3, [r7, #28]
80100136:	3301      	adds	r3, #1
80100138:	61fb      	str	r3, [r7, #28]
8010013a:	68bb      	ldr	r3, [r7, #8]
8010013c:	69fa      	ldr	r2, [r7, #28]
8010013e:	429a      	cmp	r2, r3
80100140:	dbe8      	blt.n	80100114 <lcd_test+0xd8>
80100142:	68fb      	ldr	r3, [r7, #12]
80100144:	613b      	str	r3, [r7, #16]
80100146:	2300      	movs	r3, #0
80100148:	61fb      	str	r3, [r7, #28]
8010014a:	e012      	b.n	80100172 <lcd_test+0x136>
8010014c:	2300      	movs	r3, #0
8010014e:	61bb      	str	r3, [r7, #24]
80100150:	e008      	b.n	80100164 <lcd_test+0x128>
80100152:	693b      	ldr	r3, [r7, #16]
80100154:	1d1a      	adds	r2, r3, #4
80100156:	613a      	str	r2, [r7, #16]
80100158:	f44f 427f 	mov.w	r2, #65280	; 0xff00
8010015c:	601a      	str	r2, [r3, #0]
8010015e:	69bb      	ldr	r3, [r7, #24]
80100160:	3301      	adds	r3, #1
80100162:	61bb      	str	r3, [r7, #24]
80100164:	687b      	ldr	r3, [r7, #4]
80100166:	69ba      	ldr	r2, [r7, #24]
80100168:	429a      	cmp	r2, r3
8010016a:	dbf2      	blt.n	80100152 <lcd_test+0x116>
8010016c:	69fb      	ldr	r3, [r7, #28]
8010016e:	3301      	adds	r3, #1
80100170:	61fb      	str	r3, [r7, #28]
80100172:	68bb      	ldr	r3, [r7, #8]
80100174:	69fa      	ldr	r2, [r7, #28]
80100176:	429a      	cmp	r2, r3
80100178:	dbe8      	blt.n	8010014c <lcd_test+0x110>
8010017a:	68fb      	ldr	r3, [r7, #12]
8010017c:	613b      	str	r3, [r7, #16]
8010017e:	2300      	movs	r3, #0
80100180:	61fb      	str	r3, [r7, #28]
80100182:	e011      	b.n	801001a8 <lcd_test+0x16c>
80100184:	2300      	movs	r3, #0
80100186:	61bb      	str	r3, [r7, #24]
80100188:	e007      	b.n	8010019a <lcd_test+0x15e>
8010018a:	693b      	ldr	r3, [r7, #16]
8010018c:	1d1a      	adds	r2, r3, #4
8010018e:	613a      	str	r2, [r7, #16]
80100190:	22ff      	movs	r2, #255	; 0xff
80100192:	601a      	str	r2, [r3, #0]
80100194:	69bb      	ldr	r3, [r7, #24]
80100196:	3301      	adds	r3, #1
80100198:	61bb      	str	r3, [r7, #24]
8010019a:	687b      	ldr	r3, [r7, #4]
8010019c:	69ba      	ldr	r2, [r7, #24]
8010019e:	429a      	cmp	r2, r3
801001a0:	dbf3      	blt.n	8010018a <lcd_test+0x14e>
801001a2:	69fb      	ldr	r3, [r7, #28]
801001a4:	3301      	adds	r3, #1
801001a6:	61fb      	str	r3, [r7, #28]
801001a8:	68bb      	ldr	r3, [r7, #8]
801001aa:	69fa      	ldr	r2, [r7, #28]
801001ac:	429a      	cmp	r2, r3
801001ae:	dbe9      	blt.n	80100184 <lcd_test+0x148>
801001b0:	f000 fb31 	bl	80100816 <fb_get_lcd_params>
801001b4:	f248 60a0 	movw	r0, #34464	; 0x86a0
801001b8:	f2c0 0001 	movt	r0, #1
801001bc:	f000 fc80 	bl	80100ac0 <delay>
801001c0:	68bb      	ldr	r3, [r7, #8]
801001c2:	1e5a      	subs	r2, r3, #1
801001c4:	f44f 037f 	mov.w	r3, #16711680	; 0xff0000
801001c8:	9300      	str	r3, [sp, #0]
801001ca:	2300      	movs	r3, #0
801001cc:	2100      	movs	r1, #0
801001ce:	2000      	movs	r0, #0
801001d0:	f000 f9bc 	bl	8010054c <draw_line>
801001d4:	f248 60a0 	movw	r0, #34464	; 0x86a0
801001d8:	f2c0 0001 	movt	r0, #1
801001dc:	f000 fc70 	bl	80100ac0 <delay>
801001e0:	68bb      	ldr	r3, [r7, #8]
801001e2:	1e58      	subs	r0, r3, #1
801001e4:	68bb      	ldr	r3, [r7, #8]
801001e6:	1e5a      	subs	r2, r3, #1
801001e8:	687b      	ldr	r3, [r7, #4]
801001ea:	1e59      	subs	r1, r3, #1
801001ec:	f44f 437f 	mov.w	r3, #65280	; 0xff00
801001f0:	f2c0 03ff 	movt	r3, #255	; 0xff
801001f4:	9300      	str	r3, [sp, #0]
801001f6:	460b      	mov	r3, r1
801001f8:	2100      	movs	r1, #0
801001fa:	f000 f9a7 	bl	8010054c <draw_line>
801001fe:	f248 60a0 	movw	r0, #34464	; 0x86a0
80100202:	f2c0 0001 	movt	r0, #1
80100206:	f000 fc5b 	bl	80100ac0 <delay>
8010020a:	687b      	ldr	r3, [r7, #4]
8010020c:	1e59      	subs	r1, r3, #1
8010020e:	68bb      	ldr	r3, [r7, #8]
80100210:	1e5a      	subs	r2, r3, #1
80100212:	687b      	ldr	r3, [r7, #4]
80100214:	1e58      	subs	r0, r3, #1
80100216:	23aa      	movs	r3, #170	; 0xaa
80100218:	f2c0 03ff 	movt	r3, #255	; 0xff
8010021c:	9300      	str	r3, [sp, #0]
8010021e:	4603      	mov	r3, r0
80100220:	2000      	movs	r0, #0
80100222:	f000 f993 	bl	8010054c <draw_line>
80100226:	f248 60a0 	movw	r0, #34464	; 0x86a0
8010022a:	f2c0 0001 	movt	r0, #1
8010022e:	f000 fc47 	bl	80100ac0 <delay>
80100232:	687b      	ldr	r3, [r7, #4]
80100234:	1e5a      	subs	r2, r3, #1
80100236:	23ef      	movs	r3, #239	; 0xef
80100238:	f2c0 03ff 	movt	r3, #255	; 0xff
8010023c:	9300      	str	r3, [sp, #0]
8010023e:	4613      	mov	r3, r2
80100240:	2200      	movs	r2, #0
80100242:	2100      	movs	r1, #0
80100244:	2000      	movs	r0, #0
80100246:	f000 f981 	bl	8010054c <draw_line>
8010024a:	f248 60a0 	movw	r0, #34464	; 0x86a0
8010024e:	f2c0 0001 	movt	r0, #1
80100252:	f000 fc35 	bl	80100ac0 <delay>
80100256:	68bb      	ldr	r3, [r7, #8]
80100258:	1e5a      	subs	r2, r3, #1
8010025a:	687b      	ldr	r3, [r7, #4]
8010025c:	1e59      	subs	r1, r3, #1
8010025e:	f44f 438a 	mov.w	r3, #17664	; 0x4500
80100262:	f2c0 03ff 	movt	r3, #255	; 0xff
80100266:	9300      	str	r3, [sp, #0]
80100268:	460b      	mov	r3, r1
8010026a:	2100      	movs	r1, #0
8010026c:	2000      	movs	r0, #0
8010026e:	f000 f96d 	bl	8010054c <draw_line>
80100272:	f248 60a0 	movw	r0, #34464	; 0x86a0
80100276:	f2c0 0001 	movt	r0, #1
8010027a:	f000 fc21 	bl	80100ac0 <delay>
8010027e:	68bb      	ldr	r3, [r7, #8]
80100280:	1e58      	subs	r0, r3, #1
80100282:	687b      	ldr	r3, [r7, #4]
80100284:	1e5a      	subs	r2, r3, #1
80100286:	f44f 63f0 	mov.w	r3, #1920	; 0x780
8010028a:	f2c0 03ff 	movt	r3, #255	; 0xff
8010028e:	9300      	str	r3, [sp, #0]
80100290:	4613      	mov	r3, r2
80100292:	2200      	movs	r2, #0
80100294:	2100      	movs	r1, #0
80100296:	f000 f959 	bl	8010054c <draw_line>
8010029a:	f248 60a0 	movw	r0, #34464	; 0x86a0
8010029e:	f2c0 0001 	movt	r0, #1
801002a2:	f000 fc0d 	bl	80100ac0 <delay>
801002a6:	68bb      	ldr	r3, [r7, #8]
801002a8:	0fda      	lsrs	r2, r3, #31
801002aa:	4413      	add	r3, r2
801002ac:	105b      	asrs	r3, r3, #1
801002ae:	4618      	mov	r0, r3
801002b0:	687b      	ldr	r3, [r7, #4]
801002b2:	0fda      	lsrs	r2, r3, #31
801002b4:	4413      	add	r3, r2
801002b6:	105b      	asrs	r3, r3, #1
801002b8:	4619      	mov	r1, r3
801002ba:	687b      	ldr	r3, [r7, #4]
801002bc:	1cda      	adds	r2, r3, #3
801002be:	2b00      	cmp	r3, #0
801002c0:	bfb4      	ite	lt
801002c2:	4613      	movlt	r3, r2
801002c4:	461b      	movge	r3, r3
801002c6:	109b      	asrs	r3, r3, #2
801002c8:	461a      	mov	r2, r3
801002ca:	f44f 437f 	mov.w	r3, #65280	; 0xff00
801002ce:	f000 f8b5 	bl	8010043c <draw_circle>
801002d2:	f000 f817 	bl	80100304 <font_init>
801002d6:	f44f 437f 	mov.w	r3, #65280	; 0xff00
801002da:	f241 0210 	movw	r2, #4112	; 0x1010
801002de:	f2c8 0210 	movt	r2, #32784	; 0x8010
801002e2:	210a      	movs	r1, #10
801002e4:	200a      	movs	r0, #10
801002e6:	f000 f866 	bl	801003b6 <fb_print_string>
801002ea:	bf00      	nop
801002ec:	3720      	adds	r7, #32
801002ee:	46bd      	mov	sp, r7
801002f0:	bd80      	pop	{r7, pc}

801002f2 <main>:
801002f2:	b580      	push	{r7, lr}
801002f4:	af00      	add	r7, sp, #0
801002f6:	f000 fc8d 	bl	80100c14 <lcd_init>
801002fa:	f7ff fe9f 	bl	8010003c <lcd_test>
801002fe:	2300      	movs	r3, #0
80100300:	4618      	mov	r0, r3
80100302:	bd80      	pop	{r7, pc}

80100304 <font_init>:
80100304:	b580      	push	{r7, lr}
80100306:	af00      	add	r7, sp, #0
80100308:	f242 03bc 	movw	r3, #8380	; 0x20bc
8010030c:	f2c8 0310 	movt	r3, #32784	; 0x8010
80100310:	f242 02b8 	movw	r2, #8376	; 0x20b8
80100314:	f2c8 0210 	movt	r2, #32784	; 0x8010
80100318:	f242 01b4 	movw	r1, #8372	; 0x20b4
8010031c:	f2c8 0110 	movt	r1, #32784	; 0x8010
80100320:	f242 00b0 	movw	r0, #8368	; 0x20b0
80100324:	f2c8 0010 	movt	r0, #32784	; 0x8010
80100328:	f000 fc3b 	bl	80100ba2 <get_lcd_params>
8010032c:	bf00      	nop
8010032e:	bd80      	pop	{r7, pc}

80100330 <fb_print_char>:
80100330:	b580      	push	{r7, lr}
80100332:	b08a      	sub	sp, #40	; 0x28
80100334:	af00      	add	r7, sp, #0
80100336:	60f8      	str	r0, [r7, #12]
80100338:	60b9      	str	r1, [r7, #8]
8010033a:	603b      	str	r3, [r7, #0]
8010033c:	4613      	mov	r3, r2
8010033e:	71fb      	strb	r3, [r7, #7]
80100340:	79fb      	ldrb	r3, [r7, #7]
80100342:	011a      	lsls	r2, r3, #4
80100344:	f241 0334 	movw	r3, #4148	; 0x1034
80100348:	f2c8 0310 	movt	r3, #32784	; 0x8010
8010034c:	4413      	add	r3, r2
8010034e:	61fb      	str	r3, [r7, #28]
80100350:	68bb      	ldr	r3, [r7, #8]
80100352:	623b      	str	r3, [r7, #32]
80100354:	e025      	b.n	801003a2 <fb_print_char+0x72>
80100356:	69fb      	ldr	r3, [r7, #28]
80100358:	1c5a      	adds	r2, r3, #1
8010035a:	61fa      	str	r2, [r7, #28]
8010035c:	781b      	ldrb	r3, [r3, #0]
8010035e:	75fb      	strb	r3, [r7, #23]
80100360:	2307      	movs	r3, #7
80100362:	61bb      	str	r3, [r7, #24]
80100364:	68fb      	ldr	r3, [r7, #12]
80100366:	627b      	str	r3, [r7, #36]	; 0x24
80100368:	e012      	b.n	80100390 <fb_print_char+0x60>
8010036a:	7dfa      	ldrb	r2, [r7, #23]
8010036c:	69bb      	ldr	r3, [r7, #24]
8010036e:	fa42 f303 	asr.w	r3, r2, r3
80100372:	f003 0301 	and.w	r3, r3, #1
80100376:	2b00      	cmp	r3, #0
80100378:	d004      	beq.n	80100384 <fb_print_char+0x54>
8010037a:	683a      	ldr	r2, [r7, #0]
8010037c:	6a39      	ldr	r1, [r7, #32]
8010037e:	6a78      	ldr	r0, [r7, #36]	; 0x24
80100380:	f000 fa8a 	bl	80100898 <fb_put_pixel>
80100384:	69bb      	ldr	r3, [r7, #24]
80100386:	3b01      	subs	r3, #1
80100388:	61bb      	str	r3, [r7, #24]
8010038a:	6a7b      	ldr	r3, [r7, #36]	; 0x24
8010038c:	3301      	adds	r3, #1
8010038e:	627b      	str	r3, [r7, #36]	; 0x24
80100390:	68fb      	ldr	r3, [r7, #12]
80100392:	f103 0208 	add.w	r2, r3, #8
80100396:	6a7b      	ldr	r3, [r7, #36]	; 0x24
80100398:	429a      	cmp	r2, r3
8010039a:	dce6      	bgt.n	8010036a <fb_print_char+0x3a>
8010039c:	6a3b      	ldr	r3, [r7, #32]
8010039e:	3301      	adds	r3, #1
801003a0:	623b      	str	r3, [r7, #32]
801003a2:	68bb      	ldr	r3, [r7, #8]
801003a4:	f103 0210 	add.w	r2, r3, #16
801003a8:	6a3b      	ldr	r3, [r7, #32]
801003aa:	429a      	cmp	r2, r3
801003ac:	dcd3      	bgt.n	80100356 <fb_print_char+0x26>
801003ae:	bf00      	nop
801003b0:	3728      	adds	r7, #40	; 0x28
801003b2:	46bd      	mov	sp, r7
801003b4:	bd80      	pop	{r7, pc}

801003b6 <fb_print_string>:
801003b6:	b580      	push	{r7, lr}
801003b8:	b086      	sub	sp, #24
801003ba:	af00      	add	r7, sp, #0
801003bc:	60f8      	str	r0, [r7, #12]
801003be:	60b9      	str	r1, [r7, #8]
801003c0:	607a      	str	r2, [r7, #4]
801003c2:	603b      	str	r3, [r7, #0]
801003c4:	2300      	movs	r3, #0
801003c6:	617b      	str	r3, [r7, #20]
801003c8:	e02e      	b.n	80100428 <fb_print_string+0x72>
801003ca:	697b      	ldr	r3, [r7, #20]
801003cc:	687a      	ldr	r2, [r7, #4]
801003ce:	4413      	add	r3, r2
801003d0:	781b      	ldrb	r3, [r3, #0]
801003d2:	2b0a      	cmp	r3, #10
801003d4:	d103      	bne.n	801003de <fb_print_string+0x28>
801003d6:	68bb      	ldr	r3, [r7, #8]
801003d8:	3310      	adds	r3, #16
801003da:	60bb      	str	r3, [r7, #8]
801003dc:	e021      	b.n	80100422 <fb_print_string+0x6c>
801003de:	697b      	ldr	r3, [r7, #20]
801003e0:	687a      	ldr	r2, [r7, #4]
801003e2:	4413      	add	r3, r2
801003e4:	781b      	ldrb	r3, [r3, #0]
801003e6:	2b0d      	cmp	r3, #13
801003e8:	d102      	bne.n	801003f0 <fb_print_string+0x3a>
801003ea:	2300      	movs	r3, #0
801003ec:	60fb      	str	r3, [r7, #12]
801003ee:	e018      	b.n	80100422 <fb_print_string+0x6c>
801003f0:	697b      	ldr	r3, [r7, #20]
801003f2:	687a      	ldr	r2, [r7, #4]
801003f4:	4413      	add	r3, r2
801003f6:	781a      	ldrb	r2, [r3, #0]
801003f8:	683b      	ldr	r3, [r7, #0]
801003fa:	68b9      	ldr	r1, [r7, #8]
801003fc:	68f8      	ldr	r0, [r7, #12]
801003fe:	f7ff ff97 	bl	80100330 <fb_print_char>
80100402:	68fb      	ldr	r3, [r7, #12]
80100404:	3308      	adds	r3, #8
80100406:	60fb      	str	r3, [r7, #12]
80100408:	f242 03b4 	movw	r3, #8372	; 0x20b4
8010040c:	f2c8 0310 	movt	r3, #32784	; 0x8010
80100410:	681b      	ldr	r3, [r3, #0]
80100412:	68fa      	ldr	r2, [r7, #12]
80100414:	429a      	cmp	r2, r3
80100416:	db04      	blt.n	80100422 <fb_print_string+0x6c>
80100418:	2300      	movs	r3, #0
8010041a:	60fb      	str	r3, [r7, #12]
8010041c:	68bb      	ldr	r3, [r7, #8]
8010041e:	3310      	adds	r3, #16
80100420:	60bb      	str	r3, [r7, #8]
80100422:	697b      	ldr	r3, [r7, #20]
80100424:	3301      	adds	r3, #1
80100426:	617b      	str	r3, [r7, #20]
80100428:	697b      	ldr	r3, [r7, #20]
8010042a:	687a      	ldr	r2, [r7, #4]
8010042c:	4413      	add	r3, r2
8010042e:	781b      	ldrb	r3, [r3, #0]
80100430:	2b00      	cmp	r3, #0
80100432:	d1ca      	bne.n	801003ca <fb_print_string+0x14>
80100434:	bf00      	nop
80100436:	3718      	adds	r7, #24
80100438:	46bd      	mov	sp, r7
8010043a:	bd80      	pop	{r7, pc}

8010043c <draw_circle>:
8010043c:	b580      	push	{r7, lr}
8010043e:	b088      	sub	sp, #32
80100440:	af00      	add	r7, sp, #0
80100442:	60f8      	str	r0, [r7, #12]
80100444:	60b9      	str	r1, [r7, #8]
80100446:	607a      	str	r2, [r7, #4]
80100448:	603b      	str	r3, [r7, #0]
8010044a:	2300      	movs	r3, #0
8010044c:	61fb      	str	r3, [r7, #28]
8010044e:	687b      	ldr	r3, [r7, #4]
80100450:	61bb      	str	r3, [r7, #24]
80100452:	e06a      	b.n	8010052a <draw_circle+0xee>
80100454:	68fa      	ldr	r2, [r7, #12]
80100456:	69fb      	ldr	r3, [r7, #28]
80100458:	18d0      	adds	r0, r2, r3
8010045a:	68ba      	ldr	r2, [r7, #8]
8010045c:	69bb      	ldr	r3, [r7, #24]
8010045e:	1ad3      	subs	r3, r2, r3
80100460:	683a      	ldr	r2, [r7, #0]
80100462:	4619      	mov	r1, r3
80100464:	f000 fa18 	bl	80100898 <fb_put_pixel>
80100468:	68fa      	ldr	r2, [r7, #12]
8010046a:	69fb      	ldr	r3, [r7, #28]
8010046c:	1ad0      	subs	r0, r2, r3
8010046e:	68ba      	ldr	r2, [r7, #8]
80100470:	69bb      	ldr	r3, [r7, #24]
80100472:	1ad3      	subs	r3, r2, r3
80100474:	683a      	ldr	r2, [r7, #0]
80100476:	4619      	mov	r1, r3
80100478:	f000 fa0e 	bl	80100898 <fb_put_pixel>
8010047c:	68fa      	ldr	r2, [r7, #12]
8010047e:	69fb      	ldr	r3, [r7, #28]
80100480:	1ad0      	subs	r0, r2, r3
80100482:	68ba      	ldr	r2, [r7, #8]
80100484:	69bb      	ldr	r3, [r7, #24]
80100486:	4413      	add	r3, r2
80100488:	683a      	ldr	r2, [r7, #0]
8010048a:	4619      	mov	r1, r3
8010048c:	f000 fa04 	bl	80100898 <fb_put_pixel>
80100490:	68fa      	ldr	r2, [r7, #12]
80100492:	69fb      	ldr	r3, [r7, #28]
80100494:	18d0      	adds	r0, r2, r3
80100496:	68ba      	ldr	r2, [r7, #8]
80100498:	69bb      	ldr	r3, [r7, #24]
8010049a:	4413      	add	r3, r2
8010049c:	683a      	ldr	r2, [r7, #0]
8010049e:	4619      	mov	r1, r3
801004a0:	f000 f9fa 	bl	80100898 <fb_put_pixel>
801004a4:	68fa      	ldr	r2, [r7, #12]
801004a6:	69bb      	ldr	r3, [r7, #24]
801004a8:	18d0      	adds	r0, r2, r3
801004aa:	68ba      	ldr	r2, [r7, #8]
801004ac:	69fb      	ldr	r3, [r7, #28]
801004ae:	4413      	add	r3, r2
801004b0:	683a      	ldr	r2, [r7, #0]
801004b2:	4619      	mov	r1, r3
801004b4:	f000 f9f0 	bl	80100898 <fb_put_pixel>
801004b8:	68fa      	ldr	r2, [r7, #12]
801004ba:	69bb      	ldr	r3, [r7, #24]
801004bc:	18d0      	adds	r0, r2, r3
801004be:	68ba      	ldr	r2, [r7, #8]
801004c0:	69fb      	ldr	r3, [r7, #28]
801004c2:	1ad3      	subs	r3, r2, r3
801004c4:	683a      	ldr	r2, [r7, #0]
801004c6:	4619      	mov	r1, r3
801004c8:	f000 f9e6 	bl	80100898 <fb_put_pixel>
801004cc:	68fa      	ldr	r2, [r7, #12]
801004ce:	69bb      	ldr	r3, [r7, #24]
801004d0:	1ad0      	subs	r0, r2, r3
801004d2:	68ba      	ldr	r2, [r7, #8]
801004d4:	69fb      	ldr	r3, [r7, #28]
801004d6:	1ad3      	subs	r3, r2, r3
801004d8:	683a      	ldr	r2, [r7, #0]
801004da:	4619      	mov	r1, r3
801004dc:	f000 f9dc 	bl	80100898 <fb_put_pixel>
801004e0:	68fa      	ldr	r2, [r7, #12]
801004e2:	69bb      	ldr	r3, [r7, #24]
801004e4:	1ad0      	subs	r0, r2, r3
801004e6:	68ba      	ldr	r2, [r7, #8]
801004e8:	69fb      	ldr	r3, [r7, #28]
801004ea:	4413      	add	r3, r2
801004ec:	683a      	ldr	r2, [r7, #0]
801004ee:	4619      	mov	r1, r3
801004f0:	f000 f9d2 	bl	80100898 <fb_put_pixel>
801004f4:	69fb      	ldr	r3, [r7, #28]
801004f6:	3301      	adds	r3, #1
801004f8:	61fb      	str	r3, [r7, #28]
801004fa:	69fb      	ldr	r3, [r7, #28]
801004fc:	69fa      	ldr	r2, [r7, #28]
801004fe:	fb02 f203 	mul.w	r2, r2, r3
80100502:	69bb      	ldr	r3, [r7, #24]
80100504:	69b9      	ldr	r1, [r7, #24]
80100506:	fb01 f303 	mul.w	r3, r1, r3
8010050a:	441a      	add	r2, r3
8010050c:	687b      	ldr	r3, [r7, #4]
8010050e:	6879      	ldr	r1, [r7, #4]
80100510:	fb01 f303 	mul.w	r3, r1, r3
80100514:	1ad3      	subs	r3, r2, r3
80100516:	617b      	str	r3, [r7, #20]
80100518:	697b      	ldr	r3, [r7, #20]
8010051a:	2b00      	cmp	r3, #0
8010051c:	dd05      	ble.n	8010052a <draw_circle+0xee>
8010051e:	69bb      	ldr	r3, [r7, #24]
80100520:	3b01      	subs	r3, #1
80100522:	61bb      	str	r3, [r7, #24]
80100524:	69fb      	ldr	r3, [r7, #28]
80100526:	3b01      	subs	r3, #1
80100528:	61fb      	str	r3, [r7, #28]
8010052a:	69bb      	ldr	r3, [r7, #24]
8010052c:	2216      	movs	r2, #22
8010052e:	fb02 f303 	mul.w	r3, r2, r3
80100532:	69ba      	ldr	r2, [r7, #24]
80100534:	fb02 f203 	mul.w	r2, r2, r3
80100538:	687b      	ldr	r3, [r7, #4]
8010053a:	6879      	ldr	r1, [r7, #4]
8010053c:	fb01 f303 	mul.w	r3, r1, r3
80100540:	429a      	cmp	r2, r3
80100542:	da87      	bge.n	80100454 <draw_circle+0x18>
80100544:	bf00      	nop
80100546:	3720      	adds	r7, #32
80100548:	46bd      	mov	sp, r7
8010054a:	bd80      	pop	{r7, pc}

8010054c <draw_line>:
8010054c:	b580      	push	{r7, lr}
8010054e:	b088      	sub	sp, #32
80100550:	af00      	add	r7, sp, #0
80100552:	60f8      	str	r0, [r7, #12]
80100554:	60b9      	str	r1, [r7, #8]
80100556:	607a      	str	r2, [r7, #4]
80100558:	603b      	str	r3, [r7, #0]
8010055a:	687a      	ldr	r2, [r7, #4]
8010055c:	68fb      	ldr	r3, [r7, #12]
8010055e:	1ad3      	subs	r3, r2, r3
80100560:	61bb      	str	r3, [r7, #24]
80100562:	683a      	ldr	r2, [r7, #0]
80100564:	68bb      	ldr	r3, [r7, #8]
80100566:	1ad3      	subs	r3, r2, r3
80100568:	617b      	str	r3, [r7, #20]
8010056a:	69bb      	ldr	r3, [r7, #24]
8010056c:	2b00      	cmp	r3, #0
8010056e:	f2c0 80a6 	blt.w	801006be <draw_line+0x172>
80100572:	697b      	ldr	r3, [r7, #20]
80100574:	2b00      	cmp	r3, #0
80100576:	db4f      	blt.n	80100618 <draw_line+0xcc>
80100578:	69ba      	ldr	r2, [r7, #24]
8010057a:	697b      	ldr	r3, [r7, #20]
8010057c:	429a      	cmp	r2, r3
8010057e:	db25      	blt.n	801005cc <draw_line+0x80>
80100580:	69bb      	ldr	r3, [r7, #24]
80100582:	0fda      	lsrs	r2, r3, #31
80100584:	4413      	add	r3, r2
80100586:	105b      	asrs	r3, r3, #1
80100588:	425b      	negs	r3, r3
8010058a:	461a      	mov	r2, r3
8010058c:	697b      	ldr	r3, [r7, #20]
8010058e:	4413      	add	r3, r2
80100590:	61fb      	str	r3, [r7, #28]
80100592:	e016      	b.n	801005c2 <draw_line+0x76>
80100594:	6abb      	ldr	r3, [r7, #40]	; 0x28
80100596:	461a      	mov	r2, r3
80100598:	68b9      	ldr	r1, [r7, #8]
8010059a:	68f8      	ldr	r0, [r7, #12]
8010059c:	f000 f97c 	bl	80100898 <fb_put_pixel>
801005a0:	69fb      	ldr	r3, [r7, #28]
801005a2:	2b00      	cmp	r3, #0
801005a4:	dd06      	ble.n	801005b4 <draw_line+0x68>
801005a6:	68bb      	ldr	r3, [r7, #8]
801005a8:	3301      	adds	r3, #1
801005aa:	60bb      	str	r3, [r7, #8]
801005ac:	69fa      	ldr	r2, [r7, #28]
801005ae:	69bb      	ldr	r3, [r7, #24]
801005b0:	1ad3      	subs	r3, r2, r3
801005b2:	61fb      	str	r3, [r7, #28]
801005b4:	68fb      	ldr	r3, [r7, #12]
801005b6:	3301      	adds	r3, #1
801005b8:	60fb      	str	r3, [r7, #12]
801005ba:	69fa      	ldr	r2, [r7, #28]
801005bc:	697b      	ldr	r3, [r7, #20]
801005be:	4413      	add	r3, r2
801005c0:	61fb      	str	r3, [r7, #28]
801005c2:	68fa      	ldr	r2, [r7, #12]
801005c4:	687b      	ldr	r3, [r7, #4]
801005c6:	429a      	cmp	r2, r3
801005c8:	dde4      	ble.n	80100594 <draw_line+0x48>
801005ca:	e120      	b.n	8010080e <draw_line+0x2c2>
801005cc:	697b      	ldr	r3, [r7, #20]
801005ce:	0fda      	lsrs	r2, r3, #31
801005d0:	4413      	add	r3, r2
801005d2:	105b      	asrs	r3, r3, #1
801005d4:	425b      	negs	r3, r3
801005d6:	461a      	mov	r2, r3
801005d8:	69bb      	ldr	r3, [r7, #24]
801005da:	4413      	add	r3, r2
801005dc:	61fb      	str	r3, [r7, #28]
801005de:	e016      	b.n	8010060e <draw_line+0xc2>
801005e0:	6abb      	ldr	r3, [r7, #40]	; 0x28
801005e2:	461a      	mov	r2, r3
801005e4:	68b9      	ldr	r1, [r7, #8]
801005e6:	68f8      	ldr	r0, [r7, #12]
801005e8:	f000 f956 	bl	80100898 <fb_put_pixel>
801005ec:	69fb      	ldr	r3, [r7, #28]
801005ee:	2b00      	cmp	r3, #0
801005f0:	dd06      	ble.n	80100600 <draw_line+0xb4>
801005f2:	68fb      	ldr	r3, [r7, #12]
801005f4:	3301      	adds	r3, #1
801005f6:	60fb      	str	r3, [r7, #12]
801005f8:	69fa      	ldr	r2, [r7, #28]
801005fa:	697b      	ldr	r3, [r7, #20]
801005fc:	1ad3      	subs	r3, r2, r3
801005fe:	61fb      	str	r3, [r7, #28]
80100600:	68bb      	ldr	r3, [r7, #8]
80100602:	3301      	adds	r3, #1
80100604:	60bb      	str	r3, [r7, #8]
80100606:	69fa      	ldr	r2, [r7, #28]
80100608:	69bb      	ldr	r3, [r7, #24]
8010060a:	4413      	add	r3, r2
8010060c:	61fb      	str	r3, [r7, #28]
8010060e:	68ba      	ldr	r2, [r7, #8]
80100610:	683b      	ldr	r3, [r7, #0]
80100612:	429a      	cmp	r2, r3
80100614:	dde4      	ble.n	801005e0 <draw_line+0x94>
80100616:	e0fa      	b.n	8010080e <draw_line+0x2c2>
80100618:	697b      	ldr	r3, [r7, #20]
8010061a:	425b      	negs	r3, r3
8010061c:	617b      	str	r3, [r7, #20]
8010061e:	69ba      	ldr	r2, [r7, #24]
80100620:	697b      	ldr	r3, [r7, #20]
80100622:	429a      	cmp	r2, r3
80100624:	db25      	blt.n	80100672 <draw_line+0x126>
80100626:	69bb      	ldr	r3, [r7, #24]
80100628:	0fda      	lsrs	r2, r3, #31
8010062a:	4413      	add	r3, r2
8010062c:	105b      	asrs	r3, r3, #1
8010062e:	425b      	negs	r3, r3
80100630:	461a      	mov	r2, r3
80100632:	697b      	ldr	r3, [r7, #20]
80100634:	4413      	add	r3, r2
80100636:	61fb      	str	r3, [r7, #28]
80100638:	e016      	b.n	80100668 <draw_line+0x11c>
8010063a:	6abb      	ldr	r3, [r7, #40]	; 0x28
8010063c:	461a      	mov	r2, r3
8010063e:	68b9      	ldr	r1, [r7, #8]
80100640:	68f8      	ldr	r0, [r7, #12]
80100642:	f000 f929 	bl	80100898 <fb_put_pixel>
80100646:	69fb      	ldr	r3, [r7, #28]
80100648:	2b00      	cmp	r3, #0
8010064a:	dd06      	ble.n	8010065a <draw_line+0x10e>
8010064c:	68bb      	ldr	r3, [r7, #8]
8010064e:	3b01      	subs	r3, #1
80100650:	60bb      	str	r3, [r7, #8]
80100652:	69fa      	ldr	r2, [r7, #28]
80100654:	69bb      	ldr	r3, [r7, #24]
80100656:	1ad3      	subs	r3, r2, r3
80100658:	61fb      	str	r3, [r7, #28]
8010065a:	68fb      	ldr	r3, [r7, #12]
8010065c:	3301      	adds	r3, #1
8010065e:	60fb      	str	r3, [r7, #12]
80100660:	69fa      	ldr	r2, [r7, #28]
80100662:	697b      	ldr	r3, [r7, #20]
80100664:	4413      	add	r3, r2
80100666:	61fb      	str	r3, [r7, #28]
80100668:	68fa      	ldr	r2, [r7, #12]
8010066a:	687b      	ldr	r3, [r7, #4]
8010066c:	429a      	cmp	r2, r3
8010066e:	dde4      	ble.n	8010063a <draw_line+0xee>
80100670:	e0cd      	b.n	8010080e <draw_line+0x2c2>
80100672:	697b      	ldr	r3, [r7, #20]
80100674:	0fda      	lsrs	r2, r3, #31
80100676:	4413      	add	r3, r2
80100678:	105b      	asrs	r3, r3, #1
8010067a:	425b      	negs	r3, r3
8010067c:	461a      	mov	r2, r3
8010067e:	69bb      	ldr	r3, [r7, #24]
80100680:	4413      	add	r3, r2
80100682:	61fb      	str	r3, [r7, #28]
80100684:	e016      	b.n	801006b4 <draw_line+0x168>
80100686:	6abb      	ldr	r3, [r7, #40]	; 0x28
80100688:	461a      	mov	r2, r3
8010068a:	68b9      	ldr	r1, [r7, #8]
8010068c:	68f8      	ldr	r0, [r7, #12]
8010068e:	f000 f903 	bl	80100898 <fb_put_pixel>
80100692:	69fb      	ldr	r3, [r7, #28]
80100694:	2b00      	cmp	r3, #0
80100696:	dd06      	ble.n	801006a6 <draw_line+0x15a>
80100698:	68fb      	ldr	r3, [r7, #12]
8010069a:	3301      	adds	r3, #1
8010069c:	60fb      	str	r3, [r7, #12]
8010069e:	69fa      	ldr	r2, [r7, #28]
801006a0:	697b      	ldr	r3, [r7, #20]
801006a2:	1ad3      	subs	r3, r2, r3
801006a4:	61fb      	str	r3, [r7, #28]
801006a6:	68bb      	ldr	r3, [r7, #8]
801006a8:	3b01      	subs	r3, #1
801006aa:	60bb      	str	r3, [r7, #8]
801006ac:	69fa      	ldr	r2, [r7, #28]
801006ae:	69bb      	ldr	r3, [r7, #24]
801006b0:	4413      	add	r3, r2
801006b2:	61fb      	str	r3, [r7, #28]
801006b4:	68ba      	ldr	r2, [r7, #8]
801006b6:	683b      	ldr	r3, [r7, #0]
801006b8:	429a      	cmp	r2, r3
801006ba:	dae4      	bge.n	80100686 <draw_line+0x13a>
801006bc:	e0a7      	b.n	8010080e <draw_line+0x2c2>
801006be:	69bb      	ldr	r3, [r7, #24]
801006c0:	425b      	negs	r3, r3
801006c2:	61bb      	str	r3, [r7, #24]
801006c4:	697b      	ldr	r3, [r7, #20]
801006c6:	2b00      	cmp	r3, #0
801006c8:	db4f      	blt.n	8010076a <draw_line+0x21e>
801006ca:	69ba      	ldr	r2, [r7, #24]
801006cc:	697b      	ldr	r3, [r7, #20]
801006ce:	429a      	cmp	r2, r3
801006d0:	db25      	blt.n	8010071e <draw_line+0x1d2>
801006d2:	69bb      	ldr	r3, [r7, #24]
801006d4:	0fda      	lsrs	r2, r3, #31
801006d6:	4413      	add	r3, r2
801006d8:	105b      	asrs	r3, r3, #1
801006da:	425b      	negs	r3, r3
801006dc:	461a      	mov	r2, r3
801006de:	697b      	ldr	r3, [r7, #20]
801006e0:	4413      	add	r3, r2
801006e2:	61fb      	str	r3, [r7, #28]
801006e4:	e016      	b.n	80100714 <draw_line+0x1c8>
801006e6:	6abb      	ldr	r3, [r7, #40]	; 0x28
801006e8:	461a      	mov	r2, r3
801006ea:	68b9      	ldr	r1, [r7, #8]
801006ec:	68f8      	ldr	r0, [r7, #12]
801006ee:	f000 f8d3 	bl	80100898 <fb_put_pixel>
801006f2:	69fb      	ldr	r3, [r7, #28]
801006f4:	2b00      	cmp	r3, #0
801006f6:	dd06      	ble.n	80100706 <draw_line+0x1ba>
801006f8:	68bb      	ldr	r3, [r7, #8]
801006fa:	3301      	adds	r3, #1
801006fc:	60bb      	str	r3, [r7, #8]
801006fe:	69fa      	ldr	r2, [r7, #28]
80100700:	69bb      	ldr	r3, [r7, #24]
80100702:	1ad3      	subs	r3, r2, r3
80100704:	61fb      	str	r3, [r7, #28]
80100706:	68fb      	ldr	r3, [r7, #12]
80100708:	3b01      	subs	r3, #1
8010070a:	60fb      	str	r3, [r7, #12]
8010070c:	69fa      	ldr	r2, [r7, #28]
8010070e:	697b      	ldr	r3, [r7, #20]
80100710:	4413      	add	r3, r2
80100712:	61fb      	str	r3, [r7, #28]
80100714:	68fa      	ldr	r2, [r7, #12]
80100716:	687b      	ldr	r3, [r7, #4]
80100718:	429a      	cmp	r2, r3
8010071a:	dae4      	bge.n	801006e6 <draw_line+0x19a>
8010071c:	e077      	b.n	8010080e <draw_line+0x2c2>
8010071e:	697b      	ldr	r3, [r7, #20]
80100720:	0fda      	lsrs	r2, r3, #31
80100722:	4413      	add	r3, r2
80100724:	105b      	asrs	r3, r3, #1
80100726:	425b      	negs	r3, r3
80100728:	461a      	mov	r2, r3
8010072a:	69bb      	ldr	r3, [r7, #24]
8010072c:	4413      	add	r3, r2
8010072e:	61fb      	str	r3, [r7, #28]
80100730:	e016      	b.n	80100760 <draw_line+0x214>
80100732:	6abb      	ldr	r3, [r7, #40]	; 0x28
80100734:	461a      	mov	r2, r3
80100736:	68b9      	ldr	r1, [r7, #8]
80100738:	68f8      	ldr	r0, [r7, #12]
8010073a:	f000 f8ad 	bl	80100898 <fb_put_pixel>
8010073e:	69fb      	ldr	r3, [r7, #28]
80100740:	2b00      	cmp	r3, #0
80100742:	dd06      	ble.n	80100752 <draw_line+0x206>
80100744:	68fb      	ldr	r3, [r7, #12]
80100746:	3b01      	subs	r3, #1
80100748:	60fb      	str	r3, [r7, #12]
8010074a:	69fa      	ldr	r2, [r7, #28]
8010074c:	697b      	ldr	r3, [r7, #20]
8010074e:	1ad3      	subs	r3, r2, r3
80100750:	61fb      	str	r3, [r7, #28]
80100752:	68bb      	ldr	r3, [r7, #8]
80100754:	3301      	adds	r3, #1
80100756:	60bb      	str	r3, [r7, #8]
80100758:	69fa      	ldr	r2, [r7, #28]
8010075a:	69bb      	ldr	r3, [r7, #24]
8010075c:	4413      	add	r3, r2
8010075e:	61fb      	str	r3, [r7, #28]
80100760:	68ba      	ldr	r2, [r7, #8]
80100762:	683b      	ldr	r3, [r7, #0]
80100764:	429a      	cmp	r2, r3
80100766:	dde4      	ble.n	80100732 <draw_line+0x1e6>
80100768:	e051      	b.n	8010080e <draw_line+0x2c2>
8010076a:	697b      	ldr	r3, [r7, #20]
8010076c:	425b      	negs	r3, r3
8010076e:	617b      	str	r3, [r7, #20]
80100770:	69ba      	ldr	r2, [r7, #24]
80100772:	697b      	ldr	r3, [r7, #20]
80100774:	429a      	cmp	r2, r3
80100776:	db25      	blt.n	801007c4 <draw_line+0x278>
80100778:	69bb      	ldr	r3, [r7, #24]
8010077a:	0fda      	lsrs	r2, r3, #31
8010077c:	4413      	add	r3, r2
8010077e:	105b      	asrs	r3, r3, #1
80100780:	425b      	negs	r3, r3
80100782:	461a      	mov	r2, r3
80100784:	697b      	ldr	r3, [r7, #20]
80100786:	4413      	add	r3, r2
80100788:	61fb      	str	r3, [r7, #28]
8010078a:	e016      	b.n	801007ba <draw_line+0x26e>
8010078c:	6abb      	ldr	r3, [r7, #40]	; 0x28
8010078e:	461a      	mov	r2, r3
80100790:	68b9      	ldr	r1, [r7, #8]
80100792:	68f8      	ldr	r0, [r7, #12]
80100794:	f000 f880 	bl	80100898 <fb_put_pixel>
80100798:	69fb      	ldr	r3, [r7, #28]
8010079a:	2b00      	cmp	r3, #0
8010079c:	dd06      	ble.n	801007ac <draw_line+0x260>
8010079e:	68bb      	ldr	r3, [r7, #8]
801007a0:	3b01      	subs	r3, #1
801007a2:	60bb      	str	r3, [r7, #8]
801007a4:	69fa      	ldr	r2, [r7, #28]
801007a6:	69bb      	ldr	r3, [r7, #24]
801007a8:	1ad3      	subs	r3, r2, r3
801007aa:	61fb      	str	r3, [r7, #28]
801007ac:	68fb      	ldr	r3, [r7, #12]
801007ae:	3b01      	subs	r3, #1
801007b0:	60fb      	str	r3, [r7, #12]
801007b2:	69fa      	ldr	r2, [r7, #28]
801007b4:	697b      	ldr	r3, [r7, #20]
801007b6:	4413      	add	r3, r2
801007b8:	61fb      	str	r3, [r7, #28]
801007ba:	68fa      	ldr	r2, [r7, #12]
801007bc:	687b      	ldr	r3, [r7, #4]
801007be:	429a      	cmp	r2, r3
801007c0:	dae4      	bge.n	8010078c <draw_line+0x240>
801007c2:	e024      	b.n	8010080e <draw_line+0x2c2>
801007c4:	697b      	ldr	r3, [r7, #20]
801007c6:	0fda      	lsrs	r2, r3, #31
801007c8:	4413      	add	r3, r2
801007ca:	105b      	asrs	r3, r3, #1
801007cc:	425b      	negs	r3, r3
801007ce:	461a      	mov	r2, r3
801007d0:	69bb      	ldr	r3, [r7, #24]
801007d2:	4413      	add	r3, r2
801007d4:	61fb      	str	r3, [r7, #28]
801007d6:	e016      	b.n	80100806 <draw_line+0x2ba>
801007d8:	6abb      	ldr	r3, [r7, #40]	; 0x28
801007da:	461a      	mov	r2, r3
801007dc:	68b9      	ldr	r1, [r7, #8]
801007de:	68f8      	ldr	r0, [r7, #12]
801007e0:	f000 f85a 	bl	80100898 <fb_put_pixel>
801007e4:	69fb      	ldr	r3, [r7, #28]
801007e6:	2b00      	cmp	r3, #0
801007e8:	dd06      	ble.n	801007f8 <draw_line+0x2ac>
801007ea:	68fb      	ldr	r3, [r7, #12]
801007ec:	3b01      	subs	r3, #1
801007ee:	60fb      	str	r3, [r7, #12]
801007f0:	69fa      	ldr	r2, [r7, #28]
801007f2:	697b      	ldr	r3, [r7, #20]
801007f4:	1ad3      	subs	r3, r2, r3
801007f6:	61fb      	str	r3, [r7, #28]
801007f8:	68bb      	ldr	r3, [r7, #8]
801007fa:	3b01      	subs	r3, #1
801007fc:	60bb      	str	r3, [r7, #8]
801007fe:	69fa      	ldr	r2, [r7, #28]
80100800:	69bb      	ldr	r3, [r7, #24]
80100802:	4413      	add	r3, r2
80100804:	61fb      	str	r3, [r7, #28]
80100806:	68ba      	ldr	r2, [r7, #8]
80100808:	683b      	ldr	r3, [r7, #0]
8010080a:	429a      	cmp	r2, r3
8010080c:	dae4      	bge.n	801007d8 <draw_line+0x28c>
8010080e:	bf00      	nop
80100810:	3720      	adds	r7, #32
80100812:	46bd      	mov	sp, r7
80100814:	bd80      	pop	{r7, pc}

80100816 <fb_get_lcd_params>:
80100816:	b580      	push	{r7, lr}
80100818:	af00      	add	r7, sp, #0
8010081a:	f242 03cc 	movw	r3, #8396	; 0x20cc
8010081e:	f2c8 0310 	movt	r3, #32784	; 0x8010
80100822:	f242 02c8 	movw	r2, #8392	; 0x20c8
80100826:	f2c8 0210 	movt	r2, #32784	; 0x8010
8010082a:	f242 01c4 	movw	r1, #8388	; 0x20c4
8010082e:	f2c8 0110 	movt	r1, #32784	; 0x8010
80100832:	f242 00c0 	movw	r0, #8384	; 0x20c0
80100836:	f2c8 0010 	movt	r0, #32784	; 0x8010
8010083a:	f000 f9b2 	bl	80100ba2 <get_lcd_params>
8010083e:	bf00      	nop
80100840:	bd80      	pop	{r7, pc}

80100842 <convert32bppto16bpp>:
80100842:	b480      	push	{r7}
80100844:	b087      	sub	sp, #28
80100846:	af00      	add	r7, sp, #0
80100848:	6078      	str	r0, [r7, #4]
8010084a:	687b      	ldr	r3, [r7, #4]
8010084c:	0c1b      	lsrs	r3, r3, #16
8010084e:	b2db      	uxtb	r3, r3
80100850:	617b      	str	r3, [r7, #20]
80100852:	687b      	ldr	r3, [r7, #4]
80100854:	0a1b      	lsrs	r3, r3, #8
80100856:	b2db      	uxtb	r3, r3
80100858:	613b      	str	r3, [r7, #16]
8010085a:	687b      	ldr	r3, [r7, #4]
8010085c:	b2db      	uxtb	r3, r3
8010085e:	60fb      	str	r3, [r7, #12]
80100860:	697b      	ldr	r3, [r7, #20]
80100862:	10db      	asrs	r3, r3, #3
80100864:	617b      	str	r3, [r7, #20]
80100866:	693b      	ldr	r3, [r7, #16]
80100868:	10db      	asrs	r3, r3, #3
8010086a:	613b      	str	r3, [r7, #16]
8010086c:	68fb      	ldr	r3, [r7, #12]
8010086e:	10db      	asrs	r3, r3, #3
80100870:	60fb      	str	r3, [r7, #12]
80100872:	697b      	ldr	r3, [r7, #20]
80100874:	029b      	lsls	r3, r3, #10
80100876:	b21a      	sxth	r2, r3
80100878:	693b      	ldr	r3, [r7, #16]
8010087a:	015b      	lsls	r3, r3, #5
8010087c:	b21b      	sxth	r3, r3
8010087e:	4313      	orrs	r3, r2
80100880:	b21a      	sxth	r2, r3
80100882:	68fb      	ldr	r3, [r7, #12]
80100884:	b21b      	sxth	r3, r3
80100886:	4313      	orrs	r3, r2
80100888:	b21b      	sxth	r3, r3
8010088a:	b29b      	uxth	r3, r3
8010088c:	4618      	mov	r0, r3
8010088e:	371c      	adds	r7, #28
80100890:	46bd      	mov	sp, r7
80100892:	f85d 7b04 	ldr.w	r7, [sp], #4
80100896:	4770      	bx	lr

80100898 <fb_put_pixel>:
80100898:	b580      	push	{r7, lr}
8010089a:	b088      	sub	sp, #32
8010089c:	af00      	add	r7, sp, #0
8010089e:	60f8      	str	r0, [r7, #12]
801008a0:	60b9      	str	r1, [r7, #8]
801008a2:	607a      	str	r2, [r7, #4]
801008a4:	f242 03c4 	movw	r3, #8388	; 0x20c4
801008a8:	f2c8 0310 	movt	r3, #32784	; 0x8010
801008ac:	681a      	ldr	r2, [r3, #0]
801008ae:	f242 03cc 	movw	r3, #8396	; 0x20cc
801008b2:	f2c8 0310 	movt	r3, #32784	; 0x8010
801008b6:	681b      	ldr	r3, [r3, #0]
801008b8:	fb03 f302 	mul.w	r3, r3, r2
801008bc:	1dda      	adds	r2, r3, #7
801008be:	2b00      	cmp	r3, #0
801008c0:	bfb4      	ite	lt
801008c2:	4613      	movlt	r3, r2
801008c4:	461b      	movge	r3, r3
801008c6:	10db      	asrs	r3, r3, #3
801008c8:	461a      	mov	r2, r3
801008ca:	68bb      	ldr	r3, [r7, #8]
801008cc:	fb03 f302 	mul.w	r3, r3, r2
801008d0:	461a      	mov	r2, r3
801008d2:	f242 03c0 	movw	r3, #8384	; 0x20c0
801008d6:	f2c8 0310 	movt	r3, #32784	; 0x8010
801008da:	681b      	ldr	r3, [r3, #0]
801008dc:	441a      	add	r2, r3
801008de:	f242 03cc 	movw	r3, #8396	; 0x20cc
801008e2:	f2c8 0310 	movt	r3, #32784	; 0x8010
801008e6:	681b      	ldr	r3, [r3, #0]
801008e8:	68f9      	ldr	r1, [r7, #12]
801008ea:	fb01 f303 	mul.w	r3, r1, r3
801008ee:	1dd9      	adds	r1, r3, #7
801008f0:	2b00      	cmp	r3, #0
801008f2:	bfb4      	ite	lt
801008f4:	460b      	movlt	r3, r1
801008f6:	461b      	movge	r3, r3
801008f8:	10db      	asrs	r3, r3, #3
801008fa:	4413      	add	r3, r2
801008fc:	61fb      	str	r3, [r7, #28]
801008fe:	f242 03cc 	movw	r3, #8396	; 0x20cc
80100902:	f2c8 0310 	movt	r3, #32784	; 0x8010
80100906:	681b      	ldr	r3, [r3, #0]
80100908:	2b10      	cmp	r3, #16
8010090a:	d002      	beq.n	80100912 <fb_put_pixel+0x7a>
8010090c:	2b20      	cmp	r3, #32
8010090e:	d00a      	beq.n	80100926 <fb_put_pixel+0x8e>
80100910:	e00f      	b.n	80100932 <fb_put_pixel+0x9a>
80100912:	69fb      	ldr	r3, [r7, #28]
80100914:	61bb      	str	r3, [r7, #24]
80100916:	6878      	ldr	r0, [r7, #4]
80100918:	f7ff ff93 	bl	80100842 <convert32bppto16bpp>
8010091c:	4603      	mov	r3, r0
8010091e:	461a      	mov	r2, r3
80100920:	69bb      	ldr	r3, [r7, #24]
80100922:	801a      	strh	r2, [r3, #0]
80100924:	e005      	b.n	80100932 <fb_put_pixel+0x9a>
80100926:	69fb      	ldr	r3, [r7, #28]
80100928:	617b      	str	r3, [r7, #20]
8010092a:	697b      	ldr	r3, [r7, #20]
8010092c:	687a      	ldr	r2, [r7, #4]
8010092e:	601a      	str	r2, [r3, #0]
80100930:	bf00      	nop
80100932:	bf00      	nop
80100934:	3720      	adds	r7, #32
80100936:	46bd      	mov	sp, r7
80100938:	bd80      	pop	{r7, pc}

8010093a <strcmp>:
8010093a:	b490      	push	{r4, r7}
8010093c:	b082      	sub	sp, #8
8010093e:	af00      	add	r7, sp, #0
80100940:	6078      	str	r0, [r7, #4]
80100942:	6039      	str	r1, [r7, #0]
80100944:	687b      	ldr	r3, [r7, #4]
80100946:	781a      	ldrb	r2, [r3, #0]
80100948:	683b      	ldr	r3, [r7, #0]
8010094a:	1c59      	adds	r1, r3, #1
8010094c:	6039      	str	r1, [r7, #0]
8010094e:	781b      	ldrb	r3, [r3, #0]
80100950:	1ad3      	subs	r3, r2, r3
80100952:	b2db      	uxtb	r3, r3
80100954:	b25c      	sxtb	r4, r3
80100956:	2c00      	cmp	r4, #0
80100958:	d106      	bne.n	80100968 <strcmp+0x2e>
8010095a:	687b      	ldr	r3, [r7, #4]
8010095c:	1c5a      	adds	r2, r3, #1
8010095e:	607a      	str	r2, [r7, #4]
80100960:	781b      	ldrb	r3, [r3, #0]
80100962:	2b00      	cmp	r3, #0
80100964:	d000      	beq.n	80100968 <strcmp+0x2e>
80100966:	e7ed      	b.n	80100944 <strcmp+0xa>
80100968:	4623      	mov	r3, r4
8010096a:	4618      	mov	r0, r3
8010096c:	3708      	adds	r7, #8
8010096e:	46bd      	mov	sp, r7
80100970:	bc90      	pop	{r4, r7}
80100972:	4770      	bx	lr

80100974 <register_lcd_controller>:
80100974:	b480      	push	{r7}
80100976:	b085      	sub	sp, #20
80100978:	af00      	add	r7, sp, #0
8010097a:	6078      	str	r0, [r7, #4]
8010097c:	2300      	movs	r3, #0
8010097e:	60fb      	str	r3, [r7, #12]
80100980:	e015      	b.n	801009ae <register_lcd_controller+0x3a>
80100982:	f242 03d0 	movw	r3, #8400	; 0x20d0
80100986:	f2c8 0310 	movt	r3, #32784	; 0x8010
8010098a:	68fa      	ldr	r2, [r7, #12]
8010098c:	f853 3022 	ldr.w	r3, [r3, r2, lsl #2]
80100990:	2b00      	cmp	r3, #0
80100992:	d109      	bne.n	801009a8 <register_lcd_controller+0x34>
80100994:	f242 03d0 	movw	r3, #8400	; 0x20d0
80100998:	f2c8 0310 	movt	r3, #32784	; 0x8010
8010099c:	68fa      	ldr	r2, [r7, #12]
8010099e:	6879      	ldr	r1, [r7, #4]
801009a0:	f843 1022 	str.w	r1, [r3, r2, lsl #2]
801009a4:	68fb      	ldr	r3, [r7, #12]
801009a6:	e007      	b.n	801009b8 <register_lcd_controller+0x44>
801009a8:	68fb      	ldr	r3, [r7, #12]
801009aa:	3301      	adds	r3, #1
801009ac:	60fb      	str	r3, [r7, #12]
801009ae:	68fb      	ldr	r3, [r7, #12]
801009b0:	2b09      	cmp	r3, #9
801009b2:	dde6      	ble.n	80100982 <register_lcd_controller+0xe>
801009b4:	f04f 33ff 	mov.w	r3, #4294967295	; 0xffffffff
801009b8:	4618      	mov	r0, r3
801009ba:	3714      	adds	r7, #20
801009bc:	46bd      	mov	sp, r7
801009be:	f85d 7b04 	ldr.w	r7, [sp], #4
801009c2:	4770      	bx	lr

801009c4 <select_lcd_controller>:
801009c4:	b580      	push	{r7, lr}
801009c6:	b084      	sub	sp, #16
801009c8:	af00      	add	r7, sp, #0
801009ca:	6078      	str	r0, [r7, #4]
801009cc:	2300      	movs	r3, #0
801009ce:	60fb      	str	r3, [r7, #12]
801009d0:	e028      	b.n	80100a24 <select_lcd_controller+0x60>
801009d2:	f242 03d0 	movw	r3, #8400	; 0x20d0
801009d6:	f2c8 0310 	movt	r3, #32784	; 0x8010
801009da:	68fa      	ldr	r2, [r7, #12]
801009dc:	f853 3022 	ldr.w	r3, [r3, r2, lsl #2]
801009e0:	2b00      	cmp	r3, #0
801009e2:	d01c      	beq.n	80100a1e <select_lcd_controller+0x5a>
801009e4:	f242 03d0 	movw	r3, #8400	; 0x20d0
801009e8:	f2c8 0310 	movt	r3, #32784	; 0x8010
801009ec:	68fa      	ldr	r2, [r7, #12]
801009ee:	f853 3022 	ldr.w	r3, [r3, r2, lsl #2]
801009f2:	681b      	ldr	r3, [r3, #0]
801009f4:	6879      	ldr	r1, [r7, #4]
801009f6:	4618      	mov	r0, r3
801009f8:	f7ff ff9f 	bl	8010093a <strcmp>
801009fc:	4603      	mov	r3, r0
801009fe:	2b00      	cmp	r3, #0
80100a00:	d10d      	bne.n	80100a1e <select_lcd_controller+0x5a>
80100a02:	f242 03d0 	movw	r3, #8400	; 0x20d0
80100a06:	f2c8 0310 	movt	r3, #32784	; 0x8010
80100a0a:	68fa      	ldr	r2, [r7, #12]
80100a0c:	f853 2022 	ldr.w	r2, [r3, r2, lsl #2]
80100a10:	f242 03f8 	movw	r3, #8440	; 0x20f8
80100a14:	f2c8 0310 	movt	r3, #32784	; 0x8010
80100a18:	601a      	str	r2, [r3, #0]
80100a1a:	68fb      	ldr	r3, [r7, #12]
80100a1c:	e007      	b.n	80100a2e <select_lcd_controller+0x6a>
80100a1e:	68fb      	ldr	r3, [r7, #12]
80100a20:	3301      	adds	r3, #1
80100a22:	60fb      	str	r3, [r7, #12]
80100a24:	68fb      	ldr	r3, [r7, #12]
80100a26:	2b09      	cmp	r3, #9
80100a28:	ddd3      	ble.n	801009d2 <select_lcd_controller+0xe>
80100a2a:	f04f 33ff 	mov.w	r3, #4294967295	; 0xffffffff
80100a2e:	4618      	mov	r0, r3
80100a30:	3710      	adds	r7, #16
80100a32:	46bd      	mov	sp, r7
80100a34:	bd80      	pop	{r7, pc}

80100a36 <lcd_controller_init>:
80100a36:	b580      	push	{r7, lr}
80100a38:	b082      	sub	sp, #8
80100a3a:	af00      	add	r7, sp, #0
80100a3c:	6078      	str	r0, [r7, #4]
80100a3e:	f242 03f8 	movw	r3, #8440	; 0x20f8
80100a42:	f2c8 0310 	movt	r3, #32784	; 0x8010
80100a46:	681b      	ldr	r3, [r3, #0]
80100a48:	2b00      	cmp	r3, #0
80100a4a:	d009      	beq.n	80100a60 <lcd_controller_init+0x2a>
80100a4c:	f242 03f8 	movw	r3, #8440	; 0x20f8
80100a50:	f2c8 0310 	movt	r3, #32784	; 0x8010
80100a54:	681b      	ldr	r3, [r3, #0]
80100a56:	685b      	ldr	r3, [r3, #4]
80100a58:	6878      	ldr	r0, [r7, #4]
80100a5a:	4798      	blx	r3
80100a5c:	2300      	movs	r3, #0
80100a5e:	e001      	b.n	80100a64 <lcd_controller_init+0x2e>
80100a60:	f04f 33ff 	mov.w	r3, #4294967295	; 0xffffffff
80100a64:	4618      	mov	r0, r3
80100a66:	3708      	adds	r7, #8
80100a68:	46bd      	mov	sp, r7
80100a6a:	bd80      	pop	{r7, pc}

80100a6c <lcd_controller_enable>:
80100a6c:	b580      	push	{r7, lr}
80100a6e:	af00      	add	r7, sp, #0
80100a70:	f242 03f8 	movw	r3, #8440	; 0x20f8
80100a74:	f2c8 0310 	movt	r3, #32784	; 0x8010
80100a78:	681b      	ldr	r3, [r3, #0]
80100a7a:	2b00      	cmp	r3, #0
80100a7c:	d006      	beq.n	80100a8c <lcd_controller_enable+0x20>
80100a7e:	f242 03f8 	movw	r3, #8440	; 0x20f8
80100a82:	f2c8 0310 	movt	r3, #32784	; 0x8010
80100a86:	681b      	ldr	r3, [r3, #0]
80100a88:	689b      	ldr	r3, [r3, #8]
80100a8a:	4798      	blx	r3
80100a8c:	bf00      	nop
80100a8e:	bd80      	pop	{r7, pc}

80100a90 <lcd_controller_disable>:
80100a90:	b580      	push	{r7, lr}
80100a92:	af00      	add	r7, sp, #0
80100a94:	f242 03f8 	movw	r3, #8440	; 0x20f8
80100a98:	f2c8 0310 	movt	r3, #32784	; 0x8010
80100a9c:	681b      	ldr	r3, [r3, #0]
80100a9e:	2b00      	cmp	r3, #0
80100aa0:	d006      	beq.n	80100ab0 <lcd_controller_disable+0x20>
80100aa2:	f242 03f8 	movw	r3, #8440	; 0x20f8
80100aa6:	f2c8 0310 	movt	r3, #32784	; 0x8010
80100aaa:	681b      	ldr	r3, [r3, #0]
80100aac:	68db      	ldr	r3, [r3, #12]
80100aae:	4798      	blx	r3
80100ab0:	bf00      	nop
80100ab2:	bd80      	pop	{r7, pc}

80100ab4 <lcd_contoller_add>:
80100ab4:	b580      	push	{r7, lr}
80100ab6:	af00      	add	r7, sp, #0
80100ab8:	f000 fa9f 	bl	80100ffa <Imx6ull_lcd_controller_add>
80100abc:	bf00      	nop
80100abe:	bd80      	pop	{r7, pc}

80100ac0 <delay>:
80100ac0:	b480      	push	{r7}
80100ac2:	b083      	sub	sp, #12
80100ac4:	af00      	add	r7, sp, #0
80100ac6:	6078      	str	r0, [r7, #4]
80100ac8:	bf00      	nop
80100aca:	687b      	ldr	r3, [r7, #4]
80100acc:	1e5a      	subs	r2, r3, #1
80100ace:	607a      	str	r2, [r7, #4]
80100ad0:	2b00      	cmp	r3, #0
80100ad2:	d1fa      	bne.n	80100aca <delay+0xa>
80100ad4:	bf00      	nop
80100ad6:	370c      	adds	r7, #12
80100ad8:	46bd      	mov	sp, r7
80100ada:	f85d 7b04 	ldr.w	r7, [sp], #4
80100ade:	4770      	bx	lr

80100ae0 <register_lcd>:
80100ae0:	b480      	push	{r7}
80100ae2:	b085      	sub	sp, #20
80100ae4:	af00      	add	r7, sp, #0
80100ae6:	6078      	str	r0, [r7, #4]
80100ae8:	2300      	movs	r3, #0
80100aea:	60fb      	str	r3, [r7, #12]
80100aec:	e015      	b.n	80100b1a <register_lcd+0x3a>
80100aee:	f242 03fc 	movw	r3, #8444	; 0x20fc
80100af2:	f2c8 0310 	movt	r3, #32784	; 0x8010
80100af6:	68fa      	ldr	r2, [r7, #12]
80100af8:	f853 3022 	ldr.w	r3, [r3, r2, lsl #2]
80100afc:	2b00      	cmp	r3, #0
80100afe:	d109      	bne.n	80100b14 <register_lcd+0x34>
80100b00:	f242 03fc 	movw	r3, #8444	; 0x20fc
80100b04:	f2c8 0310 	movt	r3, #32784	; 0x8010
80100b08:	68fa      	ldr	r2, [r7, #12]
80100b0a:	6879      	ldr	r1, [r7, #4]
80100b0c:	f843 1022 	str.w	r1, [r3, r2, lsl #2]
80100b10:	68fb      	ldr	r3, [r7, #12]
80100b12:	e007      	b.n	80100b24 <register_lcd+0x44>
80100b14:	68fb      	ldr	r3, [r7, #12]
80100b16:	3301      	adds	r3, #1
80100b18:	60fb      	str	r3, [r7, #12]
80100b1a:	68fb      	ldr	r3, [r7, #12]
80100b1c:	2b04      	cmp	r3, #4
80100b1e:	dde6      	ble.n	80100aee <register_lcd+0xe>
80100b20:	f04f 33ff 	mov.w	r3, #4294967295	; 0xffffffff
80100b24:	4618      	mov	r0, r3
80100b26:	3714      	adds	r7, #20
80100b28:	46bd      	mov	sp, r7
80100b2a:	f85d 7b04 	ldr.w	r7, [sp], #4
80100b2e:	4770      	bx	lr

80100b30 <select_lcd>:
80100b30:	b580      	push	{r7, lr}
80100b32:	b084      	sub	sp, #16
80100b34:	af00      	add	r7, sp, #0
80100b36:	6078      	str	r0, [r7, #4]
80100b38:	2300      	movs	r3, #0
80100b3a:	60fb      	str	r3, [r7, #12]
80100b3c:	e028      	b.n	80100b90 <select_lcd+0x60>
80100b3e:	f242 03fc 	movw	r3, #8444	; 0x20fc
80100b42:	f2c8 0310 	movt	r3, #32784	; 0x8010
80100b46:	68fa      	ldr	r2, [r7, #12]
80100b48:	f853 3022 	ldr.w	r3, [r3, r2, lsl #2]
80100b4c:	2b00      	cmp	r3, #0
80100b4e:	d01c      	beq.n	80100b8a <select_lcd+0x5a>
80100b50:	f242 03fc 	movw	r3, #8444	; 0x20fc
80100b54:	f2c8 0310 	movt	r3, #32784	; 0x8010
80100b58:	68fa      	ldr	r2, [r7, #12]
80100b5a:	f853 3022 	ldr.w	r3, [r3, r2, lsl #2]
80100b5e:	681b      	ldr	r3, [r3, #0]
80100b60:	6879      	ldr	r1, [r7, #4]
80100b62:	4618      	mov	r0, r3
80100b64:	f7ff fee9 	bl	8010093a <strcmp>
80100b68:	4603      	mov	r3, r0
80100b6a:	2b00      	cmp	r3, #0
80100b6c:	d10d      	bne.n	80100b8a <select_lcd+0x5a>
80100b6e:	f242 03fc 	movw	r3, #8444	; 0x20fc
80100b72:	f2c8 0310 	movt	r3, #32784	; 0x8010
80100b76:	68fa      	ldr	r2, [r7, #12]
80100b78:	f853 2022 	ldr.w	r2, [r3, r2, lsl #2]
80100b7c:	f242 1310 	movw	r3, #8464	; 0x2110
80100b80:	f2c8 0310 	movt	r3, #32784	; 0x8010
80100b84:	601a      	str	r2, [r3, #0]
80100b86:	68fb      	ldr	r3, [r7, #12]
80100b88:	e007      	b.n	80100b9a <select_lcd+0x6a>
80100b8a:	68fb      	ldr	r3, [r7, #12]
80100b8c:	3301      	adds	r3, #1
80100b8e:	60fb      	str	r3, [r7, #12]
80100b90:	68fb      	ldr	r3, [r7, #12]
80100b92:	2b04      	cmp	r3, #4
80100b94:	ddd3      	ble.n	80100b3e <select_lcd+0xe>
80100b96:	f04f 33ff 	mov.w	r3, #4294967295	; 0xffffffff
80100b9a:	4618      	mov	r0, r3
80100b9c:	3710      	adds	r7, #16
80100b9e:	46bd      	mov	sp, r7
80100ba0:	bd80      	pop	{r7, pc}

80100ba2 <get_lcd_params>:
80100ba2:	b480      	push	{r7}
80100ba4:	b085      	sub	sp, #20
80100ba6:	af00      	add	r7, sp, #0
80100ba8:	60f8      	str	r0, [r7, #12]
80100baa:	60b9      	str	r1, [r7, #8]
80100bac:	607a      	str	r2, [r7, #4]
80100bae:	603b      	str	r3, [r7, #0]
80100bb0:	f242 1310 	movw	r3, #8464	; 0x2110
80100bb4:	f2c8 0310 	movt	r3, #32784	; 0x8010
80100bb8:	681b      	ldr	r3, [r3, #0]
80100bba:	6bda      	ldr	r2, [r3, #60]	; 0x3c
80100bbc:	68fb      	ldr	r3, [r7, #12]
80100bbe:	601a      	str	r2, [r3, #0]
80100bc0:	f242 1310 	movw	r3, #8464	; 0x2110
80100bc4:	f2c8 0310 	movt	r3, #32784	; 0x8010
80100bc8:	681b      	ldr	r3, [r3, #0]
80100bca:	6b1a      	ldr	r2, [r3, #48]	; 0x30
80100bcc:	68bb      	ldr	r3, [r7, #8]
80100bce:	601a      	str	r2, [r3, #0]
80100bd0:	f242 1310 	movw	r3, #8464	; 0x2110
80100bd4:	f2c8 0310 	movt	r3, #32784	; 0x8010
80100bd8:	681b      	ldr	r3, [r3, #0]
80100bda:	6b5a      	ldr	r2, [r3, #52]	; 0x34
80100bdc:	687b      	ldr	r3, [r7, #4]
80100bde:	601a      	str	r2, [r3, #0]
80100be0:	f242 1310 	movw	r3, #8464	; 0x2110
80100be4:	f2c8 0310 	movt	r3, #32784	; 0x8010
80100be8:	681b      	ldr	r3, [r3, #0]
80100bea:	6b9a      	ldr	r2, [r3, #56]	; 0x38
80100bec:	683b      	ldr	r3, [r7, #0]
80100bee:	601a      	str	r2, [r3, #0]
80100bf0:	bf00      	nop
80100bf2:	3714      	adds	r7, #20
80100bf4:	46bd      	mov	sp, r7
80100bf6:	f85d 7b04 	ldr.w	r7, [sp], #4
80100bfa:	4770      	bx	lr

80100bfc <lcd_enable>:
80100bfc:	b580      	push	{r7, lr}
80100bfe:	af00      	add	r7, sp, #0
80100c00:	f7ff ff34 	bl	80100a6c <lcd_controller_enable>
80100c04:	bf00      	nop
80100c06:	bd80      	pop	{r7, pc}

80100c08 <lcd_disable>:
80100c08:	b580      	push	{r7, lr}
80100c0a:	af00      	add	r7, sp, #0
80100c0c:	f7ff ff40 	bl	80100a90 <lcd_controller_disable>
80100c10:	bf00      	nop
80100c12:	bd80      	pop	{r7, pc}

80100c14 <lcd_init>:
80100c14:	b580      	push	{r7, lr}
80100c16:	af00      	add	r7, sp, #0
80100c18:	f000 f818 	bl	80100c4c <lcd_7_0_add>
80100c1c:	f7ff ff4a 	bl	80100ab4 <lcd_contoller_add>
80100c20:	f242 0034 	movw	r0, #8244	; 0x2034
80100c24:	f2c8 0010 	movt	r0, #32784	; 0x8010
80100c28:	f7ff fecc 	bl	801009c4 <select_lcd_controller>
80100c2c:	f242 003c 	movw	r0, #8252	; 0x203c
80100c30:	f2c8 0010 	movt	r0, #32784	; 0x8010
80100c34:	f7ff ff7c 	bl	80100b30 <select_lcd>
80100c38:	f242 1310 	movw	r3, #8464	; 0x2110
80100c3c:	f2c8 0310 	movt	r3, #32784	; 0x8010
80100c40:	681b      	ldr	r3, [r3, #0]
80100c42:	4618      	mov	r0, r3
80100c44:	f7ff fef7 	bl	80100a36 <lcd_controller_init>
80100c48:	bf00      	nop
80100c4a:	bd80      	pop	{r7, pc}

80100c4c <lcd_7_0_add>:
80100c4c:	b580      	push	{r7, lr}
80100c4e:	af00      	add	r7, sp, #0
80100c50:	f242 0054 	movw	r0, #8276	; 0x2054
80100c54:	f2c8 0010 	movt	r0, #32784	; 0x8010
80100c58:	f7ff ff42 	bl	80100ae0 <register_lcd>
80100c5c:	bf00      	nop
80100c5e:	bd80      	pop	{r7, pc}

80100c60 <Imx6ull_lcd_io_init>:
80100c60:	b480      	push	{r7}
80100c62:	b083      	sub	sp, #12
80100c64:	af00      	add	r7, sp, #0
80100c66:	2300      	movs	r3, #0
80100c68:	603b      	str	r3, [r7, #0]
80100c6a:	f44f 7382 	mov.w	r3, #260	; 0x104
80100c6e:	f2c0 230e 	movt	r3, #526	; 0x20e
80100c72:	607b      	str	r3, [r7, #4]
80100c74:	2300      	movs	r3, #0
80100c76:	603b      	str	r3, [r7, #0]
80100c78:	e008      	b.n	80100c8c <Imx6ull_lcd_io_init+0x2c>
80100c7a:	687b      	ldr	r3, [r7, #4]
80100c7c:	2200      	movs	r2, #0
80100c7e:	601a      	str	r2, [r3, #0]
80100c80:	687b      	ldr	r3, [r7, #4]
80100c82:	3304      	adds	r3, #4
80100c84:	607b      	str	r3, [r7, #4]
80100c86:	683b      	ldr	r3, [r7, #0]
80100c88:	3301      	adds	r3, #1
80100c8a:	603b      	str	r3, [r7, #0]
80100c8c:	683b      	ldr	r3, [r7, #0]
80100c8e:	2b1c      	cmp	r3, #28
80100c90:	d9f3      	bls.n	80100c7a <Imx6ull_lcd_io_init+0x1a>
80100c92:	f44f 7364 	mov.w	r3, #912	; 0x390
80100c96:	f2c0 230e 	movt	r3, #526	; 0x20e
80100c9a:	607b      	str	r3, [r7, #4]
80100c9c:	2300      	movs	r3, #0
80100c9e:	603b      	str	r3, [r7, #0]
80100ca0:	e00e      	b.n	80100cc0 <Imx6ull_lcd_io_init+0x60>
80100ca2:	687b      	ldr	r3, [r7, #4]
80100ca4:	2200      	movs	r2, #0
80100ca6:	601a      	str	r2, [r3, #0]
80100ca8:	687b      	ldr	r3, [r7, #4]
80100caa:	681b      	ldr	r3, [r3, #0]
80100cac:	f043 02b9 	orr.w	r2, r3, #185	; 0xb9
80100cb0:	687b      	ldr	r3, [r7, #4]
80100cb2:	601a      	str	r2, [r3, #0]
80100cb4:	687b      	ldr	r3, [r7, #4]
80100cb6:	3304      	adds	r3, #4
80100cb8:	607b      	str	r3, [r7, #4]
80100cba:	683b      	ldr	r3, [r7, #0]
80100cbc:	3301      	adds	r3, #1
80100cbe:	603b      	str	r3, [r7, #0]
80100cc0:	683b      	ldr	r3, [r7, #0]
80100cc2:	2b1c      	cmp	r3, #28
80100cc4:	d9ed      	bls.n	80100ca2 <Imx6ull_lcd_io_init+0x42>
80100cc6:	f242 0394 	movw	r3, #8340	; 0x2094
80100cca:	f2c8 0310 	movt	r3, #32784	; 0x8010
80100cce:	681b      	ldr	r3, [r3, #0]
80100cd0:	22b9      	movs	r2, #185	; 0xb9
80100cd2:	601a      	str	r2, [r3, #0]
80100cd4:	f242 0398 	movw	r3, #8344	; 0x2098
80100cd8:	f2c8 0310 	movt	r3, #32784	; 0x8010
80100cdc:	681a      	ldr	r2, [r3, #0]
80100cde:	f242 0398 	movw	r3, #8344	; 0x2098
80100ce2:	f2c8 0310 	movt	r3, #32784	; 0x8010
80100ce6:	681b      	ldr	r3, [r3, #0]
80100ce8:	681b      	ldr	r3, [r3, #0]
80100cea:	f443 7380 	orr.w	r3, r3, #256	; 0x100
80100cee:	6013      	str	r3, [r2, #0]
80100cf0:	f242 039c 	movw	r3, #8348	; 0x209c
80100cf4:	f2c8 0310 	movt	r3, #32784	; 0x8010
80100cf8:	681a      	ldr	r2, [r3, #0]
80100cfa:	f242 039c 	movw	r3, #8348	; 0x209c
80100cfe:	f2c8 0310 	movt	r3, #32784	; 0x8010
80100d02:	681b      	ldr	r3, [r3, #0]
80100d04:	681b      	ldr	r3, [r3, #0]
80100d06:	f443 7380 	orr.w	r3, r3, #256	; 0x100
80100d0a:	6013      	str	r3, [r2, #0]
80100d0c:	bf00      	nop
80100d0e:	370c      	adds	r7, #12
80100d10:	46bd      	mov	sp, r7
80100d12:	f85d 7b04 	ldr.w	r7, [sp], #4
80100d16:	4770      	bx	lr

80100d18 <Imx6ull_lcd_controller_init>:
80100d18:	b580      	push	{r7, lr}
80100d1a:	b084      	sub	sp, #16
80100d1c:	af00      	add	r7, sp, #0
80100d1e:	6078      	str	r0, [r7, #4]
80100d20:	f7ff ff9e 	bl	80100c60 <Imx6ull_lcd_io_init>
80100d24:	f44f 4300 	mov.w	r3, #32768	; 0x8000
80100d28:	f2c0 230c 	movt	r3, #524	; 0x20c
80100d2c:	2200      	movs	r2, #0
80100d2e:	f8c3 20b0 	str.w	r2, [r3, #176]	; 0xb0
80100d32:	f44f 4300 	mov.w	r3, #32768	; 0x8000
80100d36:	f2c0 230c 	movt	r3, #524	; 0x20c
80100d3a:	2200      	movs	r2, #0
80100d3c:	f8c3 20c0 	str.w	r2, [r3, #192]	; 0xc0
80100d40:	f44f 4300 	mov.w	r3, #32768	; 0x8000
80100d44:	f2c0 230c 	movt	r3, #524	; 0x20c
80100d48:	f242 0220 	movw	r2, #8224	; 0x2020
80100d4c:	f2c0 0210 	movt	r2, #16
80100d50:	f8c3 20a0 	str.w	r2, [r3, #160]	; 0xa0
80100d54:	f44f 4380 	mov.w	r3, #16384	; 0x4000
80100d58:	f2c0 230c 	movt	r3, #524	; 0x20c
80100d5c:	f44f 4280 	mov.w	r2, #16384	; 0x4000
80100d60:	f2c0 220c 	movt	r2, #524	; 0x20c
80100d64:	6b92      	ldr	r2, [r2, #56]	; 0x38
80100d66:	f422 3260 	bic.w	r2, r2, #229376	; 0x38000
80100d6a:	639a      	str	r2, [r3, #56]	; 0x38
80100d6c:	f44f 4380 	mov.w	r3, #16384	; 0x4000
80100d70:	f2c0 230c 	movt	r3, #524	; 0x20c
80100d74:	f44f 4280 	mov.w	r2, #16384	; 0x4000
80100d78:	f2c0 220c 	movt	r2, #524	; 0x20c
80100d7c:	6b92      	ldr	r2, [r2, #56]	; 0x38
80100d7e:	f442 3280 	orr.w	r2, r2, #65536	; 0x10000
80100d82:	639a      	str	r2, [r3, #56]	; 0x38
80100d84:	f44f 4380 	mov.w	r3, #16384	; 0x4000
80100d88:	f2c0 230c 	movt	r3, #524	; 0x20c
80100d8c:	f44f 4280 	mov.w	r2, #16384	; 0x4000
80100d90:	f2c0 220c 	movt	r2, #524	; 0x20c
80100d94:	6b92      	ldr	r2, [r2, #56]	; 0x38
80100d96:	f422 42e0 	bic.w	r2, r2, #28672	; 0x7000
80100d9a:	639a      	str	r2, [r3, #56]	; 0x38
80100d9c:	f44f 4380 	mov.w	r3, #16384	; 0x4000
80100da0:	f2c0 230c 	movt	r3, #524	; 0x20c
80100da4:	f44f 4280 	mov.w	r2, #16384	; 0x4000
80100da8:	f2c0 220c 	movt	r2, #524	; 0x20c
80100dac:	6b92      	ldr	r2, [r2, #56]	; 0x38
80100dae:	f442 5200 	orr.w	r2, r2, #8192	; 0x2000
80100db2:	639a      	str	r2, [r3, #56]	; 0x38
80100db4:	f44f 4380 	mov.w	r3, #16384	; 0x4000
80100db8:	f2c0 230c 	movt	r3, #524	; 0x20c
80100dbc:	f44f 4280 	mov.w	r2, #16384	; 0x4000
80100dc0:	f2c0 220c 	movt	r2, #524	; 0x20c
80100dc4:	6b92      	ldr	r2, [r2, #56]	; 0x38
80100dc6:	f422 6260 	bic.w	r2, r2, #3584	; 0xe00
80100dca:	639a      	str	r2, [r3, #56]	; 0x38
80100dcc:	f44f 4380 	mov.w	r3, #16384	; 0x4000
80100dd0:	f2c0 230c 	movt	r3, #524	; 0x20c
80100dd4:	f44f 4280 	mov.w	r2, #16384	; 0x4000
80100dd8:	f2c0 220c 	movt	r2, #524	; 0x20c
80100ddc:	6992      	ldr	r2, [r2, #24]
80100dde:	f022 7260 	bic.w	r2, r2, #58720256	; 0x3800000
80100de2:	619a      	str	r2, [r3, #24]
80100de4:	f44f 4380 	mov.w	r3, #16384	; 0x4000
80100de8:	f2c0 230c 	movt	r3, #524	; 0x20c
80100dec:	f44f 4280 	mov.w	r2, #16384	; 0x4000
80100df0:	f2c0 220c 	movt	r2, #524	; 0x20c
80100df4:	6992      	ldr	r2, [r2, #24]
80100df6:	f042 7200 	orr.w	r2, r2, #33554432	; 0x2000000
80100dfa:	619a      	str	r2, [r3, #24]
80100dfc:	f44f 4300 	mov.w	r3, #32768	; 0x8000
80100e00:	f2c0 231c 	movt	r3, #540	; 0x21c
80100e04:	f04f 4200 	mov.w	r2, #2147483648	; 0x80000000
80100e08:	601a      	str	r2, [r3, #0]
80100e0a:	2064      	movs	r0, #100	; 0x64
80100e0c:	f7ff fe58 	bl	80100ac0 <delay>
80100e10:	f44f 4300 	mov.w	r3, #32768	; 0x8000
80100e14:	f2c0 231c 	movt	r3, #540	; 0x21c
80100e18:	2200      	movs	r2, #0
80100e1a:	601a      	str	r2, [r3, #0]
80100e1c:	687b      	ldr	r3, [r7, #4]
80100e1e:	6b9b      	ldr	r3, [r3, #56]	; 0x38
80100e20:	2b08      	cmp	r3, #8
80100e22:	d007      	beq.n	80100e34 <Imx6ull_lcd_controller_init+0x11c>
80100e24:	687b      	ldr	r3, [r7, #4]
80100e26:	6b9b      	ldr	r3, [r3, #56]	; 0x38
80100e28:	2b10      	cmp	r3, #16
80100e2a:	d101      	bne.n	80100e30 <Imx6ull_lcd_controller_init+0x118>
80100e2c:	2300      	movs	r3, #0
80100e2e:	e002      	b.n	80100e36 <Imx6ull_lcd_controller_init+0x11e>
80100e30:	2303      	movs	r3, #3
80100e32:	e000      	b.n	80100e36 <Imx6ull_lcd_controller_init+0x11e>
80100e34:	2301      	movs	r3, #1
80100e36:	60fb      	str	r3, [r7, #12]
80100e38:	f44f 4200 	mov.w	r2, #32768	; 0x8000
80100e3c:	f2c0 221c 	movt	r2, #540	; 0x21c
80100e40:	f44f 4300 	mov.w	r3, #32768	; 0x8000
80100e44:	f2c0 231c 	movt	r3, #540	; 0x21c
80100e48:	681b      	ldr	r3, [r3, #0]
80100e4a:	68f9      	ldr	r1, [r7, #12]
80100e4c:	0209      	lsls	r1, r1, #8
80100e4e:	430b      	orrs	r3, r1
80100e50:	f443 2320 	orr.w	r3, r3, #655360	; 0xa0000
80100e54:	f443 6342 	orr.w	r3, r3, #3104	; 0xc20
80100e58:	6013      	str	r3, [r2, #0]
80100e5a:	687b      	ldr	r3, [r7, #4]
80100e5c:	6b9b      	ldr	r3, [r3, #56]	; 0x38
80100e5e:	2b10      	cmp	r3, #16
80100e60:	d10b      	bne.n	80100e7a <Imx6ull_lcd_controller_init+0x162>
80100e62:	f44f 4300 	mov.w	r3, #32768	; 0x8000
80100e66:	f2c0 231c 	movt	r3, #540	; 0x21c
80100e6a:	f44f 4200 	mov.w	r2, #32768	; 0x8000
80100e6e:	f2c0 221c 	movt	r2, #540	; 0x21c
80100e72:	6812      	ldr	r2, [r2, #0]
80100e74:	f042 0208 	orr.w	r2, r2, #8
80100e78:	601a      	str	r2, [r3, #0]
80100e7a:	687b      	ldr	r3, [r7, #4]
80100e7c:	6b9b      	ldr	r3, [r3, #56]	; 0x38
80100e7e:	2b18      	cmp	r3, #24
80100e80:	d003      	beq.n	80100e8a <Imx6ull_lcd_controller_init+0x172>
80100e82:	687b      	ldr	r3, [r7, #4]
80100e84:	6b9b      	ldr	r3, [r3, #56]	; 0x38
80100e86:	2b20      	cmp	r3, #32
80100e88:	d117      	bne.n	80100eba <Imx6ull_lcd_controller_init+0x1a2>
80100e8a:	f44f 4300 	mov.w	r3, #32768	; 0x8000
80100e8e:	f2c0 231c 	movt	r3, #540	; 0x21c
80100e92:	f44f 4200 	mov.w	r2, #32768	; 0x8000
80100e96:	f2c0 221c 	movt	r2, #540	; 0x21c
80100e9a:	6912      	ldr	r2, [r2, #16]
80100e9c:	f422 2270 	bic.w	r2, r2, #983040	; 0xf0000
80100ea0:	611a      	str	r2, [r3, #16]
80100ea2:	f44f 4300 	mov.w	r3, #32768	; 0x8000
80100ea6:	f2c0 231c 	movt	r3, #540	; 0x21c
80100eaa:	f44f 4200 	mov.w	r2, #32768	; 0x8000
80100eae:	f2c0 221c 	movt	r2, #540	; 0x21c
80100eb2:	6912      	ldr	r2, [r2, #16]
80100eb4:	f442 22e0 	orr.w	r2, r2, #458752	; 0x70000
80100eb8:	611a      	str	r2, [r3, #16]
80100eba:	f44f 4300 	mov.w	r3, #32768	; 0x8000
80100ebe:	f2c0 231c 	movt	r3, #540	; 0x21c
80100ec2:	687a      	ldr	r2, [r7, #4]
80100ec4:	6b52      	ldr	r2, [r2, #52]	; 0x34
80100ec6:	0411      	lsls	r1, r2, #16
80100ec8:	687a      	ldr	r2, [r7, #4]
80100eca:	6b12      	ldr	r2, [r2, #48]	; 0x30
80100ecc:	430a      	orrs	r2, r1
80100ece:	631a      	str	r2, [r3, #48]	; 0x30
80100ed0:	f44f 4300 	mov.w	r3, #32768	; 0x8000
80100ed4:	f2c0 231c 	movt	r3, #540	; 0x21c
80100ed8:	687a      	ldr	r2, [r7, #4]
80100eda:	6912      	ldr	r2, [r2, #16]
80100edc:	06d2      	lsls	r2, r2, #27
80100ede:	f042 5180 	orr.w	r1, r2, #268435456	; 0x10000000
80100ee2:	687a      	ldr	r2, [r7, #4]
80100ee4:	68d2      	ldr	r2, [r2, #12]
80100ee6:	0692      	lsls	r2, r2, #26
80100ee8:	4311      	orrs	r1, r2
80100eea:	687a      	ldr	r2, [r7, #4]
80100eec:	6892      	ldr	r2, [r2, #8]
80100eee:	0652      	lsls	r2, r2, #25
80100ef0:	4311      	orrs	r1, r2
80100ef2:	687a      	ldr	r2, [r7, #4]
80100ef4:	6852      	ldr	r2, [r2, #4]
80100ef6:	0612      	lsls	r2, r2, #24
80100ef8:	430a      	orrs	r2, r1
80100efa:	f442 1140 	orr.w	r1, r2, #3145728	; 0x300000
80100efe:	687a      	ldr	r2, [r7, #4]
80100f00:	6952      	ldr	r2, [r2, #20]
80100f02:	430a      	orrs	r2, r1
80100f04:	671a      	str	r2, [r3, #112]	; 0x70
80100f06:	f44f 4300 	mov.w	r3, #32768	; 0x8000
80100f0a:	f2c0 231c 	movt	r3, #540	; 0x21c
80100f0e:	687a      	ldr	r2, [r7, #4]
80100f10:	6991      	ldr	r1, [r2, #24]
80100f12:	687a      	ldr	r2, [r7, #4]
80100f14:	6952      	ldr	r2, [r2, #20]
80100f16:	4411      	add	r1, r2
80100f18:	687a      	ldr	r2, [r7, #4]
80100f1a:	6b52      	ldr	r2, [r2, #52]	; 0x34
80100f1c:	4411      	add	r1, r2
80100f1e:	687a      	ldr	r2, [r7, #4]
80100f20:	69d2      	ldr	r2, [r2, #28]
80100f22:	440a      	add	r2, r1
80100f24:	f8c3 2080 	str.w	r2, [r3, #128]	; 0x80
80100f28:	f44f 4300 	mov.w	r3, #32768	; 0x8000
80100f2c:	f2c0 231c 	movt	r3, #540	; 0x21c
80100f30:	687a      	ldr	r2, [r7, #4]
80100f32:	6a12      	ldr	r2, [r2, #32]
80100f34:	0491      	lsls	r1, r2, #18
80100f36:	687a      	ldr	r2, [r7, #4]
80100f38:	6a50      	ldr	r0, [r2, #36]	; 0x24
80100f3a:	687a      	ldr	r2, [r7, #4]
80100f3c:	6a12      	ldr	r2, [r2, #32]
80100f3e:	4410      	add	r0, r2
80100f40:	687a      	ldr	r2, [r7, #4]
80100f42:	6b12      	ldr	r2, [r2, #48]	; 0x30
80100f44:	4410      	add	r0, r2
80100f46:	687a      	ldr	r2, [r7, #4]
80100f48:	6a92      	ldr	r2, [r2, #40]	; 0x28
80100f4a:	4402      	add	r2, r0
80100f4c:	430a      	orrs	r2, r1
80100f4e:	f8c3 2090 	str.w	r2, [r3, #144]	; 0x90
80100f52:	f44f 4300 	mov.w	r3, #32768	; 0x8000
80100f56:	f2c0 231c 	movt	r3, #540	; 0x21c
80100f5a:	687a      	ldr	r2, [r7, #4]
80100f5c:	6a51      	ldr	r1, [r2, #36]	; 0x24
80100f5e:	687a      	ldr	r2, [r7, #4]
80100f60:	6a12      	ldr	r2, [r2, #32]
80100f62:	440a      	add	r2, r1
80100f64:	0411      	lsls	r1, r2, #16
80100f66:	687a      	ldr	r2, [r7, #4]
80100f68:	6990      	ldr	r0, [r2, #24]
80100f6a:	687a      	ldr	r2, [r7, #4]
80100f6c:	6952      	ldr	r2, [r2, #20]
80100f6e:	4402      	add	r2, r0
80100f70:	430a      	orrs	r2, r1
80100f72:	f8c3 20a0 	str.w	r2, [r3, #160]	; 0xa0
80100f76:	f44f 4300 	mov.w	r3, #32768	; 0x8000
80100f7a:	f2c0 231c 	movt	r3, #540	; 0x21c
80100f7e:	687a      	ldr	r2, [r7, #4]
80100f80:	6b12      	ldr	r2, [r2, #48]	; 0x30
80100f82:	f442 2280 	orr.w	r2, r2, #262144	; 0x40000
80100f86:	f8c3 20b0 	str.w	r2, [r3, #176]	; 0xb0
80100f8a:	f44f 4300 	mov.w	r3, #32768	; 0x8000
80100f8e:	f2c0 231c 	movt	r3, #540	; 0x21c
80100f92:	687a      	ldr	r2, [r7, #4]
80100f94:	6bd2      	ldr	r2, [r2, #60]	; 0x3c
80100f96:	641a      	str	r2, [r3, #64]	; 0x40
80100f98:	f44f 4300 	mov.w	r3, #32768	; 0x8000
80100f9c:	f2c0 231c 	movt	r3, #540	; 0x21c
80100fa0:	687a      	ldr	r2, [r7, #4]
80100fa2:	6bd2      	ldr	r2, [r2, #60]	; 0x3c
80100fa4:	651a      	str	r2, [r3, #80]	; 0x50
80100fa6:	bf00      	nop
80100fa8:	3710      	adds	r7, #16
80100faa:	46bd      	mov	sp, r7
80100fac:	bd80      	pop	{r7, pc}

80100fae <Imx6ull_lcd_controller_enable>:
80100fae:	b480      	push	{r7}
80100fb0:	af00      	add	r7, sp, #0
80100fb2:	f44f 4300 	mov.w	r3, #32768	; 0x8000
80100fb6:	f2c0 231c 	movt	r3, #540	; 0x21c
80100fba:	f44f 4200 	mov.w	r2, #32768	; 0x8000
80100fbe:	f2c0 221c 	movt	r2, #540	; 0x21c
80100fc2:	6812      	ldr	r2, [r2, #0]
80100fc4:	f042 0201 	orr.w	r2, r2, #1
80100fc8:	601a      	str	r2, [r3, #0]
80100fca:	bf00      	nop
80100fcc:	46bd      	mov	sp, r7
80100fce:	f85d 7b04 	ldr.w	r7, [sp], #4
80100fd2:	4770      	bx	lr

80100fd4 <Imx6ull_lcd_controller_disable>:
80100fd4:	b480      	push	{r7}
80100fd6:	af00      	add	r7, sp, #0
80100fd8:	f44f 4300 	mov.w	r3, #32768	; 0x8000
80100fdc:	f2c0 231c 	movt	r3, #540	; 0x21c
80100fe0:	f44f 4200 	mov.w	r2, #32768	; 0x8000
80100fe4:	f2c0 221c 	movt	r2, #540	; 0x21c
80100fe8:	6812      	ldr	r2, [r2, #0]
80100fea:	f022 0201 	bic.w	r2, r2, #1
80100fee:	601a      	str	r2, [r3, #0]
80100ff0:	bf00      	nop
80100ff2:	46bd      	mov	sp, r7
80100ff4:	f85d 7b04 	ldr.w	r7, [sp], #4
80100ff8:	4770      	bx	lr

80100ffa <Imx6ull_lcd_controller_add>:
80100ffa:	b580      	push	{r7, lr}
80100ffc:	af00      	add	r7, sp, #0
80100ffe:	f242 00a0 	movw	r0, #8352	; 0x20a0
80101002:	f2c8 0010 	movt	r0, #32784	; 0x8010
80101006:	f7ff fcb5 	bl	80100974 <register_lcd_controller>
8010100a:	bf00      	nop
8010100c:	bd80      	pop	{r7, pc}

Disassembly of section .rodata:

80101010 <.LC0>:
80101010:	2e777777 	mrccs	7, 3, r7, cr7, cr7, {3}
80101014:	61303031 	teqvs	r0, r1, lsr r0
80101018:	6e2e6b73 	vmovvs.16	d14[3], r6
8010101c:	0d0a7465 	cfstrseq	mvf7, [sl, #-404]	; 0xfffffe6c
80101020:	61303031 	teqvs	r0, r1, lsr r0
80101024:	742e6b73 	strtvc	r6, [lr], #-2931	; 0xfffff48d
80101028:	61626f61 	cmnvs	r2, r1, ror #30
8010102c:	6f632e6f 	svcvs	0x00632e6f
80101030:	0000006d 	andeq	r0, r0, sp, rrx

80101034 <fontdata_8x16>:
	...
80101044:	817e0000 	cmnhi	lr, r0
80101048:	bd8181a5 	stfltd	f0, [r1, #660]	; 0x294
8010104c:	7e818199 	mcrvc	1, 4, r8, cr1, cr9, {4}
80101050:	00000000 	andeq	r0, r0, r0
80101054:	ff7e0000 			; <UNDEFINED> instruction: 0xff7e0000
80101058:	c3ffffdb 	mvnsgt	pc, #876	; 0x36c
8010105c:	7effffe7 	cdpvc	15, 15, cr15, cr15, cr7, {7}
	...
80101068:	fefefe6c 	cdp2	14, 15, cr15, cr14, cr12, {3}
8010106c:	10387cfe 	ldrshtne	r7, [r8], -lr
	...
80101078:	fe7c3810 	mrc2	8, 3, r3, cr12, cr0, {0}
8010107c:	0010387c 	andseq	r3, r0, ip, ror r8
80101080:	00000000 	andeq	r0, r0, r0
80101084:	18000000 	stmdane	r0, {}	; <UNPREDICTABLE>
80101088:	e7e73c3c 			; <UNDEFINED> instruction: 0xe7e73c3c
8010108c:	3c1818e7 	ldccc	8, cr1, [r8], {231}	; 0xe7
80101090:	00000000 	andeq	r0, r0, r0
80101094:	18000000 	stmdane	r0, {}	; <UNPREDICTABLE>
80101098:	ffff7e3c 			; <UNDEFINED> instruction: 0xffff7e3c
8010109c:	3c18187e 	ldccc	8, cr1, [r8], {126}	; 0x7e
	...
801010a8:	3c180000 	ldccc	0, cr0, [r8], {-0}
801010ac:	0000183c 	andeq	r1, r0, ip, lsr r8
801010b0:	00000000 	andeq	r0, r0, r0
801010b4:	ffffffff 			; <UNDEFINED> instruction: 0xffffffff
801010b8:	c3e7ffff 	mvngt	pc, #1020	; 0x3fc
801010bc:	ffffe7c3 			; <UNDEFINED> instruction: 0xffffe7c3
801010c0:	ffffffff 			; <UNDEFINED> instruction: 0xffffffff
801010c4:	00000000 	andeq	r0, r0, r0
801010c8:	42663c00 	rsbmi	r3, r6, #0, 24
801010cc:	003c6642 	eorseq	r6, ip, r2, asr #12
801010d0:	00000000 	andeq	r0, r0, r0
801010d4:	ffffffff 			; <UNDEFINED> instruction: 0xffffffff
801010d8:	bd99c3ff 	ldclt	3, cr12, [r9, #1020]	; 0x3fc
801010dc:	ffc399bd 			; <UNDEFINED> instruction: 0xffc399bd
801010e0:	ffffffff 			; <UNDEFINED> instruction: 0xffffffff
801010e4:	0e1e0000 	cdpeq	0, 1, cr0, cr14, cr0, {0}
801010e8:	cc78321a 	lfmgt	f3, 2, [r8], #-104	; 0xffffff98
801010ec:	78cccccc 	stmiavc	ip, {r2, r3, r6, r7, sl, fp, lr, pc}^
801010f0:	00000000 	andeq	r0, r0, r0
801010f4:	663c0000 	ldrtvs	r0, [ip], -r0
801010f8:	3c666666 	stclcc	6, cr6, [r6], #-408	; 0xfffffe68
801010fc:	18187e18 	ldmdane	r8, {r3, r4, r9, sl, fp, ip, sp, lr}
80101100:	00000000 	andeq	r0, r0, r0
80101104:	333f0000 	teqcc	pc, #0
80101108:	3030303f 	eorscc	r3, r0, pc, lsr r0
8010110c:	e0f07030 	rscs	r7, r0, r0, lsr r0
80101110:	00000000 	andeq	r0, r0, r0
80101114:	637f0000 	cmnvs	pc, #0
80101118:	6363637f 	cmnvs	r3, #-67108863	; 0xfc000001
8010111c:	e6e76763 	strbt	r6, [r7], r3, ror #14
80101120:	000000c0 	andeq	r0, r0, r0, asr #1
80101124:	18000000 	stmdane	r0, {}	; <UNPREDICTABLE>
80101128:	e73cdb18 			; <UNDEFINED> instruction: 0xe73cdb18
8010112c:	1818db3c 	ldmdane	r8, {r2, r3, r4, r5, r8, r9, fp, ip, lr, pc}
80101130:	00000000 	andeq	r0, r0, r0
80101134:	e0c08000 	sbc	r8, r0, r0
80101138:	f8fef8f0 			; <UNDEFINED> instruction: 0xf8fef8f0
8010113c:	80c0e0f0 	strdhi	lr, [r0], #0
80101140:	00000000 	andeq	r0, r0, r0
80101144:	0e060200 	cdpeq	2, 0, cr0, cr6, cr0, {0}
80101148:	3efe3e1e 	mrccc	14, 7, r3, cr14, cr14, {0}
8010114c:	02060e1e 	andeq	r0, r6, #480	; 0x1e0
80101150:	00000000 	andeq	r0, r0, r0
80101154:	3c180000 	ldccc	0, cr0, [r8], {-0}
80101158:	1818187e 	ldmdane	r8, {r1, r2, r3, r4, r5, r6, fp, ip}
8010115c:	00183c7e 	andseq	r3, r8, lr, ror ip
80101160:	00000000 	andeq	r0, r0, r0
80101164:	66660000 	strbtvs	r0, [r6], -r0
80101168:	66666666 	strbtvs	r6, [r6], -r6, ror #12
8010116c:	66660066 	strbtvs	r0, [r6], -r6, rrx
80101170:	00000000 	andeq	r0, r0, r0
80101174:	db7f0000 	blle	820c117c <__bss_end+0x1fbf068>
80101178:	1b7bdbdb 	blne	81ff80ec <__bss_end+0x1ef5fd8>
8010117c:	1b1b1b1b 	blne	807c7df0 <__bss_end+0x6c5cdc>
80101180:	00000000 	andeq	r0, r0, r0
80101184:	60c67c00 	sbcvs	r7, r6, r0, lsl #24
80101188:	c6c66c38 			; <UNDEFINED> instruction: 0xc6c66c38
8010118c:	c60c386c 	strgt	r3, [ip], -ip, ror #16
80101190:	0000007c 	andeq	r0, r0, ip, ror r0
	...
8010119c:	fefefefe 	mrc2	14, 7, pc, cr14, cr14, {7}
801011a0:	00000000 	andeq	r0, r0, r0
801011a4:	3c180000 	ldccc	0, cr0, [r8], {-0}
801011a8:	1818187e 	ldmdane	r8, {r1, r2, r3, r4, r5, r6, fp, ip}
801011ac:	7e183c7e 	mrcvc	12, 0, r3, cr8, cr14, {3}
801011b0:	00000000 	andeq	r0, r0, r0
801011b4:	3c180000 	ldccc	0, cr0, [r8], {-0}
801011b8:	1818187e 	ldmdane	r8, {r1, r2, r3, r4, r5, r6, fp, ip}
801011bc:	18181818 	ldmdane	r8, {r3, r4, fp, ip}
801011c0:	00000000 	andeq	r0, r0, r0
801011c4:	18180000 	ldmdane	r8, {}	; <UNPREDICTABLE>
801011c8:	18181818 	ldmdane	r8, {r3, r4, fp, ip}
801011cc:	183c7e18 	ldmdane	ip!, {r3, r4, r9, sl, fp, ip, sp, lr}
	...
801011d8:	fe0c1800 	cdp2	8, 0, cr1, cr12, cr0, {0}
801011dc:	0000180c 	andeq	r1, r0, ip, lsl #16
	...
801011e8:	fe603000 	cdp2	0, 6, cr3, cr0, cr0, {0}
801011ec:	00003060 	andeq	r3, r0, r0, rrx
	...
801011f8:	c0c00000 	sbcgt	r0, r0, r0
801011fc:	0000fec0 	andeq	pc, r0, r0, asr #29
	...
80101208:	fe6c2800 	cdp2	8, 6, cr2, cr12, cr0, {0}
8010120c:	0000286c 	andeq	r2, r0, ip, ror #16
	...
80101218:	7c383810 	ldcvc	8, cr3, [r8], #-64	; 0xffffffc0
8010121c:	00fefe7c 	rscseq	pc, lr, ip, ror lr	; <UNPREDICTABLE>
	...
80101228:	7c7cfefe 	ldclvc	14, cr15, [ip], #-1016	; 0xfffffc08
8010122c:	00103838 	andseq	r3, r0, r8, lsr r8
	...
80101244:	3c180000 	ldccc	0, cr0, [r8], {-0}
80101248:	18183c3c 	ldmdane	r8, {r2, r3, r4, r5, sl, fp, ip, sp}
8010124c:	18180018 	ldmdane	r8, {r3, r4}
80101250:	00000000 	andeq	r0, r0, r0
80101254:	66666600 	strbtvs	r6, [r6], -r0, lsl #12
80101258:	00000024 	andeq	r0, r0, r4, lsr #32
	...
80101264:	6c000000 	stcvs	0, cr0, [r0], {-0}
80101268:	6c6cfe6c 	stclvs	14, cr15, [ip], #-432	; 0xfffffe50
8010126c:	6c6cfe6c 	stclvs	14, cr15, [ip], #-432	; 0xfffffe50
80101270:	00000000 	andeq	r0, r0, r0
80101274:	c67c1818 			; <UNDEFINED> instruction: 0xc67c1818
80101278:	067cc0c2 	ldrbteq	ip, [ip], -r2, asr #1
8010127c:	7cc68606 	stclvc	6, cr8, [r6], {6}
80101280:	00001818 	andeq	r1, r0, r8, lsl r8
80101284:	00000000 	andeq	r0, r0, r0
80101288:	180cc6c2 	stmdane	ip, {r1, r6, r7, r9, sl, lr, pc}
8010128c:	86c66030 			; <UNDEFINED> instruction: 0x86c66030
80101290:	00000000 	andeq	r0, r0, r0
80101294:	6c380000 	ldcvs	0, cr0, [r8], #-0
80101298:	dc76386c 	ldclle	8, cr3, [r6], #-432	; 0xfffffe50
8010129c:	76cccccc 	strbvc	ip, [ip], ip, asr #25
801012a0:	00000000 	andeq	r0, r0, r0
801012a4:	30303000 	eorscc	r3, r0, r0
801012a8:	00000060 	andeq	r0, r0, r0, rrx
	...
801012b4:	180c0000 	stmdane	ip, {}	; <UNPREDICTABLE>
801012b8:	30303030 	eorscc	r3, r0, r0, lsr r0
801012bc:	0c183030 	ldceq	0, cr3, [r8], {48}	; 0x30
801012c0:	00000000 	andeq	r0, r0, r0
801012c4:	18300000 	ldmdane	r0!, {}	; <UNPREDICTABLE>
801012c8:	0c0c0c0c 	stceq	12, cr0, [ip], {12}
801012cc:	30180c0c 	andscc	r0, r8, ip, lsl #24
	...
801012d8:	ff3c6600 			; <UNDEFINED> instruction: 0xff3c6600
801012dc:	0000663c 	andeq	r6, r0, ip, lsr r6
	...
801012e8:	7e181800 	cdpvc	8, 1, cr1, cr8, cr0, {0}
801012ec:	00001818 	andeq	r1, r0, r8, lsl r8
	...
801012fc:	18181800 	ldmdane	r8, {fp, ip}
80101300:	00000030 	andeq	r0, r0, r0, lsr r0
80101304:	00000000 	andeq	r0, r0, r0
80101308:	fe000000 	cdp2	0, 0, cr0, cr0, cr0, {0}
	...
8010131c:	18180000 	ldmdane	r8, {}	; <UNPREDICTABLE>
	...
80101328:	180c0602 	stmdane	ip, {r1, r9, sl}
8010132c:	80c06030 	sbchi	r6, r0, r0, lsr r0
80101330:	00000000 	andeq	r0, r0, r0
80101334:	6c380000 	ldcvs	0, cr0, [r8], #-0
80101338:	d6d6c6c6 	ldrble	ip, [r6], r6, asr #13
8010133c:	386cc6c6 	stmdacc	ip!, {r1, r2, r6, r7, r9, sl, lr, pc}^
80101340:	00000000 	andeq	r0, r0, r0
80101344:	38180000 	ldmdacc	r8, {}	; <UNPREDICTABLE>
80101348:	18181878 	ldmdane	r8, {r3, r4, r5, r6, fp, ip}
8010134c:	7e181818 	mrcvc	8, 0, r1, cr8, cr8, {0}
80101350:	00000000 	andeq	r0, r0, r0
80101354:	c67c0000 	ldrbtgt	r0, [ip], -r0
80101358:	30180c06 	andscc	r0, r8, r6, lsl #24
8010135c:	fec6c060 	cdp2	0, 12, cr12, cr6, cr0, {3}
80101360:	00000000 	andeq	r0, r0, r0
80101364:	c67c0000 	ldrbtgt	r0, [ip], -r0
80101368:	063c0606 	ldrteq	r0, [ip], -r6, lsl #12
8010136c:	7cc60606 	stclvc	6, cr0, [r6], {6}
80101370:	00000000 	andeq	r0, r0, r0
80101374:	1c0c0000 	stcne	0, cr0, [ip], {-0}
80101378:	fecc6c3c 	mcr2	12, 6, r6, cr12, cr12, {1}
8010137c:	1e0c0c0c 	cdpne	12, 0, cr0, cr12, cr12, {0}
80101380:	00000000 	andeq	r0, r0, r0
80101384:	c0fe0000 	rscsgt	r0, lr, r0
80101388:	06fcc0c0 	ldrbteq	ip, [ip], r0, asr #1
8010138c:	7cc60606 	stclvc	6, cr0, [r6], {6}
80101390:	00000000 	andeq	r0, r0, r0
80101394:	60380000 	eorsvs	r0, r8, r0
80101398:	c6fcc0c0 	ldrbtgt	ip, [ip], r0, asr #1
8010139c:	7cc6c6c6 	stclvc	6, cr12, [r6], {198}	; 0xc6
801013a0:	00000000 	andeq	r0, r0, r0
801013a4:	c6fe0000 	ldrbtgt	r0, [lr], r0
801013a8:	180c0606 	stmdane	ip, {r1, r2, r9, sl}
801013ac:	30303030 	eorscc	r3, r0, r0, lsr r0
801013b0:	00000000 	andeq	r0, r0, r0
801013b4:	c67c0000 	ldrbtgt	r0, [ip], -r0
801013b8:	c67cc6c6 	ldrbtgt	ip, [ip], -r6, asr #13
801013bc:	7cc6c6c6 	stclvc	6, cr12, [r6], {198}	; 0xc6
801013c0:	00000000 	andeq	r0, r0, r0
801013c4:	c67c0000 	ldrbtgt	r0, [ip], -r0
801013c8:	067ec6c6 	ldrbteq	ip, [lr], -r6, asr #13
801013cc:	780c0606 	stmdavc	ip, {r1, r2, r9, sl}
	...
801013d8:	00001818 	andeq	r1, r0, r8, lsl r8
801013dc:	00181800 	andseq	r1, r8, r0, lsl #16
	...
801013e8:	00001818 	andeq	r1, r0, r8, lsl r8
801013ec:	30181800 	andscc	r1, r8, r0, lsl #16
801013f0:	00000000 	andeq	r0, r0, r0
801013f4:	06000000 	streq	r0, [r0], -r0
801013f8:	6030180c 	eorsvs	r1, r0, ip, lsl #16
801013fc:	060c1830 			; <UNDEFINED> instruction: 0x060c1830
	...
80101408:	00007e00 	andeq	r7, r0, r0, lsl #28
8010140c:	0000007e 	andeq	r0, r0, lr, ror r0
80101410:	00000000 	andeq	r0, r0, r0
80101414:	60000000 	andvs	r0, r0, r0
80101418:	060c1830 			; <UNDEFINED> instruction: 0x060c1830
8010141c:	6030180c 	eorsvs	r1, r0, ip, lsl #16
80101420:	00000000 	andeq	r0, r0, r0
80101424:	c67c0000 	ldrbtgt	r0, [ip], -r0
80101428:	18180cc6 	ldmdane	r8, {r1, r2, r6, r7, sl, fp}
8010142c:	18180018 	ldmdane	r8, {r3, r4}
80101430:	00000000 	andeq	r0, r0, r0
80101434:	7c000000 	stcvc	0, cr0, [r0], {-0}
80101438:	dedec6c6 	cdple	6, 13, cr12, cr14, cr6, {6}
8010143c:	7cc0dcde 	stclvc	12, cr13, [r0], {222}	; 0xde
80101440:	00000000 	andeq	r0, r0, r0
80101444:	38100000 	ldmdacc	r0, {}	; <UNPREDICTABLE>
80101448:	fec6c66c 	cdp2	6, 12, cr12, cr6, cr12, {3}
8010144c:	c6c6c6c6 	strbgt	ip, [r6], r6, asr #13
80101450:	00000000 	andeq	r0, r0, r0
80101454:	66fc0000 	ldrbtvs	r0, [ip], r0
80101458:	667c6666 	ldrbtvs	r6, [ip], -r6, ror #12
8010145c:	fc666666 	stc2l	6, cr6, [r6], #-408	; 0xfffffe68
80101460:	00000000 	andeq	r0, r0, r0
80101464:	663c0000 	ldrtvs	r0, [ip], -r0
80101468:	c0c0c0c2 	sbcgt	ip, r0, r2, asr #1
8010146c:	3c66c2c0 	sfmcc	f4, 3, [r6], #-768	; 0xfffffd00
80101470:	00000000 	andeq	r0, r0, r0
80101474:	6cf80000 	ldclvs	0, cr0, [r8]
80101478:	66666666 	strbtvs	r6, [r6], -r6, ror #12
8010147c:	f86c6666 			; <UNDEFINED> instruction: 0xf86c6666
80101480:	00000000 	andeq	r0, r0, r0
80101484:	66fe0000 	ldrbtvs	r0, [lr], r0
80101488:	68786862 	ldmdavs	r8!, {r1, r5, r6, fp, sp, lr}^
8010148c:	fe666260 	cdp2	2, 6, cr6, cr6, cr0, {3}
80101490:	00000000 	andeq	r0, r0, r0
80101494:	66fe0000 	ldrbtvs	r0, [lr], r0
80101498:	68786862 	ldmdavs	r8!, {r1, r5, r6, fp, sp, lr}^
8010149c:	f0606060 			; <UNDEFINED> instruction: 0xf0606060
801014a0:	00000000 	andeq	r0, r0, r0
801014a4:	663c0000 	ldrtvs	r0, [ip], -r0
801014a8:	dec0c0c2 	cdple	0, 12, cr12, cr0, cr2, {6}
801014ac:	3a66c6c6 	bcc	81ab2fcc <__bss_end+0x19b0eb8>
801014b0:	00000000 	andeq	r0, r0, r0
801014b4:	c6c60000 	strbgt	r0, [r6], r0
801014b8:	c6fec6c6 	ldrbtgt	ip, [lr], r6, asr #13
801014bc:	c6c6c6c6 	strbgt	ip, [r6], r6, asr #13
801014c0:	00000000 	andeq	r0, r0, r0
801014c4:	183c0000 	ldmdane	ip!, {}	; <UNPREDICTABLE>
801014c8:	18181818 	ldmdane	r8, {r3, r4, fp, ip}
801014cc:	3c181818 	ldccc	8, cr1, [r8], {24}
801014d0:	00000000 	andeq	r0, r0, r0
801014d4:	0c1e0000 	ldceq	0, cr0, [lr], {-0}
801014d8:	0c0c0c0c 	stceq	12, cr0, [ip], {12}
801014dc:	78cccccc 	stmiavc	ip, {r2, r3, r6, r7, sl, fp, lr, pc}^
801014e0:	00000000 	andeq	r0, r0, r0
801014e4:	66e60000 	strbtvs	r0, [r6], r0
801014e8:	78786c66 	ldmdavc	r8!, {r1, r2, r5, r6, sl, fp, sp, lr}^
801014ec:	e666666c 	strbt	r6, [r6], -ip, ror #12
801014f0:	00000000 	andeq	r0, r0, r0
801014f4:	60f00000 	rscsvs	r0, r0, r0
801014f8:	60606060 	rsbvs	r6, r0, r0, rrx
801014fc:	fe666260 	cdp2	2, 6, cr6, cr6, cr0, {3}
80101500:	00000000 	andeq	r0, r0, r0
80101504:	eec60000 	cdp	0, 12, cr0, cr6, cr0, {0}
80101508:	c6d6fefe 			; <UNDEFINED> instruction: 0xc6d6fefe
8010150c:	c6c6c6c6 	strbgt	ip, [r6], r6, asr #13
80101510:	00000000 	andeq	r0, r0, r0
80101514:	e6c60000 	strb	r0, [r6], r0
80101518:	cedefef6 	mrcgt	14, 6, APSR_nzcv, cr14, cr6, {7}
8010151c:	c6c6c6c6 	strbgt	ip, [r6], r6, asr #13
80101520:	00000000 	andeq	r0, r0, r0
80101524:	c67c0000 	ldrbtgt	r0, [ip], -r0
80101528:	c6c6c6c6 	strbgt	ip, [r6], r6, asr #13
8010152c:	7cc6c6c6 	stclvc	6, cr12, [r6], {198}	; 0xc6
80101530:	00000000 	andeq	r0, r0, r0
80101534:	66fc0000 	ldrbtvs	r0, [ip], r0
80101538:	607c6666 	rsbsvs	r6, ip, r6, ror #12
8010153c:	f0606060 			; <UNDEFINED> instruction: 0xf0606060
80101540:	00000000 	andeq	r0, r0, r0
80101544:	c67c0000 	ldrbtgt	r0, [ip], -r0
80101548:	c6c6c6c6 	strbgt	ip, [r6], r6, asr #13
8010154c:	7cded6c6 	ldclvc	6, cr13, [lr], {198}	; 0xc6
80101550:	00000e0c 	andeq	r0, r0, ip, lsl #28
80101554:	66fc0000 	ldrbtvs	r0, [ip], r0
80101558:	6c7c6666 	ldclvs	6, cr6, [ip], #-408	; 0xfffffe68
8010155c:	e6666666 	strbt	r6, [r6], -r6, ror #12
80101560:	00000000 	andeq	r0, r0, r0
80101564:	c67c0000 	ldrbtgt	r0, [ip], -r0
80101568:	0c3860c6 	ldceq	0, cr6, [r8], #-792	; 0xfffffce8
8010156c:	7cc6c606 	stclvc	6, cr12, [r6], {6}
80101570:	00000000 	andeq	r0, r0, r0
80101574:	7e7e0000 	cdpvc	0, 7, cr0, cr14, cr0, {0}
80101578:	1818185a 	ldmdane	r8, {r1, r3, r4, r6, fp, ip}
8010157c:	3c181818 	ldccc	8, cr1, [r8], {24}
80101580:	00000000 	andeq	r0, r0, r0
80101584:	c6c60000 	strbgt	r0, [r6], r0
80101588:	c6c6c6c6 	strbgt	ip, [r6], r6, asr #13
8010158c:	7cc6c6c6 	stclvc	6, cr12, [r6], {198}	; 0xc6
80101590:	00000000 	andeq	r0, r0, r0
80101594:	c6c60000 	strbgt	r0, [r6], r0
80101598:	c6c6c6c6 	strbgt	ip, [r6], r6, asr #13
8010159c:	10386cc6 	eorsne	r6, r8, r6, asr #25
801015a0:	00000000 	andeq	r0, r0, r0
801015a4:	c6c60000 	strbgt	r0, [r6], r0
801015a8:	d6d6c6c6 	ldrble	ip, [r6], r6, asr #13
801015ac:	6ceefed6 	stclvs	14, cr15, [lr], #856	; 0x358
801015b0:	00000000 	andeq	r0, r0, r0
801015b4:	c6c60000 	strbgt	r0, [r6], r0
801015b8:	38387c6c 	ldmdacc	r8!, {r2, r3, r5, r6, sl, fp, ip, sp, lr}
801015bc:	c6c66c7c 	uxtab16gt	r6, r6, ip, ROR #24
801015c0:	00000000 	andeq	r0, r0, r0
801015c4:	66660000 	strbtvs	r0, [r6], -r0
801015c8:	183c6666 	ldmdane	ip!, {r1, r2, r5, r6, r9, sl, sp, lr}
801015cc:	3c181818 	ldccc	8, cr1, [r8], {24}
801015d0:	00000000 	andeq	r0, r0, r0
801015d4:	c6fe0000 	ldrbtgt	r0, [lr], r0
801015d8:	30180c86 	andscc	r0, r8, r6, lsl #25
801015dc:	fec6c260 	cdp2	2, 12, cr12, cr6, cr0, {3}
801015e0:	00000000 	andeq	r0, r0, r0
801015e4:	303c0000 	eorscc	r0, ip, r0
801015e8:	30303030 	eorscc	r3, r0, r0, lsr r0
801015ec:	3c303030 	ldccc	0, cr3, [r0], #-192	; 0xffffff40
801015f0:	00000000 	andeq	r0, r0, r0
801015f4:	80000000 	andhi	r0, r0, r0
801015f8:	3870e0c0 	ldmdacc	r0!, {r6, r7, sp, lr, pc}^
801015fc:	02060e1c 	andeq	r0, r6, #28, 28	; 0x1c0
80101600:	00000000 	andeq	r0, r0, r0
80101604:	0c3c0000 	ldceq	0, cr0, [ip], #-0
80101608:	0c0c0c0c 	stceq	12, cr0, [ip], {12}
8010160c:	3c0c0c0c 	stccc	12, cr0, [ip], {12}
80101610:	00000000 	andeq	r0, r0, r0
80101614:	c66c3810 			; <UNDEFINED> instruction: 0xc66c3810
	...
80101630:	0000ff00 	andeq	pc, r0, r0, lsl #30
80101634:	0c183000 	ldceq	0, cr3, [r8], {-0}
	...
80101648:	7c0c7800 	stcvc	8, cr7, [ip], {-0}
8010164c:	76cccccc 	strbvc	ip, [ip], ip, asr #25
80101650:	00000000 	andeq	r0, r0, r0
80101654:	60e00000 	rscvs	r0, r0, r0
80101658:	666c7860 	strbtvs	r7, [ip], -r0, ror #16
8010165c:	7c666666 	stclvc	6, cr6, [r6], #-408	; 0xfffffe68
	...
80101668:	c0c67c00 	sbcgt	r7, r6, r0, lsl #24
8010166c:	7cc6c0c0 	stclvc	0, cr12, [r6], {192}	; 0xc0
80101670:	00000000 	andeq	r0, r0, r0
80101674:	0c1c0000 	ldceq	0, cr0, [ip], {-0}
80101678:	cc6c3c0c 	stclgt	12, cr3, [ip], #-48	; 0xffffffd0
8010167c:	76cccccc 	strbvc	ip, [ip], ip, asr #25
	...
80101688:	fec67c00 	cdp2	12, 12, cr7, cr6, cr0, {0}
8010168c:	7cc6c0c0 	stclvc	0, cr12, [r6], {192}	; 0xc0
80101690:	00000000 	andeq	r0, r0, r0
80101694:	361c0000 	ldrcc	r0, [ip], -r0
80101698:	30783032 	rsbscc	r3, r8, r2, lsr r0
8010169c:	78303030 	ldmdavc	r0!, {r4, r5, ip, sp}
	...
801016a8:	cccc7600 	stclgt	6, cr7, [ip], {0}
801016ac:	7ccccccc 	stclvc	12, cr12, [ip], {204}	; 0xcc
801016b0:	0078cc0c 	rsbseq	ip, r8, ip, lsl #24
801016b4:	60e00000 	rscvs	r0, r0, r0
801016b8:	66766c60 	ldrbtvs	r6, [r6], -r0, ror #24
801016bc:	e6666666 	strbt	r6, [r6], -r6, ror #12
801016c0:	00000000 	andeq	r0, r0, r0
801016c4:	18180000 	ldmdane	r8, {}	; <UNPREDICTABLE>
801016c8:	18183800 	ldmdane	r8, {fp, ip, sp}
801016cc:	3c181818 	ldccc	8, cr1, [r8], {24}
801016d0:	00000000 	andeq	r0, r0, r0
801016d4:	06060000 	streq	r0, [r6], -r0
801016d8:	06060e00 	streq	r0, [r6], -r0, lsl #28
801016dc:	06060606 	streq	r0, [r6], -r6, lsl #12
801016e0:	003c6666 	eorseq	r6, ip, r6, ror #12
801016e4:	60e00000 	rscvs	r0, r0, r0
801016e8:	786c6660 	stmdavc	ip!, {r5, r6, r9, sl, sp, lr}^
801016ec:	e6666c78 			; <UNDEFINED> instruction: 0xe6666c78
801016f0:	00000000 	andeq	r0, r0, r0
801016f4:	18380000 	ldmdane	r8!, {}	; <UNPREDICTABLE>
801016f8:	18181818 	ldmdane	r8, {r3, r4, fp, ip}
801016fc:	3c181818 	ldccc	8, cr1, [r8], {24}
	...
80101708:	d6feec00 	ldrbtle	lr, [lr], r0, lsl #24
8010170c:	c6d6d6d6 			; <UNDEFINED> instruction: 0xc6d6d6d6
	...
80101718:	6666dc00 	strbtvs	sp, [r6], -r0, lsl #24
8010171c:	66666666 	strbtvs	r6, [r6], -r6, ror #12
	...
80101728:	c6c67c00 	strbgt	r7, [r6], r0, lsl #24
8010172c:	7cc6c6c6 	stclvc	6, cr12, [r6], {198}	; 0xc6
	...
80101738:	6666dc00 	strbtvs	sp, [r6], -r0, lsl #24
8010173c:	7c666666 	stclvc	6, cr6, [r6], #-408	; 0xfffffe68
80101740:	00f06060 	rscseq	r6, r0, r0, rrx
80101744:	00000000 	andeq	r0, r0, r0
80101748:	cccc7600 	stclgt	6, cr7, [ip], {0}
8010174c:	7ccccccc 	stclvc	12, cr12, [ip], {204}	; 0xcc
80101750:	001e0c0c 	andseq	r0, lr, ip, lsl #24
80101754:	00000000 	andeq	r0, r0, r0
80101758:	6676dc00 	ldrbtvs	sp, [r6], -r0, lsl #24
8010175c:	f0606060 			; <UNDEFINED> instruction: 0xf0606060
	...
80101768:	60c67c00 	sbcvs	r7, r6, r0, lsl #24
8010176c:	7cc60c38 	stclvc	12, cr0, [r6], {56}	; 0x38
80101770:	00000000 	andeq	r0, r0, r0
80101774:	30100000 	andscc	r0, r0, r0
80101778:	3030fc30 	eorscc	pc, r0, r0, lsr ip	; <UNPREDICTABLE>
8010177c:	1c363030 	ldcne	0, cr3, [r6], #-192	; 0xffffff40
	...
80101788:	cccccc00 	stclgt	12, cr12, [ip], {0}
8010178c:	76cccccc 	strbvc	ip, [ip], ip, asr #25
	...
80101798:	c6c6c600 	strbgt	ip, [r6], r0, lsl #12
8010179c:	386cc6c6 	stmdacc	ip!, {r1, r2, r6, r7, r9, sl, lr, pc}^
	...
801017a8:	d6c6c600 	strble	ip, [r6], r0, lsl #12
801017ac:	6cfed6d6 	ldclvs	6, cr13, [lr], #856	; 0x358
	...
801017b8:	386cc600 	stmdacc	ip!, {r9, sl, lr, pc}^
801017bc:	c66c3838 			; <UNDEFINED> instruction: 0xc66c3838
	...
801017c8:	c6c6c600 	strbgt	ip, [r6], r0, lsl #12
801017cc:	7ec6c6c6 	cdpvc	6, 12, cr12, cr6, cr6, {6}
801017d0:	00f80c06 	rscseq	r0, r8, r6, lsl #24
801017d4:	00000000 	andeq	r0, r0, r0
801017d8:	18ccfe00 	stmiane	ip, {r9, sl, fp, ip, sp, lr, pc}^
801017dc:	fec66030 	mcr2	0, 6, r6, cr6, cr0, {1}
801017e0:	00000000 	andeq	r0, r0, r0
801017e4:	180e0000 	stmdane	lr, {}	; <UNPREDICTABLE>
801017e8:	18701818 	ldmdane	r0!, {r3, r4, fp, ip}^
801017ec:	0e181818 	mrceq	8, 0, r1, cr8, cr8, {0}
801017f0:	00000000 	andeq	r0, r0, r0
801017f4:	18180000 	ldmdane	r8, {}	; <UNPREDICTABLE>
801017f8:	18181818 	ldmdane	r8, {r3, r4, fp, ip}
801017fc:	18181818 	ldmdane	r8, {r3, r4, fp, ip}
80101800:	00000000 	andeq	r0, r0, r0
80101804:	18700000 	ldmdane	r0!, {}^	; <UNPREDICTABLE>
80101808:	180e1818 	stmdane	lr, {r3, r4, fp, ip}
8010180c:	70181818 	andsvc	r1, r8, r8, lsl r8
80101810:	00000000 	andeq	r0, r0, r0
80101814:	00dc7600 	sbcseq	r7, ip, r0, lsl #12
	...
80101828:	c66c3810 			; <UNDEFINED> instruction: 0xc66c3810
8010182c:	00fec6c6 	rscseq	ip, lr, r6, asr #13
80101830:	00000000 	andeq	r0, r0, r0
80101834:	663c0000 	ldrtvs	r0, [ip], -r0
80101838:	c0c0c0c2 	sbcgt	ip, r0, r2, asr #1
8010183c:	3c66c2c0 	sfmcc	f4, 3, [r6], #-768	; 0xfffffd00
80101840:	00007018 	andeq	r7, r0, r8, lsl r0
80101844:	00cc0000 	sbceq	r0, ip, r0
80101848:	cccccc00 	stclgt	12, cr12, [ip], {0}
8010184c:	76cccccc 	strbvc	ip, [ip], ip, asr #25
80101850:	00000000 	andeq	r0, r0, r0
80101854:	30180c00 	andscc	r0, r8, r0, lsl #24
80101858:	fec67c00 	cdp2	12, 12, cr7, cr6, cr0, {0}
8010185c:	7cc6c0c0 	stclvc	0, cr12, [r6], {192}	; 0xc0
80101860:	00000000 	andeq	r0, r0, r0
80101864:	6c381000 	ldcvs	0, cr1, [r8], #-0
80101868:	7c0c7800 	stcvc	8, cr7, [ip], {-0}
8010186c:	76cccccc 	strbvc	ip, [ip], ip, asr #25
80101870:	00000000 	andeq	r0, r0, r0
80101874:	00cc0000 	sbceq	r0, ip, r0
80101878:	7c0c7800 	stcvc	8, cr7, [ip], {-0}
8010187c:	76cccccc 	strbvc	ip, [ip], ip, asr #25
80101880:	00000000 	andeq	r0, r0, r0
80101884:	18306000 	ldmdane	r0!, {sp, lr}
80101888:	7c0c7800 	stcvc	8, cr7, [ip], {-0}
8010188c:	76cccccc 	strbvc	ip, [ip], ip, asr #25
80101890:	00000000 	andeq	r0, r0, r0
80101894:	386c3800 	stmdacc	ip!, {fp, ip, sp}^
80101898:	7c0c7800 	stcvc	8, cr7, [ip], {-0}
8010189c:	76cccccc 	strbvc	ip, [ip], ip, asr #25
	...
801018a8:	c0c67c00 	sbcgt	r7, r6, r0, lsl #24
801018ac:	7cc6c0c0 	stclvc	0, cr12, [r6], {192}	; 0xc0
801018b0:	00007018 	andeq	r7, r0, r8, lsl r0
801018b4:	6c381000 	ldcvs	0, cr1, [r8], #-0
801018b8:	fec67c00 	cdp2	12, 12, cr7, cr6, cr0, {0}
801018bc:	7cc6c0c0 	stclvc	0, cr12, [r6], {192}	; 0xc0
801018c0:	00000000 	andeq	r0, r0, r0
801018c4:	00c60000 	sbceq	r0, r6, r0
801018c8:	fec67c00 	cdp2	12, 12, cr7, cr6, cr0, {0}
801018cc:	7cc6c0c0 	stclvc	0, cr12, [r6], {192}	; 0xc0
801018d0:	00000000 	andeq	r0, r0, r0
801018d4:	18306000 	ldmdane	r0!, {sp, lr}
801018d8:	fec67c00 	cdp2	12, 12, cr7, cr6, cr0, {0}
801018dc:	7cc6c0c0 	stclvc	0, cr12, [r6], {192}	; 0xc0
801018e0:	00000000 	andeq	r0, r0, r0
801018e4:	00660000 	rsbeq	r0, r6, r0
801018e8:	18183800 	ldmdane	r8, {fp, ip, sp}
801018ec:	3c181818 	ldccc	8, cr1, [r8], {24}
801018f0:	00000000 	andeq	r0, r0, r0
801018f4:	663c1800 	ldrtvs	r1, [ip], -r0, lsl #16
801018f8:	18183800 	ldmdane	r8, {fp, ip, sp}
801018fc:	3c181818 	ldccc	8, cr1, [r8], {24}
80101900:	00000000 	andeq	r0, r0, r0
80101904:	18306000 	ldmdane	r0!, {sp, lr}
80101908:	18183800 	ldmdane	r8, {fp, ip, sp}
8010190c:	3c181818 	ldccc	8, cr1, [r8], {24}
80101910:	00000000 	andeq	r0, r0, r0
80101914:	1000c600 	andne	ip, r0, r0, lsl #12
80101918:	c6c66c38 			; <UNDEFINED> instruction: 0xc6c66c38
8010191c:	c6c6c6fe 			; <UNDEFINED> instruction: 0xc6c6c6fe
80101920:	00000000 	andeq	r0, r0, r0
80101924:	10386c38 	eorsne	r6, r8, r8, lsr ip
80101928:	fec66c38 	mcr2	12, 6, r6, cr6, cr8, {1}
8010192c:	c6c6c6c6 	strbgt	ip, [r6], r6, asr #13
80101930:	00000000 	andeq	r0, r0, r0
80101934:	fe00180c 	cdp2	8, 0, cr1, cr0, cr12, {0}
80101938:	78686266 	stmdavc	r8!, {r1, r2, r5, r6, r9, sp, lr}^
8010193c:	fe666268 	cdp2	2, 6, cr6, cr6, cr8, {3}
	...
80101948:	3636ec00 	ldrtcc	lr, [r6], -r0, lsl #24
8010194c:	6ed8d87e 	mrcvs	8, 6, sp, cr8, cr14, {3}
80101950:	00000000 	andeq	r0, r0, r0
80101954:	6c3e0000 	ldcvs	0, cr0, [lr], #-0
80101958:	ccfecccc 	ldclgt	12, cr12, [lr], #816	; 0x330
8010195c:	cecccccc 	cdpgt	12, 12, cr12, cr12, cr12, {6}
80101960:	00000000 	andeq	r0, r0, r0
80101964:	6c381000 	ldcvs	0, cr1, [r8], #-0
80101968:	c6c67c00 	strbgt	r7, [r6], r0, lsl #24
8010196c:	7cc6c6c6 	stclvc	6, cr12, [r6], {198}	; 0xc6
80101970:	00000000 	andeq	r0, r0, r0
80101974:	00c60000 	sbceq	r0, r6, r0
80101978:	c6c67c00 	strbgt	r7, [r6], r0, lsl #24
8010197c:	7cc6c6c6 	stclvc	6, cr12, [r6], {198}	; 0xc6
80101980:	00000000 	andeq	r0, r0, r0
80101984:	18306000 	ldmdane	r0!, {sp, lr}
80101988:	c6c67c00 	strbgt	r7, [r6], r0, lsl #24
8010198c:	7cc6c6c6 	stclvc	6, cr12, [r6], {198}	; 0xc6
80101990:	00000000 	andeq	r0, r0, r0
80101994:	cc783000 	ldclgt	0, cr3, [r8], #-0
80101998:	cccccc00 	stclgt	12, cr12, [ip], {0}
8010199c:	76cccccc 	strbvc	ip, [ip], ip, asr #25
801019a0:	00000000 	andeq	r0, r0, r0
801019a4:	18306000 	ldmdane	r0!, {sp, lr}
801019a8:	cccccc00 	stclgt	12, cr12, [ip], {0}
801019ac:	76cccccc 	strbvc	ip, [ip], ip, asr #25
801019b0:	00000000 	andeq	r0, r0, r0
801019b4:	00c60000 	sbceq	r0, r6, r0
801019b8:	c6c6c600 	strbgt	ip, [r6], r0, lsl #12
801019bc:	7ec6c6c6 	cdpvc	6, 12, cr12, cr6, cr6, {6}
801019c0:	00780c06 	rsbseq	r0, r8, r6, lsl #24
801019c4:	7c00c600 	stcvc	6, cr12, [r0], {-0}
801019c8:	c6c6c6c6 	strbgt	ip, [r6], r6, asr #13
801019cc:	7cc6c6c6 	stclvc	6, cr12, [r6], {198}	; 0xc6
801019d0:	00000000 	andeq	r0, r0, r0
801019d4:	c600c600 	strgt	ip, [r0], -r0, lsl #12
801019d8:	c6c6c6c6 	strbgt	ip, [r6], r6, asr #13
801019dc:	7cc6c6c6 	stclvc	6, cr12, [r6], {198}	; 0xc6
801019e0:	00000000 	andeq	r0, r0, r0
801019e4:	7c181800 	ldcvc	8, cr1, [r8], {-0}
801019e8:	c0c0c0c6 	sbcgt	ip, r0, r6, asr #1
801019ec:	18187cc6 	ldmdane	r8, {r1, r2, r6, r7, sl, fp, ip, sp, lr}
801019f0:	00000000 	andeq	r0, r0, r0
801019f4:	646c3800 	strbtvs	r3, [ip], #-2048	; 0xfffff800
801019f8:	6060f060 	rsbvs	pc, r0, r0, rrx
801019fc:	fce66060 	stc2l	0, cr6, [r6], #384	; 0x180
80101a00:	00000000 	andeq	r0, r0, r0
80101a04:	66660000 	strbtvs	r0, [r6], -r0
80101a08:	187e183c 	ldmdane	lr!, {r2, r3, r4, r5, fp, ip}^
80101a0c:	1818187e 	ldmdane	r8, {r1, r2, r3, r4, r5, r6, fp, ip}
80101a10:	00000000 	andeq	r0, r0, r0
80101a14:	ccccf800 	stclgt	8, cr15, [ip], {0}
80101a18:	deccc4f8 	mcrle	4, 6, ip, cr12, cr8, {7}
80101a1c:	c6cccccc 	strbgt	ip, [ip], ip, asr #25
80101a20:	00000000 	andeq	r0, r0, r0
80101a24:	181b0e00 	ldmdane	fp, {r9, sl, fp}
80101a28:	187e1818 	ldmdane	lr!, {r3, r4, fp, ip}^
80101a2c:	70d81818 	sbcsvc	r1, r8, r8, lsl r8
80101a30:	00000000 	andeq	r0, r0, r0
80101a34:	60301800 	eorsvs	r1, r0, r0, lsl #16
80101a38:	7c0c7800 	stcvc	8, cr7, [ip], {-0}
80101a3c:	76cccccc 	strbvc	ip, [ip], ip, asr #25
80101a40:	00000000 	andeq	r0, r0, r0
80101a44:	30180c00 	andscc	r0, r8, r0, lsl #24
80101a48:	18183800 	ldmdane	r8, {fp, ip, sp}
80101a4c:	3c181818 	ldccc	8, cr1, [r8], {24}
80101a50:	00000000 	andeq	r0, r0, r0
80101a54:	60301800 	eorsvs	r1, r0, r0, lsl #16
80101a58:	c6c67c00 	strbgt	r7, [r6], r0, lsl #24
80101a5c:	7cc6c6c6 	stclvc	6, cr12, [r6], {198}	; 0xc6
80101a60:	00000000 	andeq	r0, r0, r0
80101a64:	60301800 	eorsvs	r1, r0, r0, lsl #16
80101a68:	cccccc00 	stclgt	12, cr12, [ip], {0}
80101a6c:	76cccccc 	strbvc	ip, [ip], ip, asr #25
80101a70:	00000000 	andeq	r0, r0, r0
80101a74:	dc760000 	ldclle	0, cr0, [r6], #-0
80101a78:	6666dc00 	strbtvs	sp, [r6], -r0, lsl #24
80101a7c:	66666666 	strbtvs	r6, [r6], -r6, ror #12
80101a80:	00000000 	andeq	r0, r0, r0
80101a84:	c600dc76 			; <UNDEFINED> instruction: 0xc600dc76
80101a88:	defef6e6 	cdple	6, 15, cr15, cr14, cr6, {7}
80101a8c:	c6c6c6ce 	strbgt	ip, [r6], lr, asr #13
80101a90:	00000000 	andeq	r0, r0, r0
80101a94:	6c3c0000 	ldcvs	0, cr0, [ip], #-0
80101a98:	7e003e6c 	cdpvc	14, 0, cr3, cr0, cr12, {3}
	...
80101aa4:	6c380000 	ldcvs	0, cr0, [r8], #-0
80101aa8:	7c00386c 	stcvc	8, cr3, [r0], {108}	; 0x6c
	...
80101ab4:	30300000 	eorscc	r0, r0, r0
80101ab8:	60303000 	eorsvs	r3, r0, r0
80101abc:	7cc6c6c0 	stclvc	6, cr12, [r6], {192}	; 0xc0
	...
80101ac8:	c0fe0000 	rscsgt	r0, lr, r0
80101acc:	00c0c0c0 	sbceq	ip, r0, r0, asr #1
	...
80101ad8:	06fe0000 	ldrbteq	r0, [lr], r0
80101adc:	00060606 	andeq	r0, r6, r6, lsl #12
80101ae0:	00000000 	andeq	r0, r0, r0
80101ae4:	62e06000 	rscvs	r6, r0, #0
80101ae8:	30186c66 	andscc	r6, r8, r6, ror #24
80101aec:	0c86dc60 	stceq	12, cr13, [r6], {96}	; 0x60
80101af0:	00003e18 	andeq	r3, r0, r8, lsl lr
80101af4:	62e06000 	rscvs	r6, r0, #0
80101af8:	30186c66 	andscc	r6, r8, r6, ror #24
80101afc:	3f9ace66 	svccc	0x009ace66
80101b00:	00000606 	andeq	r0, r0, r6, lsl #12
80101b04:	18180000 	ldmdane	r8, {}	; <UNPREDICTABLE>
80101b08:	18181800 	ldmdane	r8, {fp, ip}
80101b0c:	183c3c3c 	ldmdane	ip!, {r2, r3, r4, r5, sl, fp, ip, sp}
	...
80101b18:	d86c3600 	stmdale	ip!, {r9, sl, ip, sp}^
80101b1c:	0000366c 	andeq	r3, r0, ip, ror #12
	...
80101b28:	366cd800 	strbtcc	sp, [ip], -r0, lsl #16
80101b2c:	0000d86c 	andeq	sp, r0, ip, ror #16
80101b30:	00000000 	andeq	r0, r0, r0
80101b34:	44114411 	ldrmi	r4, [r1], #-1041	; 0xfffffbef
80101b38:	44114411 	ldrmi	r4, [r1], #-1041	; 0xfffffbef
80101b3c:	44114411 	ldrmi	r4, [r1], #-1041	; 0xfffffbef
80101b40:	44114411 	ldrmi	r4, [r1], #-1041	; 0xfffffbef
80101b44:	aa55aa55 	bge	8166c4a0 <__bss_end+0x156a38c>
80101b48:	aa55aa55 	bge	8166c4a4 <__bss_end+0x156a390>
80101b4c:	aa55aa55 	bge	8166c4a8 <__bss_end+0x156a394>
80101b50:	aa55aa55 	bge	8166c4ac <__bss_end+0x156a398>
80101b54:	77dd77dd 			; <UNDEFINED> instruction: 0x77dd77dd
80101b58:	77dd77dd 			; <UNDEFINED> instruction: 0x77dd77dd
80101b5c:	77dd77dd 			; <UNDEFINED> instruction: 0x77dd77dd
80101b60:	77dd77dd 			; <UNDEFINED> instruction: 0x77dd77dd
80101b64:	18181818 	ldmdane	r8, {r3, r4, fp, ip}
80101b68:	18181818 	ldmdane	r8, {r3, r4, fp, ip}
80101b6c:	18181818 	ldmdane	r8, {r3, r4, fp, ip}
80101b70:	18181818 	ldmdane	r8, {r3, r4, fp, ip}
80101b74:	18181818 	ldmdane	r8, {r3, r4, fp, ip}
80101b78:	f8181818 			; <UNDEFINED> instruction: 0xf8181818
80101b7c:	18181818 	ldmdane	r8, {r3, r4, fp, ip}
80101b80:	18181818 	ldmdane	r8, {r3, r4, fp, ip}
80101b84:	18181818 	ldmdane	r8, {r3, r4, fp, ip}
80101b88:	f818f818 			; <UNDEFINED> instruction: 0xf818f818
80101b8c:	18181818 	ldmdane	r8, {r3, r4, fp, ip}
80101b90:	18181818 	ldmdane	r8, {r3, r4, fp, ip}
80101b94:	36363636 			; <UNDEFINED> instruction: 0x36363636
80101b98:	f6363636 			; <UNDEFINED> instruction: 0xf6363636
80101b9c:	36363636 			; <UNDEFINED> instruction: 0x36363636
80101ba0:	36363636 			; <UNDEFINED> instruction: 0x36363636
80101ba4:	00000000 	andeq	r0, r0, r0
80101ba8:	fe000000 	cdp2	0, 0, cr0, cr0, cr0, {0}
80101bac:	36363636 			; <UNDEFINED> instruction: 0x36363636
80101bb0:	36363636 			; <UNDEFINED> instruction: 0x36363636
80101bb4:	00000000 	andeq	r0, r0, r0
80101bb8:	f818f800 			; <UNDEFINED> instruction: 0xf818f800
80101bbc:	18181818 	ldmdane	r8, {r3, r4, fp, ip}
80101bc0:	18181818 	ldmdane	r8, {r3, r4, fp, ip}
80101bc4:	36363636 			; <UNDEFINED> instruction: 0x36363636
80101bc8:	f606f636 			; <UNDEFINED> instruction: 0xf606f636
80101bcc:	36363636 			; <UNDEFINED> instruction: 0x36363636
80101bd0:	36363636 			; <UNDEFINED> instruction: 0x36363636
80101bd4:	36363636 			; <UNDEFINED> instruction: 0x36363636
80101bd8:	36363636 			; <UNDEFINED> instruction: 0x36363636
80101bdc:	36363636 			; <UNDEFINED> instruction: 0x36363636
80101be0:	36363636 			; <UNDEFINED> instruction: 0x36363636
80101be4:	00000000 	andeq	r0, r0, r0
80101be8:	f606fe00 			; <UNDEFINED> instruction: 0xf606fe00
80101bec:	36363636 			; <UNDEFINED> instruction: 0x36363636
80101bf0:	36363636 			; <UNDEFINED> instruction: 0x36363636
80101bf4:	36363636 			; <UNDEFINED> instruction: 0x36363636
80101bf8:	fe06f636 	mcr2	6, 0, pc, cr6, cr6, {1}	; <UNPREDICTABLE>
	...
80101c04:	36363636 			; <UNDEFINED> instruction: 0x36363636
80101c08:	fe363636 	mrc2	6, 1, r3, cr6, cr6, {1}
	...
80101c14:	18181818 	ldmdane	r8, {r3, r4, fp, ip}
80101c18:	f818f818 			; <UNDEFINED> instruction: 0xf818f818
	...
80101c28:	f8000000 			; <UNDEFINED> instruction: 0xf8000000
80101c2c:	18181818 	ldmdane	r8, {r3, r4, fp, ip}
80101c30:	18181818 	ldmdane	r8, {r3, r4, fp, ip}
80101c34:	18181818 	ldmdane	r8, {r3, r4, fp, ip}
80101c38:	1f181818 	svcne	0x00181818
	...
80101c44:	18181818 	ldmdane	r8, {r3, r4, fp, ip}
80101c48:	ff181818 			; <UNDEFINED> instruction: 0xff181818
	...
80101c58:	ff000000 			; <UNDEFINED> instruction: 0xff000000
80101c5c:	18181818 	ldmdane	r8, {r3, r4, fp, ip}
80101c60:	18181818 	ldmdane	r8, {r3, r4, fp, ip}
80101c64:	18181818 	ldmdane	r8, {r3, r4, fp, ip}
80101c68:	1f181818 	svcne	0x00181818
80101c6c:	18181818 	ldmdane	r8, {r3, r4, fp, ip}
80101c70:	18181818 	ldmdane	r8, {r3, r4, fp, ip}
80101c74:	00000000 	andeq	r0, r0, r0
80101c78:	ff000000 			; <UNDEFINED> instruction: 0xff000000
	...
80101c84:	18181818 	ldmdane	r8, {r3, r4, fp, ip}
80101c88:	ff181818 			; <UNDEFINED> instruction: 0xff181818
80101c8c:	18181818 	ldmdane	r8, {r3, r4, fp, ip}
80101c90:	18181818 	ldmdane	r8, {r3, r4, fp, ip}
80101c94:	18181818 	ldmdane	r8, {r3, r4, fp, ip}
80101c98:	1f181f18 	svcne	0x00181f18
80101c9c:	18181818 	ldmdane	r8, {r3, r4, fp, ip}
80101ca0:	18181818 	ldmdane	r8, {r3, r4, fp, ip}
80101ca4:	36363636 			; <UNDEFINED> instruction: 0x36363636
80101ca8:	37363636 			; <UNDEFINED> instruction: 0x37363636
80101cac:	36363636 			; <UNDEFINED> instruction: 0x36363636
80101cb0:	36363636 			; <UNDEFINED> instruction: 0x36363636
80101cb4:	36363636 			; <UNDEFINED> instruction: 0x36363636
80101cb8:	3f303736 	svccc	0x00303736
	...
80101cc8:	37303f00 	ldrcc	r3, [r0, -r0, lsl #30]!
80101ccc:	36363636 			; <UNDEFINED> instruction: 0x36363636
80101cd0:	36363636 			; <UNDEFINED> instruction: 0x36363636
80101cd4:	36363636 			; <UNDEFINED> instruction: 0x36363636
80101cd8:	ff00f736 			; <UNDEFINED> instruction: 0xff00f736
	...
80101ce8:	f700ff00 			; <UNDEFINED> instruction: 0xf700ff00
80101cec:	36363636 			; <UNDEFINED> instruction: 0x36363636
80101cf0:	36363636 			; <UNDEFINED> instruction: 0x36363636
80101cf4:	36363636 			; <UNDEFINED> instruction: 0x36363636
80101cf8:	37303736 			; <UNDEFINED> instruction: 0x37303736
80101cfc:	36363636 			; <UNDEFINED> instruction: 0x36363636
80101d00:	36363636 			; <UNDEFINED> instruction: 0x36363636
80101d04:	00000000 	andeq	r0, r0, r0
80101d08:	ff00ff00 			; <UNDEFINED> instruction: 0xff00ff00
	...
80101d14:	36363636 			; <UNDEFINED> instruction: 0x36363636
80101d18:	f700f736 			; <UNDEFINED> instruction: 0xf700f736
80101d1c:	36363636 			; <UNDEFINED> instruction: 0x36363636
80101d20:	36363636 			; <UNDEFINED> instruction: 0x36363636
80101d24:	18181818 	ldmdane	r8, {r3, r4, fp, ip}
80101d28:	ff00ff18 			; <UNDEFINED> instruction: 0xff00ff18
	...
80101d34:	36363636 			; <UNDEFINED> instruction: 0x36363636
80101d38:	ff363636 			; <UNDEFINED> instruction: 0xff363636
	...
80101d48:	ff00ff00 			; <UNDEFINED> instruction: 0xff00ff00
80101d4c:	18181818 	ldmdane	r8, {r3, r4, fp, ip}
80101d50:	18181818 	ldmdane	r8, {r3, r4, fp, ip}
80101d54:	00000000 	andeq	r0, r0, r0
80101d58:	ff000000 			; <UNDEFINED> instruction: 0xff000000
80101d5c:	36363636 			; <UNDEFINED> instruction: 0x36363636
80101d60:	36363636 			; <UNDEFINED> instruction: 0x36363636
80101d64:	36363636 			; <UNDEFINED> instruction: 0x36363636
80101d68:	3f363636 	svccc	0x00363636
	...
80101d74:	18181818 	ldmdane	r8, {r3, r4, fp, ip}
80101d78:	1f181f18 	svcne	0x00181f18
	...
80101d88:	1f181f00 	svcne	0x00181f00
80101d8c:	18181818 	ldmdane	r8, {r3, r4, fp, ip}
80101d90:	18181818 	ldmdane	r8, {r3, r4, fp, ip}
80101d94:	00000000 	andeq	r0, r0, r0
80101d98:	3f000000 	svccc	0x00000000
80101d9c:	36363636 			; <UNDEFINED> instruction: 0x36363636
80101da0:	36363636 			; <UNDEFINED> instruction: 0x36363636
80101da4:	36363636 			; <UNDEFINED> instruction: 0x36363636
80101da8:	ff363636 			; <UNDEFINED> instruction: 0xff363636
80101dac:	36363636 			; <UNDEFINED> instruction: 0x36363636
80101db0:	36363636 			; <UNDEFINED> instruction: 0x36363636
80101db4:	18181818 	ldmdane	r8, {r3, r4, fp, ip}
80101db8:	ff18ff18 			; <UNDEFINED> instruction: 0xff18ff18
80101dbc:	18181818 	ldmdane	r8, {r3, r4, fp, ip}
80101dc0:	18181818 	ldmdane	r8, {r3, r4, fp, ip}
80101dc4:	18181818 	ldmdane	r8, {r3, r4, fp, ip}
80101dc8:	f8181818 			; <UNDEFINED> instruction: 0xf8181818
	...
80101dd8:	1f000000 	svcne	0x00000000
80101ddc:	18181818 	ldmdane	r8, {r3, r4, fp, ip}
80101de0:	18181818 	ldmdane	r8, {r3, r4, fp, ip}
80101de4:	ffffffff 			; <UNDEFINED> instruction: 0xffffffff
80101de8:	ffffffff 			; <UNDEFINED> instruction: 0xffffffff
80101dec:	ffffffff 			; <UNDEFINED> instruction: 0xffffffff
80101df0:	ffffffff 			; <UNDEFINED> instruction: 0xffffffff
80101df4:	00000000 	andeq	r0, r0, r0
80101df8:	ff000000 			; <UNDEFINED> instruction: 0xff000000
80101dfc:	ffffffff 			; <UNDEFINED> instruction: 0xffffffff
80101e00:	ffffffff 			; <UNDEFINED> instruction: 0xffffffff
80101e04:	f0f0f0f0 			; <UNDEFINED> instruction: 0xf0f0f0f0
80101e08:	f0f0f0f0 			; <UNDEFINED> instruction: 0xf0f0f0f0
80101e0c:	f0f0f0f0 			; <UNDEFINED> instruction: 0xf0f0f0f0
80101e10:	f0f0f0f0 			; <UNDEFINED> instruction: 0xf0f0f0f0
80101e14:	0f0f0f0f 	svceq	0x000f0f0f
80101e18:	0f0f0f0f 	svceq	0x000f0f0f
80101e1c:	0f0f0f0f 	svceq	0x000f0f0f
80101e20:	0f0f0f0f 	svceq	0x000f0f0f
80101e24:	ffffffff 			; <UNDEFINED> instruction: 0xffffffff
80101e28:	00ffffff 	ldrshteq	pc, [pc], #255	; <UNPREDICTABLE>
	...
80101e38:	d8dc7600 	ldmle	ip, {r9, sl, ip, sp, lr}^
80101e3c:	76dcd8d8 			; <UNDEFINED> instruction: 0x76dcd8d8
80101e40:	00000000 	andeq	r0, r0, r0
80101e44:	cc780000 	ldclgt	0, cr0, [r8], #-0
80101e48:	ccd8cccc 	ldclgt	12, cr12, [r8], {204}	; 0xcc
80101e4c:	ccc6c6c6 	stclgt	6, cr12, [r6], {198}	; 0xc6
80101e50:	00000000 	andeq	r0, r0, r0
80101e54:	c6fe0000 	ldrbtgt	r0, [lr], r0
80101e58:	c0c0c0c6 	sbcgt	ip, r0, r6, asr #1
80101e5c:	c0c0c0c0 	sbcgt	ip, r0, r0, asr #1
	...
80101e68:	6c6cfe00 	stclvs	14, cr15, [ip], #-0
80101e6c:	6c6c6c6c 	stclvs	12, cr6, [ip], #-432	; 0xfffffe50
80101e70:	00000000 	andeq	r0, r0, r0
80101e74:	c6fe0000 	ldrbtgt	r0, [lr], r0
80101e78:	18183060 	ldmdane	r8, {r5, r6, ip, sp}
80101e7c:	fec66030 	mcr2	0, 6, r6, cr6, cr0, {1}
	...
80101e88:	d8d87e00 	ldmle	r8, {r9, sl, fp, ip, sp, lr}^
80101e8c:	70d8d8d8 	ldrsbvc	sp, [r8], #136	; 0x88
	...
80101e98:	66666600 	strbtvs	r6, [r6], -r0, lsl #12
80101e9c:	7c666666 	stclvc	6, cr6, [r6], #-408	; 0xfffffe68
80101ea0:	00c06060 	sbceq	r6, r0, r0, rrx
80101ea4:	00000000 	andeq	r0, r0, r0
80101ea8:	1818dc76 	ldmdane	r8, {r1, r2, r4, r5, r6, sl, fp, ip, lr, pc}
80101eac:	18181818 	ldmdane	r8, {r3, r4, fp, ip}
80101eb0:	00000000 	andeq	r0, r0, r0
80101eb4:	187e0000 	ldmdane	lr!, {}^	; <UNPREDICTABLE>
80101eb8:	6666663c 			; <UNDEFINED> instruction: 0x6666663c
80101ebc:	7e183c66 	cdpvc	12, 1, cr3, cr8, cr6, {3}
80101ec0:	00000000 	andeq	r0, r0, r0
80101ec4:	6c380000 	ldcvs	0, cr0, [r8], #-0
80101ec8:	c6fec6c6 	ldrbtgt	ip, [lr], r6, asr #13
80101ecc:	386cc6c6 	stmdacc	ip!, {r1, r2, r6, r7, r9, sl, lr, pc}^
80101ed0:	00000000 	andeq	r0, r0, r0
80101ed4:	6c380000 	ldcvs	0, cr0, [r8], #-0
80101ed8:	6cc6c6c6 	stclvs	6, cr12, [r6], {198}	; 0xc6
80101edc:	ee6c6c6c 	cdp	12, 6, cr6, cr12, cr12, {3}
80101ee0:	00000000 	andeq	r0, r0, r0
80101ee4:	301e0000 	andscc	r0, lr, r0
80101ee8:	663e0c18 			; <UNDEFINED> instruction: 0x663e0c18
80101eec:	3c666666 	stclcc	6, cr6, [r6], #-408	; 0xfffffe68
	...
80101ef8:	dbdb7e00 	blle	7f7e1700 <_start-0x91e900>
80101efc:	00007edb 	ldrdeq	r7, [r0], -fp
80101f00:	00000000 	andeq	r0, r0, r0
80101f04:	03000000 	movweq	r0, #0
80101f08:	dbdb7e06 	blle	7f7e1728 <_start-0x91e8d8>
80101f0c:	c0607ef3 	strdgt	r7, [r0], #-227	; 0xffffff1d	; <UNPREDICTABLE>
80101f10:	00000000 	andeq	r0, r0, r0
80101f14:	301c0000 	andscc	r0, ip, r0
80101f18:	607c6060 	rsbsvs	r6, ip, r0, rrx
80101f1c:	1c306060 	ldcne	0, cr6, [r0], #-384	; 0xfffffe80
80101f20:	00000000 	andeq	r0, r0, r0
80101f24:	7c000000 	stcvc	0, cr0, [r0], {-0}
80101f28:	c6c6c6c6 	strbgt	ip, [r6], r6, asr #13
80101f2c:	c6c6c6c6 	strbgt	ip, [r6], r6, asr #13
	...
80101f38:	fe0000fe 	mcr2	0, 0, r0, cr0, cr14, {7}
80101f3c:	00fe0000 	rscseq	r0, lr, r0
	...
80101f48:	187e1818 	ldmdane	lr!, {r3, r4, fp, ip}^
80101f4c:	7e000018 	mcrvc	0, 0, r0, cr0, cr8, {0}
80101f50:	00000000 	andeq	r0, r0, r0
80101f54:	30000000 	andcc	r0, r0, r0
80101f58:	0c060c18 	stceq	12, cr0, [r6], {24}
80101f5c:	7e003018 	mcrvc	0, 0, r3, cr0, cr8, {0}
80101f60:	00000000 	andeq	r0, r0, r0
80101f64:	0c000000 	stceq	0, cr0, [r0], {-0}
80101f68:	30603018 	rsbcc	r3, r0, r8, lsl r0
80101f6c:	7e000c18 	mcrvc	12, 0, r0, cr0, cr8, {0}
80101f70:	00000000 	andeq	r0, r0, r0
80101f74:	1b0e0000 	blne	80481f7c <__bss_end+0x37fe68>
80101f78:	1818181b 	ldmdane	r8, {r0, r1, r3, r4, fp, ip}
80101f7c:	18181818 	ldmdane	r8, {r3, r4, fp, ip}
80101f80:	18181818 	ldmdane	r8, {r3, r4, fp, ip}
80101f84:	18181818 	ldmdane	r8, {r3, r4, fp, ip}
80101f88:	18181818 	ldmdane	r8, {r3, r4, fp, ip}
80101f8c:	d8d8d818 	ldmle	r8, {r3, r4, fp, ip, lr, pc}^
80101f90:	00000070 	andeq	r0, r0, r0, ror r0
80101f94:	00000000 	andeq	r0, r0, r0
80101f98:	7e001800 	cdpvc	8, 0, cr1, cr0, cr0, {0}
80101f9c:	00001800 	andeq	r1, r0, r0, lsl #16
	...
80101fa8:	00dc7600 	sbcseq	r7, ip, r0, lsl #12
80101fac:	0000dc76 	andeq	sp, r0, r6, ror ip
80101fb0:	00000000 	andeq	r0, r0, r0
80101fb4:	6c6c3800 	stclvs	8, cr3, [ip], #-0
80101fb8:	00000038 	andeq	r0, r0, r8, lsr r0
	...
80101fc8:	18000000 	stmdane	r0, {}	; <UNPREDICTABLE>
80101fcc:	00000018 	andeq	r0, r0, r8, lsl r0
	...
80101fd8:	18000000 	stmdane	r0, {}	; <UNPREDICTABLE>
	...
80101fe4:	0c0c0f00 	stceq	15, cr0, [ip], {-0}
80101fe8:	ec0c0c0c 	stc	12, cr0, [ip], {12}
80101fec:	1c3c6c6c 	ldcne	12, cr6, [ip], #-432	; 0xfffffe50
80101ff0:	00000000 	andeq	r0, r0, r0
80101ff4:	36366c00 	ldrtcc	r6, [r6], -r0, lsl #24
80101ff8:	00363636 	eorseq	r3, r6, r6, lsr r6
	...
80102004:	0c663c00 	stcleq	12, cr3, [r6], #-0
80102008:	007e3218 	rsbseq	r3, lr, r8, lsl r2
	...
80102018:	7e7e7e7e 	mrcvc	14, 3, r7, cr14, cr14, {3}
8010201c:	007e7e7e 	rsbseq	r7, lr, lr, ror lr
	...

80102034 <.LC0>:
80102034:	36786d49 	ldrbtcc	r6, [r8], -r9, asr #26
80102038:	006c6c75 	rsbeq	r6, ip, r5, ror ip

8010203c <.LC1>:
8010203c:	5f64636c 	svcpl	0x0064636c
80102040:	00302e37 	eorseq	r2, r0, r7, lsr lr
80102044:	5f64636c 	svcpl	0x0064636c
80102048:	00302e37 	eorseq	r2, r0, r7, lsr lr
8010204c:	36786d49 	ldrbtcc	r6, [r8], -r9, asr #26
80102050:	006c6c75 	rsbeq	r6, ip, r5, ror ip

Disassembly of section .data:

80102054 <lcd_7_0_params>:
80102054:	80102044 	andshi	r2, r0, r4, asr #32
80102058:	00000001 	andeq	r0, r0, r1
8010205c:	00000001 	andeq	r0, r0, r1
	...
80102068:	00000003 	andeq	r0, r0, r3
8010206c:	00000014 	andeq	r0, r0, r4, lsl r0
80102070:	0000000c 	andeq	r0, r0, ip
80102074:	00000014 	andeq	r0, r0, r4, lsl r0
80102078:	0000008c 	andeq	r0, r0, ip, lsl #1
8010207c:	000000a0 	andeq	r0, r0, r0, lsr #1
80102080:	00000033 	andeq	r0, r0, r3, lsr r0
80102084:	00000400 	andeq	r0, r0, r0, lsl #8
80102088:	00000258 	andeq	r0, r0, r8, asr r2
8010208c:	00000010 	andeq	r0, r0, r0, lsl r0
80102090:	99000000 	stmdbls	r0, {}	; <UNPREDICTABLE>

80102094 <GPIO1_IO08_PAD>:
80102094:	020e0308 	andeq	r0, lr, #8, 6	; 0x20000000

80102098 <GPIO1_GDIR>:
80102098:	0209c000 	andeq	ip, r9, #0

8010209c <GPIO1_DR>:
8010209c:	0209c004 	andeq	ip, r9, #4

801020a0 <Imx6ull_lcd_controller>:
801020a0:	8010204c 	andshi	r2, r0, ip, asr #32
801020a4:	80100d19 	andshi	r0, r0, r9, lsl sp
801020a8:	80100faf 	andshi	r0, r0, pc, lsr #31
801020ac:	80100fd5 			; <UNDEFINED> instruction: 0x80100fd5

Disassembly of section .bss:

801020b0 <__bss_start>:
801020b0:	00000000 	andeq	r0, r0, r0

801020b4 <xres>:
801020b4:	00000000 	andeq	r0, r0, r0

801020b8 <yres>:
801020b8:	00000000 	andeq	r0, r0, r0

801020bc <bpp>:
801020bc:	00000000 	andeq	r0, r0, r0

801020c0 <fb_base>:
801020c0:	00000000 	andeq	r0, r0, r0

801020c4 <xres>:
801020c4:	00000000 	andeq	r0, r0, r0

801020c8 <yres>:
801020c8:	00000000 	andeq	r0, r0, r0

801020cc <bpp>:
801020cc:	00000000 	andeq	r0, r0, r0

801020d0 <p_array_lcd_controller>:
	...

801020f8 <g_p_lcd_controller_selected>:
801020f8:	00000000 	andeq	r0, r0, r0

801020fc <p_array_lcd>:
	...

80102110 <g_p_lcd_selected>:
80102110:	00000000 	andeq	r0, r0, r0

