
i2c.elf:     file format elf32-littlearm


Disassembly of section .text:

80100000 <_start>:
80100000:	e59fd028 	ldr	sp, [pc, #40]	; 80100030 <clean+0x14>
80100004:	eb000001 	bl	80100010 <clean_bss>
80100008:	fa00028c 	blx	80100a40 <main>

8010000c <halt>:
8010000c:	eafffffe 	b	8010000c <halt>

80100010 <clean_bss>:
80100010:	e59f101c 	ldr	r1, [pc, #28]	; 80100034 <clean+0x18>
80100014:	e59f201c 	ldr	r2, [pc, #28]	; 80100038 <clean+0x1c>
80100018:	e3a03000 	mov	r3, #0

8010001c <clean>:
8010001c:	e5813000 	str	r3, [r1]
80100020:	e2811004 	add	r1, r1, #4
80100024:	e1510002 	cmp	r1, r2
80100028:	1afffffb 	bne	8010001c <clean>
8010002c:	e1a0f00e 	mov	pc, lr
80100030:	80200000 	eorhi	r0, r0, r0
80100034:	80101590 	mulshi	r0, r0, r5
80100038:	80101598 	mulshi	r0, r8, r5

8010003c <i2c_init>:
8010003c:	b480      	push	{r7}
8010003e:	b083      	sub	sp, #12
80100040:	af00      	add	r7, sp, #0
80100042:	6078      	str	r0, [r7, #4]
80100044:	687b      	ldr	r3, [r7, #4]
80100046:	891b      	ldrh	r3, [r3, #8]
80100048:	b29b      	uxth	r3, r3
8010004a:	f023 0380 	bic.w	r3, r3, #128	; 0x80
8010004e:	b29a      	uxth	r2, r3
80100050:	687b      	ldr	r3, [r7, #4]
80100052:	811a      	strh	r2, [r3, #8]
80100054:	687b      	ldr	r3, [r7, #4]
80100056:	2237      	movs	r2, #55	; 0x37
80100058:	809a      	strh	r2, [r3, #4]
8010005a:	687b      	ldr	r3, [r7, #4]
8010005c:	891b      	ldrh	r3, [r3, #8]
8010005e:	b29b      	uxth	r3, r3
80100060:	f043 0380 	orr.w	r3, r3, #128	; 0x80
80100064:	b29a      	uxth	r2, r3
80100066:	687b      	ldr	r3, [r7, #4]
80100068:	811a      	strh	r2, [r3, #8]
8010006a:	bf00      	nop
8010006c:	370c      	adds	r7, #12
8010006e:	46bd      	mov	sp, r7
80100070:	f85d 7b04 	ldr.w	r7, [sp], #4
80100074:	4770      	bx	lr

80100076 <i2c_check>:
80100076:	b480      	push	{r7}
80100078:	b083      	sub	sp, #12
8010007a:	af00      	add	r7, sp, #0
8010007c:	6078      	str	r0, [r7, #4]
8010007e:	6039      	str	r1, [r7, #0]
80100080:	683b      	ldr	r3, [r7, #0]
80100082:	f003 0310 	and.w	r3, r3, #16
80100086:	2b00      	cmp	r3, #0
80100088:	d019      	beq.n	801000be <i2c_check+0x48>
8010008a:	687b      	ldr	r3, [r7, #4]
8010008c:	899b      	ldrh	r3, [r3, #12]
8010008e:	b29b      	uxth	r3, r3
80100090:	f023 0310 	bic.w	r3, r3, #16
80100094:	b29a      	uxth	r2, r3
80100096:	687b      	ldr	r3, [r7, #4]
80100098:	819a      	strh	r2, [r3, #12]
8010009a:	687b      	ldr	r3, [r7, #4]
8010009c:	891b      	ldrh	r3, [r3, #8]
8010009e:	b29b      	uxth	r3, r3
801000a0:	f023 0380 	bic.w	r3, r3, #128	; 0x80
801000a4:	b29a      	uxth	r2, r3
801000a6:	687b      	ldr	r3, [r7, #4]
801000a8:	811a      	strh	r2, [r3, #8]
801000aa:	687b      	ldr	r3, [r7, #4]
801000ac:	891b      	ldrh	r3, [r3, #8]
801000ae:	b29b      	uxth	r3, r3
801000b0:	f043 0380 	orr.w	r3, r3, #128	; 0x80
801000b4:	b29a      	uxth	r2, r3
801000b6:	687b      	ldr	r3, [r7, #4]
801000b8:	811a      	strh	r2, [r3, #8]
801000ba:	2305      	movs	r3, #5
801000bc:	e007      	b.n	801000ce <i2c_check+0x58>
801000be:	683b      	ldr	r3, [r7, #0]
801000c0:	f003 0301 	and.w	r3, r3, #1
801000c4:	2b00      	cmp	r3, #0
801000c6:	d001      	beq.n	801000cc <i2c_check+0x56>
801000c8:	2304      	movs	r3, #4
801000ca:	e000      	b.n	801000ce <i2c_check+0x58>
801000cc:	2300      	movs	r3, #0
801000ce:	4618      	mov	r0, r3
801000d0:	370c      	adds	r7, #12
801000d2:	46bd      	mov	sp, r7
801000d4:	f85d 7b04 	ldr.w	r7, [sp], #4
801000d8:	4770      	bx	lr

801000da <i2c_start>:
801000da:	b480      	push	{r7}
801000dc:	b085      	sub	sp, #20
801000de:	af00      	add	r7, sp, #0
801000e0:	60f8      	str	r0, [r7, #12]
801000e2:	460b      	mov	r3, r1
801000e4:	607a      	str	r2, [r7, #4]
801000e6:	72fb      	strb	r3, [r7, #11]
801000e8:	68fb      	ldr	r3, [r7, #12]
801000ea:	899b      	ldrh	r3, [r3, #12]
801000ec:	b29b      	uxth	r3, r3
801000ee:	f003 0320 	and.w	r3, r3, #32
801000f2:	2b00      	cmp	r3, #0
801000f4:	d001      	beq.n	801000fa <i2c_start+0x20>
801000f6:	2301      	movs	r3, #1
801000f8:	e016      	b.n	80100128 <i2c_start+0x4e>
801000fa:	68fb      	ldr	r3, [r7, #12]
801000fc:	891b      	ldrh	r3, [r3, #8]
801000fe:	b29b      	uxth	r3, r3
80100100:	f043 0330 	orr.w	r3, r3, #48	; 0x30
80100104:	b29a      	uxth	r2, r3
80100106:	68fb      	ldr	r3, [r7, #12]
80100108:	811a      	strh	r2, [r3, #8]
8010010a:	7afb      	ldrb	r3, [r7, #11]
8010010c:	b29b      	uxth	r3, r3
8010010e:	005b      	lsls	r3, r3, #1
80100110:	b29a      	uxth	r2, r3
80100112:	687b      	ldr	r3, [r7, #4]
80100114:	2b01      	cmp	r3, #1
80100116:	d101      	bne.n	8010011c <i2c_start+0x42>
80100118:	2301      	movs	r3, #1
8010011a:	e000      	b.n	8010011e <i2c_start+0x44>
8010011c:	2300      	movs	r3, #0
8010011e:	4313      	orrs	r3, r2
80100120:	b29a      	uxth	r2, r3
80100122:	68fb      	ldr	r3, [r7, #12]
80100124:	821a      	strh	r2, [r3, #16]
80100126:	2300      	movs	r3, #0
80100128:	4618      	mov	r0, r3
8010012a:	3714      	adds	r7, #20
8010012c:	46bd      	mov	sp, r7
8010012e:	f85d 7b04 	ldr.w	r7, [sp], #4
80100132:	4770      	bx	lr

80100134 <i2c_stop>:
80100134:	b480      	push	{r7}
80100136:	b085      	sub	sp, #20
80100138:	af00      	add	r7, sp, #0
8010013a:	6078      	str	r0, [r7, #4]
8010013c:	f64f 73ff 	movw	r3, #65535	; 0xffff
80100140:	81fb      	strh	r3, [r7, #14]
80100142:	687b      	ldr	r3, [r7, #4]
80100144:	891b      	ldrh	r3, [r3, #8]
80100146:	b29b      	uxth	r3, r3
80100148:	f023 0338 	bic.w	r3, r3, #56	; 0x38
8010014c:	b29a      	uxth	r2, r3
8010014e:	687b      	ldr	r3, [r7, #4]
80100150:	811a      	strh	r2, [r3, #8]
80100152:	e007      	b.n	80100164 <i2c_stop+0x30>
80100154:	89fb      	ldrh	r3, [r7, #14]
80100156:	3b01      	subs	r3, #1
80100158:	81fb      	strh	r3, [r7, #14]
8010015a:	89fb      	ldrh	r3, [r7, #14]
8010015c:	2b00      	cmp	r3, #0
8010015e:	d101      	bne.n	80100164 <i2c_stop+0x30>
80100160:	2306      	movs	r3, #6
80100162:	e007      	b.n	80100174 <i2c_stop+0x40>
80100164:	687b      	ldr	r3, [r7, #4]
80100166:	899b      	ldrh	r3, [r3, #12]
80100168:	b29b      	uxth	r3, r3
8010016a:	f003 0320 	and.w	r3, r3, #32
8010016e:	2b00      	cmp	r3, #0
80100170:	d1f0      	bne.n	80100154 <i2c_stop+0x20>
80100172:	2300      	movs	r3, #0
80100174:	4618      	mov	r0, r3
80100176:	3714      	adds	r7, #20
80100178:	46bd      	mov	sp, r7
8010017a:	f85d 7b04 	ldr.w	r7, [sp], #4
8010017e:	4770      	bx	lr

80100180 <i2c_restart>:
80100180:	b480      	push	{r7}
80100182:	b085      	sub	sp, #20
80100184:	af00      	add	r7, sp, #0
80100186:	60f8      	str	r0, [r7, #12]
80100188:	460b      	mov	r3, r1
8010018a:	607a      	str	r2, [r7, #4]
8010018c:	72fb      	strb	r3, [r7, #11]
8010018e:	68fb      	ldr	r3, [r7, #12]
80100190:	899b      	ldrh	r3, [r3, #12]
80100192:	b29b      	uxth	r3, r3
80100194:	f003 0320 	and.w	r3, r3, #32
80100198:	2b00      	cmp	r3, #0
8010019a:	d008      	beq.n	801001ae <i2c_restart+0x2e>
8010019c:	68fb      	ldr	r3, [r7, #12]
8010019e:	891b      	ldrh	r3, [r3, #8]
801001a0:	b29b      	uxth	r3, r3
801001a2:	f003 0320 	and.w	r3, r3, #32
801001a6:	2b00      	cmp	r3, #0
801001a8:	d101      	bne.n	801001ae <i2c_restart+0x2e>
801001aa:	2306      	movs	r3, #6
801001ac:	e016      	b.n	801001dc <i2c_restart+0x5c>
801001ae:	68fb      	ldr	r3, [r7, #12]
801001b0:	891b      	ldrh	r3, [r3, #8]
801001b2:	b29b      	uxth	r3, r3
801001b4:	f043 0314 	orr.w	r3, r3, #20
801001b8:	b29a      	uxth	r2, r3
801001ba:	68fb      	ldr	r3, [r7, #12]
801001bc:	811a      	strh	r2, [r3, #8]
801001be:	7afb      	ldrb	r3, [r7, #11]
801001c0:	b29b      	uxth	r3, r3
801001c2:	005b      	lsls	r3, r3, #1
801001c4:	b29a      	uxth	r2, r3
801001c6:	687b      	ldr	r3, [r7, #4]
801001c8:	2b01      	cmp	r3, #1
801001ca:	d101      	bne.n	801001d0 <i2c_restart+0x50>
801001cc:	2301      	movs	r3, #1
801001ce:	e000      	b.n	801001d2 <i2c_restart+0x52>
801001d0:	2300      	movs	r3, #0
801001d2:	4313      	orrs	r3, r2
801001d4:	b29a      	uxth	r2, r3
801001d6:	68fb      	ldr	r3, [r7, #12]
801001d8:	821a      	strh	r2, [r3, #16]
801001da:	2300      	movs	r3, #0
801001dc:	4618      	mov	r0, r3
801001de:	3714      	adds	r7, #20
801001e0:	46bd      	mov	sp, r7
801001e2:	f85d 7b04 	ldr.w	r7, [sp], #4
801001e6:	4770      	bx	lr

801001e8 <i2c_write>:
801001e8:	b580      	push	{r7, lr}
801001ea:	b084      	sub	sp, #16
801001ec:	af00      	add	r7, sp, #0
801001ee:	60f8      	str	r0, [r7, #12]
801001f0:	60b9      	str	r1, [r7, #8]
801001f2:	607a      	str	r2, [r7, #4]
801001f4:	bf00      	nop
801001f6:	68fb      	ldr	r3, [r7, #12]
801001f8:	899b      	ldrh	r3, [r3, #12]
801001fa:	b29b      	uxth	r3, r3
801001fc:	f003 0380 	and.w	r3, r3, #128	; 0x80
80100200:	2b00      	cmp	r3, #0
80100202:	d0f8      	beq.n	801001f6 <i2c_write+0xe>
80100204:	68fb      	ldr	r3, [r7, #12]
80100206:	899b      	ldrh	r3, [r3, #12]
80100208:	b29b      	uxth	r3, r3
8010020a:	f023 0302 	bic.w	r3, r3, #2
8010020e:	b29a      	uxth	r2, r3
80100210:	68fb      	ldr	r3, [r7, #12]
80100212:	819a      	strh	r2, [r3, #12]
80100214:	68fb      	ldr	r3, [r7, #12]
80100216:	891b      	ldrh	r3, [r3, #8]
80100218:	b29b      	uxth	r3, r3
8010021a:	f043 0310 	orr.w	r3, r3, #16
8010021e:	b29a      	uxth	r2, r3
80100220:	68fb      	ldr	r3, [r7, #12]
80100222:	811a      	strh	r2, [r3, #8]
80100224:	e020      	b.n	80100268 <i2c_write+0x80>
80100226:	68bb      	ldr	r3, [r7, #8]
80100228:	1c5a      	adds	r2, r3, #1
8010022a:	60ba      	str	r2, [r7, #8]
8010022c:	781b      	ldrb	r3, [r3, #0]
8010022e:	b29a      	uxth	r2, r3
80100230:	68fb      	ldr	r3, [r7, #12]
80100232:	821a      	strh	r2, [r3, #16]
80100234:	bf00      	nop
80100236:	68fb      	ldr	r3, [r7, #12]
80100238:	899b      	ldrh	r3, [r3, #12]
8010023a:	b29b      	uxth	r3, r3
8010023c:	f003 0302 	and.w	r3, r3, #2
80100240:	2b00      	cmp	r3, #0
80100242:	d0f8      	beq.n	80100236 <i2c_write+0x4e>
80100244:	68fb      	ldr	r3, [r7, #12]
80100246:	899b      	ldrh	r3, [r3, #12]
80100248:	b29b      	uxth	r3, r3
8010024a:	f023 0302 	bic.w	r3, r3, #2
8010024e:	b29a      	uxth	r2, r3
80100250:	68fb      	ldr	r3, [r7, #12]
80100252:	819a      	strh	r2, [r3, #12]
80100254:	68fb      	ldr	r3, [r7, #12]
80100256:	899b      	ldrh	r3, [r3, #12]
80100258:	b29b      	uxth	r3, r3
8010025a:	4619      	mov	r1, r3
8010025c:	68f8      	ldr	r0, [r7, #12]
8010025e:	f7ff ff0a 	bl	80100076 <i2c_check>
80100262:	4603      	mov	r3, r0
80100264:	2b00      	cmp	r3, #0
80100266:	d105      	bne.n	80100274 <i2c_write+0x8c>
80100268:	687b      	ldr	r3, [r7, #4]
8010026a:	1e5a      	subs	r2, r3, #1
8010026c:	607a      	str	r2, [r7, #4]
8010026e:	2b00      	cmp	r3, #0
80100270:	d1d9      	bne.n	80100226 <i2c_write+0x3e>
80100272:	e000      	b.n	80100276 <i2c_write+0x8e>
80100274:	bf00      	nop
80100276:	68fb      	ldr	r3, [r7, #12]
80100278:	899b      	ldrh	r3, [r3, #12]
8010027a:	b29b      	uxth	r3, r3
8010027c:	f023 0302 	bic.w	r3, r3, #2
80100280:	b29a      	uxth	r2, r3
80100282:	68fb      	ldr	r3, [r7, #12]
80100284:	819a      	strh	r2, [r3, #12]
80100286:	68f8      	ldr	r0, [r7, #12]
80100288:	f7ff ff54 	bl	80100134 <i2c_stop>
8010028c:	bf00      	nop
8010028e:	3710      	adds	r7, #16
80100290:	46bd      	mov	sp, r7
80100292:	bd80      	pop	{r7, pc}

80100294 <i2c_read>:
80100294:	b580      	push	{r7, lr}
80100296:	b086      	sub	sp, #24
80100298:	af00      	add	r7, sp, #0
8010029a:	60f8      	str	r0, [r7, #12]
8010029c:	60b9      	str	r1, [r7, #8]
8010029e:	607a      	str	r2, [r7, #4]
801002a0:	2300      	movs	r3, #0
801002a2:	75fb      	strb	r3, [r7, #23]
801002a4:	7dfb      	ldrb	r3, [r7, #23]
801002a6:	b2db      	uxtb	r3, r3
801002a8:	3301      	adds	r3, #1
801002aa:	b2db      	uxtb	r3, r3
801002ac:	75fb      	strb	r3, [r7, #23]
801002ae:	bf00      	nop
801002b0:	68fb      	ldr	r3, [r7, #12]
801002b2:	899b      	ldrh	r3, [r3, #12]
801002b4:	b29b      	uxth	r3, r3
801002b6:	f003 0380 	and.w	r3, r3, #128	; 0x80
801002ba:	2b00      	cmp	r3, #0
801002bc:	d0f8      	beq.n	801002b0 <i2c_read+0x1c>
801002be:	68fb      	ldr	r3, [r7, #12]
801002c0:	899b      	ldrh	r3, [r3, #12]
801002c2:	b29b      	uxth	r3, r3
801002c4:	f023 0302 	bic.w	r3, r3, #2
801002c8:	b29a      	uxth	r2, r3
801002ca:	68fb      	ldr	r3, [r7, #12]
801002cc:	819a      	strh	r2, [r3, #12]
801002ce:	68fb      	ldr	r3, [r7, #12]
801002d0:	891b      	ldrh	r3, [r3, #8]
801002d2:	b29b      	uxth	r3, r3
801002d4:	f023 0318 	bic.w	r3, r3, #24
801002d8:	b29a      	uxth	r2, r3
801002da:	68fb      	ldr	r3, [r7, #12]
801002dc:	811a      	strh	r2, [r3, #8]
801002de:	687b      	ldr	r3, [r7, #4]
801002e0:	2b01      	cmp	r3, #1
801002e2:	d107      	bne.n	801002f4 <i2c_read+0x60>
801002e4:	68fb      	ldr	r3, [r7, #12]
801002e6:	891b      	ldrh	r3, [r3, #8]
801002e8:	b29b      	uxth	r3, r3
801002ea:	f043 0308 	orr.w	r3, r3, #8
801002ee:	b29a      	uxth	r2, r3
801002f0:	68fb      	ldr	r3, [r7, #12]
801002f2:	811a      	strh	r2, [r3, #8]
801002f4:	68fb      	ldr	r3, [r7, #12]
801002f6:	8a1b      	ldrh	r3, [r3, #16]
801002f8:	b29b      	uxth	r3, r3
801002fa:	b2db      	uxtb	r3, r3
801002fc:	75fb      	strb	r3, [r7, #23]
801002fe:	e028      	b.n	80100352 <i2c_read+0xbe>
80100300:	bf00      	nop
80100302:	68fb      	ldr	r3, [r7, #12]
80100304:	899b      	ldrh	r3, [r3, #12]
80100306:	b29b      	uxth	r3, r3
80100308:	f003 0302 	and.w	r3, r3, #2
8010030c:	2b00      	cmp	r3, #0
8010030e:	d0f8      	beq.n	80100302 <i2c_read+0x6e>
80100310:	68fb      	ldr	r3, [r7, #12]
80100312:	899b      	ldrh	r3, [r3, #12]
80100314:	b29b      	uxth	r3, r3
80100316:	f023 0302 	bic.w	r3, r3, #2
8010031a:	b29a      	uxth	r2, r3
8010031c:	68fb      	ldr	r3, [r7, #12]
8010031e:	819a      	strh	r2, [r3, #12]
80100320:	687b      	ldr	r3, [r7, #4]
80100322:	2b00      	cmp	r3, #0
80100324:	d102      	bne.n	8010032c <i2c_read+0x98>
80100326:	68f8      	ldr	r0, [r7, #12]
80100328:	f7ff ff04 	bl	80100134 <i2c_stop>
8010032c:	687b      	ldr	r3, [r7, #4]
8010032e:	2b01      	cmp	r3, #1
80100330:	d107      	bne.n	80100342 <i2c_read+0xae>
80100332:	68fb      	ldr	r3, [r7, #12]
80100334:	891b      	ldrh	r3, [r3, #8]
80100336:	b29b      	uxth	r3, r3
80100338:	f043 0308 	orr.w	r3, r3, #8
8010033c:	b29a      	uxth	r2, r3
8010033e:	68fb      	ldr	r3, [r7, #12]
80100340:	811a      	strh	r2, [r3, #8]
80100342:	68bb      	ldr	r3, [r7, #8]
80100344:	1c5a      	adds	r2, r3, #1
80100346:	60ba      	str	r2, [r7, #8]
80100348:	68fa      	ldr	r2, [r7, #12]
8010034a:	8a12      	ldrh	r2, [r2, #16]
8010034c:	b292      	uxth	r2, r2
8010034e:	b2d2      	uxtb	r2, r2
80100350:	701a      	strb	r2, [r3, #0]
80100352:	687b      	ldr	r3, [r7, #4]
80100354:	1e5a      	subs	r2, r3, #1
80100356:	607a      	str	r2, [r7, #4]
80100358:	2b00      	cmp	r3, #0
8010035a:	d1d1      	bne.n	80100300 <i2c_read+0x6c>
8010035c:	bf00      	nop
8010035e:	3718      	adds	r7, #24
80100360:	46bd      	mov	sp, r7
80100362:	bd80      	pop	{r7, pc}

80100364 <i2c_transfer>:
80100364:	b580      	push	{r7, lr}
80100366:	b084      	sub	sp, #16
80100368:	af00      	add	r7, sp, #0
8010036a:	6078      	str	r0, [r7, #4]
8010036c:	6039      	str	r1, [r7, #0]
8010036e:	2300      	movs	r3, #0
80100370:	60bb      	str	r3, [r7, #8]
80100372:	683b      	ldr	r3, [r7, #0]
80100374:	685b      	ldr	r3, [r3, #4]
80100376:	60fb      	str	r3, [r7, #12]
80100378:	687b      	ldr	r3, [r7, #4]
8010037a:	899b      	ldrh	r3, [r3, #12]
8010037c:	b29b      	uxth	r3, r3
8010037e:	f023 0312 	bic.w	r3, r3, #18
80100382:	b29a      	uxth	r2, r3
80100384:	687b      	ldr	r3, [r7, #4]
80100386:	819a      	strh	r2, [r3, #12]
80100388:	bf00      	nop
8010038a:	687b      	ldr	r3, [r7, #4]
8010038c:	899b      	ldrh	r3, [r3, #12]
8010038e:	b29b      	uxth	r3, r3
80100390:	09db      	lsrs	r3, r3, #7
80100392:	b29b      	uxth	r3, r3
80100394:	f003 0301 	and.w	r3, r3, #1
80100398:	2b00      	cmp	r3, #0
8010039a:	d0f6      	beq.n	8010038a <i2c_transfer+0x26>
8010039c:	683b      	ldr	r3, [r7, #0]
8010039e:	7b1b      	ldrb	r3, [r3, #12]
801003a0:	2b00      	cmp	r3, #0
801003a2:	d005      	beq.n	801003b0 <i2c_transfer+0x4c>
801003a4:	683b      	ldr	r3, [r7, #0]
801003a6:	685b      	ldr	r3, [r3, #4]
801003a8:	2b01      	cmp	r3, #1
801003aa:	d101      	bne.n	801003b0 <i2c_transfer+0x4c>
801003ac:	2300      	movs	r3, #0
801003ae:	60fb      	str	r3, [r7, #12]
801003b0:	683b      	ldr	r3, [r7, #0]
801003b2:	781b      	ldrb	r3, [r3, #0]
801003b4:	68fa      	ldr	r2, [r7, #12]
801003b6:	4619      	mov	r1, r3
801003b8:	6878      	ldr	r0, [r7, #4]
801003ba:	f7ff fe8e 	bl	801000da <i2c_start>
801003be:	4603      	mov	r3, r0
801003c0:	60bb      	str	r3, [r7, #8]
801003c2:	68bb      	ldr	r3, [r7, #8]
801003c4:	2b00      	cmp	r3, #0
801003c6:	d002      	beq.n	801003ce <i2c_transfer+0x6a>
801003c8:	68bb      	ldr	r3, [r7, #8]
801003ca:	b2db      	uxtb	r3, r3
801003cc:	e0a6      	b.n	8010051c <i2c_transfer+0x1b8>
801003ce:	bf00      	nop
801003d0:	687b      	ldr	r3, [r7, #4]
801003d2:	899b      	ldrh	r3, [r3, #12]
801003d4:	b29b      	uxth	r3, r3
801003d6:	f003 0302 	and.w	r3, r3, #2
801003da:	2b00      	cmp	r3, #0
801003dc:	d0f8      	beq.n	801003d0 <i2c_transfer+0x6c>
801003de:	687b      	ldr	r3, [r7, #4]
801003e0:	899b      	ldrh	r3, [r3, #12]
801003e2:	b29b      	uxth	r3, r3
801003e4:	4619      	mov	r1, r3
801003e6:	6878      	ldr	r0, [r7, #4]
801003e8:	f7ff fe45 	bl	80100076 <i2c_check>
801003ec:	4603      	mov	r3, r0
801003ee:	60bb      	str	r3, [r7, #8]
801003f0:	68bb      	ldr	r3, [r7, #8]
801003f2:	2b00      	cmp	r3, #0
801003f4:	d005      	beq.n	80100402 <i2c_transfer+0x9e>
801003f6:	6878      	ldr	r0, [r7, #4]
801003f8:	f7ff fe9c 	bl	80100134 <i2c_stop>
801003fc:	68bb      	ldr	r3, [r7, #8]
801003fe:	b2db      	uxtb	r3, r3
80100400:	e08c      	b.n	8010051c <i2c_transfer+0x1b8>
80100402:	683b      	ldr	r3, [r7, #0]
80100404:	7b1b      	ldrb	r3, [r3, #12]
80100406:	2b00      	cmp	r3, #0
80100408:	d067      	beq.n	801004da <i2c_transfer+0x176>
8010040a:	687b      	ldr	r3, [r7, #4]
8010040c:	899b      	ldrh	r3, [r3, #12]
8010040e:	b29b      	uxth	r3, r3
80100410:	f023 0302 	bic.w	r3, r3, #2
80100414:	b29a      	uxth	r2, r3
80100416:	687b      	ldr	r3, [r7, #4]
80100418:	819a      	strh	r2, [r3, #12]
8010041a:	683b      	ldr	r3, [r7, #0]
8010041c:	7b1b      	ldrb	r3, [r3, #12]
8010041e:	3b01      	subs	r3, #1
80100420:	b2da      	uxtb	r2, r3
80100422:	683b      	ldr	r3, [r7, #0]
80100424:	731a      	strb	r2, [r3, #12]
80100426:	683b      	ldr	r3, [r7, #0]
80100428:	689a      	ldr	r2, [r3, #8]
8010042a:	683b      	ldr	r3, [r7, #0]
8010042c:	7b1b      	ldrb	r3, [r3, #12]
8010042e:	00db      	lsls	r3, r3, #3
80100430:	fa22 f303 	lsr.w	r3, r2, r3
80100434:	b29a      	uxth	r2, r3
80100436:	687b      	ldr	r3, [r7, #4]
80100438:	821a      	strh	r2, [r3, #16]
8010043a:	bf00      	nop
8010043c:	687b      	ldr	r3, [r7, #4]
8010043e:	899b      	ldrh	r3, [r3, #12]
80100440:	b29b      	uxth	r3, r3
80100442:	f003 0302 	and.w	r3, r3, #2
80100446:	2b00      	cmp	r3, #0
80100448:	d0f8      	beq.n	8010043c <i2c_transfer+0xd8>
8010044a:	687b      	ldr	r3, [r7, #4]
8010044c:	899b      	ldrh	r3, [r3, #12]
8010044e:	b29b      	uxth	r3, r3
80100450:	4619      	mov	r1, r3
80100452:	6878      	ldr	r0, [r7, #4]
80100454:	f7ff fe0f 	bl	80100076 <i2c_check>
80100458:	4603      	mov	r3, r0
8010045a:	60bb      	str	r3, [r7, #8]
8010045c:	68bb      	ldr	r3, [r7, #8]
8010045e:	2b00      	cmp	r3, #0
80100460:	d005      	beq.n	8010046e <i2c_transfer+0x10a>
80100462:	6878      	ldr	r0, [r7, #4]
80100464:	f7ff fe66 	bl	80100134 <i2c_stop>
80100468:	68bb      	ldr	r3, [r7, #8]
8010046a:	b2db      	uxtb	r3, r3
8010046c:	e056      	b.n	8010051c <i2c_transfer+0x1b8>
8010046e:	683b      	ldr	r3, [r7, #0]
80100470:	7b1b      	ldrb	r3, [r3, #12]
80100472:	2b00      	cmp	r3, #0
80100474:	d002      	beq.n	8010047c <i2c_transfer+0x118>
80100476:	68bb      	ldr	r3, [r7, #8]
80100478:	2b00      	cmp	r3, #0
8010047a:	d0c6      	beq.n	8010040a <i2c_transfer+0xa6>
8010047c:	683b      	ldr	r3, [r7, #0]
8010047e:	685b      	ldr	r3, [r3, #4]
80100480:	2b01      	cmp	r3, #1
80100482:	d12a      	bne.n	801004da <i2c_transfer+0x176>
80100484:	687b      	ldr	r3, [r7, #4]
80100486:	899b      	ldrh	r3, [r3, #12]
80100488:	b29b      	uxth	r3, r3
8010048a:	f023 0302 	bic.w	r3, r3, #2
8010048e:	b29a      	uxth	r2, r3
80100490:	687b      	ldr	r3, [r7, #4]
80100492:	819a      	strh	r2, [r3, #12]
80100494:	683b      	ldr	r3, [r7, #0]
80100496:	781b      	ldrb	r3, [r3, #0]
80100498:	2201      	movs	r2, #1
8010049a:	4619      	mov	r1, r3
8010049c:	6878      	ldr	r0, [r7, #4]
8010049e:	f7ff fe6f 	bl	80100180 <i2c_restart>
801004a2:	bf00      	nop
801004a4:	687b      	ldr	r3, [r7, #4]
801004a6:	899b      	ldrh	r3, [r3, #12]
801004a8:	b29b      	uxth	r3, r3
801004aa:	f003 0302 	and.w	r3, r3, #2
801004ae:	2b00      	cmp	r3, #0
801004b0:	d0f8      	beq.n	801004a4 <i2c_transfer+0x140>
801004b2:	687b      	ldr	r3, [r7, #4]
801004b4:	899b      	ldrh	r3, [r3, #12]
801004b6:	b29b      	uxth	r3, r3
801004b8:	4619      	mov	r1, r3
801004ba:	6878      	ldr	r0, [r7, #4]
801004bc:	f7ff fddb 	bl	80100076 <i2c_check>
801004c0:	4603      	mov	r3, r0
801004c2:	60bb      	str	r3, [r7, #8]
801004c4:	68bb      	ldr	r3, [r7, #8]
801004c6:	2b00      	cmp	r3, #0
801004c8:	d007      	beq.n	801004da <i2c_transfer+0x176>
801004ca:	2307      	movs	r3, #7
801004cc:	60bb      	str	r3, [r7, #8]
801004ce:	6878      	ldr	r0, [r7, #4]
801004d0:	f7ff fe30 	bl	80100134 <i2c_stop>
801004d4:	68bb      	ldr	r3, [r7, #8]
801004d6:	b2db      	uxtb	r3, r3
801004d8:	e020      	b.n	8010051c <i2c_transfer+0x1b8>
801004da:	683b      	ldr	r3, [r7, #0]
801004dc:	685b      	ldr	r3, [r3, #4]
801004de:	2b00      	cmp	r3, #0
801004e0:	d10b      	bne.n	801004fa <i2c_transfer+0x196>
801004e2:	683b      	ldr	r3, [r7, #0]
801004e4:	691b      	ldr	r3, [r3, #16]
801004e6:	2b00      	cmp	r3, #0
801004e8:	d007      	beq.n	801004fa <i2c_transfer+0x196>
801004ea:	683b      	ldr	r3, [r7, #0]
801004ec:	6959      	ldr	r1, [r3, #20]
801004ee:	683b      	ldr	r3, [r7, #0]
801004f0:	691b      	ldr	r3, [r3, #16]
801004f2:	461a      	mov	r2, r3
801004f4:	6878      	ldr	r0, [r7, #4]
801004f6:	f7ff fe77 	bl	801001e8 <i2c_write>
801004fa:	683b      	ldr	r3, [r7, #0]
801004fc:	685b      	ldr	r3, [r3, #4]
801004fe:	2b01      	cmp	r3, #1
80100500:	d10b      	bne.n	8010051a <i2c_transfer+0x1b6>
80100502:	683b      	ldr	r3, [r7, #0]
80100504:	691b      	ldr	r3, [r3, #16]
80100506:	2b00      	cmp	r3, #0
80100508:	d007      	beq.n	8010051a <i2c_transfer+0x1b6>
8010050a:	683b      	ldr	r3, [r7, #0]
8010050c:	6959      	ldr	r1, [r3, #20]
8010050e:	683b      	ldr	r3, [r7, #0]
80100510:	691b      	ldr	r3, [r3, #16]
80100512:	461a      	mov	r2, r3
80100514:	6878      	ldr	r0, [r7, #4]
80100516:	f7ff febd 	bl	80100294 <i2c_read>
8010051a:	2300      	movs	r3, #0
8010051c:	4618      	mov	r0, r3
8010051e:	3710      	adds	r7, #16
80100520:	46bd      	mov	sp, r7
80100522:	bd80      	pop	{r7, pc}

80100524 <i2c_write_one_byte>:
80100524:	b580      	push	{r7, lr}
80100526:	b08a      	sub	sp, #40	; 0x28
80100528:	af00      	add	r7, sp, #0
8010052a:	603b      	str	r3, [r7, #0]
8010052c:	4603      	mov	r3, r0
8010052e:	71fb      	strb	r3, [r7, #7]
80100530:	460b      	mov	r3, r1
80100532:	71bb      	strb	r3, [r7, #6]
80100534:	4613      	mov	r3, r2
80100536:	717b      	strb	r3, [r7, #5]
80100538:	2300      	movs	r3, #0
8010053a:	f887 3027 	strb.w	r3, [r7, #39]	; 0x27
8010053e:	797b      	ldrb	r3, [r7, #5]
80100540:	f887 3026 	strb.w	r3, [r7, #38]	; 0x26
80100544:	79fb      	ldrb	r3, [r7, #7]
80100546:	733b      	strb	r3, [r7, #12]
80100548:	2300      	movs	r3, #0
8010054a:	613b      	str	r3, [r7, #16]
8010054c:	79bb      	ldrb	r3, [r7, #6]
8010054e:	617b      	str	r3, [r7, #20]
80100550:	2301      	movs	r3, #1
80100552:	763b      	strb	r3, [r7, #24]
80100554:	f107 0326 	add.w	r3, r7, #38	; 0x26
80100558:	623b      	str	r3, [r7, #32]
8010055a:	2301      	movs	r3, #1
8010055c:	61fb      	str	r3, [r7, #28]
8010055e:	f107 030c 	add.w	r3, r7, #12
80100562:	4619      	mov	r1, r3
80100564:	6838      	ldr	r0, [r7, #0]
80100566:	f7ff fefd 	bl	80100364 <i2c_transfer>
8010056a:	4603      	mov	r3, r0
8010056c:	f887 3027 	strb.w	r3, [r7, #39]	; 0x27
80100570:	f897 3027 	ldrb.w	r3, [r7, #39]	; 0x27
80100574:	4618      	mov	r0, r3
80100576:	3728      	adds	r7, #40	; 0x28
80100578:	46bd      	mov	sp, r7
8010057a:	bd80      	pop	{r7, pc}

8010057c <i2c_read_one_byte>:
8010057c:	b580      	push	{r7, lr}
8010057e:	b08a      	sub	sp, #40	; 0x28
80100580:	af00      	add	r7, sp, #0
80100582:	4603      	mov	r3, r0
80100584:	603a      	str	r2, [r7, #0]
80100586:	71fb      	strb	r3, [r7, #7]
80100588:	460b      	mov	r3, r1
8010058a:	71bb      	strb	r3, [r7, #6]
8010058c:	2300      	movs	r3, #0
8010058e:	f887 3026 	strb.w	r3, [r7, #38]	; 0x26
80100592:	2300      	movs	r3, #0
80100594:	f887 3027 	strb.w	r3, [r7, #39]	; 0x27
80100598:	79fb      	ldrb	r3, [r7, #7]
8010059a:	733b      	strb	r3, [r7, #12]
8010059c:	2301      	movs	r3, #1
8010059e:	613b      	str	r3, [r7, #16]
801005a0:	79bb      	ldrb	r3, [r7, #6]
801005a2:	617b      	str	r3, [r7, #20]
801005a4:	2301      	movs	r3, #1
801005a6:	763b      	strb	r3, [r7, #24]
801005a8:	f107 0326 	add.w	r3, r7, #38	; 0x26
801005ac:	623b      	str	r3, [r7, #32]
801005ae:	2301      	movs	r3, #1
801005b0:	61fb      	str	r3, [r7, #28]
801005b2:	f107 030c 	add.w	r3, r7, #12
801005b6:	4619      	mov	r1, r3
801005b8:	6838      	ldr	r0, [r7, #0]
801005ba:	f7ff fed3 	bl	80100364 <i2c_transfer>
801005be:	4603      	mov	r3, r0
801005c0:	f887 3027 	strb.w	r3, [r7, #39]	; 0x27
801005c4:	f897 3026 	ldrb.w	r3, [r7, #38]	; 0x26
801005c8:	4618      	mov	r0, r3
801005ca:	3728      	adds	r7, #40	; 0x28
801005cc:	46bd      	mov	sp, r7
801005ce:	bd80      	pop	{r7, pc}

801005d0 <Uart_Init>:
801005d0:	b480      	push	{r7}
801005d2:	af00      	add	r7, sp, #0
801005d4:	f241 5290 	movw	r2, #5520	; 0x1590
801005d8:	f2c8 0210 	movt	r2, #32784	; 0x8010
801005dc:	2384      	movs	r3, #132	; 0x84
801005de:	f2c0 230e 	movt	r3, #526	; 0x20e
801005e2:	6013      	str	r3, [r2, #0]
801005e4:	f241 5294 	movw	r2, #5524	; 0x1594
801005e8:	f2c8 0210 	movt	r2, #32784	; 0x8010
801005ec:	2388      	movs	r3, #136	; 0x88
801005ee:	f2c0 230e 	movt	r3, #526	; 0x20e
801005f2:	6013      	str	r3, [r2, #0]
801005f4:	f241 5394 	movw	r3, #5524	; 0x1594
801005f8:	f2c8 0310 	movt	r3, #32784	; 0x8010
801005fc:	681b      	ldr	r3, [r3, #0]
801005fe:	2200      	movs	r2, #0
80100600:	601a      	str	r2, [r3, #0]
80100602:	f241 5390 	movw	r3, #5520	; 0x1590
80100606:	f2c8 0310 	movt	r3, #32784	; 0x8010
8010060a:	681b      	ldr	r3, [r3, #0]
8010060c:	2200      	movs	r2, #0
8010060e:	601a      	str	r2, [r3, #0]
80100610:	2300      	movs	r3, #0
80100612:	f2c0 2302 	movt	r3, #514	; 0x202
80100616:	2200      	movs	r2, #0
80100618:	f2c0 2202 	movt	r2, #514	; 0x202
8010061c:	f8d2 2080 	ldr.w	r2, [r2, #128]	; 0x80
80100620:	f042 0201 	orr.w	r2, r2, #1
80100624:	f8c3 2080 	str.w	r2, [r3, #128]	; 0x80
80100628:	2200      	movs	r2, #0
8010062a:	f2c0 2202 	movt	r2, #514	; 0x202
8010062e:	2300      	movs	r3, #0
80100630:	f2c0 2302 	movt	r3, #514	; 0x202
80100634:	f8d3 3084 	ldr.w	r3, [r3, #132]	; 0x84
80100638:	f443 4380 	orr.w	r3, r3, #16384	; 0x4000
8010063c:	f043 0326 	orr.w	r3, r3, #38	; 0x26
80100640:	f8c2 3084 	str.w	r3, [r2, #132]	; 0x84
80100644:	2300      	movs	r3, #0
80100646:	f2c0 2302 	movt	r3, #514	; 0x202
8010064a:	2200      	movs	r2, #0
8010064c:	f2c0 2202 	movt	r2, #514	; 0x202
80100650:	f8d2 2088 	ldr.w	r2, [r2, #136]	; 0x88
80100654:	f042 0204 	orr.w	r2, r2, #4
80100658:	f8c3 2088 	str.w	r2, [r3, #136]	; 0x88
8010065c:	2300      	movs	r3, #0
8010065e:	f2c0 2302 	movt	r3, #514	; 0x202
80100662:	f44f 7220 	mov.w	r2, #640	; 0x280
80100666:	f8c3 2090 	str.w	r2, [r3, #144]	; 0x90
8010066a:	2300      	movs	r3, #0
8010066c:	f2c0 2302 	movt	r3, #514	; 0x202
80100670:	2247      	movs	r2, #71	; 0x47
80100672:	f8c3 20a4 	str.w	r2, [r3, #164]	; 0xa4
80100676:	2300      	movs	r3, #0
80100678:	f2c0 2302 	movt	r3, #514	; 0x202
8010067c:	f640 4234 	movw	r2, #3124	; 0xc34
80100680:	f8c3 20a8 	str.w	r2, [r3, #168]	; 0xa8
80100684:	2300      	movs	r3, #0
80100686:	f2c0 2302 	movt	r3, #514	; 0x202
8010068a:	2200      	movs	r2, #0
8010068c:	f2c0 2202 	movt	r2, #514	; 0x202
80100690:	f8d2 2080 	ldr.w	r2, [r2, #128]	; 0x80
80100694:	f042 0201 	orr.w	r2, r2, #1
80100698:	f8c3 2080 	str.w	r2, [r3, #128]	; 0x80
8010069c:	bf00      	nop
8010069e:	46bd      	mov	sp, r7
801006a0:	f85d 7b04 	ldr.w	r7, [sp], #4
801006a4:	4770      	bx	lr

801006a6 <PutChar>:
801006a6:	b480      	push	{r7}
801006a8:	b083      	sub	sp, #12
801006aa:	af00      	add	r7, sp, #0
801006ac:	6078      	str	r0, [r7, #4]
801006ae:	bf00      	nop
801006b0:	2300      	movs	r3, #0
801006b2:	f2c0 2302 	movt	r3, #514	; 0x202
801006b6:	f8d3 3098 	ldr.w	r3, [r3, #152]	; 0x98
801006ba:	f003 0308 	and.w	r3, r3, #8
801006be:	2b00      	cmp	r3, #0
801006c0:	d0f6      	beq.n	801006b0 <PutChar+0xa>
801006c2:	2300      	movs	r3, #0
801006c4:	f2c0 2302 	movt	r3, #514	; 0x202
801006c8:	687a      	ldr	r2, [r7, #4]
801006ca:	b2d2      	uxtb	r2, r2
801006cc:	641a      	str	r2, [r3, #64]	; 0x40
801006ce:	bf00      	nop
801006d0:	370c      	adds	r7, #12
801006d2:	46bd      	mov	sp, r7
801006d4:	f85d 7b04 	ldr.w	r7, [sp], #4
801006d8:	4770      	bx	lr

801006da <GetChar>:
801006da:	b480      	push	{r7}
801006dc:	af00      	add	r7, sp, #0
801006de:	bf00      	nop
801006e0:	2300      	movs	r3, #0
801006e2:	f2c0 2302 	movt	r3, #514	; 0x202
801006e6:	f8d3 3098 	ldr.w	r3, [r3, #152]	; 0x98
801006ea:	f003 0301 	and.w	r3, r3, #1
801006ee:	2b00      	cmp	r3, #0
801006f0:	d0f6      	beq.n	801006e0 <GetChar+0x6>
801006f2:	2300      	movs	r3, #0
801006f4:	f2c0 2302 	movt	r3, #514	; 0x202
801006f8:	681b      	ldr	r3, [r3, #0]
801006fa:	b2db      	uxtb	r3, r3
801006fc:	4618      	mov	r0, r3
801006fe:	46bd      	mov	sp, r7
80100700:	f85d 7b04 	ldr.w	r7, [sp], #4
80100704:	4770      	bx	lr

80100706 <PutStr>:
80100706:	b580      	push	{r7, lr}
80100708:	b082      	sub	sp, #8
8010070a:	af00      	add	r7, sp, #0
8010070c:	6078      	str	r0, [r7, #4]
8010070e:	e007      	b.n	80100720 <PutStr+0x1a>
80100710:	687b      	ldr	r3, [r7, #4]
80100712:	781b      	ldrb	r3, [r3, #0]
80100714:	4618      	mov	r0, r3
80100716:	f7ff ffc6 	bl	801006a6 <PutChar>
8010071a:	687b      	ldr	r3, [r7, #4]
8010071c:	3301      	adds	r3, #1
8010071e:	607b      	str	r3, [r7, #4]
80100720:	687b      	ldr	r3, [r7, #4]
80100722:	781b      	ldrb	r3, [r3, #0]
80100724:	2b00      	cmp	r3, #0
80100726:	d1f3      	bne.n	80100710 <PutStr+0xa>
80100728:	bf00      	nop
8010072a:	3708      	adds	r7, #8
8010072c:	46bd      	mov	sp, r7
8010072e:	bd80      	pop	{r7, pc}

80100730 <raise>:
80100730:	b480      	push	{r7}
80100732:	b083      	sub	sp, #12
80100734:	af00      	add	r7, sp, #0
80100736:	6078      	str	r0, [r7, #4]
80100738:	2300      	movs	r3, #0
8010073a:	4618      	mov	r0, r3
8010073c:	370c      	adds	r7, #12
8010073e:	46bd      	mov	sp, r7
80100740:	f85d 7b04 	ldr.w	r7, [sp], #4
80100744:	4770      	bx	lr

80100746 <IOMUXC_SetPinMux>:
80100746:	b480      	push	{r7}
80100748:	b085      	sub	sp, #20
8010074a:	af00      	add	r7, sp, #0
8010074c:	60f8      	str	r0, [r7, #12]
8010074e:	60b9      	str	r1, [r7, #8]
80100750:	607a      	str	r2, [r7, #4]
80100752:	603b      	str	r3, [r7, #0]
80100754:	68fb      	ldr	r3, [r7, #12]
80100756:	68ba      	ldr	r2, [r7, #8]
80100758:	f002 010f 	and.w	r1, r2, #15
8010075c:	69fa      	ldr	r2, [r7, #28]
8010075e:	0112      	lsls	r2, r2, #4
80100760:	f002 0210 	and.w	r2, r2, #16
80100764:	430a      	orrs	r2, r1
80100766:	601a      	str	r2, [r3, #0]
80100768:	687b      	ldr	r3, [r7, #4]
8010076a:	2b00      	cmp	r3, #0
8010076c:	d004      	beq.n	80100778 <IOMUXC_SetPinMux+0x32>
8010076e:	687b      	ldr	r3, [r7, #4]
80100770:	683a      	ldr	r2, [r7, #0]
80100772:	f002 0207 	and.w	r2, r2, #7
80100776:	601a      	str	r2, [r3, #0]
80100778:	bf00      	nop
8010077a:	3714      	adds	r7, #20
8010077c:	46bd      	mov	sp, r7
8010077e:	f85d 7b04 	ldr.w	r7, [sp], #4
80100782:	4770      	bx	lr

80100784 <IOMUXC_SetPinConfig>:
80100784:	b480      	push	{r7}
80100786:	b085      	sub	sp, #20
80100788:	af00      	add	r7, sp, #0
8010078a:	60f8      	str	r0, [r7, #12]
8010078c:	60b9      	str	r1, [r7, #8]
8010078e:	607a      	str	r2, [r7, #4]
80100790:	603b      	str	r3, [r7, #0]
80100792:	69bb      	ldr	r3, [r7, #24]
80100794:	2b00      	cmp	r3, #0
80100796:	d002      	beq.n	8010079e <IOMUXC_SetPinConfig+0x1a>
80100798:	69bb      	ldr	r3, [r7, #24]
8010079a:	69fa      	ldr	r2, [r7, #28]
8010079c:	601a      	str	r2, [r3, #0]
8010079e:	bf00      	nop
801007a0:	3714      	adds	r7, #20
801007a2:	46bd      	mov	sp, r7
801007a4:	f85d 7b04 	ldr.w	r7, [sp], #4
801007a8:	4770      	bx	lr

801007aa <delay>:
801007aa:	b480      	push	{r7}
801007ac:	b083      	sub	sp, #12
801007ae:	af00      	add	r7, sp, #0
801007b0:	6078      	str	r0, [r7, #4]
801007b2:	bf00      	nop
801007b4:	687b      	ldr	r3, [r7, #4]
801007b6:	1e5a      	subs	r2, r3, #1
801007b8:	607a      	str	r2, [r7, #4]
801007ba:	2b00      	cmp	r3, #0
801007bc:	d1fa      	bne.n	801007b4 <delay+0xa>
801007be:	bf00      	nop
801007c0:	370c      	adds	r7, #12
801007c2:	46bd      	mov	sp, r7
801007c4:	f85d 7b04 	ldr.w	r7, [sp], #4
801007c8:	4770      	bx	lr

801007ca <ap3216c_init_io>:
801007ca:	b580      	push	{r7, lr}
801007cc:	b082      	sub	sp, #8
801007ce:	af02      	add	r7, sp, #8
801007d0:	2301      	movs	r3, #1
801007d2:	9301      	str	r3, [sp, #4]
801007d4:	f44f 7350 	mov.w	r3, #832	; 0x340
801007d8:	f2c0 230e 	movt	r3, #526	; 0x20e
801007dc:	9300      	str	r3, [sp, #0]
801007de:	2301      	movs	r3, #1
801007e0:	f240 52a4 	movw	r2, #1444	; 0x5a4
801007e4:	f2c0 220e 	movt	r2, #526	; 0x20e
801007e8:	2102      	movs	r1, #2
801007ea:	20b4      	movs	r0, #180	; 0xb4
801007ec:	f2c0 200e 	movt	r0, #526	; 0x20e
801007f0:	f7ff ffa9 	bl	80100746 <IOMUXC_SetPinMux>
801007f4:	2301      	movs	r3, #1
801007f6:	9301      	str	r3, [sp, #4]
801007f8:	f44f 7351 	mov.w	r3, #836	; 0x344
801007fc:	f2c0 230e 	movt	r3, #526	; 0x20e
80100800:	9300      	str	r3, [sp, #0]
80100802:	2302      	movs	r3, #2
80100804:	f44f 62b5 	mov.w	r2, #1448	; 0x5a8
80100808:	f2c0 220e 	movt	r2, #526	; 0x20e
8010080c:	2102      	movs	r1, #2
8010080e:	20b8      	movs	r0, #184	; 0xb8
80100810:	f2c0 200e 	movt	r0, #526	; 0x20e
80100814:	f7ff ff97 	bl	80100746 <IOMUXC_SetPinMux>
80100818:	f247 03b0 	movw	r3, #28848	; 0x70b0
8010081c:	9301      	str	r3, [sp, #4]
8010081e:	f44f 7350 	mov.w	r3, #832	; 0x340
80100822:	f2c0 230e 	movt	r3, #526	; 0x20e
80100826:	9300      	str	r3, [sp, #0]
80100828:	2301      	movs	r3, #1
8010082a:	f240 52a4 	movw	r2, #1444	; 0x5a4
8010082e:	f2c0 220e 	movt	r2, #526	; 0x20e
80100832:	2102      	movs	r1, #2
80100834:	20b4      	movs	r0, #180	; 0xb4
80100836:	f2c0 200e 	movt	r0, #526	; 0x20e
8010083a:	f7ff ffa3 	bl	80100784 <IOMUXC_SetPinConfig>
8010083e:	f247 03b0 	movw	r3, #28848	; 0x70b0
80100842:	9301      	str	r3, [sp, #4]
80100844:	f44f 7351 	mov.w	r3, #836	; 0x344
80100848:	f2c0 230e 	movt	r3, #526	; 0x20e
8010084c:	9300      	str	r3, [sp, #0]
8010084e:	2302      	movs	r3, #2
80100850:	f44f 62b5 	mov.w	r2, #1448	; 0x5a8
80100854:	f2c0 220e 	movt	r2, #526	; 0x20e
80100858:	2102      	movs	r1, #2
8010085a:	20b8      	movs	r0, #184	; 0xb8
8010085c:	f2c0 200e 	movt	r0, #526	; 0x20e
80100860:	f7ff ff90 	bl	80100784 <IOMUXC_SetPinConfig>
80100864:	bf00      	nop
80100866:	46bd      	mov	sp, r7
80100868:	bd80      	pop	{r7, pc}

8010086a <ap3216c_read_system_status>:
8010086a:	b580      	push	{r7, lr}
8010086c:	b082      	sub	sp, #8
8010086e:	af00      	add	r7, sp, #0
80100870:	2300      	movs	r3, #0
80100872:	71fb      	strb	r3, [r7, #7]
80100874:	2200      	movs	r2, #0
80100876:	f2c0 221a 	movt	r2, #538	; 0x21a
8010087a:	2100      	movs	r1, #0
8010087c:	201e      	movs	r0, #30
8010087e:	f7ff fe7d 	bl	8010057c <i2c_read_one_byte>
80100882:	4603      	mov	r3, r0
80100884:	71fb      	strb	r3, [r7, #7]
80100886:	79fb      	ldrb	r3, [r7, #7]
80100888:	2b00      	cmp	r3, #0
8010088a:	d102      	bne.n	80100892 <ap3216c_read_system_status+0x28>
8010088c:	79fb      	ldrb	r3, [r7, #7]
8010088e:	2bff      	cmp	r3, #255	; 0xff
80100890:	d001      	beq.n	80100896 <ap3216c_read_system_status+0x2c>
80100892:	2300      	movs	r3, #0
80100894:	e000      	b.n	80100898 <ap3216c_read_system_status+0x2e>
80100896:	2301      	movs	r3, #1
80100898:	4618      	mov	r0, r3
8010089a:	3708      	adds	r7, #8
8010089c:	46bd      	mov	sp, r7
8010089e:	bd80      	pop	{r7, pc}

801008a0 <ap3216c_init>:
801008a0:	b580      	push	{r7, lr}
801008a2:	b082      	sub	sp, #8
801008a4:	af00      	add	r7, sp, #0
801008a6:	2300      	movs	r3, #0
801008a8:	607b      	str	r3, [r7, #4]
801008aa:	f7ff ff8e 	bl	801007ca <ap3216c_init_io>
801008ae:	2000      	movs	r0, #0
801008b0:	f2c0 201a 	movt	r0, #538	; 0x21a
801008b4:	f7ff fbc2 	bl	8010003c <i2c_init>
801008b8:	2300      	movs	r3, #0
801008ba:	f2c0 231a 	movt	r3, #538	; 0x21a
801008be:	2204      	movs	r2, #4
801008c0:	2100      	movs	r1, #0
801008c2:	201e      	movs	r0, #30
801008c4:	f7ff fe2e 	bl	80100524 <i2c_write_one_byte>
801008c8:	f242 7010 	movw	r0, #10000	; 0x2710
801008cc:	f7ff ff6d 	bl	801007aa <delay>
801008d0:	2300      	movs	r3, #0
801008d2:	f2c0 231a 	movt	r3, #538	; 0x21a
801008d6:	2203      	movs	r2, #3
801008d8:	2100      	movs	r1, #0
801008da:	201e      	movs	r0, #30
801008dc:	f7ff fe22 	bl	80100524 <i2c_write_one_byte>
801008e0:	f7ff ffc3 	bl	8010086a <ap3216c_read_system_status>
801008e4:	4603      	mov	r3, r0
801008e6:	4618      	mov	r0, r3
801008e8:	3708      	adds	r7, #8
801008ea:	46bd      	mov	sp, r7
801008ec:	bd80      	pop	{r7, pc}

801008ee <ap3216c_read_ir>:
801008ee:	b580      	push	{r7, lr}
801008f0:	b084      	sub	sp, #16
801008f2:	af00      	add	r7, sp, #0
801008f4:	6078      	str	r0, [r7, #4]
801008f6:	2200      	movs	r2, #0
801008f8:	f2c0 221a 	movt	r2, #538	; 0x21a
801008fc:	210a      	movs	r1, #10
801008fe:	201e      	movs	r0, #30
80100900:	f7ff fe3c 	bl	8010057c <i2c_read_one_byte>
80100904:	4603      	mov	r3, r0
80100906:	73fb      	strb	r3, [r7, #15]
80100908:	2200      	movs	r2, #0
8010090a:	f2c0 221a 	movt	r2, #538	; 0x21a
8010090e:	210b      	movs	r1, #11
80100910:	201e      	movs	r0, #30
80100912:	f7ff fe33 	bl	8010057c <i2c_read_one_byte>
80100916:	4603      	mov	r3, r0
80100918:	73bb      	strb	r3, [r7, #14]
8010091a:	f997 300f 	ldrsb.w	r3, [r7, #15]
8010091e:	2b00      	cmp	r3, #0
80100920:	da03      	bge.n	8010092a <ap3216c_read_ir+0x3c>
80100922:	687b      	ldr	r3, [r7, #4]
80100924:	2200      	movs	r2, #0
80100926:	801a      	strh	r2, [r3, #0]
80100928:	e00d      	b.n	80100946 <ap3216c_read_ir+0x58>
8010092a:	7bbb      	ldrb	r3, [r7, #14]
8010092c:	009b      	lsls	r3, r3, #2
8010092e:	b21a      	sxth	r2, r3
80100930:	7bfb      	ldrb	r3, [r7, #15]
80100932:	b21b      	sxth	r3, r3
80100934:	f003 0303 	and.w	r3, r3, #3
80100938:	b21b      	sxth	r3, r3
8010093a:	4313      	orrs	r3, r2
8010093c:	b21b      	sxth	r3, r3
8010093e:	b29a      	uxth	r2, r3
80100940:	687b      	ldr	r3, [r7, #4]
80100942:	801a      	strh	r2, [r3, #0]
80100944:	bf00      	nop
80100946:	3710      	adds	r7, #16
80100948:	46bd      	mov	sp, r7
8010094a:	bd80      	pop	{r7, pc}

8010094c <ap3216c_read_als>:
8010094c:	b580      	push	{r7, lr}
8010094e:	b084      	sub	sp, #16
80100950:	af00      	add	r7, sp, #0
80100952:	6078      	str	r0, [r7, #4]
80100954:	2200      	movs	r2, #0
80100956:	f2c0 221a 	movt	r2, #538	; 0x21a
8010095a:	210c      	movs	r1, #12
8010095c:	201e      	movs	r0, #30
8010095e:	f7ff fe0d 	bl	8010057c <i2c_read_one_byte>
80100962:	4603      	mov	r3, r0
80100964:	73fb      	strb	r3, [r7, #15]
80100966:	2200      	movs	r2, #0
80100968:	f2c0 221a 	movt	r2, #538	; 0x21a
8010096c:	210d      	movs	r1, #13
8010096e:	201e      	movs	r0, #30
80100970:	f7ff fe04 	bl	8010057c <i2c_read_one_byte>
80100974:	4603      	mov	r3, r0
80100976:	73bb      	strb	r3, [r7, #14]
80100978:	7bbb      	ldrb	r3, [r7, #14]
8010097a:	021b      	lsls	r3, r3, #8
8010097c:	b21a      	sxth	r2, r3
8010097e:	7bfb      	ldrb	r3, [r7, #15]
80100980:	b21b      	sxth	r3, r3
80100982:	4313      	orrs	r3, r2
80100984:	b21b      	sxth	r3, r3
80100986:	b29a      	uxth	r2, r3
80100988:	687b      	ldr	r3, [r7, #4]
8010098a:	801a      	strh	r2, [r3, #0]
8010098c:	bf00      	nop
8010098e:	3710      	adds	r7, #16
80100990:	46bd      	mov	sp, r7
80100992:	bd80      	pop	{r7, pc}

80100994 <ap3216c_read_ps>:
80100994:	b580      	push	{r7, lr}
80100996:	b084      	sub	sp, #16
80100998:	af00      	add	r7, sp, #0
8010099a:	6078      	str	r0, [r7, #4]
8010099c:	2200      	movs	r2, #0
8010099e:	f2c0 221a 	movt	r2, #538	; 0x21a
801009a2:	210e      	movs	r1, #14
801009a4:	201e      	movs	r0, #30
801009a6:	f7ff fde9 	bl	8010057c <i2c_read_one_byte>
801009aa:	4603      	mov	r3, r0
801009ac:	73fb      	strb	r3, [r7, #15]
801009ae:	2200      	movs	r2, #0
801009b0:	f2c0 221a 	movt	r2, #538	; 0x21a
801009b4:	210f      	movs	r1, #15
801009b6:	201e      	movs	r0, #30
801009b8:	f7ff fde0 	bl	8010057c <i2c_read_one_byte>
801009bc:	4603      	mov	r3, r0
801009be:	73bb      	strb	r3, [r7, #14]
801009c0:	7bfb      	ldrb	r3, [r7, #15]
801009c2:	f003 0340 	and.w	r3, r3, #64	; 0x40
801009c6:	2b00      	cmp	r3, #0
801009c8:	d003      	beq.n	801009d2 <ap3216c_read_ps+0x3e>
801009ca:	687b      	ldr	r3, [r7, #4]
801009cc:	2200      	movs	r2, #0
801009ce:	801a      	strh	r2, [r3, #0]
801009d0:	e010      	b.n	801009f4 <ap3216c_read_ps+0x60>
801009d2:	7bbb      	ldrb	r3, [r7, #14]
801009d4:	011b      	lsls	r3, r3, #4
801009d6:	b21b      	sxth	r3, r3
801009d8:	f403 737c 	and.w	r3, r3, #1008	; 0x3f0
801009dc:	b21a      	sxth	r2, r3
801009de:	7bfb      	ldrb	r3, [r7, #15]
801009e0:	b21b      	sxth	r3, r3
801009e2:	f003 030f 	and.w	r3, r3, #15
801009e6:	b21b      	sxth	r3, r3
801009e8:	4313      	orrs	r3, r2
801009ea:	b21b      	sxth	r3, r3
801009ec:	b29a      	uxth	r2, r3
801009ee:	687b      	ldr	r3, [r7, #4]
801009f0:	801a      	strh	r2, [r3, #0]
801009f2:	bf00      	nop
801009f4:	3710      	adds	r7, #16
801009f6:	46bd      	mov	sp, r7
801009f8:	bd80      	pop	{r7, pc}

801009fa <ap3216c_read_data>:
801009fa:	b580      	push	{r7, lr}
801009fc:	b084      	sub	sp, #16
801009fe:	af00      	add	r7, sp, #0
80100a00:	60f8      	str	r0, [r7, #12]
80100a02:	60b9      	str	r1, [r7, #8]
80100a04:	607a      	str	r2, [r7, #4]
80100a06:	68f8      	ldr	r0, [r7, #12]
80100a08:	f7ff ff71 	bl	801008ee <ap3216c_read_ir>
80100a0c:	6878      	ldr	r0, [r7, #4]
80100a0e:	f7ff ff9d 	bl	8010094c <ap3216c_read_als>
80100a12:	68b8      	ldr	r0, [r7, #8]
80100a14:	f7ff ffbe 	bl	80100994 <ap3216c_read_ps>
80100a18:	bf00      	nop
80100a1a:	3710      	adds	r7, #16
80100a1c:	46bd      	mov	sp, r7
80100a1e:	bd80      	pop	{r7, pc}

80100a20 <delay>:
80100a20:	b480      	push	{r7}
80100a22:	b083      	sub	sp, #12
80100a24:	af00      	add	r7, sp, #0
80100a26:	6078      	str	r0, [r7, #4]
80100a28:	bf00      	nop
80100a2a:	687b      	ldr	r3, [r7, #4]
80100a2c:	1e5a      	subs	r2, r3, #1
80100a2e:	607a      	str	r2, [r7, #4]
80100a30:	2b00      	cmp	r3, #0
80100a32:	d1fa      	bne.n	80100a2a <delay+0xa>
80100a34:	bf00      	nop
80100a36:	370c      	adds	r7, #12
80100a38:	46bd      	mov	sp, r7
80100a3a:	f85d 7b04 	ldr.w	r7, [sp], #4
80100a3e:	4770      	bx	lr

80100a40 <main>:
80100a40:	b580      	push	{r7, lr}
80100a42:	b084      	sub	sp, #16
80100a44:	af00      	add	r7, sp, #0
80100a46:	2300      	movs	r3, #0
80100a48:	60fb      	str	r3, [r7, #12]
80100a4a:	f7ff fdc1 	bl	801005d0 <Uart_Init>
80100a4e:	f7ff ff27 	bl	801008a0 <ap3216c_init>
80100a52:	4603      	mov	r3, r0
80100a54:	60fb      	str	r3, [r7, #12]
80100a56:	68fb      	ldr	r3, [r7, #12]
80100a58:	2b00      	cmp	r3, #0
80100a5a:	d006      	beq.n	80100a6a <main+0x2a>
80100a5c:	f241 3024 	movw	r0, #4900	; 0x1324
80100a60:	f2c8 0010 	movt	r0, #32784	; 0x8010
80100a64:	f000 f976 	bl	80100d54 <printf>
80100a68:	e005      	b.n	80100a76 <main+0x36>
80100a6a:	f241 303c 	movw	r0, #4924	; 0x133c
80100a6e:	f2c8 0010 	movt	r0, #32784	; 0x8010
80100a72:	f000 f96f 	bl	80100d54 <printf>
80100a76:	f248 60a0 	movw	r0, #34464	; 0x86a0
80100a7a:	f2c0 0001 	movt	r0, #1
80100a7e:	f7ff ffcf 	bl	80100a20 <delay>
80100a82:	1dba      	adds	r2, r7, #6
80100a84:	f107 0108 	add.w	r1, r7, #8
80100a88:	f107 030a 	add.w	r3, r7, #10
80100a8c:	4618      	mov	r0, r3
80100a8e:	f7ff ffb4 	bl	801009fa <ap3216c_read_data>
80100a92:	897b      	ldrh	r3, [r7, #10]
80100a94:	4619      	mov	r1, r3
80100a96:	893b      	ldrh	r3, [r7, #8]
80100a98:	461a      	mov	r2, r3
80100a9a:	88fb      	ldrh	r3, [r7, #6]
80100a9c:	f241 3050 	movw	r0, #4944	; 0x1350
80100aa0:	f2c8 0010 	movt	r0, #32784	; 0x8010
80100aa4:	f000 f956 	bl	80100d54 <printf>
80100aa8:	e7e5      	b.n	80100a76 <main+0x36>
	...

80100aac <outc>:
80100aac:	b580      	push	{r7, lr}
80100aae:	b082      	sub	sp, #8
80100ab0:	af00      	add	r7, sp, #0
80100ab2:	6078      	str	r0, [r7, #4]
80100ab4:	6878      	ldr	r0, [r7, #4]
80100ab6:	f7ff fdf6 	bl	801006a6 <PutChar>
80100aba:	2300      	movs	r3, #0
80100abc:	4618      	mov	r0, r3
80100abe:	3708      	adds	r7, #8
80100ac0:	46bd      	mov	sp, r7
80100ac2:	bd80      	pop	{r7, pc}

80100ac4 <outs>:
80100ac4:	b580      	push	{r7, lr}
80100ac6:	b082      	sub	sp, #8
80100ac8:	af00      	add	r7, sp, #0
80100aca:	6078      	str	r0, [r7, #4]
80100acc:	e006      	b.n	80100adc <outs+0x18>
80100ace:	687b      	ldr	r3, [r7, #4]
80100ad0:	1c5a      	adds	r2, r3, #1
80100ad2:	607a      	str	r2, [r7, #4]
80100ad4:	781b      	ldrb	r3, [r3, #0]
80100ad6:	4618      	mov	r0, r3
80100ad8:	f7ff fde5 	bl	801006a6 <PutChar>
80100adc:	687b      	ldr	r3, [r7, #4]
80100ade:	781b      	ldrb	r3, [r3, #0]
80100ae0:	2b00      	cmp	r3, #0
80100ae2:	d1f4      	bne.n	80100ace <outs+0xa>
80100ae4:	2300      	movs	r3, #0
80100ae6:	4618      	mov	r0, r3
80100ae8:	3708      	adds	r7, #8
80100aea:	46bd      	mov	sp, r7
80100aec:	bd80      	pop	{r7, pc}

80100aee <out_num>:
80100aee:	b580      	push	{r7, lr}
80100af0:	b098      	sub	sp, #96	; 0x60
80100af2:	af00      	add	r7, sp, #0
80100af4:	60f8      	str	r0, [r7, #12]
80100af6:	60b9      	str	r1, [r7, #8]
80100af8:	603b      	str	r3, [r7, #0]
80100afa:	4613      	mov	r3, r2
80100afc:	71fb      	strb	r3, [r7, #7]
80100afe:	2300      	movs	r3, #0
80100b00:	65fb      	str	r3, [r7, #92]	; 0x5c
80100b02:	f107 0310 	add.w	r3, r7, #16
80100b06:	3340      	adds	r3, #64	; 0x40
80100b08:	65bb      	str	r3, [r7, #88]	; 0x58
80100b0a:	2300      	movs	r3, #0
80100b0c:	657b      	str	r3, [r7, #84]	; 0x54
80100b0e:	2300      	movs	r3, #0
80100b10:	653b      	str	r3, [r7, #80]	; 0x50
80100b12:	6dbb      	ldr	r3, [r7, #88]	; 0x58
80100b14:	3b01      	subs	r3, #1
80100b16:	65bb      	str	r3, [r7, #88]	; 0x58
80100b18:	6dbb      	ldr	r3, [r7, #88]	; 0x58
80100b1a:	2200      	movs	r2, #0
80100b1c:	701a      	strb	r2, [r3, #0]
80100b1e:	68fb      	ldr	r3, [r7, #12]
80100b20:	2b00      	cmp	r3, #0
80100b22:	da03      	bge.n	80100b2c <out_num+0x3e>
80100b24:	68fb      	ldr	r3, [r7, #12]
80100b26:	425b      	negs	r3, r3
80100b28:	65fb      	str	r3, [r7, #92]	; 0x5c
80100b2a:	e001      	b.n	80100b30 <out_num+0x42>
80100b2c:	68fb      	ldr	r3, [r7, #12]
80100b2e:	65fb      	str	r3, [r7, #92]	; 0x5c
80100b30:	6dbb      	ldr	r3, [r7, #88]	; 0x58
80100b32:	3b01      	subs	r3, #1
80100b34:	65bb      	str	r3, [r7, #88]	; 0x58
80100b36:	68ba      	ldr	r2, [r7, #8]
80100b38:	6dfb      	ldr	r3, [r7, #92]	; 0x5c
80100b3a:	4611      	mov	r1, r2
80100b3c:	4618      	mov	r0, r3
80100b3e:	f000 fbdd 	bl	801012fc <__aeabi_uidivmod>
80100b42:	460b      	mov	r3, r1
80100b44:	461a      	mov	r2, r3
80100b46:	f241 4380 	movw	r3, #5248	; 0x1480
80100b4a:	f2c8 0310 	movt	r3, #32784	; 0x8010
80100b4e:	5c9a      	ldrb	r2, [r3, r2]
80100b50:	6dbb      	ldr	r3, [r7, #88]	; 0x58
80100b52:	701a      	strb	r2, [r3, #0]
80100b54:	6d7b      	ldr	r3, [r7, #84]	; 0x54
80100b56:	3301      	adds	r3, #1
80100b58:	657b      	str	r3, [r7, #84]	; 0x54
80100b5a:	68bb      	ldr	r3, [r7, #8]
80100b5c:	4619      	mov	r1, r3
80100b5e:	6df8      	ldr	r0, [r7, #92]	; 0x5c
80100b60:	f000 fa9e 	bl	801010a0 <__aeabi_uidiv>
80100b64:	4603      	mov	r3, r0
80100b66:	65fb      	str	r3, [r7, #92]	; 0x5c
80100b68:	6dfb      	ldr	r3, [r7, #92]	; 0x5c
80100b6a:	2b00      	cmp	r3, #0
80100b6c:	d1e0      	bne.n	80100b30 <out_num+0x42>
80100b6e:	683b      	ldr	r3, [r7, #0]
80100b70:	2b00      	cmp	r3, #0
80100b72:	d014      	beq.n	80100b9e <out_num+0xb0>
80100b74:	6d7a      	ldr	r2, [r7, #84]	; 0x54
80100b76:	683b      	ldr	r3, [r7, #0]
80100b78:	429a      	cmp	r2, r3
80100b7a:	da10      	bge.n	80100b9e <out_num+0xb0>
80100b7c:	683a      	ldr	r2, [r7, #0]
80100b7e:	6d7b      	ldr	r3, [r7, #84]	; 0x54
80100b80:	1ad3      	subs	r3, r2, r3
80100b82:	653b      	str	r3, [r7, #80]	; 0x50
80100b84:	e008      	b.n	80100b98 <out_num+0xaa>
80100b86:	6dbb      	ldr	r3, [r7, #88]	; 0x58
80100b88:	3b01      	subs	r3, #1
80100b8a:	65bb      	str	r3, [r7, #88]	; 0x58
80100b8c:	6dbb      	ldr	r3, [r7, #88]	; 0x58
80100b8e:	79fa      	ldrb	r2, [r7, #7]
80100b90:	701a      	strb	r2, [r3, #0]
80100b92:	6d3b      	ldr	r3, [r7, #80]	; 0x50
80100b94:	3b01      	subs	r3, #1
80100b96:	653b      	str	r3, [r7, #80]	; 0x50
80100b98:	6d3b      	ldr	r3, [r7, #80]	; 0x50
80100b9a:	2b00      	cmp	r3, #0
80100b9c:	d1f3      	bne.n	80100b86 <out_num+0x98>
80100b9e:	68fb      	ldr	r3, [r7, #12]
80100ba0:	2b00      	cmp	r3, #0
80100ba2:	da05      	bge.n	80100bb0 <out_num+0xc2>
80100ba4:	6dbb      	ldr	r3, [r7, #88]	; 0x58
80100ba6:	3b01      	subs	r3, #1
80100ba8:	65bb      	str	r3, [r7, #88]	; 0x58
80100baa:	6dbb      	ldr	r3, [r7, #88]	; 0x58
80100bac:	222d      	movs	r2, #45	; 0x2d
80100bae:	701a      	strb	r2, [r3, #0]
80100bb0:	6db8      	ldr	r0, [r7, #88]	; 0x58
80100bb2:	f7ff ff87 	bl	80100ac4 <outs>
80100bb6:	4603      	mov	r3, r0
80100bb8:	4618      	mov	r0, r3
80100bba:	3760      	adds	r7, #96	; 0x60
80100bbc:	46bd      	mov	sp, r7
80100bbe:	bd80      	pop	{r7, pc}

80100bc0 <my_vprintf>:
80100bc0:	b580      	push	{r7, lr}
80100bc2:	b084      	sub	sp, #16
80100bc4:	af00      	add	r7, sp, #0
80100bc6:	6078      	str	r0, [r7, #4]
80100bc8:	6039      	str	r1, [r7, #0]
80100bca:	2320      	movs	r3, #32
80100bcc:	73fb      	strb	r3, [r7, #15]
80100bce:	2300      	movs	r3, #0
80100bd0:	60bb      	str	r3, [r7, #8]
80100bd2:	e0b5      	b.n	80100d40 <my_vprintf+0x180>
80100bd4:	687b      	ldr	r3, [r7, #4]
80100bd6:	781b      	ldrb	r3, [r3, #0]
80100bd8:	2b25      	cmp	r3, #37	; 0x25
80100bda:	d005      	beq.n	80100be8 <my_vprintf+0x28>
80100bdc:	687b      	ldr	r3, [r7, #4]
80100bde:	781b      	ldrb	r3, [r3, #0]
80100be0:	4618      	mov	r0, r3
80100be2:	f7ff ff63 	bl	80100aac <outc>
80100be6:	e0a8      	b.n	80100d3a <my_vprintf+0x17a>
80100be8:	2320      	movs	r3, #32
80100bea:	73fb      	strb	r3, [r7, #15]
80100bec:	2300      	movs	r3, #0
80100bee:	60bb      	str	r3, [r7, #8]
80100bf0:	687b      	ldr	r3, [r7, #4]
80100bf2:	3301      	adds	r3, #1
80100bf4:	607b      	str	r3, [r7, #4]
80100bf6:	687b      	ldr	r3, [r7, #4]
80100bf8:	781b      	ldrb	r3, [r3, #0]
80100bfa:	2b30      	cmp	r3, #48	; 0x30
80100bfc:	d114      	bne.n	80100c28 <my_vprintf+0x68>
80100bfe:	2330      	movs	r3, #48	; 0x30
80100c00:	73fb      	strb	r3, [r7, #15]
80100c02:	687b      	ldr	r3, [r7, #4]
80100c04:	3301      	adds	r3, #1
80100c06:	607b      	str	r3, [r7, #4]
80100c08:	e00e      	b.n	80100c28 <my_vprintf+0x68>
80100c0a:	68ba      	ldr	r2, [r7, #8]
80100c0c:	4613      	mov	r3, r2
80100c0e:	009b      	lsls	r3, r3, #2
80100c10:	4413      	add	r3, r2
80100c12:	005b      	lsls	r3, r3, #1
80100c14:	60bb      	str	r3, [r7, #8]
80100c16:	687b      	ldr	r3, [r7, #4]
80100c18:	781b      	ldrb	r3, [r3, #0]
80100c1a:	3b30      	subs	r3, #48	; 0x30
80100c1c:	68ba      	ldr	r2, [r7, #8]
80100c1e:	4413      	add	r3, r2
80100c20:	60bb      	str	r3, [r7, #8]
80100c22:	687b      	ldr	r3, [r7, #4]
80100c24:	3301      	adds	r3, #1
80100c26:	607b      	str	r3, [r7, #4]
80100c28:	687b      	ldr	r3, [r7, #4]
80100c2a:	781b      	ldrb	r3, [r3, #0]
80100c2c:	2b2f      	cmp	r3, #47	; 0x2f
80100c2e:	d903      	bls.n	80100c38 <my_vprintf+0x78>
80100c30:	687b      	ldr	r3, [r7, #4]
80100c32:	781b      	ldrb	r3, [r3, #0]
80100c34:	2b39      	cmp	r3, #57	; 0x39
80100c36:	d9e8      	bls.n	80100c0a <my_vprintf+0x4a>
80100c38:	687b      	ldr	r3, [r7, #4]
80100c3a:	781b      	ldrb	r3, [r3, #0]
80100c3c:	3b63      	subs	r3, #99	; 0x63
80100c3e:	2b15      	cmp	r3, #21
80100c40:	d875      	bhi.n	80100d2e <my_vprintf+0x16e>
80100c42:	a201      	add	r2, pc, #4	; (adr r2, 80100c48 <my_vprintf+0x88>)
80100c44:	f852 f023 	ldr.w	pc, [r2, r3, lsl #2]
80100c48:	80100d07 	andshi	r0, r0, r7, lsl #26
80100c4c:	80100ca1 	andshi	r0, r0, r1, lsr #25
80100c50:	80100d2f 	andshi	r0, r0, pc, lsr #26
80100c54:	80100d2f 	andshi	r0, r0, pc, lsr #26
80100c58:	80100d2f 	andshi	r0, r0, pc, lsr #26
80100c5c:	80100d2f 	andshi	r0, r0, pc, lsr #26
80100c60:	80100d2f 	andshi	r0, r0, pc, lsr #26
80100c64:	80100d2f 	andshi	r0, r0, pc, lsr #26
80100c68:	80100d2f 	andshi	r0, r0, pc, lsr #26
80100c6c:	80100d2f 	andshi	r0, r0, pc, lsr #26
80100c70:	80100d2f 	andshi	r0, r0, pc, lsr #26
80100c74:	80100d2f 	andshi	r0, r0, pc, lsr #26
80100c78:	80100cb9 			; <UNDEFINED> instruction: 0x80100cb9
80100c7c:	80100d2f 	andshi	r0, r0, pc, lsr #26
80100c80:	80100d2f 	andshi	r0, r0, pc, lsr #26
80100c84:	80100d2f 	andshi	r0, r0, pc, lsr #26
80100c88:	80100d1b 	andshi	r0, r0, fp, lsl sp
80100c8c:	80100d2f 	andshi	r0, r0, pc, lsr #26
80100c90:	80100cd3 			; <UNDEFINED> instruction: 0x80100cd3
80100c94:	80100d2f 	andshi	r0, r0, pc, lsr #26
80100c98:	80100d2f 	andshi	r0, r0, pc, lsr #26
80100c9c:	80100ced 	andshi	r0, r0, sp, ror #25
80100ca0:	683b      	ldr	r3, [r7, #0]
80100ca2:	3304      	adds	r3, #4
80100ca4:	603b      	str	r3, [r7, #0]
80100ca6:	683b      	ldr	r3, [r7, #0]
80100ca8:	3b04      	subs	r3, #4
80100caa:	6818      	ldr	r0, [r3, #0]
80100cac:	7bfa      	ldrb	r2, [r7, #15]
80100cae:	68bb      	ldr	r3, [r7, #8]
80100cb0:	210a      	movs	r1, #10
80100cb2:	f7ff ff1c 	bl	80100aee <out_num>
80100cb6:	e040      	b.n	80100d3a <my_vprintf+0x17a>
80100cb8:	683b      	ldr	r3, [r7, #0]
80100cba:	3304      	adds	r3, #4
80100cbc:	603b      	str	r3, [r7, #0]
80100cbe:	683b      	ldr	r3, [r7, #0]
80100cc0:	3b04      	subs	r3, #4
80100cc2:	681b      	ldr	r3, [r3, #0]
80100cc4:	4618      	mov	r0, r3
80100cc6:	7bfa      	ldrb	r2, [r7, #15]
80100cc8:	68bb      	ldr	r3, [r7, #8]
80100cca:	2108      	movs	r1, #8
80100ccc:	f7ff ff0f 	bl	80100aee <out_num>
80100cd0:	e033      	b.n	80100d3a <my_vprintf+0x17a>
80100cd2:	683b      	ldr	r3, [r7, #0]
80100cd4:	3304      	adds	r3, #4
80100cd6:	603b      	str	r3, [r7, #0]
80100cd8:	683b      	ldr	r3, [r7, #0]
80100cda:	3b04      	subs	r3, #4
80100cdc:	681b      	ldr	r3, [r3, #0]
80100cde:	4618      	mov	r0, r3
80100ce0:	7bfa      	ldrb	r2, [r7, #15]
80100ce2:	68bb      	ldr	r3, [r7, #8]
80100ce4:	210a      	movs	r1, #10
80100ce6:	f7ff ff02 	bl	80100aee <out_num>
80100cea:	e026      	b.n	80100d3a <my_vprintf+0x17a>
80100cec:	683b      	ldr	r3, [r7, #0]
80100cee:	3304      	adds	r3, #4
80100cf0:	603b      	str	r3, [r7, #0]
80100cf2:	683b      	ldr	r3, [r7, #0]
80100cf4:	3b04      	subs	r3, #4
80100cf6:	681b      	ldr	r3, [r3, #0]
80100cf8:	4618      	mov	r0, r3
80100cfa:	7bfa      	ldrb	r2, [r7, #15]
80100cfc:	68bb      	ldr	r3, [r7, #8]
80100cfe:	2110      	movs	r1, #16
80100d00:	f7ff fef5 	bl	80100aee <out_num>
80100d04:	e019      	b.n	80100d3a <my_vprintf+0x17a>
80100d06:	683b      	ldr	r3, [r7, #0]
80100d08:	3304      	adds	r3, #4
80100d0a:	603b      	str	r3, [r7, #0]
80100d0c:	683b      	ldr	r3, [r7, #0]
80100d0e:	3b04      	subs	r3, #4
80100d10:	681b      	ldr	r3, [r3, #0]
80100d12:	4618      	mov	r0, r3
80100d14:	f7ff feca 	bl	80100aac <outc>
80100d18:	e00f      	b.n	80100d3a <my_vprintf+0x17a>
80100d1a:	683b      	ldr	r3, [r7, #0]
80100d1c:	3304      	adds	r3, #4
80100d1e:	603b      	str	r3, [r7, #0]
80100d20:	683b      	ldr	r3, [r7, #0]
80100d22:	3b04      	subs	r3, #4
80100d24:	681b      	ldr	r3, [r3, #0]
80100d26:	4618      	mov	r0, r3
80100d28:	f7ff fecc 	bl	80100ac4 <outs>
80100d2c:	e005      	b.n	80100d3a <my_vprintf+0x17a>
80100d2e:	687b      	ldr	r3, [r7, #4]
80100d30:	781b      	ldrb	r3, [r3, #0]
80100d32:	4618      	mov	r0, r3
80100d34:	f7ff feba 	bl	80100aac <outc>
80100d38:	bf00      	nop
80100d3a:	687b      	ldr	r3, [r7, #4]
80100d3c:	3301      	adds	r3, #1
80100d3e:	607b      	str	r3, [r7, #4]
80100d40:	687b      	ldr	r3, [r7, #4]
80100d42:	781b      	ldrb	r3, [r3, #0]
80100d44:	2b00      	cmp	r3, #0
80100d46:	f47f af45 	bne.w	80100bd4 <my_vprintf+0x14>
80100d4a:	2300      	movs	r3, #0
80100d4c:	4618      	mov	r0, r3
80100d4e:	3710      	adds	r7, #16
80100d50:	46bd      	mov	sp, r7
80100d52:	bd80      	pop	{r7, pc}

80100d54 <printf>:
80100d54:	b40f      	push	{r0, r1, r2, r3}
80100d56:	b580      	push	{r7, lr}
80100d58:	b082      	sub	sp, #8
80100d5a:	af00      	add	r7, sp, #0
80100d5c:	f107 0314 	add.w	r3, r7, #20
80100d60:	607b      	str	r3, [r7, #4]
80100d62:	693b      	ldr	r3, [r7, #16]
80100d64:	6879      	ldr	r1, [r7, #4]
80100d66:	4618      	mov	r0, r3
80100d68:	f7ff ff2a 	bl	80100bc0 <my_vprintf>
80100d6c:	2300      	movs	r3, #0
80100d6e:	607b      	str	r3, [r7, #4]
80100d70:	2300      	movs	r3, #0
80100d72:	4618      	mov	r0, r3
80100d74:	3708      	adds	r7, #8
80100d76:	46bd      	mov	sp, r7
80100d78:	e8bd 4080 	ldmia.w	sp!, {r7, lr}
80100d7c:	b004      	add	sp, #16
80100d7e:	4770      	bx	lr

80100d80 <my_printf_test>:
80100d80:	b580      	push	{r7, lr}
80100d82:	af00      	add	r7, sp, #0
80100d84:	f241 3068 	movw	r0, #4968	; 0x1368
80100d88:	f2c8 0010 	movt	r0, #32784	; 0x8010
80100d8c:	f7ff ffe2 	bl	80100d54 <printf>
80100d90:	2261      	movs	r2, #97	; 0x61
80100d92:	2141      	movs	r1, #65	; 0x41
80100d94:	f241 3094 	movw	r0, #5012	; 0x1394
80100d98:	f2c8 0010 	movt	r0, #32784	; 0x8010
80100d9c:	f7ff ffda 	bl	80100d54 <printf>
80100da0:	f24e 2140 	movw	r1, #57920	; 0xe240
80100da4:	f2c0 0101 	movt	r1, #1
80100da8:	f241 30b4 	movw	r0, #5044	; 0x13b4
80100dac:	f2c8 0010 	movt	r0, #32784	; 0x8010
80100db0:	f7ff ffd0 	bl	80100d54 <printf>
80100db4:	f44f 51ee 	mov.w	r1, #7616	; 0x1dc0
80100db8:	f6cf 71fe 	movt	r1, #65534	; 0xfffe
80100dbc:	f241 30b4 	movw	r0, #5044	; 0x13b4
80100dc0:	f2c8 0010 	movt	r0, #32784	; 0x8010
80100dc4:	f7ff ffc6 	bl	80100d54 <printf>
80100dc8:	f245 51aa 	movw	r1, #21930	; 0x55aa
80100dcc:	f2c5 51aa 	movt	r1, #21930	; 0x55aa
80100dd0:	f241 30d0 	movw	r0, #5072	; 0x13d0
80100dd4:	f2c8 0010 	movt	r0, #32784	; 0x8010
80100dd8:	f7ff ffbc 	bl	80100d54 <printf>
80100ddc:	f241 31ec 	movw	r1, #5100	; 0x13ec
80100de0:	f2c8 0110 	movt	r1, #32784	; 0x8010
80100de4:	f241 30fc 	movw	r0, #5116	; 0x13fc
80100de8:	f2c8 0010 	movt	r0, #32784	; 0x8010
80100dec:	f7ff ffb2 	bl	80100d54 <printf>
80100df0:	f243 0139 	movw	r1, #12345	; 0x3039
80100df4:	f241 4018 	movw	r0, #5144	; 0x1418
80100df8:	f2c8 0010 	movt	r0, #32784	; 0x8010
80100dfc:	f7ff ffaa 	bl	80100d54 <printf>
80100e00:	f243 0139 	movw	r1, #12345	; 0x3039
80100e04:	f241 4024 	movw	r0, #5156	; 0x1424
80100e08:	f2c8 0010 	movt	r0, #32784	; 0x8010
80100e0c:	f7ff ffa2 	bl	80100d54 <printf>
80100e10:	f242 3145 	movw	r1, #9029	; 0x2345
80100e14:	f2c0 0101 	movt	r1, #1
80100e18:	f241 4030 	movw	r0, #5168	; 0x1430
80100e1c:	f2c8 0010 	movt	r0, #32784	; 0x8010
80100e20:	f7ff ff98 	bl	80100d54 <printf>
80100e24:	f242 3145 	movw	r1, #9029	; 0x2345
80100e28:	f2c0 0101 	movt	r1, #1
80100e2c:	f241 4040 	movw	r0, #5184	; 0x1440
80100e30:	f2c8 0010 	movt	r0, #32784	; 0x8010
80100e34:	f7ff ff8e 	bl	80100d54 <printf>
80100e38:	2101      	movs	r1, #1
80100e3a:	f241 404c 	movw	r0, #5196	; 0x144c
80100e3e:	f2c8 0010 	movt	r0, #32784	; 0x8010
80100e42:	f7ff ff87 	bl	80100d54 <printf>
80100e46:	2101      	movs	r1, #1
80100e48:	f241 405c 	movw	r0, #5212	; 0x145c
80100e4c:	f2c8 0010 	movt	r0, #32784	; 0x8010
80100e50:	f7ff ff80 	bl	80100d54 <printf>
80100e54:	2101      	movs	r1, #1
80100e56:	f241 4068 	movw	r0, #5224	; 0x1468
80100e5a:	f2c8 0010 	movt	r0, #32784	; 0x8010
80100e5e:	f7ff ff79 	bl	80100d54 <printf>
80100e62:	2101      	movs	r1, #1
80100e64:	f241 4074 	movw	r0, #5236	; 0x1474
80100e68:	f2c8 0010 	movt	r0, #32784	; 0x8010
80100e6c:	f7ff ff72 	bl	80100d54 <printf>
80100e70:	2300      	movs	r3, #0
80100e72:	4618      	mov	r0, r3
80100e74:	bd80      	pop	{r7, pc}
80100e76:	bf00      	nop

80100e78 <__toupper>:
80100e78:	b480      	push	{r7}
80100e7a:	b083      	sub	sp, #12
80100e7c:	af00      	add	r7, sp, #0
80100e7e:	4603      	mov	r3, r0
80100e80:	71fb      	strb	r3, [r7, #7]
80100e82:	79fa      	ldrb	r2, [r7, #7]
80100e84:	f241 4390 	movw	r3, #5264	; 0x1490
80100e88:	f2c8 0310 	movt	r3, #32784	; 0x8010
80100e8c:	5c9b      	ldrb	r3, [r3, r2]
80100e8e:	f003 0302 	and.w	r3, r3, #2
80100e92:	2b00      	cmp	r3, #0
80100e94:	d002      	beq.n	80100e9c <__toupper+0x24>
80100e96:	79fb      	ldrb	r3, [r7, #7]
80100e98:	3b20      	subs	r3, #32
80100e9a:	71fb      	strb	r3, [r7, #7]
80100e9c:	79fb      	ldrb	r3, [r7, #7]
80100e9e:	4618      	mov	r0, r3
80100ea0:	370c      	adds	r7, #12
80100ea2:	46bd      	mov	sp, r7
80100ea4:	f85d 7b04 	ldr.w	r7, [sp], #4
80100ea8:	4770      	bx	lr

80100eaa <simple_strtoul>:
80100eaa:	b580      	push	{r7, lr}
80100eac:	b086      	sub	sp, #24
80100eae:	af00      	add	r7, sp, #0
80100eb0:	60f8      	str	r0, [r7, #12]
80100eb2:	60b9      	str	r1, [r7, #8]
80100eb4:	607a      	str	r2, [r7, #4]
80100eb6:	2300      	movs	r3, #0
80100eb8:	617b      	str	r3, [r7, #20]
80100eba:	68fb      	ldr	r3, [r7, #12]
80100ebc:	781b      	ldrb	r3, [r3, #0]
80100ebe:	2b30      	cmp	r3, #48	; 0x30
80100ec0:	d121      	bne.n	80100f06 <simple_strtoul+0x5c>
80100ec2:	68fb      	ldr	r3, [r7, #12]
80100ec4:	3301      	adds	r3, #1
80100ec6:	60fb      	str	r3, [r7, #12]
80100ec8:	68fb      	ldr	r3, [r7, #12]
80100eca:	781b      	ldrb	r3, [r3, #0]
80100ecc:	2b78      	cmp	r3, #120	; 0x78
80100ece:	d003      	beq.n	80100ed8 <simple_strtoul+0x2e>
80100ed0:	68fb      	ldr	r3, [r7, #12]
80100ed2:	781b      	ldrb	r3, [r3, #0]
80100ed4:	2b58      	cmp	r3, #88	; 0x58
80100ed6:	d111      	bne.n	80100efc <simple_strtoul+0x52>
80100ed8:	68fb      	ldr	r3, [r7, #12]
80100eda:	3301      	adds	r3, #1
80100edc:	781b      	ldrb	r3, [r3, #0]
80100ede:	461a      	mov	r2, r3
80100ee0:	f241 4390 	movw	r3, #5264	; 0x1490
80100ee4:	f2c8 0310 	movt	r3, #32784	; 0x8010
80100ee8:	5c9b      	ldrb	r3, [r3, r2]
80100eea:	f003 0344 	and.w	r3, r3, #68	; 0x44
80100eee:	2b00      	cmp	r3, #0
80100ef0:	d004      	beq.n	80100efc <simple_strtoul+0x52>
80100ef2:	2310      	movs	r3, #16
80100ef4:	607b      	str	r3, [r7, #4]
80100ef6:	68fb      	ldr	r3, [r7, #12]
80100ef8:	3301      	adds	r3, #1
80100efa:	60fb      	str	r3, [r7, #12]
80100efc:	687b      	ldr	r3, [r7, #4]
80100efe:	2b00      	cmp	r3, #0
80100f00:	d101      	bne.n	80100f06 <simple_strtoul+0x5c>
80100f02:	2308      	movs	r3, #8
80100f04:	607b      	str	r3, [r7, #4]
80100f06:	687b      	ldr	r3, [r7, #4]
80100f08:	2b00      	cmp	r3, #0
80100f0a:	d10c      	bne.n	80100f26 <simple_strtoul+0x7c>
80100f0c:	230a      	movs	r3, #10
80100f0e:	607b      	str	r3, [r7, #4]
80100f10:	e009      	b.n	80100f26 <simple_strtoul+0x7c>
80100f12:	697b      	ldr	r3, [r7, #20]
80100f14:	687a      	ldr	r2, [r7, #4]
80100f16:	fb02 f203 	mul.w	r2, r2, r3
80100f1a:	693b      	ldr	r3, [r7, #16]
80100f1c:	4413      	add	r3, r2
80100f1e:	617b      	str	r3, [r7, #20]
80100f20:	68fb      	ldr	r3, [r7, #12]
80100f22:	3301      	adds	r3, #1
80100f24:	60fb      	str	r3, [r7, #12]
80100f26:	68fb      	ldr	r3, [r7, #12]
80100f28:	781b      	ldrb	r3, [r3, #0]
80100f2a:	461a      	mov	r2, r3
80100f2c:	f241 4390 	movw	r3, #5264	; 0x1490
80100f30:	f2c8 0310 	movt	r3, #32784	; 0x8010
80100f34:	5c9b      	ldrb	r3, [r3, r2]
80100f36:	f003 0344 	and.w	r3, r3, #68	; 0x44
80100f3a:	2b00      	cmp	r3, #0
80100f3c:	d02b      	beq.n	80100f96 <simple_strtoul+0xec>
80100f3e:	68fb      	ldr	r3, [r7, #12]
80100f40:	781b      	ldrb	r3, [r3, #0]
80100f42:	461a      	mov	r2, r3
80100f44:	f241 4390 	movw	r3, #5264	; 0x1490
80100f48:	f2c8 0310 	movt	r3, #32784	; 0x8010
80100f4c:	5c9b      	ldrb	r3, [r3, r2]
80100f4e:	f003 0304 	and.w	r3, r3, #4
80100f52:	2b00      	cmp	r3, #0
80100f54:	d003      	beq.n	80100f5e <simple_strtoul+0xb4>
80100f56:	68fb      	ldr	r3, [r7, #12]
80100f58:	781b      	ldrb	r3, [r3, #0]
80100f5a:	3b30      	subs	r3, #48	; 0x30
80100f5c:	e016      	b.n	80100f8c <simple_strtoul+0xe2>
80100f5e:	68fb      	ldr	r3, [r7, #12]
80100f60:	781b      	ldrb	r3, [r3, #0]
80100f62:	461a      	mov	r2, r3
80100f64:	f241 4390 	movw	r3, #5264	; 0x1490
80100f68:	f2c8 0310 	movt	r3, #32784	; 0x8010
80100f6c:	5c9b      	ldrb	r3, [r3, r2]
80100f6e:	f003 0302 	and.w	r3, r3, #2
80100f72:	2b00      	cmp	r3, #0
80100f74:	d007      	beq.n	80100f86 <simple_strtoul+0xdc>
80100f76:	68fb      	ldr	r3, [r7, #12]
80100f78:	781b      	ldrb	r3, [r3, #0]
80100f7a:	4618      	mov	r0, r3
80100f7c:	f7ff ff7c 	bl	80100e78 <__toupper>
80100f80:	4603      	mov	r3, r0
80100f82:	3b37      	subs	r3, #55	; 0x37
80100f84:	e002      	b.n	80100f8c <simple_strtoul+0xe2>
80100f86:	68fb      	ldr	r3, [r7, #12]
80100f88:	781b      	ldrb	r3, [r3, #0]
80100f8a:	3b37      	subs	r3, #55	; 0x37
80100f8c:	613b      	str	r3, [r7, #16]
80100f8e:	693a      	ldr	r2, [r7, #16]
80100f90:	687b      	ldr	r3, [r7, #4]
80100f92:	429a      	cmp	r2, r3
80100f94:	d3bd      	bcc.n	80100f12 <simple_strtoul+0x68>
80100f96:	68bb      	ldr	r3, [r7, #8]
80100f98:	2b00      	cmp	r3, #0
80100f9a:	d002      	beq.n	80100fa2 <simple_strtoul+0xf8>
80100f9c:	68bb      	ldr	r3, [r7, #8]
80100f9e:	68fa      	ldr	r2, [r7, #12]
80100fa0:	601a      	str	r2, [r3, #0]
80100fa2:	697b      	ldr	r3, [r7, #20]
80100fa4:	4618      	mov	r0, r3
80100fa6:	3718      	adds	r7, #24
80100fa8:	46bd      	mov	sp, r7
80100faa:	bd80      	pop	{r7, pc}

80100fac <simple_strtol>:
80100fac:	b580      	push	{r7, lr}
80100fae:	b084      	sub	sp, #16
80100fb0:	af00      	add	r7, sp, #0
80100fb2:	60f8      	str	r0, [r7, #12]
80100fb4:	60b9      	str	r1, [r7, #8]
80100fb6:	607a      	str	r2, [r7, #4]
80100fb8:	68fb      	ldr	r3, [r7, #12]
80100fba:	781b      	ldrb	r3, [r3, #0]
80100fbc:	2b2d      	cmp	r3, #45	; 0x2d
80100fbe:	d109      	bne.n	80100fd4 <simple_strtol+0x28>
80100fc0:	68fb      	ldr	r3, [r7, #12]
80100fc2:	3301      	adds	r3, #1
80100fc4:	687a      	ldr	r2, [r7, #4]
80100fc6:	68b9      	ldr	r1, [r7, #8]
80100fc8:	4618      	mov	r0, r3
80100fca:	f7ff ff6e 	bl	80100eaa <simple_strtoul>
80100fce:	4603      	mov	r3, r0
80100fd0:	425b      	negs	r3, r3
80100fd2:	e005      	b.n	80100fe0 <simple_strtol+0x34>
80100fd4:	687a      	ldr	r2, [r7, #4]
80100fd6:	68b9      	ldr	r1, [r7, #8]
80100fd8:	68f8      	ldr	r0, [r7, #12]
80100fda:	f7ff ff66 	bl	80100eaa <simple_strtoul>
80100fde:	4603      	mov	r3, r0
80100fe0:	4618      	mov	r0, r3
80100fe2:	3710      	adds	r7, #16
80100fe4:	46bd      	mov	sp, r7
80100fe6:	bd80      	pop	{r7, pc}

80100fe8 <gets>:
80100fe8:	b580      	push	{r7, lr}
80100fea:	b084      	sub	sp, #16
80100fec:	af00      	add	r7, sp, #0
80100fee:	6078      	str	r0, [r7, #4]
80100ff0:	2300      	movs	r3, #0
80100ff2:	60fb      	str	r3, [r7, #12]
80100ff4:	f7ff fb71 	bl	801006da <GetChar>
80100ff8:	4603      	mov	r3, r0
80100ffa:	72fb      	strb	r3, [r7, #11]
80100ffc:	7afb      	ldrb	r3, [r7, #11]
80100ffe:	4618      	mov	r0, r3
80101000:	f7ff fb51 	bl	801006a6 <PutChar>
80101004:	7afb      	ldrb	r3, [r7, #11]
80101006:	2b0a      	cmp	r3, #10
80101008:	d103      	bne.n	80101012 <gets+0x2a>
8010100a:	200d      	movs	r0, #13
8010100c:	f7ff fb4b 	bl	801006a6 <PutChar>
80101010:	e005      	b.n	8010101e <gets+0x36>
80101012:	7afb      	ldrb	r3, [r7, #11]
80101014:	2b0d      	cmp	r3, #13
80101016:	d102      	bne.n	8010101e <gets+0x36>
80101018:	200a      	movs	r0, #10
8010101a:	f7ff fb44 	bl	801006a6 <PutChar>
8010101e:	7afb      	ldrb	r3, [r7, #11]
80101020:	2b0a      	cmp	r3, #10
80101022:	d002      	beq.n	8010102a <gets+0x42>
80101024:	7afb      	ldrb	r3, [r7, #11]
80101026:	2b0d      	cmp	r3, #13
80101028:	d105      	bne.n	80101036 <gets+0x4e>
8010102a:	68fb      	ldr	r3, [r7, #12]
8010102c:	687a      	ldr	r2, [r7, #4]
8010102e:	4413      	add	r3, r2
80101030:	2200      	movs	r2, #0
80101032:	701a      	strb	r2, [r3, #0]
80101034:	e008      	b.n	80101048 <gets+0x60>
80101036:	68fb      	ldr	r3, [r7, #12]
80101038:	1c5a      	adds	r2, r3, #1
8010103a:	60fa      	str	r2, [r7, #12]
8010103c:	461a      	mov	r2, r3
8010103e:	687b      	ldr	r3, [r7, #4]
80101040:	4413      	add	r3, r2
80101042:	7afa      	ldrb	r2, [r7, #11]
80101044:	701a      	strb	r2, [r3, #0]
80101046:	e7d5      	b.n	80100ff4 <gets+0xc>
80101048:	687b      	ldr	r3, [r7, #4]
8010104a:	4618      	mov	r0, r3
8010104c:	3710      	adds	r7, #16
8010104e:	46bd      	mov	sp, r7
80101050:	bd80      	pop	{r7, pc}

80101052 <get_int>:
80101052:	b580      	push	{r7, lr}
80101054:	b09a      	sub	sp, #104	; 0x68
80101056:	af00      	add	r7, sp, #0
80101058:	1d3b      	adds	r3, r7, #4
8010105a:	4618      	mov	r0, r3
8010105c:	f7ff ffc4 	bl	80100fe8 <gets>
80101060:	1d3b      	adds	r3, r7, #4
80101062:	2200      	movs	r2, #0
80101064:	2100      	movs	r1, #0
80101066:	4618      	mov	r0, r3
80101068:	f7ff ffa0 	bl	80100fac <simple_strtol>
8010106c:	4603      	mov	r3, r0
8010106e:	4618      	mov	r0, r3
80101070:	3768      	adds	r7, #104	; 0x68
80101072:	46bd      	mov	sp, r7
80101074:	bd80      	pop	{r7, pc}

80101076 <get_uint>:
80101076:	b580      	push	{r7, lr}
80101078:	b09a      	sub	sp, #104	; 0x68
8010107a:	af00      	add	r7, sp, #0
8010107c:	1d3b      	adds	r3, r7, #4
8010107e:	4618      	mov	r0, r3
80101080:	f7ff ffb2 	bl	80100fe8 <gets>
80101084:	1d3b      	adds	r3, r7, #4
80101086:	2200      	movs	r2, #0
80101088:	2100      	movs	r1, #0
8010108a:	4618      	mov	r0, r3
8010108c:	f7ff ff0d 	bl	80100eaa <simple_strtoul>
80101090:	4603      	mov	r3, r0
80101092:	4618      	mov	r0, r3
80101094:	3768      	adds	r7, #104	; 0x68
80101096:	46bd      	mov	sp, r7
80101098:	bd80      	pop	{r7, pc}
8010109a:	0000      	movs	r0, r0
8010109c:	0000      	movs	r0, r0
	...

801010a0 <__aeabi_uidiv>:
801010a0:	1e4a      	subs	r2, r1, #1
801010a2:	bf08      	it	eq
801010a4:	4770      	bxeq	lr
801010a6:	f0c0 8124 	bcc.w	801012f2 <__aeabi_uidiv+0x252>
801010aa:	4288      	cmp	r0, r1
801010ac:	f240 8116 	bls.w	801012dc <__aeabi_uidiv+0x23c>
801010b0:	4211      	tst	r1, r2
801010b2:	f000 8117 	beq.w	801012e4 <__aeabi_uidiv+0x244>
801010b6:	fab0 f380 	clz	r3, r0
801010ba:	fab1 f281 	clz	r2, r1
801010be:	eba2 0303 	sub.w	r3, r2, r3
801010c2:	f1c3 031f 	rsb	r3, r3, #31
801010c6:	a204      	add	r2, pc, #16	; (adr r2, 801010d8 <__aeabi_uidiv+0x38>)
801010c8:	eb02 1303 	add.w	r3, r2, r3, lsl #4
801010cc:	f04f 0200 	mov.w	r2, #0
801010d0:	469f      	mov	pc, r3
801010d2:	bf00      	nop
801010d4:	f3af 8000 	nop.w
801010d8:	ebb0 7fc1 	cmp.w	r0, r1, lsl #31
801010dc:	bf00      	nop
801010de:	eb42 0202 	adc.w	r2, r2, r2
801010e2:	bf28      	it	cs
801010e4:	eba0 70c1 	subcs.w	r0, r0, r1, lsl #31
801010e8:	ebb0 7f81 	cmp.w	r0, r1, lsl #30
801010ec:	bf00      	nop
801010ee:	eb42 0202 	adc.w	r2, r2, r2
801010f2:	bf28      	it	cs
801010f4:	eba0 7081 	subcs.w	r0, r0, r1, lsl #30
801010f8:	ebb0 7f41 	cmp.w	r0, r1, lsl #29
801010fc:	bf00      	nop
801010fe:	eb42 0202 	adc.w	r2, r2, r2
80101102:	bf28      	it	cs
80101104:	eba0 7041 	subcs.w	r0, r0, r1, lsl #29
80101108:	ebb0 7f01 	cmp.w	r0, r1, lsl #28
8010110c:	bf00      	nop
8010110e:	eb42 0202 	adc.w	r2, r2, r2
80101112:	bf28      	it	cs
80101114:	eba0 7001 	subcs.w	r0, r0, r1, lsl #28
80101118:	ebb0 6fc1 	cmp.w	r0, r1, lsl #27
8010111c:	bf00      	nop
8010111e:	eb42 0202 	adc.w	r2, r2, r2
80101122:	bf28      	it	cs
80101124:	eba0 60c1 	subcs.w	r0, r0, r1, lsl #27
80101128:	ebb0 6f81 	cmp.w	r0, r1, lsl #26
8010112c:	bf00      	nop
8010112e:	eb42 0202 	adc.w	r2, r2, r2
80101132:	bf28      	it	cs
80101134:	eba0 6081 	subcs.w	r0, r0, r1, lsl #26
80101138:	ebb0 6f41 	cmp.w	r0, r1, lsl #25
8010113c:	bf00      	nop
8010113e:	eb42 0202 	adc.w	r2, r2, r2
80101142:	bf28      	it	cs
80101144:	eba0 6041 	subcs.w	r0, r0, r1, lsl #25
80101148:	ebb0 6f01 	cmp.w	r0, r1, lsl #24
8010114c:	bf00      	nop
8010114e:	eb42 0202 	adc.w	r2, r2, r2
80101152:	bf28      	it	cs
80101154:	eba0 6001 	subcs.w	r0, r0, r1, lsl #24
80101158:	ebb0 5fc1 	cmp.w	r0, r1, lsl #23
8010115c:	bf00      	nop
8010115e:	eb42 0202 	adc.w	r2, r2, r2
80101162:	bf28      	it	cs
80101164:	eba0 50c1 	subcs.w	r0, r0, r1, lsl #23
80101168:	ebb0 5f81 	cmp.w	r0, r1, lsl #22
8010116c:	bf00      	nop
8010116e:	eb42 0202 	adc.w	r2, r2, r2
80101172:	bf28      	it	cs
80101174:	eba0 5081 	subcs.w	r0, r0, r1, lsl #22
80101178:	ebb0 5f41 	cmp.w	r0, r1, lsl #21
8010117c:	bf00      	nop
8010117e:	eb42 0202 	adc.w	r2, r2, r2
80101182:	bf28      	it	cs
80101184:	eba0 5041 	subcs.w	r0, r0, r1, lsl #21
80101188:	ebb0 5f01 	cmp.w	r0, r1, lsl #20
8010118c:	bf00      	nop
8010118e:	eb42 0202 	adc.w	r2, r2, r2
80101192:	bf28      	it	cs
80101194:	eba0 5001 	subcs.w	r0, r0, r1, lsl #20
80101198:	ebb0 4fc1 	cmp.w	r0, r1, lsl #19
8010119c:	bf00      	nop
8010119e:	eb42 0202 	adc.w	r2, r2, r2
801011a2:	bf28      	it	cs
801011a4:	eba0 40c1 	subcs.w	r0, r0, r1, lsl #19
801011a8:	ebb0 4f81 	cmp.w	r0, r1, lsl #18
801011ac:	bf00      	nop
801011ae:	eb42 0202 	adc.w	r2, r2, r2
801011b2:	bf28      	it	cs
801011b4:	eba0 4081 	subcs.w	r0, r0, r1, lsl #18
801011b8:	ebb0 4f41 	cmp.w	r0, r1, lsl #17
801011bc:	bf00      	nop
801011be:	eb42 0202 	adc.w	r2, r2, r2
801011c2:	bf28      	it	cs
801011c4:	eba0 4041 	subcs.w	r0, r0, r1, lsl #17
801011c8:	ebb0 4f01 	cmp.w	r0, r1, lsl #16
801011cc:	bf00      	nop
801011ce:	eb42 0202 	adc.w	r2, r2, r2
801011d2:	bf28      	it	cs
801011d4:	eba0 4001 	subcs.w	r0, r0, r1, lsl #16
801011d8:	ebb0 3fc1 	cmp.w	r0, r1, lsl #15
801011dc:	bf00      	nop
801011de:	eb42 0202 	adc.w	r2, r2, r2
801011e2:	bf28      	it	cs
801011e4:	eba0 30c1 	subcs.w	r0, r0, r1, lsl #15
801011e8:	ebb0 3f81 	cmp.w	r0, r1, lsl #14
801011ec:	bf00      	nop
801011ee:	eb42 0202 	adc.w	r2, r2, r2
801011f2:	bf28      	it	cs
801011f4:	eba0 3081 	subcs.w	r0, r0, r1, lsl #14
801011f8:	ebb0 3f41 	cmp.w	r0, r1, lsl #13
801011fc:	bf00      	nop
801011fe:	eb42 0202 	adc.w	r2, r2, r2
80101202:	bf28      	it	cs
80101204:	eba0 3041 	subcs.w	r0, r0, r1, lsl #13
80101208:	ebb0 3f01 	cmp.w	r0, r1, lsl #12
8010120c:	bf00      	nop
8010120e:	eb42 0202 	adc.w	r2, r2, r2
80101212:	bf28      	it	cs
80101214:	eba0 3001 	subcs.w	r0, r0, r1, lsl #12
80101218:	ebb0 2fc1 	cmp.w	r0, r1, lsl #11
8010121c:	bf00      	nop
8010121e:	eb42 0202 	adc.w	r2, r2, r2
80101222:	bf28      	it	cs
80101224:	eba0 20c1 	subcs.w	r0, r0, r1, lsl #11
80101228:	ebb0 2f81 	cmp.w	r0, r1, lsl #10
8010122c:	bf00      	nop
8010122e:	eb42 0202 	adc.w	r2, r2, r2
80101232:	bf28      	it	cs
80101234:	eba0 2081 	subcs.w	r0, r0, r1, lsl #10
80101238:	ebb0 2f41 	cmp.w	r0, r1, lsl #9
8010123c:	bf00      	nop
8010123e:	eb42 0202 	adc.w	r2, r2, r2
80101242:	bf28      	it	cs
80101244:	eba0 2041 	subcs.w	r0, r0, r1, lsl #9
80101248:	ebb0 2f01 	cmp.w	r0, r1, lsl #8
8010124c:	bf00      	nop
8010124e:	eb42 0202 	adc.w	r2, r2, r2
80101252:	bf28      	it	cs
80101254:	eba0 2001 	subcs.w	r0, r0, r1, lsl #8
80101258:	ebb0 1fc1 	cmp.w	r0, r1, lsl #7
8010125c:	bf00      	nop
8010125e:	eb42 0202 	adc.w	r2, r2, r2
80101262:	bf28      	it	cs
80101264:	eba0 10c1 	subcs.w	r0, r0, r1, lsl #7
80101268:	ebb0 1f81 	cmp.w	r0, r1, lsl #6
8010126c:	bf00      	nop
8010126e:	eb42 0202 	adc.w	r2, r2, r2
80101272:	bf28      	it	cs
80101274:	eba0 1081 	subcs.w	r0, r0, r1, lsl #6
80101278:	ebb0 1f41 	cmp.w	r0, r1, lsl #5
8010127c:	bf00      	nop
8010127e:	eb42 0202 	adc.w	r2, r2, r2
80101282:	bf28      	it	cs
80101284:	eba0 1041 	subcs.w	r0, r0, r1, lsl #5
80101288:	ebb0 1f01 	cmp.w	r0, r1, lsl #4
8010128c:	bf00      	nop
8010128e:	eb42 0202 	adc.w	r2, r2, r2
80101292:	bf28      	it	cs
80101294:	eba0 1001 	subcs.w	r0, r0, r1, lsl #4
80101298:	ebb0 0fc1 	cmp.w	r0, r1, lsl #3
8010129c:	bf00      	nop
8010129e:	eb42 0202 	adc.w	r2, r2, r2
801012a2:	bf28      	it	cs
801012a4:	eba0 00c1 	subcs.w	r0, r0, r1, lsl #3
801012a8:	ebb0 0f81 	cmp.w	r0, r1, lsl #2
801012ac:	bf00      	nop
801012ae:	eb42 0202 	adc.w	r2, r2, r2
801012b2:	bf28      	it	cs
801012b4:	eba0 0081 	subcs.w	r0, r0, r1, lsl #2
801012b8:	ebb0 0f41 	cmp.w	r0, r1, lsl #1
801012bc:	bf00      	nop
801012be:	eb42 0202 	adc.w	r2, r2, r2
801012c2:	bf28      	it	cs
801012c4:	eba0 0041 	subcs.w	r0, r0, r1, lsl #1
801012c8:	ebb0 0f01 	cmp.w	r0, r1
801012cc:	bf00      	nop
801012ce:	eb42 0202 	adc.w	r2, r2, r2
801012d2:	bf28      	it	cs
801012d4:	eba0 0001 	subcs.w	r0, r0, r1
801012d8:	4610      	mov	r0, r2
801012da:	4770      	bx	lr
801012dc:	bf0c      	ite	eq
801012de:	2001      	moveq	r0, #1
801012e0:	2000      	movne	r0, #0
801012e2:	4770      	bx	lr
801012e4:	fab1 f281 	clz	r2, r1
801012e8:	f1c2 021f 	rsb	r2, r2, #31
801012ec:	fa20 f002 	lsr.w	r0, r0, r2
801012f0:	4770      	bx	lr
801012f2:	b108      	cbz	r0, 801012f8 <__aeabi_uidiv+0x258>
801012f4:	f04f 30ff 	mov.w	r0, #4294967295	; 0xffffffff
801012f8:	f000 b80e 	b.w	80101318 <__aeabi_idiv0>

801012fc <__aeabi_uidivmod>:
801012fc:	2900      	cmp	r1, #0
801012fe:	d0f8      	beq.n	801012f2 <__aeabi_uidiv+0x252>
80101300:	e92d 4003 	stmdb	sp!, {r0, r1, lr}
80101304:	f7ff fecc 	bl	801010a0 <__aeabi_uidiv>
80101308:	e8bd 4006 	ldmia.w	sp!, {r1, r2, lr}
8010130c:	fb02 f300 	mul.w	r3, r2, r0
80101310:	eba1 0103 	sub.w	r1, r1, r3
80101314:	4770      	bx	lr
80101316:	bf00      	nop

80101318 <__aeabi_idiv0>:
80101318:	b502      	push	{r1, lr}
8010131a:	f04f 0008 	mov.w	r0, #8
8010131e:	f7ff fa07 	bl	80100730 <raise>
80101322:	bd02      	pop	{r1, pc}

Disassembly of section .rodata:

80101324 <.LC0>:
80101324:	32337061 	eorscc	r7, r3, #97	; 0x61
80101328:	5f633631 	svcpl	0x00633631
8010132c:	74696e69 	strbtvc	r6, [r9], #-3689	; 0xfffff197
80101330:	69616620 	stmdbvs	r1!, {r5, r9, sl, sp, lr}^
80101334:	0d0a216c 	stfeqs	f2, [sl, #-432]	; 0xfffffe50
80101338:	00000000 	andeq	r0, r0, r0

8010133c <.LC1>:
8010133c:	32337061 	eorscc	r7, r3, #97	; 0x61
80101340:	5f633631 	svcpl	0x00633631
80101344:	74696e69 	strbtvc	r6, [r9], #-3689	; 0xfffff197
80101348:	216b6f20 	cmncs	fp, r0, lsr #30
8010134c:	00000d0a 	andeq	r0, r0, sl, lsl #26

80101350 <.LC2>:
80101350:	253d7269 	ldrcs	r7, [sp, #-617]!	; 0xfffffd97
80101354:	73702064 	cmnvc	r0, #100	; 0x64
80101358:	2064253d 	rsbcs	r2, r4, sp, lsr r5
8010135c:	3d736c61 	ldclcc	12, cr6, [r3, #-388]!	; 0xfffffe7c
80101360:	0d0a6425 	cfstrseq	mvf6, [sl, #-148]	; 0xffffff6c
80101364:	00000000 	andeq	r0, r0, r0

80101368 <.LC0>:
80101368:	73696854 	cmnvc	r9, #84, 16	; 0x540000
8010136c:	20736920 	rsbscs	r6, r3, r0, lsr #18
80101370:	2e777777 	mrccs	7, 3, r7, cr7, cr7, {3}
80101374:	61303031 	teqvs	r0, r1, lsr r0
80101378:	6f2e6b73 	svcvs	0x002e6b73
8010137c:	20206772 	eorcs	r6, r0, r2, ror r7
80101380:	5f796d20 	svcpl	0x00796d20
80101384:	6e697270 	mcrvs	2, 3, r7, cr9, cr0, {3}
80101388:	74206674 	strtvc	r6, [r0], #-1652	; 0xfffff98c
8010138c:	0a747365 	beq	81e1e128 <__bss_end+0x1d1cb90>
80101390:	0000000d 	andeq	r0, r0, sp

80101394 <.LC1>:
80101394:	74736574 	ldrbtvc	r6, [r3], #-1396	; 0xfffffa8c
80101398:	61686320 	cmnvs	r8, r0, lsr #6
8010139c:	20202072 	eorcs	r2, r0, r2, ror r0
801013a0:	20202020 	eorcs	r2, r0, r0, lsr #32
801013a4:	20202020 	eorcs	r2, r0, r0, lsr #32
801013a8:	2c63253d 	cfstr64cs	mvdx2, [r3], #-244	; 0xffffff0c
801013ac:	0d0a6325 	stceq	3, cr6, [sl, #-148]	; 0xffffff6c
801013b0:	00000000 	andeq	r0, r0, r0

801013b4 <.LC2>:
801013b4:	74736574 	ldrbtvc	r6, [r3], #-1396	; 0xfffffa8c
801013b8:	63656420 	cmnvs	r5, #32, 8	; 0x20000000
801013bc:	6c616d69 	stclvs	13, cr6, [r1], #-420	; 0xfffffe5c
801013c0:	6d756e20 	ldclvs	14, cr6, [r5, #-128]!	; 0xffffff80
801013c4:	20726562 	rsbscs	r6, r2, r2, ror #10
801013c8:	0a64253d 	beq	81a0a8c4 <__bss_end+0x190932c>
801013cc:	0000000d 	andeq	r0, r0, sp

801013d0 <.LC3>:
801013d0:	74736574 	ldrbtvc	r6, [r3], #-1396	; 0xfffffa8c
801013d4:	78656820 	stmdavc	r5!, {r5, fp, sp, lr}^
801013d8:	20202020 	eorcs	r2, r0, r0, lsr #32
801013dc:	6d756e20 	ldclvs	14, cr6, [r5, #-128]!	; 0xffffff80
801013e0:	20726562 	rsbscs	r6, r2, r2, ror #10
801013e4:	2578303d 	ldrbcs	r3, [r8, #-61]!	; 0xffffffc3
801013e8:	000d0a78 	andeq	r0, sp, r8, ror sl

801013ec <.LC4>:
801013ec:	2e777777 	mrccs	7, 3, r7, cr7, cr7, {3}
801013f0:	61303031 	teqvs	r0, r1, lsr r0
801013f4:	6f2e6b73 	svcvs	0x002e6b73
801013f8:	00006772 	andeq	r6, r0, r2, ror r7

801013fc <.LC5>:
801013fc:	74736574 	ldrbtvc	r6, [r3], #-1396	; 0xfffffa8c
80101400:	72747320 	rsbsvc	r7, r4, #32, 6	; 0x80000000
80101404:	20676e69 	rsbcs	r6, r7, r9, ror #28
80101408:	20202020 	eorcs	r2, r0, r0, lsr #32
8010140c:	20202020 	eorcs	r2, r0, r0, lsr #32
80101410:	0a73253d 	beq	81dca90c <__bss_end+0x1cc9374>
80101414:	0000000d 	andeq	r0, r0, sp

80101418 <.LC6>:
80101418:	3d6d756e 	cfstr64cc	mvdx7, [sp, #-440]!	; 0xfffffe48
8010141c:	64383025 	ldrtvs	r3, [r8], #-37	; 0xffffffdb
80101420:	00000d0a 	andeq	r0, r0, sl, lsl #26

80101424 <.LC7>:
80101424:	3d6d756e 	cfstr64cc	mvdx7, [sp, #-440]!	; 0xfffffe48
80101428:	0a643825 	beq	81a0f4c4 <__bss_end+0x190df2c>
8010142c:	0000000d 	andeq	r0, r0, sp

80101430 <.LC8>:
80101430:	3d6d756e 	cfstr64cc	mvdx7, [sp, #-440]!	; 0xfffffe48
80101434:	30257830 	eorcc	r7, r5, r0, lsr r8
80101438:	0d0a7838 	stceq	8, cr7, [sl, #-224]	; 0xffffff20
8010143c:	00000000 	andeq	r0, r0, r0

80101440 <.LC9>:
80101440:	3d6d756e 	cfstr64cc	mvdx7, [sp, #-440]!	; 0xfffffe48
80101444:	38257830 	stmdacc	r5!, {r4, r5, fp, ip, sp, lr}
80101448:	000d0a78 	andeq	r0, sp, r8, ror sl

8010144c <.LC10>:
8010144c:	3d6d756e 	cfstr64cc	mvdx7, [sp, #-440]!	; 0xfffffe48
80101450:	30257830 	eorcc	r7, r5, r0, lsr r8
80101454:	0d0a7832 	stceq	8, cr7, [sl, #-200]	; 0xffffff38
80101458:	00000000 	andeq	r0, r0, r0

8010145c <.LC11>:
8010145c:	3d6d756e 	cfstr64cc	mvdx7, [sp, #-440]!	; 0xfffffe48
80101460:	32257830 	eorcc	r7, r5, #48, 16	; 0x300000
80101464:	000d0a78 	andeq	r0, sp, r8, ror sl

80101468 <.LC12>:
80101468:	3d6d756e 	cfstr64cc	mvdx7, [sp, #-440]!	; 0xfffffe48
8010146c:	64353025 	ldrtvs	r3, [r5], #-37	; 0xffffffdb
80101470:	00000d0a 	andeq	r0, r0, sl, lsl #26

80101474 <.LC13>:
80101474:	3d6d756e 	cfstr64cc	mvdx7, [sp, #-440]!	; 0xfffffe48
80101478:	0a643525 	beq	81a0e914 <__bss_end+0x190d37c>
8010147c:	Address 0x000000008010147c is out of bounds.


Disassembly of section .data:

80101480 <hex_tab>:
80101480:	33323130 	teqcc	r2, #48, 2
80101484:	37363534 			; <UNDEFINED> instruction: 0x37363534
80101488:	62613938 	rsbvs	r3, r1, #56, 18	; 0xe0000
8010148c:	66656463 	strbtvs	r6, [r5], -r3, ror #8

80101490 <_ctype>:
80101490:	08080808 	stmdaeq	r8, {r3, fp}
80101494:	08080808 	stmdaeq	r8, {r3, fp}
80101498:	28282808 	stmdacs	r8!, {r3, fp, sp}
8010149c:	08082828 	stmdaeq	r8, {r3, r5, fp, sp}
801014a0:	08080808 	stmdaeq	r8, {r3, fp}
801014a4:	08080808 	stmdaeq	r8, {r3, fp}
801014a8:	08080808 	stmdaeq	r8, {r3, fp}
801014ac:	08080808 	stmdaeq	r8, {r3, fp}
801014b0:	101010a0 	andsne	r1, r0, r0, lsr #1
801014b4:	10101010 	andsne	r1, r0, r0, lsl r0
801014b8:	10101010 	andsne	r1, r0, r0, lsl r0
801014bc:	10101010 	andsne	r1, r0, r0, lsl r0
801014c0:	04040404 	streq	r0, [r4], #-1028	; 0xfffffbfc
801014c4:	04040404 	streq	r0, [r4], #-1028	; 0xfffffbfc
801014c8:	10100404 	andsne	r0, r0, r4, lsl #8
801014cc:	10101010 	andsne	r1, r0, r0, lsl r0
801014d0:	41414110 	cmpmi	r1, r0, lsl r1
801014d4:	01414141 	cmpeq	r1, r1, asr #2
801014d8:	01010101 	tsteq	r1, r1, lsl #2
801014dc:	01010101 	tsteq	r1, r1, lsl #2
801014e0:	01010101 	tsteq	r1, r1, lsl #2
801014e4:	01010101 	tsteq	r1, r1, lsl #2
801014e8:	10010101 	andne	r0, r1, r1, lsl #2
801014ec:	10101010 	andsne	r1, r0, r0, lsl r0
801014f0:	42424210 	submi	r4, r2, #16, 4
801014f4:	02424242 	subeq	r4, r2, #536870916	; 0x20000004
801014f8:	02020202 	andeq	r0, r2, #536870912	; 0x20000000
801014fc:	02020202 	andeq	r0, r2, #536870912	; 0x20000000
80101500:	02020202 	andeq	r0, r2, #536870912	; 0x20000000
80101504:	02020202 	andeq	r0, r2, #536870912	; 0x20000000
80101508:	10020202 	andne	r0, r2, r2, lsl #4
8010150c:	08101010 	ldmdaeq	r0, {r4, ip}
	...
80101530:	101010a0 	andsne	r1, r0, r0, lsr #1
80101534:	10101010 	andsne	r1, r0, r0, lsl r0
80101538:	10101010 	andsne	r1, r0, r0, lsl r0
8010153c:	10101010 	andsne	r1, r0, r0, lsl r0
80101540:	10101010 	andsne	r1, r0, r0, lsl r0
80101544:	10101010 	andsne	r1, r0, r0, lsl r0
80101548:	10101010 	andsne	r1, r0, r0, lsl r0
8010154c:	10101010 	andsne	r1, r0, r0, lsl r0
80101550:	01010101 	tsteq	r1, r1, lsl #2
80101554:	01010101 	tsteq	r1, r1, lsl #2
80101558:	01010101 	tsteq	r1, r1, lsl #2
8010155c:	01010101 	tsteq	r1, r1, lsl #2
80101560:	01010101 	tsteq	r1, r1, lsl #2
80101564:	10010101 	andne	r0, r1, r1, lsl #2
80101568:	01010101 	tsteq	r1, r1, lsl #2
8010156c:	02010101 	andeq	r0, r1, #1073741824	; 0x40000000
80101570:	02020202 	andeq	r0, r2, #536870912	; 0x20000000
80101574:	02020202 	andeq	r0, r2, #536870912	; 0x20000000
80101578:	02020202 	andeq	r0, r2, #536870912	; 0x20000000
8010157c:	02020202 	andeq	r0, r2, #536870912	; 0x20000000
80101580:	02020202 	andeq	r0, r2, #536870912	; 0x20000000
80101584:	10020202 	andne	r0, r2, r2, lsl #4
80101588:	02020202 	andeq	r0, r2, #536870912	; 0x20000000
8010158c:	02020202 	andeq	r0, r2, #536870912	; 0x20000000

Disassembly of section .bss:

80101590 <__bss_start>:
80101590:	00000000 	andeq	r0, r0, r0

80101594 <IOMUXC_SW_MUX_CTL_PAD_UART1_RX_DATA>:
80101594:	00000000 	andeq	r0, r0, r0

