
led.elf:     file format elf32-littlearm


Disassembly of section .text:

80100000 <_start>:
80100000:	e59fd028 	ldr	sp, [pc, #40]	; 80100030 <clean+0x14>
80100004:	eb000001 	bl	80100010 <clean_bss>
80100008:	fa000057 	blx	8010016c <main>

8010000c <halt>:
8010000c:	eafffffe 	b	8010000c <halt>

80100010 <clean_bss>:
80100010:	e59f101c 	ldr	r1, [pc, #28]	; 80100034 <clean+0x18>
80100014:	e59f201c 	ldr	r2, [pc, #28]	; 80100038 <clean+0x1c>
80100018:	e3a03000 	mov	r3, #0

8010001c <clean>:
8010001c:	e5813000 	str	r3, [r1]
80100020:	e2811004 	add	r1, r1, #4
80100024:	e1510002 	cmp	r1, r2
80100028:	1afffffb 	bne	8010001c <clean>
8010002c:	e1a0f00e 	mov	pc, lr
80100030:	80200000 	eorhi	r0, r0, r0
80100034:	8010019c 	mulshi	r0, ip, r1
80100038:	801001ac 	andshi	r0, r0, ip, lsr #3

8010003c <led_init>:
8010003c:	b480      	push	{r7}
8010003e:	b083      	sub	sp, #12
80100040:	af00      	add	r7, sp, #0
80100042:	f240 129c 	movw	r2, #412	; 0x19c
80100046:	f2c8 0210 	movt	r2, #32784	; 0x8010
8010004a:	f244 036c 	movw	r3, #16492	; 0x406c
8010004e:	f2c0 230c 	movt	r3, #524	; 0x20c
80100052:	6013      	str	r3, [r2, #0]
80100054:	f240 12a0 	movw	r2, #416	; 0x1a0
80100058:	f2c8 0210 	movt	r2, #32784	; 0x8010
8010005c:	2314      	movs	r3, #20
8010005e:	f2c0 2329 	movt	r3, #553	; 0x229
80100062:	6013      	str	r3, [r2, #0]
80100064:	f240 12a4 	movw	r2, #420	; 0x1a4
80100068:	f2c8 0210 	movt	r2, #32784	; 0x8010
8010006c:	f24c 0304 	movw	r3, #49156	; 0xc004
80100070:	f2c0 230a 	movt	r3, #522	; 0x20a
80100074:	6013      	str	r3, [r2, #0]
80100076:	f240 12a8 	movw	r2, #424	; 0x1a8
8010007a:	f2c8 0210 	movt	r2, #32784	; 0x8010
8010007e:	f44f 4340 	mov.w	r3, #49152	; 0xc000
80100082:	f2c0 230a 	movt	r3, #522	; 0x20a
80100086:	6013      	str	r3, [r2, #0]
80100088:	f240 139c 	movw	r3, #412	; 0x19c
8010008c:	f2c8 0310 	movt	r3, #32784	; 0x8010
80100090:	681a      	ldr	r2, [r3, #0]
80100092:	f240 139c 	movw	r3, #412	; 0x19c
80100096:	f2c8 0310 	movt	r3, #32784	; 0x8010
8010009a:	681b      	ldr	r3, [r3, #0]
8010009c:	681b      	ldr	r3, [r3, #0]
8010009e:	f043 4340 	orr.w	r3, r3, #3221225472	; 0xc0000000
801000a2:	6013      	str	r3, [r2, #0]
801000a4:	f240 13a0 	movw	r3, #416	; 0x1a0
801000a8:	f2c8 0310 	movt	r3, #32784	; 0x8010
801000ac:	681b      	ldr	r3, [r3, #0]
801000ae:	681b      	ldr	r3, [r3, #0]
801000b0:	607b      	str	r3, [r7, #4]
801000b2:	687b      	ldr	r3, [r7, #4]
801000b4:	f023 030f 	bic.w	r3, r3, #15
801000b8:	607b      	str	r3, [r7, #4]
801000ba:	687b      	ldr	r3, [r7, #4]
801000bc:	f043 0305 	orr.w	r3, r3, #5
801000c0:	607b      	str	r3, [r7, #4]
801000c2:	f240 13a0 	movw	r3, #416	; 0x1a0
801000c6:	f2c8 0310 	movt	r3, #32784	; 0x8010
801000ca:	681b      	ldr	r3, [r3, #0]
801000cc:	687a      	ldr	r2, [r7, #4]
801000ce:	601a      	str	r2, [r3, #0]
801000d0:	f240 13a4 	movw	r3, #420	; 0x1a4
801000d4:	f2c8 0310 	movt	r3, #32784	; 0x8010
801000d8:	681a      	ldr	r2, [r3, #0]
801000da:	f240 13a4 	movw	r3, #420	; 0x1a4
801000de:	f2c8 0310 	movt	r3, #32784	; 0x8010
801000e2:	681b      	ldr	r3, [r3, #0]
801000e4:	681b      	ldr	r3, [r3, #0]
801000e6:	f043 0308 	orr.w	r3, r3, #8
801000ea:	6013      	str	r3, [r2, #0]
801000ec:	bf00      	nop
801000ee:	370c      	adds	r7, #12
801000f0:	46bd      	mov	sp, r7
801000f2:	f85d 7b04 	ldr.w	r7, [sp], #4
801000f6:	4770      	bx	lr

801000f8 <led_ctl>:
801000f8:	b480      	push	{r7}
801000fa:	b083      	sub	sp, #12
801000fc:	af00      	add	r7, sp, #0
801000fe:	6078      	str	r0, [r7, #4]
80100100:	687b      	ldr	r3, [r7, #4]
80100102:	2b00      	cmp	r3, #0
80100104:	d00e      	beq.n	80100124 <led_ctl+0x2c>
80100106:	f240 13a8 	movw	r3, #424	; 0x1a8
8010010a:	f2c8 0310 	movt	r3, #32784	; 0x8010
8010010e:	681a      	ldr	r2, [r3, #0]
80100110:	f240 13a8 	movw	r3, #424	; 0x1a8
80100114:	f2c8 0310 	movt	r3, #32784	; 0x8010
80100118:	681b      	ldr	r3, [r3, #0]
8010011a:	681b      	ldr	r3, [r3, #0]
8010011c:	f023 0308 	bic.w	r3, r3, #8
80100120:	6013      	str	r3, [r2, #0]
80100122:	e00d      	b.n	80100140 <led_ctl+0x48>
80100124:	f240 13a8 	movw	r3, #424	; 0x1a8
80100128:	f2c8 0310 	movt	r3, #32784	; 0x8010
8010012c:	681a      	ldr	r2, [r3, #0]
8010012e:	f240 13a8 	movw	r3, #424	; 0x1a8
80100132:	f2c8 0310 	movt	r3, #32784	; 0x8010
80100136:	681b      	ldr	r3, [r3, #0]
80100138:	681b      	ldr	r3, [r3, #0]
8010013a:	f043 0308 	orr.w	r3, r3, #8
8010013e:	6013      	str	r3, [r2, #0]
80100140:	bf00      	nop
80100142:	370c      	adds	r7, #12
80100144:	46bd      	mov	sp, r7
80100146:	f85d 7b04 	ldr.w	r7, [sp], #4
8010014a:	4770      	bx	lr

8010014c <delay>:
8010014c:	b480      	push	{r7}
8010014e:	b083      	sub	sp, #12
80100150:	af00      	add	r7, sp, #0
80100152:	6078      	str	r0, [r7, #4]
80100154:	bf00      	nop
80100156:	687b      	ldr	r3, [r7, #4]
80100158:	1e5a      	subs	r2, r3, #1
8010015a:	607a      	str	r2, [r7, #4]
8010015c:	2b00      	cmp	r3, #0
8010015e:	d1fa      	bne.n	80100156 <delay+0xa>
80100160:	bf00      	nop
80100162:	370c      	adds	r7, #12
80100164:	46bd      	mov	sp, r7
80100166:	f85d 7b04 	ldr.w	r7, [sp], #4
8010016a:	4770      	bx	lr

8010016c <main>:
8010016c:	b580      	push	{r7, lr}
8010016e:	af00      	add	r7, sp, #0
80100170:	f7ff ff64 	bl	8010003c <led_init>
80100174:	2001      	movs	r0, #1
80100176:	f7ff ffbf 	bl	801000f8 <led_ctl>
8010017a:	f244 2040 	movw	r0, #16960	; 0x4240
8010017e:	f2c0 000f 	movt	r0, #15
80100182:	f7ff ffe3 	bl	8010014c <delay>
80100186:	2000      	movs	r0, #0
80100188:	f7ff ffb6 	bl	801000f8 <led_ctl>
8010018c:	f244 2040 	movw	r0, #16960	; 0x4240
80100190:	f2c0 000f 	movt	r0, #15
80100194:	f7ff ffda 	bl	8010014c <delay>
80100198:	e7ec      	b.n	80100174 <main+0x8>

Disassembly of section .bss:

8010019c <__bss_start>:
8010019c:	00000000 	andeq	r0, r0, r0

801001a0 <IOMUXC_SNVS_SW_MUX_CTL_PAD_SNVS_TAMPER3>:
801001a0:	00000000 	andeq	r0, r0, r0

801001a4 <GPIO5_GDIR>:
801001a4:	00000000 	andeq	r0, r0, r0

801001a8 <GPIO5_DR>:
801001a8:	00000000 	andeq	r0, r0, r0

