
i2c.elf:     file format elf32-littlearm


Disassembly of section .text:

80100000 <_start>:
80100000:	e59fd028 	ldr	sp, [pc, #40]	; 80100030 <clean+0x14>
80100004:	eb000001 	bl	80100010 <clean_bss>
80100008:	fb00022e 	blx	801008ca <main>

8010000c <halt>:
8010000c:	eafffffe 	b	8010000c <halt>

80100010 <clean_bss>:
80100010:	e59f101c 	ldr	r1, [pc, #28]	; 80100034 <clean+0x18>
80100014:	e59f201c 	ldr	r2, [pc, #28]	; 80100038 <clean+0x1c>
80100018:	e3a03000 	mov	r3, #0

8010001c <clean>:
8010001c:	e5813000 	str	r3, [r1]
80100020:	e2811004 	add	r1, r1, #4
80100024:	e1510002 	cmp	r1, r2
80100028:	1afffffb 	bne	8010001c <clean>
8010002c:	e1a0f00e 	mov	pc, lr
80100030:	80200000 	eorhi	r0, r0, r0
80100034:	80100a70 	andshi	r0, r0, r0, ror sl
80100038:	80100a80 	andshi	r0, r0, r0, lsl #21

8010003c <i2c_init>:
8010003c:	b480      	push	{r7}
8010003e:	b083      	sub	sp, #12
80100040:	af00      	add	r7, sp, #0
80100042:	6078      	str	r0, [r7, #4]
80100044:	687b      	ldr	r3, [r7, #4]
80100046:	891b      	ldrh	r3, [r3, #8]
80100048:	b29b      	uxth	r3, r3
8010004a:	f023 0380 	bic.w	r3, r3, #128	; 0x80
8010004e:	b29a      	uxth	r2, r3
80100050:	687b      	ldr	r3, [r7, #4]
80100052:	811a      	strh	r2, [r3, #8]
80100054:	687b      	ldr	r3, [r7, #4]
80100056:	2237      	movs	r2, #55	; 0x37
80100058:	809a      	strh	r2, [r3, #4]
8010005a:	687b      	ldr	r3, [r7, #4]
8010005c:	891b      	ldrh	r3, [r3, #8]
8010005e:	b29b      	uxth	r3, r3
80100060:	f043 0380 	orr.w	r3, r3, #128	; 0x80
80100064:	b29a      	uxth	r2, r3
80100066:	687b      	ldr	r3, [r7, #4]
80100068:	811a      	strh	r2, [r3, #8]
8010006a:	bf00      	nop
8010006c:	370c      	adds	r7, #12
8010006e:	46bd      	mov	sp, r7
80100070:	f85d 7b04 	ldr.w	r7, [sp], #4
80100074:	4770      	bx	lr

80100076 <i2c_check>:
80100076:	b480      	push	{r7}
80100078:	b083      	sub	sp, #12
8010007a:	af00      	add	r7, sp, #0
8010007c:	6078      	str	r0, [r7, #4]
8010007e:	6039      	str	r1, [r7, #0]
80100080:	683b      	ldr	r3, [r7, #0]
80100082:	f003 0310 	and.w	r3, r3, #16
80100086:	2b00      	cmp	r3, #0
80100088:	d019      	beq.n	801000be <i2c_check+0x48>
8010008a:	687b      	ldr	r3, [r7, #4]
8010008c:	899b      	ldrh	r3, [r3, #12]
8010008e:	b29b      	uxth	r3, r3
80100090:	f023 0310 	bic.w	r3, r3, #16
80100094:	b29a      	uxth	r2, r3
80100096:	687b      	ldr	r3, [r7, #4]
80100098:	819a      	strh	r2, [r3, #12]
8010009a:	687b      	ldr	r3, [r7, #4]
8010009c:	891b      	ldrh	r3, [r3, #8]
8010009e:	b29b      	uxth	r3, r3
801000a0:	f023 0380 	bic.w	r3, r3, #128	; 0x80
801000a4:	b29a      	uxth	r2, r3
801000a6:	687b      	ldr	r3, [r7, #4]
801000a8:	811a      	strh	r2, [r3, #8]
801000aa:	687b      	ldr	r3, [r7, #4]
801000ac:	891b      	ldrh	r3, [r3, #8]
801000ae:	b29b      	uxth	r3, r3
801000b0:	f043 0380 	orr.w	r3, r3, #128	; 0x80
801000b4:	b29a      	uxth	r2, r3
801000b6:	687b      	ldr	r3, [r7, #4]
801000b8:	811a      	strh	r2, [r3, #8]
801000ba:	2305      	movs	r3, #5
801000bc:	e007      	b.n	801000ce <i2c_check+0x58>
801000be:	683b      	ldr	r3, [r7, #0]
801000c0:	f003 0301 	and.w	r3, r3, #1
801000c4:	2b00      	cmp	r3, #0
801000c6:	d001      	beq.n	801000cc <i2c_check+0x56>
801000c8:	2304      	movs	r3, #4
801000ca:	e000      	b.n	801000ce <i2c_check+0x58>
801000cc:	2300      	movs	r3, #0
801000ce:	4618      	mov	r0, r3
801000d0:	370c      	adds	r7, #12
801000d2:	46bd      	mov	sp, r7
801000d4:	f85d 7b04 	ldr.w	r7, [sp], #4
801000d8:	4770      	bx	lr

801000da <i2c_start>:
801000da:	b480      	push	{r7}
801000dc:	b085      	sub	sp, #20
801000de:	af00      	add	r7, sp, #0
801000e0:	60f8      	str	r0, [r7, #12]
801000e2:	460b      	mov	r3, r1
801000e4:	607a      	str	r2, [r7, #4]
801000e6:	72fb      	strb	r3, [r7, #11]
801000e8:	68fb      	ldr	r3, [r7, #12]
801000ea:	899b      	ldrh	r3, [r3, #12]
801000ec:	b29b      	uxth	r3, r3
801000ee:	f003 0320 	and.w	r3, r3, #32
801000f2:	2b00      	cmp	r3, #0
801000f4:	d001      	beq.n	801000fa <i2c_start+0x20>
801000f6:	2301      	movs	r3, #1
801000f8:	e016      	b.n	80100128 <i2c_start+0x4e>
801000fa:	68fb      	ldr	r3, [r7, #12]
801000fc:	891b      	ldrh	r3, [r3, #8]
801000fe:	b29b      	uxth	r3, r3
80100100:	f043 0330 	orr.w	r3, r3, #48	; 0x30
80100104:	b29a      	uxth	r2, r3
80100106:	68fb      	ldr	r3, [r7, #12]
80100108:	811a      	strh	r2, [r3, #8]
8010010a:	7afb      	ldrb	r3, [r7, #11]
8010010c:	b29b      	uxth	r3, r3
8010010e:	005b      	lsls	r3, r3, #1
80100110:	b29a      	uxth	r2, r3
80100112:	687b      	ldr	r3, [r7, #4]
80100114:	2b01      	cmp	r3, #1
80100116:	d101      	bne.n	8010011c <i2c_start+0x42>
80100118:	2301      	movs	r3, #1
8010011a:	e000      	b.n	8010011e <i2c_start+0x44>
8010011c:	2300      	movs	r3, #0
8010011e:	4313      	orrs	r3, r2
80100120:	b29a      	uxth	r2, r3
80100122:	68fb      	ldr	r3, [r7, #12]
80100124:	821a      	strh	r2, [r3, #16]
80100126:	2300      	movs	r3, #0
80100128:	4618      	mov	r0, r3
8010012a:	3714      	adds	r7, #20
8010012c:	46bd      	mov	sp, r7
8010012e:	f85d 7b04 	ldr.w	r7, [sp], #4
80100132:	4770      	bx	lr

80100134 <i2c_stop>:
80100134:	b480      	push	{r7}
80100136:	b085      	sub	sp, #20
80100138:	af00      	add	r7, sp, #0
8010013a:	6078      	str	r0, [r7, #4]
8010013c:	f64f 73ff 	movw	r3, #65535	; 0xffff
80100140:	81fb      	strh	r3, [r7, #14]
80100142:	687b      	ldr	r3, [r7, #4]
80100144:	891b      	ldrh	r3, [r3, #8]
80100146:	b29b      	uxth	r3, r3
80100148:	f023 0338 	bic.w	r3, r3, #56	; 0x38
8010014c:	b29a      	uxth	r2, r3
8010014e:	687b      	ldr	r3, [r7, #4]
80100150:	811a      	strh	r2, [r3, #8]
80100152:	e007      	b.n	80100164 <i2c_stop+0x30>
80100154:	89fb      	ldrh	r3, [r7, #14]
80100156:	3b01      	subs	r3, #1
80100158:	81fb      	strh	r3, [r7, #14]
8010015a:	89fb      	ldrh	r3, [r7, #14]
8010015c:	2b00      	cmp	r3, #0
8010015e:	d101      	bne.n	80100164 <i2c_stop+0x30>
80100160:	2306      	movs	r3, #6
80100162:	e007      	b.n	80100174 <i2c_stop+0x40>
80100164:	687b      	ldr	r3, [r7, #4]
80100166:	899b      	ldrh	r3, [r3, #12]
80100168:	b29b      	uxth	r3, r3
8010016a:	f003 0320 	and.w	r3, r3, #32
8010016e:	2b00      	cmp	r3, #0
80100170:	d1f0      	bne.n	80100154 <i2c_stop+0x20>
80100172:	2300      	movs	r3, #0
80100174:	4618      	mov	r0, r3
80100176:	3714      	adds	r7, #20
80100178:	46bd      	mov	sp, r7
8010017a:	f85d 7b04 	ldr.w	r7, [sp], #4
8010017e:	4770      	bx	lr

80100180 <i2c_restart>:
80100180:	b480      	push	{r7}
80100182:	b085      	sub	sp, #20
80100184:	af00      	add	r7, sp, #0
80100186:	60f8      	str	r0, [r7, #12]
80100188:	460b      	mov	r3, r1
8010018a:	607a      	str	r2, [r7, #4]
8010018c:	72fb      	strb	r3, [r7, #11]
8010018e:	68fb      	ldr	r3, [r7, #12]
80100190:	899b      	ldrh	r3, [r3, #12]
80100192:	b29b      	uxth	r3, r3
80100194:	f003 0320 	and.w	r3, r3, #32
80100198:	2b00      	cmp	r3, #0
8010019a:	d008      	beq.n	801001ae <i2c_restart+0x2e>
8010019c:	68fb      	ldr	r3, [r7, #12]
8010019e:	891b      	ldrh	r3, [r3, #8]
801001a0:	b29b      	uxth	r3, r3
801001a2:	f003 0320 	and.w	r3, r3, #32
801001a6:	2b00      	cmp	r3, #0
801001a8:	d101      	bne.n	801001ae <i2c_restart+0x2e>
801001aa:	2306      	movs	r3, #6
801001ac:	e016      	b.n	801001dc <i2c_restart+0x5c>
801001ae:	68fb      	ldr	r3, [r7, #12]
801001b0:	891b      	ldrh	r3, [r3, #8]
801001b2:	b29b      	uxth	r3, r3
801001b4:	f043 0314 	orr.w	r3, r3, #20
801001b8:	b29a      	uxth	r2, r3
801001ba:	68fb      	ldr	r3, [r7, #12]
801001bc:	811a      	strh	r2, [r3, #8]
801001be:	7afb      	ldrb	r3, [r7, #11]
801001c0:	b29b      	uxth	r3, r3
801001c2:	005b      	lsls	r3, r3, #1
801001c4:	b29a      	uxth	r2, r3
801001c6:	687b      	ldr	r3, [r7, #4]
801001c8:	2b01      	cmp	r3, #1
801001ca:	d101      	bne.n	801001d0 <i2c_restart+0x50>
801001cc:	2301      	movs	r3, #1
801001ce:	e000      	b.n	801001d2 <i2c_restart+0x52>
801001d0:	2300      	movs	r3, #0
801001d2:	4313      	orrs	r3, r2
801001d4:	b29a      	uxth	r2, r3
801001d6:	68fb      	ldr	r3, [r7, #12]
801001d8:	821a      	strh	r2, [r3, #16]
801001da:	2300      	movs	r3, #0
801001dc:	4618      	mov	r0, r3
801001de:	3714      	adds	r7, #20
801001e0:	46bd      	mov	sp, r7
801001e2:	f85d 7b04 	ldr.w	r7, [sp], #4
801001e6:	4770      	bx	lr

801001e8 <i2c_write>:
801001e8:	b580      	push	{r7, lr}
801001ea:	b084      	sub	sp, #16
801001ec:	af00      	add	r7, sp, #0
801001ee:	60f8      	str	r0, [r7, #12]
801001f0:	60b9      	str	r1, [r7, #8]
801001f2:	607a      	str	r2, [r7, #4]
801001f4:	bf00      	nop
801001f6:	68fb      	ldr	r3, [r7, #12]
801001f8:	899b      	ldrh	r3, [r3, #12]
801001fa:	b29b      	uxth	r3, r3
801001fc:	f003 0380 	and.w	r3, r3, #128	; 0x80
80100200:	2b00      	cmp	r3, #0
80100202:	d0f8      	beq.n	801001f6 <i2c_write+0xe>
80100204:	68fb      	ldr	r3, [r7, #12]
80100206:	899b      	ldrh	r3, [r3, #12]
80100208:	b29b      	uxth	r3, r3
8010020a:	f023 0302 	bic.w	r3, r3, #2
8010020e:	b29a      	uxth	r2, r3
80100210:	68fb      	ldr	r3, [r7, #12]
80100212:	819a      	strh	r2, [r3, #12]
80100214:	68fb      	ldr	r3, [r7, #12]
80100216:	891b      	ldrh	r3, [r3, #8]
80100218:	b29b      	uxth	r3, r3
8010021a:	f043 0310 	orr.w	r3, r3, #16
8010021e:	b29a      	uxth	r2, r3
80100220:	68fb      	ldr	r3, [r7, #12]
80100222:	811a      	strh	r2, [r3, #8]
80100224:	e020      	b.n	80100268 <i2c_write+0x80>
80100226:	68bb      	ldr	r3, [r7, #8]
80100228:	1c5a      	adds	r2, r3, #1
8010022a:	60ba      	str	r2, [r7, #8]
8010022c:	781b      	ldrb	r3, [r3, #0]
8010022e:	b29a      	uxth	r2, r3
80100230:	68fb      	ldr	r3, [r7, #12]
80100232:	821a      	strh	r2, [r3, #16]
80100234:	bf00      	nop
80100236:	68fb      	ldr	r3, [r7, #12]
80100238:	899b      	ldrh	r3, [r3, #12]
8010023a:	b29b      	uxth	r3, r3
8010023c:	f003 0302 	and.w	r3, r3, #2
80100240:	2b00      	cmp	r3, #0
80100242:	d0f8      	beq.n	80100236 <i2c_write+0x4e>
80100244:	68fb      	ldr	r3, [r7, #12]
80100246:	899b      	ldrh	r3, [r3, #12]
80100248:	b29b      	uxth	r3, r3
8010024a:	f023 0302 	bic.w	r3, r3, #2
8010024e:	b29a      	uxth	r2, r3
80100250:	68fb      	ldr	r3, [r7, #12]
80100252:	819a      	strh	r2, [r3, #12]
80100254:	68fb      	ldr	r3, [r7, #12]
80100256:	899b      	ldrh	r3, [r3, #12]
80100258:	b29b      	uxth	r3, r3
8010025a:	4619      	mov	r1, r3
8010025c:	68f8      	ldr	r0, [r7, #12]
8010025e:	f7ff ff0a 	bl	80100076 <i2c_check>
80100262:	4603      	mov	r3, r0
80100264:	2b00      	cmp	r3, #0
80100266:	d105      	bne.n	80100274 <i2c_write+0x8c>
80100268:	687b      	ldr	r3, [r7, #4]
8010026a:	1e5a      	subs	r2, r3, #1
8010026c:	607a      	str	r2, [r7, #4]
8010026e:	2b00      	cmp	r3, #0
80100270:	d1d9      	bne.n	80100226 <i2c_write+0x3e>
80100272:	e000      	b.n	80100276 <i2c_write+0x8e>
80100274:	bf00      	nop
80100276:	68fb      	ldr	r3, [r7, #12]
80100278:	899b      	ldrh	r3, [r3, #12]
8010027a:	b29b      	uxth	r3, r3
8010027c:	f023 0302 	bic.w	r3, r3, #2
80100280:	b29a      	uxth	r2, r3
80100282:	68fb      	ldr	r3, [r7, #12]
80100284:	819a      	strh	r2, [r3, #12]
80100286:	68f8      	ldr	r0, [r7, #12]
80100288:	f7ff ff54 	bl	80100134 <i2c_stop>
8010028c:	bf00      	nop
8010028e:	3710      	adds	r7, #16
80100290:	46bd      	mov	sp, r7
80100292:	bd80      	pop	{r7, pc}

80100294 <i2c_read>:
80100294:	b580      	push	{r7, lr}
80100296:	b086      	sub	sp, #24
80100298:	af00      	add	r7, sp, #0
8010029a:	60f8      	str	r0, [r7, #12]
8010029c:	60b9      	str	r1, [r7, #8]
8010029e:	607a      	str	r2, [r7, #4]
801002a0:	2300      	movs	r3, #0
801002a2:	75fb      	strb	r3, [r7, #23]
801002a4:	7dfb      	ldrb	r3, [r7, #23]
801002a6:	b2db      	uxtb	r3, r3
801002a8:	3301      	adds	r3, #1
801002aa:	b2db      	uxtb	r3, r3
801002ac:	75fb      	strb	r3, [r7, #23]
801002ae:	bf00      	nop
801002b0:	68fb      	ldr	r3, [r7, #12]
801002b2:	899b      	ldrh	r3, [r3, #12]
801002b4:	b29b      	uxth	r3, r3
801002b6:	f003 0380 	and.w	r3, r3, #128	; 0x80
801002ba:	2b00      	cmp	r3, #0
801002bc:	d0f8      	beq.n	801002b0 <i2c_read+0x1c>
801002be:	68fb      	ldr	r3, [r7, #12]
801002c0:	899b      	ldrh	r3, [r3, #12]
801002c2:	b29b      	uxth	r3, r3
801002c4:	f023 0302 	bic.w	r3, r3, #2
801002c8:	b29a      	uxth	r2, r3
801002ca:	68fb      	ldr	r3, [r7, #12]
801002cc:	819a      	strh	r2, [r3, #12]
801002ce:	68fb      	ldr	r3, [r7, #12]
801002d0:	891b      	ldrh	r3, [r3, #8]
801002d2:	b29b      	uxth	r3, r3
801002d4:	f023 0318 	bic.w	r3, r3, #24
801002d8:	b29a      	uxth	r2, r3
801002da:	68fb      	ldr	r3, [r7, #12]
801002dc:	811a      	strh	r2, [r3, #8]
801002de:	687b      	ldr	r3, [r7, #4]
801002e0:	2b01      	cmp	r3, #1
801002e2:	d107      	bne.n	801002f4 <i2c_read+0x60>
801002e4:	68fb      	ldr	r3, [r7, #12]
801002e6:	891b      	ldrh	r3, [r3, #8]
801002e8:	b29b      	uxth	r3, r3
801002ea:	f043 0308 	orr.w	r3, r3, #8
801002ee:	b29a      	uxth	r2, r3
801002f0:	68fb      	ldr	r3, [r7, #12]
801002f2:	811a      	strh	r2, [r3, #8]
801002f4:	68fb      	ldr	r3, [r7, #12]
801002f6:	8a1b      	ldrh	r3, [r3, #16]
801002f8:	b29b      	uxth	r3, r3
801002fa:	b2db      	uxtb	r3, r3
801002fc:	75fb      	strb	r3, [r7, #23]
801002fe:	e028      	b.n	80100352 <i2c_read+0xbe>
80100300:	bf00      	nop
80100302:	68fb      	ldr	r3, [r7, #12]
80100304:	899b      	ldrh	r3, [r3, #12]
80100306:	b29b      	uxth	r3, r3
80100308:	f003 0302 	and.w	r3, r3, #2
8010030c:	2b00      	cmp	r3, #0
8010030e:	d0f8      	beq.n	80100302 <i2c_read+0x6e>
80100310:	68fb      	ldr	r3, [r7, #12]
80100312:	899b      	ldrh	r3, [r3, #12]
80100314:	b29b      	uxth	r3, r3
80100316:	f023 0302 	bic.w	r3, r3, #2
8010031a:	b29a      	uxth	r2, r3
8010031c:	68fb      	ldr	r3, [r7, #12]
8010031e:	819a      	strh	r2, [r3, #12]
80100320:	687b      	ldr	r3, [r7, #4]
80100322:	2b00      	cmp	r3, #0
80100324:	d102      	bne.n	8010032c <i2c_read+0x98>
80100326:	68f8      	ldr	r0, [r7, #12]
80100328:	f7ff ff04 	bl	80100134 <i2c_stop>
8010032c:	687b      	ldr	r3, [r7, #4]
8010032e:	2b01      	cmp	r3, #1
80100330:	d107      	bne.n	80100342 <i2c_read+0xae>
80100332:	68fb      	ldr	r3, [r7, #12]
80100334:	891b      	ldrh	r3, [r3, #8]
80100336:	b29b      	uxth	r3, r3
80100338:	f043 0308 	orr.w	r3, r3, #8
8010033c:	b29a      	uxth	r2, r3
8010033e:	68fb      	ldr	r3, [r7, #12]
80100340:	811a      	strh	r2, [r3, #8]
80100342:	68bb      	ldr	r3, [r7, #8]
80100344:	1c5a      	adds	r2, r3, #1
80100346:	60ba      	str	r2, [r7, #8]
80100348:	68fa      	ldr	r2, [r7, #12]
8010034a:	8a12      	ldrh	r2, [r2, #16]
8010034c:	b292      	uxth	r2, r2
8010034e:	b2d2      	uxtb	r2, r2
80100350:	701a      	strb	r2, [r3, #0]
80100352:	687b      	ldr	r3, [r7, #4]
80100354:	1e5a      	subs	r2, r3, #1
80100356:	607a      	str	r2, [r7, #4]
80100358:	2b00      	cmp	r3, #0
8010035a:	d1d1      	bne.n	80100300 <i2c_read+0x6c>
8010035c:	bf00      	nop
8010035e:	3718      	adds	r7, #24
80100360:	46bd      	mov	sp, r7
80100362:	bd80      	pop	{r7, pc}

80100364 <i2c_transfer>:
80100364:	b580      	push	{r7, lr}
80100366:	b084      	sub	sp, #16
80100368:	af00      	add	r7, sp, #0
8010036a:	6078      	str	r0, [r7, #4]
8010036c:	6039      	str	r1, [r7, #0]
8010036e:	2300      	movs	r3, #0
80100370:	60bb      	str	r3, [r7, #8]
80100372:	683b      	ldr	r3, [r7, #0]
80100374:	685b      	ldr	r3, [r3, #4]
80100376:	60fb      	str	r3, [r7, #12]
80100378:	687b      	ldr	r3, [r7, #4]
8010037a:	899b      	ldrh	r3, [r3, #12]
8010037c:	b29b      	uxth	r3, r3
8010037e:	f023 0312 	bic.w	r3, r3, #18
80100382:	b29a      	uxth	r2, r3
80100384:	687b      	ldr	r3, [r7, #4]
80100386:	819a      	strh	r2, [r3, #12]
80100388:	bf00      	nop
8010038a:	687b      	ldr	r3, [r7, #4]
8010038c:	899b      	ldrh	r3, [r3, #12]
8010038e:	b29b      	uxth	r3, r3
80100390:	09db      	lsrs	r3, r3, #7
80100392:	b29b      	uxth	r3, r3
80100394:	f003 0301 	and.w	r3, r3, #1
80100398:	2b00      	cmp	r3, #0
8010039a:	d0f6      	beq.n	8010038a <i2c_transfer+0x26>
8010039c:	683b      	ldr	r3, [r7, #0]
8010039e:	7b1b      	ldrb	r3, [r3, #12]
801003a0:	2b00      	cmp	r3, #0
801003a2:	d005      	beq.n	801003b0 <i2c_transfer+0x4c>
801003a4:	683b      	ldr	r3, [r7, #0]
801003a6:	685b      	ldr	r3, [r3, #4]
801003a8:	2b01      	cmp	r3, #1
801003aa:	d101      	bne.n	801003b0 <i2c_transfer+0x4c>
801003ac:	2300      	movs	r3, #0
801003ae:	60fb      	str	r3, [r7, #12]
801003b0:	683b      	ldr	r3, [r7, #0]
801003b2:	781b      	ldrb	r3, [r3, #0]
801003b4:	68fa      	ldr	r2, [r7, #12]
801003b6:	4619      	mov	r1, r3
801003b8:	6878      	ldr	r0, [r7, #4]
801003ba:	f7ff fe8e 	bl	801000da <i2c_start>
801003be:	4603      	mov	r3, r0
801003c0:	60bb      	str	r3, [r7, #8]
801003c2:	68bb      	ldr	r3, [r7, #8]
801003c4:	2b00      	cmp	r3, #0
801003c6:	d002      	beq.n	801003ce <i2c_transfer+0x6a>
801003c8:	68bb      	ldr	r3, [r7, #8]
801003ca:	b2db      	uxtb	r3, r3
801003cc:	e0a6      	b.n	8010051c <i2c_transfer+0x1b8>
801003ce:	bf00      	nop
801003d0:	687b      	ldr	r3, [r7, #4]
801003d2:	899b      	ldrh	r3, [r3, #12]
801003d4:	b29b      	uxth	r3, r3
801003d6:	f003 0302 	and.w	r3, r3, #2
801003da:	2b00      	cmp	r3, #0
801003dc:	d0f8      	beq.n	801003d0 <i2c_transfer+0x6c>
801003de:	687b      	ldr	r3, [r7, #4]
801003e0:	899b      	ldrh	r3, [r3, #12]
801003e2:	b29b      	uxth	r3, r3
801003e4:	4619      	mov	r1, r3
801003e6:	6878      	ldr	r0, [r7, #4]
801003e8:	f7ff fe45 	bl	80100076 <i2c_check>
801003ec:	4603      	mov	r3, r0
801003ee:	60bb      	str	r3, [r7, #8]
801003f0:	68bb      	ldr	r3, [r7, #8]
801003f2:	2b00      	cmp	r3, #0
801003f4:	d005      	beq.n	80100402 <i2c_transfer+0x9e>
801003f6:	6878      	ldr	r0, [r7, #4]
801003f8:	f7ff fe9c 	bl	80100134 <i2c_stop>
801003fc:	68bb      	ldr	r3, [r7, #8]
801003fe:	b2db      	uxtb	r3, r3
80100400:	e08c      	b.n	8010051c <i2c_transfer+0x1b8>
80100402:	683b      	ldr	r3, [r7, #0]
80100404:	7b1b      	ldrb	r3, [r3, #12]
80100406:	2b00      	cmp	r3, #0
80100408:	d067      	beq.n	801004da <i2c_transfer+0x176>
8010040a:	687b      	ldr	r3, [r7, #4]
8010040c:	899b      	ldrh	r3, [r3, #12]
8010040e:	b29b      	uxth	r3, r3
80100410:	f023 0302 	bic.w	r3, r3, #2
80100414:	b29a      	uxth	r2, r3
80100416:	687b      	ldr	r3, [r7, #4]
80100418:	819a      	strh	r2, [r3, #12]
8010041a:	683b      	ldr	r3, [r7, #0]
8010041c:	7b1b      	ldrb	r3, [r3, #12]
8010041e:	3b01      	subs	r3, #1
80100420:	b2da      	uxtb	r2, r3
80100422:	683b      	ldr	r3, [r7, #0]
80100424:	731a      	strb	r2, [r3, #12]
80100426:	683b      	ldr	r3, [r7, #0]
80100428:	689a      	ldr	r2, [r3, #8]
8010042a:	683b      	ldr	r3, [r7, #0]
8010042c:	7b1b      	ldrb	r3, [r3, #12]
8010042e:	00db      	lsls	r3, r3, #3
80100430:	fa22 f303 	lsr.w	r3, r2, r3
80100434:	b29a      	uxth	r2, r3
80100436:	687b      	ldr	r3, [r7, #4]
80100438:	821a      	strh	r2, [r3, #16]
8010043a:	bf00      	nop
8010043c:	687b      	ldr	r3, [r7, #4]
8010043e:	899b      	ldrh	r3, [r3, #12]
80100440:	b29b      	uxth	r3, r3
80100442:	f003 0302 	and.w	r3, r3, #2
80100446:	2b00      	cmp	r3, #0
80100448:	d0f8      	beq.n	8010043c <i2c_transfer+0xd8>
8010044a:	687b      	ldr	r3, [r7, #4]
8010044c:	899b      	ldrh	r3, [r3, #12]
8010044e:	b29b      	uxth	r3, r3
80100450:	4619      	mov	r1, r3
80100452:	6878      	ldr	r0, [r7, #4]
80100454:	f7ff fe0f 	bl	80100076 <i2c_check>
80100458:	4603      	mov	r3, r0
8010045a:	60bb      	str	r3, [r7, #8]
8010045c:	68bb      	ldr	r3, [r7, #8]
8010045e:	2b00      	cmp	r3, #0
80100460:	d005      	beq.n	8010046e <i2c_transfer+0x10a>
80100462:	6878      	ldr	r0, [r7, #4]
80100464:	f7ff fe66 	bl	80100134 <i2c_stop>
80100468:	68bb      	ldr	r3, [r7, #8]
8010046a:	b2db      	uxtb	r3, r3
8010046c:	e056      	b.n	8010051c <i2c_transfer+0x1b8>
8010046e:	683b      	ldr	r3, [r7, #0]
80100470:	7b1b      	ldrb	r3, [r3, #12]
80100472:	2b00      	cmp	r3, #0
80100474:	d002      	beq.n	8010047c <i2c_transfer+0x118>
80100476:	68bb      	ldr	r3, [r7, #8]
80100478:	2b00      	cmp	r3, #0
8010047a:	d0c6      	beq.n	8010040a <i2c_transfer+0xa6>
8010047c:	683b      	ldr	r3, [r7, #0]
8010047e:	685b      	ldr	r3, [r3, #4]
80100480:	2b01      	cmp	r3, #1
80100482:	d12a      	bne.n	801004da <i2c_transfer+0x176>
80100484:	687b      	ldr	r3, [r7, #4]
80100486:	899b      	ldrh	r3, [r3, #12]
80100488:	b29b      	uxth	r3, r3
8010048a:	f023 0302 	bic.w	r3, r3, #2
8010048e:	b29a      	uxth	r2, r3
80100490:	687b      	ldr	r3, [r7, #4]
80100492:	819a      	strh	r2, [r3, #12]
80100494:	683b      	ldr	r3, [r7, #0]
80100496:	781b      	ldrb	r3, [r3, #0]
80100498:	2201      	movs	r2, #1
8010049a:	4619      	mov	r1, r3
8010049c:	6878      	ldr	r0, [r7, #4]
8010049e:	f7ff fe6f 	bl	80100180 <i2c_restart>
801004a2:	bf00      	nop
801004a4:	687b      	ldr	r3, [r7, #4]
801004a6:	899b      	ldrh	r3, [r3, #12]
801004a8:	b29b      	uxth	r3, r3
801004aa:	f003 0302 	and.w	r3, r3, #2
801004ae:	2b00      	cmp	r3, #0
801004b0:	d0f8      	beq.n	801004a4 <i2c_transfer+0x140>
801004b2:	687b      	ldr	r3, [r7, #4]
801004b4:	899b      	ldrh	r3, [r3, #12]
801004b6:	b29b      	uxth	r3, r3
801004b8:	4619      	mov	r1, r3
801004ba:	6878      	ldr	r0, [r7, #4]
801004bc:	f7ff fddb 	bl	80100076 <i2c_check>
801004c0:	4603      	mov	r3, r0
801004c2:	60bb      	str	r3, [r7, #8]
801004c4:	68bb      	ldr	r3, [r7, #8]
801004c6:	2b00      	cmp	r3, #0
801004c8:	d007      	beq.n	801004da <i2c_transfer+0x176>
801004ca:	2307      	movs	r3, #7
801004cc:	60bb      	str	r3, [r7, #8]
801004ce:	6878      	ldr	r0, [r7, #4]
801004d0:	f7ff fe30 	bl	80100134 <i2c_stop>
801004d4:	68bb      	ldr	r3, [r7, #8]
801004d6:	b2db      	uxtb	r3, r3
801004d8:	e020      	b.n	8010051c <i2c_transfer+0x1b8>
801004da:	683b      	ldr	r3, [r7, #0]
801004dc:	685b      	ldr	r3, [r3, #4]
801004de:	2b00      	cmp	r3, #0
801004e0:	d10b      	bne.n	801004fa <i2c_transfer+0x196>
801004e2:	683b      	ldr	r3, [r7, #0]
801004e4:	691b      	ldr	r3, [r3, #16]
801004e6:	2b00      	cmp	r3, #0
801004e8:	d007      	beq.n	801004fa <i2c_transfer+0x196>
801004ea:	683b      	ldr	r3, [r7, #0]
801004ec:	6959      	ldr	r1, [r3, #20]
801004ee:	683b      	ldr	r3, [r7, #0]
801004f0:	691b      	ldr	r3, [r3, #16]
801004f2:	461a      	mov	r2, r3
801004f4:	6878      	ldr	r0, [r7, #4]
801004f6:	f7ff fe77 	bl	801001e8 <i2c_write>
801004fa:	683b      	ldr	r3, [r7, #0]
801004fc:	685b      	ldr	r3, [r3, #4]
801004fe:	2b01      	cmp	r3, #1
80100500:	d10b      	bne.n	8010051a <i2c_transfer+0x1b6>
80100502:	683b      	ldr	r3, [r7, #0]
80100504:	691b      	ldr	r3, [r3, #16]
80100506:	2b00      	cmp	r3, #0
80100508:	d007      	beq.n	8010051a <i2c_transfer+0x1b6>
8010050a:	683b      	ldr	r3, [r7, #0]
8010050c:	6959      	ldr	r1, [r3, #20]
8010050e:	683b      	ldr	r3, [r7, #0]
80100510:	691b      	ldr	r3, [r3, #16]
80100512:	461a      	mov	r2, r3
80100514:	6878      	ldr	r0, [r7, #4]
80100516:	f7ff febd 	bl	80100294 <i2c_read>
8010051a:	2300      	movs	r3, #0
8010051c:	4618      	mov	r0, r3
8010051e:	3710      	adds	r7, #16
80100520:	46bd      	mov	sp, r7
80100522:	bd80      	pop	{r7, pc}

80100524 <i2c_write_one_byte>:
80100524:	b580      	push	{r7, lr}
80100526:	b08a      	sub	sp, #40	; 0x28
80100528:	af00      	add	r7, sp, #0
8010052a:	603b      	str	r3, [r7, #0]
8010052c:	4603      	mov	r3, r0
8010052e:	71fb      	strb	r3, [r7, #7]
80100530:	460b      	mov	r3, r1
80100532:	71bb      	strb	r3, [r7, #6]
80100534:	4613      	mov	r3, r2
80100536:	717b      	strb	r3, [r7, #5]
80100538:	2300      	movs	r3, #0
8010053a:	f887 3027 	strb.w	r3, [r7, #39]	; 0x27
8010053e:	797b      	ldrb	r3, [r7, #5]
80100540:	f887 3026 	strb.w	r3, [r7, #38]	; 0x26
80100544:	79fb      	ldrb	r3, [r7, #7]
80100546:	733b      	strb	r3, [r7, #12]
80100548:	2300      	movs	r3, #0
8010054a:	613b      	str	r3, [r7, #16]
8010054c:	79bb      	ldrb	r3, [r7, #6]
8010054e:	617b      	str	r3, [r7, #20]
80100550:	2301      	movs	r3, #1
80100552:	763b      	strb	r3, [r7, #24]
80100554:	f107 0326 	add.w	r3, r7, #38	; 0x26
80100558:	623b      	str	r3, [r7, #32]
8010055a:	2301      	movs	r3, #1
8010055c:	61fb      	str	r3, [r7, #28]
8010055e:	f107 030c 	add.w	r3, r7, #12
80100562:	4619      	mov	r1, r3
80100564:	6838      	ldr	r0, [r7, #0]
80100566:	f7ff fefd 	bl	80100364 <i2c_transfer>
8010056a:	4603      	mov	r3, r0
8010056c:	f887 3027 	strb.w	r3, [r7, #39]	; 0x27
80100570:	f897 3027 	ldrb.w	r3, [r7, #39]	; 0x27
80100574:	4618      	mov	r0, r3
80100576:	3728      	adds	r7, #40	; 0x28
80100578:	46bd      	mov	sp, r7
8010057a:	bd80      	pop	{r7, pc}

8010057c <i2c_read_one_byte>:
8010057c:	b580      	push	{r7, lr}
8010057e:	b08a      	sub	sp, #40	; 0x28
80100580:	af00      	add	r7, sp, #0
80100582:	4603      	mov	r3, r0
80100584:	603a      	str	r2, [r7, #0]
80100586:	71fb      	strb	r3, [r7, #7]
80100588:	460b      	mov	r3, r1
8010058a:	71bb      	strb	r3, [r7, #6]
8010058c:	2300      	movs	r3, #0
8010058e:	f887 3026 	strb.w	r3, [r7, #38]	; 0x26
80100592:	2300      	movs	r3, #0
80100594:	f887 3027 	strb.w	r3, [r7, #39]	; 0x27
80100598:	79fb      	ldrb	r3, [r7, #7]
8010059a:	733b      	strb	r3, [r7, #12]
8010059c:	2301      	movs	r3, #1
8010059e:	613b      	str	r3, [r7, #16]
801005a0:	79bb      	ldrb	r3, [r7, #6]
801005a2:	617b      	str	r3, [r7, #20]
801005a4:	2301      	movs	r3, #1
801005a6:	763b      	strb	r3, [r7, #24]
801005a8:	f107 0326 	add.w	r3, r7, #38	; 0x26
801005ac:	623b      	str	r3, [r7, #32]
801005ae:	2301      	movs	r3, #1
801005b0:	61fb      	str	r3, [r7, #28]
801005b2:	f107 030c 	add.w	r3, r7, #12
801005b6:	4619      	mov	r1, r3
801005b8:	6838      	ldr	r0, [r7, #0]
801005ba:	f7ff fed3 	bl	80100364 <i2c_transfer>
801005be:	4603      	mov	r3, r0
801005c0:	f887 3027 	strb.w	r3, [r7, #39]	; 0x27
801005c4:	f897 3026 	ldrb.w	r3, [r7, #38]	; 0x26
801005c8:	4618      	mov	r0, r3
801005ca:	3728      	adds	r7, #40	; 0x28
801005cc:	46bd      	mov	sp, r7
801005ce:	bd80      	pop	{r7, pc}

801005d0 <IOMUXC_SetPinMux>:
801005d0:	b480      	push	{r7}
801005d2:	b085      	sub	sp, #20
801005d4:	af00      	add	r7, sp, #0
801005d6:	60f8      	str	r0, [r7, #12]
801005d8:	60b9      	str	r1, [r7, #8]
801005da:	607a      	str	r2, [r7, #4]
801005dc:	603b      	str	r3, [r7, #0]
801005de:	68fb      	ldr	r3, [r7, #12]
801005e0:	68ba      	ldr	r2, [r7, #8]
801005e2:	f002 010f 	and.w	r1, r2, #15
801005e6:	69fa      	ldr	r2, [r7, #28]
801005e8:	0112      	lsls	r2, r2, #4
801005ea:	f002 0210 	and.w	r2, r2, #16
801005ee:	430a      	orrs	r2, r1
801005f0:	601a      	str	r2, [r3, #0]
801005f2:	687b      	ldr	r3, [r7, #4]
801005f4:	2b00      	cmp	r3, #0
801005f6:	d004      	beq.n	80100602 <IOMUXC_SetPinMux+0x32>
801005f8:	687b      	ldr	r3, [r7, #4]
801005fa:	683a      	ldr	r2, [r7, #0]
801005fc:	f002 0207 	and.w	r2, r2, #7
80100600:	601a      	str	r2, [r3, #0]
80100602:	bf00      	nop
80100604:	3714      	adds	r7, #20
80100606:	46bd      	mov	sp, r7
80100608:	f85d 7b04 	ldr.w	r7, [sp], #4
8010060c:	4770      	bx	lr

8010060e <IOMUXC_SetPinConfig>:
8010060e:	b480      	push	{r7}
80100610:	b085      	sub	sp, #20
80100612:	af00      	add	r7, sp, #0
80100614:	60f8      	str	r0, [r7, #12]
80100616:	60b9      	str	r1, [r7, #8]
80100618:	607a      	str	r2, [r7, #4]
8010061a:	603b      	str	r3, [r7, #0]
8010061c:	69bb      	ldr	r3, [r7, #24]
8010061e:	2b00      	cmp	r3, #0
80100620:	d002      	beq.n	80100628 <IOMUXC_SetPinConfig+0x1a>
80100622:	69bb      	ldr	r3, [r7, #24]
80100624:	69fa      	ldr	r2, [r7, #28]
80100626:	601a      	str	r2, [r3, #0]
80100628:	bf00      	nop
8010062a:	3714      	adds	r7, #20
8010062c:	46bd      	mov	sp, r7
8010062e:	f85d 7b04 	ldr.w	r7, [sp], #4
80100632:	4770      	bx	lr

80100634 <delay>:
80100634:	b480      	push	{r7}
80100636:	b083      	sub	sp, #12
80100638:	af00      	add	r7, sp, #0
8010063a:	6078      	str	r0, [r7, #4]
8010063c:	bf00      	nop
8010063e:	687b      	ldr	r3, [r7, #4]
80100640:	1e5a      	subs	r2, r3, #1
80100642:	607a      	str	r2, [r7, #4]
80100644:	2b00      	cmp	r3, #0
80100646:	d1fa      	bne.n	8010063e <delay+0xa>
80100648:	bf00      	nop
8010064a:	370c      	adds	r7, #12
8010064c:	46bd      	mov	sp, r7
8010064e:	f85d 7b04 	ldr.w	r7, [sp], #4
80100652:	4770      	bx	lr

80100654 <ap3216c_init_io>:
80100654:	b580      	push	{r7, lr}
80100656:	b082      	sub	sp, #8
80100658:	af02      	add	r7, sp, #8
8010065a:	2301      	movs	r3, #1
8010065c:	9301      	str	r3, [sp, #4]
8010065e:	f44f 7350 	mov.w	r3, #832	; 0x340
80100662:	f2c0 230e 	movt	r3, #526	; 0x20e
80100666:	9300      	str	r3, [sp, #0]
80100668:	2301      	movs	r3, #1
8010066a:	f240 52a4 	movw	r2, #1444	; 0x5a4
8010066e:	f2c0 220e 	movt	r2, #526	; 0x20e
80100672:	2102      	movs	r1, #2
80100674:	20b4      	movs	r0, #180	; 0xb4
80100676:	f2c0 200e 	movt	r0, #526	; 0x20e
8010067a:	f7ff ffa9 	bl	801005d0 <IOMUXC_SetPinMux>
8010067e:	2301      	movs	r3, #1
80100680:	9301      	str	r3, [sp, #4]
80100682:	f44f 7351 	mov.w	r3, #836	; 0x344
80100686:	f2c0 230e 	movt	r3, #526	; 0x20e
8010068a:	9300      	str	r3, [sp, #0]
8010068c:	2302      	movs	r3, #2
8010068e:	f44f 62b5 	mov.w	r2, #1448	; 0x5a8
80100692:	f2c0 220e 	movt	r2, #526	; 0x20e
80100696:	2102      	movs	r1, #2
80100698:	20b8      	movs	r0, #184	; 0xb8
8010069a:	f2c0 200e 	movt	r0, #526	; 0x20e
8010069e:	f7ff ff97 	bl	801005d0 <IOMUXC_SetPinMux>
801006a2:	f247 03b0 	movw	r3, #28848	; 0x70b0
801006a6:	9301      	str	r3, [sp, #4]
801006a8:	f44f 7350 	mov.w	r3, #832	; 0x340
801006ac:	f2c0 230e 	movt	r3, #526	; 0x20e
801006b0:	9300      	str	r3, [sp, #0]
801006b2:	2301      	movs	r3, #1
801006b4:	f240 52a4 	movw	r2, #1444	; 0x5a4
801006b8:	f2c0 220e 	movt	r2, #526	; 0x20e
801006bc:	2102      	movs	r1, #2
801006be:	20b4      	movs	r0, #180	; 0xb4
801006c0:	f2c0 200e 	movt	r0, #526	; 0x20e
801006c4:	f7ff ffa3 	bl	8010060e <IOMUXC_SetPinConfig>
801006c8:	f247 03b0 	movw	r3, #28848	; 0x70b0
801006cc:	9301      	str	r3, [sp, #4]
801006ce:	f44f 7351 	mov.w	r3, #836	; 0x344
801006d2:	f2c0 230e 	movt	r3, #526	; 0x20e
801006d6:	9300      	str	r3, [sp, #0]
801006d8:	2302      	movs	r3, #2
801006da:	f44f 62b5 	mov.w	r2, #1448	; 0x5a8
801006de:	f2c0 220e 	movt	r2, #526	; 0x20e
801006e2:	2102      	movs	r1, #2
801006e4:	20b8      	movs	r0, #184	; 0xb8
801006e6:	f2c0 200e 	movt	r0, #526	; 0x20e
801006ea:	f7ff ff90 	bl	8010060e <IOMUXC_SetPinConfig>
801006ee:	bf00      	nop
801006f0:	46bd      	mov	sp, r7
801006f2:	bd80      	pop	{r7, pc}

801006f4 <ap3216c_read_system_status>:
801006f4:	b580      	push	{r7, lr}
801006f6:	b082      	sub	sp, #8
801006f8:	af00      	add	r7, sp, #0
801006fa:	2300      	movs	r3, #0
801006fc:	71fb      	strb	r3, [r7, #7]
801006fe:	2200      	movs	r2, #0
80100700:	f2c0 221a 	movt	r2, #538	; 0x21a
80100704:	2100      	movs	r1, #0
80100706:	201e      	movs	r0, #30
80100708:	f7ff ff38 	bl	8010057c <i2c_read_one_byte>
8010070c:	4603      	mov	r3, r0
8010070e:	71fb      	strb	r3, [r7, #7]
80100710:	79fb      	ldrb	r3, [r7, #7]
80100712:	2b00      	cmp	r3, #0
80100714:	d102      	bne.n	8010071c <ap3216c_read_system_status+0x28>
80100716:	79fb      	ldrb	r3, [r7, #7]
80100718:	2bff      	cmp	r3, #255	; 0xff
8010071a:	d001      	beq.n	80100720 <ap3216c_read_system_status+0x2c>
8010071c:	2300      	movs	r3, #0
8010071e:	e000      	b.n	80100722 <ap3216c_read_system_status+0x2e>
80100720:	2301      	movs	r3, #1
80100722:	4618      	mov	r0, r3
80100724:	3708      	adds	r7, #8
80100726:	46bd      	mov	sp, r7
80100728:	bd80      	pop	{r7, pc}

8010072a <ap3216c_init>:
8010072a:	b580      	push	{r7, lr}
8010072c:	b082      	sub	sp, #8
8010072e:	af00      	add	r7, sp, #0
80100730:	2300      	movs	r3, #0
80100732:	607b      	str	r3, [r7, #4]
80100734:	f7ff ff8e 	bl	80100654 <ap3216c_init_io>
80100738:	2000      	movs	r0, #0
8010073a:	f2c0 201a 	movt	r0, #538	; 0x21a
8010073e:	f7ff fc7d 	bl	8010003c <i2c_init>
80100742:	2300      	movs	r3, #0
80100744:	f2c0 231a 	movt	r3, #538	; 0x21a
80100748:	2204      	movs	r2, #4
8010074a:	2100      	movs	r1, #0
8010074c:	201e      	movs	r0, #30
8010074e:	f7ff fee9 	bl	80100524 <i2c_write_one_byte>
80100752:	f242 7010 	movw	r0, #10000	; 0x2710
80100756:	f7ff ff6d 	bl	80100634 <delay>
8010075a:	2300      	movs	r3, #0
8010075c:	f2c0 231a 	movt	r3, #538	; 0x21a
80100760:	2203      	movs	r2, #3
80100762:	2100      	movs	r1, #0
80100764:	201e      	movs	r0, #30
80100766:	f7ff fedd 	bl	80100524 <i2c_write_one_byte>
8010076a:	f7ff ffc3 	bl	801006f4 <ap3216c_read_system_status>
8010076e:	4603      	mov	r3, r0
80100770:	4618      	mov	r0, r3
80100772:	3708      	adds	r7, #8
80100774:	46bd      	mov	sp, r7
80100776:	bd80      	pop	{r7, pc}

80100778 <ap3216c_read_ir>:
80100778:	b580      	push	{r7, lr}
8010077a:	b084      	sub	sp, #16
8010077c:	af00      	add	r7, sp, #0
8010077e:	6078      	str	r0, [r7, #4]
80100780:	2200      	movs	r2, #0
80100782:	f2c0 221a 	movt	r2, #538	; 0x21a
80100786:	210a      	movs	r1, #10
80100788:	201e      	movs	r0, #30
8010078a:	f7ff fef7 	bl	8010057c <i2c_read_one_byte>
8010078e:	4603      	mov	r3, r0
80100790:	73fb      	strb	r3, [r7, #15]
80100792:	2200      	movs	r2, #0
80100794:	f2c0 221a 	movt	r2, #538	; 0x21a
80100798:	210b      	movs	r1, #11
8010079a:	201e      	movs	r0, #30
8010079c:	f7ff feee 	bl	8010057c <i2c_read_one_byte>
801007a0:	4603      	mov	r3, r0
801007a2:	73bb      	strb	r3, [r7, #14]
801007a4:	f997 300f 	ldrsb.w	r3, [r7, #15]
801007a8:	2b00      	cmp	r3, #0
801007aa:	da03      	bge.n	801007b4 <ap3216c_read_ir+0x3c>
801007ac:	687b      	ldr	r3, [r7, #4]
801007ae:	2200      	movs	r2, #0
801007b0:	801a      	strh	r2, [r3, #0]
801007b2:	e00d      	b.n	801007d0 <ap3216c_read_ir+0x58>
801007b4:	7bbb      	ldrb	r3, [r7, #14]
801007b6:	009b      	lsls	r3, r3, #2
801007b8:	b21a      	sxth	r2, r3
801007ba:	7bfb      	ldrb	r3, [r7, #15]
801007bc:	b21b      	sxth	r3, r3
801007be:	f003 0303 	and.w	r3, r3, #3
801007c2:	b21b      	sxth	r3, r3
801007c4:	4313      	orrs	r3, r2
801007c6:	b21b      	sxth	r3, r3
801007c8:	b29a      	uxth	r2, r3
801007ca:	687b      	ldr	r3, [r7, #4]
801007cc:	801a      	strh	r2, [r3, #0]
801007ce:	bf00      	nop
801007d0:	3710      	adds	r7, #16
801007d2:	46bd      	mov	sp, r7
801007d4:	bd80      	pop	{r7, pc}

801007d6 <ap3216c_read_als>:
801007d6:	b580      	push	{r7, lr}
801007d8:	b084      	sub	sp, #16
801007da:	af00      	add	r7, sp, #0
801007dc:	6078      	str	r0, [r7, #4]
801007de:	2200      	movs	r2, #0
801007e0:	f2c0 221a 	movt	r2, #538	; 0x21a
801007e4:	210c      	movs	r1, #12
801007e6:	201e      	movs	r0, #30
801007e8:	f7ff fec8 	bl	8010057c <i2c_read_one_byte>
801007ec:	4603      	mov	r3, r0
801007ee:	73fb      	strb	r3, [r7, #15]
801007f0:	2200      	movs	r2, #0
801007f2:	f2c0 221a 	movt	r2, #538	; 0x21a
801007f6:	210d      	movs	r1, #13
801007f8:	201e      	movs	r0, #30
801007fa:	f7ff febf 	bl	8010057c <i2c_read_one_byte>
801007fe:	4603      	mov	r3, r0
80100800:	73bb      	strb	r3, [r7, #14]
80100802:	7bbb      	ldrb	r3, [r7, #14]
80100804:	021b      	lsls	r3, r3, #8
80100806:	b21a      	sxth	r2, r3
80100808:	7bfb      	ldrb	r3, [r7, #15]
8010080a:	b21b      	sxth	r3, r3
8010080c:	4313      	orrs	r3, r2
8010080e:	b21b      	sxth	r3, r3
80100810:	b29a      	uxth	r2, r3
80100812:	687b      	ldr	r3, [r7, #4]
80100814:	801a      	strh	r2, [r3, #0]
80100816:	bf00      	nop
80100818:	3710      	adds	r7, #16
8010081a:	46bd      	mov	sp, r7
8010081c:	bd80      	pop	{r7, pc}

8010081e <ap3216c_read_ps>:
8010081e:	b580      	push	{r7, lr}
80100820:	b084      	sub	sp, #16
80100822:	af00      	add	r7, sp, #0
80100824:	6078      	str	r0, [r7, #4]
80100826:	2200      	movs	r2, #0
80100828:	f2c0 221a 	movt	r2, #538	; 0x21a
8010082c:	210e      	movs	r1, #14
8010082e:	201e      	movs	r0, #30
80100830:	f7ff fea4 	bl	8010057c <i2c_read_one_byte>
80100834:	4603      	mov	r3, r0
80100836:	73fb      	strb	r3, [r7, #15]
80100838:	2200      	movs	r2, #0
8010083a:	f2c0 221a 	movt	r2, #538	; 0x21a
8010083e:	210f      	movs	r1, #15
80100840:	201e      	movs	r0, #30
80100842:	f7ff fe9b 	bl	8010057c <i2c_read_one_byte>
80100846:	4603      	mov	r3, r0
80100848:	73bb      	strb	r3, [r7, #14]
8010084a:	7bfb      	ldrb	r3, [r7, #15]
8010084c:	f003 0340 	and.w	r3, r3, #64	; 0x40
80100850:	2b00      	cmp	r3, #0
80100852:	d003      	beq.n	8010085c <ap3216c_read_ps+0x3e>
80100854:	687b      	ldr	r3, [r7, #4]
80100856:	2200      	movs	r2, #0
80100858:	801a      	strh	r2, [r3, #0]
8010085a:	e010      	b.n	8010087e <ap3216c_read_ps+0x60>
8010085c:	7bbb      	ldrb	r3, [r7, #14]
8010085e:	011b      	lsls	r3, r3, #4
80100860:	b21b      	sxth	r3, r3
80100862:	f403 737c 	and.w	r3, r3, #1008	; 0x3f0
80100866:	b21a      	sxth	r2, r3
80100868:	7bfb      	ldrb	r3, [r7, #15]
8010086a:	b21b      	sxth	r3, r3
8010086c:	f003 030f 	and.w	r3, r3, #15
80100870:	b21b      	sxth	r3, r3
80100872:	4313      	orrs	r3, r2
80100874:	b21b      	sxth	r3, r3
80100876:	b29a      	uxth	r2, r3
80100878:	687b      	ldr	r3, [r7, #4]
8010087a:	801a      	strh	r2, [r3, #0]
8010087c:	bf00      	nop
8010087e:	3710      	adds	r7, #16
80100880:	46bd      	mov	sp, r7
80100882:	bd80      	pop	{r7, pc}

80100884 <ap3216c_read_data>:
80100884:	b580      	push	{r7, lr}
80100886:	b084      	sub	sp, #16
80100888:	af00      	add	r7, sp, #0
8010088a:	60f8      	str	r0, [r7, #12]
8010088c:	60b9      	str	r1, [r7, #8]
8010088e:	607a      	str	r2, [r7, #4]
80100890:	68f8      	ldr	r0, [r7, #12]
80100892:	f7ff ff71 	bl	80100778 <ap3216c_read_ir>
80100896:	6878      	ldr	r0, [r7, #4]
80100898:	f7ff ff9d 	bl	801007d6 <ap3216c_read_als>
8010089c:	68b8      	ldr	r0, [r7, #8]
8010089e:	f7ff ffbe 	bl	8010081e <ap3216c_read_ps>
801008a2:	bf00      	nop
801008a4:	3710      	adds	r7, #16
801008a6:	46bd      	mov	sp, r7
801008a8:	bd80      	pop	{r7, pc}

801008aa <delay>:
801008aa:	b480      	push	{r7}
801008ac:	b083      	sub	sp, #12
801008ae:	af00      	add	r7, sp, #0
801008b0:	6078      	str	r0, [r7, #4]
801008b2:	bf00      	nop
801008b4:	687b      	ldr	r3, [r7, #4]
801008b6:	1e5a      	subs	r2, r3, #1
801008b8:	607a      	str	r2, [r7, #4]
801008ba:	2b00      	cmp	r3, #0
801008bc:	d1fa      	bne.n	801008b4 <delay+0xa>
801008be:	bf00      	nop
801008c0:	370c      	adds	r7, #12
801008c2:	46bd      	mov	sp, r7
801008c4:	f85d 7b04 	ldr.w	r7, [sp], #4
801008c8:	4770      	bx	lr

801008ca <main>:
801008ca:	b580      	push	{r7, lr}
801008cc:	b084      	sub	sp, #16
801008ce:	af00      	add	r7, sp, #0
801008d0:	2300      	movs	r3, #0
801008d2:	60fb      	str	r3, [r7, #12]
801008d4:	f000 f844 	bl	80100960 <led_init>
801008d8:	f7ff ff27 	bl	8010072a <ap3216c_init>
801008dc:	4603      	mov	r3, r0
801008de:	60fb      	str	r3, [r7, #12]
801008e0:	68fb      	ldr	r3, [r7, #12]
801008e2:	2b00      	cmp	r3, #0
801008e4:	d012      	beq.n	8010090c <main+0x42>
801008e6:	2001      	movs	r0, #1
801008e8:	f000 f898 	bl	80100a1c <led_ctl>
801008ec:	f248 60a0 	movw	r0, #34464	; 0x86a0
801008f0:	f2c0 0001 	movt	r0, #1
801008f4:	f7ff ffd9 	bl	801008aa <delay>
801008f8:	2000      	movs	r0, #0
801008fa:	f000 f88f 	bl	80100a1c <led_ctl>
801008fe:	f248 60a0 	movw	r0, #34464	; 0x86a0
80100902:	f2c0 0001 	movt	r0, #1
80100906:	f7ff ffd0 	bl	801008aa <delay>
8010090a:	e7ec      	b.n	801008e6 <main+0x1c>
8010090c:	2001      	movs	r0, #1
8010090e:	f000 f885 	bl	80100a1c <led_ctl>
80100912:	f248 60a0 	movw	r0, #34464	; 0x86a0
80100916:	f2c0 0001 	movt	r0, #1
8010091a:	f7ff ffc6 	bl	801008aa <delay>
8010091e:	2000      	movs	r0, #0
80100920:	f000 f87c 	bl	80100a1c <led_ctl>
80100924:	e014      	b.n	80100950 <main+0x86>
80100926:	1dba      	adds	r2, r7, #6
80100928:	f107 0108 	add.w	r1, r7, #8
8010092c:	f107 030a 	add.w	r3, r7, #10
80100930:	4618      	mov	r0, r3
80100932:	f7ff ffa7 	bl	80100884 <ap3216c_read_data>
80100936:	88fb      	ldrh	r3, [r7, #6]
80100938:	2b64      	cmp	r3, #100	; 0x64
8010093a:	d802      	bhi.n	80100942 <main+0x78>
8010093c:	893b      	ldrh	r3, [r7, #8]
8010093e:	2bc7      	cmp	r3, #199	; 0xc7
80100940:	d803      	bhi.n	8010094a <main+0x80>
80100942:	2001      	movs	r0, #1
80100944:	f000 f86a 	bl	80100a1c <led_ctl>
80100948:	e002      	b.n	80100950 <main+0x86>
8010094a:	2000      	movs	r0, #0
8010094c:	f000 f866 	bl	80100a1c <led_ctl>
80100950:	68fb      	ldr	r3, [r7, #12]
80100952:	2b00      	cmp	r3, #0
80100954:	d0e7      	beq.n	80100926 <main+0x5c>
80100956:	2300      	movs	r3, #0
80100958:	4618      	mov	r0, r3
8010095a:	3710      	adds	r7, #16
8010095c:	46bd      	mov	sp, r7
8010095e:	bd80      	pop	{r7, pc}

80100960 <led_init>:
80100960:	b480      	push	{r7}
80100962:	b083      	sub	sp, #12
80100964:	af00      	add	r7, sp, #0
80100966:	f640 2270 	movw	r2, #2672	; 0xa70
8010096a:	f2c8 0210 	movt	r2, #32784	; 0x8010
8010096e:	f244 036c 	movw	r3, #16492	; 0x406c
80100972:	f2c0 230c 	movt	r3, #524	; 0x20c
80100976:	6013      	str	r3, [r2, #0]
80100978:	f640 2274 	movw	r2, #2676	; 0xa74
8010097c:	f2c8 0210 	movt	r2, #32784	; 0x8010
80100980:	2314      	movs	r3, #20
80100982:	f2c0 2329 	movt	r3, #553	; 0x229
80100986:	6013      	str	r3, [r2, #0]
80100988:	f640 2278 	movw	r2, #2680	; 0xa78
8010098c:	f2c8 0210 	movt	r2, #32784	; 0x8010
80100990:	f24c 0304 	movw	r3, #49156	; 0xc004
80100994:	f2c0 230a 	movt	r3, #522	; 0x20a
80100998:	6013      	str	r3, [r2, #0]
8010099a:	f640 227c 	movw	r2, #2684	; 0xa7c
8010099e:	f2c8 0210 	movt	r2, #32784	; 0x8010
801009a2:	f44f 4340 	mov.w	r3, #49152	; 0xc000
801009a6:	f2c0 230a 	movt	r3, #522	; 0x20a
801009aa:	6013      	str	r3, [r2, #0]
801009ac:	f640 2370 	movw	r3, #2672	; 0xa70
801009b0:	f2c8 0310 	movt	r3, #32784	; 0x8010
801009b4:	681a      	ldr	r2, [r3, #0]
801009b6:	f640 2370 	movw	r3, #2672	; 0xa70
801009ba:	f2c8 0310 	movt	r3, #32784	; 0x8010
801009be:	681b      	ldr	r3, [r3, #0]
801009c0:	681b      	ldr	r3, [r3, #0]
801009c2:	f043 4340 	orr.w	r3, r3, #3221225472	; 0xc0000000
801009c6:	6013      	str	r3, [r2, #0]
801009c8:	f640 2374 	movw	r3, #2676	; 0xa74
801009cc:	f2c8 0310 	movt	r3, #32784	; 0x8010
801009d0:	681b      	ldr	r3, [r3, #0]
801009d2:	681b      	ldr	r3, [r3, #0]
801009d4:	607b      	str	r3, [r7, #4]
801009d6:	687b      	ldr	r3, [r7, #4]
801009d8:	f023 030f 	bic.w	r3, r3, #15
801009dc:	607b      	str	r3, [r7, #4]
801009de:	687b      	ldr	r3, [r7, #4]
801009e0:	f043 0305 	orr.w	r3, r3, #5
801009e4:	607b      	str	r3, [r7, #4]
801009e6:	f640 2374 	movw	r3, #2676	; 0xa74
801009ea:	f2c8 0310 	movt	r3, #32784	; 0x8010
801009ee:	681b      	ldr	r3, [r3, #0]
801009f0:	687a      	ldr	r2, [r7, #4]
801009f2:	601a      	str	r2, [r3, #0]
801009f4:	f640 2378 	movw	r3, #2680	; 0xa78
801009f8:	f2c8 0310 	movt	r3, #32784	; 0x8010
801009fc:	681a      	ldr	r2, [r3, #0]
801009fe:	f640 2378 	movw	r3, #2680	; 0xa78
80100a02:	f2c8 0310 	movt	r3, #32784	; 0x8010
80100a06:	681b      	ldr	r3, [r3, #0]
80100a08:	681b      	ldr	r3, [r3, #0]
80100a0a:	f043 0308 	orr.w	r3, r3, #8
80100a0e:	6013      	str	r3, [r2, #0]
80100a10:	bf00      	nop
80100a12:	370c      	adds	r7, #12
80100a14:	46bd      	mov	sp, r7
80100a16:	f85d 7b04 	ldr.w	r7, [sp], #4
80100a1a:	4770      	bx	lr

80100a1c <led_ctl>:
80100a1c:	b480      	push	{r7}
80100a1e:	b083      	sub	sp, #12
80100a20:	af00      	add	r7, sp, #0
80100a22:	6078      	str	r0, [r7, #4]
80100a24:	687b      	ldr	r3, [r7, #4]
80100a26:	2b00      	cmp	r3, #0
80100a28:	d00e      	beq.n	80100a48 <led_ctl+0x2c>
80100a2a:	f640 237c 	movw	r3, #2684	; 0xa7c
80100a2e:	f2c8 0310 	movt	r3, #32784	; 0x8010
80100a32:	681a      	ldr	r2, [r3, #0]
80100a34:	f640 237c 	movw	r3, #2684	; 0xa7c
80100a38:	f2c8 0310 	movt	r3, #32784	; 0x8010
80100a3c:	681b      	ldr	r3, [r3, #0]
80100a3e:	681b      	ldr	r3, [r3, #0]
80100a40:	f023 0308 	bic.w	r3, r3, #8
80100a44:	6013      	str	r3, [r2, #0]
80100a46:	e00d      	b.n	80100a64 <led_ctl+0x48>
80100a48:	f640 237c 	movw	r3, #2684	; 0xa7c
80100a4c:	f2c8 0310 	movt	r3, #32784	; 0x8010
80100a50:	681a      	ldr	r2, [r3, #0]
80100a52:	f640 237c 	movw	r3, #2684	; 0xa7c
80100a56:	f2c8 0310 	movt	r3, #32784	; 0x8010
80100a5a:	681b      	ldr	r3, [r3, #0]
80100a5c:	681b      	ldr	r3, [r3, #0]
80100a5e:	f043 0308 	orr.w	r3, r3, #8
80100a62:	6013      	str	r3, [r2, #0]
80100a64:	bf00      	nop
80100a66:	370c      	adds	r7, #12
80100a68:	46bd      	mov	sp, r7
80100a6a:	f85d 7b04 	ldr.w	r7, [sp], #4
80100a6e:	4770      	bx	lr

Disassembly of section .bss:

80100a70 <__bss_start>:
80100a70:	00000000 	andeq	r0, r0, r0

80100a74 <IOMUXC_SNVS_SW_MUX_CTL_PAD_SNVS_TAMPER3>:
80100a74:	00000000 	andeq	r0, r0, r0

80100a78 <GPIO5_GDIR>:
80100a78:	00000000 	andeq	r0, r0, r0

80100a7c <GPIO5_DR>:
80100a7c:	00000000 	andeq	r0, r0, r0

