
relocate.elf:     file format elf32-littlearm


Disassembly of section .text:

80100000 <_start>:
80100000:	e59fd028 	ldr	sp, [pc, #40]	; 80100030 <clean+0x14>
80100004:	eb000001 	bl	80100010 <clean_bss>
80100008:	fb000070 	blx	801001d2 <main>

8010000c <halt>:
8010000c:	eafffffe 	b	8010000c <halt>

80100010 <clean_bss>:
80100010:	e59f101c 	ldr	r1, [pc, #28]	; 80100034 <clean+0x18>
80100014:	e59f201c 	ldr	r2, [pc, #28]	; 80100038 <clean+0x1c>
80100018:	e3a03000 	mov	r3, #0

8010001c <clean>:
8010001c:	e5c13000 	strb	r3, [r1]
80100020:	e2811001 	add	r1, r1, #1
80100024:	e1510002 	cmp	r1, r2
80100028:	1afffffb 	bne	8010001c <clean>
8010002c:	e1a0f00e 	mov	pc, lr
80100030:	80200000 	eorhi	r0, r0, r0
80100034:	80200014 	eorhi	r0, r0, r4, lsl r0
80100038:	80200025 	eorhi	r0, r0, r5, lsr #32

8010003c <Uart_Init>:
8010003c:	b480      	push	{r7}
8010003e:	af00      	add	r7, sp, #0
80100040:	f240 0214 	movw	r2, #20
80100044:	f2c8 0220 	movt	r2, #32800	; 0x8020
80100048:	2384      	movs	r3, #132	; 0x84
8010004a:	f2c0 230e 	movt	r3, #526	; 0x20e
8010004e:	6013      	str	r3, [r2, #0]
80100050:	f240 0218 	movw	r2, #24
80100054:	f2c8 0220 	movt	r2, #32800	; 0x8020
80100058:	2388      	movs	r3, #136	; 0x88
8010005a:	f2c0 230e 	movt	r3, #526	; 0x20e
8010005e:	6013      	str	r3, [r2, #0]
80100060:	f240 0318 	movw	r3, #24
80100064:	f2c8 0320 	movt	r3, #32800	; 0x8020
80100068:	681b      	ldr	r3, [r3, #0]
8010006a:	2200      	movs	r2, #0
8010006c:	601a      	str	r2, [r3, #0]
8010006e:	f240 0314 	movw	r3, #20
80100072:	f2c8 0320 	movt	r3, #32800	; 0x8020
80100076:	681b      	ldr	r3, [r3, #0]
80100078:	2200      	movs	r2, #0
8010007a:	601a      	str	r2, [r3, #0]
8010007c:	2300      	movs	r3, #0
8010007e:	f2c0 2302 	movt	r3, #514	; 0x202
80100082:	2200      	movs	r2, #0
80100084:	f2c0 2202 	movt	r2, #514	; 0x202
80100088:	f8d2 2080 	ldr.w	r2, [r2, #128]	; 0x80
8010008c:	f042 0201 	orr.w	r2, r2, #1
80100090:	f8c3 2080 	str.w	r2, [r3, #128]	; 0x80
80100094:	2200      	movs	r2, #0
80100096:	f2c0 2202 	movt	r2, #514	; 0x202
8010009a:	2300      	movs	r3, #0
8010009c:	f2c0 2302 	movt	r3, #514	; 0x202
801000a0:	f8d3 3084 	ldr.w	r3, [r3, #132]	; 0x84
801000a4:	f443 4380 	orr.w	r3, r3, #16384	; 0x4000
801000a8:	f043 0326 	orr.w	r3, r3, #38	; 0x26
801000ac:	f8c2 3084 	str.w	r3, [r2, #132]	; 0x84
801000b0:	2300      	movs	r3, #0
801000b2:	f2c0 2302 	movt	r3, #514	; 0x202
801000b6:	2200      	movs	r2, #0
801000b8:	f2c0 2202 	movt	r2, #514	; 0x202
801000bc:	f8d2 2088 	ldr.w	r2, [r2, #136]	; 0x88
801000c0:	f042 0204 	orr.w	r2, r2, #4
801000c4:	f8c3 2088 	str.w	r2, [r3, #136]	; 0x88
801000c8:	2300      	movs	r3, #0
801000ca:	f2c0 2302 	movt	r3, #514	; 0x202
801000ce:	f44f 7220 	mov.w	r2, #640	; 0x280
801000d2:	f8c3 2090 	str.w	r2, [r3, #144]	; 0x90
801000d6:	2300      	movs	r3, #0
801000d8:	f2c0 2302 	movt	r3, #514	; 0x202
801000dc:	2247      	movs	r2, #71	; 0x47
801000de:	f8c3 20a4 	str.w	r2, [r3, #164]	; 0xa4
801000e2:	2300      	movs	r3, #0
801000e4:	f2c0 2302 	movt	r3, #514	; 0x202
801000e8:	f640 4234 	movw	r2, #3124	; 0xc34
801000ec:	f8c3 20a8 	str.w	r2, [r3, #168]	; 0xa8
801000f0:	2300      	movs	r3, #0
801000f2:	f2c0 2302 	movt	r3, #514	; 0x202
801000f6:	2200      	movs	r2, #0
801000f8:	f2c0 2202 	movt	r2, #514	; 0x202
801000fc:	f8d2 2080 	ldr.w	r2, [r2, #128]	; 0x80
80100100:	f042 0201 	orr.w	r2, r2, #1
80100104:	f8c3 2080 	str.w	r2, [r3, #128]	; 0x80
80100108:	bf00      	nop
8010010a:	46bd      	mov	sp, r7
8010010c:	f85d 7b04 	ldr.w	r7, [sp], #4
80100110:	4770      	bx	lr

80100112 <PutChar>:
80100112:	b480      	push	{r7}
80100114:	b083      	sub	sp, #12
80100116:	af00      	add	r7, sp, #0
80100118:	6078      	str	r0, [r7, #4]
8010011a:	bf00      	nop
8010011c:	2300      	movs	r3, #0
8010011e:	f2c0 2302 	movt	r3, #514	; 0x202
80100122:	f8d3 3098 	ldr.w	r3, [r3, #152]	; 0x98
80100126:	f003 0308 	and.w	r3, r3, #8
8010012a:	2b00      	cmp	r3, #0
8010012c:	d0f6      	beq.n	8010011c <PutChar+0xa>
8010012e:	2300      	movs	r3, #0
80100130:	f2c0 2302 	movt	r3, #514	; 0x202
80100134:	687a      	ldr	r2, [r7, #4]
80100136:	b2d2      	uxtb	r2, r2
80100138:	641a      	str	r2, [r3, #64]	; 0x40
8010013a:	bf00      	nop
8010013c:	370c      	adds	r7, #12
8010013e:	46bd      	mov	sp, r7
80100140:	f85d 7b04 	ldr.w	r7, [sp], #4
80100144:	4770      	bx	lr

80100146 <GetChar>:
80100146:	b480      	push	{r7}
80100148:	af00      	add	r7, sp, #0
8010014a:	bf00      	nop
8010014c:	2300      	movs	r3, #0
8010014e:	f2c0 2302 	movt	r3, #514	; 0x202
80100152:	f8d3 3098 	ldr.w	r3, [r3, #152]	; 0x98
80100156:	f003 0301 	and.w	r3, r3, #1
8010015a:	2b00      	cmp	r3, #0
8010015c:	d0f6      	beq.n	8010014c <GetChar+0x6>
8010015e:	2300      	movs	r3, #0
80100160:	f2c0 2302 	movt	r3, #514	; 0x202
80100164:	681b      	ldr	r3, [r3, #0]
80100166:	b2db      	uxtb	r3, r3
80100168:	4618      	mov	r0, r3
8010016a:	46bd      	mov	sp, r7
8010016c:	f85d 7b04 	ldr.w	r7, [sp], #4
80100170:	4770      	bx	lr

80100172 <PutStr>:
80100172:	b580      	push	{r7, lr}
80100174:	b082      	sub	sp, #8
80100176:	af00      	add	r7, sp, #0
80100178:	6078      	str	r0, [r7, #4]
8010017a:	e007      	b.n	8010018c <PutStr+0x1a>
8010017c:	687b      	ldr	r3, [r7, #4]
8010017e:	781b      	ldrb	r3, [r3, #0]
80100180:	4618      	mov	r0, r3
80100182:	f7ff ffc6 	bl	80100112 <PutChar>
80100186:	687b      	ldr	r3, [r7, #4]
80100188:	3301      	adds	r3, #1
8010018a:	607b      	str	r3, [r7, #4]
8010018c:	687b      	ldr	r3, [r7, #4]
8010018e:	781b      	ldrb	r3, [r3, #0]
80100190:	2b00      	cmp	r3, #0
80100192:	d1f3      	bne.n	8010017c <PutStr+0xa>
80100194:	bf00      	nop
80100196:	3708      	adds	r7, #8
80100198:	46bd      	mov	sp, r7
8010019a:	bd80      	pop	{r7, pc}

8010019c <raise>:
8010019c:	b480      	push	{r7}
8010019e:	b083      	sub	sp, #12
801001a0:	af00      	add	r7, sp, #0
801001a2:	6078      	str	r0, [r7, #4]
801001a4:	2300      	movs	r3, #0
801001a6:	4618      	mov	r0, r3
801001a8:	370c      	adds	r7, #12
801001aa:	46bd      	mov	sp, r7
801001ac:	f85d 7b04 	ldr.w	r7, [sp], #4
801001b0:	4770      	bx	lr

801001b2 <delay>:
801001b2:	b480      	push	{r7}
801001b4:	b083      	sub	sp, #12
801001b6:	af00      	add	r7, sp, #0
801001b8:	6078      	str	r0, [r7, #4]
801001ba:	bf00      	nop
801001bc:	687b      	ldr	r3, [r7, #4]
801001be:	1e5a      	subs	r2, r3, #1
801001c0:	607a      	str	r2, [r7, #4]
801001c2:	2b00      	cmp	r3, #0
801001c4:	d1fa      	bne.n	801001bc <delay+0xa>
801001c6:	bf00      	nop
801001c8:	370c      	adds	r7, #12
801001ca:	46bd      	mov	sp, r7
801001cc:	f85d 7b04 	ldr.w	r7, [sp], #4
801001d0:	4770      	bx	lr

801001d2 <main>:
801001d2:	b580      	push	{r7, lr}
801001d4:	af00      	add	r7, sp, #0
801001d6:	f7ff ff31 	bl	8010003c <Uart_Init>
801001da:	f240 031c 	movw	r3, #28
801001de:	f2c8 0320 	movt	r3, #32800	; 0x8020
801001e2:	681b      	ldr	r3, [r3, #0]
801001e4:	4619      	mov	r1, r3
801001e6:	f640 0068 	movw	r0, #2152	; 0x868
801001ea:	f2c8 0010 	movt	r0, #32784	; 0x8010
801001ee:	f000 f963 	bl	801004b8 <printf>
801001f2:	f240 0320 	movw	r3, #32
801001f6:	f2c8 0320 	movt	r3, #32800	; 0x8020
801001fa:	681b      	ldr	r3, [r3, #0]
801001fc:	4619      	mov	r1, r3
801001fe:	f640 007c 	movw	r0, #2172	; 0x87c
80100202:	f2c8 0010 	movt	r0, #32784	; 0x8010
80100206:	f000 f957 	bl	801004b8 <printf>
8010020a:	2300      	movs	r3, #0
8010020c:	4618      	mov	r0, r3
8010020e:	bd80      	pop	{r7, pc}

80100210 <outc>:
80100210:	b580      	push	{r7, lr}
80100212:	b082      	sub	sp, #8
80100214:	af00      	add	r7, sp, #0
80100216:	6078      	str	r0, [r7, #4]
80100218:	6878      	ldr	r0, [r7, #4]
8010021a:	f7ff ff7a 	bl	80100112 <PutChar>
8010021e:	2300      	movs	r3, #0
80100220:	4618      	mov	r0, r3
80100222:	3708      	adds	r7, #8
80100224:	46bd      	mov	sp, r7
80100226:	bd80      	pop	{r7, pc}

80100228 <outs>:
80100228:	b580      	push	{r7, lr}
8010022a:	b082      	sub	sp, #8
8010022c:	af00      	add	r7, sp, #0
8010022e:	6078      	str	r0, [r7, #4]
80100230:	e006      	b.n	80100240 <outs+0x18>
80100232:	687b      	ldr	r3, [r7, #4]
80100234:	1c5a      	adds	r2, r3, #1
80100236:	607a      	str	r2, [r7, #4]
80100238:	781b      	ldrb	r3, [r3, #0]
8010023a:	4618      	mov	r0, r3
8010023c:	f7ff ff69 	bl	80100112 <PutChar>
80100240:	687b      	ldr	r3, [r7, #4]
80100242:	781b      	ldrb	r3, [r3, #0]
80100244:	2b00      	cmp	r3, #0
80100246:	d1f4      	bne.n	80100232 <outs+0xa>
80100248:	2300      	movs	r3, #0
8010024a:	4618      	mov	r0, r3
8010024c:	3708      	adds	r7, #8
8010024e:	46bd      	mov	sp, r7
80100250:	bd80      	pop	{r7, pc}

80100252 <out_num>:
80100252:	b580      	push	{r7, lr}
80100254:	b098      	sub	sp, #96	; 0x60
80100256:	af00      	add	r7, sp, #0
80100258:	60f8      	str	r0, [r7, #12]
8010025a:	60b9      	str	r1, [r7, #8]
8010025c:	603b      	str	r3, [r7, #0]
8010025e:	4613      	mov	r3, r2
80100260:	71fb      	strb	r3, [r7, #7]
80100262:	2300      	movs	r3, #0
80100264:	65fb      	str	r3, [r7, #92]	; 0x5c
80100266:	f107 0310 	add.w	r3, r7, #16
8010026a:	3340      	adds	r3, #64	; 0x40
8010026c:	65bb      	str	r3, [r7, #88]	; 0x58
8010026e:	2300      	movs	r3, #0
80100270:	657b      	str	r3, [r7, #84]	; 0x54
80100272:	2300      	movs	r3, #0
80100274:	653b      	str	r3, [r7, #80]	; 0x50
80100276:	6dbb      	ldr	r3, [r7, #88]	; 0x58
80100278:	3b01      	subs	r3, #1
8010027a:	65bb      	str	r3, [r7, #88]	; 0x58
8010027c:	6dbb      	ldr	r3, [r7, #88]	; 0x58
8010027e:	2200      	movs	r2, #0
80100280:	701a      	strb	r2, [r3, #0]
80100282:	68fb      	ldr	r3, [r7, #12]
80100284:	2b00      	cmp	r3, #0
80100286:	da03      	bge.n	80100290 <out_num+0x3e>
80100288:	68fb      	ldr	r3, [r7, #12]
8010028a:	425b      	negs	r3, r3
8010028c:	65fb      	str	r3, [r7, #92]	; 0x5c
8010028e:	e001      	b.n	80100294 <out_num+0x42>
80100290:	68fb      	ldr	r3, [r7, #12]
80100292:	65fb      	str	r3, [r7, #92]	; 0x5c
80100294:	6dbb      	ldr	r3, [r7, #88]	; 0x58
80100296:	3b01      	subs	r3, #1
80100298:	65bb      	str	r3, [r7, #88]	; 0x58
8010029a:	68ba      	ldr	r2, [r7, #8]
8010029c:	6dfb      	ldr	r3, [r7, #92]	; 0x5c
8010029e:	4611      	mov	r1, r2
801002a0:	4618      	mov	r0, r3
801002a2:	f000 facb 	bl	8010083c <__aeabi_uidivmod>
801002a6:	460b      	mov	r3, r1
801002a8:	461a      	mov	r2, r3
801002aa:	f240 0304 	movw	r3, #4
801002ae:	f2c8 0320 	movt	r3, #32800	; 0x8020
801002b2:	5c9a      	ldrb	r2, [r3, r2]
801002b4:	6dbb      	ldr	r3, [r7, #88]	; 0x58
801002b6:	701a      	strb	r2, [r3, #0]
801002b8:	6d7b      	ldr	r3, [r7, #84]	; 0x54
801002ba:	3301      	adds	r3, #1
801002bc:	657b      	str	r3, [r7, #84]	; 0x54
801002be:	68bb      	ldr	r3, [r7, #8]
801002c0:	4619      	mov	r1, r3
801002c2:	6df8      	ldr	r0, [r7, #92]	; 0x5c
801002c4:	f000 f98c 	bl	801005e0 <__aeabi_uidiv>
801002c8:	4603      	mov	r3, r0
801002ca:	65fb      	str	r3, [r7, #92]	; 0x5c
801002cc:	6dfb      	ldr	r3, [r7, #92]	; 0x5c
801002ce:	2b00      	cmp	r3, #0
801002d0:	d1e0      	bne.n	80100294 <out_num+0x42>
801002d2:	683b      	ldr	r3, [r7, #0]
801002d4:	2b00      	cmp	r3, #0
801002d6:	d014      	beq.n	80100302 <out_num+0xb0>
801002d8:	6d7a      	ldr	r2, [r7, #84]	; 0x54
801002da:	683b      	ldr	r3, [r7, #0]
801002dc:	429a      	cmp	r2, r3
801002de:	da10      	bge.n	80100302 <out_num+0xb0>
801002e0:	683a      	ldr	r2, [r7, #0]
801002e2:	6d7b      	ldr	r3, [r7, #84]	; 0x54
801002e4:	1ad3      	subs	r3, r2, r3
801002e6:	653b      	str	r3, [r7, #80]	; 0x50
801002e8:	e008      	b.n	801002fc <out_num+0xaa>
801002ea:	6dbb      	ldr	r3, [r7, #88]	; 0x58
801002ec:	3b01      	subs	r3, #1
801002ee:	65bb      	str	r3, [r7, #88]	; 0x58
801002f0:	6dbb      	ldr	r3, [r7, #88]	; 0x58
801002f2:	79fa      	ldrb	r2, [r7, #7]
801002f4:	701a      	strb	r2, [r3, #0]
801002f6:	6d3b      	ldr	r3, [r7, #80]	; 0x50
801002f8:	3b01      	subs	r3, #1
801002fa:	653b      	str	r3, [r7, #80]	; 0x50
801002fc:	6d3b      	ldr	r3, [r7, #80]	; 0x50
801002fe:	2b00      	cmp	r3, #0
80100300:	d1f3      	bne.n	801002ea <out_num+0x98>
80100302:	68fb      	ldr	r3, [r7, #12]
80100304:	2b00      	cmp	r3, #0
80100306:	da05      	bge.n	80100314 <out_num+0xc2>
80100308:	6dbb      	ldr	r3, [r7, #88]	; 0x58
8010030a:	3b01      	subs	r3, #1
8010030c:	65bb      	str	r3, [r7, #88]	; 0x58
8010030e:	6dbb      	ldr	r3, [r7, #88]	; 0x58
80100310:	222d      	movs	r2, #45	; 0x2d
80100312:	701a      	strb	r2, [r3, #0]
80100314:	6db8      	ldr	r0, [r7, #88]	; 0x58
80100316:	f7ff ff87 	bl	80100228 <outs>
8010031a:	4603      	mov	r3, r0
8010031c:	4618      	mov	r0, r3
8010031e:	3760      	adds	r7, #96	; 0x60
80100320:	46bd      	mov	sp, r7
80100322:	bd80      	pop	{r7, pc}

80100324 <my_vprintf>:
80100324:	b580      	push	{r7, lr}
80100326:	b084      	sub	sp, #16
80100328:	af00      	add	r7, sp, #0
8010032a:	6078      	str	r0, [r7, #4]
8010032c:	6039      	str	r1, [r7, #0]
8010032e:	2320      	movs	r3, #32
80100330:	73fb      	strb	r3, [r7, #15]
80100332:	2300      	movs	r3, #0
80100334:	60bb      	str	r3, [r7, #8]
80100336:	e0b5      	b.n	801004a4 <my_vprintf+0x180>
80100338:	687b      	ldr	r3, [r7, #4]
8010033a:	781b      	ldrb	r3, [r3, #0]
8010033c:	2b25      	cmp	r3, #37	; 0x25
8010033e:	d005      	beq.n	8010034c <my_vprintf+0x28>
80100340:	687b      	ldr	r3, [r7, #4]
80100342:	781b      	ldrb	r3, [r3, #0]
80100344:	4618      	mov	r0, r3
80100346:	f7ff ff63 	bl	80100210 <outc>
8010034a:	e0a8      	b.n	8010049e <my_vprintf+0x17a>
8010034c:	2320      	movs	r3, #32
8010034e:	73fb      	strb	r3, [r7, #15]
80100350:	2300      	movs	r3, #0
80100352:	60bb      	str	r3, [r7, #8]
80100354:	687b      	ldr	r3, [r7, #4]
80100356:	3301      	adds	r3, #1
80100358:	607b      	str	r3, [r7, #4]
8010035a:	687b      	ldr	r3, [r7, #4]
8010035c:	781b      	ldrb	r3, [r3, #0]
8010035e:	2b30      	cmp	r3, #48	; 0x30
80100360:	d114      	bne.n	8010038c <my_vprintf+0x68>
80100362:	2330      	movs	r3, #48	; 0x30
80100364:	73fb      	strb	r3, [r7, #15]
80100366:	687b      	ldr	r3, [r7, #4]
80100368:	3301      	adds	r3, #1
8010036a:	607b      	str	r3, [r7, #4]
8010036c:	e00e      	b.n	8010038c <my_vprintf+0x68>
8010036e:	68ba      	ldr	r2, [r7, #8]
80100370:	4613      	mov	r3, r2
80100372:	009b      	lsls	r3, r3, #2
80100374:	4413      	add	r3, r2
80100376:	005b      	lsls	r3, r3, #1
80100378:	60bb      	str	r3, [r7, #8]
8010037a:	687b      	ldr	r3, [r7, #4]
8010037c:	781b      	ldrb	r3, [r3, #0]
8010037e:	3b30      	subs	r3, #48	; 0x30
80100380:	68ba      	ldr	r2, [r7, #8]
80100382:	4413      	add	r3, r2
80100384:	60bb      	str	r3, [r7, #8]
80100386:	687b      	ldr	r3, [r7, #4]
80100388:	3301      	adds	r3, #1
8010038a:	607b      	str	r3, [r7, #4]
8010038c:	687b      	ldr	r3, [r7, #4]
8010038e:	781b      	ldrb	r3, [r3, #0]
80100390:	2b2f      	cmp	r3, #47	; 0x2f
80100392:	d903      	bls.n	8010039c <my_vprintf+0x78>
80100394:	687b      	ldr	r3, [r7, #4]
80100396:	781b      	ldrb	r3, [r3, #0]
80100398:	2b39      	cmp	r3, #57	; 0x39
8010039a:	d9e8      	bls.n	8010036e <my_vprintf+0x4a>
8010039c:	687b      	ldr	r3, [r7, #4]
8010039e:	781b      	ldrb	r3, [r3, #0]
801003a0:	3b63      	subs	r3, #99	; 0x63
801003a2:	2b15      	cmp	r3, #21
801003a4:	d875      	bhi.n	80100492 <my_vprintf+0x16e>
801003a6:	a201      	add	r2, pc, #4	; (adr r2, 801003ac <my_vprintf+0x88>)
801003a8:	f852 f023 	ldr.w	pc, [r2, r3, lsl #2]
801003ac:	8010046b 	andshi	r0, r0, fp, ror #8
801003b0:	80100405 	andshi	r0, r0, r5, lsl #8
801003b4:	80100493 	mulshi	r0, r3, r4
801003b8:	80100493 	mulshi	r0, r3, r4
801003bc:	80100493 	mulshi	r0, r3, r4
801003c0:	80100493 	mulshi	r0, r3, r4
801003c4:	80100493 	mulshi	r0, r3, r4
801003c8:	80100493 	mulshi	r0, r3, r4
801003cc:	80100493 	mulshi	r0, r3, r4
801003d0:	80100493 	mulshi	r0, r3, r4
801003d4:	80100493 	mulshi	r0, r3, r4
801003d8:	80100493 	mulshi	r0, r3, r4
801003dc:	8010041d 	andshi	r0, r0, sp, lsl r4
801003e0:	80100493 	mulshi	r0, r3, r4
801003e4:	80100493 	mulshi	r0, r3, r4
801003e8:	80100493 	mulshi	r0, r3, r4
801003ec:	8010047f 	andshi	r0, r0, pc, ror r4
801003f0:	80100493 	mulshi	r0, r3, r4
801003f4:	80100437 	andshi	r0, r0, r7, lsr r4
801003f8:	80100493 	mulshi	r0, r3, r4
801003fc:	80100493 	mulshi	r0, r3, r4
80100400:	80100451 	andshi	r0, r0, r1, asr r4
80100404:	683b      	ldr	r3, [r7, #0]
80100406:	3304      	adds	r3, #4
80100408:	603b      	str	r3, [r7, #0]
8010040a:	683b      	ldr	r3, [r7, #0]
8010040c:	3b04      	subs	r3, #4
8010040e:	6818      	ldr	r0, [r3, #0]
80100410:	7bfa      	ldrb	r2, [r7, #15]
80100412:	68bb      	ldr	r3, [r7, #8]
80100414:	210a      	movs	r1, #10
80100416:	f7ff ff1c 	bl	80100252 <out_num>
8010041a:	e040      	b.n	8010049e <my_vprintf+0x17a>
8010041c:	683b      	ldr	r3, [r7, #0]
8010041e:	3304      	adds	r3, #4
80100420:	603b      	str	r3, [r7, #0]
80100422:	683b      	ldr	r3, [r7, #0]
80100424:	3b04      	subs	r3, #4
80100426:	681b      	ldr	r3, [r3, #0]
80100428:	4618      	mov	r0, r3
8010042a:	7bfa      	ldrb	r2, [r7, #15]
8010042c:	68bb      	ldr	r3, [r7, #8]
8010042e:	2108      	movs	r1, #8
80100430:	f7ff ff0f 	bl	80100252 <out_num>
80100434:	e033      	b.n	8010049e <my_vprintf+0x17a>
80100436:	683b      	ldr	r3, [r7, #0]
80100438:	3304      	adds	r3, #4
8010043a:	603b      	str	r3, [r7, #0]
8010043c:	683b      	ldr	r3, [r7, #0]
8010043e:	3b04      	subs	r3, #4
80100440:	681b      	ldr	r3, [r3, #0]
80100442:	4618      	mov	r0, r3
80100444:	7bfa      	ldrb	r2, [r7, #15]
80100446:	68bb      	ldr	r3, [r7, #8]
80100448:	210a      	movs	r1, #10
8010044a:	f7ff ff02 	bl	80100252 <out_num>
8010044e:	e026      	b.n	8010049e <my_vprintf+0x17a>
80100450:	683b      	ldr	r3, [r7, #0]
80100452:	3304      	adds	r3, #4
80100454:	603b      	str	r3, [r7, #0]
80100456:	683b      	ldr	r3, [r7, #0]
80100458:	3b04      	subs	r3, #4
8010045a:	681b      	ldr	r3, [r3, #0]
8010045c:	4618      	mov	r0, r3
8010045e:	7bfa      	ldrb	r2, [r7, #15]
80100460:	68bb      	ldr	r3, [r7, #8]
80100462:	2110      	movs	r1, #16
80100464:	f7ff fef5 	bl	80100252 <out_num>
80100468:	e019      	b.n	8010049e <my_vprintf+0x17a>
8010046a:	683b      	ldr	r3, [r7, #0]
8010046c:	3304      	adds	r3, #4
8010046e:	603b      	str	r3, [r7, #0]
80100470:	683b      	ldr	r3, [r7, #0]
80100472:	3b04      	subs	r3, #4
80100474:	681b      	ldr	r3, [r3, #0]
80100476:	4618      	mov	r0, r3
80100478:	f7ff feca 	bl	80100210 <outc>
8010047c:	e00f      	b.n	8010049e <my_vprintf+0x17a>
8010047e:	683b      	ldr	r3, [r7, #0]
80100480:	3304      	adds	r3, #4
80100482:	603b      	str	r3, [r7, #0]
80100484:	683b      	ldr	r3, [r7, #0]
80100486:	3b04      	subs	r3, #4
80100488:	681b      	ldr	r3, [r3, #0]
8010048a:	4618      	mov	r0, r3
8010048c:	f7ff fecc 	bl	80100228 <outs>
80100490:	e005      	b.n	8010049e <my_vprintf+0x17a>
80100492:	687b      	ldr	r3, [r7, #4]
80100494:	781b      	ldrb	r3, [r3, #0]
80100496:	4618      	mov	r0, r3
80100498:	f7ff feba 	bl	80100210 <outc>
8010049c:	bf00      	nop
8010049e:	687b      	ldr	r3, [r7, #4]
801004a0:	3301      	adds	r3, #1
801004a2:	607b      	str	r3, [r7, #4]
801004a4:	687b      	ldr	r3, [r7, #4]
801004a6:	781b      	ldrb	r3, [r3, #0]
801004a8:	2b00      	cmp	r3, #0
801004aa:	f47f af45 	bne.w	80100338 <my_vprintf+0x14>
801004ae:	2300      	movs	r3, #0
801004b0:	4618      	mov	r0, r3
801004b2:	3710      	adds	r7, #16
801004b4:	46bd      	mov	sp, r7
801004b6:	bd80      	pop	{r7, pc}

801004b8 <printf>:
801004b8:	b40f      	push	{r0, r1, r2, r3}
801004ba:	b580      	push	{r7, lr}
801004bc:	b082      	sub	sp, #8
801004be:	af00      	add	r7, sp, #0
801004c0:	f107 0314 	add.w	r3, r7, #20
801004c4:	607b      	str	r3, [r7, #4]
801004c6:	693b      	ldr	r3, [r7, #16]
801004c8:	6879      	ldr	r1, [r7, #4]
801004ca:	4618      	mov	r0, r3
801004cc:	f7ff ff2a 	bl	80100324 <my_vprintf>
801004d0:	2300      	movs	r3, #0
801004d2:	607b      	str	r3, [r7, #4]
801004d4:	2300      	movs	r3, #0
801004d6:	4618      	mov	r0, r3
801004d8:	3708      	adds	r7, #8
801004da:	46bd      	mov	sp, r7
801004dc:	e8bd 4080 	ldmia.w	sp!, {r7, lr}
801004e0:	b004      	add	sp, #16
801004e2:	4770      	bx	lr

801004e4 <my_printf_test>:
801004e4:	b580      	push	{r7, lr}
801004e6:	af00      	add	r7, sp, #0
801004e8:	f640 0090 	movw	r0, #2192	; 0x890
801004ec:	f2c8 0010 	movt	r0, #32784	; 0x8010
801004f0:	f7ff ffe2 	bl	801004b8 <printf>
801004f4:	2261      	movs	r2, #97	; 0x61
801004f6:	2141      	movs	r1, #65	; 0x41
801004f8:	f640 00bc 	movw	r0, #2236	; 0x8bc
801004fc:	f2c8 0010 	movt	r0, #32784	; 0x8010
80100500:	f7ff ffda 	bl	801004b8 <printf>
80100504:	f24e 2140 	movw	r1, #57920	; 0xe240
80100508:	f2c0 0101 	movt	r1, #1
8010050c:	f640 00dc 	movw	r0, #2268	; 0x8dc
80100510:	f2c8 0010 	movt	r0, #32784	; 0x8010
80100514:	f7ff ffd0 	bl	801004b8 <printf>
80100518:	f44f 51ee 	mov.w	r1, #7616	; 0x1dc0
8010051c:	f6cf 71fe 	movt	r1, #65534	; 0xfffe
80100520:	f640 00dc 	movw	r0, #2268	; 0x8dc
80100524:	f2c8 0010 	movt	r0, #32784	; 0x8010
80100528:	f7ff ffc6 	bl	801004b8 <printf>
8010052c:	f245 51aa 	movw	r1, #21930	; 0x55aa
80100530:	f2c5 51aa 	movt	r1, #21930	; 0x55aa
80100534:	f640 00f8 	movw	r0, #2296	; 0x8f8
80100538:	f2c8 0010 	movt	r0, #32784	; 0x8010
8010053c:	f7ff ffbc 	bl	801004b8 <printf>
80100540:	f640 1114 	movw	r1, #2324	; 0x914
80100544:	f2c8 0110 	movt	r1, #32784	; 0x8010
80100548:	f640 1024 	movw	r0, #2340	; 0x924
8010054c:	f2c8 0010 	movt	r0, #32784	; 0x8010
80100550:	f7ff ffb2 	bl	801004b8 <printf>
80100554:	f243 0139 	movw	r1, #12345	; 0x3039
80100558:	f640 1040 	movw	r0, #2368	; 0x940
8010055c:	f2c8 0010 	movt	r0, #32784	; 0x8010
80100560:	f7ff ffaa 	bl	801004b8 <printf>
80100564:	f243 0139 	movw	r1, #12345	; 0x3039
80100568:	f640 104c 	movw	r0, #2380	; 0x94c
8010056c:	f2c8 0010 	movt	r0, #32784	; 0x8010
80100570:	f7ff ffa2 	bl	801004b8 <printf>
80100574:	f242 3145 	movw	r1, #9029	; 0x2345
80100578:	f2c0 0101 	movt	r1, #1
8010057c:	f640 1058 	movw	r0, #2392	; 0x958
80100580:	f2c8 0010 	movt	r0, #32784	; 0x8010
80100584:	f7ff ff98 	bl	801004b8 <printf>
80100588:	f242 3145 	movw	r1, #9029	; 0x2345
8010058c:	f2c0 0101 	movt	r1, #1
80100590:	f640 1068 	movw	r0, #2408	; 0x968
80100594:	f2c8 0010 	movt	r0, #32784	; 0x8010
80100598:	f7ff ff8e 	bl	801004b8 <printf>
8010059c:	2101      	movs	r1, #1
8010059e:	f640 1074 	movw	r0, #2420	; 0x974
801005a2:	f2c8 0010 	movt	r0, #32784	; 0x8010
801005a6:	f7ff ff87 	bl	801004b8 <printf>
801005aa:	2101      	movs	r1, #1
801005ac:	f640 1084 	movw	r0, #2436	; 0x984
801005b0:	f2c8 0010 	movt	r0, #32784	; 0x8010
801005b4:	f7ff ff80 	bl	801004b8 <printf>
801005b8:	2101      	movs	r1, #1
801005ba:	f640 1090 	movw	r0, #2448	; 0x990
801005be:	f2c8 0010 	movt	r0, #32784	; 0x8010
801005c2:	f7ff ff79 	bl	801004b8 <printf>
801005c6:	2101      	movs	r1, #1
801005c8:	f640 109c 	movw	r0, #2460	; 0x99c
801005cc:	f2c8 0010 	movt	r0, #32784	; 0x8010
801005d0:	f7ff ff72 	bl	801004b8 <printf>
801005d4:	2300      	movs	r3, #0
801005d6:	4618      	mov	r0, r3
801005d8:	bd80      	pop	{r7, pc}
801005da:	bf00      	nop
801005dc:	0000      	movs	r0, r0
	...

801005e0 <__aeabi_uidiv>:
801005e0:	1e4a      	subs	r2, r1, #1
801005e2:	bf08      	it	eq
801005e4:	4770      	bxeq	lr
801005e6:	f0c0 8124 	bcc.w	80100832 <__aeabi_uidiv+0x252>
801005ea:	4288      	cmp	r0, r1
801005ec:	f240 8116 	bls.w	8010081c <__aeabi_uidiv+0x23c>
801005f0:	4211      	tst	r1, r2
801005f2:	f000 8117 	beq.w	80100824 <__aeabi_uidiv+0x244>
801005f6:	fab0 f380 	clz	r3, r0
801005fa:	fab1 f281 	clz	r2, r1
801005fe:	eba2 0303 	sub.w	r3, r2, r3
80100602:	f1c3 031f 	rsb	r3, r3, #31
80100606:	a204      	add	r2, pc, #16	; (adr r2, 80100618 <__aeabi_uidiv+0x38>)
80100608:	eb02 1303 	add.w	r3, r2, r3, lsl #4
8010060c:	f04f 0200 	mov.w	r2, #0
80100610:	469f      	mov	pc, r3
80100612:	bf00      	nop
80100614:	f3af 8000 	nop.w
80100618:	ebb0 7fc1 	cmp.w	r0, r1, lsl #31
8010061c:	bf00      	nop
8010061e:	eb42 0202 	adc.w	r2, r2, r2
80100622:	bf28      	it	cs
80100624:	eba0 70c1 	subcs.w	r0, r0, r1, lsl #31
80100628:	ebb0 7f81 	cmp.w	r0, r1, lsl #30
8010062c:	bf00      	nop
8010062e:	eb42 0202 	adc.w	r2, r2, r2
80100632:	bf28      	it	cs
80100634:	eba0 7081 	subcs.w	r0, r0, r1, lsl #30
80100638:	ebb0 7f41 	cmp.w	r0, r1, lsl #29
8010063c:	bf00      	nop
8010063e:	eb42 0202 	adc.w	r2, r2, r2
80100642:	bf28      	it	cs
80100644:	eba0 7041 	subcs.w	r0, r0, r1, lsl #29
80100648:	ebb0 7f01 	cmp.w	r0, r1, lsl #28
8010064c:	bf00      	nop
8010064e:	eb42 0202 	adc.w	r2, r2, r2
80100652:	bf28      	it	cs
80100654:	eba0 7001 	subcs.w	r0, r0, r1, lsl #28
80100658:	ebb0 6fc1 	cmp.w	r0, r1, lsl #27
8010065c:	bf00      	nop
8010065e:	eb42 0202 	adc.w	r2, r2, r2
80100662:	bf28      	it	cs
80100664:	eba0 60c1 	subcs.w	r0, r0, r1, lsl #27
80100668:	ebb0 6f81 	cmp.w	r0, r1, lsl #26
8010066c:	bf00      	nop
8010066e:	eb42 0202 	adc.w	r2, r2, r2
80100672:	bf28      	it	cs
80100674:	eba0 6081 	subcs.w	r0, r0, r1, lsl #26
80100678:	ebb0 6f41 	cmp.w	r0, r1, lsl #25
8010067c:	bf00      	nop
8010067e:	eb42 0202 	adc.w	r2, r2, r2
80100682:	bf28      	it	cs
80100684:	eba0 6041 	subcs.w	r0, r0, r1, lsl #25
80100688:	ebb0 6f01 	cmp.w	r0, r1, lsl #24
8010068c:	bf00      	nop
8010068e:	eb42 0202 	adc.w	r2, r2, r2
80100692:	bf28      	it	cs
80100694:	eba0 6001 	subcs.w	r0, r0, r1, lsl #24
80100698:	ebb0 5fc1 	cmp.w	r0, r1, lsl #23
8010069c:	bf00      	nop
8010069e:	eb42 0202 	adc.w	r2, r2, r2
801006a2:	bf28      	it	cs
801006a4:	eba0 50c1 	subcs.w	r0, r0, r1, lsl #23
801006a8:	ebb0 5f81 	cmp.w	r0, r1, lsl #22
801006ac:	bf00      	nop
801006ae:	eb42 0202 	adc.w	r2, r2, r2
801006b2:	bf28      	it	cs
801006b4:	eba0 5081 	subcs.w	r0, r0, r1, lsl #22
801006b8:	ebb0 5f41 	cmp.w	r0, r1, lsl #21
801006bc:	bf00      	nop
801006be:	eb42 0202 	adc.w	r2, r2, r2
801006c2:	bf28      	it	cs
801006c4:	eba0 5041 	subcs.w	r0, r0, r1, lsl #21
801006c8:	ebb0 5f01 	cmp.w	r0, r1, lsl #20
801006cc:	bf00      	nop
801006ce:	eb42 0202 	adc.w	r2, r2, r2
801006d2:	bf28      	it	cs
801006d4:	eba0 5001 	subcs.w	r0, r0, r1, lsl #20
801006d8:	ebb0 4fc1 	cmp.w	r0, r1, lsl #19
801006dc:	bf00      	nop
801006de:	eb42 0202 	adc.w	r2, r2, r2
801006e2:	bf28      	it	cs
801006e4:	eba0 40c1 	subcs.w	r0, r0, r1, lsl #19
801006e8:	ebb0 4f81 	cmp.w	r0, r1, lsl #18
801006ec:	bf00      	nop
801006ee:	eb42 0202 	adc.w	r2, r2, r2
801006f2:	bf28      	it	cs
801006f4:	eba0 4081 	subcs.w	r0, r0, r1, lsl #18
801006f8:	ebb0 4f41 	cmp.w	r0, r1, lsl #17
801006fc:	bf00      	nop
801006fe:	eb42 0202 	adc.w	r2, r2, r2
80100702:	bf28      	it	cs
80100704:	eba0 4041 	subcs.w	r0, r0, r1, lsl #17
80100708:	ebb0 4f01 	cmp.w	r0, r1, lsl #16
8010070c:	bf00      	nop
8010070e:	eb42 0202 	adc.w	r2, r2, r2
80100712:	bf28      	it	cs
80100714:	eba0 4001 	subcs.w	r0, r0, r1, lsl #16
80100718:	ebb0 3fc1 	cmp.w	r0, r1, lsl #15
8010071c:	bf00      	nop
8010071e:	eb42 0202 	adc.w	r2, r2, r2
80100722:	bf28      	it	cs
80100724:	eba0 30c1 	subcs.w	r0, r0, r1, lsl #15
80100728:	ebb0 3f81 	cmp.w	r0, r1, lsl #14
8010072c:	bf00      	nop
8010072e:	eb42 0202 	adc.w	r2, r2, r2
80100732:	bf28      	it	cs
80100734:	eba0 3081 	subcs.w	r0, r0, r1, lsl #14
80100738:	ebb0 3f41 	cmp.w	r0, r1, lsl #13
8010073c:	bf00      	nop
8010073e:	eb42 0202 	adc.w	r2, r2, r2
80100742:	bf28      	it	cs
80100744:	eba0 3041 	subcs.w	r0, r0, r1, lsl #13
80100748:	ebb0 3f01 	cmp.w	r0, r1, lsl #12
8010074c:	bf00      	nop
8010074e:	eb42 0202 	adc.w	r2, r2, r2
80100752:	bf28      	it	cs
80100754:	eba0 3001 	subcs.w	r0, r0, r1, lsl #12
80100758:	ebb0 2fc1 	cmp.w	r0, r1, lsl #11
8010075c:	bf00      	nop
8010075e:	eb42 0202 	adc.w	r2, r2, r2
80100762:	bf28      	it	cs
80100764:	eba0 20c1 	subcs.w	r0, r0, r1, lsl #11
80100768:	ebb0 2f81 	cmp.w	r0, r1, lsl #10
8010076c:	bf00      	nop
8010076e:	eb42 0202 	adc.w	r2, r2, r2
80100772:	bf28      	it	cs
80100774:	eba0 2081 	subcs.w	r0, r0, r1, lsl #10
80100778:	ebb0 2f41 	cmp.w	r0, r1, lsl #9
8010077c:	bf00      	nop
8010077e:	eb42 0202 	adc.w	r2, r2, r2
80100782:	bf28      	it	cs
80100784:	eba0 2041 	subcs.w	r0, r0, r1, lsl #9
80100788:	ebb0 2f01 	cmp.w	r0, r1, lsl #8
8010078c:	bf00      	nop
8010078e:	eb42 0202 	adc.w	r2, r2, r2
80100792:	bf28      	it	cs
80100794:	eba0 2001 	subcs.w	r0, r0, r1, lsl #8
80100798:	ebb0 1fc1 	cmp.w	r0, r1, lsl #7
8010079c:	bf00      	nop
8010079e:	eb42 0202 	adc.w	r2, r2, r2
801007a2:	bf28      	it	cs
801007a4:	eba0 10c1 	subcs.w	r0, r0, r1, lsl #7
801007a8:	ebb0 1f81 	cmp.w	r0, r1, lsl #6
801007ac:	bf00      	nop
801007ae:	eb42 0202 	adc.w	r2, r2, r2
801007b2:	bf28      	it	cs
801007b4:	eba0 1081 	subcs.w	r0, r0, r1, lsl #6
801007b8:	ebb0 1f41 	cmp.w	r0, r1, lsl #5
801007bc:	bf00      	nop
801007be:	eb42 0202 	adc.w	r2, r2, r2
801007c2:	bf28      	it	cs
801007c4:	eba0 1041 	subcs.w	r0, r0, r1, lsl #5
801007c8:	ebb0 1f01 	cmp.w	r0, r1, lsl #4
801007cc:	bf00      	nop
801007ce:	eb42 0202 	adc.w	r2, r2, r2
801007d2:	bf28      	it	cs
801007d4:	eba0 1001 	subcs.w	r0, r0, r1, lsl #4
801007d8:	ebb0 0fc1 	cmp.w	r0, r1, lsl #3
801007dc:	bf00      	nop
801007de:	eb42 0202 	adc.w	r2, r2, r2
801007e2:	bf28      	it	cs
801007e4:	eba0 00c1 	subcs.w	r0, r0, r1, lsl #3
801007e8:	ebb0 0f81 	cmp.w	r0, r1, lsl #2
801007ec:	bf00      	nop
801007ee:	eb42 0202 	adc.w	r2, r2, r2
801007f2:	bf28      	it	cs
801007f4:	eba0 0081 	subcs.w	r0, r0, r1, lsl #2
801007f8:	ebb0 0f41 	cmp.w	r0, r1, lsl #1
801007fc:	bf00      	nop
801007fe:	eb42 0202 	adc.w	r2, r2, r2
80100802:	bf28      	it	cs
80100804:	eba0 0041 	subcs.w	r0, r0, r1, lsl #1
80100808:	ebb0 0f01 	cmp.w	r0, r1
8010080c:	bf00      	nop
8010080e:	eb42 0202 	adc.w	r2, r2, r2
80100812:	bf28      	it	cs
80100814:	eba0 0001 	subcs.w	r0, r0, r1
80100818:	4610      	mov	r0, r2
8010081a:	4770      	bx	lr
8010081c:	bf0c      	ite	eq
8010081e:	2001      	moveq	r0, #1
80100820:	2000      	movne	r0, #0
80100822:	4770      	bx	lr
80100824:	fab1 f281 	clz	r2, r1
80100828:	f1c2 021f 	rsb	r2, r2, #31
8010082c:	fa20 f002 	lsr.w	r0, r0, r2
80100830:	4770      	bx	lr
80100832:	b108      	cbz	r0, 80100838 <__aeabi_uidiv+0x258>
80100834:	f04f 30ff 	mov.w	r0, #4294967295	; 0xffffffff
80100838:	f000 b80e 	b.w	80100858 <__aeabi_idiv0>

8010083c <__aeabi_uidivmod>:
8010083c:	2900      	cmp	r1, #0
8010083e:	d0f8      	beq.n	80100832 <__aeabi_uidiv+0x252>
80100840:	e92d 4003 	stmdb	sp!, {r0, r1, lr}
80100844:	f7ff fecc 	bl	801005e0 <__aeabi_uidiv>
80100848:	e8bd 4006 	ldmia.w	sp!, {r1, r2, lr}
8010084c:	fb02 f300 	mul.w	r3, r2, r0
80100850:	eba1 0103 	sub.w	r1, r1, r3
80100854:	4770      	bx	lr
80100856:	bf00      	nop

80100858 <__aeabi_idiv0>:
80100858:	b502      	push	{r1, lr}
8010085a:	f04f 0008 	mov.w	r0, #8
8010085e:	f7ff fc9d 	bl	8010019c <raise>
80100862:	bd02      	pop	{r1, pc}

Disassembly of section .rodata:

80100864 <g_charB>:
80100864:	00000042 	andeq	r0, r0, r2, asr #32

80100868 <.LC0>:
80100868:	6e695f67 	cdpvs	15, 6, cr5, cr9, cr7, {3}
8010086c:	3d204174 	stfccs	f4, [r0, #-464]!	; 0xfffffe30
80100870:	25783020 	ldrbcs	r3, [r8, #-32]!	; 0xffffffe0
80100874:	0a783830 	beq	81f0e93c <__bss_end+0x1d0e917>
80100878:	0000000d 	andeq	r0, r0, sp

8010087c <.LC1>:
8010087c:	6e695f67 	cdpvs	15, 6, cr5, cr9, cr7, {3}
80100880:	3d204274 	sfmcc	f4, 4, [r0, #-464]!	; 0xfffffe30
80100884:	25783020 	ldrbcs	r3, [r8, #-32]!	; 0xffffffe0
80100888:	0a783830 	beq	81f0e950 <__bss_end+0x1d0e92b>
8010088c:	0000000d 	andeq	r0, r0, sp

80100890 <.LC0>:
80100890:	73696854 	cmnvc	r9, #84, 16	; 0x540000
80100894:	20736920 	rsbscs	r6, r3, r0, lsr #18
80100898:	2e777777 	mrccs	7, 3, r7, cr7, cr7, {3}
8010089c:	61303031 	teqvs	r0, r1, lsr r0
801008a0:	6f2e6b73 	svcvs	0x002e6b73
801008a4:	20206772 	eorcs	r6, r0, r2, ror r7
801008a8:	5f796d20 	svcpl	0x00796d20
801008ac:	6e697270 	mcrvs	2, 3, r7, cr9, cr0, {3}
801008b0:	74206674 	strtvc	r6, [r0], #-1652	; 0xfffff98c
801008b4:	0a747365 	beq	81e1d650 <__bss_end+0x1c1d62b>
801008b8:	0000000d 	andeq	r0, r0, sp

801008bc <.LC1>:
801008bc:	74736574 	ldrbtvc	r6, [r3], #-1396	; 0xfffffa8c
801008c0:	61686320 	cmnvs	r8, r0, lsr #6
801008c4:	20202072 	eorcs	r2, r0, r2, ror r0
801008c8:	20202020 	eorcs	r2, r0, r0, lsr #32
801008cc:	20202020 	eorcs	r2, r0, r0, lsr #32
801008d0:	2c63253d 	cfstr64cs	mvdx2, [r3], #-244	; 0xffffff0c
801008d4:	0d0a6325 	stceq	3, cr6, [sl, #-148]	; 0xffffff6c
801008d8:	00000000 	andeq	r0, r0, r0

801008dc <.LC2>:
801008dc:	74736574 	ldrbtvc	r6, [r3], #-1396	; 0xfffffa8c
801008e0:	63656420 	cmnvs	r5, #32, 8	; 0x20000000
801008e4:	6c616d69 	stclvs	13, cr6, [r1], #-420	; 0xfffffe5c
801008e8:	6d756e20 	ldclvs	14, cr6, [r5, #-128]!	; 0xffffff80
801008ec:	20726562 	rsbscs	r6, r2, r2, ror #10
801008f0:	0a64253d 	beq	81a09dec <__bss_end+0x1809dc7>
801008f4:	0000000d 	andeq	r0, r0, sp

801008f8 <.LC3>:
801008f8:	74736574 	ldrbtvc	r6, [r3], #-1396	; 0xfffffa8c
801008fc:	78656820 	stmdavc	r5!, {r5, fp, sp, lr}^
80100900:	20202020 	eorcs	r2, r0, r0, lsr #32
80100904:	6d756e20 	ldclvs	14, cr6, [r5, #-128]!	; 0xffffff80
80100908:	20726562 	rsbscs	r6, r2, r2, ror #10
8010090c:	2578303d 	ldrbcs	r3, [r8, #-61]!	; 0xffffffc3
80100910:	000d0a78 	andeq	r0, sp, r8, ror sl

80100914 <.LC4>:
80100914:	2e777777 	mrccs	7, 3, r7, cr7, cr7, {3}
80100918:	61303031 	teqvs	r0, r1, lsr r0
8010091c:	6f2e6b73 	svcvs	0x002e6b73
80100920:	00006772 	andeq	r6, r0, r2, ror r7

80100924 <.LC5>:
80100924:	74736574 	ldrbtvc	r6, [r3], #-1396	; 0xfffffa8c
80100928:	72747320 	rsbsvc	r7, r4, #32, 6	; 0x80000000
8010092c:	20676e69 	rsbcs	r6, r7, r9, ror #28
80100930:	20202020 	eorcs	r2, r0, r0, lsr #32
80100934:	20202020 	eorcs	r2, r0, r0, lsr #32
80100938:	0a73253d 	beq	81dc9e34 <__bss_end+0x1bc9e0f>
8010093c:	0000000d 	andeq	r0, r0, sp

80100940 <.LC6>:
80100940:	3d6d756e 	cfstr64cc	mvdx7, [sp, #-440]!	; 0xfffffe48
80100944:	64383025 	ldrtvs	r3, [r8], #-37	; 0xffffffdb
80100948:	00000d0a 	andeq	r0, r0, sl, lsl #26

8010094c <.LC7>:
8010094c:	3d6d756e 	cfstr64cc	mvdx7, [sp, #-440]!	; 0xfffffe48
80100950:	0a643825 	beq	81a0e9ec <__bss_end+0x180e9c7>
80100954:	0000000d 	andeq	r0, r0, sp

80100958 <.LC8>:
80100958:	3d6d756e 	cfstr64cc	mvdx7, [sp, #-440]!	; 0xfffffe48
8010095c:	30257830 	eorcc	r7, r5, r0, lsr r8
80100960:	0d0a7838 	stceq	8, cr7, [sl, #-224]	; 0xffffff20
80100964:	00000000 	andeq	r0, r0, r0

80100968 <.LC9>:
80100968:	3d6d756e 	cfstr64cc	mvdx7, [sp, #-440]!	; 0xfffffe48
8010096c:	38257830 	stmdacc	r5!, {r4, r5, fp, ip, sp, lr}
80100970:	000d0a78 	andeq	r0, sp, r8, ror sl

80100974 <.LC10>:
80100974:	3d6d756e 	cfstr64cc	mvdx7, [sp, #-440]!	; 0xfffffe48
80100978:	30257830 	eorcc	r7, r5, r0, lsr r8
8010097c:	0d0a7832 	stceq	8, cr7, [sl, #-200]	; 0xffffff38
80100980:	00000000 	andeq	r0, r0, r0

80100984 <.LC11>:
80100984:	3d6d756e 	cfstr64cc	mvdx7, [sp, #-440]!	; 0xfffffe48
80100988:	32257830 	eorcc	r7, r5, #48, 16	; 0x300000
8010098c:	000d0a78 	andeq	r0, sp, r8, ror sl

80100990 <.LC12>:
80100990:	3d6d756e 	cfstr64cc	mvdx7, [sp, #-440]!	; 0xfffffe48
80100994:	64353025 	ldrtvs	r3, [r5], #-37	; 0xffffffdb
80100998:	00000d0a 	andeq	r0, r0, sl, lsl #26

8010099c <.LC13>:
8010099c:	3d6d756e 	cfstr64cc	mvdx7, [sp, #-440]!	; 0xfffffe48
801009a0:	0a643525 	beq	81a0de3c <__bss_end+0x180de17>
801009a4:	Address 0x00000000801009a4 is out of bounds.


Disassembly of section .data:

80200000 <g_charA>:
80200000:	00000041 	andeq	r0, r0, r1, asr #32

80200004 <hex_tab>:
80200004:	33323130 	teqcc	r2, #48, 2
80200008:	37363534 			; <UNDEFINED> instruction: 0x37363534
8020000c:	62613938 	rsbvs	r3, r1, #56, 18	; 0xe0000
80200010:	66656463 	strbtvs	r6, [r5], -r3, ror #8

Disassembly of section .bss:

80200014 <__bss_start>:
80200014:	00000000 	andeq	r0, r0, r0

80200018 <IOMUXC_SW_MUX_CTL_PAD_UART1_RX_DATA>:
80200018:	00000000 	andeq	r0, r0, r0

8020001c <g_intA>:
8020001c:	00000000 	andeq	r0, r0, r0

80200020 <g_intB>:
80200020:	00000000 	andeq	r0, r0, r0

80200024 <g_charC>:
	...

