
except.elf:     file format elf32-littlearm


Disassembly of section .text:

80100000 <_start>:
80100000:	e59ff100 	ldr	pc, [pc, #256]	; 80100108 <clean+0x14>
80100004:	e59ff100 	ldr	pc, [pc, #256]	; 8010010c <clean+0x18>
80100008:	e59ff100 	ldr	pc, [pc, #256]	; 80100110 <clean+0x1c>
8010000c:	ea000034 	b	801000e4 <halt>
80100010:	ea000033 	b	801000e4 <halt>
80100014:	00000000 	andeq	r0, r0, r0
80100018:	e59ff0f4 	ldr	pc, [pc, #244]	; 80100114 <clean+0x20>
8010001c:	ea000030 	b	801000e4 <halt>

80100020 <Undefined_Handler>:
80100020:	e92d5fff 	push	{r0, r1, r2, r3, r4, r5, r6, r7, r8, r9, sl, fp, ip, lr}
80100024:	e10f0000 	mrs	r0, CPSR
80100028:	e59f10e8 	ldr	r1, [pc, #232]	; 80100118 <clean+0x24>
8010002c:	fa000167 	blx	801005d0 <printException>
80100030:	e8fd9fff 	ldm	sp!, {r0, r1, r2, r3, r4, r5, r6, r7, r8, r9, sl, fp, ip, pc}^

80100034 <und_string>:
80100034:	65646e75 	strbvs	r6, [r4, #-3701]!	; 0xfffff18b
80100038:	656e6966 	strbvs	r6, [lr, #-2406]!	; 0xfffff69a
8010003c:	6e692064 	cdpvs	0, 6, cr2, cr9, cr4, {3}
80100040:	75727473 	ldrbvc	r7, [r2, #-1139]!	; 0xfffffb8d
80100044:	6f697463 	svcvs	0x00697463
80100048:	7865206e 	stmdavc	r5!, {r1, r2, r3, r5, r6, sp}^
8010004c:	74706563 	ldrbtvc	r6, [r0], #-1379	; 0xfffffa9d
80100050:	006e6f69 	rsbeq	r6, lr, r9, ror #30

80100054 <SVC_Handler>:
80100054:	e92d5fff 	push	{r0, r1, r2, r3, r4, r5, r6, r7, r8, r9, sl, fp, ip, lr}
80100058:	e1a0400e 	mov	r4, lr
8010005c:	e10f0000 	mrs	r0, CPSR
80100060:	e59f10b4 	ldr	r1, [pc, #180]	; 8010011c <clean+0x28>
80100064:	fa000159 	blx	801005d0 <printException>
80100068:	e2440004 	sub	r0, r4, #4
8010006c:	fb000162 	blx	801005fe <printSWIVal>
80100070:	e8fd9fff 	ldm	sp!, {r0, r1, r2, r3, r4, r5, r6, r7, r8, r9, sl, fp, ip, pc}^

80100074 <swi_string>:
80100074:	20697773 	rsbcs	r7, r9, r3, ror r7
80100078:	65637865 	strbvs	r7, [r3, #-2149]!	; 0xfffff79b
8010007c:	6f697470 	svcvs	0x00697470
80100080:	0000006e 	andeq	r0, r0, lr, rrx

80100084 <IRQ_Handler>:
80100084:	e24ee004 	sub	lr, lr, #4
80100088:	e92d5fff 	push	{r0, r1, r2, r3, r4, r5, r6, r7, r8, r9, sl, fp, ip, lr}
8010008c:	fa000487 	blx	801012b0 <handle_irq_c>
80100090:	e8fd9fff 	ldm	sp!, {r0, r1, r2, r3, r4, r5, r6, r7, r8, r9, sl, fp, ip, pc}^

80100094 <Reset_Handler>:
80100094:	ee110f10 	mrc	15, 0, r0, cr1, cr0, {0}
80100098:	e3c00a02 	bic	r0, r0, #8192	; 0x2000
8010009c:	e3c00a01 	bic	r0, r0, #4096	; 0x1000
801000a0:	e3c00004 	bic	r0, r0, #4
801000a4:	e3c00004 	bic	r0, r0, #4
801000a8:	e3c00b02 	bic	r0, r0, #2048	; 0x800
801000ac:	e3c00001 	bic	r0, r0, #1
801000b0:	ee010f10 	mcr	15, 0, r0, cr1, cr0, {0}
801000b4:	f102001b 	cps	#27
801000b8:	e59fd060 	ldr	sp, [pc, #96]	; 80100120 <clean+0x2c>
801000bc:	f1020012 	cps	#18
801000c0:	e59fd05c 	ldr	sp, [pc, #92]	; 80100124 <clean+0x30>
801000c4:	f1020013 	cps	#19
801000c8:	e59fd058 	ldr	sp, [pc, #88]	; 80100128 <clean+0x34>
801000cc:	e59f0058 	ldr	r0, [pc, #88]	; 8010012c <clean+0x38>
801000d0:	ee0c0f10 	mcr	15, 0, r0, cr12, cr0, {0}
801000d4:	eb000003 	bl	801000e8 <clean_bss>
801000d8:	fa0001b2 	blx	801007a8 <system_init>
801000dc:	f1080080 	cpsie	i
801000e0:	fb0001c1 	blx	801007ee <main>

801000e4 <halt>:
801000e4:	eafffffe 	b	801000e4 <halt>

801000e8 <clean_bss>:
801000e8:	e59f1040 	ldr	r1, [pc, #64]	; 80100130 <clean+0x3c>
801000ec:	e59f2040 	ldr	r2, [pc, #64]	; 80100134 <clean+0x40>
801000f0:	e3a03000 	mov	r3, #0

801000f4 <clean>:
801000f4:	e1510002 	cmp	r1, r2
801000f8:	b5813000 	strlt	r3, [r1]
801000fc:	e2811004 	add	r1, r1, #4
80100100:	bafffffb 	blt	801000f4 <clean>
80100104:	e1a0f00e 	mov	pc, lr
80100108:	80100094 	mulshi	r0, r4, r0
8010010c:	80100020 	andshi	r0, r0, r0, lsr #32
80100110:	80100054 	andshi	r0, r0, r4, asr r0
80100114:	80100084 	andshi	r0, r0, r4, lsl #1
80100118:	80100034 	andshi	r0, r0, r4, lsr r0
8010011c:	80100074 	andshi	r0, r0, r4, ror r0
80100120:	80300000 	eorshi	r0, r0, r0
80100124:	80400000 	subhi	r0, r0, r0
80100128:	80200000 	eorhi	r0, r0, r0
8010012c:	80100000 	andshi	r0, r0, r0
80100130:	801018f0 			; <UNDEFINED> instruction: 0x801018f0
80100134:	80101df0 			; <UNDEFINED> instruction: 0x80101df0

80100138 <IOMUXC_SetPinMux>:
80100138:	b480      	push	{r7}
8010013a:	b085      	sub	sp, #20
8010013c:	af00      	add	r7, sp, #0
8010013e:	60f8      	str	r0, [r7, #12]
80100140:	60b9      	str	r1, [r7, #8]
80100142:	607a      	str	r2, [r7, #4]
80100144:	603b      	str	r3, [r7, #0]
80100146:	68fb      	ldr	r3, [r7, #12]
80100148:	68ba      	ldr	r2, [r7, #8]
8010014a:	f002 010f 	and.w	r1, r2, #15
8010014e:	69fa      	ldr	r2, [r7, #28]
80100150:	0112      	lsls	r2, r2, #4
80100152:	f002 0210 	and.w	r2, r2, #16
80100156:	430a      	orrs	r2, r1
80100158:	601a      	str	r2, [r3, #0]
8010015a:	687b      	ldr	r3, [r7, #4]
8010015c:	2b00      	cmp	r3, #0
8010015e:	d004      	beq.n	8010016a <IOMUXC_SetPinMux+0x32>
80100160:	687b      	ldr	r3, [r7, #4]
80100162:	683a      	ldr	r2, [r7, #0]
80100164:	f002 0207 	and.w	r2, r2, #7
80100168:	601a      	str	r2, [r3, #0]
8010016a:	bf00      	nop
8010016c:	3714      	adds	r7, #20
8010016e:	46bd      	mov	sp, r7
80100170:	f85d 7b04 	ldr.w	r7, [sp], #4
80100174:	4770      	bx	lr

80100176 <IOMUXC_SetPinConfig>:
80100176:	b480      	push	{r7}
80100178:	b085      	sub	sp, #20
8010017a:	af00      	add	r7, sp, #0
8010017c:	60f8      	str	r0, [r7, #12]
8010017e:	60b9      	str	r1, [r7, #8]
80100180:	607a      	str	r2, [r7, #4]
80100182:	603b      	str	r3, [r7, #0]
80100184:	69bb      	ldr	r3, [r7, #24]
80100186:	2b00      	cmp	r3, #0
80100188:	d002      	beq.n	80100190 <IOMUXC_SetPinConfig+0x1a>
8010018a:	69bb      	ldr	r3, [r7, #24]
8010018c:	69fa      	ldr	r2, [r7, #28]
8010018e:	601a      	str	r2, [r3, #0]
80100190:	bf00      	nop
80100192:	3714      	adds	r7, #20
80100194:	46bd      	mov	sp, r7
80100196:	f85d 7b04 	ldr.w	r7, [sp], #4
8010019a:	4770      	bx	lr

8010019c <init_pins>:
8010019c:	b580      	push	{r7, lr}
8010019e:	b082      	sub	sp, #8
801001a0:	af02      	add	r7, sp, #8
801001a2:	2300      	movs	r3, #0
801001a4:	9301      	str	r3, [sp, #4]
801001a6:	2358      	movs	r3, #88	; 0x58
801001a8:	f2c0 2329 	movt	r3, #553	; 0x229
801001ac:	9300      	str	r3, [sp, #0]
801001ae:	2300      	movs	r3, #0
801001b0:	2200      	movs	r2, #0
801001b2:	2105      	movs	r1, #5
801001b4:	2014      	movs	r0, #20
801001b6:	f2c0 2029 	movt	r0, #553	; 0x229
801001ba:	f7ff ffbd 	bl	80100138 <IOMUXC_SetPinMux>
801001be:	2309      	movs	r3, #9
801001c0:	f2c0 0301 	movt	r3, #1
801001c4:	9301      	str	r3, [sp, #4]
801001c6:	2358      	movs	r3, #88	; 0x58
801001c8:	f2c0 2329 	movt	r3, #553	; 0x229
801001cc:	9300      	str	r3, [sp, #0]
801001ce:	2300      	movs	r3, #0
801001d0:	2200      	movs	r2, #0
801001d2:	2105      	movs	r1, #5
801001d4:	2014      	movs	r0, #20
801001d6:	f2c0 2029 	movt	r0, #553	; 0x229
801001da:	f7ff ffcc 	bl	80100176 <IOMUXC_SetPinConfig>
801001de:	2300      	movs	r3, #0
801001e0:	9301      	str	r3, [sp, #4]
801001e2:	f44f 7345 	mov.w	r3, #788	; 0x314
801001e6:	f2c0 230e 	movt	r3, #526	; 0x20e
801001ea:	9300      	str	r3, [sp, #0]
801001ec:	2303      	movs	r3, #3
801001ee:	f240 6224 	movw	r2, #1572	; 0x624
801001f2:	f2c0 220e 	movt	r2, #526	; 0x20e
801001f6:	2100      	movs	r1, #0
801001f8:	2088      	movs	r0, #136	; 0x88
801001fa:	f2c0 200e 	movt	r0, #526	; 0x20e
801001fe:	f7ff ff9b 	bl	80100138 <IOMUXC_SetPinMux>
80100202:	f241 0390 	movw	r3, #4240	; 0x1090
80100206:	9301      	str	r3, [sp, #4]
80100208:	f44f 7345 	mov.w	r3, #788	; 0x314
8010020c:	f2c0 230e 	movt	r3, #526	; 0x20e
80100210:	9300      	str	r3, [sp, #0]
80100212:	2303      	movs	r3, #3
80100214:	f240 6224 	movw	r2, #1572	; 0x624
80100218:	f2c0 220e 	movt	r2, #526	; 0x20e
8010021c:	2100      	movs	r1, #0
8010021e:	2088      	movs	r0, #136	; 0x88
80100220:	f2c0 200e 	movt	r0, #526	; 0x20e
80100224:	f7ff ffa7 	bl	80100176 <IOMUXC_SetPinConfig>
80100228:	2300      	movs	r3, #0
8010022a:	9301      	str	r3, [sp, #4]
8010022c:	f44f 7344 	mov.w	r3, #784	; 0x310
80100230:	f2c0 230e 	movt	r3, #526	; 0x20e
80100234:	9300      	str	r3, [sp, #0]
80100236:	2300      	movs	r3, #0
80100238:	2200      	movs	r2, #0
8010023a:	2100      	movs	r1, #0
8010023c:	2084      	movs	r0, #132	; 0x84
8010023e:	f2c0 200e 	movt	r0, #526	; 0x20e
80100242:	f7ff ff79 	bl	80100138 <IOMUXC_SetPinMux>
80100246:	f241 0390 	movw	r3, #4240	; 0x1090
8010024a:	9301      	str	r3, [sp, #4]
8010024c:	f44f 7344 	mov.w	r3, #784	; 0x310
80100250:	f2c0 230e 	movt	r3, #526	; 0x20e
80100254:	9300      	str	r3, [sp, #0]
80100256:	2300      	movs	r3, #0
80100258:	2200      	movs	r2, #0
8010025a:	2100      	movs	r1, #0
8010025c:	2084      	movs	r0, #132	; 0x84
8010025e:	f2c0 200e 	movt	r0, #526	; 0x20e
80100262:	f7ff ff88 	bl	80100176 <IOMUXC_SetPinConfig>
80100266:	2300      	movs	r3, #0
80100268:	9301      	str	r3, [sp, #4]
8010026a:	2350      	movs	r3, #80	; 0x50
8010026c:	f2c0 2329 	movt	r3, #553	; 0x229
80100270:	9300      	str	r3, [sp, #0]
80100272:	2300      	movs	r3, #0
80100274:	2200      	movs	r2, #0
80100276:	2105      	movs	r1, #5
80100278:	200c      	movs	r0, #12
8010027a:	f2c0 2029 	movt	r0, #553	; 0x229
8010027e:	f7ff ff5b 	bl	80100138 <IOMUXC_SetPinMux>
80100282:	f241 03b0 	movw	r3, #4272	; 0x10b0
80100286:	f2c0 0301 	movt	r3, #1
8010028a:	9301      	str	r3, [sp, #4]
8010028c:	2350      	movs	r3, #80	; 0x50
8010028e:	f2c0 2329 	movt	r3, #553	; 0x229
80100292:	9300      	str	r3, [sp, #0]
80100294:	2300      	movs	r3, #0
80100296:	2200      	movs	r2, #0
80100298:	2105      	movs	r1, #5
8010029a:	200c      	movs	r0, #12
8010029c:	f2c0 2029 	movt	r0, #553	; 0x229
801002a0:	f7ff ff69 	bl	80100176 <IOMUXC_SetPinConfig>
801002a4:	2300      	movs	r3, #0
801002a6:	9301      	str	r3, [sp, #4]
801002a8:	f240 433c 	movw	r3, #1084	; 0x43c
801002ac:	f2c0 230e 	movt	r3, #526	; 0x20e
801002b0:	9300      	str	r3, [sp, #0]
801002b2:	2300      	movs	r3, #0
801002b4:	2200      	movs	r2, #0
801002b6:	2105      	movs	r1, #5
801002b8:	f44f 70d8 	mov.w	r0, #432	; 0x1b0
801002bc:	f2c0 200e 	movt	r0, #526	; 0x20e
801002c0:	f7ff ff3a 	bl	80100138 <IOMUXC_SetPinMux>
801002c4:	f241 03b0 	movw	r3, #4272	; 0x10b0
801002c8:	f2c0 0301 	movt	r3, #1
801002cc:	9301      	str	r3, [sp, #4]
801002ce:	f240 433c 	movw	r3, #1084	; 0x43c
801002d2:	f2c0 230e 	movt	r3, #526	; 0x20e
801002d6:	9300      	str	r3, [sp, #0]
801002d8:	2300      	movs	r3, #0
801002da:	2200      	movs	r2, #0
801002dc:	2105      	movs	r1, #5
801002de:	f44f 70d8 	mov.w	r0, #432	; 0x1b0
801002e2:	f2c0 200e 	movt	r0, #526	; 0x20e
801002e6:	f7ff ff46 	bl	80100176 <IOMUXC_SetPinConfig>
801002ea:	bf00      	nop
801002ec:	46bd      	mov	sp, r7
801002ee:	bd80      	pop	{r7, pc}

801002f0 <delay>:
801002f0:	b480      	push	{r7}
801002f2:	b083      	sub	sp, #12
801002f4:	af00      	add	r7, sp, #0
801002f6:	6078      	str	r0, [r7, #4]
801002f8:	bf00      	nop
801002fa:	687b      	ldr	r3, [r7, #4]
801002fc:	1e5a      	subs	r2, r3, #1
801002fe:	607a      	str	r2, [r7, #4]
80100300:	2b00      	cmp	r3, #0
80100302:	d1fa      	bne.n	801002fa <delay+0xa>
80100304:	bf00      	nop
80100306:	370c      	adds	r7, #12
80100308:	46bd      	mov	sp, r7
8010030a:	f85d 7b04 	ldr.w	r7, [sp], #4
8010030e:	4770      	bx	lr

80100310 <boot_clk_gate_init>:
80100310:	b480      	push	{r7}
80100312:	af00      	add	r7, sp, #0
80100314:	f44f 4380 	mov.w	r3, #16384	; 0x4000
80100318:	f2c0 230c 	movt	r3, #524	; 0x20c
8010031c:	f04f 32ff 	mov.w	r2, #4294967295	; 0xffffffff
80100320:	669a      	str	r2, [r3, #104]	; 0x68
80100322:	f44f 4380 	mov.w	r3, #16384	; 0x4000
80100326:	f2c0 230c 	movt	r3, #524	; 0x20c
8010032a:	f04f 32ff 	mov.w	r2, #4294967295	; 0xffffffff
8010032e:	66da      	str	r2, [r3, #108]	; 0x6c
80100330:	f44f 4380 	mov.w	r3, #16384	; 0x4000
80100334:	f2c0 230c 	movt	r3, #524	; 0x20c
80100338:	f04f 32ff 	mov.w	r2, #4294967295	; 0xffffffff
8010033c:	671a      	str	r2, [r3, #112]	; 0x70
8010033e:	f44f 4380 	mov.w	r3, #16384	; 0x4000
80100342:	f2c0 230c 	movt	r3, #524	; 0x20c
80100346:	f04f 32ff 	mov.w	r2, #4294967295	; 0xffffffff
8010034a:	675a      	str	r2, [r3, #116]	; 0x74
8010034c:	f44f 4380 	mov.w	r3, #16384	; 0x4000
80100350:	f2c0 230c 	movt	r3, #524	; 0x20c
80100354:	f04f 32ff 	mov.w	r2, #4294967295	; 0xffffffff
80100358:	679a      	str	r2, [r3, #120]	; 0x78
8010035a:	f44f 4380 	mov.w	r3, #16384	; 0x4000
8010035e:	f2c0 230c 	movt	r3, #524	; 0x20c
80100362:	f04f 32ff 	mov.w	r2, #4294967295	; 0xffffffff
80100366:	67da      	str	r2, [r3, #124]	; 0x7c
80100368:	f44f 4380 	mov.w	r3, #16384	; 0x4000
8010036c:	f2c0 230c 	movt	r3, #524	; 0x20c
80100370:	f04f 32ff 	mov.w	r2, #4294967295	; 0xffffffff
80100374:	f8c3 2080 	str.w	r2, [r3, #128]	; 0x80
80100378:	bf00      	nop
8010037a:	46bd      	mov	sp, r7
8010037c:	f85d 7b04 	ldr.w	r7, [sp], #4
80100380:	4770      	bx	lr

80100382 <boot_clk_init>:
80100382:	b480      	push	{r7}
80100384:	af00      	add	r7, sp, #0
80100386:	f44f 4380 	mov.w	r3, #16384	; 0x4000
8010038a:	f2c0 230c 	movt	r3, #524	; 0x20c
8010038e:	68db      	ldr	r3, [r3, #12]
80100390:	f003 0304 	and.w	r3, r3, #4
80100394:	2b00      	cmp	r3, #0
80100396:	d117      	bne.n	801003c8 <boot_clk_init+0x46>
80100398:	f44f 4380 	mov.w	r3, #16384	; 0x4000
8010039c:	f2c0 230c 	movt	r3, #524	; 0x20c
801003a0:	f44f 4280 	mov.w	r2, #16384	; 0x4000
801003a4:	f2c0 220c 	movt	r2, #524	; 0x20c
801003a8:	68d2      	ldr	r2, [r2, #12]
801003aa:	f422 7280 	bic.w	r2, r2, #256	; 0x100
801003ae:	60da      	str	r2, [r3, #12]
801003b0:	f44f 4380 	mov.w	r3, #16384	; 0x4000
801003b4:	f2c0 230c 	movt	r3, #524	; 0x20c
801003b8:	f44f 4280 	mov.w	r2, #16384	; 0x4000
801003bc:	f2c0 220c 	movt	r2, #524	; 0x20c
801003c0:	68d2      	ldr	r2, [r2, #12]
801003c2:	f042 0204 	orr.w	r2, r2, #4
801003c6:	60da      	str	r2, [r3, #12]
801003c8:	f44f 4300 	mov.w	r3, #32768	; 0x8000
801003cc:	f2c0 230c 	movt	r3, #524	; 0x20c
801003d0:	f242 0258 	movw	r2, #8280	; 0x2058
801003d4:	601a      	str	r2, [r3, #0]
801003d6:	f44f 4380 	mov.w	r3, #16384	; 0x4000
801003da:	f2c0 230c 	movt	r3, #524	; 0x20c
801003de:	f44f 4280 	mov.w	r2, #16384	; 0x4000
801003e2:	f2c0 220c 	movt	r2, #524	; 0x20c
801003e6:	68d2      	ldr	r2, [r2, #12]
801003e8:	f022 0204 	bic.w	r2, r2, #4
801003ec:	60da      	str	r2, [r3, #12]
801003ee:	f44f 4380 	mov.w	r3, #16384	; 0x4000
801003f2:	f2c0 230c 	movt	r3, #524	; 0x20c
801003f6:	2201      	movs	r2, #1
801003f8:	611a      	str	r2, [r3, #16]
801003fa:	f44f 4300 	mov.w	r3, #32768	; 0x8000
801003fe:	f2c0 230c 	movt	r3, #524	; 0x20c
80100402:	f44f 4200 	mov.w	r2, #32768	; 0x8000
80100406:	f2c0 220c 	movt	r2, #524	; 0x20c
8010040a:	f8d2 2100 	ldr.w	r2, [r2, #256]	; 0x100
8010040e:	f002 32c0 	and.w	r2, r2, #3233857728	; 0xc0c0c0c0
80100412:	f8c3 2100 	str.w	r2, [r3, #256]	; 0x100
80100416:	f44f 4200 	mov.w	r2, #32768	; 0x8000
8010041a:	f2c0 220c 	movt	r2, #524	; 0x20c
8010041e:	f44f 4300 	mov.w	r3, #32768	; 0x8000
80100422:	f2c0 230c 	movt	r3, #524	; 0x20c
80100426:	f8d3 1100 	ldr.w	r1, [r3, #256]	; 0x100
8010042a:	f241 031b 	movw	r3, #4123	; 0x101b
8010042e:	f2c3 0318 	movt	r3, #12312	; 0x3018
80100432:	430b      	orrs	r3, r1
80100434:	f8c2 3100 	str.w	r3, [r2, #256]	; 0x100
80100438:	f44f 4300 	mov.w	r3, #32768	; 0x8000
8010043c:	f2c0 230c 	movt	r3, #524	; 0x20c
80100440:	f44f 4200 	mov.w	r2, #32768	; 0x8000
80100444:	f2c0 220c 	movt	r2, #524	; 0x20c
80100448:	f8d2 20f0 	ldr.w	r2, [r2, #240]	; 0xf0
8010044c:	f002 32c0 	and.w	r2, r2, #3233857728	; 0xc0c0c0c0
80100450:	f8c3 20f0 	str.w	r2, [r3, #240]	; 0xf0
80100454:	f44f 4200 	mov.w	r2, #32768	; 0x8000
80100458:	f2c0 220c 	movt	r2, #524	; 0x20c
8010045c:	f44f 4300 	mov.w	r3, #32768	; 0x8000
80100460:	f2c0 230c 	movt	r3, #524	; 0x20c
80100464:	f8d3 10f0 	ldr.w	r1, [r3, #240]	; 0xf0
80100468:	f241 030c 	movw	r3, #4108	; 0x100c
8010046c:	f2c1 3311 	movt	r3, #4881	; 0x1311
80100470:	430b      	orrs	r3, r1
80100472:	f8c2 30f0 	str.w	r3, [r2, #240]	; 0xf0
80100476:	f44f 4380 	mov.w	r3, #16384	; 0x4000
8010047a:	f2c0 230c 	movt	r3, #524	; 0x20c
8010047e:	f44f 4280 	mov.w	r2, #16384	; 0x4000
80100482:	f2c0 220c 	movt	r2, #524	; 0x20c
80100486:	6992      	ldr	r2, [r2, #24]
80100488:	f422 02d8 	bic.w	r2, r2, #7077888	; 0x6c0000
8010048c:	619a      	str	r2, [r3, #24]
8010048e:	f44f 4380 	mov.w	r3, #16384	; 0x4000
80100492:	f2c0 230c 	movt	r3, #524	; 0x20c
80100496:	f44f 4280 	mov.w	r2, #16384	; 0x4000
8010049a:	f2c0 220c 	movt	r2, #524	; 0x20c
8010049e:	6992      	ldr	r2, [r2, #24]
801004a0:	f442 1210 	orr.w	r2, r2, #2359296	; 0x240000
801004a4:	619a      	str	r2, [r3, #24]
801004a6:	f44f 4380 	mov.w	r3, #16384	; 0x4000
801004aa:	f2c0 230c 	movt	r3, #524	; 0x20c
801004ae:	f44f 4280 	mov.w	r2, #16384	; 0x4000
801004b2:	f2c0 220c 	movt	r2, #524	; 0x20c
801004b6:	6952      	ldr	r2, [r2, #20]
801004b8:	f022 62c0 	bic.w	r2, r2, #100663296	; 0x6000000
801004bc:	615a      	str	r2, [r3, #20]
801004be:	f44f 4380 	mov.w	r3, #16384	; 0x4000
801004c2:	f2c0 230c 	movt	r3, #524	; 0x20c
801004c6:	f44f 4280 	mov.w	r2, #16384	; 0x4000
801004ca:	f2c0 220c 	movt	r2, #524	; 0x20c
801004ce:	6952      	ldr	r2, [r2, #20]
801004d0:	615a      	str	r2, [r3, #20]
801004d2:	f44f 4280 	mov.w	r2, #16384	; 0x4000
801004d6:	f2c0 220c 	movt	r2, #524	; 0x20c
801004da:	f44f 4380 	mov.w	r3, #16384	; 0x4000
801004de:	f2c0 230c 	movt	r3, #524	; 0x20c
801004e2:	695b      	ldr	r3, [r3, #20]
801004e4:	f423 23e0 	bic.w	r3, r3, #458752	; 0x70000
801004e8:	f423 7340 	bic.w	r3, r3, #768	; 0x300
801004ec:	6153      	str	r3, [r2, #20]
801004ee:	f44f 4280 	mov.w	r2, #16384	; 0x4000
801004f2:	f2c0 220c 	movt	r2, #524	; 0x20c
801004f6:	f44f 4380 	mov.w	r3, #16384	; 0x4000
801004fa:	f2c0 230c 	movt	r3, #524	; 0x20c
801004fe:	695b      	ldr	r3, [r3, #20]
80100500:	f443 3380 	orr.w	r3, r3, #65536	; 0x10000
80100504:	f443 7380 	orr.w	r3, r3, #256	; 0x100
80100508:	6153      	str	r3, [r2, #20]
8010050a:	f44f 4280 	mov.w	r2, #16384	; 0x4000
8010050e:	f2c0 220c 	movt	r2, #524	; 0x20c
80100512:	f44f 4380 	mov.w	r3, #16384	; 0x4000
80100516:	f2c0 230c 	movt	r3, #524	; 0x20c
8010051a:	695b      	ldr	r3, [r3, #20]
8010051c:	f023 5360 	bic.w	r3, r3, #939524096	; 0x38000000
80100520:	f023 0387 	bic.w	r3, r3, #135	; 0x87
80100524:	6153      	str	r3, [r2, #20]
80100526:	f44f 4380 	mov.w	r3, #16384	; 0x4000
8010052a:	f2c0 230c 	movt	r3, #524	; 0x20c
8010052e:	f44f 4280 	mov.w	r2, #16384	; 0x4000
80100532:	f2c0 220c 	movt	r2, #524	; 0x20c
80100536:	6952      	ldr	r2, [r2, #20]
80100538:	615a      	str	r2, [r3, #20]
8010053a:	bf00      	nop
8010053c:	f44f 4380 	mov.w	r3, #16384	; 0x4000
80100540:	f2c0 230c 	movt	r3, #524	; 0x20c
80100544:	6c9b      	ldr	r3, [r3, #72]	; 0x48
80100546:	f003 032f 	and.w	r3, r3, #47	; 0x2f
8010054a:	2b00      	cmp	r3, #0
8010054c:	d1f6      	bne.n	8010053c <boot_clk_init+0x1ba>
8010054e:	f44f 4380 	mov.w	r3, #16384	; 0x4000
80100552:	f2c0 230c 	movt	r3, #524	; 0x20c
80100556:	f44f 4280 	mov.w	r2, #16384	; 0x4000
8010055a:	f2c0 220c 	movt	r2, #524	; 0x20c
8010055e:	68d2      	ldr	r2, [r2, #12]
80100560:	f022 0201 	bic.w	r2, r2, #1
80100564:	60da      	str	r2, [r3, #12]
80100566:	f44f 4380 	mov.w	r3, #16384	; 0x4000
8010056a:	f2c0 230c 	movt	r3, #524	; 0x20c
8010056e:	f44f 4280 	mov.w	r2, #16384	; 0x4000
80100572:	f2c0 220c 	movt	r2, #524	; 0x20c
80100576:	6a52      	ldr	r2, [r2, #36]	; 0x24
80100578:	f022 0240 	bic.w	r2, r2, #64	; 0x40
8010057c:	625a      	str	r2, [r3, #36]	; 0x24
8010057e:	f44f 4380 	mov.w	r3, #16384	; 0x4000
80100582:	f2c0 230c 	movt	r3, #524	; 0x20c
80100586:	f44f 4280 	mov.w	r2, #16384	; 0x4000
8010058a:	f2c0 220c 	movt	r2, #524	; 0x20c
8010058e:	6a52      	ldr	r2, [r2, #36]	; 0x24
80100590:	f022 023f 	bic.w	r2, r2, #63	; 0x3f
80100594:	625a      	str	r2, [r3, #36]	; 0x24
80100596:	f44f 4380 	mov.w	r3, #16384	; 0x4000
8010059a:	f2c0 230c 	movt	r3, #524	; 0x20c
8010059e:	f44f 4280 	mov.w	r2, #16384	; 0x4000
801005a2:	f2c0 220c 	movt	r2, #524	; 0x20c
801005a6:	69d2      	ldr	r2, [r2, #28]
801005a8:	f022 0240 	bic.w	r2, r2, #64	; 0x40
801005ac:	61da      	str	r2, [r3, #28]
801005ae:	f44f 4380 	mov.w	r3, #16384	; 0x4000
801005b2:	f2c0 230c 	movt	r3, #524	; 0x20c
801005b6:	f44f 4280 	mov.w	r2, #16384	; 0x4000
801005ba:	f2c0 220c 	movt	r2, #524	; 0x20c
801005be:	69d2      	ldr	r2, [r2, #28]
801005c0:	f022 023f 	bic.w	r2, r2, #63	; 0x3f
801005c4:	61da      	str	r2, [r3, #28]
801005c6:	bf00      	nop
801005c8:	46bd      	mov	sp, r7
801005ca:	f85d 7b04 	ldr.w	r7, [sp], #4
801005ce:	4770      	bx	lr

801005d0 <printException>:
801005d0:	b580      	push	{r7, lr}
801005d2:	b082      	sub	sp, #8
801005d4:	af00      	add	r7, sp, #0
801005d6:	6078      	str	r0, [r7, #4]
801005d8:	6039      	str	r1, [r7, #0]
801005da:	6879      	ldr	r1, [r7, #4]
801005dc:	f241 60dc 	movw	r0, #5852	; 0x16dc
801005e0:	f2c8 0010 	movt	r0, #32784	; 0x8010
801005e4:	f000 fd17 	bl	80101016 <printf>
801005e8:	6839      	ldr	r1, [r7, #0]
801005ea:	f241 60f8 	movw	r0, #5880	; 0x16f8
801005ee:	f2c8 0010 	movt	r0, #32784	; 0x8010
801005f2:	f000 fd10 	bl	80101016 <printf>
801005f6:	bf00      	nop
801005f8:	3708      	adds	r7, #8
801005fa:	46bd      	mov	sp, r7
801005fc:	bd80      	pop	{r7, pc}

801005fe <printSWIVal>:
801005fe:	b580      	push	{r7, lr}
80100600:	b082      	sub	sp, #8
80100602:	af00      	add	r7, sp, #0
80100604:	6078      	str	r0, [r7, #4]
80100606:	687b      	ldr	r3, [r7, #4]
80100608:	681b      	ldr	r3, [r3, #0]
8010060a:	f023 437f 	bic.w	r3, r3, #4278190080	; 0xff000000
8010060e:	4619      	mov	r1, r3
80100610:	f241 7000 	movw	r0, #5888	; 0x1700
80100614:	f2c8 0010 	movt	r0, #32784	; 0x8010
80100618:	f000 fcfd 	bl	80101016 <printf>
8010061c:	bf00      	nop
8010061e:	3708      	adds	r7, #8
80100620:	46bd      	mov	sp, r7
80100622:	bd80      	pop	{r7, pc}

80100624 <key_gpio5_handle_irq>:
80100624:	b580      	push	{r7, lr}
80100626:	af00      	add	r7, sp, #0
80100628:	f44f 4340 	mov.w	r3, #49152	; 0xc000
8010062c:	f2c0 230a 	movt	r3, #522	; 0x20a
80100630:	681b      	ldr	r3, [r3, #0]
80100632:	085b      	lsrs	r3, r3, #1
80100634:	f003 0301 	and.w	r3, r3, #1
80100638:	2b00      	cmp	r3, #0
8010063a:	d012      	beq.n	80100662 <key_gpio5_handle_irq+0x3e>
8010063c:	f241 7014 	movw	r0, #5908	; 0x1714
80100640:	f2c8 0010 	movt	r0, #32784	; 0x8010
80100644:	f000 fce7 	bl	80101016 <printf>
80100648:	f44f 4340 	mov.w	r3, #49152	; 0xc000
8010064c:	f2c0 230a 	movt	r3, #522	; 0x20a
80100650:	f44f 4240 	mov.w	r2, #49152	; 0xc000
80100654:	f2c0 220a 	movt	r2, #522	; 0x20a
80100658:	6812      	ldr	r2, [r2, #0]
8010065a:	f042 0208 	orr.w	r2, r2, #8
8010065e:	601a      	str	r2, [r3, #0]
80100660:	e011      	b.n	80100686 <key_gpio5_handle_irq+0x62>
80100662:	f241 7028 	movw	r0, #5928	; 0x1728
80100666:	f2c8 0010 	movt	r0, #32784	; 0x8010
8010066a:	f000 fcd4 	bl	80101016 <printf>
8010066e:	f44f 4340 	mov.w	r3, #49152	; 0xc000
80100672:	f2c0 230a 	movt	r3, #522	; 0x20a
80100676:	f44f 4240 	mov.w	r2, #49152	; 0xc000
8010067a:	f2c0 220a 	movt	r2, #522	; 0x20a
8010067e:	6812      	ldr	r2, [r2, #0]
80100680:	f022 0208 	bic.w	r2, r2, #8
80100684:	601a      	str	r2, [r3, #0]
80100686:	f44f 4340 	mov.w	r3, #49152	; 0xc000
8010068a:	f2c0 230a 	movt	r3, #522	; 0x20a
8010068e:	f44f 4240 	mov.w	r2, #49152	; 0xc000
80100692:	f2c0 220a 	movt	r2, #522	; 0x20a
80100696:	6992      	ldr	r2, [r2, #24]
80100698:	f042 0202 	orr.w	r2, r2, #2
8010069c:	619a      	str	r2, [r3, #24]
8010069e:	bf00      	nop
801006a0:	bd80      	pop	{r7, pc}

801006a2 <key_gpio4_handle_irq>:
801006a2:	b580      	push	{r7, lr}
801006a4:	af00      	add	r7, sp, #0
801006a6:	f44f 4300 	mov.w	r3, #32768	; 0x8000
801006aa:	f2c0 230a 	movt	r3, #522	; 0x20a
801006ae:	681b      	ldr	r3, [r3, #0]
801006b0:	0b9b      	lsrs	r3, r3, #14
801006b2:	f003 0301 	and.w	r3, r3, #1
801006b6:	2b00      	cmp	r3, #0
801006b8:	d006      	beq.n	801006c8 <key_gpio4_handle_irq+0x26>
801006ba:	f241 703c 	movw	r0, #5948	; 0x173c
801006be:	f2c8 0010 	movt	r0, #32784	; 0x8010
801006c2:	f000 fca8 	bl	80101016 <printf>
801006c6:	e005      	b.n	801006d4 <key_gpio4_handle_irq+0x32>
801006c8:	f241 7050 	movw	r0, #5968	; 0x1750
801006cc:	f2c8 0010 	movt	r0, #32784	; 0x8010
801006d0:	f000 fca1 	bl	80101016 <printf>
801006d4:	f44f 4300 	mov.w	r3, #32768	; 0x8000
801006d8:	f2c0 230a 	movt	r3, #522	; 0x20a
801006dc:	f44f 4200 	mov.w	r2, #32768	; 0x8000
801006e0:	f2c0 220a 	movt	r2, #522	; 0x20a
801006e4:	6992      	ldr	r2, [r2, #24]
801006e6:	f442 4280 	orr.w	r2, r2, #16384	; 0x4000
801006ea:	619a      	str	r2, [r3, #24]
801006ec:	bf00      	nop
801006ee:	bd80      	pop	{r7, pc}

801006f0 <key_irq_init>:
801006f0:	b580      	push	{r7, lr}
801006f2:	af00      	add	r7, sp, #0
801006f4:	f44f 4340 	mov.w	r3, #49152	; 0xc000
801006f8:	f2c0 230a 	movt	r3, #522	; 0x20a
801006fc:	f44f 4240 	mov.w	r2, #49152	; 0xc000
80100700:	f2c0 220a 	movt	r2, #522	; 0x20a
80100704:	69d2      	ldr	r2, [r2, #28]
80100706:	f042 0202 	orr.w	r2, r2, #2
8010070a:	61da      	str	r2, [r3, #28]
8010070c:	f44f 4340 	mov.w	r3, #49152	; 0xc000
80100710:	f2c0 230a 	movt	r3, #522	; 0x20a
80100714:	f44f 4240 	mov.w	r2, #49152	; 0xc000
80100718:	f2c0 220a 	movt	r2, #522	; 0x20a
8010071c:	6952      	ldr	r2, [r2, #20]
8010071e:	f042 0202 	orr.w	r2, r2, #2
80100722:	615a      	str	r2, [r3, #20]
80100724:	f44f 4340 	mov.w	r3, #49152	; 0xc000
80100728:	f2c0 230a 	movt	r3, #522	; 0x20a
8010072c:	f44f 4240 	mov.w	r2, #49152	; 0xc000
80100730:	f2c0 220a 	movt	r2, #522	; 0x20a
80100734:	6992      	ldr	r2, [r2, #24]
80100736:	f042 0202 	orr.w	r2, r2, #2
8010073a:	619a      	str	r2, [r3, #24]
8010073c:	f44f 4300 	mov.w	r3, #32768	; 0x8000
80100740:	f2c0 230a 	movt	r3, #522	; 0x20a
80100744:	f44f 4200 	mov.w	r2, #32768	; 0x8000
80100748:	f2c0 220a 	movt	r2, #522	; 0x20a
8010074c:	69d2      	ldr	r2, [r2, #28]
8010074e:	f442 4280 	orr.w	r2, r2, #16384	; 0x4000
80100752:	61da      	str	r2, [r3, #28]
80100754:	f44f 4300 	mov.w	r3, #32768	; 0x8000
80100758:	f2c0 230a 	movt	r3, #522	; 0x20a
8010075c:	f44f 4200 	mov.w	r2, #32768	; 0x8000
80100760:	f2c0 220a 	movt	r2, #522	; 0x20a
80100764:	6952      	ldr	r2, [r2, #20]
80100766:	f442 4280 	orr.w	r2, r2, #16384	; 0x4000
8010076a:	615a      	str	r2, [r3, #20]
8010076c:	f44f 4300 	mov.w	r3, #32768	; 0x8000
80100770:	f2c0 230a 	movt	r3, #522	; 0x20a
80100774:	f44f 4200 	mov.w	r2, #32768	; 0x8000
80100778:	f2c0 220a 	movt	r2, #522	; 0x20a
8010077c:	6992      	ldr	r2, [r2, #24]
8010077e:	f442 4280 	orr.w	r2, r2, #16384	; 0x4000
80100782:	619a      	str	r2, [r3, #24]
80100784:	2200      	movs	r2, #0
80100786:	f240 6125 	movw	r1, #1573	; 0x625
8010078a:	f2c8 0110 	movt	r1, #32784	; 0x8010
8010078e:	206a      	movs	r0, #106	; 0x6a
80100790:	f000 fd58 	bl	80101244 <request_irq>
80100794:	2200      	movs	r2, #0
80100796:	f240 61a3 	movw	r1, #1699	; 0x6a3
8010079a:	f2c8 0110 	movt	r1, #32784	; 0x8010
8010079e:	2068      	movs	r0, #104	; 0x68
801007a0:	f000 fd50 	bl	80101244 <request_irq>
801007a4:	bf00      	nop
801007a6:	bd80      	pop	{r7, pc}

801007a8 <system_init>:
801007a8:	b580      	push	{r7, lr}
801007aa:	af00      	add	r7, sp, #0
801007ac:	f7ff fcf6 	bl	8010019c <init_pins>
801007b0:	f000 f835 	bl	8010081e <led_gpio_init>
801007b4:	2000      	movs	r0, #0
801007b6:	f000 f845 	bl	80100844 <led_ctl>
801007ba:	f7ff fda9 	bl	80100310 <boot_clk_gate_init>
801007be:	f7ff fde0 	bl	80100382 <boot_clk_init>
801007c2:	f000 f9cc 	bl	80100b5e <uart1_init>
801007c6:	f241 7064 	movw	r0, #5988	; 0x1764
801007ca:	f2c8 0010 	movt	r0, #32784	; 0x8010
801007ce:	f000 fa95 	bl	80100cfc <puts>
801007d2:	f000 fd54 	bl	8010127e <system_init_irq_table>
801007d6:	f7ff ff8b 	bl	801006f0 <key_irq_init>
801007da:	f000 fcba 	bl	80101152 <gic_init>
801007de:	206a      	movs	r0, #106	; 0x6a
801007e0:	f000 fcf2 	bl	801011c8 <gic_enable_irq>
801007e4:	2068      	movs	r0, #104	; 0x68
801007e6:	f000 fcef 	bl	801011c8 <gic_enable_irq>
801007ea:	bf00      	nop
801007ec:	bd80      	pop	{r7, pc}

801007ee <main>:
801007ee:	b580      	push	{r7, lr}
801007f0:	b082      	sub	sp, #8
801007f2:	af00      	add	r7, sp, #0
801007f4:	f000 fa6c 	bl	80100cd0 <getchar>
801007f8:	4603      	mov	r3, r0
801007fa:	71fb      	strb	r3, [r7, #7]
801007fc:	79fb      	ldrb	r3, [r7, #7]
801007fe:	2b0d      	cmp	r3, #13
80100800:	d102      	bne.n	80100808 <main+0x1a>
80100802:	200a      	movs	r0, #10
80100804:	f000 fa4a 	bl	80100c9c <putchar>
80100808:	79fb      	ldrb	r3, [r7, #7]
8010080a:	2b0a      	cmp	r3, #10
8010080c:	d102      	bne.n	80100814 <main+0x26>
8010080e:	200d      	movs	r0, #13
80100810:	f000 fa44 	bl	80100c9c <putchar>
80100814:	79fb      	ldrb	r3, [r7, #7]
80100816:	4618      	mov	r0, r3
80100818:	f000 fa40 	bl	80100c9c <putchar>
8010081c:	e7ea      	b.n	801007f4 <main+0x6>

8010081e <led_gpio_init>:
8010081e:	b480      	push	{r7}
80100820:	af00      	add	r7, sp, #0
80100822:	f44f 4340 	mov.w	r3, #49152	; 0xc000
80100826:	f2c0 230a 	movt	r3, #522	; 0x20a
8010082a:	f44f 4240 	mov.w	r2, #49152	; 0xc000
8010082e:	f2c0 220a 	movt	r2, #522	; 0x20a
80100832:	6852      	ldr	r2, [r2, #4]
80100834:	f042 0208 	orr.w	r2, r2, #8
80100838:	605a      	str	r2, [r3, #4]
8010083a:	bf00      	nop
8010083c:	46bd      	mov	sp, r7
8010083e:	f85d 7b04 	ldr.w	r7, [sp], #4
80100842:	4770      	bx	lr

80100844 <led_ctl>:
80100844:	b480      	push	{r7}
80100846:	b083      	sub	sp, #12
80100848:	af00      	add	r7, sp, #0
8010084a:	6078      	str	r0, [r7, #4]
8010084c:	687b      	ldr	r3, [r7, #4]
8010084e:	2b00      	cmp	r3, #0
80100850:	d00c      	beq.n	8010086c <led_ctl+0x28>
80100852:	f44f 4340 	mov.w	r3, #49152	; 0xc000
80100856:	f2c0 230a 	movt	r3, #522	; 0x20a
8010085a:	f44f 4240 	mov.w	r2, #49152	; 0xc000
8010085e:	f2c0 220a 	movt	r2, #522	; 0x20a
80100862:	6812      	ldr	r2, [r2, #0]
80100864:	f022 0208 	bic.w	r2, r2, #8
80100868:	601a      	str	r2, [r3, #0]
8010086a:	e00b      	b.n	80100884 <led_ctl+0x40>
8010086c:	f44f 4340 	mov.w	r3, #49152	; 0xc000
80100870:	f2c0 230a 	movt	r3, #522	; 0x20a
80100874:	f44f 4240 	mov.w	r2, #49152	; 0xc000
80100878:	f2c0 220a 	movt	r2, #522	; 0x20a
8010087c:	6812      	ldr	r2, [r2, #0]
8010087e:	f042 0208 	orr.w	r2, r2, #8
80100882:	601a      	str	r2, [r3, #0]
80100884:	bf00      	nop
80100886:	370c      	adds	r7, #12
80100888:	46bd      	mov	sp, r7
8010088a:	f85d 7b04 	ldr.w	r7, [sp], #4
8010088e:	4770      	bx	lr

80100890 <UART_SetBaudRate>:
80100890:	b590      	push	{r4, r7, lr}
80100892:	b091      	sub	sp, #68	; 0x44
80100894:	af00      	add	r7, sp, #0
80100896:	6078      	str	r0, [r7, #4]
80100898:	6039      	str	r1, [r7, #0]
8010089a:	2300      	movs	r3, #0
8010089c:	63fb      	str	r3, [r7, #60]	; 0x3c
8010089e:	2300      	movs	r3, #0
801008a0:	63bb      	str	r3, [r7, #56]	; 0x38
801008a2:	2300      	movs	r3, #0
801008a4:	637b      	str	r3, [r7, #52]	; 0x34
801008a6:	2300      	movs	r3, #0
801008a8:	633b      	str	r3, [r7, #48]	; 0x30
801008aa:	2301      	movs	r3, #1
801008ac:	623b      	str	r3, [r7, #32]
801008ae:	f04f 0300 	mov.w	r3, #0
801008b2:	f04f 0400 	mov.w	r4, #0
801008b6:	e9c7 3406 	strd	r3, r4, [r7, #24]
801008ba:	f04f 0300 	mov.w	r3, #0
801008be:	f04f 0400 	mov.w	r4, #0
801008c2:	e9c7 340a 	strd	r3, r4, [r7, #40]	; 0x28
801008c6:	2300      	movs	r3, #0
801008c8:	627b      	str	r3, [r7, #36]	; 0x24
801008ca:	683b      	ldr	r3, [r7, #0]
801008cc:	63fb      	str	r3, [r7, #60]	; 0x3c
801008ce:	687b      	ldr	r3, [r7, #4]
801008d0:	011b      	lsls	r3, r3, #4
801008d2:	63bb      	str	r3, [r7, #56]	; 0x38
801008d4:	2301      	movs	r3, #1
801008d6:	637b      	str	r3, [r7, #52]	; 0x34
801008d8:	e00a      	b.n	801008f0 <UART_SetBaudRate+0x60>
801008da:	6bbb      	ldr	r3, [r7, #56]	; 0x38
801008dc:	637b      	str	r3, [r7, #52]	; 0x34
801008de:	6bfb      	ldr	r3, [r7, #60]	; 0x3c
801008e0:	6bb9      	ldr	r1, [r7, #56]	; 0x38
801008e2:	4618      	mov	r0, r3
801008e4:	f000 fe42 	bl	8010156c <__aeabi_uidivmod>
801008e8:	460b      	mov	r3, r1
801008ea:	63bb      	str	r3, [r7, #56]	; 0x38
801008ec:	6b7b      	ldr	r3, [r7, #52]	; 0x34
801008ee:	63fb      	str	r3, [r7, #60]	; 0x3c
801008f0:	6bbb      	ldr	r3, [r7, #56]	; 0x38
801008f2:	2b00      	cmp	r3, #0
801008f4:	d1f1      	bne.n	801008da <UART_SetBaudRate+0x4a>
801008f6:	6b79      	ldr	r1, [r7, #52]	; 0x34
801008f8:	6838      	ldr	r0, [r7, #0]
801008fa:	f000 fd09 	bl	80101310 <__aeabi_uidiv>
801008fe:	4603      	mov	r3, r0
80100900:	63fb      	str	r3, [r7, #60]	; 0x3c
80100902:	687b      	ldr	r3, [r7, #4]
80100904:	011b      	lsls	r3, r3, #4
80100906:	6b79      	ldr	r1, [r7, #52]	; 0x34
80100908:	4618      	mov	r0, r3
8010090a:	f000 fd01 	bl	80101310 <__aeabi_uidiv>
8010090e:	4603      	mov	r3, r0
80100910:	63bb      	str	r3, [r7, #56]	; 0x38
80100912:	6bfa      	ldr	r2, [r7, #60]	; 0x3c
80100914:	f64f 73f9 	movw	r3, #65529	; 0xfff9
80100918:	f2c0 0306 	movt	r3, #6
8010091c:	429a      	cmp	r2, r3
8010091e:	d803      	bhi.n	80100928 <UART_SetBaudRate+0x98>
80100920:	6bbb      	ldr	r3, [r7, #56]	; 0x38
80100922:	f5b3 3f80 	cmp.w	r3, #65536	; 0x10000
80100926:	d334      	bcc.n	80100992 <UART_SetBaudRate+0x102>
80100928:	6bfb      	ldr	r3, [r7, #60]	; 0x3c
8010092a:	1e5a      	subs	r2, r3, #1
8010092c:	f646 53b9 	movw	r3, #28089	; 0x6db9
80100930:	f2c2 4393 	movt	r3, #9363	; 0x2493
80100934:	fba2 3403 	umull	r3, r4, r2, r3
80100938:	1b12      	subs	r2, r2, r4
8010093a:	0852      	lsrs	r2, r2, #1
8010093c:	1913      	adds	r3, r2, r4
8010093e:	0c9b      	lsrs	r3, r3, #18
80100940:	3301      	adds	r3, #1
80100942:	617b      	str	r3, [r7, #20]
80100944:	6bbb      	ldr	r3, [r7, #56]	; 0x38
80100946:	1e5a      	subs	r2, r3, #1
80100948:	f248 0301 	movw	r3, #32769	; 0x8001
8010094c:	f2c8 0300 	movt	r3, #32768	; 0x8000
80100950:	fba2 3403 	umull	r3, r4, r2, r3
80100954:	0be3      	lsrs	r3, r4, #15
80100956:	3301      	adds	r3, #1
80100958:	613b      	str	r3, [r7, #16]
8010095a:	693a      	ldr	r2, [r7, #16]
8010095c:	697b      	ldr	r3, [r7, #20]
8010095e:	4293      	cmp	r3, r2
80100960:	bf38      	it	cc
80100962:	4613      	movcc	r3, r2
80100964:	60fb      	str	r3, [r7, #12]
80100966:	68f9      	ldr	r1, [r7, #12]
80100968:	6bf8      	ldr	r0, [r7, #60]	; 0x3c
8010096a:	f000 fcd1 	bl	80101310 <__aeabi_uidiv>
8010096e:	4603      	mov	r3, r0
80100970:	63fb      	str	r3, [r7, #60]	; 0x3c
80100972:	68f9      	ldr	r1, [r7, #12]
80100974:	6bb8      	ldr	r0, [r7, #56]	; 0x38
80100976:	f000 fccb 	bl	80101310 <__aeabi_uidiv>
8010097a:	4603      	mov	r3, r0
8010097c:	63bb      	str	r3, [r7, #56]	; 0x38
8010097e:	6bfb      	ldr	r3, [r7, #60]	; 0x3c
80100980:	2b00      	cmp	r3, #0
80100982:	d101      	bne.n	80100988 <UART_SetBaudRate+0xf8>
80100984:	2301      	movs	r3, #1
80100986:	63fb      	str	r3, [r7, #60]	; 0x3c
80100988:	6bbb      	ldr	r3, [r7, #56]	; 0x38
8010098a:	2b00      	cmp	r3, #0
8010098c:	d101      	bne.n	80100992 <UART_SetBaudRate+0x102>
8010098e:	2301      	movs	r3, #1
80100990:	63bb      	str	r3, [r7, #56]	; 0x38
80100992:	6bfb      	ldr	r3, [r7, #60]	; 0x3c
80100994:	1e5a      	subs	r2, r3, #1
80100996:	f248 0301 	movw	r3, #32769	; 0x8001
8010099a:	f2c8 0300 	movt	r3, #32768	; 0x8000
8010099e:	fba2 3403 	umull	r3, r4, r2, r3
801009a2:	0be3      	lsrs	r3, r4, #15
801009a4:	3301      	adds	r3, #1
801009a6:	623b      	str	r3, [r7, #32]
801009a8:	6a3b      	ldr	r3, [r7, #32]
801009aa:	3b01      	subs	r3, #1
801009ac:	2b06      	cmp	r3, #6
801009ae:	d826      	bhi.n	801009fe <UART_SetBaudRate+0x16e>
801009b0:	a201      	add	r2, pc, #4	; (adr r2, 801009b8 <UART_SetBaudRate+0x128>)
801009b2:	f852 f023 	ldr.w	pc, [r2, r3, lsl #2]
801009b6:	bf00      	nop
801009b8:	801009d5 			; <UNDEFINED> instruction: 0x801009d5
801009bc:	801009db 			; <UNDEFINED> instruction: 0x801009db
801009c0:	801009e1 	andshi	r0, r0, r1, ror #19
801009c4:	801009e7 	andshi	r0, r0, r7, ror #19
801009c8:	801009ed 	andshi	r0, r0, sp, ror #19
801009cc:	801009f3 			; <UNDEFINED> instruction: 0x801009f3
801009d0:	801009f9 			; <UNDEFINED> instruction: 0x801009f9
801009d4:	2305      	movs	r3, #5
801009d6:	633b      	str	r3, [r7, #48]	; 0x30
801009d8:	e014      	b.n	80100a04 <UART_SetBaudRate+0x174>
801009da:	2304      	movs	r3, #4
801009dc:	633b      	str	r3, [r7, #48]	; 0x30
801009de:	e011      	b.n	80100a04 <UART_SetBaudRate+0x174>
801009e0:	2303      	movs	r3, #3
801009e2:	633b      	str	r3, [r7, #48]	; 0x30
801009e4:	e00e      	b.n	80100a04 <UART_SetBaudRate+0x174>
801009e6:	2302      	movs	r3, #2
801009e8:	633b      	str	r3, [r7, #48]	; 0x30
801009ea:	e00b      	b.n	80100a04 <UART_SetBaudRate+0x174>
801009ec:	2301      	movs	r3, #1
801009ee:	633b      	str	r3, [r7, #48]	; 0x30
801009f0:	e008      	b.n	80100a04 <UART_SetBaudRate+0x174>
801009f2:	2300      	movs	r3, #0
801009f4:	633b      	str	r3, [r7, #48]	; 0x30
801009f6:	e005      	b.n	80100a04 <UART_SetBaudRate+0x174>
801009f8:	2306      	movs	r3, #6
801009fa:	633b      	str	r3, [r7, #48]	; 0x30
801009fc:	e002      	b.n	80100a04 <UART_SetBaudRate+0x174>
801009fe:	2305      	movs	r3, #5
80100a00:	633b      	str	r3, [r7, #48]	; 0x30
80100a02:	bf00      	nop
80100a04:	683b      	ldr	r3, [r7, #0]
80100a06:	f04f 0400 	mov.w	r4, #0
80100a0a:	e9c7 340a 	strd	r3, r4, [r7, #40]	; 0x28
80100a0e:	6bfb      	ldr	r3, [r7, #60]	; 0x3c
80100a10:	011b      	lsls	r3, r3, #4
80100a12:	627b      	str	r3, [r7, #36]	; 0x24
80100a14:	2301      	movs	r3, #1
80100a16:	637b      	str	r3, [r7, #52]	; 0x34
80100a18:	e012      	b.n	80100a40 <UART_SetBaudRate+0x1b0>
80100a1a:	6a7b      	ldr	r3, [r7, #36]	; 0x24
80100a1c:	637b      	str	r3, [r7, #52]	; 0x34
80100a1e:	6a7b      	ldr	r3, [r7, #36]	; 0x24
80100a20:	f04f 0400 	mov.w	r4, #0
80100a24:	e9d7 010a 	ldrd	r0, r1, [r7, #40]	; 0x28
80100a28:	461a      	mov	r2, r3
80100a2a:	4623      	mov	r3, r4
80100a2c:	f000 fdac 	bl	80101588 <__aeabi_uldivmod>
80100a30:	461c      	mov	r4, r3
80100a32:	4613      	mov	r3, r2
80100a34:	627b      	str	r3, [r7, #36]	; 0x24
80100a36:	6b7b      	ldr	r3, [r7, #52]	; 0x34
80100a38:	f04f 0400 	mov.w	r4, #0
80100a3c:	e9c7 340a 	strd	r3, r4, [r7, #40]	; 0x28
80100a40:	6a7b      	ldr	r3, [r7, #36]	; 0x24
80100a42:	2b00      	cmp	r3, #0
80100a44:	d1e9      	bne.n	80100a1a <UART_SetBaudRate+0x18a>
80100a46:	6b79      	ldr	r1, [r7, #52]	; 0x34
80100a48:	6838      	ldr	r0, [r7, #0]
80100a4a:	f000 fc61 	bl	80101310 <__aeabi_uidiv>
80100a4e:	4603      	mov	r3, r0
80100a50:	f04f 0400 	mov.w	r4, #0
80100a54:	e9c7 340a 	strd	r3, r4, [r7, #40]	; 0x28
80100a58:	6bfb      	ldr	r3, [r7, #60]	; 0x3c
80100a5a:	011b      	lsls	r3, r3, #4
80100a5c:	6b79      	ldr	r1, [r7, #52]	; 0x34
80100a5e:	4618      	mov	r0, r3
80100a60:	f000 fc56 	bl	80101310 <__aeabi_uidiv>
80100a64:	4603      	mov	r3, r0
80100a66:	627b      	str	r3, [r7, #36]	; 0x24
80100a68:	6bbb      	ldr	r3, [r7, #56]	; 0x38
80100a6a:	f04f 0400 	mov.w	r4, #0
80100a6e:	6aba      	ldr	r2, [r7, #40]	; 0x28
80100a70:	fb04 f102 	mul.w	r1, r4, r2
80100a74:	6afa      	ldr	r2, [r7, #44]	; 0x2c
80100a76:	fb03 f202 	mul.w	r2, r3, r2
80100a7a:	440a      	add	r2, r1
80100a7c:	6ab9      	ldr	r1, [r7, #40]	; 0x28
80100a7e:	fba1 0103 	umull	r0, r1, r1, r3
80100a82:	1853      	adds	r3, r2, r1
80100a84:	4619      	mov	r1, r3
80100a86:	6a7b      	ldr	r3, [r7, #36]	; 0x24
80100a88:	f04f 0400 	mov.w	r4, #0
80100a8c:	461a      	mov	r2, r3
80100a8e:	4623      	mov	r3, r4
80100a90:	f000 fd7a 	bl	80101588 <__aeabi_uldivmod>
80100a94:	4603      	mov	r3, r0
80100a96:	460c      	mov	r4, r1
80100a98:	e9c7 3406 	strd	r3, r4, [r7, #24]
80100a9c:	687b      	ldr	r3, [r7, #4]
80100a9e:	f04f 0400 	mov.w	r4, #0
80100aa2:	e9d7 1206 	ldrd	r1, r2, [r7, #24]
80100aa6:	42a2      	cmp	r2, r4
80100aa8:	bf08      	it	eq
80100aaa:	4299      	cmpeq	r1, r3
80100aac:	d308      	bcc.n	80100ac0 <UART_SetBaudRate+0x230>
80100aae:	687b      	ldr	r3, [r7, #4]
80100ab0:	f04f 0400 	mov.w	r4, #0
80100ab4:	e9d7 1206 	ldrd	r1, r2, [r7, #24]
80100ab8:	1acb      	subs	r3, r1, r3
80100aba:	eb62 0404 	sbc.w	r4, r2, r4
80100abe:	e008      	b.n	80100ad2 <UART_SetBaudRate+0x242>
80100ac0:	687b      	ldr	r3, [r7, #4]
80100ac2:	4619      	mov	r1, r3
80100ac4:	f04f 0200 	mov.w	r2, #0
80100ac8:	e9d7 3406 	ldrd	r3, r4, [r7, #24]
80100acc:	1acb      	subs	r3, r1, r3
80100ace:	eb62 0404 	sbc.w	r4, r2, r4
80100ad2:	e9c7 3406 	strd	r3, r4, [r7, #24]
80100ad6:	2300      	movs	r3, #0
80100ad8:	f2c0 2302 	movt	r3, #514	; 0x202
80100adc:	2200      	movs	r2, #0
80100ade:	f2c0 2202 	movt	r2, #514	; 0x202
80100ae2:	f8d2 2090 	ldr.w	r2, [r2, #144]	; 0x90
80100ae6:	f422 7260 	bic.w	r2, r2, #896	; 0x380
80100aea:	f8c3 2090 	str.w	r2, [r3, #144]	; 0x90
80100aee:	2300      	movs	r3, #0
80100af0:	f2c0 2302 	movt	r3, #514	; 0x202
80100af4:	2200      	movs	r2, #0
80100af6:	f2c0 2202 	movt	r2, #514	; 0x202
80100afa:	f8d2 1090 	ldr.w	r1, [r2, #144]	; 0x90
80100afe:	6b3a      	ldr	r2, [r7, #48]	; 0x30
80100b00:	01d2      	lsls	r2, r2, #7
80100b02:	f402 7260 	and.w	r2, r2, #896	; 0x380
80100b06:	430a      	orrs	r2, r1
80100b08:	f8c3 2090 	str.w	r2, [r3, #144]	; 0x90
80100b0c:	2300      	movs	r3, #0
80100b0e:	f2c0 2302 	movt	r3, #514	; 0x202
80100b12:	6bba      	ldr	r2, [r7, #56]	; 0x38
80100b14:	3a01      	subs	r2, #1
80100b16:	b292      	uxth	r2, r2
80100b18:	f8c3 20a4 	str.w	r2, [r3, #164]	; 0xa4
80100b1c:	2400      	movs	r4, #0
80100b1e:	f2c0 2402 	movt	r4, #514	; 0x202
80100b22:	6a39      	ldr	r1, [r7, #32]
80100b24:	6bf8      	ldr	r0, [r7, #60]	; 0x3c
80100b26:	f000 fbf3 	bl	80101310 <__aeabi_uidiv>
80100b2a:	4603      	mov	r3, r0
80100b2c:	3b01      	subs	r3, #1
80100b2e:	b29b      	uxth	r3, r3
80100b30:	f8c4 30a8 	str.w	r3, [r4, #168]	; 0xa8
80100b34:	2400      	movs	r4, #0
80100b36:	f2c0 2402 	movt	r4, #514	; 0x202
80100b3a:	6a3b      	ldr	r3, [r7, #32]
80100b3c:	f44f 727a 	mov.w	r2, #1000	; 0x3e8
80100b40:	fb02 f303 	mul.w	r3, r2, r3
80100b44:	4619      	mov	r1, r3
80100b46:	6838      	ldr	r0, [r7, #0]
80100b48:	f000 fbe2 	bl	80101310 <__aeabi_uidiv>
80100b4c:	4603      	mov	r3, r0
80100b4e:	f023 437f 	bic.w	r3, r3, #4278190080	; 0xff000000
80100b52:	f8c4 30b0 	str.w	r3, [r4, #176]	; 0xb0
80100b56:	bf00      	nop
80100b58:	3744      	adds	r7, #68	; 0x44
80100b5a:	46bd      	mov	sp, r7
80100b5c:	bd90      	pop	{r4, r7, pc}

80100b5e <uart1_init>:
80100b5e:	b580      	push	{r7, lr}
80100b60:	af00      	add	r7, sp, #0
80100b62:	2300      	movs	r3, #0
80100b64:	f2c0 2302 	movt	r3, #514	; 0x202
80100b68:	2200      	movs	r2, #0
80100b6a:	f2c0 2202 	movt	r2, #514	; 0x202
80100b6e:	f8d2 2080 	ldr.w	r2, [r2, #128]	; 0x80
80100b72:	f022 0201 	bic.w	r2, r2, #1
80100b76:	f8c3 2080 	str.w	r2, [r3, #128]	; 0x80
80100b7a:	2300      	movs	r3, #0
80100b7c:	f2c0 2302 	movt	r3, #514	; 0x202
80100b80:	2200      	movs	r2, #0
80100b82:	f2c0 2202 	movt	r2, #514	; 0x202
80100b86:	f8d2 2084 	ldr.w	r2, [r2, #132]	; 0x84
80100b8a:	f022 0201 	bic.w	r2, r2, #1
80100b8e:	f8c3 2084 	str.w	r2, [r3, #132]	; 0x84
80100b92:	bf00      	nop
80100b94:	2300      	movs	r3, #0
80100b96:	f2c0 2302 	movt	r3, #514	; 0x202
80100b9a:	f8d3 3084 	ldr.w	r3, [r3, #132]	; 0x84
80100b9e:	f003 0301 	and.w	r3, r3, #1
80100ba2:	2b00      	cmp	r3, #0
80100ba4:	d0f6      	beq.n	80100b94 <uart1_init+0x36>
80100ba6:	2300      	movs	r3, #0
80100ba8:	f2c0 2302 	movt	r3, #514	; 0x202
80100bac:	2200      	movs	r2, #0
80100bae:	f8c3 2080 	str.w	r2, [r3, #128]	; 0x80
80100bb2:	2300      	movs	r3, #0
80100bb4:	f2c0 2302 	movt	r3, #514	; 0x202
80100bb8:	2201      	movs	r2, #1
80100bba:	f8c3 2084 	str.w	r2, [r3, #132]	; 0x84
80100bbe:	2300      	movs	r3, #0
80100bc0:	f2c0 2302 	movt	r3, #514	; 0x202
80100bc4:	f44f 62e0 	mov.w	r2, #1792	; 0x700
80100bc8:	f8c3 2088 	str.w	r2, [r3, #136]	; 0x88
80100bcc:	2300      	movs	r3, #0
80100bce:	f2c0 2302 	movt	r3, #514	; 0x202
80100bd2:	f44f 4200 	mov.w	r2, #32768	; 0x8000
80100bd6:	f8c3 208c 	str.w	r2, [r3, #140]	; 0x8c
80100bda:	2300      	movs	r3, #0
80100bdc:	f2c0 2302 	movt	r3, #514	; 0x202
80100be0:	f640 0201 	movw	r2, #2049	; 0x801
80100be4:	f8c3 2090 	str.w	r2, [r3, #144]	; 0x90
80100be8:	2300      	movs	r3, #0
80100bea:	f2c0 2302 	movt	r3, #514	; 0x202
80100bee:	222b      	movs	r2, #43	; 0x2b
80100bf0:	f8c3 209c 	str.w	r2, [r3, #156]	; 0x9c
80100bf4:	2300      	movs	r3, #0
80100bf6:	f2c0 2302 	movt	r3, #514	; 0x202
80100bfa:	2200      	movs	r2, #0
80100bfc:	f8c3 20a0 	str.w	r2, [r3, #160]	; 0xa0
80100c00:	2300      	movs	r3, #0
80100c02:	f2c0 2302 	movt	r3, #514	; 0x202
80100c06:	2200      	movs	r2, #0
80100c08:	f8c3 20b0 	str.w	r2, [r3, #176]	; 0xb0
80100c0c:	2300      	movs	r3, #0
80100c0e:	f2c0 2302 	movt	r3, #514	; 0x202
80100c12:	2260      	movs	r2, #96	; 0x60
80100c14:	f8c3 20b4 	str.w	r2, [r3, #180]	; 0xb4
80100c18:	2300      	movs	r3, #0
80100c1a:	f2c0 2302 	movt	r3, #514	; 0x202
80100c1e:	2200      	movs	r2, #0
80100c20:	f8c3 20b8 	str.w	r2, [r3, #184]	; 0xb8
80100c24:	2200      	movs	r2, #0
80100c26:	f2c0 2202 	movt	r2, #514	; 0x202
80100c2a:	2300      	movs	r3, #0
80100c2c:	f2c0 2302 	movt	r3, #514	; 0x202
80100c30:	f8d3 3084 	ldr.w	r3, [r3, #132]	; 0x84
80100c34:	f443 4380 	orr.w	r3, r3, #16384	; 0x4000
80100c38:	f043 0366 	orr.w	r3, r3, #102	; 0x66
80100c3c:	f8c2 3084 	str.w	r3, [r2, #132]	; 0x84
80100c40:	2300      	movs	r3, #0
80100c42:	f2c0 2302 	movt	r3, #514	; 0x202
80100c46:	2200      	movs	r2, #0
80100c48:	f2c0 2202 	movt	r2, #514	; 0x202
80100c4c:	f8d2 2088 	ldr.w	r2, [r2, #136]	; 0x88
80100c50:	f042 0204 	orr.w	r2, r2, #4
80100c54:	f8c3 2088 	str.w	r2, [r3, #136]	; 0x88
80100c58:	2300      	movs	r3, #0
80100c5a:	f2c0 2302 	movt	r3, #514	; 0x202
80100c5e:	2200      	movs	r2, #0
80100c60:	f2c0 2202 	movt	r2, #514	; 0x202
80100c64:	f8d2 2080 	ldr.w	r2, [r2, #128]	; 0x80
80100c68:	f422 4280 	bic.w	r2, r2, #16384	; 0x4000
80100c6c:	f8c3 2080 	str.w	r2, [r3, #128]	; 0x80
80100c70:	f44f 4134 	mov.w	r1, #46080	; 0xb400
80100c74:	f2c0 41c4 	movt	r1, #1220	; 0x4c4
80100c78:	f44f 30e1 	mov.w	r0, #115200	; 0x1c200
80100c7c:	f7ff fe08 	bl	80100890 <UART_SetBaudRate>
80100c80:	2300      	movs	r3, #0
80100c82:	f2c0 2302 	movt	r3, #514	; 0x202
80100c86:	2200      	movs	r2, #0
80100c88:	f2c0 2202 	movt	r2, #514	; 0x202
80100c8c:	f8d2 2080 	ldr.w	r2, [r2, #128]	; 0x80
80100c90:	f042 0201 	orr.w	r2, r2, #1
80100c94:	f8c3 2080 	str.w	r2, [r3, #128]	; 0x80
80100c98:	bf00      	nop
80100c9a:	bd80      	pop	{r7, pc}

80100c9c <putchar>:
80100c9c:	b480      	push	{r7}
80100c9e:	b083      	sub	sp, #12
80100ca0:	af00      	add	r7, sp, #0
80100ca2:	6078      	str	r0, [r7, #4]
80100ca4:	bf00      	nop
80100ca6:	2300      	movs	r3, #0
80100ca8:	f2c0 2302 	movt	r3, #514	; 0x202
80100cac:	f8d3 3098 	ldr.w	r3, [r3, #152]	; 0x98
80100cb0:	f003 0308 	and.w	r3, r3, #8
80100cb4:	2b00      	cmp	r3, #0
80100cb6:	d0f6      	beq.n	80100ca6 <putchar+0xa>
80100cb8:	2300      	movs	r3, #0
80100cba:	f2c0 2302 	movt	r3, #514	; 0x202
80100cbe:	687a      	ldr	r2, [r7, #4]
80100cc0:	b2d2      	uxtb	r2, r2
80100cc2:	641a      	str	r2, [r3, #64]	; 0x40
80100cc4:	bf00      	nop
80100cc6:	370c      	adds	r7, #12
80100cc8:	46bd      	mov	sp, r7
80100cca:	f85d 7b04 	ldr.w	r7, [sp], #4
80100cce:	4770      	bx	lr

80100cd0 <getchar>:
80100cd0:	b480      	push	{r7}
80100cd2:	af00      	add	r7, sp, #0
80100cd4:	bf00      	nop
80100cd6:	2300      	movs	r3, #0
80100cd8:	f2c0 2302 	movt	r3, #514	; 0x202
80100cdc:	f8d3 3098 	ldr.w	r3, [r3, #152]	; 0x98
80100ce0:	f003 0301 	and.w	r3, r3, #1
80100ce4:	2b00      	cmp	r3, #0
80100ce6:	d0f6      	beq.n	80100cd6 <getchar+0x6>
80100ce8:	2300      	movs	r3, #0
80100cea:	f2c0 2302 	movt	r3, #514	; 0x202
80100cee:	681b      	ldr	r3, [r3, #0]
80100cf0:	b2db      	uxtb	r3, r3
80100cf2:	4618      	mov	r0, r3
80100cf4:	46bd      	mov	sp, r7
80100cf6:	f85d 7b04 	ldr.w	r7, [sp], #4
80100cfa:	4770      	bx	lr

80100cfc <puts>:
80100cfc:	b580      	push	{r7, lr}
80100cfe:	b082      	sub	sp, #8
80100d00:	af00      	add	r7, sp, #0
80100d02:	6078      	str	r0, [r7, #4]
80100d04:	e007      	b.n	80100d16 <puts+0x1a>
80100d06:	687b      	ldr	r3, [r7, #4]
80100d08:	781b      	ldrb	r3, [r3, #0]
80100d0a:	4618      	mov	r0, r3
80100d0c:	f7ff ffc6 	bl	80100c9c <putchar>
80100d10:	687b      	ldr	r3, [r7, #4]
80100d12:	3301      	adds	r3, #1
80100d14:	607b      	str	r3, [r7, #4]
80100d16:	687b      	ldr	r3, [r7, #4]
80100d18:	781b      	ldrb	r3, [r3, #0]
80100d1a:	2b00      	cmp	r3, #0
80100d1c:	d1f3      	bne.n	80100d06 <puts+0xa>
80100d1e:	bf00      	nop
80100d20:	3708      	adds	r7, #8
80100d22:	46bd      	mov	sp, r7
80100d24:	bd80      	pop	{r7, pc}
80100d26:	bf00      	nop

80100d28 <raise>:
80100d28:	b480      	push	{r7}
80100d2a:	b083      	sub	sp, #12
80100d2c:	af00      	add	r7, sp, #0
80100d2e:	6078      	str	r0, [r7, #4]
80100d30:	2300      	movs	r3, #0
80100d32:	4618      	mov	r0, r3
80100d34:	370c      	adds	r7, #12
80100d36:	46bd      	mov	sp, r7
80100d38:	f85d 7b04 	ldr.w	r7, [sp], #4
80100d3c:	4770      	bx	lr
	...

80100d40 <outc>:
80100d40:	b580      	push	{r7, lr}
80100d42:	b082      	sub	sp, #8
80100d44:	af00      	add	r7, sp, #0
80100d46:	6078      	str	r0, [r7, #4]
80100d48:	6878      	ldr	r0, [r7, #4]
80100d4a:	f7ff ffa7 	bl	80100c9c <putchar>
80100d4e:	2300      	movs	r3, #0
80100d50:	4618      	mov	r0, r3
80100d52:	3708      	adds	r7, #8
80100d54:	46bd      	mov	sp, r7
80100d56:	bd80      	pop	{r7, pc}

80100d58 <outs>:
80100d58:	b580      	push	{r7, lr}
80100d5a:	b082      	sub	sp, #8
80100d5c:	af00      	add	r7, sp, #0
80100d5e:	6078      	str	r0, [r7, #4]
80100d60:	e006      	b.n	80100d70 <outs+0x18>
80100d62:	687b      	ldr	r3, [r7, #4]
80100d64:	1c5a      	adds	r2, r3, #1
80100d66:	607a      	str	r2, [r7, #4]
80100d68:	781b      	ldrb	r3, [r3, #0]
80100d6a:	4618      	mov	r0, r3
80100d6c:	f7ff ff96 	bl	80100c9c <putchar>
80100d70:	687b      	ldr	r3, [r7, #4]
80100d72:	781b      	ldrb	r3, [r3, #0]
80100d74:	2b00      	cmp	r3, #0
80100d76:	d1f4      	bne.n	80100d62 <outs+0xa>
80100d78:	2300      	movs	r3, #0
80100d7a:	4618      	mov	r0, r3
80100d7c:	3708      	adds	r7, #8
80100d7e:	46bd      	mov	sp, r7
80100d80:	bd80      	pop	{r7, pc}

80100d82 <out_num>:
80100d82:	b590      	push	{r4, r7, lr}
80100d84:	b099      	sub	sp, #100	; 0x64
80100d86:	af00      	add	r7, sp, #0
80100d88:	e9c7 0102 	strd	r0, r1, [r7, #8]
80100d8c:	607a      	str	r2, [r7, #4]
80100d8e:	70fb      	strb	r3, [r7, #3]
80100d90:	2300      	movs	r3, #0
80100d92:	65fb      	str	r3, [r7, #92]	; 0x5c
80100d94:	f107 0310 	add.w	r3, r7, #16
80100d98:	3340      	adds	r3, #64	; 0x40
80100d9a:	65bb      	str	r3, [r7, #88]	; 0x58
80100d9c:	2300      	movs	r3, #0
80100d9e:	657b      	str	r3, [r7, #84]	; 0x54
80100da0:	2300      	movs	r3, #0
80100da2:	653b      	str	r3, [r7, #80]	; 0x50
80100da4:	6dbb      	ldr	r3, [r7, #88]	; 0x58
80100da6:	3b01      	subs	r3, #1
80100da8:	65bb      	str	r3, [r7, #88]	; 0x58
80100daa:	6dbb      	ldr	r3, [r7, #88]	; 0x58
80100dac:	2200      	movs	r2, #0
80100dae:	701a      	strb	r2, [r3, #0]
80100db0:	e9d7 3402 	ldrd	r3, r4, [r7, #8]
80100db4:	2b00      	cmp	r3, #0
80100db6:	f174 0300 	sbcs.w	r3, r4, #0
80100dba:	da03      	bge.n	80100dc4 <out_num+0x42>
80100dbc:	68bb      	ldr	r3, [r7, #8]
80100dbe:	425b      	negs	r3, r3
80100dc0:	65fb      	str	r3, [r7, #92]	; 0x5c
80100dc2:	e001      	b.n	80100dc8 <out_num+0x46>
80100dc4:	68bb      	ldr	r3, [r7, #8]
80100dc6:	65fb      	str	r3, [r7, #92]	; 0x5c
80100dc8:	6dbb      	ldr	r3, [r7, #88]	; 0x58
80100dca:	3b01      	subs	r3, #1
80100dcc:	65bb      	str	r3, [r7, #88]	; 0x58
80100dce:	687a      	ldr	r2, [r7, #4]
80100dd0:	6dfb      	ldr	r3, [r7, #92]	; 0x5c
80100dd2:	4611      	mov	r1, r2
80100dd4:	4618      	mov	r0, r3
80100dd6:	f000 fbc9 	bl	8010156c <__aeabi_uidivmod>
80100dda:	460b      	mov	r3, r1
80100ddc:	461a      	mov	r2, r3
80100dde:	f641 03e0 	movw	r3, #6368	; 0x18e0
80100de2:	f2c8 0310 	movt	r3, #32784	; 0x8010
80100de6:	5c9a      	ldrb	r2, [r3, r2]
80100de8:	6dbb      	ldr	r3, [r7, #88]	; 0x58
80100dea:	701a      	strb	r2, [r3, #0]
80100dec:	6d7b      	ldr	r3, [r7, #84]	; 0x54
80100dee:	3301      	adds	r3, #1
80100df0:	657b      	str	r3, [r7, #84]	; 0x54
80100df2:	687b      	ldr	r3, [r7, #4]
80100df4:	4619      	mov	r1, r3
80100df6:	6df8      	ldr	r0, [r7, #92]	; 0x5c
80100df8:	f000 fa8a 	bl	80101310 <__aeabi_uidiv>
80100dfc:	4603      	mov	r3, r0
80100dfe:	65fb      	str	r3, [r7, #92]	; 0x5c
80100e00:	6dfb      	ldr	r3, [r7, #92]	; 0x5c
80100e02:	2b00      	cmp	r3, #0
80100e04:	d1e0      	bne.n	80100dc8 <out_num+0x46>
80100e06:	6f3b      	ldr	r3, [r7, #112]	; 0x70
80100e08:	2b00      	cmp	r3, #0
80100e0a:	d014      	beq.n	80100e36 <out_num+0xb4>
80100e0c:	6d7a      	ldr	r2, [r7, #84]	; 0x54
80100e0e:	6f3b      	ldr	r3, [r7, #112]	; 0x70
80100e10:	429a      	cmp	r2, r3
80100e12:	da10      	bge.n	80100e36 <out_num+0xb4>
80100e14:	6f3a      	ldr	r2, [r7, #112]	; 0x70
80100e16:	6d7b      	ldr	r3, [r7, #84]	; 0x54
80100e18:	1ad3      	subs	r3, r2, r3
80100e1a:	653b      	str	r3, [r7, #80]	; 0x50
80100e1c:	e008      	b.n	80100e30 <out_num+0xae>
80100e1e:	6dbb      	ldr	r3, [r7, #88]	; 0x58
80100e20:	3b01      	subs	r3, #1
80100e22:	65bb      	str	r3, [r7, #88]	; 0x58
80100e24:	6dbb      	ldr	r3, [r7, #88]	; 0x58
80100e26:	78fa      	ldrb	r2, [r7, #3]
80100e28:	701a      	strb	r2, [r3, #0]
80100e2a:	6d3b      	ldr	r3, [r7, #80]	; 0x50
80100e2c:	3b01      	subs	r3, #1
80100e2e:	653b      	str	r3, [r7, #80]	; 0x50
80100e30:	6d3b      	ldr	r3, [r7, #80]	; 0x50
80100e32:	2b00      	cmp	r3, #0
80100e34:	d1f3      	bne.n	80100e1e <out_num+0x9c>
80100e36:	e9d7 3402 	ldrd	r3, r4, [r7, #8]
80100e3a:	2b00      	cmp	r3, #0
80100e3c:	f174 0300 	sbcs.w	r3, r4, #0
80100e40:	da05      	bge.n	80100e4e <out_num+0xcc>
80100e42:	6dbb      	ldr	r3, [r7, #88]	; 0x58
80100e44:	3b01      	subs	r3, #1
80100e46:	65bb      	str	r3, [r7, #88]	; 0x58
80100e48:	6dbb      	ldr	r3, [r7, #88]	; 0x58
80100e4a:	222d      	movs	r2, #45	; 0x2d
80100e4c:	701a      	strb	r2, [r3, #0]
80100e4e:	6db8      	ldr	r0, [r7, #88]	; 0x58
80100e50:	f7ff ff82 	bl	80100d58 <outs>
80100e54:	4603      	mov	r3, r0
80100e56:	4618      	mov	r0, r3
80100e58:	3764      	adds	r7, #100	; 0x64
80100e5a:	46bd      	mov	sp, r7
80100e5c:	bd90      	pop	{r4, r7, pc}

80100e5e <my_vprintf>:
80100e5e:	b580      	push	{r7, lr}
80100e60:	b086      	sub	sp, #24
80100e62:	af02      	add	r7, sp, #8
80100e64:	6078      	str	r0, [r7, #4]
80100e66:	6039      	str	r1, [r7, #0]
80100e68:	2320      	movs	r3, #32
80100e6a:	72fb      	strb	r3, [r7, #11]
80100e6c:	2300      	movs	r3, #0
80100e6e:	60fb      	str	r3, [r7, #12]
80100e70:	e0c7      	b.n	80101002 <my_vprintf+0x1a4>
80100e72:	687b      	ldr	r3, [r7, #4]
80100e74:	781b      	ldrb	r3, [r3, #0]
80100e76:	2b25      	cmp	r3, #37	; 0x25
80100e78:	d005      	beq.n	80100e86 <my_vprintf+0x28>
80100e7a:	687b      	ldr	r3, [r7, #4]
80100e7c:	781b      	ldrb	r3, [r3, #0]
80100e7e:	4618      	mov	r0, r3
80100e80:	f7ff ff5e 	bl	80100d40 <outc>
80100e84:	e0ba      	b.n	80100ffc <my_vprintf+0x19e>
80100e86:	687b      	ldr	r3, [r7, #4]
80100e88:	3301      	adds	r3, #1
80100e8a:	607b      	str	r3, [r7, #4]
80100e8c:	687b      	ldr	r3, [r7, #4]
80100e8e:	781b      	ldrb	r3, [r3, #0]
80100e90:	2b30      	cmp	r3, #48	; 0x30
80100e92:	d104      	bne.n	80100e9e <my_vprintf+0x40>
80100e94:	2330      	movs	r3, #48	; 0x30
80100e96:	72fb      	strb	r3, [r7, #11]
80100e98:	687b      	ldr	r3, [r7, #4]
80100e9a:	3301      	adds	r3, #1
80100e9c:	607b      	str	r3, [r7, #4]
80100e9e:	2320      	movs	r3, #32
80100ea0:	72fb      	strb	r3, [r7, #11]
80100ea2:	2300      	movs	r3, #0
80100ea4:	60fb      	str	r3, [r7, #12]
80100ea6:	e00e      	b.n	80100ec6 <my_vprintf+0x68>
80100ea8:	68fa      	ldr	r2, [r7, #12]
80100eaa:	4613      	mov	r3, r2
80100eac:	009b      	lsls	r3, r3, #2
80100eae:	4413      	add	r3, r2
80100eb0:	005b      	lsls	r3, r3, #1
80100eb2:	60fb      	str	r3, [r7, #12]
80100eb4:	687b      	ldr	r3, [r7, #4]
80100eb6:	781b      	ldrb	r3, [r3, #0]
80100eb8:	3b30      	subs	r3, #48	; 0x30
80100eba:	68fa      	ldr	r2, [r7, #12]
80100ebc:	4413      	add	r3, r2
80100ebe:	60fb      	str	r3, [r7, #12]
80100ec0:	687b      	ldr	r3, [r7, #4]
80100ec2:	3301      	adds	r3, #1
80100ec4:	607b      	str	r3, [r7, #4]
80100ec6:	687b      	ldr	r3, [r7, #4]
80100ec8:	781b      	ldrb	r3, [r3, #0]
80100eca:	2b2f      	cmp	r3, #47	; 0x2f
80100ecc:	d903      	bls.n	80100ed6 <my_vprintf+0x78>
80100ece:	687b      	ldr	r3, [r7, #4]
80100ed0:	781b      	ldrb	r3, [r3, #0]
80100ed2:	2b39      	cmp	r3, #57	; 0x39
80100ed4:	d9e8      	bls.n	80100ea8 <my_vprintf+0x4a>
80100ed6:	687b      	ldr	r3, [r7, #4]
80100ed8:	781b      	ldrb	r3, [r3, #0]
80100eda:	3b63      	subs	r3, #99	; 0x63
80100edc:	2b15      	cmp	r3, #21
80100ede:	f200 8087 	bhi.w	80100ff0 <my_vprintf+0x192>
80100ee2:	a201      	add	r2, pc, #4	; (adr r2, 80100ee8 <my_vprintf+0x8a>)
80100ee4:	f852 f023 	ldr.w	pc, [r2, r3, lsl #2]
80100ee8:	80100fc9 	andshi	r0, r0, r9, asr #31
80100eec:	80100f41 	andshi	r0, r0, r1, asr #30
80100ef0:	80100ff1 			; <UNDEFINED> instruction: 0x80100ff1
80100ef4:	80100ff1 			; <UNDEFINED> instruction: 0x80100ff1
80100ef8:	80100ff1 			; <UNDEFINED> instruction: 0x80100ff1
80100efc:	80100ff1 			; <UNDEFINED> instruction: 0x80100ff1
80100f00:	80100ff1 			; <UNDEFINED> instruction: 0x80100ff1
80100f04:	80100ff1 			; <UNDEFINED> instruction: 0x80100ff1
80100f08:	80100ff1 			; <UNDEFINED> instruction: 0x80100ff1
80100f0c:	80100ff1 			; <UNDEFINED> instruction: 0x80100ff1
80100f10:	80100ff1 			; <UNDEFINED> instruction: 0x80100ff1
80100f14:	80100ff1 			; <UNDEFINED> instruction: 0x80100ff1
80100f18:	80100f63 	andshi	r0, r0, r3, ror #30
80100f1c:	80100ff1 			; <UNDEFINED> instruction: 0x80100ff1
80100f20:	80100ff1 			; <UNDEFINED> instruction: 0x80100ff1
80100f24:	80100ff1 			; <UNDEFINED> instruction: 0x80100ff1
80100f28:	80100fdd 			; <UNDEFINED> instruction: 0x80100fdd
80100f2c:	80100ff1 			; <UNDEFINED> instruction: 0x80100ff1
80100f30:	80100f85 	andshi	r0, r0, r5, lsl #31
80100f34:	80100ff1 			; <UNDEFINED> instruction: 0x80100ff1
80100f38:	80100ff1 			; <UNDEFINED> instruction: 0x80100ff1
80100f3c:	80100fa7 	andshi	r0, r0, r7, lsr #31
80100f40:	683b      	ldr	r3, [r7, #0]
80100f42:	3304      	adds	r3, #4
80100f44:	603b      	str	r3, [r7, #0]
80100f46:	683b      	ldr	r3, [r7, #0]
80100f48:	3b04      	subs	r3, #4
80100f4a:	681b      	ldr	r3, [r3, #0]
80100f4c:	4618      	mov	r0, r3
80100f4e:	ea4f 71e0 	mov.w	r1, r0, asr #31
80100f52:	7afa      	ldrb	r2, [r7, #11]
80100f54:	68fb      	ldr	r3, [r7, #12]
80100f56:	9300      	str	r3, [sp, #0]
80100f58:	4613      	mov	r3, r2
80100f5a:	220a      	movs	r2, #10
80100f5c:	f7ff ff11 	bl	80100d82 <out_num>
80100f60:	e04c      	b.n	80100ffc <my_vprintf+0x19e>
80100f62:	683b      	ldr	r3, [r7, #0]
80100f64:	3304      	adds	r3, #4
80100f66:	603b      	str	r3, [r7, #0]
80100f68:	683b      	ldr	r3, [r7, #0]
80100f6a:	3b04      	subs	r3, #4
80100f6c:	681b      	ldr	r3, [r3, #0]
80100f6e:	4618      	mov	r0, r3
80100f70:	f04f 0100 	mov.w	r1, #0
80100f74:	7afa      	ldrb	r2, [r7, #11]
80100f76:	68fb      	ldr	r3, [r7, #12]
80100f78:	9300      	str	r3, [sp, #0]
80100f7a:	4613      	mov	r3, r2
80100f7c:	2208      	movs	r2, #8
80100f7e:	f7ff ff00 	bl	80100d82 <out_num>
80100f82:	e03b      	b.n	80100ffc <my_vprintf+0x19e>
80100f84:	683b      	ldr	r3, [r7, #0]
80100f86:	3304      	adds	r3, #4
80100f88:	603b      	str	r3, [r7, #0]
80100f8a:	683b      	ldr	r3, [r7, #0]
80100f8c:	3b04      	subs	r3, #4
80100f8e:	681b      	ldr	r3, [r3, #0]
80100f90:	4618      	mov	r0, r3
80100f92:	f04f 0100 	mov.w	r1, #0
80100f96:	7afa      	ldrb	r2, [r7, #11]
80100f98:	68fb      	ldr	r3, [r7, #12]
80100f9a:	9300      	str	r3, [sp, #0]
80100f9c:	4613      	mov	r3, r2
80100f9e:	220a      	movs	r2, #10
80100fa0:	f7ff feef 	bl	80100d82 <out_num>
80100fa4:	e02a      	b.n	80100ffc <my_vprintf+0x19e>
80100fa6:	683b      	ldr	r3, [r7, #0]
80100fa8:	3304      	adds	r3, #4
80100faa:	603b      	str	r3, [r7, #0]
80100fac:	683b      	ldr	r3, [r7, #0]
80100fae:	3b04      	subs	r3, #4
80100fb0:	681b      	ldr	r3, [r3, #0]
80100fb2:	4618      	mov	r0, r3
80100fb4:	f04f 0100 	mov.w	r1, #0
80100fb8:	7afa      	ldrb	r2, [r7, #11]
80100fba:	68fb      	ldr	r3, [r7, #12]
80100fbc:	9300      	str	r3, [sp, #0]
80100fbe:	4613      	mov	r3, r2
80100fc0:	2210      	movs	r2, #16
80100fc2:	f7ff fede 	bl	80100d82 <out_num>
80100fc6:	e019      	b.n	80100ffc <my_vprintf+0x19e>
80100fc8:	683b      	ldr	r3, [r7, #0]
80100fca:	3304      	adds	r3, #4
80100fcc:	603b      	str	r3, [r7, #0]
80100fce:	683b      	ldr	r3, [r7, #0]
80100fd0:	3b04      	subs	r3, #4
80100fd2:	681b      	ldr	r3, [r3, #0]
80100fd4:	4618      	mov	r0, r3
80100fd6:	f7ff feb3 	bl	80100d40 <outc>
80100fda:	e00f      	b.n	80100ffc <my_vprintf+0x19e>
80100fdc:	683b      	ldr	r3, [r7, #0]
80100fde:	3304      	adds	r3, #4
80100fe0:	603b      	str	r3, [r7, #0]
80100fe2:	683b      	ldr	r3, [r7, #0]
80100fe4:	3b04      	subs	r3, #4
80100fe6:	681b      	ldr	r3, [r3, #0]
80100fe8:	4618      	mov	r0, r3
80100fea:	f7ff feb5 	bl	80100d58 <outs>
80100fee:	e005      	b.n	80100ffc <my_vprintf+0x19e>
80100ff0:	687b      	ldr	r3, [r7, #4]
80100ff2:	781b      	ldrb	r3, [r3, #0]
80100ff4:	4618      	mov	r0, r3
80100ff6:	f7ff fea3 	bl	80100d40 <outc>
80100ffa:	bf00      	nop
80100ffc:	687b      	ldr	r3, [r7, #4]
80100ffe:	3301      	adds	r3, #1
80101000:	607b      	str	r3, [r7, #4]
80101002:	687b      	ldr	r3, [r7, #4]
80101004:	781b      	ldrb	r3, [r3, #0]
80101006:	2b00      	cmp	r3, #0
80101008:	f47f af33 	bne.w	80100e72 <my_vprintf+0x14>
8010100c:	2300      	movs	r3, #0
8010100e:	4618      	mov	r0, r3
80101010:	3710      	adds	r7, #16
80101012:	46bd      	mov	sp, r7
80101014:	bd80      	pop	{r7, pc}

80101016 <printf>:
80101016:	b40f      	push	{r0, r1, r2, r3}
80101018:	b580      	push	{r7, lr}
8010101a:	b082      	sub	sp, #8
8010101c:	af00      	add	r7, sp, #0
8010101e:	f107 0314 	add.w	r3, r7, #20
80101022:	607b      	str	r3, [r7, #4]
80101024:	693b      	ldr	r3, [r7, #16]
80101026:	6879      	ldr	r1, [r7, #4]
80101028:	4618      	mov	r0, r3
8010102a:	f7ff ff18 	bl	80100e5e <my_vprintf>
8010102e:	2300      	movs	r3, #0
80101030:	607b      	str	r3, [r7, #4]
80101032:	2300      	movs	r3, #0
80101034:	4618      	mov	r0, r3
80101036:	3708      	adds	r7, #8
80101038:	46bd      	mov	sp, r7
8010103a:	e8bd 4080 	ldmia.w	sp!, {r7, lr}
8010103e:	b004      	add	sp, #16
80101040:	4770      	bx	lr

80101042 <my_printf_test>:
80101042:	b580      	push	{r7, lr}
80101044:	af00      	add	r7, sp, #0
80101046:	f241 7074 	movw	r0, #6004	; 0x1774
8010104a:	f2c8 0010 	movt	r0, #32784	; 0x8010
8010104e:	f7ff ffe2 	bl	80101016 <printf>
80101052:	2261      	movs	r2, #97	; 0x61
80101054:	2141      	movs	r1, #65	; 0x41
80101056:	f241 70a0 	movw	r0, #6048	; 0x17a0
8010105a:	f2c8 0010 	movt	r0, #32784	; 0x8010
8010105e:	f7ff ffda 	bl	80101016 <printf>
80101062:	f24e 2140 	movw	r1, #57920	; 0xe240
80101066:	f2c0 0101 	movt	r1, #1
8010106a:	f241 70c0 	movw	r0, #6080	; 0x17c0
8010106e:	f2c8 0010 	movt	r0, #32784	; 0x8010
80101072:	f7ff ffd0 	bl	80101016 <printf>
80101076:	f44f 51ee 	mov.w	r1, #7616	; 0x1dc0
8010107a:	f6cf 71fe 	movt	r1, #65534	; 0xfffe
8010107e:	f241 70c0 	movw	r0, #6080	; 0x17c0
80101082:	f2c8 0010 	movt	r0, #32784	; 0x8010
80101086:	f7ff ffc6 	bl	80101016 <printf>
8010108a:	f245 51aa 	movw	r1, #21930	; 0x55aa
8010108e:	f2c5 51aa 	movt	r1, #21930	; 0x55aa
80101092:	f241 70dc 	movw	r0, #6108	; 0x17dc
80101096:	f2c8 0010 	movt	r0, #32784	; 0x8010
8010109a:	f7ff ffbc 	bl	80101016 <printf>
8010109e:	f241 71f8 	movw	r1, #6136	; 0x17f8
801010a2:	f2c8 0110 	movt	r1, #32784	; 0x8010
801010a6:	f641 0008 	movw	r0, #6152	; 0x1808
801010aa:	f2c8 0010 	movt	r0, #32784	; 0x8010
801010ae:	f7ff ffb2 	bl	80101016 <printf>
801010b2:	f243 0139 	movw	r1, #12345	; 0x3039
801010b6:	f641 0024 	movw	r0, #6180	; 0x1824
801010ba:	f2c8 0010 	movt	r0, #32784	; 0x8010
801010be:	f7ff ffaa 	bl	80101016 <printf>
801010c2:	f243 0139 	movw	r1, #12345	; 0x3039
801010c6:	f641 0030 	movw	r0, #6192	; 0x1830
801010ca:	f2c8 0010 	movt	r0, #32784	; 0x8010
801010ce:	f7ff ffa2 	bl	80101016 <printf>
801010d2:	f242 3145 	movw	r1, #9029	; 0x2345
801010d6:	f2c0 0101 	movt	r1, #1
801010da:	f641 003c 	movw	r0, #6204	; 0x183c
801010de:	f2c8 0010 	movt	r0, #32784	; 0x8010
801010e2:	f7ff ff98 	bl	80101016 <printf>
801010e6:	f242 3145 	movw	r1, #9029	; 0x2345
801010ea:	f2c0 0101 	movt	r1, #1
801010ee:	f641 004c 	movw	r0, #6220	; 0x184c
801010f2:	f2c8 0010 	movt	r0, #32784	; 0x8010
801010f6:	f7ff ff8e 	bl	80101016 <printf>
801010fa:	2101      	movs	r1, #1
801010fc:	f641 0058 	movw	r0, #6232	; 0x1858
80101100:	f2c8 0010 	movt	r0, #32784	; 0x8010
80101104:	f7ff ff87 	bl	80101016 <printf>
80101108:	2101      	movs	r1, #1
8010110a:	f641 0068 	movw	r0, #6248	; 0x1868
8010110e:	f2c8 0010 	movt	r0, #32784	; 0x8010
80101112:	f7ff ff80 	bl	80101016 <printf>
80101116:	2101      	movs	r1, #1
80101118:	f641 0074 	movw	r0, #6260	; 0x1874
8010111c:	f2c8 0010 	movt	r0, #32784	; 0x8010
80101120:	f7ff ff79 	bl	80101016 <printf>
80101124:	2101      	movs	r1, #1
80101126:	f641 0080 	movw	r0, #6272	; 0x1880
8010112a:	f2c8 0010 	movt	r0, #32784	; 0x8010
8010112e:	f7ff ff72 	bl	80101016 <printf>
80101132:	2300      	movs	r3, #0
80101134:	4618      	mov	r0, r3
80101136:	bd80      	pop	{r7, pc}

80101138 <get_gic_base>:
80101138:	b480      	push	{r7}
8010113a:	b083      	sub	sp, #12
8010113c:	af00      	add	r7, sp, #0
8010113e:	ee9f 3f10 	mrc	15, 4, r3, cr15, cr0, {0}
80101142:	607b      	str	r3, [r7, #4]
80101144:	687b      	ldr	r3, [r7, #4]
80101146:	4618      	mov	r0, r3
80101148:	370c      	adds	r7, #12
8010114a:	46bd      	mov	sp, r7
8010114c:	f85d 7b04 	ldr.w	r7, [sp], #4
80101150:	4770      	bx	lr

80101152 <gic_init>:
80101152:	b580      	push	{r7, lr}
80101154:	b084      	sub	sp, #16
80101156:	af00      	add	r7, sp, #0
80101158:	f7ff ffee 	bl	80101138 <get_gic_base>
8010115c:	60b8      	str	r0, [r7, #8]
8010115e:	68bb      	ldr	r3, [r7, #8]
80101160:	f503 5380 	add.w	r3, r3, #4096	; 0x1000
80101164:	3304      	adds	r3, #4
80101166:	681b      	ldr	r3, [r3, #0]
80101168:	f003 031f 	and.w	r3, r3, #31
8010116c:	3301      	adds	r3, #1
8010116e:	607b      	str	r3, [r7, #4]
80101170:	2300      	movs	r3, #0
80101172:	60fb      	str	r3, [r7, #12]
80101174:	e00a      	b.n	8010118c <gic_init+0x3a>
80101176:	68bb      	ldr	r3, [r7, #8]
80101178:	68fa      	ldr	r2, [r7, #12]
8010117a:	f502 628c 	add.w	r2, r2, #1120	; 0x460
8010117e:	f04f 31ff 	mov.w	r1, #4294967295	; 0xffffffff
80101182:	f843 1022 	str.w	r1, [r3, r2, lsl #2]
80101186:	68fb      	ldr	r3, [r7, #12]
80101188:	3301      	adds	r3, #1
8010118a:	60fb      	str	r3, [r7, #12]
8010118c:	68fa      	ldr	r2, [r7, #12]
8010118e:	687b      	ldr	r3, [r7, #4]
80101190:	429a      	cmp	r2, r3
80101192:	d3f0      	bcc.n	80101176 <gic_init+0x24>
80101194:	68bb      	ldr	r3, [r7, #8]
80101196:	f503 5300 	add.w	r3, r3, #8192	; 0x2000
8010119a:	3304      	adds	r3, #4
8010119c:	22f8      	movs	r2, #248	; 0xf8
8010119e:	601a      	str	r2, [r3, #0]
801011a0:	68bb      	ldr	r3, [r7, #8]
801011a2:	f503 5300 	add.w	r3, r3, #8192	; 0x2000
801011a6:	3308      	adds	r3, #8
801011a8:	2202      	movs	r2, #2
801011aa:	601a      	str	r2, [r3, #0]
801011ac:	68bb      	ldr	r3, [r7, #8]
801011ae:	f503 5380 	add.w	r3, r3, #4096	; 0x1000
801011b2:	2201      	movs	r2, #1
801011b4:	601a      	str	r2, [r3, #0]
801011b6:	68bb      	ldr	r3, [r7, #8]
801011b8:	f503 5300 	add.w	r3, r3, #8192	; 0x2000
801011bc:	2201      	movs	r2, #1
801011be:	601a      	str	r2, [r3, #0]
801011c0:	bf00      	nop
801011c2:	3710      	adds	r7, #16
801011c4:	46bd      	mov	sp, r7
801011c6:	bd80      	pop	{r7, pc}

801011c8 <gic_enable_irq>:
801011c8:	b580      	push	{r7, lr}
801011ca:	b084      	sub	sp, #16
801011cc:	af00      	add	r7, sp, #0
801011ce:	6078      	str	r0, [r7, #4]
801011d0:	f7ff ffb2 	bl	80101138 <get_gic_base>
801011d4:	60f8      	str	r0, [r7, #12]
801011d6:	687b      	ldr	r3, [r7, #4]
801011d8:	115a      	asrs	r2, r3, #5
801011da:	687b      	ldr	r3, [r7, #4]
801011dc:	f003 031f 	and.w	r3, r3, #31
801011e0:	2101      	movs	r1, #1
801011e2:	4099      	lsls	r1, r3
801011e4:	68fb      	ldr	r3, [r7, #12]
801011e6:	f502 6288 	add.w	r2, r2, #1088	; 0x440
801011ea:	f843 1022 	str.w	r1, [r3, r2, lsl #2]
801011ee:	bf00      	nop
801011f0:	3710      	adds	r7, #16
801011f2:	46bd      	mov	sp, r7
801011f4:	bd80      	pop	{r7, pc}

801011f6 <gic_disable_irq>:
801011f6:	b580      	push	{r7, lr}
801011f8:	b084      	sub	sp, #16
801011fa:	af00      	add	r7, sp, #0
801011fc:	6078      	str	r0, [r7, #4]
801011fe:	f7ff ff9b 	bl	80101138 <get_gic_base>
80101202:	60f8      	str	r0, [r7, #12]
80101204:	687b      	ldr	r3, [r7, #4]
80101206:	115a      	asrs	r2, r3, #5
80101208:	687b      	ldr	r3, [r7, #4]
8010120a:	f003 031f 	and.w	r3, r3, #31
8010120e:	2101      	movs	r1, #1
80101210:	4099      	lsls	r1, r3
80101212:	68fb      	ldr	r3, [r7, #12]
80101214:	f502 628c 	add.w	r2, r2, #1120	; 0x460
80101218:	f843 1022 	str.w	r1, [r3, r2, lsl #2]
8010121c:	bf00      	nop
8010121e:	3710      	adds	r7, #16
80101220:	46bd      	mov	sp, r7
80101222:	bd80      	pop	{r7, pc}

80101224 <default_irq_handler>:
80101224:	b580      	push	{r7, lr}
80101226:	b082      	sub	sp, #8
80101228:	af00      	add	r7, sp, #0
8010122a:	6078      	str	r0, [r7, #4]
8010122c:	6039      	str	r1, [r7, #0]
8010122e:	6879      	ldr	r1, [r7, #4]
80101230:	f641 008c 	movw	r0, #6284	; 0x188c
80101234:	f2c8 0010 	movt	r0, #32784	; 0x8010
80101238:	f7ff feed 	bl	80101016 <printf>
8010123c:	bf00      	nop
8010123e:	3708      	adds	r7, #8
80101240:	46bd      	mov	sp, r7
80101242:	bd80      	pop	{r7, pc}

80101244 <request_irq>:
80101244:	b480      	push	{r7}
80101246:	b085      	sub	sp, #20
80101248:	af00      	add	r7, sp, #0
8010124a:	60f8      	str	r0, [r7, #12]
8010124c:	60b9      	str	r1, [r7, #8]
8010124e:	607a      	str	r2, [r7, #4]
80101250:	f641 03f0 	movw	r3, #6384	; 0x18f0
80101254:	f2c8 0310 	movt	r3, #32784	; 0x8010
80101258:	68fa      	ldr	r2, [r7, #12]
8010125a:	68b9      	ldr	r1, [r7, #8]
8010125c:	f843 1032 	str.w	r1, [r3, r2, lsl #3]
80101260:	f641 02f0 	movw	r2, #6384	; 0x18f0
80101264:	f2c8 0210 	movt	r2, #32784	; 0x8010
80101268:	68fb      	ldr	r3, [r7, #12]
8010126a:	00db      	lsls	r3, r3, #3
8010126c:	4413      	add	r3, r2
8010126e:	687a      	ldr	r2, [r7, #4]
80101270:	605a      	str	r2, [r3, #4]
80101272:	bf00      	nop
80101274:	3714      	adds	r7, #20
80101276:	46bd      	mov	sp, r7
80101278:	f85d 7b04 	ldr.w	r7, [sp], #4
8010127c:	4770      	bx	lr

8010127e <system_init_irq_table>:
8010127e:	b580      	push	{r7, lr}
80101280:	b082      	sub	sp, #8
80101282:	af00      	add	r7, sp, #0
80101284:	2300      	movs	r3, #0
80101286:	607b      	str	r3, [r7, #4]
80101288:	e00b      	b.n	801012a2 <system_init_irq_table+0x24>
8010128a:	687b      	ldr	r3, [r7, #4]
8010128c:	2200      	movs	r2, #0
8010128e:	f241 2125 	movw	r1, #4645	; 0x1225
80101292:	f2c8 0110 	movt	r1, #32784	; 0x8010
80101296:	4618      	mov	r0, r3
80101298:	f7ff ffd4 	bl	80101244 <request_irq>
8010129c:	687b      	ldr	r3, [r7, #4]
8010129e:	3301      	adds	r3, #1
801012a0:	607b      	str	r3, [r7, #4]
801012a2:	687b      	ldr	r3, [r7, #4]
801012a4:	2b9e      	cmp	r3, #158	; 0x9e
801012a6:	d9f0      	bls.n	8010128a <system_init_irq_table+0xc>
801012a8:	bf00      	nop
801012aa:	3708      	adds	r7, #8
801012ac:	46bd      	mov	sp, r7
801012ae:	bd80      	pop	{r7, pc}

801012b0 <handle_irq_c>:
801012b0:	b590      	push	{r4, r7, lr}
801012b2:	b083      	sub	sp, #12
801012b4:	af00      	add	r7, sp, #0
801012b6:	f7ff ff3f 	bl	80101138 <get_gic_base>
801012ba:	6078      	str	r0, [r7, #4]
801012bc:	687b      	ldr	r3, [r7, #4]
801012be:	f503 5300 	add.w	r3, r3, #8192	; 0x2000
801012c2:	330c      	adds	r3, #12
801012c4:	681b      	ldr	r3, [r3, #0]
801012c6:	603b      	str	r3, [r7, #0]
801012c8:	6839      	ldr	r1, [r7, #0]
801012ca:	f641 00c0 	movw	r0, #6336	; 0x18c0
801012ce:	f2c8 0010 	movt	r0, #32784	; 0x8010
801012d2:	f7ff fea0 	bl	80101016 <printf>
801012d6:	f641 03f0 	movw	r3, #6384	; 0x18f0
801012da:	f2c8 0310 	movt	r3, #32784	; 0x8010
801012de:	683a      	ldr	r2, [r7, #0]
801012e0:	f853 4032 	ldr.w	r4, [r3, r2, lsl #3]
801012e4:	6838      	ldr	r0, [r7, #0]
801012e6:	f641 02f0 	movw	r2, #6384	; 0x18f0
801012ea:	f2c8 0210 	movt	r2, #32784	; 0x8010
801012ee:	683b      	ldr	r3, [r7, #0]
801012f0:	00db      	lsls	r3, r3, #3
801012f2:	4413      	add	r3, r2
801012f4:	685b      	ldr	r3, [r3, #4]
801012f6:	4619      	mov	r1, r3
801012f8:	47a0      	blx	r4
801012fa:	683a      	ldr	r2, [r7, #0]
801012fc:	687b      	ldr	r3, [r7, #4]
801012fe:	f503 5300 	add.w	r3, r3, #8192	; 0x2000
80101302:	3310      	adds	r3, #16
80101304:	601a      	str	r2, [r3, #0]
80101306:	bf00      	nop
80101308:	370c      	adds	r7, #12
8010130a:	46bd      	mov	sp, r7
8010130c:	bd90      	pop	{r4, r7, pc}
	...

80101310 <__aeabi_uidiv>:
80101310:	1e4a      	subs	r2, r1, #1
80101312:	bf08      	it	eq
80101314:	4770      	bxeq	lr
80101316:	f0c0 8124 	bcc.w	80101562 <__aeabi_uidiv+0x252>
8010131a:	4288      	cmp	r0, r1
8010131c:	f240 8116 	bls.w	8010154c <__aeabi_uidiv+0x23c>
80101320:	4211      	tst	r1, r2
80101322:	f000 8117 	beq.w	80101554 <__aeabi_uidiv+0x244>
80101326:	fab0 f380 	clz	r3, r0
8010132a:	fab1 f281 	clz	r2, r1
8010132e:	eba2 0303 	sub.w	r3, r2, r3
80101332:	f1c3 031f 	rsb	r3, r3, #31
80101336:	a204      	add	r2, pc, #16	; (adr r2, 80101348 <__aeabi_uidiv+0x38>)
80101338:	eb02 1303 	add.w	r3, r2, r3, lsl #4
8010133c:	f04f 0200 	mov.w	r2, #0
80101340:	469f      	mov	pc, r3
80101342:	bf00      	nop
80101344:	f3af 8000 	nop.w
80101348:	ebb0 7fc1 	cmp.w	r0, r1, lsl #31
8010134c:	bf00      	nop
8010134e:	eb42 0202 	adc.w	r2, r2, r2
80101352:	bf28      	it	cs
80101354:	eba0 70c1 	subcs.w	r0, r0, r1, lsl #31
80101358:	ebb0 7f81 	cmp.w	r0, r1, lsl #30
8010135c:	bf00      	nop
8010135e:	eb42 0202 	adc.w	r2, r2, r2
80101362:	bf28      	it	cs
80101364:	eba0 7081 	subcs.w	r0, r0, r1, lsl #30
80101368:	ebb0 7f41 	cmp.w	r0, r1, lsl #29
8010136c:	bf00      	nop
8010136e:	eb42 0202 	adc.w	r2, r2, r2
80101372:	bf28      	it	cs
80101374:	eba0 7041 	subcs.w	r0, r0, r1, lsl #29
80101378:	ebb0 7f01 	cmp.w	r0, r1, lsl #28
8010137c:	bf00      	nop
8010137e:	eb42 0202 	adc.w	r2, r2, r2
80101382:	bf28      	it	cs
80101384:	eba0 7001 	subcs.w	r0, r0, r1, lsl #28
80101388:	ebb0 6fc1 	cmp.w	r0, r1, lsl #27
8010138c:	bf00      	nop
8010138e:	eb42 0202 	adc.w	r2, r2, r2
80101392:	bf28      	it	cs
80101394:	eba0 60c1 	subcs.w	r0, r0, r1, lsl #27
80101398:	ebb0 6f81 	cmp.w	r0, r1, lsl #26
8010139c:	bf00      	nop
8010139e:	eb42 0202 	adc.w	r2, r2, r2
801013a2:	bf28      	it	cs
801013a4:	eba0 6081 	subcs.w	r0, r0, r1, lsl #26
801013a8:	ebb0 6f41 	cmp.w	r0, r1, lsl #25
801013ac:	bf00      	nop
801013ae:	eb42 0202 	adc.w	r2, r2, r2
801013b2:	bf28      	it	cs
801013b4:	eba0 6041 	subcs.w	r0, r0, r1, lsl #25
801013b8:	ebb0 6f01 	cmp.w	r0, r1, lsl #24
801013bc:	bf00      	nop
801013be:	eb42 0202 	adc.w	r2, r2, r2
801013c2:	bf28      	it	cs
801013c4:	eba0 6001 	subcs.w	r0, r0, r1, lsl #24
801013c8:	ebb0 5fc1 	cmp.w	r0, r1, lsl #23
801013cc:	bf00      	nop
801013ce:	eb42 0202 	adc.w	r2, r2, r2
801013d2:	bf28      	it	cs
801013d4:	eba0 50c1 	subcs.w	r0, r0, r1, lsl #23
801013d8:	ebb0 5f81 	cmp.w	r0, r1, lsl #22
801013dc:	bf00      	nop
801013de:	eb42 0202 	adc.w	r2, r2, r2
801013e2:	bf28      	it	cs
801013e4:	eba0 5081 	subcs.w	r0, r0, r1, lsl #22
801013e8:	ebb0 5f41 	cmp.w	r0, r1, lsl #21
801013ec:	bf00      	nop
801013ee:	eb42 0202 	adc.w	r2, r2, r2
801013f2:	bf28      	it	cs
801013f4:	eba0 5041 	subcs.w	r0, r0, r1, lsl #21
801013f8:	ebb0 5f01 	cmp.w	r0, r1, lsl #20
801013fc:	bf00      	nop
801013fe:	eb42 0202 	adc.w	r2, r2, r2
80101402:	bf28      	it	cs
80101404:	eba0 5001 	subcs.w	r0, r0, r1, lsl #20
80101408:	ebb0 4fc1 	cmp.w	r0, r1, lsl #19
8010140c:	bf00      	nop
8010140e:	eb42 0202 	adc.w	r2, r2, r2
80101412:	bf28      	it	cs
80101414:	eba0 40c1 	subcs.w	r0, r0, r1, lsl #19
80101418:	ebb0 4f81 	cmp.w	r0, r1, lsl #18
8010141c:	bf00      	nop
8010141e:	eb42 0202 	adc.w	r2, r2, r2
80101422:	bf28      	it	cs
80101424:	eba0 4081 	subcs.w	r0, r0, r1, lsl #18
80101428:	ebb0 4f41 	cmp.w	r0, r1, lsl #17
8010142c:	bf00      	nop
8010142e:	eb42 0202 	adc.w	r2, r2, r2
80101432:	bf28      	it	cs
80101434:	eba0 4041 	subcs.w	r0, r0, r1, lsl #17
80101438:	ebb0 4f01 	cmp.w	r0, r1, lsl #16
8010143c:	bf00      	nop
8010143e:	eb42 0202 	adc.w	r2, r2, r2
80101442:	bf28      	it	cs
80101444:	eba0 4001 	subcs.w	r0, r0, r1, lsl #16
80101448:	ebb0 3fc1 	cmp.w	r0, r1, lsl #15
8010144c:	bf00      	nop
8010144e:	eb42 0202 	adc.w	r2, r2, r2
80101452:	bf28      	it	cs
80101454:	eba0 30c1 	subcs.w	r0, r0, r1, lsl #15
80101458:	ebb0 3f81 	cmp.w	r0, r1, lsl #14
8010145c:	bf00      	nop
8010145e:	eb42 0202 	adc.w	r2, r2, r2
80101462:	bf28      	it	cs
80101464:	eba0 3081 	subcs.w	r0, r0, r1, lsl #14
80101468:	ebb0 3f41 	cmp.w	r0, r1, lsl #13
8010146c:	bf00      	nop
8010146e:	eb42 0202 	adc.w	r2, r2, r2
80101472:	bf28      	it	cs
80101474:	eba0 3041 	subcs.w	r0, r0, r1, lsl #13
80101478:	ebb0 3f01 	cmp.w	r0, r1, lsl #12
8010147c:	bf00      	nop
8010147e:	eb42 0202 	adc.w	r2, r2, r2
80101482:	bf28      	it	cs
80101484:	eba0 3001 	subcs.w	r0, r0, r1, lsl #12
80101488:	ebb0 2fc1 	cmp.w	r0, r1, lsl #11
8010148c:	bf00      	nop
8010148e:	eb42 0202 	adc.w	r2, r2, r2
80101492:	bf28      	it	cs
80101494:	eba0 20c1 	subcs.w	r0, r0, r1, lsl #11
80101498:	ebb0 2f81 	cmp.w	r0, r1, lsl #10
8010149c:	bf00      	nop
8010149e:	eb42 0202 	adc.w	r2, r2, r2
801014a2:	bf28      	it	cs
801014a4:	eba0 2081 	subcs.w	r0, r0, r1, lsl #10
801014a8:	ebb0 2f41 	cmp.w	r0, r1, lsl #9
801014ac:	bf00      	nop
801014ae:	eb42 0202 	adc.w	r2, r2, r2
801014b2:	bf28      	it	cs
801014b4:	eba0 2041 	subcs.w	r0, r0, r1, lsl #9
801014b8:	ebb0 2f01 	cmp.w	r0, r1, lsl #8
801014bc:	bf00      	nop
801014be:	eb42 0202 	adc.w	r2, r2, r2
801014c2:	bf28      	it	cs
801014c4:	eba0 2001 	subcs.w	r0, r0, r1, lsl #8
801014c8:	ebb0 1fc1 	cmp.w	r0, r1, lsl #7
801014cc:	bf00      	nop
801014ce:	eb42 0202 	adc.w	r2, r2, r2
801014d2:	bf28      	it	cs
801014d4:	eba0 10c1 	subcs.w	r0, r0, r1, lsl #7
801014d8:	ebb0 1f81 	cmp.w	r0, r1, lsl #6
801014dc:	bf00      	nop
801014de:	eb42 0202 	adc.w	r2, r2, r2
801014e2:	bf28      	it	cs
801014e4:	eba0 1081 	subcs.w	r0, r0, r1, lsl #6
801014e8:	ebb0 1f41 	cmp.w	r0, r1, lsl #5
801014ec:	bf00      	nop
801014ee:	eb42 0202 	adc.w	r2, r2, r2
801014f2:	bf28      	it	cs
801014f4:	eba0 1041 	subcs.w	r0, r0, r1, lsl #5
801014f8:	ebb0 1f01 	cmp.w	r0, r1, lsl #4
801014fc:	bf00      	nop
801014fe:	eb42 0202 	adc.w	r2, r2, r2
80101502:	bf28      	it	cs
80101504:	eba0 1001 	subcs.w	r0, r0, r1, lsl #4
80101508:	ebb0 0fc1 	cmp.w	r0, r1, lsl #3
8010150c:	bf00      	nop
8010150e:	eb42 0202 	adc.w	r2, r2, r2
80101512:	bf28      	it	cs
80101514:	eba0 00c1 	subcs.w	r0, r0, r1, lsl #3
80101518:	ebb0 0f81 	cmp.w	r0, r1, lsl #2
8010151c:	bf00      	nop
8010151e:	eb42 0202 	adc.w	r2, r2, r2
80101522:	bf28      	it	cs
80101524:	eba0 0081 	subcs.w	r0, r0, r1, lsl #2
80101528:	ebb0 0f41 	cmp.w	r0, r1, lsl #1
8010152c:	bf00      	nop
8010152e:	eb42 0202 	adc.w	r2, r2, r2
80101532:	bf28      	it	cs
80101534:	eba0 0041 	subcs.w	r0, r0, r1, lsl #1
80101538:	ebb0 0f01 	cmp.w	r0, r1
8010153c:	bf00      	nop
8010153e:	eb42 0202 	adc.w	r2, r2, r2
80101542:	bf28      	it	cs
80101544:	eba0 0001 	subcs.w	r0, r0, r1
80101548:	4610      	mov	r0, r2
8010154a:	4770      	bx	lr
8010154c:	bf0c      	ite	eq
8010154e:	2001      	moveq	r0, #1
80101550:	2000      	movne	r0, #0
80101552:	4770      	bx	lr
80101554:	fab1 f281 	clz	r2, r1
80101558:	f1c2 021f 	rsb	r2, r2, #31
8010155c:	fa20 f002 	lsr.w	r0, r0, r2
80101560:	4770      	bx	lr
80101562:	b108      	cbz	r0, 80101568 <__aeabi_uidiv+0x258>
80101564:	f04f 30ff 	mov.w	r0, #4294967295	; 0xffffffff
80101568:	f000 b826 	b.w	801015b8 <__aeabi_idiv0>

8010156c <__aeabi_uidivmod>:
8010156c:	2900      	cmp	r1, #0
8010156e:	d0f8      	beq.n	80101562 <__aeabi_uidiv+0x252>
80101570:	e92d 4003 	stmdb	sp!, {r0, r1, lr}
80101574:	f7ff fecc 	bl	80101310 <__aeabi_uidiv>
80101578:	e8bd 4006 	ldmia.w	sp!, {r1, r2, lr}
8010157c:	fb02 f300 	mul.w	r3, r2, r0
80101580:	eba1 0103 	sub.w	r1, r1, r3
80101584:	4770      	bx	lr
80101586:	bf00      	nop

80101588 <__aeabi_uldivmod>:
80101588:	b953      	cbnz	r3, 801015a0 <__aeabi_uldivmod+0x18>
8010158a:	b94a      	cbnz	r2, 801015a0 <__aeabi_uldivmod+0x18>
8010158c:	2900      	cmp	r1, #0
8010158e:	bf08      	it	eq
80101590:	2800      	cmpeq	r0, #0
80101592:	bf1c      	itt	ne
80101594:	f04f 31ff 	movne.w	r1, #4294967295	; 0xffffffff
80101598:	f04f 30ff 	movne.w	r0, #4294967295	; 0xffffffff
8010159c:	f000 b80c 	b.w	801015b8 <__aeabi_idiv0>
801015a0:	f1ad 0c08 	sub.w	ip, sp, #8
801015a4:	e96d ce04 	strd	ip, lr, [sp, #-16]!
801015a8:	f000 f80c 	bl	801015c4 <__udivmoddi4>
801015ac:	f8dd e004 	ldr.w	lr, [sp, #4]
801015b0:	e9dd 2302 	ldrd	r2, r3, [sp, #8]
801015b4:	b004      	add	sp, #16
801015b6:	4770      	bx	lr

801015b8 <__aeabi_idiv0>:
801015b8:	b502      	push	{r1, lr}
801015ba:	f04f 0008 	mov.w	r0, #8
801015be:	f7ff fbb3 	bl	80100d28 <raise>
801015c2:	bd02      	pop	{r1, pc}

801015c4 <__udivmoddi4>:
801015c4:	4299      	cmp	r1, r3
801015c6:	e92d 47f0 	stmdb	sp!, {r4, r5, r6, r7, r8, r9, sl, lr}
801015ca:	bf08      	it	eq
801015cc:	4290      	cmpeq	r0, r2
801015ce:	4604      	mov	r4, r0
801015d0:	460d      	mov	r5, r1
801015d2:	bf38      	it	cc
801015d4:	2000      	movcc	r0, #0
801015d6:	f8dd a020 	ldr.w	sl, [sp, #32]
801015da:	bf38      	it	cc
801015dc:	2100      	movcc	r1, #0
801015de:	d369      	bcc.n	801016b4 <__udivmoddi4+0xf0>
801015e0:	fab3 f683 	clz	r6, r3
801015e4:	2b00      	cmp	r3, #0
801015e6:	d070      	beq.n	801016ca <__udivmoddi4+0x106>
801015e8:	fab5 f185 	clz	r1, r5
801015ec:	2d00      	cmp	r5, #0
801015ee:	d068      	beq.n	801016c2 <__udivmoddi4+0xfe>
801015f0:	1a76      	subs	r6, r6, r1
801015f2:	f1a6 0e20 	sub.w	lr, r6, #32
801015f6:	fa03 f906 	lsl.w	r9, r3, r6
801015fa:	fa02 f10e 	lsl.w	r1, r2, lr
801015fe:	f1c6 0720 	rsb	r7, r6, #32
80101602:	fa22 f307 	lsr.w	r3, r2, r7
80101606:	fa02 f806 	lsl.w	r8, r2, r6
8010160a:	ea49 0901 	orr.w	r9, r9, r1
8010160e:	ea49 0903 	orr.w	r9, r9, r3
80101612:	454d      	cmp	r5, r9
80101614:	bf08      	it	eq
80101616:	4544      	cmpeq	r4, r8
80101618:	bf3c      	itt	cc
8010161a:	2000      	movcc	r0, #0
8010161c:	2100      	movcc	r1, #0
8010161e:	d30c      	bcc.n	8010163a <__udivmoddi4+0x76>
80101620:	2301      	movs	r3, #1
80101622:	ebb4 0408 	subs.w	r4, r4, r8
80101626:	fa03 f10e 	lsl.w	r1, r3, lr
8010162a:	fa23 f207 	lsr.w	r2, r3, r7
8010162e:	fa03 f006 	lsl.w	r0, r3, r6
80101632:	ea41 0102 	orr.w	r1, r1, r2
80101636:	eb65 0509 	sbc.w	r5, r5, r9
8010163a:	2e00      	cmp	r6, #0
8010163c:	d03a      	beq.n	801016b4 <__udivmoddi4+0xf0>
8010163e:	ea5f 0959 	movs.w	r9, r9, lsr #1
80101642:	ea4f 0838 	mov.w	r8, r8, rrx
80101646:	46b4      	mov	ip, r6
80101648:	e00b      	b.n	80101662 <__udivmoddi4+0x9e>
8010164a:	ebb4 0408 	subs.w	r4, r4, r8
8010164e:	eb65 0509 	sbc.w	r5, r5, r9
80101652:	1924      	adds	r4, r4, r4
80101654:	416d      	adcs	r5, r5
80101656:	3401      	adds	r4, #1
80101658:	f145 0500 	adc.w	r5, r5, #0
8010165c:	f1bc 0c01 	subs.w	ip, ip, #1
80101660:	d008      	beq.n	80101674 <__udivmoddi4+0xb0>
80101662:	454d      	cmp	r5, r9
80101664:	bf08      	it	eq
80101666:	4544      	cmpeq	r4, r8
80101668:	d2ef      	bcs.n	8010164a <__udivmoddi4+0x86>
8010166a:	1924      	adds	r4, r4, r4
8010166c:	416d      	adcs	r5, r5
8010166e:	f1bc 0c01 	subs.w	ip, ip, #1
80101672:	d1f6      	bne.n	80101662 <__udivmoddi4+0x9e>
80101674:	fa05 f707 	lsl.w	r7, r5, r7
80101678:	fa24 f306 	lsr.w	r3, r4, r6
8010167c:	fa25 fe0e 	lsr.w	lr, r5, lr
80101680:	fa25 fc06 	lsr.w	ip, r5, r6
80101684:	433b      	orrs	r3, r7
80101686:	1900      	adds	r0, r0, r4
80101688:	ea43 040e 	orr.w	r4, r3, lr
8010168c:	f1a6 0e20 	sub.w	lr, r6, #32
80101690:	fa0c f306 	lsl.w	r3, ip, r6
80101694:	fa04 fe0e 	lsl.w	lr, r4, lr
80101698:	fa04 f206 	lsl.w	r2, r4, r6
8010169c:	f1c6 0720 	rsb	r7, r6, #32
801016a0:	fa24 f707 	lsr.w	r7, r4, r7
801016a4:	ea43 030e 	orr.w	r3, r3, lr
801016a8:	4169      	adcs	r1, r5
801016aa:	433b      	orrs	r3, r7
801016ac:	1a80      	subs	r0, r0, r2
801016ae:	4665      	mov	r5, ip
801016b0:	eb61 0103 	sbc.w	r1, r1, r3
801016b4:	f1ba 0f00 	cmp.w	sl, #0
801016b8:	d001      	beq.n	801016be <__udivmoddi4+0xfa>
801016ba:	e9ca 4500 	strd	r4, r5, [sl]
801016be:	e8bd 87f0 	ldmia.w	sp!, {r4, r5, r6, r7, r8, r9, sl, pc}
801016c2:	fab4 f184 	clz	r1, r4
801016c6:	3120      	adds	r1, #32
801016c8:	e792      	b.n	801015f0 <__udivmoddi4+0x2c>
801016ca:	fab2 f682 	clz	r6, r2
801016ce:	fab5 f185 	clz	r1, r5
801016d2:	3620      	adds	r6, #32
801016d4:	2d00      	cmp	r5, #0
801016d6:	d18b      	bne.n	801015f0 <__udivmoddi4+0x2c>
801016d8:	e7f3      	b.n	801016c2 <__udivmoddi4+0xfe>
801016da:	bf00      	nop

Disassembly of section .rodata:

801016dc <.LC0>:
801016dc:	65637845 	strbvs	r7, [r3, #-2117]!	; 0xfffff7bb
801016e0:	6f697470 	svcvs	0x00697470
801016e4:	6320216e 			; <UNDEFINED> instruction: 0x6320216e
801016e8:	20727370 	rsbscs	r7, r2, r0, ror r3
801016ec:	30207369 	eorcc	r7, r0, r9, ror #6
801016f0:	0d782578 	cfldr64eq	mvdx2, [r8, #-480]!	; 0xfffffe20
801016f4:	0000000a 	andeq	r0, r0, sl

801016f8 <.LC1>:
801016f8:	0a0d7325 	beq	8045e394 <__bss_end+0x35c5a4>
801016fc:	00000000 	andeq	r0, r0, r0

80101700 <.LC2>:
80101700:	20495753 	subcs	r5, r9, r3, asr r7
80101704:	206c6176 	rsbcs	r6, ip, r6, ror r1
80101708:	7830203d 	ldmdavc	r0!, {r0, r2, r3, r4, r5, sp}
8010170c:	0a0d7825 	beq	8045f7a8 <__bss_end+0x35d9b8>
80101710:	00000000 	andeq	r0, r0, r0

80101714 <.LC3>:
80101714:	2079656b 	rsbscs	r6, r9, fp, ror #10
80101718:	73692031 	cmnvc	r9, #49	; 0x31
8010171c:	6c657220 	sfmvs	f7, 2, [r5], #-128	; 0xffffff80
80101720:	65736165 	ldrbvs	r6, [r3, #-357]!	; 0xfffffe9b
80101724:	00000a0d 	andeq	r0, r0, sp, lsl #20

80101728 <.LC4>:
80101728:	2079656b 	rsbscs	r6, r9, fp, ror #10
8010172c:	73692031 	cmnvc	r9, #49	; 0x31
80101730:	65727020 	ldrbvs	r7, [r2, #-32]!	; 0xffffffe0
80101734:	0a0d7373 	beq	8045e508 <__bss_end+0x35c718>
80101738:	00000000 	andeq	r0, r0, r0

8010173c <.LC5>:
8010173c:	2079656b 	rsbscs	r6, r9, fp, ror #10
80101740:	73692032 	cmnvc	r9, #50	; 0x32
80101744:	6c657220 	sfmvs	f7, 2, [r5], #-128	; 0xffffff80
80101748:	65736165 	ldrbvs	r6, [r3, #-357]!	; 0xfffffe9b
8010174c:	00000a0d 	andeq	r0, r0, sp, lsl #20

80101750 <.LC6>:
80101750:	2079656b 	rsbscs	r6, r9, fp, ror #10
80101754:	73692032 	cmnvc	r9, #50	; 0x32
80101758:	65727020 	ldrbvs	r7, [r2, #-32]!	; 0xffffffe0
8010175c:	0a0d7373 	beq	8045e530 <__bss_end+0x35c740>
80101760:	00000000 	andeq	r0, r0, r0

80101764 <.LC7>:
80101764:	6c6c6568 	cfstr64vs	mvdx6, [ip], #-416	; 0xfffffe60
80101768:	6f77206f 	svcvs	0x0077206f
8010176c:	0d646c72 	stcleq	12, cr6, [r4, #-456]!	; 0xfffffe38
80101770:	0000000a 	andeq	r0, r0, sl

80101774 <.LC0>:
80101774:	73696854 	cmnvc	r9, #84, 16	; 0x540000
80101778:	20736920 	rsbscs	r6, r3, r0, lsr #18
8010177c:	2e777777 	mrccs	7, 3, r7, cr7, cr7, {3}
80101780:	61303031 	teqvs	r0, r1, lsr r0
80101784:	6f2e6b73 	svcvs	0x002e6b73
80101788:	20206772 	eorcs	r6, r0, r2, ror r7
8010178c:	5f796d20 	svcpl	0x00796d20
80101790:	6e697270 	mcrvs	2, 3, r7, cr9, cr0, {3}
80101794:	74206674 	strtvc	r6, [r0], #-1652	; 0xfffff98c
80101798:	0a747365 	beq	81e1e534 <__bss_end+0x1d1c744>
8010179c:	0000000d 	andeq	r0, r0, sp

801017a0 <.LC1>:
801017a0:	74736574 	ldrbtvc	r6, [r3], #-1396	; 0xfffffa8c
801017a4:	61686320 	cmnvs	r8, r0, lsr #6
801017a8:	20202072 	eorcs	r2, r0, r2, ror r0
801017ac:	20202020 	eorcs	r2, r0, r0, lsr #32
801017b0:	20202020 	eorcs	r2, r0, r0, lsr #32
801017b4:	2c63253d 	cfstr64cs	mvdx2, [r3], #-244	; 0xffffff0c
801017b8:	0d0a6325 	stceq	3, cr6, [sl, #-148]	; 0xffffff6c
801017bc:	00000000 	andeq	r0, r0, r0

801017c0 <.LC2>:
801017c0:	74736574 	ldrbtvc	r6, [r3], #-1396	; 0xfffffa8c
801017c4:	63656420 	cmnvs	r5, #32, 8	; 0x20000000
801017c8:	6c616d69 	stclvs	13, cr6, [r1], #-420	; 0xfffffe5c
801017cc:	6d756e20 	ldclvs	14, cr6, [r5, #-128]!	; 0xffffff80
801017d0:	20726562 	rsbscs	r6, r2, r2, ror #10
801017d4:	0a64253d 	beq	81a0acd0 <__bss_end+0x1908ee0>
801017d8:	0000000d 	andeq	r0, r0, sp

801017dc <.LC3>:
801017dc:	74736574 	ldrbtvc	r6, [r3], #-1396	; 0xfffffa8c
801017e0:	78656820 	stmdavc	r5!, {r5, fp, sp, lr}^
801017e4:	20202020 	eorcs	r2, r0, r0, lsr #32
801017e8:	6d756e20 	ldclvs	14, cr6, [r5, #-128]!	; 0xffffff80
801017ec:	20726562 	rsbscs	r6, r2, r2, ror #10
801017f0:	2578303d 	ldrbcs	r3, [r8, #-61]!	; 0xffffffc3
801017f4:	000d0a78 	andeq	r0, sp, r8, ror sl

801017f8 <.LC4>:
801017f8:	2e777777 	mrccs	7, 3, r7, cr7, cr7, {3}
801017fc:	61303031 	teqvs	r0, r1, lsr r0
80101800:	6f2e6b73 	svcvs	0x002e6b73
80101804:	00006772 	andeq	r6, r0, r2, ror r7

80101808 <.LC5>:
80101808:	74736574 	ldrbtvc	r6, [r3], #-1396	; 0xfffffa8c
8010180c:	72747320 	rsbsvc	r7, r4, #32, 6	; 0x80000000
80101810:	20676e69 	rsbcs	r6, r7, r9, ror #28
80101814:	20202020 	eorcs	r2, r0, r0, lsr #32
80101818:	20202020 	eorcs	r2, r0, r0, lsr #32
8010181c:	0a73253d 	beq	81dcad18 <__bss_end+0x1cc8f28>
80101820:	0000000d 	andeq	r0, r0, sp

80101824 <.LC6>:
80101824:	3d6d756e 	cfstr64cc	mvdx7, [sp, #-440]!	; 0xfffffe48
80101828:	64383025 	ldrtvs	r3, [r8], #-37	; 0xffffffdb
8010182c:	00000d0a 	andeq	r0, r0, sl, lsl #26

80101830 <.LC7>:
80101830:	3d6d756e 	cfstr64cc	mvdx7, [sp, #-440]!	; 0xfffffe48
80101834:	0a643825 	beq	81a0f8d0 <__bss_end+0x190dae0>
80101838:	0000000d 	andeq	r0, r0, sp

8010183c <.LC8>:
8010183c:	3d6d756e 	cfstr64cc	mvdx7, [sp, #-440]!	; 0xfffffe48
80101840:	30257830 	eorcc	r7, r5, r0, lsr r8
80101844:	0d0a7838 	stceq	8, cr7, [sl, #-224]	; 0xffffff20
80101848:	00000000 	andeq	r0, r0, r0

8010184c <.LC9>:
8010184c:	3d6d756e 	cfstr64cc	mvdx7, [sp, #-440]!	; 0xfffffe48
80101850:	38257830 	stmdacc	r5!, {r4, r5, fp, ip, sp, lr}
80101854:	000d0a78 	andeq	r0, sp, r8, ror sl

80101858 <.LC10>:
80101858:	3d6d756e 	cfstr64cc	mvdx7, [sp, #-440]!	; 0xfffffe48
8010185c:	30257830 	eorcc	r7, r5, r0, lsr r8
80101860:	0d0a7832 	stceq	8, cr7, [sl, #-200]	; 0xffffff38
80101864:	00000000 	andeq	r0, r0, r0

80101868 <.LC11>:
80101868:	3d6d756e 	cfstr64cc	mvdx7, [sp, #-440]!	; 0xfffffe48
8010186c:	32257830 	eorcc	r7, r5, #48, 16	; 0x300000
80101870:	000d0a78 	andeq	r0, sp, r8, ror sl

80101874 <.LC12>:
80101874:	3d6d756e 	cfstr64cc	mvdx7, [sp, #-440]!	; 0xfffffe48
80101878:	64353025 	ldrtvs	r3, [r5], #-37	; 0xffffffdb
8010187c:	00000d0a 	andeq	r0, r0, sl, lsl #26

80101880 <.LC13>:
80101880:	3d6d756e 	cfstr64cc	mvdx7, [sp, #-440]!	; 0xfffffe48
80101884:	0a643525 	beq	81a0ed20 <__bss_end+0x190cf30>
80101888:	0000000d 	andeq	r0, r0, sp

8010188c <.LC0>:
8010188c:	25717269 	ldrbcs	r7, [r1, #-617]!	; 0xfffffd97
80101890:	61682064 	cmnvs	r8, r4, rrx
80101894:	6e206576 	mcrvs	5, 1, r6, cr0, cr6, {3}
80101898:	7320746f 			; <UNDEFINED> instruction: 0x7320746f
8010189c:	69207465 	stmdbvs	r0!, {r0, r2, r5, r6, sl, ip, sp, lr}
801018a0:	68207172 	stmdavs	r0!, {r1, r4, r5, r6, r8, ip, sp, lr}
801018a4:	6c646e61 	stclvs	14, cr6, [r4], #-388	; 0xfffffe7c
801018a8:	202c7265 	eorcs	r7, ip, r5, ror #4
801018ac:	20657375 	rsbcs	r7, r5, r5, ror r3
801018b0:	61666564 	cmnvs	r6, r4, ror #10
801018b4:	20746c75 	rsbscs	r6, r4, r5, ror ip
801018b8:	61657473 	smcvs	22339	; 0x5743
801018bc:	00000a64 	andeq	r0, r0, r4, ror #20

801018c0 <.LC1>:
801018c0:	20717269 	rsbscs	r7, r1, r9, ror #4
801018c4:	69206425 	stmdbvs	r0!, {r0, r2, r5, sl, sp, lr}
801018c8:	61682073 	smcvs	33283	; 0x8203
801018cc:	6e657070 	mcrvs	0, 3, r7, cr5, cr0, {3}
801018d0:	0a0d6465 	beq	8045aa6c <__bss_end+0x358c7c>
	...

Disassembly of section .ARM.exidx:

801018d8 <.ARM.exidx>:
801018d8:	7ffffcec 	svcvc	0x00fffcec
801018dc:	00000001 	andeq	r0, r0, r1

Disassembly of section .data:

801018e0 <hex_tab>:
801018e0:	33323130 	teqcc	r2, #48, 2
801018e4:	37363534 			; <UNDEFINED> instruction: 0x37363534
801018e8:	62613938 	rsbvs	r3, r1, #56, 18	; 0xe0000
801018ec:	66656463 	strbtvs	r6, [r5], -r3, ror #8

Disassembly of section .bss:

801018f0 <__bss_start>:
	...

